{
	"Shahzad/projects/git/ERC1404/contracts/ERC1404TokenMinKYCv12.sol": {
		"ERC1404TokenMinKYCv12": {
			"abi": [
				{
					"inputs": [
						{
							"internalType": "uint256",
							"name": "_initialSupply",
							"type": "uint256"
						},
						{
							"internalType": "string",
							"name": "_name",
							"type": "string"
						},
						{
							"internalType": "string",
							"name": "_symbol",
							"type": "string"
						},
						{
							"internalType": "uint256",
							"name": "_allowedInvestors",
							"type": "uint256"
						},
						{
							"internalType": "uint256",
							"name": "_decimals",
							"type": "uint256"
						},
						{
							"internalType": "string",
							"name": "_ShareCertificate",
							"type": "string"
						},
						{
							"internalType": "string",
							"name": "_CompanyHomepage",
							"type": "string"
						},
						{
							"internalType": "string",
							"name": "_CompanyLegalDocs",
							"type": "string"
						},
						{
							"internalType": "address",
							"name": "_atomicSwapContractAddress",
							"type": "address"
						}
					],
					"stateMutability": "nonpayable",
					"type": "constructor"
				},
				{
					"anonymous": false,
					"inputs": [
						{
							"indexed": false,
							"internalType": "uint256",
							"name": "_allowedInvestors",
							"type": "uint256"
						}
					],
					"name": "AllowedInvestorsReset",
					"type": "event"
				},
				{
					"anonymous": false,
					"inputs": [
						{
							"indexed": true,
							"internalType": "address",
							"name": "owner",
							"type": "address"
						},
						{
							"indexed": true,
							"internalType": "address",
							"name": "spender",
							"type": "address"
						},
						{
							"indexed": false,
							"internalType": "uint256",
							"name": "value",
							"type": "uint256"
						}
					],
					"name": "Approval",
					"type": "event"
				},
				{
					"anonymous": false,
					"inputs": [
						{
							"indexed": true,
							"internalType": "address",
							"name": "account",
							"type": "address"
						},
						{
							"indexed": false,
							"internalType": "uint256",
							"name": "amount",
							"type": "uint256"
						}
					],
					"name": "BurnTokens",
					"type": "event"
				},
				{
					"anonymous": false,
					"inputs": [
						{
							"indexed": false,
							"internalType": "string",
							"name": "_CompanyHomepage",
							"type": "string"
						}
					],
					"name": "CompanyHomepageReset",
					"type": "event"
				},
				{
					"anonymous": false,
					"inputs": [
						{
							"indexed": false,
							"internalType": "string",
							"name": "_CompanyLegalDocs",
							"type": "string"
						}
					],
					"name": "CompanyLegalDocsReset",
					"type": "event"
				},
				{
					"anonymous": false,
					"inputs": [
						{
							"indexed": false,
							"internalType": "uint256",
							"name": "_tradingHoldingPeriod",
							"type": "uint256"
						}
					],
					"name": "HoldingPeriodReset",
					"type": "event"
				},
				{
					"anonymous": false,
					"inputs": [
						{
							"indexed": true,
							"internalType": "address",
							"name": "account",
							"type": "address"
						},
						{
							"indexed": false,
							"internalType": "uint256",
							"name": "buyRestriction",
							"type": "uint256"
						},
						{
							"indexed": false,
							"internalType": "uint256",
							"name": "sellRestriction",
							"type": "uint256"
						}
					],
					"name": "KYCDataForUserModified",
					"type": "event"
				},
				{
					"anonymous": false,
					"inputs": [
						{
							"indexed": true,
							"internalType": "address",
							"name": "account",
							"type": "address"
						},
						{
							"indexed": false,
							"internalType": "uint256",
							"name": "buyRestriction",
							"type": "uint256"
						},
						{
							"indexed": false,
							"internalType": "uint256",
							"name": "sellRestriction",
							"type": "uint256"
						}
					],
					"name": "KYCDataForUserSet",
					"type": "event"
				},
				{
					"anonymous": false,
					"inputs": [
						{
							"indexed": true,
							"internalType": "address",
							"name": "account",
							"type": "address"
						},
						{
							"indexed": false,
							"internalType": "uint256",
							"name": "amount",
							"type": "uint256"
						}
					],
					"name": "MintTokens",
					"type": "event"
				},
				{
					"anonymous": false,
					"inputs": [
						{
							"indexed": false,
							"internalType": "string",
							"name": "_ShareCertificate",
							"type": "string"
						}
					],
					"name": "ShareCertificateReset",
					"type": "event"
				},
				{
					"anonymous": false,
					"inputs": [
						{
							"indexed": true,
							"internalType": "address",
							"name": "from",
							"type": "address"
						},
						{
							"indexed": true,
							"internalType": "address",
							"name": "to",
							"type": "address"
						},
						{
							"indexed": false,
							"internalType": "uint256",
							"name": "value",
							"type": "uint256"
						}
					],
					"name": "Transfer",
					"type": "event"
				},
				{
					"anonymous": false,
					"inputs": [
						{
							"indexed": false,
							"internalType": "address",
							"name": "spender",
							"type": "address"
						},
						{
							"indexed": false,
							"internalType": "address",
							"name": "sender",
							"type": "address"
						},
						{
							"indexed": false,
							"internalType": "address",
							"name": "recipient",
							"type": "address"
						},
						{
							"indexed": false,
							"internalType": "uint256",
							"name": "amount",
							"type": "uint256"
						}
					],
					"name": "TransferFrom",
					"type": "event"
				},
				{
					"anonymous": false,
					"inputs": [
						{
							"indexed": true,
							"internalType": "address",
							"name": "from",
							"type": "address"
						},
						{
							"indexed": true,
							"internalType": "address",
							"name": "to",
							"type": "address"
						},
						{
							"indexed": false,
							"internalType": "string",
							"name": "message",
							"type": "string"
						}
					],
					"name": "TransferRestrictionDetected",
					"type": "event"
				},
				{
					"anonymous": false,
					"inputs": [
						{
							"indexed": false,
							"internalType": "address",
							"name": "user",
							"type": "address"
						}
					],
					"name": "WhitelistAuthorityStatusRemoved",
					"type": "event"
				},
				{
					"anonymous": false,
					"inputs": [
						{
							"indexed": false,
							"internalType": "address",
							"name": "user",
							"type": "address"
						}
					],
					"name": "WhitelistAuthorityStatusSet",
					"type": "event"
				},
				{
					"inputs": [],
					"name": "CompanyHomepage",
					"outputs": [
						{
							"internalType": "string",
							"name": "",
							"type": "string"
						}
					],
					"stateMutability": "view",
					"type": "function"
				},
				{
					"inputs": [],
					"name": "CompanyLegalDocs",
					"outputs": [
						{
							"internalType": "string",
							"name": "",
							"type": "string"
						}
					],
					"stateMutability": "view",
					"type": "function"
				},
				{
					"inputs": [],
					"name": "IssuancePlatform",
					"outputs": [
						{
							"internalType": "string",
							"name": "",
							"type": "string"
						}
					],
					"stateMutability": "view",
					"type": "function"
				},
				{
					"inputs": [],
					"name": "ShareCertificate",
					"outputs": [
						{
							"internalType": "string",
							"name": "",
							"type": "string"
						}
					],
					"stateMutability": "view",
					"type": "function"
				},
				{
					"inputs": [
						{
							"internalType": "address",
							"name": "ownby",
							"type": "address"
						},
						{
							"internalType": "address",
							"name": "spender",
							"type": "address"
						}
					],
					"name": "allowance",
					"outputs": [
						{
							"internalType": "uint256",
							"name": "",
							"type": "uint256"
						}
					],
					"stateMutability": "view",
					"type": "function"
				},
				{
					"inputs": [],
					"name": "allowedInvestors",
					"outputs": [
						{
							"internalType": "uint256",
							"name": "",
							"type": "uint256"
						}
					],
					"stateMutability": "view",
					"type": "function"
				},
				{
					"inputs": [
						{
							"internalType": "address",
							"name": "spender",
							"type": "address"
						},
						{
							"internalType": "uint256",
							"name": "amount",
							"type": "uint256"
						}
					],
					"name": "approve",
					"outputs": [
						{
							"internalType": "bool",
							"name": "",
							"type": "bool"
						}
					],
					"stateMutability": "nonpayable",
					"type": "function"
				},
				{
					"inputs": [
						{
							"internalType": "address",
							"name": "account",
							"type": "address"
						}
					],
					"name": "balanceOf",
					"outputs": [
						{
							"internalType": "uint256",
							"name": "",
							"type": "uint256"
						}
					],
					"stateMutability": "view",
					"type": "function"
				},
				{
					"inputs": [
						{
							"internalType": "address[]",
							"name": "account",
							"type": "address[]"
						},
						{
							"internalType": "uint256",
							"name": "buyRestriction",
							"type": "uint256"
						},
						{
							"internalType": "uint256",
							"name": "sellRestriction",
							"type": "uint256"
						}
					],
					"name": "bulkWhitelistWallets",
					"outputs": [],
					"stateMutability": "nonpayable",
					"type": "function"
				},
				{
					"inputs": [
						{
							"internalType": "address",
							"name": "account",
							"type": "address"
						},
						{
							"internalType": "uint256",
							"name": "amount",
							"type": "uint256"
						}
					],
					"name": "burn",
					"outputs": [
						{
							"internalType": "bool",
							"name": "",
							"type": "bool"
						}
					],
					"stateMutability": "nonpayable",
					"type": "function"
				},
				{
					"inputs": [],
					"name": "currentTotalInvestors",
					"outputs": [
						{
							"internalType": "uint256",
							"name": "",
							"type": "uint256"
						}
					],
					"stateMutability": "view",
					"type": "function"
				},
				{
					"inputs": [],
					"name": "decimals",
					"outputs": [
						{
							"internalType": "uint256",
							"name": "",
							"type": "uint256"
						}
					],
					"stateMutability": "view",
					"type": "function"
				},
				{
					"inputs": [
						{
							"internalType": "address",
							"name": "_from",
							"type": "address"
						},
						{
							"internalType": "address",
							"name": "_to",
							"type": "address"
						},
						{
							"internalType": "uint256",
							"name": "value",
							"type": "uint256"
						}
					],
					"name": "detectTransferRestriction",
					"outputs": [
						{
							"internalType": "uint8",
							"name": "status",
							"type": "uint8"
						}
					],
					"stateMutability": "view",
					"type": "function"
				},
				{
					"inputs": [
						{
							"internalType": "address",
							"name": "from",
							"type": "address"
						},
						{
							"internalType": "uint256",
							"name": "amount",
							"type": "uint256"
						}
					],
					"name": "forceTransferToken",
					"outputs": [
						{
							"internalType": "bool",
							"name": "",
							"type": "bool"
						}
					],
					"stateMutability": "nonpayable",
					"type": "function"
				},
				{
					"inputs": [
						{
							"internalType": "address",
							"name": "user",
							"type": "address"
						}
					],
					"name": "getKYCData",
					"outputs": [
						{
							"internalType": "uint256",
							"name": "",
							"type": "uint256"
						},
						{
							"internalType": "uint256",
							"name": "",
							"type": "uint256"
						}
					],
					"stateMutability": "view",
					"type": "function"
				},
				{
					"inputs": [
						{
							"internalType": "address",
							"name": "user",
							"type": "address"
						}
					],
					"name": "getWhitelistAuthorityStatus",
					"outputs": [
						{
							"internalType": "bool",
							"name": "",
							"type": "bool"
						}
					],
					"stateMutability": "view",
					"type": "function"
				},
				{
					"inputs": [],
					"name": "issuanceProtocol",
					"outputs": [
						{
							"internalType": "string",
							"name": "",
							"type": "string"
						}
					],
					"stateMutability": "view",
					"type": "function"
				},
				{
					"inputs": [
						{
							"internalType": "uint8",
							"name": "restrictionCode",
							"type": "uint8"
						}
					],
					"name": "messageForTransferRestriction",
					"outputs": [
						{
							"internalType": "string",
							"name": "message",
							"type": "string"
						}
					],
					"stateMutability": "view",
					"type": "function"
				},
				{
					"inputs": [
						{
							"internalType": "address",
							"name": "account",
							"type": "address"
						},
						{
							"internalType": "uint256",
							"name": "amount",
							"type": "uint256"
						}
					],
					"name": "mint",
					"outputs": [
						{
							"internalType": "bool",
							"name": "",
							"type": "bool"
						}
					],
					"stateMutability": "nonpayable",
					"type": "function"
				},
				{
					"inputs": [
						{
							"internalType": "address",
							"name": "account",
							"type": "address"
						},
						{
							"internalType": "uint256",
							"name": "buyRestriction",
							"type": "uint256"
						},
						{
							"internalType": "uint256",
							"name": "sellRestriction",
							"type": "uint256"
						}
					],
					"name": "modifyKYCData",
					"outputs": [],
					"stateMutability": "nonpayable",
					"type": "function"
				},
				{
					"inputs": [],
					"name": "name",
					"outputs": [
						{
							"internalType": "string",
							"name": "",
							"type": "string"
						}
					],
					"stateMutability": "view",
					"type": "function"
				},
				{
					"inputs": [],
					"name": "owner",
					"outputs": [
						{
							"internalType": "address",
							"name": "",
							"type": "address"
						}
					],
					"stateMutability": "view",
					"type": "function"
				},
				{
					"inputs": [
						{
							"internalType": "address",
							"name": "user",
							"type": "address"
						}
					],
					"name": "removeWhitelistAuthorityStatus",
					"outputs": [],
					"stateMutability": "nonpayable",
					"type": "function"
				},
				{
					"inputs": [
						{
							"internalType": "uint256",
							"name": "_allowedInvestors",
							"type": "uint256"
						}
					],
					"name": "resetAllowedInvestors",
					"outputs": [],
					"stateMutability": "nonpayable",
					"type": "function"
				},
				{
					"inputs": [
						{
							"internalType": "string",
							"name": "_CompanyHomepage",
							"type": "string"
						}
					],
					"name": "resetCompanyHomepage",
					"outputs": [],
					"stateMutability": "nonpayable",
					"type": "function"
				},
				{
					"inputs": [
						{
							"internalType": "string",
							"name": "_CompanyLegalDocs",
							"type": "string"
						}
					],
					"name": "resetCompanyLegalDocs",
					"outputs": [],
					"stateMutability": "nonpayable",
					"type": "function"
				},
				{
					"inputs": [
						{
							"internalType": "string",
							"name": "_ShareCertificate",
							"type": "string"
						}
					],
					"name": "resetShareCertificate",
					"outputs": [],
					"stateMutability": "nonpayable",
					"type": "function"
				},
				{
					"inputs": [
						{
							"internalType": "uint256",
							"name": "_tradingHoldingPeriod",
							"type": "uint256"
						}
					],
					"name": "setTradingHoldingPeriod",
					"outputs": [],
					"stateMutability": "nonpayable",
					"type": "function"
				},
				{
					"inputs": [
						{
							"internalType": "address",
							"name": "user",
							"type": "address"
						}
					],
					"name": "setWhitelistAuthorityStatus",
					"outputs": [],
					"stateMutability": "nonpayable",
					"type": "function"
				},
				{
					"inputs": [],
					"name": "symbol",
					"outputs": [
						{
							"internalType": "string",
							"name": "",
							"type": "string"
						}
					],
					"stateMutability": "view",
					"type": "function"
				},
				{
					"inputs": [],
					"name": "totalSupply",
					"outputs": [
						{
							"internalType": "uint256",
							"name": "",
							"type": "uint256"
						}
					],
					"stateMutability": "view",
					"type": "function"
				},
				{
					"inputs": [],
					"name": "tradingHoldingPeriod",
					"outputs": [
						{
							"internalType": "uint256",
							"name": "",
							"type": "uint256"
						}
					],
					"stateMutability": "view",
					"type": "function"
				},
				{
					"inputs": [
						{
							"internalType": "address",
							"name": "recipient",
							"type": "address"
						},
						{
							"internalType": "uint256",
							"name": "amount",
							"type": "uint256"
						}
					],
					"name": "transfer",
					"outputs": [
						{
							"internalType": "bool",
							"name": "",
							"type": "bool"
						}
					],
					"stateMutability": "nonpayable",
					"type": "function"
				},
				{
					"inputs": [
						{
							"internalType": "address",
							"name": "sender",
							"type": "address"
						},
						{
							"internalType": "address",
							"name": "recipient",
							"type": "address"
						},
						{
							"internalType": "uint256",
							"name": "amount",
							"type": "uint256"
						}
					],
					"name": "transferFrom",
					"outputs": [
						{
							"internalType": "bool",
							"name": "",
							"type": "bool"
						}
					],
					"stateMutability": "nonpayable",
					"type": "function"
				},
				{
					"inputs": [
						{
							"internalType": "address",
							"name": "newOwner",
							"type": "address"
						}
					],
					"name": "transferOwnership",
					"outputs": [],
					"stateMutability": "nonpayable",
					"type": "function"
				},
				{
					"inputs": [],
					"name": "version",
					"outputs": [
						{
							"internalType": "string",
							"name": "",
							"type": "string"
						}
					],
					"stateMutability": "view",
					"type": "function"
				}
			],
			"devdoc": {
				"kind": "dev",
				"methods": {
					"approve(address,uint256)": {
						"details": "Sets `amount` as the allowance of `spender` over the caller's tokens. Returns a boolean value indicating whether the operation succeeded. IMPORTANT: Beware that changing an allowance with this method brings the risk that someone may use both the old and the new allowance by unfortunate transaction ordering. One possible solution to mitigate this race condition is to first reduce the spender's allowance to 0 and set the desired value afterwards: https://github.com/ethereum/EIPs/issues/20#issuecomment-263524729 Emits an {Approval} event."
					},
					"balanceOf(address)": {
						"details": "Returns the amount of tokens owned by `account`."
					},
					"messageForTransferRestriction(uint8)": {
						"details": "Overwrite with your custom message and restrictionCode handling",
						"params": {
							"restrictionCode": "Identifier for looking up a message"
						},
						"returns": {
							"message": "Text showing the restriction's reasoning"
						}
					},
					"totalSupply()": {
						"details": "Returns the amount of tokens in existence."
					},
					"transfer(address,uint256)": {
						"details": "Moves `amount` tokens from the caller's account to `recipient`. Returns a boolean value indicating whether the operation succeeded. Emits a {Transfer} event."
					},
					"transferFrom(address,address,uint256)": {
						"details": "Moves `amount` tokens from `sender` to `recipient` using the allowance mechanism. `amount` is then deducted from the caller's allowance. Returns a boolean value indicating whether the operation succeeded. Emits a {Transfer} event."
					}
				},
				"version": 1
			},
			"evm": {
				"assembly": "    /* \"Shahzad/projects/git/ERC1404/contracts/ERC1404TokenMinKYCv12.sol\":199:16036  contract ERC1404TokenMinKYCv12 is IERC20Token, IERC1404 {... */\n  mstore(0x40, 0x80)\n    /* \"Shahzad/projects/git/ERC1404/contracts/ERC1404TokenMinKYCv12.sol\":2254:2256  18 */\n  0x12\n    /* \"Shahzad/projects/git/ERC1404/contracts/ERC1404TokenMinKYCv12.sol\":2228:2256  uint256 public decimals = 18 */\n  0x06\n  sstore\n    /* \"Shahzad/projects/git/ERC1404/contracts/ERC1404TokenMinKYCv12.sol\":2259:2288  string public version = \"1.2\" */\n  mload(0x40)\n  dup1\n  0x40\n  add\n  0x40\n  mstore\n  dup1\n  0x03\n  dup2\n  mstore\n  0x20\n  add\n  0x312e320000000000000000000000000000000000000000000000000000000000\n  dup2\n  mstore\n  pop\n  0x07\n  swap1\n  dup1\n  mload\n  swap1\n  0x20\n  add\n  swap1\n  tag_1\n  swap3\n  swap2\n  swap1\n  tag_2\n  jump\t// in\ntag_1:\n  pop\n    /* \"Shahzad/projects/git/ERC1404/contracts/ERC1404TokenMinKYCv12.sol\":2291:2336  string public IssuancePlatform = \"DigiShares\" */\n  mload(0x40)\n  dup1\n  0x40\n  add\n  0x40\n  mstore\n  dup1\n  0x0a\n  dup2\n  mstore\n  0x20\n  add\n  0x4469676953686172657300000000000000000000000000000000000000000000\n  dup2\n  mstore\n  pop\n  0x08\n  swap1\n  dup1\n  mload\n  swap1\n  0x20\n  add\n  swap1\n  tag_3\n  swap3\n  swap2\n  swap1\n  tag_2\n  jump\t// in\ntag_3:\n  pop\n    /* \"Shahzad/projects/git/ERC1404/contracts/ERC1404TokenMinKYCv12.sol\":2339:2382  string public issuanceProtocol = \"ERC-1404\" */\n  mload(0x40)\n  dup1\n  0x40\n  add\n  0x40\n  mstore\n  dup1\n  0x08\n  dup2\n  mstore\n  0x20\n  add\n  0x4552432d31343034000000000000000000000000000000000000000000000000\n  dup2\n  mstore\n  pop\n  0x09\n  swap1\n  dup1\n  mload\n  swap1\n  0x20\n  add\n  swap1\n  tag_4\n  swap3\n  swap2\n  swap1\n  tag_2\n  jump\t// in\ntag_4:\n  pop\n    /* \"Shahzad/projects/git/ERC1404/contracts/ERC1404TokenMinKYCv12.sol\":2792:2793  0 */\n  0x00\n    /* \"Shahzad/projects/git/ERC1404/contracts/ERC1404TokenMinKYCv12.sol\":2753:2793  uint256 public currentTotalInvestors = 0 */\n  0x10\n  sstore\n    /* \"Shahzad/projects/git/ERC1404/contracts/ERC1404TokenMinKYCv12.sol\":2832:2833  0 */\n  0x00\n    /* \"Shahzad/projects/git/ERC1404/contracts/ERC1404TokenMinKYCv12.sol\":2798:2833  uint256 public allowedInvestors = 0 */\n  0x11\n  sstore\n    /* \"Shahzad/projects/git/ERC1404/contracts/ERC1404TokenMinKYCv12.sol\":2876:2877  1 */\n  0x01\n    /* \"Shahzad/projects/git/ERC1404/contracts/ERC1404TokenMinKYCv12.sol\":2838:2877  uint256 public tradingHoldingPeriod = 1 */\n  0x12\n  sstore\n    /* \"Shahzad/projects/git/ERC1404/contracts/ERC1404TokenMinKYCv12.sol\":3444:4045  string[] private _messageForTransferRestriction = [... */\n  mload(0x40)\n  dup1\n  0x0100\n  add\n  0x40\n  mstore\n  dup1\n  mload(0x40)\n  dup1\n  0x40\n  add\n  0x40\n  mstore\n  dup1\n  0x1e\n  dup2\n  mstore\n  0x20\n  add\n  0x4e6f207472616e73666572207265737472696374696f6e7320666f756e640000\n  dup2\n  mstore\n  pop\n  dup2\n  mstore\n  0x20\n  add\n  mload(0x40)\n  dup1\n  0x80\n  add\n  0x40\n  mstore\n  dup1\n  0x57\n  dup2\n  mstore\n  0x20\n  add\n  data_4440c032e746f33200962f44b90c6baeb8a9490cc8cfdd8f15a36acf65844772\n  0x57\n  swap2\n  codecopy\n  dup2\n  mstore\n  0x20\n  add\n  mload(0x40)\n  dup1\n  0x80\n  add\n  0x40\n  mstore\n  dup1\n  0x44\n  dup2\n  mstore\n  0x20\n  add\n  data_c06fda3c41df076643499cebb61f71adfbc909dbd75501db341cc82d5933142b\n  0x44\n  swap2\n  codecopy\n  dup2\n  mstore\n  0x20\n  add\n  mload(0x40)\n  dup1\n  0x40\n  add\n  0x40\n  mstore\n  dup1\n  0x20\n  dup2\n  mstore\n  0x20\n  add\n  0x5a65726f207472616e7366657220616d6f756e74206e6f7420616c6c6f776564\n  dup2\n  mstore\n  pop\n  dup2\n  mstore\n  0x20\n  add\n  mload(0x40)\n  dup1\n  0x60\n  add\n  0x40\n  mstore\n  dup1\n  0x24\n  dup2\n  mstore\n  0x20\n  add\n  data_f32e889bc43e14f6f361a9fb16e2e4f7ae397532b0ea1cf85b8b8914d3f5dbc4\n  0x24\n  swap2\n  codecopy\n  dup2\n  mstore\n  0x20\n  add\n  mload(0x40)\n  dup1\n  0x60\n  add\n  0x40\n  mstore\n  dup1\n  0x26\n  dup2\n  mstore\n  0x20\n  add\n  data_0bf17d6579a15f80cddc5ddc4c7802721ab098d4db24a2c055da5f58a25e33a5\n  0x26\n  swap2\n  codecopy\n  dup2\n  mstore\n  0x20\n  add\n  mload(0x40)\n  dup1\n  0xa0\n  add\n  0x40\n  mstore\n  dup1\n  0x68\n  dup2\n  mstore\n  0x20\n  add\n  data_74c2d1263641840c4bf20a32b19f8ec2189d64e295faf5087433fd363b0d0b13\n  0x68\n  swap2\n  codecopy\n  dup2\n  mstore\n  0x20\n  add\n  mload(0x40)\n  dup1\n  0xa0\n  add\n  0x40\n  mstore\n  dup1\n  0x66\n  dup2\n  mstore\n  0x20\n  add\n  data_c0b3b74fbdbabd67b27d0f337b8b420091e75c6e12a17cd864ffcacf5ec7db0f\n  0x66\n  swap2\n  codecopy\n  dup2\n  mstore\n  pop\n  0x13\n  swap1\n  0x08\n  tag_5\n  swap3\n  swap2\n  swap1\n  tag_6\n  jump\t// in\ntag_5:\n  pop\n    /* \"Shahzad/projects/git/ERC1404/contracts/ERC1404TokenMinKYCv12.sol\":4052:5038  constructor(... */\n  callvalue\n  dup1\n  iszero\n  tag_7\n  jumpi\n  0x00\n  dup1\n  revert\ntag_7:\n  pop\n  mload(0x40)\n  sub(codesize, bytecodeSize)\n  dup1\n  bytecodeSize\n  dup4\n  codecopy\n  dup2\n  dup2\n  add\n  0x40\n  mstore\n  dup2\n  add\n  swap1\n  tag_8\n  swap2\n  swap1\n  tag_9\n  jump\t// in\ntag_8:\n    /* \"Shahzad/projects/git/ERC1404/contracts/ERC1404TokenMinKYCv12.sol\":4356:4361  _name */\n  dup8\n    /* \"Shahzad/projects/git/ERC1404/contracts/ERC1404TokenMinKYCv12.sol\":4349:4353  name */\n  0x0b\n    /* \"Shahzad/projects/git/ERC1404/contracts/ERC1404TokenMinKYCv12.sol\":4349:4361  name = _name */\n  swap1\n  dup1\n  mload\n  swap1\n  0x20\n  add\n  swap1\n  tag_12\n  swap3\n  swap2\n  swap1\n  tag_2\n  jump\t// in\ntag_12:\n  pop\n    /* \"Shahzad/projects/git/ERC1404/contracts/ERC1404TokenMinKYCv12.sol\":4375:4382  _symbol */\n  dup7\n    /* \"Shahzad/projects/git/ERC1404/contracts/ERC1404TokenMinKYCv12.sol\":4366:4372  symbol */\n  0x0c\n    /* \"Shahzad/projects/git/ERC1404/contracts/ERC1404TokenMinKYCv12.sol\":4366:4382  symbol = _symbol */\n  swap1\n  dup1\n  mload\n  swap1\n  0x20\n  add\n  swap1\n  tag_13\n  swap3\n  swap2\n  swap1\n  tag_2\n  jump\t// in\ntag_13:\n  pop\n    /* \"Shahzad/projects/git/ERC1404/contracts/ERC1404TokenMinKYCv12.sol\":4399:4408  _decimals */\n  dup5\n    /* \"Shahzad/projects/git/ERC1404/contracts/ERC1404TokenMinKYCv12.sol\":4388:4396  decimals */\n  0x06\n    /* \"Shahzad/projects/git/ERC1404/contracts/ERC1404TokenMinKYCv12.sol\":4388:4408  decimals = _decimals */\n  dup2\n  swap1\n  sstore\n  pop\n    /* \"Shahzad/projects/git/ERC1404/contracts/ERC1404TokenMinKYCv12.sol\":4423:4433  msg.sender */\n  caller\n    /* \"Shahzad/projects/git/ERC1404/contracts/ERC1404TokenMinKYCv12.sol\":4414:4420  _owner */\n  0x04\n  0x00\n    /* \"Shahzad/projects/git/ERC1404/contracts/ERC1404TokenMinKYCv12.sol\":4414:4433  _owner = msg.sender */\n  0x0100\n  exp\n  dup2\n  sload\n  dup2\n  0xffffffffffffffffffffffffffffffffffffffff\n  mul\n  not\n  and\n  swap1\n  dup4\n  0xffffffffffffffffffffffffffffffffffffffff\n  and\n  mul\n  or\n  swap1\n  sstore\n  pop\n    /* \"Shahzad/projects/git/ERC1404/contracts/ERC1404TokenMinKYCv12.sol\":4464:4465  1 */\n  0x01\n    /* \"Shahzad/projects/git/ERC1404/contracts/ERC1404TokenMinKYCv12.sol\":4438:4453  _buyRestriction */\n  0x00\n    /* \"Shahzad/projects/git/ERC1404/contracts/ERC1404TokenMinKYCv12.sol\":4438:4461  _buyRestriction[_owner] */\n  dup1\n    /* \"Shahzad/projects/git/ERC1404/contracts/ERC1404TokenMinKYCv12.sol\":4454:4460  _owner */\n  0x04\n  0x00\n  swap1\n  sload\n  swap1\n  0x0100\n  exp\n  swap1\n  div\n  0xffffffffffffffffffffffffffffffffffffffff\n  and\n    /* \"Shahzad/projects/git/ERC1404/contracts/ERC1404TokenMinKYCv12.sol\":4438:4461  _buyRestriction[_owner] */\n  0xffffffffffffffffffffffffffffffffffffffff\n  and\n  0xffffffffffffffffffffffffffffffffffffffff\n  and\n  dup2\n  mstore\n  0x20\n  add\n  swap1\n  dup2\n  mstore\n  0x20\n  add\n  0x00\n  keccak256\n    /* \"Shahzad/projects/git/ERC1404/contracts/ERC1404TokenMinKYCv12.sol\":4438:4465  _buyRestriction[_owner] = 1 */\n  dup2\n  swap1\n  sstore\n  pop\n    /* \"Shahzad/projects/git/ERC1404/contracts/ERC1404TokenMinKYCv12.sol\":4497:4498  1 */\n  0x01\n    /* \"Shahzad/projects/git/ERC1404/contracts/ERC1404TokenMinKYCv12.sol\":4470:4486  _sellRestriction */\n  dup1\n    /* \"Shahzad/projects/git/ERC1404/contracts/ERC1404TokenMinKYCv12.sol\":4470:4494  _sellRestriction[_owner] */\n  0x00\n    /* \"Shahzad/projects/git/ERC1404/contracts/ERC1404TokenMinKYCv12.sol\":4487:4493  _owner */\n  0x04\n  0x00\n  swap1\n  sload\n  swap1\n  0x0100\n  exp\n  swap1\n  div\n  0xffffffffffffffffffffffffffffffffffffffff\n  and\n    /* \"Shahzad/projects/git/ERC1404/contracts/ERC1404TokenMinKYCv12.sol\":4470:4494  _sellRestriction[_owner] */\n  0xffffffffffffffffffffffffffffffffffffffff\n  and\n  0xffffffffffffffffffffffffffffffffffffffff\n  and\n  dup2\n  mstore\n  0x20\n  add\n  swap1\n  dup2\n  mstore\n  0x20\n  add\n  0x00\n  keccak256\n    /* \"Shahzad/projects/git/ERC1404/contracts/ERC1404TokenMinKYCv12.sol\":4470:4498  _sellRestriction[_owner] = 1 */\n  dup2\n  swap1\n  sstore\n  pop\n    /* \"Shahzad/projects/git/ERC1404/contracts/ERC1404TokenMinKYCv12.sol\":4549:4550  1 */\n  0x01\n    /* \"Shahzad/projects/git/ERC1404/contracts/ERC1404TokenMinKYCv12.sol\":4503:4518  _buyRestriction */\n  0x00\n    /* \"Shahzad/projects/git/ERC1404/contracts/ERC1404TokenMinKYCv12.sol\":4503:4546  _buyRestriction[_atomicSwapContractAddress] */\n  dup1\n    /* \"Shahzad/projects/git/ERC1404/contracts/ERC1404TokenMinKYCv12.sol\":4519:4545  _atomicSwapContractAddress */\n  dup4\n    /* \"Shahzad/projects/git/ERC1404/contracts/ERC1404TokenMinKYCv12.sol\":4503:4546  _buyRestriction[_atomicSwapContractAddress] */\n  0xffffffffffffffffffffffffffffffffffffffff\n  and\n  0xffffffffffffffffffffffffffffffffffffffff\n  and\n  dup2\n  mstore\n  0x20\n  add\n  swap1\n  dup2\n  mstore\n  0x20\n  add\n  0x00\n  keccak256\n    /* \"Shahzad/projects/git/ERC1404/contracts/ERC1404TokenMinKYCv12.sol\":4503:4550  _buyRestriction[_atomicSwapContractAddress] = 1 */\n  dup2\n  swap1\n  sstore\n  pop\n    /* \"Shahzad/projects/git/ERC1404/contracts/ERC1404TokenMinKYCv12.sol\":4602:4603  1 */\n  0x01\n    /* \"Shahzad/projects/git/ERC1404/contracts/ERC1404TokenMinKYCv12.sol\":4555:4571  _sellRestriction */\n  dup1\n    /* \"Shahzad/projects/git/ERC1404/contracts/ERC1404TokenMinKYCv12.sol\":4555:4599  _sellRestriction[_atomicSwapContractAddress] */\n  0x00\n    /* \"Shahzad/projects/git/ERC1404/contracts/ERC1404TokenMinKYCv12.sol\":4572:4598  _atomicSwapContractAddress */\n  dup4\n    /* \"Shahzad/projects/git/ERC1404/contracts/ERC1404TokenMinKYCv12.sol\":4555:4599  _sellRestriction[_atomicSwapContractAddress] */\n  0xffffffffffffffffffffffffffffffffffffffff\n  and\n  0xffffffffffffffffffffffffffffffffffffffff\n  and\n  dup2\n  mstore\n  0x20\n  add\n  swap1\n  dup2\n  mstore\n  0x20\n  add\n  0x00\n  keccak256\n    /* \"Shahzad/projects/git/ERC1404/contracts/ERC1404TokenMinKYCv12.sol\":4555:4603  _sellRestriction[_atomicSwapContractAddress] = 1 */\n  dup2\n  swap1\n  sstore\n  pop\n    /* \"Shahzad/projects/git/ERC1404/contracts/ERC1404TokenMinKYCv12.sol\":4629:4646  _allowedInvestors */\n  dup6\n    /* \"Shahzad/projects/git/ERC1404/contracts/ERC1404TokenMinKYCv12.sol\":4610:4626  allowedInvestors */\n  0x11\n    /* \"Shahzad/projects/git/ERC1404/contracts/ERC1404TokenMinKYCv12.sol\":4610:4646  allowedInvestors = _allowedInvestors */\n  dup2\n  swap1\n  sstore\n  pop\n    /* \"Shahzad/projects/git/ERC1404/contracts/ERC1404TokenMinKYCv12.sol\":4707:4721  _initialSupply */\n  dup9\n    /* \"Shahzad/projects/git/ERC1404/contracts/ERC1404TokenMinKYCv12.sol\":4692:4704  _totalSupply */\n  0x0a\n    /* \"Shahzad/projects/git/ERC1404/contracts/ERC1404TokenMinKYCv12.sol\":4692:4721  _totalSupply = _initialSupply */\n  dup2\n  swap1\n  sstore\n  pop\n    /* \"Shahzad/projects/git/ERC1404/contracts/ERC1404TokenMinKYCv12.sol\":4746:4758  _totalSupply */\n  sload(0x0a)\n    /* \"Shahzad/projects/git/ERC1404/contracts/ERC1404TokenMinKYCv12.sol\":4726:4735  _balances */\n  0x02\n    /* \"Shahzad/projects/git/ERC1404/contracts/ERC1404TokenMinKYCv12.sol\":4726:4743  _balances[_owner] */\n  0x00\n    /* \"Shahzad/projects/git/ERC1404/contracts/ERC1404TokenMinKYCv12.sol\":4736:4742  _owner */\n  0x04\n  0x00\n  swap1\n  sload\n  swap1\n  0x0100\n  exp\n  swap1\n  div\n  0xffffffffffffffffffffffffffffffffffffffff\n  and\n    /* \"Shahzad/projects/git/ERC1404/contracts/ERC1404TokenMinKYCv12.sol\":4726:4743  _balances[_owner] */\n  0xffffffffffffffffffffffffffffffffffffffff\n  and\n  0xffffffffffffffffffffffffffffffffffffffff\n  and\n  dup2\n  mstore\n  0x20\n  add\n  swap1\n  dup2\n  mstore\n  0x20\n  add\n  0x00\n  keccak256\n    /* \"Shahzad/projects/git/ERC1404/contracts/ERC1404TokenMinKYCv12.sol\":4726:4758  _balances[_owner] = _totalSupply */\n  dup2\n  swap1\n  sstore\n  pop\n    /* \"Shahzad/projects/git/ERC1404/contracts/ERC1404TokenMinKYCv12.sol\":4854:4858  true */\n  0x01\n    /* \"Shahzad/projects/git/ERC1404/contracts/ERC1404TokenMinKYCv12.sol\":4817:4843  _whitelistControlAuthority */\n  0x05\n    /* \"Shahzad/projects/git/ERC1404/contracts/ERC1404TokenMinKYCv12.sol\":4817:4851  _whitelistControlAuthority[_owner] */\n  0x00\n    /* \"Shahzad/projects/git/ERC1404/contracts/ERC1404TokenMinKYCv12.sol\":4844:4850  _owner */\n  0x04\n  0x00\n  swap1\n  sload\n  swap1\n  0x0100\n  exp\n  swap1\n  div\n  0xffffffffffffffffffffffffffffffffffffffff\n  and\n    /* \"Shahzad/projects/git/ERC1404/contracts/ERC1404TokenMinKYCv12.sol\":4817:4851  _whitelistControlAuthority[_owner] */\n  0xffffffffffffffffffffffffffffffffffffffff\n  and\n  0xffffffffffffffffffffffffffffffffffffffff\n  and\n  dup2\n  mstore\n  0x20\n  add\n  swap1\n  dup2\n  mstore\n  0x20\n  add\n  0x00\n  keccak256\n  0x00\n    /* \"Shahzad/projects/git/ERC1404/contracts/ERC1404TokenMinKYCv12.sol\":4817:4858  _whitelistControlAuthority[_owner] = true */\n  0x0100\n  exp\n  dup2\n  sload\n  dup2\n  0xff\n  mul\n  not\n  and\n  swap1\n  dup4\n  iszero\n  iszero\n  mul\n  or\n  swap1\n  sstore\n  pop\n    /* \"Shahzad/projects/git/ERC1404/contracts/ERC1404TokenMinKYCv12.sol\":4883:4900  _ShareCertificate */\n  dup4\n    /* \"Shahzad/projects/git/ERC1404/contracts/ERC1404TokenMinKYCv12.sol\":4864:4880  ShareCertificate */\n  0x0d\n    /* \"Shahzad/projects/git/ERC1404/contracts/ERC1404TokenMinKYCv12.sol\":4864:4900  ShareCertificate = _ShareCertificate */\n  swap1\n  dup1\n  mload\n  swap1\n  0x20\n  add\n  swap1\n  tag_14\n  swap3\n  swap2\n  swap1\n  tag_2\n  jump\t// in\ntag_14:\n  pop\n    /* \"Shahzad/projects/git/ERC1404/contracts/ERC1404TokenMinKYCv12.sol\":4923:4939  _CompanyHomepage */\n  dup3\n    /* \"Shahzad/projects/git/ERC1404/contracts/ERC1404TokenMinKYCv12.sol\":4905:4920  CompanyHomepage */\n  0x0e\n    /* \"Shahzad/projects/git/ERC1404/contracts/ERC1404TokenMinKYCv12.sol\":4905:4939  CompanyHomepage = _CompanyHomepage */\n  swap1\n  dup1\n  mload\n  swap1\n  0x20\n  add\n  swap1\n  tag_15\n  swap3\n  swap2\n  swap1\n  tag_2\n  jump\t// in\ntag_15:\n  pop\n    /* \"Shahzad/projects/git/ERC1404/contracts/ERC1404TokenMinKYCv12.sol\":4963:4980  _CompanyLegalDocs */\n  dup2\n    /* \"Shahzad/projects/git/ERC1404/contracts/ERC1404TokenMinKYCv12.sol\":4944:4960  CompanyLegalDocs */\n  0x0f\n    /* \"Shahzad/projects/git/ERC1404/contracts/ERC1404TokenMinKYCv12.sol\":4944:4980  CompanyLegalDocs = _CompanyLegalDocs */\n  swap1\n  dup1\n  mload\n  swap1\n  0x20\n  add\n  swap1\n  tag_16\n  swap3\n  swap2\n  swap1\n  tag_2\n  jump\t// in\ntag_16:\n  pop\n    /* \"Shahzad/projects/git/ERC1404/contracts/ERC1404TokenMinKYCv12.sol\":5012:5018  _owner */\n  0x04\n  0x00\n  swap1\n  sload\n  swap1\n  0x0100\n  exp\n  swap1\n  div\n  0xffffffffffffffffffffffffffffffffffffffff\n  and\n    /* \"Shahzad/projects/git/ERC1404/contracts/ERC1404TokenMinKYCv12.sol\":4991:5033  Transfer(address(0), _owner, _totalSupply) */\n  0xffffffffffffffffffffffffffffffffffffffff\n  and\n    /* \"Shahzad/projects/git/ERC1404/contracts/ERC1404TokenMinKYCv12.sol\":5008:5009  0 */\n  0x00\n    /* \"Shahzad/projects/git/ERC1404/contracts/ERC1404TokenMinKYCv12.sol\":4991:5033  Transfer(address(0), _owner, _totalSupply) */\n  0xffffffffffffffffffffffffffffffffffffffff\n  and\n  0xddf252ad1be2c89b69c2b068fc378daa952ba7f163c4a11628f55a4df523b3ef\n    /* \"Shahzad/projects/git/ERC1404/contracts/ERC1404TokenMinKYCv12.sol\":5020:5032  _totalSupply */\n  sload(0x0a)\n    /* \"Shahzad/projects/git/ERC1404/contracts/ERC1404TokenMinKYCv12.sol\":4991:5033  Transfer(address(0), _owner, _totalSupply) */\n  mload(0x40)\n  tag_17\n  swap2\n  swap1\n  tag_18\n  jump\t// in\ntag_17:\n  mload(0x40)\n  dup1\n  swap2\n  sub\n  swap1\n  log3\n    /* \"Shahzad/projects/git/ERC1404/contracts/ERC1404TokenMinKYCv12.sol\":4052:5038  constructor(... */\n  pop\n  pop\n  pop\n  pop\n  pop\n  pop\n  pop\n  pop\n  pop\n    /* \"Shahzad/projects/git/ERC1404/contracts/ERC1404TokenMinKYCv12.sol\":199:16036  contract ERC1404TokenMinKYCv12 is IERC20Token, IERC1404 {... */\n  jump(tag_19)\ntag_2:\n  dup3\n  dup1\n  sload\n  tag_20\n  swap1\n  tag_21\n  jump\t// in\ntag_20:\n  swap1\n  0x00\n  mstore\n  keccak256(0x00, 0x20)\n  swap1\n  0x1f\n  add\n  0x20\n  swap1\n  div\n  dup2\n  add\n  swap3\n  dup3\n  tag_23\n  jumpi\n  0x00\n  dup6\n  sstore\n  jump(tag_22)\ntag_23:\n  dup3\n  0x1f\n  lt\n  tag_24\n  jumpi\n  dup1\n  mload\n  not(0xff)\n  and\n  dup4\n  dup1\n  add\n  or\n  dup6\n  sstore\n  jump(tag_22)\ntag_24:\n  dup3\n  dup1\n  add\n  0x01\n  add\n  dup6\n  sstore\n  dup3\n  iszero\n  tag_22\n  jumpi\n  swap2\n  dup3\n  add\ntag_25:\n  dup3\n  dup2\n  gt\n  iszero\n  tag_26\n  jumpi\n  dup3\n  mload\n  dup3\n  sstore\n  swap2\n  0x20\n  add\n  swap2\n  swap1\n  0x01\n  add\n  swap1\n  jump(tag_25)\ntag_26:\ntag_22:\n  pop\n  swap1\n  pop\n  tag_27\n  swap2\n  swap1\n  tag_28\n  jump\t// in\ntag_27:\n  pop\n  swap1\n  jump\t// out\ntag_6:\n  dup3\n  dup1\n  sload\n  dup3\n  dup3\n  sstore\n  swap1\n  0x00\n  mstore\n  keccak256(0x00, 0x20)\n  swap1\n  dup2\n  add\n  swap3\n  dup3\n  iszero\n  tag_29\n  jumpi\n  swap2\n  0x20\n  mul\n  dup3\n  add\ntag_30:\n  dup3\n  dup2\n  gt\n  iszero\n  tag_31\n  jumpi\n  dup3\n  mload\n  dup3\n  swap1\n  dup1\n  mload\n  swap1\n  0x20\n  add\n  swap1\n  tag_32\n  swap3\n  swap2\n  swap1\n  tag_2\n  jump\t// in\ntag_32:\n  pop\n  swap2\n  0x20\n  add\n  swap2\n  swap1\n  0x01\n  add\n  swap1\n  jump(tag_30)\ntag_31:\ntag_29:\n  pop\n  swap1\n  pop\n  tag_33\n  swap2\n  swap1\n  tag_34\n  jump\t// in\ntag_33:\n  pop\n  swap1\n  jump\t// out\ntag_28:\ntag_35:\n  dup1\n  dup3\n  gt\n  iszero\n  tag_36\n  jumpi\n  0x00\n  dup2\n  0x00\n  swap1\n  sstore\n  pop\n  0x01\n  add\n  jump(tag_35)\ntag_36:\n  pop\n  swap1\n  jump\t// out\ntag_34:\ntag_37:\n  dup1\n  dup3\n  gt\n  iszero\n  tag_38\n  jumpi\n  0x00\n  dup2\n  dup2\n  tag_39\n  swap2\n  swap1\n  tag_40\n  jump\t// in\ntag_39:\n  pop\n  0x01\n  add\n  jump(tag_37)\ntag_38:\n  pop\n  swap1\n  jump\t// out\ntag_40:\n  pop\n  dup1\n  sload\n  tag_41\n  swap1\n  tag_21\n  jump\t// in\ntag_41:\n  0x00\n  dup3\n  sstore\n  dup1\n  0x1f\n  lt\n  tag_43\n  jumpi\n  pop\n  jump(tag_42)\ntag_43:\n  0x1f\n  add\n  0x20\n  swap1\n  div\n  swap1\n  0x00\n  mstore\n  keccak256(0x00, 0x20)\n  swap1\n  dup2\n  add\n  swap1\n  tag_44\n  swap2\n  swap1\n  tag_28\n  jump\t// in\ntag_44:\ntag_42:\n  pop\n  jump\t// out\n    /* \"#utility.yul\":7:428   */\ntag_46:\n    /* \"#utility.yul\":96:101   */\n  0x00\n    /* \"#utility.yul\":121:187   */\n  tag_48\n    /* \"#utility.yul\":137:186   */\n  tag_49\n    /* \"#utility.yul\":179:185   */\n  dup5\n    /* \"#utility.yul\":137:186   */\n  tag_50\n  jump\t// in\ntag_49:\n    /* \"#utility.yul\":121:187   */\n  tag_51\n  jump\t// in\ntag_48:\n    /* \"#utility.yul\":112:187   */\n  swap1\n  pop\n    /* \"#utility.yul\":210:216   */\n  dup3\n    /* \"#utility.yul\":203:208   */\n  dup2\n    /* \"#utility.yul\":196:217   */\n  mstore\n    /* \"#utility.yul\":248:252   */\n  0x20\n    /* \"#utility.yul\":241:246   */\n  dup2\n    /* \"#utility.yul\":237:253   */\n  add\n    /* \"#utility.yul\":286:289   */\n  dup5\n    /* \"#utility.yul\":277:283   */\n  dup5\n    /* \"#utility.yul\":272:275   */\n  dup5\n    /* \"#utility.yul\":268:284   */\n  add\n    /* \"#utility.yul\":265:290   */\n  gt\n    /* \"#utility.yul\":262:374   */\n  iszero\n  tag_52\n  jumpi\n    /* \"#utility.yul\":293:372   */\n  tag_53\n  tag_54\n  jump\t// in\ntag_53:\n    /* \"#utility.yul\":262:374   */\ntag_52:\n    /* \"#utility.yul\":383:422   */\n  tag_55\n    /* \"#utility.yul\":415:421   */\n  dup5\n    /* \"#utility.yul\":410:413   */\n  dup3\n    /* \"#utility.yul\":405:408   */\n  dup6\n    /* \"#utility.yul\":383:422   */\n  tag_56\n  jump\t// in\ntag_55:\n    /* \"#utility.yul\":102:428   */\n  pop\n    /* \"#utility.yul\":7:428   */\n  swap4\n  swap3\n  pop\n  pop\n  pop\n  jump\t// out\n    /* \"#utility.yul\":434:577   */\ntag_57:\n    /* \"#utility.yul\":491:496   */\n  0x00\n    /* \"#utility.yul\":522:528   */\n  dup2\n    /* \"#utility.yul\":516:529   */\n  mload\n    /* \"#utility.yul\":507:529   */\n  swap1\n  pop\n    /* \"#utility.yul\":538:571   */\n  tag_59\n    /* \"#utility.yul\":565:570   */\n  dup2\n    /* \"#utility.yul\":538:571   */\n  tag_60\n  jump\t// in\ntag_59:\n    /* \"#utility.yul\":434:577   */\n  swap3\n  swap2\n  pop\n  pop\n  jump\t// out\n    /* \"#utility.yul\":597:952   */\ntag_61:\n    /* \"#utility.yul\":664:669   */\n  0x00\n    /* \"#utility.yul\":713:716   */\n  dup3\n    /* \"#utility.yul\":706:710   */\n  0x1f\n    /* \"#utility.yul\":698:704   */\n  dup4\n    /* \"#utility.yul\":694:711   */\n  add\n    /* \"#utility.yul\":690:717   */\n  slt\n    /* \"#utility.yul\":680:802   */\n  tag_63\n  jumpi\n    /* \"#utility.yul\":721:800   */\n  tag_64\n  tag_65\n  jump\t// in\ntag_64:\n    /* \"#utility.yul\":680:802   */\ntag_63:\n    /* \"#utility.yul\":831:837   */\n  dup2\n    /* \"#utility.yul\":825:838   */\n  mload\n    /* \"#utility.yul\":856:946   */\n  tag_66\n    /* \"#utility.yul\":942:945   */\n  dup5\n    /* \"#utility.yul\":934:940   */\n  dup3\n    /* \"#utility.yul\":927:931   */\n  0x20\n    /* \"#utility.yul\":919:925   */\n  dup7\n    /* \"#utility.yul\":915:932   */\n  add\n    /* \"#utility.yul\":856:946   */\n  tag_46\n  jump\t// in\ntag_66:\n    /* \"#utility.yul\":847:946   */\n  swap2\n  pop\n    /* \"#utility.yul\":670:952   */\n  pop\n    /* \"#utility.yul\":597:952   */\n  swap3\n  swap2\n  pop\n  pop\n  jump\t// out\n    /* \"#utility.yul\":958:1101   */\ntag_67:\n    /* \"#utility.yul\":1015:1020   */\n  0x00\n    /* \"#utility.yul\":1046:1052   */\n  dup2\n    /* \"#utility.yul\":1040:1053   */\n  mload\n    /* \"#utility.yul\":1031:1053   */\n  swap1\n  pop\n    /* \"#utility.yul\":1062:1095   */\n  tag_69\n    /* \"#utility.yul\":1089:1094   */\n  dup2\n    /* \"#utility.yul\":1062:1095   */\n  tag_70\n  jump\t// in\ntag_69:\n    /* \"#utility.yul\":958:1101   */\n  swap3\n  swap2\n  pop\n  pop\n  jump\t// out\n    /* \"#utility.yul\":1107:3577   */\ntag_9:\n    /* \"#utility.yul\":1299:1305   */\n  0x00\n    /* \"#utility.yul\":1307:1313   */\n  dup1\n    /* \"#utility.yul\":1315:1321   */\n  0x00\n    /* \"#utility.yul\":1323:1329   */\n  dup1\n    /* \"#utility.yul\":1331:1337   */\n  0x00\n    /* \"#utility.yul\":1339:1345   */\n  dup1\n    /* \"#utility.yul\":1347:1353   */\n  0x00\n    /* \"#utility.yul\":1355:1361   */\n  dup1\n    /* \"#utility.yul\":1363:1369   */\n  0x00\n    /* \"#utility.yul\":1412:1415   */\n  0x0120\n    /* \"#utility.yul\":1400:1409   */\n  dup11\n    /* \"#utility.yul\":1391:1398   */\n  dup13\n    /* \"#utility.yul\":1387:1410   */\n  sub\n    /* \"#utility.yul\":1383:1416   */\n  slt\n    /* \"#utility.yul\":1380:1500   */\n  iszero\n  tag_72\n  jumpi\n    /* \"#utility.yul\":1419:1498   */\n  tag_73\n  tag_74\n  jump\t// in\ntag_73:\n    /* \"#utility.yul\":1380:1500   */\ntag_72:\n    /* \"#utility.yul\":1539:1540   */\n  0x00\n    /* \"#utility.yul\":1564:1628   */\n  tag_75\n    /* \"#utility.yul\":1620:1627   */\n  dup13\n    /* \"#utility.yul\":1611:1617   */\n  dup3\n    /* \"#utility.yul\":1600:1609   */\n  dup14\n    /* \"#utility.yul\":1596:1618   */\n  add\n    /* \"#utility.yul\":1564:1628   */\n  tag_67\n  jump\t// in\ntag_75:\n    /* \"#utility.yul\":1554:1628   */\n  swap10\n  pop\n    /* \"#utility.yul\":1510:1638   */\n  pop\n    /* \"#utility.yul\":1698:1700   */\n  0x20\n    /* \"#utility.yul\":1687:1696   */\n  dup11\n    /* \"#utility.yul\":1683:1701   */\n  add\n    /* \"#utility.yul\":1677:1702   */\n  mload\n    /* \"#utility.yul\":1729:1747   */\n  0xffffffffffffffff\n    /* \"#utility.yul\":1721:1727   */\n  dup2\n    /* \"#utility.yul\":1718:1748   */\n  gt\n    /* \"#utility.yul\":1715:1832   */\n  iszero\n  tag_76\n  jumpi\n    /* \"#utility.yul\":1751:1830   */\n  tag_77\n  tag_78\n  jump\t// in\ntag_77:\n    /* \"#utility.yul\":1715:1832   */\ntag_76:\n    /* \"#utility.yul\":1856:1930   */\n  tag_79\n    /* \"#utility.yul\":1922:1929   */\n  dup13\n    /* \"#utility.yul\":1913:1919   */\n  dup3\n    /* \"#utility.yul\":1902:1911   */\n  dup14\n    /* \"#utility.yul\":1898:1920   */\n  add\n    /* \"#utility.yul\":1856:1930   */\n  tag_61\n  jump\t// in\ntag_79:\n    /* \"#utility.yul\":1846:1930   */\n  swap9\n  pop\n    /* \"#utility.yul\":1648:1940   */\n  pop\n    /* \"#utility.yul\":2000:2002   */\n  0x40\n    /* \"#utility.yul\":1989:1998   */\n  dup11\n    /* \"#utility.yul\":1985:2003   */\n  add\n    /* \"#utility.yul\":1979:2004   */\n  mload\n    /* \"#utility.yul\":2031:2049   */\n  0xffffffffffffffff\n    /* \"#utility.yul\":2023:2029   */\n  dup2\n    /* \"#utility.yul\":2020:2050   */\n  gt\n    /* \"#utility.yul\":2017:2134   */\n  iszero\n  tag_80\n  jumpi\n    /* \"#utility.yul\":2053:2132   */\n  tag_81\n  tag_78\n  jump\t// in\ntag_81:\n    /* \"#utility.yul\":2017:2134   */\ntag_80:\n    /* \"#utility.yul\":2158:2232   */\n  tag_82\n    /* \"#utility.yul\":2224:2231   */\n  dup13\n    /* \"#utility.yul\":2215:2221   */\n  dup3\n    /* \"#utility.yul\":2204:2213   */\n  dup14\n    /* \"#utility.yul\":2200:2222   */\n  add\n    /* \"#utility.yul\":2158:2232   */\n  tag_61\n  jump\t// in\ntag_82:\n    /* \"#utility.yul\":2148:2232   */\n  swap8\n  pop\n    /* \"#utility.yul\":1950:2242   */\n  pop\n    /* \"#utility.yul\":2281:2283   */\n  0x60\n    /* \"#utility.yul\":2307:2371   */\n  tag_83\n    /* \"#utility.yul\":2363:2370   */\n  dup13\n    /* \"#utility.yul\":2354:2360   */\n  dup3\n    /* \"#utility.yul\":2343:2352   */\n  dup14\n    /* \"#utility.yul\":2339:2361   */\n  add\n    /* \"#utility.yul\":2307:2371   */\n  tag_67\n  jump\t// in\ntag_83:\n    /* \"#utility.yul\":2297:2371   */\n  swap7\n  pop\n    /* \"#utility.yul\":2252:2381   */\n  pop\n    /* \"#utility.yul\":2420:2423   */\n  0x80\n    /* \"#utility.yul\":2447:2511   */\n  tag_84\n    /* \"#utility.yul\":2503:2510   */\n  dup13\n    /* \"#utility.yul\":2494:2500   */\n  dup3\n    /* \"#utility.yul\":2483:2492   */\n  dup14\n    /* \"#utility.yul\":2479:2501   */\n  add\n    /* \"#utility.yul\":2447:2511   */\n  tag_67\n  jump\t// in\ntag_84:\n    /* \"#utility.yul\":2437:2511   */\n  swap6\n  pop\n    /* \"#utility.yul\":2391:2521   */\n  pop\n    /* \"#utility.yul\":2581:2584   */\n  0xa0\n    /* \"#utility.yul\":2570:2579   */\n  dup11\n    /* \"#utility.yul\":2566:2585   */\n  add\n    /* \"#utility.yul\":2560:2586   */\n  mload\n    /* \"#utility.yul\":2613:2631   */\n  0xffffffffffffffff\n    /* \"#utility.yul\":2605:2611   */\n  dup2\n    /* \"#utility.yul\":2602:2632   */\n  gt\n    /* \"#utility.yul\":2599:2716   */\n  iszero\n  tag_85\n  jumpi\n    /* \"#utility.yul\":2635:2714   */\n  tag_86\n  tag_78\n  jump\t// in\ntag_86:\n    /* \"#utility.yul\":2599:2716   */\ntag_85:\n    /* \"#utility.yul\":2740:2814   */\n  tag_87\n    /* \"#utility.yul\":2806:2813   */\n  dup13\n    /* \"#utility.yul\":2797:2803   */\n  dup3\n    /* \"#utility.yul\":2786:2795   */\n  dup14\n    /* \"#utility.yul\":2782:2804   */\n  add\n    /* \"#utility.yul\":2740:2814   */\n  tag_61\n  jump\t// in\ntag_87:\n    /* \"#utility.yul\":2730:2814   */\n  swap5\n  pop\n    /* \"#utility.yul\":2531:2824   */\n  pop\n    /* \"#utility.yul\":2884:2887   */\n  0xc0\n    /* \"#utility.yul\":2873:2882   */\n  dup11\n    /* \"#utility.yul\":2869:2888   */\n  add\n    /* \"#utility.yul\":2863:2889   */\n  mload\n    /* \"#utility.yul\":2916:2934   */\n  0xffffffffffffffff\n    /* \"#utility.yul\":2908:2914   */\n  dup2\n    /* \"#utility.yul\":2905:2935   */\n  gt\n    /* \"#utility.yul\":2902:3019   */\n  iszero\n  tag_88\n  jumpi\n    /* \"#utility.yul\":2938:3017   */\n  tag_89\n  tag_78\n  jump\t// in\ntag_89:\n    /* \"#utility.yul\":2902:3019   */\ntag_88:\n    /* \"#utility.yul\":3043:3117   */\n  tag_90\n    /* \"#utility.yul\":3109:3116   */\n  dup13\n    /* \"#utility.yul\":3100:3106   */\n  dup3\n    /* \"#utility.yul\":3089:3098   */\n  dup14\n    /* \"#utility.yul\":3085:3107   */\n  add\n    /* \"#utility.yul\":3043:3117   */\n  tag_61\n  jump\t// in\ntag_90:\n    /* \"#utility.yul\":3033:3117   */\n  swap4\n  pop\n    /* \"#utility.yul\":2834:3127   */\n  pop\n    /* \"#utility.yul\":3187:3190   */\n  0xe0\n    /* \"#utility.yul\":3176:3185   */\n  dup11\n    /* \"#utility.yul\":3172:3191   */\n  add\n    /* \"#utility.yul\":3166:3192   */\n  mload\n    /* \"#utility.yul\":3219:3237   */\n  0xffffffffffffffff\n    /* \"#utility.yul\":3211:3217   */\n  dup2\n    /* \"#utility.yul\":3208:3238   */\n  gt\n    /* \"#utility.yul\":3205:3322   */\n  iszero\n  tag_91\n  jumpi\n    /* \"#utility.yul\":3241:3320   */\n  tag_92\n  tag_78\n  jump\t// in\ntag_92:\n    /* \"#utility.yul\":3205:3322   */\ntag_91:\n    /* \"#utility.yul\":3346:3420   */\n  tag_93\n    /* \"#utility.yul\":3412:3419   */\n  dup13\n    /* \"#utility.yul\":3403:3409   */\n  dup3\n    /* \"#utility.yul\":3392:3401   */\n  dup14\n    /* \"#utility.yul\":3388:3410   */\n  add\n    /* \"#utility.yul\":3346:3420   */\n  tag_61\n  jump\t// in\ntag_93:\n    /* \"#utility.yul\":3336:3420   */\n  swap3\n  pop\n    /* \"#utility.yul\":3137:3430   */\n  pop\n    /* \"#utility.yul\":3469:3472   */\n  0x0100\n    /* \"#utility.yul\":3496:3560   */\n  tag_94\n    /* \"#utility.yul\":3552:3559   */\n  dup13\n    /* \"#utility.yul\":3543:3549   */\n  dup3\n    /* \"#utility.yul\":3532:3541   */\n  dup14\n    /* \"#utility.yul\":3528:3550   */\n  add\n    /* \"#utility.yul\":3496:3560   */\n  tag_57\n  jump\t// in\ntag_94:\n    /* \"#utility.yul\":3486:3560   */\n  swap2\n  pop\n    /* \"#utility.yul\":3440:3570   */\n  pop\n    /* \"#utility.yul\":1107:3577   */\n  swap3\n  swap6\n  swap9\n  pop\n  swap3\n  swap6\n  swap9\n  pop\n  swap3\n  swap6\n  swap9\n  jump\t// out\n    /* \"#utility.yul\":3583:3701   */\ntag_95:\n    /* \"#utility.yul\":3670:3694   */\n  tag_97\n    /* \"#utility.yul\":3688:3693   */\n  dup2\n    /* \"#utility.yul\":3670:3694   */\n  tag_98\n  jump\t// in\ntag_97:\n    /* \"#utility.yul\":3665:3668   */\n  dup3\n    /* \"#utility.yul\":3658:3695   */\n  mstore\n    /* \"#utility.yul\":3583:3701   */\n  pop\n  pop\n  jump\t// out\n    /* \"#utility.yul\":3707:3929   */\ntag_18:\n    /* \"#utility.yul\":3800:3804   */\n  0x00\n    /* \"#utility.yul\":3838:3840   */\n  0x20\n    /* \"#utility.yul\":3827:3836   */\n  dup3\n    /* \"#utility.yul\":3823:3841   */\n  add\n    /* \"#utility.yul\":3815:3841   */\n  swap1\n  pop\n    /* \"#utility.yul\":3851:3922   */\n  tag_100\n    /* \"#utility.yul\":3919:3920   */\n  0x00\n    /* \"#utility.yul\":3908:3917   */\n  dup4\n    /* \"#utility.yul\":3904:3921   */\n  add\n    /* \"#utility.yul\":3895:3901   */\n  dup5\n    /* \"#utility.yul\":3851:3922   */\n  tag_95\n  jump\t// in\ntag_100:\n    /* \"#utility.yul\":3707:3929   */\n  swap3\n  swap2\n  pop\n  pop\n  jump\t// out\n    /* \"#utility.yul\":3935:4064   */\ntag_51:\n    /* \"#utility.yul\":3969:3975   */\n  0x00\n    /* \"#utility.yul\":3996:4016   */\n  tag_102\n  tag_103\n  jump\t// in\ntag_102:\n    /* \"#utility.yul\":3986:4016   */\n  swap1\n  pop\n    /* \"#utility.yul\":4025:4058   */\n  tag_104\n    /* \"#utility.yul\":4053:4057   */\n  dup3\n    /* \"#utility.yul\":4045:4051   */\n  dup3\n    /* \"#utility.yul\":4025:4058   */\n  tag_105\n  jump\t// in\ntag_104:\n    /* \"#utility.yul\":3935:4064   */\n  swap2\n  swap1\n  pop\n  jump\t// out\n    /* \"#utility.yul\":4070:4145   */\ntag_103:\n    /* \"#utility.yul\":4103:4109   */\n  0x00\n    /* \"#utility.yul\":4136:4138   */\n  0x40\n    /* \"#utility.yul\":4130:4139   */\n  mload\n    /* \"#utility.yul\":4120:4139   */\n  swap1\n  pop\n    /* \"#utility.yul\":4070:4145   */\n  swap1\n  jump\t// out\n    /* \"#utility.yul\":4151:4459   */\ntag_50:\n    /* \"#utility.yul\":4213:4217   */\n  0x00\n    /* \"#utility.yul\":4303:4321   */\n  0xffffffffffffffff\n    /* \"#utility.yul\":4295:4301   */\n  dup3\n    /* \"#utility.yul\":4292:4322   */\n  gt\n    /* \"#utility.yul\":4289:4345   */\n  iszero\n  tag_108\n  jumpi\n    /* \"#utility.yul\":4325:4343   */\n  tag_109\n  tag_110\n  jump\t// in\ntag_109:\n    /* \"#utility.yul\":4289:4345   */\ntag_108:\n    /* \"#utility.yul\":4363:4392   */\n  tag_111\n    /* \"#utility.yul\":4385:4391   */\n  dup3\n    /* \"#utility.yul\":4363:4392   */\n  tag_112\n  jump\t// in\ntag_111:\n    /* \"#utility.yul\":4355:4392   */\n  swap1\n  pop\n    /* \"#utility.yul\":4447:4451   */\n  0x20\n    /* \"#utility.yul\":4441:4445   */\n  dup2\n    /* \"#utility.yul\":4437:4452   */\n  add\n    /* \"#utility.yul\":4429:4452   */\n  swap1\n  pop\n    /* \"#utility.yul\":4151:4459   */\n  swap2\n  swap1\n  pop\n  jump\t// out\n    /* \"#utility.yul\":4465:4561   */\ntag_113:\n    /* \"#utility.yul\":4502:4509   */\n  0x00\n    /* \"#utility.yul\":4531:4555   */\n  tag_115\n    /* \"#utility.yul\":4549:4554   */\n  dup3\n    /* \"#utility.yul\":4531:4555   */\n  tag_116\n  jump\t// in\ntag_115:\n    /* \"#utility.yul\":4520:4555   */\n  swap1\n  pop\n    /* \"#utility.yul\":4465:4561   */\n  swap2\n  swap1\n  pop\n  jump\t// out\n    /* \"#utility.yul\":4567:4693   */\ntag_116:\n    /* \"#utility.yul\":4604:4611   */\n  0x00\n    /* \"#utility.yul\":4644:4686   */\n  0xffffffffffffffffffffffffffffffffffffffff\n    /* \"#utility.yul\":4637:4642   */\n  dup3\n    /* \"#utility.yul\":4633:4687   */\n  and\n    /* \"#utility.yul\":4622:4687   */\n  swap1\n  pop\n    /* \"#utility.yul\":4567:4693   */\n  swap2\n  swap1\n  pop\n  jump\t// out\n    /* \"#utility.yul\":4699:4776   */\ntag_98:\n    /* \"#utility.yul\":4736:4743   */\n  0x00\n    /* \"#utility.yul\":4765:4770   */\n  dup2\n    /* \"#utility.yul\":4754:4770   */\n  swap1\n  pop\n    /* \"#utility.yul\":4699:4776   */\n  swap2\n  swap1\n  pop\n  jump\t// out\n    /* \"#utility.yul\":4782:5089   */\ntag_56:\n    /* \"#utility.yul\":4850:4851   */\n  0x00\n    /* \"#utility.yul\":4860:4973   */\ntag_120:\n    /* \"#utility.yul\":4874:4880   */\n  dup4\n    /* \"#utility.yul\":4871:4872   */\n  dup2\n    /* \"#utility.yul\":4868:4881   */\n  lt\n    /* \"#utility.yul\":4860:4973   */\n  iszero\n  tag_122\n  jumpi\n    /* \"#utility.yul\":4959:4960   */\n  dup1\n    /* \"#utility.yul\":4954:4957   */\n  dup3\n    /* \"#utility.yul\":4950:4961   */\n  add\n    /* \"#utility.yul\":4944:4962   */\n  mload\n    /* \"#utility.yul\":4940:4941   */\n  dup2\n    /* \"#utility.yul\":4935:4938   */\n  dup5\n    /* \"#utility.yul\":4931:4942   */\n  add\n    /* \"#utility.yul\":4924:4963   */\n  mstore\n    /* \"#utility.yul\":4896:4898   */\n  0x20\n    /* \"#utility.yul\":4893:4894   */\n  dup2\n    /* \"#utility.yul\":4889:4899   */\n  add\n    /* \"#utility.yul\":4884:4899   */\n  swap1\n  pop\n    /* \"#utility.yul\":4860:4973   */\n  jump(tag_120)\ntag_122:\n    /* \"#utility.yul\":4991:4997   */\n  dup4\n    /* \"#utility.yul\":4988:4989   */\n  dup2\n    /* \"#utility.yul\":4985:4998   */\n  gt\n    /* \"#utility.yul\":4982:5083   */\n  iszero\n  tag_123\n  jumpi\n    /* \"#utility.yul\":5071:5072   */\n  0x00\n    /* \"#utility.yul\":5062:5068   */\n  dup5\n    /* \"#utility.yul\":5057:5060   */\n  dup5\n    /* \"#utility.yul\":5053:5069   */\n  add\n    /* \"#utility.yul\":5046:5073   */\n  mstore\n    /* \"#utility.yul\":4982:5083   */\ntag_123:\n    /* \"#utility.yul\":4831:5089   */\n  pop\n    /* \"#utility.yul\":4782:5089   */\n  pop\n  pop\n  pop\n  jump\t// out\n    /* \"#utility.yul\":5095:5415   */\ntag_21:\n    /* \"#utility.yul\":5139:5145   */\n  0x00\n    /* \"#utility.yul\":5176:5177   */\n  0x02\n    /* \"#utility.yul\":5170:5174   */\n  dup3\n    /* \"#utility.yul\":5166:5178   */\n  div\n    /* \"#utility.yul\":5156:5178   */\n  swap1\n  pop\n    /* \"#utility.yul\":5223:5224   */\n  0x01\n    /* \"#utility.yul\":5217:5221   */\n  dup3\n    /* \"#utility.yul\":5213:5225   */\n  and\n    /* \"#utility.yul\":5244:5262   */\n  dup1\n    /* \"#utility.yul\":5234:5315   */\n  tag_125\n  jumpi\n    /* \"#utility.yul\":5300:5304   */\n  0x7f\n    /* \"#utility.yul\":5292:5298   */\n  dup3\n    /* \"#utility.yul\":5288:5305   */\n  and\n    /* \"#utility.yul\":5278:5305   */\n  swap2\n  pop\n    /* \"#utility.yul\":5234:5315   */\ntag_125:\n    /* \"#utility.yul\":5362:5364   */\n  0x20\n    /* \"#utility.yul\":5354:5360   */\n  dup3\n    /* \"#utility.yul\":5351:5365   */\n  lt\n    /* \"#utility.yul\":5331:5349   */\n  dup2\n    /* \"#utility.yul\":5328:5366   */\n  eq\n    /* \"#utility.yul\":5325:5409   */\n  iszero\n  tag_126\n  jumpi\n    /* \"#utility.yul\":5381:5399   */\n  tag_127\n  tag_128\n  jump\t// in\ntag_127:\n    /* \"#utility.yul\":5325:5409   */\ntag_126:\n    /* \"#utility.yul\":5146:5415   */\n  pop\n    /* \"#utility.yul\":5095:5415   */\n  swap2\n  swap1\n  pop\n  jump\t// out\n    /* \"#utility.yul\":5421:5702   */\ntag_105:\n    /* \"#utility.yul\":5504:5531   */\n  tag_130\n    /* \"#utility.yul\":5526:5530   */\n  dup3\n    /* \"#utility.yul\":5504:5531   */\n  tag_112\n  jump\t// in\ntag_130:\n    /* \"#utility.yul\":5496:5502   */\n  dup2\n    /* \"#utility.yul\":5492:5532   */\n  add\n    /* \"#utility.yul\":5634:5640   */\n  dup2\n    /* \"#utility.yul\":5622:5632   */\n  dup2\n    /* \"#utility.yul\":5619:5641   */\n  lt\n    /* \"#utility.yul\":5598:5616   */\n  0xffffffffffffffff\n    /* \"#utility.yul\":5586:5596   */\n  dup3\n    /* \"#utility.yul\":5583:5617   */\n  gt\n    /* \"#utility.yul\":5580:5642   */\n  or\n    /* \"#utility.yul\":5577:5665   */\n  iszero\n  tag_131\n  jumpi\n    /* \"#utility.yul\":5645:5663   */\n  tag_132\n  tag_110\n  jump\t// in\ntag_132:\n    /* \"#utility.yul\":5577:5665   */\ntag_131:\n    /* \"#utility.yul\":5685:5695   */\n  dup1\n    /* \"#utility.yul\":5681:5683   */\n  0x40\n    /* \"#utility.yul\":5674:5696   */\n  mstore\n    /* \"#utility.yul\":5464:5702   */\n  pop\n    /* \"#utility.yul\":5421:5702   */\n  pop\n  pop\n  jump\t// out\n    /* \"#utility.yul\":5708:5888   */\ntag_128:\n    /* \"#utility.yul\":5756:5833   */\n  0x4e487b7100000000000000000000000000000000000000000000000000000000\n    /* \"#utility.yul\":5753:5754   */\n  0x00\n    /* \"#utility.yul\":5746:5834   */\n  mstore\n    /* \"#utility.yul\":5853:5857   */\n  0x22\n    /* \"#utility.yul\":5850:5851   */\n  0x04\n    /* \"#utility.yul\":5843:5858   */\n  mstore\n    /* \"#utility.yul\":5877:5881   */\n  0x24\n    /* \"#utility.yul\":5874:5875   */\n  0x00\n    /* \"#utility.yul\":5867:5882   */\n  revert\n    /* \"#utility.yul\":5894:6074   */\ntag_110:\n    /* \"#utility.yul\":5942:6019   */\n  0x4e487b7100000000000000000000000000000000000000000000000000000000\n    /* \"#utility.yul\":5939:5940   */\n  0x00\n    /* \"#utility.yul\":5932:6020   */\n  mstore\n    /* \"#utility.yul\":6039:6043   */\n  0x41\n    /* \"#utility.yul\":6036:6037   */\n  0x04\n    /* \"#utility.yul\":6029:6044   */\n  mstore\n    /* \"#utility.yul\":6063:6067   */\n  0x24\n    /* \"#utility.yul\":6060:6061   */\n  0x00\n    /* \"#utility.yul\":6053:6068   */\n  revert\n    /* \"#utility.yul\":6080:6197   */\ntag_65:\n    /* \"#utility.yul\":6189:6190   */\n  0x00\n    /* \"#utility.yul\":6186:6187   */\n  dup1\n    /* \"#utility.yul\":6179:6191   */\n  revert\n    /* \"#utility.yul\":6203:6320   */\ntag_54:\n    /* \"#utility.yul\":6312:6313   */\n  0x00\n    /* \"#utility.yul\":6309:6310   */\n  dup1\n    /* \"#utility.yul\":6302:6314   */\n  revert\n    /* \"#utility.yul\":6326:6443   */\ntag_78:\n    /* \"#utility.yul\":6435:6436   */\n  0x00\n    /* \"#utility.yul\":6432:6433   */\n  dup1\n    /* \"#utility.yul\":6425:6437   */\n  revert\n    /* \"#utility.yul\":6449:6566   */\ntag_74:\n    /* \"#utility.yul\":6558:6559   */\n  0x00\n    /* \"#utility.yul\":6555:6556   */\n  dup1\n    /* \"#utility.yul\":6548:6560   */\n  revert\n    /* \"#utility.yul\":6572:6674   */\ntag_112:\n    /* \"#utility.yul\":6613:6619   */\n  0x00\n    /* \"#utility.yul\":6664:6666   */\n  0x1f\n    /* \"#utility.yul\":6660:6667   */\n  not\n    /* \"#utility.yul\":6655:6657   */\n  0x1f\n    /* \"#utility.yul\":6648:6653   */\n  dup4\n    /* \"#utility.yul\":6644:6658   */\n  add\n    /* \"#utility.yul\":6640:6668   */\n  and\n    /* \"#utility.yul\":6630:6668   */\n  swap1\n  pop\n    /* \"#utility.yul\":6572:6674   */\n  swap2\n  swap1\n  pop\n  jump\t// out\n    /* \"#utility.yul\":6680:6802   */\ntag_60:\n    /* \"#utility.yul\":6753:6777   */\n  tag_141\n    /* \"#utility.yul\":6771:6776   */\n  dup2\n    /* \"#utility.yul\":6753:6777   */\n  tag_113\n  jump\t// in\ntag_141:\n    /* \"#utility.yul\":6746:6751   */\n  dup2\n    /* \"#utility.yul\":6743:6778   */\n  eq\n    /* \"#utility.yul\":6733:6796   */\n  tag_142\n  jumpi\n    /* \"#utility.yul\":6792:6793   */\n  0x00\n    /* \"#utility.yul\":6789:6790   */\n  dup1\n    /* \"#utility.yul\":6782:6794   */\n  revert\n    /* \"#utility.yul\":6733:6796   */\ntag_142:\n    /* \"#utility.yul\":6680:6802   */\n  pop\n  jump\t// out\n    /* \"#utility.yul\":6808:6930   */\ntag_70:\n    /* \"#utility.yul\":6881:6905   */\n  tag_144\n    /* \"#utility.yul\":6899:6904   */\n  dup2\n    /* \"#utility.yul\":6881:6905   */\n  tag_98\n  jump\t// in\ntag_144:\n    /* \"#utility.yul\":6874:6879   */\n  dup2\n    /* \"#utility.yul\":6871:6906   */\n  eq\n    /* \"#utility.yul\":6861:6924   */\n  tag_145\n  jumpi\n    /* \"#utility.yul\":6920:6921   */\n  0x00\n    /* \"#utility.yul\":6917:6918   */\n  dup1\n    /* \"#utility.yul\":6910:6922   */\n  revert\n    /* \"#utility.yul\":6861:6924   */\ntag_145:\n    /* \"#utility.yul\":6808:6930   */\n  pop\n  jump\t// out\n    /* \"Shahzad/projects/git/ERC1404/contracts/ERC1404TokenMinKYCv12.sol\":199:16036  contract ERC1404TokenMinKYCv12 is IERC20Token, IERC1404 {... */\ntag_19:\n  dataSize(sub_0)\n  dup1\n  dataOffset(sub_0)\n  0x00\n  codecopy\n  0x00\n  return\nstop\ndata_0bf17d6579a15f80cddc5ddc4c7802721ab098d4db24a2c055da5f58a25e33a5 5265636569766572206973206e6f742077686974656c6973746564206f7220626c6f636b6564\ndata_4440c032e746f33200962f44b90c6baeb8a9490cc8cfdd8f15a36acf65844772 4d617820616c6c6f77656420696e766573746f72207265737472696374696f6e20697320696e20706c6163652c2074686973207472616e736665722077696c6c206578636565642074686973206c696d69746174696f6e\ndata_74c2d1263641840c4bf20a32b19f8ec2189d64e295faf5087433fd363b0d0b13 53656e6465722069732077686974656c697374656420627574206973206e6f7420656c696769626c6520746f2073656e6420746f6b656e7320616e6420756e64657220686f6c64696e6720706572696f6420284b59432074696d65207265737472696374696f6e29\ndata_c06fda3c41df076643499cebb61f71adfbc909dbd75501db341cc82d5933142b 416c6c207472616e7366657273206172652064697361626c6564206265636175736520486f6c64696e6720506572696f64206973206e6f74207965742065787069726564\ndata_c0b3b74fbdbabd67b27d0f337b8b420091e75c6e12a17cd864ffcacf5ec7db0f 52656365697665722069732077686974656c697374656420627574206973206e6f742079657420656c696769626c6520746f207265636569766520746f6b656e7320696e206869732077616c6c657420284b59432074696d65207265737472696374696f6e29\ndata_f32e889bc43e14f6f361a9fb16e2e4f7ae397532b0ea1cf85b8b8914d3f5dbc4 53656e646572206973206e6f742077686974656c6973746564206f7220626c6f636b6564\n\nsub_0: assembly {\n        /* \"Shahzad/projects/git/ERC1404/contracts/ERC1404TokenMinKYCv12.sol\":199:16036  contract ERC1404TokenMinKYCv12 is IERC20Token, IERC1404 {... */\n      mstore(0x40, 0x80)\n      callvalue\n      dup1\n      iszero\n      tag_1\n      jumpi\n      0x00\n      dup1\n      revert\n    tag_1:\n      pop\n      jumpi(tag_2, lt(calldatasize, 0x04))\n      shr(0xe0, calldataload(0x00))\n      dup1\n      0x7cae04f7\n      gt\n      tag_39\n      jumpi\n      dup1\n      0xac893db1\n      gt\n      tag_40\n      jumpi\n      dup1\n      0xd4ce1415\n      gt\n      tag_41\n      jumpi\n      dup1\n      0xd4ce1415\n      eq\n      tag_34\n      jumpi\n      dup1\n      0xda76e2f3\n      eq\n      tag_35\n      jumpi\n      dup1\n      0xdd62ed3e\n      eq\n      tag_36\n      jumpi\n      dup1\n      0xe8379421\n      eq\n      tag_37\n      jumpi\n      dup1\n      0xf2fde38b\n      eq\n      tag_38\n      jumpi\n      jump(tag_2)\n    tag_41:\n      dup1\n      0xac893db1\n      eq\n      tag_30\n      jumpi\n      dup1\n      0xb1b5932a\n      eq\n      tag_31\n      jumpi\n      dup1\n      0xb5b7e6ee\n      eq\n      tag_32\n      jumpi\n      dup1\n      0xc319e41c\n      eq\n      tag_33\n      jumpi\n      jump(tag_2)\n    tag_40:\n      dup1\n      0x95d89b41\n      gt\n      tag_42\n      jumpi\n      dup1\n      0x95d89b41\n      eq\n      tag_25\n      jumpi\n      dup1\n      0x9dc29fac\n      eq\n      tag_26\n      jumpi\n      dup1\n      0xa9059cbb\n      eq\n      tag_27\n      jumpi\n      dup1\n      0xab47a2f9\n      eq\n      tag_28\n      jumpi\n      dup1\n      0xabc30a4b\n      eq\n      tag_29\n      jumpi\n      jump(tag_2)\n    tag_42:\n      dup1\n      0x7cae04f7\n      eq\n      tag_21\n      jumpi\n      dup1\n      0x7f4ab1dd\n      eq\n      tag_22\n      jumpi\n      dup1\n      0x84f9007f\n      eq\n      tag_23\n      jumpi\n      dup1\n      0x8da5cb5b\n      eq\n      tag_24\n      jumpi\n      jump(tag_2)\n    tag_39:\n      dup1\n      0x45968836\n      gt\n      tag_43\n      jumpi\n      dup1\n      0x62a3d4bd\n      gt\n      tag_44\n      jumpi\n      dup1\n      0x62a3d4bd\n      eq\n      tag_16\n      jumpi\n      dup1\n      0x639c86ce\n      eq\n      tag_17\n      jumpi\n      dup1\n      0x6401ca76\n      eq\n      tag_18\n      jumpi\n      dup1\n      0x654b6f15\n      eq\n      tag_19\n      jumpi\n      dup1\n      0x70a08231\n      eq\n      tag_20\n      jumpi\n      jump(tag_2)\n    tag_44:\n      dup1\n      0x45968836\n      eq\n      tag_12\n      jumpi\n      dup1\n      0x51aebcd4\n      eq\n      tag_13\n      jumpi\n      dup1\n      0x54fd4d50\n      eq\n      tag_14\n      jumpi\n      dup1\n      0x59a72ddc\n      eq\n      tag_15\n      jumpi\n      jump(tag_2)\n    tag_43:\n      dup1\n      0x23b872dd\n      gt\n      tag_45\n      jumpi\n      dup1\n      0x23b872dd\n      eq\n      tag_7\n      jumpi\n      dup1\n      0x2b8e797a\n      eq\n      tag_8\n      jumpi\n      dup1\n      0x313ce567\n      eq\n      tag_9\n      jumpi\n      dup1\n      0x3a24ddc5\n      eq\n      tag_10\n      jumpi\n      dup1\n      0x40c10f19\n      eq\n      tag_11\n      jumpi\n      jump(tag_2)\n    tag_45:\n      dup1\n      0x06fdde03\n      eq\n      tag_3\n      jumpi\n      dup1\n      0x095ea7b3\n      eq\n      tag_4\n      jumpi\n      dup1\n      0x09fc3892\n      eq\n      tag_5\n      jumpi\n      dup1\n      0x18160ddd\n      eq\n      tag_6\n      jumpi\n    tag_2:\n      0x00\n      dup1\n      revert\n        /* \"Shahzad/projects/git/ERC1404/contracts/ERC1404TokenMinKYCv12.sol\":2422:2440  string public name */\n    tag_3:\n      tag_46\n      tag_47\n      jump\t// in\n    tag_46:\n      mload(0x40)\n      tag_48\n      swap2\n      swap1\n      tag_49\n      jump\t// in\n    tag_48:\n      mload(0x40)\n      dup1\n      swap2\n      sub\n      swap1\n      return\n        /* \"Shahzad/projects/git/ERC1404/contracts/ERC1404TokenMinKYCv12.sol\":12942:13307  function approve(... */\n    tag_4:\n      tag_50\n      0x04\n      dup1\n      calldatasize\n      sub\n      dup2\n      add\n      swap1\n      tag_51\n      swap2\n      swap1\n      tag_52\n      jump\t// in\n    tag_51:\n      tag_53\n      jump\t// in\n    tag_50:\n      mload(0x40)\n      tag_54\n      swap2\n      swap1\n      tag_55\n      jump\t// in\n    tag_54:\n      mload(0x40)\n      dup1\n      swap2\n      sub\n      swap1\n      return\n        /* \"Shahzad/projects/git/ERC1404/contracts/ERC1404TokenMinKYCv12.sol\":7895:8281  function bulkWhitelistWallets (... */\n    tag_5:\n      tag_56\n      0x04\n      dup1\n      calldatasize\n      sub\n      dup2\n      add\n      swap1\n      tag_57\n      swap2\n      swap1\n      tag_58\n      jump\t// in\n    tag_57:\n      tag_59\n      jump\t// in\n    tag_56:\n      stop\n        /* \"Shahzad/projects/git/ERC1404/contracts/ERC1404TokenMinKYCv12.sol\":12693:12791  function totalSupply() ... */\n    tag_6:\n      tag_60\n      tag_61\n      jump\t// in\n    tag_60:\n      mload(0x40)\n      tag_62\n      swap2\n      swap1\n      tag_63\n      jump\t// in\n    tag_62:\n      mload(0x40)\n      dup1\n      swap2\n      sub\n      swap1\n      return\n        /* \"Shahzad/projects/git/ERC1404/contracts/ERC1404TokenMinKYCv12.sol\":13733:14274  function transferFrom(... */\n    tag_7:\n      tag_64\n      0x04\n      dup1\n      calldatasize\n      sub\n      dup2\n      add\n      swap1\n      tag_65\n      swap2\n      swap1\n      tag_66\n      jump\t// in\n    tag_65:\n      tag_67\n      jump\t// in\n    tag_64:\n      mload(0x40)\n      tag_68\n      swap2\n      swap1\n      tag_55\n      jump\t// in\n    tag_68:\n      mload(0x40)\n      dup1\n      swap2\n      sub\n      swap1\n      return\n        /* \"Shahzad/projects/git/ERC1404/contracts/ERC1404TokenMinKYCv12.sol\":7575:7892  function modifyKYCData (... */\n    tag_8:\n      tag_69\n      0x04\n      dup1\n      calldatasize\n      sub\n      dup2\n      add\n      swap1\n      tag_70\n      swap2\n      swap1\n      tag_71\n      jump\t// in\n    tag_70:\n      tag_72\n      jump\t// in\n    tag_69:\n      stop\n        /* \"Shahzad/projects/git/ERC1404/contracts/ERC1404TokenMinKYCv12.sol\":2228:2256  uint256 public decimals = 18 */\n    tag_9:\n      tag_73\n      tag_74\n      jump\t// in\n    tag_73:\n      mload(0x40)\n      tag_75\n      swap2\n      swap1\n      tag_63\n      jump\t// in\n    tag_75:\n      mload(0x40)\n      dup1\n      swap2\n      sub\n      swap1\n      return\n        /* \"Shahzad/projects/git/ERC1404/contracts/ERC1404TokenMinKYCv12.sol\":14316:14507  function forceTransferToken(... */\n    tag_10:\n      tag_76\n      0x04\n      dup1\n      calldatasize\n      sub\n      dup2\n      add\n      swap1\n      tag_77\n      swap2\n      swap1\n      tag_52\n      jump\t// in\n    tag_77:\n      tag_78\n      jump\t// in\n    tag_76:\n      mload(0x40)\n      tag_79\n      swap2\n      swap1\n      tag_55\n      jump\t// in\n    tag_79:\n      mload(0x40)\n      dup1\n      swap2\n      sub\n      swap1\n      return\n        /* \"Shahzad/projects/git/ERC1404/contracts/ERC1404TokenMinKYCv12.sol\":15337:15677  function mint(address account, uint256 amount) ... */\n    tag_11:\n      tag_80\n      0x04\n      dup1\n      calldatasize\n      sub\n      dup2\n      add\n      swap1\n      tag_81\n      swap2\n      swap1\n      tag_52\n      jump\t// in\n    tag_81:\n      tag_82\n      jump\t// in\n    tag_80:\n      mload(0x40)\n      tag_83\n      swap2\n      swap1\n      tag_55\n      jump\t// in\n    tag_83:\n      mload(0x40)\n      dup1\n      swap2\n      sub\n      swap1\n      return\n        /* \"Shahzad/projects/git/ERC1404/contracts/ERC1404TokenMinKYCv12.sol\":2753:2793  uint256 public currentTotalInvestors = 0 */\n    tag_12:\n      tag_84\n      tag_85\n      jump\t// in\n    tag_84:\n      mload(0x40)\n      tag_86\n      swap2\n      swap1\n      tag_63\n      jump\t// in\n    tag_86:\n      mload(0x40)\n      dup1\n      swap2\n      sub\n      swap1\n      return\n        /* \"Shahzad/projects/git/ERC1404/contracts/ERC1404TokenMinKYCv12.sol\":5430:5618  function resetCompanyLegalDocs(... */\n    tag_13:\n      tag_87\n      0x04\n      dup1\n      calldatasize\n      sub\n      dup2\n      add\n      swap1\n      tag_88\n      swap2\n      swap1\n      tag_89\n      jump\t// in\n    tag_88:\n      tag_90\n      jump\t// in\n    tag_87:\n      stop\n        /* \"Shahzad/projects/git/ERC1404/contracts/ERC1404TokenMinKYCv12.sol\":2259:2288  string public version = \"1.2\" */\n    tag_14:\n      tag_91\n      tag_92\n      jump\t// in\n    tag_91:\n      mload(0x40)\n      tag_93\n      swap2\n      swap1\n      tag_49\n      jump\t// in\n    tag_93:\n      mload(0x40)\n      dup1\n      swap2\n      sub\n      swap1\n      return\n        /* \"Shahzad/projects/git/ERC1404/contracts/ERC1404TokenMinKYCv12.sol\":2470:2500  string public ShareCertificate */\n    tag_15:\n      tag_94\n      tag_95\n      jump\t// in\n    tag_94:\n      mload(0x40)\n      tag_96\n      swap2\n      swap1\n      tag_49\n      jump\t// in\n    tag_96:\n      mload(0x40)\n      dup1\n      swap2\n      sub\n      swap1\n      return\n        /* \"Shahzad/projects/git/ERC1404/contracts/ERC1404TokenMinKYCv12.sol\":5783:6118  function resetAllowedInvestors(uint256 _allowedInvestors) ... */\n    tag_16:\n      tag_97\n      0x04\n      dup1\n      calldatasize\n      sub\n      dup2\n      add\n      swap1\n      tag_98\n      swap2\n      swap1\n      tag_99\n      jump\t// in\n    tag_98:\n      tag_100\n      jump\t// in\n    tag_97:\n      stop\n        /* \"Shahzad/projects/git/ERC1404/contracts/ERC1404TokenMinKYCv12.sol\":2838:2877  uint256 public tradingHoldingPeriod = 1 */\n    tag_17:\n      tag_101\n      tag_102\n      jump\t// in\n    tag_101:\n      mload(0x40)\n      tag_103\n      swap2\n      swap1\n      tag_63\n      jump\t// in\n    tag_103:\n      mload(0x40)\n      dup1\n      swap2\n      sub\n      swap1\n      return\n        /* \"Shahzad/projects/git/ERC1404/contracts/ERC1404TokenMinKYCv12.sol\":2798:2833  uint256 public allowedInvestors = 0 */\n    tag_18:\n      tag_104\n      tag_105\n      jump\t// in\n    tag_104:\n      mload(0x40)\n      tag_106\n      swap2\n      swap1\n      tag_63\n      jump\t// in\n    tag_106:\n      mload(0x40)\n      dup1\n      swap2\n      sub\n      swap1\n      return\n        /* \"Shahzad/projects/git/ERC1404/contracts/ERC1404TokenMinKYCv12.sol\":2291:2336  string public IssuancePlatform = \"DigiShares\" */\n    tag_19:\n      tag_107\n      tag_108\n      jump\t// in\n    tag_107:\n      mload(0x40)\n      tag_109\n      swap2\n      swap1\n      tag_49\n      jump\t// in\n    tag_109:\n      mload(0x40)\n      dup1\n      swap2\n      sub\n      swap1\n      return\n        /* \"Shahzad/projects/git/ERC1404/contracts/ERC1404TokenMinKYCv12.sol\":12798:12933  function balanceOf(address account) ... */\n    tag_20:\n      tag_110\n      0x04\n      dup1\n      calldatasize\n      sub\n      dup2\n      add\n      swap1\n      tag_111\n      swap2\n      swap1\n      tag_112\n      jump\t// in\n    tag_111:\n      tag_113\n      jump\t// in\n    tag_110:\n      mload(0x40)\n      tag_114\n      swap2\n      swap1\n      tag_63\n      jump\t// in\n    tag_114:\n      mload(0x40)\n      dup1\n      swap2\n      sub\n      swap1\n      return\n        /* \"Shahzad/projects/git/ERC1404/contracts/ERC1404TokenMinKYCv12.sol\":2339:2382  string public issuanceProtocol = \"ERC-1404\" */\n    tag_21:\n      tag_115\n      tag_116\n      jump\t// in\n    tag_115:\n      mload(0x40)\n      tag_117\n      swap2\n      swap1\n      tag_49\n      jump\t// in\n    tag_117:\n      mload(0x40)\n      dup1\n      swap2\n      sub\n      swap1\n      return\n        /* \"Shahzad/projects/git/ERC1404/contracts/ERC1404TokenMinKYCv12.sol\":12324:12611  function messageForTransferRestriction (uint8 restrictionCode)... */\n    tag_22:\n      tag_118\n      0x04\n      dup1\n      calldatasize\n      sub\n      dup2\n      add\n      swap1\n      tag_119\n      swap2\n      swap1\n      tag_120\n      jump\t// in\n    tag_119:\n      tag_121\n      jump\t// in\n    tag_118:\n      mload(0x40)\n      tag_122\n      swap2\n      swap1\n      tag_49\n      jump\t// in\n    tag_122:\n      mload(0x40)\n      dup1\n      swap2\n      sub\n      swap1\n      return\n        /* \"Shahzad/projects/git/ERC1404/contracts/ERC1404TokenMinKYCv12.sol\":2503:2532  string public CompanyHomepage */\n    tag_23:\n      tag_123\n      tag_124\n      jump\t// in\n    tag_123:\n      mload(0x40)\n      tag_125\n      swap2\n      swap1\n      tag_49\n      jump\t// in\n    tag_125:\n      mload(0x40)\n      dup1\n      swap2\n      sub\n      swap1\n      return\n        /* \"Shahzad/projects/git/ERC1404/contracts/ERC1404TokenMinKYCv12.sol\":6453:6538  function owner() ... */\n    tag_24:\n      tag_126\n      tag_127\n      jump\t// in\n    tag_126:\n      mload(0x40)\n      tag_128\n      swap2\n      swap1\n      tag_129\n      jump\t// in\n    tag_128:\n      mload(0x40)\n      dup1\n      swap2\n      sub\n      swap1\n      return\n        /* \"Shahzad/projects/git/ERC1404/contracts/ERC1404TokenMinKYCv12.sol\":2446:2466  string public symbol */\n    tag_25:\n      tag_130\n      tag_131\n      jump\t// in\n    tag_130:\n      mload(0x40)\n      tag_132\n      swap2\n      swap1\n      tag_49\n      jump\t// in\n    tag_132:\n      mload(0x40)\n      dup1\n      swap2\n      sub\n      swap1\n      return\n        /* \"Shahzad/projects/git/ERC1404/contracts/ERC1404TokenMinKYCv12.sol\":15684:16033  function burn(address account, uint256 amount) ... */\n    tag_26:\n      tag_133\n      0x04\n      dup1\n      calldatasize\n      sub\n      dup2\n      add\n      swap1\n      tag_134\n      swap2\n      swap1\n      tag_52\n      jump\t// in\n    tag_134:\n      tag_135\n      jump\t// in\n    tag_133:\n      mload(0x40)\n      tag_136\n      swap2\n      swap1\n      tag_55\n      jump\t// in\n    tag_136:\n      mload(0x40)\n      dup1\n      swap2\n      sub\n      swap1\n      return\n        /* \"Shahzad/projects/git/ERC1404/contracts/ERC1404TokenMinKYCv12.sol\":13474:13726  function transfer(... */\n    tag_27:\n      tag_137\n      0x04\n      dup1\n      calldatasize\n      sub\n      dup2\n      add\n      swap1\n      tag_138\n      swap2\n      swap1\n      tag_52\n      jump\t// in\n    tag_138:\n      tag_139\n      jump\t// in\n    tag_137:\n      mload(0x40)\n      tag_140\n      swap2\n      swap1\n      tag_55\n      jump\t// in\n    tag_140:\n      mload(0x40)\n      dup1\n      swap2\n      sub\n      swap1\n      return\n        /* \"Shahzad/projects/git/ERC1404/contracts/ERC1404TokenMinKYCv12.sol\":8982:9127  function getKYCData(address user) ... */\n    tag_28:\n      tag_141\n      0x04\n      dup1\n      calldatasize\n      sub\n      dup2\n      add\n      swap1\n      tag_142\n      swap2\n      swap1\n      tag_112\n      jump\t// in\n    tag_142:\n      tag_143\n      jump\t// in\n    tag_141:\n      mload(0x40)\n      tag_144\n      swap3\n      swap2\n      swap1\n      tag_145\n      jump\t// in\n    tag_144:\n      mload(0x40)\n      dup1\n      swap2\n      sub\n      swap1\n      return\n        /* \"Shahzad/projects/git/ERC1404/contracts/ERC1404TokenMinKYCv12.sol\":5240:5423  function resetCompanyHomepage(... */\n    tag_29:\n      tag_146\n      0x04\n      dup1\n      calldatasize\n      sub\n      dup2\n      add\n      swap1\n      tag_147\n      swap2\n      swap1\n      tag_89\n      jump\t// in\n    tag_147:\n      tag_148\n      jump\t// in\n    tag_146:\n      stop\n        /* \"Shahzad/projects/git/ERC1404/contracts/ERC1404TokenMinKYCv12.sol\":5045:5234  function resetShareCertificate(... */\n    tag_30:\n      tag_149\n      0x04\n      dup1\n      calldatasize\n      sub\n      dup2\n      add\n      swap1\n      tag_150\n      swap2\n      swap1\n      tag_89\n      jump\t// in\n    tag_150:\n      tag_151\n      jump\t// in\n    tag_149:\n      stop\n        /* \"Shahzad/projects/git/ERC1404/contracts/ERC1404TokenMinKYCv12.sol\":2535:2565  string public CompanyLegalDocs */\n    tag_31:\n      tag_152\n      tag_153\n      jump\t// in\n    tag_152:\n      mload(0x40)\n      tag_154\n      swap2\n      swap1\n      tag_49\n      jump\t// in\n    tag_154:\n      mload(0x40)\n      dup1\n      swap2\n      sub\n      swap1\n      return\n        /* \"Shahzad/projects/git/ERC1404/contracts/ERC1404TokenMinKYCv12.sol\":6125:6319  function setTradingHoldingPeriod(uint256 _tradingHoldingPeriod) ... */\n    tag_32:\n      tag_155\n      0x04\n      dup1\n      calldatasize\n      sub\n      dup2\n      add\n      swap1\n      tag_156\n      swap2\n      swap1\n      tag_99\n      jump\t// in\n    tag_156:\n      tag_157\n      jump\t// in\n    tag_155:\n      stop\n        /* \"Shahzad/projects/git/ERC1404/contracts/ERC1404TokenMinKYCv12.sol\":7051:7213  function setWhitelistAuthorityStatus(address user)... */\n    tag_33:\n      tag_158\n      0x04\n      dup1\n      calldatasize\n      sub\n      dup2\n      add\n      swap1\n      tag_159\n      swap2\n      swap1\n      tag_112\n      jump\t// in\n    tag_159:\n      tag_160\n      jump\t// in\n    tag_158:\n      stop\n        /* \"Shahzad/projects/git/ERC1404/contracts/ERC1404TokenMinKYCv12.sol\":9746:12317  function detectTransferRestriction (address _from, address _to, uint256 value) ... */\n    tag_34:\n      tag_161\n      0x04\n      dup1\n      calldatasize\n      sub\n      dup2\n      add\n      swap1\n      tag_162\n      swap2\n      swap1\n      tag_66\n      jump\t// in\n    tag_162:\n      tag_163\n      jump\t// in\n    tag_161:\n      mload(0x40)\n      tag_164\n      swap2\n      swap1\n      tag_165\n      jump\t// in\n    tag_164:\n      mload(0x40)\n      dup1\n      swap2\n      sub\n      swap1\n      return\n        /* \"Shahzad/projects/git/ERC1404/contracts/ERC1404TokenMinKYCv12.sol\":7215:7384  function removeWhitelistAuthorityStatus(address user)... */\n    tag_35:\n      tag_166\n      0x04\n      dup1\n      calldatasize\n      sub\n      dup2\n      add\n      swap1\n      tag_167\n      swap2\n      swap1\n      tag_112\n      jump\t// in\n    tag_167:\n      tag_168\n      jump\t// in\n    tag_166:\n      stop\n        /* \"Shahzad/projects/git/ERC1404/contracts/ERC1404TokenMinKYCv12.sol\":13316:13466  function allowance(address ownby, address spender) ... */\n    tag_36:\n      tag_169\n      0x04\n      dup1\n      calldatasize\n      sub\n      dup2\n      add\n      swap1\n      tag_170\n      swap2\n      swap1\n      tag_171\n      jump\t// in\n    tag_170:\n      tag_172\n      jump\t// in\n    tag_169:\n      mload(0x40)\n      tag_173\n      swap2\n      swap1\n      tag_63\n      jump\t// in\n    tag_173:\n      mload(0x40)\n      dup1\n      swap2\n      sub\n      swap1\n      return\n        /* \"Shahzad/projects/git/ERC1404/contracts/ERC1404TokenMinKYCv12.sol\":7387:7519  function getWhitelistAuthorityStatus(address user)... */\n    tag_37:\n      tag_174\n      0x04\n      dup1\n      calldatasize\n      sub\n      dup2\n      add\n      swap1\n      tag_175\n      swap2\n      swap1\n      tag_112\n      jump\t// in\n    tag_175:\n      tag_176\n      jump\t// in\n    tag_174:\n      mload(0x40)\n      tag_177\n      swap2\n      swap1\n      tag_55\n      jump\t// in\n    tag_177:\n      mload(0x40)\n      dup1\n      swap2\n      sub\n      swap1\n      return\n        /* \"Shahzad/projects/git/ERC1404/contracts/ERC1404TokenMinKYCv12.sol\":6663:6837  function transferOwnership(address newOwner) ... */\n    tag_38:\n      tag_178\n      0x04\n      dup1\n      calldatasize\n      sub\n      dup2\n      add\n      swap1\n      tag_179\n      swap2\n      swap1\n      tag_112\n      jump\t// in\n    tag_179:\n      tag_180\n      jump\t// in\n    tag_178:\n      stop\n        /* \"Shahzad/projects/git/ERC1404/contracts/ERC1404TokenMinKYCv12.sol\":2422:2440  string public name */\n    tag_47:\n      0x0b\n      dup1\n      sload\n      tag_181\n      swap1\n      tag_182\n      jump\t// in\n    tag_181:\n      dup1\n      0x1f\n      add\n      0x20\n      dup1\n      swap2\n      div\n      mul\n      0x20\n      add\n      mload(0x40)\n      swap1\n      dup2\n      add\n      0x40\n      mstore\n      dup1\n      swap3\n      swap2\n      swap1\n      dup2\n      dup2\n      mstore\n      0x20\n      add\n      dup3\n      dup1\n      sload\n      tag_183\n      swap1\n      tag_182\n      jump\t// in\n    tag_183:\n      dup1\n      iszero\n      tag_184\n      jumpi\n      dup1\n      0x1f\n      lt\n      tag_185\n      jumpi\n      0x0100\n      dup1\n      dup4\n      sload\n      div\n      mul\n      dup4\n      mstore\n      swap2\n      0x20\n      add\n      swap2\n      jump(tag_184)\n    tag_185:\n      dup3\n      add\n      swap2\n      swap1\n      0x00\n      mstore\n      keccak256(0x00, 0x20)\n      swap1\n    tag_186:\n      dup2\n      sload\n      dup2\n      mstore\n      swap1\n      0x01\n      add\n      swap1\n      0x20\n      add\n      dup1\n      dup4\n      gt\n      tag_186\n      jumpi\n      dup3\n      swap1\n      sub\n      0x1f\n      and\n      dup3\n      add\n      swap2\n    tag_184:\n      pop\n      pop\n      pop\n      pop\n      pop\n      dup2\n      jump\t// out\n        /* \"Shahzad/projects/git/ERC1404/contracts/ERC1404TokenMinKYCv12.sol\":12942:13307  function approve(... */\n    tag_53:\n        /* \"Shahzad/projects/git/ERC1404/contracts/ERC1404TokenMinKYCv12.sol\":13045:13049  bool */\n      0x00\n        /* \"Shahzad/projects/git/ERC1404/contracts/ERC1404TokenMinKYCv12.sol\":13089:13090  0 */\n      dup1\n        /* \"Shahzad/projects/git/ERC1404/contracts/ERC1404TokenMinKYCv12.sol\":13070:13091  spender != address(0) */\n      0xffffffffffffffffffffffffffffffffffffffff\n      and\n        /* \"Shahzad/projects/git/ERC1404/contracts/ERC1404TokenMinKYCv12.sol\":13070:13077  spender */\n      dup4\n        /* \"Shahzad/projects/git/ERC1404/contracts/ERC1404TokenMinKYCv12.sol\":13070:13091  spender != address(0) */\n      0xffffffffffffffffffffffffffffffffffffffff\n      and\n      eq\n      iszero\n        /* \"Shahzad/projects/git/ERC1404/contracts/ERC1404TokenMinKYCv12.sol\":13062:13131  require(spender != address(0), \"Zero address as spender not allowed\") */\n      tag_188\n      jumpi\n      mload(0x40)\n      0x08c379a000000000000000000000000000000000000000000000000000000000\n      dup2\n      mstore\n      0x04\n      add\n      tag_189\n      swap1\n      tag_190\n      jump\t// in\n    tag_189:\n      mload(0x40)\n      dup1\n      swap2\n      sub\n      swap1\n      revert\n    tag_188:\n        /* \"Shahzad/projects/git/ERC1404/contracts/ERC1404TokenMinKYCv12.sol\":13152:13153  0 */\n      0x00\n        /* \"Shahzad/projects/git/ERC1404/contracts/ERC1404TokenMinKYCv12.sol\":13143:13149  amount */\n      dup3\n        /* \"Shahzad/projects/git/ERC1404/contracts/ERC1404TokenMinKYCv12.sol\":13143:13153  amount > 0 */\n      gt\n        /* \"Shahzad/projects/git/ERC1404/contracts/ERC1404TokenMinKYCv12.sol\":13135:13181  require(amount > 0, \"Zero Amount not allowed\") */\n      tag_191\n      jumpi\n      mload(0x40)\n      0x08c379a000000000000000000000000000000000000000000000000000000000\n      dup2\n      mstore\n      0x04\n      add\n      tag_192\n      swap1\n      tag_193\n      jump\t// in\n    tag_192:\n      mload(0x40)\n      dup1\n      swap2\n      sub\n      swap1\n      revert\n    tag_191:\n        /* \"Shahzad/projects/git/ERC1404/contracts/ERC1404TokenMinKYCv12.sol\":13227:13233  amount */\n      dup2\n        /* \"Shahzad/projects/git/ERC1404/contracts/ERC1404TokenMinKYCv12.sol\":13192:13203  _allowances */\n      0x03\n        /* \"Shahzad/projects/git/ERC1404/contracts/ERC1404TokenMinKYCv12.sol\":13192:13215  _allowances[msg.sender] */\n      0x00\n        /* \"Shahzad/projects/git/ERC1404/contracts/ERC1404TokenMinKYCv12.sol\":13204:13214  msg.sender */\n      caller\n        /* \"Shahzad/projects/git/ERC1404/contracts/ERC1404TokenMinKYCv12.sol\":13192:13215  _allowances[msg.sender] */\n      0xffffffffffffffffffffffffffffffffffffffff\n      and\n      0xffffffffffffffffffffffffffffffffffffffff\n      and\n      dup2\n      mstore\n      0x20\n      add\n      swap1\n      dup2\n      mstore\n      0x20\n      add\n      0x00\n      keccak256\n        /* \"Shahzad/projects/git/ERC1404/contracts/ERC1404TokenMinKYCv12.sol\":13192:13224  _allowances[msg.sender][spender] */\n      0x00\n        /* \"Shahzad/projects/git/ERC1404/contracts/ERC1404TokenMinKYCv12.sol\":13216:13223  spender */\n      dup6\n        /* \"Shahzad/projects/git/ERC1404/contracts/ERC1404TokenMinKYCv12.sol\":13192:13224  _allowances[msg.sender][spender] */\n      0xffffffffffffffffffffffffffffffffffffffff\n      and\n      0xffffffffffffffffffffffffffffffffffffffff\n      and\n      dup2\n      mstore\n      0x20\n      add\n      swap1\n      dup2\n      mstore\n      0x20\n      add\n      0x00\n      keccak256\n        /* \"Shahzad/projects/git/ERC1404/contracts/ERC1404TokenMinKYCv12.sol\":13192:13233  _allowances[msg.sender][spender] = amount */\n      dup2\n      swap1\n      sstore\n      pop\n        /* \"Shahzad/projects/git/ERC1404/contracts/ERC1404TokenMinKYCv12.sol\":13269:13276  spender */\n      dup3\n        /* \"Shahzad/projects/git/ERC1404/contracts/ERC1404TokenMinKYCv12.sol\":13248:13285  Approval(msg.sender, spender, amount) */\n      0xffffffffffffffffffffffffffffffffffffffff\n      and\n        /* \"Shahzad/projects/git/ERC1404/contracts/ERC1404TokenMinKYCv12.sol\":13257:13267  msg.sender */\n      caller\n        /* \"Shahzad/projects/git/ERC1404/contracts/ERC1404TokenMinKYCv12.sol\":13248:13285  Approval(msg.sender, spender, amount) */\n      0xffffffffffffffffffffffffffffffffffffffff\n      and\n      0x8c5be1e5ebec7d5bd14f71427d1e84f3dd0314c0f7b2291e5b200ac8c7c3b925\n        /* \"Shahzad/projects/git/ERC1404/contracts/ERC1404TokenMinKYCv12.sol\":13278:13284  amount */\n      dup5\n        /* \"Shahzad/projects/git/ERC1404/contracts/ERC1404TokenMinKYCv12.sol\":13248:13285  Approval(msg.sender, spender, amount) */\n      mload(0x40)\n      tag_194\n      swap2\n      swap1\n      tag_63\n      jump\t// in\n    tag_194:\n      mload(0x40)\n      dup1\n      swap2\n      sub\n      swap1\n      log3\n        /* \"Shahzad/projects/git/ERC1404/contracts/ERC1404TokenMinKYCv12.sol\":13296:13300  true */\n      0x01\n        /* \"Shahzad/projects/git/ERC1404/contracts/ERC1404TokenMinKYCv12.sol\":13289:13300  return true */\n      swap1\n      pop\n        /* \"Shahzad/projects/git/ERC1404/contracts/ERC1404TokenMinKYCv12.sol\":12942:13307  function approve(... */\n      swap3\n      swap2\n      pop\n      pop\n      jump\t// out\n        /* \"Shahzad/projects/git/ERC1404/contracts/ERC1404TokenMinKYCv12.sol\":7895:8281  function bulkWhitelistWallets (... */\n    tag_59:\n        /* \"Shahzad/projects/git/ERC1404/contracts/ERC1404TokenMinKYCv12.sol\":8081:8085  true */\n      0x01\n        /* \"Shahzad/projects/git/ERC1404/contracts/ERC1404TokenMinKYCv12.sol\":8039:8085  _whitelistControlAuthority[msg.sender] == true */\n      iszero\n      iszero\n        /* \"Shahzad/projects/git/ERC1404/contracts/ERC1404TokenMinKYCv12.sol\":8039:8065  _whitelistControlAuthority */\n      0x05\n        /* \"Shahzad/projects/git/ERC1404/contracts/ERC1404TokenMinKYCv12.sol\":8039:8077  _whitelistControlAuthority[msg.sender] */\n      0x00\n        /* \"Shahzad/projects/git/ERC1404/contracts/ERC1404TokenMinKYCv12.sol\":8066:8076  msg.sender */\n      caller\n        /* \"Shahzad/projects/git/ERC1404/contracts/ERC1404TokenMinKYCv12.sol\":8039:8077  _whitelistControlAuthority[msg.sender] */\n      0xffffffffffffffffffffffffffffffffffffffff\n      and\n      0xffffffffffffffffffffffffffffffffffffffff\n      and\n      dup2\n      mstore\n      0x20\n      add\n      swap1\n      dup2\n      mstore\n      0x20\n      add\n      0x00\n      keccak256\n      0x00\n      swap1\n      sload\n      swap1\n      0x0100\n      exp\n      swap1\n      div\n      0xff\n      and\n        /* \"Shahzad/projects/git/ERC1404/contracts/ERC1404TokenMinKYCv12.sol\":8039:8085  _whitelistControlAuthority[msg.sender] == true */\n      iszero\n      iszero\n      eq\n        /* \"Shahzad/projects/git/ERC1404/contracts/ERC1404TokenMinKYCv12.sol\":8031:8155  require(_whitelistControlAuthority[msg.sender] == true, \"Only authorized addresses can change KYC information of investors\") */\n      tag_196\n      jumpi\n      mload(0x40)\n      0x08c379a000000000000000000000000000000000000000000000000000000000\n      dup2\n      mstore\n      0x04\n      add\n      tag_197\n      swap1\n      tag_198\n      jump\t// in\n    tag_197:\n      mload(0x40)\n      dup1\n      swap2\n      sub\n      swap1\n      revert\n    tag_196:\n        /* \"Shahzad/projects/git/ERC1404/contracts/ERC1404TokenMinKYCv12.sol\":8164:8170  uint i */\n      0x00\n        /* \"Shahzad/projects/git/ERC1404/contracts/ERC1404TokenMinKYCv12.sol\":8159:8276  for (uint i=0; i<account.length; i++) {... */\n    tag_199:\n        /* \"Shahzad/projects/git/ERC1404/contracts/ERC1404TokenMinKYCv12.sol\":8176:8183  account */\n      dup4\n        /* \"Shahzad/projects/git/ERC1404/contracts/ERC1404TokenMinKYCv12.sol\":8176:8190  account.length */\n      mload\n        /* \"Shahzad/projects/git/ERC1404/contracts/ERC1404TokenMinKYCv12.sol\":8174:8175  i */\n      dup2\n        /* \"Shahzad/projects/git/ERC1404/contracts/ERC1404TokenMinKYCv12.sol\":8174:8190  i<account.length */\n      lt\n        /* \"Shahzad/projects/git/ERC1404/contracts/ERC1404TokenMinKYCv12.sol\":8159:8276  for (uint i=0; i<account.length; i++) {... */\n      iszero\n      tag_200\n      jumpi\n        /* \"Shahzad/projects/git/ERC1404/contracts/ERC1404TokenMinKYCv12.sol\":8202:8268  setupKYCDataForUser( account[i], buyRestriction, sellRestriction ) */\n      tag_202\n        /* \"Shahzad/projects/git/ERC1404/contracts/ERC1404TokenMinKYCv12.sol\":8223:8230  account */\n      dup5\n        /* \"Shahzad/projects/git/ERC1404/contracts/ERC1404TokenMinKYCv12.sol\":8231:8232  i */\n      dup3\n        /* \"Shahzad/projects/git/ERC1404/contracts/ERC1404TokenMinKYCv12.sol\":8223:8233  account[i] */\n      dup2\n      mload\n      dup2\n      lt\n      tag_203\n      jumpi\n      tag_204\n      tag_205\n      jump\t// in\n    tag_204:\n    tag_203:\n      0x20\n      mul\n      0x20\n      add\n      add\n      mload\n        /* \"Shahzad/projects/git/ERC1404/contracts/ERC1404TokenMinKYCv12.sol\":8235:8249  buyRestriction */\n      dup5\n        /* \"Shahzad/projects/git/ERC1404/contracts/ERC1404TokenMinKYCv12.sol\":8251:8266  sellRestriction */\n      dup5\n        /* \"Shahzad/projects/git/ERC1404/contracts/ERC1404TokenMinKYCv12.sol\":8202:8221  setupKYCDataForUser */\n      tag_206\n        /* \"Shahzad/projects/git/ERC1404/contracts/ERC1404TokenMinKYCv12.sol\":8202:8268  setupKYCDataForUser( account[i], buyRestriction, sellRestriction ) */\n      jump\t// in\n    tag_202:\n        /* \"Shahzad/projects/git/ERC1404/contracts/ERC1404TokenMinKYCv12.sol\":8192:8195  i++ */\n      dup1\n      dup1\n      tag_207\n      swap1\n      tag_208\n      jump\t// in\n    tag_207:\n      swap2\n      pop\n      pop\n        /* \"Shahzad/projects/git/ERC1404/contracts/ERC1404TokenMinKYCv12.sol\":8159:8276  for (uint i=0; i<account.length; i++) {... */\n      jump(tag_199)\n    tag_200:\n      pop\n        /* \"Shahzad/projects/git/ERC1404/contracts/ERC1404TokenMinKYCv12.sol\":7895:8281  function bulkWhitelistWallets (... */\n      pop\n      pop\n      pop\n      jump\t// out\n        /* \"Shahzad/projects/git/ERC1404/contracts/ERC1404TokenMinKYCv12.sol\":12693:12791  function totalSupply() ... */\n    tag_61:\n        /* \"Shahzad/projects/git/ERC1404/contracts/ERC1404TokenMinKYCv12.sol\":12755:12762  uint256 */\n      0x00\n        /* \"Shahzad/projects/git/ERC1404/contracts/ERC1404TokenMinKYCv12.sol\":12775:12787  _totalSupply */\n      sload(0x0a)\n        /* \"Shahzad/projects/git/ERC1404/contracts/ERC1404TokenMinKYCv12.sol\":12768:12787  return _totalSupply */\n      swap1\n      pop\n        /* \"Shahzad/projects/git/ERC1404/contracts/ERC1404TokenMinKYCv12.sol\":12693:12791  function totalSupply() ... */\n      swap1\n      jump\t// out\n        /* \"Shahzad/projects/git/ERC1404/contracts/ERC1404TokenMinKYCv12.sol\":13733:14274  function transferFrom(... */\n    tag_67:\n        /* \"Shahzad/projects/git/ERC1404/contracts/ERC1404TokenMinKYCv12.sol\":13911:13915  bool */\n      0x00\n        /* \"Shahzad/projects/git/ERC1404/contracts/ERC1404TokenMinKYCv12.sol\":13874:13880  sender */\n      dup4\n        /* \"Shahzad/projects/git/ERC1404/contracts/ERC1404TokenMinKYCv12.sol\":13882:13891  recipient */\n      dup4\n        /* \"Shahzad/projects/git/ERC1404/contracts/ERC1404TokenMinKYCv12.sol\":13893:13899  amount */\n      dup4\n        /* \"Shahzad/projects/git/ERC1404/contracts/ERC1404TokenMinKYCv12.sol\":9410:9431  uint8 restrictionCode */\n      0x00\n        /* \"Shahzad/projects/git/ERC1404/contracts/ERC1404TokenMinKYCv12.sol\":9434:9476  detectTransferRestriction(from, to, value) */\n      tag_211\n        /* \"Shahzad/projects/git/ERC1404/contracts/ERC1404TokenMinKYCv12.sol\":9460:9464  from */\n      dup5\n        /* \"Shahzad/projects/git/ERC1404/contracts/ERC1404TokenMinKYCv12.sol\":9466:9468  to */\n      dup5\n        /* \"Shahzad/projects/git/ERC1404/contracts/ERC1404TokenMinKYCv12.sol\":9470:9475  value */\n      dup5\n        /* \"Shahzad/projects/git/ERC1404/contracts/ERC1404TokenMinKYCv12.sol\":9434:9459  detectTransferRestriction */\n      tag_163\n        /* \"Shahzad/projects/git/ERC1404/contracts/ERC1404TokenMinKYCv12.sol\":9434:9476  detectTransferRestriction(from, to, value) */\n      jump\t// in\n    tag_211:\n        /* \"Shahzad/projects/git/ERC1404/contracts/ERC1404TokenMinKYCv12.sol\":9410:9476  uint8 restrictionCode = detectTransferRestriction(from, to, value) */\n      swap1\n      pop\n        /* \"Shahzad/projects/git/ERC1404/contracts/ERC1404TokenMinKYCv12.sol\":3034:3035  0 */\n      0x00\n        /* \"Shahzad/projects/git/ERC1404/contracts/ERC1404TokenMinKYCv12.sol\":9484:9532  restrictionCode != NO_TRANSFER_RESTRICTION_FOUND */\n      0xff\n      and\n        /* \"Shahzad/projects/git/ERC1404/contracts/ERC1404TokenMinKYCv12.sol\":9484:9499  restrictionCode */\n      dup2\n        /* \"Shahzad/projects/git/ERC1404/contracts/ERC1404TokenMinKYCv12.sol\":9484:9532  restrictionCode != NO_TRANSFER_RESTRICTION_FOUND */\n      0xff\n      and\n      eq\n        /* \"Shahzad/projects/git/ERC1404/contracts/ERC1404TokenMinKYCv12.sol\":9480:9731  if( restrictionCode != NO_TRANSFER_RESTRICTION_FOUND ) {... */\n      tag_212\n      jumpi\n        /* \"Shahzad/projects/git/ERC1404/contracts/ERC1404TokenMinKYCv12.sol\":9540:9566  string memory errorMessage */\n      0x00\n        /* \"Shahzad/projects/git/ERC1404/contracts/ERC1404TokenMinKYCv12.sol\":9569:9615  messageForTransferRestriction(restrictionCode) */\n      tag_213\n        /* \"Shahzad/projects/git/ERC1404/contracts/ERC1404TokenMinKYCv12.sol\":9599:9614  restrictionCode */\n      dup3\n        /* \"Shahzad/projects/git/ERC1404/contracts/ERC1404TokenMinKYCv12.sol\":9569:9598  messageForTransferRestriction */\n      tag_121\n        /* \"Shahzad/projects/git/ERC1404/contracts/ERC1404TokenMinKYCv12.sol\":9569:9615  messageForTransferRestriction(restrictionCode) */\n      jump\t// in\n    tag_213:\n        /* \"Shahzad/projects/git/ERC1404/contracts/ERC1404TokenMinKYCv12.sol\":9540:9615  string memory errorMessage = messageForTransferRestriction(restrictionCode) */\n      swap1\n      pop\n        /* \"Shahzad/projects/git/ERC1404/contracts/ERC1404TokenMinKYCv12.sol\":9660:9662  to */\n      dup4\n        /* \"Shahzad/projects/git/ERC1404/contracts/ERC1404TokenMinKYCv12.sol\":9625:9678  TransferRestrictionDetected( from, to, errorMessage ) */\n      0xffffffffffffffffffffffffffffffffffffffff\n      and\n        /* \"Shahzad/projects/git/ERC1404/contracts/ERC1404TokenMinKYCv12.sol\":9654:9658  from */\n      dup6\n        /* \"Shahzad/projects/git/ERC1404/contracts/ERC1404TokenMinKYCv12.sol\":9625:9678  TransferRestrictionDetected( from, to, errorMessage ) */\n      0xffffffffffffffffffffffffffffffffffffffff\n      and\n      0x2fdd8c36dbe5614497208665e8d30c570421680d09984e3153829ddabd30c094\n        /* \"Shahzad/projects/git/ERC1404/contracts/ERC1404TokenMinKYCv12.sol\":9664:9676  errorMessage */\n      dup4\n        /* \"Shahzad/projects/git/ERC1404/contracts/ERC1404TokenMinKYCv12.sol\":9625:9678  TransferRestrictionDetected( from, to, errorMessage ) */\n      mload(0x40)\n      tag_214\n      swap2\n      swap1\n      tag_49\n      jump\t// in\n    tag_214:\n      mload(0x40)\n      dup1\n      swap2\n      sub\n      swap1\n      log3\n        /* \"Shahzad/projects/git/ERC1404/contracts/ERC1404TokenMinKYCv12.sol\":9696:9708  errorMessage */\n      dup1\n        /* \"Shahzad/projects/git/ERC1404/contracts/ERC1404TokenMinKYCv12.sol\":9689:9709  revert(errorMessage) */\n      mload(0x40)\n      0x08c379a000000000000000000000000000000000000000000000000000000000\n      dup2\n      mstore\n      0x04\n      add\n      tag_215\n      swap2\n      swap1\n      tag_49\n      jump\t// in\n    tag_215:\n      mload(0x40)\n      dup1\n      swap2\n      sub\n      swap1\n      revert\n        /* \"Shahzad/projects/git/ERC1404/contracts/ERC1404TokenMinKYCv12.sol\":9480:9731  if( restrictionCode != NO_TRANSFER_RESTRICTION_FOUND ) {... */\n    tag_212:\n        /* \"Shahzad/projects/git/ERC1404/contracts/ERC1404TokenMinKYCv12.sol\":13973:13979  amount */\n      dup6\n        /* \"Shahzad/projects/git/ERC1404/contracts/ERC1404TokenMinKYCv12.sol\":13938:13949  _allowances */\n      0x03\n        /* \"Shahzad/projects/git/ERC1404/contracts/ERC1404TokenMinKYCv12.sol\":13938:13957  _allowances[sender] */\n      0x00\n        /* \"Shahzad/projects/git/ERC1404/contracts/ERC1404TokenMinKYCv12.sol\":13950:13956  sender */\n      dup11\n        /* \"Shahzad/projects/git/ERC1404/contracts/ERC1404TokenMinKYCv12.sol\":13938:13957  _allowances[sender] */\n      0xffffffffffffffffffffffffffffffffffffffff\n      and\n      0xffffffffffffffffffffffffffffffffffffffff\n      and\n      dup2\n      mstore\n      0x20\n      add\n      swap1\n      dup2\n      mstore\n      0x20\n      add\n      0x00\n      keccak256\n        /* \"Shahzad/projects/git/ERC1404/contracts/ERC1404TokenMinKYCv12.sol\":13938:13969  _allowances[sender][msg.sender] */\n      0x00\n        /* \"Shahzad/projects/git/ERC1404/contracts/ERC1404TokenMinKYCv12.sol\":13958:13968  msg.sender */\n      caller\n        /* \"Shahzad/projects/git/ERC1404/contracts/ERC1404TokenMinKYCv12.sol\":13938:13969  _allowances[sender][msg.sender] */\n      0xffffffffffffffffffffffffffffffffffffffff\n      and\n      0xffffffffffffffffffffffffffffffffffffffff\n      and\n      dup2\n      mstore\n      0x20\n      add\n      swap1\n      dup2\n      mstore\n      0x20\n      add\n      0x00\n      keccak256\n      sload\n        /* \"Shahzad/projects/git/ERC1404/contracts/ERC1404TokenMinKYCv12.sol\":13938:13979  _allowances[sender][msg.sender] >= amount */\n      lt\n      iszero\n        /* \"Shahzad/projects/git/ERC1404/contracts/ERC1404TokenMinKYCv12.sol\":13930:14041  require(_allowances[sender][msg.sender] >= amount, \"Sender cannot transfer amount greater than his Allowance\" ) */\n      tag_218\n      jumpi\n      mload(0x40)\n      0x08c379a000000000000000000000000000000000000000000000000000000000\n      dup2\n      mstore\n      0x04\n      add\n      tag_219\n      swap1\n      tag_220\n      jump\t// in\n    tag_219:\n      mload(0x40)\n      dup1\n      swap2\n      sub\n      swap1\n      revert\n    tag_218:\n        /* \"Shahzad/projects/git/ERC1404/contracts/ERC1404TokenMinKYCv12.sol\":14045:14105  transferSharesBetweenInvestors ( sender, recipient, amount ) */\n      tag_221\n        /* \"Shahzad/projects/git/ERC1404/contracts/ERC1404TokenMinKYCv12.sol\":14078:14084  sender */\n      dup9\n        /* \"Shahzad/projects/git/ERC1404/contracts/ERC1404TokenMinKYCv12.sol\":14086:14095  recipient */\n      dup9\n        /* \"Shahzad/projects/git/ERC1404/contracts/ERC1404TokenMinKYCv12.sol\":14097:14103  amount */\n      dup9\n        /* \"Shahzad/projects/git/ERC1404/contracts/ERC1404TokenMinKYCv12.sol\":14045:14075  transferSharesBetweenInvestors */\n      tag_222\n        /* \"Shahzad/projects/git/ERC1404/contracts/ERC1404TokenMinKYCv12.sol\":14045:14105  transferSharesBetweenInvestors ( sender, recipient, amount ) */\n      jump\t// in\n    tag_221:\n        /* \"Shahzad/projects/git/ERC1404/contracts/ERC1404TokenMinKYCv12.sol\":14183:14189  amount */\n      dup6\n        /* \"Shahzad/projects/git/ERC1404/contracts/ERC1404TokenMinKYCv12.sol\":14149:14160  _allowances */\n      0x03\n        /* \"Shahzad/projects/git/ERC1404/contracts/ERC1404TokenMinKYCv12.sol\":14149:14168  _allowances[sender] */\n      0x00\n        /* \"Shahzad/projects/git/ERC1404/contracts/ERC1404TokenMinKYCv12.sol\":14161:14167  sender */\n      dup11\n        /* \"Shahzad/projects/git/ERC1404/contracts/ERC1404TokenMinKYCv12.sol\":14149:14168  _allowances[sender] */\n      0xffffffffffffffffffffffffffffffffffffffff\n      and\n      0xffffffffffffffffffffffffffffffffffffffff\n      and\n      dup2\n      mstore\n      0x20\n      add\n      swap1\n      dup2\n      mstore\n      0x20\n      add\n      0x00\n      keccak256\n        /* \"Shahzad/projects/git/ERC1404/contracts/ERC1404TokenMinKYCv12.sol\":14149:14180  _allowances[sender][msg.sender] */\n      0x00\n        /* \"Shahzad/projects/git/ERC1404/contracts/ERC1404TokenMinKYCv12.sol\":14169:14179  msg.sender */\n      caller\n        /* \"Shahzad/projects/git/ERC1404/contracts/ERC1404TokenMinKYCv12.sol\":14149:14180  _allowances[sender][msg.sender] */\n      0xffffffffffffffffffffffffffffffffffffffff\n      and\n      0xffffffffffffffffffffffffffffffffffffffff\n      and\n      dup2\n      mstore\n      0x20\n      add\n      swap1\n      dup2\n      mstore\n      0x20\n      add\n      0x00\n      keccak256\n      sload\n        /* \"Shahzad/projects/git/ERC1404/contracts/ERC1404TokenMinKYCv12.sol\":14149:14189  _allowances[sender][msg.sender] - amount */\n      tag_223\n      swap2\n      swap1\n      tag_224\n      jump\t// in\n    tag_223:\n        /* \"Shahzad/projects/git/ERC1404/contracts/ERC1404TokenMinKYCv12.sol\":14115:14126  _allowances */\n      0x03\n        /* \"Shahzad/projects/git/ERC1404/contracts/ERC1404TokenMinKYCv12.sol\":14115:14134  _allowances[sender] */\n      0x00\n        /* \"Shahzad/projects/git/ERC1404/contracts/ERC1404TokenMinKYCv12.sol\":14127:14133  sender */\n      dup11\n        /* \"Shahzad/projects/git/ERC1404/contracts/ERC1404TokenMinKYCv12.sol\":14115:14134  _allowances[sender] */\n      0xffffffffffffffffffffffffffffffffffffffff\n      and\n      0xffffffffffffffffffffffffffffffffffffffff\n      and\n      dup2\n      mstore\n      0x20\n      add\n      swap1\n      dup2\n      mstore\n      0x20\n      add\n      0x00\n      keccak256\n        /* \"Shahzad/projects/git/ERC1404/contracts/ERC1404TokenMinKYCv12.sol\":14115:14146  _allowances[sender][msg.sender] */\n      0x00\n        /* \"Shahzad/projects/git/ERC1404/contracts/ERC1404TokenMinKYCv12.sol\":14135:14145  msg.sender */\n      caller\n        /* \"Shahzad/projects/git/ERC1404/contracts/ERC1404TokenMinKYCv12.sol\":14115:14146  _allowances[sender][msg.sender] */\n      0xffffffffffffffffffffffffffffffffffffffff\n      and\n      0xffffffffffffffffffffffffffffffffffffffff\n      and\n      dup2\n      mstore\n      0x20\n      add\n      swap1\n      dup2\n      mstore\n      0x20\n      add\n      0x00\n      keccak256\n        /* \"Shahzad/projects/git/ERC1404/contracts/ERC1404TokenMinKYCv12.sol\":14115:14189  _allowances[sender][msg.sender] = _allowances[sender][msg.sender] - amount */\n      dup2\n      swap1\n      sstore\n      pop\n        /* \"Shahzad/projects/git/ERC1404/contracts/ERC1404TokenMinKYCv12.sol\":14199:14252  TransferFrom( msg.sender, sender, recipient, amount ) */\n      0x5f7542858008eeb041631f30e6109ae94b83a58e9a58261dd2c42c508850f939\n        /* \"Shahzad/projects/git/ERC1404/contracts/ERC1404TokenMinKYCv12.sol\":14213:14223  msg.sender */\n      caller\n        /* \"Shahzad/projects/git/ERC1404/contracts/ERC1404TokenMinKYCv12.sol\":14225:14231  sender */\n      dup10\n        /* \"Shahzad/projects/git/ERC1404/contracts/ERC1404TokenMinKYCv12.sol\":14233:14242  recipient */\n      dup10\n        /* \"Shahzad/projects/git/ERC1404/contracts/ERC1404TokenMinKYCv12.sol\":14244:14250  amount */\n      dup10\n        /* \"Shahzad/projects/git/ERC1404/contracts/ERC1404TokenMinKYCv12.sol\":14199:14252  TransferFrom( msg.sender, sender, recipient, amount ) */\n      mload(0x40)\n      tag_225\n      swap5\n      swap4\n      swap3\n      swap2\n      swap1\n      tag_226\n      jump\t// in\n    tag_225:\n      mload(0x40)\n      dup1\n      swap2\n      sub\n      swap1\n      log1\n        /* \"Shahzad/projects/git/ERC1404/contracts/ERC1404TokenMinKYCv12.sol\":14263:14267  true */\n      0x01\n        /* \"Shahzad/projects/git/ERC1404/contracts/ERC1404TokenMinKYCv12.sol\":14256:14267  return true */\n      swap5\n      pop\n        /* \"Shahzad/projects/git/ERC1404/contracts/ERC1404TokenMinKYCv12.sol\":9400:9738  {... */\n      pop\n        /* \"Shahzad/projects/git/ERC1404/contracts/ERC1404TokenMinKYCv12.sol\":13733:14274  function transferFrom(... */\n      pop\n      pop\n      pop\n      swap4\n      swap3\n      pop\n      pop\n      pop\n      jump\t// out\n        /* \"Shahzad/projects/git/ERC1404/contracts/ERC1404TokenMinKYCv12.sol\":7575:7892  function modifyKYCData (... */\n    tag_72:\n        /* \"Shahzad/projects/git/ERC1404/contracts/ERC1404TokenMinKYCv12.sol\":7747:7751  true */\n      0x01\n        /* \"Shahzad/projects/git/ERC1404/contracts/ERC1404TokenMinKYCv12.sol\":7705:7751  _whitelistControlAuthority[msg.sender] == true */\n      iszero\n      iszero\n        /* \"Shahzad/projects/git/ERC1404/contracts/ERC1404TokenMinKYCv12.sol\":7705:7731  _whitelistControlAuthority */\n      0x05\n        /* \"Shahzad/projects/git/ERC1404/contracts/ERC1404TokenMinKYCv12.sol\":7705:7743  _whitelistControlAuthority[msg.sender] */\n      0x00\n        /* \"Shahzad/projects/git/ERC1404/contracts/ERC1404TokenMinKYCv12.sol\":7732:7742  msg.sender */\n      caller\n        /* \"Shahzad/projects/git/ERC1404/contracts/ERC1404TokenMinKYCv12.sol\":7705:7743  _whitelistControlAuthority[msg.sender] */\n      0xffffffffffffffffffffffffffffffffffffffff\n      and\n      0xffffffffffffffffffffffffffffffffffffffff\n      and\n      dup2\n      mstore\n      0x20\n      add\n      swap1\n      dup2\n      mstore\n      0x20\n      add\n      0x00\n      keccak256\n      0x00\n      swap1\n      sload\n      swap1\n      0x0100\n      exp\n      swap1\n      div\n      0xff\n      and\n        /* \"Shahzad/projects/git/ERC1404/contracts/ERC1404TokenMinKYCv12.sol\":7705:7751  _whitelistControlAuthority[msg.sender] == true */\n      iszero\n      iszero\n      eq\n        /* \"Shahzad/projects/git/ERC1404/contracts/ERC1404TokenMinKYCv12.sol\":7697:7821  require(_whitelistControlAuthority[msg.sender] == true, \"Only authorized addresses can change KYC information of investors\") */\n      tag_228\n      jumpi\n      mload(0x40)\n      0x08c379a000000000000000000000000000000000000000000000000000000000\n      dup2\n      mstore\n      0x04\n      add\n      tag_229\n      swap1\n      tag_198\n      jump\t// in\n    tag_229:\n      mload(0x40)\n      dup1\n      swap2\n      sub\n      swap1\n      revert\n    tag_228:\n        /* \"Shahzad/projects/git/ERC1404/contracts/ERC1404TokenMinKYCv12.sol\":7825:7888  setupKYCDataForUser( account, buyRestriction, sellRestriction ) */\n      tag_230\n        /* \"Shahzad/projects/git/ERC1404/contracts/ERC1404TokenMinKYCv12.sol\":7846:7853  account */\n      dup4\n        /* \"Shahzad/projects/git/ERC1404/contracts/ERC1404TokenMinKYCv12.sol\":7855:7869  buyRestriction */\n      dup4\n        /* \"Shahzad/projects/git/ERC1404/contracts/ERC1404TokenMinKYCv12.sol\":7871:7886  sellRestriction */\n      dup4\n        /* \"Shahzad/projects/git/ERC1404/contracts/ERC1404TokenMinKYCv12.sol\":7825:7844  setupKYCDataForUser */\n      tag_206\n        /* \"Shahzad/projects/git/ERC1404/contracts/ERC1404TokenMinKYCv12.sol\":7825:7888  setupKYCDataForUser( account, buyRestriction, sellRestriction ) */\n      jump\t// in\n    tag_230:\n        /* \"Shahzad/projects/git/ERC1404/contracts/ERC1404TokenMinKYCv12.sol\":7575:7892  function modifyKYCData (... */\n      pop\n      pop\n      pop\n      jump\t// out\n        /* \"Shahzad/projects/git/ERC1404/contracts/ERC1404TokenMinKYCv12.sol\":2228:2256  uint256 public decimals = 18 */\n    tag_74:\n      sload(0x06)\n      dup2\n      jump\t// out\n        /* \"Shahzad/projects/git/ERC1404/contracts/ERC1404TokenMinKYCv12.sol\":14316:14507  function forceTransferToken(... */\n    tag_78:\n        /* \"Shahzad/projects/git/ERC1404/contracts/ERC1404TokenMinKYCv12.sol\":14425:14429  bool */\n      0x00\n        /* \"Shahzad/projects/git/ERC1404/contracts/ERC1404TokenMinKYCv12.sol\":6592:6602  msg.sender */\n      caller\n        /* \"Shahzad/projects/git/ERC1404/contracts/ERC1404TokenMinKYCv12.sol\":6582:6602  _owner == msg.sender */\n      0xffffffffffffffffffffffffffffffffffffffff\n      and\n        /* \"Shahzad/projects/git/ERC1404/contracts/ERC1404TokenMinKYCv12.sol\":6582:6588  _owner */\n      0x04\n      0x00\n      swap1\n      sload\n      swap1\n      0x0100\n      exp\n      swap1\n      div\n      0xffffffffffffffffffffffffffffffffffffffff\n      and\n        /* \"Shahzad/projects/git/ERC1404/contracts/ERC1404TokenMinKYCv12.sol\":6582:6602  _owner == msg.sender */\n      0xffffffffffffffffffffffffffffffffffffffff\n      and\n      eq\n        /* \"Shahzad/projects/git/ERC1404/contracts/ERC1404TokenMinKYCv12.sol\":6574:6640  require(_owner == msg.sender, \"Only owner has access to function\") */\n      tag_232\n      jumpi\n      mload(0x40)\n      0x08c379a000000000000000000000000000000000000000000000000000000000\n      dup2\n      mstore\n      0x04\n      add\n      tag_233\n      swap1\n      tag_234\n      jump\t// in\n    tag_233:\n      mload(0x40)\n      dup1\n      swap2\n      sub\n      swap1\n      revert\n    tag_232:\n        /* \"Shahzad/projects/git/ERC1404/contracts/ERC1404TokenMinKYCv12.sol\":14436:14488  transferSharesBetweenInvestors(from, _owner, amount) */\n      tag_236\n        /* \"Shahzad/projects/git/ERC1404/contracts/ERC1404TokenMinKYCv12.sol\":14467:14471  from */\n      dup4\n        /* \"Shahzad/projects/git/ERC1404/contracts/ERC1404TokenMinKYCv12.sol\":14473:14479  _owner */\n      0x04\n      0x00\n      swap1\n      sload\n      swap1\n      0x0100\n      exp\n      swap1\n      div\n      0xffffffffffffffffffffffffffffffffffffffff\n      and\n        /* \"Shahzad/projects/git/ERC1404/contracts/ERC1404TokenMinKYCv12.sol\":14481:14487  amount */\n      dup5\n        /* \"Shahzad/projects/git/ERC1404/contracts/ERC1404TokenMinKYCv12.sol\":14436:14466  transferSharesBetweenInvestors */\n      tag_222\n        /* \"Shahzad/projects/git/ERC1404/contracts/ERC1404TokenMinKYCv12.sol\":14436:14488  transferSharesBetweenInvestors(from, _owner, amount) */\n      jump\t// in\n    tag_236:\n        /* \"Shahzad/projects/git/ERC1404/contracts/ERC1404TokenMinKYCv12.sol\":14499:14503  true */\n      0x01\n        /* \"Shahzad/projects/git/ERC1404/contracts/ERC1404TokenMinKYCv12.sol\":14492:14503  return true */\n      swap1\n      pop\n        /* \"Shahzad/projects/git/ERC1404/contracts/ERC1404TokenMinKYCv12.sol\":14316:14507  function forceTransferToken(... */\n      swap3\n      swap2\n      pop\n      pop\n      jump\t// out\n        /* \"Shahzad/projects/git/ERC1404/contracts/ERC1404TokenMinKYCv12.sol\":15337:15677  function mint(address account, uint256 amount) ... */\n    tag_82:\n        /* \"Shahzad/projects/git/ERC1404/contracts/ERC1404TokenMinKYCv12.sol\":15418:15422  bool */\n      0x00\n        /* \"Shahzad/projects/git/ERC1404/contracts/ERC1404TokenMinKYCv12.sol\":6592:6602  msg.sender */\n      caller\n        /* \"Shahzad/projects/git/ERC1404/contracts/ERC1404TokenMinKYCv12.sol\":6582:6602  _owner == msg.sender */\n      0xffffffffffffffffffffffffffffffffffffffff\n      and\n        /* \"Shahzad/projects/git/ERC1404/contracts/ERC1404TokenMinKYCv12.sol\":6582:6588  _owner */\n      0x04\n      0x00\n      swap1\n      sload\n      swap1\n      0x0100\n      exp\n      swap1\n      div\n      0xffffffffffffffffffffffffffffffffffffffff\n      and\n        /* \"Shahzad/projects/git/ERC1404/contracts/ERC1404TokenMinKYCv12.sol\":6582:6602  _owner == msg.sender */\n      0xffffffffffffffffffffffffffffffffffffffff\n      and\n      eq\n        /* \"Shahzad/projects/git/ERC1404/contracts/ERC1404TokenMinKYCv12.sol\":6574:6640  require(_owner == msg.sender, \"Only owner has access to function\") */\n      tag_238\n      jumpi\n      mload(0x40)\n      0x08c379a000000000000000000000000000000000000000000000000000000000\n      dup2\n      mstore\n      0x04\n      add\n      tag_239\n      swap1\n      tag_234\n      jump\t// in\n    tag_239:\n      mload(0x40)\n      dup1\n      swap2\n      sub\n      swap1\n      revert\n    tag_238:\n        /* \"Shahzad/projects/git/ERC1404/contracts/ERC1404TokenMinKYCv12.sol\":15461:15462  0 */\n      0x00\n        /* \"Shahzad/projects/git/ERC1404/contracts/ERC1404TokenMinKYCv12.sol\":15442:15463  account != address(0) */\n      0xffffffffffffffffffffffffffffffffffffffff\n      and\n        /* \"Shahzad/projects/git/ERC1404/contracts/ERC1404TokenMinKYCv12.sol\":15442:15449  account */\n      dup4\n        /* \"Shahzad/projects/git/ERC1404/contracts/ERC1404TokenMinKYCv12.sol\":15442:15463  account != address(0) */\n      0xffffffffffffffffffffffffffffffffffffffff\n      and\n      eq\n      iszero\n        /* \"Shahzad/projects/git/ERC1404/contracts/ERC1404TokenMinKYCv12.sol\":15434:15508  require(account != address(0), \"Tokens cannot be minted for address zero\") */\n      tag_241\n      jumpi\n      mload(0x40)\n      0x08c379a000000000000000000000000000000000000000000000000000000000\n      dup2\n      mstore\n      0x04\n      add\n      tag_242\n      swap1\n      tag_243\n      jump\t// in\n    tag_242:\n      mload(0x40)\n      dup1\n      swap2\n      sub\n      swap1\n      revert\n    tag_241:\n        /* \"Shahzad/projects/git/ERC1404/contracts/ERC1404TokenMinKYCv12.sol\":15549:15555  amount */\n      dup2\n        /* \"Shahzad/projects/git/ERC1404/contracts/ERC1404TokenMinKYCv12.sol\":15534:15546  _totalSupply */\n      sload(0x0a)\n        /* \"Shahzad/projects/git/ERC1404/contracts/ERC1404TokenMinKYCv12.sol\":15534:15555  _totalSupply + amount */\n      tag_244\n      swap2\n      swap1\n      tag_245\n      jump\t// in\n    tag_244:\n        /* \"Shahzad/projects/git/ERC1404/contracts/ERC1404TokenMinKYCv12.sol\":15519:15531  _totalSupply */\n      0x0a\n        /* \"Shahzad/projects/git/ERC1404/contracts/ERC1404TokenMinKYCv12.sol\":15519:15555  _totalSupply = _totalSupply + amount */\n      dup2\n      swap1\n      sstore\n      pop\n        /* \"Shahzad/projects/git/ERC1404/contracts/ERC1404TokenMinKYCv12.sol\":15607:15613  amount */\n      dup2\n        /* \"Shahzad/projects/git/ERC1404/contracts/ERC1404TokenMinKYCv12.sol\":15586:15595  _balances */\n      0x02\n        /* \"Shahzad/projects/git/ERC1404/contracts/ERC1404TokenMinKYCv12.sol\":15586:15604  _balances[account] */\n      0x00\n        /* \"Shahzad/projects/git/ERC1404/contracts/ERC1404TokenMinKYCv12.sol\":15596:15603  account */\n      dup6\n        /* \"Shahzad/projects/git/ERC1404/contracts/ERC1404TokenMinKYCv12.sol\":15586:15604  _balances[account] */\n      0xffffffffffffffffffffffffffffffffffffffff\n      and\n      0xffffffffffffffffffffffffffffffffffffffff\n      and\n      dup2\n      mstore\n      0x20\n      add\n      swap1\n      dup2\n      mstore\n      0x20\n      add\n      0x00\n      keccak256\n      sload\n        /* \"Shahzad/projects/git/ERC1404/contracts/ERC1404TokenMinKYCv12.sol\":15586:15613  _balances[account] + amount */\n      tag_246\n      swap2\n      swap1\n      tag_245\n      jump\t// in\n    tag_246:\n        /* \"Shahzad/projects/git/ERC1404/contracts/ERC1404TokenMinKYCv12.sol\":15565:15574  _balances */\n      0x02\n        /* \"Shahzad/projects/git/ERC1404/contracts/ERC1404TokenMinKYCv12.sol\":15565:15583  _balances[account] */\n      0x00\n        /* \"Shahzad/projects/git/ERC1404/contracts/ERC1404TokenMinKYCv12.sol\":15575:15582  account */\n      dup6\n        /* \"Shahzad/projects/git/ERC1404/contracts/ERC1404TokenMinKYCv12.sol\":15565:15583  _balances[account] */\n      0xffffffffffffffffffffffffffffffffffffffff\n      and\n      0xffffffffffffffffffffffffffffffffffffffff\n      and\n      dup2\n      mstore\n      0x20\n      add\n      swap1\n      dup2\n      mstore\n      0x20\n      add\n      0x00\n      keccak256\n        /* \"Shahzad/projects/git/ERC1404/contracts/ERC1404TokenMinKYCv12.sol\":15565:15613  _balances[account] = _balances[account] + amount */\n      dup2\n      swap1\n      sstore\n      pop\n        /* \"Shahzad/projects/git/ERC1404/contracts/ERC1404TokenMinKYCv12.sol\":15639:15646  account */\n      dup3\n        /* \"Shahzad/projects/git/ERC1404/contracts/ERC1404TokenMinKYCv12.sol\":15628:15655  MintTokens(account, amount) */\n      0xffffffffffffffffffffffffffffffffffffffff\n      and\n      0x7b47457f3af09e5f794b020fd74160963a808f5985883496a096d403d380c343\n        /* \"Shahzad/projects/git/ERC1404/contracts/ERC1404TokenMinKYCv12.sol\":15648:15654  amount */\n      dup4\n        /* \"Shahzad/projects/git/ERC1404/contracts/ERC1404TokenMinKYCv12.sol\":15628:15655  MintTokens(account, amount) */\n      mload(0x40)\n      tag_247\n      swap2\n      swap1\n      tag_63\n      jump\t// in\n    tag_247:\n      mload(0x40)\n      dup1\n      swap2\n      sub\n      swap1\n      log2\n        /* \"Shahzad/projects/git/ERC1404/contracts/ERC1404TokenMinKYCv12.sol\":15666:15670  true */\n      0x01\n        /* \"Shahzad/projects/git/ERC1404/contracts/ERC1404TokenMinKYCv12.sol\":15659:15670  return true */\n      swap1\n      pop\n        /* \"Shahzad/projects/git/ERC1404/contracts/ERC1404TokenMinKYCv12.sol\":15337:15677  function mint(address account, uint256 amount) ... */\n      swap3\n      swap2\n      pop\n      pop\n      jump\t// out\n        /* \"Shahzad/projects/git/ERC1404/contracts/ERC1404TokenMinKYCv12.sol\":2753:2793  uint256 public currentTotalInvestors = 0 */\n    tag_85:\n      sload(0x10)\n      dup2\n      jump\t// out\n        /* \"Shahzad/projects/git/ERC1404/contracts/ERC1404TokenMinKYCv12.sol\":5430:5618  function resetCompanyLegalDocs(... */\n    tag_90:\n        /* \"Shahzad/projects/git/ERC1404/contracts/ERC1404TokenMinKYCv12.sol\":6592:6602  msg.sender */\n      caller\n        /* \"Shahzad/projects/git/ERC1404/contracts/ERC1404TokenMinKYCv12.sol\":6582:6602  _owner == msg.sender */\n      0xffffffffffffffffffffffffffffffffffffffff\n      and\n        /* \"Shahzad/projects/git/ERC1404/contracts/ERC1404TokenMinKYCv12.sol\":6582:6588  _owner */\n      0x04\n      0x00\n      swap1\n      sload\n      swap1\n      0x0100\n      exp\n      swap1\n      div\n      0xffffffffffffffffffffffffffffffffffffffff\n      and\n        /* \"Shahzad/projects/git/ERC1404/contracts/ERC1404TokenMinKYCv12.sol\":6582:6602  _owner == msg.sender */\n      0xffffffffffffffffffffffffffffffffffffffff\n      and\n      eq\n        /* \"Shahzad/projects/git/ERC1404/contracts/ERC1404TokenMinKYCv12.sol\":6574:6640  require(_owner == msg.sender, \"Only owner has access to function\") */\n      tag_249\n      jumpi\n      mload(0x40)\n      0x08c379a000000000000000000000000000000000000000000000000000000000\n      dup2\n      mstore\n      0x04\n      add\n      tag_250\n      swap1\n      tag_234\n      jump\t// in\n    tag_250:\n      mload(0x40)\n      dup1\n      swap2\n      sub\n      swap1\n      revert\n    tag_249:\n        /* \"Shahzad/projects/git/ERC1404/contracts/ERC1404TokenMinKYCv12.sol\":5544:5561  _CompanyLegalDocs */\n      dup1\n        /* \"Shahzad/projects/git/ERC1404/contracts/ERC1404TokenMinKYCv12.sol\":5525:5541  CompanyLegalDocs */\n      0x0f\n        /* \"Shahzad/projects/git/ERC1404/contracts/ERC1404TokenMinKYCv12.sol\":5525:5561  CompanyLegalDocs = _CompanyLegalDocs */\n      swap1\n      dup1\n      mload\n      swap1\n      0x20\n      add\n      swap1\n      tag_252\n      swap3\n      swap2\n      swap1\n      tag_253\n      jump\t// in\n    tag_252:\n      pop\n        /* \"Shahzad/projects/git/ERC1404/contracts/ERC1404TokenMinKYCv12.sol\":5570:5611  CompanyLegalDocsReset (_CompanyLegalDocs) */\n      0xa555e96a9f6d83b18cbe170e5fd71ebb56fc55f86a115539e9f3038182075a50\n        /* \"Shahzad/projects/git/ERC1404/contracts/ERC1404TokenMinKYCv12.sol\":5593:5610  _CompanyLegalDocs */\n      dup2\n        /* \"Shahzad/projects/git/ERC1404/contracts/ERC1404TokenMinKYCv12.sol\":5570:5611  CompanyLegalDocsReset (_CompanyLegalDocs) */\n      mload(0x40)\n      tag_254\n      swap2\n      swap1\n      tag_49\n      jump\t// in\n    tag_254:\n      mload(0x40)\n      dup1\n      swap2\n      sub\n      swap1\n      log1\n        /* \"Shahzad/projects/git/ERC1404/contracts/ERC1404TokenMinKYCv12.sol\":5430:5618  function resetCompanyLegalDocs(... */\n      pop\n      jump\t// out\n        /* \"Shahzad/projects/git/ERC1404/contracts/ERC1404TokenMinKYCv12.sol\":2259:2288  string public version = \"1.2\" */\n    tag_92:\n      0x07\n      dup1\n      sload\n      tag_255\n      swap1\n      tag_182\n      jump\t// in\n    tag_255:\n      dup1\n      0x1f\n      add\n      0x20\n      dup1\n      swap2\n      div\n      mul\n      0x20\n      add\n      mload(0x40)\n      swap1\n      dup2\n      add\n      0x40\n      mstore\n      dup1\n      swap3\n      swap2\n      swap1\n      dup2\n      dup2\n      mstore\n      0x20\n      add\n      dup3\n      dup1\n      sload\n      tag_256\n      swap1\n      tag_182\n      jump\t// in\n    tag_256:\n      dup1\n      iszero\n      tag_257\n      jumpi\n      dup1\n      0x1f\n      lt\n      tag_258\n      jumpi\n      0x0100\n      dup1\n      dup4\n      sload\n      div\n      mul\n      dup4\n      mstore\n      swap2\n      0x20\n      add\n      swap2\n      jump(tag_257)\n    tag_258:\n      dup3\n      add\n      swap2\n      swap1\n      0x00\n      mstore\n      keccak256(0x00, 0x20)\n      swap1\n    tag_259:\n      dup2\n      sload\n      dup2\n      mstore\n      swap1\n      0x01\n      add\n      swap1\n      0x20\n      add\n      dup1\n      dup4\n      gt\n      tag_259\n      jumpi\n      dup3\n      swap1\n      sub\n      0x1f\n      and\n      dup3\n      add\n      swap2\n    tag_257:\n      pop\n      pop\n      pop\n      pop\n      pop\n      dup2\n      jump\t// out\n        /* \"Shahzad/projects/git/ERC1404/contracts/ERC1404TokenMinKYCv12.sol\":2470:2500  string public ShareCertificate */\n    tag_95:\n      0x0d\n      dup1\n      sload\n      tag_260\n      swap1\n      tag_182\n      jump\t// in\n    tag_260:\n      dup1\n      0x1f\n      add\n      0x20\n      dup1\n      swap2\n      div\n      mul\n      0x20\n      add\n      mload(0x40)\n      swap1\n      dup2\n      add\n      0x40\n      mstore\n      dup1\n      swap3\n      swap2\n      swap1\n      dup2\n      dup2\n      mstore\n      0x20\n      add\n      dup3\n      dup1\n      sload\n      tag_261\n      swap1\n      tag_182\n      jump\t// in\n    tag_261:\n      dup1\n      iszero\n      tag_262\n      jumpi\n      dup1\n      0x1f\n      lt\n      tag_263\n      jumpi\n      0x0100\n      dup1\n      dup4\n      sload\n      div\n      mul\n      dup4\n      mstore\n      swap2\n      0x20\n      add\n      swap2\n      jump(tag_262)\n    tag_263:\n      dup3\n      add\n      swap2\n      swap1\n      0x00\n      mstore\n      keccak256(0x00, 0x20)\n      swap1\n    tag_264:\n      dup2\n      sload\n      dup2\n      mstore\n      swap1\n      0x01\n      add\n      swap1\n      0x20\n      add\n      dup1\n      dup4\n      gt\n      tag_264\n      jumpi\n      dup3\n      swap1\n      sub\n      0x1f\n      and\n      dup3\n      add\n      swap2\n    tag_262:\n      pop\n      pop\n      pop\n      pop\n      pop\n      dup2\n      jump\t// out\n        /* \"Shahzad/projects/git/ERC1404/contracts/ERC1404TokenMinKYCv12.sol\":5783:6118  function resetAllowedInvestors(uint256 _allowedInvestors) ... */\n    tag_100:\n        /* \"Shahzad/projects/git/ERC1404/contracts/ERC1404TokenMinKYCv12.sol\":6592:6602  msg.sender */\n      caller\n        /* \"Shahzad/projects/git/ERC1404/contracts/ERC1404TokenMinKYCv12.sol\":6582:6602  _owner == msg.sender */\n      0xffffffffffffffffffffffffffffffffffffffff\n      and\n        /* \"Shahzad/projects/git/ERC1404/contracts/ERC1404TokenMinKYCv12.sol\":6582:6588  _owner */\n      0x04\n      0x00\n      swap1\n      sload\n      swap1\n      0x0100\n      exp\n      swap1\n      div\n      0xffffffffffffffffffffffffffffffffffffffff\n      and\n        /* \"Shahzad/projects/git/ERC1404/contracts/ERC1404TokenMinKYCv12.sol\":6582:6602  _owner == msg.sender */\n      0xffffffffffffffffffffffffffffffffffffffff\n      and\n      eq\n        /* \"Shahzad/projects/git/ERC1404/contracts/ERC1404TokenMinKYCv12.sol\":6574:6640  require(_owner == msg.sender, \"Only owner has access to function\") */\n      tag_266\n      jumpi\n      mload(0x40)\n      0x08c379a000000000000000000000000000000000000000000000000000000000\n      dup2\n      mstore\n      0x04\n      add\n      tag_267\n      swap1\n      tag_234\n      jump\t// in\n    tag_267:\n      mload(0x40)\n      dup1\n      swap2\n      sub\n      swap1\n      revert\n    tag_266:\n        /* \"Shahzad/projects/git/ERC1404/contracts/ERC1404TokenMinKYCv12.sol\":5893:5894  0 */\n      0x00\n        /* \"Shahzad/projects/git/ERC1404/contracts/ERC1404TokenMinKYCv12.sol\":5872:5889  _allowedInvestors */\n      dup2\n        /* \"Shahzad/projects/git/ERC1404/contracts/ERC1404TokenMinKYCv12.sol\":5872:5894  _allowedInvestors != 0 */\n      eq\n      iszero\n        /* \"Shahzad/projects/git/ERC1404/contracts/ERC1404TokenMinKYCv12.sol\":5872:5939  _allowedInvestors != 0 && _allowedInvestors < currentTotalInvestors */\n      dup1\n      iszero\n      tag_269\n      jumpi\n      pop\n        /* \"Shahzad/projects/git/ERC1404/contracts/ERC1404TokenMinKYCv12.sol\":5918:5939  currentTotalInvestors */\n      sload(0x10)\n        /* \"Shahzad/projects/git/ERC1404/contracts/ERC1404TokenMinKYCv12.sol\":5898:5915  _allowedInvestors */\n      dup2\n        /* \"Shahzad/projects/git/ERC1404/contracts/ERC1404TokenMinKYCv12.sol\":5898:5939  _allowedInvestors < currentTotalInvestors */\n      lt\n        /* \"Shahzad/projects/git/ERC1404/contracts/ERC1404TokenMinKYCv12.sol\":5872:5939  _allowedInvestors != 0 && _allowedInvestors < currentTotalInvestors */\n    tag_269:\n        /* \"Shahzad/projects/git/ERC1404/contracts/ERC1404TokenMinKYCv12.sol\":5868:6022  if( _allowedInvestors != 0 && _allowedInvestors < currentTotalInvestors ) {... */\n      iszero\n      tag_270\n      jumpi\n        /* \"Shahzad/projects/git/ERC1404/contracts/ERC1404TokenMinKYCv12.sol\":5947:6017  revert( \"Allowed Investors cannot be less than current token holders\") */\n      mload(0x40)\n      0x08c379a000000000000000000000000000000000000000000000000000000000\n      dup2\n      mstore\n      0x04\n      add\n      tag_271\n      swap1\n      tag_272\n      jump\t// in\n    tag_271:\n      mload(0x40)\n      dup1\n      swap2\n      sub\n      swap1\n      revert\n        /* \"Shahzad/projects/git/ERC1404/contracts/ERC1404TokenMinKYCv12.sol\":5868:6022  if( _allowedInvestors != 0 && _allowedInvestors < currentTotalInvestors ) {... */\n    tag_270:\n        /* \"Shahzad/projects/git/ERC1404/contracts/ERC1404TokenMinKYCv12.sol\":6045:6062  _allowedInvestors */\n      dup1\n        /* \"Shahzad/projects/git/ERC1404/contracts/ERC1404TokenMinKYCv12.sol\":6026:6042  allowedInvestors */\n      0x11\n        /* \"Shahzad/projects/git/ERC1404/contracts/ERC1404TokenMinKYCv12.sol\":6026:6062  allowedInvestors = _allowedInvestors */\n      dup2\n      swap1\n      sstore\n      pop\n        /* \"Shahzad/projects/git/ERC1404/contracts/ERC1404TokenMinKYCv12.sol\":6071:6111  AllowedInvestorsReset(_allowedInvestors) */\n      0x87782743094654fc1484ef46e968abc30c6cd880e70ec8b310eb42641e35eb45\n        /* \"Shahzad/projects/git/ERC1404/contracts/ERC1404TokenMinKYCv12.sol\":6093:6110  _allowedInvestors */\n      dup2\n        /* \"Shahzad/projects/git/ERC1404/contracts/ERC1404TokenMinKYCv12.sol\":6071:6111  AllowedInvestorsReset(_allowedInvestors) */\n      mload(0x40)\n      tag_273\n      swap2\n      swap1\n      tag_63\n      jump\t// in\n    tag_273:\n      mload(0x40)\n      dup1\n      swap2\n      sub\n      swap1\n      log1\n        /* \"Shahzad/projects/git/ERC1404/contracts/ERC1404TokenMinKYCv12.sol\":5783:6118  function resetAllowedInvestors(uint256 _allowedInvestors) ... */\n      pop\n      jump\t// out\n        /* \"Shahzad/projects/git/ERC1404/contracts/ERC1404TokenMinKYCv12.sol\":2838:2877  uint256 public tradingHoldingPeriod = 1 */\n    tag_102:\n      sload(0x12)\n      dup2\n      jump\t// out\n        /* \"Shahzad/projects/git/ERC1404/contracts/ERC1404TokenMinKYCv12.sol\":2798:2833  uint256 public allowedInvestors = 0 */\n    tag_105:\n      sload(0x11)\n      dup2\n      jump\t// out\n        /* \"Shahzad/projects/git/ERC1404/contracts/ERC1404TokenMinKYCv12.sol\":2291:2336  string public IssuancePlatform = \"DigiShares\" */\n    tag_108:\n      0x08\n      dup1\n      sload\n      tag_274\n      swap1\n      tag_182\n      jump\t// in\n    tag_274:\n      dup1\n      0x1f\n      add\n      0x20\n      dup1\n      swap2\n      div\n      mul\n      0x20\n      add\n      mload(0x40)\n      swap1\n      dup2\n      add\n      0x40\n      mstore\n      dup1\n      swap3\n      swap2\n      swap1\n      dup2\n      dup2\n      mstore\n      0x20\n      add\n      dup3\n      dup1\n      sload\n      tag_275\n      swap1\n      tag_182\n      jump\t// in\n    tag_275:\n      dup1\n      iszero\n      tag_276\n      jumpi\n      dup1\n      0x1f\n      lt\n      tag_277\n      jumpi\n      0x0100\n      dup1\n      dup4\n      sload\n      div\n      mul\n      dup4\n      mstore\n      swap2\n      0x20\n      add\n      swap2\n      jump(tag_276)\n    tag_277:\n      dup3\n      add\n      swap2\n      swap1\n      0x00\n      mstore\n      keccak256(0x00, 0x20)\n      swap1\n    tag_278:\n      dup2\n      sload\n      dup2\n      mstore\n      swap1\n      0x01\n      add\n      swap1\n      0x20\n      add\n      dup1\n      dup4\n      gt\n      tag_278\n      jumpi\n      dup3\n      swap1\n      sub\n      0x1f\n      and\n      dup3\n      add\n      swap2\n    tag_276:\n      pop\n      pop\n      pop\n      pop\n      pop\n      dup2\n      jump\t// out\n        /* \"Shahzad/projects/git/ERC1404/contracts/ERC1404TokenMinKYCv12.sol\":12798:12933  function balanceOf(address account) ... */\n    tag_113:\n        /* \"Shahzad/projects/git/ERC1404/contracts/ERC1404TokenMinKYCv12.sol\":12882:12889  uint256 */\n      0x00\n        /* \"Shahzad/projects/git/ERC1404/contracts/ERC1404TokenMinKYCv12.sol\":12908:12917  _balances */\n      0x02\n        /* \"Shahzad/projects/git/ERC1404/contracts/ERC1404TokenMinKYCv12.sol\":12908:12926  _balances[account] */\n      0x00\n        /* \"Shahzad/projects/git/ERC1404/contracts/ERC1404TokenMinKYCv12.sol\":12918:12925  account */\n      dup4\n        /* \"Shahzad/projects/git/ERC1404/contracts/ERC1404TokenMinKYCv12.sol\":12908:12926  _balances[account] */\n      0xffffffffffffffffffffffffffffffffffffffff\n      and\n      0xffffffffffffffffffffffffffffffffffffffff\n      and\n      dup2\n      mstore\n      0x20\n      add\n      swap1\n      dup2\n      mstore\n      0x20\n      add\n      0x00\n      keccak256\n      sload\n        /* \"Shahzad/projects/git/ERC1404/contracts/ERC1404TokenMinKYCv12.sol\":12901:12926  return _balances[account] */\n      swap1\n      pop\n        /* \"Shahzad/projects/git/ERC1404/contracts/ERC1404TokenMinKYCv12.sol\":12798:12933  function balanceOf(address account) ... */\n      swap2\n      swap1\n      pop\n      jump\t// out\n        /* \"Shahzad/projects/git/ERC1404/contracts/ERC1404TokenMinKYCv12.sol\":2339:2382  string public issuanceProtocol = \"ERC-1404\" */\n    tag_116:\n      0x09\n      dup1\n      sload\n      tag_280\n      swap1\n      tag_182\n      jump\t// in\n    tag_280:\n      dup1\n      0x1f\n      add\n      0x20\n      dup1\n      swap2\n      div\n      mul\n      0x20\n      add\n      mload(0x40)\n      swap1\n      dup2\n      add\n      0x40\n      mstore\n      dup1\n      swap3\n      swap2\n      swap1\n      dup2\n      dup2\n      mstore\n      0x20\n      add\n      dup3\n      dup1\n      sload\n      tag_281\n      swap1\n      tag_182\n      jump\t// in\n    tag_281:\n      dup1\n      iszero\n      tag_282\n      jumpi\n      dup1\n      0x1f\n      lt\n      tag_283\n      jumpi\n      0x0100\n      dup1\n      dup4\n      sload\n      div\n      mul\n      dup4\n      mstore\n      swap2\n      0x20\n      add\n      swap2\n      jump(tag_282)\n    tag_283:\n      dup3\n      add\n      swap2\n      swap1\n      0x00\n      mstore\n      keccak256(0x00, 0x20)\n      swap1\n    tag_284:\n      dup2\n      sload\n      dup2\n      mstore\n      swap1\n      0x01\n      add\n      swap1\n      0x20\n      add\n      dup1\n      dup4\n      gt\n      tag_284\n      jumpi\n      dup3\n      swap1\n      sub\n      0x1f\n      and\n      dup3\n      add\n      swap2\n    tag_282:\n      pop\n      pop\n      pop\n      pop\n      pop\n      dup2\n      jump\t// out\n        /* \"Shahzad/projects/git/ERC1404/contracts/ERC1404TokenMinKYCv12.sol\":12324:12611  function messageForTransferRestriction (uint8 restrictionCode)... */\n    tag_121:\n        /* \"Shahzad/projects/git/ERC1404/contracts/ERC1404TokenMinKYCv12.sol\":12429:12450  string memory message */\n      0x60\n        /* \"Shahzad/projects/git/ERC1404/contracts/ERC1404TokenMinKYCv12.sol\":12482:12483  7 */\n      0x07\n        /* \"Shahzad/projects/git/ERC1404/contracts/ERC1404TokenMinKYCv12.sol\":12463:12478  restrictionCode */\n      dup3\n        /* \"Shahzad/projects/git/ERC1404/contracts/ERC1404TokenMinKYCv12.sol\":12463:12483  restrictionCode <= 7 */\n      0xff\n      and\n      gt\n        /* \"Shahzad/projects/git/ERC1404/contracts/ERC1404TokenMinKYCv12.sol\":12460:12605  if(restrictionCode <= 7) {... */\n      tag_286\n      jumpi\n        /* \"Shahzad/projects/git/ERC1404/contracts/ERC1404TokenMinKYCv12.sol\":12500:12530  _messageForTransferRestriction */\n      0x13\n        /* \"Shahzad/projects/git/ERC1404/contracts/ERC1404TokenMinKYCv12.sol\":12531:12546  restrictionCode */\n      dup3\n        /* \"Shahzad/projects/git/ERC1404/contracts/ERC1404TokenMinKYCv12.sol\":12500:12547  _messageForTransferRestriction[restrictionCode] */\n      0xff\n      and\n      dup2\n      sload\n      dup2\n      lt\n      tag_287\n      jumpi\n      tag_288\n      tag_205\n      jump\t// in\n    tag_288:\n    tag_287:\n      swap1\n      0x00\n      mstore\n      keccak256(0x00, 0x20)\n      add\n        /* \"Shahzad/projects/git/ERC1404/contracts/ERC1404TokenMinKYCv12.sol\":12490:12547  message = _messageForTransferRestriction[restrictionCode] */\n      dup1\n      sload\n      tag_290\n      swap1\n      tag_182\n      jump\t// in\n    tag_290:\n      dup1\n      0x1f\n      add\n      0x20\n      dup1\n      swap2\n      div\n      mul\n      0x20\n      add\n      mload(0x40)\n      swap1\n      dup2\n      add\n      0x40\n      mstore\n      dup1\n      swap3\n      swap2\n      swap1\n      dup2\n      dup2\n      mstore\n      0x20\n      add\n      dup3\n      dup1\n      sload\n      tag_291\n      swap1\n      tag_182\n      jump\t// in\n    tag_291:\n      dup1\n      iszero\n      tag_292\n      jumpi\n      dup1\n      0x1f\n      lt\n      tag_293\n      jumpi\n      0x0100\n      dup1\n      dup4\n      sload\n      div\n      mul\n      dup4\n      mstore\n      swap2\n      0x20\n      add\n      swap2\n      jump(tag_292)\n    tag_293:\n      dup3\n      add\n      swap2\n      swap1\n      0x00\n      mstore\n      keccak256(0x00, 0x20)\n      swap1\n    tag_294:\n      dup2\n      sload\n      dup2\n      mstore\n      swap1\n      0x01\n      add\n      swap1\n      0x20\n      add\n      dup1\n      dup4\n      gt\n      tag_294\n      jumpi\n      dup3\n      swap1\n      sub\n      0x1f\n      and\n      dup3\n      add\n      swap2\n    tag_292:\n      pop\n      pop\n      pop\n      pop\n      pop\n      swap1\n      pop\n        /* \"Shahzad/projects/git/ERC1404/contracts/ERC1404TokenMinKYCv12.sol\":12460:12605  if(restrictionCode <= 7) {... */\n      jump(tag_295)\n    tag_286:\n        /* \"Shahzad/projects/git/ERC1404/contracts/ERC1404TokenMinKYCv12.sol\":12563:12600  message = \"Error code is not defined\" */\n      mload(0x40)\n      dup1\n      0x40\n      add\n      0x40\n      mstore\n      dup1\n      0x19\n      dup2\n      mstore\n      0x20\n      add\n      0x4572726f7220636f6465206973206e6f7420646566696e656400000000000000\n      dup2\n      mstore\n      pop\n      swap1\n      pop\n        /* \"Shahzad/projects/git/ERC1404/contracts/ERC1404TokenMinKYCv12.sol\":12460:12605  if(restrictionCode <= 7) {... */\n    tag_295:\n        /* \"Shahzad/projects/git/ERC1404/contracts/ERC1404TokenMinKYCv12.sol\":12324:12611  function messageForTransferRestriction (uint8 restrictionCode)... */\n      swap2\n      swap1\n      pop\n      jump\t// out\n        /* \"Shahzad/projects/git/ERC1404/contracts/ERC1404TokenMinKYCv12.sol\":2503:2532  string public CompanyHomepage */\n    tag_124:\n      0x0e\n      dup1\n      sload\n      tag_296\n      swap1\n      tag_182\n      jump\t// in\n    tag_296:\n      dup1\n      0x1f\n      add\n      0x20\n      dup1\n      swap2\n      div\n      mul\n      0x20\n      add\n      mload(0x40)\n      swap1\n      dup2\n      add\n      0x40\n      mstore\n      dup1\n      swap3\n      swap2\n      swap1\n      dup2\n      dup2\n      mstore\n      0x20\n      add\n      dup3\n      dup1\n      sload\n      tag_297\n      swap1\n      tag_182\n      jump\t// in\n    tag_297:\n      dup1\n      iszero\n      tag_298\n      jumpi\n      dup1\n      0x1f\n      lt\n      tag_299\n      jumpi\n      0x0100\n      dup1\n      dup4\n      sload\n      div\n      mul\n      dup4\n      mstore\n      swap2\n      0x20\n      add\n      swap2\n      jump(tag_298)\n    tag_299:\n      dup3\n      add\n      swap2\n      swap1\n      0x00\n      mstore\n      keccak256(0x00, 0x20)\n      swap1\n    tag_300:\n      dup2\n      sload\n      dup2\n      mstore\n      swap1\n      0x01\n      add\n      swap1\n      0x20\n      add\n      dup1\n      dup4\n      gt\n      tag_300\n      jumpi\n      dup3\n      swap1\n      sub\n      0x1f\n      and\n      dup3\n      add\n      swap2\n    tag_298:\n      pop\n      pop\n      pop\n      pop\n      pop\n      dup2\n      jump\t// out\n        /* \"Shahzad/projects/git/ERC1404/contracts/ERC1404TokenMinKYCv12.sol\":6453:6538  function owner() ... */\n    tag_127:\n        /* \"Shahzad/projects/git/ERC1404/contracts/ERC1404TokenMinKYCv12.sol\":6499:6506  address */\n      0x00\n        /* \"Shahzad/projects/git/ERC1404/contracts/ERC1404TokenMinKYCv12.sol\":6525:6531  _owner */\n      0x04\n      0x00\n      swap1\n      sload\n      swap1\n      0x0100\n      exp\n      swap1\n      div\n      0xffffffffffffffffffffffffffffffffffffffff\n      and\n        /* \"Shahzad/projects/git/ERC1404/contracts/ERC1404TokenMinKYCv12.sol\":6518:6531  return _owner */\n      swap1\n      pop\n        /* \"Shahzad/projects/git/ERC1404/contracts/ERC1404TokenMinKYCv12.sol\":6453:6538  function owner() ... */\n      swap1\n      jump\t// out\n        /* \"Shahzad/projects/git/ERC1404/contracts/ERC1404TokenMinKYCv12.sol\":2446:2466  string public symbol */\n    tag_131:\n      0x0c\n      dup1\n      sload\n      tag_302\n      swap1\n      tag_182\n      jump\t// in\n    tag_302:\n      dup1\n      0x1f\n      add\n      0x20\n      dup1\n      swap2\n      div\n      mul\n      0x20\n      add\n      mload(0x40)\n      swap1\n      dup2\n      add\n      0x40\n      mstore\n      dup1\n      swap3\n      swap2\n      swap1\n      dup2\n      dup2\n      mstore\n      0x20\n      add\n      dup3\n      dup1\n      sload\n      tag_303\n      swap1\n      tag_182\n      jump\t// in\n    tag_303:\n      dup1\n      iszero\n      tag_304\n      jumpi\n      dup1\n      0x1f\n      lt\n      tag_305\n      jumpi\n      0x0100\n      dup1\n      dup4\n      sload\n      div\n      mul\n      dup4\n      mstore\n      swap2\n      0x20\n      add\n      swap2\n      jump(tag_304)\n    tag_305:\n      dup3\n      add\n      swap2\n      swap1\n      0x00\n      mstore\n      keccak256(0x00, 0x20)\n      swap1\n    tag_306:\n      dup2\n      sload\n      dup2\n      mstore\n      swap1\n      0x01\n      add\n      swap1\n      0x20\n      add\n      dup1\n      dup4\n      gt\n      tag_306\n      jumpi\n      dup3\n      swap1\n      sub\n      0x1f\n      and\n      dup3\n      add\n      swap2\n    tag_304:\n      pop\n      pop\n      pop\n      pop\n      pop\n      dup2\n      jump\t// out\n        /* \"Shahzad/projects/git/ERC1404/contracts/ERC1404TokenMinKYCv12.sol\":15684:16033  function burn(address account, uint256 amount) ... */\n    tag_135:\n        /* \"Shahzad/projects/git/ERC1404/contracts/ERC1404TokenMinKYCv12.sol\":15764:15768  bool */\n      0x00\n        /* \"Shahzad/projects/git/ERC1404/contracts/ERC1404TokenMinKYCv12.sol\":6592:6602  msg.sender */\n      caller\n        /* \"Shahzad/projects/git/ERC1404/contracts/ERC1404TokenMinKYCv12.sol\":6582:6602  _owner == msg.sender */\n      0xffffffffffffffffffffffffffffffffffffffff\n      and\n        /* \"Shahzad/projects/git/ERC1404/contracts/ERC1404TokenMinKYCv12.sol\":6582:6588  _owner */\n      0x04\n      0x00\n      swap1\n      sload\n      swap1\n      0x0100\n      exp\n      swap1\n      div\n      0xffffffffffffffffffffffffffffffffffffffff\n      and\n        /* \"Shahzad/projects/git/ERC1404/contracts/ERC1404TokenMinKYCv12.sol\":6582:6602  _owner == msg.sender */\n      0xffffffffffffffffffffffffffffffffffffffff\n      and\n      eq\n        /* \"Shahzad/projects/git/ERC1404/contracts/ERC1404TokenMinKYCv12.sol\":6574:6640  require(_owner == msg.sender, \"Only owner has access to function\") */\n      tag_308\n      jumpi\n      mload(0x40)\n      0x08c379a000000000000000000000000000000000000000000000000000000000\n      dup2\n      mstore\n      0x04\n      add\n      tag_309\n      swap1\n      tag_234\n      jump\t// in\n    tag_309:\n      mload(0x40)\n      dup1\n      swap2\n      sub\n      swap1\n      revert\n    tag_308:\n        /* \"Shahzad/projects/git/ERC1404/contracts/ERC1404TokenMinKYCv12.sol\":15810:15816  amount */\n      dup2\n        /* \"Shahzad/projects/git/ERC1404/contracts/ERC1404TokenMinKYCv12.sol\":15788:15797  _balances */\n      0x02\n        /* \"Shahzad/projects/git/ERC1404/contracts/ERC1404TokenMinKYCv12.sol\":15788:15806  _balances[account] */\n      0x00\n        /* \"Shahzad/projects/git/ERC1404/contracts/ERC1404TokenMinKYCv12.sol\":15798:15805  account */\n      dup6\n        /* \"Shahzad/projects/git/ERC1404/contracts/ERC1404TokenMinKYCv12.sol\":15788:15806  _balances[account] */\n      0xffffffffffffffffffffffffffffffffffffffff\n      and\n      0xffffffffffffffffffffffffffffffffffffffff\n      and\n      dup2\n      mstore\n      0x20\n      add\n      swap1\n      dup2\n      mstore\n      0x20\n      add\n      0x00\n      keccak256\n      sload\n        /* \"Shahzad/projects/git/ERC1404/contracts/ERC1404TokenMinKYCv12.sol\":15788:15816  _balances[account] >= amount */\n      lt\n      iszero\n        /* \"Shahzad/projects/git/ERC1404/contracts/ERC1404TokenMinKYCv12.sol\":15780:15864  require(_balances[account] >= amount, \"Burn amount is greater than address balance\") */\n      tag_311\n      jumpi\n      mload(0x40)\n      0x08c379a000000000000000000000000000000000000000000000000000000000\n      dup2\n      mstore\n      0x04\n      add\n      tag_312\n      swap1\n      tag_313\n      jump\t// in\n    tag_312:\n      mload(0x40)\n      dup1\n      swap2\n      sub\n      swap1\n      revert\n    tag_311:\n        /* \"Shahzad/projects/git/ERC1404/contracts/ERC1404TokenMinKYCv12.sol\":15905:15911  amount */\n      dup2\n        /* \"Shahzad/projects/git/ERC1404/contracts/ERC1404TokenMinKYCv12.sol\":15890:15902  _totalSupply */\n      sload(0x0a)\n        /* \"Shahzad/projects/git/ERC1404/contracts/ERC1404TokenMinKYCv12.sol\":15890:15911  _totalSupply - amount */\n      tag_314\n      swap2\n      swap1\n      tag_224\n      jump\t// in\n    tag_314:\n        /* \"Shahzad/projects/git/ERC1404/contracts/ERC1404TokenMinKYCv12.sol\":15875:15887  _totalSupply */\n      0x0a\n        /* \"Shahzad/projects/git/ERC1404/contracts/ERC1404TokenMinKYCv12.sol\":15875:15911  _totalSupply = _totalSupply - amount */\n      dup2\n      swap1\n      sstore\n      pop\n        /* \"Shahzad/projects/git/ERC1404/contracts/ERC1404TokenMinKYCv12.sol\":15963:15969  amount */\n      dup2\n        /* \"Shahzad/projects/git/ERC1404/contracts/ERC1404TokenMinKYCv12.sol\":15942:15951  _balances */\n      0x02\n        /* \"Shahzad/projects/git/ERC1404/contracts/ERC1404TokenMinKYCv12.sol\":15942:15960  _balances[account] */\n      0x00\n        /* \"Shahzad/projects/git/ERC1404/contracts/ERC1404TokenMinKYCv12.sol\":15952:15959  account */\n      dup6\n        /* \"Shahzad/projects/git/ERC1404/contracts/ERC1404TokenMinKYCv12.sol\":15942:15960  _balances[account] */\n      0xffffffffffffffffffffffffffffffffffffffff\n      and\n      0xffffffffffffffffffffffffffffffffffffffff\n      and\n      dup2\n      mstore\n      0x20\n      add\n      swap1\n      dup2\n      mstore\n      0x20\n      add\n      0x00\n      keccak256\n      sload\n        /* \"Shahzad/projects/git/ERC1404/contracts/ERC1404TokenMinKYCv12.sol\":15942:15969  _balances[account] - amount */\n      tag_315\n      swap2\n      swap1\n      tag_224\n      jump\t// in\n    tag_315:\n        /* \"Shahzad/projects/git/ERC1404/contracts/ERC1404TokenMinKYCv12.sol\":15921:15930  _balances */\n      0x02\n        /* \"Shahzad/projects/git/ERC1404/contracts/ERC1404TokenMinKYCv12.sol\":15921:15939  _balances[account] */\n      0x00\n        /* \"Shahzad/projects/git/ERC1404/contracts/ERC1404TokenMinKYCv12.sol\":15931:15938  account */\n      dup6\n        /* \"Shahzad/projects/git/ERC1404/contracts/ERC1404TokenMinKYCv12.sol\":15921:15939  _balances[account] */\n      0xffffffffffffffffffffffffffffffffffffffff\n      and\n      0xffffffffffffffffffffffffffffffffffffffff\n      and\n      dup2\n      mstore\n      0x20\n      add\n      swap1\n      dup2\n      mstore\n      0x20\n      add\n      0x00\n      keccak256\n        /* \"Shahzad/projects/git/ERC1404/contracts/ERC1404TokenMinKYCv12.sol\":15921:15969  _balances[account] = _balances[account] - amount */\n      dup2\n      swap1\n      sstore\n      pop\n        /* \"Shahzad/projects/git/ERC1404/contracts/ERC1404TokenMinKYCv12.sol\":15995:16002  account */\n      dup3\n        /* \"Shahzad/projects/git/ERC1404/contracts/ERC1404TokenMinKYCv12.sol\":15984:16011  BurnTokens(account, amount) */\n      0xffffffffffffffffffffffffffffffffffffffff\n      and\n      0x388d6102a0230861b4e9646fb5acda1c5ec15d39df2b619d39c25d16a1268490\n        /* \"Shahzad/projects/git/ERC1404/contracts/ERC1404TokenMinKYCv12.sol\":16004:16010  amount */\n      dup4\n        /* \"Shahzad/projects/git/ERC1404/contracts/ERC1404TokenMinKYCv12.sol\":15984:16011  BurnTokens(account, amount) */\n      mload(0x40)\n      tag_316\n      swap2\n      swap1\n      tag_63\n      jump\t// in\n    tag_316:\n      mload(0x40)\n      dup1\n      swap2\n      sub\n      swap1\n      log2\n        /* \"Shahzad/projects/git/ERC1404/contracts/ERC1404TokenMinKYCv12.sol\":16022:16026  true */\n      0x01\n        /* \"Shahzad/projects/git/ERC1404/contracts/ERC1404TokenMinKYCv12.sol\":16015:16026  return true */\n      swap1\n      pop\n        /* \"Shahzad/projects/git/ERC1404/contracts/ERC1404TokenMinKYCv12.sol\":15684:16033  function burn(address account, uint256 amount) ... */\n      swap3\n      swap2\n      pop\n      pop\n      jump\t// out\n        /* \"Shahzad/projects/git/ERC1404/contracts/ERC1404TokenMinKYCv12.sol\":13474:13726  function transfer(... */\n    tag_139:\n        /* \"Shahzad/projects/git/ERC1404/contracts/ERC1404TokenMinKYCv12.sol\":13629:13633  bool */\n      0x00\n        /* \"Shahzad/projects/git/ERC1404/contracts/ERC1404TokenMinKYCv12.sol\":13588:13598  msg.sender */\n      caller\n        /* \"Shahzad/projects/git/ERC1404/contracts/ERC1404TokenMinKYCv12.sol\":13600:13609  recipient */\n      dup4\n        /* \"Shahzad/projects/git/ERC1404/contracts/ERC1404TokenMinKYCv12.sol\":13611:13617  amount */\n      dup4\n        /* \"Shahzad/projects/git/ERC1404/contracts/ERC1404TokenMinKYCv12.sol\":9410:9431  uint8 restrictionCode */\n      0x00\n        /* \"Shahzad/projects/git/ERC1404/contracts/ERC1404TokenMinKYCv12.sol\":9434:9476  detectTransferRestriction(from, to, value) */\n      tag_318\n        /* \"Shahzad/projects/git/ERC1404/contracts/ERC1404TokenMinKYCv12.sol\":9460:9464  from */\n      dup5\n        /* \"Shahzad/projects/git/ERC1404/contracts/ERC1404TokenMinKYCv12.sol\":9466:9468  to */\n      dup5\n        /* \"Shahzad/projects/git/ERC1404/contracts/ERC1404TokenMinKYCv12.sol\":9470:9475  value */\n      dup5\n        /* \"Shahzad/projects/git/ERC1404/contracts/ERC1404TokenMinKYCv12.sol\":9434:9459  detectTransferRestriction */\n      tag_163\n        /* \"Shahzad/projects/git/ERC1404/contracts/ERC1404TokenMinKYCv12.sol\":9434:9476  detectTransferRestriction(from, to, value) */\n      jump\t// in\n    tag_318:\n        /* \"Shahzad/projects/git/ERC1404/contracts/ERC1404TokenMinKYCv12.sol\":9410:9476  uint8 restrictionCode = detectTransferRestriction(from, to, value) */\n      swap1\n      pop\n        /* \"Shahzad/projects/git/ERC1404/contracts/ERC1404TokenMinKYCv12.sol\":3034:3035  0 */\n      0x00\n        /* \"Shahzad/projects/git/ERC1404/contracts/ERC1404TokenMinKYCv12.sol\":9484:9532  restrictionCode != NO_TRANSFER_RESTRICTION_FOUND */\n      0xff\n      and\n        /* \"Shahzad/projects/git/ERC1404/contracts/ERC1404TokenMinKYCv12.sol\":9484:9499  restrictionCode */\n      dup2\n        /* \"Shahzad/projects/git/ERC1404/contracts/ERC1404TokenMinKYCv12.sol\":9484:9532  restrictionCode != NO_TRANSFER_RESTRICTION_FOUND */\n      0xff\n      and\n      eq\n        /* \"Shahzad/projects/git/ERC1404/contracts/ERC1404TokenMinKYCv12.sol\":9480:9731  if( restrictionCode != NO_TRANSFER_RESTRICTION_FOUND ) {... */\n      tag_319\n      jumpi\n        /* \"Shahzad/projects/git/ERC1404/contracts/ERC1404TokenMinKYCv12.sol\":9540:9566  string memory errorMessage */\n      0x00\n        /* \"Shahzad/projects/git/ERC1404/contracts/ERC1404TokenMinKYCv12.sol\":9569:9615  messageForTransferRestriction(restrictionCode) */\n      tag_320\n        /* \"Shahzad/projects/git/ERC1404/contracts/ERC1404TokenMinKYCv12.sol\":9599:9614  restrictionCode */\n      dup3\n        /* \"Shahzad/projects/git/ERC1404/contracts/ERC1404TokenMinKYCv12.sol\":9569:9598  messageForTransferRestriction */\n      tag_121\n        /* \"Shahzad/projects/git/ERC1404/contracts/ERC1404TokenMinKYCv12.sol\":9569:9615  messageForTransferRestriction(restrictionCode) */\n      jump\t// in\n    tag_320:\n        /* \"Shahzad/projects/git/ERC1404/contracts/ERC1404TokenMinKYCv12.sol\":9540:9615  string memory errorMessage = messageForTransferRestriction(restrictionCode) */\n      swap1\n      pop\n        /* \"Shahzad/projects/git/ERC1404/contracts/ERC1404TokenMinKYCv12.sol\":9660:9662  to */\n      dup4\n        /* \"Shahzad/projects/git/ERC1404/contracts/ERC1404TokenMinKYCv12.sol\":9625:9678  TransferRestrictionDetected( from, to, errorMessage ) */\n      0xffffffffffffffffffffffffffffffffffffffff\n      and\n        /* \"Shahzad/projects/git/ERC1404/contracts/ERC1404TokenMinKYCv12.sol\":9654:9658  from */\n      dup6\n        /* \"Shahzad/projects/git/ERC1404/contracts/ERC1404TokenMinKYCv12.sol\":9625:9678  TransferRestrictionDetected( from, to, errorMessage ) */\n      0xffffffffffffffffffffffffffffffffffffffff\n      and\n      0x2fdd8c36dbe5614497208665e8d30c570421680d09984e3153829ddabd30c094\n        /* \"Shahzad/projects/git/ERC1404/contracts/ERC1404TokenMinKYCv12.sol\":9664:9676  errorMessage */\n      dup4\n        /* \"Shahzad/projects/git/ERC1404/contracts/ERC1404TokenMinKYCv12.sol\":9625:9678  TransferRestrictionDetected( from, to, errorMessage ) */\n      mload(0x40)\n      tag_321\n      swap2\n      swap1\n      tag_49\n      jump\t// in\n    tag_321:\n      mload(0x40)\n      dup1\n      swap2\n      sub\n      swap1\n      log3\n        /* \"Shahzad/projects/git/ERC1404/contracts/ERC1404TokenMinKYCv12.sol\":9696:9708  errorMessage */\n      dup1\n        /* \"Shahzad/projects/git/ERC1404/contracts/ERC1404TokenMinKYCv12.sol\":9689:9709  revert(errorMessage) */\n      mload(0x40)\n      0x08c379a000000000000000000000000000000000000000000000000000000000\n      dup2\n      mstore\n      0x04\n      add\n      tag_322\n      swap2\n      swap1\n      tag_49\n      jump\t// in\n    tag_322:\n      mload(0x40)\n      dup1\n      swap2\n      sub\n      swap1\n      revert\n        /* \"Shahzad/projects/git/ERC1404/contracts/ERC1404TokenMinKYCv12.sol\":9480:9731  if( restrictionCode != NO_TRANSFER_RESTRICTION_FOUND ) {... */\n    tag_319:\n        /* \"Shahzad/projects/git/ERC1404/contracts/ERC1404TokenMinKYCv12.sol\":13640:13704  transferSharesBetweenInvestors ( msg.sender, recipient, amount ) */\n      tag_325\n        /* \"Shahzad/projects/git/ERC1404/contracts/ERC1404TokenMinKYCv12.sol\":13673:13683  msg.sender */\n      caller\n        /* \"Shahzad/projects/git/ERC1404/contracts/ERC1404TokenMinKYCv12.sol\":13685:13694  recipient */\n      dup9\n        /* \"Shahzad/projects/git/ERC1404/contracts/ERC1404TokenMinKYCv12.sol\":13696:13702  amount */\n      dup9\n        /* \"Shahzad/projects/git/ERC1404/contracts/ERC1404TokenMinKYCv12.sol\":13640:13670  transferSharesBetweenInvestors */\n      tag_222\n        /* \"Shahzad/projects/git/ERC1404/contracts/ERC1404TokenMinKYCv12.sol\":13640:13704  transferSharesBetweenInvestors ( msg.sender, recipient, amount ) */\n      jump\t// in\n    tag_325:\n        /* \"Shahzad/projects/git/ERC1404/contracts/ERC1404TokenMinKYCv12.sol\":13715:13719  true */\n      0x01\n        /* \"Shahzad/projects/git/ERC1404/contracts/ERC1404TokenMinKYCv12.sol\":13708:13719  return true */\n      swap5\n      pop\n        /* \"Shahzad/projects/git/ERC1404/contracts/ERC1404TokenMinKYCv12.sol\":9400:9738  {... */\n      pop\n        /* \"Shahzad/projects/git/ERC1404/contracts/ERC1404TokenMinKYCv12.sol\":13474:13726  function transfer(... */\n      pop\n      pop\n      pop\n      swap3\n      swap2\n      pop\n      pop\n      jump\t// out\n        /* \"Shahzad/projects/git/ERC1404/contracts/ERC1404TokenMinKYCv12.sol\":8982:9127  function getKYCData(address user) ... */\n    tag_143:\n        /* \"Shahzad/projects/git/ERC1404/contracts/ERC1404TokenMinKYCv12.sol\":9044:9051  uint256 */\n      0x00\n        /* \"Shahzad/projects/git/ERC1404/contracts/ERC1404TokenMinKYCv12.sol\":9053:9060  uint256 */\n      dup1\n        /* \"Shahzad/projects/git/ERC1404/contracts/ERC1404TokenMinKYCv12.sol\":9075:9090  _buyRestriction */\n      0x00\n        /* \"Shahzad/projects/git/ERC1404/contracts/ERC1404TokenMinKYCv12.sol\":9075:9096  _buyRestriction[user] */\n      dup1\n        /* \"Shahzad/projects/git/ERC1404/contracts/ERC1404TokenMinKYCv12.sol\":9091:9095  user */\n      dup5\n        /* \"Shahzad/projects/git/ERC1404/contracts/ERC1404TokenMinKYCv12.sol\":9075:9096  _buyRestriction[user] */\n      0xffffffffffffffffffffffffffffffffffffffff\n      and\n      0xffffffffffffffffffffffffffffffffffffffff\n      and\n      dup2\n      mstore\n      0x20\n      add\n      swap1\n      dup2\n      mstore\n      0x20\n      add\n      0x00\n      keccak256\n      sload\n        /* \"Shahzad/projects/git/ERC1404/contracts/ERC1404TokenMinKYCv12.sol\":9099:9115  _sellRestriction */\n      0x01\n        /* \"Shahzad/projects/git/ERC1404/contracts/ERC1404TokenMinKYCv12.sol\":9099:9121  _sellRestriction[user] */\n      0x00\n        /* \"Shahzad/projects/git/ERC1404/contracts/ERC1404TokenMinKYCv12.sol\":9116:9120  user */\n      dup6\n        /* \"Shahzad/projects/git/ERC1404/contracts/ERC1404TokenMinKYCv12.sol\":9099:9121  _sellRestriction[user] */\n      0xffffffffffffffffffffffffffffffffffffffff\n      and\n      0xffffffffffffffffffffffffffffffffffffffff\n      and\n      dup2\n      mstore\n      0x20\n      add\n      swap1\n      dup2\n      mstore\n      0x20\n      add\n      0x00\n      keccak256\n      sload\n        /* \"Shahzad/projects/git/ERC1404/contracts/ERC1404TokenMinKYCv12.sol\":9067:9123  return (_buyRestriction[user] , _sellRestriction[user] ) */\n      swap2\n      pop\n      swap2\n      pop\n        /* \"Shahzad/projects/git/ERC1404/contracts/ERC1404TokenMinKYCv12.sol\":8982:9127  function getKYCData(address user) ... */\n      swap2\n      pop\n      swap2\n      jump\t// out\n        /* \"Shahzad/projects/git/ERC1404/contracts/ERC1404TokenMinKYCv12.sol\":5240:5423  function resetCompanyHomepage(... */\n    tag_148:\n        /* \"Shahzad/projects/git/ERC1404/contracts/ERC1404TokenMinKYCv12.sol\":6592:6602  msg.sender */\n      caller\n        /* \"Shahzad/projects/git/ERC1404/contracts/ERC1404TokenMinKYCv12.sol\":6582:6602  _owner == msg.sender */\n      0xffffffffffffffffffffffffffffffffffffffff\n      and\n        /* \"Shahzad/projects/git/ERC1404/contracts/ERC1404TokenMinKYCv12.sol\":6582:6588  _owner */\n      0x04\n      0x00\n      swap1\n      sload\n      swap1\n      0x0100\n      exp\n      swap1\n      div\n      0xffffffffffffffffffffffffffffffffffffffff\n      and\n        /* \"Shahzad/projects/git/ERC1404/contracts/ERC1404TokenMinKYCv12.sol\":6582:6602  _owner == msg.sender */\n      0xffffffffffffffffffffffffffffffffffffffff\n      and\n      eq\n        /* \"Shahzad/projects/git/ERC1404/contracts/ERC1404TokenMinKYCv12.sol\":6574:6640  require(_owner == msg.sender, \"Only owner has access to function\") */\n      tag_328\n      jumpi\n      mload(0x40)\n      0x08c379a000000000000000000000000000000000000000000000000000000000\n      dup2\n      mstore\n      0x04\n      add\n      tag_329\n      swap1\n      tag_234\n      jump\t// in\n    tag_329:\n      mload(0x40)\n      dup1\n      swap2\n      sub\n      swap1\n      revert\n    tag_328:\n        /* \"Shahzad/projects/git/ERC1404/contracts/ERC1404TokenMinKYCv12.sol\":5351:5367  _CompanyHomepage */\n      dup1\n        /* \"Shahzad/projects/git/ERC1404/contracts/ERC1404TokenMinKYCv12.sol\":5333:5348  CompanyHomepage */\n      0x0e\n        /* \"Shahzad/projects/git/ERC1404/contracts/ERC1404TokenMinKYCv12.sol\":5333:5367  CompanyHomepage = _CompanyHomepage */\n      swap1\n      dup1\n      mload\n      swap1\n      0x20\n      add\n      swap1\n      tag_331\n      swap3\n      swap2\n      swap1\n      tag_253\n      jump\t// in\n    tag_331:\n      pop\n        /* \"Shahzad/projects/git/ERC1404/contracts/ERC1404TokenMinKYCv12.sol\":5377:5416  CompanyHomepageReset (_CompanyHomepage) */\n      0x824a3f3055c070014bc7157744915537c646ae1a287c988d79ec124d88938e94\n        /* \"Shahzad/projects/git/ERC1404/contracts/ERC1404TokenMinKYCv12.sol\":5399:5415  _CompanyHomepage */\n      dup2\n        /* \"Shahzad/projects/git/ERC1404/contracts/ERC1404TokenMinKYCv12.sol\":5377:5416  CompanyHomepageReset (_CompanyHomepage) */\n      mload(0x40)\n      tag_332\n      swap2\n      swap1\n      tag_49\n      jump\t// in\n    tag_332:\n      mload(0x40)\n      dup1\n      swap2\n      sub\n      swap1\n      log1\n        /* \"Shahzad/projects/git/ERC1404/contracts/ERC1404TokenMinKYCv12.sol\":5240:5423  function resetCompanyHomepage(... */\n      pop\n      jump\t// out\n        /* \"Shahzad/projects/git/ERC1404/contracts/ERC1404TokenMinKYCv12.sol\":5045:5234  function resetShareCertificate(... */\n    tag_151:\n        /* \"Shahzad/projects/git/ERC1404/contracts/ERC1404TokenMinKYCv12.sol\":6592:6602  msg.sender */\n      caller\n        /* \"Shahzad/projects/git/ERC1404/contracts/ERC1404TokenMinKYCv12.sol\":6582:6602  _owner == msg.sender */\n      0xffffffffffffffffffffffffffffffffffffffff\n      and\n        /* \"Shahzad/projects/git/ERC1404/contracts/ERC1404TokenMinKYCv12.sol\":6582:6588  _owner */\n      0x04\n      0x00\n      swap1\n      sload\n      swap1\n      0x0100\n      exp\n      swap1\n      div\n      0xffffffffffffffffffffffffffffffffffffffff\n      and\n        /* \"Shahzad/projects/git/ERC1404/contracts/ERC1404TokenMinKYCv12.sol\":6582:6602  _owner == msg.sender */\n      0xffffffffffffffffffffffffffffffffffffffff\n      and\n      eq\n        /* \"Shahzad/projects/git/ERC1404/contracts/ERC1404TokenMinKYCv12.sol\":6574:6640  require(_owner == msg.sender, \"Only owner has access to function\") */\n      tag_334\n      jumpi\n      mload(0x40)\n      0x08c379a000000000000000000000000000000000000000000000000000000000\n      dup2\n      mstore\n      0x04\n      add\n      tag_335\n      swap1\n      tag_234\n      jump\t// in\n    tag_335:\n      mload(0x40)\n      dup1\n      swap2\n      sub\n      swap1\n      revert\n    tag_334:\n        /* \"Shahzad/projects/git/ERC1404/contracts/ERC1404TokenMinKYCv12.sol\":5159:5176  _ShareCertificate */\n      dup1\n        /* \"Shahzad/projects/git/ERC1404/contracts/ERC1404TokenMinKYCv12.sol\":5140:5156  ShareCertificate */\n      0x0d\n        /* \"Shahzad/projects/git/ERC1404/contracts/ERC1404TokenMinKYCv12.sol\":5140:5176  ShareCertificate = _ShareCertificate */\n      swap1\n      dup1\n      mload\n      swap1\n      0x20\n      add\n      swap1\n      tag_337\n      swap3\n      swap2\n      swap1\n      tag_253\n      jump\t// in\n    tag_337:\n      pop\n        /* \"Shahzad/projects/git/ERC1404/contracts/ERC1404TokenMinKYCv12.sol\":5186:5227  ShareCertificateReset (_ShareCertificate) */\n      0x4295968313e92c7dd40aa9c85be9b7246ff59503751e11205c85795a2f74fdb3\n        /* \"Shahzad/projects/git/ERC1404/contracts/ERC1404TokenMinKYCv12.sol\":5209:5226  _ShareCertificate */\n      dup2\n        /* \"Shahzad/projects/git/ERC1404/contracts/ERC1404TokenMinKYCv12.sol\":5186:5227  ShareCertificateReset (_ShareCertificate) */\n      mload(0x40)\n      tag_338\n      swap2\n      swap1\n      tag_49\n      jump\t// in\n    tag_338:\n      mload(0x40)\n      dup1\n      swap2\n      sub\n      swap1\n      log1\n        /* \"Shahzad/projects/git/ERC1404/contracts/ERC1404TokenMinKYCv12.sol\":5045:5234  function resetShareCertificate(... */\n      pop\n      jump\t// out\n        /* \"Shahzad/projects/git/ERC1404/contracts/ERC1404TokenMinKYCv12.sol\":2535:2565  string public CompanyLegalDocs */\n    tag_153:\n      0x0f\n      dup1\n      sload\n      tag_339\n      swap1\n      tag_182\n      jump\t// in\n    tag_339:\n      dup1\n      0x1f\n      add\n      0x20\n      dup1\n      swap2\n      div\n      mul\n      0x20\n      add\n      mload(0x40)\n      swap1\n      dup2\n      add\n      0x40\n      mstore\n      dup1\n      swap3\n      swap2\n      swap1\n      dup2\n      dup2\n      mstore\n      0x20\n      add\n      dup3\n      dup1\n      sload\n      tag_340\n      swap1\n      tag_182\n      jump\t// in\n    tag_340:\n      dup1\n      iszero\n      tag_341\n      jumpi\n      dup1\n      0x1f\n      lt\n      tag_342\n      jumpi\n      0x0100\n      dup1\n      dup4\n      sload\n      div\n      mul\n      dup4\n      mstore\n      swap2\n      0x20\n      add\n      swap2\n      jump(tag_341)\n    tag_342:\n      dup3\n      add\n      swap2\n      swap1\n      0x00\n      mstore\n      keccak256(0x00, 0x20)\n      swap1\n    tag_343:\n      dup2\n      sload\n      dup2\n      mstore\n      swap1\n      0x01\n      add\n      swap1\n      0x20\n      add\n      dup1\n      dup4\n      gt\n      tag_343\n      jumpi\n      dup3\n      swap1\n      sub\n      0x1f\n      and\n      dup3\n      add\n      swap2\n    tag_341:\n      pop\n      pop\n      pop\n      pop\n      pop\n      dup2\n      jump\t// out\n        /* \"Shahzad/projects/git/ERC1404/contracts/ERC1404TokenMinKYCv12.sol\":6125:6319  function setTradingHoldingPeriod(uint256 _tradingHoldingPeriod) ... */\n    tag_157:\n        /* \"Shahzad/projects/git/ERC1404/contracts/ERC1404TokenMinKYCv12.sol\":6592:6602  msg.sender */\n      caller\n        /* \"Shahzad/projects/git/ERC1404/contracts/ERC1404TokenMinKYCv12.sol\":6582:6602  _owner == msg.sender */\n      0xffffffffffffffffffffffffffffffffffffffff\n      and\n        /* \"Shahzad/projects/git/ERC1404/contracts/ERC1404TokenMinKYCv12.sol\":6582:6588  _owner */\n      0x04\n      0x00\n      swap1\n      sload\n      swap1\n      0x0100\n      exp\n      swap1\n      div\n      0xffffffffffffffffffffffffffffffffffffffff\n      and\n        /* \"Shahzad/projects/git/ERC1404/contracts/ERC1404TokenMinKYCv12.sol\":6582:6602  _owner == msg.sender */\n      0xffffffffffffffffffffffffffffffffffffffff\n      and\n      eq\n        /* \"Shahzad/projects/git/ERC1404/contracts/ERC1404TokenMinKYCv12.sol\":6574:6640  require(_owner == msg.sender, \"Only owner has access to function\") */\n      tag_345\n      jumpi\n      mload(0x40)\n      0x08c379a000000000000000000000000000000000000000000000000000000000\n      dup2\n      mstore\n      0x04\n      add\n      tag_346\n      swap1\n      tag_234\n      jump\t// in\n    tag_346:\n      mload(0x40)\n      dup1\n      swap2\n      sub\n      swap1\n      revert\n    tag_345:\n        /* \"Shahzad/projects/git/ERC1404/contracts/ERC1404TokenMinKYCv12.sol\":6240:6261  _tradingHoldingPeriod */\n      dup1\n        /* \"Shahzad/projects/git/ERC1404/contracts/ERC1404TokenMinKYCv12.sol\":6217:6237  tradingHoldingPeriod */\n      0x12\n        /* \"Shahzad/projects/git/ERC1404/contracts/ERC1404TokenMinKYCv12.sol\":6217:6261  tradingHoldingPeriod = _tradingHoldingPeriod */\n      dup2\n      swap1\n      sstore\n      pop\n        /* \"Shahzad/projects/git/ERC1404/contracts/ERC1404TokenMinKYCv12.sol\":6271:6312  HoldingPeriodReset(_tradingHoldingPeriod) */\n      0x050293e6952eab2f7cf401de4a51c1918da86a2bd5a7276a11ae3dd4a549cde9\n        /* \"Shahzad/projects/git/ERC1404/contracts/ERC1404TokenMinKYCv12.sol\":6290:6311  _tradingHoldingPeriod */\n      dup2\n        /* \"Shahzad/projects/git/ERC1404/contracts/ERC1404TokenMinKYCv12.sol\":6271:6312  HoldingPeriodReset(_tradingHoldingPeriod) */\n      mload(0x40)\n      tag_348\n      swap2\n      swap1\n      tag_63\n      jump\t// in\n    tag_348:\n      mload(0x40)\n      dup1\n      swap2\n      sub\n      swap1\n      log1\n        /* \"Shahzad/projects/git/ERC1404/contracts/ERC1404TokenMinKYCv12.sol\":6125:6319  function setTradingHoldingPeriod(uint256 _tradingHoldingPeriod) ... */\n      pop\n      jump\t// out\n        /* \"Shahzad/projects/git/ERC1404/contracts/ERC1404TokenMinKYCv12.sol\":7051:7213  function setWhitelistAuthorityStatus(address user)... */\n    tag_160:\n        /* \"Shahzad/projects/git/ERC1404/contracts/ERC1404TokenMinKYCv12.sol\":6592:6602  msg.sender */\n      caller\n        /* \"Shahzad/projects/git/ERC1404/contracts/ERC1404TokenMinKYCv12.sol\":6582:6602  _owner == msg.sender */\n      0xffffffffffffffffffffffffffffffffffffffff\n      and\n        /* \"Shahzad/projects/git/ERC1404/contracts/ERC1404TokenMinKYCv12.sol\":6582:6588  _owner */\n      0x04\n      0x00\n      swap1\n      sload\n      swap1\n      0x0100\n      exp\n      swap1\n      div\n      0xffffffffffffffffffffffffffffffffffffffff\n      and\n        /* \"Shahzad/projects/git/ERC1404/contracts/ERC1404TokenMinKYCv12.sol\":6582:6602  _owner == msg.sender */\n      0xffffffffffffffffffffffffffffffffffffffff\n      and\n      eq\n        /* \"Shahzad/projects/git/ERC1404/contracts/ERC1404TokenMinKYCv12.sol\":6574:6640  require(_owner == msg.sender, \"Only owner has access to function\") */\n      tag_350\n      jumpi\n      mload(0x40)\n      0x08c379a000000000000000000000000000000000000000000000000000000000\n      dup2\n      mstore\n      0x04\n      add\n      tag_351\n      swap1\n      tag_234\n      jump\t// in\n    tag_351:\n      mload(0x40)\n      dup1\n      swap2\n      sub\n      swap1\n      revert\n    tag_350:\n        /* \"Shahzad/projects/git/ERC1404/contracts/ERC1404TokenMinKYCv12.sol\":7163:7167  true */\n      0x01\n        /* \"Shahzad/projects/git/ERC1404/contracts/ERC1404TokenMinKYCv12.sol\":7128:7154  _whitelistControlAuthority */\n      0x05\n        /* \"Shahzad/projects/git/ERC1404/contracts/ERC1404TokenMinKYCv12.sol\":7128:7160  _whitelistControlAuthority[user] */\n      0x00\n        /* \"Shahzad/projects/git/ERC1404/contracts/ERC1404TokenMinKYCv12.sol\":7155:7159  user */\n      dup4\n        /* \"Shahzad/projects/git/ERC1404/contracts/ERC1404TokenMinKYCv12.sol\":7128:7160  _whitelistControlAuthority[user] */\n      0xffffffffffffffffffffffffffffffffffffffff\n      and\n      0xffffffffffffffffffffffffffffffffffffffff\n      and\n      dup2\n      mstore\n      0x20\n      add\n      swap1\n      dup2\n      mstore\n      0x20\n      add\n      0x00\n      keccak256\n      0x00\n        /* \"Shahzad/projects/git/ERC1404/contracts/ERC1404TokenMinKYCv12.sol\":7128:7167  _whitelistControlAuthority[user] = true */\n      0x0100\n      exp\n      dup2\n      sload\n      dup2\n      0xff\n      mul\n      not\n      and\n      swap1\n      dup4\n      iszero\n      iszero\n      mul\n      or\n      swap1\n      sstore\n      pop\n        /* \"Shahzad/projects/git/ERC1404/contracts/ERC1404TokenMinKYCv12.sol\":7176:7209  WhitelistAuthorityStatusSet(user) */\n      0xea54bdb8a4594aaac063e3b01ab3e613bf4cb045d085502c81497c9696aca8b2\n        /* \"Shahzad/projects/git/ERC1404/contracts/ERC1404TokenMinKYCv12.sol\":7204:7208  user */\n      dup2\n        /* \"Shahzad/projects/git/ERC1404/contracts/ERC1404TokenMinKYCv12.sol\":7176:7209  WhitelistAuthorityStatusSet(user) */\n      mload(0x40)\n      tag_353\n      swap2\n      swap1\n      tag_129\n      jump\t// in\n    tag_353:\n      mload(0x40)\n      dup1\n      swap2\n      sub\n      swap1\n      log1\n        /* \"Shahzad/projects/git/ERC1404/contracts/ERC1404TokenMinKYCv12.sol\":7051:7213  function setWhitelistAuthorityStatus(address user)... */\n      pop\n      jump\t// out\n        /* \"Shahzad/projects/git/ERC1404/contracts/ERC1404TokenMinKYCv12.sol\":9746:12317  function detectTransferRestriction (address _from, address _to, uint256 value) ... */\n    tag_163:\n        /* \"Shahzad/projects/git/ERC1404/contracts/ERC1404TokenMinKYCv12.sol\":9862:9874  uint8 status */\n      0x00\n        /* \"Shahzad/projects/git/ERC1404/contracts/ERC1404TokenMinKYCv12.sol\":10064:10084  tradingHoldingPeriod */\n      sload(0x12)\n        /* \"Shahzad/projects/git/ERC1404/contracts/ERC1404TokenMinKYCv12.sol\":10046:10061  block.timestamp */\n      timestamp\n        /* \"Shahzad/projects/git/ERC1404/contracts/ERC1404TokenMinKYCv12.sol\":10046:10084  block.timestamp < tradingHoldingPeriod */\n      lt\n        /* \"Shahzad/projects/git/ERC1404/contracts/ERC1404TokenMinKYCv12.sol\":10046:10103  block.timestamp < tradingHoldingPeriod && _from != _owner */\n      dup1\n      iszero\n      tag_355\n      jumpi\n      pop\n        /* \"Shahzad/projects/git/ERC1404/contracts/ERC1404TokenMinKYCv12.sol\":10097:10103  _owner */\n      0x04\n      0x00\n      swap1\n      sload\n      swap1\n      0x0100\n      exp\n      swap1\n      div\n      0xffffffffffffffffffffffffffffffffffffffff\n      and\n        /* \"Shahzad/projects/git/ERC1404/contracts/ERC1404TokenMinKYCv12.sol\":10088:10103  _from != _owner */\n      0xffffffffffffffffffffffffffffffffffffffff\n      and\n        /* \"Shahzad/projects/git/ERC1404/contracts/ERC1404TokenMinKYCv12.sol\":10088:10093  _from */\n      dup5\n        /* \"Shahzad/projects/git/ERC1404/contracts/ERC1404TokenMinKYCv12.sol\":10088:10103  _from != _owner */\n      0xffffffffffffffffffffffffffffffffffffffff\n      and\n      eq\n      iszero\n        /* \"Shahzad/projects/git/ERC1404/contracts/ERC1404TokenMinKYCv12.sol\":10046:10103  block.timestamp < tradingHoldingPeriod && _from != _owner */\n    tag_355:\n        /* \"Shahzad/projects/git/ERC1404/contracts/ERC1404TokenMinKYCv12.sol\":10043:10135  if(block.timestamp < tradingHoldingPeriod && _from != _owner)... */\n      iszero\n      tag_356\n      jumpi\n        /* \"Shahzad/projects/git/ERC1404/contracts/ERC1404TokenMinKYCv12.sol\":3140:3141  2 */\n      0x02\n        /* \"Shahzad/projects/git/ERC1404/contracts/ERC1404TokenMinKYCv12.sol\":10110:10135  return TRANSFERS_DISABLED */\n      swap1\n      pop\n      jump(tag_354)\n        /* \"Shahzad/projects/git/ERC1404/contracts/ERC1404TokenMinKYCv12.sol\":10043:10135  if(block.timestamp < tradingHoldingPeriod && _from != _owner)... */\n    tag_356:\n        /* \"Shahzad/projects/git/ERC1404/contracts/ERC1404TokenMinKYCv12.sol\":10159:10160  0 */\n      0x00\n        /* \"Shahzad/projects/git/ERC1404/contracts/ERC1404TokenMinKYCv12.sol\":10150:10155  value */\n      dup3\n        /* \"Shahzad/projects/git/ERC1404/contracts/ERC1404TokenMinKYCv12.sol\":10150:10160  value <= 0 */\n      gt\n        /* \"Shahzad/projects/git/ERC1404/contracts/ERC1404TokenMinKYCv12.sol\":10146:10214  if( value <= 0) {... */\n      tag_357\n      jumpi\n        /* \"Shahzad/projects/git/ERC1404/contracts/ERC1404TokenMinKYCv12.sol\":3196:3197  3 */\n      0x03\n        /* \"Shahzad/projects/git/ERC1404/contracts/ERC1404TokenMinKYCv12.sol\":10172:10205  return TRANSFER_VALUE_CANNOT_ZERO */\n      swap1\n      pop\n      jump(tag_354)\n        /* \"Shahzad/projects/git/ERC1404/contracts/ERC1404TokenMinKYCv12.sol\":10146:10214  if( value <= 0) {... */\n    tag_357:\n        /* \"Shahzad/projects/git/ERC1404/contracts/ERC1404TokenMinKYCv12.sol\":10252:10253  0 */\n      0x00\n        /* \"Shahzad/projects/git/ERC1404/contracts/ERC1404TokenMinKYCv12.sol\":10225:10241  _sellRestriction */\n      0x01\n        /* \"Shahzad/projects/git/ERC1404/contracts/ERC1404TokenMinKYCv12.sol\":10225:10248  _sellRestriction[_from] */\n      0x00\n        /* \"Shahzad/projects/git/ERC1404/contracts/ERC1404TokenMinKYCv12.sol\":10242:10247  _from */\n      dup7\n        /* \"Shahzad/projects/git/ERC1404/contracts/ERC1404TokenMinKYCv12.sol\":10225:10248  _sellRestriction[_from] */\n      0xffffffffffffffffffffffffffffffffffffffff\n      and\n      0xffffffffffffffffffffffffffffffffffffffff\n      and\n      dup2\n      mstore\n      0x20\n      add\n      swap1\n      dup2\n      mstore\n      0x20\n      add\n      0x00\n      keccak256\n      sload\n        /* \"Shahzad/projects/git/ERC1404/contracts/ERC1404TokenMinKYCv12.sol\":10225:10253  _sellRestriction[_from] == 0 */\n      eq\n        /* \"Shahzad/projects/git/ERC1404/contracts/ERC1404TokenMinKYCv12.sol\":10221:10350  if( _sellRestriction[_from] == 0 ) {... */\n      iszero\n      tag_358\n      jumpi\n        /* \"Shahzad/projects/git/ERC1404/contracts/ERC1404TokenMinKYCv12.sol\":3259:3260  4 */\n      0x04\n        /* \"Shahzad/projects/git/ERC1404/contracts/ERC1404TokenMinKYCv12.sol\":10262:10302  return SENDER_NOT_WHITELISTED_OR_BLOCKED */\n      swap1\n      pop\n      jump(tag_354)\n        /* \"Shahzad/projects/git/ERC1404/contracts/ERC1404TokenMinKYCv12.sol\":10221:10350  if( _sellRestriction[_from] == 0 ) {... */\n    tag_358:\n        /* \"Shahzad/projects/git/ERC1404/contracts/ERC1404TokenMinKYCv12.sol\":10385:10386  0 */\n      0x00\n        /* \"Shahzad/projects/git/ERC1404/contracts/ERC1404TokenMinKYCv12.sol\":10361:10376  _buyRestriction */\n      dup1\n        /* \"Shahzad/projects/git/ERC1404/contracts/ERC1404TokenMinKYCv12.sol\":10361:10381  _buyRestriction[_to] */\n      0x00\n        /* \"Shahzad/projects/git/ERC1404/contracts/ERC1404TokenMinKYCv12.sol\":10377:10380  _to */\n      dup6\n        /* \"Shahzad/projects/git/ERC1404/contracts/ERC1404TokenMinKYCv12.sol\":10361:10381  _buyRestriction[_to] */\n      0xffffffffffffffffffffffffffffffffffffffff\n      and\n      0xffffffffffffffffffffffffffffffffffffffff\n      and\n      dup2\n      mstore\n      0x20\n      add\n      swap1\n      dup2\n      mstore\n      0x20\n      add\n      0x00\n      keccak256\n      sload\n        /* \"Shahzad/projects/git/ERC1404/contracts/ERC1404TokenMinKYCv12.sol\":10361:10386  _buyRestriction[_to] == 0 */\n      eq\n        /* \"Shahzad/projects/git/ERC1404/contracts/ERC1404TokenMinKYCv12.sol\":10357:10485  if( _buyRestriction[_to] == 0 ) {... */\n      iszero\n      tag_359\n      jumpi\n        /* \"Shahzad/projects/git/ERC1404/contracts/ERC1404TokenMinKYCv12.sol\":3324:3325  5 */\n      0x05\n        /* \"Shahzad/projects/git/ERC1404/contracts/ERC1404TokenMinKYCv12.sol\":10395:10437  return RECEIVER_NOT_WHITELISTED_OR_BLOCKED */\n      swap1\n      pop\n      jump(tag_354)\n        /* \"Shahzad/projects/git/ERC1404/contracts/ERC1404TokenMinKYCv12.sol\":10357:10485  if( _buyRestriction[_to] == 0 ) {... */\n    tag_359:\n        /* \"Shahzad/projects/git/ERC1404/contracts/ERC1404TokenMinKYCv12.sol\":10520:10535  block.timestamp */\n      timestamp\n        /* \"Shahzad/projects/git/ERC1404/contracts/ERC1404TokenMinKYCv12.sol\":10494:10510  _sellRestriction */\n      0x01\n        /* \"Shahzad/projects/git/ERC1404/contracts/ERC1404TokenMinKYCv12.sol\":10494:10517  _sellRestriction[_from] */\n      0x00\n        /* \"Shahzad/projects/git/ERC1404/contracts/ERC1404TokenMinKYCv12.sol\":10511:10516  _from */\n      dup7\n        /* \"Shahzad/projects/git/ERC1404/contracts/ERC1404TokenMinKYCv12.sol\":10494:10517  _sellRestriction[_from] */\n      0xffffffffffffffffffffffffffffffffffffffff\n      and\n      0xffffffffffffffffffffffffffffffffffffffff\n      and\n      dup2\n      mstore\n      0x20\n      add\n      swap1\n      dup2\n      mstore\n      0x20\n      add\n      0x00\n      keccak256\n      sload\n        /* \"Shahzad/projects/git/ERC1404/contracts/ERC1404TokenMinKYCv12.sol\":10494:10535  _sellRestriction[_from] > block.timestamp */\n      gt\n        /* \"Shahzad/projects/git/ERC1404/contracts/ERC1404TokenMinKYCv12.sol\":10490:10700  if( _sellRestriction[_from] > block.timestamp ) {... */\n      iszero\n      tag_360\n      jumpi\n        /* \"Shahzad/projects/git/ERC1404/contracts/ERC1404TokenMinKYCv12.sol\":3381:3382  6 */\n      0x06\n        /* \"Shahzad/projects/git/ERC1404/contracts/ERC1404TokenMinKYCv12.sol\":10544:10578  return SENDER_UNDER_HOLDING_PERIOD */\n      swap1\n      pop\n      jump(tag_354)\n        /* \"Shahzad/projects/git/ERC1404/contracts/ERC1404TokenMinKYCv12.sol\":10490:10700  if( _sellRestriction[_from] > block.timestamp ) {... */\n    tag_360:\n        /* \"Shahzad/projects/git/ERC1404/contracts/ERC1404TokenMinKYCv12.sol\":10732:10747  block.timestamp */\n      timestamp\n        /* \"Shahzad/projects/git/ERC1404/contracts/ERC1404TokenMinKYCv12.sol\":10709:10724  _buyRestriction */\n      0x00\n        /* \"Shahzad/projects/git/ERC1404/contracts/ERC1404TokenMinKYCv12.sol\":10709:10729  _buyRestriction[_to] */\n      dup1\n        /* \"Shahzad/projects/git/ERC1404/contracts/ERC1404TokenMinKYCv12.sol\":10725:10728  _to */\n      dup6\n        /* \"Shahzad/projects/git/ERC1404/contracts/ERC1404TokenMinKYCv12.sol\":10709:10729  _buyRestriction[_to] */\n      0xffffffffffffffffffffffffffffffffffffffff\n      and\n      0xffffffffffffffffffffffffffffffffffffffff\n      and\n      dup2\n      mstore\n      0x20\n      add\n      swap1\n      dup2\n      mstore\n      0x20\n      add\n      0x00\n      keccak256\n      sload\n        /* \"Shahzad/projects/git/ERC1404/contracts/ERC1404TokenMinKYCv12.sol\":10709:10747  _buyRestriction[_to] > block.timestamp */\n      gt\n        /* \"Shahzad/projects/git/ERC1404/contracts/ERC1404TokenMinKYCv12.sol\":10705:10904  if( _buyRestriction[_to] > block.timestamp ) {... */\n      iszero\n      tag_361\n      jumpi\n        /* \"Shahzad/projects/git/ERC1404/contracts/ERC1404TokenMinKYCv12.sol\":3440:3441  7 */\n      0x07\n        /* \"Shahzad/projects/git/ERC1404/contracts/ERC1404TokenMinKYCv12.sol\":10756:10792  return RECEIVER_UNDER_HOLDING_PERIOD */\n      swap1\n      pop\n      jump(tag_354)\n        /* \"Shahzad/projects/git/ERC1404/contracts/ERC1404TokenMinKYCv12.sol\":10705:10904  if( _buyRestriction[_to] > block.timestamp ) {... */\n    tag_361:\n        /* \"Shahzad/projects/git/ERC1404/contracts/ERC1404TokenMinKYCv12.sol\":11126:11127  0 */\n      0x00\n        /* \"Shahzad/projects/git/ERC1404/contracts/ERC1404TokenMinKYCv12.sol\":11106:11122  allowedInvestors */\n      sload(0x11)\n        /* \"Shahzad/projects/git/ERC1404/contracts/ERC1404TokenMinKYCv12.sol\":11106:11127  allowedInvestors == 0 */\n      eq\n        /* \"Shahzad/projects/git/ERC1404/contracts/ERC1404TokenMinKYCv12.sol\":11103:12311  if(allowedInvestors == 0) {... */\n      iszero\n      tag_362\n      jumpi\n        /* \"Shahzad/projects/git/ERC1404/contracts/ERC1404TokenMinKYCv12.sol\":3034:3035  0 */\n      0x00\n        /* \"Shahzad/projects/git/ERC1404/contracts/ERC1404TokenMinKYCv12.sol\":11135:11171  return NO_TRANSFER_RESTRICTION_FOUND */\n      swap1\n      pop\n      jump(tag_354)\n        /* \"Shahzad/projects/git/ERC1404/contracts/ERC1404TokenMinKYCv12.sol\":11103:12311  if(allowedInvestors == 0) {... */\n    tag_362:\n        /* \"Shahzad/projects/git/ERC1404/contracts/ERC1404TokenMinKYCv12.sol\":11210:11211  0 */\n      0x00\n        /* \"Shahzad/projects/git/ERC1404/contracts/ERC1404TokenMinKYCv12.sol\":11193:11202  _balances */\n      0x02\n        /* \"Shahzad/projects/git/ERC1404/contracts/ERC1404TokenMinKYCv12.sol\":11193:11207  _balances[_to] */\n      0x00\n        /* \"Shahzad/projects/git/ERC1404/contracts/ERC1404TokenMinKYCv12.sol\":11203:11206  _to */\n      dup6\n        /* \"Shahzad/projects/git/ERC1404/contracts/ERC1404TokenMinKYCv12.sol\":11193:11207  _balances[_to] */\n      0xffffffffffffffffffffffffffffffffffffffff\n      and\n      0xffffffffffffffffffffffffffffffffffffffff\n      and\n      dup2\n      mstore\n      0x20\n      add\n      swap1\n      dup2\n      mstore\n      0x20\n      add\n      0x00\n      keccak256\n      sload\n        /* \"Shahzad/projects/git/ERC1404/contracts/ERC1404TokenMinKYCv12.sol\":11193:11211  _balances[_to] > 0 */\n      gt\n        /* \"Shahzad/projects/git/ERC1404/contracts/ERC1404TokenMinKYCv12.sol\":11193:11228  _balances[_to] > 0 || _to == _owner */\n      dup1\n      tag_364\n      jumpi\n      pop\n        /* \"Shahzad/projects/git/ERC1404/contracts/ERC1404TokenMinKYCv12.sol\":11222:11228  _owner */\n      0x04\n      0x00\n      swap1\n      sload\n      swap1\n      0x0100\n      exp\n      swap1\n      div\n      0xffffffffffffffffffffffffffffffffffffffff\n      and\n        /* \"Shahzad/projects/git/ERC1404/contracts/ERC1404TokenMinKYCv12.sol\":11215:11228  _to == _owner */\n      0xffffffffffffffffffffffffffffffffffffffff\n      and\n        /* \"Shahzad/projects/git/ERC1404/contracts/ERC1404TokenMinKYCv12.sol\":11215:11218  _to */\n      dup4\n        /* \"Shahzad/projects/git/ERC1404/contracts/ERC1404TokenMinKYCv12.sol\":11215:11228  _to == _owner */\n      0xffffffffffffffffffffffffffffffffffffffff\n      and\n      eq\n        /* \"Shahzad/projects/git/ERC1404/contracts/ERC1404TokenMinKYCv12.sol\":11193:11228  _balances[_to] > 0 || _to == _owner */\n    tag_364:\n        /* \"Shahzad/projects/git/ERC1404/contracts/ERC1404TokenMinKYCv12.sol\":11189:12306  if( _balances[_to] > 0 || _to == _owner) {... */\n      iszero\n      tag_365\n      jumpi\n        /* \"Shahzad/projects/git/ERC1404/contracts/ERC1404TokenMinKYCv12.sol\":3034:3035  0 */\n      0x00\n        /* \"Shahzad/projects/git/ERC1404/contracts/ERC1404TokenMinKYCv12.sol\":11445:11481  return NO_TRANSFER_RESTRICTION_FOUND */\n      swap1\n      pop\n      jump(tag_354)\n        /* \"Shahzad/projects/git/ERC1404/contracts/ERC1404TokenMinKYCv12.sol\":11189:12306  if( _balances[_to] > 0 || _to == _owner) {... */\n    tag_365:\n        /* \"Shahzad/projects/git/ERC1404/contracts/ERC1404TokenMinKYCv12.sol\":11530:11546  allowedInvestors */\n      sload(0x11)\n        /* \"Shahzad/projects/git/ERC1404/contracts/ERC1404TokenMinKYCv12.sol\":11506:11527  currentTotalInvestors */\n      sload(0x10)\n        /* \"Shahzad/projects/git/ERC1404/contracts/ERC1404TokenMinKYCv12.sol\":11506:11546  currentTotalInvestors < allowedInvestors */\n      lt\n        /* \"Shahzad/projects/git/ERC1404/contracts/ERC1404TokenMinKYCv12.sol\":11501:12300  if(  currentTotalInvestors < allowedInvestors  ) {... */\n      iszero\n      tag_367\n      jumpi\n        /* \"Shahzad/projects/git/ERC1404/contracts/ERC1404TokenMinKYCv12.sol\":3034:3035  0 */\n      0x00\n        /* \"Shahzad/projects/git/ERC1404/contracts/ERC1404TokenMinKYCv12.sol\":11626:11662  return NO_TRANSFER_RESTRICTION_FOUND */\n      swap1\n      pop\n      jump(tag_354)\n        /* \"Shahzad/projects/git/ERC1404/contracts/ERC1404TokenMinKYCv12.sol\":11501:12300  if(  currentTotalInvestors < allowedInvestors  ) {... */\n    tag_367:\n        /* \"Shahzad/projects/git/ERC1404/contracts/ERC1404TokenMinKYCv12.sol\":12164:12169  value */\n      dup2\n        /* \"Shahzad/projects/git/ERC1404/contracts/ERC1404TokenMinKYCv12.sol\":12144:12153  _balances */\n      0x02\n        /* \"Shahzad/projects/git/ERC1404/contracts/ERC1404TokenMinKYCv12.sol\":12144:12160  _balances[_from] */\n      0x00\n        /* \"Shahzad/projects/git/ERC1404/contracts/ERC1404TokenMinKYCv12.sol\":12154:12159  _from */\n      dup7\n        /* \"Shahzad/projects/git/ERC1404/contracts/ERC1404TokenMinKYCv12.sol\":12144:12160  _balances[_from] */\n      0xffffffffffffffffffffffffffffffffffffffff\n      and\n      0xffffffffffffffffffffffffffffffffffffffff\n      and\n      dup2\n      mstore\n      0x20\n      add\n      swap1\n      dup2\n      mstore\n      0x20\n      add\n      0x00\n      keccak256\n      sload\n        /* \"Shahzad/projects/git/ERC1404/contracts/ERC1404TokenMinKYCv12.sol\":12144:12169  _balances[_from] == value */\n      eq\n        /* \"Shahzad/projects/git/ERC1404/contracts/ERC1404TokenMinKYCv12.sol\":12144:12188  _balances[_from] == value && _from != _owner */\n      dup1\n      iszero\n      tag_369\n      jumpi\n      pop\n        /* \"Shahzad/projects/git/ERC1404/contracts/ERC1404TokenMinKYCv12.sol\":12182:12188  _owner */\n      0x04\n      0x00\n      swap1\n      sload\n      swap1\n      0x0100\n      exp\n      swap1\n      div\n      0xffffffffffffffffffffffffffffffffffffffff\n      and\n        /* \"Shahzad/projects/git/ERC1404/contracts/ERC1404TokenMinKYCv12.sol\":12173:12188  _from != _owner */\n      0xffffffffffffffffffffffffffffffffffffffff\n      and\n        /* \"Shahzad/projects/git/ERC1404/contracts/ERC1404TokenMinKYCv12.sol\":12173:12178  _from */\n      dup5\n        /* \"Shahzad/projects/git/ERC1404/contracts/ERC1404TokenMinKYCv12.sol\":12173:12188  _from != _owner */\n      0xffffffffffffffffffffffffffffffffffffffff\n      and\n      eq\n      iszero\n        /* \"Shahzad/projects/git/ERC1404/contracts/ERC1404TokenMinKYCv12.sol\":12144:12188  _balances[_from] == value && _from != _owner */\n    tag_369:\n        /* \"Shahzad/projects/git/ERC1404/contracts/ERC1404TokenMinKYCv12.sol\":12140:12292  if( _balances[_from] == value && _from != _owner)    ... */\n      iszero\n      tag_370\n      jumpi\n        /* \"Shahzad/projects/git/ERC1404/contracts/ERC1404TokenMinKYCv12.sol\":3034:3035  0 */\n      0x00\n        /* \"Shahzad/projects/git/ERC1404/contracts/ERC1404TokenMinKYCv12.sol\":12201:12237  return NO_TRANSFER_RESTRICTION_FOUND */\n      swap1\n      pop\n      jump(tag_354)\n        /* \"Shahzad/projects/git/ERC1404/contracts/ERC1404TokenMinKYCv12.sol\":12140:12292  if( _balances[_from] == value && _from != _owner)    ... */\n    tag_370:\n        /* \"Shahzad/projects/git/ERC1404/contracts/ERC1404TokenMinKYCv12.sol\":3092:3093  1 */\n      0x01\n        /* \"Shahzad/projects/git/ERC1404/contracts/ERC1404TokenMinKYCv12.sol\":12257:12292  return MAX_ALLOWED_INVESTORS_EXCEED */\n      swap1\n      pop\n        /* \"Shahzad/projects/git/ERC1404/contracts/ERC1404TokenMinKYCv12.sol\":9746:12317  function detectTransferRestriction (address _from, address _to, uint256 value) ... */\n    tag_354:\n      swap4\n      swap3\n      pop\n      pop\n      pop\n      jump\t// out\n        /* \"Shahzad/projects/git/ERC1404/contracts/ERC1404TokenMinKYCv12.sol\":7215:7384  function removeWhitelistAuthorityStatus(address user)... */\n    tag_168:\n        /* \"Shahzad/projects/git/ERC1404/contracts/ERC1404TokenMinKYCv12.sol\":6592:6602  msg.sender */\n      caller\n        /* \"Shahzad/projects/git/ERC1404/contracts/ERC1404TokenMinKYCv12.sol\":6582:6602  _owner == msg.sender */\n      0xffffffffffffffffffffffffffffffffffffffff\n      and\n        /* \"Shahzad/projects/git/ERC1404/contracts/ERC1404TokenMinKYCv12.sol\":6582:6588  _owner */\n      0x04\n      0x00\n      swap1\n      sload\n      swap1\n      0x0100\n      exp\n      swap1\n      div\n      0xffffffffffffffffffffffffffffffffffffffff\n      and\n        /* \"Shahzad/projects/git/ERC1404/contracts/ERC1404TokenMinKYCv12.sol\":6582:6602  _owner == msg.sender */\n      0xffffffffffffffffffffffffffffffffffffffff\n      and\n      eq\n        /* \"Shahzad/projects/git/ERC1404/contracts/ERC1404TokenMinKYCv12.sol\":6574:6640  require(_owner == msg.sender, \"Only owner has access to function\") */\n      tag_373\n      jumpi\n      mload(0x40)\n      0x08c379a000000000000000000000000000000000000000000000000000000000\n      dup2\n      mstore\n      0x04\n      add\n      tag_374\n      swap1\n      tag_234\n      jump\t// in\n    tag_374:\n      mload(0x40)\n      dup1\n      swap2\n      sub\n      swap1\n      revert\n    tag_373:\n        /* \"Shahzad/projects/git/ERC1404/contracts/ERC1404TokenMinKYCv12.sol\":7302:7328  _whitelistControlAuthority */\n      0x05\n        /* \"Shahzad/projects/git/ERC1404/contracts/ERC1404TokenMinKYCv12.sol\":7302:7334  _whitelistControlAuthority[user] */\n      0x00\n        /* \"Shahzad/projects/git/ERC1404/contracts/ERC1404TokenMinKYCv12.sol\":7329:7333  user */\n      dup3\n        /* \"Shahzad/projects/git/ERC1404/contracts/ERC1404TokenMinKYCv12.sol\":7302:7334  _whitelistControlAuthority[user] */\n      0xffffffffffffffffffffffffffffffffffffffff\n      and\n      0xffffffffffffffffffffffffffffffffffffffff\n      and\n      dup2\n      mstore\n      0x20\n      add\n      swap1\n      dup2\n      mstore\n      0x20\n      add\n      0x00\n      keccak256\n      0x00\n        /* \"Shahzad/projects/git/ERC1404/contracts/ERC1404TokenMinKYCv12.sol\":7295:7334  delete _whitelistControlAuthority[user] */\n      0x0100\n      exp\n      dup2\n      sload\n      swap1\n      0xff\n      mul\n      not\n      and\n      swap1\n      sstore\n        /* \"Shahzad/projects/git/ERC1404/contracts/ERC1404TokenMinKYCv12.sol\":7343:7380  WhitelistAuthorityStatusRemoved(user) */\n      0x24546dc0f5df685d7c979edd1b0bcc4d85ac6a59974976d7217c9f0d930d3ff0\n        /* \"Shahzad/projects/git/ERC1404/contracts/ERC1404TokenMinKYCv12.sol\":7375:7379  user */\n      dup2\n        /* \"Shahzad/projects/git/ERC1404/contracts/ERC1404TokenMinKYCv12.sol\":7343:7380  WhitelistAuthorityStatusRemoved(user) */\n      mload(0x40)\n      tag_376\n      swap2\n      swap1\n      tag_129\n      jump\t// in\n    tag_376:\n      mload(0x40)\n      dup1\n      swap2\n      sub\n      swap1\n      log1\n        /* \"Shahzad/projects/git/ERC1404/contracts/ERC1404TokenMinKYCv12.sol\":7215:7384  function removeWhitelistAuthorityStatus(address user)... */\n      pop\n      jump\t// out\n        /* \"Shahzad/projects/git/ERC1404/contracts/ERC1404TokenMinKYCv12.sol\":13316:13466  function allowance(address ownby, address spender) ... */\n    tag_172:\n        /* \"Shahzad/projects/git/ERC1404/contracts/ERC1404TokenMinKYCv12.sol\":13406:13413  uint256 */\n      0x00\n        /* \"Shahzad/projects/git/ERC1404/contracts/ERC1404TokenMinKYCv12.sol\":13432:13443  _allowances */\n      0x03\n        /* \"Shahzad/projects/git/ERC1404/contracts/ERC1404TokenMinKYCv12.sol\":13432:13450  _allowances[ownby] */\n      0x00\n        /* \"Shahzad/projects/git/ERC1404/contracts/ERC1404TokenMinKYCv12.sol\":13444:13449  ownby */\n      dup5\n        /* \"Shahzad/projects/git/ERC1404/contracts/ERC1404TokenMinKYCv12.sol\":13432:13450  _allowances[ownby] */\n      0xffffffffffffffffffffffffffffffffffffffff\n      and\n      0xffffffffffffffffffffffffffffffffffffffff\n      and\n      dup2\n      mstore\n      0x20\n      add\n      swap1\n      dup2\n      mstore\n      0x20\n      add\n      0x00\n      keccak256\n        /* \"Shahzad/projects/git/ERC1404/contracts/ERC1404TokenMinKYCv12.sol\":13432:13459  _allowances[ownby][spender] */\n      0x00\n        /* \"Shahzad/projects/git/ERC1404/contracts/ERC1404TokenMinKYCv12.sol\":13451:13458  spender */\n      dup4\n        /* \"Shahzad/projects/git/ERC1404/contracts/ERC1404TokenMinKYCv12.sol\":13432:13459  _allowances[ownby][spender] */\n      0xffffffffffffffffffffffffffffffffffffffff\n      and\n      0xffffffffffffffffffffffffffffffffffffffff\n      and\n      dup2\n      mstore\n      0x20\n      add\n      swap1\n      dup2\n      mstore\n      0x20\n      add\n      0x00\n      keccak256\n      sload\n        /* \"Shahzad/projects/git/ERC1404/contracts/ERC1404TokenMinKYCv12.sol\":13425:13459  return _allowances[ownby][spender] */\n      swap1\n      pop\n        /* \"Shahzad/projects/git/ERC1404/contracts/ERC1404TokenMinKYCv12.sol\":13316:13466  function allowance(address ownby, address spender) ... */\n      swap3\n      swap2\n      pop\n      pop\n      jump\t// out\n        /* \"Shahzad/projects/git/ERC1404/contracts/ERC1404TokenMinKYCv12.sol\":7387:7519  function getWhitelistAuthorityStatus(address user)... */\n    tag_176:\n        /* \"Shahzad/projects/git/ERC1404/contracts/ERC1404TokenMinKYCv12.sol\":7465:7469  bool */\n      0x00\n        /* \"Shahzad/projects/git/ERC1404/contracts/ERC1404TokenMinKYCv12.sol\":7483:7509  _whitelistControlAuthority */\n      0x05\n        /* \"Shahzad/projects/git/ERC1404/contracts/ERC1404TokenMinKYCv12.sol\":7483:7515  _whitelistControlAuthority[user] */\n      0x00\n        /* \"Shahzad/projects/git/ERC1404/contracts/ERC1404TokenMinKYCv12.sol\":7510:7514  user */\n      dup4\n        /* \"Shahzad/projects/git/ERC1404/contracts/ERC1404TokenMinKYCv12.sol\":7483:7515  _whitelistControlAuthority[user] */\n      0xffffffffffffffffffffffffffffffffffffffff\n      and\n      0xffffffffffffffffffffffffffffffffffffffff\n      and\n      dup2\n      mstore\n      0x20\n      add\n      swap1\n      dup2\n      mstore\n      0x20\n      add\n      0x00\n      keccak256\n      0x00\n      swap1\n      sload\n      swap1\n      0x0100\n      exp\n      swap1\n      div\n      0xff\n      and\n        /* \"Shahzad/projects/git/ERC1404/contracts/ERC1404TokenMinKYCv12.sol\":7476:7515  return _whitelistControlAuthority[user] */\n      swap1\n      pop\n        /* \"Shahzad/projects/git/ERC1404/contracts/ERC1404TokenMinKYCv12.sol\":7387:7519  function getWhitelistAuthorityStatus(address user)... */\n      swap2\n      swap1\n      pop\n      jump\t// out\n        /* \"Shahzad/projects/git/ERC1404/contracts/ERC1404TokenMinKYCv12.sol\":6663:6837  function transferOwnership(address newOwner) ... */\n    tag_180:\n        /* \"Shahzad/projects/git/ERC1404/contracts/ERC1404TokenMinKYCv12.sol\":6592:6602  msg.sender */\n      caller\n        /* \"Shahzad/projects/git/ERC1404/contracts/ERC1404TokenMinKYCv12.sol\":6582:6602  _owner == msg.sender */\n      0xffffffffffffffffffffffffffffffffffffffff\n      and\n        /* \"Shahzad/projects/git/ERC1404/contracts/ERC1404TokenMinKYCv12.sol\":6582:6588  _owner */\n      0x04\n      0x00\n      swap1\n      sload\n      swap1\n      0x0100\n      exp\n      swap1\n      div\n      0xffffffffffffffffffffffffffffffffffffffff\n      and\n        /* \"Shahzad/projects/git/ERC1404/contracts/ERC1404TokenMinKYCv12.sol\":6582:6602  _owner == msg.sender */\n      0xffffffffffffffffffffffffffffffffffffffff\n      and\n      eq\n        /* \"Shahzad/projects/git/ERC1404/contracts/ERC1404TokenMinKYCv12.sol\":6574:6640  require(_owner == msg.sender, \"Only owner has access to function\") */\n      tag_380\n      jumpi\n      mload(0x40)\n      0x08c379a000000000000000000000000000000000000000000000000000000000\n      dup2\n      mstore\n      0x04\n      add\n      tag_381\n      swap1\n      tag_234\n      jump\t// in\n    tag_381:\n      mload(0x40)\n      dup1\n      swap2\n      sub\n      swap1\n      revert\n    tag_380:\n        /* \"Shahzad/projects/git/ERC1404/contracts/ERC1404TokenMinKYCv12.sol\":6769:6770  0 */\n      0x00\n        /* \"Shahzad/projects/git/ERC1404/contracts/ERC1404TokenMinKYCv12.sol\":6749:6771  newOwner != address(0) */\n      0xffffffffffffffffffffffffffffffffffffffff\n      and\n        /* \"Shahzad/projects/git/ERC1404/contracts/ERC1404TokenMinKYCv12.sol\":6749:6757  newOwner */\n      dup2\n        /* \"Shahzad/projects/git/ERC1404/contracts/ERC1404TokenMinKYCv12.sol\":6749:6771  newOwner != address(0) */\n      0xffffffffffffffffffffffffffffffffffffffff\n      and\n      eq\n      iszero\n        /* \"Shahzad/projects/git/ERC1404/contracts/ERC1404TokenMinKYCv12.sol\":6741:6809  require(newOwner != address(0), \"Zero address not allowed as owner\") */\n      tag_383\n      jumpi\n      mload(0x40)\n      0x08c379a000000000000000000000000000000000000000000000000000000000\n      dup2\n      mstore\n      0x04\n      add\n      tag_384\n      swap1\n      tag_385\n      jump\t// in\n    tag_384:\n      mload(0x40)\n      dup1\n      swap2\n      sub\n      swap1\n      revert\n    tag_383:\n        /* \"Shahzad/projects/git/ERC1404/contracts/ERC1404TokenMinKYCv12.sol\":6822:6830  newOwner */\n      dup1\n        /* \"Shahzad/projects/git/ERC1404/contracts/ERC1404TokenMinKYCv12.sol\":6813:6819  _owner */\n      0x04\n      0x00\n        /* \"Shahzad/projects/git/ERC1404/contracts/ERC1404TokenMinKYCv12.sol\":6813:6830  _owner = newOwner */\n      0x0100\n      exp\n      dup2\n      sload\n      dup2\n      0xffffffffffffffffffffffffffffffffffffffff\n      mul\n      not\n      and\n      swap1\n      dup4\n      0xffffffffffffffffffffffffffffffffffffffff\n      and\n      mul\n      or\n      swap1\n      sstore\n      pop\n        /* \"Shahzad/projects/git/ERC1404/contracts/ERC1404TokenMinKYCv12.sol\":6663:6837  function transferOwnership(address newOwner) ... */\n      pop\n      jump\t// out\n        /* \"Shahzad/projects/git/ERC1404/contracts/ERC1404TokenMinKYCv12.sol\":8284:8978  function setupKYCDataForUser (... */\n    tag_206:\n        /* \"Shahzad/projects/git/ERC1404/contracts/ERC1404TokenMinKYCv12.sol\":8407:8432  uint256 tmpBuyRestriction */\n      0x00\n        /* \"Shahzad/projects/git/ERC1404/contracts/ERC1404TokenMinKYCv12.sol\":8435:8450  _buyRestriction */\n      dup1\n        /* \"Shahzad/projects/git/ERC1404/contracts/ERC1404TokenMinKYCv12.sol\":8435:8459  _buyRestriction[account] */\n      0x00\n        /* \"Shahzad/projects/git/ERC1404/contracts/ERC1404TokenMinKYCv12.sol\":8451:8458  account */\n      dup6\n        /* \"Shahzad/projects/git/ERC1404/contracts/ERC1404TokenMinKYCv12.sol\":8435:8459  _buyRestriction[account] */\n      0xffffffffffffffffffffffffffffffffffffffff\n      and\n      0xffffffffffffffffffffffffffffffffffffffff\n      and\n      dup2\n      mstore\n      0x20\n      add\n      swap1\n      dup2\n      mstore\n      0x20\n      add\n      0x00\n      keccak256\n      sload\n        /* \"Shahzad/projects/git/ERC1404/contracts/ERC1404TokenMinKYCv12.sol\":8407:8459  uint256 tmpBuyRestriction = _buyRestriction[account] */\n      swap1\n      pop\n        /* \"Shahzad/projects/git/ERC1404/contracts/ERC1404TokenMinKYCv12.sol\":8463:8489  uint256 tmpSellRestriction */\n      0x00\n        /* \"Shahzad/projects/git/ERC1404/contracts/ERC1404TokenMinKYCv12.sol\":8492:8508  _sellRestriction */\n      0x01\n        /* \"Shahzad/projects/git/ERC1404/contracts/ERC1404TokenMinKYCv12.sol\":8492:8517  _sellRestriction[account] */\n      0x00\n        /* \"Shahzad/projects/git/ERC1404/contracts/ERC1404TokenMinKYCv12.sol\":8509:8516  account */\n      dup7\n        /* \"Shahzad/projects/git/ERC1404/contracts/ERC1404TokenMinKYCv12.sol\":8492:8517  _sellRestriction[account] */\n      0xffffffffffffffffffffffffffffffffffffffff\n      and\n      0xffffffffffffffffffffffffffffffffffffffff\n      and\n      dup2\n      mstore\n      0x20\n      add\n      swap1\n      dup2\n      mstore\n      0x20\n      add\n      0x00\n      keccak256\n      sload\n        /* \"Shahzad/projects/git/ERC1404/contracts/ERC1404TokenMinKYCv12.sol\":8463:8517  uint256 tmpSellRestriction = _sellRestriction[account] */\n      swap1\n      pop\n        /* \"Shahzad/projects/git/ERC1404/contracts/ERC1404TokenMinKYCv12.sol\":8549:8563  buyRestriction */\n      dup4\n        /* \"Shahzad/projects/git/ERC1404/contracts/ERC1404TokenMinKYCv12.sol\":8522:8537  _buyRestriction */\n      0x00\n        /* \"Shahzad/projects/git/ERC1404/contracts/ERC1404TokenMinKYCv12.sol\":8522:8546  _buyRestriction[account] */\n      dup1\n        /* \"Shahzad/projects/git/ERC1404/contracts/ERC1404TokenMinKYCv12.sol\":8538:8545  account */\n      dup8\n        /* \"Shahzad/projects/git/ERC1404/contracts/ERC1404TokenMinKYCv12.sol\":8522:8546  _buyRestriction[account] */\n      0xffffffffffffffffffffffffffffffffffffffff\n      and\n      0xffffffffffffffffffffffffffffffffffffffff\n      and\n      dup2\n      mstore\n      0x20\n      add\n      swap1\n      dup2\n      mstore\n      0x20\n      add\n      0x00\n      keccak256\n        /* \"Shahzad/projects/git/ERC1404/contracts/ERC1404TokenMinKYCv12.sol\":8522:8563  _buyRestriction[account] = buyRestriction */\n      dup2\n      swap1\n      sstore\n      pop\n        /* \"Shahzad/projects/git/ERC1404/contracts/ERC1404TokenMinKYCv12.sol\":8595:8610  sellRestriction */\n      dup3\n        /* \"Shahzad/projects/git/ERC1404/contracts/ERC1404TokenMinKYCv12.sol\":8567:8583  _sellRestriction */\n      0x01\n        /* \"Shahzad/projects/git/ERC1404/contracts/ERC1404TokenMinKYCv12.sol\":8567:8592  _sellRestriction[account] */\n      0x00\n        /* \"Shahzad/projects/git/ERC1404/contracts/ERC1404TokenMinKYCv12.sol\":8584:8591  account */\n      dup8\n        /* \"Shahzad/projects/git/ERC1404/contracts/ERC1404TokenMinKYCv12.sol\":8567:8592  _sellRestriction[account] */\n      0xffffffffffffffffffffffffffffffffffffffff\n      and\n      0xffffffffffffffffffffffffffffffffffffffff\n      and\n      dup2\n      mstore\n      0x20\n      add\n      swap1\n      dup2\n      mstore\n      0x20\n      add\n      0x00\n      keccak256\n        /* \"Shahzad/projects/git/ERC1404/contracts/ERC1404TokenMinKYCv12.sol\":8567:8610  _sellRestriction[account] = sellRestriction */\n      dup2\n      swap1\n      sstore\n      pop\n        /* \"Shahzad/projects/git/ERC1404/contracts/ERC1404TokenMinKYCv12.sol\":8783:8784  0 */\n      0x00\n        /* \"Shahzad/projects/git/ERC1404/contracts/ERC1404TokenMinKYCv12.sol\":8762:8779  tmpBuyRestriction */\n      dup3\n        /* \"Shahzad/projects/git/ERC1404/contracts/ERC1404TokenMinKYCv12.sol\":8762:8784  tmpBuyRestriction == 0 */\n      eq\n        /* \"Shahzad/projects/git/ERC1404/contracts/ERC1404TokenMinKYCv12.sol\":8762:8811  tmpBuyRestriction == 0 && tmpSellRestriction == 0 */\n      dup1\n      iszero\n      tag_387\n      jumpi\n      pop\n        /* \"Shahzad/projects/git/ERC1404/contracts/ERC1404TokenMinKYCv12.sol\":8810:8811  0 */\n      0x00\n        /* \"Shahzad/projects/git/ERC1404/contracts/ERC1404TokenMinKYCv12.sol\":8788:8806  tmpSellRestriction */\n      dup2\n        /* \"Shahzad/projects/git/ERC1404/contracts/ERC1404TokenMinKYCv12.sol\":8788:8811  tmpSellRestriction == 0 */\n      eq\n        /* \"Shahzad/projects/git/ERC1404/contracts/ERC1404TokenMinKYCv12.sol\":8762:8811  tmpBuyRestriction == 0 && tmpSellRestriction == 0 */\n    tag_387:\n        /* \"Shahzad/projects/git/ERC1404/contracts/ERC1404TokenMinKYCv12.sol\":8759:8975  if(tmpBuyRestriction == 0 && tmpSellRestriction == 0) {... */\n      iszero\n      tag_388\n      jumpi\n        /* \"Shahzad/projects/git/ERC1404/contracts/ERC1404TokenMinKYCv12.sol\":8842:8849  account */\n      dup5\n        /* \"Shahzad/projects/git/ERC1404/contracts/ERC1404TokenMinKYCv12.sol\":8823:8883  KYCDataForUserSet (account, buyRestriction, sellRestriction) */\n      0xffffffffffffffffffffffffffffffffffffffff\n      and\n      0xc78ee1de8eb00c83baa5f9bf324f00dd286b754a3826292de51c92c3e7a0cab5\n        /* \"Shahzad/projects/git/ERC1404/contracts/ERC1404TokenMinKYCv12.sol\":8851:8865  buyRestriction */\n      dup6\n        /* \"Shahzad/projects/git/ERC1404/contracts/ERC1404TokenMinKYCv12.sol\":8867:8882  sellRestriction */\n      dup6\n        /* \"Shahzad/projects/git/ERC1404/contracts/ERC1404TokenMinKYCv12.sol\":8823:8883  KYCDataForUserSet (account, buyRestriction, sellRestriction) */\n      mload(0x40)\n      tag_389\n      swap3\n      swap2\n      swap1\n      tag_145\n      jump\t// in\n    tag_389:\n      mload(0x40)\n      dup1\n      swap2\n      sub\n      swap1\n      log2\n        /* \"Shahzad/projects/git/ERC1404/contracts/ERC1404TokenMinKYCv12.sol\":8759:8975  if(tmpBuyRestriction == 0 && tmpSellRestriction == 0) {... */\n      jump(tag_390)\n    tag_388:\n        /* \"Shahzad/projects/git/ERC1404/contracts/ERC1404TokenMinKYCv12.sol\":8929:8936  account */\n      dup5\n        /* \"Shahzad/projects/git/ERC1404/contracts/ERC1404TokenMinKYCv12.sol\":8904:8970  KYCDataForUserModified ( account, buyRestriction, sellRestriction) */\n      0xffffffffffffffffffffffffffffffffffffffff\n      and\n      0x50fc162609db30a736355688f8f60baab2991bebb40a6d50ed93371a95493616\n        /* \"Shahzad/projects/git/ERC1404/contracts/ERC1404TokenMinKYCv12.sol\":8938:8952  buyRestriction */\n      dup6\n        /* \"Shahzad/projects/git/ERC1404/contracts/ERC1404TokenMinKYCv12.sol\":8954:8969  sellRestriction */\n      dup6\n        /* \"Shahzad/projects/git/ERC1404/contracts/ERC1404TokenMinKYCv12.sol\":8904:8970  KYCDataForUserModified ( account, buyRestriction, sellRestriction) */\n      mload(0x40)\n      tag_391\n      swap3\n      swap2\n      swap1\n      tag_145\n      jump\t// in\n    tag_391:\n      mload(0x40)\n      dup1\n      swap2\n      sub\n      swap1\n      log2\n        /* \"Shahzad/projects/git/ERC1404/contracts/ERC1404TokenMinKYCv12.sol\":8759:8975  if(tmpBuyRestriction == 0 && tmpSellRestriction == 0) {... */\n    tag_390:\n        /* \"Shahzad/projects/git/ERC1404/contracts/ERC1404TokenMinKYCv12.sol\":8402:8978  {\t... */\n      pop\n      pop\n        /* \"Shahzad/projects/git/ERC1404/contracts/ERC1404TokenMinKYCv12.sol\":8284:8978  function setupKYCDataForUser (... */\n      pop\n      pop\n      pop\n      jump\t// out\n        /* \"Shahzad/projects/git/ERC1404/contracts/ERC1404TokenMinKYCv12.sol\":14608:15329  function transferSharesBetweenInvestors (... */\n    tag_222:\n        /* \"Shahzad/projects/git/ERC1404/contracts/ERC1404TokenMinKYCv12.sol\":14779:14785  amount */\n      dup1\n        /* \"Shahzad/projects/git/ERC1404/contracts/ERC1404TokenMinKYCv12.sol\":14758:14767  _balances */\n      0x02\n        /* \"Shahzad/projects/git/ERC1404/contracts/ERC1404TokenMinKYCv12.sol\":14758:14775  _balances[sender] */\n      0x00\n        /* \"Shahzad/projects/git/ERC1404/contracts/ERC1404TokenMinKYCv12.sol\":14768:14774  sender */\n      dup6\n        /* \"Shahzad/projects/git/ERC1404/contracts/ERC1404TokenMinKYCv12.sol\":14758:14775  _balances[sender] */\n      0xffffffffffffffffffffffffffffffffffffffff\n      and\n      0xffffffffffffffffffffffffffffffffffffffff\n      and\n      dup2\n      mstore\n      0x20\n      add\n      swap1\n      dup2\n      mstore\n      0x20\n      add\n      0x00\n      keccak256\n      sload\n        /* \"Shahzad/projects/git/ERC1404/contracts/ERC1404TokenMinKYCv12.sol\":14758:14785  _balances[sender] >= amount */\n      lt\n      iszero\n        /* \"Shahzad/projects/git/ERC1404/contracts/ERC1404TokenMinKYCv12.sol\":14750:14850  require(_balances[sender] >= amount, \"Sender is trying to transfer amount greater than his balance\") */\n      tag_393\n      jumpi\n      mload(0x40)\n      0x08c379a000000000000000000000000000000000000000000000000000000000\n      dup2\n      mstore\n      0x04\n      add\n      tag_394\n      swap1\n      tag_395\n      jump\t// in\n    tag_394:\n      mload(0x40)\n      dup1\n      swap2\n      sub\n      swap1\n      revert\n    tag_393:\n        /* \"Shahzad/projects/git/ERC1404/contracts/ERC1404TokenMinKYCv12.sol\":14979:14985  amount */\n      dup1\n        /* \"Shahzad/projects/git/ERC1404/contracts/ERC1404TokenMinKYCv12.sol\":14959:14968  _balances */\n      0x02\n        /* \"Shahzad/projects/git/ERC1404/contracts/ERC1404TokenMinKYCv12.sol\":14959:14976  _balances[sender] */\n      0x00\n        /* \"Shahzad/projects/git/ERC1404/contracts/ERC1404TokenMinKYCv12.sol\":14969:14975  sender */\n      dup6\n        /* \"Shahzad/projects/git/ERC1404/contracts/ERC1404TokenMinKYCv12.sol\":14959:14976  _balances[sender] */\n      0xffffffffffffffffffffffffffffffffffffffff\n      and\n      0xffffffffffffffffffffffffffffffffffffffff\n      and\n      dup2\n      mstore\n      0x20\n      add\n      swap1\n      dup2\n      mstore\n      0x20\n      add\n      0x00\n      keccak256\n      sload\n        /* \"Shahzad/projects/git/ERC1404/contracts/ERC1404TokenMinKYCv12.sol\":14959:14985  _balances[sender] - amount */\n      tag_396\n      swap2\n      swap1\n      tag_224\n      jump\t// in\n    tag_396:\n        /* \"Shahzad/projects/git/ERC1404/contracts/ERC1404TokenMinKYCv12.sol\":14939:14948  _balances */\n      0x02\n        /* \"Shahzad/projects/git/ERC1404/contracts/ERC1404TokenMinKYCv12.sol\":14939:14956  _balances[sender] */\n      0x00\n        /* \"Shahzad/projects/git/ERC1404/contracts/ERC1404TokenMinKYCv12.sol\":14949:14955  sender */\n      dup6\n        /* \"Shahzad/projects/git/ERC1404/contracts/ERC1404TokenMinKYCv12.sol\":14939:14956  _balances[sender] */\n      0xffffffffffffffffffffffffffffffffffffffff\n      and\n      0xffffffffffffffffffffffffffffffffffffffff\n      and\n      dup2\n      mstore\n      0x20\n      add\n      swap1\n      dup2\n      mstore\n      0x20\n      add\n      0x00\n      keccak256\n        /* \"Shahzad/projects/git/ERC1404/contracts/ERC1404TokenMinKYCv12.sol\":14939:14985  _balances[sender] = _balances[sender] - amount */\n      dup2\n      swap1\n      sstore\n      pop\n        /* \"Shahzad/projects/git/ERC1404/contracts/ERC1404TokenMinKYCv12.sol\":15015:15016  0 */\n      0x00\n        /* \"Shahzad/projects/git/ERC1404/contracts/ERC1404TokenMinKYCv12.sol\":14994:15003  _balances */\n      0x02\n        /* \"Shahzad/projects/git/ERC1404/contracts/ERC1404TokenMinKYCv12.sol\":14994:15011  _balances[sender] */\n      0x00\n        /* \"Shahzad/projects/git/ERC1404/contracts/ERC1404TokenMinKYCv12.sol\":15004:15010  sender */\n      dup6\n        /* \"Shahzad/projects/git/ERC1404/contracts/ERC1404TokenMinKYCv12.sol\":14994:15011  _balances[sender] */\n      0xffffffffffffffffffffffffffffffffffffffff\n      and\n      0xffffffffffffffffffffffffffffffffffffffff\n      and\n      dup2\n      mstore\n      0x20\n      add\n      swap1\n      dup2\n      mstore\n      0x20\n      add\n      0x00\n      keccak256\n      sload\n        /* \"Shahzad/projects/git/ERC1404/contracts/ERC1404TokenMinKYCv12.sol\":14994:15016  _balances[sender] == 0 */\n      eq\n        /* \"Shahzad/projects/git/ERC1404/contracts/ERC1404TokenMinKYCv12.sol\":14994:15036  _balances[sender] == 0 && sender != _owner */\n      dup1\n      iszero\n      tag_397\n      jumpi\n      pop\n        /* \"Shahzad/projects/git/ERC1404/contracts/ERC1404TokenMinKYCv12.sol\":15030:15036  _owner */\n      0x04\n      0x00\n      swap1\n      sload\n      swap1\n      0x0100\n      exp\n      swap1\n      div\n      0xffffffffffffffffffffffffffffffffffffffff\n      and\n        /* \"Shahzad/projects/git/ERC1404/contracts/ERC1404TokenMinKYCv12.sol\":15020:15036  sender != _owner */\n      0xffffffffffffffffffffffffffffffffffffffff\n      and\n        /* \"Shahzad/projects/git/ERC1404/contracts/ERC1404TokenMinKYCv12.sol\":15020:15026  sender */\n      dup4\n        /* \"Shahzad/projects/git/ERC1404/contracts/ERC1404TokenMinKYCv12.sol\":15020:15036  sender != _owner */\n      0xffffffffffffffffffffffffffffffffffffffff\n      and\n      eq\n      iszero\n        /* \"Shahzad/projects/git/ERC1404/contracts/ERC1404TokenMinKYCv12.sol\":14994:15036  _balances[sender] == 0 && sender != _owner */\n    tag_397:\n        /* \"Shahzad/projects/git/ERC1404/contracts/ERC1404TokenMinKYCv12.sol\":14990:15102  if( _balances[sender] == 0 && sender != _owner ) {... */\n      iszero\n      tag_398\n      jumpi\n        /* \"Shahzad/projects/git/ERC1404/contracts/ERC1404TokenMinKYCv12.sol\":15093:15094  1 */\n      0x01\n        /* \"Shahzad/projects/git/ERC1404/contracts/ERC1404TokenMinKYCv12.sol\":15069:15090  currentTotalInvestors */\n      sload(0x10)\n        /* \"Shahzad/projects/git/ERC1404/contracts/ERC1404TokenMinKYCv12.sol\":15069:15094  currentTotalInvestors - 1 */\n      tag_399\n      swap2\n      swap1\n      tag_224\n      jump\t// in\n    tag_399:\n        /* \"Shahzad/projects/git/ERC1404/contracts/ERC1404TokenMinKYCv12.sol\":15045:15066  currentTotalInvestors */\n      0x10\n        /* \"Shahzad/projects/git/ERC1404/contracts/ERC1404TokenMinKYCv12.sol\":15045:15094  currentTotalInvestors = currentTotalInvestors - 1 */\n      dup2\n      swap1\n      sstore\n      pop\n        /* \"Shahzad/projects/git/ERC1404/contracts/ERC1404TokenMinKYCv12.sol\":14990:15102  if( _balances[sender] == 0 && sender != _owner ) {... */\n    tag_398:\n        /* \"Shahzad/projects/git/ERC1404/contracts/ERC1404TokenMinKYCv12.sol\":15135:15136  0 */\n      0x00\n        /* \"Shahzad/projects/git/ERC1404/contracts/ERC1404TokenMinKYCv12.sol\":15111:15120  _balances */\n      0x02\n        /* \"Shahzad/projects/git/ERC1404/contracts/ERC1404TokenMinKYCv12.sol\":15111:15131  _balances[recipient] */\n      0x00\n        /* \"Shahzad/projects/git/ERC1404/contracts/ERC1404TokenMinKYCv12.sol\":15121:15130  recipient */\n      dup5\n        /* \"Shahzad/projects/git/ERC1404/contracts/ERC1404TokenMinKYCv12.sol\":15111:15131  _balances[recipient] */\n      0xffffffffffffffffffffffffffffffffffffffff\n      and\n      0xffffffffffffffffffffffffffffffffffffffff\n      and\n      dup2\n      mstore\n      0x20\n      add\n      swap1\n      dup2\n      mstore\n      0x20\n      add\n      0x00\n      keccak256\n      sload\n        /* \"Shahzad/projects/git/ERC1404/contracts/ERC1404TokenMinKYCv12.sol\":15111:15136  _balances[recipient] == 0 */\n      eq\n        /* \"Shahzad/projects/git/ERC1404/contracts/ERC1404TokenMinKYCv12.sol\":15111:15159  _balances[recipient] == 0 && recipient != _owner */\n      dup1\n      iszero\n      tag_400\n      jumpi\n      pop\n        /* \"Shahzad/projects/git/ERC1404/contracts/ERC1404TokenMinKYCv12.sol\":15153:15159  _owner */\n      0x04\n      0x00\n      swap1\n      sload\n      swap1\n      0x0100\n      exp\n      swap1\n      div\n      0xffffffffffffffffffffffffffffffffffffffff\n      and\n        /* \"Shahzad/projects/git/ERC1404/contracts/ERC1404TokenMinKYCv12.sol\":15140:15159  recipient != _owner */\n      0xffffffffffffffffffffffffffffffffffffffff\n      and\n        /* \"Shahzad/projects/git/ERC1404/contracts/ERC1404TokenMinKYCv12.sol\":15140:15149  recipient */\n      dup3\n        /* \"Shahzad/projects/git/ERC1404/contracts/ERC1404TokenMinKYCv12.sol\":15140:15159  recipient != _owner */\n      0xffffffffffffffffffffffffffffffffffffffff\n      and\n      eq\n      iszero\n        /* \"Shahzad/projects/git/ERC1404/contracts/ERC1404TokenMinKYCv12.sol\":15111:15159  _balances[recipient] == 0 && recipient != _owner */\n    tag_400:\n        /* \"Shahzad/projects/git/ERC1404/contracts/ERC1404TokenMinKYCv12.sol\":15107:15223  if( _balances[recipient] == 0 && recipient != _owner ) {... */\n      iszero\n      tag_401\n      jumpi\n        /* \"Shahzad/projects/git/ERC1404/contracts/ERC1404TokenMinKYCv12.sol\":15216:15217  1 */\n      0x01\n        /* \"Shahzad/projects/git/ERC1404/contracts/ERC1404TokenMinKYCv12.sol\":15192:15213  currentTotalInvestors */\n      sload(0x10)\n        /* \"Shahzad/projects/git/ERC1404/contracts/ERC1404TokenMinKYCv12.sol\":15192:15217  currentTotalInvestors + 1 */\n      tag_402\n      swap2\n      swap1\n      tag_245\n      jump\t// in\n    tag_402:\n        /* \"Shahzad/projects/git/ERC1404/contracts/ERC1404TokenMinKYCv12.sol\":15168:15189  currentTotalInvestors */\n      0x10\n        /* \"Shahzad/projects/git/ERC1404/contracts/ERC1404TokenMinKYCv12.sol\":15168:15217  currentTotalInvestors = currentTotalInvestors + 1 */\n      dup2\n      swap1\n      sstore\n      pop\n        /* \"Shahzad/projects/git/ERC1404/contracts/ERC1404TokenMinKYCv12.sol\":15107:15223  if( _balances[recipient] == 0 && recipient != _owner ) {... */\n    tag_401:\n        /* \"Shahzad/projects/git/ERC1404/contracts/ERC1404TokenMinKYCv12.sol\":15273:15279  amount */\n      dup1\n        /* \"Shahzad/projects/git/ERC1404/contracts/ERC1404TokenMinKYCv12.sol\":15250:15259  _balances */\n      0x02\n        /* \"Shahzad/projects/git/ERC1404/contracts/ERC1404TokenMinKYCv12.sol\":15250:15270  _balances[recipient] */\n      0x00\n        /* \"Shahzad/projects/git/ERC1404/contracts/ERC1404TokenMinKYCv12.sol\":15260:15269  recipient */\n      dup5\n        /* \"Shahzad/projects/git/ERC1404/contracts/ERC1404TokenMinKYCv12.sol\":15250:15270  _balances[recipient] */\n      0xffffffffffffffffffffffffffffffffffffffff\n      and\n      0xffffffffffffffffffffffffffffffffffffffff\n      and\n      dup2\n      mstore\n      0x20\n      add\n      swap1\n      dup2\n      mstore\n      0x20\n      add\n      0x00\n      keccak256\n      sload\n        /* \"Shahzad/projects/git/ERC1404/contracts/ERC1404TokenMinKYCv12.sol\":15250:15279  _balances[recipient] + amount */\n      tag_403\n      swap2\n      swap1\n      tag_245\n      jump\t// in\n    tag_403:\n        /* \"Shahzad/projects/git/ERC1404/contracts/ERC1404TokenMinKYCv12.sol\":15227:15236  _balances */\n      0x02\n        /* \"Shahzad/projects/git/ERC1404/contracts/ERC1404TokenMinKYCv12.sol\":15227:15247  _balances[recipient] */\n      0x00\n        /* \"Shahzad/projects/git/ERC1404/contracts/ERC1404TokenMinKYCv12.sol\":15237:15246  recipient */\n      dup5\n        /* \"Shahzad/projects/git/ERC1404/contracts/ERC1404TokenMinKYCv12.sol\":15227:15247  _balances[recipient] */\n      0xffffffffffffffffffffffffffffffffffffffff\n      and\n      0xffffffffffffffffffffffffffffffffffffffff\n      and\n      dup2\n      mstore\n      0x20\n      add\n      swap1\n      dup2\n      mstore\n      0x20\n      add\n      0x00\n      keccak256\n        /* \"Shahzad/projects/git/ERC1404/contracts/ERC1404TokenMinKYCv12.sol\":15227:15279  _balances[recipient] = _balances[recipient] + amount */\n      dup2\n      swap1\n      sstore\n      pop\n        /* \"Shahzad/projects/git/ERC1404/contracts/ERC1404TokenMinKYCv12.sol\":15307:15316  recipient */\n      dup2\n        /* \"Shahzad/projects/git/ERC1404/contracts/ERC1404TokenMinKYCv12.sol\":15290:15325  Transfer(sender, recipient, amount) */\n      0xffffffffffffffffffffffffffffffffffffffff\n      and\n        /* \"Shahzad/projects/git/ERC1404/contracts/ERC1404TokenMinKYCv12.sol\":15299:15305  sender */\n      dup4\n        /* \"Shahzad/projects/git/ERC1404/contracts/ERC1404TokenMinKYCv12.sol\":15290:15325  Transfer(sender, recipient, amount) */\n      0xffffffffffffffffffffffffffffffffffffffff\n      and\n      0xddf252ad1be2c89b69c2b068fc378daa952ba7f163c4a11628f55a4df523b3ef\n        /* \"Shahzad/projects/git/ERC1404/contracts/ERC1404TokenMinKYCv12.sol\":15318:15324  amount */\n      dup4\n        /* \"Shahzad/projects/git/ERC1404/contracts/ERC1404TokenMinKYCv12.sol\":15290:15325  Transfer(sender, recipient, amount) */\n      mload(0x40)\n      tag_404\n      swap2\n      swap1\n      tag_63\n      jump\t// in\n    tag_404:\n      mload(0x40)\n      dup1\n      swap2\n      sub\n      swap1\n      log3\n        /* \"Shahzad/projects/git/ERC1404/contracts/ERC1404TokenMinKYCv12.sol\":14608:15329  function transferSharesBetweenInvestors (... */\n      pop\n      pop\n      pop\n      jump\t// out\n    tag_253:\n      dup3\n      dup1\n      sload\n      tag_405\n      swap1\n      tag_182\n      jump\t// in\n    tag_405:\n      swap1\n      0x00\n      mstore\n      keccak256(0x00, 0x20)\n      swap1\n      0x1f\n      add\n      0x20\n      swap1\n      div\n      dup2\n      add\n      swap3\n      dup3\n      tag_407\n      jumpi\n      0x00\n      dup6\n      sstore\n      jump(tag_406)\n    tag_407:\n      dup3\n      0x1f\n      lt\n      tag_408\n      jumpi\n      dup1\n      mload\n      not(0xff)\n      and\n      dup4\n      dup1\n      add\n      or\n      dup6\n      sstore\n      jump(tag_406)\n    tag_408:\n      dup3\n      dup1\n      add\n      0x01\n      add\n      dup6\n      sstore\n      dup3\n      iszero\n      tag_406\n      jumpi\n      swap2\n      dup3\n      add\n    tag_409:\n      dup3\n      dup2\n      gt\n      iszero\n      tag_410\n      jumpi\n      dup3\n      mload\n      dup3\n      sstore\n      swap2\n      0x20\n      add\n      swap2\n      swap1\n      0x01\n      add\n      swap1\n      jump(tag_409)\n    tag_410:\n    tag_406:\n      pop\n      swap1\n      pop\n      tag_411\n      swap2\n      swap1\n      tag_412\n      jump\t// in\n    tag_411:\n      pop\n      swap1\n      jump\t// out\n    tag_412:\n    tag_413:\n      dup1\n      dup3\n      gt\n      iszero\n      tag_414\n      jumpi\n      0x00\n      dup2\n      0x00\n      swap1\n      sstore\n      pop\n      0x01\n      add\n      jump(tag_413)\n    tag_414:\n      pop\n      swap1\n      jump\t// out\n        /* \"#utility.yul\":24:746   */\n    tag_416:\n        /* \"#utility.yul\":120:125   */\n      0x00\n        /* \"#utility.yul\":145:226   */\n      tag_418\n        /* \"#utility.yul\":161:225   */\n      tag_419\n        /* \"#utility.yul\":218:224   */\n      dup5\n        /* \"#utility.yul\":161:225   */\n      tag_420\n      jump\t// in\n    tag_419:\n        /* \"#utility.yul\":145:226   */\n      tag_421\n      jump\t// in\n    tag_418:\n        /* \"#utility.yul\":136:226   */\n      swap1\n      pop\n        /* \"#utility.yul\":246:251   */\n      dup1\n        /* \"#utility.yul\":275:281   */\n      dup4\n        /* \"#utility.yul\":268:273   */\n      dup3\n        /* \"#utility.yul\":261:282   */\n      mstore\n        /* \"#utility.yul\":309:313   */\n      0x20\n        /* \"#utility.yul\":302:307   */\n      dup3\n        /* \"#utility.yul\":298:314   */\n      add\n        /* \"#utility.yul\":291:314   */\n      swap1\n      pop\n        /* \"#utility.yul\":335:341   */\n      dup3\n        /* \"#utility.yul\":385:388   */\n      dup6\n        /* \"#utility.yul\":377:381   */\n      0x20\n        /* \"#utility.yul\":369:375   */\n      dup7\n        /* \"#utility.yul\":365:382   */\n      mul\n        /* \"#utility.yul\":360:363   */\n      dup3\n        /* \"#utility.yul\":356:383   */\n      add\n        /* \"#utility.yul\":353:389   */\n      gt\n        /* \"#utility.yul\":350:493   */\n      iszero\n      tag_422\n      jumpi\n        /* \"#utility.yul\":404:483   */\n      tag_423\n      tag_424\n      jump\t// in\n    tag_423:\n        /* \"#utility.yul\":350:493   */\n    tag_422:\n        /* \"#utility.yul\":517:518   */\n      0x00\n        /* \"#utility.yul\":502:740   */\n    tag_425:\n        /* \"#utility.yul\":527:533   */\n      dup6\n        /* \"#utility.yul\":524:525   */\n      dup2\n        /* \"#utility.yul\":521:534   */\n      lt\n        /* \"#utility.yul\":502:740   */\n      iszero\n      tag_427\n      jumpi\n        /* \"#utility.yul\":595:598   */\n      dup2\n        /* \"#utility.yul\":624:661   */\n      tag_428\n        /* \"#utility.yul\":657:660   */\n      dup9\n        /* \"#utility.yul\":645:655   */\n      dup3\n        /* \"#utility.yul\":624:661   */\n      tag_429\n      jump\t// in\n    tag_428:\n        /* \"#utility.yul\":619:622   */\n      dup5\n        /* \"#utility.yul\":612:662   */\n      mstore\n        /* \"#utility.yul\":691:695   */\n      0x20\n        /* \"#utility.yul\":686:689   */\n      dup5\n        /* \"#utility.yul\":682:696   */\n      add\n        /* \"#utility.yul\":675:696   */\n      swap4\n      pop\n        /* \"#utility.yul\":725:729   */\n      0x20\n        /* \"#utility.yul\":720:723   */\n      dup4\n        /* \"#utility.yul\":716:730   */\n      add\n        /* \"#utility.yul\":709:730   */\n      swap3\n      pop\n        /* \"#utility.yul\":562:740   */\n      pop\n        /* \"#utility.yul\":549:550   */\n      0x01\n        /* \"#utility.yul\":546:547   */\n      dup2\n        /* \"#utility.yul\":542:551   */\n      add\n        /* \"#utility.yul\":537:551   */\n      swap1\n      pop\n        /* \"#utility.yul\":502:740   */\n      jump(tag_425)\n    tag_427:\n        /* \"#utility.yul\":506:520   */\n      pop\n        /* \"#utility.yul\":126:746   */\n      pop\n      pop\n        /* \"#utility.yul\":24:746   */\n      swap4\n      swap3\n      pop\n      pop\n      pop\n      jump\t// out\n        /* \"#utility.yul\":752:1164   */\n    tag_430:\n        /* \"#utility.yul\":830:835   */\n      0x00\n        /* \"#utility.yul\":855:921   */\n      tag_432\n        /* \"#utility.yul\":871:920   */\n      tag_433\n        /* \"#utility.yul\":913:919   */\n      dup5\n        /* \"#utility.yul\":871:920   */\n      tag_434\n      jump\t// in\n    tag_433:\n        /* \"#utility.yul\":855:921   */\n      tag_421\n      jump\t// in\n    tag_432:\n        /* \"#utility.yul\":846:921   */\n      swap1\n      pop\n        /* \"#utility.yul\":944:950   */\n      dup3\n        /* \"#utility.yul\":937:942   */\n      dup2\n        /* \"#utility.yul\":930:951   */\n      mstore\n        /* \"#utility.yul\":982:986   */\n      0x20\n        /* \"#utility.yul\":975:980   */\n      dup2\n        /* \"#utility.yul\":971:987   */\n      add\n        /* \"#utility.yul\":1020:1023   */\n      dup5\n        /* \"#utility.yul\":1011:1017   */\n      dup5\n        /* \"#utility.yul\":1006:1009   */\n      dup5\n        /* \"#utility.yul\":1002:1018   */\n      add\n        /* \"#utility.yul\":999:1024   */\n      gt\n        /* \"#utility.yul\":996:1108   */\n      iszero\n      tag_435\n      jumpi\n        /* \"#utility.yul\":1027:1106   */\n      tag_436\n      tag_437\n      jump\t// in\n    tag_436:\n        /* \"#utility.yul\":996:1108   */\n    tag_435:\n        /* \"#utility.yul\":1117:1158   */\n      tag_438\n        /* \"#utility.yul\":1151:1157   */\n      dup5\n        /* \"#utility.yul\":1146:1149   */\n      dup3\n        /* \"#utility.yul\":1141:1144   */\n      dup6\n        /* \"#utility.yul\":1117:1158   */\n      tag_439\n      jump\t// in\n    tag_438:\n        /* \"#utility.yul\":836:1164   */\n      pop\n        /* \"#utility.yul\":752:1164   */\n      swap4\n      swap3\n      pop\n      pop\n      pop\n      jump\t// out\n        /* \"#utility.yul\":1170:1309   */\n    tag_429:\n        /* \"#utility.yul\":1216:1221   */\n      0x00\n        /* \"#utility.yul\":1254:1260   */\n      dup2\n        /* \"#utility.yul\":1241:1261   */\n      calldataload\n        /* \"#utility.yul\":1232:1261   */\n      swap1\n      pop\n        /* \"#utility.yul\":1270:1303   */\n      tag_441\n        /* \"#utility.yul\":1297:1302   */\n      dup2\n        /* \"#utility.yul\":1270:1303   */\n      tag_442\n      jump\t// in\n    tag_441:\n        /* \"#utility.yul\":1170:1309   */\n      swap3\n      swap2\n      pop\n      pop\n      jump\t// out\n        /* \"#utility.yul\":1332:1702   */\n    tag_443:\n        /* \"#utility.yul\":1403:1408   */\n      0x00\n        /* \"#utility.yul\":1452:1455   */\n      dup3\n        /* \"#utility.yul\":1445:1449   */\n      0x1f\n        /* \"#utility.yul\":1437:1443   */\n      dup4\n        /* \"#utility.yul\":1433:1450   */\n      add\n        /* \"#utility.yul\":1429:1456   */\n      slt\n        /* \"#utility.yul\":1419:1541   */\n      tag_445\n      jumpi\n        /* \"#utility.yul\":1460:1539   */\n      tag_446\n      tag_447\n      jump\t// in\n    tag_446:\n        /* \"#utility.yul\":1419:1541   */\n    tag_445:\n        /* \"#utility.yul\":1577:1583   */\n      dup2\n        /* \"#utility.yul\":1564:1584   */\n      calldataload\n        /* \"#utility.yul\":1602:1696   */\n      tag_448\n        /* \"#utility.yul\":1692:1695   */\n      dup5\n        /* \"#utility.yul\":1684:1690   */\n      dup3\n        /* \"#utility.yul\":1677:1681   */\n      0x20\n        /* \"#utility.yul\":1669:1675   */\n      dup7\n        /* \"#utility.yul\":1665:1682   */\n      add\n        /* \"#utility.yul\":1602:1696   */\n      tag_416\n      jump\t// in\n    tag_448:\n        /* \"#utility.yul\":1593:1696   */\n      swap2\n      pop\n        /* \"#utility.yul\":1409:1702   */\n      pop\n        /* \"#utility.yul\":1332:1702   */\n      swap3\n      swap2\n      pop\n      pop\n      jump\t// out\n        /* \"#utility.yul\":1722:2062   */\n    tag_449:\n        /* \"#utility.yul\":1778:1783   */\n      0x00\n        /* \"#utility.yul\":1827:1830   */\n      dup3\n        /* \"#utility.yul\":1820:1824   */\n      0x1f\n        /* \"#utility.yul\":1812:1818   */\n      dup4\n        /* \"#utility.yul\":1808:1825   */\n      add\n        /* \"#utility.yul\":1804:1831   */\n      slt\n        /* \"#utility.yul\":1794:1916   */\n      tag_451\n      jumpi\n        /* \"#utility.yul\":1835:1914   */\n      tag_452\n      tag_447\n      jump\t// in\n    tag_452:\n        /* \"#utility.yul\":1794:1916   */\n    tag_451:\n        /* \"#utility.yul\":1952:1958   */\n      dup2\n        /* \"#utility.yul\":1939:1959   */\n      calldataload\n        /* \"#utility.yul\":1977:2056   */\n      tag_453\n        /* \"#utility.yul\":2052:2055   */\n      dup5\n        /* \"#utility.yul\":2044:2050   */\n      dup3\n        /* \"#utility.yul\":2037:2041   */\n      0x20\n        /* \"#utility.yul\":2029:2035   */\n      dup7\n        /* \"#utility.yul\":2025:2042   */\n      add\n        /* \"#utility.yul\":1977:2056   */\n      tag_430\n      jump\t// in\n    tag_453:\n        /* \"#utility.yul\":1968:2056   */\n      swap2\n      pop\n        /* \"#utility.yul\":1784:2062   */\n      pop\n        /* \"#utility.yul\":1722:2062   */\n      swap3\n      swap2\n      pop\n      pop\n      jump\t// out\n        /* \"#utility.yul\":2068:2207   */\n    tag_454:\n        /* \"#utility.yul\":2114:2119   */\n      0x00\n        /* \"#utility.yul\":2152:2158   */\n      dup2\n        /* \"#utility.yul\":2139:2159   */\n      calldataload\n        /* \"#utility.yul\":2130:2159   */\n      swap1\n      pop\n        /* \"#utility.yul\":2168:2201   */\n      tag_456\n        /* \"#utility.yul\":2195:2200   */\n      dup2\n        /* \"#utility.yul\":2168:2201   */\n      tag_457\n      jump\t// in\n    tag_456:\n        /* \"#utility.yul\":2068:2207   */\n      swap3\n      swap2\n      pop\n      pop\n      jump\t// out\n        /* \"#utility.yul\":2213:2348   */\n    tag_458:\n        /* \"#utility.yul\":2257:2262   */\n      0x00\n        /* \"#utility.yul\":2295:2301   */\n      dup2\n        /* \"#utility.yul\":2282:2302   */\n      calldataload\n        /* \"#utility.yul\":2273:2302   */\n      swap1\n      pop\n        /* \"#utility.yul\":2311:2342   */\n      tag_460\n        /* \"#utility.yul\":2336:2341   */\n      dup2\n        /* \"#utility.yul\":2311:2342   */\n      tag_461\n      jump\t// in\n    tag_460:\n        /* \"#utility.yul\":2213:2348   */\n      swap3\n      swap2\n      pop\n      pop\n      jump\t// out\n        /* \"#utility.yul\":2354:2683   */\n    tag_112:\n        /* \"#utility.yul\":2413:2419   */\n      0x00\n        /* \"#utility.yul\":2462:2464   */\n      0x20\n        /* \"#utility.yul\":2450:2459   */\n      dup3\n        /* \"#utility.yul\":2441:2448   */\n      dup5\n        /* \"#utility.yul\":2437:2460   */\n      sub\n        /* \"#utility.yul\":2433:2465   */\n      slt\n        /* \"#utility.yul\":2430:2549   */\n      iszero\n      tag_463\n      jumpi\n        /* \"#utility.yul\":2468:2547   */\n      tag_464\n      tag_465\n      jump\t// in\n    tag_464:\n        /* \"#utility.yul\":2430:2549   */\n    tag_463:\n        /* \"#utility.yul\":2588:2589   */\n      0x00\n        /* \"#utility.yul\":2613:2666   */\n      tag_466\n        /* \"#utility.yul\":2658:2665   */\n      dup5\n        /* \"#utility.yul\":2649:2655   */\n      dup3\n        /* \"#utility.yul\":2638:2647   */\n      dup6\n        /* \"#utility.yul\":2634:2656   */\n      add\n        /* \"#utility.yul\":2613:2666   */\n      tag_429\n      jump\t// in\n    tag_466:\n        /* \"#utility.yul\":2603:2666   */\n      swap2\n      pop\n        /* \"#utility.yul\":2559:2676   */\n      pop\n        /* \"#utility.yul\":2354:2683   */\n      swap3\n      swap2\n      pop\n      pop\n      jump\t// out\n        /* \"#utility.yul\":2689:3163   */\n    tag_171:\n        /* \"#utility.yul\":2757:2763   */\n      0x00\n        /* \"#utility.yul\":2765:2771   */\n      dup1\n        /* \"#utility.yul\":2814:2816   */\n      0x40\n        /* \"#utility.yul\":2802:2811   */\n      dup4\n        /* \"#utility.yul\":2793:2800   */\n      dup6\n        /* \"#utility.yul\":2789:2812   */\n      sub\n        /* \"#utility.yul\":2785:2817   */\n      slt\n        /* \"#utility.yul\":2782:2901   */\n      iszero\n      tag_468\n      jumpi\n        /* \"#utility.yul\":2820:2899   */\n      tag_469\n      tag_465\n      jump\t// in\n    tag_469:\n        /* \"#utility.yul\":2782:2901   */\n    tag_468:\n        /* \"#utility.yul\":2940:2941   */\n      0x00\n        /* \"#utility.yul\":2965:3018   */\n      tag_470\n        /* \"#utility.yul\":3010:3017   */\n      dup6\n        /* \"#utility.yul\":3001:3007   */\n      dup3\n        /* \"#utility.yul\":2990:2999   */\n      dup7\n        /* \"#utility.yul\":2986:3008   */\n      add\n        /* \"#utility.yul\":2965:3018   */\n      tag_429\n      jump\t// in\n    tag_470:\n        /* \"#utility.yul\":2955:3018   */\n      swap3\n      pop\n        /* \"#utility.yul\":2911:3028   */\n      pop\n        /* \"#utility.yul\":3067:3069   */\n      0x20\n        /* \"#utility.yul\":3093:3146   */\n      tag_471\n        /* \"#utility.yul\":3138:3145   */\n      dup6\n        /* \"#utility.yul\":3129:3135   */\n      dup3\n        /* \"#utility.yul\":3118:3127   */\n      dup7\n        /* \"#utility.yul\":3114:3136   */\n      add\n        /* \"#utility.yul\":3093:3146   */\n      tag_429\n      jump\t// in\n    tag_471:\n        /* \"#utility.yul\":3083:3146   */\n      swap2\n      pop\n        /* \"#utility.yul\":3038:3156   */\n      pop\n        /* \"#utility.yul\":2689:3163   */\n      swap3\n      pop\n      swap3\n      swap1\n      pop\n      jump\t// out\n        /* \"#utility.yul\":3169:3788   */\n    tag_66:\n        /* \"#utility.yul\":3246:3252   */\n      0x00\n        /* \"#utility.yul\":3254:3260   */\n      dup1\n        /* \"#utility.yul\":3262:3268   */\n      0x00\n        /* \"#utility.yul\":3311:3313   */\n      0x60\n        /* \"#utility.yul\":3299:3308   */\n      dup5\n        /* \"#utility.yul\":3290:3297   */\n      dup7\n        /* \"#utility.yul\":3286:3309   */\n      sub\n        /* \"#utility.yul\":3282:3314   */\n      slt\n        /* \"#utility.yul\":3279:3398   */\n      iszero\n      tag_473\n      jumpi\n        /* \"#utility.yul\":3317:3396   */\n      tag_474\n      tag_465\n      jump\t// in\n    tag_474:\n        /* \"#utility.yul\":3279:3398   */\n    tag_473:\n        /* \"#utility.yul\":3437:3438   */\n      0x00\n        /* \"#utility.yul\":3462:3515   */\n      tag_475\n        /* \"#utility.yul\":3507:3514   */\n      dup7\n        /* \"#utility.yul\":3498:3504   */\n      dup3\n        /* \"#utility.yul\":3487:3496   */\n      dup8\n        /* \"#utility.yul\":3483:3505   */\n      add\n        /* \"#utility.yul\":3462:3515   */\n      tag_429\n      jump\t// in\n    tag_475:\n        /* \"#utility.yul\":3452:3515   */\n      swap4\n      pop\n        /* \"#utility.yul\":3408:3525   */\n      pop\n        /* \"#utility.yul\":3564:3566   */\n      0x20\n        /* \"#utility.yul\":3590:3643   */\n      tag_476\n        /* \"#utility.yul\":3635:3642   */\n      dup7\n        /* \"#utility.yul\":3626:3632   */\n      dup3\n        /* \"#utility.yul\":3615:3624   */\n      dup8\n        /* \"#utility.yul\":3611:3633   */\n      add\n        /* \"#utility.yul\":3590:3643   */\n      tag_429\n      jump\t// in\n    tag_476:\n        /* \"#utility.yul\":3580:3643   */\n      swap3\n      pop\n        /* \"#utility.yul\":3535:3653   */\n      pop\n        /* \"#utility.yul\":3692:3694   */\n      0x40\n        /* \"#utility.yul\":3718:3771   */\n      tag_477\n        /* \"#utility.yul\":3763:3770   */\n      dup7\n        /* \"#utility.yul\":3754:3760   */\n      dup3\n        /* \"#utility.yul\":3743:3752   */\n      dup8\n        /* \"#utility.yul\":3739:3761   */\n      add\n        /* \"#utility.yul\":3718:3771   */\n      tag_454\n      jump\t// in\n    tag_477:\n        /* \"#utility.yul\":3708:3771   */\n      swap2\n      pop\n        /* \"#utility.yul\":3663:3781   */\n      pop\n        /* \"#utility.yul\":3169:3788   */\n      swap3\n      pop\n      swap3\n      pop\n      swap3\n      jump\t// out\n        /* \"#utility.yul\":3794:4268   */\n    tag_52:\n        /* \"#utility.yul\":3862:3868   */\n      0x00\n        /* \"#utility.yul\":3870:3876   */\n      dup1\n        /* \"#utility.yul\":3919:3921   */\n      0x40\n        /* \"#utility.yul\":3907:3916   */\n      dup4\n        /* \"#utility.yul\":3898:3905   */\n      dup6\n        /* \"#utility.yul\":3894:3917   */\n      sub\n        /* \"#utility.yul\":3890:3922   */\n      slt\n        /* \"#utility.yul\":3887:4006   */\n      iszero\n      tag_479\n      jumpi\n        /* \"#utility.yul\":3925:4004   */\n      tag_480\n      tag_465\n      jump\t// in\n    tag_480:\n        /* \"#utility.yul\":3887:4006   */\n    tag_479:\n        /* \"#utility.yul\":4045:4046   */\n      0x00\n        /* \"#utility.yul\":4070:4123   */\n      tag_481\n        /* \"#utility.yul\":4115:4122   */\n      dup6\n        /* \"#utility.yul\":4106:4112   */\n      dup3\n        /* \"#utility.yul\":4095:4104   */\n      dup7\n        /* \"#utility.yul\":4091:4113   */\n      add\n        /* \"#utility.yul\":4070:4123   */\n      tag_429\n      jump\t// in\n    tag_481:\n        /* \"#utility.yul\":4060:4123   */\n      swap3\n      pop\n        /* \"#utility.yul\":4016:4133   */\n      pop\n        /* \"#utility.yul\":4172:4174   */\n      0x20\n        /* \"#utility.yul\":4198:4251   */\n      tag_482\n        /* \"#utility.yul\":4243:4250   */\n      dup6\n        /* \"#utility.yul\":4234:4240   */\n      dup3\n        /* \"#utility.yul\":4223:4232   */\n      dup7\n        /* \"#utility.yul\":4219:4241   */\n      add\n        /* \"#utility.yul\":4198:4251   */\n      tag_454\n      jump\t// in\n    tag_482:\n        /* \"#utility.yul\":4188:4251   */\n      swap2\n      pop\n        /* \"#utility.yul\":4143:4261   */\n      pop\n        /* \"#utility.yul\":3794:4268   */\n      swap3\n      pop\n      swap3\n      swap1\n      pop\n      jump\t// out\n        /* \"#utility.yul\":4274:4893   */\n    tag_71:\n        /* \"#utility.yul\":4351:4357   */\n      0x00\n        /* \"#utility.yul\":4359:4365   */\n      dup1\n        /* \"#utility.yul\":4367:4373   */\n      0x00\n        /* \"#utility.yul\":4416:4418   */\n      0x60\n        /* \"#utility.yul\":4404:4413   */\n      dup5\n        /* \"#utility.yul\":4395:4402   */\n      dup7\n        /* \"#utility.yul\":4391:4414   */\n      sub\n        /* \"#utility.yul\":4387:4419   */\n      slt\n        /* \"#utility.yul\":4384:4503   */\n      iszero\n      tag_484\n      jumpi\n        /* \"#utility.yul\":4422:4501   */\n      tag_485\n      tag_465\n      jump\t// in\n    tag_485:\n        /* \"#utility.yul\":4384:4503   */\n    tag_484:\n        /* \"#utility.yul\":4542:4543   */\n      0x00\n        /* \"#utility.yul\":4567:4620   */\n      tag_486\n        /* \"#utility.yul\":4612:4619   */\n      dup7\n        /* \"#utility.yul\":4603:4609   */\n      dup3\n        /* \"#utility.yul\":4592:4601   */\n      dup8\n        /* \"#utility.yul\":4588:4610   */\n      add\n        /* \"#utility.yul\":4567:4620   */\n      tag_429\n      jump\t// in\n    tag_486:\n        /* \"#utility.yul\":4557:4620   */\n      swap4\n      pop\n        /* \"#utility.yul\":4513:4630   */\n      pop\n        /* \"#utility.yul\":4669:4671   */\n      0x20\n        /* \"#utility.yul\":4695:4748   */\n      tag_487\n        /* \"#utility.yul\":4740:4747   */\n      dup7\n        /* \"#utility.yul\":4731:4737   */\n      dup3\n        /* \"#utility.yul\":4720:4729   */\n      dup8\n        /* \"#utility.yul\":4716:4738   */\n      add\n        /* \"#utility.yul\":4695:4748   */\n      tag_454\n      jump\t// in\n    tag_487:\n        /* \"#utility.yul\":4685:4748   */\n      swap3\n      pop\n        /* \"#utility.yul\":4640:4758   */\n      pop\n        /* \"#utility.yul\":4797:4799   */\n      0x40\n        /* \"#utility.yul\":4823:4876   */\n      tag_488\n        /* \"#utility.yul\":4868:4875   */\n      dup7\n        /* \"#utility.yul\":4859:4865   */\n      dup3\n        /* \"#utility.yul\":4848:4857   */\n      dup8\n        /* \"#utility.yul\":4844:4866   */\n      add\n        /* \"#utility.yul\":4823:4876   */\n      tag_454\n      jump\t// in\n    tag_488:\n        /* \"#utility.yul\":4813:4876   */\n      swap2\n      pop\n        /* \"#utility.yul\":4768:4886   */\n      pop\n        /* \"#utility.yul\":4274:4893   */\n      swap3\n      pop\n      swap3\n      pop\n      swap3\n      jump\t// out\n        /* \"#utility.yul\":4899:5728   */\n    tag_58:\n        /* \"#utility.yul\":5001:5007   */\n      0x00\n        /* \"#utility.yul\":5009:5015   */\n      dup1\n        /* \"#utility.yul\":5017:5023   */\n      0x00\n        /* \"#utility.yul\":5066:5068   */\n      0x60\n        /* \"#utility.yul\":5054:5063   */\n      dup5\n        /* \"#utility.yul\":5045:5052   */\n      dup7\n        /* \"#utility.yul\":5041:5064   */\n      sub\n        /* \"#utility.yul\":5037:5069   */\n      slt\n        /* \"#utility.yul\":5034:5153   */\n      iszero\n      tag_490\n      jumpi\n        /* \"#utility.yul\":5072:5151   */\n      tag_491\n      tag_465\n      jump\t// in\n    tag_491:\n        /* \"#utility.yul\":5034:5153   */\n    tag_490:\n        /* \"#utility.yul\":5220:5221   */\n      0x00\n        /* \"#utility.yul\":5209:5218   */\n      dup5\n        /* \"#utility.yul\":5205:5222   */\n      add\n        /* \"#utility.yul\":5192:5223   */\n      calldataload\n        /* \"#utility.yul\":5250:5268   */\n      0xffffffffffffffff\n        /* \"#utility.yul\":5242:5248   */\n      dup2\n        /* \"#utility.yul\":5239:5269   */\n      gt\n        /* \"#utility.yul\":5236:5353   */\n      iszero\n      tag_492\n      jumpi\n        /* \"#utility.yul\":5272:5351   */\n      tag_493\n      tag_494\n      jump\t// in\n    tag_493:\n        /* \"#utility.yul\":5236:5353   */\n    tag_492:\n        /* \"#utility.yul\":5377:5455   */\n      tag_495\n        /* \"#utility.yul\":5447:5454   */\n      dup7\n        /* \"#utility.yul\":5438:5444   */\n      dup3\n        /* \"#utility.yul\":5427:5436   */\n      dup8\n        /* \"#utility.yul\":5423:5445   */\n      add\n        /* \"#utility.yul\":5377:5455   */\n      tag_443\n      jump\t// in\n    tag_495:\n        /* \"#utility.yul\":5367:5455   */\n      swap4\n      pop\n        /* \"#utility.yul\":5163:5465   */\n      pop\n        /* \"#utility.yul\":5504:5506   */\n      0x20\n        /* \"#utility.yul\":5530:5583   */\n      tag_496\n        /* \"#utility.yul\":5575:5582   */\n      dup7\n        /* \"#utility.yul\":5566:5572   */\n      dup3\n        /* \"#utility.yul\":5555:5564   */\n      dup8\n        /* \"#utility.yul\":5551:5573   */\n      add\n        /* \"#utility.yul\":5530:5583   */\n      tag_454\n      jump\t// in\n    tag_496:\n        /* \"#utility.yul\":5520:5583   */\n      swap3\n      pop\n        /* \"#utility.yul\":5475:5593   */\n      pop\n        /* \"#utility.yul\":5632:5634   */\n      0x40\n        /* \"#utility.yul\":5658:5711   */\n      tag_497\n        /* \"#utility.yul\":5703:5710   */\n      dup7\n        /* \"#utility.yul\":5694:5700   */\n      dup3\n        /* \"#utility.yul\":5683:5692   */\n      dup8\n        /* \"#utility.yul\":5679:5701   */\n      add\n        /* \"#utility.yul\":5658:5711   */\n      tag_454\n      jump\t// in\n    tag_497:\n        /* \"#utility.yul\":5648:5711   */\n      swap2\n      pop\n        /* \"#utility.yul\":5603:5721   */\n      pop\n        /* \"#utility.yul\":4899:5728   */\n      swap3\n      pop\n      swap3\n      pop\n      swap3\n      jump\t// out\n        /* \"#utility.yul\":5734:6243   */\n    tag_89:\n        /* \"#utility.yul\":5803:5809   */\n      0x00\n        /* \"#utility.yul\":5852:5854   */\n      0x20\n        /* \"#utility.yul\":5840:5849   */\n      dup3\n        /* \"#utility.yul\":5831:5838   */\n      dup5\n        /* \"#utility.yul\":5827:5850   */\n      sub\n        /* \"#utility.yul\":5823:5855   */\n      slt\n        /* \"#utility.yul\":5820:5939   */\n      iszero\n      tag_499\n      jumpi\n        /* \"#utility.yul\":5858:5937   */\n      tag_500\n      tag_465\n      jump\t// in\n    tag_500:\n        /* \"#utility.yul\":5820:5939   */\n    tag_499:\n        /* \"#utility.yul\":6006:6007   */\n      0x00\n        /* \"#utility.yul\":5995:6004   */\n      dup3\n        /* \"#utility.yul\":5991:6008   */\n      add\n        /* \"#utility.yul\":5978:6009   */\n      calldataload\n        /* \"#utility.yul\":6036:6054   */\n      0xffffffffffffffff\n        /* \"#utility.yul\":6028:6034   */\n      dup2\n        /* \"#utility.yul\":6025:6055   */\n      gt\n        /* \"#utility.yul\":6022:6139   */\n      iszero\n      tag_501\n      jumpi\n        /* \"#utility.yul\":6058:6137   */\n      tag_502\n      tag_494\n      jump\t// in\n    tag_502:\n        /* \"#utility.yul\":6022:6139   */\n    tag_501:\n        /* \"#utility.yul\":6163:6226   */\n      tag_503\n        /* \"#utility.yul\":6218:6225   */\n      dup5\n        /* \"#utility.yul\":6209:6215   */\n      dup3\n        /* \"#utility.yul\":6198:6207   */\n      dup6\n        /* \"#utility.yul\":6194:6216   */\n      add\n        /* \"#utility.yul\":6163:6226   */\n      tag_449\n      jump\t// in\n    tag_503:\n        /* \"#utility.yul\":6153:6226   */\n      swap2\n      pop\n        /* \"#utility.yul\":5949:6236   */\n      pop\n        /* \"#utility.yul\":5734:6243   */\n      swap3\n      swap2\n      pop\n      pop\n      jump\t// out\n        /* \"#utility.yul\":6249:6578   */\n    tag_99:\n        /* \"#utility.yul\":6308:6314   */\n      0x00\n        /* \"#utility.yul\":6357:6359   */\n      0x20\n        /* \"#utility.yul\":6345:6354   */\n      dup3\n        /* \"#utility.yul\":6336:6343   */\n      dup5\n        /* \"#utility.yul\":6332:6355   */\n      sub\n        /* \"#utility.yul\":6328:6360   */\n      slt\n        /* \"#utility.yul\":6325:6444   */\n      iszero\n      tag_505\n      jumpi\n        /* \"#utility.yul\":6363:6442   */\n      tag_506\n      tag_465\n      jump\t// in\n    tag_506:\n        /* \"#utility.yul\":6325:6444   */\n    tag_505:\n        /* \"#utility.yul\":6483:6484   */\n      0x00\n        /* \"#utility.yul\":6508:6561   */\n      tag_507\n        /* \"#utility.yul\":6553:6560   */\n      dup5\n        /* \"#utility.yul\":6544:6550   */\n      dup3\n        /* \"#utility.yul\":6533:6542   */\n      dup6\n        /* \"#utility.yul\":6529:6551   */\n      add\n        /* \"#utility.yul\":6508:6561   */\n      tag_454\n      jump\t// in\n    tag_507:\n        /* \"#utility.yul\":6498:6561   */\n      swap2\n      pop\n        /* \"#utility.yul\":6454:6571   */\n      pop\n        /* \"#utility.yul\":6249:6578   */\n      swap3\n      swap2\n      pop\n      pop\n      jump\t// out\n        /* \"#utility.yul\":6584:6909   */\n    tag_120:\n        /* \"#utility.yul\":6641:6647   */\n      0x00\n        /* \"#utility.yul\":6690:6692   */\n      0x20\n        /* \"#utility.yul\":6678:6687   */\n      dup3\n        /* \"#utility.yul\":6669:6676   */\n      dup5\n        /* \"#utility.yul\":6665:6688   */\n      sub\n        /* \"#utility.yul\":6661:6693   */\n      slt\n        /* \"#utility.yul\":6658:6777   */\n      iszero\n      tag_509\n      jumpi\n        /* \"#utility.yul\":6696:6775   */\n      tag_510\n      tag_465\n      jump\t// in\n    tag_510:\n        /* \"#utility.yul\":6658:6777   */\n    tag_509:\n        /* \"#utility.yul\":6816:6817   */\n      0x00\n        /* \"#utility.yul\":6841:6892   */\n      tag_511\n        /* \"#utility.yul\":6884:6891   */\n      dup5\n        /* \"#utility.yul\":6875:6881   */\n      dup3\n        /* \"#utility.yul\":6864:6873   */\n      dup6\n        /* \"#utility.yul\":6860:6882   */\n      add\n        /* \"#utility.yul\":6841:6892   */\n      tag_458\n      jump\t// in\n    tag_511:\n        /* \"#utility.yul\":6831:6892   */\n      swap2\n      pop\n        /* \"#utility.yul\":6787:6902   */\n      pop\n        /* \"#utility.yul\":6584:6909   */\n      swap3\n      swap2\n      pop\n      pop\n      jump\t// out\n        /* \"#utility.yul\":6915:7033   */\n    tag_512:\n        /* \"#utility.yul\":7002:7026   */\n      tag_514\n        /* \"#utility.yul\":7020:7025   */\n      dup2\n        /* \"#utility.yul\":7002:7026   */\n      tag_515\n      jump\t// in\n    tag_514:\n        /* \"#utility.yul\":6997:7000   */\n      dup3\n        /* \"#utility.yul\":6990:7027   */\n      mstore\n        /* \"#utility.yul\":6915:7033   */\n      pop\n      pop\n      jump\t// out\n        /* \"#utility.yul\":7039:7148   */\n    tag_516:\n        /* \"#utility.yul\":7120:7141   */\n      tag_518\n        /* \"#utility.yul\":7135:7140   */\n      dup2\n        /* \"#utility.yul\":7120:7141   */\n      tag_519\n      jump\t// in\n    tag_518:\n        /* \"#utility.yul\":7115:7118   */\n      dup3\n        /* \"#utility.yul\":7108:7142   */\n      mstore\n        /* \"#utility.yul\":7039:7148   */\n      pop\n      pop\n      jump\t// out\n        /* \"#utility.yul\":7154:7518   */\n    tag_520:\n        /* \"#utility.yul\":7242:7245   */\n      0x00\n        /* \"#utility.yul\":7270:7309   */\n      tag_522\n        /* \"#utility.yul\":7303:7308   */\n      dup3\n        /* \"#utility.yul\":7270:7309   */\n      tag_523\n      jump\t// in\n    tag_522:\n        /* \"#utility.yul\":7325:7396   */\n      tag_524\n        /* \"#utility.yul\":7389:7395   */\n      dup2\n        /* \"#utility.yul\":7384:7387   */\n      dup6\n        /* \"#utility.yul\":7325:7396   */\n      tag_525\n      jump\t// in\n    tag_524:\n        /* \"#utility.yul\":7318:7396   */\n      swap4\n      pop\n        /* \"#utility.yul\":7405:7457   */\n      tag_526\n        /* \"#utility.yul\":7450:7456   */\n      dup2\n        /* \"#utility.yul\":7445:7448   */\n      dup6\n        /* \"#utility.yul\":7438:7442   */\n      0x20\n        /* \"#utility.yul\":7431:7436   */\n      dup7\n        /* \"#utility.yul\":7427:7443   */\n      add\n        /* \"#utility.yul\":7405:7457   */\n      tag_527\n      jump\t// in\n    tag_526:\n        /* \"#utility.yul\":7482:7511   */\n      tag_528\n        /* \"#utility.yul\":7504:7510   */\n      dup2\n        /* \"#utility.yul\":7482:7511   */\n      tag_529\n      jump\t// in\n    tag_528:\n        /* \"#utility.yul\":7477:7480   */\n      dup5\n        /* \"#utility.yul\":7473:7512   */\n      add\n        /* \"#utility.yul\":7466:7512   */\n      swap2\n      pop\n        /* \"#utility.yul\":7246:7518   */\n      pop\n        /* \"#utility.yul\":7154:7518   */\n      swap3\n      swap2\n      pop\n      pop\n      jump\t// out\n        /* \"#utility.yul\":7524:7890   */\n    tag_530:\n        /* \"#utility.yul\":7666:7669   */\n      0x00\n        /* \"#utility.yul\":7687:7754   */\n      tag_532\n        /* \"#utility.yul\":7751:7753   */\n      0x21\n        /* \"#utility.yul\":7746:7749   */\n      dup4\n        /* \"#utility.yul\":7687:7754   */\n      tag_525\n      jump\t// in\n    tag_532:\n        /* \"#utility.yul\":7680:7754   */\n      swap2\n      pop\n        /* \"#utility.yul\":7763:7856   */\n      tag_533\n        /* \"#utility.yul\":7852:7855   */\n      dup3\n        /* \"#utility.yul\":7763:7856   */\n      tag_534\n      jump\t// in\n    tag_533:\n        /* \"#utility.yul\":7881:7883   */\n      0x40\n        /* \"#utility.yul\":7876:7879   */\n      dup3\n        /* \"#utility.yul\":7872:7884   */\n      add\n        /* \"#utility.yul\":7865:7884   */\n      swap1\n      pop\n        /* \"#utility.yul\":7524:7890   */\n      swap2\n      swap1\n      pop\n      jump\t// out\n        /* \"#utility.yul\":7896:8262   */\n    tag_535:\n        /* \"#utility.yul\":8038:8041   */\n      0x00\n        /* \"#utility.yul\":8059:8126   */\n      tag_537\n        /* \"#utility.yul\":8123:8125   */\n      0x23\n        /* \"#utility.yul\":8118:8121   */\n      dup4\n        /* \"#utility.yul\":8059:8126   */\n      tag_525\n      jump\t// in\n    tag_537:\n        /* \"#utility.yul\":8052:8126   */\n      swap2\n      pop\n        /* \"#utility.yul\":8135:8228   */\n      tag_538\n        /* \"#utility.yul\":8224:8227   */\n      dup3\n        /* \"#utility.yul\":8135:8228   */\n      tag_539\n      jump\t// in\n    tag_538:\n        /* \"#utility.yul\":8253:8255   */\n      0x40\n        /* \"#utility.yul\":8248:8251   */\n      dup3\n        /* \"#utility.yul\":8244:8256   */\n      add\n        /* \"#utility.yul\":8237:8256   */\n      swap1\n      pop\n        /* \"#utility.yul\":7896:8262   */\n      swap2\n      swap1\n      pop\n      jump\t// out\n        /* \"#utility.yul\":8268:8634   */\n    tag_540:\n        /* \"#utility.yul\":8410:8413   */\n      0x00\n        /* \"#utility.yul\":8431:8498   */\n      tag_542\n        /* \"#utility.yul\":8495:8497   */\n      0x17\n        /* \"#utility.yul\":8490:8493   */\n      dup4\n        /* \"#utility.yul\":8431:8498   */\n      tag_525\n      jump\t// in\n    tag_542:\n        /* \"#utility.yul\":8424:8498   */\n      swap2\n      pop\n        /* \"#utility.yul\":8507:8600   */\n      tag_543\n        /* \"#utility.yul\":8596:8599   */\n      dup3\n        /* \"#utility.yul\":8507:8600   */\n      tag_544\n      jump\t// in\n    tag_543:\n        /* \"#utility.yul\":8625:8627   */\n      0x20\n        /* \"#utility.yul\":8620:8623   */\n      dup3\n        /* \"#utility.yul\":8616:8628   */\n      add\n        /* \"#utility.yul\":8609:8628   */\n      swap1\n      pop\n        /* \"#utility.yul\":8268:8634   */\n      swap2\n      swap1\n      pop\n      jump\t// out\n        /* \"#utility.yul\":8640:9006   */\n    tag_545:\n        /* \"#utility.yul\":8782:8785   */\n      0x00\n        /* \"#utility.yul\":8803:8870   */\n      tag_547\n        /* \"#utility.yul\":8867:8869   */\n      0x3b\n        /* \"#utility.yul\":8862:8865   */\n      dup4\n        /* \"#utility.yul\":8803:8870   */\n      tag_525\n      jump\t// in\n    tag_547:\n        /* \"#utility.yul\":8796:8870   */\n      swap2\n      pop\n        /* \"#utility.yul\":8879:8972   */\n      tag_548\n        /* \"#utility.yul\":8968:8971   */\n      dup3\n        /* \"#utility.yul\":8879:8972   */\n      tag_549\n      jump\t// in\n    tag_548:\n        /* \"#utility.yul\":8997:8999   */\n      0x40\n        /* \"#utility.yul\":8992:8995   */\n      dup3\n        /* \"#utility.yul\":8988:9000   */\n      add\n        /* \"#utility.yul\":8981:9000   */\n      swap1\n      pop\n        /* \"#utility.yul\":8640:9006   */\n      swap2\n      swap1\n      pop\n      jump\t// out\n        /* \"#utility.yul\":9012:9378   */\n    tag_550:\n        /* \"#utility.yul\":9154:9157   */\n      0x00\n        /* \"#utility.yul\":9175:9242   */\n      tag_552\n        /* \"#utility.yul\":9239:9241   */\n      0x2b\n        /* \"#utility.yul\":9234:9237   */\n      dup4\n        /* \"#utility.yul\":9175:9242   */\n      tag_525\n      jump\t// in\n    tag_552:\n        /* \"#utility.yul\":9168:9242   */\n      swap2\n      pop\n        /* \"#utility.yul\":9251:9344   */\n      tag_553\n        /* \"#utility.yul\":9340:9343   */\n      dup3\n        /* \"#utility.yul\":9251:9344   */\n      tag_554\n      jump\t// in\n    tag_553:\n        /* \"#utility.yul\":9369:9371   */\n      0x40\n        /* \"#utility.yul\":9364:9367   */\n      dup3\n        /* \"#utility.yul\":9360:9372   */\n      add\n        /* \"#utility.yul\":9353:9372   */\n      swap1\n      pop\n        /* \"#utility.yul\":9012:9378   */\n      swap2\n      swap1\n      pop\n      jump\t// out\n        /* \"#utility.yul\":9384:9750   */\n    tag_555:\n        /* \"#utility.yul\":9526:9529   */\n      0x00\n        /* \"#utility.yul\":9547:9614   */\n      tag_557\n        /* \"#utility.yul\":9611:9613   */\n      0x21\n        /* \"#utility.yul\":9606:9609   */\n      dup4\n        /* \"#utility.yul\":9547:9614   */\n      tag_525\n      jump\t// in\n    tag_557:\n        /* \"#utility.yul\":9540:9614   */\n      swap2\n      pop\n        /* \"#utility.yul\":9623:9716   */\n      tag_558\n        /* \"#utility.yul\":9712:9715   */\n      dup3\n        /* \"#utility.yul\":9623:9716   */\n      tag_559\n      jump\t// in\n    tag_558:\n        /* \"#utility.yul\":9741:9743   */\n      0x40\n        /* \"#utility.yul\":9736:9739   */\n      dup3\n        /* \"#utility.yul\":9732:9744   */\n      add\n        /* \"#utility.yul\":9725:9744   */\n      swap1\n      pop\n        /* \"#utility.yul\":9384:9750   */\n      swap2\n      swap1\n      pop\n      jump\t// out\n        /* \"#utility.yul\":9756:10122   */\n    tag_560:\n        /* \"#utility.yul\":9898:9901   */\n      0x00\n        /* \"#utility.yul\":9919:9986   */\n      tag_562\n        /* \"#utility.yul\":9983:9985   */\n      0x41\n        /* \"#utility.yul\":9978:9981   */\n      dup4\n        /* \"#utility.yul\":9919:9986   */\n      tag_525\n      jump\t// in\n    tag_562:\n        /* \"#utility.yul\":9912:9986   */\n      swap2\n      pop\n        /* \"#utility.yul\":9995:10088   */\n      tag_563\n        /* \"#utility.yul\":10084:10087   */\n      dup3\n        /* \"#utility.yul\":9995:10088   */\n      tag_564\n      jump\t// in\n    tag_563:\n        /* \"#utility.yul\":10113:10115   */\n      0x60\n        /* \"#utility.yul\":10108:10111   */\n      dup3\n        /* \"#utility.yul\":10104:10116   */\n      add\n        /* \"#utility.yul\":10097:10116   */\n      swap1\n      pop\n        /* \"#utility.yul\":9756:10122   */\n      swap2\n      swap1\n      pop\n      jump\t// out\n        /* \"#utility.yul\":10128:10494   */\n    tag_565:\n        /* \"#utility.yul\":10270:10273   */\n      0x00\n        /* \"#utility.yul\":10291:10358   */\n      tag_567\n        /* \"#utility.yul\":10355:10357   */\n      0x3c\n        /* \"#utility.yul\":10350:10353   */\n      dup4\n        /* \"#utility.yul\":10291:10358   */\n      tag_525\n      jump\t// in\n    tag_567:\n        /* \"#utility.yul\":10284:10358   */\n      swap2\n      pop\n        /* \"#utility.yul\":10367:10460   */\n      tag_568\n        /* \"#utility.yul\":10456:10459   */\n      dup3\n        /* \"#utility.yul\":10367:10460   */\n      tag_569\n      jump\t// in\n    tag_568:\n        /* \"#utility.yul\":10485:10487   */\n      0x40\n        /* \"#utility.yul\":10480:10483   */\n      dup3\n        /* \"#utility.yul\":10476:10488   */\n      add\n        /* \"#utility.yul\":10469:10488   */\n      swap1\n      pop\n        /* \"#utility.yul\":10128:10494   */\n      swap2\n      swap1\n      pop\n      jump\t// out\n        /* \"#utility.yul\":10500:10866   */\n    tag_570:\n        /* \"#utility.yul\":10642:10645   */\n      0x00\n        /* \"#utility.yul\":10663:10730   */\n      tag_572\n        /* \"#utility.yul\":10727:10729   */\n      0x38\n        /* \"#utility.yul\":10722:10725   */\n      dup4\n        /* \"#utility.yul\":10663:10730   */\n      tag_525\n      jump\t// in\n    tag_572:\n        /* \"#utility.yul\":10656:10730   */\n      swap2\n      pop\n        /* \"#utility.yul\":10739:10832   */\n      tag_573\n        /* \"#utility.yul\":10828:10831   */\n      dup3\n        /* \"#utility.yul\":10739:10832   */\n      tag_574\n      jump\t// in\n    tag_573:\n        /* \"#utility.yul\":10857:10859   */\n      0x40\n        /* \"#utility.yul\":10852:10855   */\n      dup3\n        /* \"#utility.yul\":10848:10860   */\n      add\n        /* \"#utility.yul\":10841:10860   */\n      swap1\n      pop\n        /* \"#utility.yul\":10500:10866   */\n      swap2\n      swap1\n      pop\n      jump\t// out\n        /* \"#utility.yul\":10872:11238   */\n    tag_575:\n        /* \"#utility.yul\":11014:11017   */\n      0x00\n        /* \"#utility.yul\":11035:11102   */\n      tag_577\n        /* \"#utility.yul\":11099:11101   */\n      0x28\n        /* \"#utility.yul\":11094:11097   */\n      dup4\n        /* \"#utility.yul\":11035:11102   */\n      tag_525\n      jump\t// in\n    tag_577:\n        /* \"#utility.yul\":11028:11102   */\n      swap2\n      pop\n        /* \"#utility.yul\":11111:11204   */\n      tag_578\n        /* \"#utility.yul\":11200:11203   */\n      dup3\n        /* \"#utility.yul\":11111:11204   */\n      tag_579\n      jump\t// in\n    tag_578:\n        /* \"#utility.yul\":11229:11231   */\n      0x40\n        /* \"#utility.yul\":11224:11227   */\n      dup3\n        /* \"#utility.yul\":11220:11232   */\n      add\n        /* \"#utility.yul\":11213:11232   */\n      swap1\n      pop\n        /* \"#utility.yul\":10872:11238   */\n      swap2\n      swap1\n      pop\n      jump\t// out\n        /* \"#utility.yul\":11244:11362   */\n    tag_580:\n        /* \"#utility.yul\":11331:11355   */\n      tag_582\n        /* \"#utility.yul\":11349:11354   */\n      dup2\n        /* \"#utility.yul\":11331:11355   */\n      tag_583\n      jump\t// in\n    tag_582:\n        /* \"#utility.yul\":11326:11329   */\n      dup3\n        /* \"#utility.yul\":11319:11356   */\n      mstore\n        /* \"#utility.yul\":11244:11362   */\n      pop\n      pop\n      jump\t// out\n        /* \"#utility.yul\":11368:11480   */\n    tag_584:\n        /* \"#utility.yul\":11451:11473   */\n      tag_586\n        /* \"#utility.yul\":11467:11472   */\n      dup2\n        /* \"#utility.yul\":11451:11473   */\n      tag_587\n      jump\t// in\n    tag_586:\n        /* \"#utility.yul\":11446:11449   */\n      dup3\n        /* \"#utility.yul\":11439:11474   */\n      mstore\n        /* \"#utility.yul\":11368:11480   */\n      pop\n      pop\n      jump\t// out\n        /* \"#utility.yul\":11486:11708   */\n    tag_129:\n        /* \"#utility.yul\":11579:11583   */\n      0x00\n        /* \"#utility.yul\":11617:11619   */\n      0x20\n        /* \"#utility.yul\":11606:11615   */\n      dup3\n        /* \"#utility.yul\":11602:11620   */\n      add\n        /* \"#utility.yul\":11594:11620   */\n      swap1\n      pop\n        /* \"#utility.yul\":11630:11701   */\n      tag_589\n        /* \"#utility.yul\":11698:11699   */\n      0x00\n        /* \"#utility.yul\":11687:11696   */\n      dup4\n        /* \"#utility.yul\":11683:11700   */\n      add\n        /* \"#utility.yul\":11674:11680   */\n      dup5\n        /* \"#utility.yul\":11630:11701   */\n      tag_512\n      jump\t// in\n    tag_589:\n        /* \"#utility.yul\":11486:11708   */\n      swap3\n      swap2\n      pop\n      pop\n      jump\t// out\n        /* \"#utility.yul\":11714:12267   */\n    tag_226:\n        /* \"#utility.yul\":11891:11895   */\n      0x00\n        /* \"#utility.yul\":11929:11932   */\n      0x80\n        /* \"#utility.yul\":11918:11927   */\n      dup3\n        /* \"#utility.yul\":11914:11933   */\n      add\n        /* \"#utility.yul\":11906:11933   */\n      swap1\n      pop\n        /* \"#utility.yul\":11943:12014   */\n      tag_591\n        /* \"#utility.yul\":12011:12012   */\n      0x00\n        /* \"#utility.yul\":12000:12009   */\n      dup4\n        /* \"#utility.yul\":11996:12013   */\n      add\n        /* \"#utility.yul\":11987:11993   */\n      dup8\n        /* \"#utility.yul\":11943:12014   */\n      tag_512\n      jump\t// in\n    tag_591:\n        /* \"#utility.yul\":12024:12096   */\n      tag_592\n        /* \"#utility.yul\":12092:12094   */\n      0x20\n        /* \"#utility.yul\":12081:12090   */\n      dup4\n        /* \"#utility.yul\":12077:12095   */\n      add\n        /* \"#utility.yul\":12068:12074   */\n      dup7\n        /* \"#utility.yul\":12024:12096   */\n      tag_512\n      jump\t// in\n    tag_592:\n        /* \"#utility.yul\":12106:12178   */\n      tag_593\n        /* \"#utility.yul\":12174:12176   */\n      0x40\n        /* \"#utility.yul\":12163:12172   */\n      dup4\n        /* \"#utility.yul\":12159:12177   */\n      add\n        /* \"#utility.yul\":12150:12156   */\n      dup6\n        /* \"#utility.yul\":12106:12178   */\n      tag_512\n      jump\t// in\n    tag_593:\n        /* \"#utility.yul\":12188:12260   */\n      tag_594\n        /* \"#utility.yul\":12256:12258   */\n      0x60\n        /* \"#utility.yul\":12245:12254   */\n      dup4\n        /* \"#utility.yul\":12241:12259   */\n      add\n        /* \"#utility.yul\":12232:12238   */\n      dup5\n        /* \"#utility.yul\":12188:12260   */\n      tag_580\n      jump\t// in\n    tag_594:\n        /* \"#utility.yul\":11714:12267   */\n      swap6\n      swap5\n      pop\n      pop\n      pop\n      pop\n      pop\n      jump\t// out\n        /* \"#utility.yul\":12273:12483   */\n    tag_55:\n        /* \"#utility.yul\":12360:12364   */\n      0x00\n        /* \"#utility.yul\":12398:12400   */\n      0x20\n        /* \"#utility.yul\":12387:12396   */\n      dup3\n        /* \"#utility.yul\":12383:12401   */\n      add\n        /* \"#utility.yul\":12375:12401   */\n      swap1\n      pop\n        /* \"#utility.yul\":12411:12476   */\n      tag_596\n        /* \"#utility.yul\":12473:12474   */\n      0x00\n        /* \"#utility.yul\":12462:12471   */\n      dup4\n        /* \"#utility.yul\":12458:12475   */\n      add\n        /* \"#utility.yul\":12449:12455   */\n      dup5\n        /* \"#utility.yul\":12411:12476   */\n      tag_516\n      jump\t// in\n    tag_596:\n        /* \"#utility.yul\":12273:12483   */\n      swap3\n      swap2\n      pop\n      pop\n      jump\t// out\n        /* \"#utility.yul\":12489:12802   */\n    tag_49:\n        /* \"#utility.yul\":12602:12606   */\n      0x00\n        /* \"#utility.yul\":12640:12642   */\n      0x20\n        /* \"#utility.yul\":12629:12638   */\n      dup3\n        /* \"#utility.yul\":12625:12643   */\n      add\n        /* \"#utility.yul\":12617:12643   */\n      swap1\n      pop\n        /* \"#utility.yul\":12689:12698   */\n      dup2\n        /* \"#utility.yul\":12683:12687   */\n      dup2\n        /* \"#utility.yul\":12679:12699   */\n      sub\n        /* \"#utility.yul\":12675:12676   */\n      0x00\n        /* \"#utility.yul\":12664:12673   */\n      dup4\n        /* \"#utility.yul\":12660:12677   */\n      add\n        /* \"#utility.yul\":12653:12700   */\n      mstore\n        /* \"#utility.yul\":12717:12795   */\n      tag_598\n        /* \"#utility.yul\":12790:12794   */\n      dup2\n        /* \"#utility.yul\":12781:12787   */\n      dup5\n        /* \"#utility.yul\":12717:12795   */\n      tag_520\n      jump\t// in\n    tag_598:\n        /* \"#utility.yul\":12709:12795   */\n      swap1\n      pop\n        /* \"#utility.yul\":12489:12802   */\n      swap3\n      swap2\n      pop\n      pop\n      jump\t// out\n        /* \"#utility.yul\":12808:13227   */\n    tag_234:\n        /* \"#utility.yul\":12974:12978   */\n      0x00\n        /* \"#utility.yul\":13012:13014   */\n      0x20\n        /* \"#utility.yul\":13001:13010   */\n      dup3\n        /* \"#utility.yul\":12997:13015   */\n      add\n        /* \"#utility.yul\":12989:13015   */\n      swap1\n      pop\n        /* \"#utility.yul\":13061:13070   */\n      dup2\n        /* \"#utility.yul\":13055:13059   */\n      dup2\n        /* \"#utility.yul\":13051:13071   */\n      sub\n        /* \"#utility.yul\":13047:13048   */\n      0x00\n        /* \"#utility.yul\":13036:13045   */\n      dup4\n        /* \"#utility.yul\":13032:13049   */\n      add\n        /* \"#utility.yul\":13025:13072   */\n      mstore\n        /* \"#utility.yul\":13089:13220   */\n      tag_600\n        /* \"#utility.yul\":13215:13219   */\n      dup2\n        /* \"#utility.yul\":13089:13220   */\n      tag_530\n      jump\t// in\n    tag_600:\n        /* \"#utility.yul\":13081:13220   */\n      swap1\n      pop\n        /* \"#utility.yul\":12808:13227   */\n      swap2\n      swap1\n      pop\n      jump\t// out\n        /* \"#utility.yul\":13233:13652   */\n    tag_190:\n        /* \"#utility.yul\":13399:13403   */\n      0x00\n        /* \"#utility.yul\":13437:13439   */\n      0x20\n        /* \"#utility.yul\":13426:13435   */\n      dup3\n        /* \"#utility.yul\":13422:13440   */\n      add\n        /* \"#utility.yul\":13414:13440   */\n      swap1\n      pop\n        /* \"#utility.yul\":13486:13495   */\n      dup2\n        /* \"#utility.yul\":13480:13484   */\n      dup2\n        /* \"#utility.yul\":13476:13496   */\n      sub\n        /* \"#utility.yul\":13472:13473   */\n      0x00\n        /* \"#utility.yul\":13461:13470   */\n      dup4\n        /* \"#utility.yul\":13457:13474   */\n      add\n        /* \"#utility.yul\":13450:13497   */\n      mstore\n        /* \"#utility.yul\":13514:13645   */\n      tag_602\n        /* \"#utility.yul\":13640:13644   */\n      dup2\n        /* \"#utility.yul\":13514:13645   */\n      tag_535\n      jump\t// in\n    tag_602:\n        /* \"#utility.yul\":13506:13645   */\n      swap1\n      pop\n        /* \"#utility.yul\":13233:13652   */\n      swap2\n      swap1\n      pop\n      jump\t// out\n        /* \"#utility.yul\":13658:14077   */\n    tag_193:\n        /* \"#utility.yul\":13824:13828   */\n      0x00\n        /* \"#utility.yul\":13862:13864   */\n      0x20\n        /* \"#utility.yul\":13851:13860   */\n      dup3\n        /* \"#utility.yul\":13847:13865   */\n      add\n        /* \"#utility.yul\":13839:13865   */\n      swap1\n      pop\n        /* \"#utility.yul\":13911:13920   */\n      dup2\n        /* \"#utility.yul\":13905:13909   */\n      dup2\n        /* \"#utility.yul\":13901:13921   */\n      sub\n        /* \"#utility.yul\":13897:13898   */\n      0x00\n        /* \"#utility.yul\":13886:13895   */\n      dup4\n        /* \"#utility.yul\":13882:13899   */\n      add\n        /* \"#utility.yul\":13875:13922   */\n      mstore\n        /* \"#utility.yul\":13939:14070   */\n      tag_604\n        /* \"#utility.yul\":14065:14069   */\n      dup2\n        /* \"#utility.yul\":13939:14070   */\n      tag_540\n      jump\t// in\n    tag_604:\n        /* \"#utility.yul\":13931:14070   */\n      swap1\n      pop\n        /* \"#utility.yul\":13658:14077   */\n      swap2\n      swap1\n      pop\n      jump\t// out\n        /* \"#utility.yul\":14083:14502   */\n    tag_272:\n        /* \"#utility.yul\":14249:14253   */\n      0x00\n        /* \"#utility.yul\":14287:14289   */\n      0x20\n        /* \"#utility.yul\":14276:14285   */\n      dup3\n        /* \"#utility.yul\":14272:14290   */\n      add\n        /* \"#utility.yul\":14264:14290   */\n      swap1\n      pop\n        /* \"#utility.yul\":14336:14345   */\n      dup2\n        /* \"#utility.yul\":14330:14334   */\n      dup2\n        /* \"#utility.yul\":14326:14346   */\n      sub\n        /* \"#utility.yul\":14322:14323   */\n      0x00\n        /* \"#utility.yul\":14311:14320   */\n      dup4\n        /* \"#utility.yul\":14307:14324   */\n      add\n        /* \"#utility.yul\":14300:14347   */\n      mstore\n        /* \"#utility.yul\":14364:14495   */\n      tag_606\n        /* \"#utility.yul\":14490:14494   */\n      dup2\n        /* \"#utility.yul\":14364:14495   */\n      tag_545\n      jump\t// in\n    tag_606:\n        /* \"#utility.yul\":14356:14495   */\n      swap1\n      pop\n        /* \"#utility.yul\":14083:14502   */\n      swap2\n      swap1\n      pop\n      jump\t// out\n        /* \"#utility.yul\":14508:14927   */\n    tag_313:\n        /* \"#utility.yul\":14674:14678   */\n      0x00\n        /* \"#utility.yul\":14712:14714   */\n      0x20\n        /* \"#utility.yul\":14701:14710   */\n      dup3\n        /* \"#utility.yul\":14697:14715   */\n      add\n        /* \"#utility.yul\":14689:14715   */\n      swap1\n      pop\n        /* \"#utility.yul\":14761:14770   */\n      dup2\n        /* \"#utility.yul\":14755:14759   */\n      dup2\n        /* \"#utility.yul\":14751:14771   */\n      sub\n        /* \"#utility.yul\":14747:14748   */\n      0x00\n        /* \"#utility.yul\":14736:14745   */\n      dup4\n        /* \"#utility.yul\":14732:14749   */\n      add\n        /* \"#utility.yul\":14725:14772   */\n      mstore\n        /* \"#utility.yul\":14789:14920   */\n      tag_608\n        /* \"#utility.yul\":14915:14919   */\n      dup2\n        /* \"#utility.yul\":14789:14920   */\n      tag_550\n      jump\t// in\n    tag_608:\n        /* \"#utility.yul\":14781:14920   */\n      swap1\n      pop\n        /* \"#utility.yul\":14508:14927   */\n      swap2\n      swap1\n      pop\n      jump\t// out\n        /* \"#utility.yul\":14933:15352   */\n    tag_385:\n        /* \"#utility.yul\":15099:15103   */\n      0x00\n        /* \"#utility.yul\":15137:15139   */\n      0x20\n        /* \"#utility.yul\":15126:15135   */\n      dup3\n        /* \"#utility.yul\":15122:15140   */\n      add\n        /* \"#utility.yul\":15114:15140   */\n      swap1\n      pop\n        /* \"#utility.yul\":15186:15195   */\n      dup2\n        /* \"#utility.yul\":15180:15184   */\n      dup2\n        /* \"#utility.yul\":15176:15196   */\n      sub\n        /* \"#utility.yul\":15172:15173   */\n      0x00\n        /* \"#utility.yul\":15161:15170   */\n      dup4\n        /* \"#utility.yul\":15157:15174   */\n      add\n        /* \"#utility.yul\":15150:15197   */\n      mstore\n        /* \"#utility.yul\":15214:15345   */\n      tag_610\n        /* \"#utility.yul\":15340:15344   */\n      dup2\n        /* \"#utility.yul\":15214:15345   */\n      tag_555\n      jump\t// in\n    tag_610:\n        /* \"#utility.yul\":15206:15345   */\n      swap1\n      pop\n        /* \"#utility.yul\":14933:15352   */\n      swap2\n      swap1\n      pop\n      jump\t// out\n        /* \"#utility.yul\":15358:15777   */\n    tag_198:\n        /* \"#utility.yul\":15524:15528   */\n      0x00\n        /* \"#utility.yul\":15562:15564   */\n      0x20\n        /* \"#utility.yul\":15551:15560   */\n      dup3\n        /* \"#utility.yul\":15547:15565   */\n      add\n        /* \"#utility.yul\":15539:15565   */\n      swap1\n      pop\n        /* \"#utility.yul\":15611:15620   */\n      dup2\n        /* \"#utility.yul\":15605:15609   */\n      dup2\n        /* \"#utility.yul\":15601:15621   */\n      sub\n        /* \"#utility.yul\":15597:15598   */\n      0x00\n        /* \"#utility.yul\":15586:15595   */\n      dup4\n        /* \"#utility.yul\":15582:15599   */\n      add\n        /* \"#utility.yul\":15575:15622   */\n      mstore\n        /* \"#utility.yul\":15639:15770   */\n      tag_612\n        /* \"#utility.yul\":15765:15769   */\n      dup2\n        /* \"#utility.yul\":15639:15770   */\n      tag_560\n      jump\t// in\n    tag_612:\n        /* \"#utility.yul\":15631:15770   */\n      swap1\n      pop\n        /* \"#utility.yul\":15358:15777   */\n      swap2\n      swap1\n      pop\n      jump\t// out\n        /* \"#utility.yul\":15783:16202   */\n    tag_395:\n        /* \"#utility.yul\":15949:15953   */\n      0x00\n        /* \"#utility.yul\":15987:15989   */\n      0x20\n        /* \"#utility.yul\":15976:15985   */\n      dup3\n        /* \"#utility.yul\":15972:15990   */\n      add\n        /* \"#utility.yul\":15964:15990   */\n      swap1\n      pop\n        /* \"#utility.yul\":16036:16045   */\n      dup2\n        /* \"#utility.yul\":16030:16034   */\n      dup2\n        /* \"#utility.yul\":16026:16046   */\n      sub\n        /* \"#utility.yul\":16022:16023   */\n      0x00\n        /* \"#utility.yul\":16011:16020   */\n      dup4\n        /* \"#utility.yul\":16007:16024   */\n      add\n        /* \"#utility.yul\":16000:16047   */\n      mstore\n        /* \"#utility.yul\":16064:16195   */\n      tag_614\n        /* \"#utility.yul\":16190:16194   */\n      dup2\n        /* \"#utility.yul\":16064:16195   */\n      tag_565\n      jump\t// in\n    tag_614:\n        /* \"#utility.yul\":16056:16195   */\n      swap1\n      pop\n        /* \"#utility.yul\":15783:16202   */\n      swap2\n      swap1\n      pop\n      jump\t// out\n        /* \"#utility.yul\":16208:16627   */\n    tag_220:\n        /* \"#utility.yul\":16374:16378   */\n      0x00\n        /* \"#utility.yul\":16412:16414   */\n      0x20\n        /* \"#utility.yul\":16401:16410   */\n      dup3\n        /* \"#utility.yul\":16397:16415   */\n      add\n        /* \"#utility.yul\":16389:16415   */\n      swap1\n      pop\n        /* \"#utility.yul\":16461:16470   */\n      dup2\n        /* \"#utility.yul\":16455:16459   */\n      dup2\n        /* \"#utility.yul\":16451:16471   */\n      sub\n        /* \"#utility.yul\":16447:16448   */\n      0x00\n        /* \"#utility.yul\":16436:16445   */\n      dup4\n        /* \"#utility.yul\":16432:16449   */\n      add\n        /* \"#utility.yul\":16425:16472   */\n      mstore\n        /* \"#utility.yul\":16489:16620   */\n      tag_616\n        /* \"#utility.yul\":16615:16619   */\n      dup2\n        /* \"#utility.yul\":16489:16620   */\n      tag_570\n      jump\t// in\n    tag_616:\n        /* \"#utility.yul\":16481:16620   */\n      swap1\n      pop\n        /* \"#utility.yul\":16208:16627   */\n      swap2\n      swap1\n      pop\n      jump\t// out\n        /* \"#utility.yul\":16633:17052   */\n    tag_243:\n        /* \"#utility.yul\":16799:16803   */\n      0x00\n        /* \"#utility.yul\":16837:16839   */\n      0x20\n        /* \"#utility.yul\":16826:16835   */\n      dup3\n        /* \"#utility.yul\":16822:16840   */\n      add\n        /* \"#utility.yul\":16814:16840   */\n      swap1\n      pop\n        /* \"#utility.yul\":16886:16895   */\n      dup2\n        /* \"#utility.yul\":16880:16884   */\n      dup2\n        /* \"#utility.yul\":16876:16896   */\n      sub\n        /* \"#utility.yul\":16872:16873   */\n      0x00\n        /* \"#utility.yul\":16861:16870   */\n      dup4\n        /* \"#utility.yul\":16857:16874   */\n      add\n        /* \"#utility.yul\":16850:16897   */\n      mstore\n        /* \"#utility.yul\":16914:17045   */\n      tag_618\n        /* \"#utility.yul\":17040:17044   */\n      dup2\n        /* \"#utility.yul\":16914:17045   */\n      tag_575\n      jump\t// in\n    tag_618:\n        /* \"#utility.yul\":16906:17045   */\n      swap1\n      pop\n        /* \"#utility.yul\":16633:17052   */\n      swap2\n      swap1\n      pop\n      jump\t// out\n        /* \"#utility.yul\":17058:17280   */\n    tag_63:\n        /* \"#utility.yul\":17151:17155   */\n      0x00\n        /* \"#utility.yul\":17189:17191   */\n      0x20\n        /* \"#utility.yul\":17178:17187   */\n      dup3\n        /* \"#utility.yul\":17174:17192   */\n      add\n        /* \"#utility.yul\":17166:17192   */\n      swap1\n      pop\n        /* \"#utility.yul\":17202:17273   */\n      tag_620\n        /* \"#utility.yul\":17270:17271   */\n      0x00\n        /* \"#utility.yul\":17259:17268   */\n      dup4\n        /* \"#utility.yul\":17255:17272   */\n      add\n        /* \"#utility.yul\":17246:17252   */\n      dup5\n        /* \"#utility.yul\":17202:17273   */\n      tag_580\n      jump\t// in\n    tag_620:\n        /* \"#utility.yul\":17058:17280   */\n      swap3\n      swap2\n      pop\n      pop\n      jump\t// out\n        /* \"#utility.yul\":17286:17618   */\n    tag_145:\n        /* \"#utility.yul\":17407:17411   */\n      0x00\n        /* \"#utility.yul\":17445:17447   */\n      0x40\n        /* \"#utility.yul\":17434:17443   */\n      dup3\n        /* \"#utility.yul\":17430:17448   */\n      add\n        /* \"#utility.yul\":17422:17448   */\n      swap1\n      pop\n        /* \"#utility.yul\":17458:17529   */\n      tag_622\n        /* \"#utility.yul\":17526:17527   */\n      0x00\n        /* \"#utility.yul\":17515:17524   */\n      dup4\n        /* \"#utility.yul\":17511:17528   */\n      add\n        /* \"#utility.yul\":17502:17508   */\n      dup6\n        /* \"#utility.yul\":17458:17529   */\n      tag_580\n      jump\t// in\n    tag_622:\n        /* \"#utility.yul\":17539:17611   */\n      tag_623\n        /* \"#utility.yul\":17607:17609   */\n      0x20\n        /* \"#utility.yul\":17596:17605   */\n      dup4\n        /* \"#utility.yul\":17592:17610   */\n      add\n        /* \"#utility.yul\":17583:17589   */\n      dup5\n        /* \"#utility.yul\":17539:17611   */\n      tag_580\n      jump\t// in\n    tag_623:\n        /* \"#utility.yul\":17286:17618   */\n      swap4\n      swap3\n      pop\n      pop\n      pop\n      jump\t// out\n        /* \"#utility.yul\":17624:17838   */\n    tag_165:\n        /* \"#utility.yul\":17713:17717   */\n      0x00\n        /* \"#utility.yul\":17751:17753   */\n      0x20\n        /* \"#utility.yul\":17740:17749   */\n      dup3\n        /* \"#utility.yul\":17736:17754   */\n      add\n        /* \"#utility.yul\":17728:17754   */\n      swap1\n      pop\n        /* \"#utility.yul\":17764:17831   */\n      tag_625\n        /* \"#utility.yul\":17828:17829   */\n      0x00\n        /* \"#utility.yul\":17817:17826   */\n      dup4\n        /* \"#utility.yul\":17813:17830   */\n      add\n        /* \"#utility.yul\":17804:17810   */\n      dup5\n        /* \"#utility.yul\":17764:17831   */\n      tag_584\n      jump\t// in\n    tag_625:\n        /* \"#utility.yul\":17624:17838   */\n      swap3\n      swap2\n      pop\n      pop\n      jump\t// out\n        /* \"#utility.yul\":17844:17973   */\n    tag_421:\n        /* \"#utility.yul\":17878:17884   */\n      0x00\n        /* \"#utility.yul\":17905:17925   */\n      tag_627\n      tag_628\n      jump\t// in\n    tag_627:\n        /* \"#utility.yul\":17895:17925   */\n      swap1\n      pop\n        /* \"#utility.yul\":17934:17967   */\n      tag_629\n        /* \"#utility.yul\":17962:17966   */\n      dup3\n        /* \"#utility.yul\":17954:17960   */\n      dup3\n        /* \"#utility.yul\":17934:17967   */\n      tag_630\n      jump\t// in\n    tag_629:\n        /* \"#utility.yul\":17844:17973   */\n      swap2\n      swap1\n      pop\n      jump\t// out\n        /* \"#utility.yul\":17979:18054   */\n    tag_628:\n        /* \"#utility.yul\":18012:18018   */\n      0x00\n        /* \"#utility.yul\":18045:18047   */\n      0x40\n        /* \"#utility.yul\":18039:18048   */\n      mload\n        /* \"#utility.yul\":18029:18048   */\n      swap1\n      pop\n        /* \"#utility.yul\":17979:18054   */\n      swap1\n      jump\t// out\n        /* \"#utility.yul\":18060:18371   */\n    tag_420:\n        /* \"#utility.yul\":18137:18141   */\n      0x00\n        /* \"#utility.yul\":18227:18245   */\n      0xffffffffffffffff\n        /* \"#utility.yul\":18219:18225   */\n      dup3\n        /* \"#utility.yul\":18216:18246   */\n      gt\n        /* \"#utility.yul\":18213:18269   */\n      iszero\n      tag_633\n      jumpi\n        /* \"#utility.yul\":18249:18267   */\n      tag_634\n      tag_635\n      jump\t// in\n    tag_634:\n        /* \"#utility.yul\":18213:18269   */\n    tag_633:\n        /* \"#utility.yul\":18299:18303   */\n      0x20\n        /* \"#utility.yul\":18291:18297   */\n      dup3\n        /* \"#utility.yul\":18287:18304   */\n      mul\n        /* \"#utility.yul\":18279:18304   */\n      swap1\n      pop\n        /* \"#utility.yul\":18359:18363   */\n      0x20\n        /* \"#utility.yul\":18353:18357   */\n      dup2\n        /* \"#utility.yul\":18349:18364   */\n      add\n        /* \"#utility.yul\":18341:18364   */\n      swap1\n      pop\n        /* \"#utility.yul\":18060:18371   */\n      swap2\n      swap1\n      pop\n      jump\t// out\n        /* \"#utility.yul\":18377:18685   */\n    tag_434:\n        /* \"#utility.yul\":18439:18443   */\n      0x00\n        /* \"#utility.yul\":18529:18547   */\n      0xffffffffffffffff\n        /* \"#utility.yul\":18521:18527   */\n      dup3\n        /* \"#utility.yul\":18518:18548   */\n      gt\n        /* \"#utility.yul\":18515:18571   */\n      iszero\n      tag_637\n      jumpi\n        /* \"#utility.yul\":18551:18569   */\n      tag_638\n      tag_635\n      jump\t// in\n    tag_638:\n        /* \"#utility.yul\":18515:18571   */\n    tag_637:\n        /* \"#utility.yul\":18589:18618   */\n      tag_639\n        /* \"#utility.yul\":18611:18617   */\n      dup3\n        /* \"#utility.yul\":18589:18618   */\n      tag_529\n      jump\t// in\n    tag_639:\n        /* \"#utility.yul\":18581:18618   */\n      swap1\n      pop\n        /* \"#utility.yul\":18673:18677   */\n      0x20\n        /* \"#utility.yul\":18667:18671   */\n      dup2\n        /* \"#utility.yul\":18663:18678   */\n      add\n        /* \"#utility.yul\":18655:18678   */\n      swap1\n      pop\n        /* \"#utility.yul\":18377:18685   */\n      swap2\n      swap1\n      pop\n      jump\t// out\n        /* \"#utility.yul\":18691:18790   */\n    tag_523:\n        /* \"#utility.yul\":18743:18749   */\n      0x00\n        /* \"#utility.yul\":18777:18782   */\n      dup2\n        /* \"#utility.yul\":18771:18783   */\n      mload\n        /* \"#utility.yul\":18761:18783   */\n      swap1\n      pop\n        /* \"#utility.yul\":18691:18790   */\n      swap2\n      swap1\n      pop\n      jump\t// out\n        /* \"#utility.yul\":18796:18965   */\n    tag_525:\n        /* \"#utility.yul\":18880:18891   */\n      0x00\n        /* \"#utility.yul\":18914:18920   */\n      dup3\n        /* \"#utility.yul\":18909:18912   */\n      dup3\n        /* \"#utility.yul\":18902:18921   */\n      mstore\n        /* \"#utility.yul\":18954:18958   */\n      0x20\n        /* \"#utility.yul\":18949:18952   */\n      dup3\n        /* \"#utility.yul\":18945:18959   */\n      add\n        /* \"#utility.yul\":18930:18959   */\n      swap1\n      pop\n        /* \"#utility.yul\":18796:18965   */\n      swap3\n      swap2\n      pop\n      pop\n      jump\t// out\n        /* \"#utility.yul\":18971:19276   */\n    tag_245:\n        /* \"#utility.yul\":19011:19014   */\n      0x00\n        /* \"#utility.yul\":19030:19050   */\n      tag_643\n        /* \"#utility.yul\":19048:19049   */\n      dup3\n        /* \"#utility.yul\":19030:19050   */\n      tag_583\n      jump\t// in\n    tag_643:\n        /* \"#utility.yul\":19025:19050   */\n      swap2\n      pop\n        /* \"#utility.yul\":19064:19084   */\n      tag_644\n        /* \"#utility.yul\":19082:19083   */\n      dup4\n        /* \"#utility.yul\":19064:19084   */\n      tag_583\n      jump\t// in\n    tag_644:\n        /* \"#utility.yul\":19059:19084   */\n      swap3\n      pop\n        /* \"#utility.yul\":19218:19219   */\n      dup3\n        /* \"#utility.yul\":19150:19216   */\n      0xffffffffffffffffffffffffffffffffffffffffffffffffffffffffffffffff\n        /* \"#utility.yul\":19146:19220   */\n      sub\n        /* \"#utility.yul\":19143:19144   */\n      dup3\n        /* \"#utility.yul\":19140:19221   */\n      gt\n        /* \"#utility.yul\":19137:19244   */\n      iszero\n      tag_645\n      jumpi\n        /* \"#utility.yul\":19224:19242   */\n      tag_646\n      tag_647\n      jump\t// in\n    tag_646:\n        /* \"#utility.yul\":19137:19244   */\n    tag_645:\n        /* \"#utility.yul\":19268:19269   */\n      dup3\n        /* \"#utility.yul\":19265:19266   */\n      dup3\n        /* \"#utility.yul\":19261:19270   */\n      add\n        /* \"#utility.yul\":19254:19270   */\n      swap1\n      pop\n        /* \"#utility.yul\":18971:19276   */\n      swap3\n      swap2\n      pop\n      pop\n      jump\t// out\n        /* \"#utility.yul\":19282:19473   */\n    tag_224:\n        /* \"#utility.yul\":19322:19326   */\n      0x00\n        /* \"#utility.yul\":19342:19362   */\n      tag_649\n        /* \"#utility.yul\":19360:19361   */\n      dup3\n        /* \"#utility.yul\":19342:19362   */\n      tag_583\n      jump\t// in\n    tag_649:\n        /* \"#utility.yul\":19337:19362   */\n      swap2\n      pop\n        /* \"#utility.yul\":19376:19396   */\n      tag_650\n        /* \"#utility.yul\":19394:19395   */\n      dup4\n        /* \"#utility.yul\":19376:19396   */\n      tag_583\n      jump\t// in\n    tag_650:\n        /* \"#utility.yul\":19371:19396   */\n      swap3\n      pop\n        /* \"#utility.yul\":19415:19416   */\n      dup3\n        /* \"#utility.yul\":19412:19413   */\n      dup3\n        /* \"#utility.yul\":19409:19417   */\n      lt\n        /* \"#utility.yul\":19406:19440   */\n      iszero\n      tag_651\n      jumpi\n        /* \"#utility.yul\":19420:19438   */\n      tag_652\n      tag_647\n      jump\t// in\n    tag_652:\n        /* \"#utility.yul\":19406:19440   */\n    tag_651:\n        /* \"#utility.yul\":19465:19466   */\n      dup3\n        /* \"#utility.yul\":19462:19463   */\n      dup3\n        /* \"#utility.yul\":19458:19467   */\n      sub\n        /* \"#utility.yul\":19450:19467   */\n      swap1\n      pop\n        /* \"#utility.yul\":19282:19473   */\n      swap3\n      swap2\n      pop\n      pop\n      jump\t// out\n        /* \"#utility.yul\":19479:19575   */\n    tag_515:\n        /* \"#utility.yul\":19516:19523   */\n      0x00\n        /* \"#utility.yul\":19545:19569   */\n      tag_654\n        /* \"#utility.yul\":19563:19568   */\n      dup3\n        /* \"#utility.yul\":19545:19569   */\n      tag_655\n      jump\t// in\n    tag_654:\n        /* \"#utility.yul\":19534:19569   */\n      swap1\n      pop\n        /* \"#utility.yul\":19479:19575   */\n      swap2\n      swap1\n      pop\n      jump\t// out\n        /* \"#utility.yul\":19581:19671   */\n    tag_519:\n        /* \"#utility.yul\":19615:19622   */\n      0x00\n        /* \"#utility.yul\":19658:19663   */\n      dup2\n        /* \"#utility.yul\":19651:19664   */\n      iszero\n        /* \"#utility.yul\":19644:19665   */\n      iszero\n        /* \"#utility.yul\":19633:19665   */\n      swap1\n      pop\n        /* \"#utility.yul\":19581:19671   */\n      swap2\n      swap1\n      pop\n      jump\t// out\n        /* \"#utility.yul\":19677:19803   */\n    tag_655:\n        /* \"#utility.yul\":19714:19721   */\n      0x00\n        /* \"#utility.yul\":19754:19796   */\n      0xffffffffffffffffffffffffffffffffffffffff\n        /* \"#utility.yul\":19747:19752   */\n      dup3\n        /* \"#utility.yul\":19743:19797   */\n      and\n        /* \"#utility.yul\":19732:19797   */\n      swap1\n      pop\n        /* \"#utility.yul\":19677:19803   */\n      swap2\n      swap1\n      pop\n      jump\t// out\n        /* \"#utility.yul\":19809:19886   */\n    tag_583:\n        /* \"#utility.yul\":19846:19853   */\n      0x00\n        /* \"#utility.yul\":19875:19880   */\n      dup2\n        /* \"#utility.yul\":19864:19880   */\n      swap1\n      pop\n        /* \"#utility.yul\":19809:19886   */\n      swap2\n      swap1\n      pop\n      jump\t// out\n        /* \"#utility.yul\":19892:19978   */\n    tag_587:\n        /* \"#utility.yul\":19927:19934   */\n      0x00\n        /* \"#utility.yul\":19967:19971   */\n      0xff\n        /* \"#utility.yul\":19960:19965   */\n      dup3\n        /* \"#utility.yul\":19956:19972   */\n      and\n        /* \"#utility.yul\":19945:19972   */\n      swap1\n      pop\n        /* \"#utility.yul\":19892:19978   */\n      swap2\n      swap1\n      pop\n      jump\t// out\n        /* \"#utility.yul\":19984:20138   */\n    tag_439:\n        /* \"#utility.yul\":20068:20074   */\n      dup3\n        /* \"#utility.yul\":20063:20066   */\n      dup2\n        /* \"#utility.yul\":20058:20061   */\n      dup4\n        /* \"#utility.yul\":20045:20075   */\n      calldatacopy\n        /* \"#utility.yul\":20130:20131   */\n      0x00\n        /* \"#utility.yul\":20121:20127   */\n      dup4\n        /* \"#utility.yul\":20116:20119   */\n      dup4\n        /* \"#utility.yul\":20112:20128   */\n      add\n        /* \"#utility.yul\":20105:20132   */\n      mstore\n        /* \"#utility.yul\":19984:20138   */\n      pop\n      pop\n      pop\n      jump\t// out\n        /* \"#utility.yul\":20144:20451   */\n    tag_527:\n        /* \"#utility.yul\":20212:20213   */\n      0x00\n        /* \"#utility.yul\":20222:20335   */\n    tag_662:\n        /* \"#utility.yul\":20236:20242   */\n      dup4\n        /* \"#utility.yul\":20233:20234   */\n      dup2\n        /* \"#utility.yul\":20230:20243   */\n      lt\n        /* \"#utility.yul\":20222:20335   */\n      iszero\n      tag_664\n      jumpi\n        /* \"#utility.yul\":20321:20322   */\n      dup1\n        /* \"#utility.yul\":20316:20319   */\n      dup3\n        /* \"#utility.yul\":20312:20323   */\n      add\n        /* \"#utility.yul\":20306:20324   */\n      mload\n        /* \"#utility.yul\":20302:20303   */\n      dup2\n        /* \"#utility.yul\":20297:20300   */\n      dup5\n        /* \"#utility.yul\":20293:20304   */\n      add\n        /* \"#utility.yul\":20286:20325   */\n      mstore\n        /* \"#utility.yul\":20258:20260   */\n      0x20\n        /* \"#utility.yul\":20255:20256   */\n      dup2\n        /* \"#utility.yul\":20251:20261   */\n      add\n        /* \"#utility.yul\":20246:20261   */\n      swap1\n      pop\n        /* \"#utility.yul\":20222:20335   */\n      jump(tag_662)\n    tag_664:\n        /* \"#utility.yul\":20353:20359   */\n      dup4\n        /* \"#utility.yul\":20350:20351   */\n      dup2\n        /* \"#utility.yul\":20347:20360   */\n      gt\n        /* \"#utility.yul\":20344:20445   */\n      iszero\n      tag_665\n      jumpi\n        /* \"#utility.yul\":20433:20434   */\n      0x00\n        /* \"#utility.yul\":20424:20430   */\n      dup5\n        /* \"#utility.yul\":20419:20422   */\n      dup5\n        /* \"#utility.yul\":20415:20431   */\n      add\n        /* \"#utility.yul\":20408:20435   */\n      mstore\n        /* \"#utility.yul\":20344:20445   */\n    tag_665:\n        /* \"#utility.yul\":20193:20451   */\n      pop\n        /* \"#utility.yul\":20144:20451   */\n      pop\n      pop\n      pop\n      jump\t// out\n        /* \"#utility.yul\":20457:20777   */\n    tag_182:\n        /* \"#utility.yul\":20501:20507   */\n      0x00\n        /* \"#utility.yul\":20538:20539   */\n      0x02\n        /* \"#utility.yul\":20532:20536   */\n      dup3\n        /* \"#utility.yul\":20528:20540   */\n      div\n        /* \"#utility.yul\":20518:20540   */\n      swap1\n      pop\n        /* \"#utility.yul\":20585:20586   */\n      0x01\n        /* \"#utility.yul\":20579:20583   */\n      dup3\n        /* \"#utility.yul\":20575:20587   */\n      and\n        /* \"#utility.yul\":20606:20624   */\n      dup1\n        /* \"#utility.yul\":20596:20677   */\n      tag_667\n      jumpi\n        /* \"#utility.yul\":20662:20666   */\n      0x7f\n        /* \"#utility.yul\":20654:20660   */\n      dup3\n        /* \"#utility.yul\":20650:20667   */\n      and\n        /* \"#utility.yul\":20640:20667   */\n      swap2\n      pop\n        /* \"#utility.yul\":20596:20677   */\n    tag_667:\n        /* \"#utility.yul\":20724:20726   */\n      0x20\n        /* \"#utility.yul\":20716:20722   */\n      dup3\n        /* \"#utility.yul\":20713:20727   */\n      lt\n        /* \"#utility.yul\":20693:20711   */\n      dup2\n        /* \"#utility.yul\":20690:20728   */\n      eq\n        /* \"#utility.yul\":20687:20771   */\n      iszero\n      tag_668\n      jumpi\n        /* \"#utility.yul\":20743:20761   */\n      tag_669\n      tag_670\n      jump\t// in\n    tag_669:\n        /* \"#utility.yul\":20687:20771   */\n    tag_668:\n        /* \"#utility.yul\":20508:20777   */\n      pop\n        /* \"#utility.yul\":20457:20777   */\n      swap2\n      swap1\n      pop\n      jump\t// out\n        /* \"#utility.yul\":20783:21064   */\n    tag_630:\n        /* \"#utility.yul\":20866:20893   */\n      tag_672\n        /* \"#utility.yul\":20888:20892   */\n      dup3\n        /* \"#utility.yul\":20866:20893   */\n      tag_529\n      jump\t// in\n    tag_672:\n        /* \"#utility.yul\":20858:20864   */\n      dup2\n        /* \"#utility.yul\":20854:20894   */\n      add\n        /* \"#utility.yul\":20996:21002   */\n      dup2\n        /* \"#utility.yul\":20984:20994   */\n      dup2\n        /* \"#utility.yul\":20981:21003   */\n      lt\n        /* \"#utility.yul\":20960:20978   */\n      0xffffffffffffffff\n        /* \"#utility.yul\":20948:20958   */\n      dup3\n        /* \"#utility.yul\":20945:20979   */\n      gt\n        /* \"#utility.yul\":20942:21004   */\n      or\n        /* \"#utility.yul\":20939:21027   */\n      iszero\n      tag_673\n      jumpi\n        /* \"#utility.yul\":21007:21025   */\n      tag_674\n      tag_635\n      jump\t// in\n    tag_674:\n        /* \"#utility.yul\":20939:21027   */\n    tag_673:\n        /* \"#utility.yul\":21047:21057   */\n      dup1\n        /* \"#utility.yul\":21043:21045   */\n      0x40\n        /* \"#utility.yul\":21036:21058   */\n      mstore\n        /* \"#utility.yul\":20826:21064   */\n      pop\n        /* \"#utility.yul\":20783:21064   */\n      pop\n      pop\n      jump\t// out\n        /* \"#utility.yul\":21070:21303   */\n    tag_208:\n        /* \"#utility.yul\":21109:21112   */\n      0x00\n        /* \"#utility.yul\":21132:21156   */\n      tag_676\n        /* \"#utility.yul\":21150:21155   */\n      dup3\n        /* \"#utility.yul\":21132:21156   */\n      tag_583\n      jump\t// in\n    tag_676:\n        /* \"#utility.yul\":21123:21156   */\n      swap2\n      pop\n        /* \"#utility.yul\":21178:21244   */\n      0xffffffffffffffffffffffffffffffffffffffffffffffffffffffffffffffff\n        /* \"#utility.yul\":21171:21176   */\n      dup3\n        /* \"#utility.yul\":21168:21245   */\n      eq\n        /* \"#utility.yul\":21165:21268   */\n      iszero\n      tag_677\n      jumpi\n        /* \"#utility.yul\":21248:21266   */\n      tag_678\n      tag_647\n      jump\t// in\n    tag_678:\n        /* \"#utility.yul\":21165:21268   */\n    tag_677:\n        /* \"#utility.yul\":21295:21296   */\n      0x01\n        /* \"#utility.yul\":21288:21293   */\n      dup3\n        /* \"#utility.yul\":21284:21297   */\n      add\n        /* \"#utility.yul\":21277:21297   */\n      swap1\n      pop\n        /* \"#utility.yul\":21070:21303   */\n      swap2\n      swap1\n      pop\n      jump\t// out\n        /* \"#utility.yul\":21309:21489   */\n    tag_647:\n        /* \"#utility.yul\":21357:21434   */\n      0x4e487b7100000000000000000000000000000000000000000000000000000000\n        /* \"#utility.yul\":21354:21355   */\n      0x00\n        /* \"#utility.yul\":21347:21435   */\n      mstore\n        /* \"#utility.yul\":21454:21458   */\n      0x11\n        /* \"#utility.yul\":21451:21452   */\n      0x04\n        /* \"#utility.yul\":21444:21459   */\n      mstore\n        /* \"#utility.yul\":21478:21482   */\n      0x24\n        /* \"#utility.yul\":21475:21476   */\n      0x00\n        /* \"#utility.yul\":21468:21483   */\n      revert\n        /* \"#utility.yul\":21495:21675   */\n    tag_670:\n        /* \"#utility.yul\":21543:21620   */\n      0x4e487b7100000000000000000000000000000000000000000000000000000000\n        /* \"#utility.yul\":21540:21541   */\n      0x00\n        /* \"#utility.yul\":21533:21621   */\n      mstore\n        /* \"#utility.yul\":21640:21644   */\n      0x22\n        /* \"#utility.yul\":21637:21638   */\n      0x04\n        /* \"#utility.yul\":21630:21645   */\n      mstore\n        /* \"#utility.yul\":21664:21668   */\n      0x24\n        /* \"#utility.yul\":21661:21662   */\n      0x00\n        /* \"#utility.yul\":21654:21669   */\n      revert\n        /* \"#utility.yul\":21681:21861   */\n    tag_205:\n        /* \"#utility.yul\":21729:21806   */\n      0x4e487b7100000000000000000000000000000000000000000000000000000000\n        /* \"#utility.yul\":21726:21727   */\n      0x00\n        /* \"#utility.yul\":21719:21807   */\n      mstore\n        /* \"#utility.yul\":21826:21830   */\n      0x32\n        /* \"#utility.yul\":21823:21824   */\n      0x04\n        /* \"#utility.yul\":21816:21831   */\n      mstore\n        /* \"#utility.yul\":21850:21854   */\n      0x24\n        /* \"#utility.yul\":21847:21848   */\n      0x00\n        /* \"#utility.yul\":21840:21855   */\n      revert\n        /* \"#utility.yul\":21867:22047   */\n    tag_635:\n        /* \"#utility.yul\":21915:21992   */\n      0x4e487b7100000000000000000000000000000000000000000000000000000000\n        /* \"#utility.yul\":21912:21913   */\n      0x00\n        /* \"#utility.yul\":21905:21993   */\n      mstore\n        /* \"#utility.yul\":22012:22016   */\n      0x41\n        /* \"#utility.yul\":22009:22010   */\n      0x04\n        /* \"#utility.yul\":22002:22017   */\n      mstore\n        /* \"#utility.yul\":22036:22040   */\n      0x24\n        /* \"#utility.yul\":22033:22034   */\n      0x00\n        /* \"#utility.yul\":22026:22041   */\n      revert\n        /* \"#utility.yul\":22053:22170   */\n    tag_447:\n        /* \"#utility.yul\":22162:22163   */\n      0x00\n        /* \"#utility.yul\":22159:22160   */\n      dup1\n        /* \"#utility.yul\":22152:22164   */\n      revert\n        /* \"#utility.yul\":22176:22293   */\n    tag_424:\n        /* \"#utility.yul\":22285:22286   */\n      0x00\n        /* \"#utility.yul\":22282:22283   */\n      dup1\n        /* \"#utility.yul\":22275:22287   */\n      revert\n        /* \"#utility.yul\":22299:22416   */\n    tag_437:\n        /* \"#utility.yul\":22408:22409   */\n      0x00\n        /* \"#utility.yul\":22405:22406   */\n      dup1\n        /* \"#utility.yul\":22398:22410   */\n      revert\n        /* \"#utility.yul\":22422:22539   */\n    tag_494:\n        /* \"#utility.yul\":22531:22532   */\n      0x00\n        /* \"#utility.yul\":22528:22529   */\n      dup1\n        /* \"#utility.yul\":22521:22533   */\n      revert\n        /* \"#utility.yul\":22545:22662   */\n    tag_465:\n        /* \"#utility.yul\":22654:22655   */\n      0x00\n        /* \"#utility.yul\":22651:22652   */\n      dup1\n        /* \"#utility.yul\":22644:22656   */\n      revert\n        /* \"#utility.yul\":22668:22770   */\n    tag_529:\n        /* \"#utility.yul\":22709:22715   */\n      0x00\n        /* \"#utility.yul\":22760:22762   */\n      0x1f\n        /* \"#utility.yul\":22756:22763   */\n      not\n        /* \"#utility.yul\":22751:22753   */\n      0x1f\n        /* \"#utility.yul\":22744:22749   */\n      dup4\n        /* \"#utility.yul\":22740:22754   */\n      add\n        /* \"#utility.yul\":22736:22764   */\n      and\n        /* \"#utility.yul\":22726:22764   */\n      swap1\n      pop\n        /* \"#utility.yul\":22668:22770   */\n      swap2\n      swap1\n      pop\n      jump\t// out\n        /* \"#utility.yul\":22776:22996   */\n    tag_534:\n        /* \"#utility.yul\":22916:22950   */\n      0x4f6e6c79206f776e6572206861732061636365737320746f2066756e6374696f\n        /* \"#utility.yul\":22912:22913   */\n      0x00\n        /* \"#utility.yul\":22904:22910   */\n      dup3\n        /* \"#utility.yul\":22900:22914   */\n      add\n        /* \"#utility.yul\":22893:22951   */\n      mstore\n        /* \"#utility.yul\":22985:22988   */\n      0x6e00000000000000000000000000000000000000000000000000000000000000\n        /* \"#utility.yul\":22980:22982   */\n      0x20\n        /* \"#utility.yul\":22972:22978   */\n      dup3\n        /* \"#utility.yul\":22968:22983   */\n      add\n        /* \"#utility.yul\":22961:22989   */\n      mstore\n        /* \"#utility.yul\":22776:22996   */\n      pop\n      jump\t// out\n        /* \"#utility.yul\":23002:23224   */\n    tag_539:\n        /* \"#utility.yul\":23142:23176   */\n      0x5a65726f2061646472657373206173207370656e646572206e6f7420616c6c6f\n        /* \"#utility.yul\":23138:23139   */\n      0x00\n        /* \"#utility.yul\":23130:23136   */\n      dup3\n        /* \"#utility.yul\":23126:23140   */\n      add\n        /* \"#utility.yul\":23119:23177   */\n      mstore\n        /* \"#utility.yul\":23211:23216   */\n      0x7765640000000000000000000000000000000000000000000000000000000000\n        /* \"#utility.yul\":23206:23208   */\n      0x20\n        /* \"#utility.yul\":23198:23204   */\n      dup3\n        /* \"#utility.yul\":23194:23209   */\n      add\n        /* \"#utility.yul\":23187:23217   */\n      mstore\n        /* \"#utility.yul\":23002:23224   */\n      pop\n      jump\t// out\n        /* \"#utility.yul\":23230:23403   */\n    tag_544:\n        /* \"#utility.yul\":23370:23395   */\n      0x5a65726f20416d6f756e74206e6f7420616c6c6f776564000000000000000000\n        /* \"#utility.yul\":23366:23367   */\n      0x00\n        /* \"#utility.yul\":23358:23364   */\n      dup3\n        /* \"#utility.yul\":23354:23368   */\n      add\n        /* \"#utility.yul\":23347:23396   */\n      mstore\n        /* \"#utility.yul\":23230:23403   */\n      pop\n      jump\t// out\n        /* \"#utility.yul\":23409:23655   */\n    tag_549:\n        /* \"#utility.yul\":23549:23583   */\n      0x416c6c6f77656420496e766573746f72732063616e6e6f74206265206c657373\n        /* \"#utility.yul\":23545:23546   */\n      0x00\n        /* \"#utility.yul\":23537:23543   */\n      dup3\n        /* \"#utility.yul\":23533:23547   */\n      add\n        /* \"#utility.yul\":23526:23584   */\n      mstore\n        /* \"#utility.yul\":23618:23647   */\n      0x207468616e2063757272656e7420746f6b656e20686f6c646572730000000000\n        /* \"#utility.yul\":23613:23615   */\n      0x20\n        /* \"#utility.yul\":23605:23611   */\n      dup3\n        /* \"#utility.yul\":23601:23616   */\n      add\n        /* \"#utility.yul\":23594:23648   */\n      mstore\n        /* \"#utility.yul\":23409:23655   */\n      pop\n      jump\t// out\n        /* \"#utility.yul\":23661:23891   */\n    tag_554:\n        /* \"#utility.yul\":23801:23835   */\n      0x4275726e20616d6f756e742069732067726561746572207468616e2061646472\n        /* \"#utility.yul\":23797:23798   */\n      0x00\n        /* \"#utility.yul\":23789:23795   */\n      dup3\n        /* \"#utility.yul\":23785:23799   */\n      add\n        /* \"#utility.yul\":23778:23836   */\n      mstore\n        /* \"#utility.yul\":23870:23883   */\n      0x6573732062616c616e6365000000000000000000000000000000000000000000\n        /* \"#utility.yul\":23865:23867   */\n      0x20\n        /* \"#utility.yul\":23857:23863   */\n      dup3\n        /* \"#utility.yul\":23853:23868   */\n      add\n        /* \"#utility.yul\":23846:23884   */\n      mstore\n        /* \"#utility.yul\":23661:23891   */\n      pop\n      jump\t// out\n        /* \"#utility.yul\":23897:24117   */\n    tag_559:\n        /* \"#utility.yul\":24037:24071   */\n      0x5a65726f2061646472657373206e6f7420616c6c6f776564206173206f776e65\n        /* \"#utility.yul\":24033:24034   */\n      0x00\n        /* \"#utility.yul\":24025:24031   */\n      dup3\n        /* \"#utility.yul\":24021:24035   */\n      add\n        /* \"#utility.yul\":24014:24072   */\n      mstore\n        /* \"#utility.yul\":24106:24109   */\n      0x7200000000000000000000000000000000000000000000000000000000000000\n        /* \"#utility.yul\":24101:24103   */\n      0x20\n        /* \"#utility.yul\":24093:24099   */\n      dup3\n        /* \"#utility.yul\":24089:24104   */\n      add\n        /* \"#utility.yul\":24082:24110   */\n      mstore\n        /* \"#utility.yul\":23897:24117   */\n      pop\n      jump\t// out\n        /* \"#utility.yul\":24123:24412   */\n    tag_564:\n        /* \"#utility.yul\":24263:24297   */\n      0x4f6e6c7920617574686f72697a6564206164647265737365732063616e206368\n        /* \"#utility.yul\":24259:24260   */\n      0x00\n        /* \"#utility.yul\":24251:24257   */\n      dup3\n        /* \"#utility.yul\":24247:24261   */\n      add\n        /* \"#utility.yul\":24240:24298   */\n      mstore\n        /* \"#utility.yul\":24332:24366   */\n      0x616e6765204b594320696e666f726d6174696f6e206f6620696e766573746f72\n        /* \"#utility.yul\":24327:24329   */\n      0x20\n        /* \"#utility.yul\":24319:24325   */\n      dup3\n        /* \"#utility.yul\":24315:24330   */\n      add\n        /* \"#utility.yul\":24308:24367   */\n      mstore\n        /* \"#utility.yul\":24401:24404   */\n      0x7300000000000000000000000000000000000000000000000000000000000000\n        /* \"#utility.yul\":24396:24398   */\n      0x40\n        /* \"#utility.yul\":24388:24394   */\n      dup3\n        /* \"#utility.yul\":24384:24399   */\n      add\n        /* \"#utility.yul\":24377:24405   */\n      mstore\n        /* \"#utility.yul\":24123:24412   */\n      pop\n      jump\t// out\n        /* \"#utility.yul\":24418:24665   */\n    tag_569:\n        /* \"#utility.yul\":24558:24592   */\n      0x53656e64657220697320747279696e6720746f207472616e7366657220616d6f\n        /* \"#utility.yul\":24554:24555   */\n      0x00\n        /* \"#utility.yul\":24546:24552   */\n      dup3\n        /* \"#utility.yul\":24542:24556   */\n      add\n        /* \"#utility.yul\":24535:24593   */\n      mstore\n        /* \"#utility.yul\":24627:24657   */\n      0x756e742067726561746572207468616e206869732062616c616e636500000000\n        /* \"#utility.yul\":24622:24624   */\n      0x20\n        /* \"#utility.yul\":24614:24620   */\n      dup3\n        /* \"#utility.yul\":24610:24625   */\n      add\n        /* \"#utility.yul\":24603:24658   */\n      mstore\n        /* \"#utility.yul\":24418:24665   */\n      pop\n      jump\t// out\n        /* \"#utility.yul\":24671:24914   */\n    tag_574:\n        /* \"#utility.yul\":24811:24845   */\n      0x53656e6465722063616e6e6f74207472616e7366657220616d6f756e74206772\n        /* \"#utility.yul\":24807:24808   */\n      0x00\n        /* \"#utility.yul\":24799:24805   */\n      dup3\n        /* \"#utility.yul\":24795:24809   */\n      add\n        /* \"#utility.yul\":24788:24846   */\n      mstore\n        /* \"#utility.yul\":24880:24906   */\n      0x6561746572207468616e2068697320416c6c6f77616e63650000000000000000\n        /* \"#utility.yul\":24875:24877   */\n      0x20\n        /* \"#utility.yul\":24867:24873   */\n      dup3\n        /* \"#utility.yul\":24863:24878   */\n      add\n        /* \"#utility.yul\":24856:24907   */\n      mstore\n        /* \"#utility.yul\":24671:24914   */\n      pop\n      jump\t// out\n        /* \"#utility.yul\":24920:25147   */\n    tag_579:\n        /* \"#utility.yul\":25060:25094   */\n      0x546f6b656e732063616e6e6f74206265206d696e74656420666f722061646472\n        /* \"#utility.yul\":25056:25057   */\n      0x00\n        /* \"#utility.yul\":25048:25054   */\n      dup3\n        /* \"#utility.yul\":25044:25058   */\n      add\n        /* \"#utility.yul\":25037:25095   */\n      mstore\n        /* \"#utility.yul\":25129:25139   */\n      0x657373207a65726f000000000000000000000000000000000000000000000000\n        /* \"#utility.yul\":25124:25126   */\n      0x20\n        /* \"#utility.yul\":25116:25122   */\n      dup3\n        /* \"#utility.yul\":25112:25127   */\n      add\n        /* \"#utility.yul\":25105:25140   */\n      mstore\n        /* \"#utility.yul\":24920:25147   */\n      pop\n      jump\t// out\n        /* \"#utility.yul\":25153:25275   */\n    tag_442:\n        /* \"#utility.yul\":25226:25250   */\n      tag_700\n        /* \"#utility.yul\":25244:25249   */\n      dup2\n        /* \"#utility.yul\":25226:25250   */\n      tag_515\n      jump\t// in\n    tag_700:\n        /* \"#utility.yul\":25219:25224   */\n      dup2\n        /* \"#utility.yul\":25216:25251   */\n      eq\n        /* \"#utility.yul\":25206:25269   */\n      tag_701\n      jumpi\n        /* \"#utility.yul\":25265:25266   */\n      0x00\n        /* \"#utility.yul\":25262:25263   */\n      dup1\n        /* \"#utility.yul\":25255:25267   */\n      revert\n        /* \"#utility.yul\":25206:25269   */\n    tag_701:\n        /* \"#utility.yul\":25153:25275   */\n      pop\n      jump\t// out\n        /* \"#utility.yul\":25281:25403   */\n    tag_457:\n        /* \"#utility.yul\":25354:25378   */\n      tag_703\n        /* \"#utility.yul\":25372:25377   */\n      dup2\n        /* \"#utility.yul\":25354:25378   */\n      tag_583\n      jump\t// in\n    tag_703:\n        /* \"#utility.yul\":25347:25352   */\n      dup2\n        /* \"#utility.yul\":25344:25379   */\n      eq\n        /* \"#utility.yul\":25334:25397   */\n      tag_704\n      jumpi\n        /* \"#utility.yul\":25393:25394   */\n      0x00\n        /* \"#utility.yul\":25390:25391   */\n      dup1\n        /* \"#utility.yul\":25383:25395   */\n      revert\n        /* \"#utility.yul\":25334:25397   */\n    tag_704:\n        /* \"#utility.yul\":25281:25403   */\n      pop\n      jump\t// out\n        /* \"#utility.yul\":25409:25527   */\n    tag_461:\n        /* \"#utility.yul\":25480:25502   */\n      tag_706\n        /* \"#utility.yul\":25496:25501   */\n      dup2\n        /* \"#utility.yul\":25480:25502   */\n      tag_587\n      jump\t// in\n    tag_706:\n        /* \"#utility.yul\":25473:25478   */\n      dup2\n        /* \"#utility.yul\":25470:25503   */\n      eq\n        /* \"#utility.yul\":25460:25521   */\n      tag_707\n      jumpi\n        /* \"#utility.yul\":25517:25518   */\n      0x00\n        /* \"#utility.yul\":25514:25515   */\n      dup1\n        /* \"#utility.yul\":25507:25519   */\n      revert\n        /* \"#utility.yul\":25460:25521   */\n    tag_707:\n        /* \"#utility.yul\":25409:25527   */\n      pop\n      jump\t// out\n\n    auxdata: 0xa26469706673582212204e6b769d30edaea41997596cb8db0157dc961ed417ca61ba6111f41c1252f2e264736f6c63430008070033\n}\n",
				"bytecode": {
					"linkReferences": {},
					"object": "608060405260126006556040518060400160405280600381526020017f312e320000000000000000000000000000000000000000000000000000000000815250600790805190602001906200005692919062000626565b506040518060400160405280600a81526020017f446967695368617265730000000000000000000000000000000000000000000081525060089080519060200190620000a492919062000626565b506040518060400160405280600881526020017f4552432d3134303400000000000000000000000000000000000000000000000081525060099080519060200190620000f292919062000626565b506000601055600060115560016012556040518061010001604052806040518060400160405280601e81526020017f4e6f207472616e73666572207265737472696374696f6e7320666f756e64000081525081526020016040518060800160405280605781526020016200466e6057913981526020016040518060800160405280604481526020016200472d6044913981526020016040518060400160405280602081526020017f5a65726f207472616e7366657220616d6f756e74206e6f7420616c6c6f7765648152508152602001604051806060016040528060248152602001620047d7602491398152602001604051806060016040528060268152602001620046486026913981526020016040518060a0016040528060688152602001620046c56068913981526020016040518060a0016040528060668152602001620047716066913981525060139060086200024e929190620006b7565b503480156200025c57600080fd5b50604051620047fb380380620047fb833981810160405281019062000282919062000857565b87600b90805190602001906200029a92919062000626565b5086600c9080519060200190620002b392919062000626565b508460068190555033600460006101000a81548173ffffffffffffffffffffffffffffffffffffffff021916908373ffffffffffffffffffffffffffffffffffffffff1602179055506001600080600460009054906101000a900473ffffffffffffffffffffffffffffffffffffffff1673ffffffffffffffffffffffffffffffffffffffff1673ffffffffffffffffffffffffffffffffffffffff168152602001908152602001600020819055506001806000600460009054906101000a900473ffffffffffffffffffffffffffffffffffffffff1673ffffffffffffffffffffffffffffffffffffffff1673ffffffffffffffffffffffffffffffffffffffff1681526020019081526020016000208190555060016000808373ffffffffffffffffffffffffffffffffffffffff1673ffffffffffffffffffffffffffffffffffffffff1681526020019081526020016000208190555060018060008373ffffffffffffffffffffffffffffffffffffffff1673ffffffffffffffffffffffffffffffffffffffff168152602001908152602001600020819055508560118190555088600a81905550600a5460026000600460009054906101000a900473ffffffffffffffffffffffffffffffffffffffff1673ffffffffffffffffffffffffffffffffffffffff1673ffffffffffffffffffffffffffffffffffffffff16815260200190815260200160002081905550600160056000600460009054906101000a900473ffffffffffffffffffffffffffffffffffffffff1673ffffffffffffffffffffffffffffffffffffffff1673ffffffffffffffffffffffffffffffffffffffff16815260200190815260200160002060006101000a81548160ff02191690831515021790555083600d90805190602001906200055892919062000626565b5082600e90805190602001906200057192919062000626565b5081600f90805190602001906200058a92919062000626565b50600460009054906101000a900473ffffffffffffffffffffffffffffffffffffffff1673ffffffffffffffffffffffffffffffffffffffff16600073ffffffffffffffffffffffffffffffffffffffff167fddf252ad1be2c89b69c2b068fc378daa952ba7f163c4a11628f55a4df523b3ef600a546040516200060f9190620009e2565b60405180910390a350505050505050505062000bf5565b828054620006349062000ad2565b90600052602060002090601f016020900481019282620006585760008555620006a4565b82601f106200067357805160ff1916838001178555620006a4565b82800160010185558215620006a4579182015b82811115620006a357825182559160200191906001019062000686565b5b509050620006b391906200071e565b5090565b8280548282559060005260206000209081019282156200070b579160200282015b828111156200070a578251829080519060200190620006f992919062000626565b5091602001919060010190620006d8565b5b5090506200071a91906200073d565b5090565b5b80821115620007395760008160009055506001016200071f565b5090565b5b8082111562000761576000818162000757919062000765565b506001016200073e565b5090565b508054620007739062000ad2565b6000825580601f10620007875750620007a8565b601f016020900490600052602060002090810190620007a791906200071e565b5b50565b6000620007c2620007bc8462000a28565b620009ff565b905082815260208101848484011115620007e157620007e062000ba1565b5b620007ee84828562000a9c565b509392505050565b600081519050620008078162000bc1565b92915050565b600082601f83011262000825576200082462000b9c565b5b815162000837848260208601620007ab565b91505092915050565b600081519050620008518162000bdb565b92915050565b60008060008060008060008060006101208a8c0312156200087d576200087c62000bab565b5b60006200088d8c828d0162000840565b99505060208a015167ffffffffffffffff811115620008b157620008b062000ba6565b5b620008bf8c828d016200080d565b98505060408a015167ffffffffffffffff811115620008e357620008e262000ba6565b5b620008f18c828d016200080d565b9750506060620009048c828d0162000840565b9650506080620009178c828d0162000840565b95505060a08a015167ffffffffffffffff8111156200093b576200093a62000ba6565b5b620009498c828d016200080d565b94505060c08a015167ffffffffffffffff8111156200096d576200096c62000ba6565b5b6200097b8c828d016200080d565b93505060e08a015167ffffffffffffffff8111156200099f576200099e62000ba6565b5b620009ad8c828d016200080d565b925050610100620009c18c828d01620007f6565b9150509295985092959850929598565b620009dc8162000a92565b82525050565b6000602082019050620009f96000830184620009d1565b92915050565b600062000a0b62000a1e565b905062000a19828262000b08565b919050565b6000604051905090565b600067ffffffffffffffff82111562000a465762000a4562000b6d565b5b62000a518262000bb0565b9050602081019050919050565b600062000a6b8262000a72565b9050919050565b600073ffffffffffffffffffffffffffffffffffffffff82169050919050565b6000819050919050565b60005b8381101562000abc57808201518184015260208101905062000a9f565b8381111562000acc576000848401525b50505050565b6000600282049050600182168062000aeb57607f821691505b6020821081141562000b025762000b0162000b3e565b5b50919050565b62000b138262000bb0565b810181811067ffffffffffffffff8211171562000b355762000b3462000b6d565b5b80604052505050565b7f4e487b7100000000000000000000000000000000000000000000000000000000600052602260045260246000fd5b7f4e487b7100000000000000000000000000000000000000000000000000000000600052604160045260246000fd5b600080fd5b600080fd5b600080fd5b600080fd5b6000601f19601f8301169050919050565b62000bcc8162000a5e565b811462000bd857600080fd5b50565b62000be68162000a92565b811462000bf257600080fd5b50565b613a438062000c056000396000f3fe608060405234801561001057600080fd5b506004361061021c5760003560e01c80637cae04f711610125578063ac893db1116100ad578063d4ce14151161007c578063d4ce141514610656578063da76e2f314610686578063dd62ed3e146106a2578063e8379421146106d2578063f2fde38b146107025761021c565b8063ac893db1146105e4578063b1b5932a14610600578063b5b7e6ee1461061e578063c319e41c1461063a5761021c565b806395d89b41116100f457806395d89b41146105195780639dc29fac14610537578063a9059cbb14610567578063ab47a2f914610597578063abc30a4b146105c85761021c565b80637cae04f71461048f5780637f4ab1dd146104ad57806384f9007f146104dd5780638da5cb5b146104fb5761021c565b806345968836116101a857806362a3d4bd1161017757806362a3d4bd146103e9578063639c86ce146104055780636401ca7614610423578063654b6f151461044157806370a082311461045f5761021c565b8063459688361461037357806351aebcd41461039157806354fd4d50146103ad57806359a72ddc146103cb5761021c565b806323b872dd116101ef57806323b872dd146102a95780632b8e797a146102d9578063313ce567146102f55780633a24ddc51461031357806340c10f19146103435761021c565b806306fdde0314610221578063095ea7b31461023f57806309fc38921461026f57806318160ddd1461028b575b600080fd5b61022961071e565b60405161023691906131a0565b60405180910390f35b61025960048036038101906102549190612dad565b6107ac565b6040516102669190613185565b60405180910390f35b61028960048036038101906102849190612e40565b610950565b005b610293610a2d565b6040516102a09190613302565b60405180910390f35b6102c360048036038101906102be9190612d5a565b610a37565b6040516102d09190613185565b60405180910390f35b6102f360048036038101906102ee9190612ded565b610d26565b005b6102fd610dc9565b60405161030a9190613302565b60405180910390f35b61032d60048036038101906103289190612dad565b610dcf565b60405161033a9190613185565b60405180910390f35b61035d60048036038101906103589190612dad565b610e98565b60405161036a9190613185565b60405180910390f35b61037b611094565b6040516103889190613302565b60405180910390f35b6103ab60048036038101906103a69190612eaf565b61109a565b005b6103b561117b565b6040516103c291906131a0565b60405180910390f35b6103d3611209565b6040516103e091906131a0565b60405180910390f35b61040360048036038101906103fe9190612ef8565b611297565b005b61040d6113ba565b60405161041a9190613302565b60405180910390f35b61042b6113c0565b6040516104389190613302565b60405180910390f35b6104496113c6565b60405161045691906131a0565b60405180910390f35b61047960048036038101906104749190612ced565b611454565b6040516104869190613302565b60405180910390f35b61049761149d565b6040516104a491906131a0565b60405180910390f35b6104c760048036038101906104c29190612f25565b61152b565b6040516104d491906131a0565b60405180910390f35b6104e5611627565b6040516104f291906131a0565b60405180910390f35b6105036116b5565b6040516105109190613125565b60405180910390f35b6105216116df565b60405161052e91906131a0565b60405180910390f35b610551600480360381019061054c9190612dad565b61176d565b60405161055e9190613185565b60405180910390f35b610581600480360381019061057c9190612dad565b61197b565b60405161058e9190613185565b60405180910390f35b6105b160048036038101906105ac9190612ced565b611a65565b6040516105bf92919061331d565b60405180910390f35b6105e260048036038101906105dd9190612eaf565b611af0565b005b6105fe60048036038101906105f99190612eaf565b611bd1565b005b610608611cb2565b60405161061591906131a0565b60405180910390f35b61063860048036038101906106339190612ef8565b611d40565b005b610654600480360381019061064f9190612ced565b611e11565b005b610670600480360381019061066b9190612d5a565b611f33565b60405161067d9190613346565b60405180910390f35b6106a0600480360381019061069b9190612ced565b61227b565b005b6106bc60048036038101906106b79190612d1a565b612394565b6040516106c99190613302565b60405180910390f35b6106ec60048036038101906106e79190612ced565b61241b565b6040516106f99190613185565b60405180910390f35b61071c60048036038101906107179190612ced565b612471565b005b600b805461072b90613520565b80601f016020809104026020016040519081016040528092919081815260200182805461075790613520565b80156107a45780601f10610779576101008083540402835291602001916107a4565b820191906000526020600020905b81548152906001019060200180831161078757829003601f168201915b505050505081565b60008073ffffffffffffffffffffffffffffffffffffffff168373ffffffffffffffffffffffffffffffffffffffff16141561081d576040517f08c379a0000000000000000000000000000000000000000000000000000000008152600401610814906131e2565b60405180910390fd5b60008211610860576040517f08c379a000000000000000000000000000000000000000000000000000000000815260040161085790613202565b60405180910390fd5b81600360003373ffffffffffffffffffffffffffffffffffffffff1673ffffffffffffffffffffffffffffffffffffffff16815260200190815260200160002060008573ffffffffffffffffffffffffffffffffffffffff1673ffffffffffffffffffffffffffffffffffffffff168152602001908152602001600020819055508273ffffffffffffffffffffffffffffffffffffffff163373ffffffffffffffffffffffffffffffffffffffff167f8c5be1e5ebec7d5bd14f71427d1e84f3dd0314c0f7b2291e5b200ac8c7c3b9258460405161093e9190613302565b60405180910390a36001905092915050565b60011515600560003373ffffffffffffffffffffffffffffffffffffffff1673ffffffffffffffffffffffffffffffffffffffff16815260200190815260200160002060009054906101000a900460ff161515146109e3576040517f08c379a00000000000000000000000000000000000000000000000000000000081526004016109da90613282565b60405180910390fd5b60005b8351811015610a2757610a14848281518110610a0557610a0461362a565b5b602002602001015184846125b5565b8080610a1f90613583565b9150506109e6565b50505050565b6000600a54905090565b60008383836000610a49848484611f33565b9050600060ff168160ff1614610b08576000610a648261152b565b90508373ffffffffffffffffffffffffffffffffffffffff168573ffffffffffffffffffffffffffffffffffffffff167f2fdd8c36dbe5614497208665e8d30c570421680d09984e3153829ddabd30c09483604051610ac391906131a0565b60405180910390a3806040517f08c379a0000000000000000000000000000000000000000000000000000000008152600401610aff91906131a0565b60405180910390fd5b85600360008a73ffffffffffffffffffffffffffffffffffffffff1673ffffffffffffffffffffffffffffffffffffffff16815260200190815260200160002060003373ffffffffffffffffffffffffffffffffffffffff1673ffffffffffffffffffffffffffffffffffffffff168152602001908152602001600020541015610bc7576040517f08c379a0000000000000000000000000000000000000000000000000000000008152600401610bbe906132c2565b60405180910390fd5b610bd2888888612785565b85600360008a73ffffffffffffffffffffffffffffffffffffffff1673ffffffffffffffffffffffffffffffffffffffff16815260200190815260200160002060003373ffffffffffffffffffffffffffffffffffffffff1673ffffffffffffffffffffffffffffffffffffffff16815260200190815260200160002054610c5a9190613455565b600360008a73ffffffffffffffffffffffffffffffffffffffff1673ffffffffffffffffffffffffffffffffffffffff16815260200190815260200160002060003373ffffffffffffffffffffffffffffffffffffffff1673ffffffffffffffffffffffffffffffffffffffff168152602001908152602001600020819055507f5f7542858008eeb041631f30e6109ae94b83a58e9a58261dd2c42c508850f93933898989604051610d0f9493929190613140565b60405180910390a160019450505050509392505050565b60011515600560003373ffffffffffffffffffffffffffffffffffffffff1673ffffffffffffffffffffffffffffffffffffffff16815260200190815260200160002060009054906101000a900460ff16151514610db9576040517f08c379a0000000000000000000000000000000000000000000000000000000008152600401610db090613282565b60405180910390fd5b610dc48383836125b5565b505050565b60065481565b60003373ffffffffffffffffffffffffffffffffffffffff16600460009054906101000a900473ffffffffffffffffffffffffffffffffffffffff1673ffffffffffffffffffffffffffffffffffffffff1614610e61576040517f08c379a0000000000000000000000000000000000000000000000000000000008152600401610e58906131c2565b60405180910390fd5b610e8e83600460009054906101000a900473ffffffffffffffffffffffffffffffffffffffff1684612785565b6001905092915050565b60003373ffffffffffffffffffffffffffffffffffffffff16600460009054906101000a900473ffffffffffffffffffffffffffffffffffffffff1673ffffffffffffffffffffffffffffffffffffffff1614610f2a576040517f08c379a0000000000000000000000000000000000000000000000000000000008152600401610f21906131c2565b60405180910390fd5b600073ffffffffffffffffffffffffffffffffffffffff168373ffffffffffffffffffffffffffffffffffffffff161415610f9a576040517f08c379a0000000000000000000000000000000000000000000000000000000008152600401610f91906132e2565b60405180910390fd5b81600a54610fa891906133ff565b600a8190555081600260008573ffffffffffffffffffffffffffffffffffffffff1673ffffffffffffffffffffffffffffffffffffffff16815260200190815260200160002054610ff991906133ff565b600260008573ffffffffffffffffffffffffffffffffffffffff1673ffffffffffffffffffffffffffffffffffffffff168152602001908152602001600020819055508273ffffffffffffffffffffffffffffffffffffffff167f7b47457f3af09e5f794b020fd74160963a808f5985883496a096d403d380c343836040516110829190613302565b60405180910390a26001905092915050565b60105481565b3373ffffffffffffffffffffffffffffffffffffffff16600460009054906101000a900473ffffffffffffffffffffffffffffffffffffffff1673ffffffffffffffffffffffffffffffffffffffff161461112a576040517f08c379a0000000000000000000000000000000000000000000000000000000008152600401611121906131c2565b60405180910390fd5b80600f9080519060200190611140929190612afd565b507fa555e96a9f6d83b18cbe170e5fd71ebb56fc55f86a115539e9f3038182075a508160405161117091906131a0565b60405180910390a150565b6007805461118890613520565b80601f01602080910402602001604051908101604052809291908181526020018280546111b490613520565b80156112015780601f106111d657610100808354040283529160200191611201565b820191906000526020600020905b8154815290600101906020018083116111e457829003601f168201915b505050505081565b600d805461121690613520565b80601f016020809104026020016040519081016040528092919081815260200182805461124290613520565b801561128f5780601f106112645761010080835404028352916020019161128f565b820191906000526020600020905b81548152906001019060200180831161127257829003601f168201915b505050505081565b3373ffffffffffffffffffffffffffffffffffffffff16600460009054906101000a900473ffffffffffffffffffffffffffffffffffffffff1673ffffffffffffffffffffffffffffffffffffffff1614611327576040517f08c379a000000000000000000000000000000000000000000000000000000000815260040161131e906131c2565b60405180910390fd5b60008114158015611339575060105481105b15611379576040517f08c379a000000000000000000000000000000000000000000000000000000000815260040161137090613222565b60405180910390fd5b806011819055507f87782743094654fc1484ef46e968abc30c6cd880e70ec8b310eb42641e35eb45816040516113af9190613302565b60405180910390a150565b60125481565b60115481565b600880546113d390613520565b80601f01602080910402602001604051908101604052809291908181526020018280546113ff90613520565b801561144c5780601f106114215761010080835404028352916020019161144c565b820191906000526020600020905b81548152906001019060200180831161142f57829003601f168201915b505050505081565b6000600260008373ffffffffffffffffffffffffffffffffffffffff1673ffffffffffffffffffffffffffffffffffffffff168152602001908152602001600020549050919050565b600980546114aa90613520565b80601f01602080910402602001604051908101604052809291908181526020018280546114d690613520565b80156115235780601f106114f857610100808354040283529160200191611523565b820191906000526020600020905b81548152906001019060200180831161150657829003601f168201915b505050505081565b606060078260ff16116115e95760138260ff168154811061154f5761154e61362a565b5b90600052602060002001805461156490613520565b80601f016020809104026020016040519081016040528092919081815260200182805461159090613520565b80156115dd5780601f106115b2576101008083540402835291602001916115dd565b820191906000526020600020905b8154815290600101906020018083116115c057829003601f168201915b50505050509050611622565b6040518060400160405280601981526020017f4572726f7220636f6465206973206e6f7420646566696e65640000000000000081525090505b919050565b600e805461163490613520565b80601f016020809104026020016040519081016040528092919081815260200182805461166090613520565b80156116ad5780601f10611682576101008083540402835291602001916116ad565b820191906000526020600020905b81548152906001019060200180831161169057829003601f168201915b505050505081565b6000600460009054906101000a900473ffffffffffffffffffffffffffffffffffffffff16905090565b600c80546116ec90613520565b80601f016020809104026020016040519081016040528092919081815260200182805461171890613520565b80156117655780601f1061173a57610100808354040283529160200191611765565b820191906000526020600020905b81548152906001019060200180831161174857829003601f168201915b505050505081565b60003373ffffffffffffffffffffffffffffffffffffffff16600460009054906101000a900473ffffffffffffffffffffffffffffffffffffffff1673ffffffffffffffffffffffffffffffffffffffff16146117ff576040517f08c379a00000000000000000000000000000000000000000000000000000000081526004016117f6906131c2565b60405180910390fd5b81600260008573ffffffffffffffffffffffffffffffffffffffff1673ffffffffffffffffffffffffffffffffffffffff168152602001908152602001600020541015611881576040517f08c379a000000000000000000000000000000000000000000000000000000000815260040161187890613242565b60405180910390fd5b81600a5461188f9190613455565b600a8190555081600260008573ffffffffffffffffffffffffffffffffffffffff1673ffffffffffffffffffffffffffffffffffffffff168152602001908152602001600020546118e09190613455565b600260008573ffffffffffffffffffffffffffffffffffffffff1673ffffffffffffffffffffffffffffffffffffffff168152602001908152602001600020819055508273ffffffffffffffffffffffffffffffffffffffff167f388d6102a0230861b4e9646fb5acda1c5ec15d39df2b619d39c25d16a1268490836040516119699190613302565b60405180910390a26001905092915050565b6000338383600061198d848484611f33565b9050600060ff168160ff1614611a4c5760006119a88261152b565b90508373ffffffffffffffffffffffffffffffffffffffff168573ffffffffffffffffffffffffffffffffffffffff167f2fdd8c36dbe5614497208665e8d30c570421680d09984e3153829ddabd30c09483604051611a0791906131a0565b60405180910390a3806040517f08c379a0000000000000000000000000000000000000000000000000000000008152600401611a4391906131a0565b60405180910390fd5b611a57338888612785565b600194505050505092915050565b6000806000808473ffffffffffffffffffffffffffffffffffffffff1673ffffffffffffffffffffffffffffffffffffffff16815260200190815260200160002054600160008573ffffffffffffffffffffffffffffffffffffffff1673ffffffffffffffffffffffffffffffffffffffff1681526020019081526020016000205491509150915091565b3373ffffffffffffffffffffffffffffffffffffffff16600460009054906101000a900473ffffffffffffffffffffffffffffffffffffffff1673ffffffffffffffffffffffffffffffffffffffff1614611b80576040517f08c379a0000000000000000000000000000000000000000000000000000000008152600401611b77906131c2565b60405180910390fd5b80600e9080519060200190611b96929190612afd565b507f824a3f3055c070014bc7157744915537c646ae1a287c988d79ec124d88938e9481604051611bc691906131a0565b60405180910390a150565b3373ffffffffffffffffffffffffffffffffffffffff16600460009054906101000a900473ffffffffffffffffffffffffffffffffffffffff1673ffffffffffffffffffffffffffffffffffffffff1614611c61576040517f08c379a0000000000000000000000000000000000000000000000000000000008152600401611c58906131c2565b60405180910390fd5b80600d9080519060200190611c77929190612afd565b507f4295968313e92c7dd40aa9c85be9b7246ff59503751e11205c85795a2f74fdb381604051611ca791906131a0565b60405180910390a150565b600f8054611cbf90613520565b80601f0160208091040260200160405190810160405280929190818152602001828054611ceb90613520565b8015611d385780601f10611d0d57610100808354040283529160200191611d38565b820191906000526020600020905b815481529060010190602001808311611d1b57829003601f168201915b505050505081565b3373ffffffffffffffffffffffffffffffffffffffff16600460009054906101000a900473ffffffffffffffffffffffffffffffffffffffff1673ffffffffffffffffffffffffffffffffffffffff1614611dd0576040517f08c379a0000000000000000000000000000000000000000000000000000000008152600401611dc7906131c2565b60405180910390fd5b806012819055507f050293e6952eab2f7cf401de4a51c1918da86a2bd5a7276a11ae3dd4a549cde981604051611e069190613302565b60405180910390a150565b3373ffffffffffffffffffffffffffffffffffffffff16600460009054906101000a900473ffffffffffffffffffffffffffffffffffffffff1673ffffffffffffffffffffffffffffffffffffffff1614611ea1576040517f08c379a0000000000000000000000000000000000000000000000000000000008152600401611e98906131c2565b60405180910390fd5b6001600560008373ffffffffffffffffffffffffffffffffffffffff1673ffffffffffffffffffffffffffffffffffffffff16815260200190815260200160002060006101000a81548160ff0219169083151502179055507fea54bdb8a4594aaac063e3b01ab3e613bf4cb045d085502c81497c9696aca8b281604051611f289190613125565b60405180910390a150565b600060125442108015611f945750600460009054906101000a900473ffffffffffffffffffffffffffffffffffffffff1673ffffffffffffffffffffffffffffffffffffffff168473ffffffffffffffffffffffffffffffffffffffff1614155b15611fa25760029050612274565b60008211611fb35760039050612274565b6000600160008673ffffffffffffffffffffffffffffffffffffffff1673ffffffffffffffffffffffffffffffffffffffff1681526020019081526020016000205414156120045760049050612274565b60008060008573ffffffffffffffffffffffffffffffffffffffff1673ffffffffffffffffffffffffffffffffffffffff1681526020019081526020016000205414156120545760059050612274565b42600160008673ffffffffffffffffffffffffffffffffffffffff1673ffffffffffffffffffffffffffffffffffffffff1681526020019081526020016000205411156120a45760069050612274565b426000808573ffffffffffffffffffffffffffffffffffffffff1673ffffffffffffffffffffffffffffffffffffffff1681526020019081526020016000205411156120f35760079050612274565b600060115414156121075760009050612274565b6000600260008573ffffffffffffffffffffffffffffffffffffffff1673ffffffffffffffffffffffffffffffffffffffff1681526020019081526020016000205411806121a25750600460009054906101000a900473ffffffffffffffffffffffffffffffffffffffff1673ffffffffffffffffffffffffffffffffffffffff168373ffffffffffffffffffffffffffffffffffffffff16145b156121b05760009050612274565b60115460105410156121c55760009050612274565b81600260008673ffffffffffffffffffffffffffffffffffffffff1673ffffffffffffffffffffffffffffffffffffffff168152602001908152602001600020541480156122615750600460009054906101000a900473ffffffffffffffffffffffffffffffffffffffff1673ffffffffffffffffffffffffffffffffffffffff168473ffffffffffffffffffffffffffffffffffffffff1614155b1561226f5760009050612274565b600190505b9392505050565b3373ffffffffffffffffffffffffffffffffffffffff16600460009054906101000a900473ffffffffffffffffffffffffffffffffffffffff1673ffffffffffffffffffffffffffffffffffffffff161461230b576040517f08c379a0000000000000000000000000000000000000000000000000000000008152600401612302906131c2565b60405180910390fd5b600560008273ffffffffffffffffffffffffffffffffffffffff1673ffffffffffffffffffffffffffffffffffffffff16815260200190815260200160002060006101000a81549060ff02191690557f24546dc0f5df685d7c979edd1b0bcc4d85ac6a59974976d7217c9f0d930d3ff0816040516123899190613125565b60405180910390a150565b6000600360008473ffffffffffffffffffffffffffffffffffffffff1673ffffffffffffffffffffffffffffffffffffffff16815260200190815260200160002060008373ffffffffffffffffffffffffffffffffffffffff1673ffffffffffffffffffffffffffffffffffffffff16815260200190815260200160002054905092915050565b6000600560008373ffffffffffffffffffffffffffffffffffffffff1673ffffffffffffffffffffffffffffffffffffffff16815260200190815260200160002060009054906101000a900460ff169050919050565b3373ffffffffffffffffffffffffffffffffffffffff16600460009054906101000a900473ffffffffffffffffffffffffffffffffffffffff1673ffffffffffffffffffffffffffffffffffffffff1614612501576040517f08c379a00000000000000000000000000000000000000000000000000000000081526004016124f8906131c2565b60405180910390fd5b600073ffffffffffffffffffffffffffffffffffffffff168173ffffffffffffffffffffffffffffffffffffffff161415612571576040517f08c379a000000000000000000000000000000000000000000000000000000000815260040161256890613262565b60405180910390fd5b80600460006101000a81548173ffffffffffffffffffffffffffffffffffffffff021916908373ffffffffffffffffffffffffffffffffffffffff16021790555050565b60008060008573ffffffffffffffffffffffffffffffffffffffff1673ffffffffffffffffffffffffffffffffffffffff1681526020019081526020016000205490506000600160008673ffffffffffffffffffffffffffffffffffffffff1673ffffffffffffffffffffffffffffffffffffffff168152602001908152602001600020549050836000808773ffffffffffffffffffffffffffffffffffffffff1673ffffffffffffffffffffffffffffffffffffffff1681526020019081526020016000208190555082600160008773ffffffffffffffffffffffffffffffffffffffff1673ffffffffffffffffffffffffffffffffffffffff168152602001908152602001600020819055506000821480156126d35750600081145b1561272d578473ffffffffffffffffffffffffffffffffffffffff167fc78ee1de8eb00c83baa5f9bf324f00dd286b754a3826292de51c92c3e7a0cab5858560405161272092919061331d565b60405180910390a261277e565b8473ffffffffffffffffffffffffffffffffffffffff167f50fc162609db30a736355688f8f60baab2991bebb40a6d50ed93371a95493616858560405161277592919061331d565b60405180910390a25b5050505050565b80600260008573ffffffffffffffffffffffffffffffffffffffff1673ffffffffffffffffffffffffffffffffffffffff168152602001908152602001600020541015612807576040517f08c379a00000000000000000000000000000000000000000000000000000000081526004016127fe906132a2565b60405180910390fd5b80600260008573ffffffffffffffffffffffffffffffffffffffff1673ffffffffffffffffffffffffffffffffffffffff168152602001908152602001600020546128529190613455565b600260008573ffffffffffffffffffffffffffffffffffffffff1673ffffffffffffffffffffffffffffffffffffffff168152602001908152602001600020819055506000600260008573ffffffffffffffffffffffffffffffffffffffff1673ffffffffffffffffffffffffffffffffffffffff168152602001908152602001600020541480156129325750600460009054906101000a900473ffffffffffffffffffffffffffffffffffffffff1673ffffffffffffffffffffffffffffffffffffffff168373ffffffffffffffffffffffffffffffffffffffff1614155b1561294d5760016010546129469190613455565b6010819055505b6000600260008473ffffffffffffffffffffffffffffffffffffffff1673ffffffffffffffffffffffffffffffffffffffff168152602001908152602001600020541480156129ea5750600460009054906101000a900473ffffffffffffffffffffffffffffffffffffffff1673ffffffffffffffffffffffffffffffffffffffff168273ffffffffffffffffffffffffffffffffffffffff1614155b15612a055760016010546129fe91906133ff565b6010819055505b80600260008473ffffffffffffffffffffffffffffffffffffffff1673ffffffffffffffffffffffffffffffffffffffff16815260200190815260200160002054612a5091906133ff565b600260008473ffffffffffffffffffffffffffffffffffffffff1673ffffffffffffffffffffffffffffffffffffffff168152602001908152602001600020819055508173ffffffffffffffffffffffffffffffffffffffff168373ffffffffffffffffffffffffffffffffffffffff167fddf252ad1be2c89b69c2b068fc378daa952ba7f163c4a11628f55a4df523b3ef83604051612af09190613302565b60405180910390a3505050565b828054612b0990613520565b90600052602060002090601f016020900481019282612b2b5760008555612b72565b82601f10612b4457805160ff1916838001178555612b72565b82800160010185558215612b72579182015b82811115612b71578251825591602001919060010190612b56565b5b509050612b7f9190612b83565b5090565b5b80821115612b9c576000816000905550600101612b84565b5090565b6000612bb3612bae84613386565b613361565b90508083825260208201905082856020860282011115612bd657612bd561368d565b5b60005b85811015612c065781612bec8882612c52565b845260208401935060208301925050600181019050612bd9565b5050509392505050565b6000612c23612c1e846133b2565b613361565b905082815260208101848484011115612c3f57612c3e613692565b5b612c4a8482856134de565b509392505050565b600081359050612c61816139c8565b92915050565b600082601f830112612c7c57612c7b613688565b5b8135612c8c848260208601612ba0565b91505092915050565b600082601f830112612caa57612ca9613688565b5b8135612cba848260208601612c10565b91505092915050565b600081359050612cd2816139df565b92915050565b600081359050612ce7816139f6565b92915050565b600060208284031215612d0357612d0261369c565b5b6000612d1184828501612c52565b91505092915050565b60008060408385031215612d3157612d3061369c565b5b6000612d3f85828601612c52565b9250506020612d5085828601612c52565b9150509250929050565b600080600060608486031215612d7357612d7261369c565b5b6000612d8186828701612c52565b9350506020612d9286828701612c52565b9250506040612da386828701612cc3565b9150509250925092565b60008060408385031215612dc457612dc361369c565b5b6000612dd285828601612c52565b9250506020612de385828601612cc3565b9150509250929050565b600080600060608486031215612e0657612e0561369c565b5b6000612e1486828701612c52565b9350506020612e2586828701612cc3565b9250506040612e3686828701612cc3565b9150509250925092565b600080600060608486031215612e5957612e5861369c565b5b600084013567ffffffffffffffff811115612e7757612e76613697565b5b612e8386828701612c67565b9350506020612e9486828701612cc3565b9250506040612ea586828701612cc3565b9150509250925092565b600060208284031215612ec557612ec461369c565b5b600082013567ffffffffffffffff811115612ee357612ee2613697565b5b612eef84828501612c95565b91505092915050565b600060208284031215612f0e57612f0d61369c565b5b6000612f1c84828501612cc3565b91505092915050565b600060208284031215612f3b57612f3a61369c565b5b6000612f4984828501612cd8565b91505092915050565b612f5b81613489565b82525050565b612f6a8161349b565b82525050565b6000612f7b826133e3565b612f8581856133ee565b9350612f958185602086016134ed565b612f9e816136a1565b840191505092915050565b6000612fb66021836133ee565b9150612fc1826136b2565b604082019050919050565b6000612fd96023836133ee565b9150612fe482613701565b604082019050919050565b6000612ffc6017836133ee565b915061300782613750565b602082019050919050565b600061301f603b836133ee565b915061302a82613779565b604082019050919050565b6000613042602b836133ee565b915061304d826137c8565b604082019050919050565b60006130656021836133ee565b915061307082613817565b604082019050919050565b60006130886041836133ee565b915061309382613866565b606082019050919050565b60006130ab603c836133ee565b91506130b6826138db565b604082019050919050565b60006130ce6038836133ee565b91506130d98261392a565b604082019050919050565b60006130f16028836133ee565b91506130fc82613979565b604082019050919050565b613110816134c7565b82525050565b61311f816134d1565b82525050565b600060208201905061313a6000830184612f52565b92915050565b60006080820190506131556000830187612f52565b6131626020830186612f52565b61316f6040830185612f52565b61317c6060830184613107565b95945050505050565b600060208201905061319a6000830184612f61565b92915050565b600060208201905081810360008301526131ba8184612f70565b905092915050565b600060208201905081810360008301526131db81612fa9565b9050919050565b600060208201905081810360008301526131fb81612fcc565b9050919050565b6000602082019050818103600083015261321b81612fef565b9050919050565b6000602082019050818103600083015261323b81613012565b9050919050565b6000602082019050818103600083015261325b81613035565b9050919050565b6000602082019050818103600083015261327b81613058565b9050919050565b6000602082019050818103600083015261329b8161307b565b9050919050565b600060208201905081810360008301526132bb8161309e565b9050919050565b600060208201905081810360008301526132db816130c1565b9050919050565b600060208201905081810360008301526132fb816130e4565b9050919050565b60006020820190506133176000830184613107565b92915050565b60006040820190506133326000830185613107565b61333f6020830184613107565b9392505050565b600060208201905061335b6000830184613116565b92915050565b600061336b61337c565b90506133778282613552565b919050565b6000604051905090565b600067ffffffffffffffff8211156133a1576133a0613659565b5b602082029050602081019050919050565b600067ffffffffffffffff8211156133cd576133cc613659565b5b6133d6826136a1565b9050602081019050919050565b600081519050919050565b600082825260208201905092915050565b600061340a826134c7565b9150613415836134c7565b9250827fffffffffffffffffffffffffffffffffffffffffffffffffffffffffffffffff0382111561344a576134496135cc565b5b828201905092915050565b6000613460826134c7565b915061346b836134c7565b92508282101561347e5761347d6135cc565b5b828203905092915050565b6000613494826134a7565b9050919050565b60008115159050919050565b600073ffffffffffffffffffffffffffffffffffffffff82169050919050565b6000819050919050565b600060ff82169050919050565b82818337600083830152505050565b60005b8381101561350b5780820151818401526020810190506134f0565b8381111561351a576000848401525b50505050565b6000600282049050600182168061353857607f821691505b6020821081141561354c5761354b6135fb565b5b50919050565b61355b826136a1565b810181811067ffffffffffffffff8211171561357a57613579613659565b5b80604052505050565b600061358e826134c7565b91507fffffffffffffffffffffffffffffffffffffffffffffffffffffffffffffffff8214156135c1576135c06135cc565b5b600182019050919050565b7f4e487b7100000000000000000000000000000000000000000000000000000000600052601160045260246000fd5b7f4e487b7100000000000000000000000000000000000000000000000000000000600052602260045260246000fd5b7f4e487b7100000000000000000000000000000000000000000000000000000000600052603260045260246000fd5b7f4e487b7100000000000000000000000000000000000000000000000000000000600052604160045260246000fd5b600080fd5b600080fd5b600080fd5b600080fd5b600080fd5b6000601f19601f8301169050919050565b7f4f6e6c79206f776e6572206861732061636365737320746f2066756e6374696f60008201527f6e00000000000000000000000000000000000000000000000000000000000000602082015250565b7f5a65726f2061646472657373206173207370656e646572206e6f7420616c6c6f60008201527f7765640000000000000000000000000000000000000000000000000000000000602082015250565b7f5a65726f20416d6f756e74206e6f7420616c6c6f776564000000000000000000600082015250565b7f416c6c6f77656420496e766573746f72732063616e6e6f74206265206c65737360008201527f207468616e2063757272656e7420746f6b656e20686f6c646572730000000000602082015250565b7f4275726e20616d6f756e742069732067726561746572207468616e206164647260008201527f6573732062616c616e6365000000000000000000000000000000000000000000602082015250565b7f5a65726f2061646472657373206e6f7420616c6c6f776564206173206f776e6560008201527f7200000000000000000000000000000000000000000000000000000000000000602082015250565b7f4f6e6c7920617574686f72697a6564206164647265737365732063616e20636860008201527f616e6765204b594320696e666f726d6174696f6e206f6620696e766573746f7260208201527f7300000000000000000000000000000000000000000000000000000000000000604082015250565b7f53656e64657220697320747279696e6720746f207472616e7366657220616d6f60008201527f756e742067726561746572207468616e206869732062616c616e636500000000602082015250565b7f53656e6465722063616e6e6f74207472616e7366657220616d6f756e7420677260008201527f6561746572207468616e2068697320416c6c6f77616e63650000000000000000602082015250565b7f546f6b656e732063616e6e6f74206265206d696e74656420666f72206164647260008201527f657373207a65726f000000000000000000000000000000000000000000000000602082015250565b6139d181613489565b81146139dc57600080fd5b50565b6139e8816134c7565b81146139f357600080fd5b50565b6139ff816134d1565b8114613a0a57600080fd5b5056fea26469706673582212204e6b769d30edaea41997596cb8db0157dc961ed417ca61ba6111f41c1252f2e264736f6c634300080700335265636569766572206973206e6f742077686974656c6973746564206f7220626c6f636b65644d617820616c6c6f77656420696e766573746f72207265737472696374696f6e20697320696e20706c6163652c2074686973207472616e736665722077696c6c206578636565642074686973206c696d69746174696f6e53656e6465722069732077686974656c697374656420627574206973206e6f7420656c696769626c6520746f2073656e6420746f6b656e7320616e6420756e64657220686f6c64696e6720706572696f6420284b59432074696d65207265737472696374696f6e29416c6c207472616e7366657273206172652064697361626c6564206265636175736520486f6c64696e6720506572696f64206973206e6f7420796574206578706972656452656365697665722069732077686974656c697374656420627574206973206e6f742079657420656c696769626c6520746f207265636569766520746f6b656e7320696e206869732077616c6c657420284b59432074696d65207265737472696374696f6e2953656e646572206973206e6f742077686974656c6973746564206f7220626c6f636b6564",
					"opcodes": "PUSH1 0x80 PUSH1 0x40 MSTORE PUSH1 0x12 PUSH1 0x6 SSTORE PUSH1 0x40 MLOAD DUP1 PUSH1 0x40 ADD PUSH1 0x40 MSTORE DUP1 PUSH1 0x3 DUP2 MSTORE PUSH1 0x20 ADD PUSH32 0x312E320000000000000000000000000000000000000000000000000000000000 DUP2 MSTORE POP PUSH1 0x7 SWAP1 DUP1 MLOAD SWAP1 PUSH1 0x20 ADD SWAP1 PUSH3 0x56 SWAP3 SWAP2 SWAP1 PUSH3 0x626 JUMP JUMPDEST POP PUSH1 0x40 MLOAD DUP1 PUSH1 0x40 ADD PUSH1 0x40 MSTORE DUP1 PUSH1 0xA DUP2 MSTORE PUSH1 0x20 ADD PUSH32 0x4469676953686172657300000000000000000000000000000000000000000000 DUP2 MSTORE POP PUSH1 0x8 SWAP1 DUP1 MLOAD SWAP1 PUSH1 0x20 ADD SWAP1 PUSH3 0xA4 SWAP3 SWAP2 SWAP1 PUSH3 0x626 JUMP JUMPDEST POP PUSH1 0x40 MLOAD DUP1 PUSH1 0x40 ADD PUSH1 0x40 MSTORE DUP1 PUSH1 0x8 DUP2 MSTORE PUSH1 0x20 ADD PUSH32 0x4552432D31343034000000000000000000000000000000000000000000000000 DUP2 MSTORE POP PUSH1 0x9 SWAP1 DUP1 MLOAD SWAP1 PUSH1 0x20 ADD SWAP1 PUSH3 0xF2 SWAP3 SWAP2 SWAP1 PUSH3 0x626 JUMP JUMPDEST POP PUSH1 0x0 PUSH1 0x10 SSTORE PUSH1 0x0 PUSH1 0x11 SSTORE PUSH1 0x1 PUSH1 0x12 SSTORE PUSH1 0x40 MLOAD DUP1 PUSH2 0x100 ADD PUSH1 0x40 MSTORE DUP1 PUSH1 0x40 MLOAD DUP1 PUSH1 0x40 ADD PUSH1 0x40 MSTORE DUP1 PUSH1 0x1E DUP2 MSTORE PUSH1 0x20 ADD PUSH32 0x4E6F207472616E73666572207265737472696374696F6E7320666F756E640000 DUP2 MSTORE POP DUP2 MSTORE PUSH1 0x20 ADD PUSH1 0x40 MLOAD DUP1 PUSH1 0x80 ADD PUSH1 0x40 MSTORE DUP1 PUSH1 0x57 DUP2 MSTORE PUSH1 0x20 ADD PUSH3 0x466E PUSH1 0x57 SWAP2 CODECOPY DUP2 MSTORE PUSH1 0x20 ADD PUSH1 0x40 MLOAD DUP1 PUSH1 0x80 ADD PUSH1 0x40 MSTORE DUP1 PUSH1 0x44 DUP2 MSTORE PUSH1 0x20 ADD PUSH3 0x472D PUSH1 0x44 SWAP2 CODECOPY DUP2 MSTORE PUSH1 0x20 ADD PUSH1 0x40 MLOAD DUP1 PUSH1 0x40 ADD PUSH1 0x40 MSTORE DUP1 PUSH1 0x20 DUP2 MSTORE PUSH1 0x20 ADD PUSH32 0x5A65726F207472616E7366657220616D6F756E74206E6F7420616C6C6F776564 DUP2 MSTORE POP DUP2 MSTORE PUSH1 0x20 ADD PUSH1 0x40 MLOAD DUP1 PUSH1 0x60 ADD PUSH1 0x40 MSTORE DUP1 PUSH1 0x24 DUP2 MSTORE PUSH1 0x20 ADD PUSH3 0x47D7 PUSH1 0x24 SWAP2 CODECOPY DUP2 MSTORE PUSH1 0x20 ADD PUSH1 0x40 MLOAD DUP1 PUSH1 0x60 ADD PUSH1 0x40 MSTORE DUP1 PUSH1 0x26 DUP2 MSTORE PUSH1 0x20 ADD PUSH3 0x4648 PUSH1 0x26 SWAP2 CODECOPY DUP2 MSTORE PUSH1 0x20 ADD PUSH1 0x40 MLOAD DUP1 PUSH1 0xA0 ADD PUSH1 0x40 MSTORE DUP1 PUSH1 0x68 DUP2 MSTORE PUSH1 0x20 ADD PUSH3 0x46C5 PUSH1 0x68 SWAP2 CODECOPY DUP2 MSTORE PUSH1 0x20 ADD PUSH1 0x40 MLOAD DUP1 PUSH1 0xA0 ADD PUSH1 0x40 MSTORE DUP1 PUSH1 0x66 DUP2 MSTORE PUSH1 0x20 ADD PUSH3 0x4771 PUSH1 0x66 SWAP2 CODECOPY DUP2 MSTORE POP PUSH1 0x13 SWAP1 PUSH1 0x8 PUSH3 0x24E SWAP3 SWAP2 SWAP1 PUSH3 0x6B7 JUMP JUMPDEST POP CALLVALUE DUP1 ISZERO PUSH3 0x25C JUMPI PUSH1 0x0 DUP1 REVERT JUMPDEST POP PUSH1 0x40 MLOAD PUSH3 0x47FB CODESIZE SUB DUP1 PUSH3 0x47FB DUP4 CODECOPY DUP2 DUP2 ADD PUSH1 0x40 MSTORE DUP2 ADD SWAP1 PUSH3 0x282 SWAP2 SWAP1 PUSH3 0x857 JUMP JUMPDEST DUP8 PUSH1 0xB SWAP1 DUP1 MLOAD SWAP1 PUSH1 0x20 ADD SWAP1 PUSH3 0x29A SWAP3 SWAP2 SWAP1 PUSH3 0x626 JUMP JUMPDEST POP DUP7 PUSH1 0xC SWAP1 DUP1 MLOAD SWAP1 PUSH1 0x20 ADD SWAP1 PUSH3 0x2B3 SWAP3 SWAP2 SWAP1 PUSH3 0x626 JUMP JUMPDEST POP DUP5 PUSH1 0x6 DUP2 SWAP1 SSTORE POP CALLER PUSH1 0x4 PUSH1 0x0 PUSH2 0x100 EXP DUP2 SLOAD DUP2 PUSH20 0xFFFFFFFFFFFFFFFFFFFFFFFFFFFFFFFFFFFFFFFF MUL NOT AND SWAP1 DUP4 PUSH20 0xFFFFFFFFFFFFFFFFFFFFFFFFFFFFFFFFFFFFFFFF AND MUL OR SWAP1 SSTORE POP PUSH1 0x1 PUSH1 0x0 DUP1 PUSH1 0x4 PUSH1 0x0 SWAP1 SLOAD SWAP1 PUSH2 0x100 EXP SWAP1 DIV PUSH20 0xFFFFFFFFFFFFFFFFFFFFFFFFFFFFFFFFFFFFFFFF AND PUSH20 0xFFFFFFFFFFFFFFFFFFFFFFFFFFFFFFFFFFFFFFFF AND PUSH20 0xFFFFFFFFFFFFFFFFFFFFFFFFFFFFFFFFFFFFFFFF AND DUP2 MSTORE PUSH1 0x20 ADD SWAP1 DUP2 MSTORE PUSH1 0x20 ADD PUSH1 0x0 KECCAK256 DUP2 SWAP1 SSTORE POP PUSH1 0x1 DUP1 PUSH1 0x0 PUSH1 0x4 PUSH1 0x0 SWAP1 SLOAD SWAP1 PUSH2 0x100 EXP SWAP1 DIV PUSH20 0xFFFFFFFFFFFFFFFFFFFFFFFFFFFFFFFFFFFFFFFF AND PUSH20 0xFFFFFFFFFFFFFFFFFFFFFFFFFFFFFFFFFFFFFFFF AND PUSH20 0xFFFFFFFFFFFFFFFFFFFFFFFFFFFFFFFFFFFFFFFF AND DUP2 MSTORE PUSH1 0x20 ADD SWAP1 DUP2 MSTORE PUSH1 0x20 ADD PUSH1 0x0 KECCAK256 DUP2 SWAP1 SSTORE POP PUSH1 0x1 PUSH1 0x0 DUP1 DUP4 PUSH20 0xFFFFFFFFFFFFFFFFFFFFFFFFFFFFFFFFFFFFFFFF AND PUSH20 0xFFFFFFFFFFFFFFFFFFFFFFFFFFFFFFFFFFFFFFFF AND DUP2 MSTORE PUSH1 0x20 ADD SWAP1 DUP2 MSTORE PUSH1 0x20 ADD PUSH1 0x0 KECCAK256 DUP2 SWAP1 SSTORE POP PUSH1 0x1 DUP1 PUSH1 0x0 DUP4 PUSH20 0xFFFFFFFFFFFFFFFFFFFFFFFFFFFFFFFFFFFFFFFF AND PUSH20 0xFFFFFFFFFFFFFFFFFFFFFFFFFFFFFFFFFFFFFFFF AND DUP2 MSTORE PUSH1 0x20 ADD SWAP1 DUP2 MSTORE PUSH1 0x20 ADD PUSH1 0x0 KECCAK256 DUP2 SWAP1 SSTORE POP DUP6 PUSH1 0x11 DUP2 SWAP1 SSTORE POP DUP9 PUSH1 0xA DUP2 SWAP1 SSTORE POP PUSH1 0xA SLOAD PUSH1 0x2 PUSH1 0x0 PUSH1 0x4 PUSH1 0x0 SWAP1 SLOAD SWAP1 PUSH2 0x100 EXP SWAP1 DIV PUSH20 0xFFFFFFFFFFFFFFFFFFFFFFFFFFFFFFFFFFFFFFFF AND PUSH20 0xFFFFFFFFFFFFFFFFFFFFFFFFFFFFFFFFFFFFFFFF AND PUSH20 0xFFFFFFFFFFFFFFFFFFFFFFFFFFFFFFFFFFFFFFFF AND DUP2 MSTORE PUSH1 0x20 ADD SWAP1 DUP2 MSTORE PUSH1 0x20 ADD PUSH1 0x0 KECCAK256 DUP2 SWAP1 SSTORE POP PUSH1 0x1 PUSH1 0x5 PUSH1 0x0 PUSH1 0x4 PUSH1 0x0 SWAP1 SLOAD SWAP1 PUSH2 0x100 EXP SWAP1 DIV PUSH20 0xFFFFFFFFFFFFFFFFFFFFFFFFFFFFFFFFFFFFFFFF AND PUSH20 0xFFFFFFFFFFFFFFFFFFFFFFFFFFFFFFFFFFFFFFFF AND PUSH20 0xFFFFFFFFFFFFFFFFFFFFFFFFFFFFFFFFFFFFFFFF AND DUP2 MSTORE PUSH1 0x20 ADD SWAP1 DUP2 MSTORE PUSH1 0x20 ADD PUSH1 0x0 KECCAK256 PUSH1 0x0 PUSH2 0x100 EXP DUP2 SLOAD DUP2 PUSH1 0xFF MUL NOT AND SWAP1 DUP4 ISZERO ISZERO MUL OR SWAP1 SSTORE POP DUP4 PUSH1 0xD SWAP1 DUP1 MLOAD SWAP1 PUSH1 0x20 ADD SWAP1 PUSH3 0x558 SWAP3 SWAP2 SWAP1 PUSH3 0x626 JUMP JUMPDEST POP DUP3 PUSH1 0xE SWAP1 DUP1 MLOAD SWAP1 PUSH1 0x20 ADD SWAP1 PUSH3 0x571 SWAP3 SWAP2 SWAP1 PUSH3 0x626 JUMP JUMPDEST POP DUP2 PUSH1 0xF SWAP1 DUP1 MLOAD SWAP1 PUSH1 0x20 ADD SWAP1 PUSH3 0x58A SWAP3 SWAP2 SWAP1 PUSH3 0x626 JUMP JUMPDEST POP PUSH1 0x4 PUSH1 0x0 SWAP1 SLOAD SWAP1 PUSH2 0x100 EXP SWAP1 DIV PUSH20 0xFFFFFFFFFFFFFFFFFFFFFFFFFFFFFFFFFFFFFFFF AND PUSH20 0xFFFFFFFFFFFFFFFFFFFFFFFFFFFFFFFFFFFFFFFF AND PUSH1 0x0 PUSH20 0xFFFFFFFFFFFFFFFFFFFFFFFFFFFFFFFFFFFFFFFF AND PUSH32 0xDDF252AD1BE2C89B69C2B068FC378DAA952BA7F163C4A11628F55A4DF523B3EF PUSH1 0xA SLOAD PUSH1 0x40 MLOAD PUSH3 0x60F SWAP2 SWAP1 PUSH3 0x9E2 JUMP JUMPDEST PUSH1 0x40 MLOAD DUP1 SWAP2 SUB SWAP1 LOG3 POP POP POP POP POP POP POP POP POP PUSH3 0xBF5 JUMP JUMPDEST DUP3 DUP1 SLOAD PUSH3 0x634 SWAP1 PUSH3 0xAD2 JUMP JUMPDEST SWAP1 PUSH1 0x0 MSTORE PUSH1 0x20 PUSH1 0x0 KECCAK256 SWAP1 PUSH1 0x1F ADD PUSH1 0x20 SWAP1 DIV DUP2 ADD SWAP3 DUP3 PUSH3 0x658 JUMPI PUSH1 0x0 DUP6 SSTORE PUSH3 0x6A4 JUMP JUMPDEST DUP3 PUSH1 0x1F LT PUSH3 0x673 JUMPI DUP1 MLOAD PUSH1 0xFF NOT AND DUP4 DUP1 ADD OR DUP6 SSTORE PUSH3 0x6A4 JUMP JUMPDEST DUP3 DUP1 ADD PUSH1 0x1 ADD DUP6 SSTORE DUP3 ISZERO PUSH3 0x6A4 JUMPI SWAP2 DUP3 ADD JUMPDEST DUP3 DUP2 GT ISZERO PUSH3 0x6A3 JUMPI DUP3 MLOAD DUP3 SSTORE SWAP2 PUSH1 0x20 ADD SWAP2 SWAP1 PUSH1 0x1 ADD SWAP1 PUSH3 0x686 JUMP JUMPDEST JUMPDEST POP SWAP1 POP PUSH3 0x6B3 SWAP2 SWAP1 PUSH3 0x71E JUMP JUMPDEST POP SWAP1 JUMP JUMPDEST DUP3 DUP1 SLOAD DUP3 DUP3 SSTORE SWAP1 PUSH1 0x0 MSTORE PUSH1 0x20 PUSH1 0x0 KECCAK256 SWAP1 DUP2 ADD SWAP3 DUP3 ISZERO PUSH3 0x70B JUMPI SWAP2 PUSH1 0x20 MUL DUP3 ADD JUMPDEST DUP3 DUP2 GT ISZERO PUSH3 0x70A JUMPI DUP3 MLOAD DUP3 SWAP1 DUP1 MLOAD SWAP1 PUSH1 0x20 ADD SWAP1 PUSH3 0x6F9 SWAP3 SWAP2 SWAP1 PUSH3 0x626 JUMP JUMPDEST POP SWAP2 PUSH1 0x20 ADD SWAP2 SWAP1 PUSH1 0x1 ADD SWAP1 PUSH3 0x6D8 JUMP JUMPDEST JUMPDEST POP SWAP1 POP PUSH3 0x71A SWAP2 SWAP1 PUSH3 0x73D JUMP JUMPDEST POP SWAP1 JUMP JUMPDEST JUMPDEST DUP1 DUP3 GT ISZERO PUSH3 0x739 JUMPI PUSH1 0x0 DUP2 PUSH1 0x0 SWAP1 SSTORE POP PUSH1 0x1 ADD PUSH3 0x71F JUMP JUMPDEST POP SWAP1 JUMP JUMPDEST JUMPDEST DUP1 DUP3 GT ISZERO PUSH3 0x761 JUMPI PUSH1 0x0 DUP2 DUP2 PUSH3 0x757 SWAP2 SWAP1 PUSH3 0x765 JUMP JUMPDEST POP PUSH1 0x1 ADD PUSH3 0x73E JUMP JUMPDEST POP SWAP1 JUMP JUMPDEST POP DUP1 SLOAD PUSH3 0x773 SWAP1 PUSH3 0xAD2 JUMP JUMPDEST PUSH1 0x0 DUP3 SSTORE DUP1 PUSH1 0x1F LT PUSH3 0x787 JUMPI POP PUSH3 0x7A8 JUMP JUMPDEST PUSH1 0x1F ADD PUSH1 0x20 SWAP1 DIV SWAP1 PUSH1 0x0 MSTORE PUSH1 0x20 PUSH1 0x0 KECCAK256 SWAP1 DUP2 ADD SWAP1 PUSH3 0x7A7 SWAP2 SWAP1 PUSH3 0x71E JUMP JUMPDEST JUMPDEST POP JUMP JUMPDEST PUSH1 0x0 PUSH3 0x7C2 PUSH3 0x7BC DUP5 PUSH3 0xA28 JUMP JUMPDEST PUSH3 0x9FF JUMP JUMPDEST SWAP1 POP DUP3 DUP2 MSTORE PUSH1 0x20 DUP2 ADD DUP5 DUP5 DUP5 ADD GT ISZERO PUSH3 0x7E1 JUMPI PUSH3 0x7E0 PUSH3 0xBA1 JUMP JUMPDEST JUMPDEST PUSH3 0x7EE DUP5 DUP3 DUP6 PUSH3 0xA9C JUMP JUMPDEST POP SWAP4 SWAP3 POP POP POP JUMP JUMPDEST PUSH1 0x0 DUP2 MLOAD SWAP1 POP PUSH3 0x807 DUP2 PUSH3 0xBC1 JUMP JUMPDEST SWAP3 SWAP2 POP POP JUMP JUMPDEST PUSH1 0x0 DUP3 PUSH1 0x1F DUP4 ADD SLT PUSH3 0x825 JUMPI PUSH3 0x824 PUSH3 0xB9C JUMP JUMPDEST JUMPDEST DUP2 MLOAD PUSH3 0x837 DUP5 DUP3 PUSH1 0x20 DUP7 ADD PUSH3 0x7AB JUMP JUMPDEST SWAP2 POP POP SWAP3 SWAP2 POP POP JUMP JUMPDEST PUSH1 0x0 DUP2 MLOAD SWAP1 POP PUSH3 0x851 DUP2 PUSH3 0xBDB JUMP JUMPDEST SWAP3 SWAP2 POP POP JUMP JUMPDEST PUSH1 0x0 DUP1 PUSH1 0x0 DUP1 PUSH1 0x0 DUP1 PUSH1 0x0 DUP1 PUSH1 0x0 PUSH2 0x120 DUP11 DUP13 SUB SLT ISZERO PUSH3 0x87D JUMPI PUSH3 0x87C PUSH3 0xBAB JUMP JUMPDEST JUMPDEST PUSH1 0x0 PUSH3 0x88D DUP13 DUP3 DUP14 ADD PUSH3 0x840 JUMP JUMPDEST SWAP10 POP POP PUSH1 0x20 DUP11 ADD MLOAD PUSH8 0xFFFFFFFFFFFFFFFF DUP2 GT ISZERO PUSH3 0x8B1 JUMPI PUSH3 0x8B0 PUSH3 0xBA6 JUMP JUMPDEST JUMPDEST PUSH3 0x8BF DUP13 DUP3 DUP14 ADD PUSH3 0x80D JUMP JUMPDEST SWAP9 POP POP PUSH1 0x40 DUP11 ADD MLOAD PUSH8 0xFFFFFFFFFFFFFFFF DUP2 GT ISZERO PUSH3 0x8E3 JUMPI PUSH3 0x8E2 PUSH3 0xBA6 JUMP JUMPDEST JUMPDEST PUSH3 0x8F1 DUP13 DUP3 DUP14 ADD PUSH3 0x80D JUMP JUMPDEST SWAP8 POP POP PUSH1 0x60 PUSH3 0x904 DUP13 DUP3 DUP14 ADD PUSH3 0x840 JUMP JUMPDEST SWAP7 POP POP PUSH1 0x80 PUSH3 0x917 DUP13 DUP3 DUP14 ADD PUSH3 0x840 JUMP JUMPDEST SWAP6 POP POP PUSH1 0xA0 DUP11 ADD MLOAD PUSH8 0xFFFFFFFFFFFFFFFF DUP2 GT ISZERO PUSH3 0x93B JUMPI PUSH3 0x93A PUSH3 0xBA6 JUMP JUMPDEST JUMPDEST PUSH3 0x949 DUP13 DUP3 DUP14 ADD PUSH3 0x80D JUMP JUMPDEST SWAP5 POP POP PUSH1 0xC0 DUP11 ADD MLOAD PUSH8 0xFFFFFFFFFFFFFFFF DUP2 GT ISZERO PUSH3 0x96D JUMPI PUSH3 0x96C PUSH3 0xBA6 JUMP JUMPDEST JUMPDEST PUSH3 0x97B DUP13 DUP3 DUP14 ADD PUSH3 0x80D JUMP JUMPDEST SWAP4 POP POP PUSH1 0xE0 DUP11 ADD MLOAD PUSH8 0xFFFFFFFFFFFFFFFF DUP2 GT ISZERO PUSH3 0x99F JUMPI PUSH3 0x99E PUSH3 0xBA6 JUMP JUMPDEST JUMPDEST PUSH3 0x9AD DUP13 DUP3 DUP14 ADD PUSH3 0x80D JUMP JUMPDEST SWAP3 POP POP PUSH2 0x100 PUSH3 0x9C1 DUP13 DUP3 DUP14 ADD PUSH3 0x7F6 JUMP JUMPDEST SWAP2 POP POP SWAP3 SWAP6 SWAP9 POP SWAP3 SWAP6 SWAP9 POP SWAP3 SWAP6 SWAP9 JUMP JUMPDEST PUSH3 0x9DC DUP2 PUSH3 0xA92 JUMP JUMPDEST DUP3 MSTORE POP POP JUMP JUMPDEST PUSH1 0x0 PUSH1 0x20 DUP3 ADD SWAP1 POP PUSH3 0x9F9 PUSH1 0x0 DUP4 ADD DUP5 PUSH3 0x9D1 JUMP JUMPDEST SWAP3 SWAP2 POP POP JUMP JUMPDEST PUSH1 0x0 PUSH3 0xA0B PUSH3 0xA1E JUMP JUMPDEST SWAP1 POP PUSH3 0xA19 DUP3 DUP3 PUSH3 0xB08 JUMP JUMPDEST SWAP2 SWAP1 POP JUMP JUMPDEST PUSH1 0x0 PUSH1 0x40 MLOAD SWAP1 POP SWAP1 JUMP JUMPDEST PUSH1 0x0 PUSH8 0xFFFFFFFFFFFFFFFF DUP3 GT ISZERO PUSH3 0xA46 JUMPI PUSH3 0xA45 PUSH3 0xB6D JUMP JUMPDEST JUMPDEST PUSH3 0xA51 DUP3 PUSH3 0xBB0 JUMP JUMPDEST SWAP1 POP PUSH1 0x20 DUP2 ADD SWAP1 POP SWAP2 SWAP1 POP JUMP JUMPDEST PUSH1 0x0 PUSH3 0xA6B DUP3 PUSH3 0xA72 JUMP JUMPDEST SWAP1 POP SWAP2 SWAP1 POP JUMP JUMPDEST PUSH1 0x0 PUSH20 0xFFFFFFFFFFFFFFFFFFFFFFFFFFFFFFFFFFFFFFFF DUP3 AND SWAP1 POP SWAP2 SWAP1 POP JUMP JUMPDEST PUSH1 0x0 DUP2 SWAP1 POP SWAP2 SWAP1 POP JUMP JUMPDEST PUSH1 0x0 JUMPDEST DUP4 DUP2 LT ISZERO PUSH3 0xABC JUMPI DUP1 DUP3 ADD MLOAD DUP2 DUP5 ADD MSTORE PUSH1 0x20 DUP2 ADD SWAP1 POP PUSH3 0xA9F JUMP JUMPDEST DUP4 DUP2 GT ISZERO PUSH3 0xACC JUMPI PUSH1 0x0 DUP5 DUP5 ADD MSTORE JUMPDEST POP POP POP POP JUMP JUMPDEST PUSH1 0x0 PUSH1 0x2 DUP3 DIV SWAP1 POP PUSH1 0x1 DUP3 AND DUP1 PUSH3 0xAEB JUMPI PUSH1 0x7F DUP3 AND SWAP2 POP JUMPDEST PUSH1 0x20 DUP3 LT DUP2 EQ ISZERO PUSH3 0xB02 JUMPI PUSH3 0xB01 PUSH3 0xB3E JUMP JUMPDEST JUMPDEST POP SWAP2 SWAP1 POP JUMP JUMPDEST PUSH3 0xB13 DUP3 PUSH3 0xBB0 JUMP JUMPDEST DUP2 ADD DUP2 DUP2 LT PUSH8 0xFFFFFFFFFFFFFFFF DUP3 GT OR ISZERO PUSH3 0xB35 JUMPI PUSH3 0xB34 PUSH3 0xB6D JUMP JUMPDEST JUMPDEST DUP1 PUSH1 0x40 MSTORE POP POP POP JUMP JUMPDEST PUSH32 0x4E487B7100000000000000000000000000000000000000000000000000000000 PUSH1 0x0 MSTORE PUSH1 0x22 PUSH1 0x4 MSTORE PUSH1 0x24 PUSH1 0x0 REVERT JUMPDEST PUSH32 0x4E487B7100000000000000000000000000000000000000000000000000000000 PUSH1 0x0 MSTORE PUSH1 0x41 PUSH1 0x4 MSTORE PUSH1 0x24 PUSH1 0x0 REVERT JUMPDEST PUSH1 0x0 DUP1 REVERT JUMPDEST PUSH1 0x0 DUP1 REVERT JUMPDEST PUSH1 0x0 DUP1 REVERT JUMPDEST PUSH1 0x0 DUP1 REVERT JUMPDEST PUSH1 0x0 PUSH1 0x1F NOT PUSH1 0x1F DUP4 ADD AND SWAP1 POP SWAP2 SWAP1 POP JUMP JUMPDEST PUSH3 0xBCC DUP2 PUSH3 0xA5E JUMP JUMPDEST DUP2 EQ PUSH3 0xBD8 JUMPI PUSH1 0x0 DUP1 REVERT JUMPDEST POP JUMP JUMPDEST PUSH3 0xBE6 DUP2 PUSH3 0xA92 JUMP JUMPDEST DUP2 EQ PUSH3 0xBF2 JUMPI PUSH1 0x0 DUP1 REVERT JUMPDEST POP JUMP JUMPDEST PUSH2 0x3A43 DUP1 PUSH3 0xC05 PUSH1 0x0 CODECOPY PUSH1 0x0 RETURN INVALID PUSH1 0x80 PUSH1 0x40 MSTORE CALLVALUE DUP1 ISZERO PUSH2 0x10 JUMPI PUSH1 0x0 DUP1 REVERT JUMPDEST POP PUSH1 0x4 CALLDATASIZE LT PUSH2 0x21C JUMPI PUSH1 0x0 CALLDATALOAD PUSH1 0xE0 SHR DUP1 PUSH4 0x7CAE04F7 GT PUSH2 0x125 JUMPI DUP1 PUSH4 0xAC893DB1 GT PUSH2 0xAD JUMPI DUP1 PUSH4 0xD4CE1415 GT PUSH2 0x7C JUMPI DUP1 PUSH4 0xD4CE1415 EQ PUSH2 0x656 JUMPI DUP1 PUSH4 0xDA76E2F3 EQ PUSH2 0x686 JUMPI DUP1 PUSH4 0xDD62ED3E EQ PUSH2 0x6A2 JUMPI DUP1 PUSH4 0xE8379421 EQ PUSH2 0x6D2 JUMPI DUP1 PUSH4 0xF2FDE38B EQ PUSH2 0x702 JUMPI PUSH2 0x21C JUMP JUMPDEST DUP1 PUSH4 0xAC893DB1 EQ PUSH2 0x5E4 JUMPI DUP1 PUSH4 0xB1B5932A EQ PUSH2 0x600 JUMPI DUP1 PUSH4 0xB5B7E6EE EQ PUSH2 0x61E JUMPI DUP1 PUSH4 0xC319E41C EQ PUSH2 0x63A JUMPI PUSH2 0x21C JUMP JUMPDEST DUP1 PUSH4 0x95D89B41 GT PUSH2 0xF4 JUMPI DUP1 PUSH4 0x95D89B41 EQ PUSH2 0x519 JUMPI DUP1 PUSH4 0x9DC29FAC EQ PUSH2 0x537 JUMPI DUP1 PUSH4 0xA9059CBB EQ PUSH2 0x567 JUMPI DUP1 PUSH4 0xAB47A2F9 EQ PUSH2 0x597 JUMPI DUP1 PUSH4 0xABC30A4B EQ PUSH2 0x5C8 JUMPI PUSH2 0x21C JUMP JUMPDEST DUP1 PUSH4 0x7CAE04F7 EQ PUSH2 0x48F JUMPI DUP1 PUSH4 0x7F4AB1DD EQ PUSH2 0x4AD JUMPI DUP1 PUSH4 0x84F9007F EQ PUSH2 0x4DD JUMPI DUP1 PUSH4 0x8DA5CB5B EQ PUSH2 0x4FB JUMPI PUSH2 0x21C JUMP JUMPDEST DUP1 PUSH4 0x45968836 GT PUSH2 0x1A8 JUMPI DUP1 PUSH4 0x62A3D4BD GT PUSH2 0x177 JUMPI DUP1 PUSH4 0x62A3D4BD EQ PUSH2 0x3E9 JUMPI DUP1 PUSH4 0x639C86CE EQ PUSH2 0x405 JUMPI DUP1 PUSH4 0x6401CA76 EQ PUSH2 0x423 JUMPI DUP1 PUSH4 0x654B6F15 EQ PUSH2 0x441 JUMPI DUP1 PUSH4 0x70A08231 EQ PUSH2 0x45F JUMPI PUSH2 0x21C JUMP JUMPDEST DUP1 PUSH4 0x45968836 EQ PUSH2 0x373 JUMPI DUP1 PUSH4 0x51AEBCD4 EQ PUSH2 0x391 JUMPI DUP1 PUSH4 0x54FD4D50 EQ PUSH2 0x3AD JUMPI DUP1 PUSH4 0x59A72DDC EQ PUSH2 0x3CB JUMPI PUSH2 0x21C JUMP JUMPDEST DUP1 PUSH4 0x23B872DD GT PUSH2 0x1EF JUMPI DUP1 PUSH4 0x23B872DD EQ PUSH2 0x2A9 JUMPI DUP1 PUSH4 0x2B8E797A EQ PUSH2 0x2D9 JUMPI DUP1 PUSH4 0x313CE567 EQ PUSH2 0x2F5 JUMPI DUP1 PUSH4 0x3A24DDC5 EQ PUSH2 0x313 JUMPI DUP1 PUSH4 0x40C10F19 EQ PUSH2 0x343 JUMPI PUSH2 0x21C JUMP JUMPDEST DUP1 PUSH4 0x6FDDE03 EQ PUSH2 0x221 JUMPI DUP1 PUSH4 0x95EA7B3 EQ PUSH2 0x23F JUMPI DUP1 PUSH4 0x9FC3892 EQ PUSH2 0x26F JUMPI DUP1 PUSH4 0x18160DDD EQ PUSH2 0x28B JUMPI JUMPDEST PUSH1 0x0 DUP1 REVERT JUMPDEST PUSH2 0x229 PUSH2 0x71E JUMP JUMPDEST PUSH1 0x40 MLOAD PUSH2 0x236 SWAP2 SWAP1 PUSH2 0x31A0 JUMP JUMPDEST PUSH1 0x40 MLOAD DUP1 SWAP2 SUB SWAP1 RETURN JUMPDEST PUSH2 0x259 PUSH1 0x4 DUP1 CALLDATASIZE SUB DUP2 ADD SWAP1 PUSH2 0x254 SWAP2 SWAP1 PUSH2 0x2DAD JUMP JUMPDEST PUSH2 0x7AC JUMP JUMPDEST PUSH1 0x40 MLOAD PUSH2 0x266 SWAP2 SWAP1 PUSH2 0x3185 JUMP JUMPDEST PUSH1 0x40 MLOAD DUP1 SWAP2 SUB SWAP1 RETURN JUMPDEST PUSH2 0x289 PUSH1 0x4 DUP1 CALLDATASIZE SUB DUP2 ADD SWAP1 PUSH2 0x284 SWAP2 SWAP1 PUSH2 0x2E40 JUMP JUMPDEST PUSH2 0x950 JUMP JUMPDEST STOP JUMPDEST PUSH2 0x293 PUSH2 0xA2D JUMP JUMPDEST PUSH1 0x40 MLOAD PUSH2 0x2A0 SWAP2 SWAP1 PUSH2 0x3302 JUMP JUMPDEST PUSH1 0x40 MLOAD DUP1 SWAP2 SUB SWAP1 RETURN JUMPDEST PUSH2 0x2C3 PUSH1 0x4 DUP1 CALLDATASIZE SUB DUP2 ADD SWAP1 PUSH2 0x2BE SWAP2 SWAP1 PUSH2 0x2D5A JUMP JUMPDEST PUSH2 0xA37 JUMP JUMPDEST PUSH1 0x40 MLOAD PUSH2 0x2D0 SWAP2 SWAP1 PUSH2 0x3185 JUMP JUMPDEST PUSH1 0x40 MLOAD DUP1 SWAP2 SUB SWAP1 RETURN JUMPDEST PUSH2 0x2F3 PUSH1 0x4 DUP1 CALLDATASIZE SUB DUP2 ADD SWAP1 PUSH2 0x2EE SWAP2 SWAP1 PUSH2 0x2DED JUMP JUMPDEST PUSH2 0xD26 JUMP JUMPDEST STOP JUMPDEST PUSH2 0x2FD PUSH2 0xDC9 JUMP JUMPDEST PUSH1 0x40 MLOAD PUSH2 0x30A SWAP2 SWAP1 PUSH2 0x3302 JUMP JUMPDEST PUSH1 0x40 MLOAD DUP1 SWAP2 SUB SWAP1 RETURN JUMPDEST PUSH2 0x32D PUSH1 0x4 DUP1 CALLDATASIZE SUB DUP2 ADD SWAP1 PUSH2 0x328 SWAP2 SWAP1 PUSH2 0x2DAD JUMP JUMPDEST PUSH2 0xDCF JUMP JUMPDEST PUSH1 0x40 MLOAD PUSH2 0x33A SWAP2 SWAP1 PUSH2 0x3185 JUMP JUMPDEST PUSH1 0x40 MLOAD DUP1 SWAP2 SUB SWAP1 RETURN JUMPDEST PUSH2 0x35D PUSH1 0x4 DUP1 CALLDATASIZE SUB DUP2 ADD SWAP1 PUSH2 0x358 SWAP2 SWAP1 PUSH2 0x2DAD JUMP JUMPDEST PUSH2 0xE98 JUMP JUMPDEST PUSH1 0x40 MLOAD PUSH2 0x36A SWAP2 SWAP1 PUSH2 0x3185 JUMP JUMPDEST PUSH1 0x40 MLOAD DUP1 SWAP2 SUB SWAP1 RETURN JUMPDEST PUSH2 0x37B PUSH2 0x1094 JUMP JUMPDEST PUSH1 0x40 MLOAD PUSH2 0x388 SWAP2 SWAP1 PUSH2 0x3302 JUMP JUMPDEST PUSH1 0x40 MLOAD DUP1 SWAP2 SUB SWAP1 RETURN JUMPDEST PUSH2 0x3AB PUSH1 0x4 DUP1 CALLDATASIZE SUB DUP2 ADD SWAP1 PUSH2 0x3A6 SWAP2 SWAP1 PUSH2 0x2EAF JUMP JUMPDEST PUSH2 0x109A JUMP JUMPDEST STOP JUMPDEST PUSH2 0x3B5 PUSH2 0x117B JUMP JUMPDEST PUSH1 0x40 MLOAD PUSH2 0x3C2 SWAP2 SWAP1 PUSH2 0x31A0 JUMP JUMPDEST PUSH1 0x40 MLOAD DUP1 SWAP2 SUB SWAP1 RETURN JUMPDEST PUSH2 0x3D3 PUSH2 0x1209 JUMP JUMPDEST PUSH1 0x40 MLOAD PUSH2 0x3E0 SWAP2 SWAP1 PUSH2 0x31A0 JUMP JUMPDEST PUSH1 0x40 MLOAD DUP1 SWAP2 SUB SWAP1 RETURN JUMPDEST PUSH2 0x403 PUSH1 0x4 DUP1 CALLDATASIZE SUB DUP2 ADD SWAP1 PUSH2 0x3FE SWAP2 SWAP1 PUSH2 0x2EF8 JUMP JUMPDEST PUSH2 0x1297 JUMP JUMPDEST STOP JUMPDEST PUSH2 0x40D PUSH2 0x13BA JUMP JUMPDEST PUSH1 0x40 MLOAD PUSH2 0x41A SWAP2 SWAP1 PUSH2 0x3302 JUMP JUMPDEST PUSH1 0x40 MLOAD DUP1 SWAP2 SUB SWAP1 RETURN JUMPDEST PUSH2 0x42B PUSH2 0x13C0 JUMP JUMPDEST PUSH1 0x40 MLOAD PUSH2 0x438 SWAP2 SWAP1 PUSH2 0x3302 JUMP JUMPDEST PUSH1 0x40 MLOAD DUP1 SWAP2 SUB SWAP1 RETURN JUMPDEST PUSH2 0x449 PUSH2 0x13C6 JUMP JUMPDEST PUSH1 0x40 MLOAD PUSH2 0x456 SWAP2 SWAP1 PUSH2 0x31A0 JUMP JUMPDEST PUSH1 0x40 MLOAD DUP1 SWAP2 SUB SWAP1 RETURN JUMPDEST PUSH2 0x479 PUSH1 0x4 DUP1 CALLDATASIZE SUB DUP2 ADD SWAP1 PUSH2 0x474 SWAP2 SWAP1 PUSH2 0x2CED JUMP JUMPDEST PUSH2 0x1454 JUMP JUMPDEST PUSH1 0x40 MLOAD PUSH2 0x486 SWAP2 SWAP1 PUSH2 0x3302 JUMP JUMPDEST PUSH1 0x40 MLOAD DUP1 SWAP2 SUB SWAP1 RETURN JUMPDEST PUSH2 0x497 PUSH2 0x149D JUMP JUMPDEST PUSH1 0x40 MLOAD PUSH2 0x4A4 SWAP2 SWAP1 PUSH2 0x31A0 JUMP JUMPDEST PUSH1 0x40 MLOAD DUP1 SWAP2 SUB SWAP1 RETURN JUMPDEST PUSH2 0x4C7 PUSH1 0x4 DUP1 CALLDATASIZE SUB DUP2 ADD SWAP1 PUSH2 0x4C2 SWAP2 SWAP1 PUSH2 0x2F25 JUMP JUMPDEST PUSH2 0x152B JUMP JUMPDEST PUSH1 0x40 MLOAD PUSH2 0x4D4 SWAP2 SWAP1 PUSH2 0x31A0 JUMP JUMPDEST PUSH1 0x40 MLOAD DUP1 SWAP2 SUB SWAP1 RETURN JUMPDEST PUSH2 0x4E5 PUSH2 0x1627 JUMP JUMPDEST PUSH1 0x40 MLOAD PUSH2 0x4F2 SWAP2 SWAP1 PUSH2 0x31A0 JUMP JUMPDEST PUSH1 0x40 MLOAD DUP1 SWAP2 SUB SWAP1 RETURN JUMPDEST PUSH2 0x503 PUSH2 0x16B5 JUMP JUMPDEST PUSH1 0x40 MLOAD PUSH2 0x510 SWAP2 SWAP1 PUSH2 0x3125 JUMP JUMPDEST PUSH1 0x40 MLOAD DUP1 SWAP2 SUB SWAP1 RETURN JUMPDEST PUSH2 0x521 PUSH2 0x16DF JUMP JUMPDEST PUSH1 0x40 MLOAD PUSH2 0x52E SWAP2 SWAP1 PUSH2 0x31A0 JUMP JUMPDEST PUSH1 0x40 MLOAD DUP1 SWAP2 SUB SWAP1 RETURN JUMPDEST PUSH2 0x551 PUSH1 0x4 DUP1 CALLDATASIZE SUB DUP2 ADD SWAP1 PUSH2 0x54C SWAP2 SWAP1 PUSH2 0x2DAD JUMP JUMPDEST PUSH2 0x176D JUMP JUMPDEST PUSH1 0x40 MLOAD PUSH2 0x55E SWAP2 SWAP1 PUSH2 0x3185 JUMP JUMPDEST PUSH1 0x40 MLOAD DUP1 SWAP2 SUB SWAP1 RETURN JUMPDEST PUSH2 0x581 PUSH1 0x4 DUP1 CALLDATASIZE SUB DUP2 ADD SWAP1 PUSH2 0x57C SWAP2 SWAP1 PUSH2 0x2DAD JUMP JUMPDEST PUSH2 0x197B JUMP JUMPDEST PUSH1 0x40 MLOAD PUSH2 0x58E SWAP2 SWAP1 PUSH2 0x3185 JUMP JUMPDEST PUSH1 0x40 MLOAD DUP1 SWAP2 SUB SWAP1 RETURN JUMPDEST PUSH2 0x5B1 PUSH1 0x4 DUP1 CALLDATASIZE SUB DUP2 ADD SWAP1 PUSH2 0x5AC SWAP2 SWAP1 PUSH2 0x2CED JUMP JUMPDEST PUSH2 0x1A65 JUMP JUMPDEST PUSH1 0x40 MLOAD PUSH2 0x5BF SWAP3 SWAP2 SWAP1 PUSH2 0x331D JUMP JUMPDEST PUSH1 0x40 MLOAD DUP1 SWAP2 SUB SWAP1 RETURN JUMPDEST PUSH2 0x5E2 PUSH1 0x4 DUP1 CALLDATASIZE SUB DUP2 ADD SWAP1 PUSH2 0x5DD SWAP2 SWAP1 PUSH2 0x2EAF JUMP JUMPDEST PUSH2 0x1AF0 JUMP JUMPDEST STOP JUMPDEST PUSH2 0x5FE PUSH1 0x4 DUP1 CALLDATASIZE SUB DUP2 ADD SWAP1 PUSH2 0x5F9 SWAP2 SWAP1 PUSH2 0x2EAF JUMP JUMPDEST PUSH2 0x1BD1 JUMP JUMPDEST STOP JUMPDEST PUSH2 0x608 PUSH2 0x1CB2 JUMP JUMPDEST PUSH1 0x40 MLOAD PUSH2 0x615 SWAP2 SWAP1 PUSH2 0x31A0 JUMP JUMPDEST PUSH1 0x40 MLOAD DUP1 SWAP2 SUB SWAP1 RETURN JUMPDEST PUSH2 0x638 PUSH1 0x4 DUP1 CALLDATASIZE SUB DUP2 ADD SWAP1 PUSH2 0x633 SWAP2 SWAP1 PUSH2 0x2EF8 JUMP JUMPDEST PUSH2 0x1D40 JUMP JUMPDEST STOP JUMPDEST PUSH2 0x654 PUSH1 0x4 DUP1 CALLDATASIZE SUB DUP2 ADD SWAP1 PUSH2 0x64F SWAP2 SWAP1 PUSH2 0x2CED JUMP JUMPDEST PUSH2 0x1E11 JUMP JUMPDEST STOP JUMPDEST PUSH2 0x670 PUSH1 0x4 DUP1 CALLDATASIZE SUB DUP2 ADD SWAP1 PUSH2 0x66B SWAP2 SWAP1 PUSH2 0x2D5A JUMP JUMPDEST PUSH2 0x1F33 JUMP JUMPDEST PUSH1 0x40 MLOAD PUSH2 0x67D SWAP2 SWAP1 PUSH2 0x3346 JUMP JUMPDEST PUSH1 0x40 MLOAD DUP1 SWAP2 SUB SWAP1 RETURN JUMPDEST PUSH2 0x6A0 PUSH1 0x4 DUP1 CALLDATASIZE SUB DUP2 ADD SWAP1 PUSH2 0x69B SWAP2 SWAP1 PUSH2 0x2CED JUMP JUMPDEST PUSH2 0x227B JUMP JUMPDEST STOP JUMPDEST PUSH2 0x6BC PUSH1 0x4 DUP1 CALLDATASIZE SUB DUP2 ADD SWAP1 PUSH2 0x6B7 SWAP2 SWAP1 PUSH2 0x2D1A JUMP JUMPDEST PUSH2 0x2394 JUMP JUMPDEST PUSH1 0x40 MLOAD PUSH2 0x6C9 SWAP2 SWAP1 PUSH2 0x3302 JUMP JUMPDEST PUSH1 0x40 MLOAD DUP1 SWAP2 SUB SWAP1 RETURN JUMPDEST PUSH2 0x6EC PUSH1 0x4 DUP1 CALLDATASIZE SUB DUP2 ADD SWAP1 PUSH2 0x6E7 SWAP2 SWAP1 PUSH2 0x2CED JUMP JUMPDEST PUSH2 0x241B JUMP JUMPDEST PUSH1 0x40 MLOAD PUSH2 0x6F9 SWAP2 SWAP1 PUSH2 0x3185 JUMP JUMPDEST PUSH1 0x40 MLOAD DUP1 SWAP2 SUB SWAP1 RETURN JUMPDEST PUSH2 0x71C PUSH1 0x4 DUP1 CALLDATASIZE SUB DUP2 ADD SWAP1 PUSH2 0x717 SWAP2 SWAP1 PUSH2 0x2CED JUMP JUMPDEST PUSH2 0x2471 JUMP JUMPDEST STOP JUMPDEST PUSH1 0xB DUP1 SLOAD PUSH2 0x72B SWAP1 PUSH2 0x3520 JUMP JUMPDEST DUP1 PUSH1 0x1F ADD PUSH1 0x20 DUP1 SWAP2 DIV MUL PUSH1 0x20 ADD PUSH1 0x40 MLOAD SWAP1 DUP2 ADD PUSH1 0x40 MSTORE DUP1 SWAP3 SWAP2 SWAP1 DUP2 DUP2 MSTORE PUSH1 0x20 ADD DUP3 DUP1 SLOAD PUSH2 0x757 SWAP1 PUSH2 0x3520 JUMP JUMPDEST DUP1 ISZERO PUSH2 0x7A4 JUMPI DUP1 PUSH1 0x1F LT PUSH2 0x779 JUMPI PUSH2 0x100 DUP1 DUP4 SLOAD DIV MUL DUP4 MSTORE SWAP2 PUSH1 0x20 ADD SWAP2 PUSH2 0x7A4 JUMP JUMPDEST DUP3 ADD SWAP2 SWAP1 PUSH1 0x0 MSTORE PUSH1 0x20 PUSH1 0x0 KECCAK256 SWAP1 JUMPDEST DUP2 SLOAD DUP2 MSTORE SWAP1 PUSH1 0x1 ADD SWAP1 PUSH1 0x20 ADD DUP1 DUP4 GT PUSH2 0x787 JUMPI DUP3 SWAP1 SUB PUSH1 0x1F AND DUP3 ADD SWAP2 JUMPDEST POP POP POP POP POP DUP2 JUMP JUMPDEST PUSH1 0x0 DUP1 PUSH20 0xFFFFFFFFFFFFFFFFFFFFFFFFFFFFFFFFFFFFFFFF AND DUP4 PUSH20 0xFFFFFFFFFFFFFFFFFFFFFFFFFFFFFFFFFFFFFFFF AND EQ ISZERO PUSH2 0x81D JUMPI PUSH1 0x40 MLOAD PUSH32 0x8C379A000000000000000000000000000000000000000000000000000000000 DUP2 MSTORE PUSH1 0x4 ADD PUSH2 0x814 SWAP1 PUSH2 0x31E2 JUMP JUMPDEST PUSH1 0x40 MLOAD DUP1 SWAP2 SUB SWAP1 REVERT JUMPDEST PUSH1 0x0 DUP3 GT PUSH2 0x860 JUMPI PUSH1 0x40 MLOAD PUSH32 0x8C379A000000000000000000000000000000000000000000000000000000000 DUP2 MSTORE PUSH1 0x4 ADD PUSH2 0x857 SWAP1 PUSH2 0x3202 JUMP JUMPDEST PUSH1 0x40 MLOAD DUP1 SWAP2 SUB SWAP1 REVERT JUMPDEST DUP2 PUSH1 0x3 PUSH1 0x0 CALLER PUSH20 0xFFFFFFFFFFFFFFFFFFFFFFFFFFFFFFFFFFFFFFFF AND PUSH20 0xFFFFFFFFFFFFFFFFFFFFFFFFFFFFFFFFFFFFFFFF AND DUP2 MSTORE PUSH1 0x20 ADD SWAP1 DUP2 MSTORE PUSH1 0x20 ADD PUSH1 0x0 KECCAK256 PUSH1 0x0 DUP6 PUSH20 0xFFFFFFFFFFFFFFFFFFFFFFFFFFFFFFFFFFFFFFFF AND PUSH20 0xFFFFFFFFFFFFFFFFFFFFFFFFFFFFFFFFFFFFFFFF AND DUP2 MSTORE PUSH1 0x20 ADD SWAP1 DUP2 MSTORE PUSH1 0x20 ADD PUSH1 0x0 KECCAK256 DUP2 SWAP1 SSTORE POP DUP3 PUSH20 0xFFFFFFFFFFFFFFFFFFFFFFFFFFFFFFFFFFFFFFFF AND CALLER PUSH20 0xFFFFFFFFFFFFFFFFFFFFFFFFFFFFFFFFFFFFFFFF AND PUSH32 0x8C5BE1E5EBEC7D5BD14F71427D1E84F3DD0314C0F7B2291E5B200AC8C7C3B925 DUP5 PUSH1 0x40 MLOAD PUSH2 0x93E SWAP2 SWAP1 PUSH2 0x3302 JUMP JUMPDEST PUSH1 0x40 MLOAD DUP1 SWAP2 SUB SWAP1 LOG3 PUSH1 0x1 SWAP1 POP SWAP3 SWAP2 POP POP JUMP JUMPDEST PUSH1 0x1 ISZERO ISZERO PUSH1 0x5 PUSH1 0x0 CALLER PUSH20 0xFFFFFFFFFFFFFFFFFFFFFFFFFFFFFFFFFFFFFFFF AND PUSH20 0xFFFFFFFFFFFFFFFFFFFFFFFFFFFFFFFFFFFFFFFF AND DUP2 MSTORE PUSH1 0x20 ADD SWAP1 DUP2 MSTORE PUSH1 0x20 ADD PUSH1 0x0 KECCAK256 PUSH1 0x0 SWAP1 SLOAD SWAP1 PUSH2 0x100 EXP SWAP1 DIV PUSH1 0xFF AND ISZERO ISZERO EQ PUSH2 0x9E3 JUMPI PUSH1 0x40 MLOAD PUSH32 0x8C379A000000000000000000000000000000000000000000000000000000000 DUP2 MSTORE PUSH1 0x4 ADD PUSH2 0x9DA SWAP1 PUSH2 0x3282 JUMP JUMPDEST PUSH1 0x40 MLOAD DUP1 SWAP2 SUB SWAP1 REVERT JUMPDEST PUSH1 0x0 JUMPDEST DUP4 MLOAD DUP2 LT ISZERO PUSH2 0xA27 JUMPI PUSH2 0xA14 DUP5 DUP3 DUP2 MLOAD DUP2 LT PUSH2 0xA05 JUMPI PUSH2 0xA04 PUSH2 0x362A JUMP JUMPDEST JUMPDEST PUSH1 0x20 MUL PUSH1 0x20 ADD ADD MLOAD DUP5 DUP5 PUSH2 0x25B5 JUMP JUMPDEST DUP1 DUP1 PUSH2 0xA1F SWAP1 PUSH2 0x3583 JUMP JUMPDEST SWAP2 POP POP PUSH2 0x9E6 JUMP JUMPDEST POP POP POP POP JUMP JUMPDEST PUSH1 0x0 PUSH1 0xA SLOAD SWAP1 POP SWAP1 JUMP JUMPDEST PUSH1 0x0 DUP4 DUP4 DUP4 PUSH1 0x0 PUSH2 0xA49 DUP5 DUP5 DUP5 PUSH2 0x1F33 JUMP JUMPDEST SWAP1 POP PUSH1 0x0 PUSH1 0xFF AND DUP2 PUSH1 0xFF AND EQ PUSH2 0xB08 JUMPI PUSH1 0x0 PUSH2 0xA64 DUP3 PUSH2 0x152B JUMP JUMPDEST SWAP1 POP DUP4 PUSH20 0xFFFFFFFFFFFFFFFFFFFFFFFFFFFFFFFFFFFFFFFF AND DUP6 PUSH20 0xFFFFFFFFFFFFFFFFFFFFFFFFFFFFFFFFFFFFFFFF AND PUSH32 0x2FDD8C36DBE5614497208665E8D30C570421680D09984E3153829DDABD30C094 DUP4 PUSH1 0x40 MLOAD PUSH2 0xAC3 SWAP2 SWAP1 PUSH2 0x31A0 JUMP JUMPDEST PUSH1 0x40 MLOAD DUP1 SWAP2 SUB SWAP1 LOG3 DUP1 PUSH1 0x40 MLOAD PUSH32 0x8C379A000000000000000000000000000000000000000000000000000000000 DUP2 MSTORE PUSH1 0x4 ADD PUSH2 0xAFF SWAP2 SWAP1 PUSH2 0x31A0 JUMP JUMPDEST PUSH1 0x40 MLOAD DUP1 SWAP2 SUB SWAP1 REVERT JUMPDEST DUP6 PUSH1 0x3 PUSH1 0x0 DUP11 PUSH20 0xFFFFFFFFFFFFFFFFFFFFFFFFFFFFFFFFFFFFFFFF AND PUSH20 0xFFFFFFFFFFFFFFFFFFFFFFFFFFFFFFFFFFFFFFFF AND DUP2 MSTORE PUSH1 0x20 ADD SWAP1 DUP2 MSTORE PUSH1 0x20 ADD PUSH1 0x0 KECCAK256 PUSH1 0x0 CALLER PUSH20 0xFFFFFFFFFFFFFFFFFFFFFFFFFFFFFFFFFFFFFFFF AND PUSH20 0xFFFFFFFFFFFFFFFFFFFFFFFFFFFFFFFFFFFFFFFF AND DUP2 MSTORE PUSH1 0x20 ADD SWAP1 DUP2 MSTORE PUSH1 0x20 ADD PUSH1 0x0 KECCAK256 SLOAD LT ISZERO PUSH2 0xBC7 JUMPI PUSH1 0x40 MLOAD PUSH32 0x8C379A000000000000000000000000000000000000000000000000000000000 DUP2 MSTORE PUSH1 0x4 ADD PUSH2 0xBBE SWAP1 PUSH2 0x32C2 JUMP JUMPDEST PUSH1 0x40 MLOAD DUP1 SWAP2 SUB SWAP1 REVERT JUMPDEST PUSH2 0xBD2 DUP9 DUP9 DUP9 PUSH2 0x2785 JUMP JUMPDEST DUP6 PUSH1 0x3 PUSH1 0x0 DUP11 PUSH20 0xFFFFFFFFFFFFFFFFFFFFFFFFFFFFFFFFFFFFFFFF AND PUSH20 0xFFFFFFFFFFFFFFFFFFFFFFFFFFFFFFFFFFFFFFFF AND DUP2 MSTORE PUSH1 0x20 ADD SWAP1 DUP2 MSTORE PUSH1 0x20 ADD PUSH1 0x0 KECCAK256 PUSH1 0x0 CALLER PUSH20 0xFFFFFFFFFFFFFFFFFFFFFFFFFFFFFFFFFFFFFFFF AND PUSH20 0xFFFFFFFFFFFFFFFFFFFFFFFFFFFFFFFFFFFFFFFF AND DUP2 MSTORE PUSH1 0x20 ADD SWAP1 DUP2 MSTORE PUSH1 0x20 ADD PUSH1 0x0 KECCAK256 SLOAD PUSH2 0xC5A SWAP2 SWAP1 PUSH2 0x3455 JUMP JUMPDEST PUSH1 0x3 PUSH1 0x0 DUP11 PUSH20 0xFFFFFFFFFFFFFFFFFFFFFFFFFFFFFFFFFFFFFFFF AND PUSH20 0xFFFFFFFFFFFFFFFFFFFFFFFFFFFFFFFFFFFFFFFF AND DUP2 MSTORE PUSH1 0x20 ADD SWAP1 DUP2 MSTORE PUSH1 0x20 ADD PUSH1 0x0 KECCAK256 PUSH1 0x0 CALLER PUSH20 0xFFFFFFFFFFFFFFFFFFFFFFFFFFFFFFFFFFFFFFFF AND PUSH20 0xFFFFFFFFFFFFFFFFFFFFFFFFFFFFFFFFFFFFFFFF AND DUP2 MSTORE PUSH1 0x20 ADD SWAP1 DUP2 MSTORE PUSH1 0x20 ADD PUSH1 0x0 KECCAK256 DUP2 SWAP1 SSTORE POP PUSH32 0x5F7542858008EEB041631F30E6109AE94B83A58E9A58261DD2C42C508850F939 CALLER DUP10 DUP10 DUP10 PUSH1 0x40 MLOAD PUSH2 0xD0F SWAP5 SWAP4 SWAP3 SWAP2 SWAP1 PUSH2 0x3140 JUMP JUMPDEST PUSH1 0x40 MLOAD DUP1 SWAP2 SUB SWAP1 LOG1 PUSH1 0x1 SWAP5 POP POP POP POP POP SWAP4 SWAP3 POP POP POP JUMP JUMPDEST PUSH1 0x1 ISZERO ISZERO PUSH1 0x5 PUSH1 0x0 CALLER PUSH20 0xFFFFFFFFFFFFFFFFFFFFFFFFFFFFFFFFFFFFFFFF AND PUSH20 0xFFFFFFFFFFFFFFFFFFFFFFFFFFFFFFFFFFFFFFFF AND DUP2 MSTORE PUSH1 0x20 ADD SWAP1 DUP2 MSTORE PUSH1 0x20 ADD PUSH1 0x0 KECCAK256 PUSH1 0x0 SWAP1 SLOAD SWAP1 PUSH2 0x100 EXP SWAP1 DIV PUSH1 0xFF AND ISZERO ISZERO EQ PUSH2 0xDB9 JUMPI PUSH1 0x40 MLOAD PUSH32 0x8C379A000000000000000000000000000000000000000000000000000000000 DUP2 MSTORE PUSH1 0x4 ADD PUSH2 0xDB0 SWAP1 PUSH2 0x3282 JUMP JUMPDEST PUSH1 0x40 MLOAD DUP1 SWAP2 SUB SWAP1 REVERT JUMPDEST PUSH2 0xDC4 DUP4 DUP4 DUP4 PUSH2 0x25B5 JUMP JUMPDEST POP POP POP JUMP JUMPDEST PUSH1 0x6 SLOAD DUP2 JUMP JUMPDEST PUSH1 0x0 CALLER PUSH20 0xFFFFFFFFFFFFFFFFFFFFFFFFFFFFFFFFFFFFFFFF AND PUSH1 0x4 PUSH1 0x0 SWAP1 SLOAD SWAP1 PUSH2 0x100 EXP SWAP1 DIV PUSH20 0xFFFFFFFFFFFFFFFFFFFFFFFFFFFFFFFFFFFFFFFF AND PUSH20 0xFFFFFFFFFFFFFFFFFFFFFFFFFFFFFFFFFFFFFFFF AND EQ PUSH2 0xE61 JUMPI PUSH1 0x40 MLOAD PUSH32 0x8C379A000000000000000000000000000000000000000000000000000000000 DUP2 MSTORE PUSH1 0x4 ADD PUSH2 0xE58 SWAP1 PUSH2 0x31C2 JUMP JUMPDEST PUSH1 0x40 MLOAD DUP1 SWAP2 SUB SWAP1 REVERT JUMPDEST PUSH2 0xE8E DUP4 PUSH1 0x4 PUSH1 0x0 SWAP1 SLOAD SWAP1 PUSH2 0x100 EXP SWAP1 DIV PUSH20 0xFFFFFFFFFFFFFFFFFFFFFFFFFFFFFFFFFFFFFFFF AND DUP5 PUSH2 0x2785 JUMP JUMPDEST PUSH1 0x1 SWAP1 POP SWAP3 SWAP2 POP POP JUMP JUMPDEST PUSH1 0x0 CALLER PUSH20 0xFFFFFFFFFFFFFFFFFFFFFFFFFFFFFFFFFFFFFFFF AND PUSH1 0x4 PUSH1 0x0 SWAP1 SLOAD SWAP1 PUSH2 0x100 EXP SWAP1 DIV PUSH20 0xFFFFFFFFFFFFFFFFFFFFFFFFFFFFFFFFFFFFFFFF AND PUSH20 0xFFFFFFFFFFFFFFFFFFFFFFFFFFFFFFFFFFFFFFFF AND EQ PUSH2 0xF2A JUMPI PUSH1 0x40 MLOAD PUSH32 0x8C379A000000000000000000000000000000000000000000000000000000000 DUP2 MSTORE PUSH1 0x4 ADD PUSH2 0xF21 SWAP1 PUSH2 0x31C2 JUMP JUMPDEST PUSH1 0x40 MLOAD DUP1 SWAP2 SUB SWAP1 REVERT JUMPDEST PUSH1 0x0 PUSH20 0xFFFFFFFFFFFFFFFFFFFFFFFFFFFFFFFFFFFFFFFF AND DUP4 PUSH20 0xFFFFFFFFFFFFFFFFFFFFFFFFFFFFFFFFFFFFFFFF AND EQ ISZERO PUSH2 0xF9A JUMPI PUSH1 0x40 MLOAD PUSH32 0x8C379A000000000000000000000000000000000000000000000000000000000 DUP2 MSTORE PUSH1 0x4 ADD PUSH2 0xF91 SWAP1 PUSH2 0x32E2 JUMP JUMPDEST PUSH1 0x40 MLOAD DUP1 SWAP2 SUB SWAP1 REVERT JUMPDEST DUP2 PUSH1 0xA SLOAD PUSH2 0xFA8 SWAP2 SWAP1 PUSH2 0x33FF JUMP JUMPDEST PUSH1 0xA DUP2 SWAP1 SSTORE POP DUP2 PUSH1 0x2 PUSH1 0x0 DUP6 PUSH20 0xFFFFFFFFFFFFFFFFFFFFFFFFFFFFFFFFFFFFFFFF AND PUSH20 0xFFFFFFFFFFFFFFFFFFFFFFFFFFFFFFFFFFFFFFFF AND DUP2 MSTORE PUSH1 0x20 ADD SWAP1 DUP2 MSTORE PUSH1 0x20 ADD PUSH1 0x0 KECCAK256 SLOAD PUSH2 0xFF9 SWAP2 SWAP1 PUSH2 0x33FF JUMP JUMPDEST PUSH1 0x2 PUSH1 0x0 DUP6 PUSH20 0xFFFFFFFFFFFFFFFFFFFFFFFFFFFFFFFFFFFFFFFF AND PUSH20 0xFFFFFFFFFFFFFFFFFFFFFFFFFFFFFFFFFFFFFFFF AND DUP2 MSTORE PUSH1 0x20 ADD SWAP1 DUP2 MSTORE PUSH1 0x20 ADD PUSH1 0x0 KECCAK256 DUP2 SWAP1 SSTORE POP DUP3 PUSH20 0xFFFFFFFFFFFFFFFFFFFFFFFFFFFFFFFFFFFFFFFF AND PUSH32 0x7B47457F3AF09E5F794B020FD74160963A808F5985883496A096D403D380C343 DUP4 PUSH1 0x40 MLOAD PUSH2 0x1082 SWAP2 SWAP1 PUSH2 0x3302 JUMP JUMPDEST PUSH1 0x40 MLOAD DUP1 SWAP2 SUB SWAP1 LOG2 PUSH1 0x1 SWAP1 POP SWAP3 SWAP2 POP POP JUMP JUMPDEST PUSH1 0x10 SLOAD DUP2 JUMP JUMPDEST CALLER PUSH20 0xFFFFFFFFFFFFFFFFFFFFFFFFFFFFFFFFFFFFFFFF AND PUSH1 0x4 PUSH1 0x0 SWAP1 SLOAD SWAP1 PUSH2 0x100 EXP SWAP1 DIV PUSH20 0xFFFFFFFFFFFFFFFFFFFFFFFFFFFFFFFFFFFFFFFF AND PUSH20 0xFFFFFFFFFFFFFFFFFFFFFFFFFFFFFFFFFFFFFFFF AND EQ PUSH2 0x112A JUMPI PUSH1 0x40 MLOAD PUSH32 0x8C379A000000000000000000000000000000000000000000000000000000000 DUP2 MSTORE PUSH1 0x4 ADD PUSH2 0x1121 SWAP1 PUSH2 0x31C2 JUMP JUMPDEST PUSH1 0x40 MLOAD DUP1 SWAP2 SUB SWAP1 REVERT JUMPDEST DUP1 PUSH1 0xF SWAP1 DUP1 MLOAD SWAP1 PUSH1 0x20 ADD SWAP1 PUSH2 0x1140 SWAP3 SWAP2 SWAP1 PUSH2 0x2AFD JUMP JUMPDEST POP PUSH32 0xA555E96A9F6D83B18CBE170E5FD71EBB56FC55F86A115539E9F3038182075A50 DUP2 PUSH1 0x40 MLOAD PUSH2 0x1170 SWAP2 SWAP1 PUSH2 0x31A0 JUMP JUMPDEST PUSH1 0x40 MLOAD DUP1 SWAP2 SUB SWAP1 LOG1 POP JUMP JUMPDEST PUSH1 0x7 DUP1 SLOAD PUSH2 0x1188 SWAP1 PUSH2 0x3520 JUMP JUMPDEST DUP1 PUSH1 0x1F ADD PUSH1 0x20 DUP1 SWAP2 DIV MUL PUSH1 0x20 ADD PUSH1 0x40 MLOAD SWAP1 DUP2 ADD PUSH1 0x40 MSTORE DUP1 SWAP3 SWAP2 SWAP1 DUP2 DUP2 MSTORE PUSH1 0x20 ADD DUP3 DUP1 SLOAD PUSH2 0x11B4 SWAP1 PUSH2 0x3520 JUMP JUMPDEST DUP1 ISZERO PUSH2 0x1201 JUMPI DUP1 PUSH1 0x1F LT PUSH2 0x11D6 JUMPI PUSH2 0x100 DUP1 DUP4 SLOAD DIV MUL DUP4 MSTORE SWAP2 PUSH1 0x20 ADD SWAP2 PUSH2 0x1201 JUMP JUMPDEST DUP3 ADD SWAP2 SWAP1 PUSH1 0x0 MSTORE PUSH1 0x20 PUSH1 0x0 KECCAK256 SWAP1 JUMPDEST DUP2 SLOAD DUP2 MSTORE SWAP1 PUSH1 0x1 ADD SWAP1 PUSH1 0x20 ADD DUP1 DUP4 GT PUSH2 0x11E4 JUMPI DUP3 SWAP1 SUB PUSH1 0x1F AND DUP3 ADD SWAP2 JUMPDEST POP POP POP POP POP DUP2 JUMP JUMPDEST PUSH1 0xD DUP1 SLOAD PUSH2 0x1216 SWAP1 PUSH2 0x3520 JUMP JUMPDEST DUP1 PUSH1 0x1F ADD PUSH1 0x20 DUP1 SWAP2 DIV MUL PUSH1 0x20 ADD PUSH1 0x40 MLOAD SWAP1 DUP2 ADD PUSH1 0x40 MSTORE DUP1 SWAP3 SWAP2 SWAP1 DUP2 DUP2 MSTORE PUSH1 0x20 ADD DUP3 DUP1 SLOAD PUSH2 0x1242 SWAP1 PUSH2 0x3520 JUMP JUMPDEST DUP1 ISZERO PUSH2 0x128F JUMPI DUP1 PUSH1 0x1F LT PUSH2 0x1264 JUMPI PUSH2 0x100 DUP1 DUP4 SLOAD DIV MUL DUP4 MSTORE SWAP2 PUSH1 0x20 ADD SWAP2 PUSH2 0x128F JUMP JUMPDEST DUP3 ADD SWAP2 SWAP1 PUSH1 0x0 MSTORE PUSH1 0x20 PUSH1 0x0 KECCAK256 SWAP1 JUMPDEST DUP2 SLOAD DUP2 MSTORE SWAP1 PUSH1 0x1 ADD SWAP1 PUSH1 0x20 ADD DUP1 DUP4 GT PUSH2 0x1272 JUMPI DUP3 SWAP1 SUB PUSH1 0x1F AND DUP3 ADD SWAP2 JUMPDEST POP POP POP POP POP DUP2 JUMP JUMPDEST CALLER PUSH20 0xFFFFFFFFFFFFFFFFFFFFFFFFFFFFFFFFFFFFFFFF AND PUSH1 0x4 PUSH1 0x0 SWAP1 SLOAD SWAP1 PUSH2 0x100 EXP SWAP1 DIV PUSH20 0xFFFFFFFFFFFFFFFFFFFFFFFFFFFFFFFFFFFFFFFF AND PUSH20 0xFFFFFFFFFFFFFFFFFFFFFFFFFFFFFFFFFFFFFFFF AND EQ PUSH2 0x1327 JUMPI PUSH1 0x40 MLOAD PUSH32 0x8C379A000000000000000000000000000000000000000000000000000000000 DUP2 MSTORE PUSH1 0x4 ADD PUSH2 0x131E SWAP1 PUSH2 0x31C2 JUMP JUMPDEST PUSH1 0x40 MLOAD DUP1 SWAP2 SUB SWAP1 REVERT JUMPDEST PUSH1 0x0 DUP2 EQ ISZERO DUP1 ISZERO PUSH2 0x1339 JUMPI POP PUSH1 0x10 SLOAD DUP2 LT JUMPDEST ISZERO PUSH2 0x1379 JUMPI PUSH1 0x40 MLOAD PUSH32 0x8C379A000000000000000000000000000000000000000000000000000000000 DUP2 MSTORE PUSH1 0x4 ADD PUSH2 0x1370 SWAP1 PUSH2 0x3222 JUMP JUMPDEST PUSH1 0x40 MLOAD DUP1 SWAP2 SUB SWAP1 REVERT JUMPDEST DUP1 PUSH1 0x11 DUP2 SWAP1 SSTORE POP PUSH32 0x87782743094654FC1484EF46E968ABC30C6CD880E70EC8B310EB42641E35EB45 DUP2 PUSH1 0x40 MLOAD PUSH2 0x13AF SWAP2 SWAP1 PUSH2 0x3302 JUMP JUMPDEST PUSH1 0x40 MLOAD DUP1 SWAP2 SUB SWAP1 LOG1 POP JUMP JUMPDEST PUSH1 0x12 SLOAD DUP2 JUMP JUMPDEST PUSH1 0x11 SLOAD DUP2 JUMP JUMPDEST PUSH1 0x8 DUP1 SLOAD PUSH2 0x13D3 SWAP1 PUSH2 0x3520 JUMP JUMPDEST DUP1 PUSH1 0x1F ADD PUSH1 0x20 DUP1 SWAP2 DIV MUL PUSH1 0x20 ADD PUSH1 0x40 MLOAD SWAP1 DUP2 ADD PUSH1 0x40 MSTORE DUP1 SWAP3 SWAP2 SWAP1 DUP2 DUP2 MSTORE PUSH1 0x20 ADD DUP3 DUP1 SLOAD PUSH2 0x13FF SWAP1 PUSH2 0x3520 JUMP JUMPDEST DUP1 ISZERO PUSH2 0x144C JUMPI DUP1 PUSH1 0x1F LT PUSH2 0x1421 JUMPI PUSH2 0x100 DUP1 DUP4 SLOAD DIV MUL DUP4 MSTORE SWAP2 PUSH1 0x20 ADD SWAP2 PUSH2 0x144C JUMP JUMPDEST DUP3 ADD SWAP2 SWAP1 PUSH1 0x0 MSTORE PUSH1 0x20 PUSH1 0x0 KECCAK256 SWAP1 JUMPDEST DUP2 SLOAD DUP2 MSTORE SWAP1 PUSH1 0x1 ADD SWAP1 PUSH1 0x20 ADD DUP1 DUP4 GT PUSH2 0x142F JUMPI DUP3 SWAP1 SUB PUSH1 0x1F AND DUP3 ADD SWAP2 JUMPDEST POP POP POP POP POP DUP2 JUMP JUMPDEST PUSH1 0x0 PUSH1 0x2 PUSH1 0x0 DUP4 PUSH20 0xFFFFFFFFFFFFFFFFFFFFFFFFFFFFFFFFFFFFFFFF AND PUSH20 0xFFFFFFFFFFFFFFFFFFFFFFFFFFFFFFFFFFFFFFFF AND DUP2 MSTORE PUSH1 0x20 ADD SWAP1 DUP2 MSTORE PUSH1 0x20 ADD PUSH1 0x0 KECCAK256 SLOAD SWAP1 POP SWAP2 SWAP1 POP JUMP JUMPDEST PUSH1 0x9 DUP1 SLOAD PUSH2 0x14AA SWAP1 PUSH2 0x3520 JUMP JUMPDEST DUP1 PUSH1 0x1F ADD PUSH1 0x20 DUP1 SWAP2 DIV MUL PUSH1 0x20 ADD PUSH1 0x40 MLOAD SWAP1 DUP2 ADD PUSH1 0x40 MSTORE DUP1 SWAP3 SWAP2 SWAP1 DUP2 DUP2 MSTORE PUSH1 0x20 ADD DUP3 DUP1 SLOAD PUSH2 0x14D6 SWAP1 PUSH2 0x3520 JUMP JUMPDEST DUP1 ISZERO PUSH2 0x1523 JUMPI DUP1 PUSH1 0x1F LT PUSH2 0x14F8 JUMPI PUSH2 0x100 DUP1 DUP4 SLOAD DIV MUL DUP4 MSTORE SWAP2 PUSH1 0x20 ADD SWAP2 PUSH2 0x1523 JUMP JUMPDEST DUP3 ADD SWAP2 SWAP1 PUSH1 0x0 MSTORE PUSH1 0x20 PUSH1 0x0 KECCAK256 SWAP1 JUMPDEST DUP2 SLOAD DUP2 MSTORE SWAP1 PUSH1 0x1 ADD SWAP1 PUSH1 0x20 ADD DUP1 DUP4 GT PUSH2 0x1506 JUMPI DUP3 SWAP1 SUB PUSH1 0x1F AND DUP3 ADD SWAP2 JUMPDEST POP POP POP POP POP DUP2 JUMP JUMPDEST PUSH1 0x60 PUSH1 0x7 DUP3 PUSH1 0xFF AND GT PUSH2 0x15E9 JUMPI PUSH1 0x13 DUP3 PUSH1 0xFF AND DUP2 SLOAD DUP2 LT PUSH2 0x154F JUMPI PUSH2 0x154E PUSH2 0x362A JUMP JUMPDEST JUMPDEST SWAP1 PUSH1 0x0 MSTORE PUSH1 0x20 PUSH1 0x0 KECCAK256 ADD DUP1 SLOAD PUSH2 0x1564 SWAP1 PUSH2 0x3520 JUMP JUMPDEST DUP1 PUSH1 0x1F ADD PUSH1 0x20 DUP1 SWAP2 DIV MUL PUSH1 0x20 ADD PUSH1 0x40 MLOAD SWAP1 DUP2 ADD PUSH1 0x40 MSTORE DUP1 SWAP3 SWAP2 SWAP1 DUP2 DUP2 MSTORE PUSH1 0x20 ADD DUP3 DUP1 SLOAD PUSH2 0x1590 SWAP1 PUSH2 0x3520 JUMP JUMPDEST DUP1 ISZERO PUSH2 0x15DD JUMPI DUP1 PUSH1 0x1F LT PUSH2 0x15B2 JUMPI PUSH2 0x100 DUP1 DUP4 SLOAD DIV MUL DUP4 MSTORE SWAP2 PUSH1 0x20 ADD SWAP2 PUSH2 0x15DD JUMP JUMPDEST DUP3 ADD SWAP2 SWAP1 PUSH1 0x0 MSTORE PUSH1 0x20 PUSH1 0x0 KECCAK256 SWAP1 JUMPDEST DUP2 SLOAD DUP2 MSTORE SWAP1 PUSH1 0x1 ADD SWAP1 PUSH1 0x20 ADD DUP1 DUP4 GT PUSH2 0x15C0 JUMPI DUP3 SWAP1 SUB PUSH1 0x1F AND DUP3 ADD SWAP2 JUMPDEST POP POP POP POP POP SWAP1 POP PUSH2 0x1622 JUMP JUMPDEST PUSH1 0x40 MLOAD DUP1 PUSH1 0x40 ADD PUSH1 0x40 MSTORE DUP1 PUSH1 0x19 DUP2 MSTORE PUSH1 0x20 ADD PUSH32 0x4572726F7220636F6465206973206E6F7420646566696E656400000000000000 DUP2 MSTORE POP SWAP1 POP JUMPDEST SWAP2 SWAP1 POP JUMP JUMPDEST PUSH1 0xE DUP1 SLOAD PUSH2 0x1634 SWAP1 PUSH2 0x3520 JUMP JUMPDEST DUP1 PUSH1 0x1F ADD PUSH1 0x20 DUP1 SWAP2 DIV MUL PUSH1 0x20 ADD PUSH1 0x40 MLOAD SWAP1 DUP2 ADD PUSH1 0x40 MSTORE DUP1 SWAP3 SWAP2 SWAP1 DUP2 DUP2 MSTORE PUSH1 0x20 ADD DUP3 DUP1 SLOAD PUSH2 0x1660 SWAP1 PUSH2 0x3520 JUMP JUMPDEST DUP1 ISZERO PUSH2 0x16AD JUMPI DUP1 PUSH1 0x1F LT PUSH2 0x1682 JUMPI PUSH2 0x100 DUP1 DUP4 SLOAD DIV MUL DUP4 MSTORE SWAP2 PUSH1 0x20 ADD SWAP2 PUSH2 0x16AD JUMP JUMPDEST DUP3 ADD SWAP2 SWAP1 PUSH1 0x0 MSTORE PUSH1 0x20 PUSH1 0x0 KECCAK256 SWAP1 JUMPDEST DUP2 SLOAD DUP2 MSTORE SWAP1 PUSH1 0x1 ADD SWAP1 PUSH1 0x20 ADD DUP1 DUP4 GT PUSH2 0x1690 JUMPI DUP3 SWAP1 SUB PUSH1 0x1F AND DUP3 ADD SWAP2 JUMPDEST POP POP POP POP POP DUP2 JUMP JUMPDEST PUSH1 0x0 PUSH1 0x4 PUSH1 0x0 SWAP1 SLOAD SWAP1 PUSH2 0x100 EXP SWAP1 DIV PUSH20 0xFFFFFFFFFFFFFFFFFFFFFFFFFFFFFFFFFFFFFFFF AND SWAP1 POP SWAP1 JUMP JUMPDEST PUSH1 0xC DUP1 SLOAD PUSH2 0x16EC SWAP1 PUSH2 0x3520 JUMP JUMPDEST DUP1 PUSH1 0x1F ADD PUSH1 0x20 DUP1 SWAP2 DIV MUL PUSH1 0x20 ADD PUSH1 0x40 MLOAD SWAP1 DUP2 ADD PUSH1 0x40 MSTORE DUP1 SWAP3 SWAP2 SWAP1 DUP2 DUP2 MSTORE PUSH1 0x20 ADD DUP3 DUP1 SLOAD PUSH2 0x1718 SWAP1 PUSH2 0x3520 JUMP JUMPDEST DUP1 ISZERO PUSH2 0x1765 JUMPI DUP1 PUSH1 0x1F LT PUSH2 0x173A JUMPI PUSH2 0x100 DUP1 DUP4 SLOAD DIV MUL DUP4 MSTORE SWAP2 PUSH1 0x20 ADD SWAP2 PUSH2 0x1765 JUMP JUMPDEST DUP3 ADD SWAP2 SWAP1 PUSH1 0x0 MSTORE PUSH1 0x20 PUSH1 0x0 KECCAK256 SWAP1 JUMPDEST DUP2 SLOAD DUP2 MSTORE SWAP1 PUSH1 0x1 ADD SWAP1 PUSH1 0x20 ADD DUP1 DUP4 GT PUSH2 0x1748 JUMPI DUP3 SWAP1 SUB PUSH1 0x1F AND DUP3 ADD SWAP2 JUMPDEST POP POP POP POP POP DUP2 JUMP JUMPDEST PUSH1 0x0 CALLER PUSH20 0xFFFFFFFFFFFFFFFFFFFFFFFFFFFFFFFFFFFFFFFF AND PUSH1 0x4 PUSH1 0x0 SWAP1 SLOAD SWAP1 PUSH2 0x100 EXP SWAP1 DIV PUSH20 0xFFFFFFFFFFFFFFFFFFFFFFFFFFFFFFFFFFFFFFFF AND PUSH20 0xFFFFFFFFFFFFFFFFFFFFFFFFFFFFFFFFFFFFFFFF AND EQ PUSH2 0x17FF JUMPI PUSH1 0x40 MLOAD PUSH32 0x8C379A000000000000000000000000000000000000000000000000000000000 DUP2 MSTORE PUSH1 0x4 ADD PUSH2 0x17F6 SWAP1 PUSH2 0x31C2 JUMP JUMPDEST PUSH1 0x40 MLOAD DUP1 SWAP2 SUB SWAP1 REVERT JUMPDEST DUP2 PUSH1 0x2 PUSH1 0x0 DUP6 PUSH20 0xFFFFFFFFFFFFFFFFFFFFFFFFFFFFFFFFFFFFFFFF AND PUSH20 0xFFFFFFFFFFFFFFFFFFFFFFFFFFFFFFFFFFFFFFFF AND DUP2 MSTORE PUSH1 0x20 ADD SWAP1 DUP2 MSTORE PUSH1 0x20 ADD PUSH1 0x0 KECCAK256 SLOAD LT ISZERO PUSH2 0x1881 JUMPI PUSH1 0x40 MLOAD PUSH32 0x8C379A000000000000000000000000000000000000000000000000000000000 DUP2 MSTORE PUSH1 0x4 ADD PUSH2 0x1878 SWAP1 PUSH2 0x3242 JUMP JUMPDEST PUSH1 0x40 MLOAD DUP1 SWAP2 SUB SWAP1 REVERT JUMPDEST DUP2 PUSH1 0xA SLOAD PUSH2 0x188F SWAP2 SWAP1 PUSH2 0x3455 JUMP JUMPDEST PUSH1 0xA DUP2 SWAP1 SSTORE POP DUP2 PUSH1 0x2 PUSH1 0x0 DUP6 PUSH20 0xFFFFFFFFFFFFFFFFFFFFFFFFFFFFFFFFFFFFFFFF AND PUSH20 0xFFFFFFFFFFFFFFFFFFFFFFFFFFFFFFFFFFFFFFFF AND DUP2 MSTORE PUSH1 0x20 ADD SWAP1 DUP2 MSTORE PUSH1 0x20 ADD PUSH1 0x0 KECCAK256 SLOAD PUSH2 0x18E0 SWAP2 SWAP1 PUSH2 0x3455 JUMP JUMPDEST PUSH1 0x2 PUSH1 0x0 DUP6 PUSH20 0xFFFFFFFFFFFFFFFFFFFFFFFFFFFFFFFFFFFFFFFF AND PUSH20 0xFFFFFFFFFFFFFFFFFFFFFFFFFFFFFFFFFFFFFFFF AND DUP2 MSTORE PUSH1 0x20 ADD SWAP1 DUP2 MSTORE PUSH1 0x20 ADD PUSH1 0x0 KECCAK256 DUP2 SWAP1 SSTORE POP DUP3 PUSH20 0xFFFFFFFFFFFFFFFFFFFFFFFFFFFFFFFFFFFFFFFF AND PUSH32 0x388D6102A0230861B4E9646FB5ACDA1C5EC15D39DF2B619D39C25D16A1268490 DUP4 PUSH1 0x40 MLOAD PUSH2 0x1969 SWAP2 SWAP1 PUSH2 0x3302 JUMP JUMPDEST PUSH1 0x40 MLOAD DUP1 SWAP2 SUB SWAP1 LOG2 PUSH1 0x1 SWAP1 POP SWAP3 SWAP2 POP POP JUMP JUMPDEST PUSH1 0x0 CALLER DUP4 DUP4 PUSH1 0x0 PUSH2 0x198D DUP5 DUP5 DUP5 PUSH2 0x1F33 JUMP JUMPDEST SWAP1 POP PUSH1 0x0 PUSH1 0xFF AND DUP2 PUSH1 0xFF AND EQ PUSH2 0x1A4C JUMPI PUSH1 0x0 PUSH2 0x19A8 DUP3 PUSH2 0x152B JUMP JUMPDEST SWAP1 POP DUP4 PUSH20 0xFFFFFFFFFFFFFFFFFFFFFFFFFFFFFFFFFFFFFFFF AND DUP6 PUSH20 0xFFFFFFFFFFFFFFFFFFFFFFFFFFFFFFFFFFFFFFFF AND PUSH32 0x2FDD8C36DBE5614497208665E8D30C570421680D09984E3153829DDABD30C094 DUP4 PUSH1 0x40 MLOAD PUSH2 0x1A07 SWAP2 SWAP1 PUSH2 0x31A0 JUMP JUMPDEST PUSH1 0x40 MLOAD DUP1 SWAP2 SUB SWAP1 LOG3 DUP1 PUSH1 0x40 MLOAD PUSH32 0x8C379A000000000000000000000000000000000000000000000000000000000 DUP2 MSTORE PUSH1 0x4 ADD PUSH2 0x1A43 SWAP2 SWAP1 PUSH2 0x31A0 JUMP JUMPDEST PUSH1 0x40 MLOAD DUP1 SWAP2 SUB SWAP1 REVERT JUMPDEST PUSH2 0x1A57 CALLER DUP9 DUP9 PUSH2 0x2785 JUMP JUMPDEST PUSH1 0x1 SWAP5 POP POP POP POP POP SWAP3 SWAP2 POP POP JUMP JUMPDEST PUSH1 0x0 DUP1 PUSH1 0x0 DUP1 DUP5 PUSH20 0xFFFFFFFFFFFFFFFFFFFFFFFFFFFFFFFFFFFFFFFF AND PUSH20 0xFFFFFFFFFFFFFFFFFFFFFFFFFFFFFFFFFFFFFFFF AND DUP2 MSTORE PUSH1 0x20 ADD SWAP1 DUP2 MSTORE PUSH1 0x20 ADD PUSH1 0x0 KECCAK256 SLOAD PUSH1 0x1 PUSH1 0x0 DUP6 PUSH20 0xFFFFFFFFFFFFFFFFFFFFFFFFFFFFFFFFFFFFFFFF AND PUSH20 0xFFFFFFFFFFFFFFFFFFFFFFFFFFFFFFFFFFFFFFFF AND DUP2 MSTORE PUSH1 0x20 ADD SWAP1 DUP2 MSTORE PUSH1 0x20 ADD PUSH1 0x0 KECCAK256 SLOAD SWAP2 POP SWAP2 POP SWAP2 POP SWAP2 JUMP JUMPDEST CALLER PUSH20 0xFFFFFFFFFFFFFFFFFFFFFFFFFFFFFFFFFFFFFFFF AND PUSH1 0x4 PUSH1 0x0 SWAP1 SLOAD SWAP1 PUSH2 0x100 EXP SWAP1 DIV PUSH20 0xFFFFFFFFFFFFFFFFFFFFFFFFFFFFFFFFFFFFFFFF AND PUSH20 0xFFFFFFFFFFFFFFFFFFFFFFFFFFFFFFFFFFFFFFFF AND EQ PUSH2 0x1B80 JUMPI PUSH1 0x40 MLOAD PUSH32 0x8C379A000000000000000000000000000000000000000000000000000000000 DUP2 MSTORE PUSH1 0x4 ADD PUSH2 0x1B77 SWAP1 PUSH2 0x31C2 JUMP JUMPDEST PUSH1 0x40 MLOAD DUP1 SWAP2 SUB SWAP1 REVERT JUMPDEST DUP1 PUSH1 0xE SWAP1 DUP1 MLOAD SWAP1 PUSH1 0x20 ADD SWAP1 PUSH2 0x1B96 SWAP3 SWAP2 SWAP1 PUSH2 0x2AFD JUMP JUMPDEST POP PUSH32 0x824A3F3055C070014BC7157744915537C646AE1A287C988D79EC124D88938E94 DUP2 PUSH1 0x40 MLOAD PUSH2 0x1BC6 SWAP2 SWAP1 PUSH2 0x31A0 JUMP JUMPDEST PUSH1 0x40 MLOAD DUP1 SWAP2 SUB SWAP1 LOG1 POP JUMP JUMPDEST CALLER PUSH20 0xFFFFFFFFFFFFFFFFFFFFFFFFFFFFFFFFFFFFFFFF AND PUSH1 0x4 PUSH1 0x0 SWAP1 SLOAD SWAP1 PUSH2 0x100 EXP SWAP1 DIV PUSH20 0xFFFFFFFFFFFFFFFFFFFFFFFFFFFFFFFFFFFFFFFF AND PUSH20 0xFFFFFFFFFFFFFFFFFFFFFFFFFFFFFFFFFFFFFFFF AND EQ PUSH2 0x1C61 JUMPI PUSH1 0x40 MLOAD PUSH32 0x8C379A000000000000000000000000000000000000000000000000000000000 DUP2 MSTORE PUSH1 0x4 ADD PUSH2 0x1C58 SWAP1 PUSH2 0x31C2 JUMP JUMPDEST PUSH1 0x40 MLOAD DUP1 SWAP2 SUB SWAP1 REVERT JUMPDEST DUP1 PUSH1 0xD SWAP1 DUP1 MLOAD SWAP1 PUSH1 0x20 ADD SWAP1 PUSH2 0x1C77 SWAP3 SWAP2 SWAP1 PUSH2 0x2AFD JUMP JUMPDEST POP PUSH32 0x4295968313E92C7DD40AA9C85BE9B7246FF59503751E11205C85795A2F74FDB3 DUP2 PUSH1 0x40 MLOAD PUSH2 0x1CA7 SWAP2 SWAP1 PUSH2 0x31A0 JUMP JUMPDEST PUSH1 0x40 MLOAD DUP1 SWAP2 SUB SWAP1 LOG1 POP JUMP JUMPDEST PUSH1 0xF DUP1 SLOAD PUSH2 0x1CBF SWAP1 PUSH2 0x3520 JUMP JUMPDEST DUP1 PUSH1 0x1F ADD PUSH1 0x20 DUP1 SWAP2 DIV MUL PUSH1 0x20 ADD PUSH1 0x40 MLOAD SWAP1 DUP2 ADD PUSH1 0x40 MSTORE DUP1 SWAP3 SWAP2 SWAP1 DUP2 DUP2 MSTORE PUSH1 0x20 ADD DUP3 DUP1 SLOAD PUSH2 0x1CEB SWAP1 PUSH2 0x3520 JUMP JUMPDEST DUP1 ISZERO PUSH2 0x1D38 JUMPI DUP1 PUSH1 0x1F LT PUSH2 0x1D0D JUMPI PUSH2 0x100 DUP1 DUP4 SLOAD DIV MUL DUP4 MSTORE SWAP2 PUSH1 0x20 ADD SWAP2 PUSH2 0x1D38 JUMP JUMPDEST DUP3 ADD SWAP2 SWAP1 PUSH1 0x0 MSTORE PUSH1 0x20 PUSH1 0x0 KECCAK256 SWAP1 JUMPDEST DUP2 SLOAD DUP2 MSTORE SWAP1 PUSH1 0x1 ADD SWAP1 PUSH1 0x20 ADD DUP1 DUP4 GT PUSH2 0x1D1B JUMPI DUP3 SWAP1 SUB PUSH1 0x1F AND DUP3 ADD SWAP2 JUMPDEST POP POP POP POP POP DUP2 JUMP JUMPDEST CALLER PUSH20 0xFFFFFFFFFFFFFFFFFFFFFFFFFFFFFFFFFFFFFFFF AND PUSH1 0x4 PUSH1 0x0 SWAP1 SLOAD SWAP1 PUSH2 0x100 EXP SWAP1 DIV PUSH20 0xFFFFFFFFFFFFFFFFFFFFFFFFFFFFFFFFFFFFFFFF AND PUSH20 0xFFFFFFFFFFFFFFFFFFFFFFFFFFFFFFFFFFFFFFFF AND EQ PUSH2 0x1DD0 JUMPI PUSH1 0x40 MLOAD PUSH32 0x8C379A000000000000000000000000000000000000000000000000000000000 DUP2 MSTORE PUSH1 0x4 ADD PUSH2 0x1DC7 SWAP1 PUSH2 0x31C2 JUMP JUMPDEST PUSH1 0x40 MLOAD DUP1 SWAP2 SUB SWAP1 REVERT JUMPDEST DUP1 PUSH1 0x12 DUP2 SWAP1 SSTORE POP PUSH32 0x50293E6952EAB2F7CF401DE4A51C1918DA86A2BD5A7276A11AE3DD4A549CDE9 DUP2 PUSH1 0x40 MLOAD PUSH2 0x1E06 SWAP2 SWAP1 PUSH2 0x3302 JUMP JUMPDEST PUSH1 0x40 MLOAD DUP1 SWAP2 SUB SWAP1 LOG1 POP JUMP JUMPDEST CALLER PUSH20 0xFFFFFFFFFFFFFFFFFFFFFFFFFFFFFFFFFFFFFFFF AND PUSH1 0x4 PUSH1 0x0 SWAP1 SLOAD SWAP1 PUSH2 0x100 EXP SWAP1 DIV PUSH20 0xFFFFFFFFFFFFFFFFFFFFFFFFFFFFFFFFFFFFFFFF AND PUSH20 0xFFFFFFFFFFFFFFFFFFFFFFFFFFFFFFFFFFFFFFFF AND EQ PUSH2 0x1EA1 JUMPI PUSH1 0x40 MLOAD PUSH32 0x8C379A000000000000000000000000000000000000000000000000000000000 DUP2 MSTORE PUSH1 0x4 ADD PUSH2 0x1E98 SWAP1 PUSH2 0x31C2 JUMP JUMPDEST PUSH1 0x40 MLOAD DUP1 SWAP2 SUB SWAP1 REVERT JUMPDEST PUSH1 0x1 PUSH1 0x5 PUSH1 0x0 DUP4 PUSH20 0xFFFFFFFFFFFFFFFFFFFFFFFFFFFFFFFFFFFFFFFF AND PUSH20 0xFFFFFFFFFFFFFFFFFFFFFFFFFFFFFFFFFFFFFFFF AND DUP2 MSTORE PUSH1 0x20 ADD SWAP1 DUP2 MSTORE PUSH1 0x20 ADD PUSH1 0x0 KECCAK256 PUSH1 0x0 PUSH2 0x100 EXP DUP2 SLOAD DUP2 PUSH1 0xFF MUL NOT AND SWAP1 DUP4 ISZERO ISZERO MUL OR SWAP1 SSTORE POP PUSH32 0xEA54BDB8A4594AAAC063E3B01AB3E613BF4CB045D085502C81497C9696ACA8B2 DUP2 PUSH1 0x40 MLOAD PUSH2 0x1F28 SWAP2 SWAP1 PUSH2 0x3125 JUMP JUMPDEST PUSH1 0x40 MLOAD DUP1 SWAP2 SUB SWAP1 LOG1 POP JUMP JUMPDEST PUSH1 0x0 PUSH1 0x12 SLOAD TIMESTAMP LT DUP1 ISZERO PUSH2 0x1F94 JUMPI POP PUSH1 0x4 PUSH1 0x0 SWAP1 SLOAD SWAP1 PUSH2 0x100 EXP SWAP1 DIV PUSH20 0xFFFFFFFFFFFFFFFFFFFFFFFFFFFFFFFFFFFFFFFF AND PUSH20 0xFFFFFFFFFFFFFFFFFFFFFFFFFFFFFFFFFFFFFFFF AND DUP5 PUSH20 0xFFFFFFFFFFFFFFFFFFFFFFFFFFFFFFFFFFFFFFFF AND EQ ISZERO JUMPDEST ISZERO PUSH2 0x1FA2 JUMPI PUSH1 0x2 SWAP1 POP PUSH2 0x2274 JUMP JUMPDEST PUSH1 0x0 DUP3 GT PUSH2 0x1FB3 JUMPI PUSH1 0x3 SWAP1 POP PUSH2 0x2274 JUMP JUMPDEST PUSH1 0x0 PUSH1 0x1 PUSH1 0x0 DUP7 PUSH20 0xFFFFFFFFFFFFFFFFFFFFFFFFFFFFFFFFFFFFFFFF AND PUSH20 0xFFFFFFFFFFFFFFFFFFFFFFFFFFFFFFFFFFFFFFFF AND DUP2 MSTORE PUSH1 0x20 ADD SWAP1 DUP2 MSTORE PUSH1 0x20 ADD PUSH1 0x0 KECCAK256 SLOAD EQ ISZERO PUSH2 0x2004 JUMPI PUSH1 0x4 SWAP1 POP PUSH2 0x2274 JUMP JUMPDEST PUSH1 0x0 DUP1 PUSH1 0x0 DUP6 PUSH20 0xFFFFFFFFFFFFFFFFFFFFFFFFFFFFFFFFFFFFFFFF AND PUSH20 0xFFFFFFFFFFFFFFFFFFFFFFFFFFFFFFFFFFFFFFFF AND DUP2 MSTORE PUSH1 0x20 ADD SWAP1 DUP2 MSTORE PUSH1 0x20 ADD PUSH1 0x0 KECCAK256 SLOAD EQ ISZERO PUSH2 0x2054 JUMPI PUSH1 0x5 SWAP1 POP PUSH2 0x2274 JUMP JUMPDEST TIMESTAMP PUSH1 0x1 PUSH1 0x0 DUP7 PUSH20 0xFFFFFFFFFFFFFFFFFFFFFFFFFFFFFFFFFFFFFFFF AND PUSH20 0xFFFFFFFFFFFFFFFFFFFFFFFFFFFFFFFFFFFFFFFF AND DUP2 MSTORE PUSH1 0x20 ADD SWAP1 DUP2 MSTORE PUSH1 0x20 ADD PUSH1 0x0 KECCAK256 SLOAD GT ISZERO PUSH2 0x20A4 JUMPI PUSH1 0x6 SWAP1 POP PUSH2 0x2274 JUMP JUMPDEST TIMESTAMP PUSH1 0x0 DUP1 DUP6 PUSH20 0xFFFFFFFFFFFFFFFFFFFFFFFFFFFFFFFFFFFFFFFF AND PUSH20 0xFFFFFFFFFFFFFFFFFFFFFFFFFFFFFFFFFFFFFFFF AND DUP2 MSTORE PUSH1 0x20 ADD SWAP1 DUP2 MSTORE PUSH1 0x20 ADD PUSH1 0x0 KECCAK256 SLOAD GT ISZERO PUSH2 0x20F3 JUMPI PUSH1 0x7 SWAP1 POP PUSH2 0x2274 JUMP JUMPDEST PUSH1 0x0 PUSH1 0x11 SLOAD EQ ISZERO PUSH2 0x2107 JUMPI PUSH1 0x0 SWAP1 POP PUSH2 0x2274 JUMP JUMPDEST PUSH1 0x0 PUSH1 0x2 PUSH1 0x0 DUP6 PUSH20 0xFFFFFFFFFFFFFFFFFFFFFFFFFFFFFFFFFFFFFFFF AND PUSH20 0xFFFFFFFFFFFFFFFFFFFFFFFFFFFFFFFFFFFFFFFF AND DUP2 MSTORE PUSH1 0x20 ADD SWAP1 DUP2 MSTORE PUSH1 0x20 ADD PUSH1 0x0 KECCAK256 SLOAD GT DUP1 PUSH2 0x21A2 JUMPI POP PUSH1 0x4 PUSH1 0x0 SWAP1 SLOAD SWAP1 PUSH2 0x100 EXP SWAP1 DIV PUSH20 0xFFFFFFFFFFFFFFFFFFFFFFFFFFFFFFFFFFFFFFFF AND PUSH20 0xFFFFFFFFFFFFFFFFFFFFFFFFFFFFFFFFFFFFFFFF AND DUP4 PUSH20 0xFFFFFFFFFFFFFFFFFFFFFFFFFFFFFFFFFFFFFFFF AND EQ JUMPDEST ISZERO PUSH2 0x21B0 JUMPI PUSH1 0x0 SWAP1 POP PUSH2 0x2274 JUMP JUMPDEST PUSH1 0x11 SLOAD PUSH1 0x10 SLOAD LT ISZERO PUSH2 0x21C5 JUMPI PUSH1 0x0 SWAP1 POP PUSH2 0x2274 JUMP JUMPDEST DUP2 PUSH1 0x2 PUSH1 0x0 DUP7 PUSH20 0xFFFFFFFFFFFFFFFFFFFFFFFFFFFFFFFFFFFFFFFF AND PUSH20 0xFFFFFFFFFFFFFFFFFFFFFFFFFFFFFFFFFFFFFFFF AND DUP2 MSTORE PUSH1 0x20 ADD SWAP1 DUP2 MSTORE PUSH1 0x20 ADD PUSH1 0x0 KECCAK256 SLOAD EQ DUP1 ISZERO PUSH2 0x2261 JUMPI POP PUSH1 0x4 PUSH1 0x0 SWAP1 SLOAD SWAP1 PUSH2 0x100 EXP SWAP1 DIV PUSH20 0xFFFFFFFFFFFFFFFFFFFFFFFFFFFFFFFFFFFFFFFF AND PUSH20 0xFFFFFFFFFFFFFFFFFFFFFFFFFFFFFFFFFFFFFFFF AND DUP5 PUSH20 0xFFFFFFFFFFFFFFFFFFFFFFFFFFFFFFFFFFFFFFFF AND EQ ISZERO JUMPDEST ISZERO PUSH2 0x226F JUMPI PUSH1 0x0 SWAP1 POP PUSH2 0x2274 JUMP JUMPDEST PUSH1 0x1 SWAP1 POP JUMPDEST SWAP4 SWAP3 POP POP POP JUMP JUMPDEST CALLER PUSH20 0xFFFFFFFFFFFFFFFFFFFFFFFFFFFFFFFFFFFFFFFF AND PUSH1 0x4 PUSH1 0x0 SWAP1 SLOAD SWAP1 PUSH2 0x100 EXP SWAP1 DIV PUSH20 0xFFFFFFFFFFFFFFFFFFFFFFFFFFFFFFFFFFFFFFFF AND PUSH20 0xFFFFFFFFFFFFFFFFFFFFFFFFFFFFFFFFFFFFFFFF AND EQ PUSH2 0x230B JUMPI PUSH1 0x40 MLOAD PUSH32 0x8C379A000000000000000000000000000000000000000000000000000000000 DUP2 MSTORE PUSH1 0x4 ADD PUSH2 0x2302 SWAP1 PUSH2 0x31C2 JUMP JUMPDEST PUSH1 0x40 MLOAD DUP1 SWAP2 SUB SWAP1 REVERT JUMPDEST PUSH1 0x5 PUSH1 0x0 DUP3 PUSH20 0xFFFFFFFFFFFFFFFFFFFFFFFFFFFFFFFFFFFFFFFF AND PUSH20 0xFFFFFFFFFFFFFFFFFFFFFFFFFFFFFFFFFFFFFFFF AND DUP2 MSTORE PUSH1 0x20 ADD SWAP1 DUP2 MSTORE PUSH1 0x20 ADD PUSH1 0x0 KECCAK256 PUSH1 0x0 PUSH2 0x100 EXP DUP2 SLOAD SWAP1 PUSH1 0xFF MUL NOT AND SWAP1 SSTORE PUSH32 0x24546DC0F5DF685D7C979EDD1B0BCC4D85AC6A59974976D7217C9F0D930D3FF0 DUP2 PUSH1 0x40 MLOAD PUSH2 0x2389 SWAP2 SWAP1 PUSH2 0x3125 JUMP JUMPDEST PUSH1 0x40 MLOAD DUP1 SWAP2 SUB SWAP1 LOG1 POP JUMP JUMPDEST PUSH1 0x0 PUSH1 0x3 PUSH1 0x0 DUP5 PUSH20 0xFFFFFFFFFFFFFFFFFFFFFFFFFFFFFFFFFFFFFFFF AND PUSH20 0xFFFFFFFFFFFFFFFFFFFFFFFFFFFFFFFFFFFFFFFF AND DUP2 MSTORE PUSH1 0x20 ADD SWAP1 DUP2 MSTORE PUSH1 0x20 ADD PUSH1 0x0 KECCAK256 PUSH1 0x0 DUP4 PUSH20 0xFFFFFFFFFFFFFFFFFFFFFFFFFFFFFFFFFFFFFFFF AND PUSH20 0xFFFFFFFFFFFFFFFFFFFFFFFFFFFFFFFFFFFFFFFF AND DUP2 MSTORE PUSH1 0x20 ADD SWAP1 DUP2 MSTORE PUSH1 0x20 ADD PUSH1 0x0 KECCAK256 SLOAD SWAP1 POP SWAP3 SWAP2 POP POP JUMP JUMPDEST PUSH1 0x0 PUSH1 0x5 PUSH1 0x0 DUP4 PUSH20 0xFFFFFFFFFFFFFFFFFFFFFFFFFFFFFFFFFFFFFFFF AND PUSH20 0xFFFFFFFFFFFFFFFFFFFFFFFFFFFFFFFFFFFFFFFF AND DUP2 MSTORE PUSH1 0x20 ADD SWAP1 DUP2 MSTORE PUSH1 0x20 ADD PUSH1 0x0 KECCAK256 PUSH1 0x0 SWAP1 SLOAD SWAP1 PUSH2 0x100 EXP SWAP1 DIV PUSH1 0xFF AND SWAP1 POP SWAP2 SWAP1 POP JUMP JUMPDEST CALLER PUSH20 0xFFFFFFFFFFFFFFFFFFFFFFFFFFFFFFFFFFFFFFFF AND PUSH1 0x4 PUSH1 0x0 SWAP1 SLOAD SWAP1 PUSH2 0x100 EXP SWAP1 DIV PUSH20 0xFFFFFFFFFFFFFFFFFFFFFFFFFFFFFFFFFFFFFFFF AND PUSH20 0xFFFFFFFFFFFFFFFFFFFFFFFFFFFFFFFFFFFFFFFF AND EQ PUSH2 0x2501 JUMPI PUSH1 0x40 MLOAD PUSH32 0x8C379A000000000000000000000000000000000000000000000000000000000 DUP2 MSTORE PUSH1 0x4 ADD PUSH2 0x24F8 SWAP1 PUSH2 0x31C2 JUMP JUMPDEST PUSH1 0x40 MLOAD DUP1 SWAP2 SUB SWAP1 REVERT JUMPDEST PUSH1 0x0 PUSH20 0xFFFFFFFFFFFFFFFFFFFFFFFFFFFFFFFFFFFFFFFF AND DUP2 PUSH20 0xFFFFFFFFFFFFFFFFFFFFFFFFFFFFFFFFFFFFFFFF AND EQ ISZERO PUSH2 0x2571 JUMPI PUSH1 0x40 MLOAD PUSH32 0x8C379A000000000000000000000000000000000000000000000000000000000 DUP2 MSTORE PUSH1 0x4 ADD PUSH2 0x2568 SWAP1 PUSH2 0x3262 JUMP JUMPDEST PUSH1 0x40 MLOAD DUP1 SWAP2 SUB SWAP1 REVERT JUMPDEST DUP1 PUSH1 0x4 PUSH1 0x0 PUSH2 0x100 EXP DUP2 SLOAD DUP2 PUSH20 0xFFFFFFFFFFFFFFFFFFFFFFFFFFFFFFFFFFFFFFFF MUL NOT AND SWAP1 DUP4 PUSH20 0xFFFFFFFFFFFFFFFFFFFFFFFFFFFFFFFFFFFFFFFF AND MUL OR SWAP1 SSTORE POP POP JUMP JUMPDEST PUSH1 0x0 DUP1 PUSH1 0x0 DUP6 PUSH20 0xFFFFFFFFFFFFFFFFFFFFFFFFFFFFFFFFFFFFFFFF AND PUSH20 0xFFFFFFFFFFFFFFFFFFFFFFFFFFFFFFFFFFFFFFFF AND DUP2 MSTORE PUSH1 0x20 ADD SWAP1 DUP2 MSTORE PUSH1 0x20 ADD PUSH1 0x0 KECCAK256 SLOAD SWAP1 POP PUSH1 0x0 PUSH1 0x1 PUSH1 0x0 DUP7 PUSH20 0xFFFFFFFFFFFFFFFFFFFFFFFFFFFFFFFFFFFFFFFF AND PUSH20 0xFFFFFFFFFFFFFFFFFFFFFFFFFFFFFFFFFFFFFFFF AND DUP2 MSTORE PUSH1 0x20 ADD SWAP1 DUP2 MSTORE PUSH1 0x20 ADD PUSH1 0x0 KECCAK256 SLOAD SWAP1 POP DUP4 PUSH1 0x0 DUP1 DUP8 PUSH20 0xFFFFFFFFFFFFFFFFFFFFFFFFFFFFFFFFFFFFFFFF AND PUSH20 0xFFFFFFFFFFFFFFFFFFFFFFFFFFFFFFFFFFFFFFFF AND DUP2 MSTORE PUSH1 0x20 ADD SWAP1 DUP2 MSTORE PUSH1 0x20 ADD PUSH1 0x0 KECCAK256 DUP2 SWAP1 SSTORE POP DUP3 PUSH1 0x1 PUSH1 0x0 DUP8 PUSH20 0xFFFFFFFFFFFFFFFFFFFFFFFFFFFFFFFFFFFFFFFF AND PUSH20 0xFFFFFFFFFFFFFFFFFFFFFFFFFFFFFFFFFFFFFFFF AND DUP2 MSTORE PUSH1 0x20 ADD SWAP1 DUP2 MSTORE PUSH1 0x20 ADD PUSH1 0x0 KECCAK256 DUP2 SWAP1 SSTORE POP PUSH1 0x0 DUP3 EQ DUP1 ISZERO PUSH2 0x26D3 JUMPI POP PUSH1 0x0 DUP2 EQ JUMPDEST ISZERO PUSH2 0x272D JUMPI DUP5 PUSH20 0xFFFFFFFFFFFFFFFFFFFFFFFFFFFFFFFFFFFFFFFF AND PUSH32 0xC78EE1DE8EB00C83BAA5F9BF324F00DD286B754A3826292DE51C92C3E7A0CAB5 DUP6 DUP6 PUSH1 0x40 MLOAD PUSH2 0x2720 SWAP3 SWAP2 SWAP1 PUSH2 0x331D JUMP JUMPDEST PUSH1 0x40 MLOAD DUP1 SWAP2 SUB SWAP1 LOG2 PUSH2 0x277E JUMP JUMPDEST DUP5 PUSH20 0xFFFFFFFFFFFFFFFFFFFFFFFFFFFFFFFFFFFFFFFF AND PUSH32 0x50FC162609DB30A736355688F8F60BAAB2991BEBB40A6D50ED93371A95493616 DUP6 DUP6 PUSH1 0x40 MLOAD PUSH2 0x2775 SWAP3 SWAP2 SWAP1 PUSH2 0x331D JUMP JUMPDEST PUSH1 0x40 MLOAD DUP1 SWAP2 SUB SWAP1 LOG2 JUMPDEST POP POP POP POP POP JUMP JUMPDEST DUP1 PUSH1 0x2 PUSH1 0x0 DUP6 PUSH20 0xFFFFFFFFFFFFFFFFFFFFFFFFFFFFFFFFFFFFFFFF AND PUSH20 0xFFFFFFFFFFFFFFFFFFFFFFFFFFFFFFFFFFFFFFFF AND DUP2 MSTORE PUSH1 0x20 ADD SWAP1 DUP2 MSTORE PUSH1 0x20 ADD PUSH1 0x0 KECCAK256 SLOAD LT ISZERO PUSH2 0x2807 JUMPI PUSH1 0x40 MLOAD PUSH32 0x8C379A000000000000000000000000000000000000000000000000000000000 DUP2 MSTORE PUSH1 0x4 ADD PUSH2 0x27FE SWAP1 PUSH2 0x32A2 JUMP JUMPDEST PUSH1 0x40 MLOAD DUP1 SWAP2 SUB SWAP1 REVERT JUMPDEST DUP1 PUSH1 0x2 PUSH1 0x0 DUP6 PUSH20 0xFFFFFFFFFFFFFFFFFFFFFFFFFFFFFFFFFFFFFFFF AND PUSH20 0xFFFFFFFFFFFFFFFFFFFFFFFFFFFFFFFFFFFFFFFF AND DUP2 MSTORE PUSH1 0x20 ADD SWAP1 DUP2 MSTORE PUSH1 0x20 ADD PUSH1 0x0 KECCAK256 SLOAD PUSH2 0x2852 SWAP2 SWAP1 PUSH2 0x3455 JUMP JUMPDEST PUSH1 0x2 PUSH1 0x0 DUP6 PUSH20 0xFFFFFFFFFFFFFFFFFFFFFFFFFFFFFFFFFFFFFFFF AND PUSH20 0xFFFFFFFFFFFFFFFFFFFFFFFFFFFFFFFFFFFFFFFF AND DUP2 MSTORE PUSH1 0x20 ADD SWAP1 DUP2 MSTORE PUSH1 0x20 ADD PUSH1 0x0 KECCAK256 DUP2 SWAP1 SSTORE POP PUSH1 0x0 PUSH1 0x2 PUSH1 0x0 DUP6 PUSH20 0xFFFFFFFFFFFFFFFFFFFFFFFFFFFFFFFFFFFFFFFF AND PUSH20 0xFFFFFFFFFFFFFFFFFFFFFFFFFFFFFFFFFFFFFFFF AND DUP2 MSTORE PUSH1 0x20 ADD SWAP1 DUP2 MSTORE PUSH1 0x20 ADD PUSH1 0x0 KECCAK256 SLOAD EQ DUP1 ISZERO PUSH2 0x2932 JUMPI POP PUSH1 0x4 PUSH1 0x0 SWAP1 SLOAD SWAP1 PUSH2 0x100 EXP SWAP1 DIV PUSH20 0xFFFFFFFFFFFFFFFFFFFFFFFFFFFFFFFFFFFFFFFF AND PUSH20 0xFFFFFFFFFFFFFFFFFFFFFFFFFFFFFFFFFFFFFFFF AND DUP4 PUSH20 0xFFFFFFFFFFFFFFFFFFFFFFFFFFFFFFFFFFFFFFFF AND EQ ISZERO JUMPDEST ISZERO PUSH2 0x294D JUMPI PUSH1 0x1 PUSH1 0x10 SLOAD PUSH2 0x2946 SWAP2 SWAP1 PUSH2 0x3455 JUMP JUMPDEST PUSH1 0x10 DUP2 SWAP1 SSTORE POP JUMPDEST PUSH1 0x0 PUSH1 0x2 PUSH1 0x0 DUP5 PUSH20 0xFFFFFFFFFFFFFFFFFFFFFFFFFFFFFFFFFFFFFFFF AND PUSH20 0xFFFFFFFFFFFFFFFFFFFFFFFFFFFFFFFFFFFFFFFF AND DUP2 MSTORE PUSH1 0x20 ADD SWAP1 DUP2 MSTORE PUSH1 0x20 ADD PUSH1 0x0 KECCAK256 SLOAD EQ DUP1 ISZERO PUSH2 0x29EA JUMPI POP PUSH1 0x4 PUSH1 0x0 SWAP1 SLOAD SWAP1 PUSH2 0x100 EXP SWAP1 DIV PUSH20 0xFFFFFFFFFFFFFFFFFFFFFFFFFFFFFFFFFFFFFFFF AND PUSH20 0xFFFFFFFFFFFFFFFFFFFFFFFFFFFFFFFFFFFFFFFF AND DUP3 PUSH20 0xFFFFFFFFFFFFFFFFFFFFFFFFFFFFFFFFFFFFFFFF AND EQ ISZERO JUMPDEST ISZERO PUSH2 0x2A05 JUMPI PUSH1 0x1 PUSH1 0x10 SLOAD PUSH2 0x29FE SWAP2 SWAP1 PUSH2 0x33FF JUMP JUMPDEST PUSH1 0x10 DUP2 SWAP1 SSTORE POP JUMPDEST DUP1 PUSH1 0x2 PUSH1 0x0 DUP5 PUSH20 0xFFFFFFFFFFFFFFFFFFFFFFFFFFFFFFFFFFFFFFFF AND PUSH20 0xFFFFFFFFFFFFFFFFFFFFFFFFFFFFFFFFFFFFFFFF AND DUP2 MSTORE PUSH1 0x20 ADD SWAP1 DUP2 MSTORE PUSH1 0x20 ADD PUSH1 0x0 KECCAK256 SLOAD PUSH2 0x2A50 SWAP2 SWAP1 PUSH2 0x33FF JUMP JUMPDEST PUSH1 0x2 PUSH1 0x0 DUP5 PUSH20 0xFFFFFFFFFFFFFFFFFFFFFFFFFFFFFFFFFFFFFFFF AND PUSH20 0xFFFFFFFFFFFFFFFFFFFFFFFFFFFFFFFFFFFFFFFF AND DUP2 MSTORE PUSH1 0x20 ADD SWAP1 DUP2 MSTORE PUSH1 0x20 ADD PUSH1 0x0 KECCAK256 DUP2 SWAP1 SSTORE POP DUP2 PUSH20 0xFFFFFFFFFFFFFFFFFFFFFFFFFFFFFFFFFFFFFFFF AND DUP4 PUSH20 0xFFFFFFFFFFFFFFFFFFFFFFFFFFFFFFFFFFFFFFFF AND PUSH32 0xDDF252AD1BE2C89B69C2B068FC378DAA952BA7F163C4A11628F55A4DF523B3EF DUP4 PUSH1 0x40 MLOAD PUSH2 0x2AF0 SWAP2 SWAP1 PUSH2 0x3302 JUMP JUMPDEST PUSH1 0x40 MLOAD DUP1 SWAP2 SUB SWAP1 LOG3 POP POP POP JUMP JUMPDEST DUP3 DUP1 SLOAD PUSH2 0x2B09 SWAP1 PUSH2 0x3520 JUMP JUMPDEST SWAP1 PUSH1 0x0 MSTORE PUSH1 0x20 PUSH1 0x0 KECCAK256 SWAP1 PUSH1 0x1F ADD PUSH1 0x20 SWAP1 DIV DUP2 ADD SWAP3 DUP3 PUSH2 0x2B2B JUMPI PUSH1 0x0 DUP6 SSTORE PUSH2 0x2B72 JUMP JUMPDEST DUP3 PUSH1 0x1F LT PUSH2 0x2B44 JUMPI DUP1 MLOAD PUSH1 0xFF NOT AND DUP4 DUP1 ADD OR DUP6 SSTORE PUSH2 0x2B72 JUMP JUMPDEST DUP3 DUP1 ADD PUSH1 0x1 ADD DUP6 SSTORE DUP3 ISZERO PUSH2 0x2B72 JUMPI SWAP2 DUP3 ADD JUMPDEST DUP3 DUP2 GT ISZERO PUSH2 0x2B71 JUMPI DUP3 MLOAD DUP3 SSTORE SWAP2 PUSH1 0x20 ADD SWAP2 SWAP1 PUSH1 0x1 ADD SWAP1 PUSH2 0x2B56 JUMP JUMPDEST JUMPDEST POP SWAP1 POP PUSH2 0x2B7F SWAP2 SWAP1 PUSH2 0x2B83 JUMP JUMPDEST POP SWAP1 JUMP JUMPDEST JUMPDEST DUP1 DUP3 GT ISZERO PUSH2 0x2B9C JUMPI PUSH1 0x0 DUP2 PUSH1 0x0 SWAP1 SSTORE POP PUSH1 0x1 ADD PUSH2 0x2B84 JUMP JUMPDEST POP SWAP1 JUMP JUMPDEST PUSH1 0x0 PUSH2 0x2BB3 PUSH2 0x2BAE DUP5 PUSH2 0x3386 JUMP JUMPDEST PUSH2 0x3361 JUMP JUMPDEST SWAP1 POP DUP1 DUP4 DUP3 MSTORE PUSH1 0x20 DUP3 ADD SWAP1 POP DUP3 DUP6 PUSH1 0x20 DUP7 MUL DUP3 ADD GT ISZERO PUSH2 0x2BD6 JUMPI PUSH2 0x2BD5 PUSH2 0x368D JUMP JUMPDEST JUMPDEST PUSH1 0x0 JUMPDEST DUP6 DUP2 LT ISZERO PUSH2 0x2C06 JUMPI DUP2 PUSH2 0x2BEC DUP9 DUP3 PUSH2 0x2C52 JUMP JUMPDEST DUP5 MSTORE PUSH1 0x20 DUP5 ADD SWAP4 POP PUSH1 0x20 DUP4 ADD SWAP3 POP POP PUSH1 0x1 DUP2 ADD SWAP1 POP PUSH2 0x2BD9 JUMP JUMPDEST POP POP POP SWAP4 SWAP3 POP POP POP JUMP JUMPDEST PUSH1 0x0 PUSH2 0x2C23 PUSH2 0x2C1E DUP5 PUSH2 0x33B2 JUMP JUMPDEST PUSH2 0x3361 JUMP JUMPDEST SWAP1 POP DUP3 DUP2 MSTORE PUSH1 0x20 DUP2 ADD DUP5 DUP5 DUP5 ADD GT ISZERO PUSH2 0x2C3F JUMPI PUSH2 0x2C3E PUSH2 0x3692 JUMP JUMPDEST JUMPDEST PUSH2 0x2C4A DUP5 DUP3 DUP6 PUSH2 0x34DE JUMP JUMPDEST POP SWAP4 SWAP3 POP POP POP JUMP JUMPDEST PUSH1 0x0 DUP2 CALLDATALOAD SWAP1 POP PUSH2 0x2C61 DUP2 PUSH2 0x39C8 JUMP JUMPDEST SWAP3 SWAP2 POP POP JUMP JUMPDEST PUSH1 0x0 DUP3 PUSH1 0x1F DUP4 ADD SLT PUSH2 0x2C7C JUMPI PUSH2 0x2C7B PUSH2 0x3688 JUMP JUMPDEST JUMPDEST DUP2 CALLDATALOAD PUSH2 0x2C8C DUP5 DUP3 PUSH1 0x20 DUP7 ADD PUSH2 0x2BA0 JUMP JUMPDEST SWAP2 POP POP SWAP3 SWAP2 POP POP JUMP JUMPDEST PUSH1 0x0 DUP3 PUSH1 0x1F DUP4 ADD SLT PUSH2 0x2CAA JUMPI PUSH2 0x2CA9 PUSH2 0x3688 JUMP JUMPDEST JUMPDEST DUP2 CALLDATALOAD PUSH2 0x2CBA DUP5 DUP3 PUSH1 0x20 DUP7 ADD PUSH2 0x2C10 JUMP JUMPDEST SWAP2 POP POP SWAP3 SWAP2 POP POP JUMP JUMPDEST PUSH1 0x0 DUP2 CALLDATALOAD SWAP1 POP PUSH2 0x2CD2 DUP2 PUSH2 0x39DF JUMP JUMPDEST SWAP3 SWAP2 POP POP JUMP JUMPDEST PUSH1 0x0 DUP2 CALLDATALOAD SWAP1 POP PUSH2 0x2CE7 DUP2 PUSH2 0x39F6 JUMP JUMPDEST SWAP3 SWAP2 POP POP JUMP JUMPDEST PUSH1 0x0 PUSH1 0x20 DUP3 DUP5 SUB SLT ISZERO PUSH2 0x2D03 JUMPI PUSH2 0x2D02 PUSH2 0x369C JUMP JUMPDEST JUMPDEST PUSH1 0x0 PUSH2 0x2D11 DUP5 DUP3 DUP6 ADD PUSH2 0x2C52 JUMP JUMPDEST SWAP2 POP POP SWAP3 SWAP2 POP POP JUMP JUMPDEST PUSH1 0x0 DUP1 PUSH1 0x40 DUP4 DUP6 SUB SLT ISZERO PUSH2 0x2D31 JUMPI PUSH2 0x2D30 PUSH2 0x369C JUMP JUMPDEST JUMPDEST PUSH1 0x0 PUSH2 0x2D3F DUP6 DUP3 DUP7 ADD PUSH2 0x2C52 JUMP JUMPDEST SWAP3 POP POP PUSH1 0x20 PUSH2 0x2D50 DUP6 DUP3 DUP7 ADD PUSH2 0x2C52 JUMP JUMPDEST SWAP2 POP POP SWAP3 POP SWAP3 SWAP1 POP JUMP JUMPDEST PUSH1 0x0 DUP1 PUSH1 0x0 PUSH1 0x60 DUP5 DUP7 SUB SLT ISZERO PUSH2 0x2D73 JUMPI PUSH2 0x2D72 PUSH2 0x369C JUMP JUMPDEST JUMPDEST PUSH1 0x0 PUSH2 0x2D81 DUP7 DUP3 DUP8 ADD PUSH2 0x2C52 JUMP JUMPDEST SWAP4 POP POP PUSH1 0x20 PUSH2 0x2D92 DUP7 DUP3 DUP8 ADD PUSH2 0x2C52 JUMP JUMPDEST SWAP3 POP POP PUSH1 0x40 PUSH2 0x2DA3 DUP7 DUP3 DUP8 ADD PUSH2 0x2CC3 JUMP JUMPDEST SWAP2 POP POP SWAP3 POP SWAP3 POP SWAP3 JUMP JUMPDEST PUSH1 0x0 DUP1 PUSH1 0x40 DUP4 DUP6 SUB SLT ISZERO PUSH2 0x2DC4 JUMPI PUSH2 0x2DC3 PUSH2 0x369C JUMP JUMPDEST JUMPDEST PUSH1 0x0 PUSH2 0x2DD2 DUP6 DUP3 DUP7 ADD PUSH2 0x2C52 JUMP JUMPDEST SWAP3 POP POP PUSH1 0x20 PUSH2 0x2DE3 DUP6 DUP3 DUP7 ADD PUSH2 0x2CC3 JUMP JUMPDEST SWAP2 POP POP SWAP3 POP SWAP3 SWAP1 POP JUMP JUMPDEST PUSH1 0x0 DUP1 PUSH1 0x0 PUSH1 0x60 DUP5 DUP7 SUB SLT ISZERO PUSH2 0x2E06 JUMPI PUSH2 0x2E05 PUSH2 0x369C JUMP JUMPDEST JUMPDEST PUSH1 0x0 PUSH2 0x2E14 DUP7 DUP3 DUP8 ADD PUSH2 0x2C52 JUMP JUMPDEST SWAP4 POP POP PUSH1 0x20 PUSH2 0x2E25 DUP7 DUP3 DUP8 ADD PUSH2 0x2CC3 JUMP JUMPDEST SWAP3 POP POP PUSH1 0x40 PUSH2 0x2E36 DUP7 DUP3 DUP8 ADD PUSH2 0x2CC3 JUMP JUMPDEST SWAP2 POP POP SWAP3 POP SWAP3 POP SWAP3 JUMP JUMPDEST PUSH1 0x0 DUP1 PUSH1 0x0 PUSH1 0x60 DUP5 DUP7 SUB SLT ISZERO PUSH2 0x2E59 JUMPI PUSH2 0x2E58 PUSH2 0x369C JUMP JUMPDEST JUMPDEST PUSH1 0x0 DUP5 ADD CALLDATALOAD PUSH8 0xFFFFFFFFFFFFFFFF DUP2 GT ISZERO PUSH2 0x2E77 JUMPI PUSH2 0x2E76 PUSH2 0x3697 JUMP JUMPDEST JUMPDEST PUSH2 0x2E83 DUP7 DUP3 DUP8 ADD PUSH2 0x2C67 JUMP JUMPDEST SWAP4 POP POP PUSH1 0x20 PUSH2 0x2E94 DUP7 DUP3 DUP8 ADD PUSH2 0x2CC3 JUMP JUMPDEST SWAP3 POP POP PUSH1 0x40 PUSH2 0x2EA5 DUP7 DUP3 DUP8 ADD PUSH2 0x2CC3 JUMP JUMPDEST SWAP2 POP POP SWAP3 POP SWAP3 POP SWAP3 JUMP JUMPDEST PUSH1 0x0 PUSH1 0x20 DUP3 DUP5 SUB SLT ISZERO PUSH2 0x2EC5 JUMPI PUSH2 0x2EC4 PUSH2 0x369C JUMP JUMPDEST JUMPDEST PUSH1 0x0 DUP3 ADD CALLDATALOAD PUSH8 0xFFFFFFFFFFFFFFFF DUP2 GT ISZERO PUSH2 0x2EE3 JUMPI PUSH2 0x2EE2 PUSH2 0x3697 JUMP JUMPDEST JUMPDEST PUSH2 0x2EEF DUP5 DUP3 DUP6 ADD PUSH2 0x2C95 JUMP JUMPDEST SWAP2 POP POP SWAP3 SWAP2 POP POP JUMP JUMPDEST PUSH1 0x0 PUSH1 0x20 DUP3 DUP5 SUB SLT ISZERO PUSH2 0x2F0E JUMPI PUSH2 0x2F0D PUSH2 0x369C JUMP JUMPDEST JUMPDEST PUSH1 0x0 PUSH2 0x2F1C DUP5 DUP3 DUP6 ADD PUSH2 0x2CC3 JUMP JUMPDEST SWAP2 POP POP SWAP3 SWAP2 POP POP JUMP JUMPDEST PUSH1 0x0 PUSH1 0x20 DUP3 DUP5 SUB SLT ISZERO PUSH2 0x2F3B JUMPI PUSH2 0x2F3A PUSH2 0x369C JUMP JUMPDEST JUMPDEST PUSH1 0x0 PUSH2 0x2F49 DUP5 DUP3 DUP6 ADD PUSH2 0x2CD8 JUMP JUMPDEST SWAP2 POP POP SWAP3 SWAP2 POP POP JUMP JUMPDEST PUSH2 0x2F5B DUP2 PUSH2 0x3489 JUMP JUMPDEST DUP3 MSTORE POP POP JUMP JUMPDEST PUSH2 0x2F6A DUP2 PUSH2 0x349B JUMP JUMPDEST DUP3 MSTORE POP POP JUMP JUMPDEST PUSH1 0x0 PUSH2 0x2F7B DUP3 PUSH2 0x33E3 JUMP JUMPDEST PUSH2 0x2F85 DUP2 DUP6 PUSH2 0x33EE JUMP JUMPDEST SWAP4 POP PUSH2 0x2F95 DUP2 DUP6 PUSH1 0x20 DUP7 ADD PUSH2 0x34ED JUMP JUMPDEST PUSH2 0x2F9E DUP2 PUSH2 0x36A1 JUMP JUMPDEST DUP5 ADD SWAP2 POP POP SWAP3 SWAP2 POP POP JUMP JUMPDEST PUSH1 0x0 PUSH2 0x2FB6 PUSH1 0x21 DUP4 PUSH2 0x33EE JUMP JUMPDEST SWAP2 POP PUSH2 0x2FC1 DUP3 PUSH2 0x36B2 JUMP JUMPDEST PUSH1 0x40 DUP3 ADD SWAP1 POP SWAP2 SWAP1 POP JUMP JUMPDEST PUSH1 0x0 PUSH2 0x2FD9 PUSH1 0x23 DUP4 PUSH2 0x33EE JUMP JUMPDEST SWAP2 POP PUSH2 0x2FE4 DUP3 PUSH2 0x3701 JUMP JUMPDEST PUSH1 0x40 DUP3 ADD SWAP1 POP SWAP2 SWAP1 POP JUMP JUMPDEST PUSH1 0x0 PUSH2 0x2FFC PUSH1 0x17 DUP4 PUSH2 0x33EE JUMP JUMPDEST SWAP2 POP PUSH2 0x3007 DUP3 PUSH2 0x3750 JUMP JUMPDEST PUSH1 0x20 DUP3 ADD SWAP1 POP SWAP2 SWAP1 POP JUMP JUMPDEST PUSH1 0x0 PUSH2 0x301F PUSH1 0x3B DUP4 PUSH2 0x33EE JUMP JUMPDEST SWAP2 POP PUSH2 0x302A DUP3 PUSH2 0x3779 JUMP JUMPDEST PUSH1 0x40 DUP3 ADD SWAP1 POP SWAP2 SWAP1 POP JUMP JUMPDEST PUSH1 0x0 PUSH2 0x3042 PUSH1 0x2B DUP4 PUSH2 0x33EE JUMP JUMPDEST SWAP2 POP PUSH2 0x304D DUP3 PUSH2 0x37C8 JUMP JUMPDEST PUSH1 0x40 DUP3 ADD SWAP1 POP SWAP2 SWAP1 POP JUMP JUMPDEST PUSH1 0x0 PUSH2 0x3065 PUSH1 0x21 DUP4 PUSH2 0x33EE JUMP JUMPDEST SWAP2 POP PUSH2 0x3070 DUP3 PUSH2 0x3817 JUMP JUMPDEST PUSH1 0x40 DUP3 ADD SWAP1 POP SWAP2 SWAP1 POP JUMP JUMPDEST PUSH1 0x0 PUSH2 0x3088 PUSH1 0x41 DUP4 PUSH2 0x33EE JUMP JUMPDEST SWAP2 POP PUSH2 0x3093 DUP3 PUSH2 0x3866 JUMP JUMPDEST PUSH1 0x60 DUP3 ADD SWAP1 POP SWAP2 SWAP1 POP JUMP JUMPDEST PUSH1 0x0 PUSH2 0x30AB PUSH1 0x3C DUP4 PUSH2 0x33EE JUMP JUMPDEST SWAP2 POP PUSH2 0x30B6 DUP3 PUSH2 0x38DB JUMP JUMPDEST PUSH1 0x40 DUP3 ADD SWAP1 POP SWAP2 SWAP1 POP JUMP JUMPDEST PUSH1 0x0 PUSH2 0x30CE PUSH1 0x38 DUP4 PUSH2 0x33EE JUMP JUMPDEST SWAP2 POP PUSH2 0x30D9 DUP3 PUSH2 0x392A JUMP JUMPDEST PUSH1 0x40 DUP3 ADD SWAP1 POP SWAP2 SWAP1 POP JUMP JUMPDEST PUSH1 0x0 PUSH2 0x30F1 PUSH1 0x28 DUP4 PUSH2 0x33EE JUMP JUMPDEST SWAP2 POP PUSH2 0x30FC DUP3 PUSH2 0x3979 JUMP JUMPDEST PUSH1 0x40 DUP3 ADD SWAP1 POP SWAP2 SWAP1 POP JUMP JUMPDEST PUSH2 0x3110 DUP2 PUSH2 0x34C7 JUMP JUMPDEST DUP3 MSTORE POP POP JUMP JUMPDEST PUSH2 0x311F DUP2 PUSH2 0x34D1 JUMP JUMPDEST DUP3 MSTORE POP POP JUMP JUMPDEST PUSH1 0x0 PUSH1 0x20 DUP3 ADD SWAP1 POP PUSH2 0x313A PUSH1 0x0 DUP4 ADD DUP5 PUSH2 0x2F52 JUMP JUMPDEST SWAP3 SWAP2 POP POP JUMP JUMPDEST PUSH1 0x0 PUSH1 0x80 DUP3 ADD SWAP1 POP PUSH2 0x3155 PUSH1 0x0 DUP4 ADD DUP8 PUSH2 0x2F52 JUMP JUMPDEST PUSH2 0x3162 PUSH1 0x20 DUP4 ADD DUP7 PUSH2 0x2F52 JUMP JUMPDEST PUSH2 0x316F PUSH1 0x40 DUP4 ADD DUP6 PUSH2 0x2F52 JUMP JUMPDEST PUSH2 0x317C PUSH1 0x60 DUP4 ADD DUP5 PUSH2 0x3107 JUMP JUMPDEST SWAP6 SWAP5 POP POP POP POP POP JUMP JUMPDEST PUSH1 0x0 PUSH1 0x20 DUP3 ADD SWAP1 POP PUSH2 0x319A PUSH1 0x0 DUP4 ADD DUP5 PUSH2 0x2F61 JUMP JUMPDEST SWAP3 SWAP2 POP POP JUMP JUMPDEST PUSH1 0x0 PUSH1 0x20 DUP3 ADD SWAP1 POP DUP2 DUP2 SUB PUSH1 0x0 DUP4 ADD MSTORE PUSH2 0x31BA DUP2 DUP5 PUSH2 0x2F70 JUMP JUMPDEST SWAP1 POP SWAP3 SWAP2 POP POP JUMP JUMPDEST PUSH1 0x0 PUSH1 0x20 DUP3 ADD SWAP1 POP DUP2 DUP2 SUB PUSH1 0x0 DUP4 ADD MSTORE PUSH2 0x31DB DUP2 PUSH2 0x2FA9 JUMP JUMPDEST SWAP1 POP SWAP2 SWAP1 POP JUMP JUMPDEST PUSH1 0x0 PUSH1 0x20 DUP3 ADD SWAP1 POP DUP2 DUP2 SUB PUSH1 0x0 DUP4 ADD MSTORE PUSH2 0x31FB DUP2 PUSH2 0x2FCC JUMP JUMPDEST SWAP1 POP SWAP2 SWAP1 POP JUMP JUMPDEST PUSH1 0x0 PUSH1 0x20 DUP3 ADD SWAP1 POP DUP2 DUP2 SUB PUSH1 0x0 DUP4 ADD MSTORE PUSH2 0x321B DUP2 PUSH2 0x2FEF JUMP JUMPDEST SWAP1 POP SWAP2 SWAP1 POP JUMP JUMPDEST PUSH1 0x0 PUSH1 0x20 DUP3 ADD SWAP1 POP DUP2 DUP2 SUB PUSH1 0x0 DUP4 ADD MSTORE PUSH2 0x323B DUP2 PUSH2 0x3012 JUMP JUMPDEST SWAP1 POP SWAP2 SWAP1 POP JUMP JUMPDEST PUSH1 0x0 PUSH1 0x20 DUP3 ADD SWAP1 POP DUP2 DUP2 SUB PUSH1 0x0 DUP4 ADD MSTORE PUSH2 0x325B DUP2 PUSH2 0x3035 JUMP JUMPDEST SWAP1 POP SWAP2 SWAP1 POP JUMP JUMPDEST PUSH1 0x0 PUSH1 0x20 DUP3 ADD SWAP1 POP DUP2 DUP2 SUB PUSH1 0x0 DUP4 ADD MSTORE PUSH2 0x327B DUP2 PUSH2 0x3058 JUMP JUMPDEST SWAP1 POP SWAP2 SWAP1 POP JUMP JUMPDEST PUSH1 0x0 PUSH1 0x20 DUP3 ADD SWAP1 POP DUP2 DUP2 SUB PUSH1 0x0 DUP4 ADD MSTORE PUSH2 0x329B DUP2 PUSH2 0x307B JUMP JUMPDEST SWAP1 POP SWAP2 SWAP1 POP JUMP JUMPDEST PUSH1 0x0 PUSH1 0x20 DUP3 ADD SWAP1 POP DUP2 DUP2 SUB PUSH1 0x0 DUP4 ADD MSTORE PUSH2 0x32BB DUP2 PUSH2 0x309E JUMP JUMPDEST SWAP1 POP SWAP2 SWAP1 POP JUMP JUMPDEST PUSH1 0x0 PUSH1 0x20 DUP3 ADD SWAP1 POP DUP2 DUP2 SUB PUSH1 0x0 DUP4 ADD MSTORE PUSH2 0x32DB DUP2 PUSH2 0x30C1 JUMP JUMPDEST SWAP1 POP SWAP2 SWAP1 POP JUMP JUMPDEST PUSH1 0x0 PUSH1 0x20 DUP3 ADD SWAP1 POP DUP2 DUP2 SUB PUSH1 0x0 DUP4 ADD MSTORE PUSH2 0x32FB DUP2 PUSH2 0x30E4 JUMP JUMPDEST SWAP1 POP SWAP2 SWAP1 POP JUMP JUMPDEST PUSH1 0x0 PUSH1 0x20 DUP3 ADD SWAP1 POP PUSH2 0x3317 PUSH1 0x0 DUP4 ADD DUP5 PUSH2 0x3107 JUMP JUMPDEST SWAP3 SWAP2 POP POP JUMP JUMPDEST PUSH1 0x0 PUSH1 0x40 DUP3 ADD SWAP1 POP PUSH2 0x3332 PUSH1 0x0 DUP4 ADD DUP6 PUSH2 0x3107 JUMP JUMPDEST PUSH2 0x333F PUSH1 0x20 DUP4 ADD DUP5 PUSH2 0x3107 JUMP JUMPDEST SWAP4 SWAP3 POP POP POP JUMP JUMPDEST PUSH1 0x0 PUSH1 0x20 DUP3 ADD SWAP1 POP PUSH2 0x335B PUSH1 0x0 DUP4 ADD DUP5 PUSH2 0x3116 JUMP JUMPDEST SWAP3 SWAP2 POP POP JUMP JUMPDEST PUSH1 0x0 PUSH2 0x336B PUSH2 0x337C JUMP JUMPDEST SWAP1 POP PUSH2 0x3377 DUP3 DUP3 PUSH2 0x3552 JUMP JUMPDEST SWAP2 SWAP1 POP JUMP JUMPDEST PUSH1 0x0 PUSH1 0x40 MLOAD SWAP1 POP SWAP1 JUMP JUMPDEST PUSH1 0x0 PUSH8 0xFFFFFFFFFFFFFFFF DUP3 GT ISZERO PUSH2 0x33A1 JUMPI PUSH2 0x33A0 PUSH2 0x3659 JUMP JUMPDEST JUMPDEST PUSH1 0x20 DUP3 MUL SWAP1 POP PUSH1 0x20 DUP2 ADD SWAP1 POP SWAP2 SWAP1 POP JUMP JUMPDEST PUSH1 0x0 PUSH8 0xFFFFFFFFFFFFFFFF DUP3 GT ISZERO PUSH2 0x33CD JUMPI PUSH2 0x33CC PUSH2 0x3659 JUMP JUMPDEST JUMPDEST PUSH2 0x33D6 DUP3 PUSH2 0x36A1 JUMP JUMPDEST SWAP1 POP PUSH1 0x20 DUP2 ADD SWAP1 POP SWAP2 SWAP1 POP JUMP JUMPDEST PUSH1 0x0 DUP2 MLOAD SWAP1 POP SWAP2 SWAP1 POP JUMP JUMPDEST PUSH1 0x0 DUP3 DUP3 MSTORE PUSH1 0x20 DUP3 ADD SWAP1 POP SWAP3 SWAP2 POP POP JUMP JUMPDEST PUSH1 0x0 PUSH2 0x340A DUP3 PUSH2 0x34C7 JUMP JUMPDEST SWAP2 POP PUSH2 0x3415 DUP4 PUSH2 0x34C7 JUMP JUMPDEST SWAP3 POP DUP3 PUSH32 0xFFFFFFFFFFFFFFFFFFFFFFFFFFFFFFFFFFFFFFFFFFFFFFFFFFFFFFFFFFFFFFFF SUB DUP3 GT ISZERO PUSH2 0x344A JUMPI PUSH2 0x3449 PUSH2 0x35CC JUMP JUMPDEST JUMPDEST DUP3 DUP3 ADD SWAP1 POP SWAP3 SWAP2 POP POP JUMP JUMPDEST PUSH1 0x0 PUSH2 0x3460 DUP3 PUSH2 0x34C7 JUMP JUMPDEST SWAP2 POP PUSH2 0x346B DUP4 PUSH2 0x34C7 JUMP JUMPDEST SWAP3 POP DUP3 DUP3 LT ISZERO PUSH2 0x347E JUMPI PUSH2 0x347D PUSH2 0x35CC JUMP JUMPDEST JUMPDEST DUP3 DUP3 SUB SWAP1 POP SWAP3 SWAP2 POP POP JUMP JUMPDEST PUSH1 0x0 PUSH2 0x3494 DUP3 PUSH2 0x34A7 JUMP JUMPDEST SWAP1 POP SWAP2 SWAP1 POP JUMP JUMPDEST PUSH1 0x0 DUP2 ISZERO ISZERO SWAP1 POP SWAP2 SWAP1 POP JUMP JUMPDEST PUSH1 0x0 PUSH20 0xFFFFFFFFFFFFFFFFFFFFFFFFFFFFFFFFFFFFFFFF DUP3 AND SWAP1 POP SWAP2 SWAP1 POP JUMP JUMPDEST PUSH1 0x0 DUP2 SWAP1 POP SWAP2 SWAP1 POP JUMP JUMPDEST PUSH1 0x0 PUSH1 0xFF DUP3 AND SWAP1 POP SWAP2 SWAP1 POP JUMP JUMPDEST DUP3 DUP2 DUP4 CALLDATACOPY PUSH1 0x0 DUP4 DUP4 ADD MSTORE POP POP POP JUMP JUMPDEST PUSH1 0x0 JUMPDEST DUP4 DUP2 LT ISZERO PUSH2 0x350B JUMPI DUP1 DUP3 ADD MLOAD DUP2 DUP5 ADD MSTORE PUSH1 0x20 DUP2 ADD SWAP1 POP PUSH2 0x34F0 JUMP JUMPDEST DUP4 DUP2 GT ISZERO PUSH2 0x351A JUMPI PUSH1 0x0 DUP5 DUP5 ADD MSTORE JUMPDEST POP POP POP POP JUMP JUMPDEST PUSH1 0x0 PUSH1 0x2 DUP3 DIV SWAP1 POP PUSH1 0x1 DUP3 AND DUP1 PUSH2 0x3538 JUMPI PUSH1 0x7F DUP3 AND SWAP2 POP JUMPDEST PUSH1 0x20 DUP3 LT DUP2 EQ ISZERO PUSH2 0x354C JUMPI PUSH2 0x354B PUSH2 0x35FB JUMP JUMPDEST JUMPDEST POP SWAP2 SWAP1 POP JUMP JUMPDEST PUSH2 0x355B DUP3 PUSH2 0x36A1 JUMP JUMPDEST DUP2 ADD DUP2 DUP2 LT PUSH8 0xFFFFFFFFFFFFFFFF DUP3 GT OR ISZERO PUSH2 0x357A JUMPI PUSH2 0x3579 PUSH2 0x3659 JUMP JUMPDEST JUMPDEST DUP1 PUSH1 0x40 MSTORE POP POP POP JUMP JUMPDEST PUSH1 0x0 PUSH2 0x358E DUP3 PUSH2 0x34C7 JUMP JUMPDEST SWAP2 POP PUSH32 0xFFFFFFFFFFFFFFFFFFFFFFFFFFFFFFFFFFFFFFFFFFFFFFFFFFFFFFFFFFFFFFFF DUP3 EQ ISZERO PUSH2 0x35C1 JUMPI PUSH2 0x35C0 PUSH2 0x35CC JUMP JUMPDEST JUMPDEST PUSH1 0x1 DUP3 ADD SWAP1 POP SWAP2 SWAP1 POP JUMP JUMPDEST PUSH32 0x4E487B7100000000000000000000000000000000000000000000000000000000 PUSH1 0x0 MSTORE PUSH1 0x11 PUSH1 0x4 MSTORE PUSH1 0x24 PUSH1 0x0 REVERT JUMPDEST PUSH32 0x4E487B7100000000000000000000000000000000000000000000000000000000 PUSH1 0x0 MSTORE PUSH1 0x22 PUSH1 0x4 MSTORE PUSH1 0x24 PUSH1 0x0 REVERT JUMPDEST PUSH32 0x4E487B7100000000000000000000000000000000000000000000000000000000 PUSH1 0x0 MSTORE PUSH1 0x32 PUSH1 0x4 MSTORE PUSH1 0x24 PUSH1 0x0 REVERT JUMPDEST PUSH32 0x4E487B7100000000000000000000000000000000000000000000000000000000 PUSH1 0x0 MSTORE PUSH1 0x41 PUSH1 0x4 MSTORE PUSH1 0x24 PUSH1 0x0 REVERT JUMPDEST PUSH1 0x0 DUP1 REVERT JUMPDEST PUSH1 0x0 DUP1 REVERT JUMPDEST PUSH1 0x0 DUP1 REVERT JUMPDEST PUSH1 0x0 DUP1 REVERT JUMPDEST PUSH1 0x0 DUP1 REVERT JUMPDEST PUSH1 0x0 PUSH1 0x1F NOT PUSH1 0x1F DUP4 ADD AND SWAP1 POP SWAP2 SWAP1 POP JUMP JUMPDEST PUSH32 0x4F6E6C79206F776E6572206861732061636365737320746F2066756E6374696F PUSH1 0x0 DUP3 ADD MSTORE PUSH32 0x6E00000000000000000000000000000000000000000000000000000000000000 PUSH1 0x20 DUP3 ADD MSTORE POP JUMP JUMPDEST PUSH32 0x5A65726F2061646472657373206173207370656E646572206E6F7420616C6C6F PUSH1 0x0 DUP3 ADD MSTORE PUSH32 0x7765640000000000000000000000000000000000000000000000000000000000 PUSH1 0x20 DUP3 ADD MSTORE POP JUMP JUMPDEST PUSH32 0x5A65726F20416D6F756E74206E6F7420616C6C6F776564000000000000000000 PUSH1 0x0 DUP3 ADD MSTORE POP JUMP JUMPDEST PUSH32 0x416C6C6F77656420496E766573746F72732063616E6E6F74206265206C657373 PUSH1 0x0 DUP3 ADD MSTORE PUSH32 0x207468616E2063757272656E7420746F6B656E20686F6C646572730000000000 PUSH1 0x20 DUP3 ADD MSTORE POP JUMP JUMPDEST PUSH32 0x4275726E20616D6F756E742069732067726561746572207468616E2061646472 PUSH1 0x0 DUP3 ADD MSTORE PUSH32 0x6573732062616C616E6365000000000000000000000000000000000000000000 PUSH1 0x20 DUP3 ADD MSTORE POP JUMP JUMPDEST PUSH32 0x5A65726F2061646472657373206E6F7420616C6C6F776564206173206F776E65 PUSH1 0x0 DUP3 ADD MSTORE PUSH32 0x7200000000000000000000000000000000000000000000000000000000000000 PUSH1 0x20 DUP3 ADD MSTORE POP JUMP JUMPDEST PUSH32 0x4F6E6C7920617574686F72697A6564206164647265737365732063616E206368 PUSH1 0x0 DUP3 ADD MSTORE PUSH32 0x616E6765204B594320696E666F726D6174696F6E206F6620696E766573746F72 PUSH1 0x20 DUP3 ADD MSTORE PUSH32 0x7300000000000000000000000000000000000000000000000000000000000000 PUSH1 0x40 DUP3 ADD MSTORE POP JUMP JUMPDEST PUSH32 0x53656E64657220697320747279696E6720746F207472616E7366657220616D6F PUSH1 0x0 DUP3 ADD MSTORE PUSH32 0x756E742067726561746572207468616E206869732062616C616E636500000000 PUSH1 0x20 DUP3 ADD MSTORE POP JUMP JUMPDEST PUSH32 0x53656E6465722063616E6E6F74207472616E7366657220616D6F756E74206772 PUSH1 0x0 DUP3 ADD MSTORE PUSH32 0x6561746572207468616E2068697320416C6C6F77616E63650000000000000000 PUSH1 0x20 DUP3 ADD MSTORE POP JUMP JUMPDEST PUSH32 0x546F6B656E732063616E6E6F74206265206D696E74656420666F722061646472 PUSH1 0x0 DUP3 ADD MSTORE PUSH32 0x657373207A65726F000000000000000000000000000000000000000000000000 PUSH1 0x20 DUP3 ADD MSTORE POP JUMP JUMPDEST PUSH2 0x39D1 DUP2 PUSH2 0x3489 JUMP JUMPDEST DUP2 EQ PUSH2 0x39DC JUMPI PUSH1 0x0 DUP1 REVERT JUMPDEST POP JUMP JUMPDEST PUSH2 0x39E8 DUP2 PUSH2 0x34C7 JUMP JUMPDEST DUP2 EQ PUSH2 0x39F3 JUMPI PUSH1 0x0 DUP1 REVERT JUMPDEST POP JUMP JUMPDEST PUSH2 0x39FF DUP2 PUSH2 0x34D1 JUMP JUMPDEST DUP2 EQ PUSH2 0x3A0A JUMPI PUSH1 0x0 DUP1 REVERT JUMPDEST POP JUMP INVALID LOG2 PUSH5 0x6970667358 0x22 SLT KECCAK256 0x4E PUSH12 0x769D30EDAEA41997596CB8DB ADD JUMPI 0xDC SWAP7 0x1E 0xD4 OR 0xCA PUSH2 0xBA61 GT DELEGATECALL SHR SLT MSTORE CALLCODE 0xE2 PUSH5 0x736F6C6343 STOP ADDMOD SMOD STOP CALLER MSTORE PUSH6 0x636569766572 KECCAK256 PUSH10 0x73206E6F742077686974 PUSH6 0x6C6973746564 KECCAK256 PUSH16 0x7220626C6F636B65644D617820616C6C PUSH16 0x77656420696E766573746F7220726573 PUSH21 0x72696374696F6E20697320696E20706C6163652C20 PUSH21 0x686973207472616E736665722077696C6C20657863 PUSH6 0x656420746869 PUSH20 0x206C696D69746174696F6E53656E646572206973 KECCAK256 PUSH24 0x686974656C697374656420627574206973206E6F7420656C PUSH10 0x6769626C6520746F2073 PUSH6 0x6E6420746F6B PUSH6 0x6E7320616E64 KECCAK256 PUSH22 0x6E64657220686F6C64696E6720706572696F6420284B MSIZE NUMBER KECCAK256 PUSH21 0x696D65207265737472696374696F6E29416C6C2074 PUSH19 0x616E7366657273206172652064697361626C65 PUSH5 0x2062656361 PUSH22 0x736520486F6C64696E6720506572696F64206973206E PUSH16 0x74207965742065787069726564526563 PUSH6 0x697665722069 PUSH20 0x2077686974656C69737465642062757420697320 PUSH15 0x6F742079657420656C696769626C65 KECCAK256 PUSH21 0x6F207265636569766520746F6B656E7320696E2068 PUSH10 0x732077616C6C65742028 0x4B MSIZE NUMBER KECCAK256 PUSH21 0x696D65207265737472696374696F6E2953656E6465 PUSH19 0x206973206E6F742077686974656C6973746564 KECCAK256 PUSH16 0x7220626C6F636B656400000000000000 "
				},
				"gasEstimates": {
					"creation": {
						"codeDepositCost": "2983000",
						"executionCost": "infinite",
						"totalCost": "infinite"
					},
					"external": {
						"CompanyHomepage()": "infinite",
						"CompanyLegalDocs()": "infinite",
						"IssuancePlatform()": "infinite",
						"ShareCertificate()": "infinite",
						"allowance(address,address)": "infinite",
						"allowedInvestors()": "2518",
						"approve(address,uint256)": "infinite",
						"balanceOf(address)": "2974",
						"bulkWhitelistWallets(address[],uint256,uint256)": "infinite",
						"burn(address,uint256)": "infinite",
						"currentTotalInvestors()": "2475",
						"decimals()": "2519",
						"detectTransferRestriction(address,address,uint256)": "infinite",
						"forceTransferToken(address,uint256)": "infinite",
						"getKYCData(address)": "infinite",
						"getWhitelistAuthorityStatus(address)": "2993",
						"issuanceProtocol()": "infinite",
						"messageForTransferRestriction(uint8)": "infinite",
						"mint(address,uint256)": "infinite",
						"modifyKYCData(address,uint256,uint256)": "infinite",
						"name()": "infinite",
						"owner()": "2634",
						"removeWhitelistAuthorityStatus(address)": "infinite",
						"resetAllowedInvestors(uint256)": "infinite",
						"resetCompanyHomepage(string)": "infinite",
						"resetCompanyLegalDocs(string)": "infinite",
						"resetShareCertificate(string)": "infinite",
						"setTradingHoldingPeriod(uint256)": "infinite",
						"setWhitelistAuthorityStatus(address)": "infinite",
						"symbol()": "infinite",
						"totalSupply()": "2550",
						"tradingHoldingPeriod()": "2496",
						"transfer(address,uint256)": "infinite",
						"transferFrom(address,address,uint256)": "infinite",
						"transferOwnership(address)": "27062",
						"version()": "infinite"
					},
					"internal": {
						"setupKYCDataForUser(address,uint256,uint256)": "infinite",
						"transferSharesBetweenInvestors(address,address,uint256)": "infinite"
					}
				},
				"methodIdentifiers": {
					"CompanyHomepage()": "84f9007f",
					"CompanyLegalDocs()": "b1b5932a",
					"IssuancePlatform()": "654b6f15",
					"ShareCertificate()": "59a72ddc",
					"allowance(address,address)": "dd62ed3e",
					"allowedInvestors()": "6401ca76",
					"approve(address,uint256)": "095ea7b3",
					"balanceOf(address)": "70a08231",
					"bulkWhitelistWallets(address[],uint256,uint256)": "09fc3892",
					"burn(address,uint256)": "9dc29fac",
					"currentTotalInvestors()": "45968836",
					"decimals()": "313ce567",
					"detectTransferRestriction(address,address,uint256)": "d4ce1415",
					"forceTransferToken(address,uint256)": "3a24ddc5",
					"getKYCData(address)": "ab47a2f9",
					"getWhitelistAuthorityStatus(address)": "e8379421",
					"issuanceProtocol()": "7cae04f7",
					"messageForTransferRestriction(uint8)": "7f4ab1dd",
					"mint(address,uint256)": "40c10f19",
					"modifyKYCData(address,uint256,uint256)": "2b8e797a",
					"name()": "06fdde03",
					"owner()": "8da5cb5b",
					"removeWhitelistAuthorityStatus(address)": "da76e2f3",
					"resetAllowedInvestors(uint256)": "62a3d4bd",
					"resetCompanyHomepage(string)": "abc30a4b",
					"resetCompanyLegalDocs(string)": "51aebcd4",
					"resetShareCertificate(string)": "ac893db1",
					"setTradingHoldingPeriod(uint256)": "b5b7e6ee",
					"setWhitelistAuthorityStatus(address)": "c319e41c",
					"symbol()": "95d89b41",
					"totalSupply()": "18160ddd",
					"tradingHoldingPeriod()": "639c86ce",
					"transfer(address,uint256)": "a9059cbb",
					"transferFrom(address,address,uint256)": "23b872dd",
					"transferOwnership(address)": "f2fde38b",
					"version()": "54fd4d50"
				}
			},
			"storageLayout": {
				"storage": [
					{
						"astId": 11,
						"contract": "Shahzad/projects/git/ERC1404/contracts/ERC1404TokenMinKYCv12.sol:ERC1404TokenMinKYCv12",
						"label": "_buyRestriction",
						"offset": 0,
						"slot": "0",
						"type": "t_mapping(t_address,t_uint256)"
					},
					{
						"astId": 15,
						"contract": "Shahzad/projects/git/ERC1404/contracts/ERC1404TokenMinKYCv12.sol:ERC1404TokenMinKYCv12",
						"label": "_sellRestriction",
						"offset": 0,
						"slot": "1",
						"type": "t_mapping(t_address,t_uint256)"
					},
					{
						"astId": 19,
						"contract": "Shahzad/projects/git/ERC1404/contracts/ERC1404TokenMinKYCv12.sol:ERC1404TokenMinKYCv12",
						"label": "_balances",
						"offset": 0,
						"slot": "2",
						"type": "t_mapping(t_address,t_uint256)"
					},
					{
						"astId": 25,
						"contract": "Shahzad/projects/git/ERC1404/contracts/ERC1404TokenMinKYCv12.sol:ERC1404TokenMinKYCv12",
						"label": "_allowances",
						"offset": 0,
						"slot": "3",
						"type": "t_mapping(t_address,t_mapping(t_address,t_uint256))"
					},
					{
						"astId": 27,
						"contract": "Shahzad/projects/git/ERC1404/contracts/ERC1404TokenMinKYCv12.sol:ERC1404TokenMinKYCv12",
						"label": "_owner",
						"offset": 0,
						"slot": "4",
						"type": "t_address"
					},
					{
						"astId": 31,
						"contract": "Shahzad/projects/git/ERC1404/contracts/ERC1404TokenMinKYCv12.sol:ERC1404TokenMinKYCv12",
						"label": "_whitelistControlAuthority",
						"offset": 0,
						"slot": "5",
						"type": "t_mapping(t_address,t_bool)"
					},
					{
						"astId": 108,
						"contract": "Shahzad/projects/git/ERC1404/contracts/ERC1404TokenMinKYCv12.sol:ERC1404TokenMinKYCv12",
						"label": "decimals",
						"offset": 0,
						"slot": "6",
						"type": "t_uint256"
					},
					{
						"astId": 111,
						"contract": "Shahzad/projects/git/ERC1404/contracts/ERC1404TokenMinKYCv12.sol:ERC1404TokenMinKYCv12",
						"label": "version",
						"offset": 0,
						"slot": "7",
						"type": "t_string_storage"
					},
					{
						"astId": 114,
						"contract": "Shahzad/projects/git/ERC1404/contracts/ERC1404TokenMinKYCv12.sol:ERC1404TokenMinKYCv12",
						"label": "IssuancePlatform",
						"offset": 0,
						"slot": "8",
						"type": "t_string_storage"
					},
					{
						"astId": 117,
						"contract": "Shahzad/projects/git/ERC1404/contracts/ERC1404TokenMinKYCv12.sol:ERC1404TokenMinKYCv12",
						"label": "issuanceProtocol",
						"offset": 0,
						"slot": "9",
						"type": "t_string_storage"
					},
					{
						"astId": 119,
						"contract": "Shahzad/projects/git/ERC1404/contracts/ERC1404TokenMinKYCv12.sol:ERC1404TokenMinKYCv12",
						"label": "_totalSupply",
						"offset": 0,
						"slot": "10",
						"type": "t_uint256"
					},
					{
						"astId": 121,
						"contract": "Shahzad/projects/git/ERC1404/contracts/ERC1404TokenMinKYCv12.sol:ERC1404TokenMinKYCv12",
						"label": "name",
						"offset": 0,
						"slot": "11",
						"type": "t_string_storage"
					},
					{
						"astId": 123,
						"contract": "Shahzad/projects/git/ERC1404/contracts/ERC1404TokenMinKYCv12.sol:ERC1404TokenMinKYCv12",
						"label": "symbol",
						"offset": 0,
						"slot": "12",
						"type": "t_string_storage"
					},
					{
						"astId": 125,
						"contract": "Shahzad/projects/git/ERC1404/contracts/ERC1404TokenMinKYCv12.sol:ERC1404TokenMinKYCv12",
						"label": "ShareCertificate",
						"offset": 0,
						"slot": "13",
						"type": "t_string_storage"
					},
					{
						"astId": 127,
						"contract": "Shahzad/projects/git/ERC1404/contracts/ERC1404TokenMinKYCv12.sol:ERC1404TokenMinKYCv12",
						"label": "CompanyHomepage",
						"offset": 0,
						"slot": "14",
						"type": "t_string_storage"
					},
					{
						"astId": 129,
						"contract": "Shahzad/projects/git/ERC1404/contracts/ERC1404TokenMinKYCv12.sol:ERC1404TokenMinKYCv12",
						"label": "CompanyLegalDocs",
						"offset": 0,
						"slot": "15",
						"type": "t_string_storage"
					},
					{
						"astId": 132,
						"contract": "Shahzad/projects/git/ERC1404/contracts/ERC1404TokenMinKYCv12.sol:ERC1404TokenMinKYCv12",
						"label": "currentTotalInvestors",
						"offset": 0,
						"slot": "16",
						"type": "t_uint256"
					},
					{
						"astId": 135,
						"contract": "Shahzad/projects/git/ERC1404/contracts/ERC1404TokenMinKYCv12.sol:ERC1404TokenMinKYCv12",
						"label": "allowedInvestors",
						"offset": 0,
						"slot": "17",
						"type": "t_uint256"
					},
					{
						"astId": 138,
						"contract": "Shahzad/projects/git/ERC1404/contracts/ERC1404TokenMinKYCv12.sol:ERC1404TokenMinKYCv12",
						"label": "tradingHoldingPeriod",
						"offset": 0,
						"slot": "18",
						"type": "t_uint256"
					},
					{
						"astId": 174,
						"contract": "Shahzad/projects/git/ERC1404/contracts/ERC1404TokenMinKYCv12.sol:ERC1404TokenMinKYCv12",
						"label": "_messageForTransferRestriction",
						"offset": 0,
						"slot": "19",
						"type": "t_array(t_string_storage)dyn_storage"
					}
				],
				"types": {
					"t_address": {
						"encoding": "inplace",
						"label": "address",
						"numberOfBytes": "20"
					},
					"t_array(t_string_storage)dyn_storage": {
						"base": "t_string_storage",
						"encoding": "dynamic_array",
						"label": "string[]",
						"numberOfBytes": "32"
					},
					"t_bool": {
						"encoding": "inplace",
						"label": "bool",
						"numberOfBytes": "1"
					},
					"t_mapping(t_address,t_bool)": {
						"encoding": "mapping",
						"key": "t_address",
						"label": "mapping(address => bool)",
						"numberOfBytes": "32",
						"value": "t_bool"
					},
					"t_mapping(t_address,t_mapping(t_address,t_uint256))": {
						"encoding": "mapping",
						"key": "t_address",
						"label": "mapping(address => mapping(address => uint256))",
						"numberOfBytes": "32",
						"value": "t_mapping(t_address,t_uint256)"
					},
					"t_mapping(t_address,t_uint256)": {
						"encoding": "mapping",
						"key": "t_address",
						"label": "mapping(address => uint256)",
						"numberOfBytes": "32",
						"value": "t_uint256"
					},
					"t_string_storage": {
						"encoding": "bytes",
						"label": "string",
						"numberOfBytes": "32"
					},
					"t_uint256": {
						"encoding": "inplace",
						"label": "uint256",
						"numberOfBytes": "32"
					}
				}
			},
			"userdoc": {
				"kind": "user",
				"methods": {
					"messageForTransferRestriction(uint8)": {
						"notice": "Returns a human-readable message for a given restriction code"
					}
				},
				"version": 1
			}
		}
	}
}