{
	"contracts/ERC1404TokenMinKYCv12.sol": {
		"ERC1404TokenMinKYCv12": {
			"abi": [
				{
					"inputs": [
						{
							"internalType": "uint256",
							"name": "_initialSupply",
							"type": "uint256"
						},
						{
							"internalType": "string",
							"name": "_name",
							"type": "string"
						},
						{
							"internalType": "string",
							"name": "_symbol",
							"type": "string"
						},
						{
							"internalType": "uint256",
							"name": "_allowedInvestors",
							"type": "uint256"
						},
						{
							"internalType": "uint256",
							"name": "_decimals",
							"type": "uint256"
						},
						{
							"internalType": "string",
							"name": "_ShareCertificate",
							"type": "string"
						},
						{
							"internalType": "string",
							"name": "_CompanyHomepage",
							"type": "string"
						},
						{
							"internalType": "string",
							"name": "_CompanyLegalDocs",
							"type": "string"
						},
						{
							"internalType": "address",
							"name": "_atomicSwapContractAddress",
							"type": "address"
						}
					],
					"stateMutability": "nonpayable",
					"type": "constructor"
				},
				{
					"anonymous": false,
					"inputs": [
						{
							"indexed": false,
							"internalType": "uint256",
							"name": "_allowedInvestors",
							"type": "uint256"
						}
					],
					"name": "AllowedInvestorsReset",
					"type": "event"
				},
				{
					"anonymous": false,
					"inputs": [
						{
							"indexed": true,
							"internalType": "address",
							"name": "owner",
							"type": "address"
						},
						{
							"indexed": true,
							"internalType": "address",
							"name": "spender",
							"type": "address"
						},
						{
							"indexed": false,
							"internalType": "uint256",
							"name": "value",
							"type": "uint256"
						}
					],
					"name": "Approval",
					"type": "event"
				},
				{
					"anonymous": false,
					"inputs": [
						{
							"indexed": true,
							"internalType": "address",
							"name": "account",
							"type": "address"
						},
						{
							"indexed": false,
							"internalType": "uint256",
							"name": "amount",
							"type": "uint256"
						}
					],
					"name": "BurnTokens",
					"type": "event"
				},
				{
					"anonymous": false,
					"inputs": [
						{
							"indexed": false,
							"internalType": "string",
							"name": "_CompanyHomepage",
							"type": "string"
						}
					],
					"name": "CompanyHomepageReset",
					"type": "event"
				},
				{
					"anonymous": false,
					"inputs": [
						{
							"indexed": false,
							"internalType": "string",
							"name": "_CompanyLegalDocs",
							"type": "string"
						}
					],
					"name": "CompanyLegalDocsReset",
					"type": "event"
				},
				{
					"anonymous": false,
					"inputs": [
						{
							"indexed": false,
							"internalType": "uint256",
							"name": "_tradingHoldingPeriod",
							"type": "uint256"
						}
					],
					"name": "HoldingPeriodReset",
					"type": "event"
				},
				{
					"anonymous": false,
					"inputs": [
						{
							"indexed": true,
							"internalType": "address",
							"name": "account",
							"type": "address"
						},
						{
							"indexed": false,
							"internalType": "uint256",
							"name": "buyRestriction",
							"type": "uint256"
						},
						{
							"indexed": false,
							"internalType": "uint256",
							"name": "sellRestriction",
							"type": "uint256"
						}
					],
					"name": "KYCDataForUserModified",
					"type": "event"
				},
				{
					"anonymous": false,
					"inputs": [
						{
							"indexed": true,
							"internalType": "address",
							"name": "account",
							"type": "address"
						},
						{
							"indexed": false,
							"internalType": "uint256",
							"name": "buyRestriction",
							"type": "uint256"
						},
						{
							"indexed": false,
							"internalType": "uint256",
							"name": "sellRestriction",
							"type": "uint256"
						}
					],
					"name": "KYCDataForUserSet",
					"type": "event"
				},
				{
					"anonymous": false,
					"inputs": [
						{
							"indexed": true,
							"internalType": "address",
							"name": "account",
							"type": "address"
						},
						{
							"indexed": false,
							"internalType": "uint256",
							"name": "amount",
							"type": "uint256"
						}
					],
					"name": "MintTokens",
					"type": "event"
				},
				{
					"anonymous": false,
					"inputs": [
						{
							"indexed": false,
							"internalType": "string",
							"name": "_ShareCertificate",
							"type": "string"
						}
					],
					"name": "ShareCertificateReset",
					"type": "event"
				},
				{
					"anonymous": false,
					"inputs": [
						{
							"indexed": true,
							"internalType": "address",
							"name": "from",
							"type": "address"
						},
						{
							"indexed": true,
							"internalType": "address",
							"name": "to",
							"type": "address"
						},
						{
							"indexed": false,
							"internalType": "uint256",
							"name": "value",
							"type": "uint256"
						}
					],
					"name": "Transfer",
					"type": "event"
				},
				{
					"anonymous": false,
					"inputs": [
						{
							"indexed": true,
							"internalType": "address",
							"name": "from",
							"type": "address"
						},
						{
							"indexed": true,
							"internalType": "address",
							"name": "to",
							"type": "address"
						},
						{
							"indexed": false,
							"internalType": "string",
							"name": "message",
							"type": "string"
						}
					],
					"name": "TransferRestrictionDetected",
					"type": "event"
				},
				{
					"anonymous": false,
					"inputs": [
						{
							"indexed": false,
							"internalType": "address",
							"name": "user",
							"type": "address"
						}
					],
					"name": "WhitelistAuthorityStatusRemoved",
					"type": "event"
				},
				{
					"anonymous": false,
					"inputs": [
						{
							"indexed": false,
							"internalType": "address",
							"name": "user",
							"type": "address"
						}
					],
					"name": "WhitelistAuthorityStatusSet",
					"type": "event"
				},
				{
					"inputs": [],
					"name": "CompanyHomepage",
					"outputs": [
						{
							"internalType": "string",
							"name": "",
							"type": "string"
						}
					],
					"stateMutability": "view",
					"type": "function"
				},
				{
					"inputs": [],
					"name": "CompanyLegalDocs",
					"outputs": [
						{
							"internalType": "string",
							"name": "",
							"type": "string"
						}
					],
					"stateMutability": "view",
					"type": "function"
				},
				{
					"inputs": [],
					"name": "IssuancePlatform",
					"outputs": [
						{
							"internalType": "string",
							"name": "",
							"type": "string"
						}
					],
					"stateMutability": "view",
					"type": "function"
				},
				{
					"inputs": [],
					"name": "Max_Allowed_Investors_Exceed",
					"outputs": [
						{
							"internalType": "uint8",
							"name": "",
							"type": "uint8"
						}
					],
					"stateMutability": "view",
					"type": "function"
				},
				{
					"inputs": [],
					"name": "No_Transfer_Restrictions_Found",
					"outputs": [
						{
							"internalType": "uint8",
							"name": "",
							"type": "uint8"
						}
					],
					"stateMutability": "view",
					"type": "function"
				},
				{
					"inputs": [],
					"name": "Receiver_Not_Whitelisted_or_Blocked",
					"outputs": [
						{
							"internalType": "uint8",
							"name": "",
							"type": "uint8"
						}
					],
					"stateMutability": "view",
					"type": "function"
				},
				{
					"inputs": [],
					"name": "Receiver_Under_Holding_Period",
					"outputs": [
						{
							"internalType": "uint8",
							"name": "",
							"type": "uint8"
						}
					],
					"stateMutability": "view",
					"type": "function"
				},
				{
					"inputs": [],
					"name": "Sender_Not_Whitelisted_or_Blocked",
					"outputs": [
						{
							"internalType": "uint8",
							"name": "",
							"type": "uint8"
						}
					],
					"stateMutability": "view",
					"type": "function"
				},
				{
					"inputs": [],
					"name": "Sender_Under_Holding_Period",
					"outputs": [
						{
							"internalType": "uint8",
							"name": "",
							"type": "uint8"
						}
					],
					"stateMutability": "view",
					"type": "function"
				},
				{
					"inputs": [],
					"name": "ShareCertificate",
					"outputs": [
						{
							"internalType": "string",
							"name": "",
							"type": "string"
						}
					],
					"stateMutability": "view",
					"type": "function"
				},
				{
					"inputs": [],
					"name": "Transfer_Value_Cannot_Zero",
					"outputs": [
						{
							"internalType": "uint8",
							"name": "",
							"type": "uint8"
						}
					],
					"stateMutability": "view",
					"type": "function"
				},
				{
					"inputs": [],
					"name": "Transfers_Disabled",
					"outputs": [
						{
							"internalType": "uint8",
							"name": "",
							"type": "uint8"
						}
					],
					"stateMutability": "view",
					"type": "function"
				},
				{
					"inputs": [
						{
							"internalType": "address",
							"name": "ownby",
							"type": "address"
						},
						{
							"internalType": "address",
							"name": "spender",
							"type": "address"
						}
					],
					"name": "allowance",
					"outputs": [
						{
							"internalType": "uint256",
							"name": "",
							"type": "uint256"
						}
					],
					"stateMutability": "view",
					"type": "function"
				},
				{
					"inputs": [],
					"name": "allowedInvestors",
					"outputs": [
						{
							"internalType": "uint256",
							"name": "",
							"type": "uint256"
						}
					],
					"stateMutability": "view",
					"type": "function"
				},
				{
					"inputs": [
						{
							"internalType": "address",
							"name": "spender",
							"type": "address"
						},
						{
							"internalType": "uint256",
							"name": "amount",
							"type": "uint256"
						}
					],
					"name": "approve",
					"outputs": [
						{
							"internalType": "bool",
							"name": "",
							"type": "bool"
						}
					],
					"stateMutability": "nonpayable",
					"type": "function"
				},
				{
					"inputs": [
						{
							"internalType": "address",
							"name": "account",
							"type": "address"
						}
					],
					"name": "balanceOf",
					"outputs": [
						{
							"internalType": "uint256",
							"name": "",
							"type": "uint256"
						}
					],
					"stateMutability": "view",
					"type": "function"
				},
				{
					"inputs": [
						{
							"internalType": "address[]",
							"name": "account",
							"type": "address[]"
						},
						{
							"internalType": "uint256",
							"name": "buyRestriction",
							"type": "uint256"
						},
						{
							"internalType": "uint256",
							"name": "sellRestriction",
							"type": "uint256"
						}
					],
					"name": "bulkWhitelistWallets",
					"outputs": [],
					"stateMutability": "nonpayable",
					"type": "function"
				},
				{
					"inputs": [
						{
							"internalType": "address",
							"name": "account",
							"type": "address"
						},
						{
							"internalType": "uint256",
							"name": "amount",
							"type": "uint256"
						}
					],
					"name": "burn",
					"outputs": [
						{
							"internalType": "bool",
							"name": "",
							"type": "bool"
						}
					],
					"stateMutability": "nonpayable",
					"type": "function"
				},
				{
					"inputs": [],
					"name": "currentTotalInvestors",
					"outputs": [
						{
							"internalType": "uint256",
							"name": "",
							"type": "uint256"
						}
					],
					"stateMutability": "view",
					"type": "function"
				},
				{
					"inputs": [],
					"name": "decimals",
					"outputs": [
						{
							"internalType": "uint256",
							"name": "",
							"type": "uint256"
						}
					],
					"stateMutability": "view",
					"type": "function"
				},
				{
					"inputs": [
						{
							"internalType": "address",
							"name": "_from",
							"type": "address"
						},
						{
							"internalType": "address",
							"name": "_to",
							"type": "address"
						},
						{
							"internalType": "uint256",
							"name": "value",
							"type": "uint256"
						}
					],
					"name": "detectTransferRestriction",
					"outputs": [
						{
							"internalType": "uint8",
							"name": "status",
							"type": "uint8"
						}
					],
					"stateMutability": "view",
					"type": "function"
				},
				{
					"inputs": [
						{
							"internalType": "address",
							"name": "from",
							"type": "address"
						},
						{
							"internalType": "uint256",
							"name": "amount",
							"type": "uint256"
						}
					],
					"name": "forceTransferToken",
					"outputs": [
						{
							"internalType": "bool",
							"name": "",
							"type": "bool"
						}
					],
					"stateMutability": "nonpayable",
					"type": "function"
				},
				{
					"inputs": [
						{
							"internalType": "address",
							"name": "user",
							"type": "address"
						}
					],
					"name": "getKYCData",
					"outputs": [
						{
							"internalType": "uint256",
							"name": "",
							"type": "uint256"
						},
						{
							"internalType": "uint256",
							"name": "",
							"type": "uint256"
						}
					],
					"stateMutability": "view",
					"type": "function"
				},
				{
					"inputs": [
						{
							"internalType": "address",
							"name": "user",
							"type": "address"
						}
					],
					"name": "getWhitelistAuthorityStatus",
					"outputs": [
						{
							"internalType": "bool",
							"name": "",
							"type": "bool"
						}
					],
					"stateMutability": "view",
					"type": "function"
				},
				{
					"inputs": [],
					"name": "issuanceProtocol",
					"outputs": [
						{
							"internalType": "string",
							"name": "",
							"type": "string"
						}
					],
					"stateMutability": "view",
					"type": "function"
				},
				{
					"inputs": [
						{
							"internalType": "uint8",
							"name": "restrictionCode",
							"type": "uint8"
						}
					],
					"name": "messageForTransferRestriction",
					"outputs": [
						{
							"internalType": "string",
							"name": "message",
							"type": "string"
						}
					],
					"stateMutability": "pure",
					"type": "function"
				},
				{
					"inputs": [
						{
							"internalType": "address",
							"name": "account",
							"type": "address"
						},
						{
							"internalType": "uint256",
							"name": "amount",
							"type": "uint256"
						}
					],
					"name": "mint",
					"outputs": [
						{
							"internalType": "bool",
							"name": "",
							"type": "bool"
						}
					],
					"stateMutability": "nonpayable",
					"type": "function"
				},
				{
					"inputs": [
						{
							"internalType": "address",
							"name": "account",
							"type": "address"
						},
						{
							"internalType": "uint256",
							"name": "buyRestriction",
							"type": "uint256"
						},
						{
							"internalType": "uint256",
							"name": "sellRestriction",
							"type": "uint256"
						}
					],
					"name": "modifyKYCData",
					"outputs": [],
					"stateMutability": "nonpayable",
					"type": "function"
				},
				{
					"inputs": [],
					"name": "name",
					"outputs": [
						{
							"internalType": "string",
							"name": "",
							"type": "string"
						}
					],
					"stateMutability": "view",
					"type": "function"
				},
				{
					"inputs": [],
					"name": "owner",
					"outputs": [
						{
							"internalType": "address",
							"name": "",
							"type": "address"
						}
					],
					"stateMutability": "view",
					"type": "function"
				},
				{
					"inputs": [
						{
							"internalType": "address",
							"name": "user",
							"type": "address"
						}
					],
					"name": "removeWhitelistAuthorityStatus",
					"outputs": [],
					"stateMutability": "nonpayable",
					"type": "function"
				},
				{
					"inputs": [
						{
							"internalType": "uint256",
							"name": "_allowedInvestors",
							"type": "uint256"
						}
					],
					"name": "resetAllowedInvestors",
					"outputs": [],
					"stateMutability": "nonpayable",
					"type": "function"
				},
				{
					"inputs": [
						{
							"internalType": "string",
							"name": "_CompanyHomepage",
							"type": "string"
						}
					],
					"name": "resetCompanyHomepage",
					"outputs": [],
					"stateMutability": "nonpayable",
					"type": "function"
				},
				{
					"inputs": [
						{
							"internalType": "string",
							"name": "_CompanyLegalDocs",
							"type": "string"
						}
					],
					"name": "resetCompanyLegalDocs",
					"outputs": [],
					"stateMutability": "nonpayable",
					"type": "function"
				},
				{
					"inputs": [
						{
							"internalType": "string",
							"name": "_ShareCertificate",
							"type": "string"
						}
					],
					"name": "resetShareCertificate",
					"outputs": [],
					"stateMutability": "nonpayable",
					"type": "function"
				},
				{
					"inputs": [
						{
							"internalType": "uint256",
							"name": "_tradingHoldingPeriod",
							"type": "uint256"
						}
					],
					"name": "setTradingHoldingPeriod",
					"outputs": [],
					"stateMutability": "nonpayable",
					"type": "function"
				},
				{
					"inputs": [
						{
							"internalType": "address",
							"name": "user",
							"type": "address"
						}
					],
					"name": "setWhitelistAuthorityStatus",
					"outputs": [],
					"stateMutability": "nonpayable",
					"type": "function"
				},
				{
					"inputs": [],
					"name": "symbol",
					"outputs": [
						{
							"internalType": "string",
							"name": "",
							"type": "string"
						}
					],
					"stateMutability": "view",
					"type": "function"
				},
				{
					"inputs": [],
					"name": "totalSupply",
					"outputs": [
						{
							"internalType": "uint256",
							"name": "",
							"type": "uint256"
						}
					],
					"stateMutability": "view",
					"type": "function"
				},
				{
					"inputs": [],
					"name": "tradingHoldingPeriod",
					"outputs": [
						{
							"internalType": "uint256",
							"name": "",
							"type": "uint256"
						}
					],
					"stateMutability": "view",
					"type": "function"
				},
				{
					"inputs": [
						{
							"internalType": "address",
							"name": "recipient",
							"type": "address"
						},
						{
							"internalType": "uint256",
							"name": "amount",
							"type": "uint256"
						}
					],
					"name": "transfer",
					"outputs": [
						{
							"internalType": "bool",
							"name": "",
							"type": "bool"
						}
					],
					"stateMutability": "nonpayable",
					"type": "function"
				},
				{
					"inputs": [
						{
							"internalType": "address",
							"name": "sender",
							"type": "address"
						},
						{
							"internalType": "address",
							"name": "recipient",
							"type": "address"
						},
						{
							"internalType": "uint256",
							"name": "amount",
							"type": "uint256"
						}
					],
					"name": "transferFrom",
					"outputs": [
						{
							"internalType": "bool",
							"name": "",
							"type": "bool"
						}
					],
					"stateMutability": "nonpayable",
					"type": "function"
				},
				{
					"inputs": [
						{
							"internalType": "address",
							"name": "newOwner",
							"type": "address"
						}
					],
					"name": "transferOwnership",
					"outputs": [],
					"stateMutability": "nonpayable",
					"type": "function"
				},
				{
					"inputs": [],
					"name": "version",
					"outputs": [
						{
							"internalType": "string",
							"name": "",
							"type": "string"
						}
					],
					"stateMutability": "view",
					"type": "function"
				}
			],
			"devdoc": {
				"kind": "dev",
				"methods": {
					"approve(address,uint256)": {
						"details": "Sets `amount` as the allowance of `spender` over the caller's tokens. Returns a boolean value indicating whether the operation succeeded. IMPORTANT: Beware that changing an allowance with this method brings the risk that someone may use both the old and the new allowance by unfortunate transaction ordering. One possible solution to mitigate this race condition is to first reduce the spender's allowance to 0 and set the desired value afterwards: https://github.com/ethereum/EIPs/issues/20#issuecomment-263524729 Emits an {Approval} event."
					},
					"balanceOf(address)": {
						"details": "Returns the amount of tokens owned by `account`."
					},
					"messageForTransferRestriction(uint8)": {
						"details": "Overwrite with your custom message and restrictionCode handling",
						"params": {
							"restrictionCode": "Identifier for looking up a message"
						},
						"returns": {
							"message": "Text showing the restriction's reasoning"
						}
					},
					"totalSupply()": {
						"details": "Returns the amount of tokens in existence."
					},
					"transfer(address,uint256)": {
						"details": "Moves `amount` tokens from the caller's account to `recipient`. Returns a boolean value indicating whether the operation succeeded. Emits a {Transfer} event."
					},
					"transferFrom(address,address,uint256)": {
						"details": "Moves `amount` tokens from `sender` to `recipient` using the allowance mechanism. `amount` is then deducted from the caller's allowance. Returns a boolean value indicating whether the operation succeeded. Emits a {Transfer} event."
					}
				},
				"version": 1
			},
			"evm": {
				"assembly": "    /* \"contracts/ERC1404TokenMinKYCv12.sol\":199:16081  contract ERC1404TokenMinKYCv12 is IERC20Token, IERC1404 {... */\n  mstore(0x40, 0x80)\n    /* \"contracts/ERC1404TokenMinKYCv12.sol\":2163:2165  18 */\n  0x12\n    /* \"contracts/ERC1404TokenMinKYCv12.sol\":2137:2165  uint256 public decimals = 18 */\n  0x06\n  sstore\n    /* \"contracts/ERC1404TokenMinKYCv12.sol\":2168:2197  string public version = \"1.2\" */\n  mload(0x40)\n  dup1\n  0x40\n  add\n  0x40\n  mstore\n  dup1\n  0x03\n  dup2\n  mstore\n  0x20\n  add\n  0x312e320000000000000000000000000000000000000000000000000000000000\n  dup2\n  mstore\n  pop\n  0x07\n  swap1\n  dup1\n  mload\n  swap1\n  0x20\n  add\n  swap1\n  tag_1\n  swap3\n  swap2\n  swap1\n  tag_2\n  jump\t// in\ntag_1:\n  pop\n    /* \"contracts/ERC1404TokenMinKYCv12.sol\":2200:2245  string public IssuancePlatform = \"DigiShares\" */\n  mload(0x40)\n  dup1\n  0x40\n  add\n  0x40\n  mstore\n  dup1\n  0x0a\n  dup2\n  mstore\n  0x20\n  add\n  0x4469676953686172657300000000000000000000000000000000000000000000\n  dup2\n  mstore\n  pop\n  0x08\n  swap1\n  dup1\n  mload\n  swap1\n  0x20\n  add\n  swap1\n  tag_3\n  swap3\n  swap2\n  swap1\n  tag_2\n  jump\t// in\ntag_3:\n  pop\n    /* \"contracts/ERC1404TokenMinKYCv12.sol\":2248:2291  string public issuanceProtocol = \"ERC-1404\" */\n  mload(0x40)\n  dup1\n  0x40\n  add\n  0x40\n  mstore\n  dup1\n  0x08\n  dup2\n  mstore\n  0x20\n  add\n  0x4552432d31343034000000000000000000000000000000000000000000000000\n  dup2\n  mstore\n  pop\n  0x09\n  swap1\n  dup1\n  mload\n  swap1\n  0x20\n  add\n  swap1\n  tag_4\n  swap3\n  swap2\n  swap1\n  tag_2\n  jump\t// in\ntag_4:\n  pop\n    /* \"contracts/ERC1404TokenMinKYCv12.sol\":2702:2703  0 */\n  0x00\n    /* \"contracts/ERC1404TokenMinKYCv12.sol\":2663:2703  uint256 public currentTotalInvestors = 0 */\n  0x10\n  sstore\n    /* \"contracts/ERC1404TokenMinKYCv12.sol\":2742:2743  0 */\n  0x00\n    /* \"contracts/ERC1404TokenMinKYCv12.sol\":2708:2743  uint256 public allowedInvestors = 0 */\n  0x11\n  sstore\n    /* \"contracts/ERC1404TokenMinKYCv12.sol\":2786:2787  1 */\n  0x01\n    /* \"contracts/ERC1404TokenMinKYCv12.sol\":2748:2787  uint256 public tradingHoldingPeriod = 1 */\n  0x12\n  sstore\n    /* \"contracts/ERC1404TokenMinKYCv12.sol\":3284:4241  constructor(uint256 _initialSupply, string memory _name,  string memory _symbol, uint256 _allowedInvestors, uint256 _decimals, string memory _ShareCertificate, string memory _CompanyHomepage, string memory _CompanyLegalDocs, address _atomicSwapContractAddress ) {... */\n  callvalue\n  dup1\n  iszero\n  tag_5\n  jumpi\n  0x00\n  dup1\n  revert\ntag_5:\n  pop\n  mload(0x40)\n  sub(codesize, bytecodeSize)\n  dup1\n  bytecodeSize\n  dup4\n  codecopy\n  dup2\n  dup2\n  add\n  0x40\n  mstore\n  dup2\n  add\n  swap1\n  tag_6\n  swap2\n  swap1\n  tag_7\n  jump\t// in\ntag_6:\n    /* \"contracts/ERC1404TokenMinKYCv12.sol\":3559:3564  _name */\n  dup8\n    /* \"contracts/ERC1404TokenMinKYCv12.sol\":3552:3556  name */\n  0x0b\n    /* \"contracts/ERC1404TokenMinKYCv12.sol\":3552:3564  name = _name */\n  swap1\n  dup1\n  mload\n  swap1\n  0x20\n  add\n  swap1\n  tag_10\n  swap3\n  swap2\n  swap1\n  tag_2\n  jump\t// in\ntag_10:\n  pop\n    /* \"contracts/ERC1404TokenMinKYCv12.sol\":3578:3585  _symbol */\n  dup7\n    /* \"contracts/ERC1404TokenMinKYCv12.sol\":3569:3575  symbol */\n  0x0c\n    /* \"contracts/ERC1404TokenMinKYCv12.sol\":3569:3585  symbol = _symbol */\n  swap1\n  dup1\n  mload\n  swap1\n  0x20\n  add\n  swap1\n  tag_11\n  swap3\n  swap2\n  swap1\n  tag_2\n  jump\t// in\ntag_11:\n  pop\n    /* \"contracts/ERC1404TokenMinKYCv12.sol\":3602:3611  _decimals */\n  dup5\n    /* \"contracts/ERC1404TokenMinKYCv12.sol\":3591:3599  decimals */\n  0x06\n    /* \"contracts/ERC1404TokenMinKYCv12.sol\":3591:3611  decimals = _decimals */\n  dup2\n  swap1\n  sstore\n  pop\n    /* \"contracts/ERC1404TokenMinKYCv12.sol\":3626:3636  msg.sender */\n  caller\n    /* \"contracts/ERC1404TokenMinKYCv12.sol\":3617:3623  _owner */\n  0x04\n  0x00\n    /* \"contracts/ERC1404TokenMinKYCv12.sol\":3617:3636  _owner = msg.sender */\n  0x0100\n  exp\n  dup2\n  sload\n  dup2\n  0xffffffffffffffffffffffffffffffffffffffff\n  mul\n  not\n  and\n  swap1\n  dup4\n  0xffffffffffffffffffffffffffffffffffffffff\n  and\n  mul\n  or\n  swap1\n  sstore\n  pop\n    /* \"contracts/ERC1404TokenMinKYCv12.sol\":3667:3668  1 */\n  0x01\n    /* \"contracts/ERC1404TokenMinKYCv12.sol\":3641:3656  _buyRestriction */\n  0x00\n    /* \"contracts/ERC1404TokenMinKYCv12.sol\":3641:3664  _buyRestriction[_owner] */\n  dup1\n    /* \"contracts/ERC1404TokenMinKYCv12.sol\":3657:3663  _owner */\n  0x04\n  0x00\n  swap1\n  sload\n  swap1\n  0x0100\n  exp\n  swap1\n  div\n  0xffffffffffffffffffffffffffffffffffffffff\n  and\n    /* \"contracts/ERC1404TokenMinKYCv12.sol\":3641:3664  _buyRestriction[_owner] */\n  0xffffffffffffffffffffffffffffffffffffffff\n  and\n  0xffffffffffffffffffffffffffffffffffffffff\n  and\n  dup2\n  mstore\n  0x20\n  add\n  swap1\n  dup2\n  mstore\n  0x20\n  add\n  0x00\n  keccak256\n    /* \"contracts/ERC1404TokenMinKYCv12.sol\":3641:3668  _buyRestriction[_owner] = 1 */\n  dup2\n  swap1\n  sstore\n  pop\n    /* \"contracts/ERC1404TokenMinKYCv12.sol\":3700:3701  1 */\n  0x01\n    /* \"contracts/ERC1404TokenMinKYCv12.sol\":3673:3689  _sellRestriction */\n  dup1\n    /* \"contracts/ERC1404TokenMinKYCv12.sol\":3673:3697  _sellRestriction[_owner] */\n  0x00\n    /* \"contracts/ERC1404TokenMinKYCv12.sol\":3690:3696  _owner */\n  0x04\n  0x00\n  swap1\n  sload\n  swap1\n  0x0100\n  exp\n  swap1\n  div\n  0xffffffffffffffffffffffffffffffffffffffff\n  and\n    /* \"contracts/ERC1404TokenMinKYCv12.sol\":3673:3697  _sellRestriction[_owner] */\n  0xffffffffffffffffffffffffffffffffffffffff\n  and\n  0xffffffffffffffffffffffffffffffffffffffff\n  and\n  dup2\n  mstore\n  0x20\n  add\n  swap1\n  dup2\n  mstore\n  0x20\n  add\n  0x00\n  keccak256\n    /* \"contracts/ERC1404TokenMinKYCv12.sol\":3673:3701  _sellRestriction[_owner] = 1 */\n  dup2\n  swap1\n  sstore\n  pop\n    /* \"contracts/ERC1404TokenMinKYCv12.sol\":3752:3753  1 */\n  0x01\n    /* \"contracts/ERC1404TokenMinKYCv12.sol\":3706:3721  _buyRestriction */\n  0x00\n    /* \"contracts/ERC1404TokenMinKYCv12.sol\":3706:3749  _buyRestriction[_atomicSwapContractAddress] */\n  dup1\n    /* \"contracts/ERC1404TokenMinKYCv12.sol\":3722:3748  _atomicSwapContractAddress */\n  dup4\n    /* \"contracts/ERC1404TokenMinKYCv12.sol\":3706:3749  _buyRestriction[_atomicSwapContractAddress] */\n  0xffffffffffffffffffffffffffffffffffffffff\n  and\n  0xffffffffffffffffffffffffffffffffffffffff\n  and\n  dup2\n  mstore\n  0x20\n  add\n  swap1\n  dup2\n  mstore\n  0x20\n  add\n  0x00\n  keccak256\n    /* \"contracts/ERC1404TokenMinKYCv12.sol\":3706:3753  _buyRestriction[_atomicSwapContractAddress] = 1 */\n  dup2\n  swap1\n  sstore\n  pop\n    /* \"contracts/ERC1404TokenMinKYCv12.sol\":3805:3806  1 */\n  0x01\n    /* \"contracts/ERC1404TokenMinKYCv12.sol\":3758:3774  _sellRestriction */\n  dup1\n    /* \"contracts/ERC1404TokenMinKYCv12.sol\":3758:3802  _sellRestriction[_atomicSwapContractAddress] */\n  0x00\n    /* \"contracts/ERC1404TokenMinKYCv12.sol\":3775:3801  _atomicSwapContractAddress */\n  dup4\n    /* \"contracts/ERC1404TokenMinKYCv12.sol\":3758:3802  _sellRestriction[_atomicSwapContractAddress] */\n  0xffffffffffffffffffffffffffffffffffffffff\n  and\n  0xffffffffffffffffffffffffffffffffffffffff\n  and\n  dup2\n  mstore\n  0x20\n  add\n  swap1\n  dup2\n  mstore\n  0x20\n  add\n  0x00\n  keccak256\n    /* \"contracts/ERC1404TokenMinKYCv12.sol\":3758:3806  _sellRestriction[_atomicSwapContractAddress] = 1 */\n  dup2\n  swap1\n  sstore\n  pop\n    /* \"contracts/ERC1404TokenMinKYCv12.sol\":3832:3849  _allowedInvestors */\n  dup6\n    /* \"contracts/ERC1404TokenMinKYCv12.sol\":3813:3829  allowedInvestors */\n  0x11\n    /* \"contracts/ERC1404TokenMinKYCv12.sol\":3813:3849  allowedInvestors = _allowedInvestors */\n  dup2\n  swap1\n  sstore\n  pop\n    /* \"contracts/ERC1404TokenMinKYCv12.sol\":3910:3924  _initialSupply */\n  dup9\n    /* \"contracts/ERC1404TokenMinKYCv12.sol\":3895:3907  _totalSupply */\n  0x0a\n    /* \"contracts/ERC1404TokenMinKYCv12.sol\":3895:3924  _totalSupply = _initialSupply */\n  dup2\n  swap1\n  sstore\n  pop\n    /* \"contracts/ERC1404TokenMinKYCv12.sol\":3949:3961  _totalSupply */\n  sload(0x0a)\n    /* \"contracts/ERC1404TokenMinKYCv12.sol\":3929:3938  _balances */\n  0x02\n    /* \"contracts/ERC1404TokenMinKYCv12.sol\":3929:3946  _balances[_owner] */\n  0x00\n    /* \"contracts/ERC1404TokenMinKYCv12.sol\":3939:3945  _owner */\n  0x04\n  0x00\n  swap1\n  sload\n  swap1\n  0x0100\n  exp\n  swap1\n  div\n  0xffffffffffffffffffffffffffffffffffffffff\n  and\n    /* \"contracts/ERC1404TokenMinKYCv12.sol\":3929:3946  _balances[_owner] */\n  0xffffffffffffffffffffffffffffffffffffffff\n  and\n  0xffffffffffffffffffffffffffffffffffffffff\n  and\n  dup2\n  mstore\n  0x20\n  add\n  swap1\n  dup2\n  mstore\n  0x20\n  add\n  0x00\n  keccak256\n    /* \"contracts/ERC1404TokenMinKYCv12.sol\":3929:3961  _balances[_owner] = _totalSupply */\n  dup2\n  swap1\n  sstore\n  pop\n    /* \"contracts/ERC1404TokenMinKYCv12.sol\":4057:4061  true */\n  0x01\n    /* \"contracts/ERC1404TokenMinKYCv12.sol\":4020:4046  _whitelistControlAuthority */\n  0x05\n    /* \"contracts/ERC1404TokenMinKYCv12.sol\":4020:4054  _whitelistControlAuthority[_owner] */\n  0x00\n    /* \"contracts/ERC1404TokenMinKYCv12.sol\":4047:4053  _owner */\n  0x04\n  0x00\n  swap1\n  sload\n  swap1\n  0x0100\n  exp\n  swap1\n  div\n  0xffffffffffffffffffffffffffffffffffffffff\n  and\n    /* \"contracts/ERC1404TokenMinKYCv12.sol\":4020:4054  _whitelistControlAuthority[_owner] */\n  0xffffffffffffffffffffffffffffffffffffffff\n  and\n  0xffffffffffffffffffffffffffffffffffffffff\n  and\n  dup2\n  mstore\n  0x20\n  add\n  swap1\n  dup2\n  mstore\n  0x20\n  add\n  0x00\n  keccak256\n  0x00\n    /* \"contracts/ERC1404TokenMinKYCv12.sol\":4020:4061  _whitelistControlAuthority[_owner] = true */\n  0x0100\n  exp\n  dup2\n  sload\n  dup2\n  0xff\n  mul\n  not\n  and\n  swap1\n  dup4\n  iszero\n  iszero\n  mul\n  or\n  swap1\n  sstore\n  pop\n    /* \"contracts/ERC1404TokenMinKYCv12.sol\":4086:4103  _ShareCertificate */\n  dup4\n    /* \"contracts/ERC1404TokenMinKYCv12.sol\":4067:4083  ShareCertificate */\n  0x0d\n    /* \"contracts/ERC1404TokenMinKYCv12.sol\":4067:4103  ShareCertificate = _ShareCertificate */\n  swap1\n  dup1\n  mload\n  swap1\n  0x20\n  add\n  swap1\n  tag_12\n  swap3\n  swap2\n  swap1\n  tag_2\n  jump\t// in\ntag_12:\n  pop\n    /* \"contracts/ERC1404TokenMinKYCv12.sol\":4126:4142  _CompanyHomepage */\n  dup3\n    /* \"contracts/ERC1404TokenMinKYCv12.sol\":4108:4123  CompanyHomepage */\n  0x0e\n    /* \"contracts/ERC1404TokenMinKYCv12.sol\":4108:4142  CompanyHomepage = _CompanyHomepage */\n  swap1\n  dup1\n  mload\n  swap1\n  0x20\n  add\n  swap1\n  tag_13\n  swap3\n  swap2\n  swap1\n  tag_2\n  jump\t// in\ntag_13:\n  pop\n    /* \"contracts/ERC1404TokenMinKYCv12.sol\":4166:4183  _CompanyLegalDocs */\n  dup2\n    /* \"contracts/ERC1404TokenMinKYCv12.sol\":4147:4163  CompanyLegalDocs */\n  0x0f\n    /* \"contracts/ERC1404TokenMinKYCv12.sol\":4147:4183  CompanyLegalDocs = _CompanyLegalDocs */\n  swap1\n  dup1\n  mload\n  swap1\n  0x20\n  add\n  swap1\n  tag_14\n  swap3\n  swap2\n  swap1\n  tag_2\n  jump\t// in\ntag_14:\n  pop\n    /* \"contracts/ERC1404TokenMinKYCv12.sol\":4215:4221  _owner */\n  0x04\n  0x00\n  swap1\n  sload\n  swap1\n  0x0100\n  exp\n  swap1\n  div\n  0xffffffffffffffffffffffffffffffffffffffff\n  and\n    /* \"contracts/ERC1404TokenMinKYCv12.sol\":4194:4236  Transfer(address(0), _owner, _totalSupply) */\n  0xffffffffffffffffffffffffffffffffffffffff\n  and\n    /* \"contracts/ERC1404TokenMinKYCv12.sol\":4211:4212  0 */\n  0x00\n    /* \"contracts/ERC1404TokenMinKYCv12.sol\":4194:4236  Transfer(address(0), _owner, _totalSupply) */\n  0xffffffffffffffffffffffffffffffffffffffff\n  and\n  0xddf252ad1be2c89b69c2b068fc378daa952ba7f163c4a11628f55a4df523b3ef\n    /* \"contracts/ERC1404TokenMinKYCv12.sol\":4223:4235  _totalSupply */\n  sload(0x0a)\n    /* \"contracts/ERC1404TokenMinKYCv12.sol\":4194:4236  Transfer(address(0), _owner, _totalSupply) */\n  mload(0x40)\n  tag_15\n  swap2\n  swap1\n  tag_16\n  jump\t// in\ntag_15:\n  mload(0x40)\n  dup1\n  swap2\n  sub\n  swap1\n  log3\n    /* \"contracts/ERC1404TokenMinKYCv12.sol\":3284:4241  constructor(uint256 _initialSupply, string memory _name,  string memory _symbol, uint256 _allowedInvestors, uint256 _decimals, string memory _ShareCertificate, string memory _CompanyHomepage, string memory _CompanyLegalDocs, address _atomicSwapContractAddress ) {... */\n  pop\n  pop\n  pop\n  pop\n  pop\n  pop\n  pop\n  pop\n  pop\n    /* \"contracts/ERC1404TokenMinKYCv12.sol\":199:16081  contract ERC1404TokenMinKYCv12 is IERC20Token, IERC1404 {... */\n  jump(tag_17)\ntag_2:\n  dup3\n  dup1\n  sload\n  tag_18\n  swap1\n  tag_19\n  jump\t// in\ntag_18:\n  swap1\n  0x00\n  mstore\n  keccak256(0x00, 0x20)\n  swap1\n  0x1f\n  add\n  0x20\n  swap1\n  div\n  dup2\n  add\n  swap3\n  dup3\n  tag_21\n  jumpi\n  0x00\n  dup6\n  sstore\n  jump(tag_20)\ntag_21:\n  dup3\n  0x1f\n  lt\n  tag_22\n  jumpi\n  dup1\n  mload\n  not(0xff)\n  and\n  dup4\n  dup1\n  add\n  or\n  dup6\n  sstore\n  jump(tag_20)\ntag_22:\n  dup3\n  dup1\n  add\n  0x01\n  add\n  dup6\n  sstore\n  dup3\n  iszero\n  tag_20\n  jumpi\n  swap2\n  dup3\n  add\ntag_23:\n  dup3\n  dup2\n  gt\n  iszero\n  tag_24\n  jumpi\n  dup3\n  mload\n  dup3\n  sstore\n  swap2\n  0x20\n  add\n  swap2\n  swap1\n  0x01\n  add\n  swap1\n  jump(tag_23)\ntag_24:\ntag_20:\n  pop\n  swap1\n  pop\n  tag_25\n  swap2\n  swap1\n  tag_26\n  jump\t// in\ntag_25:\n  pop\n  swap1\n  jump\t// out\ntag_26:\ntag_27:\n  dup1\n  dup3\n  gt\n  iszero\n  tag_28\n  jumpi\n  0x00\n  dup2\n  0x00\n  swap1\n  sstore\n  pop\n  0x01\n  add\n  jump(tag_27)\ntag_28:\n  pop\n  swap1\n  jump\t// out\n    /* \"#utility.yul\":7:428   */\ntag_30:\n    /* \"#utility.yul\":96:101   */\n  0x00\n    /* \"#utility.yul\":121:187   */\n  tag_32\n    /* \"#utility.yul\":137:186   */\n  tag_33\n    /* \"#utility.yul\":179:185   */\n  dup5\n    /* \"#utility.yul\":137:186   */\n  tag_34\n  jump\t// in\ntag_33:\n    /* \"#utility.yul\":121:187   */\n  tag_35\n  jump\t// in\ntag_32:\n    /* \"#utility.yul\":112:187   */\n  swap1\n  pop\n    /* \"#utility.yul\":210:216   */\n  dup3\n    /* \"#utility.yul\":203:208   */\n  dup2\n    /* \"#utility.yul\":196:217   */\n  mstore\n    /* \"#utility.yul\":248:252   */\n  0x20\n    /* \"#utility.yul\":241:246   */\n  dup2\n    /* \"#utility.yul\":237:253   */\n  add\n    /* \"#utility.yul\":286:289   */\n  dup5\n    /* \"#utility.yul\":277:283   */\n  dup5\n    /* \"#utility.yul\":272:275   */\n  dup5\n    /* \"#utility.yul\":268:284   */\n  add\n    /* \"#utility.yul\":265:290   */\n  gt\n    /* \"#utility.yul\":262:374   */\n  iszero\n  tag_36\n  jumpi\n    /* \"#utility.yul\":293:372   */\n  tag_37\n  tag_38\n  jump\t// in\ntag_37:\n    /* \"#utility.yul\":262:374   */\ntag_36:\n    /* \"#utility.yul\":383:422   */\n  tag_39\n    /* \"#utility.yul\":415:421   */\n  dup5\n    /* \"#utility.yul\":410:413   */\n  dup3\n    /* \"#utility.yul\":405:408   */\n  dup6\n    /* \"#utility.yul\":383:422   */\n  tag_40\n  jump\t// in\ntag_39:\n    /* \"#utility.yul\":102:428   */\n  pop\n    /* \"#utility.yul\":7:428   */\n  swap4\n  swap3\n  pop\n  pop\n  pop\n  jump\t// out\n    /* \"#utility.yul\":434:577   */\ntag_41:\n    /* \"#utility.yul\":491:496   */\n  0x00\n    /* \"#utility.yul\":522:528   */\n  dup2\n    /* \"#utility.yul\":516:529   */\n  mload\n    /* \"#utility.yul\":507:529   */\n  swap1\n  pop\n    /* \"#utility.yul\":538:571   */\n  tag_43\n    /* \"#utility.yul\":565:570   */\n  dup2\n    /* \"#utility.yul\":538:571   */\n  tag_44\n  jump\t// in\ntag_43:\n    /* \"#utility.yul\":434:577   */\n  swap3\n  swap2\n  pop\n  pop\n  jump\t// out\n    /* \"#utility.yul\":597:952   */\ntag_45:\n    /* \"#utility.yul\":664:669   */\n  0x00\n    /* \"#utility.yul\":713:716   */\n  dup3\n    /* \"#utility.yul\":706:710   */\n  0x1f\n    /* \"#utility.yul\":698:704   */\n  dup4\n    /* \"#utility.yul\":694:711   */\n  add\n    /* \"#utility.yul\":690:717   */\n  slt\n    /* \"#utility.yul\":680:802   */\n  tag_47\n  jumpi\n    /* \"#utility.yul\":721:800   */\n  tag_48\n  tag_49\n  jump\t// in\ntag_48:\n    /* \"#utility.yul\":680:802   */\ntag_47:\n    /* \"#utility.yul\":831:837   */\n  dup2\n    /* \"#utility.yul\":825:838   */\n  mload\n    /* \"#utility.yul\":856:946   */\n  tag_50\n    /* \"#utility.yul\":942:945   */\n  dup5\n    /* \"#utility.yul\":934:940   */\n  dup3\n    /* \"#utility.yul\":927:931   */\n  0x20\n    /* \"#utility.yul\":919:925   */\n  dup7\n    /* \"#utility.yul\":915:932   */\n  add\n    /* \"#utility.yul\":856:946   */\n  tag_30\n  jump\t// in\ntag_50:\n    /* \"#utility.yul\":847:946   */\n  swap2\n  pop\n    /* \"#utility.yul\":670:952   */\n  pop\n    /* \"#utility.yul\":597:952   */\n  swap3\n  swap2\n  pop\n  pop\n  jump\t// out\n    /* \"#utility.yul\":958:1101   */\ntag_51:\n    /* \"#utility.yul\":1015:1020   */\n  0x00\n    /* \"#utility.yul\":1046:1052   */\n  dup2\n    /* \"#utility.yul\":1040:1053   */\n  mload\n    /* \"#utility.yul\":1031:1053   */\n  swap1\n  pop\n    /* \"#utility.yul\":1062:1095   */\n  tag_53\n    /* \"#utility.yul\":1089:1094   */\n  dup2\n    /* \"#utility.yul\":1062:1095   */\n  tag_54\n  jump\t// in\ntag_53:\n    /* \"#utility.yul\":958:1101   */\n  swap3\n  swap2\n  pop\n  pop\n  jump\t// out\n    /* \"#utility.yul\":1107:3577   */\ntag_7:\n    /* \"#utility.yul\":1299:1305   */\n  0x00\n    /* \"#utility.yul\":1307:1313   */\n  dup1\n    /* \"#utility.yul\":1315:1321   */\n  0x00\n    /* \"#utility.yul\":1323:1329   */\n  dup1\n    /* \"#utility.yul\":1331:1337   */\n  0x00\n    /* \"#utility.yul\":1339:1345   */\n  dup1\n    /* \"#utility.yul\":1347:1353   */\n  0x00\n    /* \"#utility.yul\":1355:1361   */\n  dup1\n    /* \"#utility.yul\":1363:1369   */\n  0x00\n    /* \"#utility.yul\":1412:1415   */\n  0x0120\n    /* \"#utility.yul\":1400:1409   */\n  dup11\n    /* \"#utility.yul\":1391:1398   */\n  dup13\n    /* \"#utility.yul\":1387:1410   */\n  sub\n    /* \"#utility.yul\":1383:1416   */\n  slt\n    /* \"#utility.yul\":1380:1500   */\n  iszero\n  tag_56\n  jumpi\n    /* \"#utility.yul\":1419:1498   */\n  tag_57\n  tag_58\n  jump\t// in\ntag_57:\n    /* \"#utility.yul\":1380:1500   */\ntag_56:\n    /* \"#utility.yul\":1539:1540   */\n  0x00\n    /* \"#utility.yul\":1564:1628   */\n  tag_59\n    /* \"#utility.yul\":1620:1627   */\n  dup13\n    /* \"#utility.yul\":1611:1617   */\n  dup3\n    /* \"#utility.yul\":1600:1609   */\n  dup14\n    /* \"#utility.yul\":1596:1618   */\n  add\n    /* \"#utility.yul\":1564:1628   */\n  tag_51\n  jump\t// in\ntag_59:\n    /* \"#utility.yul\":1554:1628   */\n  swap10\n  pop\n    /* \"#utility.yul\":1510:1638   */\n  pop\n    /* \"#utility.yul\":1698:1700   */\n  0x20\n    /* \"#utility.yul\":1687:1696   */\n  dup11\n    /* \"#utility.yul\":1683:1701   */\n  add\n    /* \"#utility.yul\":1677:1702   */\n  mload\n    /* \"#utility.yul\":1729:1747   */\n  0xffffffffffffffff\n    /* \"#utility.yul\":1721:1727   */\n  dup2\n    /* \"#utility.yul\":1718:1748   */\n  gt\n    /* \"#utility.yul\":1715:1832   */\n  iszero\n  tag_60\n  jumpi\n    /* \"#utility.yul\":1751:1830   */\n  tag_61\n  tag_62\n  jump\t// in\ntag_61:\n    /* \"#utility.yul\":1715:1832   */\ntag_60:\n    /* \"#utility.yul\":1856:1930   */\n  tag_63\n    /* \"#utility.yul\":1922:1929   */\n  dup13\n    /* \"#utility.yul\":1913:1919   */\n  dup3\n    /* \"#utility.yul\":1902:1911   */\n  dup14\n    /* \"#utility.yul\":1898:1920   */\n  add\n    /* \"#utility.yul\":1856:1930   */\n  tag_45\n  jump\t// in\ntag_63:\n    /* \"#utility.yul\":1846:1930   */\n  swap9\n  pop\n    /* \"#utility.yul\":1648:1940   */\n  pop\n    /* \"#utility.yul\":2000:2002   */\n  0x40\n    /* \"#utility.yul\":1989:1998   */\n  dup11\n    /* \"#utility.yul\":1985:2003   */\n  add\n    /* \"#utility.yul\":1979:2004   */\n  mload\n    /* \"#utility.yul\":2031:2049   */\n  0xffffffffffffffff\n    /* \"#utility.yul\":2023:2029   */\n  dup2\n    /* \"#utility.yul\":2020:2050   */\n  gt\n    /* \"#utility.yul\":2017:2134   */\n  iszero\n  tag_64\n  jumpi\n    /* \"#utility.yul\":2053:2132   */\n  tag_65\n  tag_62\n  jump\t// in\ntag_65:\n    /* \"#utility.yul\":2017:2134   */\ntag_64:\n    /* \"#utility.yul\":2158:2232   */\n  tag_66\n    /* \"#utility.yul\":2224:2231   */\n  dup13\n    /* \"#utility.yul\":2215:2221   */\n  dup3\n    /* \"#utility.yul\":2204:2213   */\n  dup14\n    /* \"#utility.yul\":2200:2222   */\n  add\n    /* \"#utility.yul\":2158:2232   */\n  tag_45\n  jump\t// in\ntag_66:\n    /* \"#utility.yul\":2148:2232   */\n  swap8\n  pop\n    /* \"#utility.yul\":1950:2242   */\n  pop\n    /* \"#utility.yul\":2281:2283   */\n  0x60\n    /* \"#utility.yul\":2307:2371   */\n  tag_67\n    /* \"#utility.yul\":2363:2370   */\n  dup13\n    /* \"#utility.yul\":2354:2360   */\n  dup3\n    /* \"#utility.yul\":2343:2352   */\n  dup14\n    /* \"#utility.yul\":2339:2361   */\n  add\n    /* \"#utility.yul\":2307:2371   */\n  tag_51\n  jump\t// in\ntag_67:\n    /* \"#utility.yul\":2297:2371   */\n  swap7\n  pop\n    /* \"#utility.yul\":2252:2381   */\n  pop\n    /* \"#utility.yul\":2420:2423   */\n  0x80\n    /* \"#utility.yul\":2447:2511   */\n  tag_68\n    /* \"#utility.yul\":2503:2510   */\n  dup13\n    /* \"#utility.yul\":2494:2500   */\n  dup3\n    /* \"#utility.yul\":2483:2492   */\n  dup14\n    /* \"#utility.yul\":2479:2501   */\n  add\n    /* \"#utility.yul\":2447:2511   */\n  tag_51\n  jump\t// in\ntag_68:\n    /* \"#utility.yul\":2437:2511   */\n  swap6\n  pop\n    /* \"#utility.yul\":2391:2521   */\n  pop\n    /* \"#utility.yul\":2581:2584   */\n  0xa0\n    /* \"#utility.yul\":2570:2579   */\n  dup11\n    /* \"#utility.yul\":2566:2585   */\n  add\n    /* \"#utility.yul\":2560:2586   */\n  mload\n    /* \"#utility.yul\":2613:2631   */\n  0xffffffffffffffff\n    /* \"#utility.yul\":2605:2611   */\n  dup2\n    /* \"#utility.yul\":2602:2632   */\n  gt\n    /* \"#utility.yul\":2599:2716   */\n  iszero\n  tag_69\n  jumpi\n    /* \"#utility.yul\":2635:2714   */\n  tag_70\n  tag_62\n  jump\t// in\ntag_70:\n    /* \"#utility.yul\":2599:2716   */\ntag_69:\n    /* \"#utility.yul\":2740:2814   */\n  tag_71\n    /* \"#utility.yul\":2806:2813   */\n  dup13\n    /* \"#utility.yul\":2797:2803   */\n  dup3\n    /* \"#utility.yul\":2786:2795   */\n  dup14\n    /* \"#utility.yul\":2782:2804   */\n  add\n    /* \"#utility.yul\":2740:2814   */\n  tag_45\n  jump\t// in\ntag_71:\n    /* \"#utility.yul\":2730:2814   */\n  swap5\n  pop\n    /* \"#utility.yul\":2531:2824   */\n  pop\n    /* \"#utility.yul\":2884:2887   */\n  0xc0\n    /* \"#utility.yul\":2873:2882   */\n  dup11\n    /* \"#utility.yul\":2869:2888   */\n  add\n    /* \"#utility.yul\":2863:2889   */\n  mload\n    /* \"#utility.yul\":2916:2934   */\n  0xffffffffffffffff\n    /* \"#utility.yul\":2908:2914   */\n  dup2\n    /* \"#utility.yul\":2905:2935   */\n  gt\n    /* \"#utility.yul\":2902:3019   */\n  iszero\n  tag_72\n  jumpi\n    /* \"#utility.yul\":2938:3017   */\n  tag_73\n  tag_62\n  jump\t// in\ntag_73:\n    /* \"#utility.yul\":2902:3019   */\ntag_72:\n    /* \"#utility.yul\":3043:3117   */\n  tag_74\n    /* \"#utility.yul\":3109:3116   */\n  dup13\n    /* \"#utility.yul\":3100:3106   */\n  dup3\n    /* \"#utility.yul\":3089:3098   */\n  dup14\n    /* \"#utility.yul\":3085:3107   */\n  add\n    /* \"#utility.yul\":3043:3117   */\n  tag_45\n  jump\t// in\ntag_74:\n    /* \"#utility.yul\":3033:3117   */\n  swap4\n  pop\n    /* \"#utility.yul\":2834:3127   */\n  pop\n    /* \"#utility.yul\":3187:3190   */\n  0xe0\n    /* \"#utility.yul\":3176:3185   */\n  dup11\n    /* \"#utility.yul\":3172:3191   */\n  add\n    /* \"#utility.yul\":3166:3192   */\n  mload\n    /* \"#utility.yul\":3219:3237   */\n  0xffffffffffffffff\n    /* \"#utility.yul\":3211:3217   */\n  dup2\n    /* \"#utility.yul\":3208:3238   */\n  gt\n    /* \"#utility.yul\":3205:3322   */\n  iszero\n  tag_75\n  jumpi\n    /* \"#utility.yul\":3241:3320   */\n  tag_76\n  tag_62\n  jump\t// in\ntag_76:\n    /* \"#utility.yul\":3205:3322   */\ntag_75:\n    /* \"#utility.yul\":3346:3420   */\n  tag_77\n    /* \"#utility.yul\":3412:3419   */\n  dup13\n    /* \"#utility.yul\":3403:3409   */\n  dup3\n    /* \"#utility.yul\":3392:3401   */\n  dup14\n    /* \"#utility.yul\":3388:3410   */\n  add\n    /* \"#utility.yul\":3346:3420   */\n  tag_45\n  jump\t// in\ntag_77:\n    /* \"#utility.yul\":3336:3420   */\n  swap3\n  pop\n    /* \"#utility.yul\":3137:3430   */\n  pop\n    /* \"#utility.yul\":3469:3472   */\n  0x0100\n    /* \"#utility.yul\":3496:3560   */\n  tag_78\n    /* \"#utility.yul\":3552:3559   */\n  dup13\n    /* \"#utility.yul\":3543:3549   */\n  dup3\n    /* \"#utility.yul\":3532:3541   */\n  dup14\n    /* \"#utility.yul\":3528:3550   */\n  add\n    /* \"#utility.yul\":3496:3560   */\n  tag_41\n  jump\t// in\ntag_78:\n    /* \"#utility.yul\":3486:3560   */\n  swap2\n  pop\n    /* \"#utility.yul\":3440:3570   */\n  pop\n    /* \"#utility.yul\":1107:3577   */\n  swap3\n  swap6\n  swap9\n  pop\n  swap3\n  swap6\n  swap9\n  pop\n  swap3\n  swap6\n  swap9\n  jump\t// out\n    /* \"#utility.yul\":3583:3701   */\ntag_79:\n    /* \"#utility.yul\":3670:3694   */\n  tag_81\n    /* \"#utility.yul\":3688:3693   */\n  dup2\n    /* \"#utility.yul\":3670:3694   */\n  tag_82\n  jump\t// in\ntag_81:\n    /* \"#utility.yul\":3665:3668   */\n  dup3\n    /* \"#utility.yul\":3658:3695   */\n  mstore\n    /* \"#utility.yul\":3583:3701   */\n  pop\n  pop\n  jump\t// out\n    /* \"#utility.yul\":3707:3929   */\ntag_16:\n    /* \"#utility.yul\":3800:3804   */\n  0x00\n    /* \"#utility.yul\":3838:3840   */\n  0x20\n    /* \"#utility.yul\":3827:3836   */\n  dup3\n    /* \"#utility.yul\":3823:3841   */\n  add\n    /* \"#utility.yul\":3815:3841   */\n  swap1\n  pop\n    /* \"#utility.yul\":3851:3922   */\n  tag_84\n    /* \"#utility.yul\":3919:3920   */\n  0x00\n    /* \"#utility.yul\":3908:3917   */\n  dup4\n    /* \"#utility.yul\":3904:3921   */\n  add\n    /* \"#utility.yul\":3895:3901   */\n  dup5\n    /* \"#utility.yul\":3851:3922   */\n  tag_79\n  jump\t// in\ntag_84:\n    /* \"#utility.yul\":3707:3929   */\n  swap3\n  swap2\n  pop\n  pop\n  jump\t// out\n    /* \"#utility.yul\":3935:4064   */\ntag_35:\n    /* \"#utility.yul\":3969:3975   */\n  0x00\n    /* \"#utility.yul\":3996:4016   */\n  tag_86\n  tag_87\n  jump\t// in\ntag_86:\n    /* \"#utility.yul\":3986:4016   */\n  swap1\n  pop\n    /* \"#utility.yul\":4025:4058   */\n  tag_88\n    /* \"#utility.yul\":4053:4057   */\n  dup3\n    /* \"#utility.yul\":4045:4051   */\n  dup3\n    /* \"#utility.yul\":4025:4058   */\n  tag_89\n  jump\t// in\ntag_88:\n    /* \"#utility.yul\":3935:4064   */\n  swap2\n  swap1\n  pop\n  jump\t// out\n    /* \"#utility.yul\":4070:4145   */\ntag_87:\n    /* \"#utility.yul\":4103:4109   */\n  0x00\n    /* \"#utility.yul\":4136:4138   */\n  0x40\n    /* \"#utility.yul\":4130:4139   */\n  mload\n    /* \"#utility.yul\":4120:4139   */\n  swap1\n  pop\n    /* \"#utility.yul\":4070:4145   */\n  swap1\n  jump\t// out\n    /* \"#utility.yul\":4151:4459   */\ntag_34:\n    /* \"#utility.yul\":4213:4217   */\n  0x00\n    /* \"#utility.yul\":4303:4321   */\n  0xffffffffffffffff\n    /* \"#utility.yul\":4295:4301   */\n  dup3\n    /* \"#utility.yul\":4292:4322   */\n  gt\n    /* \"#utility.yul\":4289:4345   */\n  iszero\n  tag_92\n  jumpi\n    /* \"#utility.yul\":4325:4343   */\n  tag_93\n  tag_94\n  jump\t// in\ntag_93:\n    /* \"#utility.yul\":4289:4345   */\ntag_92:\n    /* \"#utility.yul\":4363:4392   */\n  tag_95\n    /* \"#utility.yul\":4385:4391   */\n  dup3\n    /* \"#utility.yul\":4363:4392   */\n  tag_96\n  jump\t// in\ntag_95:\n    /* \"#utility.yul\":4355:4392   */\n  swap1\n  pop\n    /* \"#utility.yul\":4447:4451   */\n  0x20\n    /* \"#utility.yul\":4441:4445   */\n  dup2\n    /* \"#utility.yul\":4437:4452   */\n  add\n    /* \"#utility.yul\":4429:4452   */\n  swap1\n  pop\n    /* \"#utility.yul\":4151:4459   */\n  swap2\n  swap1\n  pop\n  jump\t// out\n    /* \"#utility.yul\":4465:4561   */\ntag_97:\n    /* \"#utility.yul\":4502:4509   */\n  0x00\n    /* \"#utility.yul\":4531:4555   */\n  tag_99\n    /* \"#utility.yul\":4549:4554   */\n  dup3\n    /* \"#utility.yul\":4531:4555   */\n  tag_100\n  jump\t// in\ntag_99:\n    /* \"#utility.yul\":4520:4555   */\n  swap1\n  pop\n    /* \"#utility.yul\":4465:4561   */\n  swap2\n  swap1\n  pop\n  jump\t// out\n    /* \"#utility.yul\":4567:4693   */\ntag_100:\n    /* \"#utility.yul\":4604:4611   */\n  0x00\n    /* \"#utility.yul\":4644:4686   */\n  0xffffffffffffffffffffffffffffffffffffffff\n    /* \"#utility.yul\":4637:4642   */\n  dup3\n    /* \"#utility.yul\":4633:4687   */\n  and\n    /* \"#utility.yul\":4622:4687   */\n  swap1\n  pop\n    /* \"#utility.yul\":4567:4693   */\n  swap2\n  swap1\n  pop\n  jump\t// out\n    /* \"#utility.yul\":4699:4776   */\ntag_82:\n    /* \"#utility.yul\":4736:4743   */\n  0x00\n    /* \"#utility.yul\":4765:4770   */\n  dup2\n    /* \"#utility.yul\":4754:4770   */\n  swap1\n  pop\n    /* \"#utility.yul\":4699:4776   */\n  swap2\n  swap1\n  pop\n  jump\t// out\n    /* \"#utility.yul\":4782:5089   */\ntag_40:\n    /* \"#utility.yul\":4850:4851   */\n  0x00\n    /* \"#utility.yul\":4860:4973   */\ntag_104:\n    /* \"#utility.yul\":4874:4880   */\n  dup4\n    /* \"#utility.yul\":4871:4872   */\n  dup2\n    /* \"#utility.yul\":4868:4881   */\n  lt\n    /* \"#utility.yul\":4860:4973   */\n  iszero\n  tag_106\n  jumpi\n    /* \"#utility.yul\":4959:4960   */\n  dup1\n    /* \"#utility.yul\":4954:4957   */\n  dup3\n    /* \"#utility.yul\":4950:4961   */\n  add\n    /* \"#utility.yul\":4944:4962   */\n  mload\n    /* \"#utility.yul\":4940:4941   */\n  dup2\n    /* \"#utility.yul\":4935:4938   */\n  dup5\n    /* \"#utility.yul\":4931:4942   */\n  add\n    /* \"#utility.yul\":4924:4963   */\n  mstore\n    /* \"#utility.yul\":4896:4898   */\n  0x20\n    /* \"#utility.yul\":4893:4894   */\n  dup2\n    /* \"#utility.yul\":4889:4899   */\n  add\n    /* \"#utility.yul\":4884:4899   */\n  swap1\n  pop\n    /* \"#utility.yul\":4860:4973   */\n  jump(tag_104)\ntag_106:\n    /* \"#utility.yul\":4991:4997   */\n  dup4\n    /* \"#utility.yul\":4988:4989   */\n  dup2\n    /* \"#utility.yul\":4985:4998   */\n  gt\n    /* \"#utility.yul\":4982:5083   */\n  iszero\n  tag_107\n  jumpi\n    /* \"#utility.yul\":5071:5072   */\n  0x00\n    /* \"#utility.yul\":5062:5068   */\n  dup5\n    /* \"#utility.yul\":5057:5060   */\n  dup5\n    /* \"#utility.yul\":5053:5069   */\n  add\n    /* \"#utility.yul\":5046:5073   */\n  mstore\n    /* \"#utility.yul\":4982:5083   */\ntag_107:\n    /* \"#utility.yul\":4831:5089   */\n  pop\n    /* \"#utility.yul\":4782:5089   */\n  pop\n  pop\n  pop\n  jump\t// out\n    /* \"#utility.yul\":5095:5415   */\ntag_19:\n    /* \"#utility.yul\":5139:5145   */\n  0x00\n    /* \"#utility.yul\":5176:5177   */\n  0x02\n    /* \"#utility.yul\":5170:5174   */\n  dup3\n    /* \"#utility.yul\":5166:5178   */\n  div\n    /* \"#utility.yul\":5156:5178   */\n  swap1\n  pop\n    /* \"#utility.yul\":5223:5224   */\n  0x01\n    /* \"#utility.yul\":5217:5221   */\n  dup3\n    /* \"#utility.yul\":5213:5225   */\n  and\n    /* \"#utility.yul\":5244:5262   */\n  dup1\n    /* \"#utility.yul\":5234:5315   */\n  tag_109\n  jumpi\n    /* \"#utility.yul\":5300:5304   */\n  0x7f\n    /* \"#utility.yul\":5292:5298   */\n  dup3\n    /* \"#utility.yul\":5288:5305   */\n  and\n    /* \"#utility.yul\":5278:5305   */\n  swap2\n  pop\n    /* \"#utility.yul\":5234:5315   */\ntag_109:\n    /* \"#utility.yul\":5362:5364   */\n  0x20\n    /* \"#utility.yul\":5354:5360   */\n  dup3\n    /* \"#utility.yul\":5351:5365   */\n  lt\n    /* \"#utility.yul\":5331:5349   */\n  dup2\n    /* \"#utility.yul\":5328:5366   */\n  eq\n    /* \"#utility.yul\":5325:5409   */\n  iszero\n  tag_110\n  jumpi\n    /* \"#utility.yul\":5381:5399   */\n  tag_111\n  tag_112\n  jump\t// in\ntag_111:\n    /* \"#utility.yul\":5325:5409   */\ntag_110:\n    /* \"#utility.yul\":5146:5415   */\n  pop\n    /* \"#utility.yul\":5095:5415   */\n  swap2\n  swap1\n  pop\n  jump\t// out\n    /* \"#utility.yul\":5421:5702   */\ntag_89:\n    /* \"#utility.yul\":5504:5531   */\n  tag_114\n    /* \"#utility.yul\":5526:5530   */\n  dup3\n    /* \"#utility.yul\":5504:5531   */\n  tag_96\n  jump\t// in\ntag_114:\n    /* \"#utility.yul\":5496:5502   */\n  dup2\n    /* \"#utility.yul\":5492:5532   */\n  add\n    /* \"#utility.yul\":5634:5640   */\n  dup2\n    /* \"#utility.yul\":5622:5632   */\n  dup2\n    /* \"#utility.yul\":5619:5641   */\n  lt\n    /* \"#utility.yul\":5598:5616   */\n  0xffffffffffffffff\n    /* \"#utility.yul\":5586:5596   */\n  dup3\n    /* \"#utility.yul\":5583:5617   */\n  gt\n    /* \"#utility.yul\":5580:5642   */\n  or\n    /* \"#utility.yul\":5577:5665   */\n  iszero\n  tag_115\n  jumpi\n    /* \"#utility.yul\":5645:5663   */\n  tag_116\n  tag_94\n  jump\t// in\ntag_116:\n    /* \"#utility.yul\":5577:5665   */\ntag_115:\n    /* \"#utility.yul\":5685:5695   */\n  dup1\n    /* \"#utility.yul\":5681:5683   */\n  0x40\n    /* \"#utility.yul\":5674:5696   */\n  mstore\n    /* \"#utility.yul\":5464:5702   */\n  pop\n    /* \"#utility.yul\":5421:5702   */\n  pop\n  pop\n  jump\t// out\n    /* \"#utility.yul\":5708:5888   */\ntag_112:\n    /* \"#utility.yul\":5756:5833   */\n  0x4e487b7100000000000000000000000000000000000000000000000000000000\n    /* \"#utility.yul\":5753:5754   */\n  0x00\n    /* \"#utility.yul\":5746:5834   */\n  mstore\n    /* \"#utility.yul\":5853:5857   */\n  0x22\n    /* \"#utility.yul\":5850:5851   */\n  0x04\n    /* \"#utility.yul\":5843:5858   */\n  mstore\n    /* \"#utility.yul\":5877:5881   */\n  0x24\n    /* \"#utility.yul\":5874:5875   */\n  0x00\n    /* \"#utility.yul\":5867:5882   */\n  revert\n    /* \"#utility.yul\":5894:6074   */\ntag_94:\n    /* \"#utility.yul\":5942:6019   */\n  0x4e487b7100000000000000000000000000000000000000000000000000000000\n    /* \"#utility.yul\":5939:5940   */\n  0x00\n    /* \"#utility.yul\":5932:6020   */\n  mstore\n    /* \"#utility.yul\":6039:6043   */\n  0x41\n    /* \"#utility.yul\":6036:6037   */\n  0x04\n    /* \"#utility.yul\":6029:6044   */\n  mstore\n    /* \"#utility.yul\":6063:6067   */\n  0x24\n    /* \"#utility.yul\":6060:6061   */\n  0x00\n    /* \"#utility.yul\":6053:6068   */\n  revert\n    /* \"#utility.yul\":6080:6197   */\ntag_49:\n    /* \"#utility.yul\":6189:6190   */\n  0x00\n    /* \"#utility.yul\":6186:6187   */\n  dup1\n    /* \"#utility.yul\":6179:6191   */\n  revert\n    /* \"#utility.yul\":6203:6320   */\ntag_38:\n    /* \"#utility.yul\":6312:6313   */\n  0x00\n    /* \"#utility.yul\":6309:6310   */\n  dup1\n    /* \"#utility.yul\":6302:6314   */\n  revert\n    /* \"#utility.yul\":6326:6443   */\ntag_62:\n    /* \"#utility.yul\":6435:6436   */\n  0x00\n    /* \"#utility.yul\":6432:6433   */\n  dup1\n    /* \"#utility.yul\":6425:6437   */\n  revert\n    /* \"#utility.yul\":6449:6566   */\ntag_58:\n    /* \"#utility.yul\":6558:6559   */\n  0x00\n    /* \"#utility.yul\":6555:6556   */\n  dup1\n    /* \"#utility.yul\":6548:6560   */\n  revert\n    /* \"#utility.yul\":6572:6674   */\ntag_96:\n    /* \"#utility.yul\":6613:6619   */\n  0x00\n    /* \"#utility.yul\":6664:6666   */\n  0x1f\n    /* \"#utility.yul\":6660:6667   */\n  not\n    /* \"#utility.yul\":6655:6657   */\n  0x1f\n    /* \"#utility.yul\":6648:6653   */\n  dup4\n    /* \"#utility.yul\":6644:6658   */\n  add\n    /* \"#utility.yul\":6640:6668   */\n  and\n    /* \"#utility.yul\":6630:6668   */\n  swap1\n  pop\n    /* \"#utility.yul\":6572:6674   */\n  swap2\n  swap1\n  pop\n  jump\t// out\n    /* \"#utility.yul\":6680:6802   */\ntag_44:\n    /* \"#utility.yul\":6753:6777   */\n  tag_125\n    /* \"#utility.yul\":6771:6776   */\n  dup2\n    /* \"#utility.yul\":6753:6777   */\n  tag_97\n  jump\t// in\ntag_125:\n    /* \"#utility.yul\":6746:6751   */\n  dup2\n    /* \"#utility.yul\":6743:6778   */\n  eq\n    /* \"#utility.yul\":6733:6796   */\n  tag_126\n  jumpi\n    /* \"#utility.yul\":6792:6793   */\n  0x00\n    /* \"#utility.yul\":6789:6790   */\n  dup1\n    /* \"#utility.yul\":6782:6794   */\n  revert\n    /* \"#utility.yul\":6733:6796   */\ntag_126:\n    /* \"#utility.yul\":6680:6802   */\n  pop\n  jump\t// out\n    /* \"#utility.yul\":6808:6930   */\ntag_54:\n    /* \"#utility.yul\":6881:6905   */\n  tag_128\n    /* \"#utility.yul\":6899:6904   */\n  dup2\n    /* \"#utility.yul\":6881:6905   */\n  tag_82\n  jump\t// in\ntag_128:\n    /* \"#utility.yul\":6874:6879   */\n  dup2\n    /* \"#utility.yul\":6871:6906   */\n  eq\n    /* \"#utility.yul\":6861:6924   */\n  tag_129\n  jumpi\n    /* \"#utility.yul\":6920:6921   */\n  0x00\n    /* \"#utility.yul\":6917:6918   */\n  dup1\n    /* \"#utility.yul\":6910:6922   */\n  revert\n    /* \"#utility.yul\":6861:6924   */\ntag_129:\n    /* \"#utility.yul\":6808:6930   */\n  pop\n  jump\t// out\n    /* \"contracts/ERC1404TokenMinKYCv12.sol\":199:16081  contract ERC1404TokenMinKYCv12 is IERC20Token, IERC1404 {... */\ntag_17:\n  dataSize(sub_0)\n  dup1\n  dataOffset(sub_0)\n  0x00\n  codecopy\n  0x00\n  return\nstop\n\nsub_0: assembly {\n        /* \"contracts/ERC1404TokenMinKYCv12.sol\":199:16081  contract ERC1404TokenMinKYCv12 is IERC20Token, IERC1404 {... */\n      mstore(0x40, 0x80)\n      callvalue\n      dup1\n      iszero\n      tag_1\n      jumpi\n      0x00\n      dup1\n      revert\n    tag_1:\n      pop\n      jumpi(tag_2, lt(calldatasize, 0x04))\n      shr(0xe0, calldataload(0x00))\n      dup1\n      0x84f9007f\n      gt\n      tag_47\n      jumpi\n      dup1\n      0xb1b5932a\n      gt\n      tag_48\n      jumpi\n      dup1\n      0xda76e2f3\n      gt\n      tag_49\n      jumpi\n      dup1\n      0xda76e2f3\n      eq\n      tag_41\n      jumpi\n      dup1\n      0xdd62ed3e\n      eq\n      tag_42\n      jumpi\n      dup1\n      0xe59e8013\n      eq\n      tag_43\n      jumpi\n      dup1\n      0xe8379421\n      eq\n      tag_44\n      jumpi\n      dup1\n      0xf2fde38b\n      eq\n      tag_45\n      jumpi\n      dup1\n      0xfd80f5d6\n      eq\n      tag_46\n      jumpi\n      jump(tag_2)\n    tag_49:\n      dup1\n      0xb1b5932a\n      eq\n      tag_36\n      jumpi\n      dup1\n      0xb5b7e6ee\n      eq\n      tag_37\n      jumpi\n      dup1\n      0xb8071575\n      eq\n      tag_38\n      jumpi\n      dup1\n      0xc319e41c\n      eq\n      tag_39\n      jumpi\n      dup1\n      0xd4ce1415\n      eq\n      tag_40\n      jumpi\n      jump(tag_2)\n    tag_48:\n      dup1\n      0x9dc29fac\n      gt\n      tag_50\n      jumpi\n      dup1\n      0x9dc29fac\n      eq\n      tag_30\n      jumpi\n      dup1\n      0xa9059cbb\n      eq\n      tag_31\n      jumpi\n      dup1\n      0xab47a2f9\n      eq\n      tag_32\n      jumpi\n      dup1\n      0xabc30a4b\n      eq\n      tag_33\n      jumpi\n      dup1\n      0xac893db1\n      eq\n      tag_34\n      jumpi\n      dup1\n      0xb091da94\n      eq\n      tag_35\n      jumpi\n      jump(tag_2)\n    tag_50:\n      dup1\n      0x84f9007f\n      eq\n      tag_25\n      jumpi\n      dup1\n      0x8d80e4a0\n      eq\n      tag_26\n      jumpi\n      dup1\n      0x8da5cb5b\n      eq\n      tag_27\n      jumpi\n      dup1\n      0x8fe32e12\n      eq\n      tag_28\n      jumpi\n      dup1\n      0x95d89b41\n      eq\n      tag_29\n      jumpi\n      jump(tag_2)\n    tag_47:\n      dup1\n      0x51aebcd4\n      gt\n      tag_51\n      jumpi\n      dup1\n      0x6401ca76\n      gt\n      tag_52\n      jumpi\n      dup1\n      0x6401ca76\n      eq\n      tag_19\n      jumpi\n      dup1\n      0x654b6f15\n      eq\n      tag_20\n      jumpi\n      dup1\n      0x70a08231\n      eq\n      tag_21\n      jumpi\n      dup1\n      0x7169698c\n      eq\n      tag_22\n      jumpi\n      dup1\n      0x7cae04f7\n      eq\n      tag_23\n      jumpi\n      dup1\n      0x7f4ab1dd\n      eq\n      tag_24\n      jumpi\n      jump(tag_2)\n    tag_52:\n      dup1\n      0x51aebcd4\n      eq\n      tag_14\n      jumpi\n      dup1\n      0x54fd4d50\n      eq\n      tag_15\n      jumpi\n      dup1\n      0x59a72ddc\n      eq\n      tag_16\n      jumpi\n      dup1\n      0x62a3d4bd\n      eq\n      tag_17\n      jumpi\n      dup1\n      0x639c86ce\n      eq\n      tag_18\n      jumpi\n      jump(tag_2)\n    tag_51:\n      dup1\n      0x23b872dd\n      gt\n      tag_53\n      jumpi\n      dup1\n      0x23b872dd\n      eq\n      tag_8\n      jumpi\n      dup1\n      0x2b8e797a\n      eq\n      tag_9\n      jumpi\n      dup1\n      0x313ce567\n      eq\n      tag_10\n      jumpi\n      dup1\n      0x3a24ddc5\n      eq\n      tag_11\n      jumpi\n      dup1\n      0x40c10f19\n      eq\n      tag_12\n      jumpi\n      dup1\n      0x45968836\n      eq\n      tag_13\n      jumpi\n      jump(tag_2)\n    tag_53:\n      dup1\n      0x06fdde03\n      eq\n      tag_3\n      jumpi\n      dup1\n      0x095ea7b3\n      eq\n      tag_4\n      jumpi\n      dup1\n      0x09fc3892\n      eq\n      tag_5\n      jumpi\n      dup1\n      0x11d6f0aa\n      eq\n      tag_6\n      jumpi\n      dup1\n      0x18160ddd\n      eq\n      tag_7\n      jumpi\n    tag_2:\n      0x00\n      dup1\n      revert\n        /* \"contracts/ERC1404TokenMinKYCv12.sol\":2331:2349  string public name */\n    tag_3:\n      tag_54\n      tag_55\n      jump\t// in\n    tag_54:\n      mload(0x40)\n      tag_56\n      swap2\n      swap1\n      tag_57\n      jump\t// in\n    tag_56:\n      mload(0x40)\n      dup1\n      swap2\n      sub\n      swap1\n      return\n        /* \"contracts/ERC1404TokenMinKYCv12.sol\":13092:13443  function approve(... */\n    tag_4:\n      tag_58\n      0x04\n      dup1\n      calldatasize\n      sub\n      dup2\n      add\n      swap1\n      tag_59\n      swap2\n      swap1\n      tag_60\n      jump\t// in\n    tag_59:\n      tag_61\n      jump\t// in\n    tag_58:\n      mload(0x40)\n      tag_62\n      swap2\n      swap1\n      tag_63\n      jump\t// in\n    tag_62:\n      mload(0x40)\n      dup1\n      swap2\n      sub\n      swap1\n      return\n        /* \"contracts/ERC1404TokenMinKYCv12.sol\":7020:7364  function bulkWhitelistWallets (... */\n    tag_5:\n      tag_64\n      0x04\n      dup1\n      calldatasize\n      sub\n      dup2\n      add\n      swap1\n      tag_65\n      swap2\n      swap1\n      tag_66\n      jump\t// in\n    tag_65:\n      tag_67\n      jump\t// in\n    tag_64:\n      stop\n        /* \"contracts/ERC1404TokenMinKYCv12.sol\":2882:2936  uint8 public constant Max_Allowed_Investors_Exceed = 1 */\n    tag_6:\n      tag_68\n      tag_69\n      jump\t// in\n    tag_68:\n      mload(0x40)\n      tag_70\n      swap2\n      swap1\n      tag_71\n      jump\t// in\n    tag_70:\n      mload(0x40)\n      dup1\n      swap2\n      sub\n      swap1\n      return\n        /* \"contracts/ERC1404TokenMinKYCv12.sol\":12843:12941  function totalSupply() ... */\n    tag_7:\n      tag_72\n      tag_73\n      jump\t// in\n    tag_72:\n      mload(0x40)\n      tag_74\n      swap2\n      swap1\n      tag_75\n      jump\t// in\n    tag_74:\n      mload(0x40)\n      dup1\n      swap2\n      sub\n      swap1\n      return\n        /* \"contracts/ERC1404TokenMinKYCv12.sol\":13869:14331  function transferFrom(... */\n    tag_8:\n      tag_76\n      0x04\n      dup1\n      calldatasize\n      sub\n      dup2\n      add\n      swap1\n      tag_77\n      swap2\n      swap1\n      tag_78\n      jump\t// in\n    tag_77:\n      tag_79\n      jump\t// in\n    tag_76:\n      mload(0x40)\n      tag_80\n      swap2\n      swap1\n      tag_63\n      jump\t// in\n    tag_80:\n      mload(0x40)\n      dup1\n      swap2\n      sub\n      swap1\n      return\n        /* \"contracts/ERC1404TokenMinKYCv12.sol\":6742:7017  function modifyKYCData (... */\n    tag_9:\n      tag_81\n      0x04\n      dup1\n      calldatasize\n      sub\n      dup2\n      add\n      swap1\n      tag_82\n      swap2\n      swap1\n      tag_83\n      jump\t// in\n    tag_82:\n      tag_84\n      jump\t// in\n    tag_81:\n      stop\n        /* \"contracts/ERC1404TokenMinKYCv12.sol\":2137:2165  uint256 public decimals = 18 */\n    tag_10:\n      tag_85\n      tag_86\n      jump\t// in\n    tag_85:\n      mload(0x40)\n      tag_87\n      swap2\n      swap1\n      tag_75\n      jump\t// in\n    tag_87:\n      mload(0x40)\n      dup1\n      swap2\n      sub\n      swap1\n      return\n        /* \"contracts/ERC1404TokenMinKYCv12.sol\":14364:14555  function forceTransferToken(... */\n    tag_11:\n      tag_88\n      0x04\n      dup1\n      calldatasize\n      sub\n      dup2\n      add\n      swap1\n      tag_89\n      swap2\n      swap1\n      tag_60\n      jump\t// in\n    tag_89:\n      tag_90\n      jump\t// in\n    tag_88:\n      mload(0x40)\n      tag_91\n      swap2\n      swap1\n      tag_63\n      jump\t// in\n    tag_91:\n      mload(0x40)\n      dup1\n      swap2\n      sub\n      swap1\n      return\n        /* \"contracts/ERC1404TokenMinKYCv12.sol\":15346:15670  function mint(address account, uint256 amount) ... */\n    tag_12:\n      tag_92\n      0x04\n      dup1\n      calldatasize\n      sub\n      dup2\n      add\n      swap1\n      tag_93\n      swap2\n      swap1\n      tag_60\n      jump\t// in\n    tag_93:\n      tag_94\n      jump\t// in\n    tag_92:\n      mload(0x40)\n      tag_95\n      swap2\n      swap1\n      tag_63\n      jump\t// in\n    tag_95:\n      mload(0x40)\n      dup1\n      swap2\n      sub\n      swap1\n      return\n        /* \"contracts/ERC1404TokenMinKYCv12.sol\":2663:2703  uint256 public currentTotalInvestors = 0 */\n    tag_13:\n      tag_96\n      tag_97\n      jump\t// in\n    tag_96:\n      mload(0x40)\n      tag_98\n      swap2\n      swap1\n      tag_75\n      jump\t// in\n    tag_98:\n      mload(0x40)\n      dup1\n      swap2\n      sub\n      swap1\n      return\n        /* \"contracts/ERC1404TokenMinKYCv12.sol\":4627:4812  function resetCompanyLegalDocs(string memory _CompanyLegalDocs) ... */\n    tag_14:\n      tag_99\n      0x04\n      dup1\n      calldatasize\n      sub\n      dup2\n      add\n      swap1\n      tag_100\n      swap2\n      swap1\n      tag_101\n      jump\t// in\n    tag_100:\n      tag_102\n      jump\t// in\n    tag_99:\n      stop\n        /* \"contracts/ERC1404TokenMinKYCv12.sol\":2168:2197  string public version = \"1.2\" */\n    tag_15:\n      tag_103\n      tag_104\n      jump\t// in\n    tag_103:\n      mload(0x40)\n      tag_105\n      swap2\n      swap1\n      tag_57\n      jump\t// in\n    tag_105:\n      mload(0x40)\n      dup1\n      swap2\n      sub\n      swap1\n      return\n        /* \"contracts/ERC1404TokenMinKYCv12.sol\":2380:2410  string public ShareCertificate */\n    tag_16:\n      tag_106\n      tag_107\n      jump\t// in\n    tag_106:\n      mload(0x40)\n      tag_108\n      swap2\n      swap1\n      tag_57\n      jump\t// in\n    tag_108:\n      mload(0x40)\n      dup1\n      swap2\n      sub\n      swap1\n      return\n        /* \"contracts/ERC1404TokenMinKYCv12.sol\":4977:5299  function resetAllowedInvestors(uint256 _allowedInvestors) ... */\n    tag_17:\n      tag_109\n      0x04\n      dup1\n      calldatasize\n      sub\n      dup2\n      add\n      swap1\n      tag_110\n      swap2\n      swap1\n      tag_111\n      jump\t// in\n    tag_110:\n      tag_112\n      jump\t// in\n    tag_109:\n      stop\n        /* \"contracts/ERC1404TokenMinKYCv12.sol\":2748:2787  uint256 public tradingHoldingPeriod = 1 */\n    tag_18:\n      tag_113\n      tag_114\n      jump\t// in\n    tag_113:\n      mload(0x40)\n      tag_115\n      swap2\n      swap1\n      tag_75\n      jump\t// in\n    tag_115:\n      mload(0x40)\n      dup1\n      swap2\n      sub\n      swap1\n      return\n        /* \"contracts/ERC1404TokenMinKYCv12.sol\":2708:2743  uint256 public allowedInvestors = 0 */\n    tag_19:\n      tag_116\n      tag_117\n      jump\t// in\n    tag_116:\n      mload(0x40)\n      tag_118\n      swap2\n      swap1\n      tag_75\n      jump\t// in\n    tag_118:\n      mload(0x40)\n      dup1\n      swap2\n      sub\n      swap1\n      return\n        /* \"contracts/ERC1404TokenMinKYCv12.sol\":2200:2245  string public IssuancePlatform = \"DigiShares\" */\n    tag_20:\n      tag_119\n      tag_120\n      jump\t// in\n    tag_119:\n      mload(0x40)\n      tag_121\n      swap2\n      swap1\n      tag_57\n      jump\t// in\n    tag_121:\n      mload(0x40)\n      dup1\n      swap2\n      sub\n      swap1\n      return\n        /* \"contracts/ERC1404TokenMinKYCv12.sol\":12948:13083  function balanceOf(address account) ... */\n    tag_21:\n      tag_122\n      0x04\n      dup1\n      calldatasize\n      sub\n      dup2\n      add\n      swap1\n      tag_123\n      swap2\n      swap1\n      tag_124\n      jump\t// in\n    tag_123:\n      tag_125\n      jump\t// in\n    tag_122:\n      mload(0x40)\n      tag_126\n      swap2\n      swap1\n      tag_75\n      jump\t// in\n    tag_126:\n      mload(0x40)\n      dup1\n      swap2\n      sub\n      swap1\n      return\n        /* \"contracts/ERC1404TokenMinKYCv12.sol\":2823:2879  uint8 public constant No_Transfer_Restrictions_Found = 0 */\n    tag_22:\n      tag_127\n      tag_128\n      jump\t// in\n    tag_127:\n      mload(0x40)\n      tag_129\n      swap2\n      swap1\n      tag_71\n      jump\t// in\n    tag_129:\n      mload(0x40)\n      dup1\n      swap2\n      sub\n      swap1\n      return\n        /* \"contracts/ERC1404TokenMinKYCv12.sol\":2248:2291  string public issuanceProtocol = \"ERC-1404\" */\n    tag_23:\n      tag_130\n      tag_131\n      jump\t// in\n    tag_130:\n      mload(0x40)\n      tag_132\n      swap2\n      swap1\n      tag_57\n      jump\t// in\n    tag_132:\n      mload(0x40)\n      dup1\n      swap2\n      sub\n      swap1\n      return\n        /* \"contracts/ERC1404TokenMinKYCv12.sol\":11332:12761  function messageForTransferRestriction (uint8 restrictionCode)... */\n    tag_24:\n      tag_133\n      0x04\n      dup1\n      calldatasize\n      sub\n      dup2\n      add\n      swap1\n      tag_134\n      swap2\n      swap1\n      tag_135\n      jump\t// in\n    tag_134:\n      tag_136\n      jump\t// in\n    tag_133:\n      mload(0x40)\n      tag_137\n      swap2\n      swap1\n      tag_57\n      jump\t// in\n    tag_137:\n      mload(0x40)\n      dup1\n      swap2\n      sub\n      swap1\n      return\n        /* \"contracts/ERC1404TokenMinKYCv12.sol\":2413:2442  string public CompanyHomepage */\n    tag_25:\n      tag_138\n      tag_139\n      jump\t// in\n    tag_138:\n      mload(0x40)\n      tag_140\n      swap2\n      swap1\n      tag_57\n      jump\t// in\n    tag_140:\n      mload(0x40)\n      dup1\n      swap2\n      sub\n      swap1\n      return\n        /* \"contracts/ERC1404TokenMinKYCv12.sol\":3041:3100  uint8 public constant Sender_Not_Whitelisted_or_Blocked = 4 */\n    tag_26:\n      tag_141\n      tag_142\n      jump\t// in\n    tag_141:\n      mload(0x40)\n      tag_143\n      swap2\n      swap1\n      tag_71\n      jump\t// in\n    tag_143:\n      mload(0x40)\n      dup1\n      swap2\n      sub\n      swap1\n      return\n        /* \"contracts/ERC1404TokenMinKYCv12.sol\":5634:5719  function owner() ... */\n    tag_27:\n      tag_144\n      tag_145\n      jump\t// in\n    tag_144:\n      mload(0x40)\n      tag_146\n      swap2\n      swap1\n      tag_147\n      jump\t// in\n    tag_146:\n      mload(0x40)\n      dup1\n      swap2\n      sub\n      swap1\n      return\n        /* \"contracts/ERC1404TokenMinKYCv12.sol\":2939:2983  uint8 public constant Transfers_Disabled = 2 */\n    tag_28:\n      tag_148\n      tag_149\n      jump\t// in\n    tag_148:\n      mload(0x40)\n      tag_150\n      swap2\n      swap1\n      tag_71\n      jump\t// in\n    tag_150:\n      mload(0x40)\n      dup1\n      swap2\n      sub\n      swap1\n      return\n        /* \"contracts/ERC1404TokenMinKYCv12.sol\":2355:2375  string public symbol */\n    tag_29:\n      tag_151\n      tag_152\n      jump\t// in\n    tag_151:\n      mload(0x40)\n      tag_153\n      swap2\n      swap1\n      tag_57\n      jump\t// in\n    tag_153:\n      mload(0x40)\n      dup1\n      swap2\n      sub\n      swap1\n      return\n        /* \"contracts/ERC1404TokenMinKYCv12.sol\":15677:16078  function burn(address account, uint256 amount) ... */\n    tag_30:\n      tag_154\n      0x04\n      dup1\n      calldatasize\n      sub\n      dup2\n      add\n      swap1\n      tag_155\n      swap2\n      swap1\n      tag_60\n      jump\t// in\n    tag_155:\n      tag_156\n      jump\t// in\n    tag_154:\n      mload(0x40)\n      tag_157\n      swap2\n      swap1\n      tag_63\n      jump\t// in\n    tag_157:\n      mload(0x40)\n      dup1\n      swap2\n      sub\n      swap1\n      return\n        /* \"contracts/ERC1404TokenMinKYCv12.sol\":13610:13862  function transfer(... */\n    tag_31:\n      tag_158\n      0x04\n      dup1\n      calldatasize\n      sub\n      dup2\n      add\n      swap1\n      tag_159\n      swap2\n      swap1\n      tag_60\n      jump\t// in\n    tag_159:\n      tag_160\n      jump\t// in\n    tag_158:\n      mload(0x40)\n      tag_161\n      swap2\n      swap1\n      tag_63\n      jump\t// in\n    tag_161:\n      mload(0x40)\n      dup1\n      swap2\n      sub\n      swap1\n      return\n        /* \"contracts/ERC1404TokenMinKYCv12.sol\":8055:8200  function getKYCData(address user) ... */\n    tag_32:\n      tag_162\n      0x04\n      dup1\n      calldatasize\n      sub\n      dup2\n      add\n      swap1\n      tag_163\n      swap2\n      swap1\n      tag_124\n      jump\t// in\n    tag_163:\n      tag_164\n      jump\t// in\n    tag_162:\n      mload(0x40)\n      tag_165\n      swap3\n      swap2\n      swap1\n      tag_166\n      jump\t// in\n    tag_165:\n      mload(0x40)\n      dup1\n      swap2\n      sub\n      swap1\n      return\n        /* \"contracts/ERC1404TokenMinKYCv12.sol\":4440:4620  function resetCompanyHomepage(string memory _CompanyHomepage) ... */\n    tag_33:\n      tag_167\n      0x04\n      dup1\n      calldatasize\n      sub\n      dup2\n      add\n      swap1\n      tag_168\n      swap2\n      swap1\n      tag_101\n      jump\t// in\n    tag_168:\n      tag_169\n      jump\t// in\n    tag_167:\n      stop\n        /* \"contracts/ERC1404TokenMinKYCv12.sol\":4248:4434  function resetShareCertificate(string memory _ShareCertificate) ... */\n    tag_34:\n      tag_170\n      0x04\n      dup1\n      calldatasize\n      sub\n      dup2\n      add\n      swap1\n      tag_171\n      swap2\n      swap1\n      tag_101\n      jump\t// in\n    tag_171:\n      tag_172\n      jump\t// in\n    tag_170:\n      stop\n        /* \"contracts/ERC1404TokenMinKYCv12.sol\":2986:3038  uint8 public constant Transfer_Value_Cannot_Zero = 3 */\n    tag_35:\n      tag_173\n      tag_174\n      jump\t// in\n    tag_173:\n      mload(0x40)\n      tag_175\n      swap2\n      swap1\n      tag_71\n      jump\t// in\n    tag_175:\n      mload(0x40)\n      dup1\n      swap2\n      sub\n      swap1\n      return\n        /* \"contracts/ERC1404TokenMinKYCv12.sol\":2445:2475  string public CompanyLegalDocs */\n    tag_36:\n      tag_176\n      tag_177\n      jump\t// in\n    tag_176:\n      mload(0x40)\n      tag_178\n      swap2\n      swap1\n      tag_57\n      jump\t// in\n    tag_178:\n      mload(0x40)\n      dup1\n      swap2\n      sub\n      swap1\n      return\n        /* \"contracts/ERC1404TokenMinKYCv12.sol\":5306:5500  function setTradingHoldingPeriod(uint256 _tradingHoldingPeriod) ... */\n    tag_37:\n      tag_179\n      0x04\n      dup1\n      calldatasize\n      sub\n      dup2\n      add\n      swap1\n      tag_180\n      swap2\n      swap1\n      tag_111\n      jump\t// in\n    tag_180:\n      tag_181\n      jump\t// in\n    tag_179:\n      stop\n        /* \"contracts/ERC1404TokenMinKYCv12.sol\":3167:3220  uint8 public constant Sender_Under_Holding_Period = 6 */\n    tag_38:\n      tag_182\n      tag_183\n      jump\t// in\n    tag_182:\n      mload(0x40)\n      tag_184\n      swap2\n      swap1\n      tag_71\n      jump\t// in\n    tag_184:\n      mload(0x40)\n      dup1\n      swap2\n      sub\n      swap1\n      return\n        /* \"contracts/ERC1404TokenMinKYCv12.sol\":6218:6380  function setWhitelistAuthorityStatus(address user)... */\n    tag_39:\n      tag_185\n      0x04\n      dup1\n      calldatasize\n      sub\n      dup2\n      add\n      swap1\n      tag_186\n      swap2\n      swap1\n      tag_124\n      jump\t// in\n    tag_186:\n      tag_187\n      jump\t// in\n    tag_185:\n      stop\n        /* \"contracts/ERC1404TokenMinKYCv12.sol\":8791:11325  function detectTransferRestriction (address _from, address _to, uint256 value) ... */\n    tag_40:\n      tag_188\n      0x04\n      dup1\n      calldatasize\n      sub\n      dup2\n      add\n      swap1\n      tag_189\n      swap2\n      swap1\n      tag_78\n      jump\t// in\n    tag_189:\n      tag_190\n      jump\t// in\n    tag_188:\n      mload(0x40)\n      tag_191\n      swap2\n      swap1\n      tag_71\n      jump\t// in\n    tag_191:\n      mload(0x40)\n      dup1\n      swap2\n      sub\n      swap1\n      return\n        /* \"contracts/ERC1404TokenMinKYCv12.sol\":6382:6551  function removeWhitelistAuthorityStatus(address user)... */\n    tag_41:\n      tag_192\n      0x04\n      dup1\n      calldatasize\n      sub\n      dup2\n      add\n      swap1\n      tag_193\n      swap2\n      swap1\n      tag_124\n      jump\t// in\n    tag_193:\n      tag_194\n      jump\t// in\n    tag_192:\n      stop\n        /* \"contracts/ERC1404TokenMinKYCv12.sol\":13452:13602  function allowance(address ownby, address spender) ... */\n    tag_42:\n      tag_195\n      0x04\n      dup1\n      calldatasize\n      sub\n      dup2\n      add\n      swap1\n      tag_196\n      swap2\n      swap1\n      tag_197\n      jump\t// in\n    tag_196:\n      tag_198\n      jump\t// in\n    tag_195:\n      mload(0x40)\n      tag_199\n      swap2\n      swap1\n      tag_75\n      jump\t// in\n    tag_199:\n      mload(0x40)\n      dup1\n      swap2\n      sub\n      swap1\n      return\n        /* \"contracts/ERC1404TokenMinKYCv12.sol\":3223:3278  uint8 public constant Receiver_Under_Holding_Period = 7 */\n    tag_43:\n      tag_200\n      tag_201\n      jump\t// in\n    tag_200:\n      mload(0x40)\n      tag_202\n      swap2\n      swap1\n      tag_71\n      jump\t// in\n    tag_202:\n      mload(0x40)\n      dup1\n      swap2\n      sub\n      swap1\n      return\n        /* \"contracts/ERC1404TokenMinKYCv12.sol\":6554:6686  function getWhitelistAuthorityStatus(address user)... */\n    tag_44:\n      tag_203\n      0x04\n      dup1\n      calldatasize\n      sub\n      dup2\n      add\n      swap1\n      tag_204\n      swap2\n      swap1\n      tag_124\n      jump\t// in\n    tag_204:\n      tag_205\n      jump\t// in\n    tag_203:\n      mload(0x40)\n      tag_206\n      swap2\n      swap1\n      tag_63\n      jump\t// in\n    tag_206:\n      mload(0x40)\n      dup1\n      swap2\n      sub\n      swap1\n      return\n        /* \"contracts/ERC1404TokenMinKYCv12.sol\":5839:6004  function transferOwnership(address newOwner) ... */\n    tag_45:\n      tag_207\n      0x04\n      dup1\n      calldatasize\n      sub\n      dup2\n      add\n      swap1\n      tag_208\n      swap2\n      swap1\n      tag_124\n      jump\t// in\n    tag_208:\n      tag_209\n      jump\t// in\n    tag_207:\n      stop\n        /* \"contracts/ERC1404TokenMinKYCv12.sol\":3103:3164  uint8 public constant Receiver_Not_Whitelisted_or_Blocked = 5 */\n    tag_46:\n      tag_210\n      tag_211\n      jump\t// in\n    tag_210:\n      mload(0x40)\n      tag_212\n      swap2\n      swap1\n      tag_71\n      jump\t// in\n    tag_212:\n      mload(0x40)\n      dup1\n      swap2\n      sub\n      swap1\n      return\n        /* \"contracts/ERC1404TokenMinKYCv12.sol\":2331:2349  string public name */\n    tag_55:\n      0x0b\n      dup1\n      sload\n      tag_213\n      swap1\n      tag_214\n      jump\t// in\n    tag_213:\n      dup1\n      0x1f\n      add\n      0x20\n      dup1\n      swap2\n      div\n      mul\n      0x20\n      add\n      mload(0x40)\n      swap1\n      dup2\n      add\n      0x40\n      mstore\n      dup1\n      swap3\n      swap2\n      swap1\n      dup2\n      dup2\n      mstore\n      0x20\n      add\n      dup3\n      dup1\n      sload\n      tag_215\n      swap1\n      tag_214\n      jump\t// in\n    tag_215:\n      dup1\n      iszero\n      tag_216\n      jumpi\n      dup1\n      0x1f\n      lt\n      tag_217\n      jumpi\n      0x0100\n      dup1\n      dup4\n      sload\n      div\n      mul\n      dup4\n      mstore\n      swap2\n      0x20\n      add\n      swap2\n      jump(tag_216)\n    tag_217:\n      dup3\n      add\n      swap2\n      swap1\n      0x00\n      mstore\n      keccak256(0x00, 0x20)\n      swap1\n    tag_218:\n      dup2\n      sload\n      dup2\n      mstore\n      swap1\n      0x01\n      add\n      swap1\n      0x20\n      add\n      dup1\n      dup4\n      gt\n      tag_218\n      jumpi\n      dup3\n      swap1\n      sub\n      0x1f\n      and\n      dup3\n      add\n      swap2\n    tag_216:\n      pop\n      pop\n      pop\n      pop\n      pop\n      dup2\n      jump\t// out\n        /* \"contracts/ERC1404TokenMinKYCv12.sol\":13092:13443  function approve(... */\n    tag_61:\n        /* \"contracts/ERC1404TokenMinKYCv12.sol\":13197:13201  bool */\n      0x00\n        /* \"contracts/ERC1404TokenMinKYCv12.sol\":13241:13242  0 */\n      dup1\n        /* \"contracts/ERC1404TokenMinKYCv12.sol\":13222:13243  spender != address(0) */\n      0xffffffffffffffffffffffffffffffffffffffff\n      and\n        /* \"contracts/ERC1404TokenMinKYCv12.sol\":13222:13229  spender */\n      dup4\n        /* \"contracts/ERC1404TokenMinKYCv12.sol\":13222:13243  spender != address(0) */\n      0xffffffffffffffffffffffffffffffffffffffff\n      and\n      eq\n      iszero\n        /* \"contracts/ERC1404TokenMinKYCv12.sol\":13214:13272  require(spender != address(0), \"Zero address not allowed\") */\n      tag_220\n      jumpi\n      mload(0x40)\n      0x08c379a000000000000000000000000000000000000000000000000000000000\n      dup2\n      mstore\n      0x04\n      add\n      tag_221\n      swap1\n      tag_222\n      jump\t// in\n    tag_221:\n      mload(0x40)\n      dup1\n      swap2\n      sub\n      swap1\n      revert\n    tag_220:\n        /* \"contracts/ERC1404TokenMinKYCv12.sol\":13293:13294  0 */\n      0x00\n        /* \"contracts/ERC1404TokenMinKYCv12.sol\":13284:13290  amount */\n      dup3\n        /* \"contracts/ERC1404TokenMinKYCv12.sol\":13284:13294  amount > 0 */\n      gt\n        /* \"contracts/ERC1404TokenMinKYCv12.sol\":13276:13317  require(amount > 0, \"Amount cannot be 0\") */\n      tag_223\n      jumpi\n      mload(0x40)\n      0x08c379a000000000000000000000000000000000000000000000000000000000\n      dup2\n      mstore\n      0x04\n      add\n      tag_224\n      swap1\n      tag_225\n      jump\t// in\n    tag_224:\n      mload(0x40)\n      dup1\n      swap2\n      sub\n      swap1\n      revert\n    tag_223:\n        /* \"contracts/ERC1404TokenMinKYCv12.sol\":13363:13369  amount */\n      dup2\n        /* \"contracts/ERC1404TokenMinKYCv12.sol\":13328:13339  _allowances */\n      0x03\n        /* \"contracts/ERC1404TokenMinKYCv12.sol\":13328:13351  _allowances[msg.sender] */\n      0x00\n        /* \"contracts/ERC1404TokenMinKYCv12.sol\":13340:13350  msg.sender */\n      caller\n        /* \"contracts/ERC1404TokenMinKYCv12.sol\":13328:13351  _allowances[msg.sender] */\n      0xffffffffffffffffffffffffffffffffffffffff\n      and\n      0xffffffffffffffffffffffffffffffffffffffff\n      and\n      dup2\n      mstore\n      0x20\n      add\n      swap1\n      dup2\n      mstore\n      0x20\n      add\n      0x00\n      keccak256\n        /* \"contracts/ERC1404TokenMinKYCv12.sol\":13328:13360  _allowances[msg.sender][spender] */\n      0x00\n        /* \"contracts/ERC1404TokenMinKYCv12.sol\":13352:13359  spender */\n      dup6\n        /* \"contracts/ERC1404TokenMinKYCv12.sol\":13328:13360  _allowances[msg.sender][spender] */\n      0xffffffffffffffffffffffffffffffffffffffff\n      and\n      0xffffffffffffffffffffffffffffffffffffffff\n      and\n      dup2\n      mstore\n      0x20\n      add\n      swap1\n      dup2\n      mstore\n      0x20\n      add\n      0x00\n      keccak256\n        /* \"contracts/ERC1404TokenMinKYCv12.sol\":13328:13369  _allowances[msg.sender][spender] = amount */\n      dup2\n      swap1\n      sstore\n      pop\n        /* \"contracts/ERC1404TokenMinKYCv12.sol\":13405:13412  spender */\n      dup3\n        /* \"contracts/ERC1404TokenMinKYCv12.sol\":13384:13421  Approval(msg.sender, spender, amount) */\n      0xffffffffffffffffffffffffffffffffffffffff\n      and\n        /* \"contracts/ERC1404TokenMinKYCv12.sol\":13393:13403  msg.sender */\n      caller\n        /* \"contracts/ERC1404TokenMinKYCv12.sol\":13384:13421  Approval(msg.sender, spender, amount) */\n      0xffffffffffffffffffffffffffffffffffffffff\n      and\n      0x8c5be1e5ebec7d5bd14f71427d1e84f3dd0314c0f7b2291e5b200ac8c7c3b925\n        /* \"contracts/ERC1404TokenMinKYCv12.sol\":13414:13420  amount */\n      dup5\n        /* \"contracts/ERC1404TokenMinKYCv12.sol\":13384:13421  Approval(msg.sender, spender, amount) */\n      mload(0x40)\n      tag_226\n      swap2\n      swap1\n      tag_75\n      jump\t// in\n    tag_226:\n      mload(0x40)\n      dup1\n      swap2\n      sub\n      swap1\n      log3\n        /* \"contracts/ERC1404TokenMinKYCv12.sol\":13432:13436  true */\n      0x01\n        /* \"contracts/ERC1404TokenMinKYCv12.sol\":13425:13436  return true */\n      swap1\n      pop\n        /* \"contracts/ERC1404TokenMinKYCv12.sol\":13092:13443  function approve(... */\n      swap3\n      swap2\n      pop\n      pop\n      jump\t// out\n        /* \"contracts/ERC1404TokenMinKYCv12.sol\":7020:7364  function bulkWhitelistWallets (... */\n    tag_67:\n        /* \"contracts/ERC1404TokenMinKYCv12.sol\":7206:7210  true */\n      0x01\n        /* \"contracts/ERC1404TokenMinKYCv12.sol\":7164:7210  _whitelistControlAuthority[msg.sender] == true */\n      iszero\n      iszero\n        /* \"contracts/ERC1404TokenMinKYCv12.sol\":7164:7190  _whitelistControlAuthority */\n      0x05\n        /* \"contracts/ERC1404TokenMinKYCv12.sol\":7164:7202  _whitelistControlAuthority[msg.sender] */\n      0x00\n        /* \"contracts/ERC1404TokenMinKYCv12.sol\":7191:7201  msg.sender */\n      caller\n        /* \"contracts/ERC1404TokenMinKYCv12.sol\":7164:7202  _whitelistControlAuthority[msg.sender] */\n      0xffffffffffffffffffffffffffffffffffffffff\n      and\n      0xffffffffffffffffffffffffffffffffffffffff\n      and\n      dup2\n      mstore\n      0x20\n      add\n      swap1\n      dup2\n      mstore\n      0x20\n      add\n      0x00\n      keccak256\n      0x00\n      swap1\n      sload\n      swap1\n      0x0100\n      exp\n      swap1\n      div\n      0xff\n      and\n        /* \"contracts/ERC1404TokenMinKYCv12.sol\":7164:7210  _whitelistControlAuthority[msg.sender] == true */\n      iszero\n      iszero\n      eq\n        /* \"contracts/ERC1404TokenMinKYCv12.sol\":7156:7238  require(_whitelistControlAuthority[msg.sender] == true, \"Not Whitelist Authority\") */\n      tag_228\n      jumpi\n      mload(0x40)\n      0x08c379a000000000000000000000000000000000000000000000000000000000\n      dup2\n      mstore\n      0x04\n      add\n      tag_229\n      swap1\n      tag_230\n      jump\t// in\n    tag_229:\n      mload(0x40)\n      dup1\n      swap2\n      sub\n      swap1\n      revert\n    tag_228:\n        /* \"contracts/ERC1404TokenMinKYCv12.sol\":7247:7253  uint i */\n      0x00\n        /* \"contracts/ERC1404TokenMinKYCv12.sol\":7242:7359  for (uint i=0; i<account.length; i++) {... */\n    tag_231:\n        /* \"contracts/ERC1404TokenMinKYCv12.sol\":7259:7266  account */\n      dup4\n        /* \"contracts/ERC1404TokenMinKYCv12.sol\":7259:7273  account.length */\n      mload\n        /* \"contracts/ERC1404TokenMinKYCv12.sol\":7257:7258  i */\n      dup2\n        /* \"contracts/ERC1404TokenMinKYCv12.sol\":7257:7273  i<account.length */\n      lt\n        /* \"contracts/ERC1404TokenMinKYCv12.sol\":7242:7359  for (uint i=0; i<account.length; i++) {... */\n      iszero\n      tag_232\n      jumpi\n        /* \"contracts/ERC1404TokenMinKYCv12.sol\":7285:7351  setupKYCDataForUser( account[i], buyRestriction, sellRestriction ) */\n      tag_234\n        /* \"contracts/ERC1404TokenMinKYCv12.sol\":7306:7313  account */\n      dup5\n        /* \"contracts/ERC1404TokenMinKYCv12.sol\":7314:7315  i */\n      dup3\n        /* \"contracts/ERC1404TokenMinKYCv12.sol\":7306:7316  account[i] */\n      dup2\n      mload\n      dup2\n      lt\n      tag_235\n      jumpi\n      tag_236\n      tag_237\n      jump\t// in\n    tag_236:\n    tag_235:\n      0x20\n      mul\n      0x20\n      add\n      add\n      mload\n        /* \"contracts/ERC1404TokenMinKYCv12.sol\":7318:7332  buyRestriction */\n      dup5\n        /* \"contracts/ERC1404TokenMinKYCv12.sol\":7334:7349  sellRestriction */\n      dup5\n        /* \"contracts/ERC1404TokenMinKYCv12.sol\":7285:7304  setupKYCDataForUser */\n      tag_238\n        /* \"contracts/ERC1404TokenMinKYCv12.sol\":7285:7351  setupKYCDataForUser( account[i], buyRestriction, sellRestriction ) */\n      jump\t// in\n    tag_234:\n        /* \"contracts/ERC1404TokenMinKYCv12.sol\":7275:7278  i++ */\n      dup1\n      dup1\n      tag_239\n      swap1\n      tag_240\n      jump\t// in\n    tag_239:\n      swap2\n      pop\n      pop\n        /* \"contracts/ERC1404TokenMinKYCv12.sol\":7242:7359  for (uint i=0; i<account.length; i++) {... */\n      jump(tag_231)\n    tag_232:\n      pop\n        /* \"contracts/ERC1404TokenMinKYCv12.sol\":7020:7364  function bulkWhitelistWallets (... */\n      pop\n      pop\n      pop\n      jump\t// out\n        /* \"contracts/ERC1404TokenMinKYCv12.sol\":2882:2936  uint8 public constant Max_Allowed_Investors_Exceed = 1 */\n    tag_69:\n        /* \"contracts/ERC1404TokenMinKYCv12.sol\":2935:2936  1 */\n      0x01\n        /* \"contracts/ERC1404TokenMinKYCv12.sol\":2882:2936  uint8 public constant Max_Allowed_Investors_Exceed = 1 */\n      dup2\n      jump\t// out\n        /* \"contracts/ERC1404TokenMinKYCv12.sol\":12843:12941  function totalSupply() ... */\n    tag_73:\n        /* \"contracts/ERC1404TokenMinKYCv12.sol\":12905:12912  uint256 */\n      0x00\n        /* \"contracts/ERC1404TokenMinKYCv12.sol\":12925:12937  _totalSupply */\n      sload(0x0a)\n        /* \"contracts/ERC1404TokenMinKYCv12.sol\":12918:12937  return _totalSupply */\n      swap1\n      pop\n        /* \"contracts/ERC1404TokenMinKYCv12.sol\":12843:12941  function totalSupply() ... */\n      swap1\n      jump\t// out\n        /* \"contracts/ERC1404TokenMinKYCv12.sol\":13869:14331  function transferFrom(... */\n    tag_79:\n        /* \"contracts/ERC1404TokenMinKYCv12.sol\":14047:14051  bool */\n      0x00\n        /* \"contracts/ERC1404TokenMinKYCv12.sol\":14010:14016  sender */\n      dup4\n        /* \"contracts/ERC1404TokenMinKYCv12.sol\":14018:14027  recipient */\n      dup4\n        /* \"contracts/ERC1404TokenMinKYCv12.sol\":14029:14035  amount */\n      dup4\n        /* \"contracts/ERC1404TokenMinKYCv12.sol\":8483:8504  uint8 restrictionCode */\n      0x00\n        /* \"contracts/ERC1404TokenMinKYCv12.sol\":8507:8549  detectTransferRestriction(from, to, value) */\n      tag_243\n        /* \"contracts/ERC1404TokenMinKYCv12.sol\":8533:8537  from */\n      dup5\n        /* \"contracts/ERC1404TokenMinKYCv12.sol\":8539:8541  to */\n      dup5\n        /* \"contracts/ERC1404TokenMinKYCv12.sol\":8543:8548  value */\n      dup5\n        /* \"contracts/ERC1404TokenMinKYCv12.sol\":8507:8532  detectTransferRestriction */\n      tag_190\n        /* \"contracts/ERC1404TokenMinKYCv12.sol\":8507:8549  detectTransferRestriction(from, to, value) */\n      jump\t// in\n    tag_243:\n        /* \"contracts/ERC1404TokenMinKYCv12.sol\":8483:8549  uint8 restrictionCode = detectTransferRestriction(from, to, value) */\n      swap1\n      pop\n        /* \"contracts/ERC1404TokenMinKYCv12.sol\":8576:8577  0 */\n      0x00\n        /* \"contracts/ERC1404TokenMinKYCv12.sol\":8557:8572  restrictionCode */\n      dup2\n        /* \"contracts/ERC1404TokenMinKYCv12.sol\":8557:8577  restrictionCode != 0 */\n      0xff\n      and\n      eq\n        /* \"contracts/ERC1404TokenMinKYCv12.sol\":8553:8776  if( restrictionCode != 0 ) {... */\n      tag_244\n      jumpi\n        /* \"contracts/ERC1404TokenMinKYCv12.sol\":8585:8611  string memory errorMessage */\n      0x00\n        /* \"contracts/ERC1404TokenMinKYCv12.sol\":8614:8660  messageForTransferRestriction(restrictionCode) */\n      tag_245\n        /* \"contracts/ERC1404TokenMinKYCv12.sol\":8644:8659  restrictionCode */\n      dup3\n        /* \"contracts/ERC1404TokenMinKYCv12.sol\":8614:8643  messageForTransferRestriction */\n      tag_136\n        /* \"contracts/ERC1404TokenMinKYCv12.sol\":8614:8660  messageForTransferRestriction(restrictionCode) */\n      jump\t// in\n    tag_245:\n        /* \"contracts/ERC1404TokenMinKYCv12.sol\":8585:8660  string memory errorMessage = messageForTransferRestriction(restrictionCode) */\n      swap1\n      pop\n        /* \"contracts/ERC1404TokenMinKYCv12.sol\":8705:8707  to */\n      dup4\n        /* \"contracts/ERC1404TokenMinKYCv12.sol\":8670:8723  TransferRestrictionDetected( from, to, errorMessage ) */\n      0xffffffffffffffffffffffffffffffffffffffff\n      and\n        /* \"contracts/ERC1404TokenMinKYCv12.sol\":8699:8703  from */\n      dup6\n        /* \"contracts/ERC1404TokenMinKYCv12.sol\":8670:8723  TransferRestrictionDetected( from, to, errorMessage ) */\n      0xffffffffffffffffffffffffffffffffffffffff\n      and\n      0x2fdd8c36dbe5614497208665e8d30c570421680d09984e3153829ddabd30c094\n        /* \"contracts/ERC1404TokenMinKYCv12.sol\":8709:8721  errorMessage */\n      dup4\n        /* \"contracts/ERC1404TokenMinKYCv12.sol\":8670:8723  TransferRestrictionDetected( from, to, errorMessage ) */\n      mload(0x40)\n      tag_246\n      swap2\n      swap1\n      tag_57\n      jump\t// in\n    tag_246:\n      mload(0x40)\n      dup1\n      swap2\n      sub\n      swap1\n      log3\n        /* \"contracts/ERC1404TokenMinKYCv12.sol\":8741:8753  errorMessage */\n      dup1\n        /* \"contracts/ERC1404TokenMinKYCv12.sol\":8734:8754  revert(errorMessage) */\n      mload(0x40)\n      0x08c379a000000000000000000000000000000000000000000000000000000000\n      dup2\n      mstore\n      0x04\n      add\n      tag_247\n      swap2\n      swap1\n      tag_57\n      jump\t// in\n    tag_247:\n      mload(0x40)\n      dup1\n      swap2\n      sub\n      swap1\n      revert\n        /* \"contracts/ERC1404TokenMinKYCv12.sol\":8553:8776  if( restrictionCode != 0 ) {... */\n    tag_244:\n        /* \"contracts/ERC1404TokenMinKYCv12.sol\":14109:14115  amount */\n      dup6\n        /* \"contracts/ERC1404TokenMinKYCv12.sol\":14074:14085  _allowances */\n      0x03\n        /* \"contracts/ERC1404TokenMinKYCv12.sol\":14074:14093  _allowances[sender] */\n      0x00\n        /* \"contracts/ERC1404TokenMinKYCv12.sol\":14086:14092  sender */\n      dup11\n        /* \"contracts/ERC1404TokenMinKYCv12.sol\":14074:14093  _allowances[sender] */\n      0xffffffffffffffffffffffffffffffffffffffff\n      and\n      0xffffffffffffffffffffffffffffffffffffffff\n      and\n      dup2\n      mstore\n      0x20\n      add\n      swap1\n      dup2\n      mstore\n      0x20\n      add\n      0x00\n      keccak256\n        /* \"contracts/ERC1404TokenMinKYCv12.sol\":14074:14105  _allowances[sender][msg.sender] */\n      0x00\n        /* \"contracts/ERC1404TokenMinKYCv12.sol\":14094:14104  msg.sender */\n      caller\n        /* \"contracts/ERC1404TokenMinKYCv12.sol\":14074:14105  _allowances[sender][msg.sender] */\n      0xffffffffffffffffffffffffffffffffffffffff\n      and\n      0xffffffffffffffffffffffffffffffffffffffff\n      and\n      dup2\n      mstore\n      0x20\n      add\n      swap1\n      dup2\n      mstore\n      0x20\n      add\n      0x00\n      keccak256\n      sload\n        /* \"contracts/ERC1404TokenMinKYCv12.sol\":14074:14115  _allowances[sender][msg.sender] >= amount */\n      lt\n      iszero\n        /* \"contracts/ERC1404TokenMinKYCv12.sol\":14066:14160  require(_allowances[sender][msg.sender] >= amount, \"Amount cannot be greater than Allowance\" ) */\n      tag_250\n      jumpi\n      mload(0x40)\n      0x08c379a000000000000000000000000000000000000000000000000000000000\n      dup2\n      mstore\n      0x04\n      add\n      tag_251\n      swap1\n      tag_252\n      jump\t// in\n    tag_251:\n      mload(0x40)\n      dup1\n      swap2\n      sub\n      swap1\n      revert\n    tag_250:\n        /* \"contracts/ERC1404TokenMinKYCv12.sol\":14164:14224  transferSharesBetweenInvestors ( sender, recipient, amount ) */\n      tag_253\n        /* \"contracts/ERC1404TokenMinKYCv12.sol\":14197:14203  sender */\n      dup9\n        /* \"contracts/ERC1404TokenMinKYCv12.sol\":14205:14214  recipient */\n      dup9\n        /* \"contracts/ERC1404TokenMinKYCv12.sol\":14216:14222  amount */\n      dup9\n        /* \"contracts/ERC1404TokenMinKYCv12.sol\":14164:14194  transferSharesBetweenInvestors */\n      tag_254\n        /* \"contracts/ERC1404TokenMinKYCv12.sol\":14164:14224  transferSharesBetweenInvestors ( sender, recipient, amount ) */\n      jump\t// in\n    tag_253:\n        /* \"contracts/ERC1404TokenMinKYCv12.sol\":14302:14308  amount */\n      dup6\n        /* \"contracts/ERC1404TokenMinKYCv12.sol\":14268:14279  _allowances */\n      0x03\n        /* \"contracts/ERC1404TokenMinKYCv12.sol\":14268:14287  _allowances[sender] */\n      0x00\n        /* \"contracts/ERC1404TokenMinKYCv12.sol\":14280:14286  sender */\n      dup11\n        /* \"contracts/ERC1404TokenMinKYCv12.sol\":14268:14287  _allowances[sender] */\n      0xffffffffffffffffffffffffffffffffffffffff\n      and\n      0xffffffffffffffffffffffffffffffffffffffff\n      and\n      dup2\n      mstore\n      0x20\n      add\n      swap1\n      dup2\n      mstore\n      0x20\n      add\n      0x00\n      keccak256\n        /* \"contracts/ERC1404TokenMinKYCv12.sol\":14268:14299  _allowances[sender][msg.sender] */\n      0x00\n        /* \"contracts/ERC1404TokenMinKYCv12.sol\":14288:14298  msg.sender */\n      caller\n        /* \"contracts/ERC1404TokenMinKYCv12.sol\":14268:14299  _allowances[sender][msg.sender] */\n      0xffffffffffffffffffffffffffffffffffffffff\n      and\n      0xffffffffffffffffffffffffffffffffffffffff\n      and\n      dup2\n      mstore\n      0x20\n      add\n      swap1\n      dup2\n      mstore\n      0x20\n      add\n      0x00\n      keccak256\n      sload\n        /* \"contracts/ERC1404TokenMinKYCv12.sol\":14268:14308  _allowances[sender][msg.sender] - amount */\n      tag_255\n      swap2\n      swap1\n      tag_256\n      jump\t// in\n    tag_255:\n        /* \"contracts/ERC1404TokenMinKYCv12.sol\":14234:14245  _allowances */\n      0x03\n        /* \"contracts/ERC1404TokenMinKYCv12.sol\":14234:14253  _allowances[sender] */\n      0x00\n        /* \"contracts/ERC1404TokenMinKYCv12.sol\":14246:14252  sender */\n      dup11\n        /* \"contracts/ERC1404TokenMinKYCv12.sol\":14234:14253  _allowances[sender] */\n      0xffffffffffffffffffffffffffffffffffffffff\n      and\n      0xffffffffffffffffffffffffffffffffffffffff\n      and\n      dup2\n      mstore\n      0x20\n      add\n      swap1\n      dup2\n      mstore\n      0x20\n      add\n      0x00\n      keccak256\n        /* \"contracts/ERC1404TokenMinKYCv12.sol\":14234:14265  _allowances[sender][msg.sender] */\n      0x00\n        /* \"contracts/ERC1404TokenMinKYCv12.sol\":14254:14264  msg.sender */\n      caller\n        /* \"contracts/ERC1404TokenMinKYCv12.sol\":14234:14265  _allowances[sender][msg.sender] */\n      0xffffffffffffffffffffffffffffffffffffffff\n      and\n      0xffffffffffffffffffffffffffffffffffffffff\n      and\n      dup2\n      mstore\n      0x20\n      add\n      swap1\n      dup2\n      mstore\n      0x20\n      add\n      0x00\n      keccak256\n        /* \"contracts/ERC1404TokenMinKYCv12.sol\":14234:14308  _allowances[sender][msg.sender] = _allowances[sender][msg.sender] - amount */\n      dup2\n      swap1\n      sstore\n      pop\n        /* \"contracts/ERC1404TokenMinKYCv12.sol\":14320:14324  true */\n      0x01\n        /* \"contracts/ERC1404TokenMinKYCv12.sol\":14313:14324  return true */\n      swap5\n      pop\n        /* \"contracts/ERC1404TokenMinKYCv12.sol\":8473:8783  {... */\n      pop\n        /* \"contracts/ERC1404TokenMinKYCv12.sol\":13869:14331  function transferFrom(... */\n      pop\n      pop\n      pop\n      swap4\n      swap3\n      pop\n      pop\n      pop\n      jump\t// out\n        /* \"contracts/ERC1404TokenMinKYCv12.sol\":6742:7017  function modifyKYCData (... */\n    tag_84:\n        /* \"contracts/ERC1404TokenMinKYCv12.sol\":6914:6918  true */\n      0x01\n        /* \"contracts/ERC1404TokenMinKYCv12.sol\":6872:6918  _whitelistControlAuthority[msg.sender] == true */\n      iszero\n      iszero\n        /* \"contracts/ERC1404TokenMinKYCv12.sol\":6872:6898  _whitelistControlAuthority */\n      0x05\n        /* \"contracts/ERC1404TokenMinKYCv12.sol\":6872:6910  _whitelistControlAuthority[msg.sender] */\n      0x00\n        /* \"contracts/ERC1404TokenMinKYCv12.sol\":6899:6909  msg.sender */\n      caller\n        /* \"contracts/ERC1404TokenMinKYCv12.sol\":6872:6910  _whitelistControlAuthority[msg.sender] */\n      0xffffffffffffffffffffffffffffffffffffffff\n      and\n      0xffffffffffffffffffffffffffffffffffffffff\n      and\n      dup2\n      mstore\n      0x20\n      add\n      swap1\n      dup2\n      mstore\n      0x20\n      add\n      0x00\n      keccak256\n      0x00\n      swap1\n      sload\n      swap1\n      0x0100\n      exp\n      swap1\n      div\n      0xff\n      and\n        /* \"contracts/ERC1404TokenMinKYCv12.sol\":6872:6918  _whitelistControlAuthority[msg.sender] == true */\n      iszero\n      iszero\n      eq\n        /* \"contracts/ERC1404TokenMinKYCv12.sol\":6864:6946  require(_whitelistControlAuthority[msg.sender] == true, \"Not Whitelist Authority\") */\n      tag_258\n      jumpi\n      mload(0x40)\n      0x08c379a000000000000000000000000000000000000000000000000000000000\n      dup2\n      mstore\n      0x04\n      add\n      tag_259\n      swap1\n      tag_230\n      jump\t// in\n    tag_259:\n      mload(0x40)\n      dup1\n      swap2\n      sub\n      swap1\n      revert\n    tag_258:\n        /* \"contracts/ERC1404TokenMinKYCv12.sol\":6950:7013  setupKYCDataForUser( account, buyRestriction, sellRestriction ) */\n      tag_260\n        /* \"contracts/ERC1404TokenMinKYCv12.sol\":6971:6978  account */\n      dup4\n        /* \"contracts/ERC1404TokenMinKYCv12.sol\":6980:6994  buyRestriction */\n      dup4\n        /* \"contracts/ERC1404TokenMinKYCv12.sol\":6996:7011  sellRestriction */\n      dup4\n        /* \"contracts/ERC1404TokenMinKYCv12.sol\":6950:6969  setupKYCDataForUser */\n      tag_238\n        /* \"contracts/ERC1404TokenMinKYCv12.sol\":6950:7013  setupKYCDataForUser( account, buyRestriction, sellRestriction ) */\n      jump\t// in\n    tag_260:\n        /* \"contracts/ERC1404TokenMinKYCv12.sol\":6742:7017  function modifyKYCData (... */\n      pop\n      pop\n      pop\n      jump\t// out\n        /* \"contracts/ERC1404TokenMinKYCv12.sol\":2137:2165  uint256 public decimals = 18 */\n    tag_86:\n      sload(0x06)\n      dup2\n      jump\t// out\n        /* \"contracts/ERC1404TokenMinKYCv12.sol\":14364:14555  function forceTransferToken(... */\n    tag_90:\n        /* \"contracts/ERC1404TokenMinKYCv12.sol\":14473:14477  bool */\n      0x00\n        /* \"contracts/ERC1404TokenMinKYCv12.sol\":5773:5783  msg.sender */\n      caller\n        /* \"contracts/ERC1404TokenMinKYCv12.sol\":5763:5783  _owner == msg.sender */\n      0xffffffffffffffffffffffffffffffffffffffff\n      and\n        /* \"contracts/ERC1404TokenMinKYCv12.sol\":5763:5769  _owner */\n      0x04\n      0x00\n      swap1\n      sload\n      swap1\n      0x0100\n      exp\n      swap1\n      div\n      0xffffffffffffffffffffffffffffffffffffffff\n      and\n        /* \"contracts/ERC1404TokenMinKYCv12.sol\":5763:5783  _owner == msg.sender */\n      0xffffffffffffffffffffffffffffffffffffffff\n      and\n      eq\n        /* \"contracts/ERC1404TokenMinKYCv12.sol\":5755:5816  require(_owner == msg.sender, \"Only owner can call function\") */\n      tag_262\n      jumpi\n      mload(0x40)\n      0x08c379a000000000000000000000000000000000000000000000000000000000\n      dup2\n      mstore\n      0x04\n      add\n      tag_263\n      swap1\n      tag_264\n      jump\t// in\n    tag_263:\n      mload(0x40)\n      dup1\n      swap2\n      sub\n      swap1\n      revert\n    tag_262:\n        /* \"contracts/ERC1404TokenMinKYCv12.sol\":14484:14536  transferSharesBetweenInvestors(from, _owner, amount) */\n      tag_266\n        /* \"contracts/ERC1404TokenMinKYCv12.sol\":14515:14519  from */\n      dup4\n        /* \"contracts/ERC1404TokenMinKYCv12.sol\":14521:14527  _owner */\n      0x04\n      0x00\n      swap1\n      sload\n      swap1\n      0x0100\n      exp\n      swap1\n      div\n      0xffffffffffffffffffffffffffffffffffffffff\n      and\n        /* \"contracts/ERC1404TokenMinKYCv12.sol\":14529:14535  amount */\n      dup5\n        /* \"contracts/ERC1404TokenMinKYCv12.sol\":14484:14514  transferSharesBetweenInvestors */\n      tag_254\n        /* \"contracts/ERC1404TokenMinKYCv12.sol\":14484:14536  transferSharesBetweenInvestors(from, _owner, amount) */\n      jump\t// in\n    tag_266:\n        /* \"contracts/ERC1404TokenMinKYCv12.sol\":14547:14551  true */\n      0x01\n        /* \"contracts/ERC1404TokenMinKYCv12.sol\":14540:14551  return true */\n      swap1\n      pop\n        /* \"contracts/ERC1404TokenMinKYCv12.sol\":14364:14555  function forceTransferToken(... */\n      swap3\n      swap2\n      pop\n      pop\n      jump\t// out\n        /* \"contracts/ERC1404TokenMinKYCv12.sol\":15346:15670  function mint(address account, uint256 amount) ... */\n    tag_94:\n        /* \"contracts/ERC1404TokenMinKYCv12.sol\":15427:15431  bool */\n      0x00\n        /* \"contracts/ERC1404TokenMinKYCv12.sol\":5773:5783  msg.sender */\n      caller\n        /* \"contracts/ERC1404TokenMinKYCv12.sol\":5763:5783  _owner == msg.sender */\n      0xffffffffffffffffffffffffffffffffffffffff\n      and\n        /* \"contracts/ERC1404TokenMinKYCv12.sol\":5763:5769  _owner */\n      0x04\n      0x00\n      swap1\n      sload\n      swap1\n      0x0100\n      exp\n      swap1\n      div\n      0xffffffffffffffffffffffffffffffffffffffff\n      and\n        /* \"contracts/ERC1404TokenMinKYCv12.sol\":5763:5783  _owner == msg.sender */\n      0xffffffffffffffffffffffffffffffffffffffff\n      and\n      eq\n        /* \"contracts/ERC1404TokenMinKYCv12.sol\":5755:5816  require(_owner == msg.sender, \"Only owner can call function\") */\n      tag_268\n      jumpi\n      mload(0x40)\n      0x08c379a000000000000000000000000000000000000000000000000000000000\n      dup2\n      mstore\n      0x04\n      add\n      tag_269\n      swap1\n      tag_264\n      jump\t// in\n    tag_269:\n      mload(0x40)\n      dup1\n      swap2\n      sub\n      swap1\n      revert\n    tag_268:\n        /* \"contracts/ERC1404TokenMinKYCv12.sol\":15470:15471  0 */\n      0x00\n        /* \"contracts/ERC1404TokenMinKYCv12.sol\":15451:15472  account != address(0) */\n      0xffffffffffffffffffffffffffffffffffffffff\n      and\n        /* \"contracts/ERC1404TokenMinKYCv12.sol\":15451:15458  account */\n      dup4\n        /* \"contracts/ERC1404TokenMinKYCv12.sol\":15451:15472  account != address(0) */\n      0xffffffffffffffffffffffffffffffffffffffff\n      and\n      eq\n      iszero\n        /* \"contracts/ERC1404TokenMinKYCv12.sol\":15443:15501  require(account != address(0), \"Zero address not allowed\") */\n      tag_271\n      jumpi\n      mload(0x40)\n      0x08c379a000000000000000000000000000000000000000000000000000000000\n      dup2\n      mstore\n      0x04\n      add\n      tag_272\n      swap1\n      tag_222\n      jump\t// in\n    tag_272:\n      mload(0x40)\n      dup1\n      swap2\n      sub\n      swap1\n      revert\n    tag_271:\n        /* \"contracts/ERC1404TokenMinKYCv12.sol\":15542:15548  amount */\n      dup2\n        /* \"contracts/ERC1404TokenMinKYCv12.sol\":15527:15539  _totalSupply */\n      sload(0x0a)\n        /* \"contracts/ERC1404TokenMinKYCv12.sol\":15527:15548  _totalSupply + amount */\n      tag_273\n      swap2\n      swap1\n      tag_274\n      jump\t// in\n    tag_273:\n        /* \"contracts/ERC1404TokenMinKYCv12.sol\":15512:15524  _totalSupply */\n      0x0a\n        /* \"contracts/ERC1404TokenMinKYCv12.sol\":15512:15548  _totalSupply = _totalSupply + amount */\n      dup2\n      swap1\n      sstore\n      pop\n        /* \"contracts/ERC1404TokenMinKYCv12.sol\":15600:15606  amount */\n      dup2\n        /* \"contracts/ERC1404TokenMinKYCv12.sol\":15579:15588  _balances */\n      0x02\n        /* \"contracts/ERC1404TokenMinKYCv12.sol\":15579:15597  _balances[account] */\n      0x00\n        /* \"contracts/ERC1404TokenMinKYCv12.sol\":15589:15596  account */\n      dup6\n        /* \"contracts/ERC1404TokenMinKYCv12.sol\":15579:15597  _balances[account] */\n      0xffffffffffffffffffffffffffffffffffffffff\n      and\n      0xffffffffffffffffffffffffffffffffffffffff\n      and\n      dup2\n      mstore\n      0x20\n      add\n      swap1\n      dup2\n      mstore\n      0x20\n      add\n      0x00\n      keccak256\n      sload\n        /* \"contracts/ERC1404TokenMinKYCv12.sol\":15579:15606  _balances[account] + amount */\n      tag_275\n      swap2\n      swap1\n      tag_274\n      jump\t// in\n    tag_275:\n        /* \"contracts/ERC1404TokenMinKYCv12.sol\":15558:15567  _balances */\n      0x02\n        /* \"contracts/ERC1404TokenMinKYCv12.sol\":15558:15576  _balances[account] */\n      0x00\n        /* \"contracts/ERC1404TokenMinKYCv12.sol\":15568:15575  account */\n      dup6\n        /* \"contracts/ERC1404TokenMinKYCv12.sol\":15558:15576  _balances[account] */\n      0xffffffffffffffffffffffffffffffffffffffff\n      and\n      0xffffffffffffffffffffffffffffffffffffffff\n      and\n      dup2\n      mstore\n      0x20\n      add\n      swap1\n      dup2\n      mstore\n      0x20\n      add\n      0x00\n      keccak256\n        /* \"contracts/ERC1404TokenMinKYCv12.sol\":15558:15606  _balances[account] = _balances[account] + amount */\n      dup2\n      swap1\n      sstore\n      pop\n        /* \"contracts/ERC1404TokenMinKYCv12.sol\":15632:15639  account */\n      dup3\n        /* \"contracts/ERC1404TokenMinKYCv12.sol\":15621:15648  MintTokens(account, amount) */\n      0xffffffffffffffffffffffffffffffffffffffff\n      and\n      0x7b47457f3af09e5f794b020fd74160963a808f5985883496a096d403d380c343\n        /* \"contracts/ERC1404TokenMinKYCv12.sol\":15641:15647  amount */\n      dup4\n        /* \"contracts/ERC1404TokenMinKYCv12.sol\":15621:15648  MintTokens(account, amount) */\n      mload(0x40)\n      tag_276\n      swap2\n      swap1\n      tag_75\n      jump\t// in\n    tag_276:\n      mload(0x40)\n      dup1\n      swap2\n      sub\n      swap1\n      log2\n        /* \"contracts/ERC1404TokenMinKYCv12.sol\":15659:15663  true */\n      0x01\n        /* \"contracts/ERC1404TokenMinKYCv12.sol\":15652:15663  return true */\n      swap1\n      pop\n        /* \"contracts/ERC1404TokenMinKYCv12.sol\":15346:15670  function mint(address account, uint256 amount) ... */\n      swap3\n      swap2\n      pop\n      pop\n      jump\t// out\n        /* \"contracts/ERC1404TokenMinKYCv12.sol\":2663:2703  uint256 public currentTotalInvestors = 0 */\n    tag_97:\n      sload(0x10)\n      dup2\n      jump\t// out\n        /* \"contracts/ERC1404TokenMinKYCv12.sol\":4627:4812  function resetCompanyLegalDocs(string memory _CompanyLegalDocs) ... */\n    tag_102:\n        /* \"contracts/ERC1404TokenMinKYCv12.sol\":5773:5783  msg.sender */\n      caller\n        /* \"contracts/ERC1404TokenMinKYCv12.sol\":5763:5783  _owner == msg.sender */\n      0xffffffffffffffffffffffffffffffffffffffff\n      and\n        /* \"contracts/ERC1404TokenMinKYCv12.sol\":5763:5769  _owner */\n      0x04\n      0x00\n      swap1\n      sload\n      swap1\n      0x0100\n      exp\n      swap1\n      div\n      0xffffffffffffffffffffffffffffffffffffffff\n      and\n        /* \"contracts/ERC1404TokenMinKYCv12.sol\":5763:5783  _owner == msg.sender */\n      0xffffffffffffffffffffffffffffffffffffffff\n      and\n      eq\n        /* \"contracts/ERC1404TokenMinKYCv12.sol\":5755:5816  require(_owner == msg.sender, \"Only owner can call function\") */\n      tag_278\n      jumpi\n      mload(0x40)\n      0x08c379a000000000000000000000000000000000000000000000000000000000\n      dup2\n      mstore\n      0x04\n      add\n      tag_279\n      swap1\n      tag_264\n      jump\t// in\n    tag_279:\n      mload(0x40)\n      dup1\n      swap2\n      sub\n      swap1\n      revert\n    tag_278:\n        /* \"contracts/ERC1404TokenMinKYCv12.sol\":4738:4755  _CompanyLegalDocs */\n      dup1\n        /* \"contracts/ERC1404TokenMinKYCv12.sol\":4719:4735  CompanyLegalDocs */\n      0x0f\n        /* \"contracts/ERC1404TokenMinKYCv12.sol\":4719:4755  CompanyLegalDocs = _CompanyLegalDocs */\n      swap1\n      dup1\n      mload\n      swap1\n      0x20\n      add\n      swap1\n      tag_281\n      swap3\n      swap2\n      swap1\n      tag_282\n      jump\t// in\n    tag_281:\n      pop\n        /* \"contracts/ERC1404TokenMinKYCv12.sol\":4764:4805  CompanyLegalDocsReset (_CompanyLegalDocs) */\n      0xa555e96a9f6d83b18cbe170e5fd71ebb56fc55f86a115539e9f3038182075a50\n        /* \"contracts/ERC1404TokenMinKYCv12.sol\":4787:4804  _CompanyLegalDocs */\n      dup2\n        /* \"contracts/ERC1404TokenMinKYCv12.sol\":4764:4805  CompanyLegalDocsReset (_CompanyLegalDocs) */\n      mload(0x40)\n      tag_283\n      swap2\n      swap1\n      tag_57\n      jump\t// in\n    tag_283:\n      mload(0x40)\n      dup1\n      swap2\n      sub\n      swap1\n      log1\n        /* \"contracts/ERC1404TokenMinKYCv12.sol\":4627:4812  function resetCompanyLegalDocs(string memory _CompanyLegalDocs) ... */\n      pop\n      jump\t// out\n        /* \"contracts/ERC1404TokenMinKYCv12.sol\":2168:2197  string public version = \"1.2\" */\n    tag_104:\n      0x07\n      dup1\n      sload\n      tag_284\n      swap1\n      tag_214\n      jump\t// in\n    tag_284:\n      dup1\n      0x1f\n      add\n      0x20\n      dup1\n      swap2\n      div\n      mul\n      0x20\n      add\n      mload(0x40)\n      swap1\n      dup2\n      add\n      0x40\n      mstore\n      dup1\n      swap3\n      swap2\n      swap1\n      dup2\n      dup2\n      mstore\n      0x20\n      add\n      dup3\n      dup1\n      sload\n      tag_285\n      swap1\n      tag_214\n      jump\t// in\n    tag_285:\n      dup1\n      iszero\n      tag_286\n      jumpi\n      dup1\n      0x1f\n      lt\n      tag_287\n      jumpi\n      0x0100\n      dup1\n      dup4\n      sload\n      div\n      mul\n      dup4\n      mstore\n      swap2\n      0x20\n      add\n      swap2\n      jump(tag_286)\n    tag_287:\n      dup3\n      add\n      swap2\n      swap1\n      0x00\n      mstore\n      keccak256(0x00, 0x20)\n      swap1\n    tag_288:\n      dup2\n      sload\n      dup2\n      mstore\n      swap1\n      0x01\n      add\n      swap1\n      0x20\n      add\n      dup1\n      dup4\n      gt\n      tag_288\n      jumpi\n      dup3\n      swap1\n      sub\n      0x1f\n      and\n      dup3\n      add\n      swap2\n    tag_286:\n      pop\n      pop\n      pop\n      pop\n      pop\n      dup2\n      jump\t// out\n        /* \"contracts/ERC1404TokenMinKYCv12.sol\":2380:2410  string public ShareCertificate */\n    tag_107:\n      0x0d\n      dup1\n      sload\n      tag_289\n      swap1\n      tag_214\n      jump\t// in\n    tag_289:\n      dup1\n      0x1f\n      add\n      0x20\n      dup1\n      swap2\n      div\n      mul\n      0x20\n      add\n      mload(0x40)\n      swap1\n      dup2\n      add\n      0x40\n      mstore\n      dup1\n      swap3\n      swap2\n      swap1\n      dup2\n      dup2\n      mstore\n      0x20\n      add\n      dup3\n      dup1\n      sload\n      tag_290\n      swap1\n      tag_214\n      jump\t// in\n    tag_290:\n      dup1\n      iszero\n      tag_291\n      jumpi\n      dup1\n      0x1f\n      lt\n      tag_292\n      jumpi\n      0x0100\n      dup1\n      dup4\n      sload\n      div\n      mul\n      dup4\n      mstore\n      swap2\n      0x20\n      add\n      swap2\n      jump(tag_291)\n    tag_292:\n      dup3\n      add\n      swap2\n      swap1\n      0x00\n      mstore\n      keccak256(0x00, 0x20)\n      swap1\n    tag_293:\n      dup2\n      sload\n      dup2\n      mstore\n      swap1\n      0x01\n      add\n      swap1\n      0x20\n      add\n      dup1\n      dup4\n      gt\n      tag_293\n      jumpi\n      dup3\n      swap1\n      sub\n      0x1f\n      and\n      dup3\n      add\n      swap2\n    tag_291:\n      pop\n      pop\n      pop\n      pop\n      pop\n      dup2\n      jump\t// out\n        /* \"contracts/ERC1404TokenMinKYCv12.sol\":4977:5299  function resetAllowedInvestors(uint256 _allowedInvestors) ... */\n    tag_112:\n        /* \"contracts/ERC1404TokenMinKYCv12.sol\":5773:5783  msg.sender */\n      caller\n        /* \"contracts/ERC1404TokenMinKYCv12.sol\":5763:5783  _owner == msg.sender */\n      0xffffffffffffffffffffffffffffffffffffffff\n      and\n        /* \"contracts/ERC1404TokenMinKYCv12.sol\":5763:5769  _owner */\n      0x04\n      0x00\n      swap1\n      sload\n      swap1\n      0x0100\n      exp\n      swap1\n      div\n      0xffffffffffffffffffffffffffffffffffffffff\n      and\n        /* \"contracts/ERC1404TokenMinKYCv12.sol\":5763:5783  _owner == msg.sender */\n      0xffffffffffffffffffffffffffffffffffffffff\n      and\n      eq\n        /* \"contracts/ERC1404TokenMinKYCv12.sol\":5755:5816  require(_owner == msg.sender, \"Only owner can call function\") */\n      tag_295\n      jumpi\n      mload(0x40)\n      0x08c379a000000000000000000000000000000000000000000000000000000000\n      dup2\n      mstore\n      0x04\n      add\n      tag_296\n      swap1\n      tag_264\n      jump\t// in\n    tag_296:\n      mload(0x40)\n      dup1\n      swap2\n      sub\n      swap1\n      revert\n    tag_295:\n        /* \"contracts/ERC1404TokenMinKYCv12.sol\":5087:5088  0 */\n      0x00\n        /* \"contracts/ERC1404TokenMinKYCv12.sol\":5066:5083  _allowedInvestors */\n      dup2\n        /* \"contracts/ERC1404TokenMinKYCv12.sol\":5066:5088  _allowedInvestors != 0 */\n      eq\n        /* \"contracts/ERC1404TokenMinKYCv12.sol\":5062:5202  if( _allowedInvestors != 0 )... */\n      tag_298\n      jumpi\n        /* \"contracts/ERC1404TokenMinKYCv12.sol\":5123:5144  currentTotalInvestors */\n      sload(0x10)\n        /* \"contracts/ERC1404TokenMinKYCv12.sol\":5102:5119  _allowedInvestors */\n      dup2\n        /* \"contracts/ERC1404TokenMinKYCv12.sol\":5102:5144  _allowedInvestors >= currentTotalInvestors */\n      lt\n      iszero\n        /* \"contracts/ERC1404TokenMinKYCv12.sol\":5094:5202  require(_allowedInvestors >= currentTotalInvestors, \"Allowed Investors cannot be less than Current holders\") */\n      tag_299\n      jumpi\n      mload(0x40)\n      0x08c379a000000000000000000000000000000000000000000000000000000000\n      dup2\n      mstore\n      0x04\n      add\n      tag_300\n      swap1\n      tag_301\n      jump\t// in\n    tag_300:\n      mload(0x40)\n      dup1\n      swap2\n      sub\n      swap1\n      revert\n    tag_299:\n        /* \"contracts/ERC1404TokenMinKYCv12.sol\":5062:5202  if( _allowedInvestors != 0 )... */\n    tag_298:\n        /* \"contracts/ERC1404TokenMinKYCv12.sol\":5226:5243  _allowedInvestors */\n      dup1\n        /* \"contracts/ERC1404TokenMinKYCv12.sol\":5207:5223  allowedInvestors */\n      0x11\n        /* \"contracts/ERC1404TokenMinKYCv12.sol\":5207:5243  allowedInvestors = _allowedInvestors */\n      dup2\n      swap1\n      sstore\n      pop\n        /* \"contracts/ERC1404TokenMinKYCv12.sol\":5252:5292  AllowedInvestorsReset(_allowedInvestors) */\n      0x87782743094654fc1484ef46e968abc30c6cd880e70ec8b310eb42641e35eb45\n        /* \"contracts/ERC1404TokenMinKYCv12.sol\":5274:5291  _allowedInvestors */\n      dup2\n        /* \"contracts/ERC1404TokenMinKYCv12.sol\":5252:5292  AllowedInvestorsReset(_allowedInvestors) */\n      mload(0x40)\n      tag_302\n      swap2\n      swap1\n      tag_75\n      jump\t// in\n    tag_302:\n      mload(0x40)\n      dup1\n      swap2\n      sub\n      swap1\n      log1\n        /* \"contracts/ERC1404TokenMinKYCv12.sol\":4977:5299  function resetAllowedInvestors(uint256 _allowedInvestors) ... */\n      pop\n      jump\t// out\n        /* \"contracts/ERC1404TokenMinKYCv12.sol\":2748:2787  uint256 public tradingHoldingPeriod = 1 */\n    tag_114:\n      sload(0x12)\n      dup2\n      jump\t// out\n        /* \"contracts/ERC1404TokenMinKYCv12.sol\":2708:2743  uint256 public allowedInvestors = 0 */\n    tag_117:\n      sload(0x11)\n      dup2\n      jump\t// out\n        /* \"contracts/ERC1404TokenMinKYCv12.sol\":2200:2245  string public IssuancePlatform = \"DigiShares\" */\n    tag_120:\n      0x08\n      dup1\n      sload\n      tag_303\n      swap1\n      tag_214\n      jump\t// in\n    tag_303:\n      dup1\n      0x1f\n      add\n      0x20\n      dup1\n      swap2\n      div\n      mul\n      0x20\n      add\n      mload(0x40)\n      swap1\n      dup2\n      add\n      0x40\n      mstore\n      dup1\n      swap3\n      swap2\n      swap1\n      dup2\n      dup2\n      mstore\n      0x20\n      add\n      dup3\n      dup1\n      sload\n      tag_304\n      swap1\n      tag_214\n      jump\t// in\n    tag_304:\n      dup1\n      iszero\n      tag_305\n      jumpi\n      dup1\n      0x1f\n      lt\n      tag_306\n      jumpi\n      0x0100\n      dup1\n      dup4\n      sload\n      div\n      mul\n      dup4\n      mstore\n      swap2\n      0x20\n      add\n      swap2\n      jump(tag_305)\n    tag_306:\n      dup3\n      add\n      swap2\n      swap1\n      0x00\n      mstore\n      keccak256(0x00, 0x20)\n      swap1\n    tag_307:\n      dup2\n      sload\n      dup2\n      mstore\n      swap1\n      0x01\n      add\n      swap1\n      0x20\n      add\n      dup1\n      dup4\n      gt\n      tag_307\n      jumpi\n      dup3\n      swap1\n      sub\n      0x1f\n      and\n      dup3\n      add\n      swap2\n    tag_305:\n      pop\n      pop\n      pop\n      pop\n      pop\n      dup2\n      jump\t// out\n        /* \"contracts/ERC1404TokenMinKYCv12.sol\":12948:13083  function balanceOf(address account) ... */\n    tag_125:\n        /* \"contracts/ERC1404TokenMinKYCv12.sol\":13032:13039  uint256 */\n      0x00\n        /* \"contracts/ERC1404TokenMinKYCv12.sol\":13058:13067  _balances */\n      0x02\n        /* \"contracts/ERC1404TokenMinKYCv12.sol\":13058:13076  _balances[account] */\n      0x00\n        /* \"contracts/ERC1404TokenMinKYCv12.sol\":13068:13075  account */\n      dup4\n        /* \"contracts/ERC1404TokenMinKYCv12.sol\":13058:13076  _balances[account] */\n      0xffffffffffffffffffffffffffffffffffffffff\n      and\n      0xffffffffffffffffffffffffffffffffffffffff\n      and\n      dup2\n      mstore\n      0x20\n      add\n      swap1\n      dup2\n      mstore\n      0x20\n      add\n      0x00\n      keccak256\n      sload\n        /* \"contracts/ERC1404TokenMinKYCv12.sol\":13051:13076  return _balances[account] */\n      swap1\n      pop\n        /* \"contracts/ERC1404TokenMinKYCv12.sol\":12948:13083  function balanceOf(address account) ... */\n      swap2\n      swap1\n      pop\n      jump\t// out\n        /* \"contracts/ERC1404TokenMinKYCv12.sol\":2823:2879  uint8 public constant No_Transfer_Restrictions_Found = 0 */\n    tag_128:\n        /* \"contracts/ERC1404TokenMinKYCv12.sol\":2878:2879  0 */\n      0x00\n        /* \"contracts/ERC1404TokenMinKYCv12.sol\":2823:2879  uint8 public constant No_Transfer_Restrictions_Found = 0 */\n      dup2\n      jump\t// out\n        /* \"contracts/ERC1404TokenMinKYCv12.sol\":2248:2291  string public issuanceProtocol = \"ERC-1404\" */\n    tag_131:\n      0x09\n      dup1\n      sload\n      tag_309\n      swap1\n      tag_214\n      jump\t// in\n    tag_309:\n      dup1\n      0x1f\n      add\n      0x20\n      dup1\n      swap2\n      div\n      mul\n      0x20\n      add\n      mload(0x40)\n      swap1\n      dup2\n      add\n      0x40\n      mstore\n      dup1\n      swap3\n      swap2\n      swap1\n      dup2\n      dup2\n      mstore\n      0x20\n      add\n      dup3\n      dup1\n      sload\n      tag_310\n      swap1\n      tag_214\n      jump\t// in\n    tag_310:\n      dup1\n      iszero\n      tag_311\n      jumpi\n      dup1\n      0x1f\n      lt\n      tag_312\n      jumpi\n      0x0100\n      dup1\n      dup4\n      sload\n      div\n      mul\n      dup4\n      mstore\n      swap2\n      0x20\n      add\n      swap2\n      jump(tag_311)\n    tag_312:\n      dup3\n      add\n      swap2\n      swap1\n      0x00\n      mstore\n      keccak256(0x00, 0x20)\n      swap1\n    tag_313:\n      dup2\n      sload\n      dup2\n      mstore\n      swap1\n      0x01\n      add\n      swap1\n      0x20\n      add\n      dup1\n      dup4\n      gt\n      tag_313\n      jumpi\n      dup3\n      swap1\n      sub\n      0x1f\n      and\n      dup3\n      add\n      swap2\n    tag_311:\n      pop\n      pop\n      pop\n      pop\n      pop\n      dup2\n      jump\t// out\n        /* \"contracts/ERC1404TokenMinKYCv12.sol\":11332:12761  function messageForTransferRestriction (uint8 restrictionCode)... */\n    tag_136:\n        /* \"contracts/ERC1404TokenMinKYCv12.sol\":11437:11458  string memory message */\n      0x60\n        /* \"contracts/ERC1404TokenMinKYCv12.sol\":2878:2879  0 */\n      0x00\n        /* \"contracts/ERC1404TokenMinKYCv12.sol\":11478:11527  restrictionCode == No_Transfer_Restrictions_Found */\n      0xff\n      and\n        /* \"contracts/ERC1404TokenMinKYCv12.sol\":11478:11493  restrictionCode */\n      dup3\n        /* \"contracts/ERC1404TokenMinKYCv12.sol\":11478:11527  restrictionCode == No_Transfer_Restrictions_Found */\n      0xff\n      and\n      eq\n        /* \"contracts/ERC1404TokenMinKYCv12.sol\":11474:12754  if (restrictionCode == No_Transfer_Restrictions_Found) ... */\n      iszero\n      tag_315\n      jumpi\n        /* \"contracts/ERC1404TokenMinKYCv12.sol\":11542:11584  message = \"No transfer restrictions found\" */\n      mload(0x40)\n      dup1\n      0x40\n      add\n      0x40\n      mstore\n      dup1\n      0x1e\n      dup2\n      mstore\n      0x20\n      add\n      0x4e6f207472616e73666572207265737472696374696f6e7320666f756e640000\n      dup2\n      mstore\n      pop\n      swap1\n      pop\n        /* \"contracts/ERC1404TokenMinKYCv12.sol\":11474:12754  if (restrictionCode == No_Transfer_Restrictions_Found) ... */\n      jump(tag_316)\n    tag_315:\n        /* \"contracts/ERC1404TokenMinKYCv12.sol\":2935:2936  1 */\n      0x01\n        /* \"contracts/ERC1404TokenMinKYCv12.sol\":11603:11650  restrictionCode == Max_Allowed_Investors_Exceed */\n      0xff\n      and\n        /* \"contracts/ERC1404TokenMinKYCv12.sol\":11603:11618  restrictionCode */\n      dup3\n        /* \"contracts/ERC1404TokenMinKYCv12.sol\":11603:11650  restrictionCode == Max_Allowed_Investors_Exceed */\n      0xff\n      and\n      eq\n        /* \"contracts/ERC1404TokenMinKYCv12.sol\":11599:12754  if (restrictionCode == Max_Allowed_Investors_Exceed) ... */\n      iszero\n      tag_317\n      jumpi\n        /* \"contracts/ERC1404TokenMinKYCv12.sol\":11665:11764  message = \"Max allowed investor restriction is in place, this transfer will exceed this limitation\" */\n      mload(0x40)\n      dup1\n      0x80\n      add\n      0x40\n      mstore\n      dup1\n      0x57\n      dup2\n      mstore\n      0x20\n      add\n      data_4440c032e746f33200962f44b90c6baeb8a9490cc8cfdd8f15a36acf65844772\n      0x57\n      swap2\n      codecopy\n      swap1\n      pop\n        /* \"contracts/ERC1404TokenMinKYCv12.sol\":11599:12754  if (restrictionCode == Max_Allowed_Investors_Exceed) ... */\n      jump(tag_318)\n    tag_317:\n        /* \"contracts/ERC1404TokenMinKYCv12.sol\":2982:2983  2 */\n      0x02\n        /* \"contracts/ERC1404TokenMinKYCv12.sol\":11783:11820  restrictionCode == Transfers_Disabled */\n      0xff\n      and\n        /* \"contracts/ERC1404TokenMinKYCv12.sol\":11783:11798  restrictionCode */\n      dup3\n        /* \"contracts/ERC1404TokenMinKYCv12.sol\":11783:11820  restrictionCode == Transfers_Disabled */\n      0xff\n      and\n      eq\n        /* \"contracts/ERC1404TokenMinKYCv12.sol\":11779:12754  if (restrictionCode == Transfers_Disabled) ... */\n      iszero\n      tag_319\n      jumpi\n        /* \"contracts/ERC1404TokenMinKYCv12.sol\":11835:11915  message = \"All transfers are disabled because Holding Period is not yet expired\" */\n      mload(0x40)\n      dup1\n      0x80\n      add\n      0x40\n      mstore\n      dup1\n      0x44\n      dup2\n      mstore\n      0x20\n      add\n      data_c06fda3c41df076643499cebb61f71adfbc909dbd75501db341cc82d5933142b\n      0x44\n      swap2\n      codecopy\n      swap1\n      pop\n        /* \"contracts/ERC1404TokenMinKYCv12.sol\":11779:12754  if (restrictionCode == Transfers_Disabled) ... */\n      jump(tag_320)\n    tag_319:\n        /* \"contracts/ERC1404TokenMinKYCv12.sol\":3037:3038  3 */\n      0x03\n        /* \"contracts/ERC1404TokenMinKYCv12.sol\":11934:11979  restrictionCode == Transfer_Value_Cannot_Zero */\n      0xff\n      and\n        /* \"contracts/ERC1404TokenMinKYCv12.sol\":11934:11949  restrictionCode */\n      dup3\n        /* \"contracts/ERC1404TokenMinKYCv12.sol\":11934:11979  restrictionCode == Transfer_Value_Cannot_Zero */\n      0xff\n      and\n      eq\n        /* \"contracts/ERC1404TokenMinKYCv12.sol\":11930:12754  if (restrictionCode == Transfer_Value_Cannot_Zero) ... */\n      iszero\n      tag_321\n      jumpi\n        /* \"contracts/ERC1404TokenMinKYCv12.sol\":11994:12038  message = \"Zero transfer amount not allowed\" */\n      mload(0x40)\n      dup1\n      0x40\n      add\n      0x40\n      mstore\n      dup1\n      0x20\n      dup2\n      mstore\n      0x20\n      add\n      0x5a65726f207472616e7366657220616d6f756e74206e6f7420616c6c6f776564\n      dup2\n      mstore\n      pop\n      swap1\n      pop\n        /* \"contracts/ERC1404TokenMinKYCv12.sol\":11930:12754  if (restrictionCode == Transfer_Value_Cannot_Zero) ... */\n      jump(tag_322)\n    tag_321:\n        /* \"contracts/ERC1404TokenMinKYCv12.sol\":3099:3100  4 */\n      0x04\n        /* \"contracts/ERC1404TokenMinKYCv12.sol\":12057:12109  restrictionCode == Sender_Not_Whitelisted_or_Blocked */\n      0xff\n      and\n        /* \"contracts/ERC1404TokenMinKYCv12.sol\":12057:12072  restrictionCode */\n      dup3\n        /* \"contracts/ERC1404TokenMinKYCv12.sol\":12057:12109  restrictionCode == Sender_Not_Whitelisted_or_Blocked */\n      0xff\n      and\n      eq\n        /* \"contracts/ERC1404TokenMinKYCv12.sol\":12053:12754  if (restrictionCode == Sender_Not_Whitelisted_or_Blocked) ... */\n      iszero\n      tag_323\n      jumpi\n        /* \"contracts/ERC1404TokenMinKYCv12.sol\":12124:12172  message = \"Sender is not whitelisted or blocked\" */\n      mload(0x40)\n      dup1\n      0x60\n      add\n      0x40\n      mstore\n      dup1\n      0x24\n      dup2\n      mstore\n      0x20\n      add\n      data_f32e889bc43e14f6f361a9fb16e2e4f7ae397532b0ea1cf85b8b8914d3f5dbc4\n      0x24\n      swap2\n      codecopy\n      swap1\n      pop\n        /* \"contracts/ERC1404TokenMinKYCv12.sol\":12053:12754  if (restrictionCode == Sender_Not_Whitelisted_or_Blocked) ... */\n      jump(tag_324)\n    tag_323:\n        /* \"contracts/ERC1404TokenMinKYCv12.sol\":3163:3164  5 */\n      0x05\n        /* \"contracts/ERC1404TokenMinKYCv12.sol\":12191:12245  restrictionCode == Receiver_Not_Whitelisted_or_Blocked */\n      0xff\n      and\n        /* \"contracts/ERC1404TokenMinKYCv12.sol\":12191:12206  restrictionCode */\n      dup3\n        /* \"contracts/ERC1404TokenMinKYCv12.sol\":12191:12245  restrictionCode == Receiver_Not_Whitelisted_or_Blocked */\n      0xff\n      and\n      eq\n        /* \"contracts/ERC1404TokenMinKYCv12.sol\":12187:12754  if (restrictionCode == Receiver_Not_Whitelisted_or_Blocked) ... */\n      iszero\n      tag_325\n      jumpi\n        /* \"contracts/ERC1404TokenMinKYCv12.sol\":12260:12310  message = \"Receiver is not whitelisted or blocked\" */\n      mload(0x40)\n      dup1\n      0x60\n      add\n      0x40\n      mstore\n      dup1\n      0x26\n      dup2\n      mstore\n      0x20\n      add\n      data_0bf17d6579a15f80cddc5ddc4c7802721ab098d4db24a2c055da5f58a25e33a5\n      0x26\n      swap2\n      codecopy\n      swap1\n      pop\n        /* \"contracts/ERC1404TokenMinKYCv12.sol\":12187:12754  if (restrictionCode == Receiver_Not_Whitelisted_or_Blocked) ... */\n      jump(tag_326)\n    tag_325:\n        /* \"contracts/ERC1404TokenMinKYCv12.sol\":3219:3220  6 */\n      0x06\n        /* \"contracts/ERC1404TokenMinKYCv12.sol\":12329:12375  restrictionCode == Sender_Under_Holding_Period */\n      0xff\n      and\n        /* \"contracts/ERC1404TokenMinKYCv12.sol\":12329:12344  restrictionCode */\n      dup3\n        /* \"contracts/ERC1404TokenMinKYCv12.sol\":12329:12375  restrictionCode == Sender_Under_Holding_Period */\n      0xff\n      and\n      eq\n        /* \"contracts/ERC1404TokenMinKYCv12.sol\":12325:12754  if (restrictionCode == Sender_Under_Holding_Period) ... */\n      iszero\n      tag_327\n      jumpi\n        /* \"contracts/ERC1404TokenMinKYCv12.sol\":12390:12506  message = \"Sender is whitelisted but is not eligible to send tokens and under holding period (KYC time restriction)\" */\n      mload(0x40)\n      dup1\n      0xa0\n      add\n      0x40\n      mstore\n      dup1\n      0x68\n      dup2\n      mstore\n      0x20\n      add\n      data_74c2d1263641840c4bf20a32b19f8ec2189d64e295faf5087433fd363b0d0b13\n      0x68\n      swap2\n      codecopy\n      swap1\n      pop\n        /* \"contracts/ERC1404TokenMinKYCv12.sol\":12325:12754  if (restrictionCode == Sender_Under_Holding_Period) ... */\n      jump(tag_328)\n    tag_327:\n        /* \"contracts/ERC1404TokenMinKYCv12.sol\":3277:3278  7 */\n      0x07\n        /* \"contracts/ERC1404TokenMinKYCv12.sol\":12525:12573  restrictionCode == Receiver_Under_Holding_Period */\n      0xff\n      and\n        /* \"contracts/ERC1404TokenMinKYCv12.sol\":12525:12540  restrictionCode */\n      dup3\n        /* \"contracts/ERC1404TokenMinKYCv12.sol\":12525:12573  restrictionCode == Receiver_Under_Holding_Period */\n      0xff\n      and\n      eq\n        /* \"contracts/ERC1404TokenMinKYCv12.sol\":12521:12754  if (restrictionCode == Receiver_Under_Holding_Period) ... */\n      iszero\n      tag_329\n      jumpi\n        /* \"contracts/ERC1404TokenMinKYCv12.sol\":12588:12702  message = \"Receiver is whitelisted but is not yet eligible to receive tokens in his wallet (KYC time restriction)\" */\n      mload(0x40)\n      dup1\n      0xa0\n      add\n      0x40\n      mstore\n      dup1\n      0x66\n      dup2\n      mstore\n      0x20\n      add\n      data_c0b3b74fbdbabd67b27d0f337b8b420091e75c6e12a17cd864ffcacf5ec7db0f\n      0x66\n      swap2\n      codecopy\n      swap1\n      pop\n        /* \"contracts/ERC1404TokenMinKYCv12.sol\":12521:12754  if (restrictionCode == Receiver_Under_Holding_Period) ... */\n      jump(tag_330)\n    tag_329:\n        /* \"contracts/ERC1404TokenMinKYCv12.sol\":12717:12754  message = \"Error code is not defined\" */\n      mload(0x40)\n      dup1\n      0x40\n      add\n      0x40\n      mstore\n      dup1\n      0x19\n      dup2\n      mstore\n      0x20\n      add\n      0x4572726f7220636f6465206973206e6f7420646566696e656400000000000000\n      dup2\n      mstore\n      pop\n      swap1\n      pop\n        /* \"contracts/ERC1404TokenMinKYCv12.sol\":12521:12754  if (restrictionCode == Receiver_Under_Holding_Period) ... */\n    tag_330:\n        /* \"contracts/ERC1404TokenMinKYCv12.sol\":12325:12754  if (restrictionCode == Sender_Under_Holding_Period) ... */\n    tag_328:\n        /* \"contracts/ERC1404TokenMinKYCv12.sol\":12187:12754  if (restrictionCode == Receiver_Not_Whitelisted_or_Blocked) ... */\n    tag_326:\n        /* \"contracts/ERC1404TokenMinKYCv12.sol\":12053:12754  if (restrictionCode == Sender_Not_Whitelisted_or_Blocked) ... */\n    tag_324:\n        /* \"contracts/ERC1404TokenMinKYCv12.sol\":11930:12754  if (restrictionCode == Transfer_Value_Cannot_Zero) ... */\n    tag_322:\n        /* \"contracts/ERC1404TokenMinKYCv12.sol\":11779:12754  if (restrictionCode == Transfers_Disabled) ... */\n    tag_320:\n        /* \"contracts/ERC1404TokenMinKYCv12.sol\":11599:12754  if (restrictionCode == Max_Allowed_Investors_Exceed) ... */\n    tag_318:\n        /* \"contracts/ERC1404TokenMinKYCv12.sol\":11474:12754  if (restrictionCode == No_Transfer_Restrictions_Found) ... */\n    tag_316:\n        /* \"contracts/ERC1404TokenMinKYCv12.sol\":11332:12761  function messageForTransferRestriction (uint8 restrictionCode)... */\n      swap2\n      swap1\n      pop\n      jump\t// out\n        /* \"contracts/ERC1404TokenMinKYCv12.sol\":2413:2442  string public CompanyHomepage */\n    tag_139:\n      0x0e\n      dup1\n      sload\n      tag_331\n      swap1\n      tag_214\n      jump\t// in\n    tag_331:\n      dup1\n      0x1f\n      add\n      0x20\n      dup1\n      swap2\n      div\n      mul\n      0x20\n      add\n      mload(0x40)\n      swap1\n      dup2\n      add\n      0x40\n      mstore\n      dup1\n      swap3\n      swap2\n      swap1\n      dup2\n      dup2\n      mstore\n      0x20\n      add\n      dup3\n      dup1\n      sload\n      tag_332\n      swap1\n      tag_214\n      jump\t// in\n    tag_332:\n      dup1\n      iszero\n      tag_333\n      jumpi\n      dup1\n      0x1f\n      lt\n      tag_334\n      jumpi\n      0x0100\n      dup1\n      dup4\n      sload\n      div\n      mul\n      dup4\n      mstore\n      swap2\n      0x20\n      add\n      swap2\n      jump(tag_333)\n    tag_334:\n      dup3\n      add\n      swap2\n      swap1\n      0x00\n      mstore\n      keccak256(0x00, 0x20)\n      swap1\n    tag_335:\n      dup2\n      sload\n      dup2\n      mstore\n      swap1\n      0x01\n      add\n      swap1\n      0x20\n      add\n      dup1\n      dup4\n      gt\n      tag_335\n      jumpi\n      dup3\n      swap1\n      sub\n      0x1f\n      and\n      dup3\n      add\n      swap2\n    tag_333:\n      pop\n      pop\n      pop\n      pop\n      pop\n      dup2\n      jump\t// out\n        /* \"contracts/ERC1404TokenMinKYCv12.sol\":3041:3100  uint8 public constant Sender_Not_Whitelisted_or_Blocked = 4 */\n    tag_142:\n        /* \"contracts/ERC1404TokenMinKYCv12.sol\":3099:3100  4 */\n      0x04\n        /* \"contracts/ERC1404TokenMinKYCv12.sol\":3041:3100  uint8 public constant Sender_Not_Whitelisted_or_Blocked = 4 */\n      dup2\n      jump\t// out\n        /* \"contracts/ERC1404TokenMinKYCv12.sol\":5634:5719  function owner() ... */\n    tag_145:\n        /* \"contracts/ERC1404TokenMinKYCv12.sol\":5680:5687  address */\n      0x00\n        /* \"contracts/ERC1404TokenMinKYCv12.sol\":5706:5712  _owner */\n      0x04\n      0x00\n      swap1\n      sload\n      swap1\n      0x0100\n      exp\n      swap1\n      div\n      0xffffffffffffffffffffffffffffffffffffffff\n      and\n        /* \"contracts/ERC1404TokenMinKYCv12.sol\":5699:5712  return _owner */\n      swap1\n      pop\n        /* \"contracts/ERC1404TokenMinKYCv12.sol\":5634:5719  function owner() ... */\n      swap1\n      jump\t// out\n        /* \"contracts/ERC1404TokenMinKYCv12.sol\":2939:2983  uint8 public constant Transfers_Disabled = 2 */\n    tag_149:\n        /* \"contracts/ERC1404TokenMinKYCv12.sol\":2982:2983  2 */\n      0x02\n        /* \"contracts/ERC1404TokenMinKYCv12.sol\":2939:2983  uint8 public constant Transfers_Disabled = 2 */\n      dup2\n      jump\t// out\n        /* \"contracts/ERC1404TokenMinKYCv12.sol\":2355:2375  string public symbol */\n    tag_152:\n      0x0c\n      dup1\n      sload\n      tag_337\n      swap1\n      tag_214\n      jump\t// in\n    tag_337:\n      dup1\n      0x1f\n      add\n      0x20\n      dup1\n      swap2\n      div\n      mul\n      0x20\n      add\n      mload(0x40)\n      swap1\n      dup2\n      add\n      0x40\n      mstore\n      dup1\n      swap3\n      swap2\n      swap1\n      dup2\n      dup2\n      mstore\n      0x20\n      add\n      dup3\n      dup1\n      sload\n      tag_338\n      swap1\n      tag_214\n      jump\t// in\n    tag_338:\n      dup1\n      iszero\n      tag_339\n      jumpi\n      dup1\n      0x1f\n      lt\n      tag_340\n      jumpi\n      0x0100\n      dup1\n      dup4\n      sload\n      div\n      mul\n      dup4\n      mstore\n      swap2\n      0x20\n      add\n      swap2\n      jump(tag_339)\n    tag_340:\n      dup3\n      add\n      swap2\n      swap1\n      0x00\n      mstore\n      keccak256(0x00, 0x20)\n      swap1\n    tag_341:\n      dup2\n      sload\n      dup2\n      mstore\n      swap1\n      0x01\n      add\n      swap1\n      0x20\n      add\n      dup1\n      dup4\n      gt\n      tag_341\n      jumpi\n      dup3\n      swap1\n      sub\n      0x1f\n      and\n      dup3\n      add\n      swap2\n    tag_339:\n      pop\n      pop\n      pop\n      pop\n      pop\n      dup2\n      jump\t// out\n        /* \"contracts/ERC1404TokenMinKYCv12.sol\":15677:16078  function burn(address account, uint256 amount) ... */\n    tag_156:\n        /* \"contracts/ERC1404TokenMinKYCv12.sol\":15757:15761  bool */\n      0x00\n        /* \"contracts/ERC1404TokenMinKYCv12.sol\":5773:5783  msg.sender */\n      caller\n        /* \"contracts/ERC1404TokenMinKYCv12.sol\":5763:5783  _owner == msg.sender */\n      0xffffffffffffffffffffffffffffffffffffffff\n      and\n        /* \"contracts/ERC1404TokenMinKYCv12.sol\":5763:5769  _owner */\n      0x04\n      0x00\n      swap1\n      sload\n      swap1\n      0x0100\n      exp\n      swap1\n      div\n      0xffffffffffffffffffffffffffffffffffffffff\n      and\n        /* \"contracts/ERC1404TokenMinKYCv12.sol\":5763:5783  _owner == msg.sender */\n      0xffffffffffffffffffffffffffffffffffffffff\n      and\n      eq\n        /* \"contracts/ERC1404TokenMinKYCv12.sol\":5755:5816  require(_owner == msg.sender, \"Only owner can call function\") */\n      tag_343\n      jumpi\n      mload(0x40)\n      0x08c379a000000000000000000000000000000000000000000000000000000000\n      dup2\n      mstore\n      0x04\n      add\n      tag_344\n      swap1\n      tag_264\n      jump\t// in\n    tag_344:\n      mload(0x40)\n      dup1\n      swap2\n      sub\n      swap1\n      revert\n    tag_343:\n        /* \"contracts/ERC1404TokenMinKYCv12.sol\":15800:15801  0 */\n      0x00\n        /* \"contracts/ERC1404TokenMinKYCv12.sol\":15781:15802  account != address(0) */\n      0xffffffffffffffffffffffffffffffffffffffff\n      and\n        /* \"contracts/ERC1404TokenMinKYCv12.sol\":15781:15788  account */\n      dup4\n        /* \"contracts/ERC1404TokenMinKYCv12.sol\":15781:15802  account != address(0) */\n      0xffffffffffffffffffffffffffffffffffffffff\n      and\n      eq\n      iszero\n        /* \"contracts/ERC1404TokenMinKYCv12.sol\":15773:15831  require(account != address(0), \"Zero address not allowed\") */\n      tag_346\n      jumpi\n      mload(0x40)\n      0x08c379a000000000000000000000000000000000000000000000000000000000\n      dup2\n      mstore\n      0x04\n      add\n      tag_347\n      swap1\n      tag_222\n      jump\t// in\n    tag_347:\n      mload(0x40)\n      dup1\n      swap2\n      sub\n      swap1\n      revert\n    tag_346:\n        /* \"contracts/ERC1404TokenMinKYCv12.sol\":15871:15877  amount */\n      dup2\n        /* \"contracts/ERC1404TokenMinKYCv12.sol\":15849:15858  _balances */\n      0x02\n        /* \"contracts/ERC1404TokenMinKYCv12.sol\":15849:15867  _balances[account] */\n      0x00\n        /* \"contracts/ERC1404TokenMinKYCv12.sol\":15859:15866  account */\n      dup6\n        /* \"contracts/ERC1404TokenMinKYCv12.sol\":15849:15867  _balances[account] */\n      0xffffffffffffffffffffffffffffffffffffffff\n      and\n      0xffffffffffffffffffffffffffffffffffffffff\n      and\n      dup2\n      mstore\n      0x20\n      add\n      swap1\n      dup2\n      mstore\n      0x20\n      add\n      0x00\n      keccak256\n      sload\n        /* \"contracts/ERC1404TokenMinKYCv12.sol\":15849:15877  _balances[account] >= amount */\n      lt\n      iszero\n        /* \"contracts/ERC1404TokenMinKYCv12.sol\":15841:15909  require(_balances[account] >= amount, \"Amount greater than balance\") */\n      tag_348\n      jumpi\n      mload(0x40)\n      0x08c379a000000000000000000000000000000000000000000000000000000000\n      dup2\n      mstore\n      0x04\n      add\n      tag_349\n      swap1\n      tag_350\n      jump\t// in\n    tag_349:\n      mload(0x40)\n      dup1\n      swap2\n      sub\n      swap1\n      revert\n    tag_348:\n        /* \"contracts/ERC1404TokenMinKYCv12.sol\":15950:15956  amount */\n      dup2\n        /* \"contracts/ERC1404TokenMinKYCv12.sol\":15935:15947  _totalSupply */\n      sload(0x0a)\n        /* \"contracts/ERC1404TokenMinKYCv12.sol\":15935:15956  _totalSupply - amount */\n      tag_351\n      swap2\n      swap1\n      tag_256\n      jump\t// in\n    tag_351:\n        /* \"contracts/ERC1404TokenMinKYCv12.sol\":15920:15932  _totalSupply */\n      0x0a\n        /* \"contracts/ERC1404TokenMinKYCv12.sol\":15920:15956  _totalSupply = _totalSupply - amount */\n      dup2\n      swap1\n      sstore\n      pop\n        /* \"contracts/ERC1404TokenMinKYCv12.sol\":16008:16014  amount */\n      dup2\n        /* \"contracts/ERC1404TokenMinKYCv12.sol\":15987:15996  _balances */\n      0x02\n        /* \"contracts/ERC1404TokenMinKYCv12.sol\":15987:16005  _balances[account] */\n      0x00\n        /* \"contracts/ERC1404TokenMinKYCv12.sol\":15997:16004  account */\n      dup6\n        /* \"contracts/ERC1404TokenMinKYCv12.sol\":15987:16005  _balances[account] */\n      0xffffffffffffffffffffffffffffffffffffffff\n      and\n      0xffffffffffffffffffffffffffffffffffffffff\n      and\n      dup2\n      mstore\n      0x20\n      add\n      swap1\n      dup2\n      mstore\n      0x20\n      add\n      0x00\n      keccak256\n      sload\n        /* \"contracts/ERC1404TokenMinKYCv12.sol\":15987:16014  _balances[account] - amount */\n      tag_352\n      swap2\n      swap1\n      tag_256\n      jump\t// in\n    tag_352:\n        /* \"contracts/ERC1404TokenMinKYCv12.sol\":15966:15975  _balances */\n      0x02\n        /* \"contracts/ERC1404TokenMinKYCv12.sol\":15966:15984  _balances[account] */\n      0x00\n        /* \"contracts/ERC1404TokenMinKYCv12.sol\":15976:15983  account */\n      dup6\n        /* \"contracts/ERC1404TokenMinKYCv12.sol\":15966:15984  _balances[account] */\n      0xffffffffffffffffffffffffffffffffffffffff\n      and\n      0xffffffffffffffffffffffffffffffffffffffff\n      and\n      dup2\n      mstore\n      0x20\n      add\n      swap1\n      dup2\n      mstore\n      0x20\n      add\n      0x00\n      keccak256\n        /* \"contracts/ERC1404TokenMinKYCv12.sol\":15966:16014  _balances[account] = _balances[account] - amount */\n      dup2\n      swap1\n      sstore\n      pop\n        /* \"contracts/ERC1404TokenMinKYCv12.sol\":16040:16047  account */\n      dup3\n        /* \"contracts/ERC1404TokenMinKYCv12.sol\":16029:16056  BurnTokens(account, amount) */\n      0xffffffffffffffffffffffffffffffffffffffff\n      and\n      0x388d6102a0230861b4e9646fb5acda1c5ec15d39df2b619d39c25d16a1268490\n        /* \"contracts/ERC1404TokenMinKYCv12.sol\":16049:16055  amount */\n      dup4\n        /* \"contracts/ERC1404TokenMinKYCv12.sol\":16029:16056  BurnTokens(account, amount) */\n      mload(0x40)\n      tag_353\n      swap2\n      swap1\n      tag_75\n      jump\t// in\n    tag_353:\n      mload(0x40)\n      dup1\n      swap2\n      sub\n      swap1\n      log2\n        /* \"contracts/ERC1404TokenMinKYCv12.sol\":16067:16071  true */\n      0x01\n        /* \"contracts/ERC1404TokenMinKYCv12.sol\":16060:16071  return true */\n      swap1\n      pop\n        /* \"contracts/ERC1404TokenMinKYCv12.sol\":15677:16078  function burn(address account, uint256 amount) ... */\n      swap3\n      swap2\n      pop\n      pop\n      jump\t// out\n        /* \"contracts/ERC1404TokenMinKYCv12.sol\":13610:13862  function transfer(... */\n    tag_160:\n        /* \"contracts/ERC1404TokenMinKYCv12.sol\":13765:13769  bool */\n      0x00\n        /* \"contracts/ERC1404TokenMinKYCv12.sol\":13724:13734  msg.sender */\n      caller\n        /* \"contracts/ERC1404TokenMinKYCv12.sol\":13736:13745  recipient */\n      dup4\n        /* \"contracts/ERC1404TokenMinKYCv12.sol\":13747:13753  amount */\n      dup4\n        /* \"contracts/ERC1404TokenMinKYCv12.sol\":8483:8504  uint8 restrictionCode */\n      0x00\n        /* \"contracts/ERC1404TokenMinKYCv12.sol\":8507:8549  detectTransferRestriction(from, to, value) */\n      tag_355\n        /* \"contracts/ERC1404TokenMinKYCv12.sol\":8533:8537  from */\n      dup5\n        /* \"contracts/ERC1404TokenMinKYCv12.sol\":8539:8541  to */\n      dup5\n        /* \"contracts/ERC1404TokenMinKYCv12.sol\":8543:8548  value */\n      dup5\n        /* \"contracts/ERC1404TokenMinKYCv12.sol\":8507:8532  detectTransferRestriction */\n      tag_190\n        /* \"contracts/ERC1404TokenMinKYCv12.sol\":8507:8549  detectTransferRestriction(from, to, value) */\n      jump\t// in\n    tag_355:\n        /* \"contracts/ERC1404TokenMinKYCv12.sol\":8483:8549  uint8 restrictionCode = detectTransferRestriction(from, to, value) */\n      swap1\n      pop\n        /* \"contracts/ERC1404TokenMinKYCv12.sol\":8576:8577  0 */\n      0x00\n        /* \"contracts/ERC1404TokenMinKYCv12.sol\":8557:8572  restrictionCode */\n      dup2\n        /* \"contracts/ERC1404TokenMinKYCv12.sol\":8557:8577  restrictionCode != 0 */\n      0xff\n      and\n      eq\n        /* \"contracts/ERC1404TokenMinKYCv12.sol\":8553:8776  if( restrictionCode != 0 ) {... */\n      tag_356\n      jumpi\n        /* \"contracts/ERC1404TokenMinKYCv12.sol\":8585:8611  string memory errorMessage */\n      0x00\n        /* \"contracts/ERC1404TokenMinKYCv12.sol\":8614:8660  messageForTransferRestriction(restrictionCode) */\n      tag_357\n        /* \"contracts/ERC1404TokenMinKYCv12.sol\":8644:8659  restrictionCode */\n      dup3\n        /* \"contracts/ERC1404TokenMinKYCv12.sol\":8614:8643  messageForTransferRestriction */\n      tag_136\n        /* \"contracts/ERC1404TokenMinKYCv12.sol\":8614:8660  messageForTransferRestriction(restrictionCode) */\n      jump\t// in\n    tag_357:\n        /* \"contracts/ERC1404TokenMinKYCv12.sol\":8585:8660  string memory errorMessage = messageForTransferRestriction(restrictionCode) */\n      swap1\n      pop\n        /* \"contracts/ERC1404TokenMinKYCv12.sol\":8705:8707  to */\n      dup4\n        /* \"contracts/ERC1404TokenMinKYCv12.sol\":8670:8723  TransferRestrictionDetected( from, to, errorMessage ) */\n      0xffffffffffffffffffffffffffffffffffffffff\n      and\n        /* \"contracts/ERC1404TokenMinKYCv12.sol\":8699:8703  from */\n      dup6\n        /* \"contracts/ERC1404TokenMinKYCv12.sol\":8670:8723  TransferRestrictionDetected( from, to, errorMessage ) */\n      0xffffffffffffffffffffffffffffffffffffffff\n      and\n      0x2fdd8c36dbe5614497208665e8d30c570421680d09984e3153829ddabd30c094\n        /* \"contracts/ERC1404TokenMinKYCv12.sol\":8709:8721  errorMessage */\n      dup4\n        /* \"contracts/ERC1404TokenMinKYCv12.sol\":8670:8723  TransferRestrictionDetected( from, to, errorMessage ) */\n      mload(0x40)\n      tag_358\n      swap2\n      swap1\n      tag_57\n      jump\t// in\n    tag_358:\n      mload(0x40)\n      dup1\n      swap2\n      sub\n      swap1\n      log3\n        /* \"contracts/ERC1404TokenMinKYCv12.sol\":8741:8753  errorMessage */\n      dup1\n        /* \"contracts/ERC1404TokenMinKYCv12.sol\":8734:8754  revert(errorMessage) */\n      mload(0x40)\n      0x08c379a000000000000000000000000000000000000000000000000000000000\n      dup2\n      mstore\n      0x04\n      add\n      tag_359\n      swap2\n      swap1\n      tag_57\n      jump\t// in\n    tag_359:\n      mload(0x40)\n      dup1\n      swap2\n      sub\n      swap1\n      revert\n        /* \"contracts/ERC1404TokenMinKYCv12.sol\":8553:8776  if( restrictionCode != 0 ) {... */\n    tag_356:\n        /* \"contracts/ERC1404TokenMinKYCv12.sol\":13776:13840  transferSharesBetweenInvestors ( msg.sender, recipient, amount ) */\n      tag_362\n        /* \"contracts/ERC1404TokenMinKYCv12.sol\":13809:13819  msg.sender */\n      caller\n        /* \"contracts/ERC1404TokenMinKYCv12.sol\":13821:13830  recipient */\n      dup9\n        /* \"contracts/ERC1404TokenMinKYCv12.sol\":13832:13838  amount */\n      dup9\n        /* \"contracts/ERC1404TokenMinKYCv12.sol\":13776:13806  transferSharesBetweenInvestors */\n      tag_254\n        /* \"contracts/ERC1404TokenMinKYCv12.sol\":13776:13840  transferSharesBetweenInvestors ( msg.sender, recipient, amount ) */\n      jump\t// in\n    tag_362:\n        /* \"contracts/ERC1404TokenMinKYCv12.sol\":13851:13855  true */\n      0x01\n        /* \"contracts/ERC1404TokenMinKYCv12.sol\":13844:13855  return true */\n      swap5\n      pop\n        /* \"contracts/ERC1404TokenMinKYCv12.sol\":8473:8783  {... */\n      pop\n        /* \"contracts/ERC1404TokenMinKYCv12.sol\":13610:13862  function transfer(... */\n      pop\n      pop\n      pop\n      swap3\n      swap2\n      pop\n      pop\n      jump\t// out\n        /* \"contracts/ERC1404TokenMinKYCv12.sol\":8055:8200  function getKYCData(address user) ... */\n    tag_164:\n        /* \"contracts/ERC1404TokenMinKYCv12.sol\":8117:8124  uint256 */\n      0x00\n        /* \"contracts/ERC1404TokenMinKYCv12.sol\":8126:8133  uint256 */\n      dup1\n        /* \"contracts/ERC1404TokenMinKYCv12.sol\":8148:8163  _buyRestriction */\n      0x00\n        /* \"contracts/ERC1404TokenMinKYCv12.sol\":8148:8169  _buyRestriction[user] */\n      dup1\n        /* \"contracts/ERC1404TokenMinKYCv12.sol\":8164:8168  user */\n      dup5\n        /* \"contracts/ERC1404TokenMinKYCv12.sol\":8148:8169  _buyRestriction[user] */\n      0xffffffffffffffffffffffffffffffffffffffff\n      and\n      0xffffffffffffffffffffffffffffffffffffffff\n      and\n      dup2\n      mstore\n      0x20\n      add\n      swap1\n      dup2\n      mstore\n      0x20\n      add\n      0x00\n      keccak256\n      sload\n        /* \"contracts/ERC1404TokenMinKYCv12.sol\":8172:8188  _sellRestriction */\n      0x01\n        /* \"contracts/ERC1404TokenMinKYCv12.sol\":8172:8194  _sellRestriction[user] */\n      0x00\n        /* \"contracts/ERC1404TokenMinKYCv12.sol\":8189:8193  user */\n      dup6\n        /* \"contracts/ERC1404TokenMinKYCv12.sol\":8172:8194  _sellRestriction[user] */\n      0xffffffffffffffffffffffffffffffffffffffff\n      and\n      0xffffffffffffffffffffffffffffffffffffffff\n      and\n      dup2\n      mstore\n      0x20\n      add\n      swap1\n      dup2\n      mstore\n      0x20\n      add\n      0x00\n      keccak256\n      sload\n        /* \"contracts/ERC1404TokenMinKYCv12.sol\":8140:8196  return (_buyRestriction[user] , _sellRestriction[user] ) */\n      swap2\n      pop\n      swap2\n      pop\n        /* \"contracts/ERC1404TokenMinKYCv12.sol\":8055:8200  function getKYCData(address user) ... */\n      swap2\n      pop\n      swap2\n      jump\t// out\n        /* \"contracts/ERC1404TokenMinKYCv12.sol\":4440:4620  function resetCompanyHomepage(string memory _CompanyHomepage) ... */\n    tag_169:\n        /* \"contracts/ERC1404TokenMinKYCv12.sol\":5773:5783  msg.sender */\n      caller\n        /* \"contracts/ERC1404TokenMinKYCv12.sol\":5763:5783  _owner == msg.sender */\n      0xffffffffffffffffffffffffffffffffffffffff\n      and\n        /* \"contracts/ERC1404TokenMinKYCv12.sol\":5763:5769  _owner */\n      0x04\n      0x00\n      swap1\n      sload\n      swap1\n      0x0100\n      exp\n      swap1\n      div\n      0xffffffffffffffffffffffffffffffffffffffff\n      and\n        /* \"contracts/ERC1404TokenMinKYCv12.sol\":5763:5783  _owner == msg.sender */\n      0xffffffffffffffffffffffffffffffffffffffff\n      and\n      eq\n        /* \"contracts/ERC1404TokenMinKYCv12.sol\":5755:5816  require(_owner == msg.sender, \"Only owner can call function\") */\n      tag_365\n      jumpi\n      mload(0x40)\n      0x08c379a000000000000000000000000000000000000000000000000000000000\n      dup2\n      mstore\n      0x04\n      add\n      tag_366\n      swap1\n      tag_264\n      jump\t// in\n    tag_366:\n      mload(0x40)\n      dup1\n      swap2\n      sub\n      swap1\n      revert\n    tag_365:\n        /* \"contracts/ERC1404TokenMinKYCv12.sol\":4548:4564  _CompanyHomepage */\n      dup1\n        /* \"contracts/ERC1404TokenMinKYCv12.sol\":4530:4545  CompanyHomepage */\n      0x0e\n        /* \"contracts/ERC1404TokenMinKYCv12.sol\":4530:4564  CompanyHomepage = _CompanyHomepage */\n      swap1\n      dup1\n      mload\n      swap1\n      0x20\n      add\n      swap1\n      tag_368\n      swap3\n      swap2\n      swap1\n      tag_282\n      jump\t// in\n    tag_368:\n      pop\n        /* \"contracts/ERC1404TokenMinKYCv12.sol\":4574:4613  CompanyHomepageReset (_CompanyHomepage) */\n      0x824a3f3055c070014bc7157744915537c646ae1a287c988d79ec124d88938e94\n        /* \"contracts/ERC1404TokenMinKYCv12.sol\":4596:4612  _CompanyHomepage */\n      dup2\n        /* \"contracts/ERC1404TokenMinKYCv12.sol\":4574:4613  CompanyHomepageReset (_CompanyHomepage) */\n      mload(0x40)\n      tag_369\n      swap2\n      swap1\n      tag_57\n      jump\t// in\n    tag_369:\n      mload(0x40)\n      dup1\n      swap2\n      sub\n      swap1\n      log1\n        /* \"contracts/ERC1404TokenMinKYCv12.sol\":4440:4620  function resetCompanyHomepage(string memory _CompanyHomepage) ... */\n      pop\n      jump\t// out\n        /* \"contracts/ERC1404TokenMinKYCv12.sol\":4248:4434  function resetShareCertificate(string memory _ShareCertificate) ... */\n    tag_172:\n        /* \"contracts/ERC1404TokenMinKYCv12.sol\":5773:5783  msg.sender */\n      caller\n        /* \"contracts/ERC1404TokenMinKYCv12.sol\":5763:5783  _owner == msg.sender */\n      0xffffffffffffffffffffffffffffffffffffffff\n      and\n        /* \"contracts/ERC1404TokenMinKYCv12.sol\":5763:5769  _owner */\n      0x04\n      0x00\n      swap1\n      sload\n      swap1\n      0x0100\n      exp\n      swap1\n      div\n      0xffffffffffffffffffffffffffffffffffffffff\n      and\n        /* \"contracts/ERC1404TokenMinKYCv12.sol\":5763:5783  _owner == msg.sender */\n      0xffffffffffffffffffffffffffffffffffffffff\n      and\n      eq\n        /* \"contracts/ERC1404TokenMinKYCv12.sol\":5755:5816  require(_owner == msg.sender, \"Only owner can call function\") */\n      tag_371\n      jumpi\n      mload(0x40)\n      0x08c379a000000000000000000000000000000000000000000000000000000000\n      dup2\n      mstore\n      0x04\n      add\n      tag_372\n      swap1\n      tag_264\n      jump\t// in\n    tag_372:\n      mload(0x40)\n      dup1\n      swap2\n      sub\n      swap1\n      revert\n    tag_371:\n        /* \"contracts/ERC1404TokenMinKYCv12.sol\":4359:4376  _ShareCertificate */\n      dup1\n        /* \"contracts/ERC1404TokenMinKYCv12.sol\":4340:4356  ShareCertificate */\n      0x0d\n        /* \"contracts/ERC1404TokenMinKYCv12.sol\":4340:4376  ShareCertificate = _ShareCertificate */\n      swap1\n      dup1\n      mload\n      swap1\n      0x20\n      add\n      swap1\n      tag_374\n      swap3\n      swap2\n      swap1\n      tag_282\n      jump\t// in\n    tag_374:\n      pop\n        /* \"contracts/ERC1404TokenMinKYCv12.sol\":4386:4427  ShareCertificateReset (_ShareCertificate) */\n      0x4295968313e92c7dd40aa9c85be9b7246ff59503751e11205c85795a2f74fdb3\n        /* \"contracts/ERC1404TokenMinKYCv12.sol\":4409:4426  _ShareCertificate */\n      dup2\n        /* \"contracts/ERC1404TokenMinKYCv12.sol\":4386:4427  ShareCertificateReset (_ShareCertificate) */\n      mload(0x40)\n      tag_375\n      swap2\n      swap1\n      tag_57\n      jump\t// in\n    tag_375:\n      mload(0x40)\n      dup1\n      swap2\n      sub\n      swap1\n      log1\n        /* \"contracts/ERC1404TokenMinKYCv12.sol\":4248:4434  function resetShareCertificate(string memory _ShareCertificate) ... */\n      pop\n      jump\t// out\n        /* \"contracts/ERC1404TokenMinKYCv12.sol\":2986:3038  uint8 public constant Transfer_Value_Cannot_Zero = 3 */\n    tag_174:\n        /* \"contracts/ERC1404TokenMinKYCv12.sol\":3037:3038  3 */\n      0x03\n        /* \"contracts/ERC1404TokenMinKYCv12.sol\":2986:3038  uint8 public constant Transfer_Value_Cannot_Zero = 3 */\n      dup2\n      jump\t// out\n        /* \"contracts/ERC1404TokenMinKYCv12.sol\":2445:2475  string public CompanyLegalDocs */\n    tag_177:\n      0x0f\n      dup1\n      sload\n      tag_376\n      swap1\n      tag_214\n      jump\t// in\n    tag_376:\n      dup1\n      0x1f\n      add\n      0x20\n      dup1\n      swap2\n      div\n      mul\n      0x20\n      add\n      mload(0x40)\n      swap1\n      dup2\n      add\n      0x40\n      mstore\n      dup1\n      swap3\n      swap2\n      swap1\n      dup2\n      dup2\n      mstore\n      0x20\n      add\n      dup3\n      dup1\n      sload\n      tag_377\n      swap1\n      tag_214\n      jump\t// in\n    tag_377:\n      dup1\n      iszero\n      tag_378\n      jumpi\n      dup1\n      0x1f\n      lt\n      tag_379\n      jumpi\n      0x0100\n      dup1\n      dup4\n      sload\n      div\n      mul\n      dup4\n      mstore\n      swap2\n      0x20\n      add\n      swap2\n      jump(tag_378)\n    tag_379:\n      dup3\n      add\n      swap2\n      swap1\n      0x00\n      mstore\n      keccak256(0x00, 0x20)\n      swap1\n    tag_380:\n      dup2\n      sload\n      dup2\n      mstore\n      swap1\n      0x01\n      add\n      swap1\n      0x20\n      add\n      dup1\n      dup4\n      gt\n      tag_380\n      jumpi\n      dup3\n      swap1\n      sub\n      0x1f\n      and\n      dup3\n      add\n      swap2\n    tag_378:\n      pop\n      pop\n      pop\n      pop\n      pop\n      dup2\n      jump\t// out\n        /* \"contracts/ERC1404TokenMinKYCv12.sol\":5306:5500  function setTradingHoldingPeriod(uint256 _tradingHoldingPeriod) ... */\n    tag_181:\n        /* \"contracts/ERC1404TokenMinKYCv12.sol\":5773:5783  msg.sender */\n      caller\n        /* \"contracts/ERC1404TokenMinKYCv12.sol\":5763:5783  _owner == msg.sender */\n      0xffffffffffffffffffffffffffffffffffffffff\n      and\n        /* \"contracts/ERC1404TokenMinKYCv12.sol\":5763:5769  _owner */\n      0x04\n      0x00\n      swap1\n      sload\n      swap1\n      0x0100\n      exp\n      swap1\n      div\n      0xffffffffffffffffffffffffffffffffffffffff\n      and\n        /* \"contracts/ERC1404TokenMinKYCv12.sol\":5763:5783  _owner == msg.sender */\n      0xffffffffffffffffffffffffffffffffffffffff\n      and\n      eq\n        /* \"contracts/ERC1404TokenMinKYCv12.sol\":5755:5816  require(_owner == msg.sender, \"Only owner can call function\") */\n      tag_382\n      jumpi\n      mload(0x40)\n      0x08c379a000000000000000000000000000000000000000000000000000000000\n      dup2\n      mstore\n      0x04\n      add\n      tag_383\n      swap1\n      tag_264\n      jump\t// in\n    tag_383:\n      mload(0x40)\n      dup1\n      swap2\n      sub\n      swap1\n      revert\n    tag_382:\n        /* \"contracts/ERC1404TokenMinKYCv12.sol\":5421:5442  _tradingHoldingPeriod */\n      dup1\n        /* \"contracts/ERC1404TokenMinKYCv12.sol\":5398:5418  tradingHoldingPeriod */\n      0x12\n        /* \"contracts/ERC1404TokenMinKYCv12.sol\":5398:5442  tradingHoldingPeriod = _tradingHoldingPeriod */\n      dup2\n      swap1\n      sstore\n      pop\n        /* \"contracts/ERC1404TokenMinKYCv12.sol\":5452:5493  HoldingPeriodReset(_tradingHoldingPeriod) */\n      0x050293e6952eab2f7cf401de4a51c1918da86a2bd5a7276a11ae3dd4a549cde9\n        /* \"contracts/ERC1404TokenMinKYCv12.sol\":5471:5492  _tradingHoldingPeriod */\n      dup2\n        /* \"contracts/ERC1404TokenMinKYCv12.sol\":5452:5493  HoldingPeriodReset(_tradingHoldingPeriod) */\n      mload(0x40)\n      tag_385\n      swap2\n      swap1\n      tag_75\n      jump\t// in\n    tag_385:\n      mload(0x40)\n      dup1\n      swap2\n      sub\n      swap1\n      log1\n        /* \"contracts/ERC1404TokenMinKYCv12.sol\":5306:5500  function setTradingHoldingPeriod(uint256 _tradingHoldingPeriod) ... */\n      pop\n      jump\t// out\n        /* \"contracts/ERC1404TokenMinKYCv12.sol\":3167:3220  uint8 public constant Sender_Under_Holding_Period = 6 */\n    tag_183:\n        /* \"contracts/ERC1404TokenMinKYCv12.sol\":3219:3220  6 */\n      0x06\n        /* \"contracts/ERC1404TokenMinKYCv12.sol\":3167:3220  uint8 public constant Sender_Under_Holding_Period = 6 */\n      dup2\n      jump\t// out\n        /* \"contracts/ERC1404TokenMinKYCv12.sol\":6218:6380  function setWhitelistAuthorityStatus(address user)... */\n    tag_187:\n        /* \"contracts/ERC1404TokenMinKYCv12.sol\":5773:5783  msg.sender */\n      caller\n        /* \"contracts/ERC1404TokenMinKYCv12.sol\":5763:5783  _owner == msg.sender */\n      0xffffffffffffffffffffffffffffffffffffffff\n      and\n        /* \"contracts/ERC1404TokenMinKYCv12.sol\":5763:5769  _owner */\n      0x04\n      0x00\n      swap1\n      sload\n      swap1\n      0x0100\n      exp\n      swap1\n      div\n      0xffffffffffffffffffffffffffffffffffffffff\n      and\n        /* \"contracts/ERC1404TokenMinKYCv12.sol\":5763:5783  _owner == msg.sender */\n      0xffffffffffffffffffffffffffffffffffffffff\n      and\n      eq\n        /* \"contracts/ERC1404TokenMinKYCv12.sol\":5755:5816  require(_owner == msg.sender, \"Only owner can call function\") */\n      tag_387\n      jumpi\n      mload(0x40)\n      0x08c379a000000000000000000000000000000000000000000000000000000000\n      dup2\n      mstore\n      0x04\n      add\n      tag_388\n      swap1\n      tag_264\n      jump\t// in\n    tag_388:\n      mload(0x40)\n      dup1\n      swap2\n      sub\n      swap1\n      revert\n    tag_387:\n        /* \"contracts/ERC1404TokenMinKYCv12.sol\":6330:6334  true */\n      0x01\n        /* \"contracts/ERC1404TokenMinKYCv12.sol\":6295:6321  _whitelistControlAuthority */\n      0x05\n        /* \"contracts/ERC1404TokenMinKYCv12.sol\":6295:6327  _whitelistControlAuthority[user] */\n      0x00\n        /* \"contracts/ERC1404TokenMinKYCv12.sol\":6322:6326  user */\n      dup4\n        /* \"contracts/ERC1404TokenMinKYCv12.sol\":6295:6327  _whitelistControlAuthority[user] */\n      0xffffffffffffffffffffffffffffffffffffffff\n      and\n      0xffffffffffffffffffffffffffffffffffffffff\n      and\n      dup2\n      mstore\n      0x20\n      add\n      swap1\n      dup2\n      mstore\n      0x20\n      add\n      0x00\n      keccak256\n      0x00\n        /* \"contracts/ERC1404TokenMinKYCv12.sol\":6295:6334  _whitelistControlAuthority[user] = true */\n      0x0100\n      exp\n      dup2\n      sload\n      dup2\n      0xff\n      mul\n      not\n      and\n      swap1\n      dup4\n      iszero\n      iszero\n      mul\n      or\n      swap1\n      sstore\n      pop\n        /* \"contracts/ERC1404TokenMinKYCv12.sol\":6343:6376  WhitelistAuthorityStatusSet(user) */\n      0xea54bdb8a4594aaac063e3b01ab3e613bf4cb045d085502c81497c9696aca8b2\n        /* \"contracts/ERC1404TokenMinKYCv12.sol\":6371:6375  user */\n      dup2\n        /* \"contracts/ERC1404TokenMinKYCv12.sol\":6343:6376  WhitelistAuthorityStatusSet(user) */\n      mload(0x40)\n      tag_390\n      swap2\n      swap1\n      tag_147\n      jump\t// in\n    tag_390:\n      mload(0x40)\n      dup1\n      swap2\n      sub\n      swap1\n      log1\n        /* \"contracts/ERC1404TokenMinKYCv12.sol\":6218:6380  function setWhitelistAuthorityStatus(address user)... */\n      pop\n      jump\t// out\n        /* \"contracts/ERC1404TokenMinKYCv12.sol\":8791:11325  function detectTransferRestriction (address _from, address _to, uint256 value) ... */\n    tag_190:\n        /* \"contracts/ERC1404TokenMinKYCv12.sol\":8907:8919  uint8 status */\n      0x00\n        /* \"contracts/ERC1404TokenMinKYCv12.sol\":9109:9129  tradingHoldingPeriod */\n      sload(0x12)\n        /* \"contracts/ERC1404TokenMinKYCv12.sol\":9091:9106  block.timestamp */\n      timestamp\n        /* \"contracts/ERC1404TokenMinKYCv12.sol\":9091:9129  block.timestamp < tradingHoldingPeriod */\n      lt\n        /* \"contracts/ERC1404TokenMinKYCv12.sol\":9091:9148  block.timestamp < tradingHoldingPeriod && _from != _owner */\n      dup1\n      iszero\n      tag_392\n      jumpi\n      pop\n        /* \"contracts/ERC1404TokenMinKYCv12.sol\":9142:9148  _owner */\n      0x04\n      0x00\n      swap1\n      sload\n      swap1\n      0x0100\n      exp\n      swap1\n      div\n      0xffffffffffffffffffffffffffffffffffffffff\n      and\n        /* \"contracts/ERC1404TokenMinKYCv12.sol\":9133:9148  _from != _owner */\n      0xffffffffffffffffffffffffffffffffffffffff\n      and\n        /* \"contracts/ERC1404TokenMinKYCv12.sol\":9133:9138  _from */\n      dup5\n        /* \"contracts/ERC1404TokenMinKYCv12.sol\":9133:9148  _from != _owner */\n      0xffffffffffffffffffffffffffffffffffffffff\n      and\n      eq\n      iszero\n        /* \"contracts/ERC1404TokenMinKYCv12.sol\":9091:9148  block.timestamp < tradingHoldingPeriod && _from != _owner */\n    tag_392:\n        /* \"contracts/ERC1404TokenMinKYCv12.sol\":9088:9180  if(block.timestamp < tradingHoldingPeriod && _from != _owner)... */\n      iszero\n      tag_393\n      jumpi\n        /* \"contracts/ERC1404TokenMinKYCv12.sol\":2982:2983  2 */\n      0x02\n        /* \"contracts/ERC1404TokenMinKYCv12.sol\":9155:9180  return Transfers_Disabled */\n      swap1\n      pop\n      jump(tag_391)\n        /* \"contracts/ERC1404TokenMinKYCv12.sol\":9088:9180  if(block.timestamp < tradingHoldingPeriod && _from != _owner)... */\n    tag_393:\n        /* \"contracts/ERC1404TokenMinKYCv12.sol\":9204:9205  0 */\n      0x00\n        /* \"contracts/ERC1404TokenMinKYCv12.sol\":9195:9200  value */\n      dup3\n        /* \"contracts/ERC1404TokenMinKYCv12.sol\":9195:9205  value <= 0 */\n      gt\n        /* \"contracts/ERC1404TokenMinKYCv12.sol\":9191:9248  if( value <= 0)... */\n      tag_394\n      jumpi\n        /* \"contracts/ERC1404TokenMinKYCv12.sol\":3037:3038  3 */\n      0x03\n        /* \"contracts/ERC1404TokenMinKYCv12.sol\":9215:9248  return Transfer_Value_Cannot_Zero */\n      swap1\n      pop\n      jump(tag_391)\n        /* \"contracts/ERC1404TokenMinKYCv12.sol\":9191:9248  if( value <= 0)... */\n    tag_394:\n        /* \"contracts/ERC1404TokenMinKYCv12.sol\":9294:9295  0 */\n      0x00\n        /* \"contracts/ERC1404TokenMinKYCv12.sol\":9267:9283  _sellRestriction */\n      0x01\n        /* \"contracts/ERC1404TokenMinKYCv12.sol\":9267:9290  _sellRestriction[_from] */\n      0x00\n        /* \"contracts/ERC1404TokenMinKYCv12.sol\":9284:9289  _from */\n      dup7\n        /* \"contracts/ERC1404TokenMinKYCv12.sol\":9267:9290  _sellRestriction[_from] */\n      0xffffffffffffffffffffffffffffffffffffffff\n      and\n      0xffffffffffffffffffffffffffffffffffffffff\n      and\n      dup2\n      mstore\n      0x20\n      add\n      swap1\n      dup2\n      mstore\n      0x20\n      add\n      0x00\n      keccak256\n      sload\n        /* \"contracts/ERC1404TokenMinKYCv12.sol\":9267:9295  _sellRestriction[_from] == 0 */\n      eq\n        /* \"contracts/ERC1404TokenMinKYCv12.sol\":9263:9342  if( _sellRestriction[_from] == 0 )... */\n      iszero\n      tag_395\n      jumpi\n        /* \"contracts/ERC1404TokenMinKYCv12.sol\":3099:3100  4 */\n      0x04\n        /* \"contracts/ERC1404TokenMinKYCv12.sol\":9302:9342  return Sender_Not_Whitelisted_or_Blocked */\n      swap1\n      pop\n      jump(tag_391)\n        /* \"contracts/ERC1404TokenMinKYCv12.sol\":9263:9342  if( _sellRestriction[_from] == 0 )... */\n    tag_395:\n        /* \"contracts/ERC1404TokenMinKYCv12.sol\":9420:9421  0 */\n      0x00\n        /* \"contracts/ERC1404TokenMinKYCv12.sol\":9396:9411  _buyRestriction */\n      dup1\n        /* \"contracts/ERC1404TokenMinKYCv12.sol\":9396:9416  _buyRestriction[_to] */\n      0x00\n        /* \"contracts/ERC1404TokenMinKYCv12.sol\":9412:9415  _to */\n      dup6\n        /* \"contracts/ERC1404TokenMinKYCv12.sol\":9396:9416  _buyRestriction[_to] */\n      0xffffffffffffffffffffffffffffffffffffffff\n      and\n      0xffffffffffffffffffffffffffffffffffffffff\n      and\n      dup2\n      mstore\n      0x20\n      add\n      swap1\n      dup2\n      mstore\n      0x20\n      add\n      0x00\n      keccak256\n      sload\n        /* \"contracts/ERC1404TokenMinKYCv12.sol\":9396:9421  _buyRestriction[_to] == 0 */\n      eq\n        /* \"contracts/ERC1404TokenMinKYCv12.sol\":9392:9470  if( _buyRestriction[_to] == 0 )... */\n      iszero\n      tag_396\n      jumpi\n        /* \"contracts/ERC1404TokenMinKYCv12.sol\":3163:3164  5 */\n      0x05\n        /* \"contracts/ERC1404TokenMinKYCv12.sol\":9428:9470  return Receiver_Not_Whitelisted_or_Blocked */\n      swap1\n      pop\n      jump(tag_391)\n        /* \"contracts/ERC1404TokenMinKYCv12.sol\":9392:9470  if( _buyRestriction[_to] == 0 )... */\n    tag_396:\n        /* \"contracts/ERC1404TokenMinKYCv12.sol\":9548:9563  block.timestamp */\n      timestamp\n        /* \"contracts/ERC1404TokenMinKYCv12.sol\":9522:9538  _sellRestriction */\n      0x01\n        /* \"contracts/ERC1404TokenMinKYCv12.sol\":9522:9545  _sellRestriction[_from] */\n      0x00\n        /* \"contracts/ERC1404TokenMinKYCv12.sol\":9539:9544  _from */\n      dup7\n        /* \"contracts/ERC1404TokenMinKYCv12.sol\":9522:9545  _sellRestriction[_from] */\n      0xffffffffffffffffffffffffffffffffffffffff\n      and\n      0xffffffffffffffffffffffffffffffffffffffff\n      and\n      dup2\n      mstore\n      0x20\n      add\n      swap1\n      dup2\n      mstore\n      0x20\n      add\n      0x00\n      keccak256\n      sload\n        /* \"contracts/ERC1404TokenMinKYCv12.sol\":9522:9563  _sellRestriction[_from] > block.timestamp */\n      gt\n        /* \"contracts/ERC1404TokenMinKYCv12.sol\":9518:9604  if( _sellRestriction[_from] > block.timestamp )... */\n      iszero\n      tag_397\n      jumpi\n        /* \"contracts/ERC1404TokenMinKYCv12.sol\":3219:3220  6 */\n      0x06\n        /* \"contracts/ERC1404TokenMinKYCv12.sol\":9570:9604  return Sender_Under_Holding_Period */\n      swap1\n      pop\n      jump(tag_391)\n        /* \"contracts/ERC1404TokenMinKYCv12.sol\":9518:9604  if( _sellRestriction[_from] > block.timestamp )... */\n    tag_397:\n        /* \"contracts/ERC1404TokenMinKYCv12.sol\":9753:9768  block.timestamp */\n      timestamp\n        /* \"contracts/ERC1404TokenMinKYCv12.sol\":9730:9745  _buyRestriction */\n      0x00\n        /* \"contracts/ERC1404TokenMinKYCv12.sol\":9730:9750  _buyRestriction[_to] */\n      dup1\n        /* \"contracts/ERC1404TokenMinKYCv12.sol\":9746:9749  _to */\n      dup6\n        /* \"contracts/ERC1404TokenMinKYCv12.sol\":9730:9750  _buyRestriction[_to] */\n      0xffffffffffffffffffffffffffffffffffffffff\n      and\n      0xffffffffffffffffffffffffffffffffffffffff\n      and\n      dup2\n      mstore\n      0x20\n      add\n      swap1\n      dup2\n      mstore\n      0x20\n      add\n      0x00\n      keccak256\n      sload\n        /* \"contracts/ERC1404TokenMinKYCv12.sol\":9730:9768  _buyRestriction[_to] > block.timestamp */\n      gt\n        /* \"contracts/ERC1404TokenMinKYCv12.sol\":9726:9811  if( _buyRestriction[_to] > block.timestamp )... */\n      iszero\n      tag_398\n      jumpi\n        /* \"contracts/ERC1404TokenMinKYCv12.sol\":3277:3278  7 */\n      0x07\n        /* \"contracts/ERC1404TokenMinKYCv12.sol\":9775:9811  return Receiver_Under_Holding_Period */\n      swap1\n      pop\n      jump(tag_391)\n        /* \"contracts/ERC1404TokenMinKYCv12.sol\":9726:9811  if( _buyRestriction[_to] > block.timestamp )... */\n    tag_398:\n        /* \"contracts/ERC1404TokenMinKYCv12.sol\":10141:10142  0 */\n      0x00\n        /* \"contracts/ERC1404TokenMinKYCv12.sol\":10121:10137  allowedInvestors */\n      sload(0x11)\n        /* \"contracts/ERC1404TokenMinKYCv12.sol\":10121:10142  allowedInvestors == 0 */\n      eq\n        /* \"contracts/ERC1404TokenMinKYCv12.sol\":10118:11319  if(allowedInvestors == 0)... */\n      iszero\n      tag_399\n      jumpi\n        /* \"contracts/ERC1404TokenMinKYCv12.sol\":2878:2879  0 */\n      0x00\n        /* \"contracts/ERC1404TokenMinKYCv12.sol\":10148:10185  return No_Transfer_Restrictions_Found */\n      swap1\n      pop\n      jump(tag_391)\n        /* \"contracts/ERC1404TokenMinKYCv12.sol\":10118:11319  if(allowedInvestors == 0)... */\n    tag_399:\n        /* \"contracts/ERC1404TokenMinKYCv12.sol\":10222:10223  0 */\n      0x00\n        /* \"contracts/ERC1404TokenMinKYCv12.sol\":10205:10214  _balances */\n      0x02\n        /* \"contracts/ERC1404TokenMinKYCv12.sol\":10205:10219  _balances[_to] */\n      0x00\n        /* \"contracts/ERC1404TokenMinKYCv12.sol\":10215:10218  _to */\n      dup6\n        /* \"contracts/ERC1404TokenMinKYCv12.sol\":10205:10219  _balances[_to] */\n      0xffffffffffffffffffffffffffffffffffffffff\n      and\n      0xffffffffffffffffffffffffffffffffffffffff\n      and\n      dup2\n      mstore\n      0x20\n      add\n      swap1\n      dup2\n      mstore\n      0x20\n      add\n      0x00\n      keccak256\n      sload\n        /* \"contracts/ERC1404TokenMinKYCv12.sol\":10205:10223  _balances[_to] > 0 */\n      gt\n        /* \"contracts/ERC1404TokenMinKYCv12.sol\":10205:10240  _balances[_to] > 0 || _to == _owner */\n      dup1\n      tag_401\n      jumpi\n      pop\n        /* \"contracts/ERC1404TokenMinKYCv12.sol\":10234:10240  _owner */\n      0x04\n      0x00\n      swap1\n      sload\n      swap1\n      0x0100\n      exp\n      swap1\n      div\n      0xffffffffffffffffffffffffffffffffffffffff\n      and\n        /* \"contracts/ERC1404TokenMinKYCv12.sol\":10227:10240  _to == _owner */\n      0xffffffffffffffffffffffffffffffffffffffff\n      and\n        /* \"contracts/ERC1404TokenMinKYCv12.sol\":10227:10230  _to */\n      dup4\n        /* \"contracts/ERC1404TokenMinKYCv12.sol\":10227:10240  _to == _owner */\n      0xffffffffffffffffffffffffffffffffffffffff\n      and\n      eq\n        /* \"contracts/ERC1404TokenMinKYCv12.sol\":10205:10240  _balances[_to] > 0 || _to == _owner */\n    tag_401:\n        /* \"contracts/ERC1404TokenMinKYCv12.sol\":10201:11314  if( _balances[_to] > 0 || _to == _owner) ... */\n      iszero\n      tag_402\n      jumpi\n        /* \"contracts/ERC1404TokenMinKYCv12.sol\":2878:2879  0 */\n      0x00\n        /* \"contracts/ERC1404TokenMinKYCv12.sol\":10456:10493  return No_Transfer_Restrictions_Found */\n      swap1\n      pop\n      jump(tag_391)\n        /* \"contracts/ERC1404TokenMinKYCv12.sol\":10201:11314  if( _balances[_to] > 0 || _to == _owner) ... */\n    tag_402:\n        /* \"contracts/ERC1404TokenMinKYCv12.sol\":10540:10556  allowedInvestors */\n      sload(0x11)\n        /* \"contracts/ERC1404TokenMinKYCv12.sol\":10516:10537  currentTotalInvestors */\n      sload(0x10)\n        /* \"contracts/ERC1404TokenMinKYCv12.sol\":10516:10556  currentTotalInvestors < allowedInvestors */\n      lt\n        /* \"contracts/ERC1404TokenMinKYCv12.sol\":10511:11308  if(  currentTotalInvestors < allowedInvestors  )... */\n      iszero\n      tag_404\n      jumpi\n        /* \"contracts/ERC1404TokenMinKYCv12.sol\":2878:2879  0 */\n      0x00\n        /* \"contracts/ERC1404TokenMinKYCv12.sol\":10634:10671  return No_Transfer_Restrictions_Found */\n      swap1\n      pop\n      jump(tag_391)\n        /* \"contracts/ERC1404TokenMinKYCv12.sol\":10511:11308  if(  currentTotalInvestors < allowedInvestors  )... */\n    tag_404:\n        /* \"contracts/ERC1404TokenMinKYCv12.sol\":11171:11176  value */\n      dup2\n        /* \"contracts/ERC1404TokenMinKYCv12.sol\":11151:11160  _balances */\n      0x02\n        /* \"contracts/ERC1404TokenMinKYCv12.sol\":11151:11167  _balances[_from] */\n      0x00\n        /* \"contracts/ERC1404TokenMinKYCv12.sol\":11161:11166  _from */\n      dup7\n        /* \"contracts/ERC1404TokenMinKYCv12.sol\":11151:11167  _balances[_from] */\n      0xffffffffffffffffffffffffffffffffffffffff\n      and\n      0xffffffffffffffffffffffffffffffffffffffff\n      and\n      dup2\n      mstore\n      0x20\n      add\n      swap1\n      dup2\n      mstore\n      0x20\n      add\n      0x00\n      keccak256\n      sload\n        /* \"contracts/ERC1404TokenMinKYCv12.sol\":11151:11176  _balances[_from] == value */\n      eq\n        /* \"contracts/ERC1404TokenMinKYCv12.sol\":11151:11195  _balances[_from] == value && _from != _owner */\n      dup1\n      iszero\n      tag_406\n      jumpi\n      pop\n        /* \"contracts/ERC1404TokenMinKYCv12.sol\":11189:11195  _owner */\n      0x04\n      0x00\n      swap1\n      sload\n      swap1\n      0x0100\n      exp\n      swap1\n      div\n      0xffffffffffffffffffffffffffffffffffffffff\n      and\n        /* \"contracts/ERC1404TokenMinKYCv12.sol\":11180:11195  _from != _owner */\n      0xffffffffffffffffffffffffffffffffffffffff\n      and\n        /* \"contracts/ERC1404TokenMinKYCv12.sol\":11180:11185  _from */\n      dup5\n        /* \"contracts/ERC1404TokenMinKYCv12.sol\":11180:11195  _from != _owner */\n      0xffffffffffffffffffffffffffffffffffffffff\n      and\n      eq\n      iszero\n        /* \"contracts/ERC1404TokenMinKYCv12.sol\":11151:11195  _balances[_from] == value && _from != _owner */\n    tag_406:\n        /* \"contracts/ERC1404TokenMinKYCv12.sol\":11147:11300  if( _balances[_from] == value && _from != _owner)    ... */\n      iszero\n      tag_407\n      jumpi\n        /* \"contracts/ERC1404TokenMinKYCv12.sol\":2878:2879  0 */\n      0x00\n        /* \"contracts/ERC1404TokenMinKYCv12.sol\":11208:11245  return No_Transfer_Restrictions_Found */\n      swap1\n      pop\n      jump(tag_391)\n        /* \"contracts/ERC1404TokenMinKYCv12.sol\":11147:11300  if( _balances[_from] == value && _from != _owner)    ... */\n    tag_407:\n        /* \"contracts/ERC1404TokenMinKYCv12.sol\":2935:2936  1 */\n      0x01\n        /* \"contracts/ERC1404TokenMinKYCv12.sol\":11265:11300  return Max_Allowed_Investors_Exceed */\n      swap1\n      pop\n        /* \"contracts/ERC1404TokenMinKYCv12.sol\":8791:11325  function detectTransferRestriction (address _from, address _to, uint256 value) ... */\n    tag_391:\n      swap4\n      swap3\n      pop\n      pop\n      pop\n      jump\t// out\n        /* \"contracts/ERC1404TokenMinKYCv12.sol\":6382:6551  function removeWhitelistAuthorityStatus(address user)... */\n    tag_194:\n        /* \"contracts/ERC1404TokenMinKYCv12.sol\":5773:5783  msg.sender */\n      caller\n        /* \"contracts/ERC1404TokenMinKYCv12.sol\":5763:5783  _owner == msg.sender */\n      0xffffffffffffffffffffffffffffffffffffffff\n      and\n        /* \"contracts/ERC1404TokenMinKYCv12.sol\":5763:5769  _owner */\n      0x04\n      0x00\n      swap1\n      sload\n      swap1\n      0x0100\n      exp\n      swap1\n      div\n      0xffffffffffffffffffffffffffffffffffffffff\n      and\n        /* \"contracts/ERC1404TokenMinKYCv12.sol\":5763:5783  _owner == msg.sender */\n      0xffffffffffffffffffffffffffffffffffffffff\n      and\n      eq\n        /* \"contracts/ERC1404TokenMinKYCv12.sol\":5755:5816  require(_owner == msg.sender, \"Only owner can call function\") */\n      tag_410\n      jumpi\n      mload(0x40)\n      0x08c379a000000000000000000000000000000000000000000000000000000000\n      dup2\n      mstore\n      0x04\n      add\n      tag_411\n      swap1\n      tag_264\n      jump\t// in\n    tag_411:\n      mload(0x40)\n      dup1\n      swap2\n      sub\n      swap1\n      revert\n    tag_410:\n        /* \"contracts/ERC1404TokenMinKYCv12.sol\":6469:6495  _whitelistControlAuthority */\n      0x05\n        /* \"contracts/ERC1404TokenMinKYCv12.sol\":6469:6501  _whitelistControlAuthority[user] */\n      0x00\n        /* \"contracts/ERC1404TokenMinKYCv12.sol\":6496:6500  user */\n      dup3\n        /* \"contracts/ERC1404TokenMinKYCv12.sol\":6469:6501  _whitelistControlAuthority[user] */\n      0xffffffffffffffffffffffffffffffffffffffff\n      and\n      0xffffffffffffffffffffffffffffffffffffffff\n      and\n      dup2\n      mstore\n      0x20\n      add\n      swap1\n      dup2\n      mstore\n      0x20\n      add\n      0x00\n      keccak256\n      0x00\n        /* \"contracts/ERC1404TokenMinKYCv12.sol\":6462:6501  delete _whitelistControlAuthority[user] */\n      0x0100\n      exp\n      dup2\n      sload\n      swap1\n      0xff\n      mul\n      not\n      and\n      swap1\n      sstore\n        /* \"contracts/ERC1404TokenMinKYCv12.sol\":6510:6547  WhitelistAuthorityStatusRemoved(user) */\n      0x24546dc0f5df685d7c979edd1b0bcc4d85ac6a59974976d7217c9f0d930d3ff0\n        /* \"contracts/ERC1404TokenMinKYCv12.sol\":6542:6546  user */\n      dup2\n        /* \"contracts/ERC1404TokenMinKYCv12.sol\":6510:6547  WhitelistAuthorityStatusRemoved(user) */\n      mload(0x40)\n      tag_413\n      swap2\n      swap1\n      tag_147\n      jump\t// in\n    tag_413:\n      mload(0x40)\n      dup1\n      swap2\n      sub\n      swap1\n      log1\n        /* \"contracts/ERC1404TokenMinKYCv12.sol\":6382:6551  function removeWhitelistAuthorityStatus(address user)... */\n      pop\n      jump\t// out\n        /* \"contracts/ERC1404TokenMinKYCv12.sol\":13452:13602  function allowance(address ownby, address spender) ... */\n    tag_198:\n        /* \"contracts/ERC1404TokenMinKYCv12.sol\":13542:13549  uint256 */\n      0x00\n        /* \"contracts/ERC1404TokenMinKYCv12.sol\":13568:13579  _allowances */\n      0x03\n        /* \"contracts/ERC1404TokenMinKYCv12.sol\":13568:13586  _allowances[ownby] */\n      0x00\n        /* \"contracts/ERC1404TokenMinKYCv12.sol\":13580:13585  ownby */\n      dup5\n        /* \"contracts/ERC1404TokenMinKYCv12.sol\":13568:13586  _allowances[ownby] */\n      0xffffffffffffffffffffffffffffffffffffffff\n      and\n      0xffffffffffffffffffffffffffffffffffffffff\n      and\n      dup2\n      mstore\n      0x20\n      add\n      swap1\n      dup2\n      mstore\n      0x20\n      add\n      0x00\n      keccak256\n        /* \"contracts/ERC1404TokenMinKYCv12.sol\":13568:13595  _allowances[ownby][spender] */\n      0x00\n        /* \"contracts/ERC1404TokenMinKYCv12.sol\":13587:13594  spender */\n      dup4\n        /* \"contracts/ERC1404TokenMinKYCv12.sol\":13568:13595  _allowances[ownby][spender] */\n      0xffffffffffffffffffffffffffffffffffffffff\n      and\n      0xffffffffffffffffffffffffffffffffffffffff\n      and\n      dup2\n      mstore\n      0x20\n      add\n      swap1\n      dup2\n      mstore\n      0x20\n      add\n      0x00\n      keccak256\n      sload\n        /* \"contracts/ERC1404TokenMinKYCv12.sol\":13561:13595  return _allowances[ownby][spender] */\n      swap1\n      pop\n        /* \"contracts/ERC1404TokenMinKYCv12.sol\":13452:13602  function allowance(address ownby, address spender) ... */\n      swap3\n      swap2\n      pop\n      pop\n      jump\t// out\n        /* \"contracts/ERC1404TokenMinKYCv12.sol\":3223:3278  uint8 public constant Receiver_Under_Holding_Period = 7 */\n    tag_201:\n        /* \"contracts/ERC1404TokenMinKYCv12.sol\":3277:3278  7 */\n      0x07\n        /* \"contracts/ERC1404TokenMinKYCv12.sol\":3223:3278  uint8 public constant Receiver_Under_Holding_Period = 7 */\n      dup2\n      jump\t// out\n        /* \"contracts/ERC1404TokenMinKYCv12.sol\":6554:6686  function getWhitelistAuthorityStatus(address user)... */\n    tag_205:\n        /* \"contracts/ERC1404TokenMinKYCv12.sol\":6632:6636  bool */\n      0x00\n        /* \"contracts/ERC1404TokenMinKYCv12.sol\":6650:6676  _whitelistControlAuthority */\n      0x05\n        /* \"contracts/ERC1404TokenMinKYCv12.sol\":6650:6682  _whitelistControlAuthority[user] */\n      0x00\n        /* \"contracts/ERC1404TokenMinKYCv12.sol\":6677:6681  user */\n      dup4\n        /* \"contracts/ERC1404TokenMinKYCv12.sol\":6650:6682  _whitelistControlAuthority[user] */\n      0xffffffffffffffffffffffffffffffffffffffff\n      and\n      0xffffffffffffffffffffffffffffffffffffffff\n      and\n      dup2\n      mstore\n      0x20\n      add\n      swap1\n      dup2\n      mstore\n      0x20\n      add\n      0x00\n      keccak256\n      0x00\n      swap1\n      sload\n      swap1\n      0x0100\n      exp\n      swap1\n      div\n      0xff\n      and\n        /* \"contracts/ERC1404TokenMinKYCv12.sol\":6643:6682  return _whitelistControlAuthority[user] */\n      swap1\n      pop\n        /* \"contracts/ERC1404TokenMinKYCv12.sol\":6554:6686  function getWhitelistAuthorityStatus(address user)... */\n      swap2\n      swap1\n      pop\n      jump\t// out\n        /* \"contracts/ERC1404TokenMinKYCv12.sol\":5839:6004  function transferOwnership(address newOwner) ... */\n    tag_209:\n        /* \"contracts/ERC1404TokenMinKYCv12.sol\":5773:5783  msg.sender */\n      caller\n        /* \"contracts/ERC1404TokenMinKYCv12.sol\":5763:5783  _owner == msg.sender */\n      0xffffffffffffffffffffffffffffffffffffffff\n      and\n        /* \"contracts/ERC1404TokenMinKYCv12.sol\":5763:5769  _owner */\n      0x04\n      0x00\n      swap1\n      sload\n      swap1\n      0x0100\n      exp\n      swap1\n      div\n      0xffffffffffffffffffffffffffffffffffffffff\n      and\n        /* \"contracts/ERC1404TokenMinKYCv12.sol\":5763:5783  _owner == msg.sender */\n      0xffffffffffffffffffffffffffffffffffffffff\n      and\n      eq\n        /* \"contracts/ERC1404TokenMinKYCv12.sol\":5755:5816  require(_owner == msg.sender, \"Only owner can call function\") */\n      tag_417\n      jumpi\n      mload(0x40)\n      0x08c379a000000000000000000000000000000000000000000000000000000000\n      dup2\n      mstore\n      0x04\n      add\n      tag_418\n      swap1\n      tag_264\n      jump\t// in\n    tag_418:\n      mload(0x40)\n      dup1\n      swap2\n      sub\n      swap1\n      revert\n    tag_417:\n        /* \"contracts/ERC1404TokenMinKYCv12.sol\":5945:5946  0 */\n      0x00\n        /* \"contracts/ERC1404TokenMinKYCv12.sol\":5925:5947  newOwner != address(0) */\n      0xffffffffffffffffffffffffffffffffffffffff\n      and\n        /* \"contracts/ERC1404TokenMinKYCv12.sol\":5925:5933  newOwner */\n      dup2\n        /* \"contracts/ERC1404TokenMinKYCv12.sol\":5925:5947  newOwner != address(0) */\n      0xffffffffffffffffffffffffffffffffffffffff\n      and\n      eq\n      iszero\n        /* \"contracts/ERC1404TokenMinKYCv12.sol\":5917:5976  require(newOwner != address(0), \"Zero address not allowed\") */\n      tag_420\n      jumpi\n      mload(0x40)\n      0x08c379a000000000000000000000000000000000000000000000000000000000\n      dup2\n      mstore\n      0x04\n      add\n      tag_421\n      swap1\n      tag_222\n      jump\t// in\n    tag_421:\n      mload(0x40)\n      dup1\n      swap2\n      sub\n      swap1\n      revert\n    tag_420:\n        /* \"contracts/ERC1404TokenMinKYCv12.sol\":5989:5997  newOwner */\n      dup1\n        /* \"contracts/ERC1404TokenMinKYCv12.sol\":5980:5986  _owner */\n      0x04\n      0x00\n        /* \"contracts/ERC1404TokenMinKYCv12.sol\":5980:5997  _owner = newOwner */\n      0x0100\n      exp\n      dup2\n      sload\n      dup2\n      0xffffffffffffffffffffffffffffffffffffffff\n      mul\n      not\n      and\n      swap1\n      dup4\n      0xffffffffffffffffffffffffffffffffffffffff\n      and\n      mul\n      or\n      swap1\n      sstore\n      pop\n        /* \"contracts/ERC1404TokenMinKYCv12.sol\":5839:6004  function transferOwnership(address newOwner) ... */\n      pop\n      jump\t// out\n        /* \"contracts/ERC1404TokenMinKYCv12.sol\":3103:3164  uint8 public constant Receiver_Not_Whitelisted_or_Blocked = 5 */\n    tag_211:\n        /* \"contracts/ERC1404TokenMinKYCv12.sol\":3163:3164  5 */\n      0x05\n        /* \"contracts/ERC1404TokenMinKYCv12.sol\":3103:3164  uint8 public constant Receiver_Not_Whitelisted_or_Blocked = 5 */\n      dup2\n      jump\t// out\n        /* \"contracts/ERC1404TokenMinKYCv12.sol\":7367:8051  function setupKYCDataForUser (... */\n    tag_238:\n        /* \"contracts/ERC1404TokenMinKYCv12.sol\":7490:7515  uint256 tmpBuyRestriction */\n      0x00\n        /* \"contracts/ERC1404TokenMinKYCv12.sol\":7518:7533  _buyRestriction */\n      dup1\n        /* \"contracts/ERC1404TokenMinKYCv12.sol\":7518:7542  _buyRestriction[account] */\n      0x00\n        /* \"contracts/ERC1404TokenMinKYCv12.sol\":7534:7541  account */\n      dup6\n        /* \"contracts/ERC1404TokenMinKYCv12.sol\":7518:7542  _buyRestriction[account] */\n      0xffffffffffffffffffffffffffffffffffffffff\n      and\n      0xffffffffffffffffffffffffffffffffffffffff\n      and\n      dup2\n      mstore\n      0x20\n      add\n      swap1\n      dup2\n      mstore\n      0x20\n      add\n      0x00\n      keccak256\n      sload\n        /* \"contracts/ERC1404TokenMinKYCv12.sol\":7490:7542  uint256 tmpBuyRestriction = _buyRestriction[account] */\n      swap1\n      pop\n        /* \"contracts/ERC1404TokenMinKYCv12.sol\":7546:7572  uint256 tmpSellRestriction */\n      0x00\n        /* \"contracts/ERC1404TokenMinKYCv12.sol\":7575:7591  _sellRestriction */\n      0x01\n        /* \"contracts/ERC1404TokenMinKYCv12.sol\":7575:7600  _sellRestriction[account] */\n      0x00\n        /* \"contracts/ERC1404TokenMinKYCv12.sol\":7592:7599  account */\n      dup7\n        /* \"contracts/ERC1404TokenMinKYCv12.sol\":7575:7600  _sellRestriction[account] */\n      0xffffffffffffffffffffffffffffffffffffffff\n      and\n      0xffffffffffffffffffffffffffffffffffffffff\n      and\n      dup2\n      mstore\n      0x20\n      add\n      swap1\n      dup2\n      mstore\n      0x20\n      add\n      0x00\n      keccak256\n      sload\n        /* \"contracts/ERC1404TokenMinKYCv12.sol\":7546:7600  uint256 tmpSellRestriction = _sellRestriction[account] */\n      swap1\n      pop\n        /* \"contracts/ERC1404TokenMinKYCv12.sol\":7632:7646  buyRestriction */\n      dup4\n        /* \"contracts/ERC1404TokenMinKYCv12.sol\":7605:7620  _buyRestriction */\n      0x00\n        /* \"contracts/ERC1404TokenMinKYCv12.sol\":7605:7629  _buyRestriction[account] */\n      dup1\n        /* \"contracts/ERC1404TokenMinKYCv12.sol\":7621:7628  account */\n      dup8\n        /* \"contracts/ERC1404TokenMinKYCv12.sol\":7605:7629  _buyRestriction[account] */\n      0xffffffffffffffffffffffffffffffffffffffff\n      and\n      0xffffffffffffffffffffffffffffffffffffffff\n      and\n      dup2\n      mstore\n      0x20\n      add\n      swap1\n      dup2\n      mstore\n      0x20\n      add\n      0x00\n      keccak256\n        /* \"contracts/ERC1404TokenMinKYCv12.sol\":7605:7646  _buyRestriction[account] = buyRestriction */\n      dup2\n      swap1\n      sstore\n      pop\n        /* \"contracts/ERC1404TokenMinKYCv12.sol\":7678:7693  sellRestriction */\n      dup3\n        /* \"contracts/ERC1404TokenMinKYCv12.sol\":7650:7666  _sellRestriction */\n      0x01\n        /* \"contracts/ERC1404TokenMinKYCv12.sol\":7650:7675  _sellRestriction[account] */\n      0x00\n        /* \"contracts/ERC1404TokenMinKYCv12.sol\":7667:7674  account */\n      dup8\n        /* \"contracts/ERC1404TokenMinKYCv12.sol\":7650:7675  _sellRestriction[account] */\n      0xffffffffffffffffffffffffffffffffffffffff\n      and\n      0xffffffffffffffffffffffffffffffffffffffff\n      and\n      dup2\n      mstore\n      0x20\n      add\n      swap1\n      dup2\n      mstore\n      0x20\n      add\n      0x00\n      keccak256\n        /* \"contracts/ERC1404TokenMinKYCv12.sol\":7650:7693  _sellRestriction[account] = sellRestriction */\n      dup2\n      swap1\n      sstore\n      pop\n        /* \"contracts/ERC1404TokenMinKYCv12.sol\":7866:7867  0 */\n      0x00\n        /* \"contracts/ERC1404TokenMinKYCv12.sol\":7845:7862  tmpBuyRestriction */\n      dup3\n        /* \"contracts/ERC1404TokenMinKYCv12.sol\":7845:7867  tmpBuyRestriction == 0 */\n      eq\n        /* \"contracts/ERC1404TokenMinKYCv12.sol\":7845:7894  tmpBuyRestriction == 0 && tmpSellRestriction == 0 */\n      dup1\n      iszero\n      tag_423\n      jumpi\n      pop\n        /* \"contracts/ERC1404TokenMinKYCv12.sol\":7893:7894  0 */\n      0x00\n        /* \"contracts/ERC1404TokenMinKYCv12.sol\":7871:7889  tmpSellRestriction */\n      dup2\n        /* \"contracts/ERC1404TokenMinKYCv12.sol\":7871:7894  tmpSellRestriction == 0 */\n      eq\n        /* \"contracts/ERC1404TokenMinKYCv12.sol\":7845:7894  tmpBuyRestriction == 0 && tmpSellRestriction == 0 */\n    tag_423:\n        /* \"contracts/ERC1404TokenMinKYCv12.sol\":7842:8047  if(tmpBuyRestriction == 0 && tmpSellRestriction == 0)... */\n      iszero\n      tag_424\n      jumpi\n        /* \"contracts/ERC1404TokenMinKYCv12.sol\":7923:7930  account */\n      dup5\n        /* \"contracts/ERC1404TokenMinKYCv12.sol\":7904:7964  KYCDataForUserSet (account, buyRestriction, sellRestriction) */\n      0xffffffffffffffffffffffffffffffffffffffff\n      and\n      0xc78ee1de8eb00c83baa5f9bf324f00dd286b754a3826292de51c92c3e7a0cab5\n        /* \"contracts/ERC1404TokenMinKYCv12.sol\":7932:7946  buyRestriction */\n      dup6\n        /* \"contracts/ERC1404TokenMinKYCv12.sol\":7948:7963  sellRestriction */\n      dup6\n        /* \"contracts/ERC1404TokenMinKYCv12.sol\":7904:7964  KYCDataForUserSet (account, buyRestriction, sellRestriction) */\n      mload(0x40)\n      tag_425\n      swap3\n      swap2\n      swap1\n      tag_166\n      jump\t// in\n    tag_425:\n      mload(0x40)\n      dup1\n      swap2\n      sub\n      swap1\n      log2\n        /* \"contracts/ERC1404TokenMinKYCv12.sol\":7842:8047  if(tmpBuyRestriction == 0 && tmpSellRestriction == 0)... */\n      jump(tag_426)\n    tag_424:\n        /* \"contracts/ERC1404TokenMinKYCv12.sol\":8006:8013  account */\n      dup5\n        /* \"contracts/ERC1404TokenMinKYCv12.sol\":7981:8047  KYCDataForUserModified ( account, buyRestriction, sellRestriction) */\n      0xffffffffffffffffffffffffffffffffffffffff\n      and\n      0x50fc162609db30a736355688f8f60baab2991bebb40a6d50ed93371a95493616\n        /* \"contracts/ERC1404TokenMinKYCv12.sol\":8015:8029  buyRestriction */\n      dup6\n        /* \"contracts/ERC1404TokenMinKYCv12.sol\":8031:8046  sellRestriction */\n      dup6\n        /* \"contracts/ERC1404TokenMinKYCv12.sol\":7981:8047  KYCDataForUserModified ( account, buyRestriction, sellRestriction) */\n      mload(0x40)\n      tag_427\n      swap3\n      swap2\n      swap1\n      tag_166\n      jump\t// in\n    tag_427:\n      mload(0x40)\n      dup1\n      swap2\n      sub\n      swap1\n      log2\n        /* \"contracts/ERC1404TokenMinKYCv12.sol\":7842:8047  if(tmpBuyRestriction == 0 && tmpSellRestriction == 0)... */\n    tag_426:\n        /* \"contracts/ERC1404TokenMinKYCv12.sol\":7485:8051  {\t... */\n      pop\n      pop\n        /* \"contracts/ERC1404TokenMinKYCv12.sol\":7367:8051  function setupKYCDataForUser (... */\n      pop\n      pop\n      pop\n      jump\t// out\n        /* \"contracts/ERC1404TokenMinKYCv12.sol\":14656:15338  function transferSharesBetweenInvestors (... */\n    tag_254:\n        /* \"contracts/ERC1404TokenMinKYCv12.sol\":14827:14833  amount */\n      dup1\n        /* \"contracts/ERC1404TokenMinKYCv12.sol\":14806:14815  _balances */\n      0x02\n        /* \"contracts/ERC1404TokenMinKYCv12.sol\":14806:14823  _balances[sender] */\n      0x00\n        /* \"contracts/ERC1404TokenMinKYCv12.sol\":14816:14822  sender */\n      dup6\n        /* \"contracts/ERC1404TokenMinKYCv12.sol\":14806:14823  _balances[sender] */\n      0xffffffffffffffffffffffffffffffffffffffff\n      and\n      0xffffffffffffffffffffffffffffffffffffffff\n      and\n      dup2\n      mstore\n      0x20\n      add\n      swap1\n      dup2\n      mstore\n      0x20\n      add\n      0x00\n      keccak256\n      sload\n        /* \"contracts/ERC1404TokenMinKYCv12.sol\":14806:14833  _balances[sender] >= amount */\n      lt\n      iszero\n        /* \"contracts/ERC1404TokenMinKYCv12.sol\":14798:14873  require(_balances[sender] >= amount, \" Amount greater than sender balance\") */\n      tag_429\n      jumpi\n      mload(0x40)\n      0x08c379a000000000000000000000000000000000000000000000000000000000\n      dup2\n      mstore\n      0x04\n      add\n      tag_430\n      swap1\n      tag_431\n      jump\t// in\n    tag_430:\n      mload(0x40)\n      dup1\n      swap2\n      sub\n      swap1\n      revert\n    tag_429:\n        /* \"contracts/ERC1404TokenMinKYCv12.sol\":15002:15008  amount */\n      dup1\n        /* \"contracts/ERC1404TokenMinKYCv12.sol\":14982:14991  _balances */\n      0x02\n        /* \"contracts/ERC1404TokenMinKYCv12.sol\":14982:14999  _balances[sender] */\n      0x00\n        /* \"contracts/ERC1404TokenMinKYCv12.sol\":14992:14998  sender */\n      dup6\n        /* \"contracts/ERC1404TokenMinKYCv12.sol\":14982:14999  _balances[sender] */\n      0xffffffffffffffffffffffffffffffffffffffff\n      and\n      0xffffffffffffffffffffffffffffffffffffffff\n      and\n      dup2\n      mstore\n      0x20\n      add\n      swap1\n      dup2\n      mstore\n      0x20\n      add\n      0x00\n      keccak256\n      sload\n        /* \"contracts/ERC1404TokenMinKYCv12.sol\":14982:15008  _balances[sender] - amount */\n      tag_432\n      swap2\n      swap1\n      tag_256\n      jump\t// in\n    tag_432:\n        /* \"contracts/ERC1404TokenMinKYCv12.sol\":14962:14971  _balances */\n      0x02\n        /* \"contracts/ERC1404TokenMinKYCv12.sol\":14962:14979  _balances[sender] */\n      0x00\n        /* \"contracts/ERC1404TokenMinKYCv12.sol\":14972:14978  sender */\n      dup6\n        /* \"contracts/ERC1404TokenMinKYCv12.sol\":14962:14979  _balances[sender] */\n      0xffffffffffffffffffffffffffffffffffffffff\n      and\n      0xffffffffffffffffffffffffffffffffffffffff\n      and\n      dup2\n      mstore\n      0x20\n      add\n      swap1\n      dup2\n      mstore\n      0x20\n      add\n      0x00\n      keccak256\n        /* \"contracts/ERC1404TokenMinKYCv12.sol\":14962:15008  _balances[sender] = _balances[sender] - amount */\n      dup2\n      swap1\n      sstore\n      pop\n        /* \"contracts/ERC1404TokenMinKYCv12.sol\":15038:15039  0 */\n      0x00\n        /* \"contracts/ERC1404TokenMinKYCv12.sol\":15017:15026  _balances */\n      0x02\n        /* \"contracts/ERC1404TokenMinKYCv12.sol\":15017:15034  _balances[sender] */\n      0x00\n        /* \"contracts/ERC1404TokenMinKYCv12.sol\":15027:15033  sender */\n      dup6\n        /* \"contracts/ERC1404TokenMinKYCv12.sol\":15017:15034  _balances[sender] */\n      0xffffffffffffffffffffffffffffffffffffffff\n      and\n      0xffffffffffffffffffffffffffffffffffffffff\n      and\n      dup2\n      mstore\n      0x20\n      add\n      swap1\n      dup2\n      mstore\n      0x20\n      add\n      0x00\n      keccak256\n      sload\n        /* \"contracts/ERC1404TokenMinKYCv12.sol\":15017:15039  _balances[sender] == 0 */\n      eq\n        /* \"contracts/ERC1404TokenMinKYCv12.sol\":15017:15059  _balances[sender] == 0 && sender != _owner */\n      dup1\n      iszero\n      tag_433\n      jumpi\n      pop\n        /* \"contracts/ERC1404TokenMinKYCv12.sol\":15053:15059  _owner */\n      0x04\n      0x00\n      swap1\n      sload\n      swap1\n      0x0100\n      exp\n      swap1\n      div\n      0xffffffffffffffffffffffffffffffffffffffff\n      and\n        /* \"contracts/ERC1404TokenMinKYCv12.sol\":15043:15059  sender != _owner */\n      0xffffffffffffffffffffffffffffffffffffffff\n      and\n        /* \"contracts/ERC1404TokenMinKYCv12.sol\":15043:15049  sender */\n      dup4\n        /* \"contracts/ERC1404TokenMinKYCv12.sol\":15043:15059  sender != _owner */\n      0xffffffffffffffffffffffffffffffffffffffff\n      and\n      eq\n      iszero\n        /* \"contracts/ERC1404TokenMinKYCv12.sol\":15017:15059  _balances[sender] == 0 && sender != _owner */\n    tag_433:\n        /* \"contracts/ERC1404TokenMinKYCv12.sol\":15013:15115  if( _balances[sender] == 0 && sender != _owner )... */\n      iszero\n      tag_434\n      jumpi\n        /* \"contracts/ERC1404TokenMinKYCv12.sol\":15114:15115  1 */\n      0x01\n        /* \"contracts/ERC1404TokenMinKYCv12.sol\":15090:15111  currentTotalInvestors */\n      sload(0x10)\n        /* \"contracts/ERC1404TokenMinKYCv12.sol\":15090:15115  currentTotalInvestors - 1 */\n      tag_435\n      swap2\n      swap1\n      tag_256\n      jump\t// in\n    tag_435:\n        /* \"contracts/ERC1404TokenMinKYCv12.sol\":15066:15087  currentTotalInvestors */\n      0x10\n        /* \"contracts/ERC1404TokenMinKYCv12.sol\":15066:15115  currentTotalInvestors = currentTotalInvestors - 1 */\n      dup2\n      swap1\n      sstore\n      pop\n        /* \"contracts/ERC1404TokenMinKYCv12.sol\":15013:15115  if( _balances[sender] == 0 && sender != _owner )... */\n    tag_434:\n        /* \"contracts/ERC1404TokenMinKYCv12.sol\":15151:15152  0 */\n      0x00\n        /* \"contracts/ERC1404TokenMinKYCv12.sol\":15127:15136  _balances */\n      0x02\n        /* \"contracts/ERC1404TokenMinKYCv12.sol\":15127:15147  _balances[recipient] */\n      0x00\n        /* \"contracts/ERC1404TokenMinKYCv12.sol\":15137:15146  recipient */\n      dup5\n        /* \"contracts/ERC1404TokenMinKYCv12.sol\":15127:15147  _balances[recipient] */\n      0xffffffffffffffffffffffffffffffffffffffff\n      and\n      0xffffffffffffffffffffffffffffffffffffffff\n      and\n      dup2\n      mstore\n      0x20\n      add\n      swap1\n      dup2\n      mstore\n      0x20\n      add\n      0x00\n      keccak256\n      sload\n        /* \"contracts/ERC1404TokenMinKYCv12.sol\":15127:15152  _balances[recipient] == 0 */\n      eq\n        /* \"contracts/ERC1404TokenMinKYCv12.sol\":15127:15175  _balances[recipient] == 0 && recipient != _owner */\n      dup1\n      iszero\n      tag_436\n      jumpi\n      pop\n        /* \"contracts/ERC1404TokenMinKYCv12.sol\":15169:15175  _owner */\n      0x04\n      0x00\n      swap1\n      sload\n      swap1\n      0x0100\n      exp\n      swap1\n      div\n      0xffffffffffffffffffffffffffffffffffffffff\n      and\n        /* \"contracts/ERC1404TokenMinKYCv12.sol\":15156:15175  recipient != _owner */\n      0xffffffffffffffffffffffffffffffffffffffff\n      and\n        /* \"contracts/ERC1404TokenMinKYCv12.sol\":15156:15165  recipient */\n      dup3\n        /* \"contracts/ERC1404TokenMinKYCv12.sol\":15156:15175  recipient != _owner */\n      0xffffffffffffffffffffffffffffffffffffffff\n      and\n      eq\n      iszero\n        /* \"contracts/ERC1404TokenMinKYCv12.sol\":15127:15175  _balances[recipient] == 0 && recipient != _owner */\n    tag_436:\n        /* \"contracts/ERC1404TokenMinKYCv12.sol\":15123:15231  if( _balances[recipient] == 0 && recipient != _owner )... */\n      iszero\n      tag_437\n      jumpi\n        /* \"contracts/ERC1404TokenMinKYCv12.sol\":15230:15231  1 */\n      0x01\n        /* \"contracts/ERC1404TokenMinKYCv12.sol\":15206:15227  currentTotalInvestors */\n      sload(0x10)\n        /* \"contracts/ERC1404TokenMinKYCv12.sol\":15206:15231  currentTotalInvestors + 1 */\n      tag_438\n      swap2\n      swap1\n      tag_274\n      jump\t// in\n    tag_438:\n        /* \"contracts/ERC1404TokenMinKYCv12.sol\":15182:15203  currentTotalInvestors */\n      0x10\n        /* \"contracts/ERC1404TokenMinKYCv12.sol\":15182:15231  currentTotalInvestors = currentTotalInvestors + 1 */\n      dup2\n      swap1\n      sstore\n      pop\n        /* \"contracts/ERC1404TokenMinKYCv12.sol\":15123:15231  if( _balances[recipient] == 0 && recipient != _owner )... */\n    tag_437:\n        /* \"contracts/ERC1404TokenMinKYCv12.sol\":15282:15288  amount */\n      dup1\n        /* \"contracts/ERC1404TokenMinKYCv12.sol\":15259:15268  _balances */\n      0x02\n        /* \"contracts/ERC1404TokenMinKYCv12.sol\":15259:15279  _balances[recipient] */\n      0x00\n        /* \"contracts/ERC1404TokenMinKYCv12.sol\":15269:15278  recipient */\n      dup5\n        /* \"contracts/ERC1404TokenMinKYCv12.sol\":15259:15279  _balances[recipient] */\n      0xffffffffffffffffffffffffffffffffffffffff\n      and\n      0xffffffffffffffffffffffffffffffffffffffff\n      and\n      dup2\n      mstore\n      0x20\n      add\n      swap1\n      dup2\n      mstore\n      0x20\n      add\n      0x00\n      keccak256\n      sload\n        /* \"contracts/ERC1404TokenMinKYCv12.sol\":15259:15288  _balances[recipient] + amount */\n      tag_439\n      swap2\n      swap1\n      tag_274\n      jump\t// in\n    tag_439:\n        /* \"contracts/ERC1404TokenMinKYCv12.sol\":15236:15245  _balances */\n      0x02\n        /* \"contracts/ERC1404TokenMinKYCv12.sol\":15236:15256  _balances[recipient] */\n      0x00\n        /* \"contracts/ERC1404TokenMinKYCv12.sol\":15246:15255  recipient */\n      dup5\n        /* \"contracts/ERC1404TokenMinKYCv12.sol\":15236:15256  _balances[recipient] */\n      0xffffffffffffffffffffffffffffffffffffffff\n      and\n      0xffffffffffffffffffffffffffffffffffffffff\n      and\n      dup2\n      mstore\n      0x20\n      add\n      swap1\n      dup2\n      mstore\n      0x20\n      add\n      0x00\n      keccak256\n        /* \"contracts/ERC1404TokenMinKYCv12.sol\":15236:15288  _balances[recipient] = _balances[recipient] + amount */\n      dup2\n      swap1\n      sstore\n      pop\n        /* \"contracts/ERC1404TokenMinKYCv12.sol\":15316:15325  recipient */\n      dup2\n        /* \"contracts/ERC1404TokenMinKYCv12.sol\":15299:15334  Transfer(sender, recipient, amount) */\n      0xffffffffffffffffffffffffffffffffffffffff\n      and\n        /* \"contracts/ERC1404TokenMinKYCv12.sol\":15308:15314  sender */\n      dup4\n        /* \"contracts/ERC1404TokenMinKYCv12.sol\":15299:15334  Transfer(sender, recipient, amount) */\n      0xffffffffffffffffffffffffffffffffffffffff\n      and\n      0xddf252ad1be2c89b69c2b068fc378daa952ba7f163c4a11628f55a4df523b3ef\n        /* \"contracts/ERC1404TokenMinKYCv12.sol\":15327:15333  amount */\n      dup4\n        /* \"contracts/ERC1404TokenMinKYCv12.sol\":15299:15334  Transfer(sender, recipient, amount) */\n      mload(0x40)\n      tag_440\n      swap2\n      swap1\n      tag_75\n      jump\t// in\n    tag_440:\n      mload(0x40)\n      dup1\n      swap2\n      sub\n      swap1\n      log3\n        /* \"contracts/ERC1404TokenMinKYCv12.sol\":14656:15338  function transferSharesBetweenInvestors (... */\n      pop\n      pop\n      pop\n      jump\t// out\n    tag_282:\n      dup3\n      dup1\n      sload\n      tag_441\n      swap1\n      tag_214\n      jump\t// in\n    tag_441:\n      swap1\n      0x00\n      mstore\n      keccak256(0x00, 0x20)\n      swap1\n      0x1f\n      add\n      0x20\n      swap1\n      div\n      dup2\n      add\n      swap3\n      dup3\n      tag_443\n      jumpi\n      0x00\n      dup6\n      sstore\n      jump(tag_442)\n    tag_443:\n      dup3\n      0x1f\n      lt\n      tag_444\n      jumpi\n      dup1\n      mload\n      not(0xff)\n      and\n      dup4\n      dup1\n      add\n      or\n      dup6\n      sstore\n      jump(tag_442)\n    tag_444:\n      dup3\n      dup1\n      add\n      0x01\n      add\n      dup6\n      sstore\n      dup3\n      iszero\n      tag_442\n      jumpi\n      swap2\n      dup3\n      add\n    tag_445:\n      dup3\n      dup2\n      gt\n      iszero\n      tag_446\n      jumpi\n      dup3\n      mload\n      dup3\n      sstore\n      swap2\n      0x20\n      add\n      swap2\n      swap1\n      0x01\n      add\n      swap1\n      jump(tag_445)\n    tag_446:\n    tag_442:\n      pop\n      swap1\n      pop\n      tag_447\n      swap2\n      swap1\n      tag_448\n      jump\t// in\n    tag_447:\n      pop\n      swap1\n      jump\t// out\n    tag_448:\n    tag_449:\n      dup1\n      dup3\n      gt\n      iszero\n      tag_450\n      jumpi\n      0x00\n      dup2\n      0x00\n      swap1\n      sstore\n      pop\n      0x01\n      add\n      jump(tag_449)\n    tag_450:\n      pop\n      swap1\n      jump\t// out\n        /* \"#utility.yul\":24:746   */\n    tag_452:\n        /* \"#utility.yul\":120:125   */\n      0x00\n        /* \"#utility.yul\":145:226   */\n      tag_454\n        /* \"#utility.yul\":161:225   */\n      tag_455\n        /* \"#utility.yul\":218:224   */\n      dup5\n        /* \"#utility.yul\":161:225   */\n      tag_456\n      jump\t// in\n    tag_455:\n        /* \"#utility.yul\":145:226   */\n      tag_457\n      jump\t// in\n    tag_454:\n        /* \"#utility.yul\":136:226   */\n      swap1\n      pop\n        /* \"#utility.yul\":246:251   */\n      dup1\n        /* \"#utility.yul\":275:281   */\n      dup4\n        /* \"#utility.yul\":268:273   */\n      dup3\n        /* \"#utility.yul\":261:282   */\n      mstore\n        /* \"#utility.yul\":309:313   */\n      0x20\n        /* \"#utility.yul\":302:307   */\n      dup3\n        /* \"#utility.yul\":298:314   */\n      add\n        /* \"#utility.yul\":291:314   */\n      swap1\n      pop\n        /* \"#utility.yul\":335:341   */\n      dup3\n        /* \"#utility.yul\":385:388   */\n      dup6\n        /* \"#utility.yul\":377:381   */\n      0x20\n        /* \"#utility.yul\":369:375   */\n      dup7\n        /* \"#utility.yul\":365:382   */\n      mul\n        /* \"#utility.yul\":360:363   */\n      dup3\n        /* \"#utility.yul\":356:383   */\n      add\n        /* \"#utility.yul\":353:389   */\n      gt\n        /* \"#utility.yul\":350:493   */\n      iszero\n      tag_458\n      jumpi\n        /* \"#utility.yul\":404:483   */\n      tag_459\n      tag_460\n      jump\t// in\n    tag_459:\n        /* \"#utility.yul\":350:493   */\n    tag_458:\n        /* \"#utility.yul\":517:518   */\n      0x00\n        /* \"#utility.yul\":502:740   */\n    tag_461:\n        /* \"#utility.yul\":527:533   */\n      dup6\n        /* \"#utility.yul\":524:525   */\n      dup2\n        /* \"#utility.yul\":521:534   */\n      lt\n        /* \"#utility.yul\":502:740   */\n      iszero\n      tag_463\n      jumpi\n        /* \"#utility.yul\":595:598   */\n      dup2\n        /* \"#utility.yul\":624:661   */\n      tag_464\n        /* \"#utility.yul\":657:660   */\n      dup9\n        /* \"#utility.yul\":645:655   */\n      dup3\n        /* \"#utility.yul\":624:661   */\n      tag_465\n      jump\t// in\n    tag_464:\n        /* \"#utility.yul\":619:622   */\n      dup5\n        /* \"#utility.yul\":612:662   */\n      mstore\n        /* \"#utility.yul\":691:695   */\n      0x20\n        /* \"#utility.yul\":686:689   */\n      dup5\n        /* \"#utility.yul\":682:696   */\n      add\n        /* \"#utility.yul\":675:696   */\n      swap4\n      pop\n        /* \"#utility.yul\":725:729   */\n      0x20\n        /* \"#utility.yul\":720:723   */\n      dup4\n        /* \"#utility.yul\":716:730   */\n      add\n        /* \"#utility.yul\":709:730   */\n      swap3\n      pop\n        /* \"#utility.yul\":562:740   */\n      pop\n        /* \"#utility.yul\":549:550   */\n      0x01\n        /* \"#utility.yul\":546:547   */\n      dup2\n        /* \"#utility.yul\":542:551   */\n      add\n        /* \"#utility.yul\":537:551   */\n      swap1\n      pop\n        /* \"#utility.yul\":502:740   */\n      jump(tag_461)\n    tag_463:\n        /* \"#utility.yul\":506:520   */\n      pop\n        /* \"#utility.yul\":126:746   */\n      pop\n      pop\n        /* \"#utility.yul\":24:746   */\n      swap4\n      swap3\n      pop\n      pop\n      pop\n      jump\t// out\n        /* \"#utility.yul\":752:1164   */\n    tag_466:\n        /* \"#utility.yul\":830:835   */\n      0x00\n        /* \"#utility.yul\":855:921   */\n      tag_468\n        /* \"#utility.yul\":871:920   */\n      tag_469\n        /* \"#utility.yul\":913:919   */\n      dup5\n        /* \"#utility.yul\":871:920   */\n      tag_470\n      jump\t// in\n    tag_469:\n        /* \"#utility.yul\":855:921   */\n      tag_457\n      jump\t// in\n    tag_468:\n        /* \"#utility.yul\":846:921   */\n      swap1\n      pop\n        /* \"#utility.yul\":944:950   */\n      dup3\n        /* \"#utility.yul\":937:942   */\n      dup2\n        /* \"#utility.yul\":930:951   */\n      mstore\n        /* \"#utility.yul\":982:986   */\n      0x20\n        /* \"#utility.yul\":975:980   */\n      dup2\n        /* \"#utility.yul\":971:987   */\n      add\n        /* \"#utility.yul\":1020:1023   */\n      dup5\n        /* \"#utility.yul\":1011:1017   */\n      dup5\n        /* \"#utility.yul\":1006:1009   */\n      dup5\n        /* \"#utility.yul\":1002:1018   */\n      add\n        /* \"#utility.yul\":999:1024   */\n      gt\n        /* \"#utility.yul\":996:1108   */\n      iszero\n      tag_471\n      jumpi\n        /* \"#utility.yul\":1027:1106   */\n      tag_472\n      tag_473\n      jump\t// in\n    tag_472:\n        /* \"#utility.yul\":996:1108   */\n    tag_471:\n        /* \"#utility.yul\":1117:1158   */\n      tag_474\n        /* \"#utility.yul\":1151:1157   */\n      dup5\n        /* \"#utility.yul\":1146:1149   */\n      dup3\n        /* \"#utility.yul\":1141:1144   */\n      dup6\n        /* \"#utility.yul\":1117:1158   */\n      tag_475\n      jump\t// in\n    tag_474:\n        /* \"#utility.yul\":836:1164   */\n      pop\n        /* \"#utility.yul\":752:1164   */\n      swap4\n      swap3\n      pop\n      pop\n      pop\n      jump\t// out\n        /* \"#utility.yul\":1170:1309   */\n    tag_465:\n        /* \"#utility.yul\":1216:1221   */\n      0x00\n        /* \"#utility.yul\":1254:1260   */\n      dup2\n        /* \"#utility.yul\":1241:1261   */\n      calldataload\n        /* \"#utility.yul\":1232:1261   */\n      swap1\n      pop\n        /* \"#utility.yul\":1270:1303   */\n      tag_477\n        /* \"#utility.yul\":1297:1302   */\n      dup2\n        /* \"#utility.yul\":1270:1303   */\n      tag_478\n      jump\t// in\n    tag_477:\n        /* \"#utility.yul\":1170:1309   */\n      swap3\n      swap2\n      pop\n      pop\n      jump\t// out\n        /* \"#utility.yul\":1332:1702   */\n    tag_479:\n        /* \"#utility.yul\":1403:1408   */\n      0x00\n        /* \"#utility.yul\":1452:1455   */\n      dup3\n        /* \"#utility.yul\":1445:1449   */\n      0x1f\n        /* \"#utility.yul\":1437:1443   */\n      dup4\n        /* \"#utility.yul\":1433:1450   */\n      add\n        /* \"#utility.yul\":1429:1456   */\n      slt\n        /* \"#utility.yul\":1419:1541   */\n      tag_481\n      jumpi\n        /* \"#utility.yul\":1460:1539   */\n      tag_482\n      tag_483\n      jump\t// in\n    tag_482:\n        /* \"#utility.yul\":1419:1541   */\n    tag_481:\n        /* \"#utility.yul\":1577:1583   */\n      dup2\n        /* \"#utility.yul\":1564:1584   */\n      calldataload\n        /* \"#utility.yul\":1602:1696   */\n      tag_484\n        /* \"#utility.yul\":1692:1695   */\n      dup5\n        /* \"#utility.yul\":1684:1690   */\n      dup3\n        /* \"#utility.yul\":1677:1681   */\n      0x20\n        /* \"#utility.yul\":1669:1675   */\n      dup7\n        /* \"#utility.yul\":1665:1682   */\n      add\n        /* \"#utility.yul\":1602:1696   */\n      tag_452\n      jump\t// in\n    tag_484:\n        /* \"#utility.yul\":1593:1696   */\n      swap2\n      pop\n        /* \"#utility.yul\":1409:1702   */\n      pop\n        /* \"#utility.yul\":1332:1702   */\n      swap3\n      swap2\n      pop\n      pop\n      jump\t// out\n        /* \"#utility.yul\":1722:2062   */\n    tag_485:\n        /* \"#utility.yul\":1778:1783   */\n      0x00\n        /* \"#utility.yul\":1827:1830   */\n      dup3\n        /* \"#utility.yul\":1820:1824   */\n      0x1f\n        /* \"#utility.yul\":1812:1818   */\n      dup4\n        /* \"#utility.yul\":1808:1825   */\n      add\n        /* \"#utility.yul\":1804:1831   */\n      slt\n        /* \"#utility.yul\":1794:1916   */\n      tag_487\n      jumpi\n        /* \"#utility.yul\":1835:1914   */\n      tag_488\n      tag_483\n      jump\t// in\n    tag_488:\n        /* \"#utility.yul\":1794:1916   */\n    tag_487:\n        /* \"#utility.yul\":1952:1958   */\n      dup2\n        /* \"#utility.yul\":1939:1959   */\n      calldataload\n        /* \"#utility.yul\":1977:2056   */\n      tag_489\n        /* \"#utility.yul\":2052:2055   */\n      dup5\n        /* \"#utility.yul\":2044:2050   */\n      dup3\n        /* \"#utility.yul\":2037:2041   */\n      0x20\n        /* \"#utility.yul\":2029:2035   */\n      dup7\n        /* \"#utility.yul\":2025:2042   */\n      add\n        /* \"#utility.yul\":1977:2056   */\n      tag_466\n      jump\t// in\n    tag_489:\n        /* \"#utility.yul\":1968:2056   */\n      swap2\n      pop\n        /* \"#utility.yul\":1784:2062   */\n      pop\n        /* \"#utility.yul\":1722:2062   */\n      swap3\n      swap2\n      pop\n      pop\n      jump\t// out\n        /* \"#utility.yul\":2068:2207   */\n    tag_490:\n        /* \"#utility.yul\":2114:2119   */\n      0x00\n        /* \"#utility.yul\":2152:2158   */\n      dup2\n        /* \"#utility.yul\":2139:2159   */\n      calldataload\n        /* \"#utility.yul\":2130:2159   */\n      swap1\n      pop\n        /* \"#utility.yul\":2168:2201   */\n      tag_492\n        /* \"#utility.yul\":2195:2200   */\n      dup2\n        /* \"#utility.yul\":2168:2201   */\n      tag_493\n      jump\t// in\n    tag_492:\n        /* \"#utility.yul\":2068:2207   */\n      swap3\n      swap2\n      pop\n      pop\n      jump\t// out\n        /* \"#utility.yul\":2213:2348   */\n    tag_494:\n        /* \"#utility.yul\":2257:2262   */\n      0x00\n        /* \"#utility.yul\":2295:2301   */\n      dup2\n        /* \"#utility.yul\":2282:2302   */\n      calldataload\n        /* \"#utility.yul\":2273:2302   */\n      swap1\n      pop\n        /* \"#utility.yul\":2311:2342   */\n      tag_496\n        /* \"#utility.yul\":2336:2341   */\n      dup2\n        /* \"#utility.yul\":2311:2342   */\n      tag_497\n      jump\t// in\n    tag_496:\n        /* \"#utility.yul\":2213:2348   */\n      swap3\n      swap2\n      pop\n      pop\n      jump\t// out\n        /* \"#utility.yul\":2354:2683   */\n    tag_124:\n        /* \"#utility.yul\":2413:2419   */\n      0x00\n        /* \"#utility.yul\":2462:2464   */\n      0x20\n        /* \"#utility.yul\":2450:2459   */\n      dup3\n        /* \"#utility.yul\":2441:2448   */\n      dup5\n        /* \"#utility.yul\":2437:2460   */\n      sub\n        /* \"#utility.yul\":2433:2465   */\n      slt\n        /* \"#utility.yul\":2430:2549   */\n      iszero\n      tag_499\n      jumpi\n        /* \"#utility.yul\":2468:2547   */\n      tag_500\n      tag_501\n      jump\t// in\n    tag_500:\n        /* \"#utility.yul\":2430:2549   */\n    tag_499:\n        /* \"#utility.yul\":2588:2589   */\n      0x00\n        /* \"#utility.yul\":2613:2666   */\n      tag_502\n        /* \"#utility.yul\":2658:2665   */\n      dup5\n        /* \"#utility.yul\":2649:2655   */\n      dup3\n        /* \"#utility.yul\":2638:2647   */\n      dup6\n        /* \"#utility.yul\":2634:2656   */\n      add\n        /* \"#utility.yul\":2613:2666   */\n      tag_465\n      jump\t// in\n    tag_502:\n        /* \"#utility.yul\":2603:2666   */\n      swap2\n      pop\n        /* \"#utility.yul\":2559:2676   */\n      pop\n        /* \"#utility.yul\":2354:2683   */\n      swap3\n      swap2\n      pop\n      pop\n      jump\t// out\n        /* \"#utility.yul\":2689:3163   */\n    tag_197:\n        /* \"#utility.yul\":2757:2763   */\n      0x00\n        /* \"#utility.yul\":2765:2771   */\n      dup1\n        /* \"#utility.yul\":2814:2816   */\n      0x40\n        /* \"#utility.yul\":2802:2811   */\n      dup4\n        /* \"#utility.yul\":2793:2800   */\n      dup6\n        /* \"#utility.yul\":2789:2812   */\n      sub\n        /* \"#utility.yul\":2785:2817   */\n      slt\n        /* \"#utility.yul\":2782:2901   */\n      iszero\n      tag_504\n      jumpi\n        /* \"#utility.yul\":2820:2899   */\n      tag_505\n      tag_501\n      jump\t// in\n    tag_505:\n        /* \"#utility.yul\":2782:2901   */\n    tag_504:\n        /* \"#utility.yul\":2940:2941   */\n      0x00\n        /* \"#utility.yul\":2965:3018   */\n      tag_506\n        /* \"#utility.yul\":3010:3017   */\n      dup6\n        /* \"#utility.yul\":3001:3007   */\n      dup3\n        /* \"#utility.yul\":2990:2999   */\n      dup7\n        /* \"#utility.yul\":2986:3008   */\n      add\n        /* \"#utility.yul\":2965:3018   */\n      tag_465\n      jump\t// in\n    tag_506:\n        /* \"#utility.yul\":2955:3018   */\n      swap3\n      pop\n        /* \"#utility.yul\":2911:3028   */\n      pop\n        /* \"#utility.yul\":3067:3069   */\n      0x20\n        /* \"#utility.yul\":3093:3146   */\n      tag_507\n        /* \"#utility.yul\":3138:3145   */\n      dup6\n        /* \"#utility.yul\":3129:3135   */\n      dup3\n        /* \"#utility.yul\":3118:3127   */\n      dup7\n        /* \"#utility.yul\":3114:3136   */\n      add\n        /* \"#utility.yul\":3093:3146   */\n      tag_465\n      jump\t// in\n    tag_507:\n        /* \"#utility.yul\":3083:3146   */\n      swap2\n      pop\n        /* \"#utility.yul\":3038:3156   */\n      pop\n        /* \"#utility.yul\":2689:3163   */\n      swap3\n      pop\n      swap3\n      swap1\n      pop\n      jump\t// out\n        /* \"#utility.yul\":3169:3788   */\n    tag_78:\n        /* \"#utility.yul\":3246:3252   */\n      0x00\n        /* \"#utility.yul\":3254:3260   */\n      dup1\n        /* \"#utility.yul\":3262:3268   */\n      0x00\n        /* \"#utility.yul\":3311:3313   */\n      0x60\n        /* \"#utility.yul\":3299:3308   */\n      dup5\n        /* \"#utility.yul\":3290:3297   */\n      dup7\n        /* \"#utility.yul\":3286:3309   */\n      sub\n        /* \"#utility.yul\":3282:3314   */\n      slt\n        /* \"#utility.yul\":3279:3398   */\n      iszero\n      tag_509\n      jumpi\n        /* \"#utility.yul\":3317:3396   */\n      tag_510\n      tag_501\n      jump\t// in\n    tag_510:\n        /* \"#utility.yul\":3279:3398   */\n    tag_509:\n        /* \"#utility.yul\":3437:3438   */\n      0x00\n        /* \"#utility.yul\":3462:3515   */\n      tag_511\n        /* \"#utility.yul\":3507:3514   */\n      dup7\n        /* \"#utility.yul\":3498:3504   */\n      dup3\n        /* \"#utility.yul\":3487:3496   */\n      dup8\n        /* \"#utility.yul\":3483:3505   */\n      add\n        /* \"#utility.yul\":3462:3515   */\n      tag_465\n      jump\t// in\n    tag_511:\n        /* \"#utility.yul\":3452:3515   */\n      swap4\n      pop\n        /* \"#utility.yul\":3408:3525   */\n      pop\n        /* \"#utility.yul\":3564:3566   */\n      0x20\n        /* \"#utility.yul\":3590:3643   */\n      tag_512\n        /* \"#utility.yul\":3635:3642   */\n      dup7\n        /* \"#utility.yul\":3626:3632   */\n      dup3\n        /* \"#utility.yul\":3615:3624   */\n      dup8\n        /* \"#utility.yul\":3611:3633   */\n      add\n        /* \"#utility.yul\":3590:3643   */\n      tag_465\n      jump\t// in\n    tag_512:\n        /* \"#utility.yul\":3580:3643   */\n      swap3\n      pop\n        /* \"#utility.yul\":3535:3653   */\n      pop\n        /* \"#utility.yul\":3692:3694   */\n      0x40\n        /* \"#utility.yul\":3718:3771   */\n      tag_513\n        /* \"#utility.yul\":3763:3770   */\n      dup7\n        /* \"#utility.yul\":3754:3760   */\n      dup3\n        /* \"#utility.yul\":3743:3752   */\n      dup8\n        /* \"#utility.yul\":3739:3761   */\n      add\n        /* \"#utility.yul\":3718:3771   */\n      tag_490\n      jump\t// in\n    tag_513:\n        /* \"#utility.yul\":3708:3771   */\n      swap2\n      pop\n        /* \"#utility.yul\":3663:3781   */\n      pop\n        /* \"#utility.yul\":3169:3788   */\n      swap3\n      pop\n      swap3\n      pop\n      swap3\n      jump\t// out\n        /* \"#utility.yul\":3794:4268   */\n    tag_60:\n        /* \"#utility.yul\":3862:3868   */\n      0x00\n        /* \"#utility.yul\":3870:3876   */\n      dup1\n        /* \"#utility.yul\":3919:3921   */\n      0x40\n        /* \"#utility.yul\":3907:3916   */\n      dup4\n        /* \"#utility.yul\":3898:3905   */\n      dup6\n        /* \"#utility.yul\":3894:3917   */\n      sub\n        /* \"#utility.yul\":3890:3922   */\n      slt\n        /* \"#utility.yul\":3887:4006   */\n      iszero\n      tag_515\n      jumpi\n        /* \"#utility.yul\":3925:4004   */\n      tag_516\n      tag_501\n      jump\t// in\n    tag_516:\n        /* \"#utility.yul\":3887:4006   */\n    tag_515:\n        /* \"#utility.yul\":4045:4046   */\n      0x00\n        /* \"#utility.yul\":4070:4123   */\n      tag_517\n        /* \"#utility.yul\":4115:4122   */\n      dup6\n        /* \"#utility.yul\":4106:4112   */\n      dup3\n        /* \"#utility.yul\":4095:4104   */\n      dup7\n        /* \"#utility.yul\":4091:4113   */\n      add\n        /* \"#utility.yul\":4070:4123   */\n      tag_465\n      jump\t// in\n    tag_517:\n        /* \"#utility.yul\":4060:4123   */\n      swap3\n      pop\n        /* \"#utility.yul\":4016:4133   */\n      pop\n        /* \"#utility.yul\":4172:4174   */\n      0x20\n        /* \"#utility.yul\":4198:4251   */\n      tag_518\n        /* \"#utility.yul\":4243:4250   */\n      dup6\n        /* \"#utility.yul\":4234:4240   */\n      dup3\n        /* \"#utility.yul\":4223:4232   */\n      dup7\n        /* \"#utility.yul\":4219:4241   */\n      add\n        /* \"#utility.yul\":4198:4251   */\n      tag_490\n      jump\t// in\n    tag_518:\n        /* \"#utility.yul\":4188:4251   */\n      swap2\n      pop\n        /* \"#utility.yul\":4143:4261   */\n      pop\n        /* \"#utility.yul\":3794:4268   */\n      swap3\n      pop\n      swap3\n      swap1\n      pop\n      jump\t// out\n        /* \"#utility.yul\":4274:4893   */\n    tag_83:\n        /* \"#utility.yul\":4351:4357   */\n      0x00\n        /* \"#utility.yul\":4359:4365   */\n      dup1\n        /* \"#utility.yul\":4367:4373   */\n      0x00\n        /* \"#utility.yul\":4416:4418   */\n      0x60\n        /* \"#utility.yul\":4404:4413   */\n      dup5\n        /* \"#utility.yul\":4395:4402   */\n      dup7\n        /* \"#utility.yul\":4391:4414   */\n      sub\n        /* \"#utility.yul\":4387:4419   */\n      slt\n        /* \"#utility.yul\":4384:4503   */\n      iszero\n      tag_520\n      jumpi\n        /* \"#utility.yul\":4422:4501   */\n      tag_521\n      tag_501\n      jump\t// in\n    tag_521:\n        /* \"#utility.yul\":4384:4503   */\n    tag_520:\n        /* \"#utility.yul\":4542:4543   */\n      0x00\n        /* \"#utility.yul\":4567:4620   */\n      tag_522\n        /* \"#utility.yul\":4612:4619   */\n      dup7\n        /* \"#utility.yul\":4603:4609   */\n      dup3\n        /* \"#utility.yul\":4592:4601   */\n      dup8\n        /* \"#utility.yul\":4588:4610   */\n      add\n        /* \"#utility.yul\":4567:4620   */\n      tag_465\n      jump\t// in\n    tag_522:\n        /* \"#utility.yul\":4557:4620   */\n      swap4\n      pop\n        /* \"#utility.yul\":4513:4630   */\n      pop\n        /* \"#utility.yul\":4669:4671   */\n      0x20\n        /* \"#utility.yul\":4695:4748   */\n      tag_523\n        /* \"#utility.yul\":4740:4747   */\n      dup7\n        /* \"#utility.yul\":4731:4737   */\n      dup3\n        /* \"#utility.yul\":4720:4729   */\n      dup8\n        /* \"#utility.yul\":4716:4738   */\n      add\n        /* \"#utility.yul\":4695:4748   */\n      tag_490\n      jump\t// in\n    tag_523:\n        /* \"#utility.yul\":4685:4748   */\n      swap3\n      pop\n        /* \"#utility.yul\":4640:4758   */\n      pop\n        /* \"#utility.yul\":4797:4799   */\n      0x40\n        /* \"#utility.yul\":4823:4876   */\n      tag_524\n        /* \"#utility.yul\":4868:4875   */\n      dup7\n        /* \"#utility.yul\":4859:4865   */\n      dup3\n        /* \"#utility.yul\":4848:4857   */\n      dup8\n        /* \"#utility.yul\":4844:4866   */\n      add\n        /* \"#utility.yul\":4823:4876   */\n      tag_490\n      jump\t// in\n    tag_524:\n        /* \"#utility.yul\":4813:4876   */\n      swap2\n      pop\n        /* \"#utility.yul\":4768:4886   */\n      pop\n        /* \"#utility.yul\":4274:4893   */\n      swap3\n      pop\n      swap3\n      pop\n      swap3\n      jump\t// out\n        /* \"#utility.yul\":4899:5728   */\n    tag_66:\n        /* \"#utility.yul\":5001:5007   */\n      0x00\n        /* \"#utility.yul\":5009:5015   */\n      dup1\n        /* \"#utility.yul\":5017:5023   */\n      0x00\n        /* \"#utility.yul\":5066:5068   */\n      0x60\n        /* \"#utility.yul\":5054:5063   */\n      dup5\n        /* \"#utility.yul\":5045:5052   */\n      dup7\n        /* \"#utility.yul\":5041:5064   */\n      sub\n        /* \"#utility.yul\":5037:5069   */\n      slt\n        /* \"#utility.yul\":5034:5153   */\n      iszero\n      tag_526\n      jumpi\n        /* \"#utility.yul\":5072:5151   */\n      tag_527\n      tag_501\n      jump\t// in\n    tag_527:\n        /* \"#utility.yul\":5034:5153   */\n    tag_526:\n        /* \"#utility.yul\":5220:5221   */\n      0x00\n        /* \"#utility.yul\":5209:5218   */\n      dup5\n        /* \"#utility.yul\":5205:5222   */\n      add\n        /* \"#utility.yul\":5192:5223   */\n      calldataload\n        /* \"#utility.yul\":5250:5268   */\n      0xffffffffffffffff\n        /* \"#utility.yul\":5242:5248   */\n      dup2\n        /* \"#utility.yul\":5239:5269   */\n      gt\n        /* \"#utility.yul\":5236:5353   */\n      iszero\n      tag_528\n      jumpi\n        /* \"#utility.yul\":5272:5351   */\n      tag_529\n      tag_530\n      jump\t// in\n    tag_529:\n        /* \"#utility.yul\":5236:5353   */\n    tag_528:\n        /* \"#utility.yul\":5377:5455   */\n      tag_531\n        /* \"#utility.yul\":5447:5454   */\n      dup7\n        /* \"#utility.yul\":5438:5444   */\n      dup3\n        /* \"#utility.yul\":5427:5436   */\n      dup8\n        /* \"#utility.yul\":5423:5445   */\n      add\n        /* \"#utility.yul\":5377:5455   */\n      tag_479\n      jump\t// in\n    tag_531:\n        /* \"#utility.yul\":5367:5455   */\n      swap4\n      pop\n        /* \"#utility.yul\":5163:5465   */\n      pop\n        /* \"#utility.yul\":5504:5506   */\n      0x20\n        /* \"#utility.yul\":5530:5583   */\n      tag_532\n        /* \"#utility.yul\":5575:5582   */\n      dup7\n        /* \"#utility.yul\":5566:5572   */\n      dup3\n        /* \"#utility.yul\":5555:5564   */\n      dup8\n        /* \"#utility.yul\":5551:5573   */\n      add\n        /* \"#utility.yul\":5530:5583   */\n      tag_490\n      jump\t// in\n    tag_532:\n        /* \"#utility.yul\":5520:5583   */\n      swap3\n      pop\n        /* \"#utility.yul\":5475:5593   */\n      pop\n        /* \"#utility.yul\":5632:5634   */\n      0x40\n        /* \"#utility.yul\":5658:5711   */\n      tag_533\n        /* \"#utility.yul\":5703:5710   */\n      dup7\n        /* \"#utility.yul\":5694:5700   */\n      dup3\n        /* \"#utility.yul\":5683:5692   */\n      dup8\n        /* \"#utility.yul\":5679:5701   */\n      add\n        /* \"#utility.yul\":5658:5711   */\n      tag_490\n      jump\t// in\n    tag_533:\n        /* \"#utility.yul\":5648:5711   */\n      swap2\n      pop\n        /* \"#utility.yul\":5603:5721   */\n      pop\n        /* \"#utility.yul\":4899:5728   */\n      swap3\n      pop\n      swap3\n      pop\n      swap3\n      jump\t// out\n        /* \"#utility.yul\":5734:6243   */\n    tag_101:\n        /* \"#utility.yul\":5803:5809   */\n      0x00\n        /* \"#utility.yul\":5852:5854   */\n      0x20\n        /* \"#utility.yul\":5840:5849   */\n      dup3\n        /* \"#utility.yul\":5831:5838   */\n      dup5\n        /* \"#utility.yul\":5827:5850   */\n      sub\n        /* \"#utility.yul\":5823:5855   */\n      slt\n        /* \"#utility.yul\":5820:5939   */\n      iszero\n      tag_535\n      jumpi\n        /* \"#utility.yul\":5858:5937   */\n      tag_536\n      tag_501\n      jump\t// in\n    tag_536:\n        /* \"#utility.yul\":5820:5939   */\n    tag_535:\n        /* \"#utility.yul\":6006:6007   */\n      0x00\n        /* \"#utility.yul\":5995:6004   */\n      dup3\n        /* \"#utility.yul\":5991:6008   */\n      add\n        /* \"#utility.yul\":5978:6009   */\n      calldataload\n        /* \"#utility.yul\":6036:6054   */\n      0xffffffffffffffff\n        /* \"#utility.yul\":6028:6034   */\n      dup2\n        /* \"#utility.yul\":6025:6055   */\n      gt\n        /* \"#utility.yul\":6022:6139   */\n      iszero\n      tag_537\n      jumpi\n        /* \"#utility.yul\":6058:6137   */\n      tag_538\n      tag_530\n      jump\t// in\n    tag_538:\n        /* \"#utility.yul\":6022:6139   */\n    tag_537:\n        /* \"#utility.yul\":6163:6226   */\n      tag_539\n        /* \"#utility.yul\":6218:6225   */\n      dup5\n        /* \"#utility.yul\":6209:6215   */\n      dup3\n        /* \"#utility.yul\":6198:6207   */\n      dup6\n        /* \"#utility.yul\":6194:6216   */\n      add\n        /* \"#utility.yul\":6163:6226   */\n      tag_485\n      jump\t// in\n    tag_539:\n        /* \"#utility.yul\":6153:6226   */\n      swap2\n      pop\n        /* \"#utility.yul\":5949:6236   */\n      pop\n        /* \"#utility.yul\":5734:6243   */\n      swap3\n      swap2\n      pop\n      pop\n      jump\t// out\n        /* \"#utility.yul\":6249:6578   */\n    tag_111:\n        /* \"#utility.yul\":6308:6314   */\n      0x00\n        /* \"#utility.yul\":6357:6359   */\n      0x20\n        /* \"#utility.yul\":6345:6354   */\n      dup3\n        /* \"#utility.yul\":6336:6343   */\n      dup5\n        /* \"#utility.yul\":6332:6355   */\n      sub\n        /* \"#utility.yul\":6328:6360   */\n      slt\n        /* \"#utility.yul\":6325:6444   */\n      iszero\n      tag_541\n      jumpi\n        /* \"#utility.yul\":6363:6442   */\n      tag_542\n      tag_501\n      jump\t// in\n    tag_542:\n        /* \"#utility.yul\":6325:6444   */\n    tag_541:\n        /* \"#utility.yul\":6483:6484   */\n      0x00\n        /* \"#utility.yul\":6508:6561   */\n      tag_543\n        /* \"#utility.yul\":6553:6560   */\n      dup5\n        /* \"#utility.yul\":6544:6550   */\n      dup3\n        /* \"#utility.yul\":6533:6542   */\n      dup6\n        /* \"#utility.yul\":6529:6551   */\n      add\n        /* \"#utility.yul\":6508:6561   */\n      tag_490\n      jump\t// in\n    tag_543:\n        /* \"#utility.yul\":6498:6561   */\n      swap2\n      pop\n        /* \"#utility.yul\":6454:6571   */\n      pop\n        /* \"#utility.yul\":6249:6578   */\n      swap3\n      swap2\n      pop\n      pop\n      jump\t// out\n        /* \"#utility.yul\":6584:6909   */\n    tag_135:\n        /* \"#utility.yul\":6641:6647   */\n      0x00\n        /* \"#utility.yul\":6690:6692   */\n      0x20\n        /* \"#utility.yul\":6678:6687   */\n      dup3\n        /* \"#utility.yul\":6669:6676   */\n      dup5\n        /* \"#utility.yul\":6665:6688   */\n      sub\n        /* \"#utility.yul\":6661:6693   */\n      slt\n        /* \"#utility.yul\":6658:6777   */\n      iszero\n      tag_545\n      jumpi\n        /* \"#utility.yul\":6696:6775   */\n      tag_546\n      tag_501\n      jump\t// in\n    tag_546:\n        /* \"#utility.yul\":6658:6777   */\n    tag_545:\n        /* \"#utility.yul\":6816:6817   */\n      0x00\n        /* \"#utility.yul\":6841:6892   */\n      tag_547\n        /* \"#utility.yul\":6884:6891   */\n      dup5\n        /* \"#utility.yul\":6875:6881   */\n      dup3\n        /* \"#utility.yul\":6864:6873   */\n      dup6\n        /* \"#utility.yul\":6860:6882   */\n      add\n        /* \"#utility.yul\":6841:6892   */\n      tag_494\n      jump\t// in\n    tag_547:\n        /* \"#utility.yul\":6831:6892   */\n      swap2\n      pop\n        /* \"#utility.yul\":6787:6902   */\n      pop\n        /* \"#utility.yul\":6584:6909   */\n      swap3\n      swap2\n      pop\n      pop\n      jump\t// out\n        /* \"#utility.yul\":6915:7033   */\n    tag_548:\n        /* \"#utility.yul\":7002:7026   */\n      tag_550\n        /* \"#utility.yul\":7020:7025   */\n      dup2\n        /* \"#utility.yul\":7002:7026   */\n      tag_551\n      jump\t// in\n    tag_550:\n        /* \"#utility.yul\":6997:7000   */\n      dup3\n        /* \"#utility.yul\":6990:7027   */\n      mstore\n        /* \"#utility.yul\":6915:7033   */\n      pop\n      pop\n      jump\t// out\n        /* \"#utility.yul\":7039:7148   */\n    tag_552:\n        /* \"#utility.yul\":7120:7141   */\n      tag_554\n        /* \"#utility.yul\":7135:7140   */\n      dup2\n        /* \"#utility.yul\":7120:7141   */\n      tag_555\n      jump\t// in\n    tag_554:\n        /* \"#utility.yul\":7115:7118   */\n      dup3\n        /* \"#utility.yul\":7108:7142   */\n      mstore\n        /* \"#utility.yul\":7039:7148   */\n      pop\n      pop\n      jump\t// out\n        /* \"#utility.yul\":7154:7518   */\n    tag_556:\n        /* \"#utility.yul\":7242:7245   */\n      0x00\n        /* \"#utility.yul\":7270:7309   */\n      tag_558\n        /* \"#utility.yul\":7303:7308   */\n      dup3\n        /* \"#utility.yul\":7270:7309   */\n      tag_559\n      jump\t// in\n    tag_558:\n        /* \"#utility.yul\":7325:7396   */\n      tag_560\n        /* \"#utility.yul\":7389:7395   */\n      dup2\n        /* \"#utility.yul\":7384:7387   */\n      dup6\n        /* \"#utility.yul\":7325:7396   */\n      tag_561\n      jump\t// in\n    tag_560:\n        /* \"#utility.yul\":7318:7396   */\n      swap4\n      pop\n        /* \"#utility.yul\":7405:7457   */\n      tag_562\n        /* \"#utility.yul\":7450:7456   */\n      dup2\n        /* \"#utility.yul\":7445:7448   */\n      dup6\n        /* \"#utility.yul\":7438:7442   */\n      0x20\n        /* \"#utility.yul\":7431:7436   */\n      dup7\n        /* \"#utility.yul\":7427:7443   */\n      add\n        /* \"#utility.yul\":7405:7457   */\n      tag_563\n      jump\t// in\n    tag_562:\n        /* \"#utility.yul\":7482:7511   */\n      tag_564\n        /* \"#utility.yul\":7504:7510   */\n      dup2\n        /* \"#utility.yul\":7482:7511   */\n      tag_565\n      jump\t// in\n    tag_564:\n        /* \"#utility.yul\":7477:7480   */\n      dup5\n        /* \"#utility.yul\":7473:7512   */\n      add\n        /* \"#utility.yul\":7466:7512   */\n      swap2\n      pop\n        /* \"#utility.yul\":7246:7518   */\n      pop\n        /* \"#utility.yul\":7154:7518   */\n      swap3\n      swap2\n      pop\n      pop\n      jump\t// out\n        /* \"#utility.yul\":7524:7890   */\n    tag_566:\n        /* \"#utility.yul\":7666:7669   */\n      0x00\n        /* \"#utility.yul\":7687:7754   */\n      tag_568\n        /* \"#utility.yul\":7751:7753   */\n      0x1c\n        /* \"#utility.yul\":7746:7749   */\n      dup4\n        /* \"#utility.yul\":7687:7754   */\n      tag_561\n      jump\t// in\n    tag_568:\n        /* \"#utility.yul\":7680:7754   */\n      swap2\n      pop\n        /* \"#utility.yul\":7763:7856   */\n      tag_569\n        /* \"#utility.yul\":7852:7855   */\n      dup3\n        /* \"#utility.yul\":7763:7856   */\n      tag_570\n      jump\t// in\n    tag_569:\n        /* \"#utility.yul\":7881:7883   */\n      0x20\n        /* \"#utility.yul\":7876:7879   */\n      dup3\n        /* \"#utility.yul\":7872:7884   */\n      add\n        /* \"#utility.yul\":7865:7884   */\n      swap1\n      pop\n        /* \"#utility.yul\":7524:7890   */\n      swap2\n      swap1\n      pop\n      jump\t// out\n        /* \"#utility.yul\":7896:8262   */\n    tag_571:\n        /* \"#utility.yul\":8038:8041   */\n      0x00\n        /* \"#utility.yul\":8059:8126   */\n      tag_573\n        /* \"#utility.yul\":8123:8125   */\n      0x12\n        /* \"#utility.yul\":8118:8121   */\n      dup4\n        /* \"#utility.yul\":8059:8126   */\n      tag_561\n      jump\t// in\n    tag_573:\n        /* \"#utility.yul\":8052:8126   */\n      swap2\n      pop\n        /* \"#utility.yul\":8135:8228   */\n      tag_574\n        /* \"#utility.yul\":8224:8227   */\n      dup3\n        /* \"#utility.yul\":8135:8228   */\n      tag_575\n      jump\t// in\n    tag_574:\n        /* \"#utility.yul\":8253:8255   */\n      0x20\n        /* \"#utility.yul\":8248:8251   */\n      dup3\n        /* \"#utility.yul\":8244:8256   */\n      add\n        /* \"#utility.yul\":8237:8256   */\n      swap1\n      pop\n        /* \"#utility.yul\":7896:8262   */\n      swap2\n      swap1\n      pop\n      jump\t// out\n        /* \"#utility.yul\":8268:8634   */\n    tag_576:\n        /* \"#utility.yul\":8410:8413   */\n      0x00\n        /* \"#utility.yul\":8431:8498   */\n      tag_578\n        /* \"#utility.yul\":8495:8497   */\n      0x27\n        /* \"#utility.yul\":8490:8493   */\n      dup4\n        /* \"#utility.yul\":8431:8498   */\n      tag_561\n      jump\t// in\n    tag_578:\n        /* \"#utility.yul\":8424:8498   */\n      swap2\n      pop\n        /* \"#utility.yul\":8507:8600   */\n      tag_579\n        /* \"#utility.yul\":8596:8599   */\n      dup3\n        /* \"#utility.yul\":8507:8600   */\n      tag_580\n      jump\t// in\n    tag_579:\n        /* \"#utility.yul\":8625:8627   */\n      0x40\n        /* \"#utility.yul\":8620:8623   */\n      dup3\n        /* \"#utility.yul\":8616:8628   */\n      add\n        /* \"#utility.yul\":8609:8628   */\n      swap1\n      pop\n        /* \"#utility.yul\":8268:8634   */\n      swap2\n      swap1\n      pop\n      jump\t// out\n        /* \"#utility.yul\":8640:9006   */\n    tag_581:\n        /* \"#utility.yul\":8782:8785   */\n      0x00\n        /* \"#utility.yul\":8803:8870   */\n      tag_583\n        /* \"#utility.yul\":8867:8869   */\n      0x18\n        /* \"#utility.yul\":8862:8865   */\n      dup4\n        /* \"#utility.yul\":8803:8870   */\n      tag_561\n      jump\t// in\n    tag_583:\n        /* \"#utility.yul\":8796:8870   */\n      swap2\n      pop\n        /* \"#utility.yul\":8879:8972   */\n      tag_584\n        /* \"#utility.yul\":8968:8971   */\n      dup3\n        /* \"#utility.yul\":8879:8972   */\n      tag_585\n      jump\t// in\n    tag_584:\n        /* \"#utility.yul\":8997:8999   */\n      0x20\n        /* \"#utility.yul\":8992:8995   */\n      dup3\n        /* \"#utility.yul\":8988:9000   */\n      add\n        /* \"#utility.yul\":8981:9000   */\n      swap1\n      pop\n        /* \"#utility.yul\":8640:9006   */\n      swap2\n      swap1\n      pop\n      jump\t// out\n        /* \"#utility.yul\":9012:9378   */\n    tag_586:\n        /* \"#utility.yul\":9154:9157   */\n      0x00\n        /* \"#utility.yul\":9175:9242   */\n      tag_588\n        /* \"#utility.yul\":9239:9241   */\n      0x23\n        /* \"#utility.yul\":9234:9237   */\n      dup4\n        /* \"#utility.yul\":9175:9242   */\n      tag_561\n      jump\t// in\n    tag_588:\n        /* \"#utility.yul\":9168:9242   */\n      swap2\n      pop\n        /* \"#utility.yul\":9251:9344   */\n      tag_589\n        /* \"#utility.yul\":9340:9343   */\n      dup3\n        /* \"#utility.yul\":9251:9344   */\n      tag_590\n      jump\t// in\n    tag_589:\n        /* \"#utility.yul\":9369:9371   */\n      0x40\n        /* \"#utility.yul\":9364:9367   */\n      dup3\n        /* \"#utility.yul\":9360:9372   */\n      add\n        /* \"#utility.yul\":9353:9372   */\n      swap1\n      pop\n        /* \"#utility.yul\":9012:9378   */\n      swap2\n      swap1\n      pop\n      jump\t// out\n        /* \"#utility.yul\":9384:9750   */\n    tag_591:\n        /* \"#utility.yul\":9526:9529   */\n      0x00\n        /* \"#utility.yul\":9547:9614   */\n      tag_593\n        /* \"#utility.yul\":9611:9613   */\n      0x1b\n        /* \"#utility.yul\":9606:9609   */\n      dup4\n        /* \"#utility.yul\":9547:9614   */\n      tag_561\n      jump\t// in\n    tag_593:\n        /* \"#utility.yul\":9540:9614   */\n      swap2\n      pop\n        /* \"#utility.yul\":9623:9716   */\n      tag_594\n        /* \"#utility.yul\":9712:9715   */\n      dup3\n        /* \"#utility.yul\":9623:9716   */\n      tag_595\n      jump\t// in\n    tag_594:\n        /* \"#utility.yul\":9741:9743   */\n      0x20\n        /* \"#utility.yul\":9736:9739   */\n      dup3\n        /* \"#utility.yul\":9732:9744   */\n      add\n        /* \"#utility.yul\":9725:9744   */\n      swap1\n      pop\n        /* \"#utility.yul\":9384:9750   */\n      swap2\n      swap1\n      pop\n      jump\t// out\n        /* \"#utility.yul\":9756:10122   */\n    tag_596:\n        /* \"#utility.yul\":9898:9901   */\n      0x00\n        /* \"#utility.yul\":9919:9986   */\n      tag_598\n        /* \"#utility.yul\":9983:9985   */\n      0x35\n        /* \"#utility.yul\":9978:9981   */\n      dup4\n        /* \"#utility.yul\":9919:9986   */\n      tag_561\n      jump\t// in\n    tag_598:\n        /* \"#utility.yul\":9912:9986   */\n      swap2\n      pop\n        /* \"#utility.yul\":9995:10088   */\n      tag_599\n        /* \"#utility.yul\":10084:10087   */\n      dup3\n        /* \"#utility.yul\":9995:10088   */\n      tag_600\n      jump\t// in\n    tag_599:\n        /* \"#utility.yul\":10113:10115   */\n      0x40\n        /* \"#utility.yul\":10108:10111   */\n      dup3\n        /* \"#utility.yul\":10104:10116   */\n      add\n        /* \"#utility.yul\":10097:10116   */\n      swap1\n      pop\n        /* \"#utility.yul\":9756:10122   */\n      swap2\n      swap1\n      pop\n      jump\t// out\n        /* \"#utility.yul\":10128:10494   */\n    tag_601:\n        /* \"#utility.yul\":10270:10273   */\n      0x00\n        /* \"#utility.yul\":10291:10358   */\n      tag_603\n        /* \"#utility.yul\":10355:10357   */\n      0x17\n        /* \"#utility.yul\":10350:10353   */\n      dup4\n        /* \"#utility.yul\":10291:10358   */\n      tag_561\n      jump\t// in\n    tag_603:\n        /* \"#utility.yul\":10284:10358   */\n      swap2\n      pop\n        /* \"#utility.yul\":10367:10460   */\n      tag_604\n        /* \"#utility.yul\":10456:10459   */\n      dup3\n        /* \"#utility.yul\":10367:10460   */\n      tag_605\n      jump\t// in\n    tag_604:\n        /* \"#utility.yul\":10485:10487   */\n      0x20\n        /* \"#utility.yul\":10480:10483   */\n      dup3\n        /* \"#utility.yul\":10476:10488   */\n      add\n        /* \"#utility.yul\":10469:10488   */\n      swap1\n      pop\n        /* \"#utility.yul\":10128:10494   */\n      swap2\n      swap1\n      pop\n      jump\t// out\n        /* \"#utility.yul\":10500:10618   */\n    tag_606:\n        /* \"#utility.yul\":10587:10611   */\n      tag_608\n        /* \"#utility.yul\":10605:10610   */\n      dup2\n        /* \"#utility.yul\":10587:10611   */\n      tag_609\n      jump\t// in\n    tag_608:\n        /* \"#utility.yul\":10582:10585   */\n      dup3\n        /* \"#utility.yul\":10575:10612   */\n      mstore\n        /* \"#utility.yul\":10500:10618   */\n      pop\n      pop\n      jump\t// out\n        /* \"#utility.yul\":10624:10736   */\n    tag_610:\n        /* \"#utility.yul\":10707:10729   */\n      tag_612\n        /* \"#utility.yul\":10723:10728   */\n      dup2\n        /* \"#utility.yul\":10707:10729   */\n      tag_613\n      jump\t// in\n    tag_612:\n        /* \"#utility.yul\":10702:10705   */\n      dup3\n        /* \"#utility.yul\":10695:10730   */\n      mstore\n        /* \"#utility.yul\":10624:10736   */\n      pop\n      pop\n      jump\t// out\n        /* \"#utility.yul\":10742:10964   */\n    tag_147:\n        /* \"#utility.yul\":10835:10839   */\n      0x00\n        /* \"#utility.yul\":10873:10875   */\n      0x20\n        /* \"#utility.yul\":10862:10871   */\n      dup3\n        /* \"#utility.yul\":10858:10876   */\n      add\n        /* \"#utility.yul\":10850:10876   */\n      swap1\n      pop\n        /* \"#utility.yul\":10886:10957   */\n      tag_615\n        /* \"#utility.yul\":10954:10955   */\n      0x00\n        /* \"#utility.yul\":10943:10952   */\n      dup4\n        /* \"#utility.yul\":10939:10956   */\n      add\n        /* \"#utility.yul\":10930:10936   */\n      dup5\n        /* \"#utility.yul\":10886:10957   */\n      tag_548\n      jump\t// in\n    tag_615:\n        /* \"#utility.yul\":10742:10964   */\n      swap3\n      swap2\n      pop\n      pop\n      jump\t// out\n        /* \"#utility.yul\":10970:11180   */\n    tag_63:\n        /* \"#utility.yul\":11057:11061   */\n      0x00\n        /* \"#utility.yul\":11095:11097   */\n      0x20\n        /* \"#utility.yul\":11084:11093   */\n      dup3\n        /* \"#utility.yul\":11080:11098   */\n      add\n        /* \"#utility.yul\":11072:11098   */\n      swap1\n      pop\n        /* \"#utility.yul\":11108:11173   */\n      tag_617\n        /* \"#utility.yul\":11170:11171   */\n      0x00\n        /* \"#utility.yul\":11159:11168   */\n      dup4\n        /* \"#utility.yul\":11155:11172   */\n      add\n        /* \"#utility.yul\":11146:11152   */\n      dup5\n        /* \"#utility.yul\":11108:11173   */\n      tag_552\n      jump\t// in\n    tag_617:\n        /* \"#utility.yul\":10970:11180   */\n      swap3\n      swap2\n      pop\n      pop\n      jump\t// out\n        /* \"#utility.yul\":11186:11499   */\n    tag_57:\n        /* \"#utility.yul\":11299:11303   */\n      0x00\n        /* \"#utility.yul\":11337:11339   */\n      0x20\n        /* \"#utility.yul\":11326:11335   */\n      dup3\n        /* \"#utility.yul\":11322:11340   */\n      add\n        /* \"#utility.yul\":11314:11340   */\n      swap1\n      pop\n        /* \"#utility.yul\":11386:11395   */\n      dup2\n        /* \"#utility.yul\":11380:11384   */\n      dup2\n        /* \"#utility.yul\":11376:11396   */\n      sub\n        /* \"#utility.yul\":11372:11373   */\n      0x00\n        /* \"#utility.yul\":11361:11370   */\n      dup4\n        /* \"#utility.yul\":11357:11374   */\n      add\n        /* \"#utility.yul\":11350:11397   */\n      mstore\n        /* \"#utility.yul\":11414:11492   */\n      tag_619\n        /* \"#utility.yul\":11487:11491   */\n      dup2\n        /* \"#utility.yul\":11478:11484   */\n      dup5\n        /* \"#utility.yul\":11414:11492   */\n      tag_556\n      jump\t// in\n    tag_619:\n        /* \"#utility.yul\":11406:11492   */\n      swap1\n      pop\n        /* \"#utility.yul\":11186:11499   */\n      swap3\n      swap2\n      pop\n      pop\n      jump\t// out\n        /* \"#utility.yul\":11505:11924   */\n    tag_264:\n        /* \"#utility.yul\":11671:11675   */\n      0x00\n        /* \"#utility.yul\":11709:11711   */\n      0x20\n        /* \"#utility.yul\":11698:11707   */\n      dup3\n        /* \"#utility.yul\":11694:11712   */\n      add\n        /* \"#utility.yul\":11686:11712   */\n      swap1\n      pop\n        /* \"#utility.yul\":11758:11767   */\n      dup2\n        /* \"#utility.yul\":11752:11756   */\n      dup2\n        /* \"#utility.yul\":11748:11768   */\n      sub\n        /* \"#utility.yul\":11744:11745   */\n      0x00\n        /* \"#utility.yul\":11733:11742   */\n      dup4\n        /* \"#utility.yul\":11729:11746   */\n      add\n        /* \"#utility.yul\":11722:11769   */\n      mstore\n        /* \"#utility.yul\":11786:11917   */\n      tag_621\n        /* \"#utility.yul\":11912:11916   */\n      dup2\n        /* \"#utility.yul\":11786:11917   */\n      tag_566\n      jump\t// in\n    tag_621:\n        /* \"#utility.yul\":11778:11917   */\n      swap1\n      pop\n        /* \"#utility.yul\":11505:11924   */\n      swap2\n      swap1\n      pop\n      jump\t// out\n        /* \"#utility.yul\":11930:12349   */\n    tag_225:\n        /* \"#utility.yul\":12096:12100   */\n      0x00\n        /* \"#utility.yul\":12134:12136   */\n      0x20\n        /* \"#utility.yul\":12123:12132   */\n      dup3\n        /* \"#utility.yul\":12119:12137   */\n      add\n        /* \"#utility.yul\":12111:12137   */\n      swap1\n      pop\n        /* \"#utility.yul\":12183:12192   */\n      dup2\n        /* \"#utility.yul\":12177:12181   */\n      dup2\n        /* \"#utility.yul\":12173:12193   */\n      sub\n        /* \"#utility.yul\":12169:12170   */\n      0x00\n        /* \"#utility.yul\":12158:12167   */\n      dup4\n        /* \"#utility.yul\":12154:12171   */\n      add\n        /* \"#utility.yul\":12147:12194   */\n      mstore\n        /* \"#utility.yul\":12211:12342   */\n      tag_623\n        /* \"#utility.yul\":12337:12341   */\n      dup2\n        /* \"#utility.yul\":12211:12342   */\n      tag_571\n      jump\t// in\n    tag_623:\n        /* \"#utility.yul\":12203:12342   */\n      swap1\n      pop\n        /* \"#utility.yul\":11930:12349   */\n      swap2\n      swap1\n      pop\n      jump\t// out\n        /* \"#utility.yul\":12355:12774   */\n    tag_252:\n        /* \"#utility.yul\":12521:12525   */\n      0x00\n        /* \"#utility.yul\":12559:12561   */\n      0x20\n        /* \"#utility.yul\":12548:12557   */\n      dup3\n        /* \"#utility.yul\":12544:12562   */\n      add\n        /* \"#utility.yul\":12536:12562   */\n      swap1\n      pop\n        /* \"#utility.yul\":12608:12617   */\n      dup2\n        /* \"#utility.yul\":12602:12606   */\n      dup2\n        /* \"#utility.yul\":12598:12618   */\n      sub\n        /* \"#utility.yul\":12594:12595   */\n      0x00\n        /* \"#utility.yul\":12583:12592   */\n      dup4\n        /* \"#utility.yul\":12579:12596   */\n      add\n        /* \"#utility.yul\":12572:12619   */\n      mstore\n        /* \"#utility.yul\":12636:12767   */\n      tag_625\n        /* \"#utility.yul\":12762:12766   */\n      dup2\n        /* \"#utility.yul\":12636:12767   */\n      tag_576\n      jump\t// in\n    tag_625:\n        /* \"#utility.yul\":12628:12767   */\n      swap1\n      pop\n        /* \"#utility.yul\":12355:12774   */\n      swap2\n      swap1\n      pop\n      jump\t// out\n        /* \"#utility.yul\":12780:13199   */\n    tag_222:\n        /* \"#utility.yul\":12946:12950   */\n      0x00\n        /* \"#utility.yul\":12984:12986   */\n      0x20\n        /* \"#utility.yul\":12973:12982   */\n      dup3\n        /* \"#utility.yul\":12969:12987   */\n      add\n        /* \"#utility.yul\":12961:12987   */\n      swap1\n      pop\n        /* \"#utility.yul\":13033:13042   */\n      dup2\n        /* \"#utility.yul\":13027:13031   */\n      dup2\n        /* \"#utility.yul\":13023:13043   */\n      sub\n        /* \"#utility.yul\":13019:13020   */\n      0x00\n        /* \"#utility.yul\":13008:13017   */\n      dup4\n        /* \"#utility.yul\":13004:13021   */\n      add\n        /* \"#utility.yul\":12997:13044   */\n      mstore\n        /* \"#utility.yul\":13061:13192   */\n      tag_627\n        /* \"#utility.yul\":13187:13191   */\n      dup2\n        /* \"#utility.yul\":13061:13192   */\n      tag_581\n      jump\t// in\n    tag_627:\n        /* \"#utility.yul\":13053:13192   */\n      swap1\n      pop\n        /* \"#utility.yul\":12780:13199   */\n      swap2\n      swap1\n      pop\n      jump\t// out\n        /* \"#utility.yul\":13205:13624   */\n    tag_431:\n        /* \"#utility.yul\":13371:13375   */\n      0x00\n        /* \"#utility.yul\":13409:13411   */\n      0x20\n        /* \"#utility.yul\":13398:13407   */\n      dup3\n        /* \"#utility.yul\":13394:13412   */\n      add\n        /* \"#utility.yul\":13386:13412   */\n      swap1\n      pop\n        /* \"#utility.yul\":13458:13467   */\n      dup2\n        /* \"#utility.yul\":13452:13456   */\n      dup2\n        /* \"#utility.yul\":13448:13468   */\n      sub\n        /* \"#utility.yul\":13444:13445   */\n      0x00\n        /* \"#utility.yul\":13433:13442   */\n      dup4\n        /* \"#utility.yul\":13429:13446   */\n      add\n        /* \"#utility.yul\":13422:13469   */\n      mstore\n        /* \"#utility.yul\":13486:13617   */\n      tag_629\n        /* \"#utility.yul\":13612:13616   */\n      dup2\n        /* \"#utility.yul\":13486:13617   */\n      tag_586\n      jump\t// in\n    tag_629:\n        /* \"#utility.yul\":13478:13617   */\n      swap1\n      pop\n        /* \"#utility.yul\":13205:13624   */\n      swap2\n      swap1\n      pop\n      jump\t// out\n        /* \"#utility.yul\":13630:14049   */\n    tag_350:\n        /* \"#utility.yul\":13796:13800   */\n      0x00\n        /* \"#utility.yul\":13834:13836   */\n      0x20\n        /* \"#utility.yul\":13823:13832   */\n      dup3\n        /* \"#utility.yul\":13819:13837   */\n      add\n        /* \"#utility.yul\":13811:13837   */\n      swap1\n      pop\n        /* \"#utility.yul\":13883:13892   */\n      dup2\n        /* \"#utility.yul\":13877:13881   */\n      dup2\n        /* \"#utility.yul\":13873:13893   */\n      sub\n        /* \"#utility.yul\":13869:13870   */\n      0x00\n        /* \"#utility.yul\":13858:13867   */\n      dup4\n        /* \"#utility.yul\":13854:13871   */\n      add\n        /* \"#utility.yul\":13847:13894   */\n      mstore\n        /* \"#utility.yul\":13911:14042   */\n      tag_631\n        /* \"#utility.yul\":14037:14041   */\n      dup2\n        /* \"#utility.yul\":13911:14042   */\n      tag_591\n      jump\t// in\n    tag_631:\n        /* \"#utility.yul\":13903:14042   */\n      swap1\n      pop\n        /* \"#utility.yul\":13630:14049   */\n      swap2\n      swap1\n      pop\n      jump\t// out\n        /* \"#utility.yul\":14055:14474   */\n    tag_301:\n        /* \"#utility.yul\":14221:14225   */\n      0x00\n        /* \"#utility.yul\":14259:14261   */\n      0x20\n        /* \"#utility.yul\":14248:14257   */\n      dup3\n        /* \"#utility.yul\":14244:14262   */\n      add\n        /* \"#utility.yul\":14236:14262   */\n      swap1\n      pop\n        /* \"#utility.yul\":14308:14317   */\n      dup2\n        /* \"#utility.yul\":14302:14306   */\n      dup2\n        /* \"#utility.yul\":14298:14318   */\n      sub\n        /* \"#utility.yul\":14294:14295   */\n      0x00\n        /* \"#utility.yul\":14283:14292   */\n      dup4\n        /* \"#utility.yul\":14279:14296   */\n      add\n        /* \"#utility.yul\":14272:14319   */\n      mstore\n        /* \"#utility.yul\":14336:14467   */\n      tag_633\n        /* \"#utility.yul\":14462:14466   */\n      dup2\n        /* \"#utility.yul\":14336:14467   */\n      tag_596\n      jump\t// in\n    tag_633:\n        /* \"#utility.yul\":14328:14467   */\n      swap1\n      pop\n        /* \"#utility.yul\":14055:14474   */\n      swap2\n      swap1\n      pop\n      jump\t// out\n        /* \"#utility.yul\":14480:14899   */\n    tag_230:\n        /* \"#utility.yul\":14646:14650   */\n      0x00\n        /* \"#utility.yul\":14684:14686   */\n      0x20\n        /* \"#utility.yul\":14673:14682   */\n      dup3\n        /* \"#utility.yul\":14669:14687   */\n      add\n        /* \"#utility.yul\":14661:14687   */\n      swap1\n      pop\n        /* \"#utility.yul\":14733:14742   */\n      dup2\n        /* \"#utility.yul\":14727:14731   */\n      dup2\n        /* \"#utility.yul\":14723:14743   */\n      sub\n        /* \"#utility.yul\":14719:14720   */\n      0x00\n        /* \"#utility.yul\":14708:14717   */\n      dup4\n        /* \"#utility.yul\":14704:14721   */\n      add\n        /* \"#utility.yul\":14697:14744   */\n      mstore\n        /* \"#utility.yul\":14761:14892   */\n      tag_635\n        /* \"#utility.yul\":14887:14891   */\n      dup2\n        /* \"#utility.yul\":14761:14892   */\n      tag_601\n      jump\t// in\n    tag_635:\n        /* \"#utility.yul\":14753:14892   */\n      swap1\n      pop\n        /* \"#utility.yul\":14480:14899   */\n      swap2\n      swap1\n      pop\n      jump\t// out\n        /* \"#utility.yul\":14905:15127   */\n    tag_75:\n        /* \"#utility.yul\":14998:15002   */\n      0x00\n        /* \"#utility.yul\":15036:15038   */\n      0x20\n        /* \"#utility.yul\":15025:15034   */\n      dup3\n        /* \"#utility.yul\":15021:15039   */\n      add\n        /* \"#utility.yul\":15013:15039   */\n      swap1\n      pop\n        /* \"#utility.yul\":15049:15120   */\n      tag_637\n        /* \"#utility.yul\":15117:15118   */\n      0x00\n        /* \"#utility.yul\":15106:15115   */\n      dup4\n        /* \"#utility.yul\":15102:15119   */\n      add\n        /* \"#utility.yul\":15093:15099   */\n      dup5\n        /* \"#utility.yul\":15049:15120   */\n      tag_606\n      jump\t// in\n    tag_637:\n        /* \"#utility.yul\":14905:15127   */\n      swap3\n      swap2\n      pop\n      pop\n      jump\t// out\n        /* \"#utility.yul\":15133:15465   */\n    tag_166:\n        /* \"#utility.yul\":15254:15258   */\n      0x00\n        /* \"#utility.yul\":15292:15294   */\n      0x40\n        /* \"#utility.yul\":15281:15290   */\n      dup3\n        /* \"#utility.yul\":15277:15295   */\n      add\n        /* \"#utility.yul\":15269:15295   */\n      swap1\n      pop\n        /* \"#utility.yul\":15305:15376   */\n      tag_639\n        /* \"#utility.yul\":15373:15374   */\n      0x00\n        /* \"#utility.yul\":15362:15371   */\n      dup4\n        /* \"#utility.yul\":15358:15375   */\n      add\n        /* \"#utility.yul\":15349:15355   */\n      dup6\n        /* \"#utility.yul\":15305:15376   */\n      tag_606\n      jump\t// in\n    tag_639:\n        /* \"#utility.yul\":15386:15458   */\n      tag_640\n        /* \"#utility.yul\":15454:15456   */\n      0x20\n        /* \"#utility.yul\":15443:15452   */\n      dup4\n        /* \"#utility.yul\":15439:15457   */\n      add\n        /* \"#utility.yul\":15430:15436   */\n      dup5\n        /* \"#utility.yul\":15386:15458   */\n      tag_606\n      jump\t// in\n    tag_640:\n        /* \"#utility.yul\":15133:15465   */\n      swap4\n      swap3\n      pop\n      pop\n      pop\n      jump\t// out\n        /* \"#utility.yul\":15471:15685   */\n    tag_71:\n        /* \"#utility.yul\":15560:15564   */\n      0x00\n        /* \"#utility.yul\":15598:15600   */\n      0x20\n        /* \"#utility.yul\":15587:15596   */\n      dup3\n        /* \"#utility.yul\":15583:15601   */\n      add\n        /* \"#utility.yul\":15575:15601   */\n      swap1\n      pop\n        /* \"#utility.yul\":15611:15678   */\n      tag_642\n        /* \"#utility.yul\":15675:15676   */\n      0x00\n        /* \"#utility.yul\":15664:15673   */\n      dup4\n        /* \"#utility.yul\":15660:15677   */\n      add\n        /* \"#utility.yul\":15651:15657   */\n      dup5\n        /* \"#utility.yul\":15611:15678   */\n      tag_610\n      jump\t// in\n    tag_642:\n        /* \"#utility.yul\":15471:15685   */\n      swap3\n      swap2\n      pop\n      pop\n      jump\t// out\n        /* \"#utility.yul\":15691:15820   */\n    tag_457:\n        /* \"#utility.yul\":15725:15731   */\n      0x00\n        /* \"#utility.yul\":15752:15772   */\n      tag_644\n      tag_645\n      jump\t// in\n    tag_644:\n        /* \"#utility.yul\":15742:15772   */\n      swap1\n      pop\n        /* \"#utility.yul\":15781:15814   */\n      tag_646\n        /* \"#utility.yul\":15809:15813   */\n      dup3\n        /* \"#utility.yul\":15801:15807   */\n      dup3\n        /* \"#utility.yul\":15781:15814   */\n      tag_647\n      jump\t// in\n    tag_646:\n        /* \"#utility.yul\":15691:15820   */\n      swap2\n      swap1\n      pop\n      jump\t// out\n        /* \"#utility.yul\":15826:15901   */\n    tag_645:\n        /* \"#utility.yul\":15859:15865   */\n      0x00\n        /* \"#utility.yul\":15892:15894   */\n      0x40\n        /* \"#utility.yul\":15886:15895   */\n      mload\n        /* \"#utility.yul\":15876:15895   */\n      swap1\n      pop\n        /* \"#utility.yul\":15826:15901   */\n      swap1\n      jump\t// out\n        /* \"#utility.yul\":15907:16218   */\n    tag_456:\n        /* \"#utility.yul\":15984:15988   */\n      0x00\n        /* \"#utility.yul\":16074:16092   */\n      0xffffffffffffffff\n        /* \"#utility.yul\":16066:16072   */\n      dup3\n        /* \"#utility.yul\":16063:16093   */\n      gt\n        /* \"#utility.yul\":16060:16116   */\n      iszero\n      tag_650\n      jumpi\n        /* \"#utility.yul\":16096:16114   */\n      tag_651\n      tag_652\n      jump\t// in\n    tag_651:\n        /* \"#utility.yul\":16060:16116   */\n    tag_650:\n        /* \"#utility.yul\":16146:16150   */\n      0x20\n        /* \"#utility.yul\":16138:16144   */\n      dup3\n        /* \"#utility.yul\":16134:16151   */\n      mul\n        /* \"#utility.yul\":16126:16151   */\n      swap1\n      pop\n        /* \"#utility.yul\":16206:16210   */\n      0x20\n        /* \"#utility.yul\":16200:16204   */\n      dup2\n        /* \"#utility.yul\":16196:16211   */\n      add\n        /* \"#utility.yul\":16188:16211   */\n      swap1\n      pop\n        /* \"#utility.yul\":15907:16218   */\n      swap2\n      swap1\n      pop\n      jump\t// out\n        /* \"#utility.yul\":16224:16532   */\n    tag_470:\n        /* \"#utility.yul\":16286:16290   */\n      0x00\n        /* \"#utility.yul\":16376:16394   */\n      0xffffffffffffffff\n        /* \"#utility.yul\":16368:16374   */\n      dup3\n        /* \"#utility.yul\":16365:16395   */\n      gt\n        /* \"#utility.yul\":16362:16418   */\n      iszero\n      tag_654\n      jumpi\n        /* \"#utility.yul\":16398:16416   */\n      tag_655\n      tag_652\n      jump\t// in\n    tag_655:\n        /* \"#utility.yul\":16362:16418   */\n    tag_654:\n        /* \"#utility.yul\":16436:16465   */\n      tag_656\n        /* \"#utility.yul\":16458:16464   */\n      dup3\n        /* \"#utility.yul\":16436:16465   */\n      tag_565\n      jump\t// in\n    tag_656:\n        /* \"#utility.yul\":16428:16465   */\n      swap1\n      pop\n        /* \"#utility.yul\":16520:16524   */\n      0x20\n        /* \"#utility.yul\":16514:16518   */\n      dup2\n        /* \"#utility.yul\":16510:16525   */\n      add\n        /* \"#utility.yul\":16502:16525   */\n      swap1\n      pop\n        /* \"#utility.yul\":16224:16532   */\n      swap2\n      swap1\n      pop\n      jump\t// out\n        /* \"#utility.yul\":16538:16637   */\n    tag_559:\n        /* \"#utility.yul\":16590:16596   */\n      0x00\n        /* \"#utility.yul\":16624:16629   */\n      dup2\n        /* \"#utility.yul\":16618:16630   */\n      mload\n        /* \"#utility.yul\":16608:16630   */\n      swap1\n      pop\n        /* \"#utility.yul\":16538:16637   */\n      swap2\n      swap1\n      pop\n      jump\t// out\n        /* \"#utility.yul\":16643:16812   */\n    tag_561:\n        /* \"#utility.yul\":16727:16738   */\n      0x00\n        /* \"#utility.yul\":16761:16767   */\n      dup3\n        /* \"#utility.yul\":16756:16759   */\n      dup3\n        /* \"#utility.yul\":16749:16768   */\n      mstore\n        /* \"#utility.yul\":16801:16805   */\n      0x20\n        /* \"#utility.yul\":16796:16799   */\n      dup3\n        /* \"#utility.yul\":16792:16806   */\n      add\n        /* \"#utility.yul\":16777:16806   */\n      swap1\n      pop\n        /* \"#utility.yul\":16643:16812   */\n      swap3\n      swap2\n      pop\n      pop\n      jump\t// out\n        /* \"#utility.yul\":16818:17123   */\n    tag_274:\n        /* \"#utility.yul\":16858:16861   */\n      0x00\n        /* \"#utility.yul\":16877:16897   */\n      tag_660\n        /* \"#utility.yul\":16895:16896   */\n      dup3\n        /* \"#utility.yul\":16877:16897   */\n      tag_609\n      jump\t// in\n    tag_660:\n        /* \"#utility.yul\":16872:16897   */\n      swap2\n      pop\n        /* \"#utility.yul\":16911:16931   */\n      tag_661\n        /* \"#utility.yul\":16929:16930   */\n      dup4\n        /* \"#utility.yul\":16911:16931   */\n      tag_609\n      jump\t// in\n    tag_661:\n        /* \"#utility.yul\":16906:16931   */\n      swap3\n      pop\n        /* \"#utility.yul\":17065:17066   */\n      dup3\n        /* \"#utility.yul\":16997:17063   */\n      0xffffffffffffffffffffffffffffffffffffffffffffffffffffffffffffffff\n        /* \"#utility.yul\":16993:17067   */\n      sub\n        /* \"#utility.yul\":16990:16991   */\n      dup3\n        /* \"#utility.yul\":16987:17068   */\n      gt\n        /* \"#utility.yul\":16984:17091   */\n      iszero\n      tag_662\n      jumpi\n        /* \"#utility.yul\":17071:17089   */\n      tag_663\n      tag_664\n      jump\t// in\n    tag_663:\n        /* \"#utility.yul\":16984:17091   */\n    tag_662:\n        /* \"#utility.yul\":17115:17116   */\n      dup3\n        /* \"#utility.yul\":17112:17113   */\n      dup3\n        /* \"#utility.yul\":17108:17117   */\n      add\n        /* \"#utility.yul\":17101:17117   */\n      swap1\n      pop\n        /* \"#utility.yul\":16818:17123   */\n      swap3\n      swap2\n      pop\n      pop\n      jump\t// out\n        /* \"#utility.yul\":17129:17320   */\n    tag_256:\n        /* \"#utility.yul\":17169:17173   */\n      0x00\n        /* \"#utility.yul\":17189:17209   */\n      tag_666\n        /* \"#utility.yul\":17207:17208   */\n      dup3\n        /* \"#utility.yul\":17189:17209   */\n      tag_609\n      jump\t// in\n    tag_666:\n        /* \"#utility.yul\":17184:17209   */\n      swap2\n      pop\n        /* \"#utility.yul\":17223:17243   */\n      tag_667\n        /* \"#utility.yul\":17241:17242   */\n      dup4\n        /* \"#utility.yul\":17223:17243   */\n      tag_609\n      jump\t// in\n    tag_667:\n        /* \"#utility.yul\":17218:17243   */\n      swap3\n      pop\n        /* \"#utility.yul\":17262:17263   */\n      dup3\n        /* \"#utility.yul\":17259:17260   */\n      dup3\n        /* \"#utility.yul\":17256:17264   */\n      lt\n        /* \"#utility.yul\":17253:17287   */\n      iszero\n      tag_668\n      jumpi\n        /* \"#utility.yul\":17267:17285   */\n      tag_669\n      tag_664\n      jump\t// in\n    tag_669:\n        /* \"#utility.yul\":17253:17287   */\n    tag_668:\n        /* \"#utility.yul\":17312:17313   */\n      dup3\n        /* \"#utility.yul\":17309:17310   */\n      dup3\n        /* \"#utility.yul\":17305:17314   */\n      sub\n        /* \"#utility.yul\":17297:17314   */\n      swap1\n      pop\n        /* \"#utility.yul\":17129:17320   */\n      swap3\n      swap2\n      pop\n      pop\n      jump\t// out\n        /* \"#utility.yul\":17326:17422   */\n    tag_551:\n        /* \"#utility.yul\":17363:17370   */\n      0x00\n        /* \"#utility.yul\":17392:17416   */\n      tag_671\n        /* \"#utility.yul\":17410:17415   */\n      dup3\n        /* \"#utility.yul\":17392:17416   */\n      tag_672\n      jump\t// in\n    tag_671:\n        /* \"#utility.yul\":17381:17416   */\n      swap1\n      pop\n        /* \"#utility.yul\":17326:17422   */\n      swap2\n      swap1\n      pop\n      jump\t// out\n        /* \"#utility.yul\":17428:17518   */\n    tag_555:\n        /* \"#utility.yul\":17462:17469   */\n      0x00\n        /* \"#utility.yul\":17505:17510   */\n      dup2\n        /* \"#utility.yul\":17498:17511   */\n      iszero\n        /* \"#utility.yul\":17491:17512   */\n      iszero\n        /* \"#utility.yul\":17480:17512   */\n      swap1\n      pop\n        /* \"#utility.yul\":17428:17518   */\n      swap2\n      swap1\n      pop\n      jump\t// out\n        /* \"#utility.yul\":17524:17650   */\n    tag_672:\n        /* \"#utility.yul\":17561:17568   */\n      0x00\n        /* \"#utility.yul\":17601:17643   */\n      0xffffffffffffffffffffffffffffffffffffffff\n        /* \"#utility.yul\":17594:17599   */\n      dup3\n        /* \"#utility.yul\":17590:17644   */\n      and\n        /* \"#utility.yul\":17579:17644   */\n      swap1\n      pop\n        /* \"#utility.yul\":17524:17650   */\n      swap2\n      swap1\n      pop\n      jump\t// out\n        /* \"#utility.yul\":17656:17733   */\n    tag_609:\n        /* \"#utility.yul\":17693:17700   */\n      0x00\n        /* \"#utility.yul\":17722:17727   */\n      dup2\n        /* \"#utility.yul\":17711:17727   */\n      swap1\n      pop\n        /* \"#utility.yul\":17656:17733   */\n      swap2\n      swap1\n      pop\n      jump\t// out\n        /* \"#utility.yul\":17739:17825   */\n    tag_613:\n        /* \"#utility.yul\":17774:17781   */\n      0x00\n        /* \"#utility.yul\":17814:17818   */\n      0xff\n        /* \"#utility.yul\":17807:17812   */\n      dup3\n        /* \"#utility.yul\":17803:17819   */\n      and\n        /* \"#utility.yul\":17792:17819   */\n      swap1\n      pop\n        /* \"#utility.yul\":17739:17825   */\n      swap2\n      swap1\n      pop\n      jump\t// out\n        /* \"#utility.yul\":17831:17985   */\n    tag_475:\n        /* \"#utility.yul\":17915:17921   */\n      dup3\n        /* \"#utility.yul\":17910:17913   */\n      dup2\n        /* \"#utility.yul\":17905:17908   */\n      dup4\n        /* \"#utility.yul\":17892:17922   */\n      calldatacopy\n        /* \"#utility.yul\":17977:17978   */\n      0x00\n        /* \"#utility.yul\":17968:17974   */\n      dup4\n        /* \"#utility.yul\":17963:17966   */\n      dup4\n        /* \"#utility.yul\":17959:17975   */\n      add\n        /* \"#utility.yul\":17952:17979   */\n      mstore\n        /* \"#utility.yul\":17831:17985   */\n      pop\n      pop\n      pop\n      jump\t// out\n        /* \"#utility.yul\":17991:18298   */\n    tag_563:\n        /* \"#utility.yul\":18059:18060   */\n      0x00\n        /* \"#utility.yul\":18069:18182   */\n    tag_679:\n        /* \"#utility.yul\":18083:18089   */\n      dup4\n        /* \"#utility.yul\":18080:18081   */\n      dup2\n        /* \"#utility.yul\":18077:18090   */\n      lt\n        /* \"#utility.yul\":18069:18182   */\n      iszero\n      tag_681\n      jumpi\n        /* \"#utility.yul\":18168:18169   */\n      dup1\n        /* \"#utility.yul\":18163:18166   */\n      dup3\n        /* \"#utility.yul\":18159:18170   */\n      add\n        /* \"#utility.yul\":18153:18171   */\n      mload\n        /* \"#utility.yul\":18149:18150   */\n      dup2\n        /* \"#utility.yul\":18144:18147   */\n      dup5\n        /* \"#utility.yul\":18140:18151   */\n      add\n        /* \"#utility.yul\":18133:18172   */\n      mstore\n        /* \"#utility.yul\":18105:18107   */\n      0x20\n        /* \"#utility.yul\":18102:18103   */\n      dup2\n        /* \"#utility.yul\":18098:18108   */\n      add\n        /* \"#utility.yul\":18093:18108   */\n      swap1\n      pop\n        /* \"#utility.yul\":18069:18182   */\n      jump(tag_679)\n    tag_681:\n        /* \"#utility.yul\":18200:18206   */\n      dup4\n        /* \"#utility.yul\":18197:18198   */\n      dup2\n        /* \"#utility.yul\":18194:18207   */\n      gt\n        /* \"#utility.yul\":18191:18292   */\n      iszero\n      tag_682\n      jumpi\n        /* \"#utility.yul\":18280:18281   */\n      0x00\n        /* \"#utility.yul\":18271:18277   */\n      dup5\n        /* \"#utility.yul\":18266:18269   */\n      dup5\n        /* \"#utility.yul\":18262:18278   */\n      add\n        /* \"#utility.yul\":18255:18282   */\n      mstore\n        /* \"#utility.yul\":18191:18292   */\n    tag_682:\n        /* \"#utility.yul\":18040:18298   */\n      pop\n        /* \"#utility.yul\":17991:18298   */\n      pop\n      pop\n      pop\n      jump\t// out\n        /* \"#utility.yul\":18304:18624   */\n    tag_214:\n        /* \"#utility.yul\":18348:18354   */\n      0x00\n        /* \"#utility.yul\":18385:18386   */\n      0x02\n        /* \"#utility.yul\":18379:18383   */\n      dup3\n        /* \"#utility.yul\":18375:18387   */\n      div\n        /* \"#utility.yul\":18365:18387   */\n      swap1\n      pop\n        /* \"#utility.yul\":18432:18433   */\n      0x01\n        /* \"#utility.yul\":18426:18430   */\n      dup3\n        /* \"#utility.yul\":18422:18434   */\n      and\n        /* \"#utility.yul\":18453:18471   */\n      dup1\n        /* \"#utility.yul\":18443:18524   */\n      tag_684\n      jumpi\n        /* \"#utility.yul\":18509:18513   */\n      0x7f\n        /* \"#utility.yul\":18501:18507   */\n      dup3\n        /* \"#utility.yul\":18497:18514   */\n      and\n        /* \"#utility.yul\":18487:18514   */\n      swap2\n      pop\n        /* \"#utility.yul\":18443:18524   */\n    tag_684:\n        /* \"#utility.yul\":18571:18573   */\n      0x20\n        /* \"#utility.yul\":18563:18569   */\n      dup3\n        /* \"#utility.yul\":18560:18574   */\n      lt\n        /* \"#utility.yul\":18540:18558   */\n      dup2\n        /* \"#utility.yul\":18537:18575   */\n      eq\n        /* \"#utility.yul\":18534:18618   */\n      iszero\n      tag_685\n      jumpi\n        /* \"#utility.yul\":18590:18608   */\n      tag_686\n      tag_687\n      jump\t// in\n    tag_686:\n        /* \"#utility.yul\":18534:18618   */\n    tag_685:\n        /* \"#utility.yul\":18355:18624   */\n      pop\n        /* \"#utility.yul\":18304:18624   */\n      swap2\n      swap1\n      pop\n      jump\t// out\n        /* \"#utility.yul\":18630:18911   */\n    tag_647:\n        /* \"#utility.yul\":18713:18740   */\n      tag_689\n        /* \"#utility.yul\":18735:18739   */\n      dup3\n        /* \"#utility.yul\":18713:18740   */\n      tag_565\n      jump\t// in\n    tag_689:\n        /* \"#utility.yul\":18705:18711   */\n      dup2\n        /* \"#utility.yul\":18701:18741   */\n      add\n        /* \"#utility.yul\":18843:18849   */\n      dup2\n        /* \"#utility.yul\":18831:18841   */\n      dup2\n        /* \"#utility.yul\":18828:18850   */\n      lt\n        /* \"#utility.yul\":18807:18825   */\n      0xffffffffffffffff\n        /* \"#utility.yul\":18795:18805   */\n      dup3\n        /* \"#utility.yul\":18792:18826   */\n      gt\n        /* \"#utility.yul\":18789:18851   */\n      or\n        /* \"#utility.yul\":18786:18874   */\n      iszero\n      tag_690\n      jumpi\n        /* \"#utility.yul\":18854:18872   */\n      tag_691\n      tag_652\n      jump\t// in\n    tag_691:\n        /* \"#utility.yul\":18786:18874   */\n    tag_690:\n        /* \"#utility.yul\":18894:18904   */\n      dup1\n        /* \"#utility.yul\":18890:18892   */\n      0x40\n        /* \"#utility.yul\":18883:18905   */\n      mstore\n        /* \"#utility.yul\":18673:18911   */\n      pop\n        /* \"#utility.yul\":18630:18911   */\n      pop\n      pop\n      jump\t// out\n        /* \"#utility.yul\":18917:19150   */\n    tag_240:\n        /* \"#utility.yul\":18956:18959   */\n      0x00\n        /* \"#utility.yul\":18979:19003   */\n      tag_693\n        /* \"#utility.yul\":18997:19002   */\n      dup3\n        /* \"#utility.yul\":18979:19003   */\n      tag_609\n      jump\t// in\n    tag_693:\n        /* \"#utility.yul\":18970:19003   */\n      swap2\n      pop\n        /* \"#utility.yul\":19025:19091   */\n      0xffffffffffffffffffffffffffffffffffffffffffffffffffffffffffffffff\n        /* \"#utility.yul\":19018:19023   */\n      dup3\n        /* \"#utility.yul\":19015:19092   */\n      eq\n        /* \"#utility.yul\":19012:19115   */\n      iszero\n      tag_694\n      jumpi\n        /* \"#utility.yul\":19095:19113   */\n      tag_695\n      tag_664\n      jump\t// in\n    tag_695:\n        /* \"#utility.yul\":19012:19115   */\n    tag_694:\n        /* \"#utility.yul\":19142:19143   */\n      0x01\n        /* \"#utility.yul\":19135:19140   */\n      dup3\n        /* \"#utility.yul\":19131:19144   */\n      add\n        /* \"#utility.yul\":19124:19144   */\n      swap1\n      pop\n        /* \"#utility.yul\":18917:19150   */\n      swap2\n      swap1\n      pop\n      jump\t// out\n        /* \"#utility.yul\":19156:19336   */\n    tag_664:\n        /* \"#utility.yul\":19204:19281   */\n      0x4e487b7100000000000000000000000000000000000000000000000000000000\n        /* \"#utility.yul\":19201:19202   */\n      0x00\n        /* \"#utility.yul\":19194:19282   */\n      mstore\n        /* \"#utility.yul\":19301:19305   */\n      0x11\n        /* \"#utility.yul\":19298:19299   */\n      0x04\n        /* \"#utility.yul\":19291:19306   */\n      mstore\n        /* \"#utility.yul\":19325:19329   */\n      0x24\n        /* \"#utility.yul\":19322:19323   */\n      0x00\n        /* \"#utility.yul\":19315:19330   */\n      revert\n        /* \"#utility.yul\":19342:19522   */\n    tag_687:\n        /* \"#utility.yul\":19390:19467   */\n      0x4e487b7100000000000000000000000000000000000000000000000000000000\n        /* \"#utility.yul\":19387:19388   */\n      0x00\n        /* \"#utility.yul\":19380:19468   */\n      mstore\n        /* \"#utility.yul\":19487:19491   */\n      0x22\n        /* \"#utility.yul\":19484:19485   */\n      0x04\n        /* \"#utility.yul\":19477:19492   */\n      mstore\n        /* \"#utility.yul\":19511:19515   */\n      0x24\n        /* \"#utility.yul\":19508:19509   */\n      0x00\n        /* \"#utility.yul\":19501:19516   */\n      revert\n        /* \"#utility.yul\":19528:19708   */\n    tag_237:\n        /* \"#utility.yul\":19576:19653   */\n      0x4e487b7100000000000000000000000000000000000000000000000000000000\n        /* \"#utility.yul\":19573:19574   */\n      0x00\n        /* \"#utility.yul\":19566:19654   */\n      mstore\n        /* \"#utility.yul\":19673:19677   */\n      0x32\n        /* \"#utility.yul\":19670:19671   */\n      0x04\n        /* \"#utility.yul\":19663:19678   */\n      mstore\n        /* \"#utility.yul\":19697:19701   */\n      0x24\n        /* \"#utility.yul\":19694:19695   */\n      0x00\n        /* \"#utility.yul\":19687:19702   */\n      revert\n        /* \"#utility.yul\":19714:19894   */\n    tag_652:\n        /* \"#utility.yul\":19762:19839   */\n      0x4e487b7100000000000000000000000000000000000000000000000000000000\n        /* \"#utility.yul\":19759:19760   */\n      0x00\n        /* \"#utility.yul\":19752:19840   */\n      mstore\n        /* \"#utility.yul\":19859:19863   */\n      0x41\n        /* \"#utility.yul\":19856:19857   */\n      0x04\n        /* \"#utility.yul\":19849:19864   */\n      mstore\n        /* \"#utility.yul\":19883:19887   */\n      0x24\n        /* \"#utility.yul\":19880:19881   */\n      0x00\n        /* \"#utility.yul\":19873:19888   */\n      revert\n        /* \"#utility.yul\":19900:20017   */\n    tag_483:\n        /* \"#utility.yul\":20009:20010   */\n      0x00\n        /* \"#utility.yul\":20006:20007   */\n      dup1\n        /* \"#utility.yul\":19999:20011   */\n      revert\n        /* \"#utility.yul\":20023:20140   */\n    tag_460:\n        /* \"#utility.yul\":20132:20133   */\n      0x00\n        /* \"#utility.yul\":20129:20130   */\n      dup1\n        /* \"#utility.yul\":20122:20134   */\n      revert\n        /* \"#utility.yul\":20146:20263   */\n    tag_473:\n        /* \"#utility.yul\":20255:20256   */\n      0x00\n        /* \"#utility.yul\":20252:20253   */\n      dup1\n        /* \"#utility.yul\":20245:20257   */\n      revert\n        /* \"#utility.yul\":20269:20386   */\n    tag_530:\n        /* \"#utility.yul\":20378:20379   */\n      0x00\n        /* \"#utility.yul\":20375:20376   */\n      dup1\n        /* \"#utility.yul\":20368:20380   */\n      revert\n        /* \"#utility.yul\":20392:20509   */\n    tag_501:\n        /* \"#utility.yul\":20501:20502   */\n      0x00\n        /* \"#utility.yul\":20498:20499   */\n      dup1\n        /* \"#utility.yul\":20491:20503   */\n      revert\n        /* \"#utility.yul\":20515:20617   */\n    tag_565:\n        /* \"#utility.yul\":20556:20562   */\n      0x00\n        /* \"#utility.yul\":20607:20609   */\n      0x1f\n        /* \"#utility.yul\":20603:20610   */\n      not\n        /* \"#utility.yul\":20598:20600   */\n      0x1f\n        /* \"#utility.yul\":20591:20596   */\n      dup4\n        /* \"#utility.yul\":20587:20601   */\n      add\n        /* \"#utility.yul\":20583:20611   */\n      and\n        /* \"#utility.yul\":20573:20611   */\n      swap1\n      pop\n        /* \"#utility.yul\":20515:20617   */\n      swap2\n      swap1\n      pop\n      jump\t// out\n        /* \"#utility.yul\":20623:20801   */\n    tag_570:\n        /* \"#utility.yul\":20763:20793   */\n      0x4f6e6c79206f776e65722063616e2063616c6c2066756e6374696f6e00000000\n        /* \"#utility.yul\":20759:20760   */\n      0x00\n        /* \"#utility.yul\":20751:20757   */\n      dup3\n        /* \"#utility.yul\":20747:20761   */\n      add\n        /* \"#utility.yul\":20740:20794   */\n      mstore\n        /* \"#utility.yul\":20623:20801   */\n      pop\n      jump\t// out\n        /* \"#utility.yul\":20807:20975   */\n    tag_575:\n        /* \"#utility.yul\":20947:20967   */\n      0x416d6f756e742063616e6e6f7420626520300000000000000000000000000000\n        /* \"#utility.yul\":20943:20944   */\n      0x00\n        /* \"#utility.yul\":20935:20941   */\n      dup3\n        /* \"#utility.yul\":20931:20945   */\n      add\n        /* \"#utility.yul\":20924:20968   */\n      mstore\n        /* \"#utility.yul\":20807:20975   */\n      pop\n      jump\t// out\n        /* \"#utility.yul\":20981:21207   */\n    tag_580:\n        /* \"#utility.yul\":21121:21155   */\n      0x416d6f756e742063616e6e6f742062652067726561746572207468616e20416c\n        /* \"#utility.yul\":21117:21118   */\n      0x00\n        /* \"#utility.yul\":21109:21115   */\n      dup3\n        /* \"#utility.yul\":21105:21119   */\n      add\n        /* \"#utility.yul\":21098:21156   */\n      mstore\n        /* \"#utility.yul\":21190:21199   */\n      0x6c6f77616e636500000000000000000000000000000000000000000000000000\n        /* \"#utility.yul\":21185:21187   */\n      0x20\n        /* \"#utility.yul\":21177:21183   */\n      dup3\n        /* \"#utility.yul\":21173:21188   */\n      add\n        /* \"#utility.yul\":21166:21200   */\n      mstore\n        /* \"#utility.yul\":20981:21207   */\n      pop\n      jump\t// out\n        /* \"#utility.yul\":21213:21387   */\n    tag_585:\n        /* \"#utility.yul\":21353:21379   */\n      0x5a65726f2061646472657373206e6f7420616c6c6f7765640000000000000000\n        /* \"#utility.yul\":21349:21350   */\n      0x00\n        /* \"#utility.yul\":21341:21347   */\n      dup3\n        /* \"#utility.yul\":21337:21351   */\n      add\n        /* \"#utility.yul\":21330:21380   */\n      mstore\n        /* \"#utility.yul\":21213:21387   */\n      pop\n      jump\t// out\n        /* \"#utility.yul\":21393:21615   */\n    tag_590:\n        /* \"#utility.yul\":21533:21567   */\n      0x20416d6f756e742067726561746572207468616e2073656e6465722062616c61\n        /* \"#utility.yul\":21529:21530   */\n      0x00\n        /* \"#utility.yul\":21521:21527   */\n      dup3\n        /* \"#utility.yul\":21517:21531   */\n      add\n        /* \"#utility.yul\":21510:21568   */\n      mstore\n        /* \"#utility.yul\":21602:21607   */\n      0x6e63650000000000000000000000000000000000000000000000000000000000\n        /* \"#utility.yul\":21597:21599   */\n      0x20\n        /* \"#utility.yul\":21589:21595   */\n      dup3\n        /* \"#utility.yul\":21585:21600   */\n      add\n        /* \"#utility.yul\":21578:21608   */\n      mstore\n        /* \"#utility.yul\":21393:21615   */\n      pop\n      jump\t// out\n        /* \"#utility.yul\":21621:21798   */\n    tag_595:\n        /* \"#utility.yul\":21761:21790   */\n      0x416d6f756e742067726561746572207468616e2062616c616e63650000000000\n        /* \"#utility.yul\":21757:21758   */\n      0x00\n        /* \"#utility.yul\":21749:21755   */\n      dup3\n        /* \"#utility.yul\":21745:21759   */\n      add\n        /* \"#utility.yul\":21738:21791   */\n      mstore\n        /* \"#utility.yul\":21621:21798   */\n      pop\n      jump\t// out\n        /* \"#utility.yul\":21804:22044   */\n    tag_600:\n        /* \"#utility.yul\":21944:21978   */\n      0x416c6c6f77656420496e766573746f72732063616e6e6f74206265206c657373\n        /* \"#utility.yul\":21940:21941   */\n      0x00\n        /* \"#utility.yul\":21932:21938   */\n      dup3\n        /* \"#utility.yul\":21928:21942   */\n      add\n        /* \"#utility.yul\":21921:21979   */\n      mstore\n        /* \"#utility.yul\":22013:22036   */\n      0x207468616e2043757272656e7420686f6c646572730000000000000000000000\n        /* \"#utility.yul\":22008:22010   */\n      0x20\n        /* \"#utility.yul\":22000:22006   */\n      dup3\n        /* \"#utility.yul\":21996:22011   */\n      add\n        /* \"#utility.yul\":21989:22037   */\n      mstore\n        /* \"#utility.yul\":21804:22044   */\n      pop\n      jump\t// out\n        /* \"#utility.yul\":22050:22223   */\n    tag_605:\n        /* \"#utility.yul\":22190:22215   */\n      0x4e6f742057686974656c69737420417574686f72697479000000000000000000\n        /* \"#utility.yul\":22186:22187   */\n      0x00\n        /* \"#utility.yul\":22178:22184   */\n      dup3\n        /* \"#utility.yul\":22174:22188   */\n      add\n        /* \"#utility.yul\":22167:22216   */\n      mstore\n        /* \"#utility.yul\":22050:22223   */\n      pop\n      jump\t// out\n        /* \"#utility.yul\":22229:22351   */\n    tag_478:\n        /* \"#utility.yul\":22302:22326   */\n      tag_715\n        /* \"#utility.yul\":22320:22325   */\n      dup2\n        /* \"#utility.yul\":22302:22326   */\n      tag_551\n      jump\t// in\n    tag_715:\n        /* \"#utility.yul\":22295:22300   */\n      dup2\n        /* \"#utility.yul\":22292:22327   */\n      eq\n        /* \"#utility.yul\":22282:22345   */\n      tag_716\n      jumpi\n        /* \"#utility.yul\":22341:22342   */\n      0x00\n        /* \"#utility.yul\":22338:22339   */\n      dup1\n        /* \"#utility.yul\":22331:22343   */\n      revert\n        /* \"#utility.yul\":22282:22345   */\n    tag_716:\n        /* \"#utility.yul\":22229:22351   */\n      pop\n      jump\t// out\n        /* \"#utility.yul\":22357:22479   */\n    tag_493:\n        /* \"#utility.yul\":22430:22454   */\n      tag_718\n        /* \"#utility.yul\":22448:22453   */\n      dup2\n        /* \"#utility.yul\":22430:22454   */\n      tag_609\n      jump\t// in\n    tag_718:\n        /* \"#utility.yul\":22423:22428   */\n      dup2\n        /* \"#utility.yul\":22420:22455   */\n      eq\n        /* \"#utility.yul\":22410:22473   */\n      tag_719\n      jumpi\n        /* \"#utility.yul\":22469:22470   */\n      0x00\n        /* \"#utility.yul\":22466:22467   */\n      dup1\n        /* \"#utility.yul\":22459:22471   */\n      revert\n        /* \"#utility.yul\":22410:22473   */\n    tag_719:\n        /* \"#utility.yul\":22357:22479   */\n      pop\n      jump\t// out\n        /* \"#utility.yul\":22485:22603   */\n    tag_497:\n        /* \"#utility.yul\":22556:22578   */\n      tag_721\n        /* \"#utility.yul\":22572:22577   */\n      dup2\n        /* \"#utility.yul\":22556:22578   */\n      tag_613\n      jump\t// in\n    tag_721:\n        /* \"#utility.yul\":22549:22554   */\n      dup2\n        /* \"#utility.yul\":22546:22579   */\n      eq\n        /* \"#utility.yul\":22536:22597   */\n      tag_722\n      jumpi\n        /* \"#utility.yul\":22593:22594   */\n      0x00\n        /* \"#utility.yul\":22590:22591   */\n      dup1\n        /* \"#utility.yul\":22583:22595   */\n      revert\n        /* \"#utility.yul\":22536:22597   */\n    tag_722:\n        /* \"#utility.yul\":22485:22603   */\n      pop\n      jump\t// out\n    stop\n    data_0bf17d6579a15f80cddc5ddc4c7802721ab098d4db24a2c055da5f58a25e33a5 5265636569766572206973206e6f742077686974656c6973746564206f7220626c6f636b6564\n    data_4440c032e746f33200962f44b90c6baeb8a9490cc8cfdd8f15a36acf65844772 4d617820616c6c6f77656420696e766573746f72207265737472696374696f6e20697320696e20706c6163652c2074686973207472616e736665722077696c6c206578636565642074686973206c696d69746174696f6e\n    data_74c2d1263641840c4bf20a32b19f8ec2189d64e295faf5087433fd363b0d0b13 53656e6465722069732077686974656c697374656420627574206973206e6f7420656c696769626c6520746f2073656e6420746f6b656e7320616e6420756e64657220686f6c64696e6720706572696f6420284b59432074696d65207265737472696374696f6e29\n    data_c06fda3c41df076643499cebb61f71adfbc909dbd75501db341cc82d5933142b 416c6c207472616e7366657273206172652064697361626c6564206265636175736520486f6c64696e6720506572696f64206973206e6f74207965742065787069726564\n    data_c0b3b74fbdbabd67b27d0f337b8b420091e75c6e12a17cd864ffcacf5ec7db0f 52656365697665722069732077686974656c697374656420627574206973206e6f742079657420656c696769626c6520746f207265636569766520746f6b656e7320696e206869732077616c6c657420284b59432074696d65207265737472696374696f6e29\n    data_f32e889bc43e14f6f361a9fb16e2e4f7ae397532b0ea1cf85b8b8914d3f5dbc4 53656e646572206973206e6f742077686974656c6973746564206f7220626c6f636b6564\n\n    auxdata: 0xa264697066735822122064025b5c1b1c1428790f864e07d79cc05f784b3bf920d6d32fb0c28a36c12b2264736f6c63430008070033\n}\n",
				"bytecode": {
					"linkReferences": {},
					"object": "608060405260126006556040518060400160405280600381526020017f312e3200000000000000000000000000000000000000000000000000000000008152506007908051906020019062000056929190620004d9565b506040518060400160405280600a81526020017f446967695368617265730000000000000000000000000000000000000000000081525060089080519060200190620000a4929190620004d9565b506040518060400160405280600881526020017f4552432d3134303400000000000000000000000000000000000000000000000081525060099080519060200190620000f2929190620004d9565b506000601055600060115560016012553480156200010f57600080fd5b506040516200464838038062004648833981810160405281019062000135919062000635565b87600b90805190602001906200014d929190620004d9565b5086600c908051906020019062000166929190620004d9565b508460068190555033600460006101000a81548173ffffffffffffffffffffffffffffffffffffffff021916908373ffffffffffffffffffffffffffffffffffffffff1602179055506001600080600460009054906101000a900473ffffffffffffffffffffffffffffffffffffffff1673ffffffffffffffffffffffffffffffffffffffff1673ffffffffffffffffffffffffffffffffffffffff168152602001908152602001600020819055506001806000600460009054906101000a900473ffffffffffffffffffffffffffffffffffffffff1673ffffffffffffffffffffffffffffffffffffffff1673ffffffffffffffffffffffffffffffffffffffff1681526020019081526020016000208190555060016000808373ffffffffffffffffffffffffffffffffffffffff1673ffffffffffffffffffffffffffffffffffffffff1681526020019081526020016000208190555060018060008373ffffffffffffffffffffffffffffffffffffffff1673ffffffffffffffffffffffffffffffffffffffff168152602001908152602001600020819055508560118190555088600a81905550600a5460026000600460009054906101000a900473ffffffffffffffffffffffffffffffffffffffff1673ffffffffffffffffffffffffffffffffffffffff1673ffffffffffffffffffffffffffffffffffffffff16815260200190815260200160002081905550600160056000600460009054906101000a900473ffffffffffffffffffffffffffffffffffffffff1673ffffffffffffffffffffffffffffffffffffffff1673ffffffffffffffffffffffffffffffffffffffff16815260200190815260200160002060006101000a81548160ff02191690831515021790555083600d90805190602001906200040b929190620004d9565b5082600e908051906020019062000424929190620004d9565b5081600f90805190602001906200043d929190620004d9565b50600460009054906101000a900473ffffffffffffffffffffffffffffffffffffffff1673ffffffffffffffffffffffffffffffffffffffff16600073ffffffffffffffffffffffffffffffffffffffff167fddf252ad1be2c89b69c2b068fc378daa952ba7f163c4a11628f55a4df523b3ef600a54604051620004c29190620007c0565b60405180910390a3505050505050505050620009d3565b828054620004e790620008b0565b90600052602060002090601f0160209004810192826200050b576000855562000557565b82601f106200052657805160ff191683800117855562000557565b8280016001018555821562000557579182015b828111156200055657825182559160200191906001019062000539565b5b5090506200056691906200056a565b5090565b5b80821115620005855760008160009055506001016200056b565b5090565b6000620005a06200059a8462000806565b620007dd565b905082815260208101848484011115620005bf57620005be6200097f565b5b620005cc8482856200087a565b509392505050565b600081519050620005e5816200099f565b92915050565b600082601f8301126200060357620006026200097a565b5b81516200061584826020860162000589565b91505092915050565b6000815190506200062f81620009b9565b92915050565b60008060008060008060008060006101208a8c0312156200065b576200065a62000989565b5b60006200066b8c828d016200061e565b99505060208a015167ffffffffffffffff8111156200068f576200068e62000984565b5b6200069d8c828d01620005eb565b98505060408a015167ffffffffffffffff811115620006c157620006c062000984565b5b620006cf8c828d01620005eb565b9750506060620006e28c828d016200061e565b9650506080620006f58c828d016200061e565b95505060a08a015167ffffffffffffffff81111562000719576200071862000984565b5b620007278c828d01620005eb565b94505060c08a015167ffffffffffffffff8111156200074b576200074a62000984565b5b620007598c828d01620005eb565b93505060e08a015167ffffffffffffffff8111156200077d576200077c62000984565b5b6200078b8c828d01620005eb565b9250506101006200079f8c828d01620005d4565b9150509295985092959850929598565b620007ba8162000870565b82525050565b6000602082019050620007d76000830184620007af565b92915050565b6000620007e9620007fc565b9050620007f78282620008e6565b919050565b6000604051905090565b600067ffffffffffffffff8211156200082457620008236200094b565b5b6200082f826200098e565b9050602081019050919050565b6000620008498262000850565b9050919050565b600073ffffffffffffffffffffffffffffffffffffffff82169050919050565b6000819050919050565b60005b838110156200089a5780820151818401526020810190506200087d565b83811115620008aa576000848401525b50505050565b60006002820490506001821680620008c957607f821691505b60208210811415620008e057620008df6200091c565b5b50919050565b620008f1826200098e565b810181811067ffffffffffffffff821117156200091357620009126200094b565b5b80604052505050565b7f4e487b7100000000000000000000000000000000000000000000000000000000600052602260045260246000fd5b7f4e487b7100000000000000000000000000000000000000000000000000000000600052604160045260246000fd5b600080fd5b600080fd5b600080fd5b600080fd5b6000601f19601f8301169050919050565b620009aa816200083c565b8114620009b657600080fd5b50565b620009c48162000870565b8114620009d057600080fd5b50565b613c6580620009e36000396000f3fe608060405234801561001057600080fd5b50600436106102745760003560e01c806384f9007f11610151578063b1b5932a116100c3578063da76e2f311610087578063da76e2f314610792578063dd62ed3e146107ae578063e59e8013146107de578063e8379421146107fc578063f2fde38b1461082c578063fd80f5d61461084857610274565b8063b1b5932a146106ee578063b5b7e6ee1461070c578063b807157514610728578063c319e41c14610746578063d4ce14151461076257610274565b80639dc29fac116101155780639dc29fac14610607578063a9059cbb14610637578063ab47a2f914610667578063abc30a4b14610698578063ac893db1146106b4578063b091da94146106d057610274565b806384f9007f146105715780638d80e4a01461058f5780638da5cb5b146105ad5780638fe32e12146105cb57806395d89b41146105e957610274565b806351aebcd4116101ea5780636401ca76116101ae5780636401ca7614610499578063654b6f15146104b757806370a08231146104d55780637169698c146105055780637cae04f7146105235780637f4ab1dd1461054157610274565b806351aebcd41461040757806354fd4d501461042357806359a72ddc1461044157806362a3d4bd1461045f578063639c86ce1461047b57610274565b806323b872dd1161023c57806323b872dd1461031f5780632b8e797a1461034f578063313ce5671461036b5780633a24ddc51461038957806340c10f19146103b957806345968836146103e957610274565b806306fdde0314610279578063095ea7b31461029757806309fc3892146102c757806311d6f0aa146102e357806318160ddd14610301575b600080fd5b610281610866565b60405161028e91906133ab565b60405180910390f35b6102b160048036038101906102ac9190613043565b6108f4565b6040516102be9190613390565b60405180910390f35b6102e160048036038101906102dc91906130d6565b610a98565b005b6102eb610b75565b6040516102f89190613511565b60405180910390f35b610309610b7a565b60405161031691906134cd565b60405180910390f35b61033960048036038101906103349190612ff0565b610b84565b6040516103469190613390565b60405180910390f35b61036960048036038101906103649190613083565b610e33565b005b610373610ed6565b60405161038091906134cd565b60405180910390f35b6103a3600480360381019061039e9190613043565b610edc565b6040516103b09190613390565b60405180910390f35b6103d360048036038101906103ce9190613043565b610fa5565b6040516103e09190613390565b60405180910390f35b6103f16111a1565b6040516103fe91906134cd565b60405180910390f35b610421600480360381019061041c9190613145565b6111a7565b005b61042b611288565b60405161043891906133ab565b60405180910390f35b610449611316565b60405161045691906133ab565b60405180910390f35b6104796004803603810190610474919061318e565b6113a4565b005b6104836114c3565b60405161049091906134cd565b60405180910390f35b6104a16114c9565b6040516104ae91906134cd565b60405180910390f35b6104bf6114cf565b6040516104cc91906133ab565b60405180910390f35b6104ef60048036038101906104ea9190612f83565b61155d565b6040516104fc91906134cd565b60405180910390f35b61050d6115a6565b60405161051a9190613511565b60405180910390f35b61052b6115ab565b60405161053891906133ab565b60405180910390f35b61055b600480360381019061055691906131bb565b611639565b60405161056891906133ab565b60405180910390f35b610579611832565b60405161058691906133ab565b60405180910390f35b6105976118c0565b6040516105a49190613511565b60405180910390f35b6105b56118c5565b6040516105c29190613375565b60405180910390f35b6105d36118ef565b6040516105e09190613511565b60405180910390f35b6105f16118f4565b6040516105fe91906133ab565b60405180910390f35b610621600480360381019061061c9190613043565b611982565b60405161062e9190613390565b60405180910390f35b610651600480360381019061064c9190613043565b611c00565b60405161065e9190613390565b60405180910390f35b610681600480360381019061067c9190612f83565b611ce7565b60405161068f9291906134e8565b60405180910390f35b6106b260048036038101906106ad9190613145565b611d72565b005b6106ce60048036038101906106c99190613145565b611e53565b005b6106d8611f34565b6040516106e59190613511565b60405180910390f35b6106f6611f39565b60405161070391906133ab565b60405180910390f35b6107266004803603810190610721919061318e565b611fc7565b005b610730612098565b60405161073d9190613511565b60405180910390f35b610760600480360381019061075b9190612f83565b61209d565b005b61077c60048036038101906107779190612ff0565b6121bf565b6040516107899190613511565b60405180910390f35b6107ac60048036038101906107a79190612f83565b612507565b005b6107c860048036038101906107c39190612fb0565b612620565b6040516107d591906134cd565b60405180910390f35b6107e66126a7565b6040516107f39190613511565b60405180910390f35b61081660048036038101906108119190612f83565b6126ac565b6040516108239190613390565b60405180910390f35b61084660048036038101906108419190612f83565b612702565b005b610850612846565b60405161085d9190613511565b60405180910390f35b600b8054610873906136eb565b80601f016020809104026020016040519081016040528092919081815260200182805461089f906136eb565b80156108ec5780601f106108c1576101008083540402835291602001916108ec565b820191906000526020600020905b8154815290600101906020018083116108cf57829003601f168201915b505050505081565b60008073ffffffffffffffffffffffffffffffffffffffff168373ffffffffffffffffffffffffffffffffffffffff161415610965576040517f08c379a000000000000000000000000000000000000000000000000000000000815260040161095c9061342d565b60405180910390fd5b600082116109a8576040517f08c379a000000000000000000000000000000000000000000000000000000000815260040161099f906133ed565b60405180910390fd5b81600360003373ffffffffffffffffffffffffffffffffffffffff1673ffffffffffffffffffffffffffffffffffffffff16815260200190815260200160002060008573ffffffffffffffffffffffffffffffffffffffff1673ffffffffffffffffffffffffffffffffffffffff168152602001908152602001600020819055508273ffffffffffffffffffffffffffffffffffffffff163373ffffffffffffffffffffffffffffffffffffffff167f8c5be1e5ebec7d5bd14f71427d1e84f3dd0314c0f7b2291e5b200ac8c7c3b92584604051610a8691906134cd565b60405180910390a36001905092915050565b60011515600560003373ffffffffffffffffffffffffffffffffffffffff1673ffffffffffffffffffffffffffffffffffffffff16815260200190815260200160002060009054906101000a900460ff16151514610b2b576040517f08c379a0000000000000000000000000000000000000000000000000000000008152600401610b22906134ad565b60405180910390fd5b60005b8351811015610b6f57610b5c848281518110610b4d57610b4c6137f5565b5b6020026020010151848461284b565b8080610b679061374e565b915050610b2e565b50505050565b600181565b6000600a54905090565b60008383836000610b968484846121bf565b905060008160ff1614610c52576000610bae82611639565b90508373ffffffffffffffffffffffffffffffffffffffff168573ffffffffffffffffffffffffffffffffffffffff167f2fdd8c36dbe5614497208665e8d30c570421680d09984e3153829ddabd30c09483604051610c0d91906133ab565b60405180910390a3806040517f08c379a0000000000000000000000000000000000000000000000000000000008152600401610c4991906133ab565b60405180910390fd5b85600360008a73ffffffffffffffffffffffffffffffffffffffff1673ffffffffffffffffffffffffffffffffffffffff16815260200190815260200160002060003373ffffffffffffffffffffffffffffffffffffffff1673ffffffffffffffffffffffffffffffffffffffff168152602001908152602001600020541015610d11576040517f08c379a0000000000000000000000000000000000000000000000000000000008152600401610d089061340d565b60405180910390fd5b610d1c888888612a1b565b85600360008a73ffffffffffffffffffffffffffffffffffffffff1673ffffffffffffffffffffffffffffffffffffffff16815260200190815260200160002060003373ffffffffffffffffffffffffffffffffffffffff1673ffffffffffffffffffffffffffffffffffffffff16815260200190815260200160002054610da49190613620565b600360008a73ffffffffffffffffffffffffffffffffffffffff1673ffffffffffffffffffffffffffffffffffffffff16815260200190815260200160002060003373ffffffffffffffffffffffffffffffffffffffff1673ffffffffffffffffffffffffffffffffffffffff1681526020019081526020016000208190555060019450505050509392505050565b60011515600560003373ffffffffffffffffffffffffffffffffffffffff1673ffffffffffffffffffffffffffffffffffffffff16815260200190815260200160002060009054906101000a900460ff16151514610ec6576040517f08c379a0000000000000000000000000000000000000000000000000000000008152600401610ebd906134ad565b60405180910390fd5b610ed183838361284b565b505050565b60065481565b60003373ffffffffffffffffffffffffffffffffffffffff16600460009054906101000a900473ffffffffffffffffffffffffffffffffffffffff1673ffffffffffffffffffffffffffffffffffffffff1614610f6e576040517f08c379a0000000000000000000000000000000000000000000000000000000008152600401610f65906133cd565b60405180910390fd5b610f9b83600460009054906101000a900473ffffffffffffffffffffffffffffffffffffffff1684612a1b565b6001905092915050565b60003373ffffffffffffffffffffffffffffffffffffffff16600460009054906101000a900473ffffffffffffffffffffffffffffffffffffffff1673ffffffffffffffffffffffffffffffffffffffff1614611037576040517f08c379a000000000000000000000000000000000000000000000000000000000815260040161102e906133cd565b60405180910390fd5b600073ffffffffffffffffffffffffffffffffffffffff168373ffffffffffffffffffffffffffffffffffffffff1614156110a7576040517f08c379a000000000000000000000000000000000000000000000000000000000815260040161109e9061342d565b60405180910390fd5b81600a546110b591906135ca565b600a8190555081600260008573ffffffffffffffffffffffffffffffffffffffff1673ffffffffffffffffffffffffffffffffffffffff1681526020019081526020016000205461110691906135ca565b600260008573ffffffffffffffffffffffffffffffffffffffff1673ffffffffffffffffffffffffffffffffffffffff168152602001908152602001600020819055508273ffffffffffffffffffffffffffffffffffffffff167f7b47457f3af09e5f794b020fd74160963a808f5985883496a096d403d380c3438360405161118f91906134cd565b60405180910390a26001905092915050565b60105481565b3373ffffffffffffffffffffffffffffffffffffffff16600460009054906101000a900473ffffffffffffffffffffffffffffffffffffffff1673ffffffffffffffffffffffffffffffffffffffff1614611237576040517f08c379a000000000000000000000000000000000000000000000000000000000815260040161122e906133cd565b60405180910390fd5b80600f908051906020019061124d929190612d93565b507fa555e96a9f6d83b18cbe170e5fd71ebb56fc55f86a115539e9f3038182075a508160405161127d91906133ab565b60405180910390a150565b60078054611295906136eb565b80601f01602080910402602001604051908101604052809291908181526020018280546112c1906136eb565b801561130e5780601f106112e35761010080835404028352916020019161130e565b820191906000526020600020905b8154815290600101906020018083116112f157829003601f168201915b505050505081565b600d8054611323906136eb565b80601f016020809104026020016040519081016040528092919081815260200182805461134f906136eb565b801561139c5780601f106113715761010080835404028352916020019161139c565b820191906000526020600020905b81548152906001019060200180831161137f57829003601f168201915b505050505081565b3373ffffffffffffffffffffffffffffffffffffffff16600460009054906101000a900473ffffffffffffffffffffffffffffffffffffffff1673ffffffffffffffffffffffffffffffffffffffff1614611434576040517f08c379a000000000000000000000000000000000000000000000000000000000815260040161142b906133cd565b60405180910390fd5b6000811461148257601054811015611481576040517f08c379a00000000000000000000000000000000000000000000000000000000081526004016114789061348d565b60405180910390fd5b5b806011819055507f87782743094654fc1484ef46e968abc30c6cd880e70ec8b310eb42641e35eb45816040516114b891906134cd565b60405180910390a150565b60125481565b60115481565b600880546114dc906136eb565b80601f0160208091040260200160405190810160405280929190818152602001828054611508906136eb565b80156115555780601f1061152a57610100808354040283529160200191611555565b820191906000526020600020905b81548152906001019060200180831161153857829003601f168201915b505050505081565b6000600260008373ffffffffffffffffffffffffffffffffffffffff1673ffffffffffffffffffffffffffffffffffffffff168152602001908152602001600020549050919050565b600081565b600980546115b8906136eb565b80601f01602080910402602001604051908101604052809291908181526020018280546115e4906136eb565b80156116315780601f1061160657610100808354040283529160200191611631565b820191906000526020600020905b81548152906001019060200180831161161457829003601f168201915b505050505081565b6060600060ff168260ff161415611687576040518060400160405280601e81526020017f4e6f207472616e73666572207265737472696374696f6e7320666f756e640000815250905061182d565b600160ff168260ff1614156116b657604051806080016040528060578152602001613aa360579139905061182c565b600260ff168260ff1614156116e557604051806080016040528060448152602001613b6260449139905061182b565b600360ff168260ff161415611731576040518060400160405280602081526020017f5a65726f207472616e7366657220616d6f756e74206e6f7420616c6c6f776564815250905061182a565b600460ff168260ff16141561176057604051806060016040528060248152602001613c0c602491399050611829565b600560ff168260ff16141561178f57604051806060016040528060268152602001613a7d602691399050611828565b600660ff168260ff1614156117be576040518060a0016040528060688152602001613afa606891399050611827565b600760ff168260ff1614156117ed576040518060a0016040528060668152602001613ba6606691399050611826565b6040518060400160405280601981526020017f4572726f7220636f6465206973206e6f7420646566696e65640000000000000081525090505b5b5b5b5b5b5b5b919050565b600e805461183f906136eb565b80601f016020809104026020016040519081016040528092919081815260200182805461186b906136eb565b80156118b85780601f1061188d576101008083540402835291602001916118b8565b820191906000526020600020905b81548152906001019060200180831161189b57829003601f168201915b505050505081565b600481565b6000600460009054906101000a900473ffffffffffffffffffffffffffffffffffffffff16905090565b600281565b600c8054611901906136eb565b80601f016020809104026020016040519081016040528092919081815260200182805461192d906136eb565b801561197a5780601f1061194f5761010080835404028352916020019161197a565b820191906000526020600020905b81548152906001019060200180831161195d57829003601f168201915b505050505081565b60003373ffffffffffffffffffffffffffffffffffffffff16600460009054906101000a900473ffffffffffffffffffffffffffffffffffffffff1673ffffffffffffffffffffffffffffffffffffffff1614611a14576040517f08c379a0000000000000000000000000000000000000000000000000000000008152600401611a0b906133cd565b60405180910390fd5b600073ffffffffffffffffffffffffffffffffffffffff168373ffffffffffffffffffffffffffffffffffffffff161415611a84576040517f08c379a0000000000000000000000000000000000000000000000000000000008152600401611a7b9061342d565b60405180910390fd5b81600260008573ffffffffffffffffffffffffffffffffffffffff1673ffffffffffffffffffffffffffffffffffffffff168152602001908152602001600020541015611b06576040517f08c379a0000000000000000000000000000000000000000000000000000000008152600401611afd9061346d565b60405180910390fd5b81600a54611b149190613620565b600a8190555081600260008573ffffffffffffffffffffffffffffffffffffffff1673ffffffffffffffffffffffffffffffffffffffff16815260200190815260200160002054611b659190613620565b600260008573ffffffffffffffffffffffffffffffffffffffff1673ffffffffffffffffffffffffffffffffffffffff168152602001908152602001600020819055508273ffffffffffffffffffffffffffffffffffffffff167f388d6102a0230861b4e9646fb5acda1c5ec15d39df2b619d39c25d16a126849083604051611bee91906134cd565b60405180910390a26001905092915050565b60003383836000611c128484846121bf565b905060008160ff1614611cce576000611c2a82611639565b90508373ffffffffffffffffffffffffffffffffffffffff168573ffffffffffffffffffffffffffffffffffffffff167f2fdd8c36dbe5614497208665e8d30c570421680d09984e3153829ddabd30c09483604051611c8991906133ab565b60405180910390a3806040517f08c379a0000000000000000000000000000000000000000000000000000000008152600401611cc591906133ab565b60405180910390fd5b611cd9338888612a1b565b600194505050505092915050565b6000806000808473ffffffffffffffffffffffffffffffffffffffff1673ffffffffffffffffffffffffffffffffffffffff16815260200190815260200160002054600160008573ffffffffffffffffffffffffffffffffffffffff1673ffffffffffffffffffffffffffffffffffffffff1681526020019081526020016000205491509150915091565b3373ffffffffffffffffffffffffffffffffffffffff16600460009054906101000a900473ffffffffffffffffffffffffffffffffffffffff1673ffffffffffffffffffffffffffffffffffffffff1614611e02576040517f08c379a0000000000000000000000000000000000000000000000000000000008152600401611df9906133cd565b60405180910390fd5b80600e9080519060200190611e18929190612d93565b507f824a3f3055c070014bc7157744915537c646ae1a287c988d79ec124d88938e9481604051611e4891906133ab565b60405180910390a150565b3373ffffffffffffffffffffffffffffffffffffffff16600460009054906101000a900473ffffffffffffffffffffffffffffffffffffffff1673ffffffffffffffffffffffffffffffffffffffff1614611ee3576040517f08c379a0000000000000000000000000000000000000000000000000000000008152600401611eda906133cd565b60405180910390fd5b80600d9080519060200190611ef9929190612d93565b507f4295968313e92c7dd40aa9c85be9b7246ff59503751e11205c85795a2f74fdb381604051611f2991906133ab565b60405180910390a150565b600381565b600f8054611f46906136eb565b80601f0160208091040260200160405190810160405280929190818152602001828054611f72906136eb565b8015611fbf5780601f10611f9457610100808354040283529160200191611fbf565b820191906000526020600020905b815481529060010190602001808311611fa257829003601f168201915b505050505081565b3373ffffffffffffffffffffffffffffffffffffffff16600460009054906101000a900473ffffffffffffffffffffffffffffffffffffffff1673ffffffffffffffffffffffffffffffffffffffff1614612057576040517f08c379a000000000000000000000000000000000000000000000000000000000815260040161204e906133cd565b60405180910390fd5b806012819055507f050293e6952eab2f7cf401de4a51c1918da86a2bd5a7276a11ae3dd4a549cde98160405161208d91906134cd565b60405180910390a150565b600681565b3373ffffffffffffffffffffffffffffffffffffffff16600460009054906101000a900473ffffffffffffffffffffffffffffffffffffffff1673ffffffffffffffffffffffffffffffffffffffff161461212d576040517f08c379a0000000000000000000000000000000000000000000000000000000008152600401612124906133cd565b60405180910390fd5b6001600560008373ffffffffffffffffffffffffffffffffffffffff1673ffffffffffffffffffffffffffffffffffffffff16815260200190815260200160002060006101000a81548160ff0219169083151502179055507fea54bdb8a4594aaac063e3b01ab3e613bf4cb045d085502c81497c9696aca8b2816040516121b49190613375565b60405180910390a150565b6000601254421080156122205750600460009054906101000a900473ffffffffffffffffffffffffffffffffffffffff1673ffffffffffffffffffffffffffffffffffffffff168473ffffffffffffffffffffffffffffffffffffffff1614155b1561222e5760029050612500565b6000821161223f5760039050612500565b6000600160008673ffffffffffffffffffffffffffffffffffffffff1673ffffffffffffffffffffffffffffffffffffffff1681526020019081526020016000205414156122905760049050612500565b60008060008573ffffffffffffffffffffffffffffffffffffffff1673ffffffffffffffffffffffffffffffffffffffff1681526020019081526020016000205414156122e05760059050612500565b42600160008673ffffffffffffffffffffffffffffffffffffffff1673ffffffffffffffffffffffffffffffffffffffff1681526020019081526020016000205411156123305760069050612500565b426000808573ffffffffffffffffffffffffffffffffffffffff1673ffffffffffffffffffffffffffffffffffffffff16815260200190815260200160002054111561237f5760079050612500565b600060115414156123935760009050612500565b6000600260008573ffffffffffffffffffffffffffffffffffffffff1673ffffffffffffffffffffffffffffffffffffffff16815260200190815260200160002054118061242e5750600460009054906101000a900473ffffffffffffffffffffffffffffffffffffffff1673ffffffffffffffffffffffffffffffffffffffff168373ffffffffffffffffffffffffffffffffffffffff16145b1561243c5760009050612500565b60115460105410156124515760009050612500565b81600260008673ffffffffffffffffffffffffffffffffffffffff1673ffffffffffffffffffffffffffffffffffffffff168152602001908152602001600020541480156124ed5750600460009054906101000a900473ffffffffffffffffffffffffffffffffffffffff1673ffffffffffffffffffffffffffffffffffffffff168473ffffffffffffffffffffffffffffffffffffffff1614155b156124fb5760009050612500565b600190505b9392505050565b3373ffffffffffffffffffffffffffffffffffffffff16600460009054906101000a900473ffffffffffffffffffffffffffffffffffffffff1673ffffffffffffffffffffffffffffffffffffffff1614612597576040517f08c379a000000000000000000000000000000000000000000000000000000000815260040161258e906133cd565b60405180910390fd5b600560008273ffffffffffffffffffffffffffffffffffffffff1673ffffffffffffffffffffffffffffffffffffffff16815260200190815260200160002060006101000a81549060ff02191690557f24546dc0f5df685d7c979edd1b0bcc4d85ac6a59974976d7217c9f0d930d3ff0816040516126159190613375565b60405180910390a150565b6000600360008473ffffffffffffffffffffffffffffffffffffffff1673ffffffffffffffffffffffffffffffffffffffff16815260200190815260200160002060008373ffffffffffffffffffffffffffffffffffffffff1673ffffffffffffffffffffffffffffffffffffffff16815260200190815260200160002054905092915050565b600781565b6000600560008373ffffffffffffffffffffffffffffffffffffffff1673ffffffffffffffffffffffffffffffffffffffff16815260200190815260200160002060009054906101000a900460ff169050919050565b3373ffffffffffffffffffffffffffffffffffffffff16600460009054906101000a900473ffffffffffffffffffffffffffffffffffffffff1673ffffffffffffffffffffffffffffffffffffffff1614612792576040517f08c379a0000000000000000000000000000000000000000000000000000000008152600401612789906133cd565b60405180910390fd5b600073ffffffffffffffffffffffffffffffffffffffff168173ffffffffffffffffffffffffffffffffffffffff161415612802576040517f08c379a00000000000000000000000000000000000000000000000000000000081526004016127f99061342d565b60405180910390fd5b80600460006101000a81548173ffffffffffffffffffffffffffffffffffffffff021916908373ffffffffffffffffffffffffffffffffffffffff16021790555050565b600581565b60008060008573ffffffffffffffffffffffffffffffffffffffff1673ffffffffffffffffffffffffffffffffffffffff1681526020019081526020016000205490506000600160008673ffffffffffffffffffffffffffffffffffffffff1673ffffffffffffffffffffffffffffffffffffffff168152602001908152602001600020549050836000808773ffffffffffffffffffffffffffffffffffffffff1673ffffffffffffffffffffffffffffffffffffffff1681526020019081526020016000208190555082600160008773ffffffffffffffffffffffffffffffffffffffff1673ffffffffffffffffffffffffffffffffffffffff168152602001908152602001600020819055506000821480156129695750600081145b156129c3578473ffffffffffffffffffffffffffffffffffffffff167fc78ee1de8eb00c83baa5f9bf324f00dd286b754a3826292de51c92c3e7a0cab585856040516129b69291906134e8565b60405180910390a2612a14565b8473ffffffffffffffffffffffffffffffffffffffff167f50fc162609db30a736355688f8f60baab2991bebb40a6d50ed93371a954936168585604051612a0b9291906134e8565b60405180910390a25b5050505050565b80600260008573ffffffffffffffffffffffffffffffffffffffff1673ffffffffffffffffffffffffffffffffffffffff168152602001908152602001600020541015612a9d576040517f08c379a0000000000000000000000000000000000000000000000000000000008152600401612a949061344d565b60405180910390fd5b80600260008573ffffffffffffffffffffffffffffffffffffffff1673ffffffffffffffffffffffffffffffffffffffff16815260200190815260200160002054612ae89190613620565b600260008573ffffffffffffffffffffffffffffffffffffffff1673ffffffffffffffffffffffffffffffffffffffff168152602001908152602001600020819055506000600260008573ffffffffffffffffffffffffffffffffffffffff1673ffffffffffffffffffffffffffffffffffffffff16815260200190815260200160002054148015612bc85750600460009054906101000a900473ffffffffffffffffffffffffffffffffffffffff1673ffffffffffffffffffffffffffffffffffffffff168373ffffffffffffffffffffffffffffffffffffffff1614155b15612be3576001601054612bdc9190613620565b6010819055505b6000600260008473ffffffffffffffffffffffffffffffffffffffff1673ffffffffffffffffffffffffffffffffffffffff16815260200190815260200160002054148015612c805750600460009054906101000a900473ffffffffffffffffffffffffffffffffffffffff1673ffffffffffffffffffffffffffffffffffffffff168273ffffffffffffffffffffffffffffffffffffffff1614155b15612c9b576001601054612c9491906135ca565b6010819055505b80600260008473ffffffffffffffffffffffffffffffffffffffff1673ffffffffffffffffffffffffffffffffffffffff16815260200190815260200160002054612ce691906135ca565b600260008473ffffffffffffffffffffffffffffffffffffffff1673ffffffffffffffffffffffffffffffffffffffff168152602001908152602001600020819055508173ffffffffffffffffffffffffffffffffffffffff168373ffffffffffffffffffffffffffffffffffffffff167fddf252ad1be2c89b69c2b068fc378daa952ba7f163c4a11628f55a4df523b3ef83604051612d8691906134cd565b60405180910390a3505050565b828054612d9f906136eb565b90600052602060002090601f016020900481019282612dc15760008555612e08565b82601f10612dda57805160ff1916838001178555612e08565b82800160010185558215612e08579182015b82811115612e07578251825591602001919060010190612dec565b5b509050612e159190612e19565b5090565b5b80821115612e32576000816000905550600101612e1a565b5090565b6000612e49612e4484613551565b61352c565b90508083825260208201905082856020860282011115612e6c57612e6b613858565b5b60005b85811015612e9c5781612e828882612ee8565b845260208401935060208301925050600181019050612e6f565b5050509392505050565b6000612eb9612eb48461357d565b61352c565b905082815260208101848484011115612ed557612ed461385d565b5b612ee08482856136a9565b509392505050565b600081359050612ef781613a37565b92915050565b600082601f830112612f1257612f11613853565b5b8135612f22848260208601612e36565b91505092915050565b600082601f830112612f4057612f3f613853565b5b8135612f50848260208601612ea6565b91505092915050565b600081359050612f6881613a4e565b92915050565b600081359050612f7d81613a65565b92915050565b600060208284031215612f9957612f98613867565b5b6000612fa784828501612ee8565b91505092915050565b60008060408385031215612fc757612fc6613867565b5b6000612fd585828601612ee8565b9250506020612fe685828601612ee8565b9150509250929050565b60008060006060848603121561300957613008613867565b5b600061301786828701612ee8565b935050602061302886828701612ee8565b925050604061303986828701612f59565b9150509250925092565b6000806040838503121561305a57613059613867565b5b600061306885828601612ee8565b925050602061307985828601612f59565b9150509250929050565b60008060006060848603121561309c5761309b613867565b5b60006130aa86828701612ee8565b93505060206130bb86828701612f59565b92505060406130cc86828701612f59565b9150509250925092565b6000806000606084860312156130ef576130ee613867565b5b600084013567ffffffffffffffff81111561310d5761310c613862565b5b61311986828701612efd565b935050602061312a86828701612f59565b925050604061313b86828701612f59565b9150509250925092565b60006020828403121561315b5761315a613867565b5b600082013567ffffffffffffffff81111561317957613178613862565b5b61318584828501612f2b565b91505092915050565b6000602082840312156131a4576131a3613867565b5b60006131b284828501612f59565b91505092915050565b6000602082840312156131d1576131d0613867565b5b60006131df84828501612f6e565b91505092915050565b6131f181613654565b82525050565b61320081613666565b82525050565b6000613211826135ae565b61321b81856135b9565b935061322b8185602086016136b8565b6132348161386c565b840191505092915050565b600061324c601c836135b9565b91506132578261387d565b602082019050919050565b600061326f6012836135b9565b915061327a826138a6565b602082019050919050565b60006132926027836135b9565b915061329d826138cf565b604082019050919050565b60006132b56018836135b9565b91506132c08261391e565b602082019050919050565b60006132d86023836135b9565b91506132e382613947565b604082019050919050565b60006132fb601b836135b9565b915061330682613996565b602082019050919050565b600061331e6035836135b9565b9150613329826139bf565b604082019050919050565b60006133416017836135b9565b915061334c82613a0e565b602082019050919050565b61336081613692565b82525050565b61336f8161369c565b82525050565b600060208201905061338a60008301846131e8565b92915050565b60006020820190506133a560008301846131f7565b92915050565b600060208201905081810360008301526133c58184613206565b905092915050565b600060208201905081810360008301526133e68161323f565b9050919050565b6000602082019050818103600083015261340681613262565b9050919050565b6000602082019050818103600083015261342681613285565b9050919050565b60006020820190508181036000830152613446816132a8565b9050919050565b60006020820190508181036000830152613466816132cb565b9050919050565b60006020820190508181036000830152613486816132ee565b9050919050565b600060208201905081810360008301526134a681613311565b9050919050565b600060208201905081810360008301526134c681613334565b9050919050565b60006020820190506134e26000830184613357565b92915050565b60006040820190506134fd6000830185613357565b61350a6020830184613357565b9392505050565b60006020820190506135266000830184613366565b92915050565b6000613536613547565b9050613542828261371d565b919050565b6000604051905090565b600067ffffffffffffffff82111561356c5761356b613824565b5b602082029050602081019050919050565b600067ffffffffffffffff82111561359857613597613824565b5b6135a18261386c565b9050602081019050919050565b600081519050919050565b600082825260208201905092915050565b60006135d582613692565b91506135e083613692565b9250827fffffffffffffffffffffffffffffffffffffffffffffffffffffffffffffffff0382111561361557613614613797565b5b828201905092915050565b600061362b82613692565b915061363683613692565b92508282101561364957613648613797565b5b828203905092915050565b600061365f82613672565b9050919050565b60008115159050919050565b600073ffffffffffffffffffffffffffffffffffffffff82169050919050565b6000819050919050565b600060ff82169050919050565b82818337600083830152505050565b60005b838110156136d65780820151818401526020810190506136bb565b838111156136e5576000848401525b50505050565b6000600282049050600182168061370357607f821691505b60208210811415613717576137166137c6565b5b50919050565b6137268261386c565b810181811067ffffffffffffffff8211171561374557613744613824565b5b80604052505050565b600061375982613692565b91507fffffffffffffffffffffffffffffffffffffffffffffffffffffffffffffffff82141561378c5761378b613797565b5b600182019050919050565b7f4e487b7100000000000000000000000000000000000000000000000000000000600052601160045260246000fd5b7f4e487b7100000000000000000000000000000000000000000000000000000000600052602260045260246000fd5b7f4e487b7100000000000000000000000000000000000000000000000000000000600052603260045260246000fd5b7f4e487b7100000000000000000000000000000000000000000000000000000000600052604160045260246000fd5b600080fd5b600080fd5b600080fd5b600080fd5b600080fd5b6000601f19601f8301169050919050565b7f4f6e6c79206f776e65722063616e2063616c6c2066756e6374696f6e00000000600082015250565b7f416d6f756e742063616e6e6f7420626520300000000000000000000000000000600082015250565b7f416d6f756e742063616e6e6f742062652067726561746572207468616e20416c60008201527f6c6f77616e636500000000000000000000000000000000000000000000000000602082015250565b7f5a65726f2061646472657373206e6f7420616c6c6f7765640000000000000000600082015250565b7f20416d6f756e742067726561746572207468616e2073656e6465722062616c6160008201527f6e63650000000000000000000000000000000000000000000000000000000000602082015250565b7f416d6f756e742067726561746572207468616e2062616c616e63650000000000600082015250565b7f416c6c6f77656420496e766573746f72732063616e6e6f74206265206c65737360008201527f207468616e2043757272656e7420686f6c646572730000000000000000000000602082015250565b7f4e6f742057686974656c69737420417574686f72697479000000000000000000600082015250565b613a4081613654565b8114613a4b57600080fd5b50565b613a5781613692565b8114613a6257600080fd5b50565b613a6e8161369c565b8114613a7957600080fd5b5056fe5265636569766572206973206e6f742077686974656c6973746564206f7220626c6f636b65644d617820616c6c6f77656420696e766573746f72207265737472696374696f6e20697320696e20706c6163652c2074686973207472616e736665722077696c6c206578636565642074686973206c696d69746174696f6e53656e6465722069732077686974656c697374656420627574206973206e6f7420656c696769626c6520746f2073656e6420746f6b656e7320616e6420756e64657220686f6c64696e6720706572696f6420284b59432074696d65207265737472696374696f6e29416c6c207472616e7366657273206172652064697361626c6564206265636175736520486f6c64696e6720506572696f64206973206e6f7420796574206578706972656452656365697665722069732077686974656c697374656420627574206973206e6f742079657420656c696769626c6520746f207265636569766520746f6b656e7320696e206869732077616c6c657420284b59432074696d65207265737472696374696f6e2953656e646572206973206e6f742077686974656c6973746564206f7220626c6f636b6564a264697066735822122064025b5c1b1c1428790f864e07d79cc05f784b3bf920d6d32fb0c28a36c12b2264736f6c63430008070033",
					"opcodes": "PUSH1 0x80 PUSH1 0x40 MSTORE PUSH1 0x12 PUSH1 0x6 SSTORE PUSH1 0x40 MLOAD DUP1 PUSH1 0x40 ADD PUSH1 0x40 MSTORE DUP1 PUSH1 0x3 DUP2 MSTORE PUSH1 0x20 ADD PUSH32 0x312E320000000000000000000000000000000000000000000000000000000000 DUP2 MSTORE POP PUSH1 0x7 SWAP1 DUP1 MLOAD SWAP1 PUSH1 0x20 ADD SWAP1 PUSH3 0x56 SWAP3 SWAP2 SWAP1 PUSH3 0x4D9 JUMP JUMPDEST POP PUSH1 0x40 MLOAD DUP1 PUSH1 0x40 ADD PUSH1 0x40 MSTORE DUP1 PUSH1 0xA DUP2 MSTORE PUSH1 0x20 ADD PUSH32 0x4469676953686172657300000000000000000000000000000000000000000000 DUP2 MSTORE POP PUSH1 0x8 SWAP1 DUP1 MLOAD SWAP1 PUSH1 0x20 ADD SWAP1 PUSH3 0xA4 SWAP3 SWAP2 SWAP1 PUSH3 0x4D9 JUMP JUMPDEST POP PUSH1 0x40 MLOAD DUP1 PUSH1 0x40 ADD PUSH1 0x40 MSTORE DUP1 PUSH1 0x8 DUP2 MSTORE PUSH1 0x20 ADD PUSH32 0x4552432D31343034000000000000000000000000000000000000000000000000 DUP2 MSTORE POP PUSH1 0x9 SWAP1 DUP1 MLOAD SWAP1 PUSH1 0x20 ADD SWAP1 PUSH3 0xF2 SWAP3 SWAP2 SWAP1 PUSH3 0x4D9 JUMP JUMPDEST POP PUSH1 0x0 PUSH1 0x10 SSTORE PUSH1 0x0 PUSH1 0x11 SSTORE PUSH1 0x1 PUSH1 0x12 SSTORE CALLVALUE DUP1 ISZERO PUSH3 0x10F JUMPI PUSH1 0x0 DUP1 REVERT JUMPDEST POP PUSH1 0x40 MLOAD PUSH3 0x4648 CODESIZE SUB DUP1 PUSH3 0x4648 DUP4 CODECOPY DUP2 DUP2 ADD PUSH1 0x40 MSTORE DUP2 ADD SWAP1 PUSH3 0x135 SWAP2 SWAP1 PUSH3 0x635 JUMP JUMPDEST DUP8 PUSH1 0xB SWAP1 DUP1 MLOAD SWAP1 PUSH1 0x20 ADD SWAP1 PUSH3 0x14D SWAP3 SWAP2 SWAP1 PUSH3 0x4D9 JUMP JUMPDEST POP DUP7 PUSH1 0xC SWAP1 DUP1 MLOAD SWAP1 PUSH1 0x20 ADD SWAP1 PUSH3 0x166 SWAP3 SWAP2 SWAP1 PUSH3 0x4D9 JUMP JUMPDEST POP DUP5 PUSH1 0x6 DUP2 SWAP1 SSTORE POP CALLER PUSH1 0x4 PUSH1 0x0 PUSH2 0x100 EXP DUP2 SLOAD DUP2 PUSH20 0xFFFFFFFFFFFFFFFFFFFFFFFFFFFFFFFFFFFFFFFF MUL NOT AND SWAP1 DUP4 PUSH20 0xFFFFFFFFFFFFFFFFFFFFFFFFFFFFFFFFFFFFFFFF AND MUL OR SWAP1 SSTORE POP PUSH1 0x1 PUSH1 0x0 DUP1 PUSH1 0x4 PUSH1 0x0 SWAP1 SLOAD SWAP1 PUSH2 0x100 EXP SWAP1 DIV PUSH20 0xFFFFFFFFFFFFFFFFFFFFFFFFFFFFFFFFFFFFFFFF AND PUSH20 0xFFFFFFFFFFFFFFFFFFFFFFFFFFFFFFFFFFFFFFFF AND PUSH20 0xFFFFFFFFFFFFFFFFFFFFFFFFFFFFFFFFFFFFFFFF AND DUP2 MSTORE PUSH1 0x20 ADD SWAP1 DUP2 MSTORE PUSH1 0x20 ADD PUSH1 0x0 KECCAK256 DUP2 SWAP1 SSTORE POP PUSH1 0x1 DUP1 PUSH1 0x0 PUSH1 0x4 PUSH1 0x0 SWAP1 SLOAD SWAP1 PUSH2 0x100 EXP SWAP1 DIV PUSH20 0xFFFFFFFFFFFFFFFFFFFFFFFFFFFFFFFFFFFFFFFF AND PUSH20 0xFFFFFFFFFFFFFFFFFFFFFFFFFFFFFFFFFFFFFFFF AND PUSH20 0xFFFFFFFFFFFFFFFFFFFFFFFFFFFFFFFFFFFFFFFF AND DUP2 MSTORE PUSH1 0x20 ADD SWAP1 DUP2 MSTORE PUSH1 0x20 ADD PUSH1 0x0 KECCAK256 DUP2 SWAP1 SSTORE POP PUSH1 0x1 PUSH1 0x0 DUP1 DUP4 PUSH20 0xFFFFFFFFFFFFFFFFFFFFFFFFFFFFFFFFFFFFFFFF AND PUSH20 0xFFFFFFFFFFFFFFFFFFFFFFFFFFFFFFFFFFFFFFFF AND DUP2 MSTORE PUSH1 0x20 ADD SWAP1 DUP2 MSTORE PUSH1 0x20 ADD PUSH1 0x0 KECCAK256 DUP2 SWAP1 SSTORE POP PUSH1 0x1 DUP1 PUSH1 0x0 DUP4 PUSH20 0xFFFFFFFFFFFFFFFFFFFFFFFFFFFFFFFFFFFFFFFF AND PUSH20 0xFFFFFFFFFFFFFFFFFFFFFFFFFFFFFFFFFFFFFFFF AND DUP2 MSTORE PUSH1 0x20 ADD SWAP1 DUP2 MSTORE PUSH1 0x20 ADD PUSH1 0x0 KECCAK256 DUP2 SWAP1 SSTORE POP DUP6 PUSH1 0x11 DUP2 SWAP1 SSTORE POP DUP9 PUSH1 0xA DUP2 SWAP1 SSTORE POP PUSH1 0xA SLOAD PUSH1 0x2 PUSH1 0x0 PUSH1 0x4 PUSH1 0x0 SWAP1 SLOAD SWAP1 PUSH2 0x100 EXP SWAP1 DIV PUSH20 0xFFFFFFFFFFFFFFFFFFFFFFFFFFFFFFFFFFFFFFFF AND PUSH20 0xFFFFFFFFFFFFFFFFFFFFFFFFFFFFFFFFFFFFFFFF AND PUSH20 0xFFFFFFFFFFFFFFFFFFFFFFFFFFFFFFFFFFFFFFFF AND DUP2 MSTORE PUSH1 0x20 ADD SWAP1 DUP2 MSTORE PUSH1 0x20 ADD PUSH1 0x0 KECCAK256 DUP2 SWAP1 SSTORE POP PUSH1 0x1 PUSH1 0x5 PUSH1 0x0 PUSH1 0x4 PUSH1 0x0 SWAP1 SLOAD SWAP1 PUSH2 0x100 EXP SWAP1 DIV PUSH20 0xFFFFFFFFFFFFFFFFFFFFFFFFFFFFFFFFFFFFFFFF AND PUSH20 0xFFFFFFFFFFFFFFFFFFFFFFFFFFFFFFFFFFFFFFFF AND PUSH20 0xFFFFFFFFFFFFFFFFFFFFFFFFFFFFFFFFFFFFFFFF AND DUP2 MSTORE PUSH1 0x20 ADD SWAP1 DUP2 MSTORE PUSH1 0x20 ADD PUSH1 0x0 KECCAK256 PUSH1 0x0 PUSH2 0x100 EXP DUP2 SLOAD DUP2 PUSH1 0xFF MUL NOT AND SWAP1 DUP4 ISZERO ISZERO MUL OR SWAP1 SSTORE POP DUP4 PUSH1 0xD SWAP1 DUP1 MLOAD SWAP1 PUSH1 0x20 ADD SWAP1 PUSH3 0x40B SWAP3 SWAP2 SWAP1 PUSH3 0x4D9 JUMP JUMPDEST POP DUP3 PUSH1 0xE SWAP1 DUP1 MLOAD SWAP1 PUSH1 0x20 ADD SWAP1 PUSH3 0x424 SWAP3 SWAP2 SWAP1 PUSH3 0x4D9 JUMP JUMPDEST POP DUP2 PUSH1 0xF SWAP1 DUP1 MLOAD SWAP1 PUSH1 0x20 ADD SWAP1 PUSH3 0x43D SWAP3 SWAP2 SWAP1 PUSH3 0x4D9 JUMP JUMPDEST POP PUSH1 0x4 PUSH1 0x0 SWAP1 SLOAD SWAP1 PUSH2 0x100 EXP SWAP1 DIV PUSH20 0xFFFFFFFFFFFFFFFFFFFFFFFFFFFFFFFFFFFFFFFF AND PUSH20 0xFFFFFFFFFFFFFFFFFFFFFFFFFFFFFFFFFFFFFFFF AND PUSH1 0x0 PUSH20 0xFFFFFFFFFFFFFFFFFFFFFFFFFFFFFFFFFFFFFFFF AND PUSH32 0xDDF252AD1BE2C89B69C2B068FC378DAA952BA7F163C4A11628F55A4DF523B3EF PUSH1 0xA SLOAD PUSH1 0x40 MLOAD PUSH3 0x4C2 SWAP2 SWAP1 PUSH3 0x7C0 JUMP JUMPDEST PUSH1 0x40 MLOAD DUP1 SWAP2 SUB SWAP1 LOG3 POP POP POP POP POP POP POP POP POP PUSH3 0x9D3 JUMP JUMPDEST DUP3 DUP1 SLOAD PUSH3 0x4E7 SWAP1 PUSH3 0x8B0 JUMP JUMPDEST SWAP1 PUSH1 0x0 MSTORE PUSH1 0x20 PUSH1 0x0 KECCAK256 SWAP1 PUSH1 0x1F ADD PUSH1 0x20 SWAP1 DIV DUP2 ADD SWAP3 DUP3 PUSH3 0x50B JUMPI PUSH1 0x0 DUP6 SSTORE PUSH3 0x557 JUMP JUMPDEST DUP3 PUSH1 0x1F LT PUSH3 0x526 JUMPI DUP1 MLOAD PUSH1 0xFF NOT AND DUP4 DUP1 ADD OR DUP6 SSTORE PUSH3 0x557 JUMP JUMPDEST DUP3 DUP1 ADD PUSH1 0x1 ADD DUP6 SSTORE DUP3 ISZERO PUSH3 0x557 JUMPI SWAP2 DUP3 ADD JUMPDEST DUP3 DUP2 GT ISZERO PUSH3 0x556 JUMPI DUP3 MLOAD DUP3 SSTORE SWAP2 PUSH1 0x20 ADD SWAP2 SWAP1 PUSH1 0x1 ADD SWAP1 PUSH3 0x539 JUMP JUMPDEST JUMPDEST POP SWAP1 POP PUSH3 0x566 SWAP2 SWAP1 PUSH3 0x56A JUMP JUMPDEST POP SWAP1 JUMP JUMPDEST JUMPDEST DUP1 DUP3 GT ISZERO PUSH3 0x585 JUMPI PUSH1 0x0 DUP2 PUSH1 0x0 SWAP1 SSTORE POP PUSH1 0x1 ADD PUSH3 0x56B JUMP JUMPDEST POP SWAP1 JUMP JUMPDEST PUSH1 0x0 PUSH3 0x5A0 PUSH3 0x59A DUP5 PUSH3 0x806 JUMP JUMPDEST PUSH3 0x7DD JUMP JUMPDEST SWAP1 POP DUP3 DUP2 MSTORE PUSH1 0x20 DUP2 ADD DUP5 DUP5 DUP5 ADD GT ISZERO PUSH3 0x5BF JUMPI PUSH3 0x5BE PUSH3 0x97F JUMP JUMPDEST JUMPDEST PUSH3 0x5CC DUP5 DUP3 DUP6 PUSH3 0x87A JUMP JUMPDEST POP SWAP4 SWAP3 POP POP POP JUMP JUMPDEST PUSH1 0x0 DUP2 MLOAD SWAP1 POP PUSH3 0x5E5 DUP2 PUSH3 0x99F JUMP JUMPDEST SWAP3 SWAP2 POP POP JUMP JUMPDEST PUSH1 0x0 DUP3 PUSH1 0x1F DUP4 ADD SLT PUSH3 0x603 JUMPI PUSH3 0x602 PUSH3 0x97A JUMP JUMPDEST JUMPDEST DUP2 MLOAD PUSH3 0x615 DUP5 DUP3 PUSH1 0x20 DUP7 ADD PUSH3 0x589 JUMP JUMPDEST SWAP2 POP POP SWAP3 SWAP2 POP POP JUMP JUMPDEST PUSH1 0x0 DUP2 MLOAD SWAP1 POP PUSH3 0x62F DUP2 PUSH3 0x9B9 JUMP JUMPDEST SWAP3 SWAP2 POP POP JUMP JUMPDEST PUSH1 0x0 DUP1 PUSH1 0x0 DUP1 PUSH1 0x0 DUP1 PUSH1 0x0 DUP1 PUSH1 0x0 PUSH2 0x120 DUP11 DUP13 SUB SLT ISZERO PUSH3 0x65B JUMPI PUSH3 0x65A PUSH3 0x989 JUMP JUMPDEST JUMPDEST PUSH1 0x0 PUSH3 0x66B DUP13 DUP3 DUP14 ADD PUSH3 0x61E JUMP JUMPDEST SWAP10 POP POP PUSH1 0x20 DUP11 ADD MLOAD PUSH8 0xFFFFFFFFFFFFFFFF DUP2 GT ISZERO PUSH3 0x68F JUMPI PUSH3 0x68E PUSH3 0x984 JUMP JUMPDEST JUMPDEST PUSH3 0x69D DUP13 DUP3 DUP14 ADD PUSH3 0x5EB JUMP JUMPDEST SWAP9 POP POP PUSH1 0x40 DUP11 ADD MLOAD PUSH8 0xFFFFFFFFFFFFFFFF DUP2 GT ISZERO PUSH3 0x6C1 JUMPI PUSH3 0x6C0 PUSH3 0x984 JUMP JUMPDEST JUMPDEST PUSH3 0x6CF DUP13 DUP3 DUP14 ADD PUSH3 0x5EB JUMP JUMPDEST SWAP8 POP POP PUSH1 0x60 PUSH3 0x6E2 DUP13 DUP3 DUP14 ADD PUSH3 0x61E JUMP JUMPDEST SWAP7 POP POP PUSH1 0x80 PUSH3 0x6F5 DUP13 DUP3 DUP14 ADD PUSH3 0x61E JUMP JUMPDEST SWAP6 POP POP PUSH1 0xA0 DUP11 ADD MLOAD PUSH8 0xFFFFFFFFFFFFFFFF DUP2 GT ISZERO PUSH3 0x719 JUMPI PUSH3 0x718 PUSH3 0x984 JUMP JUMPDEST JUMPDEST PUSH3 0x727 DUP13 DUP3 DUP14 ADD PUSH3 0x5EB JUMP JUMPDEST SWAP5 POP POP PUSH1 0xC0 DUP11 ADD MLOAD PUSH8 0xFFFFFFFFFFFFFFFF DUP2 GT ISZERO PUSH3 0x74B JUMPI PUSH3 0x74A PUSH3 0x984 JUMP JUMPDEST JUMPDEST PUSH3 0x759 DUP13 DUP3 DUP14 ADD PUSH3 0x5EB JUMP JUMPDEST SWAP4 POP POP PUSH1 0xE0 DUP11 ADD MLOAD PUSH8 0xFFFFFFFFFFFFFFFF DUP2 GT ISZERO PUSH3 0x77D JUMPI PUSH3 0x77C PUSH3 0x984 JUMP JUMPDEST JUMPDEST PUSH3 0x78B DUP13 DUP3 DUP14 ADD PUSH3 0x5EB JUMP JUMPDEST SWAP3 POP POP PUSH2 0x100 PUSH3 0x79F DUP13 DUP3 DUP14 ADD PUSH3 0x5D4 JUMP JUMPDEST SWAP2 POP POP SWAP3 SWAP6 SWAP9 POP SWAP3 SWAP6 SWAP9 POP SWAP3 SWAP6 SWAP9 JUMP JUMPDEST PUSH3 0x7BA DUP2 PUSH3 0x870 JUMP JUMPDEST DUP3 MSTORE POP POP JUMP JUMPDEST PUSH1 0x0 PUSH1 0x20 DUP3 ADD SWAP1 POP PUSH3 0x7D7 PUSH1 0x0 DUP4 ADD DUP5 PUSH3 0x7AF JUMP JUMPDEST SWAP3 SWAP2 POP POP JUMP JUMPDEST PUSH1 0x0 PUSH3 0x7E9 PUSH3 0x7FC JUMP JUMPDEST SWAP1 POP PUSH3 0x7F7 DUP3 DUP3 PUSH3 0x8E6 JUMP JUMPDEST SWAP2 SWAP1 POP JUMP JUMPDEST PUSH1 0x0 PUSH1 0x40 MLOAD SWAP1 POP SWAP1 JUMP JUMPDEST PUSH1 0x0 PUSH8 0xFFFFFFFFFFFFFFFF DUP3 GT ISZERO PUSH3 0x824 JUMPI PUSH3 0x823 PUSH3 0x94B JUMP JUMPDEST JUMPDEST PUSH3 0x82F DUP3 PUSH3 0x98E JUMP JUMPDEST SWAP1 POP PUSH1 0x20 DUP2 ADD SWAP1 POP SWAP2 SWAP1 POP JUMP JUMPDEST PUSH1 0x0 PUSH3 0x849 DUP3 PUSH3 0x850 JUMP JUMPDEST SWAP1 POP SWAP2 SWAP1 POP JUMP JUMPDEST PUSH1 0x0 PUSH20 0xFFFFFFFFFFFFFFFFFFFFFFFFFFFFFFFFFFFFFFFF DUP3 AND SWAP1 POP SWAP2 SWAP1 POP JUMP JUMPDEST PUSH1 0x0 DUP2 SWAP1 POP SWAP2 SWAP1 POP JUMP JUMPDEST PUSH1 0x0 JUMPDEST DUP4 DUP2 LT ISZERO PUSH3 0x89A JUMPI DUP1 DUP3 ADD MLOAD DUP2 DUP5 ADD MSTORE PUSH1 0x20 DUP2 ADD SWAP1 POP PUSH3 0x87D JUMP JUMPDEST DUP4 DUP2 GT ISZERO PUSH3 0x8AA JUMPI PUSH1 0x0 DUP5 DUP5 ADD MSTORE JUMPDEST POP POP POP POP JUMP JUMPDEST PUSH1 0x0 PUSH1 0x2 DUP3 DIV SWAP1 POP PUSH1 0x1 DUP3 AND DUP1 PUSH3 0x8C9 JUMPI PUSH1 0x7F DUP3 AND SWAP2 POP JUMPDEST PUSH1 0x20 DUP3 LT DUP2 EQ ISZERO PUSH3 0x8E0 JUMPI PUSH3 0x8DF PUSH3 0x91C JUMP JUMPDEST JUMPDEST POP SWAP2 SWAP1 POP JUMP JUMPDEST PUSH3 0x8F1 DUP3 PUSH3 0x98E JUMP JUMPDEST DUP2 ADD DUP2 DUP2 LT PUSH8 0xFFFFFFFFFFFFFFFF DUP3 GT OR ISZERO PUSH3 0x913 JUMPI PUSH3 0x912 PUSH3 0x94B JUMP JUMPDEST JUMPDEST DUP1 PUSH1 0x40 MSTORE POP POP POP JUMP JUMPDEST PUSH32 0x4E487B7100000000000000000000000000000000000000000000000000000000 PUSH1 0x0 MSTORE PUSH1 0x22 PUSH1 0x4 MSTORE PUSH1 0x24 PUSH1 0x0 REVERT JUMPDEST PUSH32 0x4E487B7100000000000000000000000000000000000000000000000000000000 PUSH1 0x0 MSTORE PUSH1 0x41 PUSH1 0x4 MSTORE PUSH1 0x24 PUSH1 0x0 REVERT JUMPDEST PUSH1 0x0 DUP1 REVERT JUMPDEST PUSH1 0x0 DUP1 REVERT JUMPDEST PUSH1 0x0 DUP1 REVERT JUMPDEST PUSH1 0x0 DUP1 REVERT JUMPDEST PUSH1 0x0 PUSH1 0x1F NOT PUSH1 0x1F DUP4 ADD AND SWAP1 POP SWAP2 SWAP1 POP JUMP JUMPDEST PUSH3 0x9AA DUP2 PUSH3 0x83C JUMP JUMPDEST DUP2 EQ PUSH3 0x9B6 JUMPI PUSH1 0x0 DUP1 REVERT JUMPDEST POP JUMP JUMPDEST PUSH3 0x9C4 DUP2 PUSH3 0x870 JUMP JUMPDEST DUP2 EQ PUSH3 0x9D0 JUMPI PUSH1 0x0 DUP1 REVERT JUMPDEST POP JUMP JUMPDEST PUSH2 0x3C65 DUP1 PUSH3 0x9E3 PUSH1 0x0 CODECOPY PUSH1 0x0 RETURN INVALID PUSH1 0x80 PUSH1 0x40 MSTORE CALLVALUE DUP1 ISZERO PUSH2 0x10 JUMPI PUSH1 0x0 DUP1 REVERT JUMPDEST POP PUSH1 0x4 CALLDATASIZE LT PUSH2 0x274 JUMPI PUSH1 0x0 CALLDATALOAD PUSH1 0xE0 SHR DUP1 PUSH4 0x84F9007F GT PUSH2 0x151 JUMPI DUP1 PUSH4 0xB1B5932A GT PUSH2 0xC3 JUMPI DUP1 PUSH4 0xDA76E2F3 GT PUSH2 0x87 JUMPI DUP1 PUSH4 0xDA76E2F3 EQ PUSH2 0x792 JUMPI DUP1 PUSH4 0xDD62ED3E EQ PUSH2 0x7AE JUMPI DUP1 PUSH4 0xE59E8013 EQ PUSH2 0x7DE JUMPI DUP1 PUSH4 0xE8379421 EQ PUSH2 0x7FC JUMPI DUP1 PUSH4 0xF2FDE38B EQ PUSH2 0x82C JUMPI DUP1 PUSH4 0xFD80F5D6 EQ PUSH2 0x848 JUMPI PUSH2 0x274 JUMP JUMPDEST DUP1 PUSH4 0xB1B5932A EQ PUSH2 0x6EE JUMPI DUP1 PUSH4 0xB5B7E6EE EQ PUSH2 0x70C JUMPI DUP1 PUSH4 0xB8071575 EQ PUSH2 0x728 JUMPI DUP1 PUSH4 0xC319E41C EQ PUSH2 0x746 JUMPI DUP1 PUSH4 0xD4CE1415 EQ PUSH2 0x762 JUMPI PUSH2 0x274 JUMP JUMPDEST DUP1 PUSH4 0x9DC29FAC GT PUSH2 0x115 JUMPI DUP1 PUSH4 0x9DC29FAC EQ PUSH2 0x607 JUMPI DUP1 PUSH4 0xA9059CBB EQ PUSH2 0x637 JUMPI DUP1 PUSH4 0xAB47A2F9 EQ PUSH2 0x667 JUMPI DUP1 PUSH4 0xABC30A4B EQ PUSH2 0x698 JUMPI DUP1 PUSH4 0xAC893DB1 EQ PUSH2 0x6B4 JUMPI DUP1 PUSH4 0xB091DA94 EQ PUSH2 0x6D0 JUMPI PUSH2 0x274 JUMP JUMPDEST DUP1 PUSH4 0x84F9007F EQ PUSH2 0x571 JUMPI DUP1 PUSH4 0x8D80E4A0 EQ PUSH2 0x58F JUMPI DUP1 PUSH4 0x8DA5CB5B EQ PUSH2 0x5AD JUMPI DUP1 PUSH4 0x8FE32E12 EQ PUSH2 0x5CB JUMPI DUP1 PUSH4 0x95D89B41 EQ PUSH2 0x5E9 JUMPI PUSH2 0x274 JUMP JUMPDEST DUP1 PUSH4 0x51AEBCD4 GT PUSH2 0x1EA JUMPI DUP1 PUSH4 0x6401CA76 GT PUSH2 0x1AE JUMPI DUP1 PUSH4 0x6401CA76 EQ PUSH2 0x499 JUMPI DUP1 PUSH4 0x654B6F15 EQ PUSH2 0x4B7 JUMPI DUP1 PUSH4 0x70A08231 EQ PUSH2 0x4D5 JUMPI DUP1 PUSH4 0x7169698C EQ PUSH2 0x505 JUMPI DUP1 PUSH4 0x7CAE04F7 EQ PUSH2 0x523 JUMPI DUP1 PUSH4 0x7F4AB1DD EQ PUSH2 0x541 JUMPI PUSH2 0x274 JUMP JUMPDEST DUP1 PUSH4 0x51AEBCD4 EQ PUSH2 0x407 JUMPI DUP1 PUSH4 0x54FD4D50 EQ PUSH2 0x423 JUMPI DUP1 PUSH4 0x59A72DDC EQ PUSH2 0x441 JUMPI DUP1 PUSH4 0x62A3D4BD EQ PUSH2 0x45F JUMPI DUP1 PUSH4 0x639C86CE EQ PUSH2 0x47B JUMPI PUSH2 0x274 JUMP JUMPDEST DUP1 PUSH4 0x23B872DD GT PUSH2 0x23C JUMPI DUP1 PUSH4 0x23B872DD EQ PUSH2 0x31F JUMPI DUP1 PUSH4 0x2B8E797A EQ PUSH2 0x34F JUMPI DUP1 PUSH4 0x313CE567 EQ PUSH2 0x36B JUMPI DUP1 PUSH4 0x3A24DDC5 EQ PUSH2 0x389 JUMPI DUP1 PUSH4 0x40C10F19 EQ PUSH2 0x3B9 JUMPI DUP1 PUSH4 0x45968836 EQ PUSH2 0x3E9 JUMPI PUSH2 0x274 JUMP JUMPDEST DUP1 PUSH4 0x6FDDE03 EQ PUSH2 0x279 JUMPI DUP1 PUSH4 0x95EA7B3 EQ PUSH2 0x297 JUMPI DUP1 PUSH4 0x9FC3892 EQ PUSH2 0x2C7 JUMPI DUP1 PUSH4 0x11D6F0AA EQ PUSH2 0x2E3 JUMPI DUP1 PUSH4 0x18160DDD EQ PUSH2 0x301 JUMPI JUMPDEST PUSH1 0x0 DUP1 REVERT JUMPDEST PUSH2 0x281 PUSH2 0x866 JUMP JUMPDEST PUSH1 0x40 MLOAD PUSH2 0x28E SWAP2 SWAP1 PUSH2 0x33AB JUMP JUMPDEST PUSH1 0x40 MLOAD DUP1 SWAP2 SUB SWAP1 RETURN JUMPDEST PUSH2 0x2B1 PUSH1 0x4 DUP1 CALLDATASIZE SUB DUP2 ADD SWAP1 PUSH2 0x2AC SWAP2 SWAP1 PUSH2 0x3043 JUMP JUMPDEST PUSH2 0x8F4 JUMP JUMPDEST PUSH1 0x40 MLOAD PUSH2 0x2BE SWAP2 SWAP1 PUSH2 0x3390 JUMP JUMPDEST PUSH1 0x40 MLOAD DUP1 SWAP2 SUB SWAP1 RETURN JUMPDEST PUSH2 0x2E1 PUSH1 0x4 DUP1 CALLDATASIZE SUB DUP2 ADD SWAP1 PUSH2 0x2DC SWAP2 SWAP1 PUSH2 0x30D6 JUMP JUMPDEST PUSH2 0xA98 JUMP JUMPDEST STOP JUMPDEST PUSH2 0x2EB PUSH2 0xB75 JUMP JUMPDEST PUSH1 0x40 MLOAD PUSH2 0x2F8 SWAP2 SWAP1 PUSH2 0x3511 JUMP JUMPDEST PUSH1 0x40 MLOAD DUP1 SWAP2 SUB SWAP1 RETURN JUMPDEST PUSH2 0x309 PUSH2 0xB7A JUMP JUMPDEST PUSH1 0x40 MLOAD PUSH2 0x316 SWAP2 SWAP1 PUSH2 0x34CD JUMP JUMPDEST PUSH1 0x40 MLOAD DUP1 SWAP2 SUB SWAP1 RETURN JUMPDEST PUSH2 0x339 PUSH1 0x4 DUP1 CALLDATASIZE SUB DUP2 ADD SWAP1 PUSH2 0x334 SWAP2 SWAP1 PUSH2 0x2FF0 JUMP JUMPDEST PUSH2 0xB84 JUMP JUMPDEST PUSH1 0x40 MLOAD PUSH2 0x346 SWAP2 SWAP1 PUSH2 0x3390 JUMP JUMPDEST PUSH1 0x40 MLOAD DUP1 SWAP2 SUB SWAP1 RETURN JUMPDEST PUSH2 0x369 PUSH1 0x4 DUP1 CALLDATASIZE SUB DUP2 ADD SWAP1 PUSH2 0x364 SWAP2 SWAP1 PUSH2 0x3083 JUMP JUMPDEST PUSH2 0xE33 JUMP JUMPDEST STOP JUMPDEST PUSH2 0x373 PUSH2 0xED6 JUMP JUMPDEST PUSH1 0x40 MLOAD PUSH2 0x380 SWAP2 SWAP1 PUSH2 0x34CD JUMP JUMPDEST PUSH1 0x40 MLOAD DUP1 SWAP2 SUB SWAP1 RETURN JUMPDEST PUSH2 0x3A3 PUSH1 0x4 DUP1 CALLDATASIZE SUB DUP2 ADD SWAP1 PUSH2 0x39E SWAP2 SWAP1 PUSH2 0x3043 JUMP JUMPDEST PUSH2 0xEDC JUMP JUMPDEST PUSH1 0x40 MLOAD PUSH2 0x3B0 SWAP2 SWAP1 PUSH2 0x3390 JUMP JUMPDEST PUSH1 0x40 MLOAD DUP1 SWAP2 SUB SWAP1 RETURN JUMPDEST PUSH2 0x3D3 PUSH1 0x4 DUP1 CALLDATASIZE SUB DUP2 ADD SWAP1 PUSH2 0x3CE SWAP2 SWAP1 PUSH2 0x3043 JUMP JUMPDEST PUSH2 0xFA5 JUMP JUMPDEST PUSH1 0x40 MLOAD PUSH2 0x3E0 SWAP2 SWAP1 PUSH2 0x3390 JUMP JUMPDEST PUSH1 0x40 MLOAD DUP1 SWAP2 SUB SWAP1 RETURN JUMPDEST PUSH2 0x3F1 PUSH2 0x11A1 JUMP JUMPDEST PUSH1 0x40 MLOAD PUSH2 0x3FE SWAP2 SWAP1 PUSH2 0x34CD JUMP JUMPDEST PUSH1 0x40 MLOAD DUP1 SWAP2 SUB SWAP1 RETURN JUMPDEST PUSH2 0x421 PUSH1 0x4 DUP1 CALLDATASIZE SUB DUP2 ADD SWAP1 PUSH2 0x41C SWAP2 SWAP1 PUSH2 0x3145 JUMP JUMPDEST PUSH2 0x11A7 JUMP JUMPDEST STOP JUMPDEST PUSH2 0x42B PUSH2 0x1288 JUMP JUMPDEST PUSH1 0x40 MLOAD PUSH2 0x438 SWAP2 SWAP1 PUSH2 0x33AB JUMP JUMPDEST PUSH1 0x40 MLOAD DUP1 SWAP2 SUB SWAP1 RETURN JUMPDEST PUSH2 0x449 PUSH2 0x1316 JUMP JUMPDEST PUSH1 0x40 MLOAD PUSH2 0x456 SWAP2 SWAP1 PUSH2 0x33AB JUMP JUMPDEST PUSH1 0x40 MLOAD DUP1 SWAP2 SUB SWAP1 RETURN JUMPDEST PUSH2 0x479 PUSH1 0x4 DUP1 CALLDATASIZE SUB DUP2 ADD SWAP1 PUSH2 0x474 SWAP2 SWAP1 PUSH2 0x318E JUMP JUMPDEST PUSH2 0x13A4 JUMP JUMPDEST STOP JUMPDEST PUSH2 0x483 PUSH2 0x14C3 JUMP JUMPDEST PUSH1 0x40 MLOAD PUSH2 0x490 SWAP2 SWAP1 PUSH2 0x34CD JUMP JUMPDEST PUSH1 0x40 MLOAD DUP1 SWAP2 SUB SWAP1 RETURN JUMPDEST PUSH2 0x4A1 PUSH2 0x14C9 JUMP JUMPDEST PUSH1 0x40 MLOAD PUSH2 0x4AE SWAP2 SWAP1 PUSH2 0x34CD JUMP JUMPDEST PUSH1 0x40 MLOAD DUP1 SWAP2 SUB SWAP1 RETURN JUMPDEST PUSH2 0x4BF PUSH2 0x14CF JUMP JUMPDEST PUSH1 0x40 MLOAD PUSH2 0x4CC SWAP2 SWAP1 PUSH2 0x33AB JUMP JUMPDEST PUSH1 0x40 MLOAD DUP1 SWAP2 SUB SWAP1 RETURN JUMPDEST PUSH2 0x4EF PUSH1 0x4 DUP1 CALLDATASIZE SUB DUP2 ADD SWAP1 PUSH2 0x4EA SWAP2 SWAP1 PUSH2 0x2F83 JUMP JUMPDEST PUSH2 0x155D JUMP JUMPDEST PUSH1 0x40 MLOAD PUSH2 0x4FC SWAP2 SWAP1 PUSH2 0x34CD JUMP JUMPDEST PUSH1 0x40 MLOAD DUP1 SWAP2 SUB SWAP1 RETURN JUMPDEST PUSH2 0x50D PUSH2 0x15A6 JUMP JUMPDEST PUSH1 0x40 MLOAD PUSH2 0x51A SWAP2 SWAP1 PUSH2 0x3511 JUMP JUMPDEST PUSH1 0x40 MLOAD DUP1 SWAP2 SUB SWAP1 RETURN JUMPDEST PUSH2 0x52B PUSH2 0x15AB JUMP JUMPDEST PUSH1 0x40 MLOAD PUSH2 0x538 SWAP2 SWAP1 PUSH2 0x33AB JUMP JUMPDEST PUSH1 0x40 MLOAD DUP1 SWAP2 SUB SWAP1 RETURN JUMPDEST PUSH2 0x55B PUSH1 0x4 DUP1 CALLDATASIZE SUB DUP2 ADD SWAP1 PUSH2 0x556 SWAP2 SWAP1 PUSH2 0x31BB JUMP JUMPDEST PUSH2 0x1639 JUMP JUMPDEST PUSH1 0x40 MLOAD PUSH2 0x568 SWAP2 SWAP1 PUSH2 0x33AB JUMP JUMPDEST PUSH1 0x40 MLOAD DUP1 SWAP2 SUB SWAP1 RETURN JUMPDEST PUSH2 0x579 PUSH2 0x1832 JUMP JUMPDEST PUSH1 0x40 MLOAD PUSH2 0x586 SWAP2 SWAP1 PUSH2 0x33AB JUMP JUMPDEST PUSH1 0x40 MLOAD DUP1 SWAP2 SUB SWAP1 RETURN JUMPDEST PUSH2 0x597 PUSH2 0x18C0 JUMP JUMPDEST PUSH1 0x40 MLOAD PUSH2 0x5A4 SWAP2 SWAP1 PUSH2 0x3511 JUMP JUMPDEST PUSH1 0x40 MLOAD DUP1 SWAP2 SUB SWAP1 RETURN JUMPDEST PUSH2 0x5B5 PUSH2 0x18C5 JUMP JUMPDEST PUSH1 0x40 MLOAD PUSH2 0x5C2 SWAP2 SWAP1 PUSH2 0x3375 JUMP JUMPDEST PUSH1 0x40 MLOAD DUP1 SWAP2 SUB SWAP1 RETURN JUMPDEST PUSH2 0x5D3 PUSH2 0x18EF JUMP JUMPDEST PUSH1 0x40 MLOAD PUSH2 0x5E0 SWAP2 SWAP1 PUSH2 0x3511 JUMP JUMPDEST PUSH1 0x40 MLOAD DUP1 SWAP2 SUB SWAP1 RETURN JUMPDEST PUSH2 0x5F1 PUSH2 0x18F4 JUMP JUMPDEST PUSH1 0x40 MLOAD PUSH2 0x5FE SWAP2 SWAP1 PUSH2 0x33AB JUMP JUMPDEST PUSH1 0x40 MLOAD DUP1 SWAP2 SUB SWAP1 RETURN JUMPDEST PUSH2 0x621 PUSH1 0x4 DUP1 CALLDATASIZE SUB DUP2 ADD SWAP1 PUSH2 0x61C SWAP2 SWAP1 PUSH2 0x3043 JUMP JUMPDEST PUSH2 0x1982 JUMP JUMPDEST PUSH1 0x40 MLOAD PUSH2 0x62E SWAP2 SWAP1 PUSH2 0x3390 JUMP JUMPDEST PUSH1 0x40 MLOAD DUP1 SWAP2 SUB SWAP1 RETURN JUMPDEST PUSH2 0x651 PUSH1 0x4 DUP1 CALLDATASIZE SUB DUP2 ADD SWAP1 PUSH2 0x64C SWAP2 SWAP1 PUSH2 0x3043 JUMP JUMPDEST PUSH2 0x1C00 JUMP JUMPDEST PUSH1 0x40 MLOAD PUSH2 0x65E SWAP2 SWAP1 PUSH2 0x3390 JUMP JUMPDEST PUSH1 0x40 MLOAD DUP1 SWAP2 SUB SWAP1 RETURN JUMPDEST PUSH2 0x681 PUSH1 0x4 DUP1 CALLDATASIZE SUB DUP2 ADD SWAP1 PUSH2 0x67C SWAP2 SWAP1 PUSH2 0x2F83 JUMP JUMPDEST PUSH2 0x1CE7 JUMP JUMPDEST PUSH1 0x40 MLOAD PUSH2 0x68F SWAP3 SWAP2 SWAP1 PUSH2 0x34E8 JUMP JUMPDEST PUSH1 0x40 MLOAD DUP1 SWAP2 SUB SWAP1 RETURN JUMPDEST PUSH2 0x6B2 PUSH1 0x4 DUP1 CALLDATASIZE SUB DUP2 ADD SWAP1 PUSH2 0x6AD SWAP2 SWAP1 PUSH2 0x3145 JUMP JUMPDEST PUSH2 0x1D72 JUMP JUMPDEST STOP JUMPDEST PUSH2 0x6CE PUSH1 0x4 DUP1 CALLDATASIZE SUB DUP2 ADD SWAP1 PUSH2 0x6C9 SWAP2 SWAP1 PUSH2 0x3145 JUMP JUMPDEST PUSH2 0x1E53 JUMP JUMPDEST STOP JUMPDEST PUSH2 0x6D8 PUSH2 0x1F34 JUMP JUMPDEST PUSH1 0x40 MLOAD PUSH2 0x6E5 SWAP2 SWAP1 PUSH2 0x3511 JUMP JUMPDEST PUSH1 0x40 MLOAD DUP1 SWAP2 SUB SWAP1 RETURN JUMPDEST PUSH2 0x6F6 PUSH2 0x1F39 JUMP JUMPDEST PUSH1 0x40 MLOAD PUSH2 0x703 SWAP2 SWAP1 PUSH2 0x33AB JUMP JUMPDEST PUSH1 0x40 MLOAD DUP1 SWAP2 SUB SWAP1 RETURN JUMPDEST PUSH2 0x726 PUSH1 0x4 DUP1 CALLDATASIZE SUB DUP2 ADD SWAP1 PUSH2 0x721 SWAP2 SWAP1 PUSH2 0x318E JUMP JUMPDEST PUSH2 0x1FC7 JUMP JUMPDEST STOP JUMPDEST PUSH2 0x730 PUSH2 0x2098 JUMP JUMPDEST PUSH1 0x40 MLOAD PUSH2 0x73D SWAP2 SWAP1 PUSH2 0x3511 JUMP JUMPDEST PUSH1 0x40 MLOAD DUP1 SWAP2 SUB SWAP1 RETURN JUMPDEST PUSH2 0x760 PUSH1 0x4 DUP1 CALLDATASIZE SUB DUP2 ADD SWAP1 PUSH2 0x75B SWAP2 SWAP1 PUSH2 0x2F83 JUMP JUMPDEST PUSH2 0x209D JUMP JUMPDEST STOP JUMPDEST PUSH2 0x77C PUSH1 0x4 DUP1 CALLDATASIZE SUB DUP2 ADD SWAP1 PUSH2 0x777 SWAP2 SWAP1 PUSH2 0x2FF0 JUMP JUMPDEST PUSH2 0x21BF JUMP JUMPDEST PUSH1 0x40 MLOAD PUSH2 0x789 SWAP2 SWAP1 PUSH2 0x3511 JUMP JUMPDEST PUSH1 0x40 MLOAD DUP1 SWAP2 SUB SWAP1 RETURN JUMPDEST PUSH2 0x7AC PUSH1 0x4 DUP1 CALLDATASIZE SUB DUP2 ADD SWAP1 PUSH2 0x7A7 SWAP2 SWAP1 PUSH2 0x2F83 JUMP JUMPDEST PUSH2 0x2507 JUMP JUMPDEST STOP JUMPDEST PUSH2 0x7C8 PUSH1 0x4 DUP1 CALLDATASIZE SUB DUP2 ADD SWAP1 PUSH2 0x7C3 SWAP2 SWAP1 PUSH2 0x2FB0 JUMP JUMPDEST PUSH2 0x2620 JUMP JUMPDEST PUSH1 0x40 MLOAD PUSH2 0x7D5 SWAP2 SWAP1 PUSH2 0x34CD JUMP JUMPDEST PUSH1 0x40 MLOAD DUP1 SWAP2 SUB SWAP1 RETURN JUMPDEST PUSH2 0x7E6 PUSH2 0x26A7 JUMP JUMPDEST PUSH1 0x40 MLOAD PUSH2 0x7F3 SWAP2 SWAP1 PUSH2 0x3511 JUMP JUMPDEST PUSH1 0x40 MLOAD DUP1 SWAP2 SUB SWAP1 RETURN JUMPDEST PUSH2 0x816 PUSH1 0x4 DUP1 CALLDATASIZE SUB DUP2 ADD SWAP1 PUSH2 0x811 SWAP2 SWAP1 PUSH2 0x2F83 JUMP JUMPDEST PUSH2 0x26AC JUMP JUMPDEST PUSH1 0x40 MLOAD PUSH2 0x823 SWAP2 SWAP1 PUSH2 0x3390 JUMP JUMPDEST PUSH1 0x40 MLOAD DUP1 SWAP2 SUB SWAP1 RETURN JUMPDEST PUSH2 0x846 PUSH1 0x4 DUP1 CALLDATASIZE SUB DUP2 ADD SWAP1 PUSH2 0x841 SWAP2 SWAP1 PUSH2 0x2F83 JUMP JUMPDEST PUSH2 0x2702 JUMP JUMPDEST STOP JUMPDEST PUSH2 0x850 PUSH2 0x2846 JUMP JUMPDEST PUSH1 0x40 MLOAD PUSH2 0x85D SWAP2 SWAP1 PUSH2 0x3511 JUMP JUMPDEST PUSH1 0x40 MLOAD DUP1 SWAP2 SUB SWAP1 RETURN JUMPDEST PUSH1 0xB DUP1 SLOAD PUSH2 0x873 SWAP1 PUSH2 0x36EB JUMP JUMPDEST DUP1 PUSH1 0x1F ADD PUSH1 0x20 DUP1 SWAP2 DIV MUL PUSH1 0x20 ADD PUSH1 0x40 MLOAD SWAP1 DUP2 ADD PUSH1 0x40 MSTORE DUP1 SWAP3 SWAP2 SWAP1 DUP2 DUP2 MSTORE PUSH1 0x20 ADD DUP3 DUP1 SLOAD PUSH2 0x89F SWAP1 PUSH2 0x36EB JUMP JUMPDEST DUP1 ISZERO PUSH2 0x8EC JUMPI DUP1 PUSH1 0x1F LT PUSH2 0x8C1 JUMPI PUSH2 0x100 DUP1 DUP4 SLOAD DIV MUL DUP4 MSTORE SWAP2 PUSH1 0x20 ADD SWAP2 PUSH2 0x8EC JUMP JUMPDEST DUP3 ADD SWAP2 SWAP1 PUSH1 0x0 MSTORE PUSH1 0x20 PUSH1 0x0 KECCAK256 SWAP1 JUMPDEST DUP2 SLOAD DUP2 MSTORE SWAP1 PUSH1 0x1 ADD SWAP1 PUSH1 0x20 ADD DUP1 DUP4 GT PUSH2 0x8CF JUMPI DUP3 SWAP1 SUB PUSH1 0x1F AND DUP3 ADD SWAP2 JUMPDEST POP POP POP POP POP DUP2 JUMP JUMPDEST PUSH1 0x0 DUP1 PUSH20 0xFFFFFFFFFFFFFFFFFFFFFFFFFFFFFFFFFFFFFFFF AND DUP4 PUSH20 0xFFFFFFFFFFFFFFFFFFFFFFFFFFFFFFFFFFFFFFFF AND EQ ISZERO PUSH2 0x965 JUMPI PUSH1 0x40 MLOAD PUSH32 0x8C379A000000000000000000000000000000000000000000000000000000000 DUP2 MSTORE PUSH1 0x4 ADD PUSH2 0x95C SWAP1 PUSH2 0x342D JUMP JUMPDEST PUSH1 0x40 MLOAD DUP1 SWAP2 SUB SWAP1 REVERT JUMPDEST PUSH1 0x0 DUP3 GT PUSH2 0x9A8 JUMPI PUSH1 0x40 MLOAD PUSH32 0x8C379A000000000000000000000000000000000000000000000000000000000 DUP2 MSTORE PUSH1 0x4 ADD PUSH2 0x99F SWAP1 PUSH2 0x33ED JUMP JUMPDEST PUSH1 0x40 MLOAD DUP1 SWAP2 SUB SWAP1 REVERT JUMPDEST DUP2 PUSH1 0x3 PUSH1 0x0 CALLER PUSH20 0xFFFFFFFFFFFFFFFFFFFFFFFFFFFFFFFFFFFFFFFF AND PUSH20 0xFFFFFFFFFFFFFFFFFFFFFFFFFFFFFFFFFFFFFFFF AND DUP2 MSTORE PUSH1 0x20 ADD SWAP1 DUP2 MSTORE PUSH1 0x20 ADD PUSH1 0x0 KECCAK256 PUSH1 0x0 DUP6 PUSH20 0xFFFFFFFFFFFFFFFFFFFFFFFFFFFFFFFFFFFFFFFF AND PUSH20 0xFFFFFFFFFFFFFFFFFFFFFFFFFFFFFFFFFFFFFFFF AND DUP2 MSTORE PUSH1 0x20 ADD SWAP1 DUP2 MSTORE PUSH1 0x20 ADD PUSH1 0x0 KECCAK256 DUP2 SWAP1 SSTORE POP DUP3 PUSH20 0xFFFFFFFFFFFFFFFFFFFFFFFFFFFFFFFFFFFFFFFF AND CALLER PUSH20 0xFFFFFFFFFFFFFFFFFFFFFFFFFFFFFFFFFFFFFFFF AND PUSH32 0x8C5BE1E5EBEC7D5BD14F71427D1E84F3DD0314C0F7B2291E5B200AC8C7C3B925 DUP5 PUSH1 0x40 MLOAD PUSH2 0xA86 SWAP2 SWAP1 PUSH2 0x34CD JUMP JUMPDEST PUSH1 0x40 MLOAD DUP1 SWAP2 SUB SWAP1 LOG3 PUSH1 0x1 SWAP1 POP SWAP3 SWAP2 POP POP JUMP JUMPDEST PUSH1 0x1 ISZERO ISZERO PUSH1 0x5 PUSH1 0x0 CALLER PUSH20 0xFFFFFFFFFFFFFFFFFFFFFFFFFFFFFFFFFFFFFFFF AND PUSH20 0xFFFFFFFFFFFFFFFFFFFFFFFFFFFFFFFFFFFFFFFF AND DUP2 MSTORE PUSH1 0x20 ADD SWAP1 DUP2 MSTORE PUSH1 0x20 ADD PUSH1 0x0 KECCAK256 PUSH1 0x0 SWAP1 SLOAD SWAP1 PUSH2 0x100 EXP SWAP1 DIV PUSH1 0xFF AND ISZERO ISZERO EQ PUSH2 0xB2B JUMPI PUSH1 0x40 MLOAD PUSH32 0x8C379A000000000000000000000000000000000000000000000000000000000 DUP2 MSTORE PUSH1 0x4 ADD PUSH2 0xB22 SWAP1 PUSH2 0x34AD JUMP JUMPDEST PUSH1 0x40 MLOAD DUP1 SWAP2 SUB SWAP1 REVERT JUMPDEST PUSH1 0x0 JUMPDEST DUP4 MLOAD DUP2 LT ISZERO PUSH2 0xB6F JUMPI PUSH2 0xB5C DUP5 DUP3 DUP2 MLOAD DUP2 LT PUSH2 0xB4D JUMPI PUSH2 0xB4C PUSH2 0x37F5 JUMP JUMPDEST JUMPDEST PUSH1 0x20 MUL PUSH1 0x20 ADD ADD MLOAD DUP5 DUP5 PUSH2 0x284B JUMP JUMPDEST DUP1 DUP1 PUSH2 0xB67 SWAP1 PUSH2 0x374E JUMP JUMPDEST SWAP2 POP POP PUSH2 0xB2E JUMP JUMPDEST POP POP POP POP JUMP JUMPDEST PUSH1 0x1 DUP2 JUMP JUMPDEST PUSH1 0x0 PUSH1 0xA SLOAD SWAP1 POP SWAP1 JUMP JUMPDEST PUSH1 0x0 DUP4 DUP4 DUP4 PUSH1 0x0 PUSH2 0xB96 DUP5 DUP5 DUP5 PUSH2 0x21BF JUMP JUMPDEST SWAP1 POP PUSH1 0x0 DUP2 PUSH1 0xFF AND EQ PUSH2 0xC52 JUMPI PUSH1 0x0 PUSH2 0xBAE DUP3 PUSH2 0x1639 JUMP JUMPDEST SWAP1 POP DUP4 PUSH20 0xFFFFFFFFFFFFFFFFFFFFFFFFFFFFFFFFFFFFFFFF AND DUP6 PUSH20 0xFFFFFFFFFFFFFFFFFFFFFFFFFFFFFFFFFFFFFFFF AND PUSH32 0x2FDD8C36DBE5614497208665E8D30C570421680D09984E3153829DDABD30C094 DUP4 PUSH1 0x40 MLOAD PUSH2 0xC0D SWAP2 SWAP1 PUSH2 0x33AB JUMP JUMPDEST PUSH1 0x40 MLOAD DUP1 SWAP2 SUB SWAP1 LOG3 DUP1 PUSH1 0x40 MLOAD PUSH32 0x8C379A000000000000000000000000000000000000000000000000000000000 DUP2 MSTORE PUSH1 0x4 ADD PUSH2 0xC49 SWAP2 SWAP1 PUSH2 0x33AB JUMP JUMPDEST PUSH1 0x40 MLOAD DUP1 SWAP2 SUB SWAP1 REVERT JUMPDEST DUP6 PUSH1 0x3 PUSH1 0x0 DUP11 PUSH20 0xFFFFFFFFFFFFFFFFFFFFFFFFFFFFFFFFFFFFFFFF AND PUSH20 0xFFFFFFFFFFFFFFFFFFFFFFFFFFFFFFFFFFFFFFFF AND DUP2 MSTORE PUSH1 0x20 ADD SWAP1 DUP2 MSTORE PUSH1 0x20 ADD PUSH1 0x0 KECCAK256 PUSH1 0x0 CALLER PUSH20 0xFFFFFFFFFFFFFFFFFFFFFFFFFFFFFFFFFFFFFFFF AND PUSH20 0xFFFFFFFFFFFFFFFFFFFFFFFFFFFFFFFFFFFFFFFF AND DUP2 MSTORE PUSH1 0x20 ADD SWAP1 DUP2 MSTORE PUSH1 0x20 ADD PUSH1 0x0 KECCAK256 SLOAD LT ISZERO PUSH2 0xD11 JUMPI PUSH1 0x40 MLOAD PUSH32 0x8C379A000000000000000000000000000000000000000000000000000000000 DUP2 MSTORE PUSH1 0x4 ADD PUSH2 0xD08 SWAP1 PUSH2 0x340D JUMP JUMPDEST PUSH1 0x40 MLOAD DUP1 SWAP2 SUB SWAP1 REVERT JUMPDEST PUSH2 0xD1C DUP9 DUP9 DUP9 PUSH2 0x2A1B JUMP JUMPDEST DUP6 PUSH1 0x3 PUSH1 0x0 DUP11 PUSH20 0xFFFFFFFFFFFFFFFFFFFFFFFFFFFFFFFFFFFFFFFF AND PUSH20 0xFFFFFFFFFFFFFFFFFFFFFFFFFFFFFFFFFFFFFFFF AND DUP2 MSTORE PUSH1 0x20 ADD SWAP1 DUP2 MSTORE PUSH1 0x20 ADD PUSH1 0x0 KECCAK256 PUSH1 0x0 CALLER PUSH20 0xFFFFFFFFFFFFFFFFFFFFFFFFFFFFFFFFFFFFFFFF AND PUSH20 0xFFFFFFFFFFFFFFFFFFFFFFFFFFFFFFFFFFFFFFFF AND DUP2 MSTORE PUSH1 0x20 ADD SWAP1 DUP2 MSTORE PUSH1 0x20 ADD PUSH1 0x0 KECCAK256 SLOAD PUSH2 0xDA4 SWAP2 SWAP1 PUSH2 0x3620 JUMP JUMPDEST PUSH1 0x3 PUSH1 0x0 DUP11 PUSH20 0xFFFFFFFFFFFFFFFFFFFFFFFFFFFFFFFFFFFFFFFF AND PUSH20 0xFFFFFFFFFFFFFFFFFFFFFFFFFFFFFFFFFFFFFFFF AND DUP2 MSTORE PUSH1 0x20 ADD SWAP1 DUP2 MSTORE PUSH1 0x20 ADD PUSH1 0x0 KECCAK256 PUSH1 0x0 CALLER PUSH20 0xFFFFFFFFFFFFFFFFFFFFFFFFFFFFFFFFFFFFFFFF AND PUSH20 0xFFFFFFFFFFFFFFFFFFFFFFFFFFFFFFFFFFFFFFFF AND DUP2 MSTORE PUSH1 0x20 ADD SWAP1 DUP2 MSTORE PUSH1 0x20 ADD PUSH1 0x0 KECCAK256 DUP2 SWAP1 SSTORE POP PUSH1 0x1 SWAP5 POP POP POP POP POP SWAP4 SWAP3 POP POP POP JUMP JUMPDEST PUSH1 0x1 ISZERO ISZERO PUSH1 0x5 PUSH1 0x0 CALLER PUSH20 0xFFFFFFFFFFFFFFFFFFFFFFFFFFFFFFFFFFFFFFFF AND PUSH20 0xFFFFFFFFFFFFFFFFFFFFFFFFFFFFFFFFFFFFFFFF AND DUP2 MSTORE PUSH1 0x20 ADD SWAP1 DUP2 MSTORE PUSH1 0x20 ADD PUSH1 0x0 KECCAK256 PUSH1 0x0 SWAP1 SLOAD SWAP1 PUSH2 0x100 EXP SWAP1 DIV PUSH1 0xFF AND ISZERO ISZERO EQ PUSH2 0xEC6 JUMPI PUSH1 0x40 MLOAD PUSH32 0x8C379A000000000000000000000000000000000000000000000000000000000 DUP2 MSTORE PUSH1 0x4 ADD PUSH2 0xEBD SWAP1 PUSH2 0x34AD JUMP JUMPDEST PUSH1 0x40 MLOAD DUP1 SWAP2 SUB SWAP1 REVERT JUMPDEST PUSH2 0xED1 DUP4 DUP4 DUP4 PUSH2 0x284B JUMP JUMPDEST POP POP POP JUMP JUMPDEST PUSH1 0x6 SLOAD DUP2 JUMP JUMPDEST PUSH1 0x0 CALLER PUSH20 0xFFFFFFFFFFFFFFFFFFFFFFFFFFFFFFFFFFFFFFFF AND PUSH1 0x4 PUSH1 0x0 SWAP1 SLOAD SWAP1 PUSH2 0x100 EXP SWAP1 DIV PUSH20 0xFFFFFFFFFFFFFFFFFFFFFFFFFFFFFFFFFFFFFFFF AND PUSH20 0xFFFFFFFFFFFFFFFFFFFFFFFFFFFFFFFFFFFFFFFF AND EQ PUSH2 0xF6E JUMPI PUSH1 0x40 MLOAD PUSH32 0x8C379A000000000000000000000000000000000000000000000000000000000 DUP2 MSTORE PUSH1 0x4 ADD PUSH2 0xF65 SWAP1 PUSH2 0x33CD JUMP JUMPDEST PUSH1 0x40 MLOAD DUP1 SWAP2 SUB SWAP1 REVERT JUMPDEST PUSH2 0xF9B DUP4 PUSH1 0x4 PUSH1 0x0 SWAP1 SLOAD SWAP1 PUSH2 0x100 EXP SWAP1 DIV PUSH20 0xFFFFFFFFFFFFFFFFFFFFFFFFFFFFFFFFFFFFFFFF AND DUP5 PUSH2 0x2A1B JUMP JUMPDEST PUSH1 0x1 SWAP1 POP SWAP3 SWAP2 POP POP JUMP JUMPDEST PUSH1 0x0 CALLER PUSH20 0xFFFFFFFFFFFFFFFFFFFFFFFFFFFFFFFFFFFFFFFF AND PUSH1 0x4 PUSH1 0x0 SWAP1 SLOAD SWAP1 PUSH2 0x100 EXP SWAP1 DIV PUSH20 0xFFFFFFFFFFFFFFFFFFFFFFFFFFFFFFFFFFFFFFFF AND PUSH20 0xFFFFFFFFFFFFFFFFFFFFFFFFFFFFFFFFFFFFFFFF AND EQ PUSH2 0x1037 JUMPI PUSH1 0x40 MLOAD PUSH32 0x8C379A000000000000000000000000000000000000000000000000000000000 DUP2 MSTORE PUSH1 0x4 ADD PUSH2 0x102E SWAP1 PUSH2 0x33CD JUMP JUMPDEST PUSH1 0x40 MLOAD DUP1 SWAP2 SUB SWAP1 REVERT JUMPDEST PUSH1 0x0 PUSH20 0xFFFFFFFFFFFFFFFFFFFFFFFFFFFFFFFFFFFFFFFF AND DUP4 PUSH20 0xFFFFFFFFFFFFFFFFFFFFFFFFFFFFFFFFFFFFFFFF AND EQ ISZERO PUSH2 0x10A7 JUMPI PUSH1 0x40 MLOAD PUSH32 0x8C379A000000000000000000000000000000000000000000000000000000000 DUP2 MSTORE PUSH1 0x4 ADD PUSH2 0x109E SWAP1 PUSH2 0x342D JUMP JUMPDEST PUSH1 0x40 MLOAD DUP1 SWAP2 SUB SWAP1 REVERT JUMPDEST DUP2 PUSH1 0xA SLOAD PUSH2 0x10B5 SWAP2 SWAP1 PUSH2 0x35CA JUMP JUMPDEST PUSH1 0xA DUP2 SWAP1 SSTORE POP DUP2 PUSH1 0x2 PUSH1 0x0 DUP6 PUSH20 0xFFFFFFFFFFFFFFFFFFFFFFFFFFFFFFFFFFFFFFFF AND PUSH20 0xFFFFFFFFFFFFFFFFFFFFFFFFFFFFFFFFFFFFFFFF AND DUP2 MSTORE PUSH1 0x20 ADD SWAP1 DUP2 MSTORE PUSH1 0x20 ADD PUSH1 0x0 KECCAK256 SLOAD PUSH2 0x1106 SWAP2 SWAP1 PUSH2 0x35CA JUMP JUMPDEST PUSH1 0x2 PUSH1 0x0 DUP6 PUSH20 0xFFFFFFFFFFFFFFFFFFFFFFFFFFFFFFFFFFFFFFFF AND PUSH20 0xFFFFFFFFFFFFFFFFFFFFFFFFFFFFFFFFFFFFFFFF AND DUP2 MSTORE PUSH1 0x20 ADD SWAP1 DUP2 MSTORE PUSH1 0x20 ADD PUSH1 0x0 KECCAK256 DUP2 SWAP1 SSTORE POP DUP3 PUSH20 0xFFFFFFFFFFFFFFFFFFFFFFFFFFFFFFFFFFFFFFFF AND PUSH32 0x7B47457F3AF09E5F794B020FD74160963A808F5985883496A096D403D380C343 DUP4 PUSH1 0x40 MLOAD PUSH2 0x118F SWAP2 SWAP1 PUSH2 0x34CD JUMP JUMPDEST PUSH1 0x40 MLOAD DUP1 SWAP2 SUB SWAP1 LOG2 PUSH1 0x1 SWAP1 POP SWAP3 SWAP2 POP POP JUMP JUMPDEST PUSH1 0x10 SLOAD DUP2 JUMP JUMPDEST CALLER PUSH20 0xFFFFFFFFFFFFFFFFFFFFFFFFFFFFFFFFFFFFFFFF AND PUSH1 0x4 PUSH1 0x0 SWAP1 SLOAD SWAP1 PUSH2 0x100 EXP SWAP1 DIV PUSH20 0xFFFFFFFFFFFFFFFFFFFFFFFFFFFFFFFFFFFFFFFF AND PUSH20 0xFFFFFFFFFFFFFFFFFFFFFFFFFFFFFFFFFFFFFFFF AND EQ PUSH2 0x1237 JUMPI PUSH1 0x40 MLOAD PUSH32 0x8C379A000000000000000000000000000000000000000000000000000000000 DUP2 MSTORE PUSH1 0x4 ADD PUSH2 0x122E SWAP1 PUSH2 0x33CD JUMP JUMPDEST PUSH1 0x40 MLOAD DUP1 SWAP2 SUB SWAP1 REVERT JUMPDEST DUP1 PUSH1 0xF SWAP1 DUP1 MLOAD SWAP1 PUSH1 0x20 ADD SWAP1 PUSH2 0x124D SWAP3 SWAP2 SWAP1 PUSH2 0x2D93 JUMP JUMPDEST POP PUSH32 0xA555E96A9F6D83B18CBE170E5FD71EBB56FC55F86A115539E9F3038182075A50 DUP2 PUSH1 0x40 MLOAD PUSH2 0x127D SWAP2 SWAP1 PUSH2 0x33AB JUMP JUMPDEST PUSH1 0x40 MLOAD DUP1 SWAP2 SUB SWAP1 LOG1 POP JUMP JUMPDEST PUSH1 0x7 DUP1 SLOAD PUSH2 0x1295 SWAP1 PUSH2 0x36EB JUMP JUMPDEST DUP1 PUSH1 0x1F ADD PUSH1 0x20 DUP1 SWAP2 DIV MUL PUSH1 0x20 ADD PUSH1 0x40 MLOAD SWAP1 DUP2 ADD PUSH1 0x40 MSTORE DUP1 SWAP3 SWAP2 SWAP1 DUP2 DUP2 MSTORE PUSH1 0x20 ADD DUP3 DUP1 SLOAD PUSH2 0x12C1 SWAP1 PUSH2 0x36EB JUMP JUMPDEST DUP1 ISZERO PUSH2 0x130E JUMPI DUP1 PUSH1 0x1F LT PUSH2 0x12E3 JUMPI PUSH2 0x100 DUP1 DUP4 SLOAD DIV MUL DUP4 MSTORE SWAP2 PUSH1 0x20 ADD SWAP2 PUSH2 0x130E JUMP JUMPDEST DUP3 ADD SWAP2 SWAP1 PUSH1 0x0 MSTORE PUSH1 0x20 PUSH1 0x0 KECCAK256 SWAP1 JUMPDEST DUP2 SLOAD DUP2 MSTORE SWAP1 PUSH1 0x1 ADD SWAP1 PUSH1 0x20 ADD DUP1 DUP4 GT PUSH2 0x12F1 JUMPI DUP3 SWAP1 SUB PUSH1 0x1F AND DUP3 ADD SWAP2 JUMPDEST POP POP POP POP POP DUP2 JUMP JUMPDEST PUSH1 0xD DUP1 SLOAD PUSH2 0x1323 SWAP1 PUSH2 0x36EB JUMP JUMPDEST DUP1 PUSH1 0x1F ADD PUSH1 0x20 DUP1 SWAP2 DIV MUL PUSH1 0x20 ADD PUSH1 0x40 MLOAD SWAP1 DUP2 ADD PUSH1 0x40 MSTORE DUP1 SWAP3 SWAP2 SWAP1 DUP2 DUP2 MSTORE PUSH1 0x20 ADD DUP3 DUP1 SLOAD PUSH2 0x134F SWAP1 PUSH2 0x36EB JUMP JUMPDEST DUP1 ISZERO PUSH2 0x139C JUMPI DUP1 PUSH1 0x1F LT PUSH2 0x1371 JUMPI PUSH2 0x100 DUP1 DUP4 SLOAD DIV MUL DUP4 MSTORE SWAP2 PUSH1 0x20 ADD SWAP2 PUSH2 0x139C JUMP JUMPDEST DUP3 ADD SWAP2 SWAP1 PUSH1 0x0 MSTORE PUSH1 0x20 PUSH1 0x0 KECCAK256 SWAP1 JUMPDEST DUP2 SLOAD DUP2 MSTORE SWAP1 PUSH1 0x1 ADD SWAP1 PUSH1 0x20 ADD DUP1 DUP4 GT PUSH2 0x137F JUMPI DUP3 SWAP1 SUB PUSH1 0x1F AND DUP3 ADD SWAP2 JUMPDEST POP POP POP POP POP DUP2 JUMP JUMPDEST CALLER PUSH20 0xFFFFFFFFFFFFFFFFFFFFFFFFFFFFFFFFFFFFFFFF AND PUSH1 0x4 PUSH1 0x0 SWAP1 SLOAD SWAP1 PUSH2 0x100 EXP SWAP1 DIV PUSH20 0xFFFFFFFFFFFFFFFFFFFFFFFFFFFFFFFFFFFFFFFF AND PUSH20 0xFFFFFFFFFFFFFFFFFFFFFFFFFFFFFFFFFFFFFFFF AND EQ PUSH2 0x1434 JUMPI PUSH1 0x40 MLOAD PUSH32 0x8C379A000000000000000000000000000000000000000000000000000000000 DUP2 MSTORE PUSH1 0x4 ADD PUSH2 0x142B SWAP1 PUSH2 0x33CD JUMP JUMPDEST PUSH1 0x40 MLOAD DUP1 SWAP2 SUB SWAP1 REVERT JUMPDEST PUSH1 0x0 DUP2 EQ PUSH2 0x1482 JUMPI PUSH1 0x10 SLOAD DUP2 LT ISZERO PUSH2 0x1481 JUMPI PUSH1 0x40 MLOAD PUSH32 0x8C379A000000000000000000000000000000000000000000000000000000000 DUP2 MSTORE PUSH1 0x4 ADD PUSH2 0x1478 SWAP1 PUSH2 0x348D JUMP JUMPDEST PUSH1 0x40 MLOAD DUP1 SWAP2 SUB SWAP1 REVERT JUMPDEST JUMPDEST DUP1 PUSH1 0x11 DUP2 SWAP1 SSTORE POP PUSH32 0x87782743094654FC1484EF46E968ABC30C6CD880E70EC8B310EB42641E35EB45 DUP2 PUSH1 0x40 MLOAD PUSH2 0x14B8 SWAP2 SWAP1 PUSH2 0x34CD JUMP JUMPDEST PUSH1 0x40 MLOAD DUP1 SWAP2 SUB SWAP1 LOG1 POP JUMP JUMPDEST PUSH1 0x12 SLOAD DUP2 JUMP JUMPDEST PUSH1 0x11 SLOAD DUP2 JUMP JUMPDEST PUSH1 0x8 DUP1 SLOAD PUSH2 0x14DC SWAP1 PUSH2 0x36EB JUMP JUMPDEST DUP1 PUSH1 0x1F ADD PUSH1 0x20 DUP1 SWAP2 DIV MUL PUSH1 0x20 ADD PUSH1 0x40 MLOAD SWAP1 DUP2 ADD PUSH1 0x40 MSTORE DUP1 SWAP3 SWAP2 SWAP1 DUP2 DUP2 MSTORE PUSH1 0x20 ADD DUP3 DUP1 SLOAD PUSH2 0x1508 SWAP1 PUSH2 0x36EB JUMP JUMPDEST DUP1 ISZERO PUSH2 0x1555 JUMPI DUP1 PUSH1 0x1F LT PUSH2 0x152A JUMPI PUSH2 0x100 DUP1 DUP4 SLOAD DIV MUL DUP4 MSTORE SWAP2 PUSH1 0x20 ADD SWAP2 PUSH2 0x1555 JUMP JUMPDEST DUP3 ADD SWAP2 SWAP1 PUSH1 0x0 MSTORE PUSH1 0x20 PUSH1 0x0 KECCAK256 SWAP1 JUMPDEST DUP2 SLOAD DUP2 MSTORE SWAP1 PUSH1 0x1 ADD SWAP1 PUSH1 0x20 ADD DUP1 DUP4 GT PUSH2 0x1538 JUMPI DUP3 SWAP1 SUB PUSH1 0x1F AND DUP3 ADD SWAP2 JUMPDEST POP POP POP POP POP DUP2 JUMP JUMPDEST PUSH1 0x0 PUSH1 0x2 PUSH1 0x0 DUP4 PUSH20 0xFFFFFFFFFFFFFFFFFFFFFFFFFFFFFFFFFFFFFFFF AND PUSH20 0xFFFFFFFFFFFFFFFFFFFFFFFFFFFFFFFFFFFFFFFF AND DUP2 MSTORE PUSH1 0x20 ADD SWAP1 DUP2 MSTORE PUSH1 0x20 ADD PUSH1 0x0 KECCAK256 SLOAD SWAP1 POP SWAP2 SWAP1 POP JUMP JUMPDEST PUSH1 0x0 DUP2 JUMP JUMPDEST PUSH1 0x9 DUP1 SLOAD PUSH2 0x15B8 SWAP1 PUSH2 0x36EB JUMP JUMPDEST DUP1 PUSH1 0x1F ADD PUSH1 0x20 DUP1 SWAP2 DIV MUL PUSH1 0x20 ADD PUSH1 0x40 MLOAD SWAP1 DUP2 ADD PUSH1 0x40 MSTORE DUP1 SWAP3 SWAP2 SWAP1 DUP2 DUP2 MSTORE PUSH1 0x20 ADD DUP3 DUP1 SLOAD PUSH2 0x15E4 SWAP1 PUSH2 0x36EB JUMP JUMPDEST DUP1 ISZERO PUSH2 0x1631 JUMPI DUP1 PUSH1 0x1F LT PUSH2 0x1606 JUMPI PUSH2 0x100 DUP1 DUP4 SLOAD DIV MUL DUP4 MSTORE SWAP2 PUSH1 0x20 ADD SWAP2 PUSH2 0x1631 JUMP JUMPDEST DUP3 ADD SWAP2 SWAP1 PUSH1 0x0 MSTORE PUSH1 0x20 PUSH1 0x0 KECCAK256 SWAP1 JUMPDEST DUP2 SLOAD DUP2 MSTORE SWAP1 PUSH1 0x1 ADD SWAP1 PUSH1 0x20 ADD DUP1 DUP4 GT PUSH2 0x1614 JUMPI DUP3 SWAP1 SUB PUSH1 0x1F AND DUP3 ADD SWAP2 JUMPDEST POP POP POP POP POP DUP2 JUMP JUMPDEST PUSH1 0x60 PUSH1 0x0 PUSH1 0xFF AND DUP3 PUSH1 0xFF AND EQ ISZERO PUSH2 0x1687 JUMPI PUSH1 0x40 MLOAD DUP1 PUSH1 0x40 ADD PUSH1 0x40 MSTORE DUP1 PUSH1 0x1E DUP2 MSTORE PUSH1 0x20 ADD PUSH32 0x4E6F207472616E73666572207265737472696374696F6E7320666F756E640000 DUP2 MSTORE POP SWAP1 POP PUSH2 0x182D JUMP JUMPDEST PUSH1 0x1 PUSH1 0xFF AND DUP3 PUSH1 0xFF AND EQ ISZERO PUSH2 0x16B6 JUMPI PUSH1 0x40 MLOAD DUP1 PUSH1 0x80 ADD PUSH1 0x40 MSTORE DUP1 PUSH1 0x57 DUP2 MSTORE PUSH1 0x20 ADD PUSH2 0x3AA3 PUSH1 0x57 SWAP2 CODECOPY SWAP1 POP PUSH2 0x182C JUMP JUMPDEST PUSH1 0x2 PUSH1 0xFF AND DUP3 PUSH1 0xFF AND EQ ISZERO PUSH2 0x16E5 JUMPI PUSH1 0x40 MLOAD DUP1 PUSH1 0x80 ADD PUSH1 0x40 MSTORE DUP1 PUSH1 0x44 DUP2 MSTORE PUSH1 0x20 ADD PUSH2 0x3B62 PUSH1 0x44 SWAP2 CODECOPY SWAP1 POP PUSH2 0x182B JUMP JUMPDEST PUSH1 0x3 PUSH1 0xFF AND DUP3 PUSH1 0xFF AND EQ ISZERO PUSH2 0x1731 JUMPI PUSH1 0x40 MLOAD DUP1 PUSH1 0x40 ADD PUSH1 0x40 MSTORE DUP1 PUSH1 0x20 DUP2 MSTORE PUSH1 0x20 ADD PUSH32 0x5A65726F207472616E7366657220616D6F756E74206E6F7420616C6C6F776564 DUP2 MSTORE POP SWAP1 POP PUSH2 0x182A JUMP JUMPDEST PUSH1 0x4 PUSH1 0xFF AND DUP3 PUSH1 0xFF AND EQ ISZERO PUSH2 0x1760 JUMPI PUSH1 0x40 MLOAD DUP1 PUSH1 0x60 ADD PUSH1 0x40 MSTORE DUP1 PUSH1 0x24 DUP2 MSTORE PUSH1 0x20 ADD PUSH2 0x3C0C PUSH1 0x24 SWAP2 CODECOPY SWAP1 POP PUSH2 0x1829 JUMP JUMPDEST PUSH1 0x5 PUSH1 0xFF AND DUP3 PUSH1 0xFF AND EQ ISZERO PUSH2 0x178F JUMPI PUSH1 0x40 MLOAD DUP1 PUSH1 0x60 ADD PUSH1 0x40 MSTORE DUP1 PUSH1 0x26 DUP2 MSTORE PUSH1 0x20 ADD PUSH2 0x3A7D PUSH1 0x26 SWAP2 CODECOPY SWAP1 POP PUSH2 0x1828 JUMP JUMPDEST PUSH1 0x6 PUSH1 0xFF AND DUP3 PUSH1 0xFF AND EQ ISZERO PUSH2 0x17BE JUMPI PUSH1 0x40 MLOAD DUP1 PUSH1 0xA0 ADD PUSH1 0x40 MSTORE DUP1 PUSH1 0x68 DUP2 MSTORE PUSH1 0x20 ADD PUSH2 0x3AFA PUSH1 0x68 SWAP2 CODECOPY SWAP1 POP PUSH2 0x1827 JUMP JUMPDEST PUSH1 0x7 PUSH1 0xFF AND DUP3 PUSH1 0xFF AND EQ ISZERO PUSH2 0x17ED JUMPI PUSH1 0x40 MLOAD DUP1 PUSH1 0xA0 ADD PUSH1 0x40 MSTORE DUP1 PUSH1 0x66 DUP2 MSTORE PUSH1 0x20 ADD PUSH2 0x3BA6 PUSH1 0x66 SWAP2 CODECOPY SWAP1 POP PUSH2 0x1826 JUMP JUMPDEST PUSH1 0x40 MLOAD DUP1 PUSH1 0x40 ADD PUSH1 0x40 MSTORE DUP1 PUSH1 0x19 DUP2 MSTORE PUSH1 0x20 ADD PUSH32 0x4572726F7220636F6465206973206E6F7420646566696E656400000000000000 DUP2 MSTORE POP SWAP1 POP JUMPDEST JUMPDEST JUMPDEST JUMPDEST JUMPDEST JUMPDEST JUMPDEST JUMPDEST SWAP2 SWAP1 POP JUMP JUMPDEST PUSH1 0xE DUP1 SLOAD PUSH2 0x183F SWAP1 PUSH2 0x36EB JUMP JUMPDEST DUP1 PUSH1 0x1F ADD PUSH1 0x20 DUP1 SWAP2 DIV MUL PUSH1 0x20 ADD PUSH1 0x40 MLOAD SWAP1 DUP2 ADD PUSH1 0x40 MSTORE DUP1 SWAP3 SWAP2 SWAP1 DUP2 DUP2 MSTORE PUSH1 0x20 ADD DUP3 DUP1 SLOAD PUSH2 0x186B SWAP1 PUSH2 0x36EB JUMP JUMPDEST DUP1 ISZERO PUSH2 0x18B8 JUMPI DUP1 PUSH1 0x1F LT PUSH2 0x188D JUMPI PUSH2 0x100 DUP1 DUP4 SLOAD DIV MUL DUP4 MSTORE SWAP2 PUSH1 0x20 ADD SWAP2 PUSH2 0x18B8 JUMP JUMPDEST DUP3 ADD SWAP2 SWAP1 PUSH1 0x0 MSTORE PUSH1 0x20 PUSH1 0x0 KECCAK256 SWAP1 JUMPDEST DUP2 SLOAD DUP2 MSTORE SWAP1 PUSH1 0x1 ADD SWAP1 PUSH1 0x20 ADD DUP1 DUP4 GT PUSH2 0x189B JUMPI DUP3 SWAP1 SUB PUSH1 0x1F AND DUP3 ADD SWAP2 JUMPDEST POP POP POP POP POP DUP2 JUMP JUMPDEST PUSH1 0x4 DUP2 JUMP JUMPDEST PUSH1 0x0 PUSH1 0x4 PUSH1 0x0 SWAP1 SLOAD SWAP1 PUSH2 0x100 EXP SWAP1 DIV PUSH20 0xFFFFFFFFFFFFFFFFFFFFFFFFFFFFFFFFFFFFFFFF AND SWAP1 POP SWAP1 JUMP JUMPDEST PUSH1 0x2 DUP2 JUMP JUMPDEST PUSH1 0xC DUP1 SLOAD PUSH2 0x1901 SWAP1 PUSH2 0x36EB JUMP JUMPDEST DUP1 PUSH1 0x1F ADD PUSH1 0x20 DUP1 SWAP2 DIV MUL PUSH1 0x20 ADD PUSH1 0x40 MLOAD SWAP1 DUP2 ADD PUSH1 0x40 MSTORE DUP1 SWAP3 SWAP2 SWAP1 DUP2 DUP2 MSTORE PUSH1 0x20 ADD DUP3 DUP1 SLOAD PUSH2 0x192D SWAP1 PUSH2 0x36EB JUMP JUMPDEST DUP1 ISZERO PUSH2 0x197A JUMPI DUP1 PUSH1 0x1F LT PUSH2 0x194F JUMPI PUSH2 0x100 DUP1 DUP4 SLOAD DIV MUL DUP4 MSTORE SWAP2 PUSH1 0x20 ADD SWAP2 PUSH2 0x197A JUMP JUMPDEST DUP3 ADD SWAP2 SWAP1 PUSH1 0x0 MSTORE PUSH1 0x20 PUSH1 0x0 KECCAK256 SWAP1 JUMPDEST DUP2 SLOAD DUP2 MSTORE SWAP1 PUSH1 0x1 ADD SWAP1 PUSH1 0x20 ADD DUP1 DUP4 GT PUSH2 0x195D JUMPI DUP3 SWAP1 SUB PUSH1 0x1F AND DUP3 ADD SWAP2 JUMPDEST POP POP POP POP POP DUP2 JUMP JUMPDEST PUSH1 0x0 CALLER PUSH20 0xFFFFFFFFFFFFFFFFFFFFFFFFFFFFFFFFFFFFFFFF AND PUSH1 0x4 PUSH1 0x0 SWAP1 SLOAD SWAP1 PUSH2 0x100 EXP SWAP1 DIV PUSH20 0xFFFFFFFFFFFFFFFFFFFFFFFFFFFFFFFFFFFFFFFF AND PUSH20 0xFFFFFFFFFFFFFFFFFFFFFFFFFFFFFFFFFFFFFFFF AND EQ PUSH2 0x1A14 JUMPI PUSH1 0x40 MLOAD PUSH32 0x8C379A000000000000000000000000000000000000000000000000000000000 DUP2 MSTORE PUSH1 0x4 ADD PUSH2 0x1A0B SWAP1 PUSH2 0x33CD JUMP JUMPDEST PUSH1 0x40 MLOAD DUP1 SWAP2 SUB SWAP1 REVERT JUMPDEST PUSH1 0x0 PUSH20 0xFFFFFFFFFFFFFFFFFFFFFFFFFFFFFFFFFFFFFFFF AND DUP4 PUSH20 0xFFFFFFFFFFFFFFFFFFFFFFFFFFFFFFFFFFFFFFFF AND EQ ISZERO PUSH2 0x1A84 JUMPI PUSH1 0x40 MLOAD PUSH32 0x8C379A000000000000000000000000000000000000000000000000000000000 DUP2 MSTORE PUSH1 0x4 ADD PUSH2 0x1A7B SWAP1 PUSH2 0x342D JUMP JUMPDEST PUSH1 0x40 MLOAD DUP1 SWAP2 SUB SWAP1 REVERT JUMPDEST DUP2 PUSH1 0x2 PUSH1 0x0 DUP6 PUSH20 0xFFFFFFFFFFFFFFFFFFFFFFFFFFFFFFFFFFFFFFFF AND PUSH20 0xFFFFFFFFFFFFFFFFFFFFFFFFFFFFFFFFFFFFFFFF AND DUP2 MSTORE PUSH1 0x20 ADD SWAP1 DUP2 MSTORE PUSH1 0x20 ADD PUSH1 0x0 KECCAK256 SLOAD LT ISZERO PUSH2 0x1B06 JUMPI PUSH1 0x40 MLOAD PUSH32 0x8C379A000000000000000000000000000000000000000000000000000000000 DUP2 MSTORE PUSH1 0x4 ADD PUSH2 0x1AFD SWAP1 PUSH2 0x346D JUMP JUMPDEST PUSH1 0x40 MLOAD DUP1 SWAP2 SUB SWAP1 REVERT JUMPDEST DUP2 PUSH1 0xA SLOAD PUSH2 0x1B14 SWAP2 SWAP1 PUSH2 0x3620 JUMP JUMPDEST PUSH1 0xA DUP2 SWAP1 SSTORE POP DUP2 PUSH1 0x2 PUSH1 0x0 DUP6 PUSH20 0xFFFFFFFFFFFFFFFFFFFFFFFFFFFFFFFFFFFFFFFF AND PUSH20 0xFFFFFFFFFFFFFFFFFFFFFFFFFFFFFFFFFFFFFFFF AND DUP2 MSTORE PUSH1 0x20 ADD SWAP1 DUP2 MSTORE PUSH1 0x20 ADD PUSH1 0x0 KECCAK256 SLOAD PUSH2 0x1B65 SWAP2 SWAP1 PUSH2 0x3620 JUMP JUMPDEST PUSH1 0x2 PUSH1 0x0 DUP6 PUSH20 0xFFFFFFFFFFFFFFFFFFFFFFFFFFFFFFFFFFFFFFFF AND PUSH20 0xFFFFFFFFFFFFFFFFFFFFFFFFFFFFFFFFFFFFFFFF AND DUP2 MSTORE PUSH1 0x20 ADD SWAP1 DUP2 MSTORE PUSH1 0x20 ADD PUSH1 0x0 KECCAK256 DUP2 SWAP1 SSTORE POP DUP3 PUSH20 0xFFFFFFFFFFFFFFFFFFFFFFFFFFFFFFFFFFFFFFFF AND PUSH32 0x388D6102A0230861B4E9646FB5ACDA1C5EC15D39DF2B619D39C25D16A1268490 DUP4 PUSH1 0x40 MLOAD PUSH2 0x1BEE SWAP2 SWAP1 PUSH2 0x34CD JUMP JUMPDEST PUSH1 0x40 MLOAD DUP1 SWAP2 SUB SWAP1 LOG2 PUSH1 0x1 SWAP1 POP SWAP3 SWAP2 POP POP JUMP JUMPDEST PUSH1 0x0 CALLER DUP4 DUP4 PUSH1 0x0 PUSH2 0x1C12 DUP5 DUP5 DUP5 PUSH2 0x21BF JUMP JUMPDEST SWAP1 POP PUSH1 0x0 DUP2 PUSH1 0xFF AND EQ PUSH2 0x1CCE JUMPI PUSH1 0x0 PUSH2 0x1C2A DUP3 PUSH2 0x1639 JUMP JUMPDEST SWAP1 POP DUP4 PUSH20 0xFFFFFFFFFFFFFFFFFFFFFFFFFFFFFFFFFFFFFFFF AND DUP6 PUSH20 0xFFFFFFFFFFFFFFFFFFFFFFFFFFFFFFFFFFFFFFFF AND PUSH32 0x2FDD8C36DBE5614497208665E8D30C570421680D09984E3153829DDABD30C094 DUP4 PUSH1 0x40 MLOAD PUSH2 0x1C89 SWAP2 SWAP1 PUSH2 0x33AB JUMP JUMPDEST PUSH1 0x40 MLOAD DUP1 SWAP2 SUB SWAP1 LOG3 DUP1 PUSH1 0x40 MLOAD PUSH32 0x8C379A000000000000000000000000000000000000000000000000000000000 DUP2 MSTORE PUSH1 0x4 ADD PUSH2 0x1CC5 SWAP2 SWAP1 PUSH2 0x33AB JUMP JUMPDEST PUSH1 0x40 MLOAD DUP1 SWAP2 SUB SWAP1 REVERT JUMPDEST PUSH2 0x1CD9 CALLER DUP9 DUP9 PUSH2 0x2A1B JUMP JUMPDEST PUSH1 0x1 SWAP5 POP POP POP POP POP SWAP3 SWAP2 POP POP JUMP JUMPDEST PUSH1 0x0 DUP1 PUSH1 0x0 DUP1 DUP5 PUSH20 0xFFFFFFFFFFFFFFFFFFFFFFFFFFFFFFFFFFFFFFFF AND PUSH20 0xFFFFFFFFFFFFFFFFFFFFFFFFFFFFFFFFFFFFFFFF AND DUP2 MSTORE PUSH1 0x20 ADD SWAP1 DUP2 MSTORE PUSH1 0x20 ADD PUSH1 0x0 KECCAK256 SLOAD PUSH1 0x1 PUSH1 0x0 DUP6 PUSH20 0xFFFFFFFFFFFFFFFFFFFFFFFFFFFFFFFFFFFFFFFF AND PUSH20 0xFFFFFFFFFFFFFFFFFFFFFFFFFFFFFFFFFFFFFFFF AND DUP2 MSTORE PUSH1 0x20 ADD SWAP1 DUP2 MSTORE PUSH1 0x20 ADD PUSH1 0x0 KECCAK256 SLOAD SWAP2 POP SWAP2 POP SWAP2 POP SWAP2 JUMP JUMPDEST CALLER PUSH20 0xFFFFFFFFFFFFFFFFFFFFFFFFFFFFFFFFFFFFFFFF AND PUSH1 0x4 PUSH1 0x0 SWAP1 SLOAD SWAP1 PUSH2 0x100 EXP SWAP1 DIV PUSH20 0xFFFFFFFFFFFFFFFFFFFFFFFFFFFFFFFFFFFFFFFF AND PUSH20 0xFFFFFFFFFFFFFFFFFFFFFFFFFFFFFFFFFFFFFFFF AND EQ PUSH2 0x1E02 JUMPI PUSH1 0x40 MLOAD PUSH32 0x8C379A000000000000000000000000000000000000000000000000000000000 DUP2 MSTORE PUSH1 0x4 ADD PUSH2 0x1DF9 SWAP1 PUSH2 0x33CD JUMP JUMPDEST PUSH1 0x40 MLOAD DUP1 SWAP2 SUB SWAP1 REVERT JUMPDEST DUP1 PUSH1 0xE SWAP1 DUP1 MLOAD SWAP1 PUSH1 0x20 ADD SWAP1 PUSH2 0x1E18 SWAP3 SWAP2 SWAP1 PUSH2 0x2D93 JUMP JUMPDEST POP PUSH32 0x824A3F3055C070014BC7157744915537C646AE1A287C988D79EC124D88938E94 DUP2 PUSH1 0x40 MLOAD PUSH2 0x1E48 SWAP2 SWAP1 PUSH2 0x33AB JUMP JUMPDEST PUSH1 0x40 MLOAD DUP1 SWAP2 SUB SWAP1 LOG1 POP JUMP JUMPDEST CALLER PUSH20 0xFFFFFFFFFFFFFFFFFFFFFFFFFFFFFFFFFFFFFFFF AND PUSH1 0x4 PUSH1 0x0 SWAP1 SLOAD SWAP1 PUSH2 0x100 EXP SWAP1 DIV PUSH20 0xFFFFFFFFFFFFFFFFFFFFFFFFFFFFFFFFFFFFFFFF AND PUSH20 0xFFFFFFFFFFFFFFFFFFFFFFFFFFFFFFFFFFFFFFFF AND EQ PUSH2 0x1EE3 JUMPI PUSH1 0x40 MLOAD PUSH32 0x8C379A000000000000000000000000000000000000000000000000000000000 DUP2 MSTORE PUSH1 0x4 ADD PUSH2 0x1EDA SWAP1 PUSH2 0x33CD JUMP JUMPDEST PUSH1 0x40 MLOAD DUP1 SWAP2 SUB SWAP1 REVERT JUMPDEST DUP1 PUSH1 0xD SWAP1 DUP1 MLOAD SWAP1 PUSH1 0x20 ADD SWAP1 PUSH2 0x1EF9 SWAP3 SWAP2 SWAP1 PUSH2 0x2D93 JUMP JUMPDEST POP PUSH32 0x4295968313E92C7DD40AA9C85BE9B7246FF59503751E11205C85795A2F74FDB3 DUP2 PUSH1 0x40 MLOAD PUSH2 0x1F29 SWAP2 SWAP1 PUSH2 0x33AB JUMP JUMPDEST PUSH1 0x40 MLOAD DUP1 SWAP2 SUB SWAP1 LOG1 POP JUMP JUMPDEST PUSH1 0x3 DUP2 JUMP JUMPDEST PUSH1 0xF DUP1 SLOAD PUSH2 0x1F46 SWAP1 PUSH2 0x36EB JUMP JUMPDEST DUP1 PUSH1 0x1F ADD PUSH1 0x20 DUP1 SWAP2 DIV MUL PUSH1 0x20 ADD PUSH1 0x40 MLOAD SWAP1 DUP2 ADD PUSH1 0x40 MSTORE DUP1 SWAP3 SWAP2 SWAP1 DUP2 DUP2 MSTORE PUSH1 0x20 ADD DUP3 DUP1 SLOAD PUSH2 0x1F72 SWAP1 PUSH2 0x36EB JUMP JUMPDEST DUP1 ISZERO PUSH2 0x1FBF JUMPI DUP1 PUSH1 0x1F LT PUSH2 0x1F94 JUMPI PUSH2 0x100 DUP1 DUP4 SLOAD DIV MUL DUP4 MSTORE SWAP2 PUSH1 0x20 ADD SWAP2 PUSH2 0x1FBF JUMP JUMPDEST DUP3 ADD SWAP2 SWAP1 PUSH1 0x0 MSTORE PUSH1 0x20 PUSH1 0x0 KECCAK256 SWAP1 JUMPDEST DUP2 SLOAD DUP2 MSTORE SWAP1 PUSH1 0x1 ADD SWAP1 PUSH1 0x20 ADD DUP1 DUP4 GT PUSH2 0x1FA2 JUMPI DUP3 SWAP1 SUB PUSH1 0x1F AND DUP3 ADD SWAP2 JUMPDEST POP POP POP POP POP DUP2 JUMP JUMPDEST CALLER PUSH20 0xFFFFFFFFFFFFFFFFFFFFFFFFFFFFFFFFFFFFFFFF AND PUSH1 0x4 PUSH1 0x0 SWAP1 SLOAD SWAP1 PUSH2 0x100 EXP SWAP1 DIV PUSH20 0xFFFFFFFFFFFFFFFFFFFFFFFFFFFFFFFFFFFFFFFF AND PUSH20 0xFFFFFFFFFFFFFFFFFFFFFFFFFFFFFFFFFFFFFFFF AND EQ PUSH2 0x2057 JUMPI PUSH1 0x40 MLOAD PUSH32 0x8C379A000000000000000000000000000000000000000000000000000000000 DUP2 MSTORE PUSH1 0x4 ADD PUSH2 0x204E SWAP1 PUSH2 0x33CD JUMP JUMPDEST PUSH1 0x40 MLOAD DUP1 SWAP2 SUB SWAP1 REVERT JUMPDEST DUP1 PUSH1 0x12 DUP2 SWAP1 SSTORE POP PUSH32 0x50293E6952EAB2F7CF401DE4A51C1918DA86A2BD5A7276A11AE3DD4A549CDE9 DUP2 PUSH1 0x40 MLOAD PUSH2 0x208D SWAP2 SWAP1 PUSH2 0x34CD JUMP JUMPDEST PUSH1 0x40 MLOAD DUP1 SWAP2 SUB SWAP1 LOG1 POP JUMP JUMPDEST PUSH1 0x6 DUP2 JUMP JUMPDEST CALLER PUSH20 0xFFFFFFFFFFFFFFFFFFFFFFFFFFFFFFFFFFFFFFFF AND PUSH1 0x4 PUSH1 0x0 SWAP1 SLOAD SWAP1 PUSH2 0x100 EXP SWAP1 DIV PUSH20 0xFFFFFFFFFFFFFFFFFFFFFFFFFFFFFFFFFFFFFFFF AND PUSH20 0xFFFFFFFFFFFFFFFFFFFFFFFFFFFFFFFFFFFFFFFF AND EQ PUSH2 0x212D JUMPI PUSH1 0x40 MLOAD PUSH32 0x8C379A000000000000000000000000000000000000000000000000000000000 DUP2 MSTORE PUSH1 0x4 ADD PUSH2 0x2124 SWAP1 PUSH2 0x33CD JUMP JUMPDEST PUSH1 0x40 MLOAD DUP1 SWAP2 SUB SWAP1 REVERT JUMPDEST PUSH1 0x1 PUSH1 0x5 PUSH1 0x0 DUP4 PUSH20 0xFFFFFFFFFFFFFFFFFFFFFFFFFFFFFFFFFFFFFFFF AND PUSH20 0xFFFFFFFFFFFFFFFFFFFFFFFFFFFFFFFFFFFFFFFF AND DUP2 MSTORE PUSH1 0x20 ADD SWAP1 DUP2 MSTORE PUSH1 0x20 ADD PUSH1 0x0 KECCAK256 PUSH1 0x0 PUSH2 0x100 EXP DUP2 SLOAD DUP2 PUSH1 0xFF MUL NOT AND SWAP1 DUP4 ISZERO ISZERO MUL OR SWAP1 SSTORE POP PUSH32 0xEA54BDB8A4594AAAC063E3B01AB3E613BF4CB045D085502C81497C9696ACA8B2 DUP2 PUSH1 0x40 MLOAD PUSH2 0x21B4 SWAP2 SWAP1 PUSH2 0x3375 JUMP JUMPDEST PUSH1 0x40 MLOAD DUP1 SWAP2 SUB SWAP1 LOG1 POP JUMP JUMPDEST PUSH1 0x0 PUSH1 0x12 SLOAD TIMESTAMP LT DUP1 ISZERO PUSH2 0x2220 JUMPI POP PUSH1 0x4 PUSH1 0x0 SWAP1 SLOAD SWAP1 PUSH2 0x100 EXP SWAP1 DIV PUSH20 0xFFFFFFFFFFFFFFFFFFFFFFFFFFFFFFFFFFFFFFFF AND PUSH20 0xFFFFFFFFFFFFFFFFFFFFFFFFFFFFFFFFFFFFFFFF AND DUP5 PUSH20 0xFFFFFFFFFFFFFFFFFFFFFFFFFFFFFFFFFFFFFFFF AND EQ ISZERO JUMPDEST ISZERO PUSH2 0x222E JUMPI PUSH1 0x2 SWAP1 POP PUSH2 0x2500 JUMP JUMPDEST PUSH1 0x0 DUP3 GT PUSH2 0x223F JUMPI PUSH1 0x3 SWAP1 POP PUSH2 0x2500 JUMP JUMPDEST PUSH1 0x0 PUSH1 0x1 PUSH1 0x0 DUP7 PUSH20 0xFFFFFFFFFFFFFFFFFFFFFFFFFFFFFFFFFFFFFFFF AND PUSH20 0xFFFFFFFFFFFFFFFFFFFFFFFFFFFFFFFFFFFFFFFF AND DUP2 MSTORE PUSH1 0x20 ADD SWAP1 DUP2 MSTORE PUSH1 0x20 ADD PUSH1 0x0 KECCAK256 SLOAD EQ ISZERO PUSH2 0x2290 JUMPI PUSH1 0x4 SWAP1 POP PUSH2 0x2500 JUMP JUMPDEST PUSH1 0x0 DUP1 PUSH1 0x0 DUP6 PUSH20 0xFFFFFFFFFFFFFFFFFFFFFFFFFFFFFFFFFFFFFFFF AND PUSH20 0xFFFFFFFFFFFFFFFFFFFFFFFFFFFFFFFFFFFFFFFF AND DUP2 MSTORE PUSH1 0x20 ADD SWAP1 DUP2 MSTORE PUSH1 0x20 ADD PUSH1 0x0 KECCAK256 SLOAD EQ ISZERO PUSH2 0x22E0 JUMPI PUSH1 0x5 SWAP1 POP PUSH2 0x2500 JUMP JUMPDEST TIMESTAMP PUSH1 0x1 PUSH1 0x0 DUP7 PUSH20 0xFFFFFFFFFFFFFFFFFFFFFFFFFFFFFFFFFFFFFFFF AND PUSH20 0xFFFFFFFFFFFFFFFFFFFFFFFFFFFFFFFFFFFFFFFF AND DUP2 MSTORE PUSH1 0x20 ADD SWAP1 DUP2 MSTORE PUSH1 0x20 ADD PUSH1 0x0 KECCAK256 SLOAD GT ISZERO PUSH2 0x2330 JUMPI PUSH1 0x6 SWAP1 POP PUSH2 0x2500 JUMP JUMPDEST TIMESTAMP PUSH1 0x0 DUP1 DUP6 PUSH20 0xFFFFFFFFFFFFFFFFFFFFFFFFFFFFFFFFFFFFFFFF AND PUSH20 0xFFFFFFFFFFFFFFFFFFFFFFFFFFFFFFFFFFFFFFFF AND DUP2 MSTORE PUSH1 0x20 ADD SWAP1 DUP2 MSTORE PUSH1 0x20 ADD PUSH1 0x0 KECCAK256 SLOAD GT ISZERO PUSH2 0x237F JUMPI PUSH1 0x7 SWAP1 POP PUSH2 0x2500 JUMP JUMPDEST PUSH1 0x0 PUSH1 0x11 SLOAD EQ ISZERO PUSH2 0x2393 JUMPI PUSH1 0x0 SWAP1 POP PUSH2 0x2500 JUMP JUMPDEST PUSH1 0x0 PUSH1 0x2 PUSH1 0x0 DUP6 PUSH20 0xFFFFFFFFFFFFFFFFFFFFFFFFFFFFFFFFFFFFFFFF AND PUSH20 0xFFFFFFFFFFFFFFFFFFFFFFFFFFFFFFFFFFFFFFFF AND DUP2 MSTORE PUSH1 0x20 ADD SWAP1 DUP2 MSTORE PUSH1 0x20 ADD PUSH1 0x0 KECCAK256 SLOAD GT DUP1 PUSH2 0x242E JUMPI POP PUSH1 0x4 PUSH1 0x0 SWAP1 SLOAD SWAP1 PUSH2 0x100 EXP SWAP1 DIV PUSH20 0xFFFFFFFFFFFFFFFFFFFFFFFFFFFFFFFFFFFFFFFF AND PUSH20 0xFFFFFFFFFFFFFFFFFFFFFFFFFFFFFFFFFFFFFFFF AND DUP4 PUSH20 0xFFFFFFFFFFFFFFFFFFFFFFFFFFFFFFFFFFFFFFFF AND EQ JUMPDEST ISZERO PUSH2 0x243C JUMPI PUSH1 0x0 SWAP1 POP PUSH2 0x2500 JUMP JUMPDEST PUSH1 0x11 SLOAD PUSH1 0x10 SLOAD LT ISZERO PUSH2 0x2451 JUMPI PUSH1 0x0 SWAP1 POP PUSH2 0x2500 JUMP JUMPDEST DUP2 PUSH1 0x2 PUSH1 0x0 DUP7 PUSH20 0xFFFFFFFFFFFFFFFFFFFFFFFFFFFFFFFFFFFFFFFF AND PUSH20 0xFFFFFFFFFFFFFFFFFFFFFFFFFFFFFFFFFFFFFFFF AND DUP2 MSTORE PUSH1 0x20 ADD SWAP1 DUP2 MSTORE PUSH1 0x20 ADD PUSH1 0x0 KECCAK256 SLOAD EQ DUP1 ISZERO PUSH2 0x24ED JUMPI POP PUSH1 0x4 PUSH1 0x0 SWAP1 SLOAD SWAP1 PUSH2 0x100 EXP SWAP1 DIV PUSH20 0xFFFFFFFFFFFFFFFFFFFFFFFFFFFFFFFFFFFFFFFF AND PUSH20 0xFFFFFFFFFFFFFFFFFFFFFFFFFFFFFFFFFFFFFFFF AND DUP5 PUSH20 0xFFFFFFFFFFFFFFFFFFFFFFFFFFFFFFFFFFFFFFFF AND EQ ISZERO JUMPDEST ISZERO PUSH2 0x24FB JUMPI PUSH1 0x0 SWAP1 POP PUSH2 0x2500 JUMP JUMPDEST PUSH1 0x1 SWAP1 POP JUMPDEST SWAP4 SWAP3 POP POP POP JUMP JUMPDEST CALLER PUSH20 0xFFFFFFFFFFFFFFFFFFFFFFFFFFFFFFFFFFFFFFFF AND PUSH1 0x4 PUSH1 0x0 SWAP1 SLOAD SWAP1 PUSH2 0x100 EXP SWAP1 DIV PUSH20 0xFFFFFFFFFFFFFFFFFFFFFFFFFFFFFFFFFFFFFFFF AND PUSH20 0xFFFFFFFFFFFFFFFFFFFFFFFFFFFFFFFFFFFFFFFF AND EQ PUSH2 0x2597 JUMPI PUSH1 0x40 MLOAD PUSH32 0x8C379A000000000000000000000000000000000000000000000000000000000 DUP2 MSTORE PUSH1 0x4 ADD PUSH2 0x258E SWAP1 PUSH2 0x33CD JUMP JUMPDEST PUSH1 0x40 MLOAD DUP1 SWAP2 SUB SWAP1 REVERT JUMPDEST PUSH1 0x5 PUSH1 0x0 DUP3 PUSH20 0xFFFFFFFFFFFFFFFFFFFFFFFFFFFFFFFFFFFFFFFF AND PUSH20 0xFFFFFFFFFFFFFFFFFFFFFFFFFFFFFFFFFFFFFFFF AND DUP2 MSTORE PUSH1 0x20 ADD SWAP1 DUP2 MSTORE PUSH1 0x20 ADD PUSH1 0x0 KECCAK256 PUSH1 0x0 PUSH2 0x100 EXP DUP2 SLOAD SWAP1 PUSH1 0xFF MUL NOT AND SWAP1 SSTORE PUSH32 0x24546DC0F5DF685D7C979EDD1B0BCC4D85AC6A59974976D7217C9F0D930D3FF0 DUP2 PUSH1 0x40 MLOAD PUSH2 0x2615 SWAP2 SWAP1 PUSH2 0x3375 JUMP JUMPDEST PUSH1 0x40 MLOAD DUP1 SWAP2 SUB SWAP1 LOG1 POP JUMP JUMPDEST PUSH1 0x0 PUSH1 0x3 PUSH1 0x0 DUP5 PUSH20 0xFFFFFFFFFFFFFFFFFFFFFFFFFFFFFFFFFFFFFFFF AND PUSH20 0xFFFFFFFFFFFFFFFFFFFFFFFFFFFFFFFFFFFFFFFF AND DUP2 MSTORE PUSH1 0x20 ADD SWAP1 DUP2 MSTORE PUSH1 0x20 ADD PUSH1 0x0 KECCAK256 PUSH1 0x0 DUP4 PUSH20 0xFFFFFFFFFFFFFFFFFFFFFFFFFFFFFFFFFFFFFFFF AND PUSH20 0xFFFFFFFFFFFFFFFFFFFFFFFFFFFFFFFFFFFFFFFF AND DUP2 MSTORE PUSH1 0x20 ADD SWAP1 DUP2 MSTORE PUSH1 0x20 ADD PUSH1 0x0 KECCAK256 SLOAD SWAP1 POP SWAP3 SWAP2 POP POP JUMP JUMPDEST PUSH1 0x7 DUP2 JUMP JUMPDEST PUSH1 0x0 PUSH1 0x5 PUSH1 0x0 DUP4 PUSH20 0xFFFFFFFFFFFFFFFFFFFFFFFFFFFFFFFFFFFFFFFF AND PUSH20 0xFFFFFFFFFFFFFFFFFFFFFFFFFFFFFFFFFFFFFFFF AND DUP2 MSTORE PUSH1 0x20 ADD SWAP1 DUP2 MSTORE PUSH1 0x20 ADD PUSH1 0x0 KECCAK256 PUSH1 0x0 SWAP1 SLOAD SWAP1 PUSH2 0x100 EXP SWAP1 DIV PUSH1 0xFF AND SWAP1 POP SWAP2 SWAP1 POP JUMP JUMPDEST CALLER PUSH20 0xFFFFFFFFFFFFFFFFFFFFFFFFFFFFFFFFFFFFFFFF AND PUSH1 0x4 PUSH1 0x0 SWAP1 SLOAD SWAP1 PUSH2 0x100 EXP SWAP1 DIV PUSH20 0xFFFFFFFFFFFFFFFFFFFFFFFFFFFFFFFFFFFFFFFF AND PUSH20 0xFFFFFFFFFFFFFFFFFFFFFFFFFFFFFFFFFFFFFFFF AND EQ PUSH2 0x2792 JUMPI PUSH1 0x40 MLOAD PUSH32 0x8C379A000000000000000000000000000000000000000000000000000000000 DUP2 MSTORE PUSH1 0x4 ADD PUSH2 0x2789 SWAP1 PUSH2 0x33CD JUMP JUMPDEST PUSH1 0x40 MLOAD DUP1 SWAP2 SUB SWAP1 REVERT JUMPDEST PUSH1 0x0 PUSH20 0xFFFFFFFFFFFFFFFFFFFFFFFFFFFFFFFFFFFFFFFF AND DUP2 PUSH20 0xFFFFFFFFFFFFFFFFFFFFFFFFFFFFFFFFFFFFFFFF AND EQ ISZERO PUSH2 0x2802 JUMPI PUSH1 0x40 MLOAD PUSH32 0x8C379A000000000000000000000000000000000000000000000000000000000 DUP2 MSTORE PUSH1 0x4 ADD PUSH2 0x27F9 SWAP1 PUSH2 0x342D JUMP JUMPDEST PUSH1 0x40 MLOAD DUP1 SWAP2 SUB SWAP1 REVERT JUMPDEST DUP1 PUSH1 0x4 PUSH1 0x0 PUSH2 0x100 EXP DUP2 SLOAD DUP2 PUSH20 0xFFFFFFFFFFFFFFFFFFFFFFFFFFFFFFFFFFFFFFFF MUL NOT AND SWAP1 DUP4 PUSH20 0xFFFFFFFFFFFFFFFFFFFFFFFFFFFFFFFFFFFFFFFF AND MUL OR SWAP1 SSTORE POP POP JUMP JUMPDEST PUSH1 0x5 DUP2 JUMP JUMPDEST PUSH1 0x0 DUP1 PUSH1 0x0 DUP6 PUSH20 0xFFFFFFFFFFFFFFFFFFFFFFFFFFFFFFFFFFFFFFFF AND PUSH20 0xFFFFFFFFFFFFFFFFFFFFFFFFFFFFFFFFFFFFFFFF AND DUP2 MSTORE PUSH1 0x20 ADD SWAP1 DUP2 MSTORE PUSH1 0x20 ADD PUSH1 0x0 KECCAK256 SLOAD SWAP1 POP PUSH1 0x0 PUSH1 0x1 PUSH1 0x0 DUP7 PUSH20 0xFFFFFFFFFFFFFFFFFFFFFFFFFFFFFFFFFFFFFFFF AND PUSH20 0xFFFFFFFFFFFFFFFFFFFFFFFFFFFFFFFFFFFFFFFF AND DUP2 MSTORE PUSH1 0x20 ADD SWAP1 DUP2 MSTORE PUSH1 0x20 ADD PUSH1 0x0 KECCAK256 SLOAD SWAP1 POP DUP4 PUSH1 0x0 DUP1 DUP8 PUSH20 0xFFFFFFFFFFFFFFFFFFFFFFFFFFFFFFFFFFFFFFFF AND PUSH20 0xFFFFFFFFFFFFFFFFFFFFFFFFFFFFFFFFFFFFFFFF AND DUP2 MSTORE PUSH1 0x20 ADD SWAP1 DUP2 MSTORE PUSH1 0x20 ADD PUSH1 0x0 KECCAK256 DUP2 SWAP1 SSTORE POP DUP3 PUSH1 0x1 PUSH1 0x0 DUP8 PUSH20 0xFFFFFFFFFFFFFFFFFFFFFFFFFFFFFFFFFFFFFFFF AND PUSH20 0xFFFFFFFFFFFFFFFFFFFFFFFFFFFFFFFFFFFFFFFF AND DUP2 MSTORE PUSH1 0x20 ADD SWAP1 DUP2 MSTORE PUSH1 0x20 ADD PUSH1 0x0 KECCAK256 DUP2 SWAP1 SSTORE POP PUSH1 0x0 DUP3 EQ DUP1 ISZERO PUSH2 0x2969 JUMPI POP PUSH1 0x0 DUP2 EQ JUMPDEST ISZERO PUSH2 0x29C3 JUMPI DUP5 PUSH20 0xFFFFFFFFFFFFFFFFFFFFFFFFFFFFFFFFFFFFFFFF AND PUSH32 0xC78EE1DE8EB00C83BAA5F9BF324F00DD286B754A3826292DE51C92C3E7A0CAB5 DUP6 DUP6 PUSH1 0x40 MLOAD PUSH2 0x29B6 SWAP3 SWAP2 SWAP1 PUSH2 0x34E8 JUMP JUMPDEST PUSH1 0x40 MLOAD DUP1 SWAP2 SUB SWAP1 LOG2 PUSH2 0x2A14 JUMP JUMPDEST DUP5 PUSH20 0xFFFFFFFFFFFFFFFFFFFFFFFFFFFFFFFFFFFFFFFF AND PUSH32 0x50FC162609DB30A736355688F8F60BAAB2991BEBB40A6D50ED93371A95493616 DUP6 DUP6 PUSH1 0x40 MLOAD PUSH2 0x2A0B SWAP3 SWAP2 SWAP1 PUSH2 0x34E8 JUMP JUMPDEST PUSH1 0x40 MLOAD DUP1 SWAP2 SUB SWAP1 LOG2 JUMPDEST POP POP POP POP POP JUMP JUMPDEST DUP1 PUSH1 0x2 PUSH1 0x0 DUP6 PUSH20 0xFFFFFFFFFFFFFFFFFFFFFFFFFFFFFFFFFFFFFFFF AND PUSH20 0xFFFFFFFFFFFFFFFFFFFFFFFFFFFFFFFFFFFFFFFF AND DUP2 MSTORE PUSH1 0x20 ADD SWAP1 DUP2 MSTORE PUSH1 0x20 ADD PUSH1 0x0 KECCAK256 SLOAD LT ISZERO PUSH2 0x2A9D JUMPI PUSH1 0x40 MLOAD PUSH32 0x8C379A000000000000000000000000000000000000000000000000000000000 DUP2 MSTORE PUSH1 0x4 ADD PUSH2 0x2A94 SWAP1 PUSH2 0x344D JUMP JUMPDEST PUSH1 0x40 MLOAD DUP1 SWAP2 SUB SWAP1 REVERT JUMPDEST DUP1 PUSH1 0x2 PUSH1 0x0 DUP6 PUSH20 0xFFFFFFFFFFFFFFFFFFFFFFFFFFFFFFFFFFFFFFFF AND PUSH20 0xFFFFFFFFFFFFFFFFFFFFFFFFFFFFFFFFFFFFFFFF AND DUP2 MSTORE PUSH1 0x20 ADD SWAP1 DUP2 MSTORE PUSH1 0x20 ADD PUSH1 0x0 KECCAK256 SLOAD PUSH2 0x2AE8 SWAP2 SWAP1 PUSH2 0x3620 JUMP JUMPDEST PUSH1 0x2 PUSH1 0x0 DUP6 PUSH20 0xFFFFFFFFFFFFFFFFFFFFFFFFFFFFFFFFFFFFFFFF AND PUSH20 0xFFFFFFFFFFFFFFFFFFFFFFFFFFFFFFFFFFFFFFFF AND DUP2 MSTORE PUSH1 0x20 ADD SWAP1 DUP2 MSTORE PUSH1 0x20 ADD PUSH1 0x0 KECCAK256 DUP2 SWAP1 SSTORE POP PUSH1 0x0 PUSH1 0x2 PUSH1 0x0 DUP6 PUSH20 0xFFFFFFFFFFFFFFFFFFFFFFFFFFFFFFFFFFFFFFFF AND PUSH20 0xFFFFFFFFFFFFFFFFFFFFFFFFFFFFFFFFFFFFFFFF AND DUP2 MSTORE PUSH1 0x20 ADD SWAP1 DUP2 MSTORE PUSH1 0x20 ADD PUSH1 0x0 KECCAK256 SLOAD EQ DUP1 ISZERO PUSH2 0x2BC8 JUMPI POP PUSH1 0x4 PUSH1 0x0 SWAP1 SLOAD SWAP1 PUSH2 0x100 EXP SWAP1 DIV PUSH20 0xFFFFFFFFFFFFFFFFFFFFFFFFFFFFFFFFFFFFFFFF AND PUSH20 0xFFFFFFFFFFFFFFFFFFFFFFFFFFFFFFFFFFFFFFFF AND DUP4 PUSH20 0xFFFFFFFFFFFFFFFFFFFFFFFFFFFFFFFFFFFFFFFF AND EQ ISZERO JUMPDEST ISZERO PUSH2 0x2BE3 JUMPI PUSH1 0x1 PUSH1 0x10 SLOAD PUSH2 0x2BDC SWAP2 SWAP1 PUSH2 0x3620 JUMP JUMPDEST PUSH1 0x10 DUP2 SWAP1 SSTORE POP JUMPDEST PUSH1 0x0 PUSH1 0x2 PUSH1 0x0 DUP5 PUSH20 0xFFFFFFFFFFFFFFFFFFFFFFFFFFFFFFFFFFFFFFFF AND PUSH20 0xFFFFFFFFFFFFFFFFFFFFFFFFFFFFFFFFFFFFFFFF AND DUP2 MSTORE PUSH1 0x20 ADD SWAP1 DUP2 MSTORE PUSH1 0x20 ADD PUSH1 0x0 KECCAK256 SLOAD EQ DUP1 ISZERO PUSH2 0x2C80 JUMPI POP PUSH1 0x4 PUSH1 0x0 SWAP1 SLOAD SWAP1 PUSH2 0x100 EXP SWAP1 DIV PUSH20 0xFFFFFFFFFFFFFFFFFFFFFFFFFFFFFFFFFFFFFFFF AND PUSH20 0xFFFFFFFFFFFFFFFFFFFFFFFFFFFFFFFFFFFFFFFF AND DUP3 PUSH20 0xFFFFFFFFFFFFFFFFFFFFFFFFFFFFFFFFFFFFFFFF AND EQ ISZERO JUMPDEST ISZERO PUSH2 0x2C9B JUMPI PUSH1 0x1 PUSH1 0x10 SLOAD PUSH2 0x2C94 SWAP2 SWAP1 PUSH2 0x35CA JUMP JUMPDEST PUSH1 0x10 DUP2 SWAP1 SSTORE POP JUMPDEST DUP1 PUSH1 0x2 PUSH1 0x0 DUP5 PUSH20 0xFFFFFFFFFFFFFFFFFFFFFFFFFFFFFFFFFFFFFFFF AND PUSH20 0xFFFFFFFFFFFFFFFFFFFFFFFFFFFFFFFFFFFFFFFF AND DUP2 MSTORE PUSH1 0x20 ADD SWAP1 DUP2 MSTORE PUSH1 0x20 ADD PUSH1 0x0 KECCAK256 SLOAD PUSH2 0x2CE6 SWAP2 SWAP1 PUSH2 0x35CA JUMP JUMPDEST PUSH1 0x2 PUSH1 0x0 DUP5 PUSH20 0xFFFFFFFFFFFFFFFFFFFFFFFFFFFFFFFFFFFFFFFF AND PUSH20 0xFFFFFFFFFFFFFFFFFFFFFFFFFFFFFFFFFFFFFFFF AND DUP2 MSTORE PUSH1 0x20 ADD SWAP1 DUP2 MSTORE PUSH1 0x20 ADD PUSH1 0x0 KECCAK256 DUP2 SWAP1 SSTORE POP DUP2 PUSH20 0xFFFFFFFFFFFFFFFFFFFFFFFFFFFFFFFFFFFFFFFF AND DUP4 PUSH20 0xFFFFFFFFFFFFFFFFFFFFFFFFFFFFFFFFFFFFFFFF AND PUSH32 0xDDF252AD1BE2C89B69C2B068FC378DAA952BA7F163C4A11628F55A4DF523B3EF DUP4 PUSH1 0x40 MLOAD PUSH2 0x2D86 SWAP2 SWAP1 PUSH2 0x34CD JUMP JUMPDEST PUSH1 0x40 MLOAD DUP1 SWAP2 SUB SWAP1 LOG3 POP POP POP JUMP JUMPDEST DUP3 DUP1 SLOAD PUSH2 0x2D9F SWAP1 PUSH2 0x36EB JUMP JUMPDEST SWAP1 PUSH1 0x0 MSTORE PUSH1 0x20 PUSH1 0x0 KECCAK256 SWAP1 PUSH1 0x1F ADD PUSH1 0x20 SWAP1 DIV DUP2 ADD SWAP3 DUP3 PUSH2 0x2DC1 JUMPI PUSH1 0x0 DUP6 SSTORE PUSH2 0x2E08 JUMP JUMPDEST DUP3 PUSH1 0x1F LT PUSH2 0x2DDA JUMPI DUP1 MLOAD PUSH1 0xFF NOT AND DUP4 DUP1 ADD OR DUP6 SSTORE PUSH2 0x2E08 JUMP JUMPDEST DUP3 DUP1 ADD PUSH1 0x1 ADD DUP6 SSTORE DUP3 ISZERO PUSH2 0x2E08 JUMPI SWAP2 DUP3 ADD JUMPDEST DUP3 DUP2 GT ISZERO PUSH2 0x2E07 JUMPI DUP3 MLOAD DUP3 SSTORE SWAP2 PUSH1 0x20 ADD SWAP2 SWAP1 PUSH1 0x1 ADD SWAP1 PUSH2 0x2DEC JUMP JUMPDEST JUMPDEST POP SWAP1 POP PUSH2 0x2E15 SWAP2 SWAP1 PUSH2 0x2E19 JUMP JUMPDEST POP SWAP1 JUMP JUMPDEST JUMPDEST DUP1 DUP3 GT ISZERO PUSH2 0x2E32 JUMPI PUSH1 0x0 DUP2 PUSH1 0x0 SWAP1 SSTORE POP PUSH1 0x1 ADD PUSH2 0x2E1A JUMP JUMPDEST POP SWAP1 JUMP JUMPDEST PUSH1 0x0 PUSH2 0x2E49 PUSH2 0x2E44 DUP5 PUSH2 0x3551 JUMP JUMPDEST PUSH2 0x352C JUMP JUMPDEST SWAP1 POP DUP1 DUP4 DUP3 MSTORE PUSH1 0x20 DUP3 ADD SWAP1 POP DUP3 DUP6 PUSH1 0x20 DUP7 MUL DUP3 ADD GT ISZERO PUSH2 0x2E6C JUMPI PUSH2 0x2E6B PUSH2 0x3858 JUMP JUMPDEST JUMPDEST PUSH1 0x0 JUMPDEST DUP6 DUP2 LT ISZERO PUSH2 0x2E9C JUMPI DUP2 PUSH2 0x2E82 DUP9 DUP3 PUSH2 0x2EE8 JUMP JUMPDEST DUP5 MSTORE PUSH1 0x20 DUP5 ADD SWAP4 POP PUSH1 0x20 DUP4 ADD SWAP3 POP POP PUSH1 0x1 DUP2 ADD SWAP1 POP PUSH2 0x2E6F JUMP JUMPDEST POP POP POP SWAP4 SWAP3 POP POP POP JUMP JUMPDEST PUSH1 0x0 PUSH2 0x2EB9 PUSH2 0x2EB4 DUP5 PUSH2 0x357D JUMP JUMPDEST PUSH2 0x352C JUMP JUMPDEST SWAP1 POP DUP3 DUP2 MSTORE PUSH1 0x20 DUP2 ADD DUP5 DUP5 DUP5 ADD GT ISZERO PUSH2 0x2ED5 JUMPI PUSH2 0x2ED4 PUSH2 0x385D JUMP JUMPDEST JUMPDEST PUSH2 0x2EE0 DUP5 DUP3 DUP6 PUSH2 0x36A9 JUMP JUMPDEST POP SWAP4 SWAP3 POP POP POP JUMP JUMPDEST PUSH1 0x0 DUP2 CALLDATALOAD SWAP1 POP PUSH2 0x2EF7 DUP2 PUSH2 0x3A37 JUMP JUMPDEST SWAP3 SWAP2 POP POP JUMP JUMPDEST PUSH1 0x0 DUP3 PUSH1 0x1F DUP4 ADD SLT PUSH2 0x2F12 JUMPI PUSH2 0x2F11 PUSH2 0x3853 JUMP JUMPDEST JUMPDEST DUP2 CALLDATALOAD PUSH2 0x2F22 DUP5 DUP3 PUSH1 0x20 DUP7 ADD PUSH2 0x2E36 JUMP JUMPDEST SWAP2 POP POP SWAP3 SWAP2 POP POP JUMP JUMPDEST PUSH1 0x0 DUP3 PUSH1 0x1F DUP4 ADD SLT PUSH2 0x2F40 JUMPI PUSH2 0x2F3F PUSH2 0x3853 JUMP JUMPDEST JUMPDEST DUP2 CALLDATALOAD PUSH2 0x2F50 DUP5 DUP3 PUSH1 0x20 DUP7 ADD PUSH2 0x2EA6 JUMP JUMPDEST SWAP2 POP POP SWAP3 SWAP2 POP POP JUMP JUMPDEST PUSH1 0x0 DUP2 CALLDATALOAD SWAP1 POP PUSH2 0x2F68 DUP2 PUSH2 0x3A4E JUMP JUMPDEST SWAP3 SWAP2 POP POP JUMP JUMPDEST PUSH1 0x0 DUP2 CALLDATALOAD SWAP1 POP PUSH2 0x2F7D DUP2 PUSH2 0x3A65 JUMP JUMPDEST SWAP3 SWAP2 POP POP JUMP JUMPDEST PUSH1 0x0 PUSH1 0x20 DUP3 DUP5 SUB SLT ISZERO PUSH2 0x2F99 JUMPI PUSH2 0x2F98 PUSH2 0x3867 JUMP JUMPDEST JUMPDEST PUSH1 0x0 PUSH2 0x2FA7 DUP5 DUP3 DUP6 ADD PUSH2 0x2EE8 JUMP JUMPDEST SWAP2 POP POP SWAP3 SWAP2 POP POP JUMP JUMPDEST PUSH1 0x0 DUP1 PUSH1 0x40 DUP4 DUP6 SUB SLT ISZERO PUSH2 0x2FC7 JUMPI PUSH2 0x2FC6 PUSH2 0x3867 JUMP JUMPDEST JUMPDEST PUSH1 0x0 PUSH2 0x2FD5 DUP6 DUP3 DUP7 ADD PUSH2 0x2EE8 JUMP JUMPDEST SWAP3 POP POP PUSH1 0x20 PUSH2 0x2FE6 DUP6 DUP3 DUP7 ADD PUSH2 0x2EE8 JUMP JUMPDEST SWAP2 POP POP SWAP3 POP SWAP3 SWAP1 POP JUMP JUMPDEST PUSH1 0x0 DUP1 PUSH1 0x0 PUSH1 0x60 DUP5 DUP7 SUB SLT ISZERO PUSH2 0x3009 JUMPI PUSH2 0x3008 PUSH2 0x3867 JUMP JUMPDEST JUMPDEST PUSH1 0x0 PUSH2 0x3017 DUP7 DUP3 DUP8 ADD PUSH2 0x2EE8 JUMP JUMPDEST SWAP4 POP POP PUSH1 0x20 PUSH2 0x3028 DUP7 DUP3 DUP8 ADD PUSH2 0x2EE8 JUMP JUMPDEST SWAP3 POP POP PUSH1 0x40 PUSH2 0x3039 DUP7 DUP3 DUP8 ADD PUSH2 0x2F59 JUMP JUMPDEST SWAP2 POP POP SWAP3 POP SWAP3 POP SWAP3 JUMP JUMPDEST PUSH1 0x0 DUP1 PUSH1 0x40 DUP4 DUP6 SUB SLT ISZERO PUSH2 0x305A JUMPI PUSH2 0x3059 PUSH2 0x3867 JUMP JUMPDEST JUMPDEST PUSH1 0x0 PUSH2 0x3068 DUP6 DUP3 DUP7 ADD PUSH2 0x2EE8 JUMP JUMPDEST SWAP3 POP POP PUSH1 0x20 PUSH2 0x3079 DUP6 DUP3 DUP7 ADD PUSH2 0x2F59 JUMP JUMPDEST SWAP2 POP POP SWAP3 POP SWAP3 SWAP1 POP JUMP JUMPDEST PUSH1 0x0 DUP1 PUSH1 0x0 PUSH1 0x60 DUP5 DUP7 SUB SLT ISZERO PUSH2 0x309C JUMPI PUSH2 0x309B PUSH2 0x3867 JUMP JUMPDEST JUMPDEST PUSH1 0x0 PUSH2 0x30AA DUP7 DUP3 DUP8 ADD PUSH2 0x2EE8 JUMP JUMPDEST SWAP4 POP POP PUSH1 0x20 PUSH2 0x30BB DUP7 DUP3 DUP8 ADD PUSH2 0x2F59 JUMP JUMPDEST SWAP3 POP POP PUSH1 0x40 PUSH2 0x30CC DUP7 DUP3 DUP8 ADD PUSH2 0x2F59 JUMP JUMPDEST SWAP2 POP POP SWAP3 POP SWAP3 POP SWAP3 JUMP JUMPDEST PUSH1 0x0 DUP1 PUSH1 0x0 PUSH1 0x60 DUP5 DUP7 SUB SLT ISZERO PUSH2 0x30EF JUMPI PUSH2 0x30EE PUSH2 0x3867 JUMP JUMPDEST JUMPDEST PUSH1 0x0 DUP5 ADD CALLDATALOAD PUSH8 0xFFFFFFFFFFFFFFFF DUP2 GT ISZERO PUSH2 0x310D JUMPI PUSH2 0x310C PUSH2 0x3862 JUMP JUMPDEST JUMPDEST PUSH2 0x3119 DUP7 DUP3 DUP8 ADD PUSH2 0x2EFD JUMP JUMPDEST SWAP4 POP POP PUSH1 0x20 PUSH2 0x312A DUP7 DUP3 DUP8 ADD PUSH2 0x2F59 JUMP JUMPDEST SWAP3 POP POP PUSH1 0x40 PUSH2 0x313B DUP7 DUP3 DUP8 ADD PUSH2 0x2F59 JUMP JUMPDEST SWAP2 POP POP SWAP3 POP SWAP3 POP SWAP3 JUMP JUMPDEST PUSH1 0x0 PUSH1 0x20 DUP3 DUP5 SUB SLT ISZERO PUSH2 0x315B JUMPI PUSH2 0x315A PUSH2 0x3867 JUMP JUMPDEST JUMPDEST PUSH1 0x0 DUP3 ADD CALLDATALOAD PUSH8 0xFFFFFFFFFFFFFFFF DUP2 GT ISZERO PUSH2 0x3179 JUMPI PUSH2 0x3178 PUSH2 0x3862 JUMP JUMPDEST JUMPDEST PUSH2 0x3185 DUP5 DUP3 DUP6 ADD PUSH2 0x2F2B JUMP JUMPDEST SWAP2 POP POP SWAP3 SWAP2 POP POP JUMP JUMPDEST PUSH1 0x0 PUSH1 0x20 DUP3 DUP5 SUB SLT ISZERO PUSH2 0x31A4 JUMPI PUSH2 0x31A3 PUSH2 0x3867 JUMP JUMPDEST JUMPDEST PUSH1 0x0 PUSH2 0x31B2 DUP5 DUP3 DUP6 ADD PUSH2 0x2F59 JUMP JUMPDEST SWAP2 POP POP SWAP3 SWAP2 POP POP JUMP JUMPDEST PUSH1 0x0 PUSH1 0x20 DUP3 DUP5 SUB SLT ISZERO PUSH2 0x31D1 JUMPI PUSH2 0x31D0 PUSH2 0x3867 JUMP JUMPDEST JUMPDEST PUSH1 0x0 PUSH2 0x31DF DUP5 DUP3 DUP6 ADD PUSH2 0x2F6E JUMP JUMPDEST SWAP2 POP POP SWAP3 SWAP2 POP POP JUMP JUMPDEST PUSH2 0x31F1 DUP2 PUSH2 0x3654 JUMP JUMPDEST DUP3 MSTORE POP POP JUMP JUMPDEST PUSH2 0x3200 DUP2 PUSH2 0x3666 JUMP JUMPDEST DUP3 MSTORE POP POP JUMP JUMPDEST PUSH1 0x0 PUSH2 0x3211 DUP3 PUSH2 0x35AE JUMP JUMPDEST PUSH2 0x321B DUP2 DUP6 PUSH2 0x35B9 JUMP JUMPDEST SWAP4 POP PUSH2 0x322B DUP2 DUP6 PUSH1 0x20 DUP7 ADD PUSH2 0x36B8 JUMP JUMPDEST PUSH2 0x3234 DUP2 PUSH2 0x386C JUMP JUMPDEST DUP5 ADD SWAP2 POP POP SWAP3 SWAP2 POP POP JUMP JUMPDEST PUSH1 0x0 PUSH2 0x324C PUSH1 0x1C DUP4 PUSH2 0x35B9 JUMP JUMPDEST SWAP2 POP PUSH2 0x3257 DUP3 PUSH2 0x387D JUMP JUMPDEST PUSH1 0x20 DUP3 ADD SWAP1 POP SWAP2 SWAP1 POP JUMP JUMPDEST PUSH1 0x0 PUSH2 0x326F PUSH1 0x12 DUP4 PUSH2 0x35B9 JUMP JUMPDEST SWAP2 POP PUSH2 0x327A DUP3 PUSH2 0x38A6 JUMP JUMPDEST PUSH1 0x20 DUP3 ADD SWAP1 POP SWAP2 SWAP1 POP JUMP JUMPDEST PUSH1 0x0 PUSH2 0x3292 PUSH1 0x27 DUP4 PUSH2 0x35B9 JUMP JUMPDEST SWAP2 POP PUSH2 0x329D DUP3 PUSH2 0x38CF JUMP JUMPDEST PUSH1 0x40 DUP3 ADD SWAP1 POP SWAP2 SWAP1 POP JUMP JUMPDEST PUSH1 0x0 PUSH2 0x32B5 PUSH1 0x18 DUP4 PUSH2 0x35B9 JUMP JUMPDEST SWAP2 POP PUSH2 0x32C0 DUP3 PUSH2 0x391E JUMP JUMPDEST PUSH1 0x20 DUP3 ADD SWAP1 POP SWAP2 SWAP1 POP JUMP JUMPDEST PUSH1 0x0 PUSH2 0x32D8 PUSH1 0x23 DUP4 PUSH2 0x35B9 JUMP JUMPDEST SWAP2 POP PUSH2 0x32E3 DUP3 PUSH2 0x3947 JUMP JUMPDEST PUSH1 0x40 DUP3 ADD SWAP1 POP SWAP2 SWAP1 POP JUMP JUMPDEST PUSH1 0x0 PUSH2 0x32FB PUSH1 0x1B DUP4 PUSH2 0x35B9 JUMP JUMPDEST SWAP2 POP PUSH2 0x3306 DUP3 PUSH2 0x3996 JUMP JUMPDEST PUSH1 0x20 DUP3 ADD SWAP1 POP SWAP2 SWAP1 POP JUMP JUMPDEST PUSH1 0x0 PUSH2 0x331E PUSH1 0x35 DUP4 PUSH2 0x35B9 JUMP JUMPDEST SWAP2 POP PUSH2 0x3329 DUP3 PUSH2 0x39BF JUMP JUMPDEST PUSH1 0x40 DUP3 ADD SWAP1 POP SWAP2 SWAP1 POP JUMP JUMPDEST PUSH1 0x0 PUSH2 0x3341 PUSH1 0x17 DUP4 PUSH2 0x35B9 JUMP JUMPDEST SWAP2 POP PUSH2 0x334C DUP3 PUSH2 0x3A0E JUMP JUMPDEST PUSH1 0x20 DUP3 ADD SWAP1 POP SWAP2 SWAP1 POP JUMP JUMPDEST PUSH2 0x3360 DUP2 PUSH2 0x3692 JUMP JUMPDEST DUP3 MSTORE POP POP JUMP JUMPDEST PUSH2 0x336F DUP2 PUSH2 0x369C JUMP JUMPDEST DUP3 MSTORE POP POP JUMP JUMPDEST PUSH1 0x0 PUSH1 0x20 DUP3 ADD SWAP1 POP PUSH2 0x338A PUSH1 0x0 DUP4 ADD DUP5 PUSH2 0x31E8 JUMP JUMPDEST SWAP3 SWAP2 POP POP JUMP JUMPDEST PUSH1 0x0 PUSH1 0x20 DUP3 ADD SWAP1 POP PUSH2 0x33A5 PUSH1 0x0 DUP4 ADD DUP5 PUSH2 0x31F7 JUMP JUMPDEST SWAP3 SWAP2 POP POP JUMP JUMPDEST PUSH1 0x0 PUSH1 0x20 DUP3 ADD SWAP1 POP DUP2 DUP2 SUB PUSH1 0x0 DUP4 ADD MSTORE PUSH2 0x33C5 DUP2 DUP5 PUSH2 0x3206 JUMP JUMPDEST SWAP1 POP SWAP3 SWAP2 POP POP JUMP JUMPDEST PUSH1 0x0 PUSH1 0x20 DUP3 ADD SWAP1 POP DUP2 DUP2 SUB PUSH1 0x0 DUP4 ADD MSTORE PUSH2 0x33E6 DUP2 PUSH2 0x323F JUMP JUMPDEST SWAP1 POP SWAP2 SWAP1 POP JUMP JUMPDEST PUSH1 0x0 PUSH1 0x20 DUP3 ADD SWAP1 POP DUP2 DUP2 SUB PUSH1 0x0 DUP4 ADD MSTORE PUSH2 0x3406 DUP2 PUSH2 0x3262 JUMP JUMPDEST SWAP1 POP SWAP2 SWAP1 POP JUMP JUMPDEST PUSH1 0x0 PUSH1 0x20 DUP3 ADD SWAP1 POP DUP2 DUP2 SUB PUSH1 0x0 DUP4 ADD MSTORE PUSH2 0x3426 DUP2 PUSH2 0x3285 JUMP JUMPDEST SWAP1 POP SWAP2 SWAP1 POP JUMP JUMPDEST PUSH1 0x0 PUSH1 0x20 DUP3 ADD SWAP1 POP DUP2 DUP2 SUB PUSH1 0x0 DUP4 ADD MSTORE PUSH2 0x3446 DUP2 PUSH2 0x32A8 JUMP JUMPDEST SWAP1 POP SWAP2 SWAP1 POP JUMP JUMPDEST PUSH1 0x0 PUSH1 0x20 DUP3 ADD SWAP1 POP DUP2 DUP2 SUB PUSH1 0x0 DUP4 ADD MSTORE PUSH2 0x3466 DUP2 PUSH2 0x32CB JUMP JUMPDEST SWAP1 POP SWAP2 SWAP1 POP JUMP JUMPDEST PUSH1 0x0 PUSH1 0x20 DUP3 ADD SWAP1 POP DUP2 DUP2 SUB PUSH1 0x0 DUP4 ADD MSTORE PUSH2 0x3486 DUP2 PUSH2 0x32EE JUMP JUMPDEST SWAP1 POP SWAP2 SWAP1 POP JUMP JUMPDEST PUSH1 0x0 PUSH1 0x20 DUP3 ADD SWAP1 POP DUP2 DUP2 SUB PUSH1 0x0 DUP4 ADD MSTORE PUSH2 0x34A6 DUP2 PUSH2 0x3311 JUMP JUMPDEST SWAP1 POP SWAP2 SWAP1 POP JUMP JUMPDEST PUSH1 0x0 PUSH1 0x20 DUP3 ADD SWAP1 POP DUP2 DUP2 SUB PUSH1 0x0 DUP4 ADD MSTORE PUSH2 0x34C6 DUP2 PUSH2 0x3334 JUMP JUMPDEST SWAP1 POP SWAP2 SWAP1 POP JUMP JUMPDEST PUSH1 0x0 PUSH1 0x20 DUP3 ADD SWAP1 POP PUSH2 0x34E2 PUSH1 0x0 DUP4 ADD DUP5 PUSH2 0x3357 JUMP JUMPDEST SWAP3 SWAP2 POP POP JUMP JUMPDEST PUSH1 0x0 PUSH1 0x40 DUP3 ADD SWAP1 POP PUSH2 0x34FD PUSH1 0x0 DUP4 ADD DUP6 PUSH2 0x3357 JUMP JUMPDEST PUSH2 0x350A PUSH1 0x20 DUP4 ADD DUP5 PUSH2 0x3357 JUMP JUMPDEST SWAP4 SWAP3 POP POP POP JUMP JUMPDEST PUSH1 0x0 PUSH1 0x20 DUP3 ADD SWAP1 POP PUSH2 0x3526 PUSH1 0x0 DUP4 ADD DUP5 PUSH2 0x3366 JUMP JUMPDEST SWAP3 SWAP2 POP POP JUMP JUMPDEST PUSH1 0x0 PUSH2 0x3536 PUSH2 0x3547 JUMP JUMPDEST SWAP1 POP PUSH2 0x3542 DUP3 DUP3 PUSH2 0x371D JUMP JUMPDEST SWAP2 SWAP1 POP JUMP JUMPDEST PUSH1 0x0 PUSH1 0x40 MLOAD SWAP1 POP SWAP1 JUMP JUMPDEST PUSH1 0x0 PUSH8 0xFFFFFFFFFFFFFFFF DUP3 GT ISZERO PUSH2 0x356C JUMPI PUSH2 0x356B PUSH2 0x3824 JUMP JUMPDEST JUMPDEST PUSH1 0x20 DUP3 MUL SWAP1 POP PUSH1 0x20 DUP2 ADD SWAP1 POP SWAP2 SWAP1 POP JUMP JUMPDEST PUSH1 0x0 PUSH8 0xFFFFFFFFFFFFFFFF DUP3 GT ISZERO PUSH2 0x3598 JUMPI PUSH2 0x3597 PUSH2 0x3824 JUMP JUMPDEST JUMPDEST PUSH2 0x35A1 DUP3 PUSH2 0x386C JUMP JUMPDEST SWAP1 POP PUSH1 0x20 DUP2 ADD SWAP1 POP SWAP2 SWAP1 POP JUMP JUMPDEST PUSH1 0x0 DUP2 MLOAD SWAP1 POP SWAP2 SWAP1 POP JUMP JUMPDEST PUSH1 0x0 DUP3 DUP3 MSTORE PUSH1 0x20 DUP3 ADD SWAP1 POP SWAP3 SWAP2 POP POP JUMP JUMPDEST PUSH1 0x0 PUSH2 0x35D5 DUP3 PUSH2 0x3692 JUMP JUMPDEST SWAP2 POP PUSH2 0x35E0 DUP4 PUSH2 0x3692 JUMP JUMPDEST SWAP3 POP DUP3 PUSH32 0xFFFFFFFFFFFFFFFFFFFFFFFFFFFFFFFFFFFFFFFFFFFFFFFFFFFFFFFFFFFFFFFF SUB DUP3 GT ISZERO PUSH2 0x3615 JUMPI PUSH2 0x3614 PUSH2 0x3797 JUMP JUMPDEST JUMPDEST DUP3 DUP3 ADD SWAP1 POP SWAP3 SWAP2 POP POP JUMP JUMPDEST PUSH1 0x0 PUSH2 0x362B DUP3 PUSH2 0x3692 JUMP JUMPDEST SWAP2 POP PUSH2 0x3636 DUP4 PUSH2 0x3692 JUMP JUMPDEST SWAP3 POP DUP3 DUP3 LT ISZERO PUSH2 0x3649 JUMPI PUSH2 0x3648 PUSH2 0x3797 JUMP JUMPDEST JUMPDEST DUP3 DUP3 SUB SWAP1 POP SWAP3 SWAP2 POP POP JUMP JUMPDEST PUSH1 0x0 PUSH2 0x365F DUP3 PUSH2 0x3672 JUMP JUMPDEST SWAP1 POP SWAP2 SWAP1 POP JUMP JUMPDEST PUSH1 0x0 DUP2 ISZERO ISZERO SWAP1 POP SWAP2 SWAP1 POP JUMP JUMPDEST PUSH1 0x0 PUSH20 0xFFFFFFFFFFFFFFFFFFFFFFFFFFFFFFFFFFFFFFFF DUP3 AND SWAP1 POP SWAP2 SWAP1 POP JUMP JUMPDEST PUSH1 0x0 DUP2 SWAP1 POP SWAP2 SWAP1 POP JUMP JUMPDEST PUSH1 0x0 PUSH1 0xFF DUP3 AND SWAP1 POP SWAP2 SWAP1 POP JUMP JUMPDEST DUP3 DUP2 DUP4 CALLDATACOPY PUSH1 0x0 DUP4 DUP4 ADD MSTORE POP POP POP JUMP JUMPDEST PUSH1 0x0 JUMPDEST DUP4 DUP2 LT ISZERO PUSH2 0x36D6 JUMPI DUP1 DUP3 ADD MLOAD DUP2 DUP5 ADD MSTORE PUSH1 0x20 DUP2 ADD SWAP1 POP PUSH2 0x36BB JUMP JUMPDEST DUP4 DUP2 GT ISZERO PUSH2 0x36E5 JUMPI PUSH1 0x0 DUP5 DUP5 ADD MSTORE JUMPDEST POP POP POP POP JUMP JUMPDEST PUSH1 0x0 PUSH1 0x2 DUP3 DIV SWAP1 POP PUSH1 0x1 DUP3 AND DUP1 PUSH2 0x3703 JUMPI PUSH1 0x7F DUP3 AND SWAP2 POP JUMPDEST PUSH1 0x20 DUP3 LT DUP2 EQ ISZERO PUSH2 0x3717 JUMPI PUSH2 0x3716 PUSH2 0x37C6 JUMP JUMPDEST JUMPDEST POP SWAP2 SWAP1 POP JUMP JUMPDEST PUSH2 0x3726 DUP3 PUSH2 0x386C JUMP JUMPDEST DUP2 ADD DUP2 DUP2 LT PUSH8 0xFFFFFFFFFFFFFFFF DUP3 GT OR ISZERO PUSH2 0x3745 JUMPI PUSH2 0x3744 PUSH2 0x3824 JUMP JUMPDEST JUMPDEST DUP1 PUSH1 0x40 MSTORE POP POP POP JUMP JUMPDEST PUSH1 0x0 PUSH2 0x3759 DUP3 PUSH2 0x3692 JUMP JUMPDEST SWAP2 POP PUSH32 0xFFFFFFFFFFFFFFFFFFFFFFFFFFFFFFFFFFFFFFFFFFFFFFFFFFFFFFFFFFFFFFFF DUP3 EQ ISZERO PUSH2 0x378C JUMPI PUSH2 0x378B PUSH2 0x3797 JUMP JUMPDEST JUMPDEST PUSH1 0x1 DUP3 ADD SWAP1 POP SWAP2 SWAP1 POP JUMP JUMPDEST PUSH32 0x4E487B7100000000000000000000000000000000000000000000000000000000 PUSH1 0x0 MSTORE PUSH1 0x11 PUSH1 0x4 MSTORE PUSH1 0x24 PUSH1 0x0 REVERT JUMPDEST PUSH32 0x4E487B7100000000000000000000000000000000000000000000000000000000 PUSH1 0x0 MSTORE PUSH1 0x22 PUSH1 0x4 MSTORE PUSH1 0x24 PUSH1 0x0 REVERT JUMPDEST PUSH32 0x4E487B7100000000000000000000000000000000000000000000000000000000 PUSH1 0x0 MSTORE PUSH1 0x32 PUSH1 0x4 MSTORE PUSH1 0x24 PUSH1 0x0 REVERT JUMPDEST PUSH32 0x4E487B7100000000000000000000000000000000000000000000000000000000 PUSH1 0x0 MSTORE PUSH1 0x41 PUSH1 0x4 MSTORE PUSH1 0x24 PUSH1 0x0 REVERT JUMPDEST PUSH1 0x0 DUP1 REVERT JUMPDEST PUSH1 0x0 DUP1 REVERT JUMPDEST PUSH1 0x0 DUP1 REVERT JUMPDEST PUSH1 0x0 DUP1 REVERT JUMPDEST PUSH1 0x0 DUP1 REVERT JUMPDEST PUSH1 0x0 PUSH1 0x1F NOT PUSH1 0x1F DUP4 ADD AND SWAP1 POP SWAP2 SWAP1 POP JUMP JUMPDEST PUSH32 0x4F6E6C79206F776E65722063616E2063616C6C2066756E6374696F6E00000000 PUSH1 0x0 DUP3 ADD MSTORE POP JUMP JUMPDEST PUSH32 0x416D6F756E742063616E6E6F7420626520300000000000000000000000000000 PUSH1 0x0 DUP3 ADD MSTORE POP JUMP JUMPDEST PUSH32 0x416D6F756E742063616E6E6F742062652067726561746572207468616E20416C PUSH1 0x0 DUP3 ADD MSTORE PUSH32 0x6C6F77616E636500000000000000000000000000000000000000000000000000 PUSH1 0x20 DUP3 ADD MSTORE POP JUMP JUMPDEST PUSH32 0x5A65726F2061646472657373206E6F7420616C6C6F7765640000000000000000 PUSH1 0x0 DUP3 ADD MSTORE POP JUMP JUMPDEST PUSH32 0x20416D6F756E742067726561746572207468616E2073656E6465722062616C61 PUSH1 0x0 DUP3 ADD MSTORE PUSH32 0x6E63650000000000000000000000000000000000000000000000000000000000 PUSH1 0x20 DUP3 ADD MSTORE POP JUMP JUMPDEST PUSH32 0x416D6F756E742067726561746572207468616E2062616C616E63650000000000 PUSH1 0x0 DUP3 ADD MSTORE POP JUMP JUMPDEST PUSH32 0x416C6C6F77656420496E766573746F72732063616E6E6F74206265206C657373 PUSH1 0x0 DUP3 ADD MSTORE PUSH32 0x207468616E2043757272656E7420686F6C646572730000000000000000000000 PUSH1 0x20 DUP3 ADD MSTORE POP JUMP JUMPDEST PUSH32 0x4E6F742057686974656C69737420417574686F72697479000000000000000000 PUSH1 0x0 DUP3 ADD MSTORE POP JUMP JUMPDEST PUSH2 0x3A40 DUP2 PUSH2 0x3654 JUMP JUMPDEST DUP2 EQ PUSH2 0x3A4B JUMPI PUSH1 0x0 DUP1 REVERT JUMPDEST POP JUMP JUMPDEST PUSH2 0x3A57 DUP2 PUSH2 0x3692 JUMP JUMPDEST DUP2 EQ PUSH2 0x3A62 JUMPI PUSH1 0x0 DUP1 REVERT JUMPDEST POP JUMP JUMPDEST PUSH2 0x3A6E DUP2 PUSH2 0x369C JUMP JUMPDEST DUP2 EQ PUSH2 0x3A79 JUMPI PUSH1 0x0 DUP1 REVERT JUMPDEST POP JUMP INVALID MSTORE PUSH6 0x636569766572 KECCAK256 PUSH10 0x73206E6F742077686974 PUSH6 0x6C6973746564 KECCAK256 PUSH16 0x7220626C6F636B65644D617820616C6C PUSH16 0x77656420696E766573746F7220726573 PUSH21 0x72696374696F6E20697320696E20706C6163652C20 PUSH21 0x686973207472616E736665722077696C6C20657863 PUSH6 0x656420746869 PUSH20 0x206C696D69746174696F6E53656E646572206973 KECCAK256 PUSH24 0x686974656C697374656420627574206973206E6F7420656C PUSH10 0x6769626C6520746F2073 PUSH6 0x6E6420746F6B PUSH6 0x6E7320616E64 KECCAK256 PUSH22 0x6E64657220686F6C64696E6720706572696F6420284B MSIZE NUMBER KECCAK256 PUSH21 0x696D65207265737472696374696F6E29416C6C2074 PUSH19 0x616E7366657273206172652064697361626C65 PUSH5 0x2062656361 PUSH22 0x736520486F6C64696E6720506572696F64206973206E PUSH16 0x74207965742065787069726564526563 PUSH6 0x697665722069 PUSH20 0x2077686974656C69737465642062757420697320 PUSH15 0x6F742079657420656C696769626C65 KECCAK256 PUSH21 0x6F207265636569766520746F6B656E7320696E2068 PUSH10 0x732077616C6C65742028 0x4B MSIZE NUMBER KECCAK256 PUSH21 0x696D65207265737472696374696F6E2953656E6465 PUSH19 0x206973206E6F742077686974656C6973746564 KECCAK256 PUSH16 0x7220626C6F636B6564A2646970667358 0x22 SLT KECCAK256 PUSH5 0x25B5C1B1C EQ 0x28 PUSH26 0xF864E07D79CC05F784B3BF920D6D32FB0C28A36C12B2264736F PUSH13 0x63430008070033000000000000 "
				},
				"gasEstimates": {
					"creation": {
						"codeDepositCost": "3092200",
						"executionCost": "infinite",
						"totalCost": "infinite"
					},
					"external": {
						"CompanyHomepage()": "infinite",
						"CompanyLegalDocs()": "infinite",
						"IssuancePlatform()": "infinite",
						"Max_Allowed_Investors_Exceed()": "448",
						"No_Transfer_Restrictions_Found()": "446",
						"Receiver_Not_Whitelisted_or_Blocked()": "489",
						"Receiver_Under_Holding_Period()": "423",
						"Sender_Not_Whitelisted_or_Blocked()": "403",
						"Sender_Under_Holding_Period()": "424",
						"ShareCertificate()": "infinite",
						"Transfer_Value_Cannot_Zero()": "490",
						"Transfers_Disabled()": "447",
						"allowance(address,address)": "infinite",
						"allowedInvestors()": "2474",
						"approve(address,uint256)": "infinite",
						"balanceOf(address)": "2930",
						"bulkWhitelistWallets(address[],uint256,uint256)": "infinite",
						"burn(address,uint256)": "infinite",
						"currentTotalInvestors()": "2585",
						"decimals()": "2519",
						"detectTransferRestriction(address,address,uint256)": "infinite",
						"forceTransferToken(address,uint256)": "infinite",
						"getKYCData(address)": "infinite",
						"getWhitelistAuthorityStatus(address)": "2993",
						"issuanceProtocol()": "infinite",
						"messageForTransferRestriction(uint8)": "infinite",
						"mint(address,uint256)": "infinite",
						"modifyKYCData(address,uint256,uint256)": "infinite",
						"name()": "infinite",
						"owner()": "2612",
						"removeWhitelistAuthorityStatus(address)": "infinite",
						"resetAllowedInvestors(uint256)": "infinite",
						"resetCompanyHomepage(string)": "infinite",
						"resetCompanyLegalDocs(string)": "infinite",
						"resetShareCertificate(string)": "infinite",
						"setTradingHoldingPeriod(uint256)": "infinite",
						"setWhitelistAuthorityStatus(address)": "infinite",
						"symbol()": "infinite",
						"totalSupply()": "2572",
						"tradingHoldingPeriod()": "2563",
						"transfer(address,uint256)": "infinite",
						"transferFrom(address,address,uint256)": "infinite",
						"transferOwnership(address)": "27062",
						"version()": "infinite"
					},
					"internal": {
						"setupKYCDataForUser(address,uint256,uint256)": "infinite",
						"transferSharesBetweenInvestors(address,address,uint256)": "infinite"
					}
				},
				"methodIdentifiers": {
					"CompanyHomepage()": "84f9007f",
					"CompanyLegalDocs()": "b1b5932a",
					"IssuancePlatform()": "654b6f15",
					"Max_Allowed_Investors_Exceed()": "11d6f0aa",
					"No_Transfer_Restrictions_Found()": "7169698c",
					"Receiver_Not_Whitelisted_or_Blocked()": "fd80f5d6",
					"Receiver_Under_Holding_Period()": "e59e8013",
					"Sender_Not_Whitelisted_or_Blocked()": "8d80e4a0",
					"Sender_Under_Holding_Period()": "b8071575",
					"ShareCertificate()": "59a72ddc",
					"Transfer_Value_Cannot_Zero()": "b091da94",
					"Transfers_Disabled()": "8fe32e12",
					"allowance(address,address)": "dd62ed3e",
					"allowedInvestors()": "6401ca76",
					"approve(address,uint256)": "095ea7b3",
					"balanceOf(address)": "70a08231",
					"bulkWhitelistWallets(address[],uint256,uint256)": "09fc3892",
					"burn(address,uint256)": "9dc29fac",
					"currentTotalInvestors()": "45968836",
					"decimals()": "313ce567",
					"detectTransferRestriction(address,address,uint256)": "d4ce1415",
					"forceTransferToken(address,uint256)": "3a24ddc5",
					"getKYCData(address)": "ab47a2f9",
					"getWhitelistAuthorityStatus(address)": "e8379421",
					"issuanceProtocol()": "7cae04f7",
					"messageForTransferRestriction(uint8)": "7f4ab1dd",
					"mint(address,uint256)": "40c10f19",
					"modifyKYCData(address,uint256,uint256)": "2b8e797a",
					"name()": "06fdde03",
					"owner()": "8da5cb5b",
					"removeWhitelistAuthorityStatus(address)": "da76e2f3",
					"resetAllowedInvestors(uint256)": "62a3d4bd",
					"resetCompanyHomepage(string)": "abc30a4b",
					"resetCompanyLegalDocs(string)": "51aebcd4",
					"resetShareCertificate(string)": "ac893db1",
					"setTradingHoldingPeriod(uint256)": "b5b7e6ee",
					"setWhitelistAuthorityStatus(address)": "c319e41c",
					"symbol()": "95d89b41",
					"totalSupply()": "18160ddd",
					"tradingHoldingPeriod()": "639c86ce",
					"transfer(address,uint256)": "a9059cbb",
					"transferFrom(address,address,uint256)": "23b872dd",
					"transferOwnership(address)": "f2fde38b",
					"version()": "54fd4d50"
				}
			},
			"storageLayout": {
				"storage": [
					{
						"astId": 11,
						"contract": "contracts/ERC1404TokenMinKYCv12.sol:ERC1404TokenMinKYCv12",
						"label": "_buyRestriction",
						"offset": 0,
						"slot": "0",
						"type": "t_mapping(t_address,t_uint256)"
					},
					{
						"astId": 15,
						"contract": "contracts/ERC1404TokenMinKYCv12.sol:ERC1404TokenMinKYCv12",
						"label": "_sellRestriction",
						"offset": 0,
						"slot": "1",
						"type": "t_mapping(t_address,t_uint256)"
					},
					{
						"astId": 19,
						"contract": "contracts/ERC1404TokenMinKYCv12.sol:ERC1404TokenMinKYCv12",
						"label": "_balances",
						"offset": 0,
						"slot": "2",
						"type": "t_mapping(t_address,t_uint256)"
					},
					{
						"astId": 25,
						"contract": "contracts/ERC1404TokenMinKYCv12.sol:ERC1404TokenMinKYCv12",
						"label": "_allowances",
						"offset": 0,
						"slot": "3",
						"type": "t_mapping(t_address,t_mapping(t_address,t_uint256))"
					},
					{
						"astId": 27,
						"contract": "contracts/ERC1404TokenMinKYCv12.sol:ERC1404TokenMinKYCv12",
						"label": "_owner",
						"offset": 0,
						"slot": "4",
						"type": "t_address"
					},
					{
						"astId": 31,
						"contract": "contracts/ERC1404TokenMinKYCv12.sol:ERC1404TokenMinKYCv12",
						"label": "_whitelistControlAuthority",
						"offset": 0,
						"slot": "5",
						"type": "t_mapping(t_address,t_bool)"
					},
					{
						"astId": 98,
						"contract": "contracts/ERC1404TokenMinKYCv12.sol:ERC1404TokenMinKYCv12",
						"label": "decimals",
						"offset": 0,
						"slot": "6",
						"type": "t_uint256"
					},
					{
						"astId": 101,
						"contract": "contracts/ERC1404TokenMinKYCv12.sol:ERC1404TokenMinKYCv12",
						"label": "version",
						"offset": 0,
						"slot": "7",
						"type": "t_string_storage"
					},
					{
						"astId": 104,
						"contract": "contracts/ERC1404TokenMinKYCv12.sol:ERC1404TokenMinKYCv12",
						"label": "IssuancePlatform",
						"offset": 0,
						"slot": "8",
						"type": "t_string_storage"
					},
					{
						"astId": 107,
						"contract": "contracts/ERC1404TokenMinKYCv12.sol:ERC1404TokenMinKYCv12",
						"label": "issuanceProtocol",
						"offset": 0,
						"slot": "9",
						"type": "t_string_storage"
					},
					{
						"astId": 109,
						"contract": "contracts/ERC1404TokenMinKYCv12.sol:ERC1404TokenMinKYCv12",
						"label": "_totalSupply",
						"offset": 0,
						"slot": "10",
						"type": "t_uint256"
					},
					{
						"astId": 111,
						"contract": "contracts/ERC1404TokenMinKYCv12.sol:ERC1404TokenMinKYCv12",
						"label": "name",
						"offset": 0,
						"slot": "11",
						"type": "t_string_storage"
					},
					{
						"astId": 113,
						"contract": "contracts/ERC1404TokenMinKYCv12.sol:ERC1404TokenMinKYCv12",
						"label": "symbol",
						"offset": 0,
						"slot": "12",
						"type": "t_string_storage"
					},
					{
						"astId": 115,
						"contract": "contracts/ERC1404TokenMinKYCv12.sol:ERC1404TokenMinKYCv12",
						"label": "ShareCertificate",
						"offset": 0,
						"slot": "13",
						"type": "t_string_storage"
					},
					{
						"astId": 117,
						"contract": "contracts/ERC1404TokenMinKYCv12.sol:ERC1404TokenMinKYCv12",
						"label": "CompanyHomepage",
						"offset": 0,
						"slot": "14",
						"type": "t_string_storage"
					},
					{
						"astId": 119,
						"contract": "contracts/ERC1404TokenMinKYCv12.sol:ERC1404TokenMinKYCv12",
						"label": "CompanyLegalDocs",
						"offset": 0,
						"slot": "15",
						"type": "t_string_storage"
					},
					{
						"astId": 122,
						"contract": "contracts/ERC1404TokenMinKYCv12.sol:ERC1404TokenMinKYCv12",
						"label": "currentTotalInvestors",
						"offset": 0,
						"slot": "16",
						"type": "t_uint256"
					},
					{
						"astId": 125,
						"contract": "contracts/ERC1404TokenMinKYCv12.sol:ERC1404TokenMinKYCv12",
						"label": "allowedInvestors",
						"offset": 0,
						"slot": "17",
						"type": "t_uint256"
					},
					{
						"astId": 128,
						"contract": "contracts/ERC1404TokenMinKYCv12.sol:ERC1404TokenMinKYCv12",
						"label": "tradingHoldingPeriod",
						"offset": 0,
						"slot": "18",
						"type": "t_uint256"
					}
				],
				"types": {
					"t_address": {
						"encoding": "inplace",
						"label": "address",
						"numberOfBytes": "20"
					},
					"t_bool": {
						"encoding": "inplace",
						"label": "bool",
						"numberOfBytes": "1"
					},
					"t_mapping(t_address,t_bool)": {
						"encoding": "mapping",
						"key": "t_address",
						"label": "mapping(address => bool)",
						"numberOfBytes": "32",
						"value": "t_bool"
					},
					"t_mapping(t_address,t_mapping(t_address,t_uint256))": {
						"encoding": "mapping",
						"key": "t_address",
						"label": "mapping(address => mapping(address => uint256))",
						"numberOfBytes": "32",
						"value": "t_mapping(t_address,t_uint256)"
					},
					"t_mapping(t_address,t_uint256)": {
						"encoding": "mapping",
						"key": "t_address",
						"label": "mapping(address => uint256)",
						"numberOfBytes": "32",
						"value": "t_uint256"
					},
					"t_string_storage": {
						"encoding": "bytes",
						"label": "string",
						"numberOfBytes": "32"
					},
					"t_uint256": {
						"encoding": "inplace",
						"label": "uint256",
						"numberOfBytes": "32"
					}
				}
			},
			"userdoc": {
				"kind": "user",
				"methods": {
					"messageForTransferRestriction(uint8)": {
						"notice": "Returns a human-readable message for a given restriction code"
					}
				},
				"version": 1
			}
		}
	}
}