{
	"contracts/ERC1404TokenMinKYCv12.sol": {
		"ERC1404TokenMinKYCv12": {
			"abi": [
				{
					"inputs": [
						{
							"internalType": "uint256",
							"name": "_initialSupply",
							"type": "uint256"
						},
						{
							"internalType": "string",
							"name": "_name",
							"type": "string"
						},
						{
							"internalType": "string",
							"name": "_symbol",
							"type": "string"
						},
						{
							"internalType": "uint256",
							"name": "_allowedInvestors",
							"type": "uint256"
						},
						{
							"internalType": "uint256",
							"name": "_decimals",
							"type": "uint256"
						},
						{
							"internalType": "string",
							"name": "_ShareCertificate",
							"type": "string"
						},
						{
							"internalType": "string",
							"name": "_CompanyHomepage",
							"type": "string"
						},
						{
							"internalType": "string",
							"name": "_CompanyLegalDocs",
							"type": "string"
						},
						{
							"internalType": "address",
							"name": "_atomicSwapContractAddress",
							"type": "address"
						}
					],
					"stateMutability": "nonpayable",
					"type": "constructor"
				},
				{
					"anonymous": false,
					"inputs": [
						{
							"indexed": false,
							"internalType": "uint256",
							"name": "_allowedInvestors",
							"type": "uint256"
						}
					],
					"name": "AllowedInvestorsReset",
					"type": "event"
				},
				{
					"anonymous": false,
					"inputs": [
						{
							"indexed": true,
							"internalType": "address",
							"name": "owner",
							"type": "address"
						},
						{
							"indexed": true,
							"internalType": "address",
							"name": "spender",
							"type": "address"
						},
						{
							"indexed": false,
							"internalType": "uint256",
							"name": "value",
							"type": "uint256"
						}
					],
					"name": "Approval",
					"type": "event"
				},
				{
					"anonymous": false,
					"inputs": [
						{
							"indexed": true,
							"internalType": "address",
							"name": "account",
							"type": "address"
						},
						{
							"indexed": false,
							"internalType": "uint256",
							"name": "amount",
							"type": "uint256"
						}
					],
					"name": "BurnTokens",
					"type": "event"
				},
				{
					"anonymous": false,
					"inputs": [
						{
							"indexed": false,
							"internalType": "string",
							"name": "_CompanyHomepage",
							"type": "string"
						}
					],
					"name": "CompanyHomepageReset",
					"type": "event"
				},
				{
					"anonymous": false,
					"inputs": [
						{
							"indexed": false,
							"internalType": "string",
							"name": "_CompanyLegalDocs",
							"type": "string"
						}
					],
					"name": "CompanyLegalDocsReset",
					"type": "event"
				},
				{
					"anonymous": false,
					"inputs": [
						{
							"indexed": false,
							"internalType": "uint256",
							"name": "_tradingHoldingPeriod",
							"type": "uint256"
						}
					],
					"name": "HoldingPeriodReset",
					"type": "event"
				},
				{
					"anonymous": false,
					"inputs": [
						{
							"indexed": true,
							"internalType": "address",
							"name": "account",
							"type": "address"
						},
						{
							"indexed": false,
							"internalType": "uint256",
							"name": "buyRestriction",
							"type": "uint256"
						},
						{
							"indexed": false,
							"internalType": "uint256",
							"name": "sellRestriction",
							"type": "uint256"
						}
					],
					"name": "KYCDataForUserModified",
					"type": "event"
				},
				{
					"anonymous": false,
					"inputs": [
						{
							"indexed": true,
							"internalType": "address",
							"name": "account",
							"type": "address"
						},
						{
							"indexed": false,
							"internalType": "uint256",
							"name": "buyRestriction",
							"type": "uint256"
						},
						{
							"indexed": false,
							"internalType": "uint256",
							"name": "sellRestriction",
							"type": "uint256"
						}
					],
					"name": "KYCDataForUserSet",
					"type": "event"
				},
				{
					"anonymous": false,
					"inputs": [
						{
							"indexed": true,
							"internalType": "address",
							"name": "account",
							"type": "address"
						},
						{
							"indexed": false,
							"internalType": "uint256",
							"name": "amount",
							"type": "uint256"
						}
					],
					"name": "MintTokens",
					"type": "event"
				},
				{
					"anonymous": false,
					"inputs": [
						{
							"indexed": false,
							"internalType": "string",
							"name": "_ShareCertificate",
							"type": "string"
						}
					],
					"name": "ShareCertificateReset",
					"type": "event"
				},
				{
					"anonymous": false,
					"inputs": [
						{
							"indexed": true,
							"internalType": "address",
							"name": "from",
							"type": "address"
						},
						{
							"indexed": true,
							"internalType": "address",
							"name": "to",
							"type": "address"
						},
						{
							"indexed": false,
							"internalType": "uint256",
							"name": "value",
							"type": "uint256"
						}
					],
					"name": "Transfer",
					"type": "event"
				},
				{
					"anonymous": false,
					"inputs": [
						{
							"indexed": true,
							"internalType": "address",
							"name": "from",
							"type": "address"
						},
						{
							"indexed": true,
							"internalType": "address",
							"name": "to",
							"type": "address"
						},
						{
							"indexed": false,
							"internalType": "string",
							"name": "message",
							"type": "string"
						}
					],
					"name": "TransferRestrictionDetected",
					"type": "event"
				},
				{
					"anonymous": false,
					"inputs": [
						{
							"indexed": false,
							"internalType": "address",
							"name": "user",
							"type": "address"
						}
					],
					"name": "WhitelistAuthorityStatusRemoved",
					"type": "event"
				},
				{
					"anonymous": false,
					"inputs": [
						{
							"indexed": false,
							"internalType": "address",
							"name": "user",
							"type": "address"
						}
					],
					"name": "WhitelistAuthorityStatusSet",
					"type": "event"
				},
				{
					"inputs": [],
					"name": "CompanyHomepage",
					"outputs": [
						{
							"internalType": "string",
							"name": "",
							"type": "string"
						}
					],
					"stateMutability": "view",
					"type": "function"
				},
				{
					"inputs": [],
					"name": "CompanyLegalDocs",
					"outputs": [
						{
							"internalType": "string",
							"name": "",
							"type": "string"
						}
					],
					"stateMutability": "view",
					"type": "function"
				},
				{
					"inputs": [],
					"name": "IssuancePlatform",
					"outputs": [
						{
							"internalType": "string",
							"name": "",
							"type": "string"
						}
					],
					"stateMutability": "view",
					"type": "function"
				},
				{
					"inputs": [],
					"name": "Max_Allowed_Investors_Exceed",
					"outputs": [
						{
							"internalType": "uint8",
							"name": "",
							"type": "uint8"
						}
					],
					"stateMutability": "view",
					"type": "function"
				},
				{
					"inputs": [],
					"name": "No_Transfer_Restrictions_Found",
					"outputs": [
						{
							"internalType": "uint8",
							"name": "",
							"type": "uint8"
						}
					],
					"stateMutability": "view",
					"type": "function"
				},
				{
					"inputs": [],
					"name": "Receiver_Not_Whitelisted_or_Blocked",
					"outputs": [
						{
							"internalType": "uint8",
							"name": "",
							"type": "uint8"
						}
					],
					"stateMutability": "view",
					"type": "function"
				},
				{
					"inputs": [],
					"name": "Receiver_Under_Holding_Period",
					"outputs": [
						{
							"internalType": "uint8",
							"name": "",
							"type": "uint8"
						}
					],
					"stateMutability": "view",
					"type": "function"
				},
				{
					"inputs": [],
					"name": "Sender_Not_Whitelisted_or_Blocked",
					"outputs": [
						{
							"internalType": "uint8",
							"name": "",
							"type": "uint8"
						}
					],
					"stateMutability": "view",
					"type": "function"
				},
				{
					"inputs": [],
					"name": "Sender_Under_Holding_Period",
					"outputs": [
						{
							"internalType": "uint8",
							"name": "",
							"type": "uint8"
						}
					],
					"stateMutability": "view",
					"type": "function"
				},
				{
					"inputs": [],
					"name": "ShareCertificate",
					"outputs": [
						{
							"internalType": "string",
							"name": "",
							"type": "string"
						}
					],
					"stateMutability": "view",
					"type": "function"
				},
				{
					"inputs": [],
					"name": "Transfer_Value_Cannot_Zero",
					"outputs": [
						{
							"internalType": "uint8",
							"name": "",
							"type": "uint8"
						}
					],
					"stateMutability": "view",
					"type": "function"
				},
				{
					"inputs": [],
					"name": "Transfers_Disabled",
					"outputs": [
						{
							"internalType": "uint8",
							"name": "",
							"type": "uint8"
						}
					],
					"stateMutability": "view",
					"type": "function"
				},
				{
					"inputs": [
						{
							"internalType": "address",
							"name": "ownby",
							"type": "address"
						},
						{
							"internalType": "address",
							"name": "spender",
							"type": "address"
						}
					],
					"name": "allowance",
					"outputs": [
						{
							"internalType": "uint256",
							"name": "",
							"type": "uint256"
						}
					],
					"stateMutability": "view",
					"type": "function"
				},
				{
					"inputs": [],
					"name": "allowedInvestors",
					"outputs": [
						{
							"internalType": "uint256",
							"name": "",
							"type": "uint256"
						}
					],
					"stateMutability": "view",
					"type": "function"
				},
				{
					"inputs": [
						{
							"internalType": "address",
							"name": "spender",
							"type": "address"
						},
						{
							"internalType": "uint256",
							"name": "amount",
							"type": "uint256"
						}
					],
					"name": "approve",
					"outputs": [
						{
							"internalType": "bool",
							"name": "",
							"type": "bool"
						}
					],
					"stateMutability": "nonpayable",
					"type": "function"
				},
				{
					"inputs": [
						{
							"internalType": "address",
							"name": "account",
							"type": "address"
						}
					],
					"name": "balanceOf",
					"outputs": [
						{
							"internalType": "uint256",
							"name": "",
							"type": "uint256"
						}
					],
					"stateMutability": "view",
					"type": "function"
				},
				{
					"inputs": [
						{
							"internalType": "address[]",
							"name": "account",
							"type": "address[]"
						},
						{
							"internalType": "uint256",
							"name": "buyRestriction",
							"type": "uint256"
						},
						{
							"internalType": "uint256",
							"name": "sellRestriction",
							"type": "uint256"
						}
					],
					"name": "bulkWhitelistWallets",
					"outputs": [],
					"stateMutability": "nonpayable",
					"type": "function"
				},
				{
					"inputs": [
						{
							"internalType": "address",
							"name": "account",
							"type": "address"
						},
						{
							"internalType": "uint256",
							"name": "amount",
							"type": "uint256"
						}
					],
					"name": "burn",
					"outputs": [
						{
							"internalType": "bool",
							"name": "",
							"type": "bool"
						}
					],
					"stateMutability": "nonpayable",
					"type": "function"
				},
				{
					"inputs": [],
					"name": "currentTotalInvestors",
					"outputs": [
						{
							"internalType": "uint256",
							"name": "",
							"type": "uint256"
						}
					],
					"stateMutability": "view",
					"type": "function"
				},
				{
					"inputs": [],
					"name": "decimals",
					"outputs": [
						{
							"internalType": "uint256",
							"name": "",
							"type": "uint256"
						}
					],
					"stateMutability": "view",
					"type": "function"
				},
				{
					"inputs": [
						{
							"internalType": "address",
							"name": "_from",
							"type": "address"
						},
						{
							"internalType": "address",
							"name": "_to",
							"type": "address"
						},
						{
							"internalType": "uint256",
							"name": "value",
							"type": "uint256"
						}
					],
					"name": "detectTransferRestriction",
					"outputs": [
						{
							"internalType": "uint8",
							"name": "status",
							"type": "uint8"
						}
					],
					"stateMutability": "view",
					"type": "function"
				},
				{
					"inputs": [
						{
							"internalType": "address",
							"name": "from",
							"type": "address"
						},
						{
							"internalType": "uint256",
							"name": "amount",
							"type": "uint256"
						}
					],
					"name": "forceTransferToken",
					"outputs": [
						{
							"internalType": "bool",
							"name": "",
							"type": "bool"
						}
					],
					"stateMutability": "nonpayable",
					"type": "function"
				},
				{
					"inputs": [
						{
							"internalType": "address",
							"name": "user",
							"type": "address"
						}
					],
					"name": "getKYCData",
					"outputs": [
						{
							"internalType": "uint256",
							"name": "",
							"type": "uint256"
						},
						{
							"internalType": "uint256",
							"name": "",
							"type": "uint256"
						}
					],
					"stateMutability": "view",
					"type": "function"
				},
				{
					"inputs": [
						{
							"internalType": "address",
							"name": "user",
							"type": "address"
						}
					],
					"name": "getWhitelistAuthorityStatus",
					"outputs": [
						{
							"internalType": "bool",
							"name": "",
							"type": "bool"
						}
					],
					"stateMutability": "view",
					"type": "function"
				},
				{
					"inputs": [],
					"name": "issuanceProtocol",
					"outputs": [
						{
							"internalType": "string",
							"name": "",
							"type": "string"
						}
					],
					"stateMutability": "view",
					"type": "function"
				},
				{
					"inputs": [
						{
							"internalType": "uint8",
							"name": "restrictionCode",
							"type": "uint8"
						}
					],
					"name": "messageForTransferRestriction",
					"outputs": [
						{
							"internalType": "string",
							"name": "message",
							"type": "string"
						}
					],
					"stateMutability": "pure",
					"type": "function"
				},
				{
					"inputs": [
						{
							"internalType": "address",
							"name": "account",
							"type": "address"
						},
						{
							"internalType": "uint256",
							"name": "amount",
							"type": "uint256"
						}
					],
					"name": "mint",
					"outputs": [
						{
							"internalType": "bool",
							"name": "",
							"type": "bool"
						}
					],
					"stateMutability": "nonpayable",
					"type": "function"
				},
				{
					"inputs": [
						{
							"internalType": "address",
							"name": "account",
							"type": "address"
						},
						{
							"internalType": "uint256",
							"name": "buyRestriction",
							"type": "uint256"
						},
						{
							"internalType": "uint256",
							"name": "sellRestriction",
							"type": "uint256"
						}
					],
					"name": "modifyKYCData",
					"outputs": [],
					"stateMutability": "nonpayable",
					"type": "function"
				},
				{
					"inputs": [],
					"name": "name",
					"outputs": [
						{
							"internalType": "string",
							"name": "",
							"type": "string"
						}
					],
					"stateMutability": "view",
					"type": "function"
				},
				{
					"inputs": [],
					"name": "owner",
					"outputs": [
						{
							"internalType": "address",
							"name": "",
							"type": "address"
						}
					],
					"stateMutability": "view",
					"type": "function"
				},
				{
					"inputs": [
						{
							"internalType": "address",
							"name": "user",
							"type": "address"
						}
					],
					"name": "removeWhitelistAuthorityStatus",
					"outputs": [],
					"stateMutability": "nonpayable",
					"type": "function"
				},
				{
					"inputs": [
						{
							"internalType": "uint256",
							"name": "_allowedInvestors",
							"type": "uint256"
						}
					],
					"name": "resetAllowedInvestors",
					"outputs": [],
					"stateMutability": "nonpayable",
					"type": "function"
				},
				{
					"inputs": [
						{
							"internalType": "string",
							"name": "_CompanyHomepage",
							"type": "string"
						}
					],
					"name": "resetCompanyHomepage",
					"outputs": [],
					"stateMutability": "nonpayable",
					"type": "function"
				},
				{
					"inputs": [
						{
							"internalType": "string",
							"name": "_CompanyLegalDocs",
							"type": "string"
						}
					],
					"name": "resetCompanyLegalDocs",
					"outputs": [],
					"stateMutability": "nonpayable",
					"type": "function"
				},
				{
					"inputs": [
						{
							"internalType": "string",
							"name": "_ShareCertificate",
							"type": "string"
						}
					],
					"name": "resetShareCertificate",
					"outputs": [],
					"stateMutability": "nonpayable",
					"type": "function"
				},
				{
					"inputs": [
						{
							"internalType": "uint256",
							"name": "_tradingHoldingPeriod",
							"type": "uint256"
						}
					],
					"name": "setTradingHoldingPeriod",
					"outputs": [],
					"stateMutability": "nonpayable",
					"type": "function"
				},
				{
					"inputs": [
						{
							"internalType": "address",
							"name": "user",
							"type": "address"
						}
					],
					"name": "setWhitelistAuthorityStatus",
					"outputs": [],
					"stateMutability": "nonpayable",
					"type": "function"
				},
				{
					"inputs": [],
					"name": "symbol",
					"outputs": [
						{
							"internalType": "string",
							"name": "",
							"type": "string"
						}
					],
					"stateMutability": "view",
					"type": "function"
				},
				{
					"inputs": [],
					"name": "totalSupply",
					"outputs": [
						{
							"internalType": "uint256",
							"name": "",
							"type": "uint256"
						}
					],
					"stateMutability": "view",
					"type": "function"
				},
				{
					"inputs": [],
					"name": "tradingHoldingPeriod",
					"outputs": [
						{
							"internalType": "uint256",
							"name": "",
							"type": "uint256"
						}
					],
					"stateMutability": "view",
					"type": "function"
				},
				{
					"inputs": [
						{
							"internalType": "address",
							"name": "recipient",
							"type": "address"
						},
						{
							"internalType": "uint256",
							"name": "amount",
							"type": "uint256"
						}
					],
					"name": "transfer",
					"outputs": [
						{
							"internalType": "bool",
							"name": "",
							"type": "bool"
						}
					],
					"stateMutability": "nonpayable",
					"type": "function"
				},
				{
					"inputs": [
						{
							"internalType": "address",
							"name": "sender",
							"type": "address"
						},
						{
							"internalType": "address",
							"name": "recipient",
							"type": "address"
						},
						{
							"internalType": "uint256",
							"name": "amount",
							"type": "uint256"
						}
					],
					"name": "transferFrom",
					"outputs": [
						{
							"internalType": "bool",
							"name": "",
							"type": "bool"
						}
					],
					"stateMutability": "nonpayable",
					"type": "function"
				},
				{
					"inputs": [
						{
							"internalType": "address",
							"name": "newOwner",
							"type": "address"
						}
					],
					"name": "transferOwnership",
					"outputs": [],
					"stateMutability": "nonpayable",
					"type": "function"
				},
				{
					"inputs": [],
					"name": "version",
					"outputs": [
						{
							"internalType": "string",
							"name": "",
							"type": "string"
						}
					],
					"stateMutability": "view",
					"type": "function"
				}
			],
			"devdoc": {
				"kind": "dev",
				"methods": {
					"approve(address,uint256)": {
						"details": "Sets `amount` as the allowance of `spender` over the caller's tokens. Returns a boolean value indicating whether the operation succeeded. IMPORTANT: Beware that changing an allowance with this method brings the risk that someone may use both the old and the new allowance by unfortunate transaction ordering. One possible solution to mitigate this race condition is to first reduce the spender's allowance to 0 and set the desired value afterwards: https://github.com/ethereum/EIPs/issues/20#issuecomment-263524729 Emits an {Approval} event."
					},
					"balanceOf(address)": {
						"details": "Returns the amount of tokens owned by `account`."
					},
					"messageForTransferRestriction(uint8)": {
						"details": "Overwrite with your custom message and restrictionCode handling",
						"params": {
							"restrictionCode": "Identifier for looking up a message"
						},
						"returns": {
							"message": "Text showing the restriction's reasoning"
						}
					},
					"totalSupply()": {
						"details": "Returns the amount of tokens in existence."
					},
					"transfer(address,uint256)": {
						"details": "Moves `amount` tokens from the caller's account to `recipient`. Returns a boolean value indicating whether the operation succeeded. Emits a {Transfer} event."
					},
					"transferFrom(address,address,uint256)": {
						"details": "Moves `amount` tokens from `sender` to `recipient` using the allowance mechanism. `amount` is then deducted from the caller's allowance. Returns a boolean value indicating whether the operation succeeded. Emits a {Transfer} event."
					}
				},
				"version": 1
			},
			"evm": {
				"assembly": "    /* \"contracts/ERC1404TokenMinKYCv12.sol\":199:16237  contract ERC1404TokenMinKYCv12 is IERC20Token, IERC1404 {... */\n  mstore(0x40, 0x80)\n    /* \"contracts/ERC1404TokenMinKYCv12.sol\":2163:2165  18 */\n  0x12\n    /* \"contracts/ERC1404TokenMinKYCv12.sol\":2137:2165  uint256 public decimals = 18 */\n  0x06\n  sstore\n    /* \"contracts/ERC1404TokenMinKYCv12.sol\":2168:2197  string public version = \"1.2\" */\n  mload(0x40)\n  dup1\n  0x40\n  add\n  0x40\n  mstore\n  dup1\n  0x03\n  dup2\n  mstore\n  0x20\n  add\n  0x312e320000000000000000000000000000000000000000000000000000000000\n  dup2\n  mstore\n  pop\n  0x07\n  swap1\n  dup1\n  mload\n  swap1\n  0x20\n  add\n  swap1\n  tag_1\n  swap3\n  swap2\n  swap1\n  tag_2\n  jump\t// in\ntag_1:\n  pop\n    /* \"contracts/ERC1404TokenMinKYCv12.sol\":2200:2245  string public IssuancePlatform = \"DigiShares\" */\n  mload(0x40)\n  dup1\n  0x40\n  add\n  0x40\n  mstore\n  dup1\n  0x0a\n  dup2\n  mstore\n  0x20\n  add\n  0x4469676953686172657300000000000000000000000000000000000000000000\n  dup2\n  mstore\n  pop\n  0x08\n  swap1\n  dup1\n  mload\n  swap1\n  0x20\n  add\n  swap1\n  tag_3\n  swap3\n  swap2\n  swap1\n  tag_2\n  jump\t// in\ntag_3:\n  pop\n    /* \"contracts/ERC1404TokenMinKYCv12.sol\":2248:2291  string public issuanceProtocol = \"ERC-1404\" */\n  mload(0x40)\n  dup1\n  0x40\n  add\n  0x40\n  mstore\n  dup1\n  0x08\n  dup2\n  mstore\n  0x20\n  add\n  0x4552432d31343034000000000000000000000000000000000000000000000000\n  dup2\n  mstore\n  pop\n  0x09\n  swap1\n  dup1\n  mload\n  swap1\n  0x20\n  add\n  swap1\n  tag_4\n  swap3\n  swap2\n  swap1\n  tag_2\n  jump\t// in\ntag_4:\n  pop\n    /* \"contracts/ERC1404TokenMinKYCv12.sol\":2702:2703  0 */\n  0x00\n    /* \"contracts/ERC1404TokenMinKYCv12.sol\":2663:2703  uint256 public currentTotalInvestors = 0 */\n  0x10\n  sstore\n    /* \"contracts/ERC1404TokenMinKYCv12.sol\":2742:2743  0 */\n  0x00\n    /* \"contracts/ERC1404TokenMinKYCv12.sol\":2708:2743  uint256 public allowedInvestors = 0 */\n  0x11\n  sstore\n    /* \"contracts/ERC1404TokenMinKYCv12.sol\":2786:2787  1 */\n  0x01\n    /* \"contracts/ERC1404TokenMinKYCv12.sol\":2748:2787  uint256 public tradingHoldingPeriod = 1 */\n  0x12\n  sstore\n    /* \"contracts/ERC1404TokenMinKYCv12.sol\":3284:4241  constructor(uint256 _initialSupply, string memory _name,  string memory _symbol, uint256 _allowedInvestors, uint256 _decimals, string memory _ShareCertificate, string memory _CompanyHomepage, string memory _CompanyLegalDocs, address _atomicSwapContractAddress ) {... */\n  callvalue\n  dup1\n  iszero\n  tag_5\n  jumpi\n  0x00\n  dup1\n  revert\ntag_5:\n  pop\n  mload(0x40)\n  sub(codesize, bytecodeSize)\n  dup1\n  bytecodeSize\n  dup4\n  codecopy\n  dup2\n  dup2\n  add\n  0x40\n  mstore\n  dup2\n  add\n  swap1\n  tag_6\n  swap2\n  swap1\n  tag_7\n  jump\t// in\ntag_6:\n    /* \"contracts/ERC1404TokenMinKYCv12.sol\":3559:3564  _name */\n  dup8\n    /* \"contracts/ERC1404TokenMinKYCv12.sol\":3552:3556  name */\n  0x0b\n    /* \"contracts/ERC1404TokenMinKYCv12.sol\":3552:3564  name = _name */\n  swap1\n  dup1\n  mload\n  swap1\n  0x20\n  add\n  swap1\n  tag_10\n  swap3\n  swap2\n  swap1\n  tag_2\n  jump\t// in\ntag_10:\n  pop\n    /* \"contracts/ERC1404TokenMinKYCv12.sol\":3578:3585  _symbol */\n  dup7\n    /* \"contracts/ERC1404TokenMinKYCv12.sol\":3569:3575  symbol */\n  0x0c\n    /* \"contracts/ERC1404TokenMinKYCv12.sol\":3569:3585  symbol = _symbol */\n  swap1\n  dup1\n  mload\n  swap1\n  0x20\n  add\n  swap1\n  tag_11\n  swap3\n  swap2\n  swap1\n  tag_2\n  jump\t// in\ntag_11:\n  pop\n    /* \"contracts/ERC1404TokenMinKYCv12.sol\":3602:3611  _decimals */\n  dup5\n    /* \"contracts/ERC1404TokenMinKYCv12.sol\":3591:3599  decimals */\n  0x06\n    /* \"contracts/ERC1404TokenMinKYCv12.sol\":3591:3611  decimals = _decimals */\n  dup2\n  swap1\n  sstore\n  pop\n    /* \"contracts/ERC1404TokenMinKYCv12.sol\":3626:3636  msg.sender */\n  caller\n    /* \"contracts/ERC1404TokenMinKYCv12.sol\":3617:3623  _owner */\n  0x04\n  0x00\n    /* \"contracts/ERC1404TokenMinKYCv12.sol\":3617:3636  _owner = msg.sender */\n  0x0100\n  exp\n  dup2\n  sload\n  dup2\n  0xffffffffffffffffffffffffffffffffffffffff\n  mul\n  not\n  and\n  swap1\n  dup4\n  0xffffffffffffffffffffffffffffffffffffffff\n  and\n  mul\n  or\n  swap1\n  sstore\n  pop\n    /* \"contracts/ERC1404TokenMinKYCv12.sol\":3667:3668  1 */\n  0x01\n    /* \"contracts/ERC1404TokenMinKYCv12.sol\":3641:3656  _buyRestriction */\n  0x00\n    /* \"contracts/ERC1404TokenMinKYCv12.sol\":3641:3664  _buyRestriction[_owner] */\n  dup1\n    /* \"contracts/ERC1404TokenMinKYCv12.sol\":3657:3663  _owner */\n  0x04\n  0x00\n  swap1\n  sload\n  swap1\n  0x0100\n  exp\n  swap1\n  div\n  0xffffffffffffffffffffffffffffffffffffffff\n  and\n    /* \"contracts/ERC1404TokenMinKYCv12.sol\":3641:3664  _buyRestriction[_owner] */\n  0xffffffffffffffffffffffffffffffffffffffff\n  and\n  0xffffffffffffffffffffffffffffffffffffffff\n  and\n  dup2\n  mstore\n  0x20\n  add\n  swap1\n  dup2\n  mstore\n  0x20\n  add\n  0x00\n  keccak256\n    /* \"contracts/ERC1404TokenMinKYCv12.sol\":3641:3668  _buyRestriction[_owner] = 1 */\n  dup2\n  swap1\n  sstore\n  pop\n    /* \"contracts/ERC1404TokenMinKYCv12.sol\":3700:3701  1 */\n  0x01\n    /* \"contracts/ERC1404TokenMinKYCv12.sol\":3673:3689  _sellRestriction */\n  dup1\n    /* \"contracts/ERC1404TokenMinKYCv12.sol\":3673:3697  _sellRestriction[_owner] */\n  0x00\n    /* \"contracts/ERC1404TokenMinKYCv12.sol\":3690:3696  _owner */\n  0x04\n  0x00\n  swap1\n  sload\n  swap1\n  0x0100\n  exp\n  swap1\n  div\n  0xffffffffffffffffffffffffffffffffffffffff\n  and\n    /* \"contracts/ERC1404TokenMinKYCv12.sol\":3673:3697  _sellRestriction[_owner] */\n  0xffffffffffffffffffffffffffffffffffffffff\n  and\n  0xffffffffffffffffffffffffffffffffffffffff\n  and\n  dup2\n  mstore\n  0x20\n  add\n  swap1\n  dup2\n  mstore\n  0x20\n  add\n  0x00\n  keccak256\n    /* \"contracts/ERC1404TokenMinKYCv12.sol\":3673:3701  _sellRestriction[_owner] = 1 */\n  dup2\n  swap1\n  sstore\n  pop\n    /* \"contracts/ERC1404TokenMinKYCv12.sol\":3752:3753  1 */\n  0x01\n    /* \"contracts/ERC1404TokenMinKYCv12.sol\":3706:3721  _buyRestriction */\n  0x00\n    /* \"contracts/ERC1404TokenMinKYCv12.sol\":3706:3749  _buyRestriction[_atomicSwapContractAddress] */\n  dup1\n    /* \"contracts/ERC1404TokenMinKYCv12.sol\":3722:3748  _atomicSwapContractAddress */\n  dup4\n    /* \"contracts/ERC1404TokenMinKYCv12.sol\":3706:3749  _buyRestriction[_atomicSwapContractAddress] */\n  0xffffffffffffffffffffffffffffffffffffffff\n  and\n  0xffffffffffffffffffffffffffffffffffffffff\n  and\n  dup2\n  mstore\n  0x20\n  add\n  swap1\n  dup2\n  mstore\n  0x20\n  add\n  0x00\n  keccak256\n    /* \"contracts/ERC1404TokenMinKYCv12.sol\":3706:3753  _buyRestriction[_atomicSwapContractAddress] = 1 */\n  dup2\n  swap1\n  sstore\n  pop\n    /* \"contracts/ERC1404TokenMinKYCv12.sol\":3805:3806  1 */\n  0x01\n    /* \"contracts/ERC1404TokenMinKYCv12.sol\":3758:3774  _sellRestriction */\n  dup1\n    /* \"contracts/ERC1404TokenMinKYCv12.sol\":3758:3802  _sellRestriction[_atomicSwapContractAddress] */\n  0x00\n    /* \"contracts/ERC1404TokenMinKYCv12.sol\":3775:3801  _atomicSwapContractAddress */\n  dup4\n    /* \"contracts/ERC1404TokenMinKYCv12.sol\":3758:3802  _sellRestriction[_atomicSwapContractAddress] */\n  0xffffffffffffffffffffffffffffffffffffffff\n  and\n  0xffffffffffffffffffffffffffffffffffffffff\n  and\n  dup2\n  mstore\n  0x20\n  add\n  swap1\n  dup2\n  mstore\n  0x20\n  add\n  0x00\n  keccak256\n    /* \"contracts/ERC1404TokenMinKYCv12.sol\":3758:3806  _sellRestriction[_atomicSwapContractAddress] = 1 */\n  dup2\n  swap1\n  sstore\n  pop\n    /* \"contracts/ERC1404TokenMinKYCv12.sol\":3832:3849  _allowedInvestors */\n  dup6\n    /* \"contracts/ERC1404TokenMinKYCv12.sol\":3813:3829  allowedInvestors */\n  0x11\n    /* \"contracts/ERC1404TokenMinKYCv12.sol\":3813:3849  allowedInvestors = _allowedInvestors */\n  dup2\n  swap1\n  sstore\n  pop\n    /* \"contracts/ERC1404TokenMinKYCv12.sol\":3910:3924  _initialSupply */\n  dup9\n    /* \"contracts/ERC1404TokenMinKYCv12.sol\":3895:3907  _totalSupply */\n  0x0a\n    /* \"contracts/ERC1404TokenMinKYCv12.sol\":3895:3924  _totalSupply = _initialSupply */\n  dup2\n  swap1\n  sstore\n  pop\n    /* \"contracts/ERC1404TokenMinKYCv12.sol\":3949:3961  _totalSupply */\n  sload(0x0a)\n    /* \"contracts/ERC1404TokenMinKYCv12.sol\":3929:3938  _balances */\n  0x02\n    /* \"contracts/ERC1404TokenMinKYCv12.sol\":3929:3946  _balances[_owner] */\n  0x00\n    /* \"contracts/ERC1404TokenMinKYCv12.sol\":3939:3945  _owner */\n  0x04\n  0x00\n  swap1\n  sload\n  swap1\n  0x0100\n  exp\n  swap1\n  div\n  0xffffffffffffffffffffffffffffffffffffffff\n  and\n    /* \"contracts/ERC1404TokenMinKYCv12.sol\":3929:3946  _balances[_owner] */\n  0xffffffffffffffffffffffffffffffffffffffff\n  and\n  0xffffffffffffffffffffffffffffffffffffffff\n  and\n  dup2\n  mstore\n  0x20\n  add\n  swap1\n  dup2\n  mstore\n  0x20\n  add\n  0x00\n  keccak256\n    /* \"contracts/ERC1404TokenMinKYCv12.sol\":3929:3961  _balances[_owner] = _totalSupply */\n  dup2\n  swap1\n  sstore\n  pop\n    /* \"contracts/ERC1404TokenMinKYCv12.sol\":4057:4061  true */\n  0x01\n    /* \"contracts/ERC1404TokenMinKYCv12.sol\":4020:4046  _whitelistControlAuthority */\n  0x05\n    /* \"contracts/ERC1404TokenMinKYCv12.sol\":4020:4054  _whitelistControlAuthority[_owner] */\n  0x00\n    /* \"contracts/ERC1404TokenMinKYCv12.sol\":4047:4053  _owner */\n  0x04\n  0x00\n  swap1\n  sload\n  swap1\n  0x0100\n  exp\n  swap1\n  div\n  0xffffffffffffffffffffffffffffffffffffffff\n  and\n    /* \"contracts/ERC1404TokenMinKYCv12.sol\":4020:4054  _whitelistControlAuthority[_owner] */\n  0xffffffffffffffffffffffffffffffffffffffff\n  and\n  0xffffffffffffffffffffffffffffffffffffffff\n  and\n  dup2\n  mstore\n  0x20\n  add\n  swap1\n  dup2\n  mstore\n  0x20\n  add\n  0x00\n  keccak256\n  0x00\n    /* \"contracts/ERC1404TokenMinKYCv12.sol\":4020:4061  _whitelistControlAuthority[_owner] = true */\n  0x0100\n  exp\n  dup2\n  sload\n  dup2\n  0xff\n  mul\n  not\n  and\n  swap1\n  dup4\n  iszero\n  iszero\n  mul\n  or\n  swap1\n  sstore\n  pop\n    /* \"contracts/ERC1404TokenMinKYCv12.sol\":4086:4103  _ShareCertificate */\n  dup4\n    /* \"contracts/ERC1404TokenMinKYCv12.sol\":4067:4083  ShareCertificate */\n  0x0d\n    /* \"contracts/ERC1404TokenMinKYCv12.sol\":4067:4103  ShareCertificate = _ShareCertificate */\n  swap1\n  dup1\n  mload\n  swap1\n  0x20\n  add\n  swap1\n  tag_12\n  swap3\n  swap2\n  swap1\n  tag_2\n  jump\t// in\ntag_12:\n  pop\n    /* \"contracts/ERC1404TokenMinKYCv12.sol\":4126:4142  _CompanyHomepage */\n  dup3\n    /* \"contracts/ERC1404TokenMinKYCv12.sol\":4108:4123  CompanyHomepage */\n  0x0e\n    /* \"contracts/ERC1404TokenMinKYCv12.sol\":4108:4142  CompanyHomepage = _CompanyHomepage */\n  swap1\n  dup1\n  mload\n  swap1\n  0x20\n  add\n  swap1\n  tag_13\n  swap3\n  swap2\n  swap1\n  tag_2\n  jump\t// in\ntag_13:\n  pop\n    /* \"contracts/ERC1404TokenMinKYCv12.sol\":4166:4183  _CompanyLegalDocs */\n  dup2\n    /* \"contracts/ERC1404TokenMinKYCv12.sol\":4147:4163  CompanyLegalDocs */\n  0x0f\n    /* \"contracts/ERC1404TokenMinKYCv12.sol\":4147:4183  CompanyLegalDocs = _CompanyLegalDocs */\n  swap1\n  dup1\n  mload\n  swap1\n  0x20\n  add\n  swap1\n  tag_14\n  swap3\n  swap2\n  swap1\n  tag_2\n  jump\t// in\ntag_14:\n  pop\n    /* \"contracts/ERC1404TokenMinKYCv12.sol\":4215:4221  _owner */\n  0x04\n  0x00\n  swap1\n  sload\n  swap1\n  0x0100\n  exp\n  swap1\n  div\n  0xffffffffffffffffffffffffffffffffffffffff\n  and\n    /* \"contracts/ERC1404TokenMinKYCv12.sol\":4194:4236  Transfer(address(0), _owner, _totalSupply) */\n  0xffffffffffffffffffffffffffffffffffffffff\n  and\n    /* \"contracts/ERC1404TokenMinKYCv12.sol\":4211:4212  0 */\n  0x00\n    /* \"contracts/ERC1404TokenMinKYCv12.sol\":4194:4236  Transfer(address(0), _owner, _totalSupply) */\n  0xffffffffffffffffffffffffffffffffffffffff\n  and\n  0xddf252ad1be2c89b69c2b068fc378daa952ba7f163c4a11628f55a4df523b3ef\n    /* \"contracts/ERC1404TokenMinKYCv12.sol\":4223:4235  _totalSupply */\n  sload(0x0a)\n    /* \"contracts/ERC1404TokenMinKYCv12.sol\":4194:4236  Transfer(address(0), _owner, _totalSupply) */\n  mload(0x40)\n  tag_15\n  swap2\n  swap1\n  tag_16\n  jump\t// in\ntag_15:\n  mload(0x40)\n  dup1\n  swap2\n  sub\n  swap1\n  log3\n    /* \"contracts/ERC1404TokenMinKYCv12.sol\":3284:4241  constructor(uint256 _initialSupply, string memory _name,  string memory _symbol, uint256 _allowedInvestors, uint256 _decimals, string memory _ShareCertificate, string memory _CompanyHomepage, string memory _CompanyLegalDocs, address _atomicSwapContractAddress ) {... */\n  pop\n  pop\n  pop\n  pop\n  pop\n  pop\n  pop\n  pop\n  pop\n    /* \"contracts/ERC1404TokenMinKYCv12.sol\":199:16237  contract ERC1404TokenMinKYCv12 is IERC20Token, IERC1404 {... */\n  jump(tag_17)\ntag_2:\n  dup3\n  dup1\n  sload\n  tag_18\n  swap1\n  tag_19\n  jump\t// in\ntag_18:\n  swap1\n  0x00\n  mstore\n  keccak256(0x00, 0x20)\n  swap1\n  0x1f\n  add\n  0x20\n  swap1\n  div\n  dup2\n  add\n  swap3\n  dup3\n  tag_21\n  jumpi\n  0x00\n  dup6\n  sstore\n  jump(tag_20)\ntag_21:\n  dup3\n  0x1f\n  lt\n  tag_22\n  jumpi\n  dup1\n  mload\n  not(0xff)\n  and\n  dup4\n  dup1\n  add\n  or\n  dup6\n  sstore\n  jump(tag_20)\ntag_22:\n  dup3\n  dup1\n  add\n  0x01\n  add\n  dup6\n  sstore\n  dup3\n  iszero\n  tag_20\n  jumpi\n  swap2\n  dup3\n  add\ntag_23:\n  dup3\n  dup2\n  gt\n  iszero\n  tag_24\n  jumpi\n  dup3\n  mload\n  dup3\n  sstore\n  swap2\n  0x20\n  add\n  swap2\n  swap1\n  0x01\n  add\n  swap1\n  jump(tag_23)\ntag_24:\ntag_20:\n  pop\n  swap1\n  pop\n  tag_25\n  swap2\n  swap1\n  tag_26\n  jump\t// in\ntag_25:\n  pop\n  swap1\n  jump\t// out\ntag_26:\ntag_27:\n  dup1\n  dup3\n  gt\n  iszero\n  tag_28\n  jumpi\n  0x00\n  dup2\n  0x00\n  swap1\n  sstore\n  pop\n  0x01\n  add\n  jump(tag_27)\ntag_28:\n  pop\n  swap1\n  jump\t// out\n    /* \"#utility.yul\":7:428   */\ntag_30:\n    /* \"#utility.yul\":96:101   */\n  0x00\n    /* \"#utility.yul\":121:187   */\n  tag_32\n    /* \"#utility.yul\":137:186   */\n  tag_33\n    /* \"#utility.yul\":179:185   */\n  dup5\n    /* \"#utility.yul\":137:186   */\n  tag_34\n  jump\t// in\ntag_33:\n    /* \"#utility.yul\":121:187   */\n  tag_35\n  jump\t// in\ntag_32:\n    /* \"#utility.yul\":112:187   */\n  swap1\n  pop\n    /* \"#utility.yul\":210:216   */\n  dup3\n    /* \"#utility.yul\":203:208   */\n  dup2\n    /* \"#utility.yul\":196:217   */\n  mstore\n    /* \"#utility.yul\":248:252   */\n  0x20\n    /* \"#utility.yul\":241:246   */\n  dup2\n    /* \"#utility.yul\":237:253   */\n  add\n    /* \"#utility.yul\":286:289   */\n  dup5\n    /* \"#utility.yul\":277:283   */\n  dup5\n    /* \"#utility.yul\":272:275   */\n  dup5\n    /* \"#utility.yul\":268:284   */\n  add\n    /* \"#utility.yul\":265:290   */\n  gt\n    /* \"#utility.yul\":262:374   */\n  iszero\n  tag_36\n  jumpi\n    /* \"#utility.yul\":293:372   */\n  tag_37\n  tag_38\n  jump\t// in\ntag_37:\n    /* \"#utility.yul\":262:374   */\ntag_36:\n    /* \"#utility.yul\":383:422   */\n  tag_39\n    /* \"#utility.yul\":415:421   */\n  dup5\n    /* \"#utility.yul\":410:413   */\n  dup3\n    /* \"#utility.yul\":405:408   */\n  dup6\n    /* \"#utility.yul\":383:422   */\n  tag_40\n  jump\t// in\ntag_39:\n    /* \"#utility.yul\":102:428   */\n  pop\n    /* \"#utility.yul\":7:428   */\n  swap4\n  swap3\n  pop\n  pop\n  pop\n  jump\t// out\n    /* \"#utility.yul\":434:577   */\ntag_41:\n    /* \"#utility.yul\":491:496   */\n  0x00\n    /* \"#utility.yul\":522:528   */\n  dup2\n    /* \"#utility.yul\":516:529   */\n  mload\n    /* \"#utility.yul\":507:529   */\n  swap1\n  pop\n    /* \"#utility.yul\":538:571   */\n  tag_43\n    /* \"#utility.yul\":565:570   */\n  dup2\n    /* \"#utility.yul\":538:571   */\n  tag_44\n  jump\t// in\ntag_43:\n    /* \"#utility.yul\":434:577   */\n  swap3\n  swap2\n  pop\n  pop\n  jump\t// out\n    /* \"#utility.yul\":597:952   */\ntag_45:\n    /* \"#utility.yul\":664:669   */\n  0x00\n    /* \"#utility.yul\":713:716   */\n  dup3\n    /* \"#utility.yul\":706:710   */\n  0x1f\n    /* \"#utility.yul\":698:704   */\n  dup4\n    /* \"#utility.yul\":694:711   */\n  add\n    /* \"#utility.yul\":690:717   */\n  slt\n    /* \"#utility.yul\":680:802   */\n  tag_47\n  jumpi\n    /* \"#utility.yul\":721:800   */\n  tag_48\n  tag_49\n  jump\t// in\ntag_48:\n    /* \"#utility.yul\":680:802   */\ntag_47:\n    /* \"#utility.yul\":831:837   */\n  dup2\n    /* \"#utility.yul\":825:838   */\n  mload\n    /* \"#utility.yul\":856:946   */\n  tag_50\n    /* \"#utility.yul\":942:945   */\n  dup5\n    /* \"#utility.yul\":934:940   */\n  dup3\n    /* \"#utility.yul\":927:931   */\n  0x20\n    /* \"#utility.yul\":919:925   */\n  dup7\n    /* \"#utility.yul\":915:932   */\n  add\n    /* \"#utility.yul\":856:946   */\n  tag_30\n  jump\t// in\ntag_50:\n    /* \"#utility.yul\":847:946   */\n  swap2\n  pop\n    /* \"#utility.yul\":670:952   */\n  pop\n    /* \"#utility.yul\":597:952   */\n  swap3\n  swap2\n  pop\n  pop\n  jump\t// out\n    /* \"#utility.yul\":958:1101   */\ntag_51:\n    /* \"#utility.yul\":1015:1020   */\n  0x00\n    /* \"#utility.yul\":1046:1052   */\n  dup2\n    /* \"#utility.yul\":1040:1053   */\n  mload\n    /* \"#utility.yul\":1031:1053   */\n  swap1\n  pop\n    /* \"#utility.yul\":1062:1095   */\n  tag_53\n    /* \"#utility.yul\":1089:1094   */\n  dup2\n    /* \"#utility.yul\":1062:1095   */\n  tag_54\n  jump\t// in\ntag_53:\n    /* \"#utility.yul\":958:1101   */\n  swap3\n  swap2\n  pop\n  pop\n  jump\t// out\n    /* \"#utility.yul\":1107:3577   */\ntag_7:\n    /* \"#utility.yul\":1299:1305   */\n  0x00\n    /* \"#utility.yul\":1307:1313   */\n  dup1\n    /* \"#utility.yul\":1315:1321   */\n  0x00\n    /* \"#utility.yul\":1323:1329   */\n  dup1\n    /* \"#utility.yul\":1331:1337   */\n  0x00\n    /* \"#utility.yul\":1339:1345   */\n  dup1\n    /* \"#utility.yul\":1347:1353   */\n  0x00\n    /* \"#utility.yul\":1355:1361   */\n  dup1\n    /* \"#utility.yul\":1363:1369   */\n  0x00\n    /* \"#utility.yul\":1412:1415   */\n  0x0120\n    /* \"#utility.yul\":1400:1409   */\n  dup11\n    /* \"#utility.yul\":1391:1398   */\n  dup13\n    /* \"#utility.yul\":1387:1410   */\n  sub\n    /* \"#utility.yul\":1383:1416   */\n  slt\n    /* \"#utility.yul\":1380:1500   */\n  iszero\n  tag_56\n  jumpi\n    /* \"#utility.yul\":1419:1498   */\n  tag_57\n  tag_58\n  jump\t// in\ntag_57:\n    /* \"#utility.yul\":1380:1500   */\ntag_56:\n    /* \"#utility.yul\":1539:1540   */\n  0x00\n    /* \"#utility.yul\":1564:1628   */\n  tag_59\n    /* \"#utility.yul\":1620:1627   */\n  dup13\n    /* \"#utility.yul\":1611:1617   */\n  dup3\n    /* \"#utility.yul\":1600:1609   */\n  dup14\n    /* \"#utility.yul\":1596:1618   */\n  add\n    /* \"#utility.yul\":1564:1628   */\n  tag_51\n  jump\t// in\ntag_59:\n    /* \"#utility.yul\":1554:1628   */\n  swap10\n  pop\n    /* \"#utility.yul\":1510:1638   */\n  pop\n    /* \"#utility.yul\":1698:1700   */\n  0x20\n    /* \"#utility.yul\":1687:1696   */\n  dup11\n    /* \"#utility.yul\":1683:1701   */\n  add\n    /* \"#utility.yul\":1677:1702   */\n  mload\n    /* \"#utility.yul\":1729:1747   */\n  0xffffffffffffffff\n    /* \"#utility.yul\":1721:1727   */\n  dup2\n    /* \"#utility.yul\":1718:1748   */\n  gt\n    /* \"#utility.yul\":1715:1832   */\n  iszero\n  tag_60\n  jumpi\n    /* \"#utility.yul\":1751:1830   */\n  tag_61\n  tag_62\n  jump\t// in\ntag_61:\n    /* \"#utility.yul\":1715:1832   */\ntag_60:\n    /* \"#utility.yul\":1856:1930   */\n  tag_63\n    /* \"#utility.yul\":1922:1929   */\n  dup13\n    /* \"#utility.yul\":1913:1919   */\n  dup3\n    /* \"#utility.yul\":1902:1911   */\n  dup14\n    /* \"#utility.yul\":1898:1920   */\n  add\n    /* \"#utility.yul\":1856:1930   */\n  tag_45\n  jump\t// in\ntag_63:\n    /* \"#utility.yul\":1846:1930   */\n  swap9\n  pop\n    /* \"#utility.yul\":1648:1940   */\n  pop\n    /* \"#utility.yul\":2000:2002   */\n  0x40\n    /* \"#utility.yul\":1989:1998   */\n  dup11\n    /* \"#utility.yul\":1985:2003   */\n  add\n    /* \"#utility.yul\":1979:2004   */\n  mload\n    /* \"#utility.yul\":2031:2049   */\n  0xffffffffffffffff\n    /* \"#utility.yul\":2023:2029   */\n  dup2\n    /* \"#utility.yul\":2020:2050   */\n  gt\n    /* \"#utility.yul\":2017:2134   */\n  iszero\n  tag_64\n  jumpi\n    /* \"#utility.yul\":2053:2132   */\n  tag_65\n  tag_62\n  jump\t// in\ntag_65:\n    /* \"#utility.yul\":2017:2134   */\ntag_64:\n    /* \"#utility.yul\":2158:2232   */\n  tag_66\n    /* \"#utility.yul\":2224:2231   */\n  dup13\n    /* \"#utility.yul\":2215:2221   */\n  dup3\n    /* \"#utility.yul\":2204:2213   */\n  dup14\n    /* \"#utility.yul\":2200:2222   */\n  add\n    /* \"#utility.yul\":2158:2232   */\n  tag_45\n  jump\t// in\ntag_66:\n    /* \"#utility.yul\":2148:2232   */\n  swap8\n  pop\n    /* \"#utility.yul\":1950:2242   */\n  pop\n    /* \"#utility.yul\":2281:2283   */\n  0x60\n    /* \"#utility.yul\":2307:2371   */\n  tag_67\n    /* \"#utility.yul\":2363:2370   */\n  dup13\n    /* \"#utility.yul\":2354:2360   */\n  dup3\n    /* \"#utility.yul\":2343:2352   */\n  dup14\n    /* \"#utility.yul\":2339:2361   */\n  add\n    /* \"#utility.yul\":2307:2371   */\n  tag_51\n  jump\t// in\ntag_67:\n    /* \"#utility.yul\":2297:2371   */\n  swap7\n  pop\n    /* \"#utility.yul\":2252:2381   */\n  pop\n    /* \"#utility.yul\":2420:2423   */\n  0x80\n    /* \"#utility.yul\":2447:2511   */\n  tag_68\n    /* \"#utility.yul\":2503:2510   */\n  dup13\n    /* \"#utility.yul\":2494:2500   */\n  dup3\n    /* \"#utility.yul\":2483:2492   */\n  dup14\n    /* \"#utility.yul\":2479:2501   */\n  add\n    /* \"#utility.yul\":2447:2511   */\n  tag_51\n  jump\t// in\ntag_68:\n    /* \"#utility.yul\":2437:2511   */\n  swap6\n  pop\n    /* \"#utility.yul\":2391:2521   */\n  pop\n    /* \"#utility.yul\":2581:2584   */\n  0xa0\n    /* \"#utility.yul\":2570:2579   */\n  dup11\n    /* \"#utility.yul\":2566:2585   */\n  add\n    /* \"#utility.yul\":2560:2586   */\n  mload\n    /* \"#utility.yul\":2613:2631   */\n  0xffffffffffffffff\n    /* \"#utility.yul\":2605:2611   */\n  dup2\n    /* \"#utility.yul\":2602:2632   */\n  gt\n    /* \"#utility.yul\":2599:2716   */\n  iszero\n  tag_69\n  jumpi\n    /* \"#utility.yul\":2635:2714   */\n  tag_70\n  tag_62\n  jump\t// in\ntag_70:\n    /* \"#utility.yul\":2599:2716   */\ntag_69:\n    /* \"#utility.yul\":2740:2814   */\n  tag_71\n    /* \"#utility.yul\":2806:2813   */\n  dup13\n    /* \"#utility.yul\":2797:2803   */\n  dup3\n    /* \"#utility.yul\":2786:2795   */\n  dup14\n    /* \"#utility.yul\":2782:2804   */\n  add\n    /* \"#utility.yul\":2740:2814   */\n  tag_45\n  jump\t// in\ntag_71:\n    /* \"#utility.yul\":2730:2814   */\n  swap5\n  pop\n    /* \"#utility.yul\":2531:2824   */\n  pop\n    /* \"#utility.yul\":2884:2887   */\n  0xc0\n    /* \"#utility.yul\":2873:2882   */\n  dup11\n    /* \"#utility.yul\":2869:2888   */\n  add\n    /* \"#utility.yul\":2863:2889   */\n  mload\n    /* \"#utility.yul\":2916:2934   */\n  0xffffffffffffffff\n    /* \"#utility.yul\":2908:2914   */\n  dup2\n    /* \"#utility.yul\":2905:2935   */\n  gt\n    /* \"#utility.yul\":2902:3019   */\n  iszero\n  tag_72\n  jumpi\n    /* \"#utility.yul\":2938:3017   */\n  tag_73\n  tag_62\n  jump\t// in\ntag_73:\n    /* \"#utility.yul\":2902:3019   */\ntag_72:\n    /* \"#utility.yul\":3043:3117   */\n  tag_74\n    /* \"#utility.yul\":3109:3116   */\n  dup13\n    /* \"#utility.yul\":3100:3106   */\n  dup3\n    /* \"#utility.yul\":3089:3098   */\n  dup14\n    /* \"#utility.yul\":3085:3107   */\n  add\n    /* \"#utility.yul\":3043:3117   */\n  tag_45\n  jump\t// in\ntag_74:\n    /* \"#utility.yul\":3033:3117   */\n  swap4\n  pop\n    /* \"#utility.yul\":2834:3127   */\n  pop\n    /* \"#utility.yul\":3187:3190   */\n  0xe0\n    /* \"#utility.yul\":3176:3185   */\n  dup11\n    /* \"#utility.yul\":3172:3191   */\n  add\n    /* \"#utility.yul\":3166:3192   */\n  mload\n    /* \"#utility.yul\":3219:3237   */\n  0xffffffffffffffff\n    /* \"#utility.yul\":3211:3217   */\n  dup2\n    /* \"#utility.yul\":3208:3238   */\n  gt\n    /* \"#utility.yul\":3205:3322   */\n  iszero\n  tag_75\n  jumpi\n    /* \"#utility.yul\":3241:3320   */\n  tag_76\n  tag_62\n  jump\t// in\ntag_76:\n    /* \"#utility.yul\":3205:3322   */\ntag_75:\n    /* \"#utility.yul\":3346:3420   */\n  tag_77\n    /* \"#utility.yul\":3412:3419   */\n  dup13\n    /* \"#utility.yul\":3403:3409   */\n  dup3\n    /* \"#utility.yul\":3392:3401   */\n  dup14\n    /* \"#utility.yul\":3388:3410   */\n  add\n    /* \"#utility.yul\":3346:3420   */\n  tag_45\n  jump\t// in\ntag_77:\n    /* \"#utility.yul\":3336:3420   */\n  swap3\n  pop\n    /* \"#utility.yul\":3137:3430   */\n  pop\n    /* \"#utility.yul\":3469:3472   */\n  0x0100\n    /* \"#utility.yul\":3496:3560   */\n  tag_78\n    /* \"#utility.yul\":3552:3559   */\n  dup13\n    /* \"#utility.yul\":3543:3549   */\n  dup3\n    /* \"#utility.yul\":3532:3541   */\n  dup14\n    /* \"#utility.yul\":3528:3550   */\n  add\n    /* \"#utility.yul\":3496:3560   */\n  tag_41\n  jump\t// in\ntag_78:\n    /* \"#utility.yul\":3486:3560   */\n  swap2\n  pop\n    /* \"#utility.yul\":3440:3570   */\n  pop\n    /* \"#utility.yul\":1107:3577   */\n  swap3\n  swap6\n  swap9\n  pop\n  swap3\n  swap6\n  swap9\n  pop\n  swap3\n  swap6\n  swap9\n  jump\t// out\n    /* \"#utility.yul\":3583:3701   */\ntag_79:\n    /* \"#utility.yul\":3670:3694   */\n  tag_81\n    /* \"#utility.yul\":3688:3693   */\n  dup2\n    /* \"#utility.yul\":3670:3694   */\n  tag_82\n  jump\t// in\ntag_81:\n    /* \"#utility.yul\":3665:3668   */\n  dup3\n    /* \"#utility.yul\":3658:3695   */\n  mstore\n    /* \"#utility.yul\":3583:3701   */\n  pop\n  pop\n  jump\t// out\n    /* \"#utility.yul\":3707:3929   */\ntag_16:\n    /* \"#utility.yul\":3800:3804   */\n  0x00\n    /* \"#utility.yul\":3838:3840   */\n  0x20\n    /* \"#utility.yul\":3827:3836   */\n  dup3\n    /* \"#utility.yul\":3823:3841   */\n  add\n    /* \"#utility.yul\":3815:3841   */\n  swap1\n  pop\n    /* \"#utility.yul\":3851:3922   */\n  tag_84\n    /* \"#utility.yul\":3919:3920   */\n  0x00\n    /* \"#utility.yul\":3908:3917   */\n  dup4\n    /* \"#utility.yul\":3904:3921   */\n  add\n    /* \"#utility.yul\":3895:3901   */\n  dup5\n    /* \"#utility.yul\":3851:3922   */\n  tag_79\n  jump\t// in\ntag_84:\n    /* \"#utility.yul\":3707:3929   */\n  swap3\n  swap2\n  pop\n  pop\n  jump\t// out\n    /* \"#utility.yul\":3935:4064   */\ntag_35:\n    /* \"#utility.yul\":3969:3975   */\n  0x00\n    /* \"#utility.yul\":3996:4016   */\n  tag_86\n  tag_87\n  jump\t// in\ntag_86:\n    /* \"#utility.yul\":3986:4016   */\n  swap1\n  pop\n    /* \"#utility.yul\":4025:4058   */\n  tag_88\n    /* \"#utility.yul\":4053:4057   */\n  dup3\n    /* \"#utility.yul\":4045:4051   */\n  dup3\n    /* \"#utility.yul\":4025:4058   */\n  tag_89\n  jump\t// in\ntag_88:\n    /* \"#utility.yul\":3935:4064   */\n  swap2\n  swap1\n  pop\n  jump\t// out\n    /* \"#utility.yul\":4070:4145   */\ntag_87:\n    /* \"#utility.yul\":4103:4109   */\n  0x00\n    /* \"#utility.yul\":4136:4138   */\n  0x40\n    /* \"#utility.yul\":4130:4139   */\n  mload\n    /* \"#utility.yul\":4120:4139   */\n  swap1\n  pop\n    /* \"#utility.yul\":4070:4145   */\n  swap1\n  jump\t// out\n    /* \"#utility.yul\":4151:4459   */\ntag_34:\n    /* \"#utility.yul\":4213:4217   */\n  0x00\n    /* \"#utility.yul\":4303:4321   */\n  0xffffffffffffffff\n    /* \"#utility.yul\":4295:4301   */\n  dup3\n    /* \"#utility.yul\":4292:4322   */\n  gt\n    /* \"#utility.yul\":4289:4345   */\n  iszero\n  tag_92\n  jumpi\n    /* \"#utility.yul\":4325:4343   */\n  tag_93\n  tag_94\n  jump\t// in\ntag_93:\n    /* \"#utility.yul\":4289:4345   */\ntag_92:\n    /* \"#utility.yul\":4363:4392   */\n  tag_95\n    /* \"#utility.yul\":4385:4391   */\n  dup3\n    /* \"#utility.yul\":4363:4392   */\n  tag_96\n  jump\t// in\ntag_95:\n    /* \"#utility.yul\":4355:4392   */\n  swap1\n  pop\n    /* \"#utility.yul\":4447:4451   */\n  0x20\n    /* \"#utility.yul\":4441:4445   */\n  dup2\n    /* \"#utility.yul\":4437:4452   */\n  add\n    /* \"#utility.yul\":4429:4452   */\n  swap1\n  pop\n    /* \"#utility.yul\":4151:4459   */\n  swap2\n  swap1\n  pop\n  jump\t// out\n    /* \"#utility.yul\":4465:4561   */\ntag_97:\n    /* \"#utility.yul\":4502:4509   */\n  0x00\n    /* \"#utility.yul\":4531:4555   */\n  tag_99\n    /* \"#utility.yul\":4549:4554   */\n  dup3\n    /* \"#utility.yul\":4531:4555   */\n  tag_100\n  jump\t// in\ntag_99:\n    /* \"#utility.yul\":4520:4555   */\n  swap1\n  pop\n    /* \"#utility.yul\":4465:4561   */\n  swap2\n  swap1\n  pop\n  jump\t// out\n    /* \"#utility.yul\":4567:4693   */\ntag_100:\n    /* \"#utility.yul\":4604:4611   */\n  0x00\n    /* \"#utility.yul\":4644:4686   */\n  0xffffffffffffffffffffffffffffffffffffffff\n    /* \"#utility.yul\":4637:4642   */\n  dup3\n    /* \"#utility.yul\":4633:4687   */\n  and\n    /* \"#utility.yul\":4622:4687   */\n  swap1\n  pop\n    /* \"#utility.yul\":4567:4693   */\n  swap2\n  swap1\n  pop\n  jump\t// out\n    /* \"#utility.yul\":4699:4776   */\ntag_82:\n    /* \"#utility.yul\":4736:4743   */\n  0x00\n    /* \"#utility.yul\":4765:4770   */\n  dup2\n    /* \"#utility.yul\":4754:4770   */\n  swap1\n  pop\n    /* \"#utility.yul\":4699:4776   */\n  swap2\n  swap1\n  pop\n  jump\t// out\n    /* \"#utility.yul\":4782:5089   */\ntag_40:\n    /* \"#utility.yul\":4850:4851   */\n  0x00\n    /* \"#utility.yul\":4860:4973   */\ntag_104:\n    /* \"#utility.yul\":4874:4880   */\n  dup4\n    /* \"#utility.yul\":4871:4872   */\n  dup2\n    /* \"#utility.yul\":4868:4881   */\n  lt\n    /* \"#utility.yul\":4860:4973   */\n  iszero\n  tag_106\n  jumpi\n    /* \"#utility.yul\":4959:4960   */\n  dup1\n    /* \"#utility.yul\":4954:4957   */\n  dup3\n    /* \"#utility.yul\":4950:4961   */\n  add\n    /* \"#utility.yul\":4944:4962   */\n  mload\n    /* \"#utility.yul\":4940:4941   */\n  dup2\n    /* \"#utility.yul\":4935:4938   */\n  dup5\n    /* \"#utility.yul\":4931:4942   */\n  add\n    /* \"#utility.yul\":4924:4963   */\n  mstore\n    /* \"#utility.yul\":4896:4898   */\n  0x20\n    /* \"#utility.yul\":4893:4894   */\n  dup2\n    /* \"#utility.yul\":4889:4899   */\n  add\n    /* \"#utility.yul\":4884:4899   */\n  swap1\n  pop\n    /* \"#utility.yul\":4860:4973   */\n  jump(tag_104)\ntag_106:\n    /* \"#utility.yul\":4991:4997   */\n  dup4\n    /* \"#utility.yul\":4988:4989   */\n  dup2\n    /* \"#utility.yul\":4985:4998   */\n  gt\n    /* \"#utility.yul\":4982:5083   */\n  iszero\n  tag_107\n  jumpi\n    /* \"#utility.yul\":5071:5072   */\n  0x00\n    /* \"#utility.yul\":5062:5068   */\n  dup5\n    /* \"#utility.yul\":5057:5060   */\n  dup5\n    /* \"#utility.yul\":5053:5069   */\n  add\n    /* \"#utility.yul\":5046:5073   */\n  mstore\n    /* \"#utility.yul\":4982:5083   */\ntag_107:\n    /* \"#utility.yul\":4831:5089   */\n  pop\n    /* \"#utility.yul\":4782:5089   */\n  pop\n  pop\n  pop\n  jump\t// out\n    /* \"#utility.yul\":5095:5415   */\ntag_19:\n    /* \"#utility.yul\":5139:5145   */\n  0x00\n    /* \"#utility.yul\":5176:5177   */\n  0x02\n    /* \"#utility.yul\":5170:5174   */\n  dup3\n    /* \"#utility.yul\":5166:5178   */\n  div\n    /* \"#utility.yul\":5156:5178   */\n  swap1\n  pop\n    /* \"#utility.yul\":5223:5224   */\n  0x01\n    /* \"#utility.yul\":5217:5221   */\n  dup3\n    /* \"#utility.yul\":5213:5225   */\n  and\n    /* \"#utility.yul\":5244:5262   */\n  dup1\n    /* \"#utility.yul\":5234:5315   */\n  tag_109\n  jumpi\n    /* \"#utility.yul\":5300:5304   */\n  0x7f\n    /* \"#utility.yul\":5292:5298   */\n  dup3\n    /* \"#utility.yul\":5288:5305   */\n  and\n    /* \"#utility.yul\":5278:5305   */\n  swap2\n  pop\n    /* \"#utility.yul\":5234:5315   */\ntag_109:\n    /* \"#utility.yul\":5362:5364   */\n  0x20\n    /* \"#utility.yul\":5354:5360   */\n  dup3\n    /* \"#utility.yul\":5351:5365   */\n  lt\n    /* \"#utility.yul\":5331:5349   */\n  dup2\n    /* \"#utility.yul\":5328:5366   */\n  eq\n    /* \"#utility.yul\":5325:5409   */\n  iszero\n  tag_110\n  jumpi\n    /* \"#utility.yul\":5381:5399   */\n  tag_111\n  tag_112\n  jump\t// in\ntag_111:\n    /* \"#utility.yul\":5325:5409   */\ntag_110:\n    /* \"#utility.yul\":5146:5415   */\n  pop\n    /* \"#utility.yul\":5095:5415   */\n  swap2\n  swap1\n  pop\n  jump\t// out\n    /* \"#utility.yul\":5421:5702   */\ntag_89:\n    /* \"#utility.yul\":5504:5531   */\n  tag_114\n    /* \"#utility.yul\":5526:5530   */\n  dup3\n    /* \"#utility.yul\":5504:5531   */\n  tag_96\n  jump\t// in\ntag_114:\n    /* \"#utility.yul\":5496:5502   */\n  dup2\n    /* \"#utility.yul\":5492:5532   */\n  add\n    /* \"#utility.yul\":5634:5640   */\n  dup2\n    /* \"#utility.yul\":5622:5632   */\n  dup2\n    /* \"#utility.yul\":5619:5641   */\n  lt\n    /* \"#utility.yul\":5598:5616   */\n  0xffffffffffffffff\n    /* \"#utility.yul\":5586:5596   */\n  dup3\n    /* \"#utility.yul\":5583:5617   */\n  gt\n    /* \"#utility.yul\":5580:5642   */\n  or\n    /* \"#utility.yul\":5577:5665   */\n  iszero\n  tag_115\n  jumpi\n    /* \"#utility.yul\":5645:5663   */\n  tag_116\n  tag_94\n  jump\t// in\ntag_116:\n    /* \"#utility.yul\":5577:5665   */\ntag_115:\n    /* \"#utility.yul\":5685:5695   */\n  dup1\n    /* \"#utility.yul\":5681:5683   */\n  0x40\n    /* \"#utility.yul\":5674:5696   */\n  mstore\n    /* \"#utility.yul\":5464:5702   */\n  pop\n    /* \"#utility.yul\":5421:5702   */\n  pop\n  pop\n  jump\t// out\n    /* \"#utility.yul\":5708:5888   */\ntag_112:\n    /* \"#utility.yul\":5756:5833   */\n  0x4e487b7100000000000000000000000000000000000000000000000000000000\n    /* \"#utility.yul\":5753:5754   */\n  0x00\n    /* \"#utility.yul\":5746:5834   */\n  mstore\n    /* \"#utility.yul\":5853:5857   */\n  0x22\n    /* \"#utility.yul\":5850:5851   */\n  0x04\n    /* \"#utility.yul\":5843:5858   */\n  mstore\n    /* \"#utility.yul\":5877:5881   */\n  0x24\n    /* \"#utility.yul\":5874:5875   */\n  0x00\n    /* \"#utility.yul\":5867:5882   */\n  revert\n    /* \"#utility.yul\":5894:6074   */\ntag_94:\n    /* \"#utility.yul\":5942:6019   */\n  0x4e487b7100000000000000000000000000000000000000000000000000000000\n    /* \"#utility.yul\":5939:5940   */\n  0x00\n    /* \"#utility.yul\":5932:6020   */\n  mstore\n    /* \"#utility.yul\":6039:6043   */\n  0x41\n    /* \"#utility.yul\":6036:6037   */\n  0x04\n    /* \"#utility.yul\":6029:6044   */\n  mstore\n    /* \"#utility.yul\":6063:6067   */\n  0x24\n    /* \"#utility.yul\":6060:6061   */\n  0x00\n    /* \"#utility.yul\":6053:6068   */\n  revert\n    /* \"#utility.yul\":6080:6197   */\ntag_49:\n    /* \"#utility.yul\":6189:6190   */\n  0x00\n    /* \"#utility.yul\":6186:6187   */\n  dup1\n    /* \"#utility.yul\":6179:6191   */\n  revert\n    /* \"#utility.yul\":6203:6320   */\ntag_38:\n    /* \"#utility.yul\":6312:6313   */\n  0x00\n    /* \"#utility.yul\":6309:6310   */\n  dup1\n    /* \"#utility.yul\":6302:6314   */\n  revert\n    /* \"#utility.yul\":6326:6443   */\ntag_62:\n    /* \"#utility.yul\":6435:6436   */\n  0x00\n    /* \"#utility.yul\":6432:6433   */\n  dup1\n    /* \"#utility.yul\":6425:6437   */\n  revert\n    /* \"#utility.yul\":6449:6566   */\ntag_58:\n    /* \"#utility.yul\":6558:6559   */\n  0x00\n    /* \"#utility.yul\":6555:6556   */\n  dup1\n    /* \"#utility.yul\":6548:6560   */\n  revert\n    /* \"#utility.yul\":6572:6674   */\ntag_96:\n    /* \"#utility.yul\":6613:6619   */\n  0x00\n    /* \"#utility.yul\":6664:6666   */\n  0x1f\n    /* \"#utility.yul\":6660:6667   */\n  not\n    /* \"#utility.yul\":6655:6657   */\n  0x1f\n    /* \"#utility.yul\":6648:6653   */\n  dup4\n    /* \"#utility.yul\":6644:6658   */\n  add\n    /* \"#utility.yul\":6640:6668   */\n  and\n    /* \"#utility.yul\":6630:6668   */\n  swap1\n  pop\n    /* \"#utility.yul\":6572:6674   */\n  swap2\n  swap1\n  pop\n  jump\t// out\n    /* \"#utility.yul\":6680:6802   */\ntag_44:\n    /* \"#utility.yul\":6753:6777   */\n  tag_125\n    /* \"#utility.yul\":6771:6776   */\n  dup2\n    /* \"#utility.yul\":6753:6777   */\n  tag_97\n  jump\t// in\ntag_125:\n    /* \"#utility.yul\":6746:6751   */\n  dup2\n    /* \"#utility.yul\":6743:6778   */\n  eq\n    /* \"#utility.yul\":6733:6796   */\n  tag_126\n  jumpi\n    /* \"#utility.yul\":6792:6793   */\n  0x00\n    /* \"#utility.yul\":6789:6790   */\n  dup1\n    /* \"#utility.yul\":6782:6794   */\n  revert\n    /* \"#utility.yul\":6733:6796   */\ntag_126:\n    /* \"#utility.yul\":6680:6802   */\n  pop\n  jump\t// out\n    /* \"#utility.yul\":6808:6930   */\ntag_54:\n    /* \"#utility.yul\":6881:6905   */\n  tag_128\n    /* \"#utility.yul\":6899:6904   */\n  dup2\n    /* \"#utility.yul\":6881:6905   */\n  tag_82\n  jump\t// in\ntag_128:\n    /* \"#utility.yul\":6874:6879   */\n  dup2\n    /* \"#utility.yul\":6871:6906   */\n  eq\n    /* \"#utility.yul\":6861:6924   */\n  tag_129\n  jumpi\n    /* \"#utility.yul\":6920:6921   */\n  0x00\n    /* \"#utility.yul\":6917:6918   */\n  dup1\n    /* \"#utility.yul\":6910:6922   */\n  revert\n    /* \"#utility.yul\":6861:6924   */\ntag_129:\n    /* \"#utility.yul\":6808:6930   */\n  pop\n  jump\t// out\n    /* \"contracts/ERC1404TokenMinKYCv12.sol\":199:16237  contract ERC1404TokenMinKYCv12 is IERC20Token, IERC1404 {... */\ntag_17:\n  dataSize(sub_0)\n  dup1\n  dataOffset(sub_0)\n  0x00\n  codecopy\n  0x00\n  return\nstop\n\nsub_0: assembly {\n        /* \"contracts/ERC1404TokenMinKYCv12.sol\":199:16237  contract ERC1404TokenMinKYCv12 is IERC20Token, IERC1404 {... */\n      mstore(0x40, 0x80)\n      callvalue\n      dup1\n      iszero\n      tag_1\n      jumpi\n      0x00\n      dup1\n      revert\n    tag_1:\n      pop\n      jumpi(tag_2, lt(calldatasize, 0x04))\n      shr(0xe0, calldataload(0x00))\n      dup1\n      0x84f9007f\n      gt\n      tag_47\n      jumpi\n      dup1\n      0xb1b5932a\n      gt\n      tag_48\n      jumpi\n      dup1\n      0xda76e2f3\n      gt\n      tag_49\n      jumpi\n      dup1\n      0xda76e2f3\n      eq\n      tag_41\n      jumpi\n      dup1\n      0xdd62ed3e\n      eq\n      tag_42\n      jumpi\n      dup1\n      0xe59e8013\n      eq\n      tag_43\n      jumpi\n      dup1\n      0xe8379421\n      eq\n      tag_44\n      jumpi\n      dup1\n      0xf2fde38b\n      eq\n      tag_45\n      jumpi\n      dup1\n      0xfd80f5d6\n      eq\n      tag_46\n      jumpi\n      jump(tag_2)\n    tag_49:\n      dup1\n      0xb1b5932a\n      eq\n      tag_36\n      jumpi\n      dup1\n      0xb5b7e6ee\n      eq\n      tag_37\n      jumpi\n      dup1\n      0xb8071575\n      eq\n      tag_38\n      jumpi\n      dup1\n      0xc319e41c\n      eq\n      tag_39\n      jumpi\n      dup1\n      0xd4ce1415\n      eq\n      tag_40\n      jumpi\n      jump(tag_2)\n    tag_48:\n      dup1\n      0x9dc29fac\n      gt\n      tag_50\n      jumpi\n      dup1\n      0x9dc29fac\n      eq\n      tag_30\n      jumpi\n      dup1\n      0xa9059cbb\n      eq\n      tag_31\n      jumpi\n      dup1\n      0xab47a2f9\n      eq\n      tag_32\n      jumpi\n      dup1\n      0xabc30a4b\n      eq\n      tag_33\n      jumpi\n      dup1\n      0xac893db1\n      eq\n      tag_34\n      jumpi\n      dup1\n      0xb091da94\n      eq\n      tag_35\n      jumpi\n      jump(tag_2)\n    tag_50:\n      dup1\n      0x84f9007f\n      eq\n      tag_25\n      jumpi\n      dup1\n      0x8d80e4a0\n      eq\n      tag_26\n      jumpi\n      dup1\n      0x8da5cb5b\n      eq\n      tag_27\n      jumpi\n      dup1\n      0x8fe32e12\n      eq\n      tag_28\n      jumpi\n      dup1\n      0x95d89b41\n      eq\n      tag_29\n      jumpi\n      jump(tag_2)\n    tag_47:\n      dup1\n      0x51aebcd4\n      gt\n      tag_51\n      jumpi\n      dup1\n      0x6401ca76\n      gt\n      tag_52\n      jumpi\n      dup1\n      0x6401ca76\n      eq\n      tag_19\n      jumpi\n      dup1\n      0x654b6f15\n      eq\n      tag_20\n      jumpi\n      dup1\n      0x70a08231\n      eq\n      tag_21\n      jumpi\n      dup1\n      0x7169698c\n      eq\n      tag_22\n      jumpi\n      dup1\n      0x7cae04f7\n      eq\n      tag_23\n      jumpi\n      dup1\n      0x7f4ab1dd\n      eq\n      tag_24\n      jumpi\n      jump(tag_2)\n    tag_52:\n      dup1\n      0x51aebcd4\n      eq\n      tag_14\n      jumpi\n      dup1\n      0x54fd4d50\n      eq\n      tag_15\n      jumpi\n      dup1\n      0x59a72ddc\n      eq\n      tag_16\n      jumpi\n      dup1\n      0x62a3d4bd\n      eq\n      tag_17\n      jumpi\n      dup1\n      0x639c86ce\n      eq\n      tag_18\n      jumpi\n      jump(tag_2)\n    tag_51:\n      dup1\n      0x23b872dd\n      gt\n      tag_53\n      jumpi\n      dup1\n      0x23b872dd\n      eq\n      tag_8\n      jumpi\n      dup1\n      0x2b8e797a\n      eq\n      tag_9\n      jumpi\n      dup1\n      0x313ce567\n      eq\n      tag_10\n      jumpi\n      dup1\n      0x3a24ddc5\n      eq\n      tag_11\n      jumpi\n      dup1\n      0x40c10f19\n      eq\n      tag_12\n      jumpi\n      dup1\n      0x45968836\n      eq\n      tag_13\n      jumpi\n      jump(tag_2)\n    tag_53:\n      dup1\n      0x06fdde03\n      eq\n      tag_3\n      jumpi\n      dup1\n      0x095ea7b3\n      eq\n      tag_4\n      jumpi\n      dup1\n      0x09fc3892\n      eq\n      tag_5\n      jumpi\n      dup1\n      0x11d6f0aa\n      eq\n      tag_6\n      jumpi\n      dup1\n      0x18160ddd\n      eq\n      tag_7\n      jumpi\n    tag_2:\n      0x00\n      dup1\n      revert\n        /* \"contracts/ERC1404TokenMinKYCv12.sol\":2331:2349  string public name */\n    tag_3:\n      tag_54\n      tag_55\n      jump\t// in\n    tag_54:\n      mload(0x40)\n      tag_56\n      swap2\n      swap1\n      tag_57\n      jump\t// in\n    tag_56:\n      mload(0x40)\n      dup1\n      swap2\n      sub\n      swap1\n      return\n        /* \"contracts/ERC1404TokenMinKYCv12.sol\":13226:13593  function approve(... */\n    tag_4:\n      tag_58\n      0x04\n      dup1\n      calldatasize\n      sub\n      dup2\n      add\n      swap1\n      tag_59\n      swap2\n      swap1\n      tag_60\n      jump\t// in\n    tag_59:\n      tag_61\n      jump\t// in\n    tag_58:\n      mload(0x40)\n      tag_62\n      swap2\n      swap1\n      tag_63\n      jump\t// in\n    tag_62:\n      mload(0x40)\n      dup1\n      swap2\n      sub\n      swap1\n      return\n        /* \"contracts/ERC1404TokenMinKYCv12.sol\":7083:7469  function bulkWhitelistWallets (... */\n    tag_5:\n      tag_64\n      0x04\n      dup1\n      calldatasize\n      sub\n      dup2\n      add\n      swap1\n      tag_65\n      swap2\n      swap1\n      tag_66\n      jump\t// in\n    tag_65:\n      tag_67\n      jump\t// in\n    tag_64:\n      stop\n        /* \"contracts/ERC1404TokenMinKYCv12.sol\":2882:2936  uint8 public constant Max_Allowed_Investors_Exceed = 1 */\n    tag_6:\n      tag_68\n      tag_69\n      jump\t// in\n    tag_68:\n      mload(0x40)\n      tag_70\n      swap2\n      swap1\n      tag_71\n      jump\t// in\n    tag_70:\n      mload(0x40)\n      dup1\n      swap2\n      sub\n      swap1\n      return\n        /* \"contracts/ERC1404TokenMinKYCv12.sol\":12977:13075  function totalSupply() ... */\n    tag_7:\n      tag_72\n      tag_73\n      jump\t// in\n    tag_72:\n      mload(0x40)\n      tag_74\n      swap2\n      swap1\n      tag_75\n      jump\t// in\n    tag_74:\n      mload(0x40)\n      dup1\n      swap2\n      sub\n      swap1\n      return\n        /* \"contracts/ERC1404TokenMinKYCv12.sol\":14019:14498  function transferFrom(... */\n    tag_8:\n      tag_76\n      0x04\n      dup1\n      calldatasize\n      sub\n      dup2\n      add\n      swap1\n      tag_77\n      swap2\n      swap1\n      tag_78\n      jump\t// in\n    tag_77:\n      tag_79\n      jump\t// in\n    tag_76:\n      mload(0x40)\n      tag_80\n      swap2\n      swap1\n      tag_63\n      jump\t// in\n    tag_80:\n      mload(0x40)\n      dup1\n      swap2\n      sub\n      swap1\n      return\n        /* \"contracts/ERC1404TokenMinKYCv12.sol\":6763:7080  function modifyKYCData (... */\n    tag_9:\n      tag_81\n      0x04\n      dup1\n      calldatasize\n      sub\n      dup2\n      add\n      swap1\n      tag_82\n      swap2\n      swap1\n      tag_83\n      jump\t// in\n    tag_82:\n      tag_84\n      jump\t// in\n    tag_81:\n      stop\n        /* \"contracts/ERC1404TokenMinKYCv12.sol\":2137:2165  uint256 public decimals = 18 */\n    tag_10:\n      tag_85\n      tag_86\n      jump\t// in\n    tag_85:\n      mload(0x40)\n      tag_87\n      swap2\n      swap1\n      tag_75\n      jump\t// in\n    tag_87:\n      mload(0x40)\n      dup1\n      swap2\n      sub\n      swap1\n      return\n        /* \"contracts/ERC1404TokenMinKYCv12.sol\":14531:14722  function forceTransferToken(... */\n    tag_11:\n      tag_88\n      0x04\n      dup1\n      calldatasize\n      sub\n      dup2\n      add\n      swap1\n      tag_89\n      swap2\n      swap1\n      tag_60\n      jump\t// in\n    tag_89:\n      tag_90\n      jump\t// in\n    tag_88:\n      mload(0x40)\n      tag_91\n      swap2\n      swap1\n      tag_63\n      jump\t// in\n    tag_91:\n      mload(0x40)\n      dup1\n      swap2\n      sub\n      swap1\n      return\n        /* \"contracts/ERC1404TokenMinKYCv12.sol\":15538:15878  function mint(address account, uint256 amount) ... */\n    tag_12:\n      tag_92\n      0x04\n      dup1\n      calldatasize\n      sub\n      dup2\n      add\n      swap1\n      tag_93\n      swap2\n      swap1\n      tag_60\n      jump\t// in\n    tag_93:\n      tag_94\n      jump\t// in\n    tag_92:\n      mload(0x40)\n      tag_95\n      swap2\n      swap1\n      tag_63\n      jump\t// in\n    tag_95:\n      mload(0x40)\n      dup1\n      swap2\n      sub\n      swap1\n      return\n        /* \"contracts/ERC1404TokenMinKYCv12.sol\":2663:2703  uint256 public currentTotalInvestors = 0 */\n    tag_13:\n      tag_96\n      tag_97\n      jump\t// in\n    tag_96:\n      mload(0x40)\n      tag_98\n      swap2\n      swap1\n      tag_75\n      jump\t// in\n    tag_98:\n      mload(0x40)\n      dup1\n      swap2\n      sub\n      swap1\n      return\n        /* \"contracts/ERC1404TokenMinKYCv12.sol\":4627:4812  function resetCompanyLegalDocs(string memory _CompanyLegalDocs) ... */\n    tag_14:\n      tag_99\n      0x04\n      dup1\n      calldatasize\n      sub\n      dup2\n      add\n      swap1\n      tag_100\n      swap2\n      swap1\n      tag_101\n      jump\t// in\n    tag_100:\n      tag_102\n      jump\t// in\n    tag_99:\n      stop\n        /* \"contracts/ERC1404TokenMinKYCv12.sol\":2168:2197  string public version = \"1.2\" */\n    tag_15:\n      tag_103\n      tag_104\n      jump\t// in\n    tag_103:\n      mload(0x40)\n      tag_105\n      swap2\n      swap1\n      tag_57\n      jump\t// in\n    tag_105:\n      mload(0x40)\n      dup1\n      swap2\n      sub\n      swap1\n      return\n        /* \"contracts/ERC1404TokenMinKYCv12.sol\":2380:2410  string public ShareCertificate */\n    tag_16:\n      tag_106\n      tag_107\n      jump\t// in\n    tag_106:\n      mload(0x40)\n      tag_108\n      swap2\n      swap1\n      tag_57\n      jump\t// in\n    tag_108:\n      mload(0x40)\n      dup1\n      swap2\n      sub\n      swap1\n      return\n        /* \"contracts/ERC1404TokenMinKYCv12.sol\":4977:5306  function resetAllowedInvestors(uint256 _allowedInvestors) ... */\n    tag_17:\n      tag_109\n      0x04\n      dup1\n      calldatasize\n      sub\n      dup2\n      add\n      swap1\n      tag_110\n      swap2\n      swap1\n      tag_111\n      jump\t// in\n    tag_110:\n      tag_112\n      jump\t// in\n    tag_109:\n      stop\n        /* \"contracts/ERC1404TokenMinKYCv12.sol\":2748:2787  uint256 public tradingHoldingPeriod = 1 */\n    tag_18:\n      tag_113\n      tag_114\n      jump\t// in\n    tag_113:\n      mload(0x40)\n      tag_115\n      swap2\n      swap1\n      tag_75\n      jump\t// in\n    tag_115:\n      mload(0x40)\n      dup1\n      swap2\n      sub\n      swap1\n      return\n        /* \"contracts/ERC1404TokenMinKYCv12.sol\":2708:2743  uint256 public allowedInvestors = 0 */\n    tag_19:\n      tag_116\n      tag_117\n      jump\t// in\n    tag_116:\n      mload(0x40)\n      tag_118\n      swap2\n      swap1\n      tag_75\n      jump\t// in\n    tag_118:\n      mload(0x40)\n      dup1\n      swap2\n      sub\n      swap1\n      return\n        /* \"contracts/ERC1404TokenMinKYCv12.sol\":2200:2245  string public IssuancePlatform = \"DigiShares\" */\n    tag_20:\n      tag_119\n      tag_120\n      jump\t// in\n    tag_119:\n      mload(0x40)\n      tag_121\n      swap2\n      swap1\n      tag_57\n      jump\t// in\n    tag_121:\n      mload(0x40)\n      dup1\n      swap2\n      sub\n      swap1\n      return\n        /* \"contracts/ERC1404TokenMinKYCv12.sol\":13082:13217  function balanceOf(address account) ... */\n    tag_21:\n      tag_122\n      0x04\n      dup1\n      calldatasize\n      sub\n      dup2\n      add\n      swap1\n      tag_123\n      swap2\n      swap1\n      tag_124\n      jump\t// in\n    tag_123:\n      tag_125\n      jump\t// in\n    tag_122:\n      mload(0x40)\n      tag_126\n      swap2\n      swap1\n      tag_75\n      jump\t// in\n    tag_126:\n      mload(0x40)\n      dup1\n      swap2\n      sub\n      swap1\n      return\n        /* \"contracts/ERC1404TokenMinKYCv12.sol\":2823:2879  uint8 public constant No_Transfer_Restrictions_Found = 0 */\n    tag_22:\n      tag_127\n      tag_128\n      jump\t// in\n    tag_127:\n      mload(0x40)\n      tag_129\n      swap2\n      swap1\n      tag_71\n      jump\t// in\n    tag_129:\n      mload(0x40)\n      dup1\n      swap2\n      sub\n      swap1\n      return\n        /* \"contracts/ERC1404TokenMinKYCv12.sol\":2248:2291  string public issuanceProtocol = \"ERC-1404\" */\n    tag_23:\n      tag_130\n      tag_131\n      jump\t// in\n    tag_130:\n      mload(0x40)\n      tag_132\n      swap2\n      swap1\n      tag_57\n      jump\t// in\n    tag_132:\n      mload(0x40)\n      dup1\n      swap2\n      sub\n      swap1\n      return\n        /* \"contracts/ERC1404TokenMinKYCv12.sol\":11466:12895  function messageForTransferRestriction (uint8 restrictionCode)... */\n    tag_24:\n      tag_133\n      0x04\n      dup1\n      calldatasize\n      sub\n      dup2\n      add\n      swap1\n      tag_134\n      swap2\n      swap1\n      tag_135\n      jump\t// in\n    tag_134:\n      tag_136\n      jump\t// in\n    tag_133:\n      mload(0x40)\n      tag_137\n      swap2\n      swap1\n      tag_57\n      jump\t// in\n    tag_137:\n      mload(0x40)\n      dup1\n      swap2\n      sub\n      swap1\n      return\n        /* \"contracts/ERC1404TokenMinKYCv12.sol\":2413:2442  string public CompanyHomepage */\n    tag_25:\n      tag_138\n      tag_139\n      jump\t// in\n    tag_138:\n      mload(0x40)\n      tag_140\n      swap2\n      swap1\n      tag_57\n      jump\t// in\n    tag_140:\n      mload(0x40)\n      dup1\n      swap2\n      sub\n      swap1\n      return\n        /* \"contracts/ERC1404TokenMinKYCv12.sol\":3041:3100  uint8 public constant Sender_Not_Whitelisted_or_Blocked = 4 */\n    tag_26:\n      tag_141\n      tag_142\n      jump\t// in\n    tag_141:\n      mload(0x40)\n      tag_143\n      swap2\n      swap1\n      tag_71\n      jump\t// in\n    tag_143:\n      mload(0x40)\n      dup1\n      swap2\n      sub\n      swap1\n      return\n        /* \"contracts/ERC1404TokenMinKYCv12.sol\":5641:5726  function owner() ... */\n    tag_27:\n      tag_144\n      tag_145\n      jump\t// in\n    tag_144:\n      mload(0x40)\n      tag_146\n      swap2\n      swap1\n      tag_147\n      jump\t// in\n    tag_146:\n      mload(0x40)\n      dup1\n      swap2\n      sub\n      swap1\n      return\n        /* \"contracts/ERC1404TokenMinKYCv12.sol\":2939:2983  uint8 public constant Transfers_Disabled = 2 */\n    tag_28:\n      tag_148\n      tag_149\n      jump\t// in\n    tag_148:\n      mload(0x40)\n      tag_150\n      swap2\n      swap1\n      tag_71\n      jump\t// in\n    tag_150:\n      mload(0x40)\n      dup1\n      swap2\n      sub\n      swap1\n      return\n        /* \"contracts/ERC1404TokenMinKYCv12.sol\":2355:2375  string public symbol */\n    tag_29:\n      tag_151\n      tag_152\n      jump\t// in\n    tag_151:\n      mload(0x40)\n      tag_153\n      swap2\n      swap1\n      tag_57\n      jump\t// in\n    tag_153:\n      mload(0x40)\n      dup1\n      swap2\n      sub\n      swap1\n      return\n        /* \"contracts/ERC1404TokenMinKYCv12.sol\":15885:16234  function burn(address account, uint256 amount) ... */\n    tag_30:\n      tag_154\n      0x04\n      dup1\n      calldatasize\n      sub\n      dup2\n      add\n      swap1\n      tag_155\n      swap2\n      swap1\n      tag_60\n      jump\t// in\n    tag_155:\n      tag_156\n      jump\t// in\n    tag_154:\n      mload(0x40)\n      tag_157\n      swap2\n      swap1\n      tag_63\n      jump\t// in\n    tag_157:\n      mload(0x40)\n      dup1\n      swap2\n      sub\n      swap1\n      return\n        /* \"contracts/ERC1404TokenMinKYCv12.sol\":13760:14012  function transfer(... */\n    tag_31:\n      tag_158\n      0x04\n      dup1\n      calldatasize\n      sub\n      dup2\n      add\n      swap1\n      tag_159\n      swap2\n      swap1\n      tag_60\n      jump\t// in\n    tag_159:\n      tag_160\n      jump\t// in\n    tag_158:\n      mload(0x40)\n      tag_161\n      swap2\n      swap1\n      tag_63\n      jump\t// in\n    tag_161:\n      mload(0x40)\n      dup1\n      swap2\n      sub\n      swap1\n      return\n        /* \"contracts/ERC1404TokenMinKYCv12.sol\":8160:8305  function getKYCData(address user) ... */\n    tag_32:\n      tag_162\n      0x04\n      dup1\n      calldatasize\n      sub\n      dup2\n      add\n      swap1\n      tag_163\n      swap2\n      swap1\n      tag_124\n      jump\t// in\n    tag_163:\n      tag_164\n      jump\t// in\n    tag_162:\n      mload(0x40)\n      tag_165\n      swap3\n      swap2\n      swap1\n      tag_166\n      jump\t// in\n    tag_165:\n      mload(0x40)\n      dup1\n      swap2\n      sub\n      swap1\n      return\n        /* \"contracts/ERC1404TokenMinKYCv12.sol\":4440:4620  function resetCompanyHomepage(string memory _CompanyHomepage) ... */\n    tag_33:\n      tag_167\n      0x04\n      dup1\n      calldatasize\n      sub\n      dup2\n      add\n      swap1\n      tag_168\n      swap2\n      swap1\n      tag_101\n      jump\t// in\n    tag_168:\n      tag_169\n      jump\t// in\n    tag_167:\n      stop\n        /* \"contracts/ERC1404TokenMinKYCv12.sol\":4248:4434  function resetShareCertificate(string memory _ShareCertificate) ... */\n    tag_34:\n      tag_170\n      0x04\n      dup1\n      calldatasize\n      sub\n      dup2\n      add\n      swap1\n      tag_171\n      swap2\n      swap1\n      tag_101\n      jump\t// in\n    tag_171:\n      tag_172\n      jump\t// in\n    tag_170:\n      stop\n        /* \"contracts/ERC1404TokenMinKYCv12.sol\":2986:3038  uint8 public constant Transfer_Value_Cannot_Zero = 3 */\n    tag_35:\n      tag_173\n      tag_174\n      jump\t// in\n    tag_173:\n      mload(0x40)\n      tag_175\n      swap2\n      swap1\n      tag_71\n      jump\t// in\n    tag_175:\n      mload(0x40)\n      dup1\n      swap2\n      sub\n      swap1\n      return\n        /* \"contracts/ERC1404TokenMinKYCv12.sol\":2445:2475  string public CompanyLegalDocs */\n    tag_36:\n      tag_176\n      tag_177\n      jump\t// in\n    tag_176:\n      mload(0x40)\n      tag_178\n      swap2\n      swap1\n      tag_57\n      jump\t// in\n    tag_178:\n      mload(0x40)\n      dup1\n      swap2\n      sub\n      swap1\n      return\n        /* \"contracts/ERC1404TokenMinKYCv12.sol\":5313:5507  function setTradingHoldingPeriod(uint256 _tradingHoldingPeriod) ... */\n    tag_37:\n      tag_179\n      0x04\n      dup1\n      calldatasize\n      sub\n      dup2\n      add\n      swap1\n      tag_180\n      swap2\n      swap1\n      tag_111\n      jump\t// in\n    tag_180:\n      tag_181\n      jump\t// in\n    tag_179:\n      stop\n        /* \"contracts/ERC1404TokenMinKYCv12.sol\":3167:3220  uint8 public constant Sender_Under_Holding_Period = 6 */\n    tag_38:\n      tag_182\n      tag_183\n      jump\t// in\n    tag_182:\n      mload(0x40)\n      tag_184\n      swap2\n      swap1\n      tag_71\n      jump\t// in\n    tag_184:\n      mload(0x40)\n      dup1\n      swap2\n      sub\n      swap1\n      return\n        /* \"contracts/ERC1404TokenMinKYCv12.sol\":6239:6401  function setWhitelistAuthorityStatus(address user)... */\n    tag_39:\n      tag_185\n      0x04\n      dup1\n      calldatasize\n      sub\n      dup2\n      add\n      swap1\n      tag_186\n      swap2\n      swap1\n      tag_124\n      jump\t// in\n    tag_186:\n      tag_187\n      jump\t// in\n    tag_185:\n      stop\n        /* \"contracts/ERC1404TokenMinKYCv12.sol\":8925:11459  function detectTransferRestriction (address _from, address _to, uint256 value) ... */\n    tag_40:\n      tag_188\n      0x04\n      dup1\n      calldatasize\n      sub\n      dup2\n      add\n      swap1\n      tag_189\n      swap2\n      swap1\n      tag_78\n      jump\t// in\n    tag_189:\n      tag_190\n      jump\t// in\n    tag_188:\n      mload(0x40)\n      tag_191\n      swap2\n      swap1\n      tag_71\n      jump\t// in\n    tag_191:\n      mload(0x40)\n      dup1\n      swap2\n      sub\n      swap1\n      return\n        /* \"contracts/ERC1404TokenMinKYCv12.sol\":6403:6572  function removeWhitelistAuthorityStatus(address user)... */\n    tag_41:\n      tag_192\n      0x04\n      dup1\n      calldatasize\n      sub\n      dup2\n      add\n      swap1\n      tag_193\n      swap2\n      swap1\n      tag_124\n      jump\t// in\n    tag_193:\n      tag_194\n      jump\t// in\n    tag_192:\n      stop\n        /* \"contracts/ERC1404TokenMinKYCv12.sol\":13602:13752  function allowance(address ownby, address spender) ... */\n    tag_42:\n      tag_195\n      0x04\n      dup1\n      calldatasize\n      sub\n      dup2\n      add\n      swap1\n      tag_196\n      swap2\n      swap1\n      tag_197\n      jump\t// in\n    tag_196:\n      tag_198\n      jump\t// in\n    tag_195:\n      mload(0x40)\n      tag_199\n      swap2\n      swap1\n      tag_75\n      jump\t// in\n    tag_199:\n      mload(0x40)\n      dup1\n      swap2\n      sub\n      swap1\n      return\n        /* \"contracts/ERC1404TokenMinKYCv12.sol\":3223:3278  uint8 public constant Receiver_Under_Holding_Period = 7 */\n    tag_43:\n      tag_200\n      tag_201\n      jump\t// in\n    tag_200:\n      mload(0x40)\n      tag_202\n      swap2\n      swap1\n      tag_71\n      jump\t// in\n    tag_202:\n      mload(0x40)\n      dup1\n      swap2\n      sub\n      swap1\n      return\n        /* \"contracts/ERC1404TokenMinKYCv12.sol\":6575:6707  function getWhitelistAuthorityStatus(address user)... */\n    tag_44:\n      tag_203\n      0x04\n      dup1\n      calldatasize\n      sub\n      dup2\n      add\n      swap1\n      tag_204\n      swap2\n      swap1\n      tag_124\n      jump\t// in\n    tag_204:\n      tag_205\n      jump\t// in\n    tag_203:\n      mload(0x40)\n      tag_206\n      swap2\n      swap1\n      tag_63\n      jump\t// in\n    tag_206:\n      mload(0x40)\n      dup1\n      swap2\n      sub\n      swap1\n      return\n        /* \"contracts/ERC1404TokenMinKYCv12.sol\":5851:6025  function transferOwnership(address newOwner) ... */\n    tag_45:\n      tag_207\n      0x04\n      dup1\n      calldatasize\n      sub\n      dup2\n      add\n      swap1\n      tag_208\n      swap2\n      swap1\n      tag_124\n      jump\t// in\n    tag_208:\n      tag_209\n      jump\t// in\n    tag_207:\n      stop\n        /* \"contracts/ERC1404TokenMinKYCv12.sol\":3103:3164  uint8 public constant Receiver_Not_Whitelisted_or_Blocked = 5 */\n    tag_46:\n      tag_210\n      tag_211\n      jump\t// in\n    tag_210:\n      mload(0x40)\n      tag_212\n      swap2\n      swap1\n      tag_71\n      jump\t// in\n    tag_212:\n      mload(0x40)\n      dup1\n      swap2\n      sub\n      swap1\n      return\n        /* \"contracts/ERC1404TokenMinKYCv12.sol\":2331:2349  string public name */\n    tag_55:\n      0x0b\n      dup1\n      sload\n      tag_213\n      swap1\n      tag_214\n      jump\t// in\n    tag_213:\n      dup1\n      0x1f\n      add\n      0x20\n      dup1\n      swap2\n      div\n      mul\n      0x20\n      add\n      mload(0x40)\n      swap1\n      dup2\n      add\n      0x40\n      mstore\n      dup1\n      swap3\n      swap2\n      swap1\n      dup2\n      dup2\n      mstore\n      0x20\n      add\n      dup3\n      dup1\n      sload\n      tag_215\n      swap1\n      tag_214\n      jump\t// in\n    tag_215:\n      dup1\n      iszero\n      tag_216\n      jumpi\n      dup1\n      0x1f\n      lt\n      tag_217\n      jumpi\n      0x0100\n      dup1\n      dup4\n      sload\n      div\n      mul\n      dup4\n      mstore\n      swap2\n      0x20\n      add\n      swap2\n      jump(tag_216)\n    tag_217:\n      dup3\n      add\n      swap2\n      swap1\n      0x00\n      mstore\n      keccak256(0x00, 0x20)\n      swap1\n    tag_218:\n      dup2\n      sload\n      dup2\n      mstore\n      swap1\n      0x01\n      add\n      swap1\n      0x20\n      add\n      dup1\n      dup4\n      gt\n      tag_218\n      jumpi\n      dup3\n      swap1\n      sub\n      0x1f\n      and\n      dup3\n      add\n      swap2\n    tag_216:\n      pop\n      pop\n      pop\n      pop\n      pop\n      dup2\n      jump\t// out\n        /* \"contracts/ERC1404TokenMinKYCv12.sol\":13226:13593  function approve(... */\n    tag_61:\n        /* \"contracts/ERC1404TokenMinKYCv12.sol\":13331:13335  bool */\n      0x00\n        /* \"contracts/ERC1404TokenMinKYCv12.sol\":13375:13376  0 */\n      dup1\n        /* \"contracts/ERC1404TokenMinKYCv12.sol\":13356:13377  spender != address(0) */\n      0xffffffffffffffffffffffffffffffffffffffff\n      and\n        /* \"contracts/ERC1404TokenMinKYCv12.sol\":13356:13363  spender */\n      dup4\n        /* \"contracts/ERC1404TokenMinKYCv12.sol\":13356:13377  spender != address(0) */\n      0xffffffffffffffffffffffffffffffffffffffff\n      and\n      eq\n      iszero\n        /* \"contracts/ERC1404TokenMinKYCv12.sol\":13348:13417  require(spender != address(0), \"Zero address as spender not allowed\") */\n      tag_220\n      jumpi\n      mload(0x40)\n      0x08c379a000000000000000000000000000000000000000000000000000000000\n      dup2\n      mstore\n      0x04\n      add\n      tag_221\n      swap1\n      tag_222\n      jump\t// in\n    tag_221:\n      mload(0x40)\n      dup1\n      swap2\n      sub\n      swap1\n      revert\n    tag_220:\n        /* \"contracts/ERC1404TokenMinKYCv12.sol\":13438:13439  0 */\n      0x00\n        /* \"contracts/ERC1404TokenMinKYCv12.sol\":13429:13435  amount */\n      dup3\n        /* \"contracts/ERC1404TokenMinKYCv12.sol\":13429:13439  amount > 0 */\n      gt\n        /* \"contracts/ERC1404TokenMinKYCv12.sol\":13421:13467  require(amount > 0, \"Zero Amount not allowed\") */\n      tag_223\n      jumpi\n      mload(0x40)\n      0x08c379a000000000000000000000000000000000000000000000000000000000\n      dup2\n      mstore\n      0x04\n      add\n      tag_224\n      swap1\n      tag_225\n      jump\t// in\n    tag_224:\n      mload(0x40)\n      dup1\n      swap2\n      sub\n      swap1\n      revert\n    tag_223:\n        /* \"contracts/ERC1404TokenMinKYCv12.sol\":13513:13519  amount */\n      dup2\n        /* \"contracts/ERC1404TokenMinKYCv12.sol\":13478:13489  _allowances */\n      0x03\n        /* \"contracts/ERC1404TokenMinKYCv12.sol\":13478:13501  _allowances[msg.sender] */\n      0x00\n        /* \"contracts/ERC1404TokenMinKYCv12.sol\":13490:13500  msg.sender */\n      caller\n        /* \"contracts/ERC1404TokenMinKYCv12.sol\":13478:13501  _allowances[msg.sender] */\n      0xffffffffffffffffffffffffffffffffffffffff\n      and\n      0xffffffffffffffffffffffffffffffffffffffff\n      and\n      dup2\n      mstore\n      0x20\n      add\n      swap1\n      dup2\n      mstore\n      0x20\n      add\n      0x00\n      keccak256\n        /* \"contracts/ERC1404TokenMinKYCv12.sol\":13478:13510  _allowances[msg.sender][spender] */\n      0x00\n        /* \"contracts/ERC1404TokenMinKYCv12.sol\":13502:13509  spender */\n      dup6\n        /* \"contracts/ERC1404TokenMinKYCv12.sol\":13478:13510  _allowances[msg.sender][spender] */\n      0xffffffffffffffffffffffffffffffffffffffff\n      and\n      0xffffffffffffffffffffffffffffffffffffffff\n      and\n      dup2\n      mstore\n      0x20\n      add\n      swap1\n      dup2\n      mstore\n      0x20\n      add\n      0x00\n      keccak256\n        /* \"contracts/ERC1404TokenMinKYCv12.sol\":13478:13519  _allowances[msg.sender][spender] = amount */\n      dup2\n      swap1\n      sstore\n      pop\n        /* \"contracts/ERC1404TokenMinKYCv12.sol\":13555:13562  spender */\n      dup3\n        /* \"contracts/ERC1404TokenMinKYCv12.sol\":13534:13571  Approval(msg.sender, spender, amount) */\n      0xffffffffffffffffffffffffffffffffffffffff\n      and\n        /* \"contracts/ERC1404TokenMinKYCv12.sol\":13543:13553  msg.sender */\n      caller\n        /* \"contracts/ERC1404TokenMinKYCv12.sol\":13534:13571  Approval(msg.sender, spender, amount) */\n      0xffffffffffffffffffffffffffffffffffffffff\n      and\n      0x8c5be1e5ebec7d5bd14f71427d1e84f3dd0314c0f7b2291e5b200ac8c7c3b925\n        /* \"contracts/ERC1404TokenMinKYCv12.sol\":13564:13570  amount */\n      dup5\n        /* \"contracts/ERC1404TokenMinKYCv12.sol\":13534:13571  Approval(msg.sender, spender, amount) */\n      mload(0x40)\n      tag_226\n      swap2\n      swap1\n      tag_75\n      jump\t// in\n    tag_226:\n      mload(0x40)\n      dup1\n      swap2\n      sub\n      swap1\n      log3\n        /* \"contracts/ERC1404TokenMinKYCv12.sol\":13582:13586  true */\n      0x01\n        /* \"contracts/ERC1404TokenMinKYCv12.sol\":13575:13586  return true */\n      swap1\n      pop\n        /* \"contracts/ERC1404TokenMinKYCv12.sol\":13226:13593  function approve(... */\n      swap3\n      swap2\n      pop\n      pop\n      jump\t// out\n        /* \"contracts/ERC1404TokenMinKYCv12.sol\":7083:7469  function bulkWhitelistWallets (... */\n    tag_67:\n        /* \"contracts/ERC1404TokenMinKYCv12.sol\":7269:7273  true */\n      0x01\n        /* \"contracts/ERC1404TokenMinKYCv12.sol\":7227:7273  _whitelistControlAuthority[msg.sender] == true */\n      iszero\n      iszero\n        /* \"contracts/ERC1404TokenMinKYCv12.sol\":7227:7253  _whitelistControlAuthority */\n      0x05\n        /* \"contracts/ERC1404TokenMinKYCv12.sol\":7227:7265  _whitelistControlAuthority[msg.sender] */\n      0x00\n        /* \"contracts/ERC1404TokenMinKYCv12.sol\":7254:7264  msg.sender */\n      caller\n        /* \"contracts/ERC1404TokenMinKYCv12.sol\":7227:7265  _whitelistControlAuthority[msg.sender] */\n      0xffffffffffffffffffffffffffffffffffffffff\n      and\n      0xffffffffffffffffffffffffffffffffffffffff\n      and\n      dup2\n      mstore\n      0x20\n      add\n      swap1\n      dup2\n      mstore\n      0x20\n      add\n      0x00\n      keccak256\n      0x00\n      swap1\n      sload\n      swap1\n      0x0100\n      exp\n      swap1\n      div\n      0xff\n      and\n        /* \"contracts/ERC1404TokenMinKYCv12.sol\":7227:7273  _whitelistControlAuthority[msg.sender] == true */\n      iszero\n      iszero\n      eq\n        /* \"contracts/ERC1404TokenMinKYCv12.sol\":7219:7343  require(_whitelistControlAuthority[msg.sender] == true, \"Only authorized addresses can change KYC information of investors\") */\n      tag_228\n      jumpi\n      mload(0x40)\n      0x08c379a000000000000000000000000000000000000000000000000000000000\n      dup2\n      mstore\n      0x04\n      add\n      tag_229\n      swap1\n      tag_230\n      jump\t// in\n    tag_229:\n      mload(0x40)\n      dup1\n      swap2\n      sub\n      swap1\n      revert\n    tag_228:\n        /* \"contracts/ERC1404TokenMinKYCv12.sol\":7352:7358  uint i */\n      0x00\n        /* \"contracts/ERC1404TokenMinKYCv12.sol\":7347:7464  for (uint i=0; i<account.length; i++) {... */\n    tag_231:\n        /* \"contracts/ERC1404TokenMinKYCv12.sol\":7364:7371  account */\n      dup4\n        /* \"contracts/ERC1404TokenMinKYCv12.sol\":7364:7378  account.length */\n      mload\n        /* \"contracts/ERC1404TokenMinKYCv12.sol\":7362:7363  i */\n      dup2\n        /* \"contracts/ERC1404TokenMinKYCv12.sol\":7362:7378  i<account.length */\n      lt\n        /* \"contracts/ERC1404TokenMinKYCv12.sol\":7347:7464  for (uint i=0; i<account.length; i++) {... */\n      iszero\n      tag_232\n      jumpi\n        /* \"contracts/ERC1404TokenMinKYCv12.sol\":7390:7456  setupKYCDataForUser( account[i], buyRestriction, sellRestriction ) */\n      tag_234\n        /* \"contracts/ERC1404TokenMinKYCv12.sol\":7411:7418  account */\n      dup5\n        /* \"contracts/ERC1404TokenMinKYCv12.sol\":7419:7420  i */\n      dup3\n        /* \"contracts/ERC1404TokenMinKYCv12.sol\":7411:7421  account[i] */\n      dup2\n      mload\n      dup2\n      lt\n      tag_235\n      jumpi\n      tag_236\n      tag_237\n      jump\t// in\n    tag_236:\n    tag_235:\n      0x20\n      mul\n      0x20\n      add\n      add\n      mload\n        /* \"contracts/ERC1404TokenMinKYCv12.sol\":7423:7437  buyRestriction */\n      dup5\n        /* \"contracts/ERC1404TokenMinKYCv12.sol\":7439:7454  sellRestriction */\n      dup5\n        /* \"contracts/ERC1404TokenMinKYCv12.sol\":7390:7409  setupKYCDataForUser */\n      tag_238\n        /* \"contracts/ERC1404TokenMinKYCv12.sol\":7390:7456  setupKYCDataForUser( account[i], buyRestriction, sellRestriction ) */\n      jump\t// in\n    tag_234:\n        /* \"contracts/ERC1404TokenMinKYCv12.sol\":7380:7383  i++ */\n      dup1\n      dup1\n      tag_239\n      swap1\n      tag_240\n      jump\t// in\n    tag_239:\n      swap2\n      pop\n      pop\n        /* \"contracts/ERC1404TokenMinKYCv12.sol\":7347:7464  for (uint i=0; i<account.length; i++) {... */\n      jump(tag_231)\n    tag_232:\n      pop\n        /* \"contracts/ERC1404TokenMinKYCv12.sol\":7083:7469  function bulkWhitelistWallets (... */\n      pop\n      pop\n      pop\n      jump\t// out\n        /* \"contracts/ERC1404TokenMinKYCv12.sol\":2882:2936  uint8 public constant Max_Allowed_Investors_Exceed = 1 */\n    tag_69:\n        /* \"contracts/ERC1404TokenMinKYCv12.sol\":2935:2936  1 */\n      0x01\n        /* \"contracts/ERC1404TokenMinKYCv12.sol\":2882:2936  uint8 public constant Max_Allowed_Investors_Exceed = 1 */\n      dup2\n      jump\t// out\n        /* \"contracts/ERC1404TokenMinKYCv12.sol\":12977:13075  function totalSupply() ... */\n    tag_73:\n        /* \"contracts/ERC1404TokenMinKYCv12.sol\":13039:13046  uint256 */\n      0x00\n        /* \"contracts/ERC1404TokenMinKYCv12.sol\":13059:13071  _totalSupply */\n      sload(0x0a)\n        /* \"contracts/ERC1404TokenMinKYCv12.sol\":13052:13071  return _totalSupply */\n      swap1\n      pop\n        /* \"contracts/ERC1404TokenMinKYCv12.sol\":12977:13075  function totalSupply() ... */\n      swap1\n      jump\t// out\n        /* \"contracts/ERC1404TokenMinKYCv12.sol\":14019:14498  function transferFrom(... */\n    tag_79:\n        /* \"contracts/ERC1404TokenMinKYCv12.sol\":14197:14201  bool */\n      0x00\n        /* \"contracts/ERC1404TokenMinKYCv12.sol\":14160:14166  sender */\n      dup4\n        /* \"contracts/ERC1404TokenMinKYCv12.sol\":14168:14177  recipient */\n      dup4\n        /* \"contracts/ERC1404TokenMinKYCv12.sol\":14179:14185  amount */\n      dup4\n        /* \"contracts/ERC1404TokenMinKYCv12.sol\":8588:8609  uint8 restrictionCode */\n      0x00\n        /* \"contracts/ERC1404TokenMinKYCv12.sol\":8612:8654  detectTransferRestriction(from, to, value) */\n      tag_243\n        /* \"contracts/ERC1404TokenMinKYCv12.sol\":8638:8642  from */\n      dup5\n        /* \"contracts/ERC1404TokenMinKYCv12.sol\":8644:8646  to */\n      dup5\n        /* \"contracts/ERC1404TokenMinKYCv12.sol\":8648:8653  value */\n      dup5\n        /* \"contracts/ERC1404TokenMinKYCv12.sol\":8612:8637  detectTransferRestriction */\n      tag_190\n        /* \"contracts/ERC1404TokenMinKYCv12.sol\":8612:8654  detectTransferRestriction(from, to, value) */\n      jump\t// in\n    tag_243:\n        /* \"contracts/ERC1404TokenMinKYCv12.sol\":8588:8654  uint8 restrictionCode = detectTransferRestriction(from, to, value) */\n      swap1\n      pop\n        /* \"contracts/ERC1404TokenMinKYCv12.sol\":2878:2879  0 */\n      0x00\n        /* \"contracts/ERC1404TokenMinKYCv12.sol\":8662:8711  restrictionCode != No_Transfer_Restrictions_Found */\n      0xff\n      and\n        /* \"contracts/ERC1404TokenMinKYCv12.sol\":8662:8677  restrictionCode */\n      dup2\n        /* \"contracts/ERC1404TokenMinKYCv12.sol\":8662:8711  restrictionCode != No_Transfer_Restrictions_Found */\n      0xff\n      and\n      eq\n        /* \"contracts/ERC1404TokenMinKYCv12.sol\":8658:8910  if( restrictionCode != No_Transfer_Restrictions_Found ) {... */\n      tag_244\n      jumpi\n        /* \"contracts/ERC1404TokenMinKYCv12.sol\":8719:8745  string memory errorMessage */\n      0x00\n        /* \"contracts/ERC1404TokenMinKYCv12.sol\":8748:8794  messageForTransferRestriction(restrictionCode) */\n      tag_245\n        /* \"contracts/ERC1404TokenMinKYCv12.sol\":8778:8793  restrictionCode */\n      dup3\n        /* \"contracts/ERC1404TokenMinKYCv12.sol\":8748:8777  messageForTransferRestriction */\n      tag_136\n        /* \"contracts/ERC1404TokenMinKYCv12.sol\":8748:8794  messageForTransferRestriction(restrictionCode) */\n      jump\t// in\n    tag_245:\n        /* \"contracts/ERC1404TokenMinKYCv12.sol\":8719:8794  string memory errorMessage = messageForTransferRestriction(restrictionCode) */\n      swap1\n      pop\n        /* \"contracts/ERC1404TokenMinKYCv12.sol\":8839:8841  to */\n      dup4\n        /* \"contracts/ERC1404TokenMinKYCv12.sol\":8804:8857  TransferRestrictionDetected( from, to, errorMessage ) */\n      0xffffffffffffffffffffffffffffffffffffffff\n      and\n        /* \"contracts/ERC1404TokenMinKYCv12.sol\":8833:8837  from */\n      dup6\n        /* \"contracts/ERC1404TokenMinKYCv12.sol\":8804:8857  TransferRestrictionDetected( from, to, errorMessage ) */\n      0xffffffffffffffffffffffffffffffffffffffff\n      and\n      0x2fdd8c36dbe5614497208665e8d30c570421680d09984e3153829ddabd30c094\n        /* \"contracts/ERC1404TokenMinKYCv12.sol\":8843:8855  errorMessage */\n      dup4\n        /* \"contracts/ERC1404TokenMinKYCv12.sol\":8804:8857  TransferRestrictionDetected( from, to, errorMessage ) */\n      mload(0x40)\n      tag_246\n      swap2\n      swap1\n      tag_57\n      jump\t// in\n    tag_246:\n      mload(0x40)\n      dup1\n      swap2\n      sub\n      swap1\n      log3\n        /* \"contracts/ERC1404TokenMinKYCv12.sol\":8875:8887  errorMessage */\n      dup1\n        /* \"contracts/ERC1404TokenMinKYCv12.sol\":8868:8888  revert(errorMessage) */\n      mload(0x40)\n      0x08c379a000000000000000000000000000000000000000000000000000000000\n      dup2\n      mstore\n      0x04\n      add\n      tag_247\n      swap2\n      swap1\n      tag_57\n      jump\t// in\n    tag_247:\n      mload(0x40)\n      dup1\n      swap2\n      sub\n      swap1\n      revert\n        /* \"contracts/ERC1404TokenMinKYCv12.sol\":8658:8910  if( restrictionCode != No_Transfer_Restrictions_Found ) {... */\n    tag_244:\n        /* \"contracts/ERC1404TokenMinKYCv12.sol\":14259:14265  amount */\n      dup6\n        /* \"contracts/ERC1404TokenMinKYCv12.sol\":14224:14235  _allowances */\n      0x03\n        /* \"contracts/ERC1404TokenMinKYCv12.sol\":14224:14243  _allowances[sender] */\n      0x00\n        /* \"contracts/ERC1404TokenMinKYCv12.sol\":14236:14242  sender */\n      dup11\n        /* \"contracts/ERC1404TokenMinKYCv12.sol\":14224:14243  _allowances[sender] */\n      0xffffffffffffffffffffffffffffffffffffffff\n      and\n      0xffffffffffffffffffffffffffffffffffffffff\n      and\n      dup2\n      mstore\n      0x20\n      add\n      swap1\n      dup2\n      mstore\n      0x20\n      add\n      0x00\n      keccak256\n        /* \"contracts/ERC1404TokenMinKYCv12.sol\":14224:14255  _allowances[sender][msg.sender] */\n      0x00\n        /* \"contracts/ERC1404TokenMinKYCv12.sol\":14244:14254  msg.sender */\n      caller\n        /* \"contracts/ERC1404TokenMinKYCv12.sol\":14224:14255  _allowances[sender][msg.sender] */\n      0xffffffffffffffffffffffffffffffffffffffff\n      and\n      0xffffffffffffffffffffffffffffffffffffffff\n      and\n      dup2\n      mstore\n      0x20\n      add\n      swap1\n      dup2\n      mstore\n      0x20\n      add\n      0x00\n      keccak256\n      sload\n        /* \"contracts/ERC1404TokenMinKYCv12.sol\":14224:14265  _allowances[sender][msg.sender] >= amount */\n      lt\n      iszero\n        /* \"contracts/ERC1404TokenMinKYCv12.sol\":14216:14327  require(_allowances[sender][msg.sender] >= amount, \"Sender cannot transfer amount greater than his Allowance\" ) */\n      tag_250\n      jumpi\n      mload(0x40)\n      0x08c379a000000000000000000000000000000000000000000000000000000000\n      dup2\n      mstore\n      0x04\n      add\n      tag_251\n      swap1\n      tag_252\n      jump\t// in\n    tag_251:\n      mload(0x40)\n      dup1\n      swap2\n      sub\n      swap1\n      revert\n    tag_250:\n        /* \"contracts/ERC1404TokenMinKYCv12.sol\":14331:14391  transferSharesBetweenInvestors ( sender, recipient, amount ) */\n      tag_253\n        /* \"contracts/ERC1404TokenMinKYCv12.sol\":14364:14370  sender */\n      dup9\n        /* \"contracts/ERC1404TokenMinKYCv12.sol\":14372:14381  recipient */\n      dup9\n        /* \"contracts/ERC1404TokenMinKYCv12.sol\":14383:14389  amount */\n      dup9\n        /* \"contracts/ERC1404TokenMinKYCv12.sol\":14331:14361  transferSharesBetweenInvestors */\n      tag_254\n        /* \"contracts/ERC1404TokenMinKYCv12.sol\":14331:14391  transferSharesBetweenInvestors ( sender, recipient, amount ) */\n      jump\t// in\n    tag_253:\n        /* \"contracts/ERC1404TokenMinKYCv12.sol\":14469:14475  amount */\n      dup6\n        /* \"contracts/ERC1404TokenMinKYCv12.sol\":14435:14446  _allowances */\n      0x03\n        /* \"contracts/ERC1404TokenMinKYCv12.sol\":14435:14454  _allowances[sender] */\n      0x00\n        /* \"contracts/ERC1404TokenMinKYCv12.sol\":14447:14453  sender */\n      dup11\n        /* \"contracts/ERC1404TokenMinKYCv12.sol\":14435:14454  _allowances[sender] */\n      0xffffffffffffffffffffffffffffffffffffffff\n      and\n      0xffffffffffffffffffffffffffffffffffffffff\n      and\n      dup2\n      mstore\n      0x20\n      add\n      swap1\n      dup2\n      mstore\n      0x20\n      add\n      0x00\n      keccak256\n        /* \"contracts/ERC1404TokenMinKYCv12.sol\":14435:14466  _allowances[sender][msg.sender] */\n      0x00\n        /* \"contracts/ERC1404TokenMinKYCv12.sol\":14455:14465  msg.sender */\n      caller\n        /* \"contracts/ERC1404TokenMinKYCv12.sol\":14435:14466  _allowances[sender][msg.sender] */\n      0xffffffffffffffffffffffffffffffffffffffff\n      and\n      0xffffffffffffffffffffffffffffffffffffffff\n      and\n      dup2\n      mstore\n      0x20\n      add\n      swap1\n      dup2\n      mstore\n      0x20\n      add\n      0x00\n      keccak256\n      sload\n        /* \"contracts/ERC1404TokenMinKYCv12.sol\":14435:14475  _allowances[sender][msg.sender] - amount */\n      tag_255\n      swap2\n      swap1\n      tag_256\n      jump\t// in\n    tag_255:\n        /* \"contracts/ERC1404TokenMinKYCv12.sol\":14401:14412  _allowances */\n      0x03\n        /* \"contracts/ERC1404TokenMinKYCv12.sol\":14401:14420  _allowances[sender] */\n      0x00\n        /* \"contracts/ERC1404TokenMinKYCv12.sol\":14413:14419  sender */\n      dup11\n        /* \"contracts/ERC1404TokenMinKYCv12.sol\":14401:14420  _allowances[sender] */\n      0xffffffffffffffffffffffffffffffffffffffff\n      and\n      0xffffffffffffffffffffffffffffffffffffffff\n      and\n      dup2\n      mstore\n      0x20\n      add\n      swap1\n      dup2\n      mstore\n      0x20\n      add\n      0x00\n      keccak256\n        /* \"contracts/ERC1404TokenMinKYCv12.sol\":14401:14432  _allowances[sender][msg.sender] */\n      0x00\n        /* \"contracts/ERC1404TokenMinKYCv12.sol\":14421:14431  msg.sender */\n      caller\n        /* \"contracts/ERC1404TokenMinKYCv12.sol\":14401:14432  _allowances[sender][msg.sender] */\n      0xffffffffffffffffffffffffffffffffffffffff\n      and\n      0xffffffffffffffffffffffffffffffffffffffff\n      and\n      dup2\n      mstore\n      0x20\n      add\n      swap1\n      dup2\n      mstore\n      0x20\n      add\n      0x00\n      keccak256\n        /* \"contracts/ERC1404TokenMinKYCv12.sol\":14401:14475  _allowances[sender][msg.sender] = _allowances[sender][msg.sender] - amount */\n      dup2\n      swap1\n      sstore\n      pop\n        /* \"contracts/ERC1404TokenMinKYCv12.sol\":14487:14491  true */\n      0x01\n        /* \"contracts/ERC1404TokenMinKYCv12.sol\":14480:14491  return true */\n      swap5\n      pop\n        /* \"contracts/ERC1404TokenMinKYCv12.sol\":8578:8917  {... */\n      pop\n        /* \"contracts/ERC1404TokenMinKYCv12.sol\":14019:14498  function transferFrom(... */\n      pop\n      pop\n      pop\n      swap4\n      swap3\n      pop\n      pop\n      pop\n      jump\t// out\n        /* \"contracts/ERC1404TokenMinKYCv12.sol\":6763:7080  function modifyKYCData (... */\n    tag_84:\n        /* \"contracts/ERC1404TokenMinKYCv12.sol\":6935:6939  true */\n      0x01\n        /* \"contracts/ERC1404TokenMinKYCv12.sol\":6893:6939  _whitelistControlAuthority[msg.sender] == true */\n      iszero\n      iszero\n        /* \"contracts/ERC1404TokenMinKYCv12.sol\":6893:6919  _whitelistControlAuthority */\n      0x05\n        /* \"contracts/ERC1404TokenMinKYCv12.sol\":6893:6931  _whitelistControlAuthority[msg.sender] */\n      0x00\n        /* \"contracts/ERC1404TokenMinKYCv12.sol\":6920:6930  msg.sender */\n      caller\n        /* \"contracts/ERC1404TokenMinKYCv12.sol\":6893:6931  _whitelistControlAuthority[msg.sender] */\n      0xffffffffffffffffffffffffffffffffffffffff\n      and\n      0xffffffffffffffffffffffffffffffffffffffff\n      and\n      dup2\n      mstore\n      0x20\n      add\n      swap1\n      dup2\n      mstore\n      0x20\n      add\n      0x00\n      keccak256\n      0x00\n      swap1\n      sload\n      swap1\n      0x0100\n      exp\n      swap1\n      div\n      0xff\n      and\n        /* \"contracts/ERC1404TokenMinKYCv12.sol\":6893:6939  _whitelistControlAuthority[msg.sender] == true */\n      iszero\n      iszero\n      eq\n        /* \"contracts/ERC1404TokenMinKYCv12.sol\":6885:7009  require(_whitelistControlAuthority[msg.sender] == true, \"Only authorized addresses can change KYC information of investors\") */\n      tag_258\n      jumpi\n      mload(0x40)\n      0x08c379a000000000000000000000000000000000000000000000000000000000\n      dup2\n      mstore\n      0x04\n      add\n      tag_259\n      swap1\n      tag_230\n      jump\t// in\n    tag_259:\n      mload(0x40)\n      dup1\n      swap2\n      sub\n      swap1\n      revert\n    tag_258:\n        /* \"contracts/ERC1404TokenMinKYCv12.sol\":7013:7076  setupKYCDataForUser( account, buyRestriction, sellRestriction ) */\n      tag_260\n        /* \"contracts/ERC1404TokenMinKYCv12.sol\":7034:7041  account */\n      dup4\n        /* \"contracts/ERC1404TokenMinKYCv12.sol\":7043:7057  buyRestriction */\n      dup4\n        /* \"contracts/ERC1404TokenMinKYCv12.sol\":7059:7074  sellRestriction */\n      dup4\n        /* \"contracts/ERC1404TokenMinKYCv12.sol\":7013:7032  setupKYCDataForUser */\n      tag_238\n        /* \"contracts/ERC1404TokenMinKYCv12.sol\":7013:7076  setupKYCDataForUser( account, buyRestriction, sellRestriction ) */\n      jump\t// in\n    tag_260:\n        /* \"contracts/ERC1404TokenMinKYCv12.sol\":6763:7080  function modifyKYCData (... */\n      pop\n      pop\n      pop\n      jump\t// out\n        /* \"contracts/ERC1404TokenMinKYCv12.sol\":2137:2165  uint256 public decimals = 18 */\n    tag_86:\n      sload(0x06)\n      dup2\n      jump\t// out\n        /* \"contracts/ERC1404TokenMinKYCv12.sol\":14531:14722  function forceTransferToken(... */\n    tag_90:\n        /* \"contracts/ERC1404TokenMinKYCv12.sol\":14640:14644  bool */\n      0x00\n        /* \"contracts/ERC1404TokenMinKYCv12.sol\":5780:5790  msg.sender */\n      caller\n        /* \"contracts/ERC1404TokenMinKYCv12.sol\":5770:5790  _owner == msg.sender */\n      0xffffffffffffffffffffffffffffffffffffffff\n      and\n        /* \"contracts/ERC1404TokenMinKYCv12.sol\":5770:5776  _owner */\n      0x04\n      0x00\n      swap1\n      sload\n      swap1\n      0x0100\n      exp\n      swap1\n      div\n      0xffffffffffffffffffffffffffffffffffffffff\n      and\n        /* \"contracts/ERC1404TokenMinKYCv12.sol\":5770:5790  _owner == msg.sender */\n      0xffffffffffffffffffffffffffffffffffffffff\n      and\n      eq\n        /* \"contracts/ERC1404TokenMinKYCv12.sol\":5762:5828  require(_owner == msg.sender, \"Only owner has access to function\") */\n      tag_262\n      jumpi\n      mload(0x40)\n      0x08c379a000000000000000000000000000000000000000000000000000000000\n      dup2\n      mstore\n      0x04\n      add\n      tag_263\n      swap1\n      tag_264\n      jump\t// in\n    tag_263:\n      mload(0x40)\n      dup1\n      swap2\n      sub\n      swap1\n      revert\n    tag_262:\n        /* \"contracts/ERC1404TokenMinKYCv12.sol\":14651:14703  transferSharesBetweenInvestors(from, _owner, amount) */\n      tag_266\n        /* \"contracts/ERC1404TokenMinKYCv12.sol\":14682:14686  from */\n      dup4\n        /* \"contracts/ERC1404TokenMinKYCv12.sol\":14688:14694  _owner */\n      0x04\n      0x00\n      swap1\n      sload\n      swap1\n      0x0100\n      exp\n      swap1\n      div\n      0xffffffffffffffffffffffffffffffffffffffff\n      and\n        /* \"contracts/ERC1404TokenMinKYCv12.sol\":14696:14702  amount */\n      dup5\n        /* \"contracts/ERC1404TokenMinKYCv12.sol\":14651:14681  transferSharesBetweenInvestors */\n      tag_254\n        /* \"contracts/ERC1404TokenMinKYCv12.sol\":14651:14703  transferSharesBetweenInvestors(from, _owner, amount) */\n      jump\t// in\n    tag_266:\n        /* \"contracts/ERC1404TokenMinKYCv12.sol\":14714:14718  true */\n      0x01\n        /* \"contracts/ERC1404TokenMinKYCv12.sol\":14707:14718  return true */\n      swap1\n      pop\n        /* \"contracts/ERC1404TokenMinKYCv12.sol\":14531:14722  function forceTransferToken(... */\n      swap3\n      swap2\n      pop\n      pop\n      jump\t// out\n        /* \"contracts/ERC1404TokenMinKYCv12.sol\":15538:15878  function mint(address account, uint256 amount) ... */\n    tag_94:\n        /* \"contracts/ERC1404TokenMinKYCv12.sol\":15619:15623  bool */\n      0x00\n        /* \"contracts/ERC1404TokenMinKYCv12.sol\":5780:5790  msg.sender */\n      caller\n        /* \"contracts/ERC1404TokenMinKYCv12.sol\":5770:5790  _owner == msg.sender */\n      0xffffffffffffffffffffffffffffffffffffffff\n      and\n        /* \"contracts/ERC1404TokenMinKYCv12.sol\":5770:5776  _owner */\n      0x04\n      0x00\n      swap1\n      sload\n      swap1\n      0x0100\n      exp\n      swap1\n      div\n      0xffffffffffffffffffffffffffffffffffffffff\n      and\n        /* \"contracts/ERC1404TokenMinKYCv12.sol\":5770:5790  _owner == msg.sender */\n      0xffffffffffffffffffffffffffffffffffffffff\n      and\n      eq\n        /* \"contracts/ERC1404TokenMinKYCv12.sol\":5762:5828  require(_owner == msg.sender, \"Only owner has access to function\") */\n      tag_268\n      jumpi\n      mload(0x40)\n      0x08c379a000000000000000000000000000000000000000000000000000000000\n      dup2\n      mstore\n      0x04\n      add\n      tag_269\n      swap1\n      tag_264\n      jump\t// in\n    tag_269:\n      mload(0x40)\n      dup1\n      swap2\n      sub\n      swap1\n      revert\n    tag_268:\n        /* \"contracts/ERC1404TokenMinKYCv12.sol\":15662:15663  0 */\n      0x00\n        /* \"contracts/ERC1404TokenMinKYCv12.sol\":15643:15664  account != address(0) */\n      0xffffffffffffffffffffffffffffffffffffffff\n      and\n        /* \"contracts/ERC1404TokenMinKYCv12.sol\":15643:15650  account */\n      dup4\n        /* \"contracts/ERC1404TokenMinKYCv12.sol\":15643:15664  account != address(0) */\n      0xffffffffffffffffffffffffffffffffffffffff\n      and\n      eq\n      iszero\n        /* \"contracts/ERC1404TokenMinKYCv12.sol\":15635:15709  require(account != address(0), \"Tokens cannot be minted for address zero\") */\n      tag_271\n      jumpi\n      mload(0x40)\n      0x08c379a000000000000000000000000000000000000000000000000000000000\n      dup2\n      mstore\n      0x04\n      add\n      tag_272\n      swap1\n      tag_273\n      jump\t// in\n    tag_272:\n      mload(0x40)\n      dup1\n      swap2\n      sub\n      swap1\n      revert\n    tag_271:\n        /* \"contracts/ERC1404TokenMinKYCv12.sol\":15750:15756  amount */\n      dup2\n        /* \"contracts/ERC1404TokenMinKYCv12.sol\":15735:15747  _totalSupply */\n      sload(0x0a)\n        /* \"contracts/ERC1404TokenMinKYCv12.sol\":15735:15756  _totalSupply + amount */\n      tag_274\n      swap2\n      swap1\n      tag_275\n      jump\t// in\n    tag_274:\n        /* \"contracts/ERC1404TokenMinKYCv12.sol\":15720:15732  _totalSupply */\n      0x0a\n        /* \"contracts/ERC1404TokenMinKYCv12.sol\":15720:15756  _totalSupply = _totalSupply + amount */\n      dup2\n      swap1\n      sstore\n      pop\n        /* \"contracts/ERC1404TokenMinKYCv12.sol\":15808:15814  amount */\n      dup2\n        /* \"contracts/ERC1404TokenMinKYCv12.sol\":15787:15796  _balances */\n      0x02\n        /* \"contracts/ERC1404TokenMinKYCv12.sol\":15787:15805  _balances[account] */\n      0x00\n        /* \"contracts/ERC1404TokenMinKYCv12.sol\":15797:15804  account */\n      dup6\n        /* \"contracts/ERC1404TokenMinKYCv12.sol\":15787:15805  _balances[account] */\n      0xffffffffffffffffffffffffffffffffffffffff\n      and\n      0xffffffffffffffffffffffffffffffffffffffff\n      and\n      dup2\n      mstore\n      0x20\n      add\n      swap1\n      dup2\n      mstore\n      0x20\n      add\n      0x00\n      keccak256\n      sload\n        /* \"contracts/ERC1404TokenMinKYCv12.sol\":15787:15814  _balances[account] + amount */\n      tag_276\n      swap2\n      swap1\n      tag_275\n      jump\t// in\n    tag_276:\n        /* \"contracts/ERC1404TokenMinKYCv12.sol\":15766:15775  _balances */\n      0x02\n        /* \"contracts/ERC1404TokenMinKYCv12.sol\":15766:15784  _balances[account] */\n      0x00\n        /* \"contracts/ERC1404TokenMinKYCv12.sol\":15776:15783  account */\n      dup6\n        /* \"contracts/ERC1404TokenMinKYCv12.sol\":15766:15784  _balances[account] */\n      0xffffffffffffffffffffffffffffffffffffffff\n      and\n      0xffffffffffffffffffffffffffffffffffffffff\n      and\n      dup2\n      mstore\n      0x20\n      add\n      swap1\n      dup2\n      mstore\n      0x20\n      add\n      0x00\n      keccak256\n        /* \"contracts/ERC1404TokenMinKYCv12.sol\":15766:15814  _balances[account] = _balances[account] + amount */\n      dup2\n      swap1\n      sstore\n      pop\n        /* \"contracts/ERC1404TokenMinKYCv12.sol\":15840:15847  account */\n      dup3\n        /* \"contracts/ERC1404TokenMinKYCv12.sol\":15829:15856  MintTokens(account, amount) */\n      0xffffffffffffffffffffffffffffffffffffffff\n      and\n      0x7b47457f3af09e5f794b020fd74160963a808f5985883496a096d403d380c343\n        /* \"contracts/ERC1404TokenMinKYCv12.sol\":15849:15855  amount */\n      dup4\n        /* \"contracts/ERC1404TokenMinKYCv12.sol\":15829:15856  MintTokens(account, amount) */\n      mload(0x40)\n      tag_277\n      swap2\n      swap1\n      tag_75\n      jump\t// in\n    tag_277:\n      mload(0x40)\n      dup1\n      swap2\n      sub\n      swap1\n      log2\n        /* \"contracts/ERC1404TokenMinKYCv12.sol\":15867:15871  true */\n      0x01\n        /* \"contracts/ERC1404TokenMinKYCv12.sol\":15860:15871  return true */\n      swap1\n      pop\n        /* \"contracts/ERC1404TokenMinKYCv12.sol\":15538:15878  function mint(address account, uint256 amount) ... */\n      swap3\n      swap2\n      pop\n      pop\n      jump\t// out\n        /* \"contracts/ERC1404TokenMinKYCv12.sol\":2663:2703  uint256 public currentTotalInvestors = 0 */\n    tag_97:\n      sload(0x10)\n      dup2\n      jump\t// out\n        /* \"contracts/ERC1404TokenMinKYCv12.sol\":4627:4812  function resetCompanyLegalDocs(string memory _CompanyLegalDocs) ... */\n    tag_102:\n        /* \"contracts/ERC1404TokenMinKYCv12.sol\":5780:5790  msg.sender */\n      caller\n        /* \"contracts/ERC1404TokenMinKYCv12.sol\":5770:5790  _owner == msg.sender */\n      0xffffffffffffffffffffffffffffffffffffffff\n      and\n        /* \"contracts/ERC1404TokenMinKYCv12.sol\":5770:5776  _owner */\n      0x04\n      0x00\n      swap1\n      sload\n      swap1\n      0x0100\n      exp\n      swap1\n      div\n      0xffffffffffffffffffffffffffffffffffffffff\n      and\n        /* \"contracts/ERC1404TokenMinKYCv12.sol\":5770:5790  _owner == msg.sender */\n      0xffffffffffffffffffffffffffffffffffffffff\n      and\n      eq\n        /* \"contracts/ERC1404TokenMinKYCv12.sol\":5762:5828  require(_owner == msg.sender, \"Only owner has access to function\") */\n      tag_279\n      jumpi\n      mload(0x40)\n      0x08c379a000000000000000000000000000000000000000000000000000000000\n      dup2\n      mstore\n      0x04\n      add\n      tag_280\n      swap1\n      tag_264\n      jump\t// in\n    tag_280:\n      mload(0x40)\n      dup1\n      swap2\n      sub\n      swap1\n      revert\n    tag_279:\n        /* \"contracts/ERC1404TokenMinKYCv12.sol\":4738:4755  _CompanyLegalDocs */\n      dup1\n        /* \"contracts/ERC1404TokenMinKYCv12.sol\":4719:4735  CompanyLegalDocs */\n      0x0f\n        /* \"contracts/ERC1404TokenMinKYCv12.sol\":4719:4755  CompanyLegalDocs = _CompanyLegalDocs */\n      swap1\n      dup1\n      mload\n      swap1\n      0x20\n      add\n      swap1\n      tag_282\n      swap3\n      swap2\n      swap1\n      tag_283\n      jump\t// in\n    tag_282:\n      pop\n        /* \"contracts/ERC1404TokenMinKYCv12.sol\":4764:4805  CompanyLegalDocsReset (_CompanyLegalDocs) */\n      0xa555e96a9f6d83b18cbe170e5fd71ebb56fc55f86a115539e9f3038182075a50\n        /* \"contracts/ERC1404TokenMinKYCv12.sol\":4787:4804  _CompanyLegalDocs */\n      dup2\n        /* \"contracts/ERC1404TokenMinKYCv12.sol\":4764:4805  CompanyLegalDocsReset (_CompanyLegalDocs) */\n      mload(0x40)\n      tag_284\n      swap2\n      swap1\n      tag_57\n      jump\t// in\n    tag_284:\n      mload(0x40)\n      dup1\n      swap2\n      sub\n      swap1\n      log1\n        /* \"contracts/ERC1404TokenMinKYCv12.sol\":4627:4812  function resetCompanyLegalDocs(string memory _CompanyLegalDocs) ... */\n      pop\n      jump\t// out\n        /* \"contracts/ERC1404TokenMinKYCv12.sol\":2168:2197  string public version = \"1.2\" */\n    tag_104:\n      0x07\n      dup1\n      sload\n      tag_285\n      swap1\n      tag_214\n      jump\t// in\n    tag_285:\n      dup1\n      0x1f\n      add\n      0x20\n      dup1\n      swap2\n      div\n      mul\n      0x20\n      add\n      mload(0x40)\n      swap1\n      dup2\n      add\n      0x40\n      mstore\n      dup1\n      swap3\n      swap2\n      swap1\n      dup2\n      dup2\n      mstore\n      0x20\n      add\n      dup3\n      dup1\n      sload\n      tag_286\n      swap1\n      tag_214\n      jump\t// in\n    tag_286:\n      dup1\n      iszero\n      tag_287\n      jumpi\n      dup1\n      0x1f\n      lt\n      tag_288\n      jumpi\n      0x0100\n      dup1\n      dup4\n      sload\n      div\n      mul\n      dup4\n      mstore\n      swap2\n      0x20\n      add\n      swap2\n      jump(tag_287)\n    tag_288:\n      dup3\n      add\n      swap2\n      swap1\n      0x00\n      mstore\n      keccak256(0x00, 0x20)\n      swap1\n    tag_289:\n      dup2\n      sload\n      dup2\n      mstore\n      swap1\n      0x01\n      add\n      swap1\n      0x20\n      add\n      dup1\n      dup4\n      gt\n      tag_289\n      jumpi\n      dup3\n      swap1\n      sub\n      0x1f\n      and\n      dup3\n      add\n      swap2\n    tag_287:\n      pop\n      pop\n      pop\n      pop\n      pop\n      dup2\n      jump\t// out\n        /* \"contracts/ERC1404TokenMinKYCv12.sol\":2380:2410  string public ShareCertificate */\n    tag_107:\n      0x0d\n      dup1\n      sload\n      tag_290\n      swap1\n      tag_214\n      jump\t// in\n    tag_290:\n      dup1\n      0x1f\n      add\n      0x20\n      dup1\n      swap2\n      div\n      mul\n      0x20\n      add\n      mload(0x40)\n      swap1\n      dup2\n      add\n      0x40\n      mstore\n      dup1\n      swap3\n      swap2\n      swap1\n      dup2\n      dup2\n      mstore\n      0x20\n      add\n      dup3\n      dup1\n      sload\n      tag_291\n      swap1\n      tag_214\n      jump\t// in\n    tag_291:\n      dup1\n      iszero\n      tag_292\n      jumpi\n      dup1\n      0x1f\n      lt\n      tag_293\n      jumpi\n      0x0100\n      dup1\n      dup4\n      sload\n      div\n      mul\n      dup4\n      mstore\n      swap2\n      0x20\n      add\n      swap2\n      jump(tag_292)\n    tag_293:\n      dup3\n      add\n      swap2\n      swap1\n      0x00\n      mstore\n      keccak256(0x00, 0x20)\n      swap1\n    tag_294:\n      dup2\n      sload\n      dup2\n      mstore\n      swap1\n      0x01\n      add\n      swap1\n      0x20\n      add\n      dup1\n      dup4\n      gt\n      tag_294\n      jumpi\n      dup3\n      swap1\n      sub\n      0x1f\n      and\n      dup3\n      add\n      swap2\n    tag_292:\n      pop\n      pop\n      pop\n      pop\n      pop\n      dup2\n      jump\t// out\n        /* \"contracts/ERC1404TokenMinKYCv12.sol\":4977:5306  function resetAllowedInvestors(uint256 _allowedInvestors) ... */\n    tag_112:\n        /* \"contracts/ERC1404TokenMinKYCv12.sol\":5780:5790  msg.sender */\n      caller\n        /* \"contracts/ERC1404TokenMinKYCv12.sol\":5770:5790  _owner == msg.sender */\n      0xffffffffffffffffffffffffffffffffffffffff\n      and\n        /* \"contracts/ERC1404TokenMinKYCv12.sol\":5770:5776  _owner */\n      0x04\n      0x00\n      swap1\n      sload\n      swap1\n      0x0100\n      exp\n      swap1\n      div\n      0xffffffffffffffffffffffffffffffffffffffff\n      and\n        /* \"contracts/ERC1404TokenMinKYCv12.sol\":5770:5790  _owner == msg.sender */\n      0xffffffffffffffffffffffffffffffffffffffff\n      and\n      eq\n        /* \"contracts/ERC1404TokenMinKYCv12.sol\":5762:5828  require(_owner == msg.sender, \"Only owner has access to function\") */\n      tag_296\n      jumpi\n      mload(0x40)\n      0x08c379a000000000000000000000000000000000000000000000000000000000\n      dup2\n      mstore\n      0x04\n      add\n      tag_297\n      swap1\n      tag_264\n      jump\t// in\n    tag_297:\n      mload(0x40)\n      dup1\n      swap2\n      sub\n      swap1\n      revert\n    tag_296:\n        /* \"contracts/ERC1404TokenMinKYCv12.sol\":5087:5088  0 */\n      0x00\n        /* \"contracts/ERC1404TokenMinKYCv12.sol\":5066:5083  _allowedInvestors */\n      dup2\n        /* \"contracts/ERC1404TokenMinKYCv12.sol\":5066:5088  _allowedInvestors != 0 */\n      eq\n      iszero\n        /* \"contracts/ERC1404TokenMinKYCv12.sol\":5066:5133  _allowedInvestors != 0 && _allowedInvestors < currentTotalInvestors */\n      dup1\n      iszero\n      tag_299\n      jumpi\n      pop\n        /* \"contracts/ERC1404TokenMinKYCv12.sol\":5112:5133  currentTotalInvestors */\n      sload(0x10)\n        /* \"contracts/ERC1404TokenMinKYCv12.sol\":5092:5109  _allowedInvestors */\n      dup2\n        /* \"contracts/ERC1404TokenMinKYCv12.sol\":5092:5133  _allowedInvestors < currentTotalInvestors */\n      lt\n        /* \"contracts/ERC1404TokenMinKYCv12.sol\":5066:5133  _allowedInvestors != 0 && _allowedInvestors < currentTotalInvestors */\n    tag_299:\n        /* \"contracts/ERC1404TokenMinKYCv12.sol\":5062:5209  if( _allowedInvestors != 0 && _allowedInvestors < currentTotalInvestors )... */\n      iszero\n      tag_300\n      jumpi\n        /* \"contracts/ERC1404TokenMinKYCv12.sol\":5139:5209  revert( \"Allowed Investors cannot be less than current token holders\") */\n      mload(0x40)\n      0x08c379a000000000000000000000000000000000000000000000000000000000\n      dup2\n      mstore\n      0x04\n      add\n      tag_301\n      swap1\n      tag_302\n      jump\t// in\n    tag_301:\n      mload(0x40)\n      dup1\n      swap2\n      sub\n      swap1\n      revert\n        /* \"contracts/ERC1404TokenMinKYCv12.sol\":5062:5209  if( _allowedInvestors != 0 && _allowedInvestors < currentTotalInvestors )... */\n    tag_300:\n        /* \"contracts/ERC1404TokenMinKYCv12.sol\":5233:5250  _allowedInvestors */\n      dup1\n        /* \"contracts/ERC1404TokenMinKYCv12.sol\":5214:5230  allowedInvestors */\n      0x11\n        /* \"contracts/ERC1404TokenMinKYCv12.sol\":5214:5250  allowedInvestors = _allowedInvestors */\n      dup2\n      swap1\n      sstore\n      pop\n        /* \"contracts/ERC1404TokenMinKYCv12.sol\":5259:5299  AllowedInvestorsReset(_allowedInvestors) */\n      0x87782743094654fc1484ef46e968abc30c6cd880e70ec8b310eb42641e35eb45\n        /* \"contracts/ERC1404TokenMinKYCv12.sol\":5281:5298  _allowedInvestors */\n      dup2\n        /* \"contracts/ERC1404TokenMinKYCv12.sol\":5259:5299  AllowedInvestorsReset(_allowedInvestors) */\n      mload(0x40)\n      tag_303\n      swap2\n      swap1\n      tag_75\n      jump\t// in\n    tag_303:\n      mload(0x40)\n      dup1\n      swap2\n      sub\n      swap1\n      log1\n        /* \"contracts/ERC1404TokenMinKYCv12.sol\":4977:5306  function resetAllowedInvestors(uint256 _allowedInvestors) ... */\n      pop\n      jump\t// out\n        /* \"contracts/ERC1404TokenMinKYCv12.sol\":2748:2787  uint256 public tradingHoldingPeriod = 1 */\n    tag_114:\n      sload(0x12)\n      dup2\n      jump\t// out\n        /* \"contracts/ERC1404TokenMinKYCv12.sol\":2708:2743  uint256 public allowedInvestors = 0 */\n    tag_117:\n      sload(0x11)\n      dup2\n      jump\t// out\n        /* \"contracts/ERC1404TokenMinKYCv12.sol\":2200:2245  string public IssuancePlatform = \"DigiShares\" */\n    tag_120:\n      0x08\n      dup1\n      sload\n      tag_304\n      swap1\n      tag_214\n      jump\t// in\n    tag_304:\n      dup1\n      0x1f\n      add\n      0x20\n      dup1\n      swap2\n      div\n      mul\n      0x20\n      add\n      mload(0x40)\n      swap1\n      dup2\n      add\n      0x40\n      mstore\n      dup1\n      swap3\n      swap2\n      swap1\n      dup2\n      dup2\n      mstore\n      0x20\n      add\n      dup3\n      dup1\n      sload\n      tag_305\n      swap1\n      tag_214\n      jump\t// in\n    tag_305:\n      dup1\n      iszero\n      tag_306\n      jumpi\n      dup1\n      0x1f\n      lt\n      tag_307\n      jumpi\n      0x0100\n      dup1\n      dup4\n      sload\n      div\n      mul\n      dup4\n      mstore\n      swap2\n      0x20\n      add\n      swap2\n      jump(tag_306)\n    tag_307:\n      dup3\n      add\n      swap2\n      swap1\n      0x00\n      mstore\n      keccak256(0x00, 0x20)\n      swap1\n    tag_308:\n      dup2\n      sload\n      dup2\n      mstore\n      swap1\n      0x01\n      add\n      swap1\n      0x20\n      add\n      dup1\n      dup4\n      gt\n      tag_308\n      jumpi\n      dup3\n      swap1\n      sub\n      0x1f\n      and\n      dup3\n      add\n      swap2\n    tag_306:\n      pop\n      pop\n      pop\n      pop\n      pop\n      dup2\n      jump\t// out\n        /* \"contracts/ERC1404TokenMinKYCv12.sol\":13082:13217  function balanceOf(address account) ... */\n    tag_125:\n        /* \"contracts/ERC1404TokenMinKYCv12.sol\":13166:13173  uint256 */\n      0x00\n        /* \"contracts/ERC1404TokenMinKYCv12.sol\":13192:13201  _balances */\n      0x02\n        /* \"contracts/ERC1404TokenMinKYCv12.sol\":13192:13210  _balances[account] */\n      0x00\n        /* \"contracts/ERC1404TokenMinKYCv12.sol\":13202:13209  account */\n      dup4\n        /* \"contracts/ERC1404TokenMinKYCv12.sol\":13192:13210  _balances[account] */\n      0xffffffffffffffffffffffffffffffffffffffff\n      and\n      0xffffffffffffffffffffffffffffffffffffffff\n      and\n      dup2\n      mstore\n      0x20\n      add\n      swap1\n      dup2\n      mstore\n      0x20\n      add\n      0x00\n      keccak256\n      sload\n        /* \"contracts/ERC1404TokenMinKYCv12.sol\":13185:13210  return _balances[account] */\n      swap1\n      pop\n        /* \"contracts/ERC1404TokenMinKYCv12.sol\":13082:13217  function balanceOf(address account) ... */\n      swap2\n      swap1\n      pop\n      jump\t// out\n        /* \"contracts/ERC1404TokenMinKYCv12.sol\":2823:2879  uint8 public constant No_Transfer_Restrictions_Found = 0 */\n    tag_128:\n        /* \"contracts/ERC1404TokenMinKYCv12.sol\":2878:2879  0 */\n      0x00\n        /* \"contracts/ERC1404TokenMinKYCv12.sol\":2823:2879  uint8 public constant No_Transfer_Restrictions_Found = 0 */\n      dup2\n      jump\t// out\n        /* \"contracts/ERC1404TokenMinKYCv12.sol\":2248:2291  string public issuanceProtocol = \"ERC-1404\" */\n    tag_131:\n      0x09\n      dup1\n      sload\n      tag_310\n      swap1\n      tag_214\n      jump\t// in\n    tag_310:\n      dup1\n      0x1f\n      add\n      0x20\n      dup1\n      swap2\n      div\n      mul\n      0x20\n      add\n      mload(0x40)\n      swap1\n      dup2\n      add\n      0x40\n      mstore\n      dup1\n      swap3\n      swap2\n      swap1\n      dup2\n      dup2\n      mstore\n      0x20\n      add\n      dup3\n      dup1\n      sload\n      tag_311\n      swap1\n      tag_214\n      jump\t// in\n    tag_311:\n      dup1\n      iszero\n      tag_312\n      jumpi\n      dup1\n      0x1f\n      lt\n      tag_313\n      jumpi\n      0x0100\n      dup1\n      dup4\n      sload\n      div\n      mul\n      dup4\n      mstore\n      swap2\n      0x20\n      add\n      swap2\n      jump(tag_312)\n    tag_313:\n      dup3\n      add\n      swap2\n      swap1\n      0x00\n      mstore\n      keccak256(0x00, 0x20)\n      swap1\n    tag_314:\n      dup2\n      sload\n      dup2\n      mstore\n      swap1\n      0x01\n      add\n      swap1\n      0x20\n      add\n      dup1\n      dup4\n      gt\n      tag_314\n      jumpi\n      dup3\n      swap1\n      sub\n      0x1f\n      and\n      dup3\n      add\n      swap2\n    tag_312:\n      pop\n      pop\n      pop\n      pop\n      pop\n      dup2\n      jump\t// out\n        /* \"contracts/ERC1404TokenMinKYCv12.sol\":11466:12895  function messageForTransferRestriction (uint8 restrictionCode)... */\n    tag_136:\n        /* \"contracts/ERC1404TokenMinKYCv12.sol\":11571:11592  string memory message */\n      0x60\n        /* \"contracts/ERC1404TokenMinKYCv12.sol\":2878:2879  0 */\n      0x00\n        /* \"contracts/ERC1404TokenMinKYCv12.sol\":11612:11661  restrictionCode == No_Transfer_Restrictions_Found */\n      0xff\n      and\n        /* \"contracts/ERC1404TokenMinKYCv12.sol\":11612:11627  restrictionCode */\n      dup3\n        /* \"contracts/ERC1404TokenMinKYCv12.sol\":11612:11661  restrictionCode == No_Transfer_Restrictions_Found */\n      0xff\n      and\n      eq\n        /* \"contracts/ERC1404TokenMinKYCv12.sol\":11608:12888  if (restrictionCode == No_Transfer_Restrictions_Found) ... */\n      iszero\n      tag_316\n      jumpi\n        /* \"contracts/ERC1404TokenMinKYCv12.sol\":11676:11718  message = \"No transfer restrictions found\" */\n      mload(0x40)\n      dup1\n      0x40\n      add\n      0x40\n      mstore\n      dup1\n      0x1e\n      dup2\n      mstore\n      0x20\n      add\n      0x4e6f207472616e73666572207265737472696374696f6e7320666f756e640000\n      dup2\n      mstore\n      pop\n      swap1\n      pop\n        /* \"contracts/ERC1404TokenMinKYCv12.sol\":11608:12888  if (restrictionCode == No_Transfer_Restrictions_Found) ... */\n      jump(tag_317)\n    tag_316:\n        /* \"contracts/ERC1404TokenMinKYCv12.sol\":2935:2936  1 */\n      0x01\n        /* \"contracts/ERC1404TokenMinKYCv12.sol\":11737:11784  restrictionCode == Max_Allowed_Investors_Exceed */\n      0xff\n      and\n        /* \"contracts/ERC1404TokenMinKYCv12.sol\":11737:11752  restrictionCode */\n      dup3\n        /* \"contracts/ERC1404TokenMinKYCv12.sol\":11737:11784  restrictionCode == Max_Allowed_Investors_Exceed */\n      0xff\n      and\n      eq\n        /* \"contracts/ERC1404TokenMinKYCv12.sol\":11733:12888  if (restrictionCode == Max_Allowed_Investors_Exceed) ... */\n      iszero\n      tag_318\n      jumpi\n        /* \"contracts/ERC1404TokenMinKYCv12.sol\":11799:11898  message = \"Max allowed investor restriction is in place, this transfer will exceed this limitation\" */\n      mload(0x40)\n      dup1\n      0x80\n      add\n      0x40\n      mstore\n      dup1\n      0x57\n      dup2\n      mstore\n      0x20\n      add\n      data_4440c032e746f33200962f44b90c6baeb8a9490cc8cfdd8f15a36acf65844772\n      0x57\n      swap2\n      codecopy\n      swap1\n      pop\n        /* \"contracts/ERC1404TokenMinKYCv12.sol\":11733:12888  if (restrictionCode == Max_Allowed_Investors_Exceed) ... */\n      jump(tag_319)\n    tag_318:\n        /* \"contracts/ERC1404TokenMinKYCv12.sol\":2982:2983  2 */\n      0x02\n        /* \"contracts/ERC1404TokenMinKYCv12.sol\":11917:11954  restrictionCode == Transfers_Disabled */\n      0xff\n      and\n        /* \"contracts/ERC1404TokenMinKYCv12.sol\":11917:11932  restrictionCode */\n      dup3\n        /* \"contracts/ERC1404TokenMinKYCv12.sol\":11917:11954  restrictionCode == Transfers_Disabled */\n      0xff\n      and\n      eq\n        /* \"contracts/ERC1404TokenMinKYCv12.sol\":11913:12888  if (restrictionCode == Transfers_Disabled) ... */\n      iszero\n      tag_320\n      jumpi\n        /* \"contracts/ERC1404TokenMinKYCv12.sol\":11969:12049  message = \"All transfers are disabled because Holding Period is not yet expired\" */\n      mload(0x40)\n      dup1\n      0x80\n      add\n      0x40\n      mstore\n      dup1\n      0x44\n      dup2\n      mstore\n      0x20\n      add\n      data_c06fda3c41df076643499cebb61f71adfbc909dbd75501db341cc82d5933142b\n      0x44\n      swap2\n      codecopy\n      swap1\n      pop\n        /* \"contracts/ERC1404TokenMinKYCv12.sol\":11913:12888  if (restrictionCode == Transfers_Disabled) ... */\n      jump(tag_321)\n    tag_320:\n        /* \"contracts/ERC1404TokenMinKYCv12.sol\":3037:3038  3 */\n      0x03\n        /* \"contracts/ERC1404TokenMinKYCv12.sol\":12068:12113  restrictionCode == Transfer_Value_Cannot_Zero */\n      0xff\n      and\n        /* \"contracts/ERC1404TokenMinKYCv12.sol\":12068:12083  restrictionCode */\n      dup3\n        /* \"contracts/ERC1404TokenMinKYCv12.sol\":12068:12113  restrictionCode == Transfer_Value_Cannot_Zero */\n      0xff\n      and\n      eq\n        /* \"contracts/ERC1404TokenMinKYCv12.sol\":12064:12888  if (restrictionCode == Transfer_Value_Cannot_Zero) ... */\n      iszero\n      tag_322\n      jumpi\n        /* \"contracts/ERC1404TokenMinKYCv12.sol\":12128:12172  message = \"Zero transfer amount not allowed\" */\n      mload(0x40)\n      dup1\n      0x40\n      add\n      0x40\n      mstore\n      dup1\n      0x20\n      dup2\n      mstore\n      0x20\n      add\n      0x5a65726f207472616e7366657220616d6f756e74206e6f7420616c6c6f776564\n      dup2\n      mstore\n      pop\n      swap1\n      pop\n        /* \"contracts/ERC1404TokenMinKYCv12.sol\":12064:12888  if (restrictionCode == Transfer_Value_Cannot_Zero) ... */\n      jump(tag_323)\n    tag_322:\n        /* \"contracts/ERC1404TokenMinKYCv12.sol\":3099:3100  4 */\n      0x04\n        /* \"contracts/ERC1404TokenMinKYCv12.sol\":12191:12243  restrictionCode == Sender_Not_Whitelisted_or_Blocked */\n      0xff\n      and\n        /* \"contracts/ERC1404TokenMinKYCv12.sol\":12191:12206  restrictionCode */\n      dup3\n        /* \"contracts/ERC1404TokenMinKYCv12.sol\":12191:12243  restrictionCode == Sender_Not_Whitelisted_or_Blocked */\n      0xff\n      and\n      eq\n        /* \"contracts/ERC1404TokenMinKYCv12.sol\":12187:12888  if (restrictionCode == Sender_Not_Whitelisted_or_Blocked) ... */\n      iszero\n      tag_324\n      jumpi\n        /* \"contracts/ERC1404TokenMinKYCv12.sol\":12258:12306  message = \"Sender is not whitelisted or blocked\" */\n      mload(0x40)\n      dup1\n      0x60\n      add\n      0x40\n      mstore\n      dup1\n      0x24\n      dup2\n      mstore\n      0x20\n      add\n      data_f32e889bc43e14f6f361a9fb16e2e4f7ae397532b0ea1cf85b8b8914d3f5dbc4\n      0x24\n      swap2\n      codecopy\n      swap1\n      pop\n        /* \"contracts/ERC1404TokenMinKYCv12.sol\":12187:12888  if (restrictionCode == Sender_Not_Whitelisted_or_Blocked) ... */\n      jump(tag_325)\n    tag_324:\n        /* \"contracts/ERC1404TokenMinKYCv12.sol\":3163:3164  5 */\n      0x05\n        /* \"contracts/ERC1404TokenMinKYCv12.sol\":12325:12379  restrictionCode == Receiver_Not_Whitelisted_or_Blocked */\n      0xff\n      and\n        /* \"contracts/ERC1404TokenMinKYCv12.sol\":12325:12340  restrictionCode */\n      dup3\n        /* \"contracts/ERC1404TokenMinKYCv12.sol\":12325:12379  restrictionCode == Receiver_Not_Whitelisted_or_Blocked */\n      0xff\n      and\n      eq\n        /* \"contracts/ERC1404TokenMinKYCv12.sol\":12321:12888  if (restrictionCode == Receiver_Not_Whitelisted_or_Blocked) ... */\n      iszero\n      tag_326\n      jumpi\n        /* \"contracts/ERC1404TokenMinKYCv12.sol\":12394:12444  message = \"Receiver is not whitelisted or blocked\" */\n      mload(0x40)\n      dup1\n      0x60\n      add\n      0x40\n      mstore\n      dup1\n      0x26\n      dup2\n      mstore\n      0x20\n      add\n      data_0bf17d6579a15f80cddc5ddc4c7802721ab098d4db24a2c055da5f58a25e33a5\n      0x26\n      swap2\n      codecopy\n      swap1\n      pop\n        /* \"contracts/ERC1404TokenMinKYCv12.sol\":12321:12888  if (restrictionCode == Receiver_Not_Whitelisted_or_Blocked) ... */\n      jump(tag_327)\n    tag_326:\n        /* \"contracts/ERC1404TokenMinKYCv12.sol\":3219:3220  6 */\n      0x06\n        /* \"contracts/ERC1404TokenMinKYCv12.sol\":12463:12509  restrictionCode == Sender_Under_Holding_Period */\n      0xff\n      and\n        /* \"contracts/ERC1404TokenMinKYCv12.sol\":12463:12478  restrictionCode */\n      dup3\n        /* \"contracts/ERC1404TokenMinKYCv12.sol\":12463:12509  restrictionCode == Sender_Under_Holding_Period */\n      0xff\n      and\n      eq\n        /* \"contracts/ERC1404TokenMinKYCv12.sol\":12459:12888  if (restrictionCode == Sender_Under_Holding_Period) ... */\n      iszero\n      tag_328\n      jumpi\n        /* \"contracts/ERC1404TokenMinKYCv12.sol\":12524:12640  message = \"Sender is whitelisted but is not eligible to send tokens and under holding period (KYC time restriction)\" */\n      mload(0x40)\n      dup1\n      0xa0\n      add\n      0x40\n      mstore\n      dup1\n      0x68\n      dup2\n      mstore\n      0x20\n      add\n      data_74c2d1263641840c4bf20a32b19f8ec2189d64e295faf5087433fd363b0d0b13\n      0x68\n      swap2\n      codecopy\n      swap1\n      pop\n        /* \"contracts/ERC1404TokenMinKYCv12.sol\":12459:12888  if (restrictionCode == Sender_Under_Holding_Period) ... */\n      jump(tag_329)\n    tag_328:\n        /* \"contracts/ERC1404TokenMinKYCv12.sol\":3277:3278  7 */\n      0x07\n        /* \"contracts/ERC1404TokenMinKYCv12.sol\":12659:12707  restrictionCode == Receiver_Under_Holding_Period */\n      0xff\n      and\n        /* \"contracts/ERC1404TokenMinKYCv12.sol\":12659:12674  restrictionCode */\n      dup3\n        /* \"contracts/ERC1404TokenMinKYCv12.sol\":12659:12707  restrictionCode == Receiver_Under_Holding_Period */\n      0xff\n      and\n      eq\n        /* \"contracts/ERC1404TokenMinKYCv12.sol\":12655:12888  if (restrictionCode == Receiver_Under_Holding_Period) ... */\n      iszero\n      tag_330\n      jumpi\n        /* \"contracts/ERC1404TokenMinKYCv12.sol\":12722:12836  message = \"Receiver is whitelisted but is not yet eligible to receive tokens in his wallet (KYC time restriction)\" */\n      mload(0x40)\n      dup1\n      0xa0\n      add\n      0x40\n      mstore\n      dup1\n      0x66\n      dup2\n      mstore\n      0x20\n      add\n      data_c0b3b74fbdbabd67b27d0f337b8b420091e75c6e12a17cd864ffcacf5ec7db0f\n      0x66\n      swap2\n      codecopy\n      swap1\n      pop\n        /* \"contracts/ERC1404TokenMinKYCv12.sol\":12655:12888  if (restrictionCode == Receiver_Under_Holding_Period) ... */\n      jump(tag_331)\n    tag_330:\n        /* \"contracts/ERC1404TokenMinKYCv12.sol\":12851:12888  message = \"Error code is not defined\" */\n      mload(0x40)\n      dup1\n      0x40\n      add\n      0x40\n      mstore\n      dup1\n      0x19\n      dup2\n      mstore\n      0x20\n      add\n      0x4572726f7220636f6465206973206e6f7420646566696e656400000000000000\n      dup2\n      mstore\n      pop\n      swap1\n      pop\n        /* \"contracts/ERC1404TokenMinKYCv12.sol\":12655:12888  if (restrictionCode == Receiver_Under_Holding_Period) ... */\n    tag_331:\n        /* \"contracts/ERC1404TokenMinKYCv12.sol\":12459:12888  if (restrictionCode == Sender_Under_Holding_Period) ... */\n    tag_329:\n        /* \"contracts/ERC1404TokenMinKYCv12.sol\":12321:12888  if (restrictionCode == Receiver_Not_Whitelisted_or_Blocked) ... */\n    tag_327:\n        /* \"contracts/ERC1404TokenMinKYCv12.sol\":12187:12888  if (restrictionCode == Sender_Not_Whitelisted_or_Blocked) ... */\n    tag_325:\n        /* \"contracts/ERC1404TokenMinKYCv12.sol\":12064:12888  if (restrictionCode == Transfer_Value_Cannot_Zero) ... */\n    tag_323:\n        /* \"contracts/ERC1404TokenMinKYCv12.sol\":11913:12888  if (restrictionCode == Transfers_Disabled) ... */\n    tag_321:\n        /* \"contracts/ERC1404TokenMinKYCv12.sol\":11733:12888  if (restrictionCode == Max_Allowed_Investors_Exceed) ... */\n    tag_319:\n        /* \"contracts/ERC1404TokenMinKYCv12.sol\":11608:12888  if (restrictionCode == No_Transfer_Restrictions_Found) ... */\n    tag_317:\n        /* \"contracts/ERC1404TokenMinKYCv12.sol\":11466:12895  function messageForTransferRestriction (uint8 restrictionCode)... */\n      swap2\n      swap1\n      pop\n      jump\t// out\n        /* \"contracts/ERC1404TokenMinKYCv12.sol\":2413:2442  string public CompanyHomepage */\n    tag_139:\n      0x0e\n      dup1\n      sload\n      tag_332\n      swap1\n      tag_214\n      jump\t// in\n    tag_332:\n      dup1\n      0x1f\n      add\n      0x20\n      dup1\n      swap2\n      div\n      mul\n      0x20\n      add\n      mload(0x40)\n      swap1\n      dup2\n      add\n      0x40\n      mstore\n      dup1\n      swap3\n      swap2\n      swap1\n      dup2\n      dup2\n      mstore\n      0x20\n      add\n      dup3\n      dup1\n      sload\n      tag_333\n      swap1\n      tag_214\n      jump\t// in\n    tag_333:\n      dup1\n      iszero\n      tag_334\n      jumpi\n      dup1\n      0x1f\n      lt\n      tag_335\n      jumpi\n      0x0100\n      dup1\n      dup4\n      sload\n      div\n      mul\n      dup4\n      mstore\n      swap2\n      0x20\n      add\n      swap2\n      jump(tag_334)\n    tag_335:\n      dup3\n      add\n      swap2\n      swap1\n      0x00\n      mstore\n      keccak256(0x00, 0x20)\n      swap1\n    tag_336:\n      dup2\n      sload\n      dup2\n      mstore\n      swap1\n      0x01\n      add\n      swap1\n      0x20\n      add\n      dup1\n      dup4\n      gt\n      tag_336\n      jumpi\n      dup3\n      swap1\n      sub\n      0x1f\n      and\n      dup3\n      add\n      swap2\n    tag_334:\n      pop\n      pop\n      pop\n      pop\n      pop\n      dup2\n      jump\t// out\n        /* \"contracts/ERC1404TokenMinKYCv12.sol\":3041:3100  uint8 public constant Sender_Not_Whitelisted_or_Blocked = 4 */\n    tag_142:\n        /* \"contracts/ERC1404TokenMinKYCv12.sol\":3099:3100  4 */\n      0x04\n        /* \"contracts/ERC1404TokenMinKYCv12.sol\":3041:3100  uint8 public constant Sender_Not_Whitelisted_or_Blocked = 4 */\n      dup2\n      jump\t// out\n        /* \"contracts/ERC1404TokenMinKYCv12.sol\":5641:5726  function owner() ... */\n    tag_145:\n        /* \"contracts/ERC1404TokenMinKYCv12.sol\":5687:5694  address */\n      0x00\n        /* \"contracts/ERC1404TokenMinKYCv12.sol\":5713:5719  _owner */\n      0x04\n      0x00\n      swap1\n      sload\n      swap1\n      0x0100\n      exp\n      swap1\n      div\n      0xffffffffffffffffffffffffffffffffffffffff\n      and\n        /* \"contracts/ERC1404TokenMinKYCv12.sol\":5706:5719  return _owner */\n      swap1\n      pop\n        /* \"contracts/ERC1404TokenMinKYCv12.sol\":5641:5726  function owner() ... */\n      swap1\n      jump\t// out\n        /* \"contracts/ERC1404TokenMinKYCv12.sol\":2939:2983  uint8 public constant Transfers_Disabled = 2 */\n    tag_149:\n        /* \"contracts/ERC1404TokenMinKYCv12.sol\":2982:2983  2 */\n      0x02\n        /* \"contracts/ERC1404TokenMinKYCv12.sol\":2939:2983  uint8 public constant Transfers_Disabled = 2 */\n      dup2\n      jump\t// out\n        /* \"contracts/ERC1404TokenMinKYCv12.sol\":2355:2375  string public symbol */\n    tag_152:\n      0x0c\n      dup1\n      sload\n      tag_338\n      swap1\n      tag_214\n      jump\t// in\n    tag_338:\n      dup1\n      0x1f\n      add\n      0x20\n      dup1\n      swap2\n      div\n      mul\n      0x20\n      add\n      mload(0x40)\n      swap1\n      dup2\n      add\n      0x40\n      mstore\n      dup1\n      swap3\n      swap2\n      swap1\n      dup2\n      dup2\n      mstore\n      0x20\n      add\n      dup3\n      dup1\n      sload\n      tag_339\n      swap1\n      tag_214\n      jump\t// in\n    tag_339:\n      dup1\n      iszero\n      tag_340\n      jumpi\n      dup1\n      0x1f\n      lt\n      tag_341\n      jumpi\n      0x0100\n      dup1\n      dup4\n      sload\n      div\n      mul\n      dup4\n      mstore\n      swap2\n      0x20\n      add\n      swap2\n      jump(tag_340)\n    tag_341:\n      dup3\n      add\n      swap2\n      swap1\n      0x00\n      mstore\n      keccak256(0x00, 0x20)\n      swap1\n    tag_342:\n      dup2\n      sload\n      dup2\n      mstore\n      swap1\n      0x01\n      add\n      swap1\n      0x20\n      add\n      dup1\n      dup4\n      gt\n      tag_342\n      jumpi\n      dup3\n      swap1\n      sub\n      0x1f\n      and\n      dup3\n      add\n      swap2\n    tag_340:\n      pop\n      pop\n      pop\n      pop\n      pop\n      dup2\n      jump\t// out\n        /* \"contracts/ERC1404TokenMinKYCv12.sol\":15885:16234  function burn(address account, uint256 amount) ... */\n    tag_156:\n        /* \"contracts/ERC1404TokenMinKYCv12.sol\":15965:15969  bool */\n      0x00\n        /* \"contracts/ERC1404TokenMinKYCv12.sol\":5780:5790  msg.sender */\n      caller\n        /* \"contracts/ERC1404TokenMinKYCv12.sol\":5770:5790  _owner == msg.sender */\n      0xffffffffffffffffffffffffffffffffffffffff\n      and\n        /* \"contracts/ERC1404TokenMinKYCv12.sol\":5770:5776  _owner */\n      0x04\n      0x00\n      swap1\n      sload\n      swap1\n      0x0100\n      exp\n      swap1\n      div\n      0xffffffffffffffffffffffffffffffffffffffff\n      and\n        /* \"contracts/ERC1404TokenMinKYCv12.sol\":5770:5790  _owner == msg.sender */\n      0xffffffffffffffffffffffffffffffffffffffff\n      and\n      eq\n        /* \"contracts/ERC1404TokenMinKYCv12.sol\":5762:5828  require(_owner == msg.sender, \"Only owner has access to function\") */\n      tag_344\n      jumpi\n      mload(0x40)\n      0x08c379a000000000000000000000000000000000000000000000000000000000\n      dup2\n      mstore\n      0x04\n      add\n      tag_345\n      swap1\n      tag_264\n      jump\t// in\n    tag_345:\n      mload(0x40)\n      dup1\n      swap2\n      sub\n      swap1\n      revert\n    tag_344:\n        /* \"contracts/ERC1404TokenMinKYCv12.sol\":16011:16017  amount */\n      dup2\n        /* \"contracts/ERC1404TokenMinKYCv12.sol\":15989:15998  _balances */\n      0x02\n        /* \"contracts/ERC1404TokenMinKYCv12.sol\":15989:16007  _balances[account] */\n      0x00\n        /* \"contracts/ERC1404TokenMinKYCv12.sol\":15999:16006  account */\n      dup6\n        /* \"contracts/ERC1404TokenMinKYCv12.sol\":15989:16007  _balances[account] */\n      0xffffffffffffffffffffffffffffffffffffffff\n      and\n      0xffffffffffffffffffffffffffffffffffffffff\n      and\n      dup2\n      mstore\n      0x20\n      add\n      swap1\n      dup2\n      mstore\n      0x20\n      add\n      0x00\n      keccak256\n      sload\n        /* \"contracts/ERC1404TokenMinKYCv12.sol\":15989:16017  _balances[account] >= amount */\n      lt\n      iszero\n        /* \"contracts/ERC1404TokenMinKYCv12.sol\":15981:16065  require(_balances[account] >= amount, \"Burn amount is greater than address balance\") */\n      tag_347\n      jumpi\n      mload(0x40)\n      0x08c379a000000000000000000000000000000000000000000000000000000000\n      dup2\n      mstore\n      0x04\n      add\n      tag_348\n      swap1\n      tag_349\n      jump\t// in\n    tag_348:\n      mload(0x40)\n      dup1\n      swap2\n      sub\n      swap1\n      revert\n    tag_347:\n        /* \"contracts/ERC1404TokenMinKYCv12.sol\":16106:16112  amount */\n      dup2\n        /* \"contracts/ERC1404TokenMinKYCv12.sol\":16091:16103  _totalSupply */\n      sload(0x0a)\n        /* \"contracts/ERC1404TokenMinKYCv12.sol\":16091:16112  _totalSupply - amount */\n      tag_350\n      swap2\n      swap1\n      tag_256\n      jump\t// in\n    tag_350:\n        /* \"contracts/ERC1404TokenMinKYCv12.sol\":16076:16088  _totalSupply */\n      0x0a\n        /* \"contracts/ERC1404TokenMinKYCv12.sol\":16076:16112  _totalSupply = _totalSupply - amount */\n      dup2\n      swap1\n      sstore\n      pop\n        /* \"contracts/ERC1404TokenMinKYCv12.sol\":16164:16170  amount */\n      dup2\n        /* \"contracts/ERC1404TokenMinKYCv12.sol\":16143:16152  _balances */\n      0x02\n        /* \"contracts/ERC1404TokenMinKYCv12.sol\":16143:16161  _balances[account] */\n      0x00\n        /* \"contracts/ERC1404TokenMinKYCv12.sol\":16153:16160  account */\n      dup6\n        /* \"contracts/ERC1404TokenMinKYCv12.sol\":16143:16161  _balances[account] */\n      0xffffffffffffffffffffffffffffffffffffffff\n      and\n      0xffffffffffffffffffffffffffffffffffffffff\n      and\n      dup2\n      mstore\n      0x20\n      add\n      swap1\n      dup2\n      mstore\n      0x20\n      add\n      0x00\n      keccak256\n      sload\n        /* \"contracts/ERC1404TokenMinKYCv12.sol\":16143:16170  _balances[account] - amount */\n      tag_351\n      swap2\n      swap1\n      tag_256\n      jump\t// in\n    tag_351:\n        /* \"contracts/ERC1404TokenMinKYCv12.sol\":16122:16131  _balances */\n      0x02\n        /* \"contracts/ERC1404TokenMinKYCv12.sol\":16122:16140  _balances[account] */\n      0x00\n        /* \"contracts/ERC1404TokenMinKYCv12.sol\":16132:16139  account */\n      dup6\n        /* \"contracts/ERC1404TokenMinKYCv12.sol\":16122:16140  _balances[account] */\n      0xffffffffffffffffffffffffffffffffffffffff\n      and\n      0xffffffffffffffffffffffffffffffffffffffff\n      and\n      dup2\n      mstore\n      0x20\n      add\n      swap1\n      dup2\n      mstore\n      0x20\n      add\n      0x00\n      keccak256\n        /* \"contracts/ERC1404TokenMinKYCv12.sol\":16122:16170  _balances[account] = _balances[account] - amount */\n      dup2\n      swap1\n      sstore\n      pop\n        /* \"contracts/ERC1404TokenMinKYCv12.sol\":16196:16203  account */\n      dup3\n        /* \"contracts/ERC1404TokenMinKYCv12.sol\":16185:16212  BurnTokens(account, amount) */\n      0xffffffffffffffffffffffffffffffffffffffff\n      and\n      0x388d6102a0230861b4e9646fb5acda1c5ec15d39df2b619d39c25d16a1268490\n        /* \"contracts/ERC1404TokenMinKYCv12.sol\":16205:16211  amount */\n      dup4\n        /* \"contracts/ERC1404TokenMinKYCv12.sol\":16185:16212  BurnTokens(account, amount) */\n      mload(0x40)\n      tag_352\n      swap2\n      swap1\n      tag_75\n      jump\t// in\n    tag_352:\n      mload(0x40)\n      dup1\n      swap2\n      sub\n      swap1\n      log2\n        /* \"contracts/ERC1404TokenMinKYCv12.sol\":16223:16227  true */\n      0x01\n        /* \"contracts/ERC1404TokenMinKYCv12.sol\":16216:16227  return true */\n      swap1\n      pop\n        /* \"contracts/ERC1404TokenMinKYCv12.sol\":15885:16234  function burn(address account, uint256 amount) ... */\n      swap3\n      swap2\n      pop\n      pop\n      jump\t// out\n        /* \"contracts/ERC1404TokenMinKYCv12.sol\":13760:14012  function transfer(... */\n    tag_160:\n        /* \"contracts/ERC1404TokenMinKYCv12.sol\":13915:13919  bool */\n      0x00\n        /* \"contracts/ERC1404TokenMinKYCv12.sol\":13874:13884  msg.sender */\n      caller\n        /* \"contracts/ERC1404TokenMinKYCv12.sol\":13886:13895  recipient */\n      dup4\n        /* \"contracts/ERC1404TokenMinKYCv12.sol\":13897:13903  amount */\n      dup4\n        /* \"contracts/ERC1404TokenMinKYCv12.sol\":8588:8609  uint8 restrictionCode */\n      0x00\n        /* \"contracts/ERC1404TokenMinKYCv12.sol\":8612:8654  detectTransferRestriction(from, to, value) */\n      tag_354\n        /* \"contracts/ERC1404TokenMinKYCv12.sol\":8638:8642  from */\n      dup5\n        /* \"contracts/ERC1404TokenMinKYCv12.sol\":8644:8646  to */\n      dup5\n        /* \"contracts/ERC1404TokenMinKYCv12.sol\":8648:8653  value */\n      dup5\n        /* \"contracts/ERC1404TokenMinKYCv12.sol\":8612:8637  detectTransferRestriction */\n      tag_190\n        /* \"contracts/ERC1404TokenMinKYCv12.sol\":8612:8654  detectTransferRestriction(from, to, value) */\n      jump\t// in\n    tag_354:\n        /* \"contracts/ERC1404TokenMinKYCv12.sol\":8588:8654  uint8 restrictionCode = detectTransferRestriction(from, to, value) */\n      swap1\n      pop\n        /* \"contracts/ERC1404TokenMinKYCv12.sol\":2878:2879  0 */\n      0x00\n        /* \"contracts/ERC1404TokenMinKYCv12.sol\":8662:8711  restrictionCode != No_Transfer_Restrictions_Found */\n      0xff\n      and\n        /* \"contracts/ERC1404TokenMinKYCv12.sol\":8662:8677  restrictionCode */\n      dup2\n        /* \"contracts/ERC1404TokenMinKYCv12.sol\":8662:8711  restrictionCode != No_Transfer_Restrictions_Found */\n      0xff\n      and\n      eq\n        /* \"contracts/ERC1404TokenMinKYCv12.sol\":8658:8910  if( restrictionCode != No_Transfer_Restrictions_Found ) {... */\n      tag_355\n      jumpi\n        /* \"contracts/ERC1404TokenMinKYCv12.sol\":8719:8745  string memory errorMessage */\n      0x00\n        /* \"contracts/ERC1404TokenMinKYCv12.sol\":8748:8794  messageForTransferRestriction(restrictionCode) */\n      tag_356\n        /* \"contracts/ERC1404TokenMinKYCv12.sol\":8778:8793  restrictionCode */\n      dup3\n        /* \"contracts/ERC1404TokenMinKYCv12.sol\":8748:8777  messageForTransferRestriction */\n      tag_136\n        /* \"contracts/ERC1404TokenMinKYCv12.sol\":8748:8794  messageForTransferRestriction(restrictionCode) */\n      jump\t// in\n    tag_356:\n        /* \"contracts/ERC1404TokenMinKYCv12.sol\":8719:8794  string memory errorMessage = messageForTransferRestriction(restrictionCode) */\n      swap1\n      pop\n        /* \"contracts/ERC1404TokenMinKYCv12.sol\":8839:8841  to */\n      dup4\n        /* \"contracts/ERC1404TokenMinKYCv12.sol\":8804:8857  TransferRestrictionDetected( from, to, errorMessage ) */\n      0xffffffffffffffffffffffffffffffffffffffff\n      and\n        /* \"contracts/ERC1404TokenMinKYCv12.sol\":8833:8837  from */\n      dup6\n        /* \"contracts/ERC1404TokenMinKYCv12.sol\":8804:8857  TransferRestrictionDetected( from, to, errorMessage ) */\n      0xffffffffffffffffffffffffffffffffffffffff\n      and\n      0x2fdd8c36dbe5614497208665e8d30c570421680d09984e3153829ddabd30c094\n        /* \"contracts/ERC1404TokenMinKYCv12.sol\":8843:8855  errorMessage */\n      dup4\n        /* \"contracts/ERC1404TokenMinKYCv12.sol\":8804:8857  TransferRestrictionDetected( from, to, errorMessage ) */\n      mload(0x40)\n      tag_357\n      swap2\n      swap1\n      tag_57\n      jump\t// in\n    tag_357:\n      mload(0x40)\n      dup1\n      swap2\n      sub\n      swap1\n      log3\n        /* \"contracts/ERC1404TokenMinKYCv12.sol\":8875:8887  errorMessage */\n      dup1\n        /* \"contracts/ERC1404TokenMinKYCv12.sol\":8868:8888  revert(errorMessage) */\n      mload(0x40)\n      0x08c379a000000000000000000000000000000000000000000000000000000000\n      dup2\n      mstore\n      0x04\n      add\n      tag_358\n      swap2\n      swap1\n      tag_57\n      jump\t// in\n    tag_358:\n      mload(0x40)\n      dup1\n      swap2\n      sub\n      swap1\n      revert\n        /* \"contracts/ERC1404TokenMinKYCv12.sol\":8658:8910  if( restrictionCode != No_Transfer_Restrictions_Found ) {... */\n    tag_355:\n        /* \"contracts/ERC1404TokenMinKYCv12.sol\":13926:13990  transferSharesBetweenInvestors ( msg.sender, recipient, amount ) */\n      tag_361\n        /* \"contracts/ERC1404TokenMinKYCv12.sol\":13959:13969  msg.sender */\n      caller\n        /* \"contracts/ERC1404TokenMinKYCv12.sol\":13971:13980  recipient */\n      dup9\n        /* \"contracts/ERC1404TokenMinKYCv12.sol\":13982:13988  amount */\n      dup9\n        /* \"contracts/ERC1404TokenMinKYCv12.sol\":13926:13956  transferSharesBetweenInvestors */\n      tag_254\n        /* \"contracts/ERC1404TokenMinKYCv12.sol\":13926:13990  transferSharesBetweenInvestors ( msg.sender, recipient, amount ) */\n      jump\t// in\n    tag_361:\n        /* \"contracts/ERC1404TokenMinKYCv12.sol\":14001:14005  true */\n      0x01\n        /* \"contracts/ERC1404TokenMinKYCv12.sol\":13994:14005  return true */\n      swap5\n      pop\n        /* \"contracts/ERC1404TokenMinKYCv12.sol\":8578:8917  {... */\n      pop\n        /* \"contracts/ERC1404TokenMinKYCv12.sol\":13760:14012  function transfer(... */\n      pop\n      pop\n      pop\n      swap3\n      swap2\n      pop\n      pop\n      jump\t// out\n        /* \"contracts/ERC1404TokenMinKYCv12.sol\":8160:8305  function getKYCData(address user) ... */\n    tag_164:\n        /* \"contracts/ERC1404TokenMinKYCv12.sol\":8222:8229  uint256 */\n      0x00\n        /* \"contracts/ERC1404TokenMinKYCv12.sol\":8231:8238  uint256 */\n      dup1\n        /* \"contracts/ERC1404TokenMinKYCv12.sol\":8253:8268  _buyRestriction */\n      0x00\n        /* \"contracts/ERC1404TokenMinKYCv12.sol\":8253:8274  _buyRestriction[user] */\n      dup1\n        /* \"contracts/ERC1404TokenMinKYCv12.sol\":8269:8273  user */\n      dup5\n        /* \"contracts/ERC1404TokenMinKYCv12.sol\":8253:8274  _buyRestriction[user] */\n      0xffffffffffffffffffffffffffffffffffffffff\n      and\n      0xffffffffffffffffffffffffffffffffffffffff\n      and\n      dup2\n      mstore\n      0x20\n      add\n      swap1\n      dup2\n      mstore\n      0x20\n      add\n      0x00\n      keccak256\n      sload\n        /* \"contracts/ERC1404TokenMinKYCv12.sol\":8277:8293  _sellRestriction */\n      0x01\n        /* \"contracts/ERC1404TokenMinKYCv12.sol\":8277:8299  _sellRestriction[user] */\n      0x00\n        /* \"contracts/ERC1404TokenMinKYCv12.sol\":8294:8298  user */\n      dup6\n        /* \"contracts/ERC1404TokenMinKYCv12.sol\":8277:8299  _sellRestriction[user] */\n      0xffffffffffffffffffffffffffffffffffffffff\n      and\n      0xffffffffffffffffffffffffffffffffffffffff\n      and\n      dup2\n      mstore\n      0x20\n      add\n      swap1\n      dup2\n      mstore\n      0x20\n      add\n      0x00\n      keccak256\n      sload\n        /* \"contracts/ERC1404TokenMinKYCv12.sol\":8245:8301  return (_buyRestriction[user] , _sellRestriction[user] ) */\n      swap2\n      pop\n      swap2\n      pop\n        /* \"contracts/ERC1404TokenMinKYCv12.sol\":8160:8305  function getKYCData(address user) ... */\n      swap2\n      pop\n      swap2\n      jump\t// out\n        /* \"contracts/ERC1404TokenMinKYCv12.sol\":4440:4620  function resetCompanyHomepage(string memory _CompanyHomepage) ... */\n    tag_169:\n        /* \"contracts/ERC1404TokenMinKYCv12.sol\":5780:5790  msg.sender */\n      caller\n        /* \"contracts/ERC1404TokenMinKYCv12.sol\":5770:5790  _owner == msg.sender */\n      0xffffffffffffffffffffffffffffffffffffffff\n      and\n        /* \"contracts/ERC1404TokenMinKYCv12.sol\":5770:5776  _owner */\n      0x04\n      0x00\n      swap1\n      sload\n      swap1\n      0x0100\n      exp\n      swap1\n      div\n      0xffffffffffffffffffffffffffffffffffffffff\n      and\n        /* \"contracts/ERC1404TokenMinKYCv12.sol\":5770:5790  _owner == msg.sender */\n      0xffffffffffffffffffffffffffffffffffffffff\n      and\n      eq\n        /* \"contracts/ERC1404TokenMinKYCv12.sol\":5762:5828  require(_owner == msg.sender, \"Only owner has access to function\") */\n      tag_364\n      jumpi\n      mload(0x40)\n      0x08c379a000000000000000000000000000000000000000000000000000000000\n      dup2\n      mstore\n      0x04\n      add\n      tag_365\n      swap1\n      tag_264\n      jump\t// in\n    tag_365:\n      mload(0x40)\n      dup1\n      swap2\n      sub\n      swap1\n      revert\n    tag_364:\n        /* \"contracts/ERC1404TokenMinKYCv12.sol\":4548:4564  _CompanyHomepage */\n      dup1\n        /* \"contracts/ERC1404TokenMinKYCv12.sol\":4530:4545  CompanyHomepage */\n      0x0e\n        /* \"contracts/ERC1404TokenMinKYCv12.sol\":4530:4564  CompanyHomepage = _CompanyHomepage */\n      swap1\n      dup1\n      mload\n      swap1\n      0x20\n      add\n      swap1\n      tag_367\n      swap3\n      swap2\n      swap1\n      tag_283\n      jump\t// in\n    tag_367:\n      pop\n        /* \"contracts/ERC1404TokenMinKYCv12.sol\":4574:4613  CompanyHomepageReset (_CompanyHomepage) */\n      0x824a3f3055c070014bc7157744915537c646ae1a287c988d79ec124d88938e94\n        /* \"contracts/ERC1404TokenMinKYCv12.sol\":4596:4612  _CompanyHomepage */\n      dup2\n        /* \"contracts/ERC1404TokenMinKYCv12.sol\":4574:4613  CompanyHomepageReset (_CompanyHomepage) */\n      mload(0x40)\n      tag_368\n      swap2\n      swap1\n      tag_57\n      jump\t// in\n    tag_368:\n      mload(0x40)\n      dup1\n      swap2\n      sub\n      swap1\n      log1\n        /* \"contracts/ERC1404TokenMinKYCv12.sol\":4440:4620  function resetCompanyHomepage(string memory _CompanyHomepage) ... */\n      pop\n      jump\t// out\n        /* \"contracts/ERC1404TokenMinKYCv12.sol\":4248:4434  function resetShareCertificate(string memory _ShareCertificate) ... */\n    tag_172:\n        /* \"contracts/ERC1404TokenMinKYCv12.sol\":5780:5790  msg.sender */\n      caller\n        /* \"contracts/ERC1404TokenMinKYCv12.sol\":5770:5790  _owner == msg.sender */\n      0xffffffffffffffffffffffffffffffffffffffff\n      and\n        /* \"contracts/ERC1404TokenMinKYCv12.sol\":5770:5776  _owner */\n      0x04\n      0x00\n      swap1\n      sload\n      swap1\n      0x0100\n      exp\n      swap1\n      div\n      0xffffffffffffffffffffffffffffffffffffffff\n      and\n        /* \"contracts/ERC1404TokenMinKYCv12.sol\":5770:5790  _owner == msg.sender */\n      0xffffffffffffffffffffffffffffffffffffffff\n      and\n      eq\n        /* \"contracts/ERC1404TokenMinKYCv12.sol\":5762:5828  require(_owner == msg.sender, \"Only owner has access to function\") */\n      tag_370\n      jumpi\n      mload(0x40)\n      0x08c379a000000000000000000000000000000000000000000000000000000000\n      dup2\n      mstore\n      0x04\n      add\n      tag_371\n      swap1\n      tag_264\n      jump\t// in\n    tag_371:\n      mload(0x40)\n      dup1\n      swap2\n      sub\n      swap1\n      revert\n    tag_370:\n        /* \"contracts/ERC1404TokenMinKYCv12.sol\":4359:4376  _ShareCertificate */\n      dup1\n        /* \"contracts/ERC1404TokenMinKYCv12.sol\":4340:4356  ShareCertificate */\n      0x0d\n        /* \"contracts/ERC1404TokenMinKYCv12.sol\":4340:4376  ShareCertificate = _ShareCertificate */\n      swap1\n      dup1\n      mload\n      swap1\n      0x20\n      add\n      swap1\n      tag_373\n      swap3\n      swap2\n      swap1\n      tag_283\n      jump\t// in\n    tag_373:\n      pop\n        /* \"contracts/ERC1404TokenMinKYCv12.sol\":4386:4427  ShareCertificateReset (_ShareCertificate) */\n      0x4295968313e92c7dd40aa9c85be9b7246ff59503751e11205c85795a2f74fdb3\n        /* \"contracts/ERC1404TokenMinKYCv12.sol\":4409:4426  _ShareCertificate */\n      dup2\n        /* \"contracts/ERC1404TokenMinKYCv12.sol\":4386:4427  ShareCertificateReset (_ShareCertificate) */\n      mload(0x40)\n      tag_374\n      swap2\n      swap1\n      tag_57\n      jump\t// in\n    tag_374:\n      mload(0x40)\n      dup1\n      swap2\n      sub\n      swap1\n      log1\n        /* \"contracts/ERC1404TokenMinKYCv12.sol\":4248:4434  function resetShareCertificate(string memory _ShareCertificate) ... */\n      pop\n      jump\t// out\n        /* \"contracts/ERC1404TokenMinKYCv12.sol\":2986:3038  uint8 public constant Transfer_Value_Cannot_Zero = 3 */\n    tag_174:\n        /* \"contracts/ERC1404TokenMinKYCv12.sol\":3037:3038  3 */\n      0x03\n        /* \"contracts/ERC1404TokenMinKYCv12.sol\":2986:3038  uint8 public constant Transfer_Value_Cannot_Zero = 3 */\n      dup2\n      jump\t// out\n        /* \"contracts/ERC1404TokenMinKYCv12.sol\":2445:2475  string public CompanyLegalDocs */\n    tag_177:\n      0x0f\n      dup1\n      sload\n      tag_375\n      swap1\n      tag_214\n      jump\t// in\n    tag_375:\n      dup1\n      0x1f\n      add\n      0x20\n      dup1\n      swap2\n      div\n      mul\n      0x20\n      add\n      mload(0x40)\n      swap1\n      dup2\n      add\n      0x40\n      mstore\n      dup1\n      swap3\n      swap2\n      swap1\n      dup2\n      dup2\n      mstore\n      0x20\n      add\n      dup3\n      dup1\n      sload\n      tag_376\n      swap1\n      tag_214\n      jump\t// in\n    tag_376:\n      dup1\n      iszero\n      tag_377\n      jumpi\n      dup1\n      0x1f\n      lt\n      tag_378\n      jumpi\n      0x0100\n      dup1\n      dup4\n      sload\n      div\n      mul\n      dup4\n      mstore\n      swap2\n      0x20\n      add\n      swap2\n      jump(tag_377)\n    tag_378:\n      dup3\n      add\n      swap2\n      swap1\n      0x00\n      mstore\n      keccak256(0x00, 0x20)\n      swap1\n    tag_379:\n      dup2\n      sload\n      dup2\n      mstore\n      swap1\n      0x01\n      add\n      swap1\n      0x20\n      add\n      dup1\n      dup4\n      gt\n      tag_379\n      jumpi\n      dup3\n      swap1\n      sub\n      0x1f\n      and\n      dup3\n      add\n      swap2\n    tag_377:\n      pop\n      pop\n      pop\n      pop\n      pop\n      dup2\n      jump\t// out\n        /* \"contracts/ERC1404TokenMinKYCv12.sol\":5313:5507  function setTradingHoldingPeriod(uint256 _tradingHoldingPeriod) ... */\n    tag_181:\n        /* \"contracts/ERC1404TokenMinKYCv12.sol\":5780:5790  msg.sender */\n      caller\n        /* \"contracts/ERC1404TokenMinKYCv12.sol\":5770:5790  _owner == msg.sender */\n      0xffffffffffffffffffffffffffffffffffffffff\n      and\n        /* \"contracts/ERC1404TokenMinKYCv12.sol\":5770:5776  _owner */\n      0x04\n      0x00\n      swap1\n      sload\n      swap1\n      0x0100\n      exp\n      swap1\n      div\n      0xffffffffffffffffffffffffffffffffffffffff\n      and\n        /* \"contracts/ERC1404TokenMinKYCv12.sol\":5770:5790  _owner == msg.sender */\n      0xffffffffffffffffffffffffffffffffffffffff\n      and\n      eq\n        /* \"contracts/ERC1404TokenMinKYCv12.sol\":5762:5828  require(_owner == msg.sender, \"Only owner has access to function\") */\n      tag_381\n      jumpi\n      mload(0x40)\n      0x08c379a000000000000000000000000000000000000000000000000000000000\n      dup2\n      mstore\n      0x04\n      add\n      tag_382\n      swap1\n      tag_264\n      jump\t// in\n    tag_382:\n      mload(0x40)\n      dup1\n      swap2\n      sub\n      swap1\n      revert\n    tag_381:\n        /* \"contracts/ERC1404TokenMinKYCv12.sol\":5428:5449  _tradingHoldingPeriod */\n      dup1\n        /* \"contracts/ERC1404TokenMinKYCv12.sol\":5405:5425  tradingHoldingPeriod */\n      0x12\n        /* \"contracts/ERC1404TokenMinKYCv12.sol\":5405:5449  tradingHoldingPeriod = _tradingHoldingPeriod */\n      dup2\n      swap1\n      sstore\n      pop\n        /* \"contracts/ERC1404TokenMinKYCv12.sol\":5459:5500  HoldingPeriodReset(_tradingHoldingPeriod) */\n      0x050293e6952eab2f7cf401de4a51c1918da86a2bd5a7276a11ae3dd4a549cde9\n        /* \"contracts/ERC1404TokenMinKYCv12.sol\":5478:5499  _tradingHoldingPeriod */\n      dup2\n        /* \"contracts/ERC1404TokenMinKYCv12.sol\":5459:5500  HoldingPeriodReset(_tradingHoldingPeriod) */\n      mload(0x40)\n      tag_384\n      swap2\n      swap1\n      tag_75\n      jump\t// in\n    tag_384:\n      mload(0x40)\n      dup1\n      swap2\n      sub\n      swap1\n      log1\n        /* \"contracts/ERC1404TokenMinKYCv12.sol\":5313:5507  function setTradingHoldingPeriod(uint256 _tradingHoldingPeriod) ... */\n      pop\n      jump\t// out\n        /* \"contracts/ERC1404TokenMinKYCv12.sol\":3167:3220  uint8 public constant Sender_Under_Holding_Period = 6 */\n    tag_183:\n        /* \"contracts/ERC1404TokenMinKYCv12.sol\":3219:3220  6 */\n      0x06\n        /* \"contracts/ERC1404TokenMinKYCv12.sol\":3167:3220  uint8 public constant Sender_Under_Holding_Period = 6 */\n      dup2\n      jump\t// out\n        /* \"contracts/ERC1404TokenMinKYCv12.sol\":6239:6401  function setWhitelistAuthorityStatus(address user)... */\n    tag_187:\n        /* \"contracts/ERC1404TokenMinKYCv12.sol\":5780:5790  msg.sender */\n      caller\n        /* \"contracts/ERC1404TokenMinKYCv12.sol\":5770:5790  _owner == msg.sender */\n      0xffffffffffffffffffffffffffffffffffffffff\n      and\n        /* \"contracts/ERC1404TokenMinKYCv12.sol\":5770:5776  _owner */\n      0x04\n      0x00\n      swap1\n      sload\n      swap1\n      0x0100\n      exp\n      swap1\n      div\n      0xffffffffffffffffffffffffffffffffffffffff\n      and\n        /* \"contracts/ERC1404TokenMinKYCv12.sol\":5770:5790  _owner == msg.sender */\n      0xffffffffffffffffffffffffffffffffffffffff\n      and\n      eq\n        /* \"contracts/ERC1404TokenMinKYCv12.sol\":5762:5828  require(_owner == msg.sender, \"Only owner has access to function\") */\n      tag_386\n      jumpi\n      mload(0x40)\n      0x08c379a000000000000000000000000000000000000000000000000000000000\n      dup2\n      mstore\n      0x04\n      add\n      tag_387\n      swap1\n      tag_264\n      jump\t// in\n    tag_387:\n      mload(0x40)\n      dup1\n      swap2\n      sub\n      swap1\n      revert\n    tag_386:\n        /* \"contracts/ERC1404TokenMinKYCv12.sol\":6351:6355  true */\n      0x01\n        /* \"contracts/ERC1404TokenMinKYCv12.sol\":6316:6342  _whitelistControlAuthority */\n      0x05\n        /* \"contracts/ERC1404TokenMinKYCv12.sol\":6316:6348  _whitelistControlAuthority[user] */\n      0x00\n        /* \"contracts/ERC1404TokenMinKYCv12.sol\":6343:6347  user */\n      dup4\n        /* \"contracts/ERC1404TokenMinKYCv12.sol\":6316:6348  _whitelistControlAuthority[user] */\n      0xffffffffffffffffffffffffffffffffffffffff\n      and\n      0xffffffffffffffffffffffffffffffffffffffff\n      and\n      dup2\n      mstore\n      0x20\n      add\n      swap1\n      dup2\n      mstore\n      0x20\n      add\n      0x00\n      keccak256\n      0x00\n        /* \"contracts/ERC1404TokenMinKYCv12.sol\":6316:6355  _whitelistControlAuthority[user] = true */\n      0x0100\n      exp\n      dup2\n      sload\n      dup2\n      0xff\n      mul\n      not\n      and\n      swap1\n      dup4\n      iszero\n      iszero\n      mul\n      or\n      swap1\n      sstore\n      pop\n        /* \"contracts/ERC1404TokenMinKYCv12.sol\":6364:6397  WhitelistAuthorityStatusSet(user) */\n      0xea54bdb8a4594aaac063e3b01ab3e613bf4cb045d085502c81497c9696aca8b2\n        /* \"contracts/ERC1404TokenMinKYCv12.sol\":6392:6396  user */\n      dup2\n        /* \"contracts/ERC1404TokenMinKYCv12.sol\":6364:6397  WhitelistAuthorityStatusSet(user) */\n      mload(0x40)\n      tag_389\n      swap2\n      swap1\n      tag_147\n      jump\t// in\n    tag_389:\n      mload(0x40)\n      dup1\n      swap2\n      sub\n      swap1\n      log1\n        /* \"contracts/ERC1404TokenMinKYCv12.sol\":6239:6401  function setWhitelistAuthorityStatus(address user)... */\n      pop\n      jump\t// out\n        /* \"contracts/ERC1404TokenMinKYCv12.sol\":8925:11459  function detectTransferRestriction (address _from, address _to, uint256 value) ... */\n    tag_190:\n        /* \"contracts/ERC1404TokenMinKYCv12.sol\":9041:9053  uint8 status */\n      0x00\n        /* \"contracts/ERC1404TokenMinKYCv12.sol\":9243:9263  tradingHoldingPeriod */\n      sload(0x12)\n        /* \"contracts/ERC1404TokenMinKYCv12.sol\":9225:9240  block.timestamp */\n      timestamp\n        /* \"contracts/ERC1404TokenMinKYCv12.sol\":9225:9263  block.timestamp < tradingHoldingPeriod */\n      lt\n        /* \"contracts/ERC1404TokenMinKYCv12.sol\":9225:9282  block.timestamp < tradingHoldingPeriod && _from != _owner */\n      dup1\n      iszero\n      tag_391\n      jumpi\n      pop\n        /* \"contracts/ERC1404TokenMinKYCv12.sol\":9276:9282  _owner */\n      0x04\n      0x00\n      swap1\n      sload\n      swap1\n      0x0100\n      exp\n      swap1\n      div\n      0xffffffffffffffffffffffffffffffffffffffff\n      and\n        /* \"contracts/ERC1404TokenMinKYCv12.sol\":9267:9282  _from != _owner */\n      0xffffffffffffffffffffffffffffffffffffffff\n      and\n        /* \"contracts/ERC1404TokenMinKYCv12.sol\":9267:9272  _from */\n      dup5\n        /* \"contracts/ERC1404TokenMinKYCv12.sol\":9267:9282  _from != _owner */\n      0xffffffffffffffffffffffffffffffffffffffff\n      and\n      eq\n      iszero\n        /* \"contracts/ERC1404TokenMinKYCv12.sol\":9225:9282  block.timestamp < tradingHoldingPeriod && _from != _owner */\n    tag_391:\n        /* \"contracts/ERC1404TokenMinKYCv12.sol\":9222:9314  if(block.timestamp < tradingHoldingPeriod && _from != _owner)... */\n      iszero\n      tag_392\n      jumpi\n        /* \"contracts/ERC1404TokenMinKYCv12.sol\":2982:2983  2 */\n      0x02\n        /* \"contracts/ERC1404TokenMinKYCv12.sol\":9289:9314  return Transfers_Disabled */\n      swap1\n      pop\n      jump(tag_390)\n        /* \"contracts/ERC1404TokenMinKYCv12.sol\":9222:9314  if(block.timestamp < tradingHoldingPeriod && _from != _owner)... */\n    tag_392:\n        /* \"contracts/ERC1404TokenMinKYCv12.sol\":9338:9339  0 */\n      0x00\n        /* \"contracts/ERC1404TokenMinKYCv12.sol\":9329:9334  value */\n      dup3\n        /* \"contracts/ERC1404TokenMinKYCv12.sol\":9329:9339  value <= 0 */\n      gt\n        /* \"contracts/ERC1404TokenMinKYCv12.sol\":9325:9382  if( value <= 0)... */\n      tag_393\n      jumpi\n        /* \"contracts/ERC1404TokenMinKYCv12.sol\":3037:3038  3 */\n      0x03\n        /* \"contracts/ERC1404TokenMinKYCv12.sol\":9349:9382  return Transfer_Value_Cannot_Zero */\n      swap1\n      pop\n      jump(tag_390)\n        /* \"contracts/ERC1404TokenMinKYCv12.sol\":9325:9382  if( value <= 0)... */\n    tag_393:\n        /* \"contracts/ERC1404TokenMinKYCv12.sol\":9428:9429  0 */\n      0x00\n        /* \"contracts/ERC1404TokenMinKYCv12.sol\":9401:9417  _sellRestriction */\n      0x01\n        /* \"contracts/ERC1404TokenMinKYCv12.sol\":9401:9424  _sellRestriction[_from] */\n      0x00\n        /* \"contracts/ERC1404TokenMinKYCv12.sol\":9418:9423  _from */\n      dup7\n        /* \"contracts/ERC1404TokenMinKYCv12.sol\":9401:9424  _sellRestriction[_from] */\n      0xffffffffffffffffffffffffffffffffffffffff\n      and\n      0xffffffffffffffffffffffffffffffffffffffff\n      and\n      dup2\n      mstore\n      0x20\n      add\n      swap1\n      dup2\n      mstore\n      0x20\n      add\n      0x00\n      keccak256\n      sload\n        /* \"contracts/ERC1404TokenMinKYCv12.sol\":9401:9429  _sellRestriction[_from] == 0 */\n      eq\n        /* \"contracts/ERC1404TokenMinKYCv12.sol\":9397:9476  if( _sellRestriction[_from] == 0 )... */\n      iszero\n      tag_394\n      jumpi\n        /* \"contracts/ERC1404TokenMinKYCv12.sol\":3099:3100  4 */\n      0x04\n        /* \"contracts/ERC1404TokenMinKYCv12.sol\":9436:9476  return Sender_Not_Whitelisted_or_Blocked */\n      swap1\n      pop\n      jump(tag_390)\n        /* \"contracts/ERC1404TokenMinKYCv12.sol\":9397:9476  if( _sellRestriction[_from] == 0 )... */\n    tag_394:\n        /* \"contracts/ERC1404TokenMinKYCv12.sol\":9554:9555  0 */\n      0x00\n        /* \"contracts/ERC1404TokenMinKYCv12.sol\":9530:9545  _buyRestriction */\n      dup1\n        /* \"contracts/ERC1404TokenMinKYCv12.sol\":9530:9550  _buyRestriction[_to] */\n      0x00\n        /* \"contracts/ERC1404TokenMinKYCv12.sol\":9546:9549  _to */\n      dup6\n        /* \"contracts/ERC1404TokenMinKYCv12.sol\":9530:9550  _buyRestriction[_to] */\n      0xffffffffffffffffffffffffffffffffffffffff\n      and\n      0xffffffffffffffffffffffffffffffffffffffff\n      and\n      dup2\n      mstore\n      0x20\n      add\n      swap1\n      dup2\n      mstore\n      0x20\n      add\n      0x00\n      keccak256\n      sload\n        /* \"contracts/ERC1404TokenMinKYCv12.sol\":9530:9555  _buyRestriction[_to] == 0 */\n      eq\n        /* \"contracts/ERC1404TokenMinKYCv12.sol\":9526:9604  if( _buyRestriction[_to] == 0 )... */\n      iszero\n      tag_395\n      jumpi\n        /* \"contracts/ERC1404TokenMinKYCv12.sol\":3163:3164  5 */\n      0x05\n        /* \"contracts/ERC1404TokenMinKYCv12.sol\":9562:9604  return Receiver_Not_Whitelisted_or_Blocked */\n      swap1\n      pop\n      jump(tag_390)\n        /* \"contracts/ERC1404TokenMinKYCv12.sol\":9526:9604  if( _buyRestriction[_to] == 0 )... */\n    tag_395:\n        /* \"contracts/ERC1404TokenMinKYCv12.sol\":9682:9697  block.timestamp */\n      timestamp\n        /* \"contracts/ERC1404TokenMinKYCv12.sol\":9656:9672  _sellRestriction */\n      0x01\n        /* \"contracts/ERC1404TokenMinKYCv12.sol\":9656:9679  _sellRestriction[_from] */\n      0x00\n        /* \"contracts/ERC1404TokenMinKYCv12.sol\":9673:9678  _from */\n      dup7\n        /* \"contracts/ERC1404TokenMinKYCv12.sol\":9656:9679  _sellRestriction[_from] */\n      0xffffffffffffffffffffffffffffffffffffffff\n      and\n      0xffffffffffffffffffffffffffffffffffffffff\n      and\n      dup2\n      mstore\n      0x20\n      add\n      swap1\n      dup2\n      mstore\n      0x20\n      add\n      0x00\n      keccak256\n      sload\n        /* \"contracts/ERC1404TokenMinKYCv12.sol\":9656:9697  _sellRestriction[_from] > block.timestamp */\n      gt\n        /* \"contracts/ERC1404TokenMinKYCv12.sol\":9652:9738  if( _sellRestriction[_from] > block.timestamp )... */\n      iszero\n      tag_396\n      jumpi\n        /* \"contracts/ERC1404TokenMinKYCv12.sol\":3219:3220  6 */\n      0x06\n        /* \"contracts/ERC1404TokenMinKYCv12.sol\":9704:9738  return Sender_Under_Holding_Period */\n      swap1\n      pop\n      jump(tag_390)\n        /* \"contracts/ERC1404TokenMinKYCv12.sol\":9652:9738  if( _sellRestriction[_from] > block.timestamp )... */\n    tag_396:\n        /* \"contracts/ERC1404TokenMinKYCv12.sol\":9887:9902  block.timestamp */\n      timestamp\n        /* \"contracts/ERC1404TokenMinKYCv12.sol\":9864:9879  _buyRestriction */\n      0x00\n        /* \"contracts/ERC1404TokenMinKYCv12.sol\":9864:9884  _buyRestriction[_to] */\n      dup1\n        /* \"contracts/ERC1404TokenMinKYCv12.sol\":9880:9883  _to */\n      dup6\n        /* \"contracts/ERC1404TokenMinKYCv12.sol\":9864:9884  _buyRestriction[_to] */\n      0xffffffffffffffffffffffffffffffffffffffff\n      and\n      0xffffffffffffffffffffffffffffffffffffffff\n      and\n      dup2\n      mstore\n      0x20\n      add\n      swap1\n      dup2\n      mstore\n      0x20\n      add\n      0x00\n      keccak256\n      sload\n        /* \"contracts/ERC1404TokenMinKYCv12.sol\":9864:9902  _buyRestriction[_to] > block.timestamp */\n      gt\n        /* \"contracts/ERC1404TokenMinKYCv12.sol\":9860:9945  if( _buyRestriction[_to] > block.timestamp )... */\n      iszero\n      tag_397\n      jumpi\n        /* \"contracts/ERC1404TokenMinKYCv12.sol\":3277:3278  7 */\n      0x07\n        /* \"contracts/ERC1404TokenMinKYCv12.sol\":9909:9945  return Receiver_Under_Holding_Period */\n      swap1\n      pop\n      jump(tag_390)\n        /* \"contracts/ERC1404TokenMinKYCv12.sol\":9860:9945  if( _buyRestriction[_to] > block.timestamp )... */\n    tag_397:\n        /* \"contracts/ERC1404TokenMinKYCv12.sol\":10275:10276  0 */\n      0x00\n        /* \"contracts/ERC1404TokenMinKYCv12.sol\":10255:10271  allowedInvestors */\n      sload(0x11)\n        /* \"contracts/ERC1404TokenMinKYCv12.sol\":10255:10276  allowedInvestors == 0 */\n      eq\n        /* \"contracts/ERC1404TokenMinKYCv12.sol\":10252:11453  if(allowedInvestors == 0)... */\n      iszero\n      tag_398\n      jumpi\n        /* \"contracts/ERC1404TokenMinKYCv12.sol\":2878:2879  0 */\n      0x00\n        /* \"contracts/ERC1404TokenMinKYCv12.sol\":10282:10319  return No_Transfer_Restrictions_Found */\n      swap1\n      pop\n      jump(tag_390)\n        /* \"contracts/ERC1404TokenMinKYCv12.sol\":10252:11453  if(allowedInvestors == 0)... */\n    tag_398:\n        /* \"contracts/ERC1404TokenMinKYCv12.sol\":10356:10357  0 */\n      0x00\n        /* \"contracts/ERC1404TokenMinKYCv12.sol\":10339:10348  _balances */\n      0x02\n        /* \"contracts/ERC1404TokenMinKYCv12.sol\":10339:10353  _balances[_to] */\n      0x00\n        /* \"contracts/ERC1404TokenMinKYCv12.sol\":10349:10352  _to */\n      dup6\n        /* \"contracts/ERC1404TokenMinKYCv12.sol\":10339:10353  _balances[_to] */\n      0xffffffffffffffffffffffffffffffffffffffff\n      and\n      0xffffffffffffffffffffffffffffffffffffffff\n      and\n      dup2\n      mstore\n      0x20\n      add\n      swap1\n      dup2\n      mstore\n      0x20\n      add\n      0x00\n      keccak256\n      sload\n        /* \"contracts/ERC1404TokenMinKYCv12.sol\":10339:10357  _balances[_to] > 0 */\n      gt\n        /* \"contracts/ERC1404TokenMinKYCv12.sol\":10339:10374  _balances[_to] > 0 || _to == _owner */\n      dup1\n      tag_400\n      jumpi\n      pop\n        /* \"contracts/ERC1404TokenMinKYCv12.sol\":10368:10374  _owner */\n      0x04\n      0x00\n      swap1\n      sload\n      swap1\n      0x0100\n      exp\n      swap1\n      div\n      0xffffffffffffffffffffffffffffffffffffffff\n      and\n        /* \"contracts/ERC1404TokenMinKYCv12.sol\":10361:10374  _to == _owner */\n      0xffffffffffffffffffffffffffffffffffffffff\n      and\n        /* \"contracts/ERC1404TokenMinKYCv12.sol\":10361:10364  _to */\n      dup4\n        /* \"contracts/ERC1404TokenMinKYCv12.sol\":10361:10374  _to == _owner */\n      0xffffffffffffffffffffffffffffffffffffffff\n      and\n      eq\n        /* \"contracts/ERC1404TokenMinKYCv12.sol\":10339:10374  _balances[_to] > 0 || _to == _owner */\n    tag_400:\n        /* \"contracts/ERC1404TokenMinKYCv12.sol\":10335:11448  if( _balances[_to] > 0 || _to == _owner) ... */\n      iszero\n      tag_401\n      jumpi\n        /* \"contracts/ERC1404TokenMinKYCv12.sol\":2878:2879  0 */\n      0x00\n        /* \"contracts/ERC1404TokenMinKYCv12.sol\":10590:10627  return No_Transfer_Restrictions_Found */\n      swap1\n      pop\n      jump(tag_390)\n        /* \"contracts/ERC1404TokenMinKYCv12.sol\":10335:11448  if( _balances[_to] > 0 || _to == _owner) ... */\n    tag_401:\n        /* \"contracts/ERC1404TokenMinKYCv12.sol\":10674:10690  allowedInvestors */\n      sload(0x11)\n        /* \"contracts/ERC1404TokenMinKYCv12.sol\":10650:10671  currentTotalInvestors */\n      sload(0x10)\n        /* \"contracts/ERC1404TokenMinKYCv12.sol\":10650:10690  currentTotalInvestors < allowedInvestors */\n      lt\n        /* \"contracts/ERC1404TokenMinKYCv12.sol\":10645:11442  if(  currentTotalInvestors < allowedInvestors  )... */\n      iszero\n      tag_403\n      jumpi\n        /* \"contracts/ERC1404TokenMinKYCv12.sol\":2878:2879  0 */\n      0x00\n        /* \"contracts/ERC1404TokenMinKYCv12.sol\":10768:10805  return No_Transfer_Restrictions_Found */\n      swap1\n      pop\n      jump(tag_390)\n        /* \"contracts/ERC1404TokenMinKYCv12.sol\":10645:11442  if(  currentTotalInvestors < allowedInvestors  )... */\n    tag_403:\n        /* \"contracts/ERC1404TokenMinKYCv12.sol\":11305:11310  value */\n      dup2\n        /* \"contracts/ERC1404TokenMinKYCv12.sol\":11285:11294  _balances */\n      0x02\n        /* \"contracts/ERC1404TokenMinKYCv12.sol\":11285:11301  _balances[_from] */\n      0x00\n        /* \"contracts/ERC1404TokenMinKYCv12.sol\":11295:11300  _from */\n      dup7\n        /* \"contracts/ERC1404TokenMinKYCv12.sol\":11285:11301  _balances[_from] */\n      0xffffffffffffffffffffffffffffffffffffffff\n      and\n      0xffffffffffffffffffffffffffffffffffffffff\n      and\n      dup2\n      mstore\n      0x20\n      add\n      swap1\n      dup2\n      mstore\n      0x20\n      add\n      0x00\n      keccak256\n      sload\n        /* \"contracts/ERC1404TokenMinKYCv12.sol\":11285:11310  _balances[_from] == value */\n      eq\n        /* \"contracts/ERC1404TokenMinKYCv12.sol\":11285:11329  _balances[_from] == value && _from != _owner */\n      dup1\n      iszero\n      tag_405\n      jumpi\n      pop\n        /* \"contracts/ERC1404TokenMinKYCv12.sol\":11323:11329  _owner */\n      0x04\n      0x00\n      swap1\n      sload\n      swap1\n      0x0100\n      exp\n      swap1\n      div\n      0xffffffffffffffffffffffffffffffffffffffff\n      and\n        /* \"contracts/ERC1404TokenMinKYCv12.sol\":11314:11329  _from != _owner */\n      0xffffffffffffffffffffffffffffffffffffffff\n      and\n        /* \"contracts/ERC1404TokenMinKYCv12.sol\":11314:11319  _from */\n      dup5\n        /* \"contracts/ERC1404TokenMinKYCv12.sol\":11314:11329  _from != _owner */\n      0xffffffffffffffffffffffffffffffffffffffff\n      and\n      eq\n      iszero\n        /* \"contracts/ERC1404TokenMinKYCv12.sol\":11285:11329  _balances[_from] == value && _from != _owner */\n    tag_405:\n        /* \"contracts/ERC1404TokenMinKYCv12.sol\":11281:11434  if( _balances[_from] == value && _from != _owner)    ... */\n      iszero\n      tag_406\n      jumpi\n        /* \"contracts/ERC1404TokenMinKYCv12.sol\":2878:2879  0 */\n      0x00\n        /* \"contracts/ERC1404TokenMinKYCv12.sol\":11342:11379  return No_Transfer_Restrictions_Found */\n      swap1\n      pop\n      jump(tag_390)\n        /* \"contracts/ERC1404TokenMinKYCv12.sol\":11281:11434  if( _balances[_from] == value && _from != _owner)    ... */\n    tag_406:\n        /* \"contracts/ERC1404TokenMinKYCv12.sol\":2935:2936  1 */\n      0x01\n        /* \"contracts/ERC1404TokenMinKYCv12.sol\":11399:11434  return Max_Allowed_Investors_Exceed */\n      swap1\n      pop\n        /* \"contracts/ERC1404TokenMinKYCv12.sol\":8925:11459  function detectTransferRestriction (address _from, address _to, uint256 value) ... */\n    tag_390:\n      swap4\n      swap3\n      pop\n      pop\n      pop\n      jump\t// out\n        /* \"contracts/ERC1404TokenMinKYCv12.sol\":6403:6572  function removeWhitelistAuthorityStatus(address user)... */\n    tag_194:\n        /* \"contracts/ERC1404TokenMinKYCv12.sol\":5780:5790  msg.sender */\n      caller\n        /* \"contracts/ERC1404TokenMinKYCv12.sol\":5770:5790  _owner == msg.sender */\n      0xffffffffffffffffffffffffffffffffffffffff\n      and\n        /* \"contracts/ERC1404TokenMinKYCv12.sol\":5770:5776  _owner */\n      0x04\n      0x00\n      swap1\n      sload\n      swap1\n      0x0100\n      exp\n      swap1\n      div\n      0xffffffffffffffffffffffffffffffffffffffff\n      and\n        /* \"contracts/ERC1404TokenMinKYCv12.sol\":5770:5790  _owner == msg.sender */\n      0xffffffffffffffffffffffffffffffffffffffff\n      and\n      eq\n        /* \"contracts/ERC1404TokenMinKYCv12.sol\":5762:5828  require(_owner == msg.sender, \"Only owner has access to function\") */\n      tag_409\n      jumpi\n      mload(0x40)\n      0x08c379a000000000000000000000000000000000000000000000000000000000\n      dup2\n      mstore\n      0x04\n      add\n      tag_410\n      swap1\n      tag_264\n      jump\t// in\n    tag_410:\n      mload(0x40)\n      dup1\n      swap2\n      sub\n      swap1\n      revert\n    tag_409:\n        /* \"contracts/ERC1404TokenMinKYCv12.sol\":6490:6516  _whitelistControlAuthority */\n      0x05\n        /* \"contracts/ERC1404TokenMinKYCv12.sol\":6490:6522  _whitelistControlAuthority[user] */\n      0x00\n        /* \"contracts/ERC1404TokenMinKYCv12.sol\":6517:6521  user */\n      dup3\n        /* \"contracts/ERC1404TokenMinKYCv12.sol\":6490:6522  _whitelistControlAuthority[user] */\n      0xffffffffffffffffffffffffffffffffffffffff\n      and\n      0xffffffffffffffffffffffffffffffffffffffff\n      and\n      dup2\n      mstore\n      0x20\n      add\n      swap1\n      dup2\n      mstore\n      0x20\n      add\n      0x00\n      keccak256\n      0x00\n        /* \"contracts/ERC1404TokenMinKYCv12.sol\":6483:6522  delete _whitelistControlAuthority[user] */\n      0x0100\n      exp\n      dup2\n      sload\n      swap1\n      0xff\n      mul\n      not\n      and\n      swap1\n      sstore\n        /* \"contracts/ERC1404TokenMinKYCv12.sol\":6531:6568  WhitelistAuthorityStatusRemoved(user) */\n      0x24546dc0f5df685d7c979edd1b0bcc4d85ac6a59974976d7217c9f0d930d3ff0\n        /* \"contracts/ERC1404TokenMinKYCv12.sol\":6563:6567  user */\n      dup2\n        /* \"contracts/ERC1404TokenMinKYCv12.sol\":6531:6568  WhitelistAuthorityStatusRemoved(user) */\n      mload(0x40)\n      tag_412\n      swap2\n      swap1\n      tag_147\n      jump\t// in\n    tag_412:\n      mload(0x40)\n      dup1\n      swap2\n      sub\n      swap1\n      log1\n        /* \"contracts/ERC1404TokenMinKYCv12.sol\":6403:6572  function removeWhitelistAuthorityStatus(address user)... */\n      pop\n      jump\t// out\n        /* \"contracts/ERC1404TokenMinKYCv12.sol\":13602:13752  function allowance(address ownby, address spender) ... */\n    tag_198:\n        /* \"contracts/ERC1404TokenMinKYCv12.sol\":13692:13699  uint256 */\n      0x00\n        /* \"contracts/ERC1404TokenMinKYCv12.sol\":13718:13729  _allowances */\n      0x03\n        /* \"contracts/ERC1404TokenMinKYCv12.sol\":13718:13736  _allowances[ownby] */\n      0x00\n        /* \"contracts/ERC1404TokenMinKYCv12.sol\":13730:13735  ownby */\n      dup5\n        /* \"contracts/ERC1404TokenMinKYCv12.sol\":13718:13736  _allowances[ownby] */\n      0xffffffffffffffffffffffffffffffffffffffff\n      and\n      0xffffffffffffffffffffffffffffffffffffffff\n      and\n      dup2\n      mstore\n      0x20\n      add\n      swap1\n      dup2\n      mstore\n      0x20\n      add\n      0x00\n      keccak256\n        /* \"contracts/ERC1404TokenMinKYCv12.sol\":13718:13745  _allowances[ownby][spender] */\n      0x00\n        /* \"contracts/ERC1404TokenMinKYCv12.sol\":13737:13744  spender */\n      dup4\n        /* \"contracts/ERC1404TokenMinKYCv12.sol\":13718:13745  _allowances[ownby][spender] */\n      0xffffffffffffffffffffffffffffffffffffffff\n      and\n      0xffffffffffffffffffffffffffffffffffffffff\n      and\n      dup2\n      mstore\n      0x20\n      add\n      swap1\n      dup2\n      mstore\n      0x20\n      add\n      0x00\n      keccak256\n      sload\n        /* \"contracts/ERC1404TokenMinKYCv12.sol\":13711:13745  return _allowances[ownby][spender] */\n      swap1\n      pop\n        /* \"contracts/ERC1404TokenMinKYCv12.sol\":13602:13752  function allowance(address ownby, address spender) ... */\n      swap3\n      swap2\n      pop\n      pop\n      jump\t// out\n        /* \"contracts/ERC1404TokenMinKYCv12.sol\":3223:3278  uint8 public constant Receiver_Under_Holding_Period = 7 */\n    tag_201:\n        /* \"contracts/ERC1404TokenMinKYCv12.sol\":3277:3278  7 */\n      0x07\n        /* \"contracts/ERC1404TokenMinKYCv12.sol\":3223:3278  uint8 public constant Receiver_Under_Holding_Period = 7 */\n      dup2\n      jump\t// out\n        /* \"contracts/ERC1404TokenMinKYCv12.sol\":6575:6707  function getWhitelistAuthorityStatus(address user)... */\n    tag_205:\n        /* \"contracts/ERC1404TokenMinKYCv12.sol\":6653:6657  bool */\n      0x00\n        /* \"contracts/ERC1404TokenMinKYCv12.sol\":6671:6697  _whitelistControlAuthority */\n      0x05\n        /* \"contracts/ERC1404TokenMinKYCv12.sol\":6671:6703  _whitelistControlAuthority[user] */\n      0x00\n        /* \"contracts/ERC1404TokenMinKYCv12.sol\":6698:6702  user */\n      dup4\n        /* \"contracts/ERC1404TokenMinKYCv12.sol\":6671:6703  _whitelistControlAuthority[user] */\n      0xffffffffffffffffffffffffffffffffffffffff\n      and\n      0xffffffffffffffffffffffffffffffffffffffff\n      and\n      dup2\n      mstore\n      0x20\n      add\n      swap1\n      dup2\n      mstore\n      0x20\n      add\n      0x00\n      keccak256\n      0x00\n      swap1\n      sload\n      swap1\n      0x0100\n      exp\n      swap1\n      div\n      0xff\n      and\n        /* \"contracts/ERC1404TokenMinKYCv12.sol\":6664:6703  return _whitelistControlAuthority[user] */\n      swap1\n      pop\n        /* \"contracts/ERC1404TokenMinKYCv12.sol\":6575:6707  function getWhitelistAuthorityStatus(address user)... */\n      swap2\n      swap1\n      pop\n      jump\t// out\n        /* \"contracts/ERC1404TokenMinKYCv12.sol\":5851:6025  function transferOwnership(address newOwner) ... */\n    tag_209:\n        /* \"contracts/ERC1404TokenMinKYCv12.sol\":5780:5790  msg.sender */\n      caller\n        /* \"contracts/ERC1404TokenMinKYCv12.sol\":5770:5790  _owner == msg.sender */\n      0xffffffffffffffffffffffffffffffffffffffff\n      and\n        /* \"contracts/ERC1404TokenMinKYCv12.sol\":5770:5776  _owner */\n      0x04\n      0x00\n      swap1\n      sload\n      swap1\n      0x0100\n      exp\n      swap1\n      div\n      0xffffffffffffffffffffffffffffffffffffffff\n      and\n        /* \"contracts/ERC1404TokenMinKYCv12.sol\":5770:5790  _owner == msg.sender */\n      0xffffffffffffffffffffffffffffffffffffffff\n      and\n      eq\n        /* \"contracts/ERC1404TokenMinKYCv12.sol\":5762:5828  require(_owner == msg.sender, \"Only owner has access to function\") */\n      tag_416\n      jumpi\n      mload(0x40)\n      0x08c379a000000000000000000000000000000000000000000000000000000000\n      dup2\n      mstore\n      0x04\n      add\n      tag_417\n      swap1\n      tag_264\n      jump\t// in\n    tag_417:\n      mload(0x40)\n      dup1\n      swap2\n      sub\n      swap1\n      revert\n    tag_416:\n        /* \"contracts/ERC1404TokenMinKYCv12.sol\":5957:5958  0 */\n      0x00\n        /* \"contracts/ERC1404TokenMinKYCv12.sol\":5937:5959  newOwner != address(0) */\n      0xffffffffffffffffffffffffffffffffffffffff\n      and\n        /* \"contracts/ERC1404TokenMinKYCv12.sol\":5937:5945  newOwner */\n      dup2\n        /* \"contracts/ERC1404TokenMinKYCv12.sol\":5937:5959  newOwner != address(0) */\n      0xffffffffffffffffffffffffffffffffffffffff\n      and\n      eq\n      iszero\n        /* \"contracts/ERC1404TokenMinKYCv12.sol\":5929:5997  require(newOwner != address(0), \"Zero address not allowed as owner\") */\n      tag_419\n      jumpi\n      mload(0x40)\n      0x08c379a000000000000000000000000000000000000000000000000000000000\n      dup2\n      mstore\n      0x04\n      add\n      tag_420\n      swap1\n      tag_421\n      jump\t// in\n    tag_420:\n      mload(0x40)\n      dup1\n      swap2\n      sub\n      swap1\n      revert\n    tag_419:\n        /* \"contracts/ERC1404TokenMinKYCv12.sol\":6010:6018  newOwner */\n      dup1\n        /* \"contracts/ERC1404TokenMinKYCv12.sol\":6001:6007  _owner */\n      0x04\n      0x00\n        /* \"contracts/ERC1404TokenMinKYCv12.sol\":6001:6018  _owner = newOwner */\n      0x0100\n      exp\n      dup2\n      sload\n      dup2\n      0xffffffffffffffffffffffffffffffffffffffff\n      mul\n      not\n      and\n      swap1\n      dup4\n      0xffffffffffffffffffffffffffffffffffffffff\n      and\n      mul\n      or\n      swap1\n      sstore\n      pop\n        /* \"contracts/ERC1404TokenMinKYCv12.sol\":5851:6025  function transferOwnership(address newOwner) ... */\n      pop\n      jump\t// out\n        /* \"contracts/ERC1404TokenMinKYCv12.sol\":3103:3164  uint8 public constant Receiver_Not_Whitelisted_or_Blocked = 5 */\n    tag_211:\n        /* \"contracts/ERC1404TokenMinKYCv12.sol\":3163:3164  5 */\n      0x05\n        /* \"contracts/ERC1404TokenMinKYCv12.sol\":3103:3164  uint8 public constant Receiver_Not_Whitelisted_or_Blocked = 5 */\n      dup2\n      jump\t// out\n        /* \"contracts/ERC1404TokenMinKYCv12.sol\":7472:8156  function setupKYCDataForUser (... */\n    tag_238:\n        /* \"contracts/ERC1404TokenMinKYCv12.sol\":7595:7620  uint256 tmpBuyRestriction */\n      0x00\n        /* \"contracts/ERC1404TokenMinKYCv12.sol\":7623:7638  _buyRestriction */\n      dup1\n        /* \"contracts/ERC1404TokenMinKYCv12.sol\":7623:7647  _buyRestriction[account] */\n      0x00\n        /* \"contracts/ERC1404TokenMinKYCv12.sol\":7639:7646  account */\n      dup6\n        /* \"contracts/ERC1404TokenMinKYCv12.sol\":7623:7647  _buyRestriction[account] */\n      0xffffffffffffffffffffffffffffffffffffffff\n      and\n      0xffffffffffffffffffffffffffffffffffffffff\n      and\n      dup2\n      mstore\n      0x20\n      add\n      swap1\n      dup2\n      mstore\n      0x20\n      add\n      0x00\n      keccak256\n      sload\n        /* \"contracts/ERC1404TokenMinKYCv12.sol\":7595:7647  uint256 tmpBuyRestriction = _buyRestriction[account] */\n      swap1\n      pop\n        /* \"contracts/ERC1404TokenMinKYCv12.sol\":7651:7677  uint256 tmpSellRestriction */\n      0x00\n        /* \"contracts/ERC1404TokenMinKYCv12.sol\":7680:7696  _sellRestriction */\n      0x01\n        /* \"contracts/ERC1404TokenMinKYCv12.sol\":7680:7705  _sellRestriction[account] */\n      0x00\n        /* \"contracts/ERC1404TokenMinKYCv12.sol\":7697:7704  account */\n      dup7\n        /* \"contracts/ERC1404TokenMinKYCv12.sol\":7680:7705  _sellRestriction[account] */\n      0xffffffffffffffffffffffffffffffffffffffff\n      and\n      0xffffffffffffffffffffffffffffffffffffffff\n      and\n      dup2\n      mstore\n      0x20\n      add\n      swap1\n      dup2\n      mstore\n      0x20\n      add\n      0x00\n      keccak256\n      sload\n        /* \"contracts/ERC1404TokenMinKYCv12.sol\":7651:7705  uint256 tmpSellRestriction = _sellRestriction[account] */\n      swap1\n      pop\n        /* \"contracts/ERC1404TokenMinKYCv12.sol\":7737:7751  buyRestriction */\n      dup4\n        /* \"contracts/ERC1404TokenMinKYCv12.sol\":7710:7725  _buyRestriction */\n      0x00\n        /* \"contracts/ERC1404TokenMinKYCv12.sol\":7710:7734  _buyRestriction[account] */\n      dup1\n        /* \"contracts/ERC1404TokenMinKYCv12.sol\":7726:7733  account */\n      dup8\n        /* \"contracts/ERC1404TokenMinKYCv12.sol\":7710:7734  _buyRestriction[account] */\n      0xffffffffffffffffffffffffffffffffffffffff\n      and\n      0xffffffffffffffffffffffffffffffffffffffff\n      and\n      dup2\n      mstore\n      0x20\n      add\n      swap1\n      dup2\n      mstore\n      0x20\n      add\n      0x00\n      keccak256\n        /* \"contracts/ERC1404TokenMinKYCv12.sol\":7710:7751  _buyRestriction[account] = buyRestriction */\n      dup2\n      swap1\n      sstore\n      pop\n        /* \"contracts/ERC1404TokenMinKYCv12.sol\":7783:7798  sellRestriction */\n      dup3\n        /* \"contracts/ERC1404TokenMinKYCv12.sol\":7755:7771  _sellRestriction */\n      0x01\n        /* \"contracts/ERC1404TokenMinKYCv12.sol\":7755:7780  _sellRestriction[account] */\n      0x00\n        /* \"contracts/ERC1404TokenMinKYCv12.sol\":7772:7779  account */\n      dup8\n        /* \"contracts/ERC1404TokenMinKYCv12.sol\":7755:7780  _sellRestriction[account] */\n      0xffffffffffffffffffffffffffffffffffffffff\n      and\n      0xffffffffffffffffffffffffffffffffffffffff\n      and\n      dup2\n      mstore\n      0x20\n      add\n      swap1\n      dup2\n      mstore\n      0x20\n      add\n      0x00\n      keccak256\n        /* \"contracts/ERC1404TokenMinKYCv12.sol\":7755:7798  _sellRestriction[account] = sellRestriction */\n      dup2\n      swap1\n      sstore\n      pop\n        /* \"contracts/ERC1404TokenMinKYCv12.sol\":7971:7972  0 */\n      0x00\n        /* \"contracts/ERC1404TokenMinKYCv12.sol\":7950:7967  tmpBuyRestriction */\n      dup3\n        /* \"contracts/ERC1404TokenMinKYCv12.sol\":7950:7972  tmpBuyRestriction == 0 */\n      eq\n        /* \"contracts/ERC1404TokenMinKYCv12.sol\":7950:7999  tmpBuyRestriction == 0 && tmpSellRestriction == 0 */\n      dup1\n      iszero\n      tag_423\n      jumpi\n      pop\n        /* \"contracts/ERC1404TokenMinKYCv12.sol\":7998:7999  0 */\n      0x00\n        /* \"contracts/ERC1404TokenMinKYCv12.sol\":7976:7994  tmpSellRestriction */\n      dup2\n        /* \"contracts/ERC1404TokenMinKYCv12.sol\":7976:7999  tmpSellRestriction == 0 */\n      eq\n        /* \"contracts/ERC1404TokenMinKYCv12.sol\":7950:7999  tmpBuyRestriction == 0 && tmpSellRestriction == 0 */\n    tag_423:\n        /* \"contracts/ERC1404TokenMinKYCv12.sol\":7947:8152  if(tmpBuyRestriction == 0 && tmpSellRestriction == 0)... */\n      iszero\n      tag_424\n      jumpi\n        /* \"contracts/ERC1404TokenMinKYCv12.sol\":8028:8035  account */\n      dup5\n        /* \"contracts/ERC1404TokenMinKYCv12.sol\":8009:8069  KYCDataForUserSet (account, buyRestriction, sellRestriction) */\n      0xffffffffffffffffffffffffffffffffffffffff\n      and\n      0xc78ee1de8eb00c83baa5f9bf324f00dd286b754a3826292de51c92c3e7a0cab5\n        /* \"contracts/ERC1404TokenMinKYCv12.sol\":8037:8051  buyRestriction */\n      dup6\n        /* \"contracts/ERC1404TokenMinKYCv12.sol\":8053:8068  sellRestriction */\n      dup6\n        /* \"contracts/ERC1404TokenMinKYCv12.sol\":8009:8069  KYCDataForUserSet (account, buyRestriction, sellRestriction) */\n      mload(0x40)\n      tag_425\n      swap3\n      swap2\n      swap1\n      tag_166\n      jump\t// in\n    tag_425:\n      mload(0x40)\n      dup1\n      swap2\n      sub\n      swap1\n      log2\n        /* \"contracts/ERC1404TokenMinKYCv12.sol\":7947:8152  if(tmpBuyRestriction == 0 && tmpSellRestriction == 0)... */\n      jump(tag_426)\n    tag_424:\n        /* \"contracts/ERC1404TokenMinKYCv12.sol\":8111:8118  account */\n      dup5\n        /* \"contracts/ERC1404TokenMinKYCv12.sol\":8086:8152  KYCDataForUserModified ( account, buyRestriction, sellRestriction) */\n      0xffffffffffffffffffffffffffffffffffffffff\n      and\n      0x50fc162609db30a736355688f8f60baab2991bebb40a6d50ed93371a95493616\n        /* \"contracts/ERC1404TokenMinKYCv12.sol\":8120:8134  buyRestriction */\n      dup6\n        /* \"contracts/ERC1404TokenMinKYCv12.sol\":8136:8151  sellRestriction */\n      dup6\n        /* \"contracts/ERC1404TokenMinKYCv12.sol\":8086:8152  KYCDataForUserModified ( account, buyRestriction, sellRestriction) */\n      mload(0x40)\n      tag_427\n      swap3\n      swap2\n      swap1\n      tag_166\n      jump\t// in\n    tag_427:\n      mload(0x40)\n      dup1\n      swap2\n      sub\n      swap1\n      log2\n        /* \"contracts/ERC1404TokenMinKYCv12.sol\":7947:8152  if(tmpBuyRestriction == 0 && tmpSellRestriction == 0)... */\n    tag_426:\n        /* \"contracts/ERC1404TokenMinKYCv12.sol\":7590:8156  {\t... */\n      pop\n      pop\n        /* \"contracts/ERC1404TokenMinKYCv12.sol\":7472:8156  function setupKYCDataForUser (... */\n      pop\n      pop\n      pop\n      jump\t// out\n        /* \"contracts/ERC1404TokenMinKYCv12.sol\":14823:15530  function transferSharesBetweenInvestors (... */\n    tag_254:\n        /* \"contracts/ERC1404TokenMinKYCv12.sol\":14994:15000  amount */\n      dup1\n        /* \"contracts/ERC1404TokenMinKYCv12.sol\":14973:14982  _balances */\n      0x02\n        /* \"contracts/ERC1404TokenMinKYCv12.sol\":14973:14990  _balances[sender] */\n      0x00\n        /* \"contracts/ERC1404TokenMinKYCv12.sol\":14983:14989  sender */\n      dup6\n        /* \"contracts/ERC1404TokenMinKYCv12.sol\":14973:14990  _balances[sender] */\n      0xffffffffffffffffffffffffffffffffffffffff\n      and\n      0xffffffffffffffffffffffffffffffffffffffff\n      and\n      dup2\n      mstore\n      0x20\n      add\n      swap1\n      dup2\n      mstore\n      0x20\n      add\n      0x00\n      keccak256\n      sload\n        /* \"contracts/ERC1404TokenMinKYCv12.sol\":14973:15000  _balances[sender] >= amount */\n      lt\n      iszero\n        /* \"contracts/ERC1404TokenMinKYCv12.sol\":14965:15065  require(_balances[sender] >= amount, \"Sender is trying to transfer amount greater than his balance\") */\n      tag_429\n      jumpi\n      mload(0x40)\n      0x08c379a000000000000000000000000000000000000000000000000000000000\n      dup2\n      mstore\n      0x04\n      add\n      tag_430\n      swap1\n      tag_431\n      jump\t// in\n    tag_430:\n      mload(0x40)\n      dup1\n      swap2\n      sub\n      swap1\n      revert\n    tag_429:\n        /* \"contracts/ERC1404TokenMinKYCv12.sol\":15194:15200  amount */\n      dup1\n        /* \"contracts/ERC1404TokenMinKYCv12.sol\":15174:15183  _balances */\n      0x02\n        /* \"contracts/ERC1404TokenMinKYCv12.sol\":15174:15191  _balances[sender] */\n      0x00\n        /* \"contracts/ERC1404TokenMinKYCv12.sol\":15184:15190  sender */\n      dup6\n        /* \"contracts/ERC1404TokenMinKYCv12.sol\":15174:15191  _balances[sender] */\n      0xffffffffffffffffffffffffffffffffffffffff\n      and\n      0xffffffffffffffffffffffffffffffffffffffff\n      and\n      dup2\n      mstore\n      0x20\n      add\n      swap1\n      dup2\n      mstore\n      0x20\n      add\n      0x00\n      keccak256\n      sload\n        /* \"contracts/ERC1404TokenMinKYCv12.sol\":15174:15200  _balances[sender] - amount */\n      tag_432\n      swap2\n      swap1\n      tag_256\n      jump\t// in\n    tag_432:\n        /* \"contracts/ERC1404TokenMinKYCv12.sol\":15154:15163  _balances */\n      0x02\n        /* \"contracts/ERC1404TokenMinKYCv12.sol\":15154:15171  _balances[sender] */\n      0x00\n        /* \"contracts/ERC1404TokenMinKYCv12.sol\":15164:15170  sender */\n      dup6\n        /* \"contracts/ERC1404TokenMinKYCv12.sol\":15154:15171  _balances[sender] */\n      0xffffffffffffffffffffffffffffffffffffffff\n      and\n      0xffffffffffffffffffffffffffffffffffffffff\n      and\n      dup2\n      mstore\n      0x20\n      add\n      swap1\n      dup2\n      mstore\n      0x20\n      add\n      0x00\n      keccak256\n        /* \"contracts/ERC1404TokenMinKYCv12.sol\":15154:15200  _balances[sender] = _balances[sender] - amount */\n      dup2\n      swap1\n      sstore\n      pop\n        /* \"contracts/ERC1404TokenMinKYCv12.sol\":15230:15231  0 */\n      0x00\n        /* \"contracts/ERC1404TokenMinKYCv12.sol\":15209:15218  _balances */\n      0x02\n        /* \"contracts/ERC1404TokenMinKYCv12.sol\":15209:15226  _balances[sender] */\n      0x00\n        /* \"contracts/ERC1404TokenMinKYCv12.sol\":15219:15225  sender */\n      dup6\n        /* \"contracts/ERC1404TokenMinKYCv12.sol\":15209:15226  _balances[sender] */\n      0xffffffffffffffffffffffffffffffffffffffff\n      and\n      0xffffffffffffffffffffffffffffffffffffffff\n      and\n      dup2\n      mstore\n      0x20\n      add\n      swap1\n      dup2\n      mstore\n      0x20\n      add\n      0x00\n      keccak256\n      sload\n        /* \"contracts/ERC1404TokenMinKYCv12.sol\":15209:15231  _balances[sender] == 0 */\n      eq\n        /* \"contracts/ERC1404TokenMinKYCv12.sol\":15209:15251  _balances[sender] == 0 && sender != _owner */\n      dup1\n      iszero\n      tag_433\n      jumpi\n      pop\n        /* \"contracts/ERC1404TokenMinKYCv12.sol\":15245:15251  _owner */\n      0x04\n      0x00\n      swap1\n      sload\n      swap1\n      0x0100\n      exp\n      swap1\n      div\n      0xffffffffffffffffffffffffffffffffffffffff\n      and\n        /* \"contracts/ERC1404TokenMinKYCv12.sol\":15235:15251  sender != _owner */\n      0xffffffffffffffffffffffffffffffffffffffff\n      and\n        /* \"contracts/ERC1404TokenMinKYCv12.sol\":15235:15241  sender */\n      dup4\n        /* \"contracts/ERC1404TokenMinKYCv12.sol\":15235:15251  sender != _owner */\n      0xffffffffffffffffffffffffffffffffffffffff\n      and\n      eq\n      iszero\n        /* \"contracts/ERC1404TokenMinKYCv12.sol\":15209:15251  _balances[sender] == 0 && sender != _owner */\n    tag_433:\n        /* \"contracts/ERC1404TokenMinKYCv12.sol\":15205:15307  if( _balances[sender] == 0 && sender != _owner )... */\n      iszero\n      tag_434\n      jumpi\n        /* \"contracts/ERC1404TokenMinKYCv12.sol\":15306:15307  1 */\n      0x01\n        /* \"contracts/ERC1404TokenMinKYCv12.sol\":15282:15303  currentTotalInvestors */\n      sload(0x10)\n        /* \"contracts/ERC1404TokenMinKYCv12.sol\":15282:15307  currentTotalInvestors - 1 */\n      tag_435\n      swap2\n      swap1\n      tag_256\n      jump\t// in\n    tag_435:\n        /* \"contracts/ERC1404TokenMinKYCv12.sol\":15258:15279  currentTotalInvestors */\n      0x10\n        /* \"contracts/ERC1404TokenMinKYCv12.sol\":15258:15307  currentTotalInvestors = currentTotalInvestors - 1 */\n      dup2\n      swap1\n      sstore\n      pop\n        /* \"contracts/ERC1404TokenMinKYCv12.sol\":15205:15307  if( _balances[sender] == 0 && sender != _owner )... */\n    tag_434:\n        /* \"contracts/ERC1404TokenMinKYCv12.sol\":15343:15344  0 */\n      0x00\n        /* \"contracts/ERC1404TokenMinKYCv12.sol\":15319:15328  _balances */\n      0x02\n        /* \"contracts/ERC1404TokenMinKYCv12.sol\":15319:15339  _balances[recipient] */\n      0x00\n        /* \"contracts/ERC1404TokenMinKYCv12.sol\":15329:15338  recipient */\n      dup5\n        /* \"contracts/ERC1404TokenMinKYCv12.sol\":15319:15339  _balances[recipient] */\n      0xffffffffffffffffffffffffffffffffffffffff\n      and\n      0xffffffffffffffffffffffffffffffffffffffff\n      and\n      dup2\n      mstore\n      0x20\n      add\n      swap1\n      dup2\n      mstore\n      0x20\n      add\n      0x00\n      keccak256\n      sload\n        /* \"contracts/ERC1404TokenMinKYCv12.sol\":15319:15344  _balances[recipient] == 0 */\n      eq\n        /* \"contracts/ERC1404TokenMinKYCv12.sol\":15319:15367  _balances[recipient] == 0 && recipient != _owner */\n      dup1\n      iszero\n      tag_436\n      jumpi\n      pop\n        /* \"contracts/ERC1404TokenMinKYCv12.sol\":15361:15367  _owner */\n      0x04\n      0x00\n      swap1\n      sload\n      swap1\n      0x0100\n      exp\n      swap1\n      div\n      0xffffffffffffffffffffffffffffffffffffffff\n      and\n        /* \"contracts/ERC1404TokenMinKYCv12.sol\":15348:15367  recipient != _owner */\n      0xffffffffffffffffffffffffffffffffffffffff\n      and\n        /* \"contracts/ERC1404TokenMinKYCv12.sol\":15348:15357  recipient */\n      dup3\n        /* \"contracts/ERC1404TokenMinKYCv12.sol\":15348:15367  recipient != _owner */\n      0xffffffffffffffffffffffffffffffffffffffff\n      and\n      eq\n      iszero\n        /* \"contracts/ERC1404TokenMinKYCv12.sol\":15319:15367  _balances[recipient] == 0 && recipient != _owner */\n    tag_436:\n        /* \"contracts/ERC1404TokenMinKYCv12.sol\":15315:15423  if( _balances[recipient] == 0 && recipient != _owner )... */\n      iszero\n      tag_437\n      jumpi\n        /* \"contracts/ERC1404TokenMinKYCv12.sol\":15422:15423  1 */\n      0x01\n        /* \"contracts/ERC1404TokenMinKYCv12.sol\":15398:15419  currentTotalInvestors */\n      sload(0x10)\n        /* \"contracts/ERC1404TokenMinKYCv12.sol\":15398:15423  currentTotalInvestors + 1 */\n      tag_438\n      swap2\n      swap1\n      tag_275\n      jump\t// in\n    tag_438:\n        /* \"contracts/ERC1404TokenMinKYCv12.sol\":15374:15395  currentTotalInvestors */\n      0x10\n        /* \"contracts/ERC1404TokenMinKYCv12.sol\":15374:15423  currentTotalInvestors = currentTotalInvestors + 1 */\n      dup2\n      swap1\n      sstore\n      pop\n        /* \"contracts/ERC1404TokenMinKYCv12.sol\":15315:15423  if( _balances[recipient] == 0 && recipient != _owner )... */\n    tag_437:\n        /* \"contracts/ERC1404TokenMinKYCv12.sol\":15474:15480  amount */\n      dup1\n        /* \"contracts/ERC1404TokenMinKYCv12.sol\":15451:15460  _balances */\n      0x02\n        /* \"contracts/ERC1404TokenMinKYCv12.sol\":15451:15471  _balances[recipient] */\n      0x00\n        /* \"contracts/ERC1404TokenMinKYCv12.sol\":15461:15470  recipient */\n      dup5\n        /* \"contracts/ERC1404TokenMinKYCv12.sol\":15451:15471  _balances[recipient] */\n      0xffffffffffffffffffffffffffffffffffffffff\n      and\n      0xffffffffffffffffffffffffffffffffffffffff\n      and\n      dup2\n      mstore\n      0x20\n      add\n      swap1\n      dup2\n      mstore\n      0x20\n      add\n      0x00\n      keccak256\n      sload\n        /* \"contracts/ERC1404TokenMinKYCv12.sol\":15451:15480  _balances[recipient] + amount */\n      tag_439\n      swap2\n      swap1\n      tag_275\n      jump\t// in\n    tag_439:\n        /* \"contracts/ERC1404TokenMinKYCv12.sol\":15428:15437  _balances */\n      0x02\n        /* \"contracts/ERC1404TokenMinKYCv12.sol\":15428:15448  _balances[recipient] */\n      0x00\n        /* \"contracts/ERC1404TokenMinKYCv12.sol\":15438:15447  recipient */\n      dup5\n        /* \"contracts/ERC1404TokenMinKYCv12.sol\":15428:15448  _balances[recipient] */\n      0xffffffffffffffffffffffffffffffffffffffff\n      and\n      0xffffffffffffffffffffffffffffffffffffffff\n      and\n      dup2\n      mstore\n      0x20\n      add\n      swap1\n      dup2\n      mstore\n      0x20\n      add\n      0x00\n      keccak256\n        /* \"contracts/ERC1404TokenMinKYCv12.sol\":15428:15480  _balances[recipient] = _balances[recipient] + amount */\n      dup2\n      swap1\n      sstore\n      pop\n        /* \"contracts/ERC1404TokenMinKYCv12.sol\":15508:15517  recipient */\n      dup2\n        /* \"contracts/ERC1404TokenMinKYCv12.sol\":15491:15526  Transfer(sender, recipient, amount) */\n      0xffffffffffffffffffffffffffffffffffffffff\n      and\n        /* \"contracts/ERC1404TokenMinKYCv12.sol\":15500:15506  sender */\n      dup4\n        /* \"contracts/ERC1404TokenMinKYCv12.sol\":15491:15526  Transfer(sender, recipient, amount) */\n      0xffffffffffffffffffffffffffffffffffffffff\n      and\n      0xddf252ad1be2c89b69c2b068fc378daa952ba7f163c4a11628f55a4df523b3ef\n        /* \"contracts/ERC1404TokenMinKYCv12.sol\":15519:15525  amount */\n      dup4\n        /* \"contracts/ERC1404TokenMinKYCv12.sol\":15491:15526  Transfer(sender, recipient, amount) */\n      mload(0x40)\n      tag_440\n      swap2\n      swap1\n      tag_75\n      jump\t// in\n    tag_440:\n      mload(0x40)\n      dup1\n      swap2\n      sub\n      swap1\n      log3\n        /* \"contracts/ERC1404TokenMinKYCv12.sol\":14823:15530  function transferSharesBetweenInvestors (... */\n      pop\n      pop\n      pop\n      jump\t// out\n    tag_283:\n      dup3\n      dup1\n      sload\n      tag_441\n      swap1\n      tag_214\n      jump\t// in\n    tag_441:\n      swap1\n      0x00\n      mstore\n      keccak256(0x00, 0x20)\n      swap1\n      0x1f\n      add\n      0x20\n      swap1\n      div\n      dup2\n      add\n      swap3\n      dup3\n      tag_443\n      jumpi\n      0x00\n      dup6\n      sstore\n      jump(tag_442)\n    tag_443:\n      dup3\n      0x1f\n      lt\n      tag_444\n      jumpi\n      dup1\n      mload\n      not(0xff)\n      and\n      dup4\n      dup1\n      add\n      or\n      dup6\n      sstore\n      jump(tag_442)\n    tag_444:\n      dup3\n      dup1\n      add\n      0x01\n      add\n      dup6\n      sstore\n      dup3\n      iszero\n      tag_442\n      jumpi\n      swap2\n      dup3\n      add\n    tag_445:\n      dup3\n      dup2\n      gt\n      iszero\n      tag_446\n      jumpi\n      dup3\n      mload\n      dup3\n      sstore\n      swap2\n      0x20\n      add\n      swap2\n      swap1\n      0x01\n      add\n      swap1\n      jump(tag_445)\n    tag_446:\n    tag_442:\n      pop\n      swap1\n      pop\n      tag_447\n      swap2\n      swap1\n      tag_448\n      jump\t// in\n    tag_447:\n      pop\n      swap1\n      jump\t// out\n    tag_448:\n    tag_449:\n      dup1\n      dup3\n      gt\n      iszero\n      tag_450\n      jumpi\n      0x00\n      dup2\n      0x00\n      swap1\n      sstore\n      pop\n      0x01\n      add\n      jump(tag_449)\n    tag_450:\n      pop\n      swap1\n      jump\t// out\n        /* \"#utility.yul\":24:746   */\n    tag_452:\n        /* \"#utility.yul\":120:125   */\n      0x00\n        /* \"#utility.yul\":145:226   */\n      tag_454\n        /* \"#utility.yul\":161:225   */\n      tag_455\n        /* \"#utility.yul\":218:224   */\n      dup5\n        /* \"#utility.yul\":161:225   */\n      tag_456\n      jump\t// in\n    tag_455:\n        /* \"#utility.yul\":145:226   */\n      tag_457\n      jump\t// in\n    tag_454:\n        /* \"#utility.yul\":136:226   */\n      swap1\n      pop\n        /* \"#utility.yul\":246:251   */\n      dup1\n        /* \"#utility.yul\":275:281   */\n      dup4\n        /* \"#utility.yul\":268:273   */\n      dup3\n        /* \"#utility.yul\":261:282   */\n      mstore\n        /* \"#utility.yul\":309:313   */\n      0x20\n        /* \"#utility.yul\":302:307   */\n      dup3\n        /* \"#utility.yul\":298:314   */\n      add\n        /* \"#utility.yul\":291:314   */\n      swap1\n      pop\n        /* \"#utility.yul\":335:341   */\n      dup3\n        /* \"#utility.yul\":385:388   */\n      dup6\n        /* \"#utility.yul\":377:381   */\n      0x20\n        /* \"#utility.yul\":369:375   */\n      dup7\n        /* \"#utility.yul\":365:382   */\n      mul\n        /* \"#utility.yul\":360:363   */\n      dup3\n        /* \"#utility.yul\":356:383   */\n      add\n        /* \"#utility.yul\":353:389   */\n      gt\n        /* \"#utility.yul\":350:493   */\n      iszero\n      tag_458\n      jumpi\n        /* \"#utility.yul\":404:483   */\n      tag_459\n      tag_460\n      jump\t// in\n    tag_459:\n        /* \"#utility.yul\":350:493   */\n    tag_458:\n        /* \"#utility.yul\":517:518   */\n      0x00\n        /* \"#utility.yul\":502:740   */\n    tag_461:\n        /* \"#utility.yul\":527:533   */\n      dup6\n        /* \"#utility.yul\":524:525   */\n      dup2\n        /* \"#utility.yul\":521:534   */\n      lt\n        /* \"#utility.yul\":502:740   */\n      iszero\n      tag_463\n      jumpi\n        /* \"#utility.yul\":595:598   */\n      dup2\n        /* \"#utility.yul\":624:661   */\n      tag_464\n        /* \"#utility.yul\":657:660   */\n      dup9\n        /* \"#utility.yul\":645:655   */\n      dup3\n        /* \"#utility.yul\":624:661   */\n      tag_465\n      jump\t// in\n    tag_464:\n        /* \"#utility.yul\":619:622   */\n      dup5\n        /* \"#utility.yul\":612:662   */\n      mstore\n        /* \"#utility.yul\":691:695   */\n      0x20\n        /* \"#utility.yul\":686:689   */\n      dup5\n        /* \"#utility.yul\":682:696   */\n      add\n        /* \"#utility.yul\":675:696   */\n      swap4\n      pop\n        /* \"#utility.yul\":725:729   */\n      0x20\n        /* \"#utility.yul\":720:723   */\n      dup4\n        /* \"#utility.yul\":716:730   */\n      add\n        /* \"#utility.yul\":709:730   */\n      swap3\n      pop\n        /* \"#utility.yul\":562:740   */\n      pop\n        /* \"#utility.yul\":549:550   */\n      0x01\n        /* \"#utility.yul\":546:547   */\n      dup2\n        /* \"#utility.yul\":542:551   */\n      add\n        /* \"#utility.yul\":537:551   */\n      swap1\n      pop\n        /* \"#utility.yul\":502:740   */\n      jump(tag_461)\n    tag_463:\n        /* \"#utility.yul\":506:520   */\n      pop\n        /* \"#utility.yul\":126:746   */\n      pop\n      pop\n        /* \"#utility.yul\":24:746   */\n      swap4\n      swap3\n      pop\n      pop\n      pop\n      jump\t// out\n        /* \"#utility.yul\":752:1164   */\n    tag_466:\n        /* \"#utility.yul\":830:835   */\n      0x00\n        /* \"#utility.yul\":855:921   */\n      tag_468\n        /* \"#utility.yul\":871:920   */\n      tag_469\n        /* \"#utility.yul\":913:919   */\n      dup5\n        /* \"#utility.yul\":871:920   */\n      tag_470\n      jump\t// in\n    tag_469:\n        /* \"#utility.yul\":855:921   */\n      tag_457\n      jump\t// in\n    tag_468:\n        /* \"#utility.yul\":846:921   */\n      swap1\n      pop\n        /* \"#utility.yul\":944:950   */\n      dup3\n        /* \"#utility.yul\":937:942   */\n      dup2\n        /* \"#utility.yul\":930:951   */\n      mstore\n        /* \"#utility.yul\":982:986   */\n      0x20\n        /* \"#utility.yul\":975:980   */\n      dup2\n        /* \"#utility.yul\":971:987   */\n      add\n        /* \"#utility.yul\":1020:1023   */\n      dup5\n        /* \"#utility.yul\":1011:1017   */\n      dup5\n        /* \"#utility.yul\":1006:1009   */\n      dup5\n        /* \"#utility.yul\":1002:1018   */\n      add\n        /* \"#utility.yul\":999:1024   */\n      gt\n        /* \"#utility.yul\":996:1108   */\n      iszero\n      tag_471\n      jumpi\n        /* \"#utility.yul\":1027:1106   */\n      tag_472\n      tag_473\n      jump\t// in\n    tag_472:\n        /* \"#utility.yul\":996:1108   */\n    tag_471:\n        /* \"#utility.yul\":1117:1158   */\n      tag_474\n        /* \"#utility.yul\":1151:1157   */\n      dup5\n        /* \"#utility.yul\":1146:1149   */\n      dup3\n        /* \"#utility.yul\":1141:1144   */\n      dup6\n        /* \"#utility.yul\":1117:1158   */\n      tag_475\n      jump\t// in\n    tag_474:\n        /* \"#utility.yul\":836:1164   */\n      pop\n        /* \"#utility.yul\":752:1164   */\n      swap4\n      swap3\n      pop\n      pop\n      pop\n      jump\t// out\n        /* \"#utility.yul\":1170:1309   */\n    tag_465:\n        /* \"#utility.yul\":1216:1221   */\n      0x00\n        /* \"#utility.yul\":1254:1260   */\n      dup2\n        /* \"#utility.yul\":1241:1261   */\n      calldataload\n        /* \"#utility.yul\":1232:1261   */\n      swap1\n      pop\n        /* \"#utility.yul\":1270:1303   */\n      tag_477\n        /* \"#utility.yul\":1297:1302   */\n      dup2\n        /* \"#utility.yul\":1270:1303   */\n      tag_478\n      jump\t// in\n    tag_477:\n        /* \"#utility.yul\":1170:1309   */\n      swap3\n      swap2\n      pop\n      pop\n      jump\t// out\n        /* \"#utility.yul\":1332:1702   */\n    tag_479:\n        /* \"#utility.yul\":1403:1408   */\n      0x00\n        /* \"#utility.yul\":1452:1455   */\n      dup3\n        /* \"#utility.yul\":1445:1449   */\n      0x1f\n        /* \"#utility.yul\":1437:1443   */\n      dup4\n        /* \"#utility.yul\":1433:1450   */\n      add\n        /* \"#utility.yul\":1429:1456   */\n      slt\n        /* \"#utility.yul\":1419:1541   */\n      tag_481\n      jumpi\n        /* \"#utility.yul\":1460:1539   */\n      tag_482\n      tag_483\n      jump\t// in\n    tag_482:\n        /* \"#utility.yul\":1419:1541   */\n    tag_481:\n        /* \"#utility.yul\":1577:1583   */\n      dup2\n        /* \"#utility.yul\":1564:1584   */\n      calldataload\n        /* \"#utility.yul\":1602:1696   */\n      tag_484\n        /* \"#utility.yul\":1692:1695   */\n      dup5\n        /* \"#utility.yul\":1684:1690   */\n      dup3\n        /* \"#utility.yul\":1677:1681   */\n      0x20\n        /* \"#utility.yul\":1669:1675   */\n      dup7\n        /* \"#utility.yul\":1665:1682   */\n      add\n        /* \"#utility.yul\":1602:1696   */\n      tag_452\n      jump\t// in\n    tag_484:\n        /* \"#utility.yul\":1593:1696   */\n      swap2\n      pop\n        /* \"#utility.yul\":1409:1702   */\n      pop\n        /* \"#utility.yul\":1332:1702   */\n      swap3\n      swap2\n      pop\n      pop\n      jump\t// out\n        /* \"#utility.yul\":1722:2062   */\n    tag_485:\n        /* \"#utility.yul\":1778:1783   */\n      0x00\n        /* \"#utility.yul\":1827:1830   */\n      dup3\n        /* \"#utility.yul\":1820:1824   */\n      0x1f\n        /* \"#utility.yul\":1812:1818   */\n      dup4\n        /* \"#utility.yul\":1808:1825   */\n      add\n        /* \"#utility.yul\":1804:1831   */\n      slt\n        /* \"#utility.yul\":1794:1916   */\n      tag_487\n      jumpi\n        /* \"#utility.yul\":1835:1914   */\n      tag_488\n      tag_483\n      jump\t// in\n    tag_488:\n        /* \"#utility.yul\":1794:1916   */\n    tag_487:\n        /* \"#utility.yul\":1952:1958   */\n      dup2\n        /* \"#utility.yul\":1939:1959   */\n      calldataload\n        /* \"#utility.yul\":1977:2056   */\n      tag_489\n        /* \"#utility.yul\":2052:2055   */\n      dup5\n        /* \"#utility.yul\":2044:2050   */\n      dup3\n        /* \"#utility.yul\":2037:2041   */\n      0x20\n        /* \"#utility.yul\":2029:2035   */\n      dup7\n        /* \"#utility.yul\":2025:2042   */\n      add\n        /* \"#utility.yul\":1977:2056   */\n      tag_466\n      jump\t// in\n    tag_489:\n        /* \"#utility.yul\":1968:2056   */\n      swap2\n      pop\n        /* \"#utility.yul\":1784:2062   */\n      pop\n        /* \"#utility.yul\":1722:2062   */\n      swap3\n      swap2\n      pop\n      pop\n      jump\t// out\n        /* \"#utility.yul\":2068:2207   */\n    tag_490:\n        /* \"#utility.yul\":2114:2119   */\n      0x00\n        /* \"#utility.yul\":2152:2158   */\n      dup2\n        /* \"#utility.yul\":2139:2159   */\n      calldataload\n        /* \"#utility.yul\":2130:2159   */\n      swap1\n      pop\n        /* \"#utility.yul\":2168:2201   */\n      tag_492\n        /* \"#utility.yul\":2195:2200   */\n      dup2\n        /* \"#utility.yul\":2168:2201   */\n      tag_493\n      jump\t// in\n    tag_492:\n        /* \"#utility.yul\":2068:2207   */\n      swap3\n      swap2\n      pop\n      pop\n      jump\t// out\n        /* \"#utility.yul\":2213:2348   */\n    tag_494:\n        /* \"#utility.yul\":2257:2262   */\n      0x00\n        /* \"#utility.yul\":2295:2301   */\n      dup2\n        /* \"#utility.yul\":2282:2302   */\n      calldataload\n        /* \"#utility.yul\":2273:2302   */\n      swap1\n      pop\n        /* \"#utility.yul\":2311:2342   */\n      tag_496\n        /* \"#utility.yul\":2336:2341   */\n      dup2\n        /* \"#utility.yul\":2311:2342   */\n      tag_497\n      jump\t// in\n    tag_496:\n        /* \"#utility.yul\":2213:2348   */\n      swap3\n      swap2\n      pop\n      pop\n      jump\t// out\n        /* \"#utility.yul\":2354:2683   */\n    tag_124:\n        /* \"#utility.yul\":2413:2419   */\n      0x00\n        /* \"#utility.yul\":2462:2464   */\n      0x20\n        /* \"#utility.yul\":2450:2459   */\n      dup3\n        /* \"#utility.yul\":2441:2448   */\n      dup5\n        /* \"#utility.yul\":2437:2460   */\n      sub\n        /* \"#utility.yul\":2433:2465   */\n      slt\n        /* \"#utility.yul\":2430:2549   */\n      iszero\n      tag_499\n      jumpi\n        /* \"#utility.yul\":2468:2547   */\n      tag_500\n      tag_501\n      jump\t// in\n    tag_500:\n        /* \"#utility.yul\":2430:2549   */\n    tag_499:\n        /* \"#utility.yul\":2588:2589   */\n      0x00\n        /* \"#utility.yul\":2613:2666   */\n      tag_502\n        /* \"#utility.yul\":2658:2665   */\n      dup5\n        /* \"#utility.yul\":2649:2655   */\n      dup3\n        /* \"#utility.yul\":2638:2647   */\n      dup6\n        /* \"#utility.yul\":2634:2656   */\n      add\n        /* \"#utility.yul\":2613:2666   */\n      tag_465\n      jump\t// in\n    tag_502:\n        /* \"#utility.yul\":2603:2666   */\n      swap2\n      pop\n        /* \"#utility.yul\":2559:2676   */\n      pop\n        /* \"#utility.yul\":2354:2683   */\n      swap3\n      swap2\n      pop\n      pop\n      jump\t// out\n        /* \"#utility.yul\":2689:3163   */\n    tag_197:\n        /* \"#utility.yul\":2757:2763   */\n      0x00\n        /* \"#utility.yul\":2765:2771   */\n      dup1\n        /* \"#utility.yul\":2814:2816   */\n      0x40\n        /* \"#utility.yul\":2802:2811   */\n      dup4\n        /* \"#utility.yul\":2793:2800   */\n      dup6\n        /* \"#utility.yul\":2789:2812   */\n      sub\n        /* \"#utility.yul\":2785:2817   */\n      slt\n        /* \"#utility.yul\":2782:2901   */\n      iszero\n      tag_504\n      jumpi\n        /* \"#utility.yul\":2820:2899   */\n      tag_505\n      tag_501\n      jump\t// in\n    tag_505:\n        /* \"#utility.yul\":2782:2901   */\n    tag_504:\n        /* \"#utility.yul\":2940:2941   */\n      0x00\n        /* \"#utility.yul\":2965:3018   */\n      tag_506\n        /* \"#utility.yul\":3010:3017   */\n      dup6\n        /* \"#utility.yul\":3001:3007   */\n      dup3\n        /* \"#utility.yul\":2990:2999   */\n      dup7\n        /* \"#utility.yul\":2986:3008   */\n      add\n        /* \"#utility.yul\":2965:3018   */\n      tag_465\n      jump\t// in\n    tag_506:\n        /* \"#utility.yul\":2955:3018   */\n      swap3\n      pop\n        /* \"#utility.yul\":2911:3028   */\n      pop\n        /* \"#utility.yul\":3067:3069   */\n      0x20\n        /* \"#utility.yul\":3093:3146   */\n      tag_507\n        /* \"#utility.yul\":3138:3145   */\n      dup6\n        /* \"#utility.yul\":3129:3135   */\n      dup3\n        /* \"#utility.yul\":3118:3127   */\n      dup7\n        /* \"#utility.yul\":3114:3136   */\n      add\n        /* \"#utility.yul\":3093:3146   */\n      tag_465\n      jump\t// in\n    tag_507:\n        /* \"#utility.yul\":3083:3146   */\n      swap2\n      pop\n        /* \"#utility.yul\":3038:3156   */\n      pop\n        /* \"#utility.yul\":2689:3163   */\n      swap3\n      pop\n      swap3\n      swap1\n      pop\n      jump\t// out\n        /* \"#utility.yul\":3169:3788   */\n    tag_78:\n        /* \"#utility.yul\":3246:3252   */\n      0x00\n        /* \"#utility.yul\":3254:3260   */\n      dup1\n        /* \"#utility.yul\":3262:3268   */\n      0x00\n        /* \"#utility.yul\":3311:3313   */\n      0x60\n        /* \"#utility.yul\":3299:3308   */\n      dup5\n        /* \"#utility.yul\":3290:3297   */\n      dup7\n        /* \"#utility.yul\":3286:3309   */\n      sub\n        /* \"#utility.yul\":3282:3314   */\n      slt\n        /* \"#utility.yul\":3279:3398   */\n      iszero\n      tag_509\n      jumpi\n        /* \"#utility.yul\":3317:3396   */\n      tag_510\n      tag_501\n      jump\t// in\n    tag_510:\n        /* \"#utility.yul\":3279:3398   */\n    tag_509:\n        /* \"#utility.yul\":3437:3438   */\n      0x00\n        /* \"#utility.yul\":3462:3515   */\n      tag_511\n        /* \"#utility.yul\":3507:3514   */\n      dup7\n        /* \"#utility.yul\":3498:3504   */\n      dup3\n        /* \"#utility.yul\":3487:3496   */\n      dup8\n        /* \"#utility.yul\":3483:3505   */\n      add\n        /* \"#utility.yul\":3462:3515   */\n      tag_465\n      jump\t// in\n    tag_511:\n        /* \"#utility.yul\":3452:3515   */\n      swap4\n      pop\n        /* \"#utility.yul\":3408:3525   */\n      pop\n        /* \"#utility.yul\":3564:3566   */\n      0x20\n        /* \"#utility.yul\":3590:3643   */\n      tag_512\n        /* \"#utility.yul\":3635:3642   */\n      dup7\n        /* \"#utility.yul\":3626:3632   */\n      dup3\n        /* \"#utility.yul\":3615:3624   */\n      dup8\n        /* \"#utility.yul\":3611:3633   */\n      add\n        /* \"#utility.yul\":3590:3643   */\n      tag_465\n      jump\t// in\n    tag_512:\n        /* \"#utility.yul\":3580:3643   */\n      swap3\n      pop\n        /* \"#utility.yul\":3535:3653   */\n      pop\n        /* \"#utility.yul\":3692:3694   */\n      0x40\n        /* \"#utility.yul\":3718:3771   */\n      tag_513\n        /* \"#utility.yul\":3763:3770   */\n      dup7\n        /* \"#utility.yul\":3754:3760   */\n      dup3\n        /* \"#utility.yul\":3743:3752   */\n      dup8\n        /* \"#utility.yul\":3739:3761   */\n      add\n        /* \"#utility.yul\":3718:3771   */\n      tag_490\n      jump\t// in\n    tag_513:\n        /* \"#utility.yul\":3708:3771   */\n      swap2\n      pop\n        /* \"#utility.yul\":3663:3781   */\n      pop\n        /* \"#utility.yul\":3169:3788   */\n      swap3\n      pop\n      swap3\n      pop\n      swap3\n      jump\t// out\n        /* \"#utility.yul\":3794:4268   */\n    tag_60:\n        /* \"#utility.yul\":3862:3868   */\n      0x00\n        /* \"#utility.yul\":3870:3876   */\n      dup1\n        /* \"#utility.yul\":3919:3921   */\n      0x40\n        /* \"#utility.yul\":3907:3916   */\n      dup4\n        /* \"#utility.yul\":3898:3905   */\n      dup6\n        /* \"#utility.yul\":3894:3917   */\n      sub\n        /* \"#utility.yul\":3890:3922   */\n      slt\n        /* \"#utility.yul\":3887:4006   */\n      iszero\n      tag_515\n      jumpi\n        /* \"#utility.yul\":3925:4004   */\n      tag_516\n      tag_501\n      jump\t// in\n    tag_516:\n        /* \"#utility.yul\":3887:4006   */\n    tag_515:\n        /* \"#utility.yul\":4045:4046   */\n      0x00\n        /* \"#utility.yul\":4070:4123   */\n      tag_517\n        /* \"#utility.yul\":4115:4122   */\n      dup6\n        /* \"#utility.yul\":4106:4112   */\n      dup3\n        /* \"#utility.yul\":4095:4104   */\n      dup7\n        /* \"#utility.yul\":4091:4113   */\n      add\n        /* \"#utility.yul\":4070:4123   */\n      tag_465\n      jump\t// in\n    tag_517:\n        /* \"#utility.yul\":4060:4123   */\n      swap3\n      pop\n        /* \"#utility.yul\":4016:4133   */\n      pop\n        /* \"#utility.yul\":4172:4174   */\n      0x20\n        /* \"#utility.yul\":4198:4251   */\n      tag_518\n        /* \"#utility.yul\":4243:4250   */\n      dup6\n        /* \"#utility.yul\":4234:4240   */\n      dup3\n        /* \"#utility.yul\":4223:4232   */\n      dup7\n        /* \"#utility.yul\":4219:4241   */\n      add\n        /* \"#utility.yul\":4198:4251   */\n      tag_490\n      jump\t// in\n    tag_518:\n        /* \"#utility.yul\":4188:4251   */\n      swap2\n      pop\n        /* \"#utility.yul\":4143:4261   */\n      pop\n        /* \"#utility.yul\":3794:4268   */\n      swap3\n      pop\n      swap3\n      swap1\n      pop\n      jump\t// out\n        /* \"#utility.yul\":4274:4893   */\n    tag_83:\n        /* \"#utility.yul\":4351:4357   */\n      0x00\n        /* \"#utility.yul\":4359:4365   */\n      dup1\n        /* \"#utility.yul\":4367:4373   */\n      0x00\n        /* \"#utility.yul\":4416:4418   */\n      0x60\n        /* \"#utility.yul\":4404:4413   */\n      dup5\n        /* \"#utility.yul\":4395:4402   */\n      dup7\n        /* \"#utility.yul\":4391:4414   */\n      sub\n        /* \"#utility.yul\":4387:4419   */\n      slt\n        /* \"#utility.yul\":4384:4503   */\n      iszero\n      tag_520\n      jumpi\n        /* \"#utility.yul\":4422:4501   */\n      tag_521\n      tag_501\n      jump\t// in\n    tag_521:\n        /* \"#utility.yul\":4384:4503   */\n    tag_520:\n        /* \"#utility.yul\":4542:4543   */\n      0x00\n        /* \"#utility.yul\":4567:4620   */\n      tag_522\n        /* \"#utility.yul\":4612:4619   */\n      dup7\n        /* \"#utility.yul\":4603:4609   */\n      dup3\n        /* \"#utility.yul\":4592:4601   */\n      dup8\n        /* \"#utility.yul\":4588:4610   */\n      add\n        /* \"#utility.yul\":4567:4620   */\n      tag_465\n      jump\t// in\n    tag_522:\n        /* \"#utility.yul\":4557:4620   */\n      swap4\n      pop\n        /* \"#utility.yul\":4513:4630   */\n      pop\n        /* \"#utility.yul\":4669:4671   */\n      0x20\n        /* \"#utility.yul\":4695:4748   */\n      tag_523\n        /* \"#utility.yul\":4740:4747   */\n      dup7\n        /* \"#utility.yul\":4731:4737   */\n      dup3\n        /* \"#utility.yul\":4720:4729   */\n      dup8\n        /* \"#utility.yul\":4716:4738   */\n      add\n        /* \"#utility.yul\":4695:4748   */\n      tag_490\n      jump\t// in\n    tag_523:\n        /* \"#utility.yul\":4685:4748   */\n      swap3\n      pop\n        /* \"#utility.yul\":4640:4758   */\n      pop\n        /* \"#utility.yul\":4797:4799   */\n      0x40\n        /* \"#utility.yul\":4823:4876   */\n      tag_524\n        /* \"#utility.yul\":4868:4875   */\n      dup7\n        /* \"#utility.yul\":4859:4865   */\n      dup3\n        /* \"#utility.yul\":4848:4857   */\n      dup8\n        /* \"#utility.yul\":4844:4866   */\n      add\n        /* \"#utility.yul\":4823:4876   */\n      tag_490\n      jump\t// in\n    tag_524:\n        /* \"#utility.yul\":4813:4876   */\n      swap2\n      pop\n        /* \"#utility.yul\":4768:4886   */\n      pop\n        /* \"#utility.yul\":4274:4893   */\n      swap3\n      pop\n      swap3\n      pop\n      swap3\n      jump\t// out\n        /* \"#utility.yul\":4899:5728   */\n    tag_66:\n        /* \"#utility.yul\":5001:5007   */\n      0x00\n        /* \"#utility.yul\":5009:5015   */\n      dup1\n        /* \"#utility.yul\":5017:5023   */\n      0x00\n        /* \"#utility.yul\":5066:5068   */\n      0x60\n        /* \"#utility.yul\":5054:5063   */\n      dup5\n        /* \"#utility.yul\":5045:5052   */\n      dup7\n        /* \"#utility.yul\":5041:5064   */\n      sub\n        /* \"#utility.yul\":5037:5069   */\n      slt\n        /* \"#utility.yul\":5034:5153   */\n      iszero\n      tag_526\n      jumpi\n        /* \"#utility.yul\":5072:5151   */\n      tag_527\n      tag_501\n      jump\t// in\n    tag_527:\n        /* \"#utility.yul\":5034:5153   */\n    tag_526:\n        /* \"#utility.yul\":5220:5221   */\n      0x00\n        /* \"#utility.yul\":5209:5218   */\n      dup5\n        /* \"#utility.yul\":5205:5222   */\n      add\n        /* \"#utility.yul\":5192:5223   */\n      calldataload\n        /* \"#utility.yul\":5250:5268   */\n      0xffffffffffffffff\n        /* \"#utility.yul\":5242:5248   */\n      dup2\n        /* \"#utility.yul\":5239:5269   */\n      gt\n        /* \"#utility.yul\":5236:5353   */\n      iszero\n      tag_528\n      jumpi\n        /* \"#utility.yul\":5272:5351   */\n      tag_529\n      tag_530\n      jump\t// in\n    tag_529:\n        /* \"#utility.yul\":5236:5353   */\n    tag_528:\n        /* \"#utility.yul\":5377:5455   */\n      tag_531\n        /* \"#utility.yul\":5447:5454   */\n      dup7\n        /* \"#utility.yul\":5438:5444   */\n      dup3\n        /* \"#utility.yul\":5427:5436   */\n      dup8\n        /* \"#utility.yul\":5423:5445   */\n      add\n        /* \"#utility.yul\":5377:5455   */\n      tag_479\n      jump\t// in\n    tag_531:\n        /* \"#utility.yul\":5367:5455   */\n      swap4\n      pop\n        /* \"#utility.yul\":5163:5465   */\n      pop\n        /* \"#utility.yul\":5504:5506   */\n      0x20\n        /* \"#utility.yul\":5530:5583   */\n      tag_532\n        /* \"#utility.yul\":5575:5582   */\n      dup7\n        /* \"#utility.yul\":5566:5572   */\n      dup3\n        /* \"#utility.yul\":5555:5564   */\n      dup8\n        /* \"#utility.yul\":5551:5573   */\n      add\n        /* \"#utility.yul\":5530:5583   */\n      tag_490\n      jump\t// in\n    tag_532:\n        /* \"#utility.yul\":5520:5583   */\n      swap3\n      pop\n        /* \"#utility.yul\":5475:5593   */\n      pop\n        /* \"#utility.yul\":5632:5634   */\n      0x40\n        /* \"#utility.yul\":5658:5711   */\n      tag_533\n        /* \"#utility.yul\":5703:5710   */\n      dup7\n        /* \"#utility.yul\":5694:5700   */\n      dup3\n        /* \"#utility.yul\":5683:5692   */\n      dup8\n        /* \"#utility.yul\":5679:5701   */\n      add\n        /* \"#utility.yul\":5658:5711   */\n      tag_490\n      jump\t// in\n    tag_533:\n        /* \"#utility.yul\":5648:5711   */\n      swap2\n      pop\n        /* \"#utility.yul\":5603:5721   */\n      pop\n        /* \"#utility.yul\":4899:5728   */\n      swap3\n      pop\n      swap3\n      pop\n      swap3\n      jump\t// out\n        /* \"#utility.yul\":5734:6243   */\n    tag_101:\n        /* \"#utility.yul\":5803:5809   */\n      0x00\n        /* \"#utility.yul\":5852:5854   */\n      0x20\n        /* \"#utility.yul\":5840:5849   */\n      dup3\n        /* \"#utility.yul\":5831:5838   */\n      dup5\n        /* \"#utility.yul\":5827:5850   */\n      sub\n        /* \"#utility.yul\":5823:5855   */\n      slt\n        /* \"#utility.yul\":5820:5939   */\n      iszero\n      tag_535\n      jumpi\n        /* \"#utility.yul\":5858:5937   */\n      tag_536\n      tag_501\n      jump\t// in\n    tag_536:\n        /* \"#utility.yul\":5820:5939   */\n    tag_535:\n        /* \"#utility.yul\":6006:6007   */\n      0x00\n        /* \"#utility.yul\":5995:6004   */\n      dup3\n        /* \"#utility.yul\":5991:6008   */\n      add\n        /* \"#utility.yul\":5978:6009   */\n      calldataload\n        /* \"#utility.yul\":6036:6054   */\n      0xffffffffffffffff\n        /* \"#utility.yul\":6028:6034   */\n      dup2\n        /* \"#utility.yul\":6025:6055   */\n      gt\n        /* \"#utility.yul\":6022:6139   */\n      iszero\n      tag_537\n      jumpi\n        /* \"#utility.yul\":6058:6137   */\n      tag_538\n      tag_530\n      jump\t// in\n    tag_538:\n        /* \"#utility.yul\":6022:6139   */\n    tag_537:\n        /* \"#utility.yul\":6163:6226   */\n      tag_539\n        /* \"#utility.yul\":6218:6225   */\n      dup5\n        /* \"#utility.yul\":6209:6215   */\n      dup3\n        /* \"#utility.yul\":6198:6207   */\n      dup6\n        /* \"#utility.yul\":6194:6216   */\n      add\n        /* \"#utility.yul\":6163:6226   */\n      tag_485\n      jump\t// in\n    tag_539:\n        /* \"#utility.yul\":6153:6226   */\n      swap2\n      pop\n        /* \"#utility.yul\":5949:6236   */\n      pop\n        /* \"#utility.yul\":5734:6243   */\n      swap3\n      swap2\n      pop\n      pop\n      jump\t// out\n        /* \"#utility.yul\":6249:6578   */\n    tag_111:\n        /* \"#utility.yul\":6308:6314   */\n      0x00\n        /* \"#utility.yul\":6357:6359   */\n      0x20\n        /* \"#utility.yul\":6345:6354   */\n      dup3\n        /* \"#utility.yul\":6336:6343   */\n      dup5\n        /* \"#utility.yul\":6332:6355   */\n      sub\n        /* \"#utility.yul\":6328:6360   */\n      slt\n        /* \"#utility.yul\":6325:6444   */\n      iszero\n      tag_541\n      jumpi\n        /* \"#utility.yul\":6363:6442   */\n      tag_542\n      tag_501\n      jump\t// in\n    tag_542:\n        /* \"#utility.yul\":6325:6444   */\n    tag_541:\n        /* \"#utility.yul\":6483:6484   */\n      0x00\n        /* \"#utility.yul\":6508:6561   */\n      tag_543\n        /* \"#utility.yul\":6553:6560   */\n      dup5\n        /* \"#utility.yul\":6544:6550   */\n      dup3\n        /* \"#utility.yul\":6533:6542   */\n      dup6\n        /* \"#utility.yul\":6529:6551   */\n      add\n        /* \"#utility.yul\":6508:6561   */\n      tag_490\n      jump\t// in\n    tag_543:\n        /* \"#utility.yul\":6498:6561   */\n      swap2\n      pop\n        /* \"#utility.yul\":6454:6571   */\n      pop\n        /* \"#utility.yul\":6249:6578   */\n      swap3\n      swap2\n      pop\n      pop\n      jump\t// out\n        /* \"#utility.yul\":6584:6909   */\n    tag_135:\n        /* \"#utility.yul\":6641:6647   */\n      0x00\n        /* \"#utility.yul\":6690:6692   */\n      0x20\n        /* \"#utility.yul\":6678:6687   */\n      dup3\n        /* \"#utility.yul\":6669:6676   */\n      dup5\n        /* \"#utility.yul\":6665:6688   */\n      sub\n        /* \"#utility.yul\":6661:6693   */\n      slt\n        /* \"#utility.yul\":6658:6777   */\n      iszero\n      tag_545\n      jumpi\n        /* \"#utility.yul\":6696:6775   */\n      tag_546\n      tag_501\n      jump\t// in\n    tag_546:\n        /* \"#utility.yul\":6658:6777   */\n    tag_545:\n        /* \"#utility.yul\":6816:6817   */\n      0x00\n        /* \"#utility.yul\":6841:6892   */\n      tag_547\n        /* \"#utility.yul\":6884:6891   */\n      dup5\n        /* \"#utility.yul\":6875:6881   */\n      dup3\n        /* \"#utility.yul\":6864:6873   */\n      dup6\n        /* \"#utility.yul\":6860:6882   */\n      add\n        /* \"#utility.yul\":6841:6892   */\n      tag_494\n      jump\t// in\n    tag_547:\n        /* \"#utility.yul\":6831:6892   */\n      swap2\n      pop\n        /* \"#utility.yul\":6787:6902   */\n      pop\n        /* \"#utility.yul\":6584:6909   */\n      swap3\n      swap2\n      pop\n      pop\n      jump\t// out\n        /* \"#utility.yul\":6915:7033   */\n    tag_548:\n        /* \"#utility.yul\":7002:7026   */\n      tag_550\n        /* \"#utility.yul\":7020:7025   */\n      dup2\n        /* \"#utility.yul\":7002:7026   */\n      tag_551\n      jump\t// in\n    tag_550:\n        /* \"#utility.yul\":6997:7000   */\n      dup3\n        /* \"#utility.yul\":6990:7027   */\n      mstore\n        /* \"#utility.yul\":6915:7033   */\n      pop\n      pop\n      jump\t// out\n        /* \"#utility.yul\":7039:7148   */\n    tag_552:\n        /* \"#utility.yul\":7120:7141   */\n      tag_554\n        /* \"#utility.yul\":7135:7140   */\n      dup2\n        /* \"#utility.yul\":7120:7141   */\n      tag_555\n      jump\t// in\n    tag_554:\n        /* \"#utility.yul\":7115:7118   */\n      dup3\n        /* \"#utility.yul\":7108:7142   */\n      mstore\n        /* \"#utility.yul\":7039:7148   */\n      pop\n      pop\n      jump\t// out\n        /* \"#utility.yul\":7154:7518   */\n    tag_556:\n        /* \"#utility.yul\":7242:7245   */\n      0x00\n        /* \"#utility.yul\":7270:7309   */\n      tag_558\n        /* \"#utility.yul\":7303:7308   */\n      dup3\n        /* \"#utility.yul\":7270:7309   */\n      tag_559\n      jump\t// in\n    tag_558:\n        /* \"#utility.yul\":7325:7396   */\n      tag_560\n        /* \"#utility.yul\":7389:7395   */\n      dup2\n        /* \"#utility.yul\":7384:7387   */\n      dup6\n        /* \"#utility.yul\":7325:7396   */\n      tag_561\n      jump\t// in\n    tag_560:\n        /* \"#utility.yul\":7318:7396   */\n      swap4\n      pop\n        /* \"#utility.yul\":7405:7457   */\n      tag_562\n        /* \"#utility.yul\":7450:7456   */\n      dup2\n        /* \"#utility.yul\":7445:7448   */\n      dup6\n        /* \"#utility.yul\":7438:7442   */\n      0x20\n        /* \"#utility.yul\":7431:7436   */\n      dup7\n        /* \"#utility.yul\":7427:7443   */\n      add\n        /* \"#utility.yul\":7405:7457   */\n      tag_563\n      jump\t// in\n    tag_562:\n        /* \"#utility.yul\":7482:7511   */\n      tag_564\n        /* \"#utility.yul\":7504:7510   */\n      dup2\n        /* \"#utility.yul\":7482:7511   */\n      tag_565\n      jump\t// in\n    tag_564:\n        /* \"#utility.yul\":7477:7480   */\n      dup5\n        /* \"#utility.yul\":7473:7512   */\n      add\n        /* \"#utility.yul\":7466:7512   */\n      swap2\n      pop\n        /* \"#utility.yul\":7246:7518   */\n      pop\n        /* \"#utility.yul\":7154:7518   */\n      swap3\n      swap2\n      pop\n      pop\n      jump\t// out\n        /* \"#utility.yul\":7524:7890   */\n    tag_566:\n        /* \"#utility.yul\":7666:7669   */\n      0x00\n        /* \"#utility.yul\":7687:7754   */\n      tag_568\n        /* \"#utility.yul\":7751:7753   */\n      0x21\n        /* \"#utility.yul\":7746:7749   */\n      dup4\n        /* \"#utility.yul\":7687:7754   */\n      tag_561\n      jump\t// in\n    tag_568:\n        /* \"#utility.yul\":7680:7754   */\n      swap2\n      pop\n        /* \"#utility.yul\":7763:7856   */\n      tag_569\n        /* \"#utility.yul\":7852:7855   */\n      dup3\n        /* \"#utility.yul\":7763:7856   */\n      tag_570\n      jump\t// in\n    tag_569:\n        /* \"#utility.yul\":7881:7883   */\n      0x40\n        /* \"#utility.yul\":7876:7879   */\n      dup3\n        /* \"#utility.yul\":7872:7884   */\n      add\n        /* \"#utility.yul\":7865:7884   */\n      swap1\n      pop\n        /* \"#utility.yul\":7524:7890   */\n      swap2\n      swap1\n      pop\n      jump\t// out\n        /* \"#utility.yul\":7896:8262   */\n    tag_571:\n        /* \"#utility.yul\":8038:8041   */\n      0x00\n        /* \"#utility.yul\":8059:8126   */\n      tag_573\n        /* \"#utility.yul\":8123:8125   */\n      0x23\n        /* \"#utility.yul\":8118:8121   */\n      dup4\n        /* \"#utility.yul\":8059:8126   */\n      tag_561\n      jump\t// in\n    tag_573:\n        /* \"#utility.yul\":8052:8126   */\n      swap2\n      pop\n        /* \"#utility.yul\":8135:8228   */\n      tag_574\n        /* \"#utility.yul\":8224:8227   */\n      dup3\n        /* \"#utility.yul\":8135:8228   */\n      tag_575\n      jump\t// in\n    tag_574:\n        /* \"#utility.yul\":8253:8255   */\n      0x40\n        /* \"#utility.yul\":8248:8251   */\n      dup3\n        /* \"#utility.yul\":8244:8256   */\n      add\n        /* \"#utility.yul\":8237:8256   */\n      swap1\n      pop\n        /* \"#utility.yul\":7896:8262   */\n      swap2\n      swap1\n      pop\n      jump\t// out\n        /* \"#utility.yul\":8268:8634   */\n    tag_576:\n        /* \"#utility.yul\":8410:8413   */\n      0x00\n        /* \"#utility.yul\":8431:8498   */\n      tag_578\n        /* \"#utility.yul\":8495:8497   */\n      0x17\n        /* \"#utility.yul\":8490:8493   */\n      dup4\n        /* \"#utility.yul\":8431:8498   */\n      tag_561\n      jump\t// in\n    tag_578:\n        /* \"#utility.yul\":8424:8498   */\n      swap2\n      pop\n        /* \"#utility.yul\":8507:8600   */\n      tag_579\n        /* \"#utility.yul\":8596:8599   */\n      dup3\n        /* \"#utility.yul\":8507:8600   */\n      tag_580\n      jump\t// in\n    tag_579:\n        /* \"#utility.yul\":8625:8627   */\n      0x20\n        /* \"#utility.yul\":8620:8623   */\n      dup3\n        /* \"#utility.yul\":8616:8628   */\n      add\n        /* \"#utility.yul\":8609:8628   */\n      swap1\n      pop\n        /* \"#utility.yul\":8268:8634   */\n      swap2\n      swap1\n      pop\n      jump\t// out\n        /* \"#utility.yul\":8640:9006   */\n    tag_581:\n        /* \"#utility.yul\":8782:8785   */\n      0x00\n        /* \"#utility.yul\":8803:8870   */\n      tag_583\n        /* \"#utility.yul\":8867:8869   */\n      0x3b\n        /* \"#utility.yul\":8862:8865   */\n      dup4\n        /* \"#utility.yul\":8803:8870   */\n      tag_561\n      jump\t// in\n    tag_583:\n        /* \"#utility.yul\":8796:8870   */\n      swap2\n      pop\n        /* \"#utility.yul\":8879:8972   */\n      tag_584\n        /* \"#utility.yul\":8968:8971   */\n      dup3\n        /* \"#utility.yul\":8879:8972   */\n      tag_585\n      jump\t// in\n    tag_584:\n        /* \"#utility.yul\":8997:8999   */\n      0x40\n        /* \"#utility.yul\":8992:8995   */\n      dup3\n        /* \"#utility.yul\":8988:9000   */\n      add\n        /* \"#utility.yul\":8981:9000   */\n      swap1\n      pop\n        /* \"#utility.yul\":8640:9006   */\n      swap2\n      swap1\n      pop\n      jump\t// out\n        /* \"#utility.yul\":9012:9378   */\n    tag_586:\n        /* \"#utility.yul\":9154:9157   */\n      0x00\n        /* \"#utility.yul\":9175:9242   */\n      tag_588\n        /* \"#utility.yul\":9239:9241   */\n      0x2b\n        /* \"#utility.yul\":9234:9237   */\n      dup4\n        /* \"#utility.yul\":9175:9242   */\n      tag_561\n      jump\t// in\n    tag_588:\n        /* \"#utility.yul\":9168:9242   */\n      swap2\n      pop\n        /* \"#utility.yul\":9251:9344   */\n      tag_589\n        /* \"#utility.yul\":9340:9343   */\n      dup3\n        /* \"#utility.yul\":9251:9344   */\n      tag_590\n      jump\t// in\n    tag_589:\n        /* \"#utility.yul\":9369:9371   */\n      0x40\n        /* \"#utility.yul\":9364:9367   */\n      dup3\n        /* \"#utility.yul\":9360:9372   */\n      add\n        /* \"#utility.yul\":9353:9372   */\n      swap1\n      pop\n        /* \"#utility.yul\":9012:9378   */\n      swap2\n      swap1\n      pop\n      jump\t// out\n        /* \"#utility.yul\":9384:9750   */\n    tag_591:\n        /* \"#utility.yul\":9526:9529   */\n      0x00\n        /* \"#utility.yul\":9547:9614   */\n      tag_593\n        /* \"#utility.yul\":9611:9613   */\n      0x21\n        /* \"#utility.yul\":9606:9609   */\n      dup4\n        /* \"#utility.yul\":9547:9614   */\n      tag_561\n      jump\t// in\n    tag_593:\n        /* \"#utility.yul\":9540:9614   */\n      swap2\n      pop\n        /* \"#utility.yul\":9623:9716   */\n      tag_594\n        /* \"#utility.yul\":9712:9715   */\n      dup3\n        /* \"#utility.yul\":9623:9716   */\n      tag_595\n      jump\t// in\n    tag_594:\n        /* \"#utility.yul\":9741:9743   */\n      0x40\n        /* \"#utility.yul\":9736:9739   */\n      dup3\n        /* \"#utility.yul\":9732:9744   */\n      add\n        /* \"#utility.yul\":9725:9744   */\n      swap1\n      pop\n        /* \"#utility.yul\":9384:9750   */\n      swap2\n      swap1\n      pop\n      jump\t// out\n        /* \"#utility.yul\":9756:10122   */\n    tag_596:\n        /* \"#utility.yul\":9898:9901   */\n      0x00\n        /* \"#utility.yul\":9919:9986   */\n      tag_598\n        /* \"#utility.yul\":9983:9985   */\n      0x41\n        /* \"#utility.yul\":9978:9981   */\n      dup4\n        /* \"#utility.yul\":9919:9986   */\n      tag_561\n      jump\t// in\n    tag_598:\n        /* \"#utility.yul\":9912:9986   */\n      swap2\n      pop\n        /* \"#utility.yul\":9995:10088   */\n      tag_599\n        /* \"#utility.yul\":10084:10087   */\n      dup3\n        /* \"#utility.yul\":9995:10088   */\n      tag_600\n      jump\t// in\n    tag_599:\n        /* \"#utility.yul\":10113:10115   */\n      0x60\n        /* \"#utility.yul\":10108:10111   */\n      dup3\n        /* \"#utility.yul\":10104:10116   */\n      add\n        /* \"#utility.yul\":10097:10116   */\n      swap1\n      pop\n        /* \"#utility.yul\":9756:10122   */\n      swap2\n      swap1\n      pop\n      jump\t// out\n        /* \"#utility.yul\":10128:10494   */\n    tag_601:\n        /* \"#utility.yul\":10270:10273   */\n      0x00\n        /* \"#utility.yul\":10291:10358   */\n      tag_603\n        /* \"#utility.yul\":10355:10357   */\n      0x3c\n        /* \"#utility.yul\":10350:10353   */\n      dup4\n        /* \"#utility.yul\":10291:10358   */\n      tag_561\n      jump\t// in\n    tag_603:\n        /* \"#utility.yul\":10284:10358   */\n      swap2\n      pop\n        /* \"#utility.yul\":10367:10460   */\n      tag_604\n        /* \"#utility.yul\":10456:10459   */\n      dup3\n        /* \"#utility.yul\":10367:10460   */\n      tag_605\n      jump\t// in\n    tag_604:\n        /* \"#utility.yul\":10485:10487   */\n      0x40\n        /* \"#utility.yul\":10480:10483   */\n      dup3\n        /* \"#utility.yul\":10476:10488   */\n      add\n        /* \"#utility.yul\":10469:10488   */\n      swap1\n      pop\n        /* \"#utility.yul\":10128:10494   */\n      swap2\n      swap1\n      pop\n      jump\t// out\n        /* \"#utility.yul\":10500:10866   */\n    tag_606:\n        /* \"#utility.yul\":10642:10645   */\n      0x00\n        /* \"#utility.yul\":10663:10730   */\n      tag_608\n        /* \"#utility.yul\":10727:10729   */\n      0x38\n        /* \"#utility.yul\":10722:10725   */\n      dup4\n        /* \"#utility.yul\":10663:10730   */\n      tag_561\n      jump\t// in\n    tag_608:\n        /* \"#utility.yul\":10656:10730   */\n      swap2\n      pop\n        /* \"#utility.yul\":10739:10832   */\n      tag_609\n        /* \"#utility.yul\":10828:10831   */\n      dup3\n        /* \"#utility.yul\":10739:10832   */\n      tag_610\n      jump\t// in\n    tag_609:\n        /* \"#utility.yul\":10857:10859   */\n      0x40\n        /* \"#utility.yul\":10852:10855   */\n      dup3\n        /* \"#utility.yul\":10848:10860   */\n      add\n        /* \"#utility.yul\":10841:10860   */\n      swap1\n      pop\n        /* \"#utility.yul\":10500:10866   */\n      swap2\n      swap1\n      pop\n      jump\t// out\n        /* \"#utility.yul\":10872:11238   */\n    tag_611:\n        /* \"#utility.yul\":11014:11017   */\n      0x00\n        /* \"#utility.yul\":11035:11102   */\n      tag_613\n        /* \"#utility.yul\":11099:11101   */\n      0x28\n        /* \"#utility.yul\":11094:11097   */\n      dup4\n        /* \"#utility.yul\":11035:11102   */\n      tag_561\n      jump\t// in\n    tag_613:\n        /* \"#utility.yul\":11028:11102   */\n      swap2\n      pop\n        /* \"#utility.yul\":11111:11204   */\n      tag_614\n        /* \"#utility.yul\":11200:11203   */\n      dup3\n        /* \"#utility.yul\":11111:11204   */\n      tag_615\n      jump\t// in\n    tag_614:\n        /* \"#utility.yul\":11229:11231   */\n      0x40\n        /* \"#utility.yul\":11224:11227   */\n      dup3\n        /* \"#utility.yul\":11220:11232   */\n      add\n        /* \"#utility.yul\":11213:11232   */\n      swap1\n      pop\n        /* \"#utility.yul\":10872:11238   */\n      swap2\n      swap1\n      pop\n      jump\t// out\n        /* \"#utility.yul\":11244:11362   */\n    tag_616:\n        /* \"#utility.yul\":11331:11355   */\n      tag_618\n        /* \"#utility.yul\":11349:11354   */\n      dup2\n        /* \"#utility.yul\":11331:11355   */\n      tag_619\n      jump\t// in\n    tag_618:\n        /* \"#utility.yul\":11326:11329   */\n      dup3\n        /* \"#utility.yul\":11319:11356   */\n      mstore\n        /* \"#utility.yul\":11244:11362   */\n      pop\n      pop\n      jump\t// out\n        /* \"#utility.yul\":11368:11480   */\n    tag_620:\n        /* \"#utility.yul\":11451:11473   */\n      tag_622\n        /* \"#utility.yul\":11467:11472   */\n      dup2\n        /* \"#utility.yul\":11451:11473   */\n      tag_623\n      jump\t// in\n    tag_622:\n        /* \"#utility.yul\":11446:11449   */\n      dup3\n        /* \"#utility.yul\":11439:11474   */\n      mstore\n        /* \"#utility.yul\":11368:11480   */\n      pop\n      pop\n      jump\t// out\n        /* \"#utility.yul\":11486:11708   */\n    tag_147:\n        /* \"#utility.yul\":11579:11583   */\n      0x00\n        /* \"#utility.yul\":11617:11619   */\n      0x20\n        /* \"#utility.yul\":11606:11615   */\n      dup3\n        /* \"#utility.yul\":11602:11620   */\n      add\n        /* \"#utility.yul\":11594:11620   */\n      swap1\n      pop\n        /* \"#utility.yul\":11630:11701   */\n      tag_625\n        /* \"#utility.yul\":11698:11699   */\n      0x00\n        /* \"#utility.yul\":11687:11696   */\n      dup4\n        /* \"#utility.yul\":11683:11700   */\n      add\n        /* \"#utility.yul\":11674:11680   */\n      dup5\n        /* \"#utility.yul\":11630:11701   */\n      tag_548\n      jump\t// in\n    tag_625:\n        /* \"#utility.yul\":11486:11708   */\n      swap3\n      swap2\n      pop\n      pop\n      jump\t// out\n        /* \"#utility.yul\":11714:11924   */\n    tag_63:\n        /* \"#utility.yul\":11801:11805   */\n      0x00\n        /* \"#utility.yul\":11839:11841   */\n      0x20\n        /* \"#utility.yul\":11828:11837   */\n      dup3\n        /* \"#utility.yul\":11824:11842   */\n      add\n        /* \"#utility.yul\":11816:11842   */\n      swap1\n      pop\n        /* \"#utility.yul\":11852:11917   */\n      tag_627\n        /* \"#utility.yul\":11914:11915   */\n      0x00\n        /* \"#utility.yul\":11903:11912   */\n      dup4\n        /* \"#utility.yul\":11899:11916   */\n      add\n        /* \"#utility.yul\":11890:11896   */\n      dup5\n        /* \"#utility.yul\":11852:11917   */\n      tag_552\n      jump\t// in\n    tag_627:\n        /* \"#utility.yul\":11714:11924   */\n      swap3\n      swap2\n      pop\n      pop\n      jump\t// out\n        /* \"#utility.yul\":11930:12243   */\n    tag_57:\n        /* \"#utility.yul\":12043:12047   */\n      0x00\n        /* \"#utility.yul\":12081:12083   */\n      0x20\n        /* \"#utility.yul\":12070:12079   */\n      dup3\n        /* \"#utility.yul\":12066:12084   */\n      add\n        /* \"#utility.yul\":12058:12084   */\n      swap1\n      pop\n        /* \"#utility.yul\":12130:12139   */\n      dup2\n        /* \"#utility.yul\":12124:12128   */\n      dup2\n        /* \"#utility.yul\":12120:12140   */\n      sub\n        /* \"#utility.yul\":12116:12117   */\n      0x00\n        /* \"#utility.yul\":12105:12114   */\n      dup4\n        /* \"#utility.yul\":12101:12118   */\n      add\n        /* \"#utility.yul\":12094:12141   */\n      mstore\n        /* \"#utility.yul\":12158:12236   */\n      tag_629\n        /* \"#utility.yul\":12231:12235   */\n      dup2\n        /* \"#utility.yul\":12222:12228   */\n      dup5\n        /* \"#utility.yul\":12158:12236   */\n      tag_556\n      jump\t// in\n    tag_629:\n        /* \"#utility.yul\":12150:12236   */\n      swap1\n      pop\n        /* \"#utility.yul\":11930:12243   */\n      swap3\n      swap2\n      pop\n      pop\n      jump\t// out\n        /* \"#utility.yul\":12249:12668   */\n    tag_264:\n        /* \"#utility.yul\":12415:12419   */\n      0x00\n        /* \"#utility.yul\":12453:12455   */\n      0x20\n        /* \"#utility.yul\":12442:12451   */\n      dup3\n        /* \"#utility.yul\":12438:12456   */\n      add\n        /* \"#utility.yul\":12430:12456   */\n      swap1\n      pop\n        /* \"#utility.yul\":12502:12511   */\n      dup2\n        /* \"#utility.yul\":12496:12500   */\n      dup2\n        /* \"#utility.yul\":12492:12512   */\n      sub\n        /* \"#utility.yul\":12488:12489   */\n      0x00\n        /* \"#utility.yul\":12477:12486   */\n      dup4\n        /* \"#utility.yul\":12473:12490   */\n      add\n        /* \"#utility.yul\":12466:12513   */\n      mstore\n        /* \"#utility.yul\":12530:12661   */\n      tag_631\n        /* \"#utility.yul\":12656:12660   */\n      dup2\n        /* \"#utility.yul\":12530:12661   */\n      tag_566\n      jump\t// in\n    tag_631:\n        /* \"#utility.yul\":12522:12661   */\n      swap1\n      pop\n        /* \"#utility.yul\":12249:12668   */\n      swap2\n      swap1\n      pop\n      jump\t// out\n        /* \"#utility.yul\":12674:13093   */\n    tag_222:\n        /* \"#utility.yul\":12840:12844   */\n      0x00\n        /* \"#utility.yul\":12878:12880   */\n      0x20\n        /* \"#utility.yul\":12867:12876   */\n      dup3\n        /* \"#utility.yul\":12863:12881   */\n      add\n        /* \"#utility.yul\":12855:12881   */\n      swap1\n      pop\n        /* \"#utility.yul\":12927:12936   */\n      dup2\n        /* \"#utility.yul\":12921:12925   */\n      dup2\n        /* \"#utility.yul\":12917:12937   */\n      sub\n        /* \"#utility.yul\":12913:12914   */\n      0x00\n        /* \"#utility.yul\":12902:12911   */\n      dup4\n        /* \"#utility.yul\":12898:12915   */\n      add\n        /* \"#utility.yul\":12891:12938   */\n      mstore\n        /* \"#utility.yul\":12955:13086   */\n      tag_633\n        /* \"#utility.yul\":13081:13085   */\n      dup2\n        /* \"#utility.yul\":12955:13086   */\n      tag_571\n      jump\t// in\n    tag_633:\n        /* \"#utility.yul\":12947:13086   */\n      swap1\n      pop\n        /* \"#utility.yul\":12674:13093   */\n      swap2\n      swap1\n      pop\n      jump\t// out\n        /* \"#utility.yul\":13099:13518   */\n    tag_225:\n        /* \"#utility.yul\":13265:13269   */\n      0x00\n        /* \"#utility.yul\":13303:13305   */\n      0x20\n        /* \"#utility.yul\":13292:13301   */\n      dup3\n        /* \"#utility.yul\":13288:13306   */\n      add\n        /* \"#utility.yul\":13280:13306   */\n      swap1\n      pop\n        /* \"#utility.yul\":13352:13361   */\n      dup2\n        /* \"#utility.yul\":13346:13350   */\n      dup2\n        /* \"#utility.yul\":13342:13362   */\n      sub\n        /* \"#utility.yul\":13338:13339   */\n      0x00\n        /* \"#utility.yul\":13327:13336   */\n      dup4\n        /* \"#utility.yul\":13323:13340   */\n      add\n        /* \"#utility.yul\":13316:13363   */\n      mstore\n        /* \"#utility.yul\":13380:13511   */\n      tag_635\n        /* \"#utility.yul\":13506:13510   */\n      dup2\n        /* \"#utility.yul\":13380:13511   */\n      tag_576\n      jump\t// in\n    tag_635:\n        /* \"#utility.yul\":13372:13511   */\n      swap1\n      pop\n        /* \"#utility.yul\":13099:13518   */\n      swap2\n      swap1\n      pop\n      jump\t// out\n        /* \"#utility.yul\":13524:13943   */\n    tag_302:\n        /* \"#utility.yul\":13690:13694   */\n      0x00\n        /* \"#utility.yul\":13728:13730   */\n      0x20\n        /* \"#utility.yul\":13717:13726   */\n      dup3\n        /* \"#utility.yul\":13713:13731   */\n      add\n        /* \"#utility.yul\":13705:13731   */\n      swap1\n      pop\n        /* \"#utility.yul\":13777:13786   */\n      dup2\n        /* \"#utility.yul\":13771:13775   */\n      dup2\n        /* \"#utility.yul\":13767:13787   */\n      sub\n        /* \"#utility.yul\":13763:13764   */\n      0x00\n        /* \"#utility.yul\":13752:13761   */\n      dup4\n        /* \"#utility.yul\":13748:13765   */\n      add\n        /* \"#utility.yul\":13741:13788   */\n      mstore\n        /* \"#utility.yul\":13805:13936   */\n      tag_637\n        /* \"#utility.yul\":13931:13935   */\n      dup2\n        /* \"#utility.yul\":13805:13936   */\n      tag_581\n      jump\t// in\n    tag_637:\n        /* \"#utility.yul\":13797:13936   */\n      swap1\n      pop\n        /* \"#utility.yul\":13524:13943   */\n      swap2\n      swap1\n      pop\n      jump\t// out\n        /* \"#utility.yul\":13949:14368   */\n    tag_349:\n        /* \"#utility.yul\":14115:14119   */\n      0x00\n        /* \"#utility.yul\":14153:14155   */\n      0x20\n        /* \"#utility.yul\":14142:14151   */\n      dup3\n        /* \"#utility.yul\":14138:14156   */\n      add\n        /* \"#utility.yul\":14130:14156   */\n      swap1\n      pop\n        /* \"#utility.yul\":14202:14211   */\n      dup2\n        /* \"#utility.yul\":14196:14200   */\n      dup2\n        /* \"#utility.yul\":14192:14212   */\n      sub\n        /* \"#utility.yul\":14188:14189   */\n      0x00\n        /* \"#utility.yul\":14177:14186   */\n      dup4\n        /* \"#utility.yul\":14173:14190   */\n      add\n        /* \"#utility.yul\":14166:14213   */\n      mstore\n        /* \"#utility.yul\":14230:14361   */\n      tag_639\n        /* \"#utility.yul\":14356:14360   */\n      dup2\n        /* \"#utility.yul\":14230:14361   */\n      tag_586\n      jump\t// in\n    tag_639:\n        /* \"#utility.yul\":14222:14361   */\n      swap1\n      pop\n        /* \"#utility.yul\":13949:14368   */\n      swap2\n      swap1\n      pop\n      jump\t// out\n        /* \"#utility.yul\":14374:14793   */\n    tag_421:\n        /* \"#utility.yul\":14540:14544   */\n      0x00\n        /* \"#utility.yul\":14578:14580   */\n      0x20\n        /* \"#utility.yul\":14567:14576   */\n      dup3\n        /* \"#utility.yul\":14563:14581   */\n      add\n        /* \"#utility.yul\":14555:14581   */\n      swap1\n      pop\n        /* \"#utility.yul\":14627:14636   */\n      dup2\n        /* \"#utility.yul\":14621:14625   */\n      dup2\n        /* \"#utility.yul\":14617:14637   */\n      sub\n        /* \"#utility.yul\":14613:14614   */\n      0x00\n        /* \"#utility.yul\":14602:14611   */\n      dup4\n        /* \"#utility.yul\":14598:14615   */\n      add\n        /* \"#utility.yul\":14591:14638   */\n      mstore\n        /* \"#utility.yul\":14655:14786   */\n      tag_641\n        /* \"#utility.yul\":14781:14785   */\n      dup2\n        /* \"#utility.yul\":14655:14786   */\n      tag_591\n      jump\t// in\n    tag_641:\n        /* \"#utility.yul\":14647:14786   */\n      swap1\n      pop\n        /* \"#utility.yul\":14374:14793   */\n      swap2\n      swap1\n      pop\n      jump\t// out\n        /* \"#utility.yul\":14799:15218   */\n    tag_230:\n        /* \"#utility.yul\":14965:14969   */\n      0x00\n        /* \"#utility.yul\":15003:15005   */\n      0x20\n        /* \"#utility.yul\":14992:15001   */\n      dup3\n        /* \"#utility.yul\":14988:15006   */\n      add\n        /* \"#utility.yul\":14980:15006   */\n      swap1\n      pop\n        /* \"#utility.yul\":15052:15061   */\n      dup2\n        /* \"#utility.yul\":15046:15050   */\n      dup2\n        /* \"#utility.yul\":15042:15062   */\n      sub\n        /* \"#utility.yul\":15038:15039   */\n      0x00\n        /* \"#utility.yul\":15027:15036   */\n      dup4\n        /* \"#utility.yul\":15023:15040   */\n      add\n        /* \"#utility.yul\":15016:15063   */\n      mstore\n        /* \"#utility.yul\":15080:15211   */\n      tag_643\n        /* \"#utility.yul\":15206:15210   */\n      dup2\n        /* \"#utility.yul\":15080:15211   */\n      tag_596\n      jump\t// in\n    tag_643:\n        /* \"#utility.yul\":15072:15211   */\n      swap1\n      pop\n        /* \"#utility.yul\":14799:15218   */\n      swap2\n      swap1\n      pop\n      jump\t// out\n        /* \"#utility.yul\":15224:15643   */\n    tag_431:\n        /* \"#utility.yul\":15390:15394   */\n      0x00\n        /* \"#utility.yul\":15428:15430   */\n      0x20\n        /* \"#utility.yul\":15417:15426   */\n      dup3\n        /* \"#utility.yul\":15413:15431   */\n      add\n        /* \"#utility.yul\":15405:15431   */\n      swap1\n      pop\n        /* \"#utility.yul\":15477:15486   */\n      dup2\n        /* \"#utility.yul\":15471:15475   */\n      dup2\n        /* \"#utility.yul\":15467:15487   */\n      sub\n        /* \"#utility.yul\":15463:15464   */\n      0x00\n        /* \"#utility.yul\":15452:15461   */\n      dup4\n        /* \"#utility.yul\":15448:15465   */\n      add\n        /* \"#utility.yul\":15441:15488   */\n      mstore\n        /* \"#utility.yul\":15505:15636   */\n      tag_645\n        /* \"#utility.yul\":15631:15635   */\n      dup2\n        /* \"#utility.yul\":15505:15636   */\n      tag_601\n      jump\t// in\n    tag_645:\n        /* \"#utility.yul\":15497:15636   */\n      swap1\n      pop\n        /* \"#utility.yul\":15224:15643   */\n      swap2\n      swap1\n      pop\n      jump\t// out\n        /* \"#utility.yul\":15649:16068   */\n    tag_252:\n        /* \"#utility.yul\":15815:15819   */\n      0x00\n        /* \"#utility.yul\":15853:15855   */\n      0x20\n        /* \"#utility.yul\":15842:15851   */\n      dup3\n        /* \"#utility.yul\":15838:15856   */\n      add\n        /* \"#utility.yul\":15830:15856   */\n      swap1\n      pop\n        /* \"#utility.yul\":15902:15911   */\n      dup2\n        /* \"#utility.yul\":15896:15900   */\n      dup2\n        /* \"#utility.yul\":15892:15912   */\n      sub\n        /* \"#utility.yul\":15888:15889   */\n      0x00\n        /* \"#utility.yul\":15877:15886   */\n      dup4\n        /* \"#utility.yul\":15873:15890   */\n      add\n        /* \"#utility.yul\":15866:15913   */\n      mstore\n        /* \"#utility.yul\":15930:16061   */\n      tag_647\n        /* \"#utility.yul\":16056:16060   */\n      dup2\n        /* \"#utility.yul\":15930:16061   */\n      tag_606\n      jump\t// in\n    tag_647:\n        /* \"#utility.yul\":15922:16061   */\n      swap1\n      pop\n        /* \"#utility.yul\":15649:16068   */\n      swap2\n      swap1\n      pop\n      jump\t// out\n        /* \"#utility.yul\":16074:16493   */\n    tag_273:\n        /* \"#utility.yul\":16240:16244   */\n      0x00\n        /* \"#utility.yul\":16278:16280   */\n      0x20\n        /* \"#utility.yul\":16267:16276   */\n      dup3\n        /* \"#utility.yul\":16263:16281   */\n      add\n        /* \"#utility.yul\":16255:16281   */\n      swap1\n      pop\n        /* \"#utility.yul\":16327:16336   */\n      dup2\n        /* \"#utility.yul\":16321:16325   */\n      dup2\n        /* \"#utility.yul\":16317:16337   */\n      sub\n        /* \"#utility.yul\":16313:16314   */\n      0x00\n        /* \"#utility.yul\":16302:16311   */\n      dup4\n        /* \"#utility.yul\":16298:16315   */\n      add\n        /* \"#utility.yul\":16291:16338   */\n      mstore\n        /* \"#utility.yul\":16355:16486   */\n      tag_649\n        /* \"#utility.yul\":16481:16485   */\n      dup2\n        /* \"#utility.yul\":16355:16486   */\n      tag_611\n      jump\t// in\n    tag_649:\n        /* \"#utility.yul\":16347:16486   */\n      swap1\n      pop\n        /* \"#utility.yul\":16074:16493   */\n      swap2\n      swap1\n      pop\n      jump\t// out\n        /* \"#utility.yul\":16499:16721   */\n    tag_75:\n        /* \"#utility.yul\":16592:16596   */\n      0x00\n        /* \"#utility.yul\":16630:16632   */\n      0x20\n        /* \"#utility.yul\":16619:16628   */\n      dup3\n        /* \"#utility.yul\":16615:16633   */\n      add\n        /* \"#utility.yul\":16607:16633   */\n      swap1\n      pop\n        /* \"#utility.yul\":16643:16714   */\n      tag_651\n        /* \"#utility.yul\":16711:16712   */\n      0x00\n        /* \"#utility.yul\":16700:16709   */\n      dup4\n        /* \"#utility.yul\":16696:16713   */\n      add\n        /* \"#utility.yul\":16687:16693   */\n      dup5\n        /* \"#utility.yul\":16643:16714   */\n      tag_616\n      jump\t// in\n    tag_651:\n        /* \"#utility.yul\":16499:16721   */\n      swap3\n      swap2\n      pop\n      pop\n      jump\t// out\n        /* \"#utility.yul\":16727:17059   */\n    tag_166:\n        /* \"#utility.yul\":16848:16852   */\n      0x00\n        /* \"#utility.yul\":16886:16888   */\n      0x40\n        /* \"#utility.yul\":16875:16884   */\n      dup3\n        /* \"#utility.yul\":16871:16889   */\n      add\n        /* \"#utility.yul\":16863:16889   */\n      swap1\n      pop\n        /* \"#utility.yul\":16899:16970   */\n      tag_653\n        /* \"#utility.yul\":16967:16968   */\n      0x00\n        /* \"#utility.yul\":16956:16965   */\n      dup4\n        /* \"#utility.yul\":16952:16969   */\n      add\n        /* \"#utility.yul\":16943:16949   */\n      dup6\n        /* \"#utility.yul\":16899:16970   */\n      tag_616\n      jump\t// in\n    tag_653:\n        /* \"#utility.yul\":16980:17052   */\n      tag_654\n        /* \"#utility.yul\":17048:17050   */\n      0x20\n        /* \"#utility.yul\":17037:17046   */\n      dup4\n        /* \"#utility.yul\":17033:17051   */\n      add\n        /* \"#utility.yul\":17024:17030   */\n      dup5\n        /* \"#utility.yul\":16980:17052   */\n      tag_616\n      jump\t// in\n    tag_654:\n        /* \"#utility.yul\":16727:17059   */\n      swap4\n      swap3\n      pop\n      pop\n      pop\n      jump\t// out\n        /* \"#utility.yul\":17065:17279   */\n    tag_71:\n        /* \"#utility.yul\":17154:17158   */\n      0x00\n        /* \"#utility.yul\":17192:17194   */\n      0x20\n        /* \"#utility.yul\":17181:17190   */\n      dup3\n        /* \"#utility.yul\":17177:17195   */\n      add\n        /* \"#utility.yul\":17169:17195   */\n      swap1\n      pop\n        /* \"#utility.yul\":17205:17272   */\n      tag_656\n        /* \"#utility.yul\":17269:17270   */\n      0x00\n        /* \"#utility.yul\":17258:17267   */\n      dup4\n        /* \"#utility.yul\":17254:17271   */\n      add\n        /* \"#utility.yul\":17245:17251   */\n      dup5\n        /* \"#utility.yul\":17205:17272   */\n      tag_620\n      jump\t// in\n    tag_656:\n        /* \"#utility.yul\":17065:17279   */\n      swap3\n      swap2\n      pop\n      pop\n      jump\t// out\n        /* \"#utility.yul\":17285:17414   */\n    tag_457:\n        /* \"#utility.yul\":17319:17325   */\n      0x00\n        /* \"#utility.yul\":17346:17366   */\n      tag_658\n      tag_659\n      jump\t// in\n    tag_658:\n        /* \"#utility.yul\":17336:17366   */\n      swap1\n      pop\n        /* \"#utility.yul\":17375:17408   */\n      tag_660\n        /* \"#utility.yul\":17403:17407   */\n      dup3\n        /* \"#utility.yul\":17395:17401   */\n      dup3\n        /* \"#utility.yul\":17375:17408   */\n      tag_661\n      jump\t// in\n    tag_660:\n        /* \"#utility.yul\":17285:17414   */\n      swap2\n      swap1\n      pop\n      jump\t// out\n        /* \"#utility.yul\":17420:17495   */\n    tag_659:\n        /* \"#utility.yul\":17453:17459   */\n      0x00\n        /* \"#utility.yul\":17486:17488   */\n      0x40\n        /* \"#utility.yul\":17480:17489   */\n      mload\n        /* \"#utility.yul\":17470:17489   */\n      swap1\n      pop\n        /* \"#utility.yul\":17420:17495   */\n      swap1\n      jump\t// out\n        /* \"#utility.yul\":17501:17812   */\n    tag_456:\n        /* \"#utility.yul\":17578:17582   */\n      0x00\n        /* \"#utility.yul\":17668:17686   */\n      0xffffffffffffffff\n        /* \"#utility.yul\":17660:17666   */\n      dup3\n        /* \"#utility.yul\":17657:17687   */\n      gt\n        /* \"#utility.yul\":17654:17710   */\n      iszero\n      tag_664\n      jumpi\n        /* \"#utility.yul\":17690:17708   */\n      tag_665\n      tag_666\n      jump\t// in\n    tag_665:\n        /* \"#utility.yul\":17654:17710   */\n    tag_664:\n        /* \"#utility.yul\":17740:17744   */\n      0x20\n        /* \"#utility.yul\":17732:17738   */\n      dup3\n        /* \"#utility.yul\":17728:17745   */\n      mul\n        /* \"#utility.yul\":17720:17745   */\n      swap1\n      pop\n        /* \"#utility.yul\":17800:17804   */\n      0x20\n        /* \"#utility.yul\":17794:17798   */\n      dup2\n        /* \"#utility.yul\":17790:17805   */\n      add\n        /* \"#utility.yul\":17782:17805   */\n      swap1\n      pop\n        /* \"#utility.yul\":17501:17812   */\n      swap2\n      swap1\n      pop\n      jump\t// out\n        /* \"#utility.yul\":17818:18126   */\n    tag_470:\n        /* \"#utility.yul\":17880:17884   */\n      0x00\n        /* \"#utility.yul\":17970:17988   */\n      0xffffffffffffffff\n        /* \"#utility.yul\":17962:17968   */\n      dup3\n        /* \"#utility.yul\":17959:17989   */\n      gt\n        /* \"#utility.yul\":17956:18012   */\n      iszero\n      tag_668\n      jumpi\n        /* \"#utility.yul\":17992:18010   */\n      tag_669\n      tag_666\n      jump\t// in\n    tag_669:\n        /* \"#utility.yul\":17956:18012   */\n    tag_668:\n        /* \"#utility.yul\":18030:18059   */\n      tag_670\n        /* \"#utility.yul\":18052:18058   */\n      dup3\n        /* \"#utility.yul\":18030:18059   */\n      tag_565\n      jump\t// in\n    tag_670:\n        /* \"#utility.yul\":18022:18059   */\n      swap1\n      pop\n        /* \"#utility.yul\":18114:18118   */\n      0x20\n        /* \"#utility.yul\":18108:18112   */\n      dup2\n        /* \"#utility.yul\":18104:18119   */\n      add\n        /* \"#utility.yul\":18096:18119   */\n      swap1\n      pop\n        /* \"#utility.yul\":17818:18126   */\n      swap2\n      swap1\n      pop\n      jump\t// out\n        /* \"#utility.yul\":18132:18231   */\n    tag_559:\n        /* \"#utility.yul\":18184:18190   */\n      0x00\n        /* \"#utility.yul\":18218:18223   */\n      dup2\n        /* \"#utility.yul\":18212:18224   */\n      mload\n        /* \"#utility.yul\":18202:18224   */\n      swap1\n      pop\n        /* \"#utility.yul\":18132:18231   */\n      swap2\n      swap1\n      pop\n      jump\t// out\n        /* \"#utility.yul\":18237:18406   */\n    tag_561:\n        /* \"#utility.yul\":18321:18332   */\n      0x00\n        /* \"#utility.yul\":18355:18361   */\n      dup3\n        /* \"#utility.yul\":18350:18353   */\n      dup3\n        /* \"#utility.yul\":18343:18362   */\n      mstore\n        /* \"#utility.yul\":18395:18399   */\n      0x20\n        /* \"#utility.yul\":18390:18393   */\n      dup3\n        /* \"#utility.yul\":18386:18400   */\n      add\n        /* \"#utility.yul\":18371:18400   */\n      swap1\n      pop\n        /* \"#utility.yul\":18237:18406   */\n      swap3\n      swap2\n      pop\n      pop\n      jump\t// out\n        /* \"#utility.yul\":18412:18717   */\n    tag_275:\n        /* \"#utility.yul\":18452:18455   */\n      0x00\n        /* \"#utility.yul\":18471:18491   */\n      tag_674\n        /* \"#utility.yul\":18489:18490   */\n      dup3\n        /* \"#utility.yul\":18471:18491   */\n      tag_619\n      jump\t// in\n    tag_674:\n        /* \"#utility.yul\":18466:18491   */\n      swap2\n      pop\n        /* \"#utility.yul\":18505:18525   */\n      tag_675\n        /* \"#utility.yul\":18523:18524   */\n      dup4\n        /* \"#utility.yul\":18505:18525   */\n      tag_619\n      jump\t// in\n    tag_675:\n        /* \"#utility.yul\":18500:18525   */\n      swap3\n      pop\n        /* \"#utility.yul\":18659:18660   */\n      dup3\n        /* \"#utility.yul\":18591:18657   */\n      0xffffffffffffffffffffffffffffffffffffffffffffffffffffffffffffffff\n        /* \"#utility.yul\":18587:18661   */\n      sub\n        /* \"#utility.yul\":18584:18585   */\n      dup3\n        /* \"#utility.yul\":18581:18662   */\n      gt\n        /* \"#utility.yul\":18578:18685   */\n      iszero\n      tag_676\n      jumpi\n        /* \"#utility.yul\":18665:18683   */\n      tag_677\n      tag_678\n      jump\t// in\n    tag_677:\n        /* \"#utility.yul\":18578:18685   */\n    tag_676:\n        /* \"#utility.yul\":18709:18710   */\n      dup3\n        /* \"#utility.yul\":18706:18707   */\n      dup3\n        /* \"#utility.yul\":18702:18711   */\n      add\n        /* \"#utility.yul\":18695:18711   */\n      swap1\n      pop\n        /* \"#utility.yul\":18412:18717   */\n      swap3\n      swap2\n      pop\n      pop\n      jump\t// out\n        /* \"#utility.yul\":18723:18914   */\n    tag_256:\n        /* \"#utility.yul\":18763:18767   */\n      0x00\n        /* \"#utility.yul\":18783:18803   */\n      tag_680\n        /* \"#utility.yul\":18801:18802   */\n      dup3\n        /* \"#utility.yul\":18783:18803   */\n      tag_619\n      jump\t// in\n    tag_680:\n        /* \"#utility.yul\":18778:18803   */\n      swap2\n      pop\n        /* \"#utility.yul\":18817:18837   */\n      tag_681\n        /* \"#utility.yul\":18835:18836   */\n      dup4\n        /* \"#utility.yul\":18817:18837   */\n      tag_619\n      jump\t// in\n    tag_681:\n        /* \"#utility.yul\":18812:18837   */\n      swap3\n      pop\n        /* \"#utility.yul\":18856:18857   */\n      dup3\n        /* \"#utility.yul\":18853:18854   */\n      dup3\n        /* \"#utility.yul\":18850:18858   */\n      lt\n        /* \"#utility.yul\":18847:18881   */\n      iszero\n      tag_682\n      jumpi\n        /* \"#utility.yul\":18861:18879   */\n      tag_683\n      tag_678\n      jump\t// in\n    tag_683:\n        /* \"#utility.yul\":18847:18881   */\n    tag_682:\n        /* \"#utility.yul\":18906:18907   */\n      dup3\n        /* \"#utility.yul\":18903:18904   */\n      dup3\n        /* \"#utility.yul\":18899:18908   */\n      sub\n        /* \"#utility.yul\":18891:18908   */\n      swap1\n      pop\n        /* \"#utility.yul\":18723:18914   */\n      swap3\n      swap2\n      pop\n      pop\n      jump\t// out\n        /* \"#utility.yul\":18920:19016   */\n    tag_551:\n        /* \"#utility.yul\":18957:18964   */\n      0x00\n        /* \"#utility.yul\":18986:19010   */\n      tag_685\n        /* \"#utility.yul\":19004:19009   */\n      dup3\n        /* \"#utility.yul\":18986:19010   */\n      tag_686\n      jump\t// in\n    tag_685:\n        /* \"#utility.yul\":18975:19010   */\n      swap1\n      pop\n        /* \"#utility.yul\":18920:19016   */\n      swap2\n      swap1\n      pop\n      jump\t// out\n        /* \"#utility.yul\":19022:19112   */\n    tag_555:\n        /* \"#utility.yul\":19056:19063   */\n      0x00\n        /* \"#utility.yul\":19099:19104   */\n      dup2\n        /* \"#utility.yul\":19092:19105   */\n      iszero\n        /* \"#utility.yul\":19085:19106   */\n      iszero\n        /* \"#utility.yul\":19074:19106   */\n      swap1\n      pop\n        /* \"#utility.yul\":19022:19112   */\n      swap2\n      swap1\n      pop\n      jump\t// out\n        /* \"#utility.yul\":19118:19244   */\n    tag_686:\n        /* \"#utility.yul\":19155:19162   */\n      0x00\n        /* \"#utility.yul\":19195:19237   */\n      0xffffffffffffffffffffffffffffffffffffffff\n        /* \"#utility.yul\":19188:19193   */\n      dup3\n        /* \"#utility.yul\":19184:19238   */\n      and\n        /* \"#utility.yul\":19173:19238   */\n      swap1\n      pop\n        /* \"#utility.yul\":19118:19244   */\n      swap2\n      swap1\n      pop\n      jump\t// out\n        /* \"#utility.yul\":19250:19327   */\n    tag_619:\n        /* \"#utility.yul\":19287:19294   */\n      0x00\n        /* \"#utility.yul\":19316:19321   */\n      dup2\n        /* \"#utility.yul\":19305:19321   */\n      swap1\n      pop\n        /* \"#utility.yul\":19250:19327   */\n      swap2\n      swap1\n      pop\n      jump\t// out\n        /* \"#utility.yul\":19333:19419   */\n    tag_623:\n        /* \"#utility.yul\":19368:19375   */\n      0x00\n        /* \"#utility.yul\":19408:19412   */\n      0xff\n        /* \"#utility.yul\":19401:19406   */\n      dup3\n        /* \"#utility.yul\":19397:19413   */\n      and\n        /* \"#utility.yul\":19386:19413   */\n      swap1\n      pop\n        /* \"#utility.yul\":19333:19419   */\n      swap2\n      swap1\n      pop\n      jump\t// out\n        /* \"#utility.yul\":19425:19579   */\n    tag_475:\n        /* \"#utility.yul\":19509:19515   */\n      dup3\n        /* \"#utility.yul\":19504:19507   */\n      dup2\n        /* \"#utility.yul\":19499:19502   */\n      dup4\n        /* \"#utility.yul\":19486:19516   */\n      calldatacopy\n        /* \"#utility.yul\":19571:19572   */\n      0x00\n        /* \"#utility.yul\":19562:19568   */\n      dup4\n        /* \"#utility.yul\":19557:19560   */\n      dup4\n        /* \"#utility.yul\":19553:19569   */\n      add\n        /* \"#utility.yul\":19546:19573   */\n      mstore\n        /* \"#utility.yul\":19425:19579   */\n      pop\n      pop\n      pop\n      jump\t// out\n        /* \"#utility.yul\":19585:19892   */\n    tag_563:\n        /* \"#utility.yul\":19653:19654   */\n      0x00\n        /* \"#utility.yul\":19663:19776   */\n    tag_693:\n        /* \"#utility.yul\":19677:19683   */\n      dup4\n        /* \"#utility.yul\":19674:19675   */\n      dup2\n        /* \"#utility.yul\":19671:19684   */\n      lt\n        /* \"#utility.yul\":19663:19776   */\n      iszero\n      tag_695\n      jumpi\n        /* \"#utility.yul\":19762:19763   */\n      dup1\n        /* \"#utility.yul\":19757:19760   */\n      dup3\n        /* \"#utility.yul\":19753:19764   */\n      add\n        /* \"#utility.yul\":19747:19765   */\n      mload\n        /* \"#utility.yul\":19743:19744   */\n      dup2\n        /* \"#utility.yul\":19738:19741   */\n      dup5\n        /* \"#utility.yul\":19734:19745   */\n      add\n        /* \"#utility.yul\":19727:19766   */\n      mstore\n        /* \"#utility.yul\":19699:19701   */\n      0x20\n        /* \"#utility.yul\":19696:19697   */\n      dup2\n        /* \"#utility.yul\":19692:19702   */\n      add\n        /* \"#utility.yul\":19687:19702   */\n      swap1\n      pop\n        /* \"#utility.yul\":19663:19776   */\n      jump(tag_693)\n    tag_695:\n        /* \"#utility.yul\":19794:19800   */\n      dup4\n        /* \"#utility.yul\":19791:19792   */\n      dup2\n        /* \"#utility.yul\":19788:19801   */\n      gt\n        /* \"#utility.yul\":19785:19886   */\n      iszero\n      tag_696\n      jumpi\n        /* \"#utility.yul\":19874:19875   */\n      0x00\n        /* \"#utility.yul\":19865:19871   */\n      dup5\n        /* \"#utility.yul\":19860:19863   */\n      dup5\n        /* \"#utility.yul\":19856:19872   */\n      add\n        /* \"#utility.yul\":19849:19876   */\n      mstore\n        /* \"#utility.yul\":19785:19886   */\n    tag_696:\n        /* \"#utility.yul\":19634:19892   */\n      pop\n        /* \"#utility.yul\":19585:19892   */\n      pop\n      pop\n      pop\n      jump\t// out\n        /* \"#utility.yul\":19898:20218   */\n    tag_214:\n        /* \"#utility.yul\":19942:19948   */\n      0x00\n        /* \"#utility.yul\":19979:19980   */\n      0x02\n        /* \"#utility.yul\":19973:19977   */\n      dup3\n        /* \"#utility.yul\":19969:19981   */\n      div\n        /* \"#utility.yul\":19959:19981   */\n      swap1\n      pop\n        /* \"#utility.yul\":20026:20027   */\n      0x01\n        /* \"#utility.yul\":20020:20024   */\n      dup3\n        /* \"#utility.yul\":20016:20028   */\n      and\n        /* \"#utility.yul\":20047:20065   */\n      dup1\n        /* \"#utility.yul\":20037:20118   */\n      tag_698\n      jumpi\n        /* \"#utility.yul\":20103:20107   */\n      0x7f\n        /* \"#utility.yul\":20095:20101   */\n      dup3\n        /* \"#utility.yul\":20091:20108   */\n      and\n        /* \"#utility.yul\":20081:20108   */\n      swap2\n      pop\n        /* \"#utility.yul\":20037:20118   */\n    tag_698:\n        /* \"#utility.yul\":20165:20167   */\n      0x20\n        /* \"#utility.yul\":20157:20163   */\n      dup3\n        /* \"#utility.yul\":20154:20168   */\n      lt\n        /* \"#utility.yul\":20134:20152   */\n      dup2\n        /* \"#utility.yul\":20131:20169   */\n      eq\n        /* \"#utility.yul\":20128:20212   */\n      iszero\n      tag_699\n      jumpi\n        /* \"#utility.yul\":20184:20202   */\n      tag_700\n      tag_701\n      jump\t// in\n    tag_700:\n        /* \"#utility.yul\":20128:20212   */\n    tag_699:\n        /* \"#utility.yul\":19949:20218   */\n      pop\n        /* \"#utility.yul\":19898:20218   */\n      swap2\n      swap1\n      pop\n      jump\t// out\n        /* \"#utility.yul\":20224:20505   */\n    tag_661:\n        /* \"#utility.yul\":20307:20334   */\n      tag_703\n        /* \"#utility.yul\":20329:20333   */\n      dup3\n        /* \"#utility.yul\":20307:20334   */\n      tag_565\n      jump\t// in\n    tag_703:\n        /* \"#utility.yul\":20299:20305   */\n      dup2\n        /* \"#utility.yul\":20295:20335   */\n      add\n        /* \"#utility.yul\":20437:20443   */\n      dup2\n        /* \"#utility.yul\":20425:20435   */\n      dup2\n        /* \"#utility.yul\":20422:20444   */\n      lt\n        /* \"#utility.yul\":20401:20419   */\n      0xffffffffffffffff\n        /* \"#utility.yul\":20389:20399   */\n      dup3\n        /* \"#utility.yul\":20386:20420   */\n      gt\n        /* \"#utility.yul\":20383:20445   */\n      or\n        /* \"#utility.yul\":20380:20468   */\n      iszero\n      tag_704\n      jumpi\n        /* \"#utility.yul\":20448:20466   */\n      tag_705\n      tag_666\n      jump\t// in\n    tag_705:\n        /* \"#utility.yul\":20380:20468   */\n    tag_704:\n        /* \"#utility.yul\":20488:20498   */\n      dup1\n        /* \"#utility.yul\":20484:20486   */\n      0x40\n        /* \"#utility.yul\":20477:20499   */\n      mstore\n        /* \"#utility.yul\":20267:20505   */\n      pop\n        /* \"#utility.yul\":20224:20505   */\n      pop\n      pop\n      jump\t// out\n        /* \"#utility.yul\":20511:20744   */\n    tag_240:\n        /* \"#utility.yul\":20550:20553   */\n      0x00\n        /* \"#utility.yul\":20573:20597   */\n      tag_707\n        /* \"#utility.yul\":20591:20596   */\n      dup3\n        /* \"#utility.yul\":20573:20597   */\n      tag_619\n      jump\t// in\n    tag_707:\n        /* \"#utility.yul\":20564:20597   */\n      swap2\n      pop\n        /* \"#utility.yul\":20619:20685   */\n      0xffffffffffffffffffffffffffffffffffffffffffffffffffffffffffffffff\n        /* \"#utility.yul\":20612:20617   */\n      dup3\n        /* \"#utility.yul\":20609:20686   */\n      eq\n        /* \"#utility.yul\":20606:20709   */\n      iszero\n      tag_708\n      jumpi\n        /* \"#utility.yul\":20689:20707   */\n      tag_709\n      tag_678\n      jump\t// in\n    tag_709:\n        /* \"#utility.yul\":20606:20709   */\n    tag_708:\n        /* \"#utility.yul\":20736:20737   */\n      0x01\n        /* \"#utility.yul\":20729:20734   */\n      dup3\n        /* \"#utility.yul\":20725:20738   */\n      add\n        /* \"#utility.yul\":20718:20738   */\n      swap1\n      pop\n        /* \"#utility.yul\":20511:20744   */\n      swap2\n      swap1\n      pop\n      jump\t// out\n        /* \"#utility.yul\":20750:20930   */\n    tag_678:\n        /* \"#utility.yul\":20798:20875   */\n      0x4e487b7100000000000000000000000000000000000000000000000000000000\n        /* \"#utility.yul\":20795:20796   */\n      0x00\n        /* \"#utility.yul\":20788:20876   */\n      mstore\n        /* \"#utility.yul\":20895:20899   */\n      0x11\n        /* \"#utility.yul\":20892:20893   */\n      0x04\n        /* \"#utility.yul\":20885:20900   */\n      mstore\n        /* \"#utility.yul\":20919:20923   */\n      0x24\n        /* \"#utility.yul\":20916:20917   */\n      0x00\n        /* \"#utility.yul\":20909:20924   */\n      revert\n        /* \"#utility.yul\":20936:21116   */\n    tag_701:\n        /* \"#utility.yul\":20984:21061   */\n      0x4e487b7100000000000000000000000000000000000000000000000000000000\n        /* \"#utility.yul\":20981:20982   */\n      0x00\n        /* \"#utility.yul\":20974:21062   */\n      mstore\n        /* \"#utility.yul\":21081:21085   */\n      0x22\n        /* \"#utility.yul\":21078:21079   */\n      0x04\n        /* \"#utility.yul\":21071:21086   */\n      mstore\n        /* \"#utility.yul\":21105:21109   */\n      0x24\n        /* \"#utility.yul\":21102:21103   */\n      0x00\n        /* \"#utility.yul\":21095:21110   */\n      revert\n        /* \"#utility.yul\":21122:21302   */\n    tag_237:\n        /* \"#utility.yul\":21170:21247   */\n      0x4e487b7100000000000000000000000000000000000000000000000000000000\n        /* \"#utility.yul\":21167:21168   */\n      0x00\n        /* \"#utility.yul\":21160:21248   */\n      mstore\n        /* \"#utility.yul\":21267:21271   */\n      0x32\n        /* \"#utility.yul\":21264:21265   */\n      0x04\n        /* \"#utility.yul\":21257:21272   */\n      mstore\n        /* \"#utility.yul\":21291:21295   */\n      0x24\n        /* \"#utility.yul\":21288:21289   */\n      0x00\n        /* \"#utility.yul\":21281:21296   */\n      revert\n        /* \"#utility.yul\":21308:21488   */\n    tag_666:\n        /* \"#utility.yul\":21356:21433   */\n      0x4e487b7100000000000000000000000000000000000000000000000000000000\n        /* \"#utility.yul\":21353:21354   */\n      0x00\n        /* \"#utility.yul\":21346:21434   */\n      mstore\n        /* \"#utility.yul\":21453:21457   */\n      0x41\n        /* \"#utility.yul\":21450:21451   */\n      0x04\n        /* \"#utility.yul\":21443:21458   */\n      mstore\n        /* \"#utility.yul\":21477:21481   */\n      0x24\n        /* \"#utility.yul\":21474:21475   */\n      0x00\n        /* \"#utility.yul\":21467:21482   */\n      revert\n        /* \"#utility.yul\":21494:21611   */\n    tag_483:\n        /* \"#utility.yul\":21603:21604   */\n      0x00\n        /* \"#utility.yul\":21600:21601   */\n      dup1\n        /* \"#utility.yul\":21593:21605   */\n      revert\n        /* \"#utility.yul\":21617:21734   */\n    tag_460:\n        /* \"#utility.yul\":21726:21727   */\n      0x00\n        /* \"#utility.yul\":21723:21724   */\n      dup1\n        /* \"#utility.yul\":21716:21728   */\n      revert\n        /* \"#utility.yul\":21740:21857   */\n    tag_473:\n        /* \"#utility.yul\":21849:21850   */\n      0x00\n        /* \"#utility.yul\":21846:21847   */\n      dup1\n        /* \"#utility.yul\":21839:21851   */\n      revert\n        /* \"#utility.yul\":21863:21980   */\n    tag_530:\n        /* \"#utility.yul\":21972:21973   */\n      0x00\n        /* \"#utility.yul\":21969:21970   */\n      dup1\n        /* \"#utility.yul\":21962:21974   */\n      revert\n        /* \"#utility.yul\":21986:22103   */\n    tag_501:\n        /* \"#utility.yul\":22095:22096   */\n      0x00\n        /* \"#utility.yul\":22092:22093   */\n      dup1\n        /* \"#utility.yul\":22085:22097   */\n      revert\n        /* \"#utility.yul\":22109:22211   */\n    tag_565:\n        /* \"#utility.yul\":22150:22156   */\n      0x00\n        /* \"#utility.yul\":22201:22203   */\n      0x1f\n        /* \"#utility.yul\":22197:22204   */\n      not\n        /* \"#utility.yul\":22192:22194   */\n      0x1f\n        /* \"#utility.yul\":22185:22190   */\n      dup4\n        /* \"#utility.yul\":22181:22195   */\n      add\n        /* \"#utility.yul\":22177:22205   */\n      and\n        /* \"#utility.yul\":22167:22205   */\n      swap1\n      pop\n        /* \"#utility.yul\":22109:22211   */\n      swap2\n      swap1\n      pop\n      jump\t// out\n        /* \"#utility.yul\":22217:22437   */\n    tag_570:\n        /* \"#utility.yul\":22357:22391   */\n      0x4f6e6c79206f776e6572206861732061636365737320746f2066756e6374696f\n        /* \"#utility.yul\":22353:22354   */\n      0x00\n        /* \"#utility.yul\":22345:22351   */\n      dup3\n        /* \"#utility.yul\":22341:22355   */\n      add\n        /* \"#utility.yul\":22334:22392   */\n      mstore\n        /* \"#utility.yul\":22426:22429   */\n      0x6e00000000000000000000000000000000000000000000000000000000000000\n        /* \"#utility.yul\":22421:22423   */\n      0x20\n        /* \"#utility.yul\":22413:22419   */\n      dup3\n        /* \"#utility.yul\":22409:22424   */\n      add\n        /* \"#utility.yul\":22402:22430   */\n      mstore\n        /* \"#utility.yul\":22217:22437   */\n      pop\n      jump\t// out\n        /* \"#utility.yul\":22443:22665   */\n    tag_575:\n        /* \"#utility.yul\":22583:22617   */\n      0x5a65726f2061646472657373206173207370656e646572206e6f7420616c6c6f\n        /* \"#utility.yul\":22579:22580   */\n      0x00\n        /* \"#utility.yul\":22571:22577   */\n      dup3\n        /* \"#utility.yul\":22567:22581   */\n      add\n        /* \"#utility.yul\":22560:22618   */\n      mstore\n        /* \"#utility.yul\":22652:22657   */\n      0x7765640000000000000000000000000000000000000000000000000000000000\n        /* \"#utility.yul\":22647:22649   */\n      0x20\n        /* \"#utility.yul\":22639:22645   */\n      dup3\n        /* \"#utility.yul\":22635:22650   */\n      add\n        /* \"#utility.yul\":22628:22658   */\n      mstore\n        /* \"#utility.yul\":22443:22665   */\n      pop\n      jump\t// out\n        /* \"#utility.yul\":22671:22844   */\n    tag_580:\n        /* \"#utility.yul\":22811:22836   */\n      0x5a65726f20416d6f756e74206e6f7420616c6c6f776564000000000000000000\n        /* \"#utility.yul\":22807:22808   */\n      0x00\n        /* \"#utility.yul\":22799:22805   */\n      dup3\n        /* \"#utility.yul\":22795:22809   */\n      add\n        /* \"#utility.yul\":22788:22837   */\n      mstore\n        /* \"#utility.yul\":22671:22844   */\n      pop\n      jump\t// out\n        /* \"#utility.yul\":22850:23096   */\n    tag_585:\n        /* \"#utility.yul\":22990:23024   */\n      0x416c6c6f77656420496e766573746f72732063616e6e6f74206265206c657373\n        /* \"#utility.yul\":22986:22987   */\n      0x00\n        /* \"#utility.yul\":22978:22984   */\n      dup3\n        /* \"#utility.yul\":22974:22988   */\n      add\n        /* \"#utility.yul\":22967:23025   */\n      mstore\n        /* \"#utility.yul\":23059:23088   */\n      0x207468616e2063757272656e7420746f6b656e20686f6c646572730000000000\n        /* \"#utility.yul\":23054:23056   */\n      0x20\n        /* \"#utility.yul\":23046:23052   */\n      dup3\n        /* \"#utility.yul\":23042:23057   */\n      add\n        /* \"#utility.yul\":23035:23089   */\n      mstore\n        /* \"#utility.yul\":22850:23096   */\n      pop\n      jump\t// out\n        /* \"#utility.yul\":23102:23332   */\n    tag_590:\n        /* \"#utility.yul\":23242:23276   */\n      0x4275726e20616d6f756e742069732067726561746572207468616e2061646472\n        /* \"#utility.yul\":23238:23239   */\n      0x00\n        /* \"#utility.yul\":23230:23236   */\n      dup3\n        /* \"#utility.yul\":23226:23240   */\n      add\n        /* \"#utility.yul\":23219:23277   */\n      mstore\n        /* \"#utility.yul\":23311:23324   */\n      0x6573732062616c616e6365000000000000000000000000000000000000000000\n        /* \"#utility.yul\":23306:23308   */\n      0x20\n        /* \"#utility.yul\":23298:23304   */\n      dup3\n        /* \"#utility.yul\":23294:23309   */\n      add\n        /* \"#utility.yul\":23287:23325   */\n      mstore\n        /* \"#utility.yul\":23102:23332   */\n      pop\n      jump\t// out\n        /* \"#utility.yul\":23338:23558   */\n    tag_595:\n        /* \"#utility.yul\":23478:23512   */\n      0x5a65726f2061646472657373206e6f7420616c6c6f776564206173206f776e65\n        /* \"#utility.yul\":23474:23475   */\n      0x00\n        /* \"#utility.yul\":23466:23472   */\n      dup3\n        /* \"#utility.yul\":23462:23476   */\n      add\n        /* \"#utility.yul\":23455:23513   */\n      mstore\n        /* \"#utility.yul\":23547:23550   */\n      0x7200000000000000000000000000000000000000000000000000000000000000\n        /* \"#utility.yul\":23542:23544   */\n      0x20\n        /* \"#utility.yul\":23534:23540   */\n      dup3\n        /* \"#utility.yul\":23530:23545   */\n      add\n        /* \"#utility.yul\":23523:23551   */\n      mstore\n        /* \"#utility.yul\":23338:23558   */\n      pop\n      jump\t// out\n        /* \"#utility.yul\":23564:23853   */\n    tag_600:\n        /* \"#utility.yul\":23704:23738   */\n      0x4f6e6c7920617574686f72697a6564206164647265737365732063616e206368\n        /* \"#utility.yul\":23700:23701   */\n      0x00\n        /* \"#utility.yul\":23692:23698   */\n      dup3\n        /* \"#utility.yul\":23688:23702   */\n      add\n        /* \"#utility.yul\":23681:23739   */\n      mstore\n        /* \"#utility.yul\":23773:23807   */\n      0x616e6765204b594320696e666f726d6174696f6e206f6620696e766573746f72\n        /* \"#utility.yul\":23768:23770   */\n      0x20\n        /* \"#utility.yul\":23760:23766   */\n      dup3\n        /* \"#utility.yul\":23756:23771   */\n      add\n        /* \"#utility.yul\":23749:23808   */\n      mstore\n        /* \"#utility.yul\":23842:23845   */\n      0x7300000000000000000000000000000000000000000000000000000000000000\n        /* \"#utility.yul\":23837:23839   */\n      0x40\n        /* \"#utility.yul\":23829:23835   */\n      dup3\n        /* \"#utility.yul\":23825:23840   */\n      add\n        /* \"#utility.yul\":23818:23846   */\n      mstore\n        /* \"#utility.yul\":23564:23853   */\n      pop\n      jump\t// out\n        /* \"#utility.yul\":23859:24106   */\n    tag_605:\n        /* \"#utility.yul\":23999:24033   */\n      0x53656e64657220697320747279696e6720746f207472616e7366657220616d6f\n        /* \"#utility.yul\":23995:23996   */\n      0x00\n        /* \"#utility.yul\":23987:23993   */\n      dup3\n        /* \"#utility.yul\":23983:23997   */\n      add\n        /* \"#utility.yul\":23976:24034   */\n      mstore\n        /* \"#utility.yul\":24068:24098   */\n      0x756e742067726561746572207468616e206869732062616c616e636500000000\n        /* \"#utility.yul\":24063:24065   */\n      0x20\n        /* \"#utility.yul\":24055:24061   */\n      dup3\n        /* \"#utility.yul\":24051:24066   */\n      add\n        /* \"#utility.yul\":24044:24099   */\n      mstore\n        /* \"#utility.yul\":23859:24106   */\n      pop\n      jump\t// out\n        /* \"#utility.yul\":24112:24355   */\n    tag_610:\n        /* \"#utility.yul\":24252:24286   */\n      0x53656e6465722063616e6e6f74207472616e7366657220616d6f756e74206772\n        /* \"#utility.yul\":24248:24249   */\n      0x00\n        /* \"#utility.yul\":24240:24246   */\n      dup3\n        /* \"#utility.yul\":24236:24250   */\n      add\n        /* \"#utility.yul\":24229:24287   */\n      mstore\n        /* \"#utility.yul\":24321:24347   */\n      0x6561746572207468616e2068697320416c6c6f77616e63650000000000000000\n        /* \"#utility.yul\":24316:24318   */\n      0x20\n        /* \"#utility.yul\":24308:24314   */\n      dup3\n        /* \"#utility.yul\":24304:24319   */\n      add\n        /* \"#utility.yul\":24297:24348   */\n      mstore\n        /* \"#utility.yul\":24112:24355   */\n      pop\n      jump\t// out\n        /* \"#utility.yul\":24361:24588   */\n    tag_615:\n        /* \"#utility.yul\":24501:24535   */\n      0x546f6b656e732063616e6e6f74206265206d696e74656420666f722061646472\n        /* \"#utility.yul\":24497:24498   */\n      0x00\n        /* \"#utility.yul\":24489:24495   */\n      dup3\n        /* \"#utility.yul\":24485:24499   */\n      add\n        /* \"#utility.yul\":24478:24536   */\n      mstore\n        /* \"#utility.yul\":24570:24580   */\n      0x657373207a65726f000000000000000000000000000000000000000000000000\n        /* \"#utility.yul\":24565:24567   */\n      0x20\n        /* \"#utility.yul\":24557:24563   */\n      dup3\n        /* \"#utility.yul\":24553:24568   */\n      add\n        /* \"#utility.yul\":24546:24581   */\n      mstore\n        /* \"#utility.yul\":24361:24588   */\n      pop\n      jump\t// out\n        /* \"#utility.yul\":24594:24716   */\n    tag_478:\n        /* \"#utility.yul\":24667:24691   */\n      tag_731\n        /* \"#utility.yul\":24685:24690   */\n      dup2\n        /* \"#utility.yul\":24667:24691   */\n      tag_551\n      jump\t// in\n    tag_731:\n        /* \"#utility.yul\":24660:24665   */\n      dup2\n        /* \"#utility.yul\":24657:24692   */\n      eq\n        /* \"#utility.yul\":24647:24710   */\n      tag_732\n      jumpi\n        /* \"#utility.yul\":24706:24707   */\n      0x00\n        /* \"#utility.yul\":24703:24704   */\n      dup1\n        /* \"#utility.yul\":24696:24708   */\n      revert\n        /* \"#utility.yul\":24647:24710   */\n    tag_732:\n        /* \"#utility.yul\":24594:24716   */\n      pop\n      jump\t// out\n        /* \"#utility.yul\":24722:24844   */\n    tag_493:\n        /* \"#utility.yul\":24795:24819   */\n      tag_734\n        /* \"#utility.yul\":24813:24818   */\n      dup2\n        /* \"#utility.yul\":24795:24819   */\n      tag_619\n      jump\t// in\n    tag_734:\n        /* \"#utility.yul\":24788:24793   */\n      dup2\n        /* \"#utility.yul\":24785:24820   */\n      eq\n        /* \"#utility.yul\":24775:24838   */\n      tag_735\n      jumpi\n        /* \"#utility.yul\":24834:24835   */\n      0x00\n        /* \"#utility.yul\":24831:24832   */\n      dup1\n        /* \"#utility.yul\":24824:24836   */\n      revert\n        /* \"#utility.yul\":24775:24838   */\n    tag_735:\n        /* \"#utility.yul\":24722:24844   */\n      pop\n      jump\t// out\n        /* \"#utility.yul\":24850:24968   */\n    tag_497:\n        /* \"#utility.yul\":24921:24943   */\n      tag_737\n        /* \"#utility.yul\":24937:24942   */\n      dup2\n        /* \"#utility.yul\":24921:24943   */\n      tag_623\n      jump\t// in\n    tag_737:\n        /* \"#utility.yul\":24914:24919   */\n      dup2\n        /* \"#utility.yul\":24911:24944   */\n      eq\n        /* \"#utility.yul\":24901:24962   */\n      tag_738\n      jumpi\n        /* \"#utility.yul\":24958:24959   */\n      0x00\n        /* \"#utility.yul\":24955:24956   */\n      dup1\n        /* \"#utility.yul\":24948:24960   */\n      revert\n        /* \"#utility.yul\":24901:24962   */\n    tag_738:\n        /* \"#utility.yul\":24850:24968   */\n      pop\n      jump\t// out\n    stop\n    data_0bf17d6579a15f80cddc5ddc4c7802721ab098d4db24a2c055da5f58a25e33a5 5265636569766572206973206e6f742077686974656c6973746564206f7220626c6f636b6564\n    data_4440c032e746f33200962f44b90c6baeb8a9490cc8cfdd8f15a36acf65844772 4d617820616c6c6f77656420696e766573746f72207265737472696374696f6e20697320696e20706c6163652c2074686973207472616e736665722077696c6c206578636565642074686973206c696d69746174696f6e\n    data_74c2d1263641840c4bf20a32b19f8ec2189d64e295faf5087433fd363b0d0b13 53656e6465722069732077686974656c697374656420627574206973206e6f7420656c696769626c6520746f2073656e6420746f6b656e7320616e6420756e64657220686f6c64696e6720706572696f6420284b59432074696d65207265737472696374696f6e29\n    data_c06fda3c41df076643499cebb61f71adfbc909dbd75501db341cc82d5933142b 416c6c207472616e7366657273206172652064697361626c6564206265636175736520486f6c64696e6720506572696f64206973206e6f74207965742065787069726564\n    data_c0b3b74fbdbabd67b27d0f337b8b420091e75c6e12a17cd864ffcacf5ec7db0f 52656365697665722069732077686974656c697374656420627574206973206e6f742079657420656c696769626c6520746f207265636569766520746f6b656e7320696e206869732077616c6c657420284b59432074696d65207265737472696374696f6e29\n    data_f32e889bc43e14f6f361a9fb16e2e4f7ae397532b0ea1cf85b8b8914d3f5dbc4 53656e646572206973206e6f742077686974656c6973746564206f7220626c6f636b6564\n\n    auxdata: 0xa2646970667358221220e137cd3968b7b967ba36f207ac2d4380f368b78710fde1b11e90c990712f013764736f6c63430008070033\n}\n",
				"bytecode": {
					"linkReferences": {},
					"object": "608060405260126006556040518060400160405280600381526020017f312e3200000000000000000000000000000000000000000000000000000000008152506007908051906020019062000056929190620004d9565b506040518060400160405280600a81526020017f446967695368617265730000000000000000000000000000000000000000000081525060089080519060200190620000a4929190620004d9565b506040518060400160405280600881526020017f4552432d3134303400000000000000000000000000000000000000000000000081525060099080519060200190620000f2929190620004d9565b506000601055600060115560016012553480156200010f57600080fd5b50604051620047c4380380620047c4833981810160405281019062000135919062000635565b87600b90805190602001906200014d929190620004d9565b5086600c908051906020019062000166929190620004d9565b508460068190555033600460006101000a81548173ffffffffffffffffffffffffffffffffffffffff021916908373ffffffffffffffffffffffffffffffffffffffff1602179055506001600080600460009054906101000a900473ffffffffffffffffffffffffffffffffffffffff1673ffffffffffffffffffffffffffffffffffffffff1673ffffffffffffffffffffffffffffffffffffffff168152602001908152602001600020819055506001806000600460009054906101000a900473ffffffffffffffffffffffffffffffffffffffff1673ffffffffffffffffffffffffffffffffffffffff1673ffffffffffffffffffffffffffffffffffffffff1681526020019081526020016000208190555060016000808373ffffffffffffffffffffffffffffffffffffffff1673ffffffffffffffffffffffffffffffffffffffff1681526020019081526020016000208190555060018060008373ffffffffffffffffffffffffffffffffffffffff1673ffffffffffffffffffffffffffffffffffffffff168152602001908152602001600020819055508560118190555088600a81905550600a5460026000600460009054906101000a900473ffffffffffffffffffffffffffffffffffffffff1673ffffffffffffffffffffffffffffffffffffffff1673ffffffffffffffffffffffffffffffffffffffff16815260200190815260200160002081905550600160056000600460009054906101000a900473ffffffffffffffffffffffffffffffffffffffff1673ffffffffffffffffffffffffffffffffffffffff1673ffffffffffffffffffffffffffffffffffffffff16815260200190815260200160002060006101000a81548160ff02191690831515021790555083600d90805190602001906200040b929190620004d9565b5082600e908051906020019062000424929190620004d9565b5081600f90805190602001906200043d929190620004d9565b50600460009054906101000a900473ffffffffffffffffffffffffffffffffffffffff1673ffffffffffffffffffffffffffffffffffffffff16600073ffffffffffffffffffffffffffffffffffffffff167fddf252ad1be2c89b69c2b068fc378daa952ba7f163c4a11628f55a4df523b3ef600a54604051620004c29190620007c0565b60405180910390a3505050505050505050620009d3565b828054620004e790620008b0565b90600052602060002090601f0160209004810192826200050b576000855562000557565b82601f106200052657805160ff191683800117855562000557565b8280016001018555821562000557579182015b828111156200055657825182559160200191906001019062000539565b5b5090506200056691906200056a565b5090565b5b80821115620005855760008160009055506001016200056b565b5090565b6000620005a06200059a8462000806565b620007dd565b905082815260208101848484011115620005bf57620005be6200097f565b5b620005cc8482856200087a565b509392505050565b600081519050620005e5816200099f565b92915050565b600082601f8301126200060357620006026200097a565b5b81516200061584826020860162000589565b91505092915050565b6000815190506200062f81620009b9565b92915050565b60008060008060008060008060006101208a8c0312156200065b576200065a62000989565b5b60006200066b8c828d016200061e565b99505060208a015167ffffffffffffffff8111156200068f576200068e62000984565b5b6200069d8c828d01620005eb565b98505060408a015167ffffffffffffffff811115620006c157620006c062000984565b5b620006cf8c828d01620005eb565b9750506060620006e28c828d016200061e565b9650506080620006f58c828d016200061e565b95505060a08a015167ffffffffffffffff81111562000719576200071862000984565b5b620007278c828d01620005eb565b94505060c08a015167ffffffffffffffff8111156200074b576200074a62000984565b5b620007598c828d01620005eb565b93505060e08a015167ffffffffffffffff8111156200077d576200077c62000984565b5b6200078b8c828d01620005eb565b9250506101006200079f8c828d01620005d4565b9150509295985092959850929598565b620007ba8162000870565b82525050565b6000602082019050620007d76000830184620007af565b92915050565b6000620007e9620007fc565b9050620007f78282620008e6565b919050565b6000604051905090565b600067ffffffffffffffff8211156200082457620008236200094b565b5b6200082f826200098e565b9050602081019050919050565b6000620008498262000850565b9050919050565b600073ffffffffffffffffffffffffffffffffffffffff82169050919050565b6000819050919050565b60005b838110156200089a5780820151818401526020810190506200087d565b83811115620008aa576000848401525b50505050565b60006002820490506001821680620008c957607f821691505b60208210811415620008e057620008df6200091c565b5b50919050565b620008f1826200098e565b810181811067ffffffffffffffff821117156200091357620009126200094b565b5b80604052505050565b7f4e487b7100000000000000000000000000000000000000000000000000000000600052602260045260246000fd5b7f4e487b7100000000000000000000000000000000000000000000000000000000600052604160045260246000fd5b600080fd5b600080fd5b600080fd5b600080fd5b6000601f19601f8301169050919050565b620009aa816200083c565b8114620009b657600080fd5b50565b620009c48162000870565b8114620009d057600080fd5b50565b613de180620009e36000396000f3fe608060405234801561001057600080fd5b50600436106102745760003560e01c806384f9007f11610151578063b1b5932a116100c3578063da76e2f311610087578063da76e2f314610792578063dd62ed3e146107ae578063e59e8013146107de578063e8379421146107fc578063f2fde38b1461082c578063fd80f5d61461084857610274565b8063b1b5932a146106ee578063b5b7e6ee1461070c578063b807157514610728578063c319e41c14610746578063d4ce14151461076257610274565b80639dc29fac116101155780639dc29fac14610607578063a9059cbb14610637578063ab47a2f914610667578063abc30a4b14610698578063ac893db1146106b4578063b091da94146106d057610274565b806384f9007f146105715780638d80e4a01461058f5780638da5cb5b146105ad5780638fe32e12146105cb57806395d89b41146105e957610274565b806351aebcd4116101ea5780636401ca76116101ae5780636401ca7614610499578063654b6f15146104b757806370a08231146104d55780637169698c146105055780637cae04f7146105235780637f4ab1dd1461054157610274565b806351aebcd41461040757806354fd4d501461042357806359a72ddc1461044157806362a3d4bd1461045f578063639c86ce1461047b57610274565b806323b872dd1161023c57806323b872dd1461031f5780632b8e797a1461034f578063313ce5671461036b5780633a24ddc51461038957806340c10f19146103b957806345968836146103e957610274565b806306fdde0314610279578063095ea7b31461029757806309fc3892146102c757806311d6f0aa146102e357806318160ddd14610301575b600080fd5b610281610866565b60405161028e919061338b565b60405180910390f35b6102b160048036038101906102ac9190612fdd565b6108f4565b6040516102be9190613370565b60405180910390f35b6102e160048036038101906102dc9190613070565b610a98565b005b6102eb610b75565b6040516102f89190613531565b60405180910390f35b610309610b7a565b60405161031691906134ed565b60405180910390f35b61033960048036038101906103349190612f8a565b610b84565b6040516103469190613370565b60405180910390f35b6103696004803603810190610364919061301d565b610e36565b005b610373610ed9565b60405161038091906134ed565b60405180910390f35b6103a3600480360381019061039e9190612fdd565b610edf565b6040516103b09190613370565b60405180910390f35b6103d360048036038101906103ce9190612fdd565b610fa8565b6040516103e09190613370565b60405180910390f35b6103f16111a4565b6040516103fe91906134ed565b60405180910390f35b610421600480360381019061041c91906130df565b6111aa565b005b61042b61128b565b604051610438919061338b565b60405180910390f35b610449611319565b604051610456919061338b565b60405180910390f35b61047960048036038101906104749190613128565b6113a7565b005b6104836114ca565b60405161049091906134ed565b60405180910390f35b6104a16114d0565b6040516104ae91906134ed565b60405180910390f35b6104bf6114d6565b6040516104cc919061338b565b60405180910390f35b6104ef60048036038101906104ea9190612f1d565b611564565b6040516104fc91906134ed565b60405180910390f35b61050d6115ad565b60405161051a9190613531565b60405180910390f35b61052b6115b2565b604051610538919061338b565b60405180910390f35b61055b60048036038101906105569190613155565b611640565b604051610568919061338b565b60405180910390f35b610579611839565b604051610586919061338b565b60405180910390f35b6105976118c7565b6040516105a49190613531565b60405180910390f35b6105b56118cc565b6040516105c29190613355565b60405180910390f35b6105d36118f6565b6040516105e09190613531565b60405180910390f35b6105f16118fb565b6040516105fe919061338b565b60405180910390f35b610621600480360381019061061c9190612fdd565b611989565b60405161062e9190613370565b60405180910390f35b610651600480360381019061064c9190612fdd565b611b97565b60405161065e9190613370565b60405180910390f35b610681600480360381019061067c9190612f1d565b611c81565b60405161068f929190613508565b60405180910390f35b6106b260048036038101906106ad91906130df565b611d0c565b005b6106ce60048036038101906106c991906130df565b611ded565b005b6106d8611ece565b6040516106e59190613531565b60405180910390f35b6106f6611ed3565b604051610703919061338b565b60405180910390f35b61072660048036038101906107219190613128565b611f61565b005b610730612032565b60405161073d9190613531565b60405180910390f35b610760600480360381019061075b9190612f1d565b612037565b005b61077c60048036038101906107779190612f8a565b612159565b6040516107899190613531565b60405180910390f35b6107ac60048036038101906107a79190612f1d565b6124a1565b005b6107c860048036038101906107c39190612f4a565b6125ba565b6040516107d591906134ed565b60405180910390f35b6107e6612641565b6040516107f39190613531565b60405180910390f35b61081660048036038101906108119190612f1d565b612646565b6040516108239190613370565b60405180910390f35b61084660048036038101906108419190612f1d565b61269c565b005b6108506127e0565b60405161085d9190613531565b60405180910390f35b600b80546108739061370b565b80601f016020809104026020016040519081016040528092919081815260200182805461089f9061370b565b80156108ec5780601f106108c1576101008083540402835291602001916108ec565b820191906000526020600020905b8154815290600101906020018083116108cf57829003601f168201915b505050505081565b60008073ffffffffffffffffffffffffffffffffffffffff168373ffffffffffffffffffffffffffffffffffffffff161415610965576040517f08c379a000000000000000000000000000000000000000000000000000000000815260040161095c906133cd565b60405180910390fd5b600082116109a8576040517f08c379a000000000000000000000000000000000000000000000000000000000815260040161099f906133ed565b60405180910390fd5b81600360003373ffffffffffffffffffffffffffffffffffffffff1673ffffffffffffffffffffffffffffffffffffffff16815260200190815260200160002060008573ffffffffffffffffffffffffffffffffffffffff1673ffffffffffffffffffffffffffffffffffffffff168152602001908152602001600020819055508273ffffffffffffffffffffffffffffffffffffffff163373ffffffffffffffffffffffffffffffffffffffff167f8c5be1e5ebec7d5bd14f71427d1e84f3dd0314c0f7b2291e5b200ac8c7c3b92584604051610a8691906134ed565b60405180910390a36001905092915050565b60011515600560003373ffffffffffffffffffffffffffffffffffffffff1673ffffffffffffffffffffffffffffffffffffffff16815260200190815260200160002060009054906101000a900460ff16151514610b2b576040517f08c379a0000000000000000000000000000000000000000000000000000000008152600401610b229061346d565b60405180910390fd5b60005b8351811015610b6f57610b5c848281518110610b4d57610b4c613815565b5b602002602001015184846127e5565b8080610b679061376e565b915050610b2e565b50505050565b600181565b6000600a54905090565b60008383836000610b96848484612159565b9050600060ff168160ff1614610c55576000610bb182611640565b90508373ffffffffffffffffffffffffffffffffffffffff168573ffffffffffffffffffffffffffffffffffffffff167f2fdd8c36dbe5614497208665e8d30c570421680d09984e3153829ddabd30c09483604051610c10919061338b565b60405180910390a3806040517f08c379a0000000000000000000000000000000000000000000000000000000008152600401610c4c919061338b565b60405180910390fd5b85600360008a73ffffffffffffffffffffffffffffffffffffffff1673ffffffffffffffffffffffffffffffffffffffff16815260200190815260200160002060003373ffffffffffffffffffffffffffffffffffffffff1673ffffffffffffffffffffffffffffffffffffffff168152602001908152602001600020541015610d14576040517f08c379a0000000000000000000000000000000000000000000000000000000008152600401610d0b906134ad565b60405180910390fd5b610d1f8888886129b5565b85600360008a73ffffffffffffffffffffffffffffffffffffffff1673ffffffffffffffffffffffffffffffffffffffff16815260200190815260200160002060003373ffffffffffffffffffffffffffffffffffffffff1673ffffffffffffffffffffffffffffffffffffffff16815260200190815260200160002054610da79190613640565b600360008a73ffffffffffffffffffffffffffffffffffffffff1673ffffffffffffffffffffffffffffffffffffffff16815260200190815260200160002060003373ffffffffffffffffffffffffffffffffffffffff1673ffffffffffffffffffffffffffffffffffffffff1681526020019081526020016000208190555060019450505050509392505050565b60011515600560003373ffffffffffffffffffffffffffffffffffffffff1673ffffffffffffffffffffffffffffffffffffffff16815260200190815260200160002060009054906101000a900460ff16151514610ec9576040517f08c379a0000000000000000000000000000000000000000000000000000000008152600401610ec09061346d565b60405180910390fd5b610ed48383836127e5565b505050565b60065481565b60003373ffffffffffffffffffffffffffffffffffffffff16600460009054906101000a900473ffffffffffffffffffffffffffffffffffffffff1673ffffffffffffffffffffffffffffffffffffffff1614610f71576040517f08c379a0000000000000000000000000000000000000000000000000000000008152600401610f68906133ad565b60405180910390fd5b610f9e83600460009054906101000a900473ffffffffffffffffffffffffffffffffffffffff16846129b5565b6001905092915050565b60003373ffffffffffffffffffffffffffffffffffffffff16600460009054906101000a900473ffffffffffffffffffffffffffffffffffffffff1673ffffffffffffffffffffffffffffffffffffffff161461103a576040517f08c379a0000000000000000000000000000000000000000000000000000000008152600401611031906133ad565b60405180910390fd5b600073ffffffffffffffffffffffffffffffffffffffff168373ffffffffffffffffffffffffffffffffffffffff1614156110aa576040517f08c379a00000000000000000000000000000000000000000000000000000000081526004016110a1906134cd565b60405180910390fd5b81600a546110b891906135ea565b600a8190555081600260008573ffffffffffffffffffffffffffffffffffffffff1673ffffffffffffffffffffffffffffffffffffffff1681526020019081526020016000205461110991906135ea565b600260008573ffffffffffffffffffffffffffffffffffffffff1673ffffffffffffffffffffffffffffffffffffffff168152602001908152602001600020819055508273ffffffffffffffffffffffffffffffffffffffff167f7b47457f3af09e5f794b020fd74160963a808f5985883496a096d403d380c3438360405161119291906134ed565b60405180910390a26001905092915050565b60105481565b3373ffffffffffffffffffffffffffffffffffffffff16600460009054906101000a900473ffffffffffffffffffffffffffffffffffffffff1673ffffffffffffffffffffffffffffffffffffffff161461123a576040517f08c379a0000000000000000000000000000000000000000000000000000000008152600401611231906133ad565b60405180910390fd5b80600f9080519060200190611250929190612d2d565b507fa555e96a9f6d83b18cbe170e5fd71ebb56fc55f86a115539e9f3038182075a5081604051611280919061338b565b60405180910390a150565b600780546112989061370b565b80601f01602080910402602001604051908101604052809291908181526020018280546112c49061370b565b80156113115780601f106112e657610100808354040283529160200191611311565b820191906000526020600020905b8154815290600101906020018083116112f457829003601f168201915b505050505081565b600d80546113269061370b565b80601f01602080910402602001604051908101604052809291908181526020018280546113529061370b565b801561139f5780601f106113745761010080835404028352916020019161139f565b820191906000526020600020905b81548152906001019060200180831161138257829003601f168201915b505050505081565b3373ffffffffffffffffffffffffffffffffffffffff16600460009054906101000a900473ffffffffffffffffffffffffffffffffffffffff1673ffffffffffffffffffffffffffffffffffffffff1614611437576040517f08c379a000000000000000000000000000000000000000000000000000000000815260040161142e906133ad565b60405180910390fd5b60008114158015611449575060105481105b15611489576040517f08c379a00000000000000000000000000000000000000000000000000000000081526004016114809061340d565b60405180910390fd5b806011819055507f87782743094654fc1484ef46e968abc30c6cd880e70ec8b310eb42641e35eb45816040516114bf91906134ed565b60405180910390a150565b60125481565b60115481565b600880546114e39061370b565b80601f016020809104026020016040519081016040528092919081815260200182805461150f9061370b565b801561155c5780601f106115315761010080835404028352916020019161155c565b820191906000526020600020905b81548152906001019060200180831161153f57829003601f168201915b505050505081565b6000600260008373ffffffffffffffffffffffffffffffffffffffff1673ffffffffffffffffffffffffffffffffffffffff168152602001908152602001600020549050919050565b600081565b600980546115bf9061370b565b80601f01602080910402602001604051908101604052809291908181526020018280546115eb9061370b565b80156116385780601f1061160d57610100808354040283529160200191611638565b820191906000526020600020905b81548152906001019060200180831161161b57829003601f168201915b505050505081565b6060600060ff168260ff16141561168e576040518060400160405280601e81526020017f4e6f207472616e73666572207265737472696374696f6e7320666f756e6400008152509050611834565b600160ff168260ff1614156116bd57604051806080016040528060578152602001613c1f605791399050611833565b600260ff168260ff1614156116ec57604051806080016040528060448152602001613cde604491399050611832565b600360ff168260ff161415611738576040518060400160405280602081526020017f5a65726f207472616e7366657220616d6f756e74206e6f7420616c6c6f7765648152509050611831565b600460ff168260ff16141561176757604051806060016040528060248152602001613d88602491399050611830565b600560ff168260ff16141561179657604051806060016040528060268152602001613bf960269139905061182f565b600660ff168260ff1614156117c5576040518060a0016040528060688152602001613c7660689139905061182e565b600760ff168260ff1614156117f4576040518060a0016040528060668152602001613d2260669139905061182d565b6040518060400160405280601981526020017f4572726f7220636f6465206973206e6f7420646566696e65640000000000000081525090505b5b5b5b5b5b5b5b919050565b600e80546118469061370b565b80601f01602080910402602001604051908101604052809291908181526020018280546118729061370b565b80156118bf5780601f10611894576101008083540402835291602001916118bf565b820191906000526020600020905b8154815290600101906020018083116118a257829003601f168201915b505050505081565b600481565b6000600460009054906101000a900473ffffffffffffffffffffffffffffffffffffffff16905090565b600281565b600c80546119089061370b565b80601f01602080910402602001604051908101604052809291908181526020018280546119349061370b565b80156119815780601f1061195657610100808354040283529160200191611981565b820191906000526020600020905b81548152906001019060200180831161196457829003601f168201915b505050505081565b60003373ffffffffffffffffffffffffffffffffffffffff16600460009054906101000a900473ffffffffffffffffffffffffffffffffffffffff1673ffffffffffffffffffffffffffffffffffffffff1614611a1b576040517f08c379a0000000000000000000000000000000000000000000000000000000008152600401611a12906133ad565b60405180910390fd5b81600260008573ffffffffffffffffffffffffffffffffffffffff1673ffffffffffffffffffffffffffffffffffffffff168152602001908152602001600020541015611a9d576040517f08c379a0000000000000000000000000000000000000000000000000000000008152600401611a949061342d565b60405180910390fd5b81600a54611aab9190613640565b600a8190555081600260008573ffffffffffffffffffffffffffffffffffffffff1673ffffffffffffffffffffffffffffffffffffffff16815260200190815260200160002054611afc9190613640565b600260008573ffffffffffffffffffffffffffffffffffffffff1673ffffffffffffffffffffffffffffffffffffffff168152602001908152602001600020819055508273ffffffffffffffffffffffffffffffffffffffff167f388d6102a0230861b4e9646fb5acda1c5ec15d39df2b619d39c25d16a126849083604051611b8591906134ed565b60405180910390a26001905092915050565b60003383836000611ba9848484612159565b9050600060ff168160ff1614611c68576000611bc482611640565b90508373ffffffffffffffffffffffffffffffffffffffff168573ffffffffffffffffffffffffffffffffffffffff167f2fdd8c36dbe5614497208665e8d30c570421680d09984e3153829ddabd30c09483604051611c23919061338b565b60405180910390a3806040517f08c379a0000000000000000000000000000000000000000000000000000000008152600401611c5f919061338b565b60405180910390fd5b611c733388886129b5565b600194505050505092915050565b6000806000808473ffffffffffffffffffffffffffffffffffffffff1673ffffffffffffffffffffffffffffffffffffffff16815260200190815260200160002054600160008573ffffffffffffffffffffffffffffffffffffffff1673ffffffffffffffffffffffffffffffffffffffff1681526020019081526020016000205491509150915091565b3373ffffffffffffffffffffffffffffffffffffffff16600460009054906101000a900473ffffffffffffffffffffffffffffffffffffffff1673ffffffffffffffffffffffffffffffffffffffff1614611d9c576040517f08c379a0000000000000000000000000000000000000000000000000000000008152600401611d93906133ad565b60405180910390fd5b80600e9080519060200190611db2929190612d2d565b507f824a3f3055c070014bc7157744915537c646ae1a287c988d79ec124d88938e9481604051611de2919061338b565b60405180910390a150565b3373ffffffffffffffffffffffffffffffffffffffff16600460009054906101000a900473ffffffffffffffffffffffffffffffffffffffff1673ffffffffffffffffffffffffffffffffffffffff1614611e7d576040517f08c379a0000000000000000000000000000000000000000000000000000000008152600401611e74906133ad565b60405180910390fd5b80600d9080519060200190611e93929190612d2d565b507f4295968313e92c7dd40aa9c85be9b7246ff59503751e11205c85795a2f74fdb381604051611ec3919061338b565b60405180910390a150565b600381565b600f8054611ee09061370b565b80601f0160208091040260200160405190810160405280929190818152602001828054611f0c9061370b565b8015611f595780601f10611f2e57610100808354040283529160200191611f59565b820191906000526020600020905b815481529060010190602001808311611f3c57829003601f168201915b505050505081565b3373ffffffffffffffffffffffffffffffffffffffff16600460009054906101000a900473ffffffffffffffffffffffffffffffffffffffff1673ffffffffffffffffffffffffffffffffffffffff1614611ff1576040517f08c379a0000000000000000000000000000000000000000000000000000000008152600401611fe8906133ad565b60405180910390fd5b806012819055507f050293e6952eab2f7cf401de4a51c1918da86a2bd5a7276a11ae3dd4a549cde98160405161202791906134ed565b60405180910390a150565b600681565b3373ffffffffffffffffffffffffffffffffffffffff16600460009054906101000a900473ffffffffffffffffffffffffffffffffffffffff1673ffffffffffffffffffffffffffffffffffffffff16146120c7576040517f08c379a00000000000000000000000000000000000000000000000000000000081526004016120be906133ad565b60405180910390fd5b6001600560008373ffffffffffffffffffffffffffffffffffffffff1673ffffffffffffffffffffffffffffffffffffffff16815260200190815260200160002060006101000a81548160ff0219169083151502179055507fea54bdb8a4594aaac063e3b01ab3e613bf4cb045d085502c81497c9696aca8b28160405161214e9190613355565b60405180910390a150565b6000601254421080156121ba5750600460009054906101000a900473ffffffffffffffffffffffffffffffffffffffff1673ffffffffffffffffffffffffffffffffffffffff168473ffffffffffffffffffffffffffffffffffffffff1614155b156121c8576002905061249a565b600082116121d9576003905061249a565b6000600160008673ffffffffffffffffffffffffffffffffffffffff1673ffffffffffffffffffffffffffffffffffffffff16815260200190815260200160002054141561222a576004905061249a565b60008060008573ffffffffffffffffffffffffffffffffffffffff1673ffffffffffffffffffffffffffffffffffffffff16815260200190815260200160002054141561227a576005905061249a565b42600160008673ffffffffffffffffffffffffffffffffffffffff1673ffffffffffffffffffffffffffffffffffffffff1681526020019081526020016000205411156122ca576006905061249a565b426000808573ffffffffffffffffffffffffffffffffffffffff1673ffffffffffffffffffffffffffffffffffffffff168152602001908152602001600020541115612319576007905061249a565b6000601154141561232d576000905061249a565b6000600260008573ffffffffffffffffffffffffffffffffffffffff1673ffffffffffffffffffffffffffffffffffffffff1681526020019081526020016000205411806123c85750600460009054906101000a900473ffffffffffffffffffffffffffffffffffffffff1673ffffffffffffffffffffffffffffffffffffffff168373ffffffffffffffffffffffffffffffffffffffff16145b156123d6576000905061249a565b60115460105410156123eb576000905061249a565b81600260008673ffffffffffffffffffffffffffffffffffffffff1673ffffffffffffffffffffffffffffffffffffffff168152602001908152602001600020541480156124875750600460009054906101000a900473ffffffffffffffffffffffffffffffffffffffff1673ffffffffffffffffffffffffffffffffffffffff168473ffffffffffffffffffffffffffffffffffffffff1614155b15612495576000905061249a565b600190505b9392505050565b3373ffffffffffffffffffffffffffffffffffffffff16600460009054906101000a900473ffffffffffffffffffffffffffffffffffffffff1673ffffffffffffffffffffffffffffffffffffffff1614612531576040517f08c379a0000000000000000000000000000000000000000000000000000000008152600401612528906133ad565b60405180910390fd5b600560008273ffffffffffffffffffffffffffffffffffffffff1673ffffffffffffffffffffffffffffffffffffffff16815260200190815260200160002060006101000a81549060ff02191690557f24546dc0f5df685d7c979edd1b0bcc4d85ac6a59974976d7217c9f0d930d3ff0816040516125af9190613355565b60405180910390a150565b6000600360008473ffffffffffffffffffffffffffffffffffffffff1673ffffffffffffffffffffffffffffffffffffffff16815260200190815260200160002060008373ffffffffffffffffffffffffffffffffffffffff1673ffffffffffffffffffffffffffffffffffffffff16815260200190815260200160002054905092915050565b600781565b6000600560008373ffffffffffffffffffffffffffffffffffffffff1673ffffffffffffffffffffffffffffffffffffffff16815260200190815260200160002060009054906101000a900460ff169050919050565b3373ffffffffffffffffffffffffffffffffffffffff16600460009054906101000a900473ffffffffffffffffffffffffffffffffffffffff1673ffffffffffffffffffffffffffffffffffffffff161461272c576040517f08c379a0000000000000000000000000000000000000000000000000000000008152600401612723906133ad565b60405180910390fd5b600073ffffffffffffffffffffffffffffffffffffffff168173ffffffffffffffffffffffffffffffffffffffff16141561279c576040517f08c379a00000000000000000000000000000000000000000000000000000000081526004016127939061344d565b60405180910390fd5b80600460006101000a81548173ffffffffffffffffffffffffffffffffffffffff021916908373ffffffffffffffffffffffffffffffffffffffff16021790555050565b600581565b60008060008573ffffffffffffffffffffffffffffffffffffffff1673ffffffffffffffffffffffffffffffffffffffff1681526020019081526020016000205490506000600160008673ffffffffffffffffffffffffffffffffffffffff1673ffffffffffffffffffffffffffffffffffffffff168152602001908152602001600020549050836000808773ffffffffffffffffffffffffffffffffffffffff1673ffffffffffffffffffffffffffffffffffffffff1681526020019081526020016000208190555082600160008773ffffffffffffffffffffffffffffffffffffffff1673ffffffffffffffffffffffffffffffffffffffff168152602001908152602001600020819055506000821480156129035750600081145b1561295d578473ffffffffffffffffffffffffffffffffffffffff167fc78ee1de8eb00c83baa5f9bf324f00dd286b754a3826292de51c92c3e7a0cab58585604051612950929190613508565b60405180910390a26129ae565b8473ffffffffffffffffffffffffffffffffffffffff167f50fc162609db30a736355688f8f60baab2991bebb40a6d50ed93371a9549361685856040516129a5929190613508565b60405180910390a25b5050505050565b80600260008573ffffffffffffffffffffffffffffffffffffffff1673ffffffffffffffffffffffffffffffffffffffff168152602001908152602001600020541015612a37576040517f08c379a0000000000000000000000000000000000000000000000000000000008152600401612a2e9061348d565b60405180910390fd5b80600260008573ffffffffffffffffffffffffffffffffffffffff1673ffffffffffffffffffffffffffffffffffffffff16815260200190815260200160002054612a829190613640565b600260008573ffffffffffffffffffffffffffffffffffffffff1673ffffffffffffffffffffffffffffffffffffffff168152602001908152602001600020819055506000600260008573ffffffffffffffffffffffffffffffffffffffff1673ffffffffffffffffffffffffffffffffffffffff16815260200190815260200160002054148015612b625750600460009054906101000a900473ffffffffffffffffffffffffffffffffffffffff1673ffffffffffffffffffffffffffffffffffffffff168373ffffffffffffffffffffffffffffffffffffffff1614155b15612b7d576001601054612b769190613640565b6010819055505b6000600260008473ffffffffffffffffffffffffffffffffffffffff1673ffffffffffffffffffffffffffffffffffffffff16815260200190815260200160002054148015612c1a5750600460009054906101000a900473ffffffffffffffffffffffffffffffffffffffff1673ffffffffffffffffffffffffffffffffffffffff168273ffffffffffffffffffffffffffffffffffffffff1614155b15612c35576001601054612c2e91906135ea565b6010819055505b80600260008473ffffffffffffffffffffffffffffffffffffffff1673ffffffffffffffffffffffffffffffffffffffff16815260200190815260200160002054612c8091906135ea565b600260008473ffffffffffffffffffffffffffffffffffffffff1673ffffffffffffffffffffffffffffffffffffffff168152602001908152602001600020819055508173ffffffffffffffffffffffffffffffffffffffff168373ffffffffffffffffffffffffffffffffffffffff167fddf252ad1be2c89b69c2b068fc378daa952ba7f163c4a11628f55a4df523b3ef83604051612d2091906134ed565b60405180910390a3505050565b828054612d399061370b565b90600052602060002090601f016020900481019282612d5b5760008555612da2565b82601f10612d7457805160ff1916838001178555612da2565b82800160010185558215612da2579182015b82811115612da1578251825591602001919060010190612d86565b5b509050612daf9190612db3565b5090565b5b80821115612dcc576000816000905550600101612db4565b5090565b6000612de3612dde84613571565b61354c565b90508083825260208201905082856020860282011115612e0657612e05613878565b5b60005b85811015612e365781612e1c8882612e82565b845260208401935060208301925050600181019050612e09565b5050509392505050565b6000612e53612e4e8461359d565b61354c565b905082815260208101848484011115612e6f57612e6e61387d565b5b612e7a8482856136c9565b509392505050565b600081359050612e9181613bb3565b92915050565b600082601f830112612eac57612eab613873565b5b8135612ebc848260208601612dd0565b91505092915050565b600082601f830112612eda57612ed9613873565b5b8135612eea848260208601612e40565b91505092915050565b600081359050612f0281613bca565b92915050565b600081359050612f1781613be1565b92915050565b600060208284031215612f3357612f32613887565b5b6000612f4184828501612e82565b91505092915050565b60008060408385031215612f6157612f60613887565b5b6000612f6f85828601612e82565b9250506020612f8085828601612e82565b9150509250929050565b600080600060608486031215612fa357612fa2613887565b5b6000612fb186828701612e82565b9350506020612fc286828701612e82565b9250506040612fd386828701612ef3565b9150509250925092565b60008060408385031215612ff457612ff3613887565b5b600061300285828601612e82565b925050602061301385828601612ef3565b9150509250929050565b60008060006060848603121561303657613035613887565b5b600061304486828701612e82565b935050602061305586828701612ef3565b925050604061306686828701612ef3565b9150509250925092565b60008060006060848603121561308957613088613887565b5b600084013567ffffffffffffffff8111156130a7576130a6613882565b5b6130b386828701612e97565b93505060206130c486828701612ef3565b92505060406130d586828701612ef3565b9150509250925092565b6000602082840312156130f5576130f4613887565b5b600082013567ffffffffffffffff81111561311357613112613882565b5b61311f84828501612ec5565b91505092915050565b60006020828403121561313e5761313d613887565b5b600061314c84828501612ef3565b91505092915050565b60006020828403121561316b5761316a613887565b5b600061317984828501612f08565b91505092915050565b61318b81613674565b82525050565b61319a81613686565b82525050565b60006131ab826135ce565b6131b581856135d9565b93506131c58185602086016136d8565b6131ce8161388c565b840191505092915050565b60006131e66021836135d9565b91506131f18261389d565b604082019050919050565b60006132096023836135d9565b9150613214826138ec565b604082019050919050565b600061322c6017836135d9565b91506132378261393b565b602082019050919050565b600061324f603b836135d9565b915061325a82613964565b604082019050919050565b6000613272602b836135d9565b915061327d826139b3565b604082019050919050565b60006132956021836135d9565b91506132a082613a02565b604082019050919050565b60006132b86041836135d9565b91506132c382613a51565b606082019050919050565b60006132db603c836135d9565b91506132e682613ac6565b604082019050919050565b60006132fe6038836135d9565b915061330982613b15565b604082019050919050565b60006133216028836135d9565b915061332c82613b64565b604082019050919050565b613340816136b2565b82525050565b61334f816136bc565b82525050565b600060208201905061336a6000830184613182565b92915050565b60006020820190506133856000830184613191565b92915050565b600060208201905081810360008301526133a581846131a0565b905092915050565b600060208201905081810360008301526133c6816131d9565b9050919050565b600060208201905081810360008301526133e6816131fc565b9050919050565b600060208201905081810360008301526134068161321f565b9050919050565b6000602082019050818103600083015261342681613242565b9050919050565b6000602082019050818103600083015261344681613265565b9050919050565b6000602082019050818103600083015261346681613288565b9050919050565b60006020820190508181036000830152613486816132ab565b9050919050565b600060208201905081810360008301526134a6816132ce565b9050919050565b600060208201905081810360008301526134c6816132f1565b9050919050565b600060208201905081810360008301526134e681613314565b9050919050565b60006020820190506135026000830184613337565b92915050565b600060408201905061351d6000830185613337565b61352a6020830184613337565b9392505050565b60006020820190506135466000830184613346565b92915050565b6000613556613567565b9050613562828261373d565b919050565b6000604051905090565b600067ffffffffffffffff82111561358c5761358b613844565b5b602082029050602081019050919050565b600067ffffffffffffffff8211156135b8576135b7613844565b5b6135c18261388c565b9050602081019050919050565b600081519050919050565b600082825260208201905092915050565b60006135f5826136b2565b9150613600836136b2565b9250827fffffffffffffffffffffffffffffffffffffffffffffffffffffffffffffffff03821115613635576136346137b7565b5b828201905092915050565b600061364b826136b2565b9150613656836136b2565b925082821015613669576136686137b7565b5b828203905092915050565b600061367f82613692565b9050919050565b60008115159050919050565b600073ffffffffffffffffffffffffffffffffffffffff82169050919050565b6000819050919050565b600060ff82169050919050565b82818337600083830152505050565b60005b838110156136f65780820151818401526020810190506136db565b83811115613705576000848401525b50505050565b6000600282049050600182168061372357607f821691505b60208210811415613737576137366137e6565b5b50919050565b6137468261388c565b810181811067ffffffffffffffff8211171561376557613764613844565b5b80604052505050565b6000613779826136b2565b91507fffffffffffffffffffffffffffffffffffffffffffffffffffffffffffffffff8214156137ac576137ab6137b7565b5b600182019050919050565b7f4e487b7100000000000000000000000000000000000000000000000000000000600052601160045260246000fd5b7f4e487b7100000000000000000000000000000000000000000000000000000000600052602260045260246000fd5b7f4e487b7100000000000000000000000000000000000000000000000000000000600052603260045260246000fd5b7f4e487b7100000000000000000000000000000000000000000000000000000000600052604160045260246000fd5b600080fd5b600080fd5b600080fd5b600080fd5b600080fd5b6000601f19601f8301169050919050565b7f4f6e6c79206f776e6572206861732061636365737320746f2066756e6374696f60008201527f6e00000000000000000000000000000000000000000000000000000000000000602082015250565b7f5a65726f2061646472657373206173207370656e646572206e6f7420616c6c6f60008201527f7765640000000000000000000000000000000000000000000000000000000000602082015250565b7f5a65726f20416d6f756e74206e6f7420616c6c6f776564000000000000000000600082015250565b7f416c6c6f77656420496e766573746f72732063616e6e6f74206265206c65737360008201527f207468616e2063757272656e7420746f6b656e20686f6c646572730000000000602082015250565b7f4275726e20616d6f756e742069732067726561746572207468616e206164647260008201527f6573732062616c616e6365000000000000000000000000000000000000000000602082015250565b7f5a65726f2061646472657373206e6f7420616c6c6f776564206173206f776e6560008201527f7200000000000000000000000000000000000000000000000000000000000000602082015250565b7f4f6e6c7920617574686f72697a6564206164647265737365732063616e20636860008201527f616e6765204b594320696e666f726d6174696f6e206f6620696e766573746f7260208201527f7300000000000000000000000000000000000000000000000000000000000000604082015250565b7f53656e64657220697320747279696e6720746f207472616e7366657220616d6f60008201527f756e742067726561746572207468616e206869732062616c616e636500000000602082015250565b7f53656e6465722063616e6e6f74207472616e7366657220616d6f756e7420677260008201527f6561746572207468616e2068697320416c6c6f77616e63650000000000000000602082015250565b7f546f6b656e732063616e6e6f74206265206d696e74656420666f72206164647260008201527f657373207a65726f000000000000000000000000000000000000000000000000602082015250565b613bbc81613674565b8114613bc757600080fd5b50565b613bd3816136b2565b8114613bde57600080fd5b50565b613bea816136bc565b8114613bf557600080fd5b5056fe5265636569766572206973206e6f742077686974656c6973746564206f7220626c6f636b65644d617820616c6c6f77656420696e766573746f72207265737472696374696f6e20697320696e20706c6163652c2074686973207472616e736665722077696c6c206578636565642074686973206c696d69746174696f6e53656e6465722069732077686974656c697374656420627574206973206e6f7420656c696769626c6520746f2073656e6420746f6b656e7320616e6420756e64657220686f6c64696e6720706572696f6420284b59432074696d65207265737472696374696f6e29416c6c207472616e7366657273206172652064697361626c6564206265636175736520486f6c64696e6720506572696f64206973206e6f7420796574206578706972656452656365697665722069732077686974656c697374656420627574206973206e6f742079657420656c696769626c6520746f207265636569766520746f6b656e7320696e206869732077616c6c657420284b59432074696d65207265737472696374696f6e2953656e646572206973206e6f742077686974656c6973746564206f7220626c6f636b6564a2646970667358221220e137cd3968b7b967ba36f207ac2d4380f368b78710fde1b11e90c990712f013764736f6c63430008070033",
					"opcodes": "PUSH1 0x80 PUSH1 0x40 MSTORE PUSH1 0x12 PUSH1 0x6 SSTORE PUSH1 0x40 MLOAD DUP1 PUSH1 0x40 ADD PUSH1 0x40 MSTORE DUP1 PUSH1 0x3 DUP2 MSTORE PUSH1 0x20 ADD PUSH32 0x312E320000000000000000000000000000000000000000000000000000000000 DUP2 MSTORE POP PUSH1 0x7 SWAP1 DUP1 MLOAD SWAP1 PUSH1 0x20 ADD SWAP1 PUSH3 0x56 SWAP3 SWAP2 SWAP1 PUSH3 0x4D9 JUMP JUMPDEST POP PUSH1 0x40 MLOAD DUP1 PUSH1 0x40 ADD PUSH1 0x40 MSTORE DUP1 PUSH1 0xA DUP2 MSTORE PUSH1 0x20 ADD PUSH32 0x4469676953686172657300000000000000000000000000000000000000000000 DUP2 MSTORE POP PUSH1 0x8 SWAP1 DUP1 MLOAD SWAP1 PUSH1 0x20 ADD SWAP1 PUSH3 0xA4 SWAP3 SWAP2 SWAP1 PUSH3 0x4D9 JUMP JUMPDEST POP PUSH1 0x40 MLOAD DUP1 PUSH1 0x40 ADD PUSH1 0x40 MSTORE DUP1 PUSH1 0x8 DUP2 MSTORE PUSH1 0x20 ADD PUSH32 0x4552432D31343034000000000000000000000000000000000000000000000000 DUP2 MSTORE POP PUSH1 0x9 SWAP1 DUP1 MLOAD SWAP1 PUSH1 0x20 ADD SWAP1 PUSH3 0xF2 SWAP3 SWAP2 SWAP1 PUSH3 0x4D9 JUMP JUMPDEST POP PUSH1 0x0 PUSH1 0x10 SSTORE PUSH1 0x0 PUSH1 0x11 SSTORE PUSH1 0x1 PUSH1 0x12 SSTORE CALLVALUE DUP1 ISZERO PUSH3 0x10F JUMPI PUSH1 0x0 DUP1 REVERT JUMPDEST POP PUSH1 0x40 MLOAD PUSH3 0x47C4 CODESIZE SUB DUP1 PUSH3 0x47C4 DUP4 CODECOPY DUP2 DUP2 ADD PUSH1 0x40 MSTORE DUP2 ADD SWAP1 PUSH3 0x135 SWAP2 SWAP1 PUSH3 0x635 JUMP JUMPDEST DUP8 PUSH1 0xB SWAP1 DUP1 MLOAD SWAP1 PUSH1 0x20 ADD SWAP1 PUSH3 0x14D SWAP3 SWAP2 SWAP1 PUSH3 0x4D9 JUMP JUMPDEST POP DUP7 PUSH1 0xC SWAP1 DUP1 MLOAD SWAP1 PUSH1 0x20 ADD SWAP1 PUSH3 0x166 SWAP3 SWAP2 SWAP1 PUSH3 0x4D9 JUMP JUMPDEST POP DUP5 PUSH1 0x6 DUP2 SWAP1 SSTORE POP CALLER PUSH1 0x4 PUSH1 0x0 PUSH2 0x100 EXP DUP2 SLOAD DUP2 PUSH20 0xFFFFFFFFFFFFFFFFFFFFFFFFFFFFFFFFFFFFFFFF MUL NOT AND SWAP1 DUP4 PUSH20 0xFFFFFFFFFFFFFFFFFFFFFFFFFFFFFFFFFFFFFFFF AND MUL OR SWAP1 SSTORE POP PUSH1 0x1 PUSH1 0x0 DUP1 PUSH1 0x4 PUSH1 0x0 SWAP1 SLOAD SWAP1 PUSH2 0x100 EXP SWAP1 DIV PUSH20 0xFFFFFFFFFFFFFFFFFFFFFFFFFFFFFFFFFFFFFFFF AND PUSH20 0xFFFFFFFFFFFFFFFFFFFFFFFFFFFFFFFFFFFFFFFF AND PUSH20 0xFFFFFFFFFFFFFFFFFFFFFFFFFFFFFFFFFFFFFFFF AND DUP2 MSTORE PUSH1 0x20 ADD SWAP1 DUP2 MSTORE PUSH1 0x20 ADD PUSH1 0x0 KECCAK256 DUP2 SWAP1 SSTORE POP PUSH1 0x1 DUP1 PUSH1 0x0 PUSH1 0x4 PUSH1 0x0 SWAP1 SLOAD SWAP1 PUSH2 0x100 EXP SWAP1 DIV PUSH20 0xFFFFFFFFFFFFFFFFFFFFFFFFFFFFFFFFFFFFFFFF AND PUSH20 0xFFFFFFFFFFFFFFFFFFFFFFFFFFFFFFFFFFFFFFFF AND PUSH20 0xFFFFFFFFFFFFFFFFFFFFFFFFFFFFFFFFFFFFFFFF AND DUP2 MSTORE PUSH1 0x20 ADD SWAP1 DUP2 MSTORE PUSH1 0x20 ADD PUSH1 0x0 KECCAK256 DUP2 SWAP1 SSTORE POP PUSH1 0x1 PUSH1 0x0 DUP1 DUP4 PUSH20 0xFFFFFFFFFFFFFFFFFFFFFFFFFFFFFFFFFFFFFFFF AND PUSH20 0xFFFFFFFFFFFFFFFFFFFFFFFFFFFFFFFFFFFFFFFF AND DUP2 MSTORE PUSH1 0x20 ADD SWAP1 DUP2 MSTORE PUSH1 0x20 ADD PUSH1 0x0 KECCAK256 DUP2 SWAP1 SSTORE POP PUSH1 0x1 DUP1 PUSH1 0x0 DUP4 PUSH20 0xFFFFFFFFFFFFFFFFFFFFFFFFFFFFFFFFFFFFFFFF AND PUSH20 0xFFFFFFFFFFFFFFFFFFFFFFFFFFFFFFFFFFFFFFFF AND DUP2 MSTORE PUSH1 0x20 ADD SWAP1 DUP2 MSTORE PUSH1 0x20 ADD PUSH1 0x0 KECCAK256 DUP2 SWAP1 SSTORE POP DUP6 PUSH1 0x11 DUP2 SWAP1 SSTORE POP DUP9 PUSH1 0xA DUP2 SWAP1 SSTORE POP PUSH1 0xA SLOAD PUSH1 0x2 PUSH1 0x0 PUSH1 0x4 PUSH1 0x0 SWAP1 SLOAD SWAP1 PUSH2 0x100 EXP SWAP1 DIV PUSH20 0xFFFFFFFFFFFFFFFFFFFFFFFFFFFFFFFFFFFFFFFF AND PUSH20 0xFFFFFFFFFFFFFFFFFFFFFFFFFFFFFFFFFFFFFFFF AND PUSH20 0xFFFFFFFFFFFFFFFFFFFFFFFFFFFFFFFFFFFFFFFF AND DUP2 MSTORE PUSH1 0x20 ADD SWAP1 DUP2 MSTORE PUSH1 0x20 ADD PUSH1 0x0 KECCAK256 DUP2 SWAP1 SSTORE POP PUSH1 0x1 PUSH1 0x5 PUSH1 0x0 PUSH1 0x4 PUSH1 0x0 SWAP1 SLOAD SWAP1 PUSH2 0x100 EXP SWAP1 DIV PUSH20 0xFFFFFFFFFFFFFFFFFFFFFFFFFFFFFFFFFFFFFFFF AND PUSH20 0xFFFFFFFFFFFFFFFFFFFFFFFFFFFFFFFFFFFFFFFF AND PUSH20 0xFFFFFFFFFFFFFFFFFFFFFFFFFFFFFFFFFFFFFFFF AND DUP2 MSTORE PUSH1 0x20 ADD SWAP1 DUP2 MSTORE PUSH1 0x20 ADD PUSH1 0x0 KECCAK256 PUSH1 0x0 PUSH2 0x100 EXP DUP2 SLOAD DUP2 PUSH1 0xFF MUL NOT AND SWAP1 DUP4 ISZERO ISZERO MUL OR SWAP1 SSTORE POP DUP4 PUSH1 0xD SWAP1 DUP1 MLOAD SWAP1 PUSH1 0x20 ADD SWAP1 PUSH3 0x40B SWAP3 SWAP2 SWAP1 PUSH3 0x4D9 JUMP JUMPDEST POP DUP3 PUSH1 0xE SWAP1 DUP1 MLOAD SWAP1 PUSH1 0x20 ADD SWAP1 PUSH3 0x424 SWAP3 SWAP2 SWAP1 PUSH3 0x4D9 JUMP JUMPDEST POP DUP2 PUSH1 0xF SWAP1 DUP1 MLOAD SWAP1 PUSH1 0x20 ADD SWAP1 PUSH3 0x43D SWAP3 SWAP2 SWAP1 PUSH3 0x4D9 JUMP JUMPDEST POP PUSH1 0x4 PUSH1 0x0 SWAP1 SLOAD SWAP1 PUSH2 0x100 EXP SWAP1 DIV PUSH20 0xFFFFFFFFFFFFFFFFFFFFFFFFFFFFFFFFFFFFFFFF AND PUSH20 0xFFFFFFFFFFFFFFFFFFFFFFFFFFFFFFFFFFFFFFFF AND PUSH1 0x0 PUSH20 0xFFFFFFFFFFFFFFFFFFFFFFFFFFFFFFFFFFFFFFFF AND PUSH32 0xDDF252AD1BE2C89B69C2B068FC378DAA952BA7F163C4A11628F55A4DF523B3EF PUSH1 0xA SLOAD PUSH1 0x40 MLOAD PUSH3 0x4C2 SWAP2 SWAP1 PUSH3 0x7C0 JUMP JUMPDEST PUSH1 0x40 MLOAD DUP1 SWAP2 SUB SWAP1 LOG3 POP POP POP POP POP POP POP POP POP PUSH3 0x9D3 JUMP JUMPDEST DUP3 DUP1 SLOAD PUSH3 0x4E7 SWAP1 PUSH3 0x8B0 JUMP JUMPDEST SWAP1 PUSH1 0x0 MSTORE PUSH1 0x20 PUSH1 0x0 KECCAK256 SWAP1 PUSH1 0x1F ADD PUSH1 0x20 SWAP1 DIV DUP2 ADD SWAP3 DUP3 PUSH3 0x50B JUMPI PUSH1 0x0 DUP6 SSTORE PUSH3 0x557 JUMP JUMPDEST DUP3 PUSH1 0x1F LT PUSH3 0x526 JUMPI DUP1 MLOAD PUSH1 0xFF NOT AND DUP4 DUP1 ADD OR DUP6 SSTORE PUSH3 0x557 JUMP JUMPDEST DUP3 DUP1 ADD PUSH1 0x1 ADD DUP6 SSTORE DUP3 ISZERO PUSH3 0x557 JUMPI SWAP2 DUP3 ADD JUMPDEST DUP3 DUP2 GT ISZERO PUSH3 0x556 JUMPI DUP3 MLOAD DUP3 SSTORE SWAP2 PUSH1 0x20 ADD SWAP2 SWAP1 PUSH1 0x1 ADD SWAP1 PUSH3 0x539 JUMP JUMPDEST JUMPDEST POP SWAP1 POP PUSH3 0x566 SWAP2 SWAP1 PUSH3 0x56A JUMP JUMPDEST POP SWAP1 JUMP JUMPDEST JUMPDEST DUP1 DUP3 GT ISZERO PUSH3 0x585 JUMPI PUSH1 0x0 DUP2 PUSH1 0x0 SWAP1 SSTORE POP PUSH1 0x1 ADD PUSH3 0x56B JUMP JUMPDEST POP SWAP1 JUMP JUMPDEST PUSH1 0x0 PUSH3 0x5A0 PUSH3 0x59A DUP5 PUSH3 0x806 JUMP JUMPDEST PUSH3 0x7DD JUMP JUMPDEST SWAP1 POP DUP3 DUP2 MSTORE PUSH1 0x20 DUP2 ADD DUP5 DUP5 DUP5 ADD GT ISZERO PUSH3 0x5BF JUMPI PUSH3 0x5BE PUSH3 0x97F JUMP JUMPDEST JUMPDEST PUSH3 0x5CC DUP5 DUP3 DUP6 PUSH3 0x87A JUMP JUMPDEST POP SWAP4 SWAP3 POP POP POP JUMP JUMPDEST PUSH1 0x0 DUP2 MLOAD SWAP1 POP PUSH3 0x5E5 DUP2 PUSH3 0x99F JUMP JUMPDEST SWAP3 SWAP2 POP POP JUMP JUMPDEST PUSH1 0x0 DUP3 PUSH1 0x1F DUP4 ADD SLT PUSH3 0x603 JUMPI PUSH3 0x602 PUSH3 0x97A JUMP JUMPDEST JUMPDEST DUP2 MLOAD PUSH3 0x615 DUP5 DUP3 PUSH1 0x20 DUP7 ADD PUSH3 0x589 JUMP JUMPDEST SWAP2 POP POP SWAP3 SWAP2 POP POP JUMP JUMPDEST PUSH1 0x0 DUP2 MLOAD SWAP1 POP PUSH3 0x62F DUP2 PUSH3 0x9B9 JUMP JUMPDEST SWAP3 SWAP2 POP POP JUMP JUMPDEST PUSH1 0x0 DUP1 PUSH1 0x0 DUP1 PUSH1 0x0 DUP1 PUSH1 0x0 DUP1 PUSH1 0x0 PUSH2 0x120 DUP11 DUP13 SUB SLT ISZERO PUSH3 0x65B JUMPI PUSH3 0x65A PUSH3 0x989 JUMP JUMPDEST JUMPDEST PUSH1 0x0 PUSH3 0x66B DUP13 DUP3 DUP14 ADD PUSH3 0x61E JUMP JUMPDEST SWAP10 POP POP PUSH1 0x20 DUP11 ADD MLOAD PUSH8 0xFFFFFFFFFFFFFFFF DUP2 GT ISZERO PUSH3 0x68F JUMPI PUSH3 0x68E PUSH3 0x984 JUMP JUMPDEST JUMPDEST PUSH3 0x69D DUP13 DUP3 DUP14 ADD PUSH3 0x5EB JUMP JUMPDEST SWAP9 POP POP PUSH1 0x40 DUP11 ADD MLOAD PUSH8 0xFFFFFFFFFFFFFFFF DUP2 GT ISZERO PUSH3 0x6C1 JUMPI PUSH3 0x6C0 PUSH3 0x984 JUMP JUMPDEST JUMPDEST PUSH3 0x6CF DUP13 DUP3 DUP14 ADD PUSH3 0x5EB JUMP JUMPDEST SWAP8 POP POP PUSH1 0x60 PUSH3 0x6E2 DUP13 DUP3 DUP14 ADD PUSH3 0x61E JUMP JUMPDEST SWAP7 POP POP PUSH1 0x80 PUSH3 0x6F5 DUP13 DUP3 DUP14 ADD PUSH3 0x61E JUMP JUMPDEST SWAP6 POP POP PUSH1 0xA0 DUP11 ADD MLOAD PUSH8 0xFFFFFFFFFFFFFFFF DUP2 GT ISZERO PUSH3 0x719 JUMPI PUSH3 0x718 PUSH3 0x984 JUMP JUMPDEST JUMPDEST PUSH3 0x727 DUP13 DUP3 DUP14 ADD PUSH3 0x5EB JUMP JUMPDEST SWAP5 POP POP PUSH1 0xC0 DUP11 ADD MLOAD PUSH8 0xFFFFFFFFFFFFFFFF DUP2 GT ISZERO PUSH3 0x74B JUMPI PUSH3 0x74A PUSH3 0x984 JUMP JUMPDEST JUMPDEST PUSH3 0x759 DUP13 DUP3 DUP14 ADD PUSH3 0x5EB JUMP JUMPDEST SWAP4 POP POP PUSH1 0xE0 DUP11 ADD MLOAD PUSH8 0xFFFFFFFFFFFFFFFF DUP2 GT ISZERO PUSH3 0x77D JUMPI PUSH3 0x77C PUSH3 0x984 JUMP JUMPDEST JUMPDEST PUSH3 0x78B DUP13 DUP3 DUP14 ADD PUSH3 0x5EB JUMP JUMPDEST SWAP3 POP POP PUSH2 0x100 PUSH3 0x79F DUP13 DUP3 DUP14 ADD PUSH3 0x5D4 JUMP JUMPDEST SWAP2 POP POP SWAP3 SWAP6 SWAP9 POP SWAP3 SWAP6 SWAP9 POP SWAP3 SWAP6 SWAP9 JUMP JUMPDEST PUSH3 0x7BA DUP2 PUSH3 0x870 JUMP JUMPDEST DUP3 MSTORE POP POP JUMP JUMPDEST PUSH1 0x0 PUSH1 0x20 DUP3 ADD SWAP1 POP PUSH3 0x7D7 PUSH1 0x0 DUP4 ADD DUP5 PUSH3 0x7AF JUMP JUMPDEST SWAP3 SWAP2 POP POP JUMP JUMPDEST PUSH1 0x0 PUSH3 0x7E9 PUSH3 0x7FC JUMP JUMPDEST SWAP1 POP PUSH3 0x7F7 DUP3 DUP3 PUSH3 0x8E6 JUMP JUMPDEST SWAP2 SWAP1 POP JUMP JUMPDEST PUSH1 0x0 PUSH1 0x40 MLOAD SWAP1 POP SWAP1 JUMP JUMPDEST PUSH1 0x0 PUSH8 0xFFFFFFFFFFFFFFFF DUP3 GT ISZERO PUSH3 0x824 JUMPI PUSH3 0x823 PUSH3 0x94B JUMP JUMPDEST JUMPDEST PUSH3 0x82F DUP3 PUSH3 0x98E JUMP JUMPDEST SWAP1 POP PUSH1 0x20 DUP2 ADD SWAP1 POP SWAP2 SWAP1 POP JUMP JUMPDEST PUSH1 0x0 PUSH3 0x849 DUP3 PUSH3 0x850 JUMP JUMPDEST SWAP1 POP SWAP2 SWAP1 POP JUMP JUMPDEST PUSH1 0x0 PUSH20 0xFFFFFFFFFFFFFFFFFFFFFFFFFFFFFFFFFFFFFFFF DUP3 AND SWAP1 POP SWAP2 SWAP1 POP JUMP JUMPDEST PUSH1 0x0 DUP2 SWAP1 POP SWAP2 SWAP1 POP JUMP JUMPDEST PUSH1 0x0 JUMPDEST DUP4 DUP2 LT ISZERO PUSH3 0x89A JUMPI DUP1 DUP3 ADD MLOAD DUP2 DUP5 ADD MSTORE PUSH1 0x20 DUP2 ADD SWAP1 POP PUSH3 0x87D JUMP JUMPDEST DUP4 DUP2 GT ISZERO PUSH3 0x8AA JUMPI PUSH1 0x0 DUP5 DUP5 ADD MSTORE JUMPDEST POP POP POP POP JUMP JUMPDEST PUSH1 0x0 PUSH1 0x2 DUP3 DIV SWAP1 POP PUSH1 0x1 DUP3 AND DUP1 PUSH3 0x8C9 JUMPI PUSH1 0x7F DUP3 AND SWAP2 POP JUMPDEST PUSH1 0x20 DUP3 LT DUP2 EQ ISZERO PUSH3 0x8E0 JUMPI PUSH3 0x8DF PUSH3 0x91C JUMP JUMPDEST JUMPDEST POP SWAP2 SWAP1 POP JUMP JUMPDEST PUSH3 0x8F1 DUP3 PUSH3 0x98E JUMP JUMPDEST DUP2 ADD DUP2 DUP2 LT PUSH8 0xFFFFFFFFFFFFFFFF DUP3 GT OR ISZERO PUSH3 0x913 JUMPI PUSH3 0x912 PUSH3 0x94B JUMP JUMPDEST JUMPDEST DUP1 PUSH1 0x40 MSTORE POP POP POP JUMP JUMPDEST PUSH32 0x4E487B7100000000000000000000000000000000000000000000000000000000 PUSH1 0x0 MSTORE PUSH1 0x22 PUSH1 0x4 MSTORE PUSH1 0x24 PUSH1 0x0 REVERT JUMPDEST PUSH32 0x4E487B7100000000000000000000000000000000000000000000000000000000 PUSH1 0x0 MSTORE PUSH1 0x41 PUSH1 0x4 MSTORE PUSH1 0x24 PUSH1 0x0 REVERT JUMPDEST PUSH1 0x0 DUP1 REVERT JUMPDEST PUSH1 0x0 DUP1 REVERT JUMPDEST PUSH1 0x0 DUP1 REVERT JUMPDEST PUSH1 0x0 DUP1 REVERT JUMPDEST PUSH1 0x0 PUSH1 0x1F NOT PUSH1 0x1F DUP4 ADD AND SWAP1 POP SWAP2 SWAP1 POP JUMP JUMPDEST PUSH3 0x9AA DUP2 PUSH3 0x83C JUMP JUMPDEST DUP2 EQ PUSH3 0x9B6 JUMPI PUSH1 0x0 DUP1 REVERT JUMPDEST POP JUMP JUMPDEST PUSH3 0x9C4 DUP2 PUSH3 0x870 JUMP JUMPDEST DUP2 EQ PUSH3 0x9D0 JUMPI PUSH1 0x0 DUP1 REVERT JUMPDEST POP JUMP JUMPDEST PUSH2 0x3DE1 DUP1 PUSH3 0x9E3 PUSH1 0x0 CODECOPY PUSH1 0x0 RETURN INVALID PUSH1 0x80 PUSH1 0x40 MSTORE CALLVALUE DUP1 ISZERO PUSH2 0x10 JUMPI PUSH1 0x0 DUP1 REVERT JUMPDEST POP PUSH1 0x4 CALLDATASIZE LT PUSH2 0x274 JUMPI PUSH1 0x0 CALLDATALOAD PUSH1 0xE0 SHR DUP1 PUSH4 0x84F9007F GT PUSH2 0x151 JUMPI DUP1 PUSH4 0xB1B5932A GT PUSH2 0xC3 JUMPI DUP1 PUSH4 0xDA76E2F3 GT PUSH2 0x87 JUMPI DUP1 PUSH4 0xDA76E2F3 EQ PUSH2 0x792 JUMPI DUP1 PUSH4 0xDD62ED3E EQ PUSH2 0x7AE JUMPI DUP1 PUSH4 0xE59E8013 EQ PUSH2 0x7DE JUMPI DUP1 PUSH4 0xE8379421 EQ PUSH2 0x7FC JUMPI DUP1 PUSH4 0xF2FDE38B EQ PUSH2 0x82C JUMPI DUP1 PUSH4 0xFD80F5D6 EQ PUSH2 0x848 JUMPI PUSH2 0x274 JUMP JUMPDEST DUP1 PUSH4 0xB1B5932A EQ PUSH2 0x6EE JUMPI DUP1 PUSH4 0xB5B7E6EE EQ PUSH2 0x70C JUMPI DUP1 PUSH4 0xB8071575 EQ PUSH2 0x728 JUMPI DUP1 PUSH4 0xC319E41C EQ PUSH2 0x746 JUMPI DUP1 PUSH4 0xD4CE1415 EQ PUSH2 0x762 JUMPI PUSH2 0x274 JUMP JUMPDEST DUP1 PUSH4 0x9DC29FAC GT PUSH2 0x115 JUMPI DUP1 PUSH4 0x9DC29FAC EQ PUSH2 0x607 JUMPI DUP1 PUSH4 0xA9059CBB EQ PUSH2 0x637 JUMPI DUP1 PUSH4 0xAB47A2F9 EQ PUSH2 0x667 JUMPI DUP1 PUSH4 0xABC30A4B EQ PUSH2 0x698 JUMPI DUP1 PUSH4 0xAC893DB1 EQ PUSH2 0x6B4 JUMPI DUP1 PUSH4 0xB091DA94 EQ PUSH2 0x6D0 JUMPI PUSH2 0x274 JUMP JUMPDEST DUP1 PUSH4 0x84F9007F EQ PUSH2 0x571 JUMPI DUP1 PUSH4 0x8D80E4A0 EQ PUSH2 0x58F JUMPI DUP1 PUSH4 0x8DA5CB5B EQ PUSH2 0x5AD JUMPI DUP1 PUSH4 0x8FE32E12 EQ PUSH2 0x5CB JUMPI DUP1 PUSH4 0x95D89B41 EQ PUSH2 0x5E9 JUMPI PUSH2 0x274 JUMP JUMPDEST DUP1 PUSH4 0x51AEBCD4 GT PUSH2 0x1EA JUMPI DUP1 PUSH4 0x6401CA76 GT PUSH2 0x1AE JUMPI DUP1 PUSH4 0x6401CA76 EQ PUSH2 0x499 JUMPI DUP1 PUSH4 0x654B6F15 EQ PUSH2 0x4B7 JUMPI DUP1 PUSH4 0x70A08231 EQ PUSH2 0x4D5 JUMPI DUP1 PUSH4 0x7169698C EQ PUSH2 0x505 JUMPI DUP1 PUSH4 0x7CAE04F7 EQ PUSH2 0x523 JUMPI DUP1 PUSH4 0x7F4AB1DD EQ PUSH2 0x541 JUMPI PUSH2 0x274 JUMP JUMPDEST DUP1 PUSH4 0x51AEBCD4 EQ PUSH2 0x407 JUMPI DUP1 PUSH4 0x54FD4D50 EQ PUSH2 0x423 JUMPI DUP1 PUSH4 0x59A72DDC EQ PUSH2 0x441 JUMPI DUP1 PUSH4 0x62A3D4BD EQ PUSH2 0x45F JUMPI DUP1 PUSH4 0x639C86CE EQ PUSH2 0x47B JUMPI PUSH2 0x274 JUMP JUMPDEST DUP1 PUSH4 0x23B872DD GT PUSH2 0x23C JUMPI DUP1 PUSH4 0x23B872DD EQ PUSH2 0x31F JUMPI DUP1 PUSH4 0x2B8E797A EQ PUSH2 0x34F JUMPI DUP1 PUSH4 0x313CE567 EQ PUSH2 0x36B JUMPI DUP1 PUSH4 0x3A24DDC5 EQ PUSH2 0x389 JUMPI DUP1 PUSH4 0x40C10F19 EQ PUSH2 0x3B9 JUMPI DUP1 PUSH4 0x45968836 EQ PUSH2 0x3E9 JUMPI PUSH2 0x274 JUMP JUMPDEST DUP1 PUSH4 0x6FDDE03 EQ PUSH2 0x279 JUMPI DUP1 PUSH4 0x95EA7B3 EQ PUSH2 0x297 JUMPI DUP1 PUSH4 0x9FC3892 EQ PUSH2 0x2C7 JUMPI DUP1 PUSH4 0x11D6F0AA EQ PUSH2 0x2E3 JUMPI DUP1 PUSH4 0x18160DDD EQ PUSH2 0x301 JUMPI JUMPDEST PUSH1 0x0 DUP1 REVERT JUMPDEST PUSH2 0x281 PUSH2 0x866 JUMP JUMPDEST PUSH1 0x40 MLOAD PUSH2 0x28E SWAP2 SWAP1 PUSH2 0x338B JUMP JUMPDEST PUSH1 0x40 MLOAD DUP1 SWAP2 SUB SWAP1 RETURN JUMPDEST PUSH2 0x2B1 PUSH1 0x4 DUP1 CALLDATASIZE SUB DUP2 ADD SWAP1 PUSH2 0x2AC SWAP2 SWAP1 PUSH2 0x2FDD JUMP JUMPDEST PUSH2 0x8F4 JUMP JUMPDEST PUSH1 0x40 MLOAD PUSH2 0x2BE SWAP2 SWAP1 PUSH2 0x3370 JUMP JUMPDEST PUSH1 0x40 MLOAD DUP1 SWAP2 SUB SWAP1 RETURN JUMPDEST PUSH2 0x2E1 PUSH1 0x4 DUP1 CALLDATASIZE SUB DUP2 ADD SWAP1 PUSH2 0x2DC SWAP2 SWAP1 PUSH2 0x3070 JUMP JUMPDEST PUSH2 0xA98 JUMP JUMPDEST STOP JUMPDEST PUSH2 0x2EB PUSH2 0xB75 JUMP JUMPDEST PUSH1 0x40 MLOAD PUSH2 0x2F8 SWAP2 SWAP1 PUSH2 0x3531 JUMP JUMPDEST PUSH1 0x40 MLOAD DUP1 SWAP2 SUB SWAP1 RETURN JUMPDEST PUSH2 0x309 PUSH2 0xB7A JUMP JUMPDEST PUSH1 0x40 MLOAD PUSH2 0x316 SWAP2 SWAP1 PUSH2 0x34ED JUMP JUMPDEST PUSH1 0x40 MLOAD DUP1 SWAP2 SUB SWAP1 RETURN JUMPDEST PUSH2 0x339 PUSH1 0x4 DUP1 CALLDATASIZE SUB DUP2 ADD SWAP1 PUSH2 0x334 SWAP2 SWAP1 PUSH2 0x2F8A JUMP JUMPDEST PUSH2 0xB84 JUMP JUMPDEST PUSH1 0x40 MLOAD PUSH2 0x346 SWAP2 SWAP1 PUSH2 0x3370 JUMP JUMPDEST PUSH1 0x40 MLOAD DUP1 SWAP2 SUB SWAP1 RETURN JUMPDEST PUSH2 0x369 PUSH1 0x4 DUP1 CALLDATASIZE SUB DUP2 ADD SWAP1 PUSH2 0x364 SWAP2 SWAP1 PUSH2 0x301D JUMP JUMPDEST PUSH2 0xE36 JUMP JUMPDEST STOP JUMPDEST PUSH2 0x373 PUSH2 0xED9 JUMP JUMPDEST PUSH1 0x40 MLOAD PUSH2 0x380 SWAP2 SWAP1 PUSH2 0x34ED JUMP JUMPDEST PUSH1 0x40 MLOAD DUP1 SWAP2 SUB SWAP1 RETURN JUMPDEST PUSH2 0x3A3 PUSH1 0x4 DUP1 CALLDATASIZE SUB DUP2 ADD SWAP1 PUSH2 0x39E SWAP2 SWAP1 PUSH2 0x2FDD JUMP JUMPDEST PUSH2 0xEDF JUMP JUMPDEST PUSH1 0x40 MLOAD PUSH2 0x3B0 SWAP2 SWAP1 PUSH2 0x3370 JUMP JUMPDEST PUSH1 0x40 MLOAD DUP1 SWAP2 SUB SWAP1 RETURN JUMPDEST PUSH2 0x3D3 PUSH1 0x4 DUP1 CALLDATASIZE SUB DUP2 ADD SWAP1 PUSH2 0x3CE SWAP2 SWAP1 PUSH2 0x2FDD JUMP JUMPDEST PUSH2 0xFA8 JUMP JUMPDEST PUSH1 0x40 MLOAD PUSH2 0x3E0 SWAP2 SWAP1 PUSH2 0x3370 JUMP JUMPDEST PUSH1 0x40 MLOAD DUP1 SWAP2 SUB SWAP1 RETURN JUMPDEST PUSH2 0x3F1 PUSH2 0x11A4 JUMP JUMPDEST PUSH1 0x40 MLOAD PUSH2 0x3FE SWAP2 SWAP1 PUSH2 0x34ED JUMP JUMPDEST PUSH1 0x40 MLOAD DUP1 SWAP2 SUB SWAP1 RETURN JUMPDEST PUSH2 0x421 PUSH1 0x4 DUP1 CALLDATASIZE SUB DUP2 ADD SWAP1 PUSH2 0x41C SWAP2 SWAP1 PUSH2 0x30DF JUMP JUMPDEST PUSH2 0x11AA JUMP JUMPDEST STOP JUMPDEST PUSH2 0x42B PUSH2 0x128B JUMP JUMPDEST PUSH1 0x40 MLOAD PUSH2 0x438 SWAP2 SWAP1 PUSH2 0x338B JUMP JUMPDEST PUSH1 0x40 MLOAD DUP1 SWAP2 SUB SWAP1 RETURN JUMPDEST PUSH2 0x449 PUSH2 0x1319 JUMP JUMPDEST PUSH1 0x40 MLOAD PUSH2 0x456 SWAP2 SWAP1 PUSH2 0x338B JUMP JUMPDEST PUSH1 0x40 MLOAD DUP1 SWAP2 SUB SWAP1 RETURN JUMPDEST PUSH2 0x479 PUSH1 0x4 DUP1 CALLDATASIZE SUB DUP2 ADD SWAP1 PUSH2 0x474 SWAP2 SWAP1 PUSH2 0x3128 JUMP JUMPDEST PUSH2 0x13A7 JUMP JUMPDEST STOP JUMPDEST PUSH2 0x483 PUSH2 0x14CA JUMP JUMPDEST PUSH1 0x40 MLOAD PUSH2 0x490 SWAP2 SWAP1 PUSH2 0x34ED JUMP JUMPDEST PUSH1 0x40 MLOAD DUP1 SWAP2 SUB SWAP1 RETURN JUMPDEST PUSH2 0x4A1 PUSH2 0x14D0 JUMP JUMPDEST PUSH1 0x40 MLOAD PUSH2 0x4AE SWAP2 SWAP1 PUSH2 0x34ED JUMP JUMPDEST PUSH1 0x40 MLOAD DUP1 SWAP2 SUB SWAP1 RETURN JUMPDEST PUSH2 0x4BF PUSH2 0x14D6 JUMP JUMPDEST PUSH1 0x40 MLOAD PUSH2 0x4CC SWAP2 SWAP1 PUSH2 0x338B JUMP JUMPDEST PUSH1 0x40 MLOAD DUP1 SWAP2 SUB SWAP1 RETURN JUMPDEST PUSH2 0x4EF PUSH1 0x4 DUP1 CALLDATASIZE SUB DUP2 ADD SWAP1 PUSH2 0x4EA SWAP2 SWAP1 PUSH2 0x2F1D JUMP JUMPDEST PUSH2 0x1564 JUMP JUMPDEST PUSH1 0x40 MLOAD PUSH2 0x4FC SWAP2 SWAP1 PUSH2 0x34ED JUMP JUMPDEST PUSH1 0x40 MLOAD DUP1 SWAP2 SUB SWAP1 RETURN JUMPDEST PUSH2 0x50D PUSH2 0x15AD JUMP JUMPDEST PUSH1 0x40 MLOAD PUSH2 0x51A SWAP2 SWAP1 PUSH2 0x3531 JUMP JUMPDEST PUSH1 0x40 MLOAD DUP1 SWAP2 SUB SWAP1 RETURN JUMPDEST PUSH2 0x52B PUSH2 0x15B2 JUMP JUMPDEST PUSH1 0x40 MLOAD PUSH2 0x538 SWAP2 SWAP1 PUSH2 0x338B JUMP JUMPDEST PUSH1 0x40 MLOAD DUP1 SWAP2 SUB SWAP1 RETURN JUMPDEST PUSH2 0x55B PUSH1 0x4 DUP1 CALLDATASIZE SUB DUP2 ADD SWAP1 PUSH2 0x556 SWAP2 SWAP1 PUSH2 0x3155 JUMP JUMPDEST PUSH2 0x1640 JUMP JUMPDEST PUSH1 0x40 MLOAD PUSH2 0x568 SWAP2 SWAP1 PUSH2 0x338B JUMP JUMPDEST PUSH1 0x40 MLOAD DUP1 SWAP2 SUB SWAP1 RETURN JUMPDEST PUSH2 0x579 PUSH2 0x1839 JUMP JUMPDEST PUSH1 0x40 MLOAD PUSH2 0x586 SWAP2 SWAP1 PUSH2 0x338B JUMP JUMPDEST PUSH1 0x40 MLOAD DUP1 SWAP2 SUB SWAP1 RETURN JUMPDEST PUSH2 0x597 PUSH2 0x18C7 JUMP JUMPDEST PUSH1 0x40 MLOAD PUSH2 0x5A4 SWAP2 SWAP1 PUSH2 0x3531 JUMP JUMPDEST PUSH1 0x40 MLOAD DUP1 SWAP2 SUB SWAP1 RETURN JUMPDEST PUSH2 0x5B5 PUSH2 0x18CC JUMP JUMPDEST PUSH1 0x40 MLOAD PUSH2 0x5C2 SWAP2 SWAP1 PUSH2 0x3355 JUMP JUMPDEST PUSH1 0x40 MLOAD DUP1 SWAP2 SUB SWAP1 RETURN JUMPDEST PUSH2 0x5D3 PUSH2 0x18F6 JUMP JUMPDEST PUSH1 0x40 MLOAD PUSH2 0x5E0 SWAP2 SWAP1 PUSH2 0x3531 JUMP JUMPDEST PUSH1 0x40 MLOAD DUP1 SWAP2 SUB SWAP1 RETURN JUMPDEST PUSH2 0x5F1 PUSH2 0x18FB JUMP JUMPDEST PUSH1 0x40 MLOAD PUSH2 0x5FE SWAP2 SWAP1 PUSH2 0x338B JUMP JUMPDEST PUSH1 0x40 MLOAD DUP1 SWAP2 SUB SWAP1 RETURN JUMPDEST PUSH2 0x621 PUSH1 0x4 DUP1 CALLDATASIZE SUB DUP2 ADD SWAP1 PUSH2 0x61C SWAP2 SWAP1 PUSH2 0x2FDD JUMP JUMPDEST PUSH2 0x1989 JUMP JUMPDEST PUSH1 0x40 MLOAD PUSH2 0x62E SWAP2 SWAP1 PUSH2 0x3370 JUMP JUMPDEST PUSH1 0x40 MLOAD DUP1 SWAP2 SUB SWAP1 RETURN JUMPDEST PUSH2 0x651 PUSH1 0x4 DUP1 CALLDATASIZE SUB DUP2 ADD SWAP1 PUSH2 0x64C SWAP2 SWAP1 PUSH2 0x2FDD JUMP JUMPDEST PUSH2 0x1B97 JUMP JUMPDEST PUSH1 0x40 MLOAD PUSH2 0x65E SWAP2 SWAP1 PUSH2 0x3370 JUMP JUMPDEST PUSH1 0x40 MLOAD DUP1 SWAP2 SUB SWAP1 RETURN JUMPDEST PUSH2 0x681 PUSH1 0x4 DUP1 CALLDATASIZE SUB DUP2 ADD SWAP1 PUSH2 0x67C SWAP2 SWAP1 PUSH2 0x2F1D JUMP JUMPDEST PUSH2 0x1C81 JUMP JUMPDEST PUSH1 0x40 MLOAD PUSH2 0x68F SWAP3 SWAP2 SWAP1 PUSH2 0x3508 JUMP JUMPDEST PUSH1 0x40 MLOAD DUP1 SWAP2 SUB SWAP1 RETURN JUMPDEST PUSH2 0x6B2 PUSH1 0x4 DUP1 CALLDATASIZE SUB DUP2 ADD SWAP1 PUSH2 0x6AD SWAP2 SWAP1 PUSH2 0x30DF JUMP JUMPDEST PUSH2 0x1D0C JUMP JUMPDEST STOP JUMPDEST PUSH2 0x6CE PUSH1 0x4 DUP1 CALLDATASIZE SUB DUP2 ADD SWAP1 PUSH2 0x6C9 SWAP2 SWAP1 PUSH2 0x30DF JUMP JUMPDEST PUSH2 0x1DED JUMP JUMPDEST STOP JUMPDEST PUSH2 0x6D8 PUSH2 0x1ECE JUMP JUMPDEST PUSH1 0x40 MLOAD PUSH2 0x6E5 SWAP2 SWAP1 PUSH2 0x3531 JUMP JUMPDEST PUSH1 0x40 MLOAD DUP1 SWAP2 SUB SWAP1 RETURN JUMPDEST PUSH2 0x6F6 PUSH2 0x1ED3 JUMP JUMPDEST PUSH1 0x40 MLOAD PUSH2 0x703 SWAP2 SWAP1 PUSH2 0x338B JUMP JUMPDEST PUSH1 0x40 MLOAD DUP1 SWAP2 SUB SWAP1 RETURN JUMPDEST PUSH2 0x726 PUSH1 0x4 DUP1 CALLDATASIZE SUB DUP2 ADD SWAP1 PUSH2 0x721 SWAP2 SWAP1 PUSH2 0x3128 JUMP JUMPDEST PUSH2 0x1F61 JUMP JUMPDEST STOP JUMPDEST PUSH2 0x730 PUSH2 0x2032 JUMP JUMPDEST PUSH1 0x40 MLOAD PUSH2 0x73D SWAP2 SWAP1 PUSH2 0x3531 JUMP JUMPDEST PUSH1 0x40 MLOAD DUP1 SWAP2 SUB SWAP1 RETURN JUMPDEST PUSH2 0x760 PUSH1 0x4 DUP1 CALLDATASIZE SUB DUP2 ADD SWAP1 PUSH2 0x75B SWAP2 SWAP1 PUSH2 0x2F1D JUMP JUMPDEST PUSH2 0x2037 JUMP JUMPDEST STOP JUMPDEST PUSH2 0x77C PUSH1 0x4 DUP1 CALLDATASIZE SUB DUP2 ADD SWAP1 PUSH2 0x777 SWAP2 SWAP1 PUSH2 0x2F8A JUMP JUMPDEST PUSH2 0x2159 JUMP JUMPDEST PUSH1 0x40 MLOAD PUSH2 0x789 SWAP2 SWAP1 PUSH2 0x3531 JUMP JUMPDEST PUSH1 0x40 MLOAD DUP1 SWAP2 SUB SWAP1 RETURN JUMPDEST PUSH2 0x7AC PUSH1 0x4 DUP1 CALLDATASIZE SUB DUP2 ADD SWAP1 PUSH2 0x7A7 SWAP2 SWAP1 PUSH2 0x2F1D JUMP JUMPDEST PUSH2 0x24A1 JUMP JUMPDEST STOP JUMPDEST PUSH2 0x7C8 PUSH1 0x4 DUP1 CALLDATASIZE SUB DUP2 ADD SWAP1 PUSH2 0x7C3 SWAP2 SWAP1 PUSH2 0x2F4A JUMP JUMPDEST PUSH2 0x25BA JUMP JUMPDEST PUSH1 0x40 MLOAD PUSH2 0x7D5 SWAP2 SWAP1 PUSH2 0x34ED JUMP JUMPDEST PUSH1 0x40 MLOAD DUP1 SWAP2 SUB SWAP1 RETURN JUMPDEST PUSH2 0x7E6 PUSH2 0x2641 JUMP JUMPDEST PUSH1 0x40 MLOAD PUSH2 0x7F3 SWAP2 SWAP1 PUSH2 0x3531 JUMP JUMPDEST PUSH1 0x40 MLOAD DUP1 SWAP2 SUB SWAP1 RETURN JUMPDEST PUSH2 0x816 PUSH1 0x4 DUP1 CALLDATASIZE SUB DUP2 ADD SWAP1 PUSH2 0x811 SWAP2 SWAP1 PUSH2 0x2F1D JUMP JUMPDEST PUSH2 0x2646 JUMP JUMPDEST PUSH1 0x40 MLOAD PUSH2 0x823 SWAP2 SWAP1 PUSH2 0x3370 JUMP JUMPDEST PUSH1 0x40 MLOAD DUP1 SWAP2 SUB SWAP1 RETURN JUMPDEST PUSH2 0x846 PUSH1 0x4 DUP1 CALLDATASIZE SUB DUP2 ADD SWAP1 PUSH2 0x841 SWAP2 SWAP1 PUSH2 0x2F1D JUMP JUMPDEST PUSH2 0x269C JUMP JUMPDEST STOP JUMPDEST PUSH2 0x850 PUSH2 0x27E0 JUMP JUMPDEST PUSH1 0x40 MLOAD PUSH2 0x85D SWAP2 SWAP1 PUSH2 0x3531 JUMP JUMPDEST PUSH1 0x40 MLOAD DUP1 SWAP2 SUB SWAP1 RETURN JUMPDEST PUSH1 0xB DUP1 SLOAD PUSH2 0x873 SWAP1 PUSH2 0x370B JUMP JUMPDEST DUP1 PUSH1 0x1F ADD PUSH1 0x20 DUP1 SWAP2 DIV MUL PUSH1 0x20 ADD PUSH1 0x40 MLOAD SWAP1 DUP2 ADD PUSH1 0x40 MSTORE DUP1 SWAP3 SWAP2 SWAP1 DUP2 DUP2 MSTORE PUSH1 0x20 ADD DUP3 DUP1 SLOAD PUSH2 0x89F SWAP1 PUSH2 0x370B JUMP JUMPDEST DUP1 ISZERO PUSH2 0x8EC JUMPI DUP1 PUSH1 0x1F LT PUSH2 0x8C1 JUMPI PUSH2 0x100 DUP1 DUP4 SLOAD DIV MUL DUP4 MSTORE SWAP2 PUSH1 0x20 ADD SWAP2 PUSH2 0x8EC JUMP JUMPDEST DUP3 ADD SWAP2 SWAP1 PUSH1 0x0 MSTORE PUSH1 0x20 PUSH1 0x0 KECCAK256 SWAP1 JUMPDEST DUP2 SLOAD DUP2 MSTORE SWAP1 PUSH1 0x1 ADD SWAP1 PUSH1 0x20 ADD DUP1 DUP4 GT PUSH2 0x8CF JUMPI DUP3 SWAP1 SUB PUSH1 0x1F AND DUP3 ADD SWAP2 JUMPDEST POP POP POP POP POP DUP2 JUMP JUMPDEST PUSH1 0x0 DUP1 PUSH20 0xFFFFFFFFFFFFFFFFFFFFFFFFFFFFFFFFFFFFFFFF AND DUP4 PUSH20 0xFFFFFFFFFFFFFFFFFFFFFFFFFFFFFFFFFFFFFFFF AND EQ ISZERO PUSH2 0x965 JUMPI PUSH1 0x40 MLOAD PUSH32 0x8C379A000000000000000000000000000000000000000000000000000000000 DUP2 MSTORE PUSH1 0x4 ADD PUSH2 0x95C SWAP1 PUSH2 0x33CD JUMP JUMPDEST PUSH1 0x40 MLOAD DUP1 SWAP2 SUB SWAP1 REVERT JUMPDEST PUSH1 0x0 DUP3 GT PUSH2 0x9A8 JUMPI PUSH1 0x40 MLOAD PUSH32 0x8C379A000000000000000000000000000000000000000000000000000000000 DUP2 MSTORE PUSH1 0x4 ADD PUSH2 0x99F SWAP1 PUSH2 0x33ED JUMP JUMPDEST PUSH1 0x40 MLOAD DUP1 SWAP2 SUB SWAP1 REVERT JUMPDEST DUP2 PUSH1 0x3 PUSH1 0x0 CALLER PUSH20 0xFFFFFFFFFFFFFFFFFFFFFFFFFFFFFFFFFFFFFFFF AND PUSH20 0xFFFFFFFFFFFFFFFFFFFFFFFFFFFFFFFFFFFFFFFF AND DUP2 MSTORE PUSH1 0x20 ADD SWAP1 DUP2 MSTORE PUSH1 0x20 ADD PUSH1 0x0 KECCAK256 PUSH1 0x0 DUP6 PUSH20 0xFFFFFFFFFFFFFFFFFFFFFFFFFFFFFFFFFFFFFFFF AND PUSH20 0xFFFFFFFFFFFFFFFFFFFFFFFFFFFFFFFFFFFFFFFF AND DUP2 MSTORE PUSH1 0x20 ADD SWAP1 DUP2 MSTORE PUSH1 0x20 ADD PUSH1 0x0 KECCAK256 DUP2 SWAP1 SSTORE POP DUP3 PUSH20 0xFFFFFFFFFFFFFFFFFFFFFFFFFFFFFFFFFFFFFFFF AND CALLER PUSH20 0xFFFFFFFFFFFFFFFFFFFFFFFFFFFFFFFFFFFFFFFF AND PUSH32 0x8C5BE1E5EBEC7D5BD14F71427D1E84F3DD0314C0F7B2291E5B200AC8C7C3B925 DUP5 PUSH1 0x40 MLOAD PUSH2 0xA86 SWAP2 SWAP1 PUSH2 0x34ED JUMP JUMPDEST PUSH1 0x40 MLOAD DUP1 SWAP2 SUB SWAP1 LOG3 PUSH1 0x1 SWAP1 POP SWAP3 SWAP2 POP POP JUMP JUMPDEST PUSH1 0x1 ISZERO ISZERO PUSH1 0x5 PUSH1 0x0 CALLER PUSH20 0xFFFFFFFFFFFFFFFFFFFFFFFFFFFFFFFFFFFFFFFF AND PUSH20 0xFFFFFFFFFFFFFFFFFFFFFFFFFFFFFFFFFFFFFFFF AND DUP2 MSTORE PUSH1 0x20 ADD SWAP1 DUP2 MSTORE PUSH1 0x20 ADD PUSH1 0x0 KECCAK256 PUSH1 0x0 SWAP1 SLOAD SWAP1 PUSH2 0x100 EXP SWAP1 DIV PUSH1 0xFF AND ISZERO ISZERO EQ PUSH2 0xB2B JUMPI PUSH1 0x40 MLOAD PUSH32 0x8C379A000000000000000000000000000000000000000000000000000000000 DUP2 MSTORE PUSH1 0x4 ADD PUSH2 0xB22 SWAP1 PUSH2 0x346D JUMP JUMPDEST PUSH1 0x40 MLOAD DUP1 SWAP2 SUB SWAP1 REVERT JUMPDEST PUSH1 0x0 JUMPDEST DUP4 MLOAD DUP2 LT ISZERO PUSH2 0xB6F JUMPI PUSH2 0xB5C DUP5 DUP3 DUP2 MLOAD DUP2 LT PUSH2 0xB4D JUMPI PUSH2 0xB4C PUSH2 0x3815 JUMP JUMPDEST JUMPDEST PUSH1 0x20 MUL PUSH1 0x20 ADD ADD MLOAD DUP5 DUP5 PUSH2 0x27E5 JUMP JUMPDEST DUP1 DUP1 PUSH2 0xB67 SWAP1 PUSH2 0x376E JUMP JUMPDEST SWAP2 POP POP PUSH2 0xB2E JUMP JUMPDEST POP POP POP POP JUMP JUMPDEST PUSH1 0x1 DUP2 JUMP JUMPDEST PUSH1 0x0 PUSH1 0xA SLOAD SWAP1 POP SWAP1 JUMP JUMPDEST PUSH1 0x0 DUP4 DUP4 DUP4 PUSH1 0x0 PUSH2 0xB96 DUP5 DUP5 DUP5 PUSH2 0x2159 JUMP JUMPDEST SWAP1 POP PUSH1 0x0 PUSH1 0xFF AND DUP2 PUSH1 0xFF AND EQ PUSH2 0xC55 JUMPI PUSH1 0x0 PUSH2 0xBB1 DUP3 PUSH2 0x1640 JUMP JUMPDEST SWAP1 POP DUP4 PUSH20 0xFFFFFFFFFFFFFFFFFFFFFFFFFFFFFFFFFFFFFFFF AND DUP6 PUSH20 0xFFFFFFFFFFFFFFFFFFFFFFFFFFFFFFFFFFFFFFFF AND PUSH32 0x2FDD8C36DBE5614497208665E8D30C570421680D09984E3153829DDABD30C094 DUP4 PUSH1 0x40 MLOAD PUSH2 0xC10 SWAP2 SWAP1 PUSH2 0x338B JUMP JUMPDEST PUSH1 0x40 MLOAD DUP1 SWAP2 SUB SWAP1 LOG3 DUP1 PUSH1 0x40 MLOAD PUSH32 0x8C379A000000000000000000000000000000000000000000000000000000000 DUP2 MSTORE PUSH1 0x4 ADD PUSH2 0xC4C SWAP2 SWAP1 PUSH2 0x338B JUMP JUMPDEST PUSH1 0x40 MLOAD DUP1 SWAP2 SUB SWAP1 REVERT JUMPDEST DUP6 PUSH1 0x3 PUSH1 0x0 DUP11 PUSH20 0xFFFFFFFFFFFFFFFFFFFFFFFFFFFFFFFFFFFFFFFF AND PUSH20 0xFFFFFFFFFFFFFFFFFFFFFFFFFFFFFFFFFFFFFFFF AND DUP2 MSTORE PUSH1 0x20 ADD SWAP1 DUP2 MSTORE PUSH1 0x20 ADD PUSH1 0x0 KECCAK256 PUSH1 0x0 CALLER PUSH20 0xFFFFFFFFFFFFFFFFFFFFFFFFFFFFFFFFFFFFFFFF AND PUSH20 0xFFFFFFFFFFFFFFFFFFFFFFFFFFFFFFFFFFFFFFFF AND DUP2 MSTORE PUSH1 0x20 ADD SWAP1 DUP2 MSTORE PUSH1 0x20 ADD PUSH1 0x0 KECCAK256 SLOAD LT ISZERO PUSH2 0xD14 JUMPI PUSH1 0x40 MLOAD PUSH32 0x8C379A000000000000000000000000000000000000000000000000000000000 DUP2 MSTORE PUSH1 0x4 ADD PUSH2 0xD0B SWAP1 PUSH2 0x34AD JUMP JUMPDEST PUSH1 0x40 MLOAD DUP1 SWAP2 SUB SWAP1 REVERT JUMPDEST PUSH2 0xD1F DUP9 DUP9 DUP9 PUSH2 0x29B5 JUMP JUMPDEST DUP6 PUSH1 0x3 PUSH1 0x0 DUP11 PUSH20 0xFFFFFFFFFFFFFFFFFFFFFFFFFFFFFFFFFFFFFFFF AND PUSH20 0xFFFFFFFFFFFFFFFFFFFFFFFFFFFFFFFFFFFFFFFF AND DUP2 MSTORE PUSH1 0x20 ADD SWAP1 DUP2 MSTORE PUSH1 0x20 ADD PUSH1 0x0 KECCAK256 PUSH1 0x0 CALLER PUSH20 0xFFFFFFFFFFFFFFFFFFFFFFFFFFFFFFFFFFFFFFFF AND PUSH20 0xFFFFFFFFFFFFFFFFFFFFFFFFFFFFFFFFFFFFFFFF AND DUP2 MSTORE PUSH1 0x20 ADD SWAP1 DUP2 MSTORE PUSH1 0x20 ADD PUSH1 0x0 KECCAK256 SLOAD PUSH2 0xDA7 SWAP2 SWAP1 PUSH2 0x3640 JUMP JUMPDEST PUSH1 0x3 PUSH1 0x0 DUP11 PUSH20 0xFFFFFFFFFFFFFFFFFFFFFFFFFFFFFFFFFFFFFFFF AND PUSH20 0xFFFFFFFFFFFFFFFFFFFFFFFFFFFFFFFFFFFFFFFF AND DUP2 MSTORE PUSH1 0x20 ADD SWAP1 DUP2 MSTORE PUSH1 0x20 ADD PUSH1 0x0 KECCAK256 PUSH1 0x0 CALLER PUSH20 0xFFFFFFFFFFFFFFFFFFFFFFFFFFFFFFFFFFFFFFFF AND PUSH20 0xFFFFFFFFFFFFFFFFFFFFFFFFFFFFFFFFFFFFFFFF AND DUP2 MSTORE PUSH1 0x20 ADD SWAP1 DUP2 MSTORE PUSH1 0x20 ADD PUSH1 0x0 KECCAK256 DUP2 SWAP1 SSTORE POP PUSH1 0x1 SWAP5 POP POP POP POP POP SWAP4 SWAP3 POP POP POP JUMP JUMPDEST PUSH1 0x1 ISZERO ISZERO PUSH1 0x5 PUSH1 0x0 CALLER PUSH20 0xFFFFFFFFFFFFFFFFFFFFFFFFFFFFFFFFFFFFFFFF AND PUSH20 0xFFFFFFFFFFFFFFFFFFFFFFFFFFFFFFFFFFFFFFFF AND DUP2 MSTORE PUSH1 0x20 ADD SWAP1 DUP2 MSTORE PUSH1 0x20 ADD PUSH1 0x0 KECCAK256 PUSH1 0x0 SWAP1 SLOAD SWAP1 PUSH2 0x100 EXP SWAP1 DIV PUSH1 0xFF AND ISZERO ISZERO EQ PUSH2 0xEC9 JUMPI PUSH1 0x40 MLOAD PUSH32 0x8C379A000000000000000000000000000000000000000000000000000000000 DUP2 MSTORE PUSH1 0x4 ADD PUSH2 0xEC0 SWAP1 PUSH2 0x346D JUMP JUMPDEST PUSH1 0x40 MLOAD DUP1 SWAP2 SUB SWAP1 REVERT JUMPDEST PUSH2 0xED4 DUP4 DUP4 DUP4 PUSH2 0x27E5 JUMP JUMPDEST POP POP POP JUMP JUMPDEST PUSH1 0x6 SLOAD DUP2 JUMP JUMPDEST PUSH1 0x0 CALLER PUSH20 0xFFFFFFFFFFFFFFFFFFFFFFFFFFFFFFFFFFFFFFFF AND PUSH1 0x4 PUSH1 0x0 SWAP1 SLOAD SWAP1 PUSH2 0x100 EXP SWAP1 DIV PUSH20 0xFFFFFFFFFFFFFFFFFFFFFFFFFFFFFFFFFFFFFFFF AND PUSH20 0xFFFFFFFFFFFFFFFFFFFFFFFFFFFFFFFFFFFFFFFF AND EQ PUSH2 0xF71 JUMPI PUSH1 0x40 MLOAD PUSH32 0x8C379A000000000000000000000000000000000000000000000000000000000 DUP2 MSTORE PUSH1 0x4 ADD PUSH2 0xF68 SWAP1 PUSH2 0x33AD JUMP JUMPDEST PUSH1 0x40 MLOAD DUP1 SWAP2 SUB SWAP1 REVERT JUMPDEST PUSH2 0xF9E DUP4 PUSH1 0x4 PUSH1 0x0 SWAP1 SLOAD SWAP1 PUSH2 0x100 EXP SWAP1 DIV PUSH20 0xFFFFFFFFFFFFFFFFFFFFFFFFFFFFFFFFFFFFFFFF AND DUP5 PUSH2 0x29B5 JUMP JUMPDEST PUSH1 0x1 SWAP1 POP SWAP3 SWAP2 POP POP JUMP JUMPDEST PUSH1 0x0 CALLER PUSH20 0xFFFFFFFFFFFFFFFFFFFFFFFFFFFFFFFFFFFFFFFF AND PUSH1 0x4 PUSH1 0x0 SWAP1 SLOAD SWAP1 PUSH2 0x100 EXP SWAP1 DIV PUSH20 0xFFFFFFFFFFFFFFFFFFFFFFFFFFFFFFFFFFFFFFFF AND PUSH20 0xFFFFFFFFFFFFFFFFFFFFFFFFFFFFFFFFFFFFFFFF AND EQ PUSH2 0x103A JUMPI PUSH1 0x40 MLOAD PUSH32 0x8C379A000000000000000000000000000000000000000000000000000000000 DUP2 MSTORE PUSH1 0x4 ADD PUSH2 0x1031 SWAP1 PUSH2 0x33AD JUMP JUMPDEST PUSH1 0x40 MLOAD DUP1 SWAP2 SUB SWAP1 REVERT JUMPDEST PUSH1 0x0 PUSH20 0xFFFFFFFFFFFFFFFFFFFFFFFFFFFFFFFFFFFFFFFF AND DUP4 PUSH20 0xFFFFFFFFFFFFFFFFFFFFFFFFFFFFFFFFFFFFFFFF AND EQ ISZERO PUSH2 0x10AA JUMPI PUSH1 0x40 MLOAD PUSH32 0x8C379A000000000000000000000000000000000000000000000000000000000 DUP2 MSTORE PUSH1 0x4 ADD PUSH2 0x10A1 SWAP1 PUSH2 0x34CD JUMP JUMPDEST PUSH1 0x40 MLOAD DUP1 SWAP2 SUB SWAP1 REVERT JUMPDEST DUP2 PUSH1 0xA SLOAD PUSH2 0x10B8 SWAP2 SWAP1 PUSH2 0x35EA JUMP JUMPDEST PUSH1 0xA DUP2 SWAP1 SSTORE POP DUP2 PUSH1 0x2 PUSH1 0x0 DUP6 PUSH20 0xFFFFFFFFFFFFFFFFFFFFFFFFFFFFFFFFFFFFFFFF AND PUSH20 0xFFFFFFFFFFFFFFFFFFFFFFFFFFFFFFFFFFFFFFFF AND DUP2 MSTORE PUSH1 0x20 ADD SWAP1 DUP2 MSTORE PUSH1 0x20 ADD PUSH1 0x0 KECCAK256 SLOAD PUSH2 0x1109 SWAP2 SWAP1 PUSH2 0x35EA JUMP JUMPDEST PUSH1 0x2 PUSH1 0x0 DUP6 PUSH20 0xFFFFFFFFFFFFFFFFFFFFFFFFFFFFFFFFFFFFFFFF AND PUSH20 0xFFFFFFFFFFFFFFFFFFFFFFFFFFFFFFFFFFFFFFFF AND DUP2 MSTORE PUSH1 0x20 ADD SWAP1 DUP2 MSTORE PUSH1 0x20 ADD PUSH1 0x0 KECCAK256 DUP2 SWAP1 SSTORE POP DUP3 PUSH20 0xFFFFFFFFFFFFFFFFFFFFFFFFFFFFFFFFFFFFFFFF AND PUSH32 0x7B47457F3AF09E5F794B020FD74160963A808F5985883496A096D403D380C343 DUP4 PUSH1 0x40 MLOAD PUSH2 0x1192 SWAP2 SWAP1 PUSH2 0x34ED JUMP JUMPDEST PUSH1 0x40 MLOAD DUP1 SWAP2 SUB SWAP1 LOG2 PUSH1 0x1 SWAP1 POP SWAP3 SWAP2 POP POP JUMP JUMPDEST PUSH1 0x10 SLOAD DUP2 JUMP JUMPDEST CALLER PUSH20 0xFFFFFFFFFFFFFFFFFFFFFFFFFFFFFFFFFFFFFFFF AND PUSH1 0x4 PUSH1 0x0 SWAP1 SLOAD SWAP1 PUSH2 0x100 EXP SWAP1 DIV PUSH20 0xFFFFFFFFFFFFFFFFFFFFFFFFFFFFFFFFFFFFFFFF AND PUSH20 0xFFFFFFFFFFFFFFFFFFFFFFFFFFFFFFFFFFFFFFFF AND EQ PUSH2 0x123A JUMPI PUSH1 0x40 MLOAD PUSH32 0x8C379A000000000000000000000000000000000000000000000000000000000 DUP2 MSTORE PUSH1 0x4 ADD PUSH2 0x1231 SWAP1 PUSH2 0x33AD JUMP JUMPDEST PUSH1 0x40 MLOAD DUP1 SWAP2 SUB SWAP1 REVERT JUMPDEST DUP1 PUSH1 0xF SWAP1 DUP1 MLOAD SWAP1 PUSH1 0x20 ADD SWAP1 PUSH2 0x1250 SWAP3 SWAP2 SWAP1 PUSH2 0x2D2D JUMP JUMPDEST POP PUSH32 0xA555E96A9F6D83B18CBE170E5FD71EBB56FC55F86A115539E9F3038182075A50 DUP2 PUSH1 0x40 MLOAD PUSH2 0x1280 SWAP2 SWAP1 PUSH2 0x338B JUMP JUMPDEST PUSH1 0x40 MLOAD DUP1 SWAP2 SUB SWAP1 LOG1 POP JUMP JUMPDEST PUSH1 0x7 DUP1 SLOAD PUSH2 0x1298 SWAP1 PUSH2 0x370B JUMP JUMPDEST DUP1 PUSH1 0x1F ADD PUSH1 0x20 DUP1 SWAP2 DIV MUL PUSH1 0x20 ADD PUSH1 0x40 MLOAD SWAP1 DUP2 ADD PUSH1 0x40 MSTORE DUP1 SWAP3 SWAP2 SWAP1 DUP2 DUP2 MSTORE PUSH1 0x20 ADD DUP3 DUP1 SLOAD PUSH2 0x12C4 SWAP1 PUSH2 0x370B JUMP JUMPDEST DUP1 ISZERO PUSH2 0x1311 JUMPI DUP1 PUSH1 0x1F LT PUSH2 0x12E6 JUMPI PUSH2 0x100 DUP1 DUP4 SLOAD DIV MUL DUP4 MSTORE SWAP2 PUSH1 0x20 ADD SWAP2 PUSH2 0x1311 JUMP JUMPDEST DUP3 ADD SWAP2 SWAP1 PUSH1 0x0 MSTORE PUSH1 0x20 PUSH1 0x0 KECCAK256 SWAP1 JUMPDEST DUP2 SLOAD DUP2 MSTORE SWAP1 PUSH1 0x1 ADD SWAP1 PUSH1 0x20 ADD DUP1 DUP4 GT PUSH2 0x12F4 JUMPI DUP3 SWAP1 SUB PUSH1 0x1F AND DUP3 ADD SWAP2 JUMPDEST POP POP POP POP POP DUP2 JUMP JUMPDEST PUSH1 0xD DUP1 SLOAD PUSH2 0x1326 SWAP1 PUSH2 0x370B JUMP JUMPDEST DUP1 PUSH1 0x1F ADD PUSH1 0x20 DUP1 SWAP2 DIV MUL PUSH1 0x20 ADD PUSH1 0x40 MLOAD SWAP1 DUP2 ADD PUSH1 0x40 MSTORE DUP1 SWAP3 SWAP2 SWAP1 DUP2 DUP2 MSTORE PUSH1 0x20 ADD DUP3 DUP1 SLOAD PUSH2 0x1352 SWAP1 PUSH2 0x370B JUMP JUMPDEST DUP1 ISZERO PUSH2 0x139F JUMPI DUP1 PUSH1 0x1F LT PUSH2 0x1374 JUMPI PUSH2 0x100 DUP1 DUP4 SLOAD DIV MUL DUP4 MSTORE SWAP2 PUSH1 0x20 ADD SWAP2 PUSH2 0x139F JUMP JUMPDEST DUP3 ADD SWAP2 SWAP1 PUSH1 0x0 MSTORE PUSH1 0x20 PUSH1 0x0 KECCAK256 SWAP1 JUMPDEST DUP2 SLOAD DUP2 MSTORE SWAP1 PUSH1 0x1 ADD SWAP1 PUSH1 0x20 ADD DUP1 DUP4 GT PUSH2 0x1382 JUMPI DUP3 SWAP1 SUB PUSH1 0x1F AND DUP3 ADD SWAP2 JUMPDEST POP POP POP POP POP DUP2 JUMP JUMPDEST CALLER PUSH20 0xFFFFFFFFFFFFFFFFFFFFFFFFFFFFFFFFFFFFFFFF AND PUSH1 0x4 PUSH1 0x0 SWAP1 SLOAD SWAP1 PUSH2 0x100 EXP SWAP1 DIV PUSH20 0xFFFFFFFFFFFFFFFFFFFFFFFFFFFFFFFFFFFFFFFF AND PUSH20 0xFFFFFFFFFFFFFFFFFFFFFFFFFFFFFFFFFFFFFFFF AND EQ PUSH2 0x1437 JUMPI PUSH1 0x40 MLOAD PUSH32 0x8C379A000000000000000000000000000000000000000000000000000000000 DUP2 MSTORE PUSH1 0x4 ADD PUSH2 0x142E SWAP1 PUSH2 0x33AD JUMP JUMPDEST PUSH1 0x40 MLOAD DUP1 SWAP2 SUB SWAP1 REVERT JUMPDEST PUSH1 0x0 DUP2 EQ ISZERO DUP1 ISZERO PUSH2 0x1449 JUMPI POP PUSH1 0x10 SLOAD DUP2 LT JUMPDEST ISZERO PUSH2 0x1489 JUMPI PUSH1 0x40 MLOAD PUSH32 0x8C379A000000000000000000000000000000000000000000000000000000000 DUP2 MSTORE PUSH1 0x4 ADD PUSH2 0x1480 SWAP1 PUSH2 0x340D JUMP JUMPDEST PUSH1 0x40 MLOAD DUP1 SWAP2 SUB SWAP1 REVERT JUMPDEST DUP1 PUSH1 0x11 DUP2 SWAP1 SSTORE POP PUSH32 0x87782743094654FC1484EF46E968ABC30C6CD880E70EC8B310EB42641E35EB45 DUP2 PUSH1 0x40 MLOAD PUSH2 0x14BF SWAP2 SWAP1 PUSH2 0x34ED JUMP JUMPDEST PUSH1 0x40 MLOAD DUP1 SWAP2 SUB SWAP1 LOG1 POP JUMP JUMPDEST PUSH1 0x12 SLOAD DUP2 JUMP JUMPDEST PUSH1 0x11 SLOAD DUP2 JUMP JUMPDEST PUSH1 0x8 DUP1 SLOAD PUSH2 0x14E3 SWAP1 PUSH2 0x370B JUMP JUMPDEST DUP1 PUSH1 0x1F ADD PUSH1 0x20 DUP1 SWAP2 DIV MUL PUSH1 0x20 ADD PUSH1 0x40 MLOAD SWAP1 DUP2 ADD PUSH1 0x40 MSTORE DUP1 SWAP3 SWAP2 SWAP1 DUP2 DUP2 MSTORE PUSH1 0x20 ADD DUP3 DUP1 SLOAD PUSH2 0x150F SWAP1 PUSH2 0x370B JUMP JUMPDEST DUP1 ISZERO PUSH2 0x155C JUMPI DUP1 PUSH1 0x1F LT PUSH2 0x1531 JUMPI PUSH2 0x100 DUP1 DUP4 SLOAD DIV MUL DUP4 MSTORE SWAP2 PUSH1 0x20 ADD SWAP2 PUSH2 0x155C JUMP JUMPDEST DUP3 ADD SWAP2 SWAP1 PUSH1 0x0 MSTORE PUSH1 0x20 PUSH1 0x0 KECCAK256 SWAP1 JUMPDEST DUP2 SLOAD DUP2 MSTORE SWAP1 PUSH1 0x1 ADD SWAP1 PUSH1 0x20 ADD DUP1 DUP4 GT PUSH2 0x153F JUMPI DUP3 SWAP1 SUB PUSH1 0x1F AND DUP3 ADD SWAP2 JUMPDEST POP POP POP POP POP DUP2 JUMP JUMPDEST PUSH1 0x0 PUSH1 0x2 PUSH1 0x0 DUP4 PUSH20 0xFFFFFFFFFFFFFFFFFFFFFFFFFFFFFFFFFFFFFFFF AND PUSH20 0xFFFFFFFFFFFFFFFFFFFFFFFFFFFFFFFFFFFFFFFF AND DUP2 MSTORE PUSH1 0x20 ADD SWAP1 DUP2 MSTORE PUSH1 0x20 ADD PUSH1 0x0 KECCAK256 SLOAD SWAP1 POP SWAP2 SWAP1 POP JUMP JUMPDEST PUSH1 0x0 DUP2 JUMP JUMPDEST PUSH1 0x9 DUP1 SLOAD PUSH2 0x15BF SWAP1 PUSH2 0x370B JUMP JUMPDEST DUP1 PUSH1 0x1F ADD PUSH1 0x20 DUP1 SWAP2 DIV MUL PUSH1 0x20 ADD PUSH1 0x40 MLOAD SWAP1 DUP2 ADD PUSH1 0x40 MSTORE DUP1 SWAP3 SWAP2 SWAP1 DUP2 DUP2 MSTORE PUSH1 0x20 ADD DUP3 DUP1 SLOAD PUSH2 0x15EB SWAP1 PUSH2 0x370B JUMP JUMPDEST DUP1 ISZERO PUSH2 0x1638 JUMPI DUP1 PUSH1 0x1F LT PUSH2 0x160D JUMPI PUSH2 0x100 DUP1 DUP4 SLOAD DIV MUL DUP4 MSTORE SWAP2 PUSH1 0x20 ADD SWAP2 PUSH2 0x1638 JUMP JUMPDEST DUP3 ADD SWAP2 SWAP1 PUSH1 0x0 MSTORE PUSH1 0x20 PUSH1 0x0 KECCAK256 SWAP1 JUMPDEST DUP2 SLOAD DUP2 MSTORE SWAP1 PUSH1 0x1 ADD SWAP1 PUSH1 0x20 ADD DUP1 DUP4 GT PUSH2 0x161B JUMPI DUP3 SWAP1 SUB PUSH1 0x1F AND DUP3 ADD SWAP2 JUMPDEST POP POP POP POP POP DUP2 JUMP JUMPDEST PUSH1 0x60 PUSH1 0x0 PUSH1 0xFF AND DUP3 PUSH1 0xFF AND EQ ISZERO PUSH2 0x168E JUMPI PUSH1 0x40 MLOAD DUP1 PUSH1 0x40 ADD PUSH1 0x40 MSTORE DUP1 PUSH1 0x1E DUP2 MSTORE PUSH1 0x20 ADD PUSH32 0x4E6F207472616E73666572207265737472696374696F6E7320666F756E640000 DUP2 MSTORE POP SWAP1 POP PUSH2 0x1834 JUMP JUMPDEST PUSH1 0x1 PUSH1 0xFF AND DUP3 PUSH1 0xFF AND EQ ISZERO PUSH2 0x16BD JUMPI PUSH1 0x40 MLOAD DUP1 PUSH1 0x80 ADD PUSH1 0x40 MSTORE DUP1 PUSH1 0x57 DUP2 MSTORE PUSH1 0x20 ADD PUSH2 0x3C1F PUSH1 0x57 SWAP2 CODECOPY SWAP1 POP PUSH2 0x1833 JUMP JUMPDEST PUSH1 0x2 PUSH1 0xFF AND DUP3 PUSH1 0xFF AND EQ ISZERO PUSH2 0x16EC JUMPI PUSH1 0x40 MLOAD DUP1 PUSH1 0x80 ADD PUSH1 0x40 MSTORE DUP1 PUSH1 0x44 DUP2 MSTORE PUSH1 0x20 ADD PUSH2 0x3CDE PUSH1 0x44 SWAP2 CODECOPY SWAP1 POP PUSH2 0x1832 JUMP JUMPDEST PUSH1 0x3 PUSH1 0xFF AND DUP3 PUSH1 0xFF AND EQ ISZERO PUSH2 0x1738 JUMPI PUSH1 0x40 MLOAD DUP1 PUSH1 0x40 ADD PUSH1 0x40 MSTORE DUP1 PUSH1 0x20 DUP2 MSTORE PUSH1 0x20 ADD PUSH32 0x5A65726F207472616E7366657220616D6F756E74206E6F7420616C6C6F776564 DUP2 MSTORE POP SWAP1 POP PUSH2 0x1831 JUMP JUMPDEST PUSH1 0x4 PUSH1 0xFF AND DUP3 PUSH1 0xFF AND EQ ISZERO PUSH2 0x1767 JUMPI PUSH1 0x40 MLOAD DUP1 PUSH1 0x60 ADD PUSH1 0x40 MSTORE DUP1 PUSH1 0x24 DUP2 MSTORE PUSH1 0x20 ADD PUSH2 0x3D88 PUSH1 0x24 SWAP2 CODECOPY SWAP1 POP PUSH2 0x1830 JUMP JUMPDEST PUSH1 0x5 PUSH1 0xFF AND DUP3 PUSH1 0xFF AND EQ ISZERO PUSH2 0x1796 JUMPI PUSH1 0x40 MLOAD DUP1 PUSH1 0x60 ADD PUSH1 0x40 MSTORE DUP1 PUSH1 0x26 DUP2 MSTORE PUSH1 0x20 ADD PUSH2 0x3BF9 PUSH1 0x26 SWAP2 CODECOPY SWAP1 POP PUSH2 0x182F JUMP JUMPDEST PUSH1 0x6 PUSH1 0xFF AND DUP3 PUSH1 0xFF AND EQ ISZERO PUSH2 0x17C5 JUMPI PUSH1 0x40 MLOAD DUP1 PUSH1 0xA0 ADD PUSH1 0x40 MSTORE DUP1 PUSH1 0x68 DUP2 MSTORE PUSH1 0x20 ADD PUSH2 0x3C76 PUSH1 0x68 SWAP2 CODECOPY SWAP1 POP PUSH2 0x182E JUMP JUMPDEST PUSH1 0x7 PUSH1 0xFF AND DUP3 PUSH1 0xFF AND EQ ISZERO PUSH2 0x17F4 JUMPI PUSH1 0x40 MLOAD DUP1 PUSH1 0xA0 ADD PUSH1 0x40 MSTORE DUP1 PUSH1 0x66 DUP2 MSTORE PUSH1 0x20 ADD PUSH2 0x3D22 PUSH1 0x66 SWAP2 CODECOPY SWAP1 POP PUSH2 0x182D JUMP JUMPDEST PUSH1 0x40 MLOAD DUP1 PUSH1 0x40 ADD PUSH1 0x40 MSTORE DUP1 PUSH1 0x19 DUP2 MSTORE PUSH1 0x20 ADD PUSH32 0x4572726F7220636F6465206973206E6F7420646566696E656400000000000000 DUP2 MSTORE POP SWAP1 POP JUMPDEST JUMPDEST JUMPDEST JUMPDEST JUMPDEST JUMPDEST JUMPDEST JUMPDEST SWAP2 SWAP1 POP JUMP JUMPDEST PUSH1 0xE DUP1 SLOAD PUSH2 0x1846 SWAP1 PUSH2 0x370B JUMP JUMPDEST DUP1 PUSH1 0x1F ADD PUSH1 0x20 DUP1 SWAP2 DIV MUL PUSH1 0x20 ADD PUSH1 0x40 MLOAD SWAP1 DUP2 ADD PUSH1 0x40 MSTORE DUP1 SWAP3 SWAP2 SWAP1 DUP2 DUP2 MSTORE PUSH1 0x20 ADD DUP3 DUP1 SLOAD PUSH2 0x1872 SWAP1 PUSH2 0x370B JUMP JUMPDEST DUP1 ISZERO PUSH2 0x18BF JUMPI DUP1 PUSH1 0x1F LT PUSH2 0x1894 JUMPI PUSH2 0x100 DUP1 DUP4 SLOAD DIV MUL DUP4 MSTORE SWAP2 PUSH1 0x20 ADD SWAP2 PUSH2 0x18BF JUMP JUMPDEST DUP3 ADD SWAP2 SWAP1 PUSH1 0x0 MSTORE PUSH1 0x20 PUSH1 0x0 KECCAK256 SWAP1 JUMPDEST DUP2 SLOAD DUP2 MSTORE SWAP1 PUSH1 0x1 ADD SWAP1 PUSH1 0x20 ADD DUP1 DUP4 GT PUSH2 0x18A2 JUMPI DUP3 SWAP1 SUB PUSH1 0x1F AND DUP3 ADD SWAP2 JUMPDEST POP POP POP POP POP DUP2 JUMP JUMPDEST PUSH1 0x4 DUP2 JUMP JUMPDEST PUSH1 0x0 PUSH1 0x4 PUSH1 0x0 SWAP1 SLOAD SWAP1 PUSH2 0x100 EXP SWAP1 DIV PUSH20 0xFFFFFFFFFFFFFFFFFFFFFFFFFFFFFFFFFFFFFFFF AND SWAP1 POP SWAP1 JUMP JUMPDEST PUSH1 0x2 DUP2 JUMP JUMPDEST PUSH1 0xC DUP1 SLOAD PUSH2 0x1908 SWAP1 PUSH2 0x370B JUMP JUMPDEST DUP1 PUSH1 0x1F ADD PUSH1 0x20 DUP1 SWAP2 DIV MUL PUSH1 0x20 ADD PUSH1 0x40 MLOAD SWAP1 DUP2 ADD PUSH1 0x40 MSTORE DUP1 SWAP3 SWAP2 SWAP1 DUP2 DUP2 MSTORE PUSH1 0x20 ADD DUP3 DUP1 SLOAD PUSH2 0x1934 SWAP1 PUSH2 0x370B JUMP JUMPDEST DUP1 ISZERO PUSH2 0x1981 JUMPI DUP1 PUSH1 0x1F LT PUSH2 0x1956 JUMPI PUSH2 0x100 DUP1 DUP4 SLOAD DIV MUL DUP4 MSTORE SWAP2 PUSH1 0x20 ADD SWAP2 PUSH2 0x1981 JUMP JUMPDEST DUP3 ADD SWAP2 SWAP1 PUSH1 0x0 MSTORE PUSH1 0x20 PUSH1 0x0 KECCAK256 SWAP1 JUMPDEST DUP2 SLOAD DUP2 MSTORE SWAP1 PUSH1 0x1 ADD SWAP1 PUSH1 0x20 ADD DUP1 DUP4 GT PUSH2 0x1964 JUMPI DUP3 SWAP1 SUB PUSH1 0x1F AND DUP3 ADD SWAP2 JUMPDEST POP POP POP POP POP DUP2 JUMP JUMPDEST PUSH1 0x0 CALLER PUSH20 0xFFFFFFFFFFFFFFFFFFFFFFFFFFFFFFFFFFFFFFFF AND PUSH1 0x4 PUSH1 0x0 SWAP1 SLOAD SWAP1 PUSH2 0x100 EXP SWAP1 DIV PUSH20 0xFFFFFFFFFFFFFFFFFFFFFFFFFFFFFFFFFFFFFFFF AND PUSH20 0xFFFFFFFFFFFFFFFFFFFFFFFFFFFFFFFFFFFFFFFF AND EQ PUSH2 0x1A1B JUMPI PUSH1 0x40 MLOAD PUSH32 0x8C379A000000000000000000000000000000000000000000000000000000000 DUP2 MSTORE PUSH1 0x4 ADD PUSH2 0x1A12 SWAP1 PUSH2 0x33AD JUMP JUMPDEST PUSH1 0x40 MLOAD DUP1 SWAP2 SUB SWAP1 REVERT JUMPDEST DUP2 PUSH1 0x2 PUSH1 0x0 DUP6 PUSH20 0xFFFFFFFFFFFFFFFFFFFFFFFFFFFFFFFFFFFFFFFF AND PUSH20 0xFFFFFFFFFFFFFFFFFFFFFFFFFFFFFFFFFFFFFFFF AND DUP2 MSTORE PUSH1 0x20 ADD SWAP1 DUP2 MSTORE PUSH1 0x20 ADD PUSH1 0x0 KECCAK256 SLOAD LT ISZERO PUSH2 0x1A9D JUMPI PUSH1 0x40 MLOAD PUSH32 0x8C379A000000000000000000000000000000000000000000000000000000000 DUP2 MSTORE PUSH1 0x4 ADD PUSH2 0x1A94 SWAP1 PUSH2 0x342D JUMP JUMPDEST PUSH1 0x40 MLOAD DUP1 SWAP2 SUB SWAP1 REVERT JUMPDEST DUP2 PUSH1 0xA SLOAD PUSH2 0x1AAB SWAP2 SWAP1 PUSH2 0x3640 JUMP JUMPDEST PUSH1 0xA DUP2 SWAP1 SSTORE POP DUP2 PUSH1 0x2 PUSH1 0x0 DUP6 PUSH20 0xFFFFFFFFFFFFFFFFFFFFFFFFFFFFFFFFFFFFFFFF AND PUSH20 0xFFFFFFFFFFFFFFFFFFFFFFFFFFFFFFFFFFFFFFFF AND DUP2 MSTORE PUSH1 0x20 ADD SWAP1 DUP2 MSTORE PUSH1 0x20 ADD PUSH1 0x0 KECCAK256 SLOAD PUSH2 0x1AFC SWAP2 SWAP1 PUSH2 0x3640 JUMP JUMPDEST PUSH1 0x2 PUSH1 0x0 DUP6 PUSH20 0xFFFFFFFFFFFFFFFFFFFFFFFFFFFFFFFFFFFFFFFF AND PUSH20 0xFFFFFFFFFFFFFFFFFFFFFFFFFFFFFFFFFFFFFFFF AND DUP2 MSTORE PUSH1 0x20 ADD SWAP1 DUP2 MSTORE PUSH1 0x20 ADD PUSH1 0x0 KECCAK256 DUP2 SWAP1 SSTORE POP DUP3 PUSH20 0xFFFFFFFFFFFFFFFFFFFFFFFFFFFFFFFFFFFFFFFF AND PUSH32 0x388D6102A0230861B4E9646FB5ACDA1C5EC15D39DF2B619D39C25D16A1268490 DUP4 PUSH1 0x40 MLOAD PUSH2 0x1B85 SWAP2 SWAP1 PUSH2 0x34ED JUMP JUMPDEST PUSH1 0x40 MLOAD DUP1 SWAP2 SUB SWAP1 LOG2 PUSH1 0x1 SWAP1 POP SWAP3 SWAP2 POP POP JUMP JUMPDEST PUSH1 0x0 CALLER DUP4 DUP4 PUSH1 0x0 PUSH2 0x1BA9 DUP5 DUP5 DUP5 PUSH2 0x2159 JUMP JUMPDEST SWAP1 POP PUSH1 0x0 PUSH1 0xFF AND DUP2 PUSH1 0xFF AND EQ PUSH2 0x1C68 JUMPI PUSH1 0x0 PUSH2 0x1BC4 DUP3 PUSH2 0x1640 JUMP JUMPDEST SWAP1 POP DUP4 PUSH20 0xFFFFFFFFFFFFFFFFFFFFFFFFFFFFFFFFFFFFFFFF AND DUP6 PUSH20 0xFFFFFFFFFFFFFFFFFFFFFFFFFFFFFFFFFFFFFFFF AND PUSH32 0x2FDD8C36DBE5614497208665E8D30C570421680D09984E3153829DDABD30C094 DUP4 PUSH1 0x40 MLOAD PUSH2 0x1C23 SWAP2 SWAP1 PUSH2 0x338B JUMP JUMPDEST PUSH1 0x40 MLOAD DUP1 SWAP2 SUB SWAP1 LOG3 DUP1 PUSH1 0x40 MLOAD PUSH32 0x8C379A000000000000000000000000000000000000000000000000000000000 DUP2 MSTORE PUSH1 0x4 ADD PUSH2 0x1C5F SWAP2 SWAP1 PUSH2 0x338B JUMP JUMPDEST PUSH1 0x40 MLOAD DUP1 SWAP2 SUB SWAP1 REVERT JUMPDEST PUSH2 0x1C73 CALLER DUP9 DUP9 PUSH2 0x29B5 JUMP JUMPDEST PUSH1 0x1 SWAP5 POP POP POP POP POP SWAP3 SWAP2 POP POP JUMP JUMPDEST PUSH1 0x0 DUP1 PUSH1 0x0 DUP1 DUP5 PUSH20 0xFFFFFFFFFFFFFFFFFFFFFFFFFFFFFFFFFFFFFFFF AND PUSH20 0xFFFFFFFFFFFFFFFFFFFFFFFFFFFFFFFFFFFFFFFF AND DUP2 MSTORE PUSH1 0x20 ADD SWAP1 DUP2 MSTORE PUSH1 0x20 ADD PUSH1 0x0 KECCAK256 SLOAD PUSH1 0x1 PUSH1 0x0 DUP6 PUSH20 0xFFFFFFFFFFFFFFFFFFFFFFFFFFFFFFFFFFFFFFFF AND PUSH20 0xFFFFFFFFFFFFFFFFFFFFFFFFFFFFFFFFFFFFFFFF AND DUP2 MSTORE PUSH1 0x20 ADD SWAP1 DUP2 MSTORE PUSH1 0x20 ADD PUSH1 0x0 KECCAK256 SLOAD SWAP2 POP SWAP2 POP SWAP2 POP SWAP2 JUMP JUMPDEST CALLER PUSH20 0xFFFFFFFFFFFFFFFFFFFFFFFFFFFFFFFFFFFFFFFF AND PUSH1 0x4 PUSH1 0x0 SWAP1 SLOAD SWAP1 PUSH2 0x100 EXP SWAP1 DIV PUSH20 0xFFFFFFFFFFFFFFFFFFFFFFFFFFFFFFFFFFFFFFFF AND PUSH20 0xFFFFFFFFFFFFFFFFFFFFFFFFFFFFFFFFFFFFFFFF AND EQ PUSH2 0x1D9C JUMPI PUSH1 0x40 MLOAD PUSH32 0x8C379A000000000000000000000000000000000000000000000000000000000 DUP2 MSTORE PUSH1 0x4 ADD PUSH2 0x1D93 SWAP1 PUSH2 0x33AD JUMP JUMPDEST PUSH1 0x40 MLOAD DUP1 SWAP2 SUB SWAP1 REVERT JUMPDEST DUP1 PUSH1 0xE SWAP1 DUP1 MLOAD SWAP1 PUSH1 0x20 ADD SWAP1 PUSH2 0x1DB2 SWAP3 SWAP2 SWAP1 PUSH2 0x2D2D JUMP JUMPDEST POP PUSH32 0x824A3F3055C070014BC7157744915537C646AE1A287C988D79EC124D88938E94 DUP2 PUSH1 0x40 MLOAD PUSH2 0x1DE2 SWAP2 SWAP1 PUSH2 0x338B JUMP JUMPDEST PUSH1 0x40 MLOAD DUP1 SWAP2 SUB SWAP1 LOG1 POP JUMP JUMPDEST CALLER PUSH20 0xFFFFFFFFFFFFFFFFFFFFFFFFFFFFFFFFFFFFFFFF AND PUSH1 0x4 PUSH1 0x0 SWAP1 SLOAD SWAP1 PUSH2 0x100 EXP SWAP1 DIV PUSH20 0xFFFFFFFFFFFFFFFFFFFFFFFFFFFFFFFFFFFFFFFF AND PUSH20 0xFFFFFFFFFFFFFFFFFFFFFFFFFFFFFFFFFFFFFFFF AND EQ PUSH2 0x1E7D JUMPI PUSH1 0x40 MLOAD PUSH32 0x8C379A000000000000000000000000000000000000000000000000000000000 DUP2 MSTORE PUSH1 0x4 ADD PUSH2 0x1E74 SWAP1 PUSH2 0x33AD JUMP JUMPDEST PUSH1 0x40 MLOAD DUP1 SWAP2 SUB SWAP1 REVERT JUMPDEST DUP1 PUSH1 0xD SWAP1 DUP1 MLOAD SWAP1 PUSH1 0x20 ADD SWAP1 PUSH2 0x1E93 SWAP3 SWAP2 SWAP1 PUSH2 0x2D2D JUMP JUMPDEST POP PUSH32 0x4295968313E92C7DD40AA9C85BE9B7246FF59503751E11205C85795A2F74FDB3 DUP2 PUSH1 0x40 MLOAD PUSH2 0x1EC3 SWAP2 SWAP1 PUSH2 0x338B JUMP JUMPDEST PUSH1 0x40 MLOAD DUP1 SWAP2 SUB SWAP1 LOG1 POP JUMP JUMPDEST PUSH1 0x3 DUP2 JUMP JUMPDEST PUSH1 0xF DUP1 SLOAD PUSH2 0x1EE0 SWAP1 PUSH2 0x370B JUMP JUMPDEST DUP1 PUSH1 0x1F ADD PUSH1 0x20 DUP1 SWAP2 DIV MUL PUSH1 0x20 ADD PUSH1 0x40 MLOAD SWAP1 DUP2 ADD PUSH1 0x40 MSTORE DUP1 SWAP3 SWAP2 SWAP1 DUP2 DUP2 MSTORE PUSH1 0x20 ADD DUP3 DUP1 SLOAD PUSH2 0x1F0C SWAP1 PUSH2 0x370B JUMP JUMPDEST DUP1 ISZERO PUSH2 0x1F59 JUMPI DUP1 PUSH1 0x1F LT PUSH2 0x1F2E JUMPI PUSH2 0x100 DUP1 DUP4 SLOAD DIV MUL DUP4 MSTORE SWAP2 PUSH1 0x20 ADD SWAP2 PUSH2 0x1F59 JUMP JUMPDEST DUP3 ADD SWAP2 SWAP1 PUSH1 0x0 MSTORE PUSH1 0x20 PUSH1 0x0 KECCAK256 SWAP1 JUMPDEST DUP2 SLOAD DUP2 MSTORE SWAP1 PUSH1 0x1 ADD SWAP1 PUSH1 0x20 ADD DUP1 DUP4 GT PUSH2 0x1F3C JUMPI DUP3 SWAP1 SUB PUSH1 0x1F AND DUP3 ADD SWAP2 JUMPDEST POP POP POP POP POP DUP2 JUMP JUMPDEST CALLER PUSH20 0xFFFFFFFFFFFFFFFFFFFFFFFFFFFFFFFFFFFFFFFF AND PUSH1 0x4 PUSH1 0x0 SWAP1 SLOAD SWAP1 PUSH2 0x100 EXP SWAP1 DIV PUSH20 0xFFFFFFFFFFFFFFFFFFFFFFFFFFFFFFFFFFFFFFFF AND PUSH20 0xFFFFFFFFFFFFFFFFFFFFFFFFFFFFFFFFFFFFFFFF AND EQ PUSH2 0x1FF1 JUMPI PUSH1 0x40 MLOAD PUSH32 0x8C379A000000000000000000000000000000000000000000000000000000000 DUP2 MSTORE PUSH1 0x4 ADD PUSH2 0x1FE8 SWAP1 PUSH2 0x33AD JUMP JUMPDEST PUSH1 0x40 MLOAD DUP1 SWAP2 SUB SWAP1 REVERT JUMPDEST DUP1 PUSH1 0x12 DUP2 SWAP1 SSTORE POP PUSH32 0x50293E6952EAB2F7CF401DE4A51C1918DA86A2BD5A7276A11AE3DD4A549CDE9 DUP2 PUSH1 0x40 MLOAD PUSH2 0x2027 SWAP2 SWAP1 PUSH2 0x34ED JUMP JUMPDEST PUSH1 0x40 MLOAD DUP1 SWAP2 SUB SWAP1 LOG1 POP JUMP JUMPDEST PUSH1 0x6 DUP2 JUMP JUMPDEST CALLER PUSH20 0xFFFFFFFFFFFFFFFFFFFFFFFFFFFFFFFFFFFFFFFF AND PUSH1 0x4 PUSH1 0x0 SWAP1 SLOAD SWAP1 PUSH2 0x100 EXP SWAP1 DIV PUSH20 0xFFFFFFFFFFFFFFFFFFFFFFFFFFFFFFFFFFFFFFFF AND PUSH20 0xFFFFFFFFFFFFFFFFFFFFFFFFFFFFFFFFFFFFFFFF AND EQ PUSH2 0x20C7 JUMPI PUSH1 0x40 MLOAD PUSH32 0x8C379A000000000000000000000000000000000000000000000000000000000 DUP2 MSTORE PUSH1 0x4 ADD PUSH2 0x20BE SWAP1 PUSH2 0x33AD JUMP JUMPDEST PUSH1 0x40 MLOAD DUP1 SWAP2 SUB SWAP1 REVERT JUMPDEST PUSH1 0x1 PUSH1 0x5 PUSH1 0x0 DUP4 PUSH20 0xFFFFFFFFFFFFFFFFFFFFFFFFFFFFFFFFFFFFFFFF AND PUSH20 0xFFFFFFFFFFFFFFFFFFFFFFFFFFFFFFFFFFFFFFFF AND DUP2 MSTORE PUSH1 0x20 ADD SWAP1 DUP2 MSTORE PUSH1 0x20 ADD PUSH1 0x0 KECCAK256 PUSH1 0x0 PUSH2 0x100 EXP DUP2 SLOAD DUP2 PUSH1 0xFF MUL NOT AND SWAP1 DUP4 ISZERO ISZERO MUL OR SWAP1 SSTORE POP PUSH32 0xEA54BDB8A4594AAAC063E3B01AB3E613BF4CB045D085502C81497C9696ACA8B2 DUP2 PUSH1 0x40 MLOAD PUSH2 0x214E SWAP2 SWAP1 PUSH2 0x3355 JUMP JUMPDEST PUSH1 0x40 MLOAD DUP1 SWAP2 SUB SWAP1 LOG1 POP JUMP JUMPDEST PUSH1 0x0 PUSH1 0x12 SLOAD TIMESTAMP LT DUP1 ISZERO PUSH2 0x21BA JUMPI POP PUSH1 0x4 PUSH1 0x0 SWAP1 SLOAD SWAP1 PUSH2 0x100 EXP SWAP1 DIV PUSH20 0xFFFFFFFFFFFFFFFFFFFFFFFFFFFFFFFFFFFFFFFF AND PUSH20 0xFFFFFFFFFFFFFFFFFFFFFFFFFFFFFFFFFFFFFFFF AND DUP5 PUSH20 0xFFFFFFFFFFFFFFFFFFFFFFFFFFFFFFFFFFFFFFFF AND EQ ISZERO JUMPDEST ISZERO PUSH2 0x21C8 JUMPI PUSH1 0x2 SWAP1 POP PUSH2 0x249A JUMP JUMPDEST PUSH1 0x0 DUP3 GT PUSH2 0x21D9 JUMPI PUSH1 0x3 SWAP1 POP PUSH2 0x249A JUMP JUMPDEST PUSH1 0x0 PUSH1 0x1 PUSH1 0x0 DUP7 PUSH20 0xFFFFFFFFFFFFFFFFFFFFFFFFFFFFFFFFFFFFFFFF AND PUSH20 0xFFFFFFFFFFFFFFFFFFFFFFFFFFFFFFFFFFFFFFFF AND DUP2 MSTORE PUSH1 0x20 ADD SWAP1 DUP2 MSTORE PUSH1 0x20 ADD PUSH1 0x0 KECCAK256 SLOAD EQ ISZERO PUSH2 0x222A JUMPI PUSH1 0x4 SWAP1 POP PUSH2 0x249A JUMP JUMPDEST PUSH1 0x0 DUP1 PUSH1 0x0 DUP6 PUSH20 0xFFFFFFFFFFFFFFFFFFFFFFFFFFFFFFFFFFFFFFFF AND PUSH20 0xFFFFFFFFFFFFFFFFFFFFFFFFFFFFFFFFFFFFFFFF AND DUP2 MSTORE PUSH1 0x20 ADD SWAP1 DUP2 MSTORE PUSH1 0x20 ADD PUSH1 0x0 KECCAK256 SLOAD EQ ISZERO PUSH2 0x227A JUMPI PUSH1 0x5 SWAP1 POP PUSH2 0x249A JUMP JUMPDEST TIMESTAMP PUSH1 0x1 PUSH1 0x0 DUP7 PUSH20 0xFFFFFFFFFFFFFFFFFFFFFFFFFFFFFFFFFFFFFFFF AND PUSH20 0xFFFFFFFFFFFFFFFFFFFFFFFFFFFFFFFFFFFFFFFF AND DUP2 MSTORE PUSH1 0x20 ADD SWAP1 DUP2 MSTORE PUSH1 0x20 ADD PUSH1 0x0 KECCAK256 SLOAD GT ISZERO PUSH2 0x22CA JUMPI PUSH1 0x6 SWAP1 POP PUSH2 0x249A JUMP JUMPDEST TIMESTAMP PUSH1 0x0 DUP1 DUP6 PUSH20 0xFFFFFFFFFFFFFFFFFFFFFFFFFFFFFFFFFFFFFFFF AND PUSH20 0xFFFFFFFFFFFFFFFFFFFFFFFFFFFFFFFFFFFFFFFF AND DUP2 MSTORE PUSH1 0x20 ADD SWAP1 DUP2 MSTORE PUSH1 0x20 ADD PUSH1 0x0 KECCAK256 SLOAD GT ISZERO PUSH2 0x2319 JUMPI PUSH1 0x7 SWAP1 POP PUSH2 0x249A JUMP JUMPDEST PUSH1 0x0 PUSH1 0x11 SLOAD EQ ISZERO PUSH2 0x232D JUMPI PUSH1 0x0 SWAP1 POP PUSH2 0x249A JUMP JUMPDEST PUSH1 0x0 PUSH1 0x2 PUSH1 0x0 DUP6 PUSH20 0xFFFFFFFFFFFFFFFFFFFFFFFFFFFFFFFFFFFFFFFF AND PUSH20 0xFFFFFFFFFFFFFFFFFFFFFFFFFFFFFFFFFFFFFFFF AND DUP2 MSTORE PUSH1 0x20 ADD SWAP1 DUP2 MSTORE PUSH1 0x20 ADD PUSH1 0x0 KECCAK256 SLOAD GT DUP1 PUSH2 0x23C8 JUMPI POP PUSH1 0x4 PUSH1 0x0 SWAP1 SLOAD SWAP1 PUSH2 0x100 EXP SWAP1 DIV PUSH20 0xFFFFFFFFFFFFFFFFFFFFFFFFFFFFFFFFFFFFFFFF AND PUSH20 0xFFFFFFFFFFFFFFFFFFFFFFFFFFFFFFFFFFFFFFFF AND DUP4 PUSH20 0xFFFFFFFFFFFFFFFFFFFFFFFFFFFFFFFFFFFFFFFF AND EQ JUMPDEST ISZERO PUSH2 0x23D6 JUMPI PUSH1 0x0 SWAP1 POP PUSH2 0x249A JUMP JUMPDEST PUSH1 0x11 SLOAD PUSH1 0x10 SLOAD LT ISZERO PUSH2 0x23EB JUMPI PUSH1 0x0 SWAP1 POP PUSH2 0x249A JUMP JUMPDEST DUP2 PUSH1 0x2 PUSH1 0x0 DUP7 PUSH20 0xFFFFFFFFFFFFFFFFFFFFFFFFFFFFFFFFFFFFFFFF AND PUSH20 0xFFFFFFFFFFFFFFFFFFFFFFFFFFFFFFFFFFFFFFFF AND DUP2 MSTORE PUSH1 0x20 ADD SWAP1 DUP2 MSTORE PUSH1 0x20 ADD PUSH1 0x0 KECCAK256 SLOAD EQ DUP1 ISZERO PUSH2 0x2487 JUMPI POP PUSH1 0x4 PUSH1 0x0 SWAP1 SLOAD SWAP1 PUSH2 0x100 EXP SWAP1 DIV PUSH20 0xFFFFFFFFFFFFFFFFFFFFFFFFFFFFFFFFFFFFFFFF AND PUSH20 0xFFFFFFFFFFFFFFFFFFFFFFFFFFFFFFFFFFFFFFFF AND DUP5 PUSH20 0xFFFFFFFFFFFFFFFFFFFFFFFFFFFFFFFFFFFFFFFF AND EQ ISZERO JUMPDEST ISZERO PUSH2 0x2495 JUMPI PUSH1 0x0 SWAP1 POP PUSH2 0x249A JUMP JUMPDEST PUSH1 0x1 SWAP1 POP JUMPDEST SWAP4 SWAP3 POP POP POP JUMP JUMPDEST CALLER PUSH20 0xFFFFFFFFFFFFFFFFFFFFFFFFFFFFFFFFFFFFFFFF AND PUSH1 0x4 PUSH1 0x0 SWAP1 SLOAD SWAP1 PUSH2 0x100 EXP SWAP1 DIV PUSH20 0xFFFFFFFFFFFFFFFFFFFFFFFFFFFFFFFFFFFFFFFF AND PUSH20 0xFFFFFFFFFFFFFFFFFFFFFFFFFFFFFFFFFFFFFFFF AND EQ PUSH2 0x2531 JUMPI PUSH1 0x40 MLOAD PUSH32 0x8C379A000000000000000000000000000000000000000000000000000000000 DUP2 MSTORE PUSH1 0x4 ADD PUSH2 0x2528 SWAP1 PUSH2 0x33AD JUMP JUMPDEST PUSH1 0x40 MLOAD DUP1 SWAP2 SUB SWAP1 REVERT JUMPDEST PUSH1 0x5 PUSH1 0x0 DUP3 PUSH20 0xFFFFFFFFFFFFFFFFFFFFFFFFFFFFFFFFFFFFFFFF AND PUSH20 0xFFFFFFFFFFFFFFFFFFFFFFFFFFFFFFFFFFFFFFFF AND DUP2 MSTORE PUSH1 0x20 ADD SWAP1 DUP2 MSTORE PUSH1 0x20 ADD PUSH1 0x0 KECCAK256 PUSH1 0x0 PUSH2 0x100 EXP DUP2 SLOAD SWAP1 PUSH1 0xFF MUL NOT AND SWAP1 SSTORE PUSH32 0x24546DC0F5DF685D7C979EDD1B0BCC4D85AC6A59974976D7217C9F0D930D3FF0 DUP2 PUSH1 0x40 MLOAD PUSH2 0x25AF SWAP2 SWAP1 PUSH2 0x3355 JUMP JUMPDEST PUSH1 0x40 MLOAD DUP1 SWAP2 SUB SWAP1 LOG1 POP JUMP JUMPDEST PUSH1 0x0 PUSH1 0x3 PUSH1 0x0 DUP5 PUSH20 0xFFFFFFFFFFFFFFFFFFFFFFFFFFFFFFFFFFFFFFFF AND PUSH20 0xFFFFFFFFFFFFFFFFFFFFFFFFFFFFFFFFFFFFFFFF AND DUP2 MSTORE PUSH1 0x20 ADD SWAP1 DUP2 MSTORE PUSH1 0x20 ADD PUSH1 0x0 KECCAK256 PUSH1 0x0 DUP4 PUSH20 0xFFFFFFFFFFFFFFFFFFFFFFFFFFFFFFFFFFFFFFFF AND PUSH20 0xFFFFFFFFFFFFFFFFFFFFFFFFFFFFFFFFFFFFFFFF AND DUP2 MSTORE PUSH1 0x20 ADD SWAP1 DUP2 MSTORE PUSH1 0x20 ADD PUSH1 0x0 KECCAK256 SLOAD SWAP1 POP SWAP3 SWAP2 POP POP JUMP JUMPDEST PUSH1 0x7 DUP2 JUMP JUMPDEST PUSH1 0x0 PUSH1 0x5 PUSH1 0x0 DUP4 PUSH20 0xFFFFFFFFFFFFFFFFFFFFFFFFFFFFFFFFFFFFFFFF AND PUSH20 0xFFFFFFFFFFFFFFFFFFFFFFFFFFFFFFFFFFFFFFFF AND DUP2 MSTORE PUSH1 0x20 ADD SWAP1 DUP2 MSTORE PUSH1 0x20 ADD PUSH1 0x0 KECCAK256 PUSH1 0x0 SWAP1 SLOAD SWAP1 PUSH2 0x100 EXP SWAP1 DIV PUSH1 0xFF AND SWAP1 POP SWAP2 SWAP1 POP JUMP JUMPDEST CALLER PUSH20 0xFFFFFFFFFFFFFFFFFFFFFFFFFFFFFFFFFFFFFFFF AND PUSH1 0x4 PUSH1 0x0 SWAP1 SLOAD SWAP1 PUSH2 0x100 EXP SWAP1 DIV PUSH20 0xFFFFFFFFFFFFFFFFFFFFFFFFFFFFFFFFFFFFFFFF AND PUSH20 0xFFFFFFFFFFFFFFFFFFFFFFFFFFFFFFFFFFFFFFFF AND EQ PUSH2 0x272C JUMPI PUSH1 0x40 MLOAD PUSH32 0x8C379A000000000000000000000000000000000000000000000000000000000 DUP2 MSTORE PUSH1 0x4 ADD PUSH2 0x2723 SWAP1 PUSH2 0x33AD JUMP JUMPDEST PUSH1 0x40 MLOAD DUP1 SWAP2 SUB SWAP1 REVERT JUMPDEST PUSH1 0x0 PUSH20 0xFFFFFFFFFFFFFFFFFFFFFFFFFFFFFFFFFFFFFFFF AND DUP2 PUSH20 0xFFFFFFFFFFFFFFFFFFFFFFFFFFFFFFFFFFFFFFFF AND EQ ISZERO PUSH2 0x279C JUMPI PUSH1 0x40 MLOAD PUSH32 0x8C379A000000000000000000000000000000000000000000000000000000000 DUP2 MSTORE PUSH1 0x4 ADD PUSH2 0x2793 SWAP1 PUSH2 0x344D JUMP JUMPDEST PUSH1 0x40 MLOAD DUP1 SWAP2 SUB SWAP1 REVERT JUMPDEST DUP1 PUSH1 0x4 PUSH1 0x0 PUSH2 0x100 EXP DUP2 SLOAD DUP2 PUSH20 0xFFFFFFFFFFFFFFFFFFFFFFFFFFFFFFFFFFFFFFFF MUL NOT AND SWAP1 DUP4 PUSH20 0xFFFFFFFFFFFFFFFFFFFFFFFFFFFFFFFFFFFFFFFF AND MUL OR SWAP1 SSTORE POP POP JUMP JUMPDEST PUSH1 0x5 DUP2 JUMP JUMPDEST PUSH1 0x0 DUP1 PUSH1 0x0 DUP6 PUSH20 0xFFFFFFFFFFFFFFFFFFFFFFFFFFFFFFFFFFFFFFFF AND PUSH20 0xFFFFFFFFFFFFFFFFFFFFFFFFFFFFFFFFFFFFFFFF AND DUP2 MSTORE PUSH1 0x20 ADD SWAP1 DUP2 MSTORE PUSH1 0x20 ADD PUSH1 0x0 KECCAK256 SLOAD SWAP1 POP PUSH1 0x0 PUSH1 0x1 PUSH1 0x0 DUP7 PUSH20 0xFFFFFFFFFFFFFFFFFFFFFFFFFFFFFFFFFFFFFFFF AND PUSH20 0xFFFFFFFFFFFFFFFFFFFFFFFFFFFFFFFFFFFFFFFF AND DUP2 MSTORE PUSH1 0x20 ADD SWAP1 DUP2 MSTORE PUSH1 0x20 ADD PUSH1 0x0 KECCAK256 SLOAD SWAP1 POP DUP4 PUSH1 0x0 DUP1 DUP8 PUSH20 0xFFFFFFFFFFFFFFFFFFFFFFFFFFFFFFFFFFFFFFFF AND PUSH20 0xFFFFFFFFFFFFFFFFFFFFFFFFFFFFFFFFFFFFFFFF AND DUP2 MSTORE PUSH1 0x20 ADD SWAP1 DUP2 MSTORE PUSH1 0x20 ADD PUSH1 0x0 KECCAK256 DUP2 SWAP1 SSTORE POP DUP3 PUSH1 0x1 PUSH1 0x0 DUP8 PUSH20 0xFFFFFFFFFFFFFFFFFFFFFFFFFFFFFFFFFFFFFFFF AND PUSH20 0xFFFFFFFFFFFFFFFFFFFFFFFFFFFFFFFFFFFFFFFF AND DUP2 MSTORE PUSH1 0x20 ADD SWAP1 DUP2 MSTORE PUSH1 0x20 ADD PUSH1 0x0 KECCAK256 DUP2 SWAP1 SSTORE POP PUSH1 0x0 DUP3 EQ DUP1 ISZERO PUSH2 0x2903 JUMPI POP PUSH1 0x0 DUP2 EQ JUMPDEST ISZERO PUSH2 0x295D JUMPI DUP5 PUSH20 0xFFFFFFFFFFFFFFFFFFFFFFFFFFFFFFFFFFFFFFFF AND PUSH32 0xC78EE1DE8EB00C83BAA5F9BF324F00DD286B754A3826292DE51C92C3E7A0CAB5 DUP6 DUP6 PUSH1 0x40 MLOAD PUSH2 0x2950 SWAP3 SWAP2 SWAP1 PUSH2 0x3508 JUMP JUMPDEST PUSH1 0x40 MLOAD DUP1 SWAP2 SUB SWAP1 LOG2 PUSH2 0x29AE JUMP JUMPDEST DUP5 PUSH20 0xFFFFFFFFFFFFFFFFFFFFFFFFFFFFFFFFFFFFFFFF AND PUSH32 0x50FC162609DB30A736355688F8F60BAAB2991BEBB40A6D50ED93371A95493616 DUP6 DUP6 PUSH1 0x40 MLOAD PUSH2 0x29A5 SWAP3 SWAP2 SWAP1 PUSH2 0x3508 JUMP JUMPDEST PUSH1 0x40 MLOAD DUP1 SWAP2 SUB SWAP1 LOG2 JUMPDEST POP POP POP POP POP JUMP JUMPDEST DUP1 PUSH1 0x2 PUSH1 0x0 DUP6 PUSH20 0xFFFFFFFFFFFFFFFFFFFFFFFFFFFFFFFFFFFFFFFF AND PUSH20 0xFFFFFFFFFFFFFFFFFFFFFFFFFFFFFFFFFFFFFFFF AND DUP2 MSTORE PUSH1 0x20 ADD SWAP1 DUP2 MSTORE PUSH1 0x20 ADD PUSH1 0x0 KECCAK256 SLOAD LT ISZERO PUSH2 0x2A37 JUMPI PUSH1 0x40 MLOAD PUSH32 0x8C379A000000000000000000000000000000000000000000000000000000000 DUP2 MSTORE PUSH1 0x4 ADD PUSH2 0x2A2E SWAP1 PUSH2 0x348D JUMP JUMPDEST PUSH1 0x40 MLOAD DUP1 SWAP2 SUB SWAP1 REVERT JUMPDEST DUP1 PUSH1 0x2 PUSH1 0x0 DUP6 PUSH20 0xFFFFFFFFFFFFFFFFFFFFFFFFFFFFFFFFFFFFFFFF AND PUSH20 0xFFFFFFFFFFFFFFFFFFFFFFFFFFFFFFFFFFFFFFFF AND DUP2 MSTORE PUSH1 0x20 ADD SWAP1 DUP2 MSTORE PUSH1 0x20 ADD PUSH1 0x0 KECCAK256 SLOAD PUSH2 0x2A82 SWAP2 SWAP1 PUSH2 0x3640 JUMP JUMPDEST PUSH1 0x2 PUSH1 0x0 DUP6 PUSH20 0xFFFFFFFFFFFFFFFFFFFFFFFFFFFFFFFFFFFFFFFF AND PUSH20 0xFFFFFFFFFFFFFFFFFFFFFFFFFFFFFFFFFFFFFFFF AND DUP2 MSTORE PUSH1 0x20 ADD SWAP1 DUP2 MSTORE PUSH1 0x20 ADD PUSH1 0x0 KECCAK256 DUP2 SWAP1 SSTORE POP PUSH1 0x0 PUSH1 0x2 PUSH1 0x0 DUP6 PUSH20 0xFFFFFFFFFFFFFFFFFFFFFFFFFFFFFFFFFFFFFFFF AND PUSH20 0xFFFFFFFFFFFFFFFFFFFFFFFFFFFFFFFFFFFFFFFF AND DUP2 MSTORE PUSH1 0x20 ADD SWAP1 DUP2 MSTORE PUSH1 0x20 ADD PUSH1 0x0 KECCAK256 SLOAD EQ DUP1 ISZERO PUSH2 0x2B62 JUMPI POP PUSH1 0x4 PUSH1 0x0 SWAP1 SLOAD SWAP1 PUSH2 0x100 EXP SWAP1 DIV PUSH20 0xFFFFFFFFFFFFFFFFFFFFFFFFFFFFFFFFFFFFFFFF AND PUSH20 0xFFFFFFFFFFFFFFFFFFFFFFFFFFFFFFFFFFFFFFFF AND DUP4 PUSH20 0xFFFFFFFFFFFFFFFFFFFFFFFFFFFFFFFFFFFFFFFF AND EQ ISZERO JUMPDEST ISZERO PUSH2 0x2B7D JUMPI PUSH1 0x1 PUSH1 0x10 SLOAD PUSH2 0x2B76 SWAP2 SWAP1 PUSH2 0x3640 JUMP JUMPDEST PUSH1 0x10 DUP2 SWAP1 SSTORE POP JUMPDEST PUSH1 0x0 PUSH1 0x2 PUSH1 0x0 DUP5 PUSH20 0xFFFFFFFFFFFFFFFFFFFFFFFFFFFFFFFFFFFFFFFF AND PUSH20 0xFFFFFFFFFFFFFFFFFFFFFFFFFFFFFFFFFFFFFFFF AND DUP2 MSTORE PUSH1 0x20 ADD SWAP1 DUP2 MSTORE PUSH1 0x20 ADD PUSH1 0x0 KECCAK256 SLOAD EQ DUP1 ISZERO PUSH2 0x2C1A JUMPI POP PUSH1 0x4 PUSH1 0x0 SWAP1 SLOAD SWAP1 PUSH2 0x100 EXP SWAP1 DIV PUSH20 0xFFFFFFFFFFFFFFFFFFFFFFFFFFFFFFFFFFFFFFFF AND PUSH20 0xFFFFFFFFFFFFFFFFFFFFFFFFFFFFFFFFFFFFFFFF AND DUP3 PUSH20 0xFFFFFFFFFFFFFFFFFFFFFFFFFFFFFFFFFFFFFFFF AND EQ ISZERO JUMPDEST ISZERO PUSH2 0x2C35 JUMPI PUSH1 0x1 PUSH1 0x10 SLOAD PUSH2 0x2C2E SWAP2 SWAP1 PUSH2 0x35EA JUMP JUMPDEST PUSH1 0x10 DUP2 SWAP1 SSTORE POP JUMPDEST DUP1 PUSH1 0x2 PUSH1 0x0 DUP5 PUSH20 0xFFFFFFFFFFFFFFFFFFFFFFFFFFFFFFFFFFFFFFFF AND PUSH20 0xFFFFFFFFFFFFFFFFFFFFFFFFFFFFFFFFFFFFFFFF AND DUP2 MSTORE PUSH1 0x20 ADD SWAP1 DUP2 MSTORE PUSH1 0x20 ADD PUSH1 0x0 KECCAK256 SLOAD PUSH2 0x2C80 SWAP2 SWAP1 PUSH2 0x35EA JUMP JUMPDEST PUSH1 0x2 PUSH1 0x0 DUP5 PUSH20 0xFFFFFFFFFFFFFFFFFFFFFFFFFFFFFFFFFFFFFFFF AND PUSH20 0xFFFFFFFFFFFFFFFFFFFFFFFFFFFFFFFFFFFFFFFF AND DUP2 MSTORE PUSH1 0x20 ADD SWAP1 DUP2 MSTORE PUSH1 0x20 ADD PUSH1 0x0 KECCAK256 DUP2 SWAP1 SSTORE POP DUP2 PUSH20 0xFFFFFFFFFFFFFFFFFFFFFFFFFFFFFFFFFFFFFFFF AND DUP4 PUSH20 0xFFFFFFFFFFFFFFFFFFFFFFFFFFFFFFFFFFFFFFFF AND PUSH32 0xDDF252AD1BE2C89B69C2B068FC378DAA952BA7F163C4A11628F55A4DF523B3EF DUP4 PUSH1 0x40 MLOAD PUSH2 0x2D20 SWAP2 SWAP1 PUSH2 0x34ED JUMP JUMPDEST PUSH1 0x40 MLOAD DUP1 SWAP2 SUB SWAP1 LOG3 POP POP POP JUMP JUMPDEST DUP3 DUP1 SLOAD PUSH2 0x2D39 SWAP1 PUSH2 0x370B JUMP JUMPDEST SWAP1 PUSH1 0x0 MSTORE PUSH1 0x20 PUSH1 0x0 KECCAK256 SWAP1 PUSH1 0x1F ADD PUSH1 0x20 SWAP1 DIV DUP2 ADD SWAP3 DUP3 PUSH2 0x2D5B JUMPI PUSH1 0x0 DUP6 SSTORE PUSH2 0x2DA2 JUMP JUMPDEST DUP3 PUSH1 0x1F LT PUSH2 0x2D74 JUMPI DUP1 MLOAD PUSH1 0xFF NOT AND DUP4 DUP1 ADD OR DUP6 SSTORE PUSH2 0x2DA2 JUMP JUMPDEST DUP3 DUP1 ADD PUSH1 0x1 ADD DUP6 SSTORE DUP3 ISZERO PUSH2 0x2DA2 JUMPI SWAP2 DUP3 ADD JUMPDEST DUP3 DUP2 GT ISZERO PUSH2 0x2DA1 JUMPI DUP3 MLOAD DUP3 SSTORE SWAP2 PUSH1 0x20 ADD SWAP2 SWAP1 PUSH1 0x1 ADD SWAP1 PUSH2 0x2D86 JUMP JUMPDEST JUMPDEST POP SWAP1 POP PUSH2 0x2DAF SWAP2 SWAP1 PUSH2 0x2DB3 JUMP JUMPDEST POP SWAP1 JUMP JUMPDEST JUMPDEST DUP1 DUP3 GT ISZERO PUSH2 0x2DCC JUMPI PUSH1 0x0 DUP2 PUSH1 0x0 SWAP1 SSTORE POP PUSH1 0x1 ADD PUSH2 0x2DB4 JUMP JUMPDEST POP SWAP1 JUMP JUMPDEST PUSH1 0x0 PUSH2 0x2DE3 PUSH2 0x2DDE DUP5 PUSH2 0x3571 JUMP JUMPDEST PUSH2 0x354C JUMP JUMPDEST SWAP1 POP DUP1 DUP4 DUP3 MSTORE PUSH1 0x20 DUP3 ADD SWAP1 POP DUP3 DUP6 PUSH1 0x20 DUP7 MUL DUP3 ADD GT ISZERO PUSH2 0x2E06 JUMPI PUSH2 0x2E05 PUSH2 0x3878 JUMP JUMPDEST JUMPDEST PUSH1 0x0 JUMPDEST DUP6 DUP2 LT ISZERO PUSH2 0x2E36 JUMPI DUP2 PUSH2 0x2E1C DUP9 DUP3 PUSH2 0x2E82 JUMP JUMPDEST DUP5 MSTORE PUSH1 0x20 DUP5 ADD SWAP4 POP PUSH1 0x20 DUP4 ADD SWAP3 POP POP PUSH1 0x1 DUP2 ADD SWAP1 POP PUSH2 0x2E09 JUMP JUMPDEST POP POP POP SWAP4 SWAP3 POP POP POP JUMP JUMPDEST PUSH1 0x0 PUSH2 0x2E53 PUSH2 0x2E4E DUP5 PUSH2 0x359D JUMP JUMPDEST PUSH2 0x354C JUMP JUMPDEST SWAP1 POP DUP3 DUP2 MSTORE PUSH1 0x20 DUP2 ADD DUP5 DUP5 DUP5 ADD GT ISZERO PUSH2 0x2E6F JUMPI PUSH2 0x2E6E PUSH2 0x387D JUMP JUMPDEST JUMPDEST PUSH2 0x2E7A DUP5 DUP3 DUP6 PUSH2 0x36C9 JUMP JUMPDEST POP SWAP4 SWAP3 POP POP POP JUMP JUMPDEST PUSH1 0x0 DUP2 CALLDATALOAD SWAP1 POP PUSH2 0x2E91 DUP2 PUSH2 0x3BB3 JUMP JUMPDEST SWAP3 SWAP2 POP POP JUMP JUMPDEST PUSH1 0x0 DUP3 PUSH1 0x1F DUP4 ADD SLT PUSH2 0x2EAC JUMPI PUSH2 0x2EAB PUSH2 0x3873 JUMP JUMPDEST JUMPDEST DUP2 CALLDATALOAD PUSH2 0x2EBC DUP5 DUP3 PUSH1 0x20 DUP7 ADD PUSH2 0x2DD0 JUMP JUMPDEST SWAP2 POP POP SWAP3 SWAP2 POP POP JUMP JUMPDEST PUSH1 0x0 DUP3 PUSH1 0x1F DUP4 ADD SLT PUSH2 0x2EDA JUMPI PUSH2 0x2ED9 PUSH2 0x3873 JUMP JUMPDEST JUMPDEST DUP2 CALLDATALOAD PUSH2 0x2EEA DUP5 DUP3 PUSH1 0x20 DUP7 ADD PUSH2 0x2E40 JUMP JUMPDEST SWAP2 POP POP SWAP3 SWAP2 POP POP JUMP JUMPDEST PUSH1 0x0 DUP2 CALLDATALOAD SWAP1 POP PUSH2 0x2F02 DUP2 PUSH2 0x3BCA JUMP JUMPDEST SWAP3 SWAP2 POP POP JUMP JUMPDEST PUSH1 0x0 DUP2 CALLDATALOAD SWAP1 POP PUSH2 0x2F17 DUP2 PUSH2 0x3BE1 JUMP JUMPDEST SWAP3 SWAP2 POP POP JUMP JUMPDEST PUSH1 0x0 PUSH1 0x20 DUP3 DUP5 SUB SLT ISZERO PUSH2 0x2F33 JUMPI PUSH2 0x2F32 PUSH2 0x3887 JUMP JUMPDEST JUMPDEST PUSH1 0x0 PUSH2 0x2F41 DUP5 DUP3 DUP6 ADD PUSH2 0x2E82 JUMP JUMPDEST SWAP2 POP POP SWAP3 SWAP2 POP POP JUMP JUMPDEST PUSH1 0x0 DUP1 PUSH1 0x40 DUP4 DUP6 SUB SLT ISZERO PUSH2 0x2F61 JUMPI PUSH2 0x2F60 PUSH2 0x3887 JUMP JUMPDEST JUMPDEST PUSH1 0x0 PUSH2 0x2F6F DUP6 DUP3 DUP7 ADD PUSH2 0x2E82 JUMP JUMPDEST SWAP3 POP POP PUSH1 0x20 PUSH2 0x2F80 DUP6 DUP3 DUP7 ADD PUSH2 0x2E82 JUMP JUMPDEST SWAP2 POP POP SWAP3 POP SWAP3 SWAP1 POP JUMP JUMPDEST PUSH1 0x0 DUP1 PUSH1 0x0 PUSH1 0x60 DUP5 DUP7 SUB SLT ISZERO PUSH2 0x2FA3 JUMPI PUSH2 0x2FA2 PUSH2 0x3887 JUMP JUMPDEST JUMPDEST PUSH1 0x0 PUSH2 0x2FB1 DUP7 DUP3 DUP8 ADD PUSH2 0x2E82 JUMP JUMPDEST SWAP4 POP POP PUSH1 0x20 PUSH2 0x2FC2 DUP7 DUP3 DUP8 ADD PUSH2 0x2E82 JUMP JUMPDEST SWAP3 POP POP PUSH1 0x40 PUSH2 0x2FD3 DUP7 DUP3 DUP8 ADD PUSH2 0x2EF3 JUMP JUMPDEST SWAP2 POP POP SWAP3 POP SWAP3 POP SWAP3 JUMP JUMPDEST PUSH1 0x0 DUP1 PUSH1 0x40 DUP4 DUP6 SUB SLT ISZERO PUSH2 0x2FF4 JUMPI PUSH2 0x2FF3 PUSH2 0x3887 JUMP JUMPDEST JUMPDEST PUSH1 0x0 PUSH2 0x3002 DUP6 DUP3 DUP7 ADD PUSH2 0x2E82 JUMP JUMPDEST SWAP3 POP POP PUSH1 0x20 PUSH2 0x3013 DUP6 DUP3 DUP7 ADD PUSH2 0x2EF3 JUMP JUMPDEST SWAP2 POP POP SWAP3 POP SWAP3 SWAP1 POP JUMP JUMPDEST PUSH1 0x0 DUP1 PUSH1 0x0 PUSH1 0x60 DUP5 DUP7 SUB SLT ISZERO PUSH2 0x3036 JUMPI PUSH2 0x3035 PUSH2 0x3887 JUMP JUMPDEST JUMPDEST PUSH1 0x0 PUSH2 0x3044 DUP7 DUP3 DUP8 ADD PUSH2 0x2E82 JUMP JUMPDEST SWAP4 POP POP PUSH1 0x20 PUSH2 0x3055 DUP7 DUP3 DUP8 ADD PUSH2 0x2EF3 JUMP JUMPDEST SWAP3 POP POP PUSH1 0x40 PUSH2 0x3066 DUP7 DUP3 DUP8 ADD PUSH2 0x2EF3 JUMP JUMPDEST SWAP2 POP POP SWAP3 POP SWAP3 POP SWAP3 JUMP JUMPDEST PUSH1 0x0 DUP1 PUSH1 0x0 PUSH1 0x60 DUP5 DUP7 SUB SLT ISZERO PUSH2 0x3089 JUMPI PUSH2 0x3088 PUSH2 0x3887 JUMP JUMPDEST JUMPDEST PUSH1 0x0 DUP5 ADD CALLDATALOAD PUSH8 0xFFFFFFFFFFFFFFFF DUP2 GT ISZERO PUSH2 0x30A7 JUMPI PUSH2 0x30A6 PUSH2 0x3882 JUMP JUMPDEST JUMPDEST PUSH2 0x30B3 DUP7 DUP3 DUP8 ADD PUSH2 0x2E97 JUMP JUMPDEST SWAP4 POP POP PUSH1 0x20 PUSH2 0x30C4 DUP7 DUP3 DUP8 ADD PUSH2 0x2EF3 JUMP JUMPDEST SWAP3 POP POP PUSH1 0x40 PUSH2 0x30D5 DUP7 DUP3 DUP8 ADD PUSH2 0x2EF3 JUMP JUMPDEST SWAP2 POP POP SWAP3 POP SWAP3 POP SWAP3 JUMP JUMPDEST PUSH1 0x0 PUSH1 0x20 DUP3 DUP5 SUB SLT ISZERO PUSH2 0x30F5 JUMPI PUSH2 0x30F4 PUSH2 0x3887 JUMP JUMPDEST JUMPDEST PUSH1 0x0 DUP3 ADD CALLDATALOAD PUSH8 0xFFFFFFFFFFFFFFFF DUP2 GT ISZERO PUSH2 0x3113 JUMPI PUSH2 0x3112 PUSH2 0x3882 JUMP JUMPDEST JUMPDEST PUSH2 0x311F DUP5 DUP3 DUP6 ADD PUSH2 0x2EC5 JUMP JUMPDEST SWAP2 POP POP SWAP3 SWAP2 POP POP JUMP JUMPDEST PUSH1 0x0 PUSH1 0x20 DUP3 DUP5 SUB SLT ISZERO PUSH2 0x313E JUMPI PUSH2 0x313D PUSH2 0x3887 JUMP JUMPDEST JUMPDEST PUSH1 0x0 PUSH2 0x314C DUP5 DUP3 DUP6 ADD PUSH2 0x2EF3 JUMP JUMPDEST SWAP2 POP POP SWAP3 SWAP2 POP POP JUMP JUMPDEST PUSH1 0x0 PUSH1 0x20 DUP3 DUP5 SUB SLT ISZERO PUSH2 0x316B JUMPI PUSH2 0x316A PUSH2 0x3887 JUMP JUMPDEST JUMPDEST PUSH1 0x0 PUSH2 0x3179 DUP5 DUP3 DUP6 ADD PUSH2 0x2F08 JUMP JUMPDEST SWAP2 POP POP SWAP3 SWAP2 POP POP JUMP JUMPDEST PUSH2 0x318B DUP2 PUSH2 0x3674 JUMP JUMPDEST DUP3 MSTORE POP POP JUMP JUMPDEST PUSH2 0x319A DUP2 PUSH2 0x3686 JUMP JUMPDEST DUP3 MSTORE POP POP JUMP JUMPDEST PUSH1 0x0 PUSH2 0x31AB DUP3 PUSH2 0x35CE JUMP JUMPDEST PUSH2 0x31B5 DUP2 DUP6 PUSH2 0x35D9 JUMP JUMPDEST SWAP4 POP PUSH2 0x31C5 DUP2 DUP6 PUSH1 0x20 DUP7 ADD PUSH2 0x36D8 JUMP JUMPDEST PUSH2 0x31CE DUP2 PUSH2 0x388C JUMP JUMPDEST DUP5 ADD SWAP2 POP POP SWAP3 SWAP2 POP POP JUMP JUMPDEST PUSH1 0x0 PUSH2 0x31E6 PUSH1 0x21 DUP4 PUSH2 0x35D9 JUMP JUMPDEST SWAP2 POP PUSH2 0x31F1 DUP3 PUSH2 0x389D JUMP JUMPDEST PUSH1 0x40 DUP3 ADD SWAP1 POP SWAP2 SWAP1 POP JUMP JUMPDEST PUSH1 0x0 PUSH2 0x3209 PUSH1 0x23 DUP4 PUSH2 0x35D9 JUMP JUMPDEST SWAP2 POP PUSH2 0x3214 DUP3 PUSH2 0x38EC JUMP JUMPDEST PUSH1 0x40 DUP3 ADD SWAP1 POP SWAP2 SWAP1 POP JUMP JUMPDEST PUSH1 0x0 PUSH2 0x322C PUSH1 0x17 DUP4 PUSH2 0x35D9 JUMP JUMPDEST SWAP2 POP PUSH2 0x3237 DUP3 PUSH2 0x393B JUMP JUMPDEST PUSH1 0x20 DUP3 ADD SWAP1 POP SWAP2 SWAP1 POP JUMP JUMPDEST PUSH1 0x0 PUSH2 0x324F PUSH1 0x3B DUP4 PUSH2 0x35D9 JUMP JUMPDEST SWAP2 POP PUSH2 0x325A DUP3 PUSH2 0x3964 JUMP JUMPDEST PUSH1 0x40 DUP3 ADD SWAP1 POP SWAP2 SWAP1 POP JUMP JUMPDEST PUSH1 0x0 PUSH2 0x3272 PUSH1 0x2B DUP4 PUSH2 0x35D9 JUMP JUMPDEST SWAP2 POP PUSH2 0x327D DUP3 PUSH2 0x39B3 JUMP JUMPDEST PUSH1 0x40 DUP3 ADD SWAP1 POP SWAP2 SWAP1 POP JUMP JUMPDEST PUSH1 0x0 PUSH2 0x3295 PUSH1 0x21 DUP4 PUSH2 0x35D9 JUMP JUMPDEST SWAP2 POP PUSH2 0x32A0 DUP3 PUSH2 0x3A02 JUMP JUMPDEST PUSH1 0x40 DUP3 ADD SWAP1 POP SWAP2 SWAP1 POP JUMP JUMPDEST PUSH1 0x0 PUSH2 0x32B8 PUSH1 0x41 DUP4 PUSH2 0x35D9 JUMP JUMPDEST SWAP2 POP PUSH2 0x32C3 DUP3 PUSH2 0x3A51 JUMP JUMPDEST PUSH1 0x60 DUP3 ADD SWAP1 POP SWAP2 SWAP1 POP JUMP JUMPDEST PUSH1 0x0 PUSH2 0x32DB PUSH1 0x3C DUP4 PUSH2 0x35D9 JUMP JUMPDEST SWAP2 POP PUSH2 0x32E6 DUP3 PUSH2 0x3AC6 JUMP JUMPDEST PUSH1 0x40 DUP3 ADD SWAP1 POP SWAP2 SWAP1 POP JUMP JUMPDEST PUSH1 0x0 PUSH2 0x32FE PUSH1 0x38 DUP4 PUSH2 0x35D9 JUMP JUMPDEST SWAP2 POP PUSH2 0x3309 DUP3 PUSH2 0x3B15 JUMP JUMPDEST PUSH1 0x40 DUP3 ADD SWAP1 POP SWAP2 SWAP1 POP JUMP JUMPDEST PUSH1 0x0 PUSH2 0x3321 PUSH1 0x28 DUP4 PUSH2 0x35D9 JUMP JUMPDEST SWAP2 POP PUSH2 0x332C DUP3 PUSH2 0x3B64 JUMP JUMPDEST PUSH1 0x40 DUP3 ADD SWAP1 POP SWAP2 SWAP1 POP JUMP JUMPDEST PUSH2 0x3340 DUP2 PUSH2 0x36B2 JUMP JUMPDEST DUP3 MSTORE POP POP JUMP JUMPDEST PUSH2 0x334F DUP2 PUSH2 0x36BC JUMP JUMPDEST DUP3 MSTORE POP POP JUMP JUMPDEST PUSH1 0x0 PUSH1 0x20 DUP3 ADD SWAP1 POP PUSH2 0x336A PUSH1 0x0 DUP4 ADD DUP5 PUSH2 0x3182 JUMP JUMPDEST SWAP3 SWAP2 POP POP JUMP JUMPDEST PUSH1 0x0 PUSH1 0x20 DUP3 ADD SWAP1 POP PUSH2 0x3385 PUSH1 0x0 DUP4 ADD DUP5 PUSH2 0x3191 JUMP JUMPDEST SWAP3 SWAP2 POP POP JUMP JUMPDEST PUSH1 0x0 PUSH1 0x20 DUP3 ADD SWAP1 POP DUP2 DUP2 SUB PUSH1 0x0 DUP4 ADD MSTORE PUSH2 0x33A5 DUP2 DUP5 PUSH2 0x31A0 JUMP JUMPDEST SWAP1 POP SWAP3 SWAP2 POP POP JUMP JUMPDEST PUSH1 0x0 PUSH1 0x20 DUP3 ADD SWAP1 POP DUP2 DUP2 SUB PUSH1 0x0 DUP4 ADD MSTORE PUSH2 0x33C6 DUP2 PUSH2 0x31D9 JUMP JUMPDEST SWAP1 POP SWAP2 SWAP1 POP JUMP JUMPDEST PUSH1 0x0 PUSH1 0x20 DUP3 ADD SWAP1 POP DUP2 DUP2 SUB PUSH1 0x0 DUP4 ADD MSTORE PUSH2 0x33E6 DUP2 PUSH2 0x31FC JUMP JUMPDEST SWAP1 POP SWAP2 SWAP1 POP JUMP JUMPDEST PUSH1 0x0 PUSH1 0x20 DUP3 ADD SWAP1 POP DUP2 DUP2 SUB PUSH1 0x0 DUP4 ADD MSTORE PUSH2 0x3406 DUP2 PUSH2 0x321F JUMP JUMPDEST SWAP1 POP SWAP2 SWAP1 POP JUMP JUMPDEST PUSH1 0x0 PUSH1 0x20 DUP3 ADD SWAP1 POP DUP2 DUP2 SUB PUSH1 0x0 DUP4 ADD MSTORE PUSH2 0x3426 DUP2 PUSH2 0x3242 JUMP JUMPDEST SWAP1 POP SWAP2 SWAP1 POP JUMP JUMPDEST PUSH1 0x0 PUSH1 0x20 DUP3 ADD SWAP1 POP DUP2 DUP2 SUB PUSH1 0x0 DUP4 ADD MSTORE PUSH2 0x3446 DUP2 PUSH2 0x3265 JUMP JUMPDEST SWAP1 POP SWAP2 SWAP1 POP JUMP JUMPDEST PUSH1 0x0 PUSH1 0x20 DUP3 ADD SWAP1 POP DUP2 DUP2 SUB PUSH1 0x0 DUP4 ADD MSTORE PUSH2 0x3466 DUP2 PUSH2 0x3288 JUMP JUMPDEST SWAP1 POP SWAP2 SWAP1 POP JUMP JUMPDEST PUSH1 0x0 PUSH1 0x20 DUP3 ADD SWAP1 POP DUP2 DUP2 SUB PUSH1 0x0 DUP4 ADD MSTORE PUSH2 0x3486 DUP2 PUSH2 0x32AB JUMP JUMPDEST SWAP1 POP SWAP2 SWAP1 POP JUMP JUMPDEST PUSH1 0x0 PUSH1 0x20 DUP3 ADD SWAP1 POP DUP2 DUP2 SUB PUSH1 0x0 DUP4 ADD MSTORE PUSH2 0x34A6 DUP2 PUSH2 0x32CE JUMP JUMPDEST SWAP1 POP SWAP2 SWAP1 POP JUMP JUMPDEST PUSH1 0x0 PUSH1 0x20 DUP3 ADD SWAP1 POP DUP2 DUP2 SUB PUSH1 0x0 DUP4 ADD MSTORE PUSH2 0x34C6 DUP2 PUSH2 0x32F1 JUMP JUMPDEST SWAP1 POP SWAP2 SWAP1 POP JUMP JUMPDEST PUSH1 0x0 PUSH1 0x20 DUP3 ADD SWAP1 POP DUP2 DUP2 SUB PUSH1 0x0 DUP4 ADD MSTORE PUSH2 0x34E6 DUP2 PUSH2 0x3314 JUMP JUMPDEST SWAP1 POP SWAP2 SWAP1 POP JUMP JUMPDEST PUSH1 0x0 PUSH1 0x20 DUP3 ADD SWAP1 POP PUSH2 0x3502 PUSH1 0x0 DUP4 ADD DUP5 PUSH2 0x3337 JUMP JUMPDEST SWAP3 SWAP2 POP POP JUMP JUMPDEST PUSH1 0x0 PUSH1 0x40 DUP3 ADD SWAP1 POP PUSH2 0x351D PUSH1 0x0 DUP4 ADD DUP6 PUSH2 0x3337 JUMP JUMPDEST PUSH2 0x352A PUSH1 0x20 DUP4 ADD DUP5 PUSH2 0x3337 JUMP JUMPDEST SWAP4 SWAP3 POP POP POP JUMP JUMPDEST PUSH1 0x0 PUSH1 0x20 DUP3 ADD SWAP1 POP PUSH2 0x3546 PUSH1 0x0 DUP4 ADD DUP5 PUSH2 0x3346 JUMP JUMPDEST SWAP3 SWAP2 POP POP JUMP JUMPDEST PUSH1 0x0 PUSH2 0x3556 PUSH2 0x3567 JUMP JUMPDEST SWAP1 POP PUSH2 0x3562 DUP3 DUP3 PUSH2 0x373D JUMP JUMPDEST SWAP2 SWAP1 POP JUMP JUMPDEST PUSH1 0x0 PUSH1 0x40 MLOAD SWAP1 POP SWAP1 JUMP JUMPDEST PUSH1 0x0 PUSH8 0xFFFFFFFFFFFFFFFF DUP3 GT ISZERO PUSH2 0x358C JUMPI PUSH2 0x358B PUSH2 0x3844 JUMP JUMPDEST JUMPDEST PUSH1 0x20 DUP3 MUL SWAP1 POP PUSH1 0x20 DUP2 ADD SWAP1 POP SWAP2 SWAP1 POP JUMP JUMPDEST PUSH1 0x0 PUSH8 0xFFFFFFFFFFFFFFFF DUP3 GT ISZERO PUSH2 0x35B8 JUMPI PUSH2 0x35B7 PUSH2 0x3844 JUMP JUMPDEST JUMPDEST PUSH2 0x35C1 DUP3 PUSH2 0x388C JUMP JUMPDEST SWAP1 POP PUSH1 0x20 DUP2 ADD SWAP1 POP SWAP2 SWAP1 POP JUMP JUMPDEST PUSH1 0x0 DUP2 MLOAD SWAP1 POP SWAP2 SWAP1 POP JUMP JUMPDEST PUSH1 0x0 DUP3 DUP3 MSTORE PUSH1 0x20 DUP3 ADD SWAP1 POP SWAP3 SWAP2 POP POP JUMP JUMPDEST PUSH1 0x0 PUSH2 0x35F5 DUP3 PUSH2 0x36B2 JUMP JUMPDEST SWAP2 POP PUSH2 0x3600 DUP4 PUSH2 0x36B2 JUMP JUMPDEST SWAP3 POP DUP3 PUSH32 0xFFFFFFFFFFFFFFFFFFFFFFFFFFFFFFFFFFFFFFFFFFFFFFFFFFFFFFFFFFFFFFFF SUB DUP3 GT ISZERO PUSH2 0x3635 JUMPI PUSH2 0x3634 PUSH2 0x37B7 JUMP JUMPDEST JUMPDEST DUP3 DUP3 ADD SWAP1 POP SWAP3 SWAP2 POP POP JUMP JUMPDEST PUSH1 0x0 PUSH2 0x364B DUP3 PUSH2 0x36B2 JUMP JUMPDEST SWAP2 POP PUSH2 0x3656 DUP4 PUSH2 0x36B2 JUMP JUMPDEST SWAP3 POP DUP3 DUP3 LT ISZERO PUSH2 0x3669 JUMPI PUSH2 0x3668 PUSH2 0x37B7 JUMP JUMPDEST JUMPDEST DUP3 DUP3 SUB SWAP1 POP SWAP3 SWAP2 POP POP JUMP JUMPDEST PUSH1 0x0 PUSH2 0x367F DUP3 PUSH2 0x3692 JUMP JUMPDEST SWAP1 POP SWAP2 SWAP1 POP JUMP JUMPDEST PUSH1 0x0 DUP2 ISZERO ISZERO SWAP1 POP SWAP2 SWAP1 POP JUMP JUMPDEST PUSH1 0x0 PUSH20 0xFFFFFFFFFFFFFFFFFFFFFFFFFFFFFFFFFFFFFFFF DUP3 AND SWAP1 POP SWAP2 SWAP1 POP JUMP JUMPDEST PUSH1 0x0 DUP2 SWAP1 POP SWAP2 SWAP1 POP JUMP JUMPDEST PUSH1 0x0 PUSH1 0xFF DUP3 AND SWAP1 POP SWAP2 SWAP1 POP JUMP JUMPDEST DUP3 DUP2 DUP4 CALLDATACOPY PUSH1 0x0 DUP4 DUP4 ADD MSTORE POP POP POP JUMP JUMPDEST PUSH1 0x0 JUMPDEST DUP4 DUP2 LT ISZERO PUSH2 0x36F6 JUMPI DUP1 DUP3 ADD MLOAD DUP2 DUP5 ADD MSTORE PUSH1 0x20 DUP2 ADD SWAP1 POP PUSH2 0x36DB JUMP JUMPDEST DUP4 DUP2 GT ISZERO PUSH2 0x3705 JUMPI PUSH1 0x0 DUP5 DUP5 ADD MSTORE JUMPDEST POP POP POP POP JUMP JUMPDEST PUSH1 0x0 PUSH1 0x2 DUP3 DIV SWAP1 POP PUSH1 0x1 DUP3 AND DUP1 PUSH2 0x3723 JUMPI PUSH1 0x7F DUP3 AND SWAP2 POP JUMPDEST PUSH1 0x20 DUP3 LT DUP2 EQ ISZERO PUSH2 0x3737 JUMPI PUSH2 0x3736 PUSH2 0x37E6 JUMP JUMPDEST JUMPDEST POP SWAP2 SWAP1 POP JUMP JUMPDEST PUSH2 0x3746 DUP3 PUSH2 0x388C JUMP JUMPDEST DUP2 ADD DUP2 DUP2 LT PUSH8 0xFFFFFFFFFFFFFFFF DUP3 GT OR ISZERO PUSH2 0x3765 JUMPI PUSH2 0x3764 PUSH2 0x3844 JUMP JUMPDEST JUMPDEST DUP1 PUSH1 0x40 MSTORE POP POP POP JUMP JUMPDEST PUSH1 0x0 PUSH2 0x3779 DUP3 PUSH2 0x36B2 JUMP JUMPDEST SWAP2 POP PUSH32 0xFFFFFFFFFFFFFFFFFFFFFFFFFFFFFFFFFFFFFFFFFFFFFFFFFFFFFFFFFFFFFFFF DUP3 EQ ISZERO PUSH2 0x37AC JUMPI PUSH2 0x37AB PUSH2 0x37B7 JUMP JUMPDEST JUMPDEST PUSH1 0x1 DUP3 ADD SWAP1 POP SWAP2 SWAP1 POP JUMP JUMPDEST PUSH32 0x4E487B7100000000000000000000000000000000000000000000000000000000 PUSH1 0x0 MSTORE PUSH1 0x11 PUSH1 0x4 MSTORE PUSH1 0x24 PUSH1 0x0 REVERT JUMPDEST PUSH32 0x4E487B7100000000000000000000000000000000000000000000000000000000 PUSH1 0x0 MSTORE PUSH1 0x22 PUSH1 0x4 MSTORE PUSH1 0x24 PUSH1 0x0 REVERT JUMPDEST PUSH32 0x4E487B7100000000000000000000000000000000000000000000000000000000 PUSH1 0x0 MSTORE PUSH1 0x32 PUSH1 0x4 MSTORE PUSH1 0x24 PUSH1 0x0 REVERT JUMPDEST PUSH32 0x4E487B7100000000000000000000000000000000000000000000000000000000 PUSH1 0x0 MSTORE PUSH1 0x41 PUSH1 0x4 MSTORE PUSH1 0x24 PUSH1 0x0 REVERT JUMPDEST PUSH1 0x0 DUP1 REVERT JUMPDEST PUSH1 0x0 DUP1 REVERT JUMPDEST PUSH1 0x0 DUP1 REVERT JUMPDEST PUSH1 0x0 DUP1 REVERT JUMPDEST PUSH1 0x0 DUP1 REVERT JUMPDEST PUSH1 0x0 PUSH1 0x1F NOT PUSH1 0x1F DUP4 ADD AND SWAP1 POP SWAP2 SWAP1 POP JUMP JUMPDEST PUSH32 0x4F6E6C79206F776E6572206861732061636365737320746F2066756E6374696F PUSH1 0x0 DUP3 ADD MSTORE PUSH32 0x6E00000000000000000000000000000000000000000000000000000000000000 PUSH1 0x20 DUP3 ADD MSTORE POP JUMP JUMPDEST PUSH32 0x5A65726F2061646472657373206173207370656E646572206E6F7420616C6C6F PUSH1 0x0 DUP3 ADD MSTORE PUSH32 0x7765640000000000000000000000000000000000000000000000000000000000 PUSH1 0x20 DUP3 ADD MSTORE POP JUMP JUMPDEST PUSH32 0x5A65726F20416D6F756E74206E6F7420616C6C6F776564000000000000000000 PUSH1 0x0 DUP3 ADD MSTORE POP JUMP JUMPDEST PUSH32 0x416C6C6F77656420496E766573746F72732063616E6E6F74206265206C657373 PUSH1 0x0 DUP3 ADD MSTORE PUSH32 0x207468616E2063757272656E7420746F6B656E20686F6C646572730000000000 PUSH1 0x20 DUP3 ADD MSTORE POP JUMP JUMPDEST PUSH32 0x4275726E20616D6F756E742069732067726561746572207468616E2061646472 PUSH1 0x0 DUP3 ADD MSTORE PUSH32 0x6573732062616C616E6365000000000000000000000000000000000000000000 PUSH1 0x20 DUP3 ADD MSTORE POP JUMP JUMPDEST PUSH32 0x5A65726F2061646472657373206E6F7420616C6C6F776564206173206F776E65 PUSH1 0x0 DUP3 ADD MSTORE PUSH32 0x7200000000000000000000000000000000000000000000000000000000000000 PUSH1 0x20 DUP3 ADD MSTORE POP JUMP JUMPDEST PUSH32 0x4F6E6C7920617574686F72697A6564206164647265737365732063616E206368 PUSH1 0x0 DUP3 ADD MSTORE PUSH32 0x616E6765204B594320696E666F726D6174696F6E206F6620696E766573746F72 PUSH1 0x20 DUP3 ADD MSTORE PUSH32 0x7300000000000000000000000000000000000000000000000000000000000000 PUSH1 0x40 DUP3 ADD MSTORE POP JUMP JUMPDEST PUSH32 0x53656E64657220697320747279696E6720746F207472616E7366657220616D6F PUSH1 0x0 DUP3 ADD MSTORE PUSH32 0x756E742067726561746572207468616E206869732062616C616E636500000000 PUSH1 0x20 DUP3 ADD MSTORE POP JUMP JUMPDEST PUSH32 0x53656E6465722063616E6E6F74207472616E7366657220616D6F756E74206772 PUSH1 0x0 DUP3 ADD MSTORE PUSH32 0x6561746572207468616E2068697320416C6C6F77616E63650000000000000000 PUSH1 0x20 DUP3 ADD MSTORE POP JUMP JUMPDEST PUSH32 0x546F6B656E732063616E6E6F74206265206D696E74656420666F722061646472 PUSH1 0x0 DUP3 ADD MSTORE PUSH32 0x657373207A65726F000000000000000000000000000000000000000000000000 PUSH1 0x20 DUP3 ADD MSTORE POP JUMP JUMPDEST PUSH2 0x3BBC DUP2 PUSH2 0x3674 JUMP JUMPDEST DUP2 EQ PUSH2 0x3BC7 JUMPI PUSH1 0x0 DUP1 REVERT JUMPDEST POP JUMP JUMPDEST PUSH2 0x3BD3 DUP2 PUSH2 0x36B2 JUMP JUMPDEST DUP2 EQ PUSH2 0x3BDE JUMPI PUSH1 0x0 DUP1 REVERT JUMPDEST POP JUMP JUMPDEST PUSH2 0x3BEA DUP2 PUSH2 0x36BC JUMP JUMPDEST DUP2 EQ PUSH2 0x3BF5 JUMPI PUSH1 0x0 DUP1 REVERT JUMPDEST POP JUMP INVALID MSTORE PUSH6 0x636569766572 KECCAK256 PUSH10 0x73206E6F742077686974 PUSH6 0x6C6973746564 KECCAK256 PUSH16 0x7220626C6F636B65644D617820616C6C PUSH16 0x77656420696E766573746F7220726573 PUSH21 0x72696374696F6E20697320696E20706C6163652C20 PUSH21 0x686973207472616E736665722077696C6C20657863 PUSH6 0x656420746869 PUSH20 0x206C696D69746174696F6E53656E646572206973 KECCAK256 PUSH24 0x686974656C697374656420627574206973206E6F7420656C PUSH10 0x6769626C6520746F2073 PUSH6 0x6E6420746F6B PUSH6 0x6E7320616E64 KECCAK256 PUSH22 0x6E64657220686F6C64696E6720706572696F6420284B MSIZE NUMBER KECCAK256 PUSH21 0x696D65207265737472696374696F6E29416C6C2074 PUSH19 0x616E7366657273206172652064697361626C65 PUSH5 0x2062656361 PUSH22 0x736520486F6C64696E6720506572696F64206973206E PUSH16 0x74207965742065787069726564526563 PUSH6 0x697665722069 PUSH20 0x2077686974656C69737465642062757420697320 PUSH15 0x6F742079657420656C696769626C65 KECCAK256 PUSH21 0x6F207265636569766520746F6B656E7320696E2068 PUSH10 0x732077616C6C65742028 0x4B MSIZE NUMBER KECCAK256 PUSH21 0x696D65207265737472696374696F6E2953656E6465 PUSH19 0x206973206E6F742077686974656C6973746564 KECCAK256 PUSH16 0x7220626C6F636B6564A2646970667358 0x22 SLT KECCAK256 0xE1 CALLDATACOPY 0xCD CODECOPY PUSH9 0xB7B967BA36F207AC2D NUMBER DUP1 RETURN PUSH9 0xB78710FDE1B11E90C9 SWAP1 PUSH18 0x2F013764736F6C6343000807003300000000 "
				},
				"gasEstimates": {
					"creation": {
						"codeDepositCost": "3168200",
						"executionCost": "infinite",
						"totalCost": "infinite"
					},
					"external": {
						"CompanyHomepage()": "infinite",
						"CompanyLegalDocs()": "infinite",
						"IssuancePlatform()": "infinite",
						"Max_Allowed_Investors_Exceed()": "448",
						"No_Transfer_Restrictions_Found()": "446",
						"Receiver_Not_Whitelisted_or_Blocked()": "489",
						"Receiver_Under_Holding_Period()": "423",
						"Sender_Not_Whitelisted_or_Blocked()": "403",
						"Sender_Under_Holding_Period()": "424",
						"ShareCertificate()": "infinite",
						"Transfer_Value_Cannot_Zero()": "490",
						"Transfers_Disabled()": "447",
						"allowance(address,address)": "infinite",
						"allowedInvestors()": "2474",
						"approve(address,uint256)": "infinite",
						"balanceOf(address)": "2930",
						"bulkWhitelistWallets(address[],uint256,uint256)": "infinite",
						"burn(address,uint256)": "infinite",
						"currentTotalInvestors()": "2585",
						"decimals()": "2519",
						"detectTransferRestriction(address,address,uint256)": "infinite",
						"forceTransferToken(address,uint256)": "infinite",
						"getKYCData(address)": "infinite",
						"getWhitelistAuthorityStatus(address)": "2993",
						"issuanceProtocol()": "infinite",
						"messageForTransferRestriction(uint8)": "infinite",
						"mint(address,uint256)": "infinite",
						"modifyKYCData(address,uint256,uint256)": "infinite",
						"name()": "infinite",
						"owner()": "2612",
						"removeWhitelistAuthorityStatus(address)": "infinite",
						"resetAllowedInvestors(uint256)": "infinite",
						"resetCompanyHomepage(string)": "infinite",
						"resetCompanyLegalDocs(string)": "infinite",
						"resetShareCertificate(string)": "infinite",
						"setTradingHoldingPeriod(uint256)": "infinite",
						"setWhitelistAuthorityStatus(address)": "infinite",
						"symbol()": "infinite",
						"totalSupply()": "2572",
						"tradingHoldingPeriod()": "2563",
						"transfer(address,uint256)": "infinite",
						"transferFrom(address,address,uint256)": "infinite",
						"transferOwnership(address)": "27062",
						"version()": "infinite"
					},
					"internal": {
						"setupKYCDataForUser(address,uint256,uint256)": "infinite",
						"transferSharesBetweenInvestors(address,address,uint256)": "infinite"
					}
				},
				"methodIdentifiers": {
					"CompanyHomepage()": "84f9007f",
					"CompanyLegalDocs()": "b1b5932a",
					"IssuancePlatform()": "654b6f15",
					"Max_Allowed_Investors_Exceed()": "11d6f0aa",
					"No_Transfer_Restrictions_Found()": "7169698c",
					"Receiver_Not_Whitelisted_or_Blocked()": "fd80f5d6",
					"Receiver_Under_Holding_Period()": "e59e8013",
					"Sender_Not_Whitelisted_or_Blocked()": "8d80e4a0",
					"Sender_Under_Holding_Period()": "b8071575",
					"ShareCertificate()": "59a72ddc",
					"Transfer_Value_Cannot_Zero()": "b091da94",
					"Transfers_Disabled()": "8fe32e12",
					"allowance(address,address)": "dd62ed3e",
					"allowedInvestors()": "6401ca76",
					"approve(address,uint256)": "095ea7b3",
					"balanceOf(address)": "70a08231",
					"bulkWhitelistWallets(address[],uint256,uint256)": "09fc3892",
					"burn(address,uint256)": "9dc29fac",
					"currentTotalInvestors()": "45968836",
					"decimals()": "313ce567",
					"detectTransferRestriction(address,address,uint256)": "d4ce1415",
					"forceTransferToken(address,uint256)": "3a24ddc5",
					"getKYCData(address)": "ab47a2f9",
					"getWhitelistAuthorityStatus(address)": "e8379421",
					"issuanceProtocol()": "7cae04f7",
					"messageForTransferRestriction(uint8)": "7f4ab1dd",
					"mint(address,uint256)": "40c10f19",
					"modifyKYCData(address,uint256,uint256)": "2b8e797a",
					"name()": "06fdde03",
					"owner()": "8da5cb5b",
					"removeWhitelistAuthorityStatus(address)": "da76e2f3",
					"resetAllowedInvestors(uint256)": "62a3d4bd",
					"resetCompanyHomepage(string)": "abc30a4b",
					"resetCompanyLegalDocs(string)": "51aebcd4",
					"resetShareCertificate(string)": "ac893db1",
					"setTradingHoldingPeriod(uint256)": "b5b7e6ee",
					"setWhitelistAuthorityStatus(address)": "c319e41c",
					"symbol()": "95d89b41",
					"totalSupply()": "18160ddd",
					"tradingHoldingPeriod()": "639c86ce",
					"transfer(address,uint256)": "a9059cbb",
					"transferFrom(address,address,uint256)": "23b872dd",
					"transferOwnership(address)": "f2fde38b",
					"version()": "54fd4d50"
				}
			},
			"storageLayout": {
				"storage": [
					{
						"astId": 11,
						"contract": "contracts/ERC1404TokenMinKYCv12.sol:ERC1404TokenMinKYCv12",
						"label": "_buyRestriction",
						"offset": 0,
						"slot": "0",
						"type": "t_mapping(t_address,t_uint256)"
					},
					{
						"astId": 15,
						"contract": "contracts/ERC1404TokenMinKYCv12.sol:ERC1404TokenMinKYCv12",
						"label": "_sellRestriction",
						"offset": 0,
						"slot": "1",
						"type": "t_mapping(t_address,t_uint256)"
					},
					{
						"astId": 19,
						"contract": "contracts/ERC1404TokenMinKYCv12.sol:ERC1404TokenMinKYCv12",
						"label": "_balances",
						"offset": 0,
						"slot": "2",
						"type": "t_mapping(t_address,t_uint256)"
					},
					{
						"astId": 25,
						"contract": "contracts/ERC1404TokenMinKYCv12.sol:ERC1404TokenMinKYCv12",
						"label": "_allowances",
						"offset": 0,
						"slot": "3",
						"type": "t_mapping(t_address,t_mapping(t_address,t_uint256))"
					},
					{
						"astId": 27,
						"contract": "contracts/ERC1404TokenMinKYCv12.sol:ERC1404TokenMinKYCv12",
						"label": "_owner",
						"offset": 0,
						"slot": "4",
						"type": "t_address"
					},
					{
						"astId": 31,
						"contract": "contracts/ERC1404TokenMinKYCv12.sol:ERC1404TokenMinKYCv12",
						"label": "_whitelistControlAuthority",
						"offset": 0,
						"slot": "5",
						"type": "t_mapping(t_address,t_bool)"
					},
					{
						"astId": 98,
						"contract": "contracts/ERC1404TokenMinKYCv12.sol:ERC1404TokenMinKYCv12",
						"label": "decimals",
						"offset": 0,
						"slot": "6",
						"type": "t_uint256"
					},
					{
						"astId": 101,
						"contract": "contracts/ERC1404TokenMinKYCv12.sol:ERC1404TokenMinKYCv12",
						"label": "version",
						"offset": 0,
						"slot": "7",
						"type": "t_string_storage"
					},
					{
						"astId": 104,
						"contract": "contracts/ERC1404TokenMinKYCv12.sol:ERC1404TokenMinKYCv12",
						"label": "IssuancePlatform",
						"offset": 0,
						"slot": "8",
						"type": "t_string_storage"
					},
					{
						"astId": 107,
						"contract": "contracts/ERC1404TokenMinKYCv12.sol:ERC1404TokenMinKYCv12",
						"label": "issuanceProtocol",
						"offset": 0,
						"slot": "9",
						"type": "t_string_storage"
					},
					{
						"astId": 109,
						"contract": "contracts/ERC1404TokenMinKYCv12.sol:ERC1404TokenMinKYCv12",
						"label": "_totalSupply",
						"offset": 0,
						"slot": "10",
						"type": "t_uint256"
					},
					{
						"astId": 111,
						"contract": "contracts/ERC1404TokenMinKYCv12.sol:ERC1404TokenMinKYCv12",
						"label": "name",
						"offset": 0,
						"slot": "11",
						"type": "t_string_storage"
					},
					{
						"astId": 113,
						"contract": "contracts/ERC1404TokenMinKYCv12.sol:ERC1404TokenMinKYCv12",
						"label": "symbol",
						"offset": 0,
						"slot": "12",
						"type": "t_string_storage"
					},
					{
						"astId": 115,
						"contract": "contracts/ERC1404TokenMinKYCv12.sol:ERC1404TokenMinKYCv12",
						"label": "ShareCertificate",
						"offset": 0,
						"slot": "13",
						"type": "t_string_storage"
					},
					{
						"astId": 117,
						"contract": "contracts/ERC1404TokenMinKYCv12.sol:ERC1404TokenMinKYCv12",
						"label": "CompanyHomepage",
						"offset": 0,
						"slot": "14",
						"type": "t_string_storage"
					},
					{
						"astId": 119,
						"contract": "contracts/ERC1404TokenMinKYCv12.sol:ERC1404TokenMinKYCv12",
						"label": "CompanyLegalDocs",
						"offset": 0,
						"slot": "15",
						"type": "t_string_storage"
					},
					{
						"astId": 122,
						"contract": "contracts/ERC1404TokenMinKYCv12.sol:ERC1404TokenMinKYCv12",
						"label": "currentTotalInvestors",
						"offset": 0,
						"slot": "16",
						"type": "t_uint256"
					},
					{
						"astId": 125,
						"contract": "contracts/ERC1404TokenMinKYCv12.sol:ERC1404TokenMinKYCv12",
						"label": "allowedInvestors",
						"offset": 0,
						"slot": "17",
						"type": "t_uint256"
					},
					{
						"astId": 128,
						"contract": "contracts/ERC1404TokenMinKYCv12.sol:ERC1404TokenMinKYCv12",
						"label": "tradingHoldingPeriod",
						"offset": 0,
						"slot": "18",
						"type": "t_uint256"
					}
				],
				"types": {
					"t_address": {
						"encoding": "inplace",
						"label": "address",
						"numberOfBytes": "20"
					},
					"t_bool": {
						"encoding": "inplace",
						"label": "bool",
						"numberOfBytes": "1"
					},
					"t_mapping(t_address,t_bool)": {
						"encoding": "mapping",
						"key": "t_address",
						"label": "mapping(address => bool)",
						"numberOfBytes": "32",
						"value": "t_bool"
					},
					"t_mapping(t_address,t_mapping(t_address,t_uint256))": {
						"encoding": "mapping",
						"key": "t_address",
						"label": "mapping(address => mapping(address => uint256))",
						"numberOfBytes": "32",
						"value": "t_mapping(t_address,t_uint256)"
					},
					"t_mapping(t_address,t_uint256)": {
						"encoding": "mapping",
						"key": "t_address",
						"label": "mapping(address => uint256)",
						"numberOfBytes": "32",
						"value": "t_uint256"
					},
					"t_string_storage": {
						"encoding": "bytes",
						"label": "string",
						"numberOfBytes": "32"
					},
					"t_uint256": {
						"encoding": "inplace",
						"label": "uint256",
						"numberOfBytes": "32"
					}
				}
			},
			"userdoc": {
				"kind": "user",
				"methods": {
					"messageForTransferRestriction(uint8)": {
						"notice": "Returns a human-readable message for a given restriction code"
					}
				},
				"version": 1
			}
		}
	}
}