{
  "contractName": "ERC1404TokenMinKYC",
  "abi": [
    {
      "inputs": [
        {
          "internalType": "uint256",
          "name": "_initialSupply",
          "type": "uint256"
        },
        {
          "internalType": "string",
          "name": "_name",
          "type": "string"
        },
        {
          "internalType": "string",
          "name": "_symbol",
          "type": "string"
        },
        {
          "internalType": "uint256",
          "name": "_allowedInvestors",
          "type": "uint256"
        },
        {
          "internalType": "uint256",
          "name": "_decimals",
          "type": "uint256"
        },
        {
          "internalType": "string",
          "name": "_ShareCertificate",
          "type": "string"
        },
        {
          "internalType": "string",
          "name": "_CompanyHomepage",
          "type": "string"
        },
        {
          "internalType": "string",
          "name": "_CompanyLegalDocs",
          "type": "string"
        },
        {
          "internalType": "address",
          "name": "_swapContractAddress",
          "type": "address"
        }
      ],
      "stateMutability": "nonpayable",
      "type": "constructor"
    },
    {
      "anonymous": false,
      "inputs": [
        {
          "indexed": true,
          "internalType": "address",
          "name": "owner",
          "type": "address"
        },
        {
          "indexed": true,
          "internalType": "address",
          "name": "spender",
          "type": "address"
        },
        {
          "indexed": false,
          "internalType": "uint256",
          "name": "value",
          "type": "uint256"
        }
      ],
      "name": "Approval",
      "type": "event"
    },
    {
      "anonymous": false,
      "inputs": [
        {
          "indexed": true,
          "internalType": "address",
          "name": "from",
          "type": "address"
        },
        {
          "indexed": true,
          "internalType": "address",
          "name": "to",
          "type": "address"
        },
        {
          "indexed": false,
          "internalType": "uint256",
          "name": "value",
          "type": "uint256"
        }
      ],
      "name": "Transfer",
      "type": "event"
    },
    {
      "inputs": [],
      "name": "CompanyHomepage",
      "outputs": [
        {
          "internalType": "string",
          "name": "",
          "type": "string"
        }
      ],
      "stateMutability": "view",
      "type": "function"
    },
    {
      "inputs": [],
      "name": "CompanyLegalDocs",
      "outputs": [
        {
          "internalType": "string",
          "name": "",
          "type": "string"
        }
      ],
      "stateMutability": "view",
      "type": "function"
    },
    {
      "inputs": [],
      "name": "IssuancePlatform",
      "outputs": [
        {
          "internalType": "string",
          "name": "",
          "type": "string"
        }
      ],
      "stateMutability": "view",
      "type": "function"
    },
    {
      "inputs": [],
      "name": "ShareCertificate",
      "outputs": [
        {
          "internalType": "string",
          "name": "",
          "type": "string"
        }
      ],
      "stateMutability": "view",
      "type": "function"
    },
    {
      "inputs": [],
      "name": "allowedInvestors",
      "outputs": [
        {
          "internalType": "uint256",
          "name": "",
          "type": "uint256"
        }
      ],
      "stateMutability": "view",
      "type": "function"
    },
    {
      "inputs": [],
      "name": "currentTotalInvestors",
      "outputs": [
        {
          "internalType": "uint256",
          "name": "",
          "type": "uint256"
        }
      ],
      "stateMutability": "view",
      "type": "function"
    },
    {
      "inputs": [],
      "name": "decimals",
      "outputs": [
        {
          "internalType": "uint256",
          "name": "",
          "type": "uint256"
        }
      ],
      "stateMutability": "view",
      "type": "function"
    },
    {
      "inputs": [],
      "name": "isTradingAllowed",
      "outputs": [
        {
          "internalType": "bool",
          "name": "",
          "type": "bool"
        }
      ],
      "stateMutability": "view",
      "type": "function"
    },
    {
      "inputs": [],
      "name": "issuanceProtocol",
      "outputs": [
        {
          "internalType": "string",
          "name": "",
          "type": "string"
        }
      ],
      "stateMutability": "view",
      "type": "function"
    },
    {
      "inputs": [],
      "name": "name",
      "outputs": [
        {
          "internalType": "string",
          "name": "",
          "type": "string"
        }
      ],
      "stateMutability": "view",
      "type": "function"
    },
    {
      "inputs": [],
      "name": "symbol",
      "outputs": [
        {
          "internalType": "string",
          "name": "",
          "type": "string"
        }
      ],
      "stateMutability": "view",
      "type": "function"
    },
    {
      "inputs": [],
      "name": "version",
      "outputs": [
        {
          "internalType": "string",
          "name": "",
          "type": "string"
        }
      ],
      "stateMutability": "view",
      "type": "function"
    },
    {
      "inputs": [
        {
          "internalType": "string",
          "name": "_ShareCertificate",
          "type": "string"
        }
      ],
      "name": "resetShareCertificate",
      "outputs": [],
      "stateMutability": "nonpayable",
      "type": "function"
    },
    {
      "inputs": [
        {
          "internalType": "string",
          "name": "_CompanyHomepage",
          "type": "string"
        }
      ],
      "name": "resetCompanyHomepage",
      "outputs": [],
      "stateMutability": "nonpayable",
      "type": "function"
    },
    {
      "inputs": [
        {
          "internalType": "string",
          "name": "_CompanyLegalDocs",
          "type": "string"
        }
      ],
      "name": "resetCompanyLegalDocs",
      "outputs": [],
      "stateMutability": "nonpayable",
      "type": "function"
    },
    {
      "inputs": [
        {
          "internalType": "uint256",
          "name": "_allowedInvestors",
          "type": "uint256"
        }
      ],
      "name": "resetAllowedInvestors",
      "outputs": [],
      "stateMutability": "nonpayable",
      "type": "function"
    },
    {
      "inputs": [],
      "name": "flipTradingStatus",
      "outputs": [],
      "stateMutability": "nonpayable",
      "type": "function"
    },
    {
      "inputs": [],
      "name": "owner",
      "outputs": [
        {
          "internalType": "address",
          "name": "",
          "type": "address"
        }
      ],
      "stateMutability": "view",
      "type": "function"
    },
    {
      "inputs": [
        {
          "internalType": "address",
          "name": "newOwner",
          "type": "address"
        }
      ],
      "name": "transferOwnership",
      "outputs": [],
      "stateMutability": "nonpayable",
      "type": "function"
    },
    {
      "inputs": [
        {
          "internalType": "address",
          "name": "user",
          "type": "address"
        }
      ],
      "name": "setWhitelistAuthorityStatus",
      "outputs": [],
      "stateMutability": "nonpayable",
      "type": "function"
    },
    {
      "inputs": [
        {
          "internalType": "address",
          "name": "user",
          "type": "address"
        }
      ],
      "name": "removeWhitelistAuthorityStatus",
      "outputs": [],
      "stateMutability": "nonpayable",
      "type": "function"
    },
    {
      "inputs": [
        {
          "internalType": "address",
          "name": "user",
          "type": "address"
        }
      ],
      "name": "getWhitelistAuthorityStatus",
      "outputs": [
        {
          "internalType": "bool",
          "name": "",
          "type": "bool"
        }
      ],
      "stateMutability": "view",
      "type": "function"
    },
    {
      "inputs": [
        {
          "internalType": "address",
          "name": "user",
          "type": "address"
        },
        {
          "internalType": "uint256",
          "name": "buyRestriction",
          "type": "uint256"
        },
        {
          "internalType": "uint256",
          "name": "sellRestriction",
          "type": "uint256"
        }
      ],
      "name": "modifyKYCData",
      "outputs": [],
      "stateMutability": "nonpayable",
      "type": "function"
    },
    {
      "inputs": [
        {
          "internalType": "address[]",
          "name": "user",
          "type": "address[]"
        },
        {
          "internalType": "uint256",
          "name": "buyRestriction",
          "type": "uint256"
        },
        {
          "internalType": "uint256",
          "name": "sellRestriction",
          "type": "uint256"
        }
      ],
      "name": "bulkWhitelistWallets",
      "outputs": [],
      "stateMutability": "nonpayable",
      "type": "function"
    },
    {
      "inputs": [
        {
          "internalType": "address",
          "name": "user",
          "type": "address"
        }
      ],
      "name": "getKYCData",
      "outputs": [
        {
          "internalType": "uint256",
          "name": "",
          "type": "uint256"
        },
        {
          "internalType": "uint256",
          "name": "",
          "type": "uint256"
        }
      ],
      "stateMutability": "view",
      "type": "function"
    },
    {
      "inputs": [
        {
          "internalType": "address",
          "name": "_from",
          "type": "address"
        },
        {
          "internalType": "address",
          "name": "_to",
          "type": "address"
        },
        {
          "internalType": "uint256",
          "name": "value",
          "type": "uint256"
        }
      ],
      "name": "detectTransferRestriction",
      "outputs": [
        {
          "internalType": "uint8",
          "name": "status",
          "type": "uint8"
        }
      ],
      "stateMutability": "view",
      "type": "function"
    },
    {
      "inputs": [
        {
          "internalType": "uint8",
          "name": "restrictionCode",
          "type": "uint8"
        }
      ],
      "name": "messageForTransferRestriction",
      "outputs": [
        {
          "internalType": "string",
          "name": "message",
          "type": "string"
        }
      ],
      "stateMutability": "pure",
      "type": "function"
    },
    {
      "inputs": [],
      "name": "totalSupply",
      "outputs": [
        {
          "internalType": "uint256",
          "name": "",
          "type": "uint256"
        }
      ],
      "stateMutability": "view",
      "type": "function"
    },
    {
      "inputs": [
        {
          "internalType": "address",
          "name": "account",
          "type": "address"
        }
      ],
      "name": "balanceOf",
      "outputs": [
        {
          "internalType": "uint256",
          "name": "",
          "type": "uint256"
        }
      ],
      "stateMutability": "view",
      "type": "function"
    },
    {
      "inputs": [
        {
          "internalType": "address",
          "name": "spender",
          "type": "address"
        },
        {
          "internalType": "uint256",
          "name": "amount",
          "type": "uint256"
        }
      ],
      "name": "approve",
      "outputs": [
        {
          "internalType": "bool",
          "name": "",
          "type": "bool"
        }
      ],
      "stateMutability": "nonpayable",
      "type": "function"
    },
    {
      "inputs": [
        {
          "internalType": "address",
          "name": "ownby",
          "type": "address"
        },
        {
          "internalType": "address",
          "name": "spender",
          "type": "address"
        }
      ],
      "name": "allowance",
      "outputs": [
        {
          "internalType": "uint256",
          "name": "",
          "type": "uint256"
        }
      ],
      "stateMutability": "view",
      "type": "function"
    },
    {
      "inputs": [
        {
          "internalType": "address",
          "name": "recipient",
          "type": "address"
        },
        {
          "internalType": "uint256",
          "name": "amount",
          "type": "uint256"
        }
      ],
      "name": "transfer",
      "outputs": [
        {
          "internalType": "bool",
          "name": "",
          "type": "bool"
        }
      ],
      "stateMutability": "nonpayable",
      "type": "function"
    },
    {
      "inputs": [
        {
          "internalType": "address",
          "name": "sender",
          "type": "address"
        },
        {
          "internalType": "address",
          "name": "recipient",
          "type": "address"
        },
        {
          "internalType": "uint256",
          "name": "amount",
          "type": "uint256"
        }
      ],
      "name": "transferFrom",
      "outputs": [
        {
          "internalType": "bool",
          "name": "",
          "type": "bool"
        }
      ],
      "stateMutability": "nonpayable",
      "type": "function"
    },
    {
      "inputs": [
        {
          "internalType": "address",
          "name": "from",
          "type": "address"
        },
        {
          "internalType": "uint256",
          "name": "amount",
          "type": "uint256"
        }
      ],
      "name": "forceTransferToken",
      "outputs": [
        {
          "internalType": "bool",
          "name": "",
          "type": "bool"
        }
      ],
      "stateMutability": "nonpayable",
      "type": "function"
    },
    {
      "inputs": [
        {
          "internalType": "address",
          "name": "account",
          "type": "address"
        },
        {
          "internalType": "uint256",
          "name": "amount",
          "type": "uint256"
        }
      ],
      "name": "mint",
      "outputs": [
        {
          "internalType": "bool",
          "name": "",
          "type": "bool"
        }
      ],
      "stateMutability": "nonpayable",
      "type": "function"
    },
    {
      "inputs": [
        {
          "internalType": "address",
          "name": "account",
          "type": "address"
        },
        {
          "internalType": "uint256",
          "name": "amount",
          "type": "uint256"
        }
      ],
      "name": "burn",
      "outputs": [
        {
          "internalType": "bool",
          "name": "",
          "type": "bool"
        }
      ],
      "stateMutability": "nonpayable",
      "type": "function"
    }
  ],
  "bytecode": "0x608060405260126006556040518060400160405280600381526020017f312e3100000000000000000000000000000000000000000000000000000000008152506007908051906020019062000056929190620004ef565b506040518060400160405280600a81526020017f446967695368617265730000000000000000000000000000000000000000000081525060089080519060200190620000a4929190620004ef565b506040518060400160405280600881526020017f4552432d3134303400000000000000000000000000000000000000000000000081525060099080519060200190620000f2929190620004ef565b50600060105560006011556001601260006101000a81548160ff0219169083151502179055503480156200012557600080fd5b5060405162003f8238038062003f8283398181016040528101906200014b91906200063f565b87600b908051906020019062000163929190620004ef565b5086600c90805190602001906200017c929190620004ef565b508460068190555033600460006101000a81548173ffffffffffffffffffffffffffffffffffffffff021916908373ffffffffffffffffffffffffffffffffffffffff1602179055506001600080600460009054906101000a900473ffffffffffffffffffffffffffffffffffffffff1673ffffffffffffffffffffffffffffffffffffffff1673ffffffffffffffffffffffffffffffffffffffff168152602001908152602001600020819055506001806000600460009054906101000a900473ffffffffffffffffffffffffffffffffffffffff1673ffffffffffffffffffffffffffffffffffffffff1673ffffffffffffffffffffffffffffffffffffffff1681526020019081526020016000208190555060016000808373ffffffffffffffffffffffffffffffffffffffff1673ffffffffffffffffffffffffffffffffffffffff1681526020019081526020016000208190555060018060008373ffffffffffffffffffffffffffffffffffffffff1673ffffffffffffffffffffffffffffffffffffffff168152602001908152602001600020819055508560118190555088600a81905550600a5460026000600460009054906101000a900473ffffffffffffffffffffffffffffffffffffffff1673ffffffffffffffffffffffffffffffffffffffff1673ffffffffffffffffffffffffffffffffffffffff16815260200190815260200160002081905550600160056000600460009054906101000a900473ffffffffffffffffffffffffffffffffffffffff1673ffffffffffffffffffffffffffffffffffffffff1673ffffffffffffffffffffffffffffffffffffffff16815260200190815260200160002060006101000a81548160ff02191690831515021790555083600d908051906020019062000421929190620004ef565b5082600e90805190602001906200043a929190620004ef565b5081600f908051906020019062000453929190620004ef565b50600460009054906101000a900473ffffffffffffffffffffffffffffffffffffffff1673ffffffffffffffffffffffffffffffffffffffff16600073ffffffffffffffffffffffffffffffffffffffff167fddf252ad1be2c89b69c2b068fc378daa952ba7f163c4a11628f55a4df523b3ef600a54604051620004d89190620007a6565b60405180910390a350505050505050505062000966565b828054620004fd906200089e565b90600052602060002090601f0160209004810192826200052157600085556200056d565b82601f106200053c57805160ff19168380011785556200056d565b828001600101855582156200056d579182015b828111156200056c5782518255916020019190600101906200054f565b5b5090506200057c919062000580565b5090565b5b808211156200059b57600081600090555060010162000581565b5090565b6000620005b6620005b084620007f7565b620007c3565b905082815260208101848484011115620005cf57600080fd5b620005dc84828562000868565b509392505050565b600081519050620005f58162000932565b92915050565b600082601f8301126200060d57600080fd5b81516200061f8482602086016200059f565b91505092915050565b60008151905062000639816200094c565b92915050565b60008060008060008060008060006101208a8c0312156200065f57600080fd5b60006200066f8c828d0162000628565b99505060208a015167ffffffffffffffff8111156200068d57600080fd5b6200069b8c828d01620005fb565b98505060408a015167ffffffffffffffff811115620006b957600080fd5b620006c78c828d01620005fb565b9750506060620006da8c828d0162000628565b9650506080620006ed8c828d0162000628565b95505060a08a015167ffffffffffffffff8111156200070b57600080fd5b620007198c828d01620005fb565b94505060c08a015167ffffffffffffffff8111156200073757600080fd5b620007458c828d01620005fb565b93505060e08a015167ffffffffffffffff8111156200076357600080fd5b620007718c828d01620005fb565b925050610100620007858c828d01620005e4565b9150509295985092959850929598565b620007a0816200085e565b82525050565b6000602082019050620007bd600083018462000795565b92915050565b6000604051905081810181811067ffffffffffffffff82111715620007ed57620007ec62000903565b5b8060405250919050565b600067ffffffffffffffff82111562000815576200081462000903565b5b601f19601f8301169050602081019050919050565b600062000837826200083e565b9050919050565b600073ffffffffffffffffffffffffffffffffffffffff82169050919050565b6000819050919050565b60005b83811015620008885780820151818401526020810190506200086b565b8381111562000898576000848401525b50505050565b60006002820490506001821680620008b757607f821691505b60208210811415620008ce57620008cd620008d4565b5b50919050565b7f4e487b7100000000000000000000000000000000000000000000000000000000600052602260045260246000fd5b7f4e487b7100000000000000000000000000000000000000000000000000000000600052604160045260246000fd5b6200093d816200082a565b81146200094957600080fd5b50565b62000957816200085e565b81146200096357600080fd5b50565b61360c80620009766000396000f3fe608060405234801561001057600080fd5b506004361061021c5760003560e01c80637cae04f711610125578063abc30a4b116100ad578063d4ce14151161007c578063d4ce141514610644578063da76e2f314610674578063dd62ed3e14610690578063e8379421146106c0578063f2fde38b146106f05761021c565b8063abc30a4b146105d2578063ac893db1146105ee578063b1b5932a1461060a578063c319e41c146106285761021c565b806395d89b41116100f457806395d89b41146105055780639dc29fac14610523578063a48179ff14610553578063a9059cbb14610571578063ab47a2f9146105a15761021c565b80637cae04f71461047b5780637f4ab1dd1461049957806384f9007f146104c95780638da5cb5b146104e75761021c565b806340c10f19116101a857806359a72ddc1161017757806359a72ddc146103d557806362a3d4bd146103f35780636401ca761461040f578063654b6f151461042d57806370a082311461044b5761021c565b806340c10f191461034d578063459688361461037d57806351aebcd41461039b57806354fd4d50146103b75761021c565b806320b6a50f116101ef57806320b6a50f146102a957806323b872dd146102b35780632b8e797a146102e3578063313ce567146102ff5780633a24ddc51461031d5761021c565b806306fdde0314610221578063095ea7b31461023f57806309fc38921461026f57806318160ddd1461028b575b600080fd5b61022961070c565b60405161023691906130ad565b60405180910390f35b61025960048036038101906102549190612ae5565b61079a565b6040516102669190613092565b60405180910390f35b61028960048036038101906102849190612b70565b61093e565b005b610293610a41565b6040516102a0919061324f565b60405180910390f35b6102b1610a4b565b005b6102cd60048036038101906102c89190612a96565b610b07565b6040516102da9190613092565b60405180910390f35b6102fd60048036038101906102f89190612b21565b610d4e565b005b610307610df1565b604051610314919061324f565b60405180910390f35b61033760048036038101906103329190612ae5565b610df7565b6040516103449190613092565b60405180910390f35b61036760048036038101906103629190612ae5565b610ec0565b6040516103749190613092565b60405180910390f35b6103856110d4565b604051610392919061324f565b60405180910390f35b6103b560048036038101906103b09190612bd7565b6110da565b005b6103bf611184565b6040516103cc91906130ad565b60405180910390f35b6103dd611212565b6040516103ea91906130ad565b60405180910390f35b61040d60048036038101906104089190612c18565b6112a0565b005b610417611388565b604051610424919061324f565b60405180910390f35b61043561138e565b60405161044291906130ad565b60405180910390f35b61046560048036038101906104609190612a31565b61141c565b604051610472919061324f565b60405180910390f35b610483611465565b60405161049091906130ad565b60405180910390f35b6104b360048036038101906104ae9190612c41565b6114f3565b6040516104c091906130ad565b60405180910390f35b6104d161157c565b6040516104de91906130ad565b60405180910390f35b6104ef61160a565b6040516104fc9190613077565b60405180910390f35b61050d611634565b60405161051a91906130ad565b60405180910390f35b61053d60048036038101906105389190612ae5565b6116c2565b60405161054a9190613092565b60405180910390f35b61055b611958565b6040516105689190613092565b60405180910390f35b61058b60048036038101906105869190612ae5565b61196b565b6040516105989190613092565b60405180910390f35b6105bb60048036038101906105b69190612a31565b6119ea565b6040516105c992919061326a565b60405180910390f35b6105ec60048036038101906105e79190612bd7565b611a75565b005b61060860048036038101906106039190612bd7565b611b1f565b005b610612611bc9565b60405161061f91906130ad565b60405180910390f35b610642600480360381019061063d9190612a31565b611c57565b005b61065e60048036038101906106599190612a96565b611d42565b60405161066b9190613293565b60405180910390f35b61068e60048036038101906106899190612a31565b61214a565b005b6106aa60048036038101906106a59190612a5a565b61222c565b6040516106b7919061324f565b60405180910390f35b6106da60048036038101906106d59190612a31565b6122b3565b6040516106e79190613092565b60405180910390f35b61070a60048036038101906107059190612a31565b612309565b005b600b805461071990613478565b80601f016020809104026020016040519081016040528092919081815260200182805461074590613478565b80156107925780601f1061076757610100808354040283529160200191610792565b820191906000526020600020905b81548152906001019060200180831161077557829003601f168201915b505050505081565b60008073ffffffffffffffffffffffffffffffffffffffff168373ffffffffffffffffffffffffffffffffffffffff16141561080b576040517f08c379a00000000000000000000000000000000000000000000000000000000081526004016108029061318f565b60405180910390fd5b6000821161084e576040517f08c379a00000000000000000000000000000000000000000000000000000000081526004016108459061312f565b60405180910390fd5b81600360003373ffffffffffffffffffffffffffffffffffffffff1673ffffffffffffffffffffffffffffffffffffffff16815260200190815260200160002060008573ffffffffffffffffffffffffffffffffffffffff1673ffffffffffffffffffffffffffffffffffffffff168152602001908152602001600020819055508273ffffffffffffffffffffffffffffffffffffffff163373ffffffffffffffffffffffffffffffffffffffff167f8c5be1e5ebec7d5bd14f71427d1e84f3dd0314c0f7b2291e5b200ac8c7c3b9258460405161092c919061324f565b60405180910390a36001905092915050565b60011515600560003373ffffffffffffffffffffffffffffffffffffffff1673ffffffffffffffffffffffffffffffffffffffff16815260200190815260200160002060009054906101000a900460ff161515146109d1576040517f08c379a00000000000000000000000000000000000000000000000000000000081526004016109c89061322f565b60405180910390fd5b60005b8351811015610a3b57610a28848281518110610a19577f4e487b7100000000000000000000000000000000000000000000000000000000600052603260045260246000fd5b6020026020010151848461244d565b8080610a33906134aa565b9150506109d4565b50505050565b6000600a54905090565b3373ffffffffffffffffffffffffffffffffffffffff16600460009054906101000a900473ffffffffffffffffffffffffffffffffffffffff1673ffffffffffffffffffffffffffffffffffffffff1614610adb576040517f08c379a0000000000000000000000000000000000000000000000000000000008152600401610ad2906130cf565b60405180910390fd5b601260009054906101000a900460ff1615601260006101000a81548160ff021916908315150217905550565b60008383836000610b19848484611d42565b905060018160ff1614610b2b826114f3565b90610b6c576040517f08c379a0000000000000000000000000000000000000000000000000000000008152600401610b6391906130ad565b60405180910390fd5b5085600360008a73ffffffffffffffffffffffffffffffffffffffff1673ffffffffffffffffffffffffffffffffffffffff16815260200190815260200160002060003373ffffffffffffffffffffffffffffffffffffffff1673ffffffffffffffffffffffffffffffffffffffff168152602001908152602001600020541015610c2c576040517f08c379a0000000000000000000000000000000000000000000000000000000008152600401610c239061314f565b60405180910390fd5b610c378888886124d9565b85600360008a73ffffffffffffffffffffffffffffffffffffffff1673ffffffffffffffffffffffffffffffffffffffff16815260200190815260200160002060003373ffffffffffffffffffffffffffffffffffffffff1673ffffffffffffffffffffffffffffffffffffffff16815260200190815260200160002054610cbf91906133ad565b600360008a73ffffffffffffffffffffffffffffffffffffffff1673ffffffffffffffffffffffffffffffffffffffff16815260200190815260200160002060003373ffffffffffffffffffffffffffffffffffffffff1673ffffffffffffffffffffffffffffffffffffffff1681526020019081526020016000208190555060019450505050509392505050565b60011515600560003373ffffffffffffffffffffffffffffffffffffffff1673ffffffffffffffffffffffffffffffffffffffff16815260200190815260200160002060009054906101000a900460ff16151514610de1576040517f08c379a0000000000000000000000000000000000000000000000000000000008152600401610dd89061322f565b60405180910390fd5b610dec83838361244d565b505050565b60065481565b60003373ffffffffffffffffffffffffffffffffffffffff16600460009054906101000a900473ffffffffffffffffffffffffffffffffffffffff1673ffffffffffffffffffffffffffffffffffffffff1614610e89576040517f08c379a0000000000000000000000000000000000000000000000000000000008152600401610e80906130cf565b60405180910390fd5b610eb683600460009054906101000a900473ffffffffffffffffffffffffffffffffffffffff16846124d9565b6001905092915050565b60003373ffffffffffffffffffffffffffffffffffffffff16600460009054906101000a900473ffffffffffffffffffffffffffffffffffffffff1673ffffffffffffffffffffffffffffffffffffffff1614610f52576040517f08c379a0000000000000000000000000000000000000000000000000000000008152600401610f49906130cf565b60405180910390fd5b600073ffffffffffffffffffffffffffffffffffffffff168373ffffffffffffffffffffffffffffffffffffffff161415610fc2576040517f08c379a0000000000000000000000000000000000000000000000000000000008152600401610fb99061318f565b60405180910390fd5b81600a54610fd09190613357565b600a8190555081600260008573ffffffffffffffffffffffffffffffffffffffff1673ffffffffffffffffffffffffffffffffffffffff168152602001908152602001600020546110219190613357565b600260008573ffffffffffffffffffffffffffffffffffffffff1673ffffffffffffffffffffffffffffffffffffffff168152602001908152602001600020819055508273ffffffffffffffffffffffffffffffffffffffff16600073ffffffffffffffffffffffffffffffffffffffff167fddf252ad1be2c89b69c2b068fc378daa952ba7f163c4a11628f55a4df523b3ef846040516110c2919061324f565b60405180910390a36001905092915050565b60105481565b3373ffffffffffffffffffffffffffffffffffffffff16600460009054906101000a900473ffffffffffffffffffffffffffffffffffffffff1673ffffffffffffffffffffffffffffffffffffffff161461116a576040517f08c379a0000000000000000000000000000000000000000000000000000000008152600401611161906130cf565b60405180910390fd5b80600f9080519060200190611180929190612851565b5050565b6007805461119190613478565b80601f01602080910402602001604051908101604052809291908181526020018280546111bd90613478565b801561120a5780601f106111df5761010080835404028352916020019161120a565b820191906000526020600020905b8154815290600101906020018083116111ed57829003601f168201915b505050505081565b600d805461121f90613478565b80601f016020809104026020016040519081016040528092919081815260200182805461124b90613478565b80156112985780601f1061126d57610100808354040283529160200191611298565b820191906000526020600020905b81548152906001019060200180831161127b57829003601f168201915b505050505081565b3373ffffffffffffffffffffffffffffffffffffffff16600460009054906101000a900473ffffffffffffffffffffffffffffffffffffffff1673ffffffffffffffffffffffffffffffffffffffff1614611330576040517f08c379a0000000000000000000000000000000000000000000000000000000008152600401611327906130cf565b60405180910390fd5b6000811461137e5760105481101561137d576040517f08c379a0000000000000000000000000000000000000000000000000000000008152600401611374906131ef565b60405180910390fd5b5b8060118190555050565b60115481565b6008805461139b90613478565b80601f01602080910402602001604051908101604052809291908181526020018280546113c790613478565b80156114145780601f106113e957610100808354040283529160200191611414565b820191906000526020600020905b8154815290600101906020018083116113f757829003601f168201915b505050505081565b6000600260008373ffffffffffffffffffffffffffffffffffffffff1673ffffffffffffffffffffffffffffffffffffffff168152602001908152602001600020549050919050565b6009805461147290613478565b80601f016020809104026020016040519081016040528092919081815260200182805461149e90613478565b80156114eb5780601f106114c0576101008083540402835291602001916114eb565b820191906000526020600020905b8154815290600101906020018083116114ce57829003601f168201915b505050505081565b606060018260ff16141561153e576040518060400160405280600b81526020017f57686974656c69737465640000000000000000000000000000000000000000008152509050611577565b6040518060400160405280600f81526020017f4e6f742057686974656c6973746564000000000000000000000000000000000081525090505b919050565b600e805461158990613478565b80601f01602080910402602001604051908101604052809291908181526020018280546115b590613478565b80156116025780601f106115d757610100808354040283529160200191611602565b820191906000526020600020905b8154815290600101906020018083116115e557829003601f168201915b505050505081565b6000600460009054906101000a900473ffffffffffffffffffffffffffffffffffffffff16905090565b600c805461164190613478565b80601f016020809104026020016040519081016040528092919081815260200182805461166d90613478565b80156116ba5780601f1061168f576101008083540402835291602001916116ba565b820191906000526020600020905b81548152906001019060200180831161169d57829003601f168201915b505050505081565b60003373ffffffffffffffffffffffffffffffffffffffff16600460009054906101000a900473ffffffffffffffffffffffffffffffffffffffff1673ffffffffffffffffffffffffffffffffffffffff1614611754576040517f08c379a000000000000000000000000000000000000000000000000000000000815260040161174b906130cf565b60405180910390fd5b600073ffffffffffffffffffffffffffffffffffffffff168373ffffffffffffffffffffffffffffffffffffffff1614156117c4576040517f08c379a00000000000000000000000000000000000000000000000000000000081526004016117bb9061318f565b60405180910390fd5b81600260008573ffffffffffffffffffffffffffffffffffffffff1673ffffffffffffffffffffffffffffffffffffffff168152602001908152602001600020541015611846576040517f08c379a000000000000000000000000000000000000000000000000000000000815260040161183d906131cf565b60405180910390fd5b81600a5461185491906133ad565b600a8190555081600260008573ffffffffffffffffffffffffffffffffffffffff1673ffffffffffffffffffffffffffffffffffffffff168152602001908152602001600020546118a591906133ad565b600260008573ffffffffffffffffffffffffffffffffffffffff1673ffffffffffffffffffffffffffffffffffffffff16815260200190815260200160002081905550600073ffffffffffffffffffffffffffffffffffffffff168373ffffffffffffffffffffffffffffffffffffffff167fddf252ad1be2c89b69c2b068fc378daa952ba7f163c4a11628f55a4df523b3ef84604051611946919061324f565b60405180910390a36001905092915050565b601260009054906101000a900460ff1681565b6000338383600061197d848484611d42565b905060018160ff161461198f826114f3565b906119d0576040517f08c379a00000000000000000000000000000000000000000000000000000000081526004016119c791906130ad565b60405180910390fd5b506119dc3388886124d9565b600194505050505092915050565b6000806000808473ffffffffffffffffffffffffffffffffffffffff1673ffffffffffffffffffffffffffffffffffffffff16815260200190815260200160002054600160008573ffffffffffffffffffffffffffffffffffffffff1673ffffffffffffffffffffffffffffffffffffffff1681526020019081526020016000205491509150915091565b3373ffffffffffffffffffffffffffffffffffffffff16600460009054906101000a900473ffffffffffffffffffffffffffffffffffffffff1673ffffffffffffffffffffffffffffffffffffffff1614611b05576040517f08c379a0000000000000000000000000000000000000000000000000000000008152600401611afc906130cf565b60405180910390fd5b80600e9080519060200190611b1b929190612851565b5050565b3373ffffffffffffffffffffffffffffffffffffffff16600460009054906101000a900473ffffffffffffffffffffffffffffffffffffffff1673ffffffffffffffffffffffffffffffffffffffff1614611baf576040517f08c379a0000000000000000000000000000000000000000000000000000000008152600401611ba6906130cf565b60405180910390fd5b80600d9080519060200190611bc5929190612851565b5050565b600f8054611bd690613478565b80601f0160208091040260200160405190810160405280929190818152602001828054611c0290613478565b8015611c4f5780601f10611c2457610100808354040283529160200191611c4f565b820191906000526020600020905b815481529060010190602001808311611c3257829003601f168201915b505050505081565b3373ffffffffffffffffffffffffffffffffffffffff16600460009054906101000a900473ffffffffffffffffffffffffffffffffffffffff1673ffffffffffffffffffffffffffffffffffffffff1614611ce7576040517f08c379a0000000000000000000000000000000000000000000000000000000008152600401611cde906130cf565b60405180910390fd5b6001600560008373ffffffffffffffffffffffffffffffffffffffff1673ffffffffffffffffffffffffffffffffffffffff16815260200190815260200160002060006101000a81548160ff02191690831515021790555050565b600060011515601260009054906101000a900460ff16151514611d9a576040517f08c379a0000000000000000000000000000000000000000000000000000000008152600401611d919061310f565b60405180910390fd5b60008211611ddd576040517f08c379a0000000000000000000000000000000000000000000000000000000008152600401611dd4906130ef565b60405180910390fd5b6000600160008673ffffffffffffffffffffffffffffffffffffffff1673ffffffffffffffffffffffffffffffffffffffff1681526020019081526020016000205414158015611e6c575060008060008573ffffffffffffffffffffffffffffffffffffffff1673ffffffffffffffffffffffffffffffffffffffff1681526020019081526020016000205414155b611eab576040517f08c379a0000000000000000000000000000000000000000000000000000000008152600401611ea29061320f565b60405180910390fd5b42600160008673ffffffffffffffffffffffffffffffffffffffff1673ffffffffffffffffffffffffffffffffffffffff1681526020019081526020016000205411158015611f385750426000808573ffffffffffffffffffffffffffffffffffffffff1673ffffffffffffffffffffffffffffffffffffffff1681526020019081526020016000205411155b611f77576040517f08c379a0000000000000000000000000000000000000000000000000000000008152600401611f6e9061316f565b60405180910390fd5b60006011541415611f8b5760019050612143565b6000600260008573ffffffffffffffffffffffffffffffffffffffff1673ffffffffffffffffffffffffffffffffffffffff1681526020019081526020016000205411806120265750600460009054906101000a900473ffffffffffffffffffffffffffffffffffffffff1673ffffffffffffffffffffffffffffffffffffffff168373ffffffffffffffffffffffffffffffffffffffff16145b156120345760019050612143565b60115460105410156120495760019050612143565b81600260008673ffffffffffffffffffffffffffffffffffffffff1673ffffffffffffffffffffffffffffffffffffffff168152602001908152602001600020541480156120d657506000600260008573ffffffffffffffffffffffffffffffffffffffff1673ffffffffffffffffffffffffffffffffffffffff16815260200190815260200160002054145b80156121305750600460009054906101000a900473ffffffffffffffffffffffffffffffffffffffff1673ffffffffffffffffffffffffffffffffffffffff168473ffffffffffffffffffffffffffffffffffffffff1614155b1561213e5760019050612143565b600090505b9392505050565b3373ffffffffffffffffffffffffffffffffffffffff16600460009054906101000a900473ffffffffffffffffffffffffffffffffffffffff1673ffffffffffffffffffffffffffffffffffffffff16146121da576040517f08c379a00000000000000000000000000000000000000000000000000000000081526004016121d1906130cf565b60405180910390fd5b600560008273ffffffffffffffffffffffffffffffffffffffff1673ffffffffffffffffffffffffffffffffffffffff16815260200190815260200160002060006101000a81549060ff021916905550565b6000600360008473ffffffffffffffffffffffffffffffffffffffff1673ffffffffffffffffffffffffffffffffffffffff16815260200190815260200160002060008373ffffffffffffffffffffffffffffffffffffffff1673ffffffffffffffffffffffffffffffffffffffff16815260200190815260200160002054905092915050565b6000600560008373ffffffffffffffffffffffffffffffffffffffff1673ffffffffffffffffffffffffffffffffffffffff16815260200190815260200160002060009054906101000a900460ff169050919050565b3373ffffffffffffffffffffffffffffffffffffffff16600460009054906101000a900473ffffffffffffffffffffffffffffffffffffffff1673ffffffffffffffffffffffffffffffffffffffff1614612399576040517f08c379a0000000000000000000000000000000000000000000000000000000008152600401612390906130cf565b60405180910390fd5b600073ffffffffffffffffffffffffffffffffffffffff168173ffffffffffffffffffffffffffffffffffffffff161415612409576040517f08c379a00000000000000000000000000000000000000000000000000000000081526004016124009061318f565b60405180910390fd5b80600460006101000a81548173ffffffffffffffffffffffffffffffffffffffff021916908373ffffffffffffffffffffffffffffffffffffffff16021790555050565b816000808573ffffffffffffffffffffffffffffffffffffffff1673ffffffffffffffffffffffffffffffffffffffff1681526020019081526020016000208190555080600160008573ffffffffffffffffffffffffffffffffffffffff1673ffffffffffffffffffffffffffffffffffffffff16815260200190815260200160002081905550505050565b80600260008573ffffffffffffffffffffffffffffffffffffffff1673ffffffffffffffffffffffffffffffffffffffff16815260200190815260200160002054101561255b576040517f08c379a0000000000000000000000000000000000000000000000000000000008152600401612552906131af565b60405180910390fd5b80600260008573ffffffffffffffffffffffffffffffffffffffff1673ffffffffffffffffffffffffffffffffffffffff168152602001908152602001600020546125a691906133ad565b600260008573ffffffffffffffffffffffffffffffffffffffff1673ffffffffffffffffffffffffffffffffffffffff168152602001908152602001600020819055506000600260008573ffffffffffffffffffffffffffffffffffffffff1673ffffffffffffffffffffffffffffffffffffffff168152602001908152602001600020541480156126865750600460009054906101000a900473ffffffffffffffffffffffffffffffffffffffff1673ffffffffffffffffffffffffffffffffffffffff168373ffffffffffffffffffffffffffffffffffffffff1614155b156126a157600160105461269a91906133ad565b6010819055505b6000600260008473ffffffffffffffffffffffffffffffffffffffff1673ffffffffffffffffffffffffffffffffffffffff1681526020019081526020016000205414801561273e5750600460009054906101000a900473ffffffffffffffffffffffffffffffffffffffff1673ffffffffffffffffffffffffffffffffffffffff168273ffffffffffffffffffffffffffffffffffffffff1614155b156127595760016010546127529190613357565b6010819055505b80600260008473ffffffffffffffffffffffffffffffffffffffff1673ffffffffffffffffffffffffffffffffffffffff168152602001908152602001600020546127a49190613357565b600260008473ffffffffffffffffffffffffffffffffffffffff1673ffffffffffffffffffffffffffffffffffffffff168152602001908152602001600020819055508173ffffffffffffffffffffffffffffffffffffffff168373ffffffffffffffffffffffffffffffffffffffff167fddf252ad1be2c89b69c2b068fc378daa952ba7f163c4a11628f55a4df523b3ef83604051612844919061324f565b60405180910390a3505050565b82805461285d90613478565b90600052602060002090601f01602090048101928261287f57600085556128c6565b82601f1061289857805160ff19168380011785556128c6565b828001600101855582156128c6579182015b828111156128c55782518255916020019190600101906128aa565b5b5090506128d391906128d7565b5090565b5b808211156128f05760008160009055506001016128d8565b5090565b6000612907612902846132df565b6132ae565b9050808382526020820190508285602086028201111561292657600080fd5b60005b85811015612956578161293c888261299e565b845260208401935060208301925050600181019050612929565b5050509392505050565b600061297361296e8461330b565b6132ae565b90508281526020810184848401111561298b57600080fd5b612996848285613436565b509392505050565b6000813590506129ad81613591565b92915050565b600082601f8301126129c457600080fd5b81356129d48482602086016128f4565b91505092915050565b600082601f8301126129ee57600080fd5b81356129fe848260208601612960565b91505092915050565b600081359050612a16816135a8565b92915050565b600081359050612a2b816135bf565b92915050565b600060208284031215612a4357600080fd5b6000612a518482850161299e565b91505092915050565b60008060408385031215612a6d57600080fd5b6000612a7b8582860161299e565b9250506020612a8c8582860161299e565b9150509250929050565b600080600060608486031215612aab57600080fd5b6000612ab98682870161299e565b9350506020612aca8682870161299e565b9250506040612adb86828701612a07565b9150509250925092565b60008060408385031215612af857600080fd5b6000612b068582860161299e565b9250506020612b1785828601612a07565b9150509250929050565b600080600060608486031215612b3657600080fd5b6000612b448682870161299e565b9350506020612b5586828701612a07565b9250506040612b6686828701612a07565b9150509250925092565b600080600060608486031215612b8557600080fd5b600084013567ffffffffffffffff811115612b9f57600080fd5b612bab868287016129b3565b9350506020612bbc86828701612a07565b9250506040612bcd86828701612a07565b9150509250925092565b600060208284031215612be957600080fd5b600082013567ffffffffffffffff811115612c0357600080fd5b612c0f848285016129dd565b91505092915050565b600060208284031215612c2a57600080fd5b6000612c3884828501612a07565b91505092915050565b600060208284031215612c5357600080fd5b6000612c6184828501612a1c565b91505092915050565b612c73816133e1565b82525050565b612c82816133f3565b82525050565b6000612c938261333b565b612c9d8185613346565b9350612cad818560208601613445565b612cb681613580565b840191505092915050565b6000612cce601c83613346565b91507f4f6e6c79206f776e65722063616e2063616c6c2066756e6374696f6e000000006000830152602082019050919050565b6000612d0e602383613346565b91507f56616c7565206272696e67207472616e736665727265642063616e6e6f74206260008301527f65203000000000000000000000000000000000000000000000000000000000006020830152604082019050919050565b6000612d74601483613346565b91507f5472616e73666572206e6f7420616c6c6f7765640000000000000000000000006000830152602082019050919050565b6000612db4601283613346565b91507f416d6f756e742063616e6e6f74206265203000000000000000000000000000006000830152602082019050919050565b6000612df4602783613346565b91507f416d6f756e742063616e6e6f742062652067726561746572207468616e20416c60008301527f6c6f77616e6365000000000000000000000000000000000000000000000000006020830152604082019050919050565b6000612e5a601483613346565b91507f4b59432054696d65205265737472696374696f6e0000000000000000000000006000830152602082019050919050565b6000612e9a601883613346565b91507f5a65726f2061646472657373206e6f7420616c6c6f77656400000000000000006000830152602082019050919050565b6000612eda602383613346565b91507f20416d6f756e742067726561746572207468616e2073656e6465722062616c6160008301527f6e636500000000000000000000000000000000000000000000000000000000006020830152604082019050919050565b6000612f40601b83613346565b91507f416d6f756e742067726561746572207468616e2062616c616e636500000000006000830152602082019050919050565b6000612f80603583613346565b91507f416c6c6f77656420496e766573746f72732063616e6e6f74206265206c65737360008301527f207468616e2043757272656e7420686f6c6465727300000000000000000000006020830152604082019050919050565b6000612fe6600f83613346565b91507f4e6f742057686974656c697374656400000000000000000000000000000000006000830152602082019050919050565b6000613026601783613346565b91507f4e6f742057686974656c69737420417574686f726974790000000000000000006000830152602082019050919050565b6130628161341f565b82525050565b61307181613429565b82525050565b600060208201905061308c6000830184612c6a565b92915050565b60006020820190506130a76000830184612c79565b92915050565b600060208201905081810360008301526130c78184612c88565b905092915050565b600060208201905081810360008301526130e881612cc1565b9050919050565b6000602082019050818103600083015261310881612d01565b9050919050565b6000602082019050818103600083015261312881612d67565b9050919050565b6000602082019050818103600083015261314881612da7565b9050919050565b6000602082019050818103600083015261316881612de7565b9050919050565b6000602082019050818103600083015261318881612e4d565b9050919050565b600060208201905081810360008301526131a881612e8d565b9050919050565b600060208201905081810360008301526131c881612ecd565b9050919050565b600060208201905081810360008301526131e881612f33565b9050919050565b6000602082019050818103600083015261320881612f73565b9050919050565b6000602082019050818103600083015261322881612fd9565b9050919050565b6000602082019050818103600083015261324881613019565b9050919050565b60006020820190506132646000830184613059565b92915050565b600060408201905061327f6000830185613059565b61328c6020830184613059565b9392505050565b60006020820190506132a86000830184613068565b92915050565b6000604051905081810181811067ffffffffffffffff821117156132d5576132d4613551565b5b8060405250919050565b600067ffffffffffffffff8211156132fa576132f9613551565b5b602082029050602081019050919050565b600067ffffffffffffffff82111561332657613325613551565b5b601f19601f8301169050602081019050919050565b600081519050919050565b600082825260208201905092915050565b60006133628261341f565b915061336d8361341f565b9250827fffffffffffffffffffffffffffffffffffffffffffffffffffffffffffffffff038211156133a2576133a16134f3565b5b828201905092915050565b60006133b88261341f565b91506133c38361341f565b9250828210156133d6576133d56134f3565b5b828203905092915050565b60006133ec826133ff565b9050919050565b60008115159050919050565b600073ffffffffffffffffffffffffffffffffffffffff82169050919050565b6000819050919050565b600060ff82169050919050565b82818337600083830152505050565b60005b83811015613463578082015181840152602081019050613448565b83811115613472576000848401525b50505050565b6000600282049050600182168061349057607f821691505b602082108114156134a4576134a3613522565b5b50919050565b60006134b58261341f565b91507fffffffffffffffffffffffffffffffffffffffffffffffffffffffffffffffff8214156134e8576134e76134f3565b5b600182019050919050565b7f4e487b7100000000000000000000000000000000000000000000000000000000600052601160045260246000fd5b7f4e487b7100000000000000000000000000000000000000000000000000000000600052602260045260246000fd5b7f4e487b7100000000000000000000000000000000000000000000000000000000600052604160045260246000fd5b6000601f19601f8301169050919050565b61359a816133e1565b81146135a557600080fd5b50565b6135b18161341f565b81146135bc57600080fd5b50565b6135c881613429565b81146135d357600080fd5b5056fea26469706673582212201272df6ffda9c25762e09066eae462cf81cbe4d08cdbc79916f0a066fd2090d364736f6c63430008000033",
  "immutableReferences": {},
  "source": "// SPDX-License-Identifier: MIT\n\npragma solidity ^0.8.0;\n\n// This contract is minimum implementation of ERC1404 protocol without any libraries \n\nimport \"./IERC20Token.sol\";\nimport \"./IERC1404.sol\";\n\ncontract ERC1404TokenMinKYC is IERC20Token, IERC1404 {\n\t\n\t// Set buy and sell restrictions on investors.  \n\t// date is Linux Epoch datetime\n\t// Both date must be less than current date time to allow the respective operation. Like to get tokens from others, receiver's buy restriction\n\t// must be less than current date time. \n\t// 0 means investor is not allowed to buy or sell his token.  0 indicates buyer or seller is not whitelisted. \n\t// this condition is checked in detectTransferRestriction\n    mapping (address => uint256) private _buyRestriction;  \n\tmapping (address => uint256) private _sellRestriction;\t\n\t\n\tmapping (address => uint256) private _balances;\n    mapping(address => mapping(address => uint256)) private _allowances;\n\taddress private _owner;\n\t\n\t// These addresses can control addresses that can manage whitelisting of investor or in otherwords can call modifyKYCData\n    mapping (address => bool) private _whitelistControlAuthority;  \t\n\t\n\n\t// These events are defined in IERC20Token.sol\n    // event Approval(address indexed tokenOwner, address indexed spender, uint256 tokens);\n    // event Transfer(address indexed from, address indexed to, uint256 tokens);\n\n\t\n\t// ERC20 related functions\n\tuint256 public decimals = 18;\n\tstring public version = \"1.1\";\n\tstring public IssuancePlatform = \"DigiShares\";\n\tstring public issuanceProtocol = \"ERC-1404\";\n    uint256 private _totalSupply;\n    string public name;\n    string public symbol;\n\t\n\t// Custom functions\n\tstring public ShareCertificate;\n\tstring public CompanyHomepage;\n\tstring public CompanyLegalDocs;\n\n\n\t// These variables control how many investors can have tokens\n\t// if allowedInvestors = 0 then there is no limit of investors \n\tuint256 public currentTotalInvestors = 0;\t\t\n\tuint256 public allowedInvestors = 0;\n\n\t// Transfer Allowed = true\n\t// Transfer not allowed = false\n\tbool public isTradingAllowed = true;\n\t\n\t\n\tconstructor(uint256 _initialSupply, string memory _name,  string memory _symbol, uint256 _allowedInvestors, uint256 _decimals, string memory _ShareCertificate, string memory _CompanyHomepage, string memory _CompanyLegalDocs, address _swapContractAddress ) {\n\n\t\t\tname = _name;\n\t\t\tsymbol = _symbol;\n\n\t\t\tdecimals = _decimals;\n\n\t\t\t_owner = msg.sender;\n\t\t\t_buyRestriction[_owner] = 1;\n\t\t\t_sellRestriction[_owner] = 1;\n\t\t\t_buyRestriction[_swapContractAddress] = 1;\n\t\t\t_sellRestriction[_swapContractAddress] = 1;\n\n\n\t\t\tallowedInvestors = _allowedInvestors;\n\n\t\t\t// Minting tokens for initial supply\n\t\t\t_totalSupply = _initialSupply;\n\t\t\t_balances[_owner] = _totalSupply;\n\n\t\t\t// add message sender to whitelist authority list\n\t\t\t_whitelistControlAuthority[_owner] = true;\n\n\t\t\tShareCertificate = _ShareCertificate;\n\t\t\tCompanyHomepage = _CompanyHomepage;\n\t\t\tCompanyLegalDocs = _CompanyLegalDocs;\n\n\t\t\temit Transfer(address(0), _owner, _totalSupply);\n\n\t}\n\n\n\n    function resetShareCertificate(string memory _ShareCertificate) \n\texternal \n\tonlyOwner {\n\t\t ShareCertificate = _ShareCertificate;\n    }\n\n    function resetCompanyHomepage(string memory _CompanyHomepage) \n\texternal \n\tonlyOwner {\n\t\t CompanyHomepage = _CompanyHomepage;\n    }\n\t\n    function resetCompanyLegalDocs(string memory _CompanyLegalDocs) \n\texternal \n\tonlyOwner {\n\t\t CompanyLegalDocs = _CompanyLegalDocs;\n    }\n\n\n\n\n\t// _allowedInvestors = 0    No limit on number of investors        \n\t// _allowedInvestors > 0 only X number of investors can have positive balance \n    function resetAllowedInvestors(uint256 _allowedInvestors) \n\texternal \n\tonlyOwner {\n\t\tif( _allowedInvestors != 0 )\n\t\t\trequire(_allowedInvestors >= currentTotalInvestors, \"Allowed Investors cannot be less than Current holders\");\n\n\t\t allowedInvestors = _allowedInvestors;\n    }\n\n\n    function flipTradingStatus() \n\texternal \n\tonlyOwner {\n\t\t isTradingAllowed = !isTradingAllowed;\n    }\n\n\n\t//-----------------------------------------------------------------------\n\t// Get or set current owner of this smart contract\n    function owner() \n\texternal \n\tview \n\treturns (address) {\n        return _owner;\n    }\n    modifier onlyOwner() {\n        require(_owner == msg.sender, \"Only owner can call function\");\n        _;\n    }\n    function transferOwnership(address newOwner) \n\texternal \n\tonlyOwner {\n        require(newOwner != address(0), \"Zero address not allowed\");\n\t\t_owner = newOwner;\n    }\n\t//-----------------------------------------------------------------------\n\t\n  \n  \n\n\t  \n\n\n\t  \n \n\t//-----------------------------------------------------------------------\n    // Manage whitelist autority and KYC status\n\t\n\tfunction setWhitelistAuthorityStatus(address user)\n\texternal \n\tonlyOwner {\n\t\t_whitelistControlAuthority[user] = true;\n\t}\n\tfunction removeWhitelistAuthorityStatus(address user)\n\texternal \n\tonlyOwner {\n\t\tdelete _whitelistControlAuthority[user];\n\t}\t\n\tfunction getWhitelistAuthorityStatus(address user)\n\texternal \n\tview\n\treturns (bool) {\n\t\t return _whitelistControlAuthority[user];\n\t}\t\n\t\n\n  \t// Set buy and sell restrictions on investors \n\tfunction modifyKYCData (\n\t\taddress user, \n\t\tuint256 buyRestriction, \n\t\tuint256 sellRestriction \n\t) \n\texternal \n\t{ \n\t  \trequire(_whitelistControlAuthority[msg.sender] == true, \"Not Whitelist Authority\");\n\t\tsetupKYCDataForUser( user, buyRestriction, sellRestriction );\n\t}\n\n\tfunction bulkWhitelistWallets (\n\t\taddress[] memory user, \n\t\tuint256 buyRestriction, \n\t\tuint256 sellRestriction \n\t) \n\texternal \n\t{ \n\t\trequire(_whitelistControlAuthority[msg.sender] == true, \"Not Whitelist Authority\");\n\t\tfor (uint i=0; i<user.length; i++) {\n\t\t\tsetupKYCDataForUser( user[i], buyRestriction, sellRestriction );\t\t\t\n\t\t}\t\t\n\t}\n\n\tfunction setupKYCDataForUser (\n\t\taddress user, \n\t\tuint256 buyRestriction, \n\t\tuint256 sellRestriction\n\t)\n\tinternal\n\t{\n\t\t_buyRestriction[user] = buyRestriction;\n\t\t_sellRestriction[user] = sellRestriction;\n\t}\n\n\n\n\n\tfunction getKYCData(address user) \n\texternal \n\tview\n\treturns (uint256, uint256 ) {\n\t\t   return (_buyRestriction[user] , _sellRestriction[user] );\n\t}\n\t//-----------------------------------------------------------------------\n\n\n\n\n\n\t//-----------------------------------------------------------------------\n\t// These are ERC1404 interface implementations \n\t\n    modifier notRestricted (address from, address to, uint256 value) {\n        uint8 restrictionCode = detectTransferRestriction(from, to, value);\n        require(restrictionCode == 1, messageForTransferRestriction(restrictionCode));\n        _;\n    }\n\t\n    function detectTransferRestriction (address _from, address _to, uint256 value) \n\toverride\n\tpublic \n\tview \n\treturns (uint8 status)\n    {\t\n\t      // check if trading is allowed \n\t\t  require(isTradingAllowed == true, \"Transfer not allowed\"); \t\n\n\t\t  require( value > 0, \"Value bring transferred cannot be 0\");\n\t\t  \n\t\t  require( _sellRestriction[_from] != 0  && _buyRestriction[_to] != 0, \"Not Whitelisted\" );\n\t\t  require( _sellRestriction[_from] <= block.timestamp && _buyRestriction[_to] <= block.timestamp, \"KYC Time Restriction\" );\n\t\t  \n\t\t\t// Following conditions make sure if number of token holders are within limit if enabled \n\t\t\t// allowedInvestors = 0 means no restriction on token holders\n\t\t\tif(allowedInvestors == 0)\n\t\t\t\treturn 1;\n\t\t\telse {\n\t\t\t\tif( _balances[_to] > 0 || _to == _owner) \n\t\t\t\t\t// token can be transferred if the reciver is alreay holding tokens and already counted in currentTotalInvestors\n\t\t\t\t\t// or receiver is the company account. Company account do not count in currentTotalInvestors\n\t\t\t\t\treturn 1;\n\t\t\t\telse {\n\t\t\t\t\tif(  currentTotalInvestors < allowedInvestors  )\n\t\t\t\t\t\t// currentTotalInvestors is within limits of allowedInvestors\n\t\t\t\t\t\treturn 1;\n\t\t\t\t\telse {\n\t\t\t\t\t\t// In this section currentTotalInvestors = allowedInvestors and no more transaction are allowed,  \n\t\t\t\t\t\t// except following conditions \n\t\t\t\t\t\t// if whole balance is being transferred from sender to another whitelisted investor with 0 balance  and sender is no owner\n\t\t\t\t\t\t// in this situation any sender cannot send partial balance to new receiver as it will exceed allowedInvestors limt \n\t\t\t\t\t\t// sending the whole balance will exclude current holder from allowedInvestors and new receiver will be added in allowedInvestors \n\t\t\t\t\t\t// owner is excluded in this situation because if he send partial or full balance to new investor then it will exceed allowedInvestors\n\t\t\t\t\t\tif( _balances[_from] == value && _balances[_to] == 0 && _from != _owner)    \n\t\t\t\t\t\t\treturn 1;\n\t\t\t\t\t\telse\n\t\t\t\t\t\t\treturn 0;\n\t\t\t\t\t}\n\t\t\t\t}\n\t\t\t}\n\n    }\n\n    function messageForTransferRestriction (uint8 restrictionCode)\n\toverride\n    public\t\n    pure \n\treturns (string memory message)\n    {\n        if (restrictionCode == 1) \n            message = \"Whitelisted\";\n         else \n            message = \"Not Whitelisted\";\n    }\n\t//-----------------------------------------------------------------------\n\n\n\n\n \tfunction totalSupply() \n\toverride\n\texternal \n\tview \n\treturns (uint256) {\n\t\treturn _totalSupply;\n\t}\n\n\n    function balanceOf(address account) \n\toverride\n    external \n    view \n    returns (uint256) {\n        return _balances[account];\n    }\n\t\n\n\n    function approve(\n        address spender,\n        uint256 amount\n    )  \n\toverride\n\texternal \n\treturns (bool)\n\t{\n        require(spender != address(0), \"Zero address not allowed\");\n\t\trequire(amount > 0, \"Amount cannot be 0\");\n\n        _allowances[msg.sender][spender] = amount;\n        emit Approval(msg.sender, spender, amount);\n\t\treturn true;\n    }\n\n\n \n    function allowance(address ownby, address spender) \n\toverride\n\texternal \n\tview \n\treturns (uint256) {\n        return _allowances[ownby][spender];\n    }\n\n\n\n    function transfer(\n        address recipient,\n        uint256 amount\n    ) \t\n\toverride\n\texternal \n\tnotRestricted (msg.sender, recipient, amount)\n\treturns (bool)\n\t{\n\t\ttransferSharesBetweenInvestors ( msg.sender, recipient, amount );\n\t\treturn true;\n    }\n\n\n    function transferFrom(\n        address sender,\n        address recipient,\n        uint256 amount\n    ) \n\toverride\n\texternal \n\tnotRestricted (sender, recipient, amount)\n\treturns (bool)\t\n\t{\t\n        require(_allowances[sender][msg.sender] >= amount, \"Amount cannot be greater than Allowance\" );\n\t\ttransferSharesBetweenInvestors ( sender, recipient, amount );\n        _allowances[sender][msg.sender] = _allowances[sender][msg.sender] - amount;\n\n\t\treturn true;\n    }\n\n\n\t// Force transfer of tokens\n\tfunction forceTransferToken(\n        address from,\n        uint256 amount\n\t)\n\tonlyOwner\n\texternal \n\treturns (bool)  {\n\t\ttransferSharesBetweenInvestors(from, _owner, amount);\n\t\treturn true;\n\t}\n\n\n\t// Transfer tokens from one account to other\n\t// Also manage current number of account holders\n\tfunction transferSharesBetweenInvestors (\n        address sender,\n        address recipient,\n        uint256 amount\t\n\t)\n\tinternal\n\t{\n        \trequire(_balances[sender] >= amount, \" Amount greater than sender balance\");\n\t\t\t\n\t\t\t// owner account is not counted in currentTotalInvestors in below conditions\n\t\t\t_balances[sender] = _balances[sender] - amount;\n\t\t\tif( _balances[sender] == 0 && sender != _owner )\n\t\t\t\tcurrentTotalInvestors = currentTotalInvestors - 1;\t\t\n\n\t\t\tif( _balances[recipient] == 0 && recipient != _owner )\n\t\t\t\tcurrentTotalInvestors = currentTotalInvestors + 1;\n\t\t\t_balances[recipient] = _balances[recipient] + amount;\n\n\t\t\temit Transfer(sender, recipient, amount);\n\t}\n\n\n\n    function mint(address account, uint256 amount) \n\tonlyOwner \n\texternal \n\treturns (bool)\t{\n        require(account != address(0), \"Zero address not allowed\");\n\n        _totalSupply = _totalSupply + amount;\n        _balances[account] = _balances[account] + amount;\n        emit Transfer(address(0), account, amount);\n\t\treturn true;\n    }\n\n\n    function burn(address account, uint256 amount) \n\tonlyOwner\n\texternal \n\treturns (bool)\t{\n        require(account != address(0), \"Zero address not allowed\");\n        require(_balances[account] >= amount, \"Amount greater than balance\");\n\n        _totalSupply = _totalSupply - amount;\n        _balances[account] = _balances[account] - amount;\n        emit Transfer(account, address(0), amount);\n\t\treturn true;\n    }\n\n}\n \n\n\n\n\n\n/*\nversion 1.0\n\n1.  Standard ERC20 functionality\n\n2.  ERC1404 compliance\n\n3.  Control of transfer restrictions with Buy and Sell. There are two variable that control this\n\tmapping (address => uint256) private _buyRestriction;  \n\tmapping (address => uint256) private _sellRestriction;\t\nfor each address that can receive/send token will have one entry in these mappings. The integer is linux epoch time.  If a address wants to receive tokens from another address, it must have date/time in _buyRestriciton less than the current date/time and must not be 0 which is default. Similarly if an address want to send token it must have an entry in  sellRestriction with date/time less than current date time.  This is check in the ERC1404 overridden function detectTransferRestriction. Both sender and receive addresses meet above condition, only then transfer will happen \n\n4.  isTradingAllowed     by default this variable will be 1 which means transfer will happen.  But owner of the contract can stop all transfers by setting this to 0.  this is also checked in detectTransferRestriction before any transfers\n\n5.  Whitelist Authority control.       Following mapping manages this\n  mapping (address => bool) private _whitelistControlAuthority;  \t\nonly owner of this control can set another address true, also the owner of the address is added in this mapping in constructor of this contract.  Only those addresses who are set to true in this mapping by owner can call  modifyKYCData with address and buy and sell restriction date/time (mainly to whitelist or block a address to send or receive tokens) \n\n6.  Minting and Burning     only owner of this contract can mint or burn new tokens\n\nThe contract does not use libraries like OpenZappline to make sure that minimum code is used and deployment size of low to reduce the deployment cost \n\n\n\n\nVersion 1.1\n\n1. Forceful take over of token   ( forceTransferToken )\n\n2. Bulk whitelisting  ( bulkWhitelistWallets )\n\n\n\nVersion 1.2\n\n\n*/\n",
  "sourcePath": "/home/shahzad/Shahzad/projects/git/ERC1404/contracts/ERC1404TokenMinKYC.sol",
  "compiler": {
    "name": "solc",
    "version": "0.8.0+commit.c7dfd78e.Emscripten.clang"
  },
  "schemaVersion": "3.4.9",
  "updatedAt": "2023-05-16T06:00:06.325Z",
  "devdoc": {
    "kind": "dev",
    "methods": {
      "approve(address,uint256)": {
        "details": "Sets `amount` as the allowance of `spender` over the caller's tokens. Returns a boolean value indicating whether the operation succeeded. IMPORTANT: Beware that changing an allowance with this method brings the risk that someone may use both the old and the new allowance by unfortunate transaction ordering. One possible solution to mitigate this race condition is to first reduce the spender's allowance to 0 and set the desired value afterwards: https://github.com/ethereum/EIPs/issues/20#issuecomment-263524729 Emits an {Approval} event."
      },
      "balanceOf(address)": {
        "details": "Returns the amount of tokens owned by `account`."
      },
      "messageForTransferRestriction(uint8)": {
        "details": "Overwrite with your custom message and restrictionCode handling",
        "params": {
          "restrictionCode": "Identifier for looking up a message"
        },
        "returns": {
          "message": "Text showing the restriction's reasoning"
        }
      },
      "totalSupply()": {
        "details": "Returns the amount of tokens in existence."
      },
      "transfer(address,uint256)": {
        "details": "Moves `amount` tokens from the caller's account to `recipient`. Returns a boolean value indicating whether the operation succeeded. Emits a {Transfer} event."
      },
      "transferFrom(address,address,uint256)": {
        "details": "Moves `amount` tokens from `sender` to `recipient` using the allowance mechanism. `amount` is then deducted from the caller's allowance. Returns a boolean value indicating whether the operation succeeded. Emits a {Transfer} event."
      }
    },
    "version": 1
  },
  "userdoc": {
    "kind": "user",
    "methods": {
      "messageForTransferRestriction(uint8)": {
        "notice": "Returns a human-readable message for a given restriction code"
      }
    },
    "version": 1
  }
}