{
  "contractName": "ERC1404TokenMin",
  "abi": [
    {
      "inputs": [
        {
          "internalType": "uint256",
          "name": "_initialSupply",
          "type": "uint256"
        },
        {
          "internalType": "string",
          "name": "_name",
          "type": "string"
        },
        {
          "internalType": "string",
          "name": "_symbol",
          "type": "string"
        },
        {
          "internalType": "uint256",
          "name": "_allowedInvestors",
          "type": "uint256"
        }
      ],
      "stateMutability": "nonpayable",
      "type": "constructor"
    },
    {
      "anonymous": false,
      "inputs": [
        {
          "indexed": true,
          "internalType": "address",
          "name": "tokenOwner",
          "type": "address"
        },
        {
          "indexed": true,
          "internalType": "address",
          "name": "spender",
          "type": "address"
        },
        {
          "indexed": false,
          "internalType": "uint256",
          "name": "tokens",
          "type": "uint256"
        }
      ],
      "name": "Approval",
      "type": "event"
    },
    {
      "anonymous": false,
      "inputs": [
        {
          "indexed": true,
          "internalType": "address",
          "name": "from",
          "type": "address"
        },
        {
          "indexed": true,
          "internalType": "address",
          "name": "to",
          "type": "address"
        },
        {
          "indexed": false,
          "internalType": "uint256",
          "name": "tokens",
          "type": "uint256"
        }
      ],
      "name": "Transfer",
      "type": "event"
    },
    {
      "inputs": [],
      "name": "allowedInvestors",
      "outputs": [
        {
          "internalType": "uint256",
          "name": "",
          "type": "uint256"
        }
      ],
      "stateMutability": "view",
      "type": "function"
    },
    {
      "inputs": [],
      "name": "currentTotalInvestors",
      "outputs": [
        {
          "internalType": "uint256",
          "name": "",
          "type": "uint256"
        }
      ],
      "stateMutability": "view",
      "type": "function"
    },
    {
      "inputs": [],
      "name": "decimals",
      "outputs": [
        {
          "internalType": "uint256",
          "name": "",
          "type": "uint256"
        }
      ],
      "stateMutability": "view",
      "type": "function"
    },
    {
      "inputs": [],
      "name": "isTradingAllowed",
      "outputs": [
        {
          "internalType": "uint256",
          "name": "",
          "type": "uint256"
        }
      ],
      "stateMutability": "view",
      "type": "function"
    },
    {
      "inputs": [],
      "name": "name",
      "outputs": [
        {
          "internalType": "string",
          "name": "",
          "type": "string"
        }
      ],
      "stateMutability": "view",
      "type": "function"
    },
    {
      "inputs": [],
      "name": "symbol",
      "outputs": [
        {
          "internalType": "string",
          "name": "",
          "type": "string"
        }
      ],
      "stateMutability": "view",
      "type": "function"
    },
    {
      "inputs": [],
      "name": "totalSupply",
      "outputs": [
        {
          "internalType": "uint256",
          "name": "",
          "type": "uint256"
        }
      ],
      "stateMutability": "view",
      "type": "function"
    },
    {
      "inputs": [
        {
          "internalType": "uint256",
          "name": "_allowedInvestors",
          "type": "uint256"
        }
      ],
      "name": "resetAllowedInvestors",
      "outputs": [],
      "stateMutability": "nonpayable",
      "type": "function"
    },
    {
      "inputs": [
        {
          "internalType": "uint256",
          "name": "_isTradingAllowed",
          "type": "uint256"
        }
      ],
      "name": "setTradingEnabled",
      "outputs": [],
      "stateMutability": "nonpayable",
      "type": "function"
    },
    {
      "inputs": [],
      "name": "getOwner",
      "outputs": [
        {
          "internalType": "address",
          "name": "",
          "type": "address"
        }
      ],
      "stateMutability": "view",
      "type": "function"
    },
    {
      "inputs": [
        {
          "internalType": "address",
          "name": "newOwner",
          "type": "address"
        }
      ],
      "name": "transferOwnership",
      "outputs": [],
      "stateMutability": "nonpayable",
      "type": "function"
    },
    {
      "inputs": [
        {
          "internalType": "address",
          "name": "user",
          "type": "address"
        }
      ],
      "name": "addWhitelistAddress",
      "outputs": [],
      "stateMutability": "nonpayable",
      "type": "function"
    },
    {
      "inputs": [
        {
          "internalType": "address",
          "name": "user",
          "type": "address"
        }
      ],
      "name": "removeWhitelistAddress",
      "outputs": [],
      "stateMutability": "nonpayable",
      "type": "function"
    },
    {
      "inputs": [
        {
          "internalType": "address",
          "name": "user",
          "type": "address"
        }
      ],
      "name": "isInvestorWhiteListed",
      "outputs": [
        {
          "internalType": "bool",
          "name": "",
          "type": "bool"
        }
      ],
      "stateMutability": "view",
      "type": "function"
    },
    {
      "inputs": [
        {
          "internalType": "address",
          "name": "_from",
          "type": "address"
        },
        {
          "internalType": "address",
          "name": "_to",
          "type": "address"
        },
        {
          "internalType": "uint256",
          "name": "value",
          "type": "uint256"
        }
      ],
      "name": "detectTransferRestriction",
      "outputs": [
        {
          "internalType": "uint8",
          "name": "",
          "type": "uint8"
        }
      ],
      "stateMutability": "view",
      "type": "function"
    },
    {
      "inputs": [
        {
          "internalType": "uint8",
          "name": "restrictionCode",
          "type": "uint8"
        }
      ],
      "name": "messageForTransferRestriction",
      "outputs": [
        {
          "internalType": "string",
          "name": "message",
          "type": "string"
        }
      ],
      "stateMutability": "pure",
      "type": "function"
    },
    {
      "inputs": [
        {
          "internalType": "address",
          "name": "account",
          "type": "address"
        }
      ],
      "name": "balanceOf",
      "outputs": [
        {
          "internalType": "uint256",
          "name": "",
          "type": "uint256"
        }
      ],
      "stateMutability": "view",
      "type": "function"
    },
    {
      "inputs": [
        {
          "internalType": "address",
          "name": "recipient",
          "type": "address"
        },
        {
          "internalType": "uint256",
          "name": "amount",
          "type": "uint256"
        }
      ],
      "name": "transfer",
      "outputs": [],
      "stateMutability": "nonpayable",
      "type": "function"
    },
    {
      "inputs": [
        {
          "internalType": "address",
          "name": "spender",
          "type": "address"
        },
        {
          "internalType": "uint256",
          "name": "amount",
          "type": "uint256"
        }
      ],
      "name": "approve",
      "outputs": [],
      "stateMutability": "nonpayable",
      "type": "function"
    },
    {
      "inputs": [
        {
          "internalType": "address",
          "name": "owner",
          "type": "address"
        },
        {
          "internalType": "address",
          "name": "spender",
          "type": "address"
        }
      ],
      "name": "allowance",
      "outputs": [
        {
          "internalType": "uint256",
          "name": "",
          "type": "uint256"
        }
      ],
      "stateMutability": "view",
      "type": "function"
    },
    {
      "inputs": [
        {
          "internalType": "address",
          "name": "owner",
          "type": "address"
        },
        {
          "internalType": "address",
          "name": "recipient",
          "type": "address"
        },
        {
          "internalType": "uint256",
          "name": "amount",
          "type": "uint256"
        }
      ],
      "name": "transferFrom",
      "outputs": [],
      "stateMutability": "nonpayable",
      "type": "function"
    },
    {
      "inputs": [
        {
          "internalType": "address",
          "name": "account",
          "type": "address"
        },
        {
          "internalType": "uint256",
          "name": "amount",
          "type": "uint256"
        }
      ],
      "name": "mint",
      "outputs": [],
      "stateMutability": "nonpayable",
      "type": "function"
    },
    {
      "inputs": [
        {
          "internalType": "address",
          "name": "account",
          "type": "address"
        },
        {
          "internalType": "uint256",
          "name": "amount",
          "type": "uint256"
        }
      ],
      "name": "burn",
      "outputs": [],
      "stateMutability": "nonpayable",
      "type": "function"
    }
  ],
  "bytecode": "0x60806040526000600755600060085560016009553480156200002057600080fd5b50604051620028cc380380620028cc833981810160405281019062000046919062000311565b82600590805190602001906200005e929190620001d8565b50816006908051906020019062000077929190620001d8565b5060016000803373ffffffffffffffffffffffffffffffffffffffff1673ffffffffffffffffffffffffffffffffffffffff16815260200190815260200160002060006101000a81548160ff02191690831515021790555033600360006101000a81548173ffffffffffffffffffffffffffffffffffffffff021916908373ffffffffffffffffffffffffffffffffffffffff1602179055508060088190555083600481905550600454600160003373ffffffffffffffffffffffffffffffffffffffff1673ffffffffffffffffffffffffffffffffffffffff168152602001908152602001600020819055503373ffffffffffffffffffffffffffffffffffffffff16600073ffffffffffffffffffffffffffffffffffffffff167fddf252ad1be2c89b69c2b068fc378daa952ba7f163c4a11628f55a4df523b3ef600454604051620001c69190620003c0565b60405180910390a35050505062000532565b828054620001e69062000484565b90600052602060002090601f0160209004810192826200020a576000855562000256565b82601f106200022557805160ff191683800117855562000256565b8280016001018555821562000256579182015b828111156200025557825182559160200191906001019062000238565b5b50905062000265919062000269565b5090565b5b80821115620002845760008160009055506001016200026a565b5090565b60006200029f620002998462000411565b620003dd565b905082815260208101848484011115620002b857600080fd5b620002c58482856200044e565b509392505050565b600082601f830112620002df57600080fd5b8151620002f184826020860162000288565b91505092915050565b6000815190506200030b8162000518565b92915050565b600080600080608085870312156200032857600080fd5b60006200033887828801620002fa565b945050602085015167ffffffffffffffff8111156200035657600080fd5b6200036487828801620002cd565b935050604085015167ffffffffffffffff8111156200038257600080fd5b6200039087828801620002cd565b9250506060620003a387828801620002fa565b91505092959194509250565b620003ba8162000444565b82525050565b6000602082019050620003d76000830184620003af565b92915050565b6000604051905081810181811067ffffffffffffffff82111715620004075762000406620004e9565b5b8060405250919050565b600067ffffffffffffffff8211156200042f576200042e620004e9565b5b601f19601f8301169050602081019050919050565b6000819050919050565b60005b838110156200046e57808201518184015260208101905062000451565b838111156200047e576000848401525b50505050565b600060028204905060018216806200049d57607f821691505b60208210811415620004b457620004b3620004ba565b5b50919050565b7f4e487b7100000000000000000000000000000000000000000000000000000000600052602260045260246000fd5b7f4e487b7100000000000000000000000000000000000000000000000000000000600052604160045260246000fd5b620005238162000444565b81146200052f57600080fd5b50565b61238a80620005426000396000f3fe608060405234801561001057600080fd5b506004361061014d5760003560e01c80637f4ab1dd116100c3578063a9059cbb1161007c578063a9059cbb14610366578063b7ecbaae14610382578063d4ce14151461039e578063dd62ed3e146103ce578063f2fde38b146103fe578063f3c6e9931461041a5761014d565b80637f4ab1dd146102a4578063893d20e8146102d457806394a7ef15146102f257806395d89b411461030e5780639dc29fac1461032c578063a48179ff146103485761014d565b806340c10f191161011557806340c10f19146101e4578063459688361461020057806357e637ad1461021e57806362a3d4bd1461023a5780636401ca761461025657806370a08231146102745761014d565b806306fdde0314610152578063095ea7b31461017057806318160ddd1461018c57806323b872dd146101aa578063313ce567146101c6575b600080fd5b61015a61044a565b6040516101679190612068565b60405180910390f35b61018a60048036038101906101859190611e2f565b6104d8565b005b6101946106ae565b6040516101a1919061210a565b60405180910390f35b6101c460048036038101906101bf9190611de0565b6106b4565b005b6101ce610a53565b6040516101db919061210a565b60405180910390f35b6101fe60048036038101906101f99190611e2f565b610a58565b005b610208610cab565b604051610215919061210a565b60405180910390f35b61023860048036038101906102339190611e6b565b610cb1565b005b610254600480360381019061024f9190611e6b565b610d4b565b005b61025e610de5565b60405161026b919061210a565b60405180910390f35b61028e60048036038101906102899190611d7b565b610deb565b60405161029b919061210a565b60405180910390f35b6102be60048036038101906102b99190611e94565b610e34565b6040516102cb9190612068565b60405180910390f35b6102dc610ebd565b6040516102e99190612032565b60405180910390f35b61030c60048036038101906103079190611d7b565b610ee7565b005b610316610fd1565b6040516103239190612068565b60405180910390f35b61034660048036038101906103419190611e2f565b61105f565b005b61035061136d565b60405161035d919061210a565b60405180910390f35b610380600480360381019061037b9190611e2f565b611373565b005b61039c60048036038101906103979190611d7b565b6115b3565b005b6103b860048036038101906103b39190611de0565b611694565b6040516103c59190612125565b60405180910390f35b6103e860048036038101906103e39190611da4565b611859565b6040516103f5919061210a565b60405180910390f35b61041860048036038101906104139190611d7b565b6118e0565b005b610434600480360381019061042f9190611d7b565b611a5d565b604051610441919061204d565b60405180910390f35b600580546104579061226e565b80601f01602080910402602001604051908101604052809291908181526020018280546104839061226e565b80156104d05780601f106104a5576101008083540402835291602001916104d0565b820191906000526020600020905b8154815290600101906020018083116104b357829003601f168201915b505050505081565b600073ffffffffffffffffffffffffffffffffffffffff168273ffffffffffffffffffffffffffffffffffffffff1614156040518060400160405280601281526020017f41646472657373205a65726f204572726f72000000000000000000000000000081525090610580576040517f08c379a00000000000000000000000000000000000000000000000000000000081526004016105779190612068565b60405180910390fd5b50600081116105c4576040517f08c379a00000000000000000000000000000000000000000000000000000000081526004016105bb906120ea565b60405180910390fd5b80600260003373ffffffffffffffffffffffffffffffffffffffff1673ffffffffffffffffffffffffffffffffffffffff16815260200190815260200160002060008473ffffffffffffffffffffffffffffffffffffffff1673ffffffffffffffffffffffffffffffffffffffff168152602001908152602001600020819055508173ffffffffffffffffffffffffffffffffffffffff163373ffffffffffffffffffffffffffffffffffffffff167f8c5be1e5ebec7d5bd14f71427d1e84f3dd0314c0f7b2291e5b200ac8c7c3b925836040516106a2919061210a565b60405180910390a35050565b60045481565b82828260006106c4848484611694565b905060018160ff16146106d682610e34565b90610717576040517f08c379a000000000000000000000000000000000000000000000000000000000815260040161070e9190612068565b60405180910390fd5b5084600160008973ffffffffffffffffffffffffffffffffffffffff1673ffffffffffffffffffffffffffffffffffffffff1681526020019081526020016000205410156040518060400160405280601581526020017f416d6f756e74204578636565642042616c616e63650000000000000000000000815250906107d2576040517f08c379a00000000000000000000000000000000000000000000000000000000081526004016107c99190612068565b60405180910390fd5b5084600260008973ffffffffffffffffffffffffffffffffffffffff1673ffffffffffffffffffffffffffffffffffffffff16815260200190815260200160002060003373ffffffffffffffffffffffffffffffffffffffff1673ffffffffffffffffffffffffffffffffffffffff1681526020019081526020016000205410156040518060400160405280601581526020017f416d6f756e74204578636565642042616c616e63650000000000000000000000815250906108ca576040517f08c379a00000000000000000000000000000000000000000000000000000000081526004016108c19190612068565b60405180910390fd5b506108d6878787611ab2565b61096585600260008a73ffffffffffffffffffffffffffffffffffffffff1673ffffffffffffffffffffffffffffffffffffffff16815260200190815260200160002060003373ffffffffffffffffffffffffffffffffffffffff1673ffffffffffffffffffffffffffffffffffffffff16815260200190815260200160002054611c9d90919063ffffffff16565b600260008973ffffffffffffffffffffffffffffffffffffffff1673ffffffffffffffffffffffffffffffffffffffff16815260200190815260200160002060003373ffffffffffffffffffffffffffffffffffffffff1673ffffffffffffffffffffffffffffffffffffffff168152602001908152602001600020819055508573ffffffffffffffffffffffffffffffffffffffff168773ffffffffffffffffffffffffffffffffffffffff167fddf252ad1be2c89b69c2b068fc378daa952ba7f163c4a11628f55a4df523b3ef87604051610a42919061210a565b60405180910390a350505050505050565b601281565b3373ffffffffffffffffffffffffffffffffffffffff16600360009054906101000a900473ffffffffffffffffffffffffffffffffffffffff1673ffffffffffffffffffffffffffffffffffffffff1614610ae8576040517f08c379a0000000000000000000000000000000000000000000000000000000008152600401610adf906120aa565b60405180910390fd5b600073ffffffffffffffffffffffffffffffffffffffff168273ffffffffffffffffffffffffffffffffffffffff1614156040518060400160405280601281526020017f41646472657373205a65726f204572726f72000000000000000000000000000081525090610b90576040517f08c379a0000000000000000000000000000000000000000000000000000000008152600401610b879190612068565b60405180910390fd5b50610ba681600454611cea90919063ffffffff16565b600481905550610bfe81600160008573ffffffffffffffffffffffffffffffffffffffff1673ffffffffffffffffffffffffffffffffffffffff16815260200190815260200160002054611cea90919063ffffffff16565b600160008473ffffffffffffffffffffffffffffffffffffffff1673ffffffffffffffffffffffffffffffffffffffff168152602001908152602001600020819055508173ffffffffffffffffffffffffffffffffffffffff16600073ffffffffffffffffffffffffffffffffffffffff167fddf252ad1be2c89b69c2b068fc378daa952ba7f163c4a11628f55a4df523b3ef83604051610c9f919061210a565b60405180910390a35050565b60075481565b3373ffffffffffffffffffffffffffffffffffffffff16600360009054906101000a900473ffffffffffffffffffffffffffffffffffffffff1673ffffffffffffffffffffffffffffffffffffffff1614610d41576040517f08c379a0000000000000000000000000000000000000000000000000000000008152600401610d38906120aa565b60405180910390fd5b8060098190555050565b3373ffffffffffffffffffffffffffffffffffffffff16600360009054906101000a900473ffffffffffffffffffffffffffffffffffffffff1673ffffffffffffffffffffffffffffffffffffffff1614610ddb576040517f08c379a0000000000000000000000000000000000000000000000000000000008152600401610dd2906120aa565b60405180910390fd5b8060088190555050565b60085481565b6000600160008373ffffffffffffffffffffffffffffffffffffffff1673ffffffffffffffffffffffffffffffffffffffff168152602001908152602001600020549050919050565b606060018260ff161415610e7f576040518060400160405280600b81526020017f57686974656c69737465640000000000000000000000000000000000000000008152509050610eb8565b6040518060400160405280600f81526020017f4e6f742057686974656c6973746564000000000000000000000000000000000081525090505b919050565b6000600360009054906101000a900473ffffffffffffffffffffffffffffffffffffffff16905090565b3373ffffffffffffffffffffffffffffffffffffffff16600360009054906101000a900473ffffffffffffffffffffffffffffffffffffffff1673ffffffffffffffffffffffffffffffffffffffff1614610f77576040517f08c379a0000000000000000000000000000000000000000000000000000000008152600401610f6e906120aa565b60405180910390fd5b60016000808373ffffffffffffffffffffffffffffffffffffffff1673ffffffffffffffffffffffffffffffffffffffff16815260200190815260200160002060006101000a81548160ff02191690831515021790555050565b60068054610fde9061226e565b80601f016020809104026020016040519081016040528092919081815260200182805461100a9061226e565b80156110575780601f1061102c57610100808354040283529160200191611057565b820191906000526020600020905b81548152906001019060200180831161103a57829003601f168201915b505050505081565b3373ffffffffffffffffffffffffffffffffffffffff16600360009054906101000a900473ffffffffffffffffffffffffffffffffffffffff1673ffffffffffffffffffffffffffffffffffffffff16146110ef576040517f08c379a00000000000000000000000000000000000000000000000000000000081526004016110e6906120aa565b60405180910390fd5b600073ffffffffffffffffffffffffffffffffffffffff168273ffffffffffffffffffffffffffffffffffffffff1614156040518060400160405280601281526020017f41646472657373205a65726f204572726f72000000000000000000000000000081525090611197576040517f08c379a000000000000000000000000000000000000000000000000000000000815260040161118e9190612068565b60405180910390fd5b5080600160008473ffffffffffffffffffffffffffffffffffffffff1673ffffffffffffffffffffffffffffffffffffffff1681526020019081526020016000205410156040518060400160405280601581526020017f416d6f756e74204578636565642042616c616e6365000000000000000000000081525090611252576040517f08c379a00000000000000000000000000000000000000000000000000000000081526004016112499190612068565b60405180910390fd5b5061126881600454611c9d90919063ffffffff16565b6004819055506112c081600160008573ffffffffffffffffffffffffffffffffffffffff1673ffffffffffffffffffffffffffffffffffffffff16815260200190815260200160002054611c9d90919063ffffffff16565b600160008473ffffffffffffffffffffffffffffffffffffffff1673ffffffffffffffffffffffffffffffffffffffff16815260200190815260200160002081905550600073ffffffffffffffffffffffffffffffffffffffff168273ffffffffffffffffffffffffffffffffffffffff167fddf252ad1be2c89b69c2b068fc378daa952ba7f163c4a11628f55a4df523b3ef83604051611361919061210a565b60405180910390a35050565b60095481565b3382826000611383848484611694565b905060018160ff161461139582610e34565b906113d6576040517f08c379a00000000000000000000000000000000000000000000000000000000081526004016113cd9190612068565b60405180910390fd5b50600073ffffffffffffffffffffffffffffffffffffffff168673ffffffffffffffffffffffffffffffffffffffff1614156040518060400160405280601281526020017f41646472657373205a65726f204572726f7200000000000000000000000000008152509061147f576040517f08c379a00000000000000000000000000000000000000000000000000000000081526004016114769190612068565b60405180910390fd5b5084600160003373ffffffffffffffffffffffffffffffffffffffff1673ffffffffffffffffffffffffffffffffffffffff1681526020019081526020016000205410156040518060400160405280601581526020017f416d6f756e74204578636565642042616c616e636500000000000000000000008152509061153a576040517f08c379a00000000000000000000000000000000000000000000000000000000081526004016115319190612068565b60405180910390fd5b50611546338787611ab2565b8573ffffffffffffffffffffffffffffffffffffffff163373ffffffffffffffffffffffffffffffffffffffff167fddf252ad1be2c89b69c2b068fc378daa952ba7f163c4a11628f55a4df523b3ef876040516115a3919061210a565b60405180910390a3505050505050565b3373ffffffffffffffffffffffffffffffffffffffff16600360009054906101000a900473ffffffffffffffffffffffffffffffffffffffff1673ffffffffffffffffffffffffffffffffffffffff1614611643576040517f08c379a000000000000000000000000000000000000000000000000000000000815260040161163a906120aa565b60405180910390fd5b6000808273ffffffffffffffffffffffffffffffffffffffff1673ffffffffffffffffffffffffffffffffffffffff16815260200190815260200160002060006101000a81549060ff021916905550565b60006001600954146116db576040517f08c379a00000000000000000000000000000000000000000000000000000000081526004016116d2906120ca565b60405180910390fd5b600082141561171f576040517f08c379a00000000000000000000000000000000000000000000000000000000081526004016117169061208a565b60405180910390fd5b6000808473ffffffffffffffffffffffffffffffffffffffff1673ffffffffffffffffffffffffffffffffffffffff16815260200190815260200160002060009054906101000a900460ff161561184d576000808573ffffffffffffffffffffffffffffffffffffffff1673ffffffffffffffffffffffffffffffffffffffff16815260200190815260200160002060009054906101000a900460ff161561184457600060085414156117d55760019050611852565b6000600160008573ffffffffffffffffffffffffffffffffffffffff1673ffffffffffffffffffffffffffffffffffffffff1681526020019081526020016000205411156118265760019050611852565b600854600754101561183b5760019050611852565b60009050611852565b60009050611852565b600090505b9392505050565b6000600260008473ffffffffffffffffffffffffffffffffffffffff1673ffffffffffffffffffffffffffffffffffffffff16815260200190815260200160002060008373ffffffffffffffffffffffffffffffffffffffff1673ffffffffffffffffffffffffffffffffffffffff16815260200190815260200160002054905092915050565b3373ffffffffffffffffffffffffffffffffffffffff16600360009054906101000a900473ffffffffffffffffffffffffffffffffffffffff1673ffffffffffffffffffffffffffffffffffffffff1614611970576040517f08c379a0000000000000000000000000000000000000000000000000000000008152600401611967906120aa565b60405180910390fd5b600073ffffffffffffffffffffffffffffffffffffffff168173ffffffffffffffffffffffffffffffffffffffff1614156040518060400160405280601281526020017f41646472657373205a65726f204572726f72000000000000000000000000000081525090611a18576040517f08c379a0000000000000000000000000000000000000000000000000000000008152600401611a0f9190612068565b60405180910390fd5b5080600360006101000a81548173ffffffffffffffffffffffffffffffffffffffff021916908373ffffffffffffffffffffffffffffffffffffffff16021790555050565b60008060008373ffffffffffffffffffffffffffffffffffffffff1673ffffffffffffffffffffffffffffffffffffffff16815260200190815260200160002060009054906101000a900460ff169050919050565b611b0481600160008673ffffffffffffffffffffffffffffffffffffffff1673ffffffffffffffffffffffffffffffffffffffff16815260200190815260200160002054611c9d90919063ffffffff16565b600160008573ffffffffffffffffffffffffffffffffffffffff1673ffffffffffffffffffffffffffffffffffffffff168152602001908152602001600020819055506000600160008573ffffffffffffffffffffffffffffffffffffffff1673ffffffffffffffffffffffffffffffffffffffff168152602001908152602001600020541415611ba5576001600754611b9e91906121b2565b6007819055505b6000600160008473ffffffffffffffffffffffffffffffffffffffff1673ffffffffffffffffffffffffffffffffffffffff168152602001908152602001600020541415611c03576001600754611bfc919061215c565b6007819055505b611c5581600160008573ffffffffffffffffffffffffffffffffffffffff1673ffffffffffffffffffffffffffffffffffffffff16815260200190815260200160002054611cea90919063ffffffff16565b600160008473ffffffffffffffffffffffffffffffffffffffff1673ffffffffffffffffffffffffffffffffffffffff16815260200190815260200160002081905550505050565b600082821115611cd6577f4e487b7100000000000000000000000000000000000000000000000000000000600052600160045260246000fd5b8183611ce291906121b2565b905092915050565b6000808284611cf9919061215c565b905083811015611d32577f4e487b7100000000000000000000000000000000000000000000000000000000600052600160045260246000fd5b8091505092915050565b600081359050611d4b8161230f565b92915050565b600081359050611d6081612326565b92915050565b600081359050611d758161233d565b92915050565b600060208284031215611d8d57600080fd5b6000611d9b84828501611d3c565b91505092915050565b60008060408385031215611db757600080fd5b6000611dc585828601611d3c565b9250506020611dd685828601611d3c565b9150509250929050565b600080600060608486031215611df557600080fd5b6000611e0386828701611d3c565b9350506020611e1486828701611d3c565b9250506040611e2586828701611d51565b9150509250925092565b60008060408385031215611e4257600080fd5b6000611e5085828601611d3c565b9250506020611e6185828601611d51565b9150509250929050565b600060208284031215611e7d57600080fd5b6000611e8b84828501611d51565b91505092915050565b600060208284031215611ea657600080fd5b6000611eb484828501611d66565b91505092915050565b611ec6816121e6565b82525050565b611ed5816121f8565b82525050565b6000611ee682612140565b611ef0818561214b565b9350611f0081856020860161223b565b611f09816122fe565b840191505092915050565b6000611f2160118361214b565b91507f56616c75652063616e6e6f7420626520300000000000000000000000000000006000830152602082019050919050565b6000611f6160098361214b565b91507f4e6f74204f776e657200000000000000000000000000000000000000000000006000830152602082019050919050565b6000611fa160148361214b565b91507f5472616e73666572206e6f7420616c6c6f7765640000000000000000000000006000830152602082019050919050565b6000611fe160088361214b565b91507f416d6f756e7420300000000000000000000000000000000000000000000000006000830152602082019050919050565b61201d81612224565b82525050565b61202c8161222e565b82525050565b60006020820190506120476000830184611ebd565b92915050565b60006020820190506120626000830184611ecc565b92915050565b600060208201905081810360008301526120828184611edb565b905092915050565b600060208201905081810360008301526120a381611f14565b9050919050565b600060208201905081810360008301526120c381611f54565b9050919050565b600060208201905081810360008301526120e381611f94565b9050919050565b6000602082019050818103600083015261210381611fd4565b9050919050565b600060208201905061211f6000830184612014565b92915050565b600060208201905061213a6000830184612023565b92915050565b600081519050919050565b600082825260208201905092915050565b600061216782612224565b915061217283612224565b9250827fffffffffffffffffffffffffffffffffffffffffffffffffffffffffffffffff038211156121a7576121a66122a0565b5b828201905092915050565b60006121bd82612224565b91506121c883612224565b9250828210156121db576121da6122a0565b5b828203905092915050565b60006121f182612204565b9050919050565b60008115159050919050565b600073ffffffffffffffffffffffffffffffffffffffff82169050919050565b6000819050919050565b600060ff82169050919050565b60005b8381101561225957808201518184015260208101905061223e565b83811115612268576000848401525b50505050565b6000600282049050600182168061228657607f821691505b6020821081141561229a576122996122cf565b5b50919050565b7f4e487b7100000000000000000000000000000000000000000000000000000000600052601160045260246000fd5b7f4e487b7100000000000000000000000000000000000000000000000000000000600052602260045260246000fd5b6000601f19601f8301169050919050565b612318816121e6565b811461232357600080fd5b50565b61232f81612224565b811461233a57600080fd5b50565b6123468161222e565b811461235157600080fd5b5056fea26469706673582212206e67b71464f3b51471684a60e971759418845f95b092d97048847a51e8c5fcda64736f6c63430008000033",
  "immutableReferences": {},
  "source": "// SPDX-License-Identifier: MIT\n// This contract is minimum implementation of ERC1404 protocol without any libraries \npragma solidity ^0.8.0;\n\nimport \"./IERC1404.sol\";\nimport \"./SafeMathMin.sol\";\n\n\ncontract ERC1404TokenMin is IERC1404 {\n\n    using SafeMathMin for uint256;\n\t\n    mapping (address => bool) private _whitelisted;    \t\t// List of whitelisted investors \n\tmapping(address => uint256) private _balances;\n    mapping(address => mapping(address => uint256)) private _allowances;\n\taddress private _owner;\n\n    event Approval(address indexed tokenOwner, address indexed spender, uint tokens);\n    event Transfer(address indexed from, address indexed to, uint tokens);\n\n\tuint256 public constant decimals = 18;\n    uint256 public totalSupply;\n    string public name;\n    string public symbol;\n\t\n\t// These variables control how many investors can have tokens\n\t// if allowedInvestors = 0 then there is no limit of investors \n\tuint256 public currentTotalInvestors = 0;\t\t\n\tuint256 public allowedInvestors = 0;\n\t\n\t// If Trnasfers allowed or not\n\tuint256 public isTradingAllowed = 1;\n\t\n\tstring private constant AddressZeroMessage = \"Address Zero Error\";\n\tstring private constant AmountExceedBalance = \"Amount Exceed Balance\";\t\n\n\tconstructor(uint256 _initialSupply, string memory _name,  string memory _symbol, uint256 _allowedInvestors ) {\n\t\tname = _name;\n        symbol = _symbol;\n\n\t\t_whitelisted[msg.sender] = true;\n\t\t_owner = msg.sender;\n\n\t\tallowedInvestors = _allowedInvestors;\n\n\t\t// Minting tokens for initial supply\n        totalSupply = _initialSupply;\n        _balances[msg.sender] = totalSupply;\n\t\t\t\t\n\t\temit Transfer(address(0), msg.sender, totalSupply);\n\t}\n\n\n\t\n    function resetAllowedInvestors(uint256 _allowedInvestors) \n\tpublic \n\tonlyOwner {\n\t\t allowedInvestors = _allowedInvestors;\n    }\n\n    function setTradingEnabled(uint256 _isTradingAllowed) \n\tpublic \n\tonlyOwner {\n\t\t isTradingAllowed = _isTradingAllowed;\n    }\n \n\n    function getOwner() \n\tpublic \n\tview \n\treturns (address) {\n        return _owner;\n    }\n    modifier onlyOwner() {\n        require(_owner == msg.sender, \"Not Owner\");\n        _;\n    }\n    function transferOwnership(address newOwner) \n\tpublic \n\tonlyOwner {\n        require(newOwner != address(0), AddressZeroMessage);\n\t\t_owner = newOwner;\n    }\n\n\n\n\t  function addWhitelistAddress (address user) \n\t  public \n\t  onlyOwner \n\t  { \n\t\t  _whitelisted[user] = true; \n\t  }\n\t  \n\t  function removeWhitelistAddress (address user) \n\t  public \n\t  onlyOwner\n\t  { \n\t\t  delete _whitelisted[user];\n\t  }\n\t  \n\t  function isInvestorWhiteListed(address user) \n\t  public \n\t  view\n\t  returns (bool) {\n\t\t   return _whitelisted[user]; \n\t  }\n\t  \n\t  \n\t  \n\t  \n\t  \n\n    modifier notRestricted (address from, address to, uint256 value) {\n        uint8 restrictionCode = detectTransferRestriction(from, to, value);\n        require(restrictionCode == 1, messageForTransferRestriction(restrictionCode));\n        _;\n    }\n\n\n\t// These are ERC1404 interface implementations \n    function detectTransferRestriction (address _from, address _to, uint256 value) \n\toverride\n\tpublic \n\tview \n\treturns (uint8)\n    {\n\t      // check if trading is allowed \n\t\t  require(isTradingAllowed == 1, \"Transfer not allowed\"); \n\t\t  require( value != 0, \"Value cannot be 0\");\t\t  \n\t\t\t\n\t\t // Following 2 statements make sure both sender and receiver is whitelisted \n\t\t  if (_whitelisted[_to]) {\n\t\t\t \tif (_whitelisted[_from]) {\n\t\t\t\t\t\t\n\t\t\t\t\t\t// Following conditions make sure if number of token holders are within limit if enabled \n\t\t\t\t\t\tif(allowedInvestors == 0)\n\t\t\t\t\t\t\treturn 1;\n\t\t\t\t\t\telse {\n\t\t\t\t\t\t\tif( _balances[_to] > 0 ) \n\t\t\t\t\t\t\t\treturn 1;\n\t\t\t\t\t\t\telse {\n\t\t\t\t\t\t\t\tif(  currentTotalInvestors < allowedInvestors  )\n\t\t\t\t\t\t\t\t\treturn 1;\n\t\t\t\t\t\t\t\telse\n\t\t\t\t\t\t\t\t\treturn 0;\n\t\t\t\t\t\t\t}\n\t\t\t\t\t\t}\n\t\t\t\t\t\t\n\n\t\t  \t\t} else\n\t\t\t\t\treturn 0;\n\t\t  } else\n\t\t\t  return 0;\n    }\n\n    function messageForTransferRestriction (uint8 restrictionCode)\n\toverride\n    public\t\n    pure returns (string memory message)\n    {\n        if (restrictionCode == 1) \n            message = \"Whitelisted\";\n         else \n            message = \"Not Whitelisted\";\n    }\n\n\n\n\n\n\n\n\n    function balanceOf(address account) \n    public \n    view \n    returns (uint256) {\n        return _balances[account];\n    }\n\t\n\n    function transfer(\n        address recipient,\n        uint256 amount\n    ) \t\n\tpublic \n\tnotRestricted (msg.sender, recipient, amount)\n\t{\n        require(recipient != address(0), AddressZeroMessage);\n        require(_balances[msg.sender] >= amount, AmountExceedBalance);\n\t\t\t\t\n\t\ttransferSharesBetweenInvestors ( msg.sender, recipient, amount );\n\t\t\n        emit Transfer(msg.sender, recipient, amount);\n    }\n\n\n\n    function approve(\n        address spender,\n        uint256 amount\n    ) public {\n        require(spender != address(0), AddressZeroMessage);\n\t\trequire(amount > 0, \"Amount 0\");\n\n        _allowances[msg.sender][spender] = amount;\n        emit Approval(msg.sender, spender, amount);\n    }\n\n\n    function allowance(address owner, address spender) \n\tpublic \n\tview \n\treturns (uint256) {\n        return _allowances[owner][spender];\n    }\t\n\n\n    function transferFrom(\n        address owner,\n        address recipient,\n        uint256 amount\n    ) \n\tpublic \n\tnotRestricted (owner, recipient, amount)\n\t{\t\n        require(_balances[owner] >= amount, AmountExceedBalance);\n        require(_allowances[owner][msg.sender] >= amount, AmountExceedBalance );\n\n\t\ttransferSharesBetweenInvestors ( owner, recipient, amount );\n        _allowances[owner][msg.sender] = _allowances[owner][msg.sender].sub(amount);\n\t\t\n        emit Transfer(owner, recipient, amount);\t\n    }\n\n\n\t// Transfer tokens from one account to other\n\t// Also manage current number of account holders\n\tfunction transferSharesBetweenInvestors(\n        address sender,\n        address recipient,\n        uint256 amount\t\n\t)\n\tinternal\n\t{\n\t\t\t_balances[sender] = _balances[sender].sub(amount);\n\t\t\tif( _balances[sender] == 0 )\n\t\t\t\tcurrentTotalInvestors = currentTotalInvestors - 1;\t\t\n\n\t\t\tif( _balances[recipient] == 0 )\n\t\t\t\tcurrentTotalInvestors = currentTotalInvestors + 1;\n\t\t\t_balances[recipient] = _balances[recipient].add(amount);\n\t}\n\n\n\n    function mint(address account, uint256 amount) \n\tonlyOwner \n\tpublic {\n        require(account != address(0), AddressZeroMessage);\n\n        totalSupply = totalSupply.add(amount);\n        _balances[account] = _balances[account].add(amount);\n        emit Transfer(address(0), account, amount);\n    }\n\n\n    function burn(address account, uint256 amount) \n\tonlyOwner\n\tpublic {\n        require(account != address(0), AddressZeroMessage);\n        require(_balances[account] >= amount, AmountExceedBalance);\n\n        totalSupply = totalSupply.sub(amount);\n        _balances[account] = _balances[account].sub(amount);\n\n        emit Transfer(account, address(0), amount);\n    }\n\n}\n \n\n\n\n",
  "sourcePath": "/home/shahzad/Shahzad/projects/git/ERC1404/contracts/ERC1404TokenMin.sol",
  "compiler": {
    "name": "solc",
    "version": "0.8.0+commit.c7dfd78e.Emscripten.clang"
  },
  "schemaVersion": "3.3.4",
  "updatedAt": "2021-12-22T11:53:43.730Z",
  "devdoc": {
    "kind": "dev",
    "methods": {
      "messageForTransferRestriction(uint8)": {
        "details": "Overwrite with your custom message and restrictionCode handling",
        "params": {
          "restrictionCode": "Identifier for looking up a message"
        },
        "returns": {
          "message": "Text showing the restriction's reasoning"
        }
      }
    },
    "version": 1
  },
  "userdoc": {
    "kind": "user",
    "methods": {
      "messageForTransferRestriction(uint8)": {
        "notice": "Returns a human-readable message for a given restriction code"
      }
    },
    "version": 1
  }
}