{
  "contractName": "ERC1404Token",
  "abi": [
    {
      "inputs": [
        {
          "internalType": "address",
          "name": "_tokenToMintAddress",
          "type": "address"
        },
        {
          "internalType": "uint256",
          "name": "_initialSupply",
          "type": "uint256"
        },
        {
          "internalType": "string",
          "name": "_name",
          "type": "string"
        }
      ],
      "stateMutability": "nonpayable",
      "type": "constructor"
    },
    {
      "anonymous": false,
      "inputs": [
        {
          "indexed": true,
          "internalType": "address",
          "name": "owner",
          "type": "address"
        },
        {
          "indexed": true,
          "internalType": "address",
          "name": "spender",
          "type": "address"
        },
        {
          "indexed": false,
          "internalType": "uint256",
          "name": "value",
          "type": "uint256"
        }
      ],
      "name": "Approval",
      "type": "event"
    },
    {
      "anonymous": false,
      "inputs": [
        {
          "indexed": true,
          "internalType": "address",
          "name": "previousOwner",
          "type": "address"
        },
        {
          "indexed": true,
          "internalType": "address",
          "name": "newOwner",
          "type": "address"
        }
      ],
      "name": "OwnershipTransferred",
      "type": "event"
    },
    {
      "anonymous": false,
      "inputs": [
        {
          "indexed": true,
          "internalType": "address",
          "name": "from",
          "type": "address"
        },
        {
          "indexed": true,
          "internalType": "address",
          "name": "to",
          "type": "address"
        },
        {
          "indexed": false,
          "internalType": "uint256",
          "name": "value",
          "type": "uint256"
        }
      ],
      "name": "Transfer",
      "type": "event"
    },
    {
      "inputs": [
        {
          "internalType": "address",
          "name": "owner",
          "type": "address"
        },
        {
          "internalType": "address",
          "name": "spender",
          "type": "address"
        }
      ],
      "name": "allowance",
      "outputs": [
        {
          "internalType": "uint256",
          "name": "",
          "type": "uint256"
        }
      ],
      "stateMutability": "view",
      "type": "function"
    },
    {
      "inputs": [
        {
          "internalType": "address",
          "name": "account",
          "type": "address"
        }
      ],
      "name": "balanceOf",
      "outputs": [
        {
          "internalType": "uint256",
          "name": "",
          "type": "uint256"
        }
      ],
      "stateMutability": "view",
      "type": "function"
    },
    {
      "inputs": [],
      "name": "decimals",
      "outputs": [
        {
          "internalType": "uint8",
          "name": "",
          "type": "uint8"
        }
      ],
      "stateMutability": "view",
      "type": "function"
    },
    {
      "inputs": [
        {
          "internalType": "address",
          "name": "spender",
          "type": "address"
        },
        {
          "internalType": "uint256",
          "name": "subtractedValue",
          "type": "uint256"
        }
      ],
      "name": "decreaseAllowance",
      "outputs": [
        {
          "internalType": "bool",
          "name": "",
          "type": "bool"
        }
      ],
      "stateMutability": "nonpayable",
      "type": "function"
    },
    {
      "inputs": [
        {
          "internalType": "address",
          "name": "spender",
          "type": "address"
        },
        {
          "internalType": "uint256",
          "name": "addedValue",
          "type": "uint256"
        }
      ],
      "name": "increaseAllowance",
      "outputs": [
        {
          "internalType": "bool",
          "name": "",
          "type": "bool"
        }
      ],
      "stateMutability": "nonpayable",
      "type": "function"
    },
    {
      "inputs": [],
      "name": "name",
      "outputs": [
        {
          "internalType": "string",
          "name": "",
          "type": "string"
        }
      ],
      "stateMutability": "view",
      "type": "function"
    },
    {
      "inputs": [],
      "name": "owner",
      "outputs": [
        {
          "internalType": "address",
          "name": "",
          "type": "address"
        }
      ],
      "stateMutability": "view",
      "type": "function"
    },
    {
      "inputs": [],
      "name": "renounceOwnership",
      "outputs": [],
      "stateMutability": "nonpayable",
      "type": "function"
    },
    {
      "inputs": [],
      "name": "symbol",
      "outputs": [
        {
          "internalType": "string",
          "name": "",
          "type": "string"
        }
      ],
      "stateMutability": "view",
      "type": "function"
    },
    {
      "inputs": [],
      "name": "totalSupply",
      "outputs": [
        {
          "internalType": "uint256",
          "name": "",
          "type": "uint256"
        }
      ],
      "stateMutability": "view",
      "type": "function"
    },
    {
      "inputs": [
        {
          "internalType": "address",
          "name": "newOwner",
          "type": "address"
        }
      ],
      "name": "transferOwnership",
      "outputs": [],
      "stateMutability": "nonpayable",
      "type": "function"
    },
    {
      "inputs": [
        {
          "internalType": "address",
          "name": "user",
          "type": "address"
        }
      ],
      "name": "addWhitelistAddress",
      "outputs": [
        {
          "internalType": "bool",
          "name": "",
          "type": "bool"
        }
      ],
      "stateMutability": "nonpayable",
      "type": "function"
    },
    {
      "inputs": [
        {
          "internalType": "address",
          "name": "user",
          "type": "address"
        }
      ],
      "name": "removeWhitelistAddress",
      "outputs": [
        {
          "internalType": "bool",
          "name": "",
          "type": "bool"
        }
      ],
      "stateMutability": "nonpayable",
      "type": "function"
    },
    {
      "inputs": [
        {
          "internalType": "address",
          "name": "user",
          "type": "address"
        }
      ],
      "name": "isInvestorWhiteListed",
      "outputs": [
        {
          "internalType": "bool",
          "name": "",
          "type": "bool"
        }
      ],
      "stateMutability": "view",
      "type": "function"
    },
    {
      "inputs": [
        {
          "internalType": "address",
          "name": "_from",
          "type": "address"
        },
        {
          "internalType": "address",
          "name": "_to",
          "type": "address"
        },
        {
          "internalType": "uint256",
          "name": "value",
          "type": "uint256"
        }
      ],
      "name": "detectTransferRestriction",
      "outputs": [
        {
          "internalType": "uint8",
          "name": "",
          "type": "uint8"
        }
      ],
      "stateMutability": "view",
      "type": "function"
    },
    {
      "inputs": [
        {
          "internalType": "uint8",
          "name": "restrictionCode",
          "type": "uint8"
        }
      ],
      "name": "messageForTransferRestriction",
      "outputs": [
        {
          "internalType": "string",
          "name": "message",
          "type": "string"
        }
      ],
      "stateMutability": "view",
      "type": "function"
    },
    {
      "inputs": [
        {
          "internalType": "address",
          "name": "to",
          "type": "address"
        },
        {
          "internalType": "uint256",
          "name": "value",
          "type": "uint256"
        }
      ],
      "name": "transfer",
      "outputs": [
        {
          "internalType": "bool",
          "name": "",
          "type": "bool"
        }
      ],
      "stateMutability": "nonpayable",
      "type": "function"
    },
    {
      "inputs": [
        {
          "internalType": "address",
          "name": "from",
          "type": "address"
        },
        {
          "internalType": "address",
          "name": "to",
          "type": "address"
        },
        {
          "internalType": "uint256",
          "name": "value",
          "type": "uint256"
        }
      ],
      "name": "transferFrom",
      "outputs": [
        {
          "internalType": "bool",
          "name": "",
          "type": "bool"
        }
      ],
      "stateMutability": "nonpayable",
      "type": "function"
    },
    {
      "inputs": [
        {
          "internalType": "address",
          "name": "from",
          "type": "address"
        },
        {
          "internalType": "uint256",
          "name": "amount",
          "type": "uint256"
        }
      ],
      "name": "mint",
      "outputs": [
        {
          "internalType": "bool",
          "name": "",
          "type": "bool"
        }
      ],
      "stateMutability": "nonpayable",
      "type": "function"
    },
    {
      "inputs": [
        {
          "internalType": "address",
          "name": "from",
          "type": "address"
        },
        {
          "internalType": "uint256",
          "name": "amount",
          "type": "uint256"
        }
      ],
      "name": "burn",
      "outputs": [
        {
          "internalType": "bool",
          "name": "",
          "type": "bool"
        }
      ],
      "stateMutability": "nonpayable",
      "type": "function"
    },
    {
      "inputs": [
        {
          "internalType": "address",
          "name": "spender",
          "type": "address"
        },
        {
          "internalType": "uint256",
          "name": "amount",
          "type": "uint256"
        }
      ],
      "name": "approve",
      "outputs": [
        {
          "internalType": "bool",
          "name": "",
          "type": "bool"
        }
      ],
      "stateMutability": "nonpayable",
      "type": "function"
    },
    {
      "inputs": [
        {
          "internalType": "address",
          "name": "owner",
          "type": "address"
        },
        {
          "internalType": "address",
          "name": "spender",
          "type": "address"
        },
        {
          "internalType": "uint256",
          "name": "amount",
          "type": "uint256"
        }
      ],
      "name": "approve",
      "outputs": [
        {
          "internalType": "bool",
          "name": "",
          "type": "bool"
        }
      ],
      "stateMutability": "nonpayable",
      "type": "function"
    }
  ],
  "bytecode": "0x60806040526001600760006101000a81548160ff021916908360ff1602179055506000600760016101000a81548160ff021916908360ff1602179055503480156200004957600080fd5b5060405162002d2638038062002d2683398181016040528101906200006f9190620004d9565b808181600390805190602001906200008992919062000389565b508060049080519060200190620000a292919062000389565b505050620000c5620000b96200013860201b60201c565b6200014060201b60201c565b620000d783836200020660201b60201c565b6001600660003373ffffffffffffffffffffffffffffffffffffffff1673ffffffffffffffffffffffffffffffffffffffff16815260200190815260200160002060006101000a81548160ff0219169083151502179055505050506200081a565b600033905090565b6000600560009054906101000a900473ffffffffffffffffffffffffffffffffffffffff16905081600560006101000a81548173ffffffffffffffffffffffffffffffffffffffff021916908373ffffffffffffffffffffffffffffffffffffffff1602179055508173ffffffffffffffffffffffffffffffffffffffff168173ffffffffffffffffffffffffffffffffffffffff167f8be0079c531659141344cd1fd0a4f28419497f9722a3daafe3b4186f6b6457e060405160405180910390a35050565b600073ffffffffffffffffffffffffffffffffffffffff168273ffffffffffffffffffffffffffffffffffffffff16141562000279576040517f08c379a000000000000000000000000000000000000000000000000000000000815260040162000270906200059b565b60405180910390fd5b6200028d600083836200037f60201b60201c565b8060026000828254620002a1919062000652565b92505081905550806000808473ffffffffffffffffffffffffffffffffffffffff1673ffffffffffffffffffffffffffffffffffffffff1681526020019081526020016000206000828254620002f8919062000652565b925050819055508173ffffffffffffffffffffffffffffffffffffffff16600073ffffffffffffffffffffffffffffffffffffffff167fddf252ad1be2c89b69c2b068fc378daa952ba7f163c4a11628f55a4df523b3ef836040516200035f9190620005bd565b60405180910390a36200037b600083836200038460201b60201c565b5050565b505050565b505050565b828054620003979062000723565b90600052602060002090601f016020900481019282620003bb576000855562000407565b82601f10620003d657805160ff191683800117855562000407565b8280016001018555821562000407579182015b8281111562000406578251825591602001919060010190620003e9565b5b5090506200041691906200041a565b5090565b5b80821115620004355760008160009055506001016200041b565b5090565b6000620004506200044a846200060e565b620005da565b9050828152602081018484840111156200046957600080fd5b62000476848285620006ed565b509392505050565b6000815190506200048f81620007e6565b92915050565b600082601f830112620004a757600080fd5b8151620004b984826020860162000439565b91505092915050565b600081519050620004d38162000800565b92915050565b600080600060608486031215620004ef57600080fd5b6000620004ff868287016200047e565b93505060206200051286828701620004c2565b925050604084015167ffffffffffffffff8111156200053057600080fd5b6200053e8682870162000495565b9150509250925092565b600062000557601f8362000641565b91507f45524332303a206d696e7420746f20746865207a65726f2061646472657373006000830152602082019050919050565b6200059581620006e3565b82525050565b60006020820190508181036000830152620005b68162000548565b9050919050565b6000602082019050620005d460008301846200058a565b92915050565b6000604051905081810181811067ffffffffffffffff82111715620006045762000603620007b7565b5b8060405250919050565b600067ffffffffffffffff8211156200062c576200062b620007b7565b5b601f19601f8301169050602081019050919050565b600082825260208201905092915050565b60006200065f82620006e3565b91506200066c83620006e3565b9250827fffffffffffffffffffffffffffffffffffffffffffffffffffffffffffffffff03821115620006a457620006a362000759565b5b828201905092915050565b6000620006bc82620006c3565b9050919050565b600073ffffffffffffffffffffffffffffffffffffffff82169050919050565b6000819050919050565b60005b838110156200070d578082015181840152602081019050620006f0565b838111156200071d576000848401525b50505050565b600060028204905060018216806200073c57607f821691505b6020821081141562000753576200075262000788565b5b50919050565b7f4e487b7100000000000000000000000000000000000000000000000000000000600052601160045260246000fd5b7f4e487b7100000000000000000000000000000000000000000000000000000000600052602260045260246000fd5b7f4e487b7100000000000000000000000000000000000000000000000000000000600052604160045260246000fd5b620007f181620006af565b8114620007fd57600080fd5b50565b6200080b81620006e3565b81146200081757600080fd5b50565b6124fc806200082a6000396000f3fe608060405234801561001057600080fd5b50600436106101425760003560e01c806394a7ef15116100b8578063b7ecbaae1161007c578063b7ecbaae146103c7578063d4ce1415146103f7578063dd62ed3e14610427578063e1f21c6714610457578063f2fde38b14610487578063f3c6e993146104a357610142565b806394a7ef15146102e957806395d89b41146103195780639dc29fac14610337578063a457c2d714610367578063a9059cbb1461039757610142565b8063395093511161010a578063395093511461020157806340c10f191461023157806370a0823114610261578063715018a6146102915780637f4ab1dd1461029b5780638da5cb5b146102cb57610142565b806306fdde0314610147578063095ea7b31461016557806318160ddd1461019557806323b872dd146101b3578063313ce567146101e3575b600080fd5b61014f6104d3565b60405161015c91906120ba565b60405180910390f35b61017f600480360381019061017a9190611aee565b610565565b60405161018c919061209f565b60405180910390f35b61019d610583565b6040516101aa919061227c565b60405180910390f35b6101cd60048036038101906101c89190611a9f565b61058d565b6040516101da919061209f565b60405180910390f35b6101eb61061f565b6040516101f89190612297565b60405180910390f35b61021b60048036038101906102169190611aee565b610628565b604051610228919061209f565b60405180910390f35b61024b60048036038101906102469190611aee565b6106d4565b604051610258919061209f565b60405180910390f35b61027b60048036038101906102769190611a3a565b610766565b604051610288919061227c565b60405180910390f35b6102996107ae565b005b6102b560048036038101906102b09190611b2a565b610836565b6040516102c291906120ba565b60405180910390f35b6102d36108ee565b6040516102e09190612084565b60405180910390f35b61030360048036038101906102fe9190611a3a565b610918565b604051610310919061209f565b60405180910390f35b6103216109f7565b60405161032e91906120ba565b60405180910390f35b610351600480360381019061034c9190611aee565b610a89565b60405161035e919061209f565b60405180910390f35b610381600480360381019061037c9190611aee565b610b1b565b60405161038e919061209f565b60405180910390f35b6103b160048036038101906103ac9190611aee565b610c06565b6040516103be919061209f565b60405180910390f35b6103e160048036038101906103dc9190611a3a565b610c96565b6040516103ee919061209f565b60405180910390f35b610411600480360381019061040c9190611a9f565b610d6c565b60405161041e9190612297565b60405180910390f35b610441600480360381019061043c9190611a63565b610e9d565b60405161044e919061227c565b60405180910390f35b610471600480360381019061046c9190611a9f565b610f24565b60405161047e919061209f565b60405180910390f35b6104a1600480360381019061049c9190611a3a565b610f3c565b005b6104bd60048036038101906104b89190611a3a565b611034565b6040516104ca919061209f565b60405180910390f35b6060600380546104e2906123e0565b80601f016020809104026020016040519081016040528092919081815260200182805461050e906123e0565b801561055b5780601f106105305761010080835404028352916020019161055b565b820191906000526020600020905b81548152906001019060200180831161053e57829003601f168201915b5050505050905090565b600061057961057261108a565b8484611092565b6001905092915050565b6000600254905090565b6000838383600061059f848484610d6c565b9050600760009054906101000a900460ff1660ff168160ff16146105c282610836565b90610603576040517f08c379a00000000000000000000000000000000000000000000000000000000081526004016105fa91906120ba565b60405180910390fd5b5061060f88888861125d565b5060019450505050509392505050565b60006012905090565b60006106ca61063561108a565b84846001600061064361108a565b73ffffffffffffffffffffffffffffffffffffffff1673ffffffffffffffffffffffffffffffffffffffff16815260200190815260200160002060008873ffffffffffffffffffffffffffffffffffffffff1673ffffffffffffffffffffffffffffffffffffffff168152602001908152602001600020546106c591906122ce565b611092565b6001905092915050565b60006106de61108a565b73ffffffffffffffffffffffffffffffffffffffff166106fc6108ee565b73ffffffffffffffffffffffffffffffffffffffff1614610752576040517f08c379a0000000000000000000000000000000000000000000000000000000008152600401610749906121bc565b60405180910390fd5b61075c8383611355565b6001905092915050565b60008060008373ffffffffffffffffffffffffffffffffffffffff1673ffffffffffffffffffffffffffffffffffffffff168152602001908152602001600020549050919050565b6107b661108a565b73ffffffffffffffffffffffffffffffffffffffff166107d46108ee565b73ffffffffffffffffffffffffffffffffffffffff161461082a576040517f08c379a0000000000000000000000000000000000000000000000000000000008152600401610821906121bc565b60405180910390fd5b61083460006114b5565b565b6060600760009054906101000a900460ff1660ff168260ff161415610892576040518060400160405280601681526020017f416464726573732069732057686974656c69737465640000000000000000000081525090506108e9565b600760019054906101000a900460ff1660ff168260ff1614156108e8576040518060400160405280601a81526020017f41646472657373206973206e6f742057686974656c697374656400000000000081525090505b5b919050565b6000600560009054906101000a900473ffffffffffffffffffffffffffffffffffffffff16905090565b600061092261108a565b73ffffffffffffffffffffffffffffffffffffffff166109406108ee565b73ffffffffffffffffffffffffffffffffffffffff1614610996576040517f08c379a000000000000000000000000000000000000000000000000000000000815260040161098d906121bc565b60405180910390fd5b6001600660008473ffffffffffffffffffffffffffffffffffffffff1673ffffffffffffffffffffffffffffffffffffffff16815260200190815260200160002060006101000a81548160ff02191690831515021790555060019050919050565b606060048054610a06906123e0565b80601f0160208091040260200160405190810160405280929190818152602001828054610a32906123e0565b8015610a7f5780601f10610a5457610100808354040283529160200191610a7f565b820191906000526020600020905b815481529060010190602001808311610a6257829003601f168201915b5050505050905090565b6000610a9361108a565b73ffffffffffffffffffffffffffffffffffffffff16610ab16108ee565b73ffffffffffffffffffffffffffffffffffffffff1614610b07576040517f08c379a0000000000000000000000000000000000000000000000000000000008152600401610afe906121bc565b60405180910390fd5b610b11838361157b565b6001905092915050565b60008060016000610b2a61108a565b73ffffffffffffffffffffffffffffffffffffffff1673ffffffffffffffffffffffffffffffffffffffff16815260200190815260200160002060008573ffffffffffffffffffffffffffffffffffffffff1673ffffffffffffffffffffffffffffffffffffffff16815260200190815260200160002054905082811015610be7576040517f08c379a0000000000000000000000000000000000000000000000000000000008152600401610bde9061223c565b60405180910390fd5b610bfb610bf261108a565b85858403611092565b600191505092915050565b60003383836000610c18848484610d6c565b9050600760009054906101000a900460ff1660ff168160ff1614610c3b82610836565b90610c7c576040517f08c379a0000000000000000000000000000000000000000000000000000000008152600401610c7391906120ba565b60405180910390fd5b50610c878787611752565b50600194505050505092915050565b6000610ca061108a565b73ffffffffffffffffffffffffffffffffffffffff16610cbe6108ee565b73ffffffffffffffffffffffffffffffffffffffff1614610d14576040517f08c379a0000000000000000000000000000000000000000000000000000000008152600401610d0b906121bc565b60405180910390fd5b600660008373ffffffffffffffffffffffffffffffffffffffff1673ffffffffffffffffffffffffffffffffffffffff16815260200190815260200160002060006101000a81549060ff021916905560019050919050565b600080821415610db1576040517f08c379a0000000000000000000000000000000000000000000000000000000008152600401610da89061211c565b60405180910390fd5b600660008473ffffffffffffffffffffffffffffffffffffffff1673ffffffffffffffffffffffffffffffffffffffff16815260200190815260200160002060009054906101000a900460ff1615610e8357600660008573ffffffffffffffffffffffffffffffffffffffff1673ffffffffffffffffffffffffffffffffffffffff16815260200190815260200160002060009054906101000a900460ff1615610e6c57600760009054906101000a900460ff169050610e96565b600760019054906101000a900460ff169050610e96565b600760019054906101000a900460ff1690505b9392505050565b6000600160008473ffffffffffffffffffffffffffffffffffffffff1673ffffffffffffffffffffffffffffffffffffffff16815260200190815260200160002060008373ffffffffffffffffffffffffffffffffffffffff1673ffffffffffffffffffffffffffffffffffffffff16815260200190815260200160002054905092915050565b6000610f31848484611092565b600190509392505050565b610f4461108a565b73ffffffffffffffffffffffffffffffffffffffff16610f626108ee565b73ffffffffffffffffffffffffffffffffffffffff1614610fb8576040517f08c379a0000000000000000000000000000000000000000000000000000000008152600401610faf906121bc565b60405180910390fd5b600073ffffffffffffffffffffffffffffffffffffffff168173ffffffffffffffffffffffffffffffffffffffff161415611028576040517f08c379a000000000000000000000000000000000000000000000000000000000815260040161101f9061213c565b60405180910390fd5b611031816114b5565b50565b6000600660008373ffffffffffffffffffffffffffffffffffffffff1673ffffffffffffffffffffffffffffffffffffffff16815260200190815260200160002060009054906101000a900460ff169050919050565b600033905090565b600073ffffffffffffffffffffffffffffffffffffffff168373ffffffffffffffffffffffffffffffffffffffff161415611102576040517f08c379a00000000000000000000000000000000000000000000000000000000081526004016110f99061221c565b60405180910390fd5b600073ffffffffffffffffffffffffffffffffffffffff168273ffffffffffffffffffffffffffffffffffffffff161415611172576040517f08c379a00000000000000000000000000000000000000000000000000000000081526004016111699061215c565b60405180910390fd5b80600160008573ffffffffffffffffffffffffffffffffffffffff1673ffffffffffffffffffffffffffffffffffffffff16815260200190815260200160002060008473ffffffffffffffffffffffffffffffffffffffff1673ffffffffffffffffffffffffffffffffffffffff168152602001908152602001600020819055508173ffffffffffffffffffffffffffffffffffffffff168373ffffffffffffffffffffffffffffffffffffffff167f8c5be1e5ebec7d5bd14f71427d1e84f3dd0314c0f7b2291e5b200ac8c7c3b92583604051611250919061227c565b60405180910390a3505050565b600061126a848484611770565b6000600160008673ffffffffffffffffffffffffffffffffffffffff1673ffffffffffffffffffffffffffffffffffffffff16815260200190815260200160002060006112b561108a565b73ffffffffffffffffffffffffffffffffffffffff1673ffffffffffffffffffffffffffffffffffffffff16815260200190815260200160002054905082811015611335576040517f08c379a000000000000000000000000000000000000000000000000000000000815260040161132c9061219c565b60405180910390fd5b6113498561134161108a565b858403611092565b60019150509392505050565b600073ffffffffffffffffffffffffffffffffffffffff168273ffffffffffffffffffffffffffffffffffffffff1614156113c5576040517f08c379a00000000000000000000000000000000000000000000000000000000081526004016113bc9061225c565b60405180910390fd5b6113d1600083836119f1565b80600260008282546113e391906122ce565b92505081905550806000808473ffffffffffffffffffffffffffffffffffffffff1673ffffffffffffffffffffffffffffffffffffffff168152602001908152602001600020600082825461143891906122ce565b925050819055508173ffffffffffffffffffffffffffffffffffffffff16600073ffffffffffffffffffffffffffffffffffffffff167fddf252ad1be2c89b69c2b068fc378daa952ba7f163c4a11628f55a4df523b3ef8360405161149d919061227c565b60405180910390a36114b1600083836119f6565b5050565b6000600560009054906101000a900473ffffffffffffffffffffffffffffffffffffffff16905081600560006101000a81548173ffffffffffffffffffffffffffffffffffffffff021916908373ffffffffffffffffffffffffffffffffffffffff1602179055508173ffffffffffffffffffffffffffffffffffffffff168173ffffffffffffffffffffffffffffffffffffffff167f8be0079c531659141344cd1fd0a4f28419497f9722a3daafe3b4186f6b6457e060405160405180910390a35050565b600073ffffffffffffffffffffffffffffffffffffffff168273ffffffffffffffffffffffffffffffffffffffff1614156115eb576040517f08c379a00000000000000000000000000000000000000000000000000000000081526004016115e2906121dc565b60405180910390fd5b6115f7826000836119f1565b60008060008473ffffffffffffffffffffffffffffffffffffffff1673ffffffffffffffffffffffffffffffffffffffff1681526020019081526020016000205490508181101561167d576040517f08c379a0000000000000000000000000000000000000000000000000000000008152600401611674906120fc565b60405180910390fd5b8181036000808573ffffffffffffffffffffffffffffffffffffffff1673ffffffffffffffffffffffffffffffffffffffff1681526020019081526020016000208190555081600260008282546116d49190612324565b92505081905550600073ffffffffffffffffffffffffffffffffffffffff168373ffffffffffffffffffffffffffffffffffffffff167fddf252ad1be2c89b69c2b068fc378daa952ba7f163c4a11628f55a4df523b3ef84604051611739919061227c565b60405180910390a361174d836000846119f6565b505050565b600061176661175f61108a565b8484611770565b6001905092915050565b600073ffffffffffffffffffffffffffffffffffffffff168373ffffffffffffffffffffffffffffffffffffffff1614156117e0576040517f08c379a00000000000000000000000000000000000000000000000000000000081526004016117d7906121fc565b60405180910390fd5b600073ffffffffffffffffffffffffffffffffffffffff168273ffffffffffffffffffffffffffffffffffffffff161415611850576040517f08c379a0000000000000000000000000000000000000000000000000000000008152600401611847906120dc565b60405180910390fd5b61185b8383836119f1565b60008060008573ffffffffffffffffffffffffffffffffffffffff1673ffffffffffffffffffffffffffffffffffffffff168152602001908152602001600020549050818110156118e1576040517f08c379a00000000000000000000000000000000000000000000000000000000081526004016118d89061217c565b60405180910390fd5b8181036000808673ffffffffffffffffffffffffffffffffffffffff1673ffffffffffffffffffffffffffffffffffffffff16815260200190815260200160002081905550816000808573ffffffffffffffffffffffffffffffffffffffff1673ffffffffffffffffffffffffffffffffffffffff168152602001908152602001600020600082825461197491906122ce565b925050819055508273ffffffffffffffffffffffffffffffffffffffff168473ffffffffffffffffffffffffffffffffffffffff167fddf252ad1be2c89b69c2b068fc378daa952ba7f163c4a11628f55a4df523b3ef846040516119d8919061227c565b60405180910390a36119eb8484846119f6565b50505050565b505050565b505050565b600081359050611a0a81612481565b92915050565b600081359050611a1f81612498565b92915050565b600081359050611a34816124af565b92915050565b600060208284031215611a4c57600080fd5b6000611a5a848285016119fb565b91505092915050565b60008060408385031215611a7657600080fd5b6000611a84858286016119fb565b9250506020611a95858286016119fb565b9150509250929050565b600080600060608486031215611ab457600080fd5b6000611ac2868287016119fb565b9350506020611ad3868287016119fb565b9250506040611ae486828701611a10565b9150509250925092565b60008060408385031215611b0157600080fd5b6000611b0f858286016119fb565b9250506020611b2085828601611a10565b9150509250929050565b600060208284031215611b3c57600080fd5b6000611b4a84828501611a25565b91505092915050565b611b5c81612358565b82525050565b611b6b8161236a565b82525050565b6000611b7c826122b2565b611b8681856122bd565b9350611b968185602086016123ad565b611b9f81612470565b840191505092915050565b6000611bb76023836122bd565b91507f45524332303a207472616e7366657220746f20746865207a65726f206164647260008301527f65737300000000000000000000000000000000000000000000000000000000006020830152604082019050919050565b6000611c1d6022836122bd565b91507f45524332303a206275726e20616d6f756e7420657863656564732062616c616e60008301527f63650000000000000000000000000000000000000000000000000000000000006020830152604082019050919050565b6000611c836011836122bd565b91507f56616c75652063616e6e6f7420626520300000000000000000000000000000006000830152602082019050919050565b6000611cc36026836122bd565b91507f4f776e61626c653a206e6577206f776e657220697320746865207a65726f206160008301527f64647265737300000000000000000000000000000000000000000000000000006020830152604082019050919050565b6000611d296022836122bd565b91507f45524332303a20617070726f766520746f20746865207a65726f20616464726560008301527f73730000000000000000000000000000000000000000000000000000000000006020830152604082019050919050565b6000611d8f6026836122bd565b91507f45524332303a207472616e7366657220616d6f756e742065786365656473206260008301527f616c616e636500000000000000000000000000000000000000000000000000006020830152604082019050919050565b6000611df56028836122bd565b91507f45524332303a207472616e7366657220616d6f756e742065786365656473206160008301527f6c6c6f77616e63650000000000000000000000000000000000000000000000006020830152604082019050919050565b6000611e5b6020836122bd565b91507f4f776e61626c653a2063616c6c6572206973206e6f7420746865206f776e65726000830152602082019050919050565b6000611e9b6021836122bd565b91507f45524332303a206275726e2066726f6d20746865207a65726f2061646472657360008301527f73000000000000000000000000000000000000000000000000000000000000006020830152604082019050919050565b6000611f016025836122bd565b91507f45524332303a207472616e736665722066726f6d20746865207a65726f20616460008301527f64726573730000000000000000000000000000000000000000000000000000006020830152604082019050919050565b6000611f676024836122bd565b91507f45524332303a20617070726f76652066726f6d20746865207a65726f2061646460008301527f72657373000000000000000000000000000000000000000000000000000000006020830152604082019050919050565b6000611fcd6025836122bd565b91507f45524332303a2064656372656173656420616c6c6f77616e63652062656c6f7760008301527f207a65726f0000000000000000000000000000000000000000000000000000006020830152604082019050919050565b6000612033601f836122bd565b91507f45524332303a206d696e7420746f20746865207a65726f2061646472657373006000830152602082019050919050565b61206f81612396565b82525050565b61207e816123a0565b82525050565b60006020820190506120996000830184611b53565b92915050565b60006020820190506120b46000830184611b62565b92915050565b600060208201905081810360008301526120d48184611b71565b905092915050565b600060208201905081810360008301526120f581611baa565b9050919050565b6000602082019050818103600083015261211581611c10565b9050919050565b6000602082019050818103600083015261213581611c76565b9050919050565b6000602082019050818103600083015261215581611cb6565b9050919050565b6000602082019050818103600083015261217581611d1c565b9050919050565b6000602082019050818103600083015261219581611d82565b9050919050565b600060208201905081810360008301526121b581611de8565b9050919050565b600060208201905081810360008301526121d581611e4e565b9050919050565b600060208201905081810360008301526121f581611e8e565b9050919050565b6000602082019050818103600083015261221581611ef4565b9050919050565b6000602082019050818103600083015261223581611f5a565b9050919050565b6000602082019050818103600083015261225581611fc0565b9050919050565b6000602082019050818103600083015261227581612026565b9050919050565b60006020820190506122916000830184612066565b92915050565b60006020820190506122ac6000830184612075565b92915050565b600081519050919050565b600082825260208201905092915050565b60006122d982612396565b91506122e483612396565b9250827fffffffffffffffffffffffffffffffffffffffffffffffffffffffffffffffff0382111561231957612318612412565b5b828201905092915050565b600061232f82612396565b915061233a83612396565b92508282101561234d5761234c612412565b5b828203905092915050565b600061236382612376565b9050919050565b60008115159050919050565b600073ffffffffffffffffffffffffffffffffffffffff82169050919050565b6000819050919050565b600060ff82169050919050565b60005b838110156123cb5780820151818401526020810190506123b0565b838111156123da576000848401525b50505050565b600060028204905060018216806123f857607f821691505b6020821081141561240c5761240b612441565b5b50919050565b7f4e487b7100000000000000000000000000000000000000000000000000000000600052601160045260246000fd5b7f4e487b7100000000000000000000000000000000000000000000000000000000600052602260045260246000fd5b6000601f19601f8301169050919050565b61248a81612358565b811461249557600080fd5b50565b6124a181612396565b81146124ac57600080fd5b50565b6124b8816123a0565b81146124c357600080fd5b5056fea264697066735822122004c8e4c6b9c66bc2ca61339f8c2da60bab45fbfd87be244445fecfc4028f3ef864736f6c63430008000033",
  "immutableReferences": {},
  "source": "// SPDX-License-Identifier: MIT\npragma solidity ^0.8.0;\n\nimport \"@openzeppelin/contracts/token/ERC20/ERC20.sol\";\nimport \"@openzeppelin/contracts/access/Ownable.sol\";\nimport \"./IERC1404.sol\";\n\n\ncontract ERC1404Token is IERC1404, ERC20, Ownable {\n\n    mapping (address => bool) internal whitelisted;  \n\t\n\tuint8 SUCCESS_CODE = 1;\n\tuint8 FAILURE_CODE = 0;\t\n\n\tconstructor(address _tokenToMintAddress, uint256 _initialSupply, string memory _name ) ERC20(_name, _name) {\n\t\t\t_mint(_tokenToMintAddress , _initialSupply);\n\t\t\twhitelisted[msg.sender] = true;\n\t}\n\n\t  function addWhitelistAddress (address user) \n\t  public \n\t  onlyOwner \n\t   returns (bool){ \n\t\t  whitelisted[user] = true; \n\t\t  return true;\n\t  }\n\t  \n\t  function removeWhitelistAddress (address user) \n\t  public \n\t  onlyOwner\n\t  returns (bool){ \n\t\t  delete whitelisted[user];\n\t\t  return true;\n\t  }\n\t  \n\t  function isInvestorWhiteListed(address user) \n\t  public \n\t  view\n\t  returns (bool) {\n\t\t   return whitelisted[user]; \n\t  }\n\t  \n\n    modifier notRestricted (address from, address to, uint256 value) {\n        uint8 restrictionCode = detectTransferRestriction(from, to, value);\n        require(restrictionCode == SUCCESS_CODE, messageForTransferRestriction(restrictionCode));\n        _;\n    }\n\n\n    function detectTransferRestriction (address _from, address _to, uint256 value) \n\tpublic \n\toverride\n\tview \n\treturns (uint8)\n    {\n\t\t  require( value != 0, \"Value cannot be 0\");\n\t\t\t  \n\t\t  if (whitelisted[_to])\n\t\t  {\n\t\t\t if (whitelisted[_from]) \n\t\t\t\treturn SUCCESS_CODE;\n\t\t\t else\n\t\t\t\treturn FAILURE_CODE;\n\t\t  } else\n\t\t\t  return FAILURE_CODE;\n    }\n\n\n    function messageForTransferRestriction (uint8 restrictionCode)\n    public\n\toverride\t\n    view\n    returns (string memory message)\n    {\n        if (restrictionCode == SUCCESS_CODE) {\n            message = \"Address is Whitelisted\";\n        } else if (restrictionCode == FAILURE_CODE) {\n            message = \"Address is not Whitelisted\";\n        }\n    }\n\n\n\n    function transfer (address to, uint256 value)\n\t\toverride\n\t\tnotRestricted (msg.sender, to, value)\n        public        \n        returns (bool)\n    {\n\t\t super.transfer(to, value);\n\t\t return true;\n    }\n\n\n\n    function  transferFrom (address from, address to, uint256 value)\n\t\toverride\n\t\tnotRestricted (from, to, value)\n        public\n        returns (bool)\n    {\n\t\tsuper.transferFrom(from, to, value);\n\t\treturn true;\n    }\n\t\n\t\n\t\n    function mint (address from, uint256 amount)\t\t\n        public        \n\t\tonlyOwner\n        returns (bool)\n    {\n\t\t super._mint(from, amount);\n\t\t return true;\n    }\n\t\n\n    function burn (address from, uint256 amount)\n\t\tpublic     \n\t\tonlyOwner   \n        returns (bool)\n    {\n\t\t super._burn(from, amount);\n\t\t return true;\n    }\n\n\n    function approve( address owner, address spender, uint256 amount) \n\tpublic\n\treturns (bool) \n\t{\n\t\t super._approve(owner, spender, amount);\n\t\t return true;\n    }\n\n\n}\n ",
  "sourcePath": "/home/shahzad/Shahzad/projects/git/ERC1404/contracts/ERC1404Token.sol",
  "compiler": {
    "name": "solc",
    "version": "0.8.0+commit.c7dfd78e.Emscripten.clang"
  },
  "schemaVersion": "3.4.9",
  "updatedAt": "2022-09-26T07:02:02.571Z",
  "devdoc": {
    "kind": "dev",
    "methods": {
      "allowance(address,address)": {
        "details": "See {IERC20-allowance}."
      },
      "approve(address,uint256)": {
        "details": "See {IERC20-approve}. Requirements: - `spender` cannot be the zero address."
      },
      "balanceOf(address)": {
        "details": "See {IERC20-balanceOf}."
      },
      "decimals()": {
        "details": "Returns the number of decimals used to get its user representation. For example, if `decimals` equals `2`, a balance of `505` tokens should be displayed to a user as `5.05` (`505 / 10 ** 2`). Tokens usually opt for a value of 18, imitating the relationship between Ether and Wei. This is the value {ERC20} uses, unless this function is overridden; NOTE: This information is only used for _display_ purposes: it in no way affects any of the arithmetic of the contract, including {IERC20-balanceOf} and {IERC20-transfer}."
      },
      "decreaseAllowance(address,uint256)": {
        "details": "Atomically decreases the allowance granted to `spender` by the caller. This is an alternative to {approve} that can be used as a mitigation for problems described in {IERC20-approve}. Emits an {Approval} event indicating the updated allowance. Requirements: - `spender` cannot be the zero address. - `spender` must have allowance for the caller of at least `subtractedValue`."
      },
      "increaseAllowance(address,uint256)": {
        "details": "Atomically increases the allowance granted to `spender` by the caller. This is an alternative to {approve} that can be used as a mitigation for problems described in {IERC20-approve}. Emits an {Approval} event indicating the updated allowance. Requirements: - `spender` cannot be the zero address."
      },
      "messageForTransferRestriction(uint8)": {
        "details": "Overwrite with your custom message and restrictionCode handling",
        "params": {
          "restrictionCode": "Identifier for looking up a message"
        },
        "returns": {
          "message": "Text showing the restriction's reasoning"
        }
      },
      "name()": {
        "details": "Returns the name of the token."
      },
      "owner()": {
        "details": "Returns the address of the current owner."
      },
      "renounceOwnership()": {
        "details": "Leaves the contract without owner. It will not be possible to call `onlyOwner` functions anymore. Can only be called by the current owner. NOTE: Renouncing ownership will leave the contract without an owner, thereby removing any functionality that is only available to the owner."
      },
      "symbol()": {
        "details": "Returns the symbol of the token, usually a shorter version of the name."
      },
      "totalSupply()": {
        "details": "See {IERC20-totalSupply}."
      },
      "transferOwnership(address)": {
        "details": "Transfers ownership of the contract to a new account (`newOwner`). Can only be called by the current owner."
      }
    },
    "version": 1
  },
  "userdoc": {
    "kind": "user",
    "methods": {
      "messageForTransferRestriction(uint8)": {
        "notice": "Returns a human-readable message for a given restriction code"
      }
    },
    "version": 1
  }
}