{
  "contractName": "ERC1404Token",
  "abi": [
    {
      "inputs": [
        {
          "internalType": "address",
          "name": "_tokenToMintAddress",
          "type": "address"
        },
        {
          "internalType": "uint256",
          "name": "_initialSupply",
          "type": "uint256"
        },
        {
          "internalType": "string",
          "name": "_name",
          "type": "string"
        }
      ],
      "stateMutability": "nonpayable",
      "type": "constructor"
    },
    {
      "anonymous": false,
      "inputs": [
        {
          "indexed": true,
          "internalType": "address",
          "name": "owner",
          "type": "address"
        },
        {
          "indexed": true,
          "internalType": "address",
          "name": "spender",
          "type": "address"
        },
        {
          "indexed": false,
          "internalType": "uint256",
          "name": "value",
          "type": "uint256"
        }
      ],
      "name": "Approval",
      "type": "event"
    },
    {
      "anonymous": false,
      "inputs": [
        {
          "indexed": true,
          "internalType": "address",
          "name": "previousOwner",
          "type": "address"
        },
        {
          "indexed": true,
          "internalType": "address",
          "name": "newOwner",
          "type": "address"
        }
      ],
      "name": "OwnershipTransferred",
      "type": "event"
    },
    {
      "anonymous": false,
      "inputs": [
        {
          "indexed": true,
          "internalType": "address",
          "name": "from",
          "type": "address"
        },
        {
          "indexed": true,
          "internalType": "address",
          "name": "to",
          "type": "address"
        },
        {
          "indexed": false,
          "internalType": "uint256",
          "name": "value",
          "type": "uint256"
        }
      ],
      "name": "Transfer",
      "type": "event"
    },
    {
      "inputs": [
        {
          "internalType": "address",
          "name": "owner",
          "type": "address"
        },
        {
          "internalType": "address",
          "name": "spender",
          "type": "address"
        }
      ],
      "name": "allowance",
      "outputs": [
        {
          "internalType": "uint256",
          "name": "",
          "type": "uint256"
        }
      ],
      "stateMutability": "view",
      "type": "function"
    },
    {
      "inputs": [
        {
          "internalType": "address",
          "name": "account",
          "type": "address"
        }
      ],
      "name": "balanceOf",
      "outputs": [
        {
          "internalType": "uint256",
          "name": "",
          "type": "uint256"
        }
      ],
      "stateMutability": "view",
      "type": "function"
    },
    {
      "inputs": [],
      "name": "decimals",
      "outputs": [
        {
          "internalType": "uint8",
          "name": "",
          "type": "uint8"
        }
      ],
      "stateMutability": "view",
      "type": "function"
    },
    {
      "inputs": [
        {
          "internalType": "address",
          "name": "spender",
          "type": "address"
        },
        {
          "internalType": "uint256",
          "name": "subtractedValue",
          "type": "uint256"
        }
      ],
      "name": "decreaseAllowance",
      "outputs": [
        {
          "internalType": "bool",
          "name": "",
          "type": "bool"
        }
      ],
      "stateMutability": "nonpayable",
      "type": "function"
    },
    {
      "inputs": [
        {
          "internalType": "address",
          "name": "spender",
          "type": "address"
        },
        {
          "internalType": "uint256",
          "name": "addedValue",
          "type": "uint256"
        }
      ],
      "name": "increaseAllowance",
      "outputs": [
        {
          "internalType": "bool",
          "name": "",
          "type": "bool"
        }
      ],
      "stateMutability": "nonpayable",
      "type": "function"
    },
    {
      "inputs": [],
      "name": "name",
      "outputs": [
        {
          "internalType": "string",
          "name": "",
          "type": "string"
        }
      ],
      "stateMutability": "view",
      "type": "function"
    },
    {
      "inputs": [],
      "name": "owner",
      "outputs": [
        {
          "internalType": "address",
          "name": "",
          "type": "address"
        }
      ],
      "stateMutability": "view",
      "type": "function"
    },
    {
      "inputs": [],
      "name": "renounceOwnership",
      "outputs": [],
      "stateMutability": "nonpayable",
      "type": "function"
    },
    {
      "inputs": [],
      "name": "symbol",
      "outputs": [
        {
          "internalType": "string",
          "name": "",
          "type": "string"
        }
      ],
      "stateMutability": "view",
      "type": "function"
    },
    {
      "inputs": [],
      "name": "totalSupply",
      "outputs": [
        {
          "internalType": "uint256",
          "name": "",
          "type": "uint256"
        }
      ],
      "stateMutability": "view",
      "type": "function"
    },
    {
      "inputs": [
        {
          "internalType": "address",
          "name": "newOwner",
          "type": "address"
        }
      ],
      "name": "transferOwnership",
      "outputs": [],
      "stateMutability": "nonpayable",
      "type": "function"
    },
    {
      "inputs": [
        {
          "internalType": "address",
          "name": "user",
          "type": "address"
        }
      ],
      "name": "addWhitelistAddress",
      "outputs": [
        {
          "internalType": "bool",
          "name": "",
          "type": "bool"
        }
      ],
      "stateMutability": "nonpayable",
      "type": "function"
    },
    {
      "inputs": [
        {
          "internalType": "address",
          "name": "user",
          "type": "address"
        }
      ],
      "name": "removeWhitelistAddress",
      "outputs": [
        {
          "internalType": "bool",
          "name": "",
          "type": "bool"
        }
      ],
      "stateMutability": "nonpayable",
      "type": "function"
    },
    {
      "inputs": [
        {
          "internalType": "address",
          "name": "user",
          "type": "address"
        }
      ],
      "name": "isInvestorWhiteListed",
      "outputs": [
        {
          "internalType": "bool",
          "name": "",
          "type": "bool"
        }
      ],
      "stateMutability": "view",
      "type": "function"
    },
    {
      "inputs": [
        {
          "internalType": "address",
          "name": "_from",
          "type": "address"
        },
        {
          "internalType": "address",
          "name": "_to",
          "type": "address"
        },
        {
          "internalType": "uint256",
          "name": "value",
          "type": "uint256"
        }
      ],
      "name": "detectTransferRestriction",
      "outputs": [
        {
          "internalType": "uint8",
          "name": "",
          "type": "uint8"
        }
      ],
      "stateMutability": "view",
      "type": "function"
    },
    {
      "inputs": [
        {
          "internalType": "uint8",
          "name": "restrictionCode",
          "type": "uint8"
        }
      ],
      "name": "messageForTransferRestriction",
      "outputs": [
        {
          "internalType": "string",
          "name": "message",
          "type": "string"
        }
      ],
      "stateMutability": "view",
      "type": "function"
    },
    {
      "inputs": [
        {
          "internalType": "address",
          "name": "to",
          "type": "address"
        },
        {
          "internalType": "uint256",
          "name": "value",
          "type": "uint256"
        }
      ],
      "name": "transfer",
      "outputs": [
        {
          "internalType": "bool",
          "name": "",
          "type": "bool"
        }
      ],
      "stateMutability": "nonpayable",
      "type": "function"
    },
    {
      "inputs": [
        {
          "internalType": "address",
          "name": "from",
          "type": "address"
        },
        {
          "internalType": "address",
          "name": "to",
          "type": "address"
        },
        {
          "internalType": "uint256",
          "name": "value",
          "type": "uint256"
        }
      ],
      "name": "transferFrom",
      "outputs": [
        {
          "internalType": "bool",
          "name": "",
          "type": "bool"
        }
      ],
      "stateMutability": "nonpayable",
      "type": "function"
    },
    {
      "inputs": [
        {
          "internalType": "address",
          "name": "from",
          "type": "address"
        },
        {
          "internalType": "uint256",
          "name": "amount",
          "type": "uint256"
        }
      ],
      "name": "mint",
      "outputs": [
        {
          "internalType": "bool",
          "name": "",
          "type": "bool"
        }
      ],
      "stateMutability": "nonpayable",
      "type": "function"
    },
    {
      "inputs": [
        {
          "internalType": "address",
          "name": "from",
          "type": "address"
        },
        {
          "internalType": "uint256",
          "name": "amount",
          "type": "uint256"
        }
      ],
      "name": "burn",
      "outputs": [
        {
          "internalType": "bool",
          "name": "",
          "type": "bool"
        }
      ],
      "stateMutability": "nonpayable",
      "type": "function"
    },
    {
      "inputs": [
        {
          "internalType": "address",
          "name": "spender",
          "type": "address"
        },
        {
          "internalType": "uint256",
          "name": "amount",
          "type": "uint256"
        }
      ],
      "name": "approve",
      "outputs": [
        {
          "internalType": "bool",
          "name": "",
          "type": "bool"
        }
      ],
      "stateMutability": "nonpayable",
      "type": "function"
    },
    {
      "inputs": [
        {
          "internalType": "address",
          "name": "owner",
          "type": "address"
        },
        {
          "internalType": "address",
          "name": "spender",
          "type": "address"
        },
        {
          "internalType": "uint256",
          "name": "amount",
          "type": "uint256"
        }
      ],
      "name": "approve",
      "outputs": [
        {
          "internalType": "bool",
          "name": "",
          "type": "bool"
        }
      ],
      "stateMutability": "nonpayable",
      "type": "function"
    }
  ],
  "bytecode": "0x60806040526001600760006101000a81548160ff021916908360ff1602179055506000600760016101000a81548160ff021916908360ff1602179055503480156200004957600080fd5b50604051620029503803806200295083398181016040528101906200006f9190620004ce565b80818160039080519060200190620000899291906200037e565b508060049080519060200190620000a29291906200037e565b505050620000c5620000b96200013860201b60201c565b6200014060201b60201c565b620000d783836200020660201b60201c565b6001600660003373ffffffffffffffffffffffffffffffffffffffff1673ffffffffffffffffffffffffffffffffffffffff16815260200190815260200160002060006101000a81548160ff0219169083151502179055505050506200080f565b600033905090565b6000600560009054906101000a900473ffffffffffffffffffffffffffffffffffffffff16905081600560006101000a81548173ffffffffffffffffffffffffffffffffffffffff021916908373ffffffffffffffffffffffffffffffffffffffff1602179055508173ffffffffffffffffffffffffffffffffffffffff168173ffffffffffffffffffffffffffffffffffffffff167f8be0079c531659141344cd1fd0a4f28419497f9722a3daafe3b4186f6b6457e060405160405180910390a35050565b600073ffffffffffffffffffffffffffffffffffffffff168273ffffffffffffffffffffffffffffffffffffffff16141562000279576040517f08c379a0000000000000000000000000000000000000000000000000000000008152600401620002709062000590565b60405180910390fd5b6200028d600083836200037460201b60201c565b8060026000828254620002a1919062000647565b92505081905550806000808473ffffffffffffffffffffffffffffffffffffffff1673ffffffffffffffffffffffffffffffffffffffff168152602001908152602001600020600082825401925050819055508173ffffffffffffffffffffffffffffffffffffffff16600073ffffffffffffffffffffffffffffffffffffffff167fddf252ad1be2c89b69c2b068fc378daa952ba7f163c4a11628f55a4df523b3ef83604051620003549190620005b2565b60405180910390a362000370600083836200037960201b60201c565b5050565b505050565b505050565b8280546200038c9062000718565b90600052602060002090601f016020900481019282620003b05760008555620003fc565b82601f10620003cb57805160ff1916838001178555620003fc565b82800160010185558215620003fc579182015b82811115620003fb578251825591602001919060010190620003de565b5b5090506200040b91906200040f565b5090565b5b808211156200042a57600081600090555060010162000410565b5090565b6000620004456200043f8462000603565b620005cf565b9050828152602081018484840111156200045e57600080fd5b6200046b848285620006e2565b509392505050565b6000815190506200048481620007db565b92915050565b600082601f8301126200049c57600080fd5b8151620004ae8482602086016200042e565b91505092915050565b600081519050620004c881620007f5565b92915050565b600080600060608486031215620004e457600080fd5b6000620004f48682870162000473565b93505060206200050786828701620004b7565b925050604084015167ffffffffffffffff8111156200052557600080fd5b62000533868287016200048a565b9150509250925092565b60006200054c601f8362000636565b91507f45524332303a206d696e7420746f20746865207a65726f2061646472657373006000830152602082019050919050565b6200058a81620006d8565b82525050565b60006020820190508181036000830152620005ab816200053d565b9050919050565b6000602082019050620005c960008301846200057f565b92915050565b6000604051905081810181811067ffffffffffffffff82111715620005f957620005f8620007ac565b5b8060405250919050565b600067ffffffffffffffff821115620006215762000620620007ac565b5b601f19601f8301169050602081019050919050565b600082825260208201905092915050565b60006200065482620006d8565b91506200066183620006d8565b9250827fffffffffffffffffffffffffffffffffffffffffffffffffffffffffffffffff038211156200069957620006986200074e565b5b828201905092915050565b6000620006b182620006b8565b9050919050565b600073ffffffffffffffffffffffffffffffffffffffff82169050919050565b6000819050919050565b60005b8381101562000702578082015181840152602081019050620006e5565b8381111562000712576000848401525b50505050565b600060028204905060018216806200073157607f821691505b602082108114156200074857620007476200077d565b5b50919050565b7f4e487b7100000000000000000000000000000000000000000000000000000000600052601160045260246000fd5b7f4e487b7100000000000000000000000000000000000000000000000000000000600052602260045260246000fd5b7f4e487b7100000000000000000000000000000000000000000000000000000000600052604160045260246000fd5b620007e681620006a4565b8114620007f257600080fd5b50565b6200080081620006d8565b81146200080c57600080fd5b50565b612131806200081f6000396000f3fe608060405234801561001057600080fd5b50600436106101425760003560e01c806394a7ef15116100b8578063b7ecbaae1161007c578063b7ecbaae146103c7578063d4ce1415146103f7578063dd62ed3e14610427578063e1f21c6714610457578063f2fde38b14610487578063f3c6e993146104a357610142565b806394a7ef15146102e957806395d89b41146103195780639dc29fac14610337578063a457c2d714610367578063a9059cbb1461039757610142565b8063395093511161010a578063395093511461020157806340c10f191461023157806370a0823114610261578063715018a6146102915780637f4ab1dd1461029b5780638da5cb5b146102cb57610142565b806306fdde0314610147578063095ea7b31461016557806318160ddd1461019557806323b872dd146101b3578063313ce567146101e3575b600080fd5b61014f6104d3565b60405161015c9190611d23565b60405180910390f35b61017f600480360381019061017a919061177d565b610565565b60405161018c9190611d08565b60405180910390f35b61019d610588565b6040516101aa9190611ee5565b60405180910390f35b6101cd60048036038101906101c8919061172e565b610592565b6040516101da9190611d08565b60405180910390f35b6101eb610624565b6040516101f89190611f00565b60405180910390f35b61021b6004803603810190610216919061177d565b61062d565b6040516102289190611d08565b60405180910390f35b61024b6004803603810190610246919061177d565b610664565b6040516102589190611d08565b60405180910390f35b61027b600480360381019061027691906116c9565b610682565b6040516102889190611ee5565b60405180910390f35b6102996106ca565b005b6102b560048036038101906102b091906117b9565b6106de565b6040516102c29190611d23565b60405180910390f35b6102d3610796565b6040516102e09190611ced565b60405180910390f35b61030360048036038101906102fe91906116c9565b6107c0565b6040516103109190611d08565b60405180910390f35b61032161082b565b60405161032e9190611d23565b60405180910390f35b610351600480360381019061034c919061177d565b6108bd565b60405161035e9190611d08565b60405180910390f35b610381600480360381019061037c919061177d565b6108db565b60405161038e9190611d08565b60405180910390f35b6103b160048036038101906103ac919061177d565b610952565b6040516103be9190611d08565b60405180910390f35b6103e160048036038101906103dc91906116c9565b6109e2565b6040516103ee9190611d08565b60405180910390f35b610411600480360381019061040c919061172e565b610a44565b60405161041e9190611f00565b60405180910390f35b610441600480360381019061043c91906116f2565b610b75565b60405161044e9190611ee5565b60405180910390f35b610471600480360381019061046c919061172e565b610bfc565b60405161047e9190611d08565b60405180910390f35b6104a1600480360381019061049c91906116c9565b610c14565b005b6104bd60048036038101906104b891906116c9565b610c98565b6040516104ca9190611d08565b60405180910390f35b6060600380546104e290612015565b80601f016020809104026020016040519081016040528092919081815260200182805461050e90612015565b801561055b5780601f106105305761010080835404028352916020019161055b565b820191906000526020600020905b81548152906001019060200180831161053e57829003601f168201915b5050505050905090565b600080610570610cee565b905061057d818585610cf6565b600191505092915050565b6000600254905090565b600083838360006105a4848484610a44565b9050600760009054906101000a900460ff1660ff168160ff16146105c7826106de565b90610608576040517f08c379a00000000000000000000000000000000000000000000000000000000081526004016105ff9190611d23565b60405180910390fd5b50610614888888610ec1565b5060019450505050509392505050565b60006012905090565b600080610638610cee565b905061065981858561064a8589610b75565b6106549190611f37565b610cf6565b600191505092915050565b600061066e610ef0565b6106788383610f6e565b6001905092915050565b60008060008373ffffffffffffffffffffffffffffffffffffffff1673ffffffffffffffffffffffffffffffffffffffff168152602001908152602001600020549050919050565b6106d2610ef0565b6106dc60006110c5565b565b6060600760009054906101000a900460ff1660ff168260ff16141561073a576040518060400160405280601681526020017f416464726573732069732057686974656c6973746564000000000000000000008152509050610791565b600760019054906101000a900460ff1660ff168260ff161415610790576040518060400160405280601a81526020017f41646472657373206973206e6f742057686974656c697374656400000000000081525090505b5b919050565b6000600560009054906101000a900473ffffffffffffffffffffffffffffffffffffffff16905090565b60006107ca610ef0565b6001600660008473ffffffffffffffffffffffffffffffffffffffff1673ffffffffffffffffffffffffffffffffffffffff16815260200190815260200160002060006101000a81548160ff02191690831515021790555060019050919050565b60606004805461083a90612015565b80601f016020809104026020016040519081016040528092919081815260200182805461086690612015565b80156108b35780601f10610888576101008083540402835291602001916108b3565b820191906000526020600020905b81548152906001019060200180831161089657829003601f168201915b5050505050905090565b60006108c7610ef0565b6108d1838361118b565b6001905092915050565b6000806108e6610cee565b905060006108f48286610b75565b905083811015610939576040517f08c379a000000000000000000000000000000000000000000000000000000000815260040161093090611ea5565b60405180910390fd5b6109468286868403610cf6565b60019250505092915050565b60003383836000610964848484610a44565b9050600760009054906101000a900460ff1660ff168160ff1614610987826106de565b906109c8576040517f08c379a00000000000000000000000000000000000000000000000000000000081526004016109bf9190611d23565b60405180910390fd5b506109d38787611359565b50600194505050505092915050565b60006109ec610ef0565b600660008373ffffffffffffffffffffffffffffffffffffffff1673ffffffffffffffffffffffffffffffffffffffff16815260200190815260200160002060006101000a81549060ff021916905560019050919050565b600080821415610a89576040517f08c379a0000000000000000000000000000000000000000000000000000000008152600401610a8090611d85565b60405180910390fd5b600660008473ffffffffffffffffffffffffffffffffffffffff1673ffffffffffffffffffffffffffffffffffffffff16815260200190815260200160002060009054906101000a900460ff1615610b5b57600660008573ffffffffffffffffffffffffffffffffffffffff1673ffffffffffffffffffffffffffffffffffffffff16815260200190815260200160002060009054906101000a900460ff1615610b4457600760009054906101000a900460ff169050610b6e565b600760019054906101000a900460ff169050610b6e565b600760019054906101000a900460ff1690505b9392505050565b6000600160008473ffffffffffffffffffffffffffffffffffffffff1673ffffffffffffffffffffffffffffffffffffffff16815260200190815260200160002060008373ffffffffffffffffffffffffffffffffffffffff1673ffffffffffffffffffffffffffffffffffffffff16815260200190815260200160002054905092915050565b6000610c09848484610cf6565b600190509392505050565b610c1c610ef0565b600073ffffffffffffffffffffffffffffffffffffffff168173ffffffffffffffffffffffffffffffffffffffff161415610c8c576040517f08c379a0000000000000000000000000000000000000000000000000000000008152600401610c8390611da5565b60405180910390fd5b610c95816110c5565b50565b6000600660008373ffffffffffffffffffffffffffffffffffffffff1673ffffffffffffffffffffffffffffffffffffffff16815260200190815260200160002060009054906101000a900460ff169050919050565b600033905090565b600073ffffffffffffffffffffffffffffffffffffffff168373ffffffffffffffffffffffffffffffffffffffff161415610d66576040517f08c379a0000000000000000000000000000000000000000000000000000000008152600401610d5d90611e85565b60405180910390fd5b600073ffffffffffffffffffffffffffffffffffffffff168273ffffffffffffffffffffffffffffffffffffffff161415610dd6576040517f08c379a0000000000000000000000000000000000000000000000000000000008152600401610dcd90611dc5565b60405180910390fd5b80600160008573ffffffffffffffffffffffffffffffffffffffff1673ffffffffffffffffffffffffffffffffffffffff16815260200190815260200160002060008473ffffffffffffffffffffffffffffffffffffffff1673ffffffffffffffffffffffffffffffffffffffff168152602001908152602001600020819055508173ffffffffffffffffffffffffffffffffffffffff168373ffffffffffffffffffffffffffffffffffffffff167f8c5be1e5ebec7d5bd14f71427d1e84f3dd0314c0f7b2291e5b200ac8c7c3b92583604051610eb49190611ee5565b60405180910390a3505050565b600080610ecc610cee565b9050610ed985828561137c565b610ee4858585611408565b60019150509392505050565b610ef8610cee565b73ffffffffffffffffffffffffffffffffffffffff16610f16610796565b73ffffffffffffffffffffffffffffffffffffffff1614610f6c576040517f08c379a0000000000000000000000000000000000000000000000000000000008152600401610f6390611e25565b60405180910390fd5b565b600073ffffffffffffffffffffffffffffffffffffffff168273ffffffffffffffffffffffffffffffffffffffff161415610fde576040517f08c379a0000000000000000000000000000000000000000000000000000000008152600401610fd590611ec5565b60405180910390fd5b610fea60008383611680565b8060026000828254610ffc9190611f37565b92505081905550806000808473ffffffffffffffffffffffffffffffffffffffff1673ffffffffffffffffffffffffffffffffffffffff168152602001908152602001600020600082825401925050819055508173ffffffffffffffffffffffffffffffffffffffff16600073ffffffffffffffffffffffffffffffffffffffff167fddf252ad1be2c89b69c2b068fc378daa952ba7f163c4a11628f55a4df523b3ef836040516110ad9190611ee5565b60405180910390a36110c160008383611685565b5050565b6000600560009054906101000a900473ffffffffffffffffffffffffffffffffffffffff16905081600560006101000a81548173ffffffffffffffffffffffffffffffffffffffff021916908373ffffffffffffffffffffffffffffffffffffffff1602179055508173ffffffffffffffffffffffffffffffffffffffff168173ffffffffffffffffffffffffffffffffffffffff167f8be0079c531659141344cd1fd0a4f28419497f9722a3daafe3b4186f6b6457e060405160405180910390a35050565b600073ffffffffffffffffffffffffffffffffffffffff168273ffffffffffffffffffffffffffffffffffffffff1614156111fb576040517f08c379a00000000000000000000000000000000000000000000000000000000081526004016111f290611e45565b60405180910390fd5b61120782600083611680565b60008060008473ffffffffffffffffffffffffffffffffffffffff1673ffffffffffffffffffffffffffffffffffffffff1681526020019081526020016000205490508181101561128d576040517f08c379a000000000000000000000000000000000000000000000000000000000815260040161128490611d65565b60405180910390fd5b8181036000808573ffffffffffffffffffffffffffffffffffffffff1673ffffffffffffffffffffffffffffffffffffffff1681526020019081526020016000208190555081600260008282540392505081905550600073ffffffffffffffffffffffffffffffffffffffff168373ffffffffffffffffffffffffffffffffffffffff167fddf252ad1be2c89b69c2b068fc378daa952ba7f163c4a11628f55a4df523b3ef846040516113409190611ee5565b60405180910390a361135483600084611685565b505050565b600080611364610cee565b9050611371818585611408565b600191505092915050565b60006113888484610b75565b90507fffffffffffffffffffffffffffffffffffffffffffffffffffffffffffffffff811461140257818110156113f4576040517f08c379a00000000000000000000000000000000000000000000000000000000081526004016113eb90611de5565b60405180910390fd5b6114018484848403610cf6565b5b50505050565b600073ffffffffffffffffffffffffffffffffffffffff168373ffffffffffffffffffffffffffffffffffffffff161415611478576040517f08c379a000000000000000000000000000000000000000000000000000000000815260040161146f90611e65565b60405180910390fd5b600073ffffffffffffffffffffffffffffffffffffffff168273ffffffffffffffffffffffffffffffffffffffff1614156114e8576040517f08c379a00000000000000000000000000000000000000000000000000000000081526004016114df90611d45565b60405180910390fd5b6114f3838383611680565b60008060008573ffffffffffffffffffffffffffffffffffffffff1673ffffffffffffffffffffffffffffffffffffffff16815260200190815260200160002054905081811015611579576040517f08c379a000000000000000000000000000000000000000000000000000000000815260040161157090611e05565b60405180910390fd5b8181036000808673ffffffffffffffffffffffffffffffffffffffff1673ffffffffffffffffffffffffffffffffffffffff16815260200190815260200160002081905550816000808573ffffffffffffffffffffffffffffffffffffffff1673ffffffffffffffffffffffffffffffffffffffff168152602001908152602001600020600082825401925050819055508273ffffffffffffffffffffffffffffffffffffffff168473ffffffffffffffffffffffffffffffffffffffff167fddf252ad1be2c89b69c2b068fc378daa952ba7f163c4a11628f55a4df523b3ef846040516116679190611ee5565b60405180910390a361167a848484611685565b50505050565b505050565b505050565b600081359050611699816120b6565b92915050565b6000813590506116ae816120cd565b92915050565b6000813590506116c3816120e4565b92915050565b6000602082840312156116db57600080fd5b60006116e98482850161168a565b91505092915050565b6000806040838503121561170557600080fd5b60006117138582860161168a565b92505060206117248582860161168a565b9150509250929050565b60008060006060848603121561174357600080fd5b60006117518682870161168a565b93505060206117628682870161168a565b92505060406117738682870161169f565b9150509250925092565b6000806040838503121561179057600080fd5b600061179e8582860161168a565b92505060206117af8582860161169f565b9150509250929050565b6000602082840312156117cb57600080fd5b60006117d9848285016116b4565b91505092915050565b6117eb81611f8d565b82525050565b6117fa81611f9f565b82525050565b600061180b82611f1b565b6118158185611f26565b9350611825818560208601611fe2565b61182e816120a5565b840191505092915050565b6000611846602383611f26565b91507f45524332303a207472616e7366657220746f20746865207a65726f206164647260008301527f65737300000000000000000000000000000000000000000000000000000000006020830152604082019050919050565b60006118ac602283611f26565b91507f45524332303a206275726e20616d6f756e7420657863656564732062616c616e60008301527f63650000000000000000000000000000000000000000000000000000000000006020830152604082019050919050565b6000611912601183611f26565b91507f56616c75652063616e6e6f7420626520300000000000000000000000000000006000830152602082019050919050565b6000611952602683611f26565b91507f4f776e61626c653a206e6577206f776e657220697320746865207a65726f206160008301527f64647265737300000000000000000000000000000000000000000000000000006020830152604082019050919050565b60006119b8602283611f26565b91507f45524332303a20617070726f766520746f20746865207a65726f20616464726560008301527f73730000000000000000000000000000000000000000000000000000000000006020830152604082019050919050565b6000611a1e601d83611f26565b91507f45524332303a20696e73756666696369656e7420616c6c6f77616e63650000006000830152602082019050919050565b6000611a5e602683611f26565b91507f45524332303a207472616e7366657220616d6f756e742065786365656473206260008301527f616c616e636500000000000000000000000000000000000000000000000000006020830152604082019050919050565b6000611ac4602083611f26565b91507f4f776e61626c653a2063616c6c6572206973206e6f7420746865206f776e65726000830152602082019050919050565b6000611b04602183611f26565b91507f45524332303a206275726e2066726f6d20746865207a65726f2061646472657360008301527f73000000000000000000000000000000000000000000000000000000000000006020830152604082019050919050565b6000611b6a602583611f26565b91507f45524332303a207472616e736665722066726f6d20746865207a65726f20616460008301527f64726573730000000000000000000000000000000000000000000000000000006020830152604082019050919050565b6000611bd0602483611f26565b91507f45524332303a20617070726f76652066726f6d20746865207a65726f2061646460008301527f72657373000000000000000000000000000000000000000000000000000000006020830152604082019050919050565b6000611c36602583611f26565b91507f45524332303a2064656372656173656420616c6c6f77616e63652062656c6f7760008301527f207a65726f0000000000000000000000000000000000000000000000000000006020830152604082019050919050565b6000611c9c601f83611f26565b91507f45524332303a206d696e7420746f20746865207a65726f2061646472657373006000830152602082019050919050565b611cd881611fcb565b82525050565b611ce781611fd5565b82525050565b6000602082019050611d0260008301846117e2565b92915050565b6000602082019050611d1d60008301846117f1565b92915050565b60006020820190508181036000830152611d3d8184611800565b905092915050565b60006020820190508181036000830152611d5e81611839565b9050919050565b60006020820190508181036000830152611d7e8161189f565b9050919050565b60006020820190508181036000830152611d9e81611905565b9050919050565b60006020820190508181036000830152611dbe81611945565b9050919050565b60006020820190508181036000830152611dde816119ab565b9050919050565b60006020820190508181036000830152611dfe81611a11565b9050919050565b60006020820190508181036000830152611e1e81611a51565b9050919050565b60006020820190508181036000830152611e3e81611ab7565b9050919050565b60006020820190508181036000830152611e5e81611af7565b9050919050565b60006020820190508181036000830152611e7e81611b5d565b9050919050565b60006020820190508181036000830152611e9e81611bc3565b9050919050565b60006020820190508181036000830152611ebe81611c29565b9050919050565b60006020820190508181036000830152611ede81611c8f565b9050919050565b6000602082019050611efa6000830184611ccf565b92915050565b6000602082019050611f156000830184611cde565b92915050565b600081519050919050565b600082825260208201905092915050565b6000611f4282611fcb565b9150611f4d83611fcb565b9250827fffffffffffffffffffffffffffffffffffffffffffffffffffffffffffffffff03821115611f8257611f81612047565b5b828201905092915050565b6000611f9882611fab565b9050919050565b60008115159050919050565b600073ffffffffffffffffffffffffffffffffffffffff82169050919050565b6000819050919050565b600060ff82169050919050565b60005b83811015612000578082015181840152602081019050611fe5565b8381111561200f576000848401525b50505050565b6000600282049050600182168061202d57607f821691505b6020821081141561204157612040612076565b5b50919050565b7f4e487b7100000000000000000000000000000000000000000000000000000000600052601160045260246000fd5b7f4e487b7100000000000000000000000000000000000000000000000000000000600052602260045260246000fd5b6000601f19601f8301169050919050565b6120bf81611f8d565b81146120ca57600080fd5b50565b6120d681611fcb565b81146120e157600080fd5b50565b6120ed81611fd5565b81146120f857600080fd5b5056fea264697066735822122032fd77f4f4954b4f44f26934ce0369dbbdf2ae2c2a4bc77bde98cdad8c36b7b264736f6c63430008000033",
  "immutableReferences": {},
  "source": "// SPDX-License-Identifier: MIT\npragma solidity ^0.8.0;\n\nimport \"@openzeppelin/contracts/token/ERC20/ERC20.sol\";\nimport \"@openzeppelin/contracts/access/Ownable.sol\";\nimport \"./IERC1404.sol\";\n\n\ncontract ERC1404Token is IERC1404, ERC20, Ownable {\n\n    mapping (address => bool) internal whitelisted;  \n\t\n\tuint8 SUCCESS_CODE = 1;\n\tuint8 FAILURE_CODE = 0;\t\n\n\tconstructor(address _tokenToMintAddress, uint256 _initialSupply, string memory _name ) ERC20(_name, _name) {\n\t\t\t_mint(_tokenToMintAddress , _initialSupply);\n\t\t\twhitelisted[msg.sender] = true;\n\t}\n\n\t  function addWhitelistAddress (address user) \n\t  public \n\t  onlyOwner \n\t   returns (bool){ \n\t\t  whitelisted[user] = true; \n\t\t  return true;\n\t  }\n\t  \n\t  function removeWhitelistAddress (address user) \n\t  public \n\t  onlyOwner\n\t  returns (bool){ \n\t\t  delete whitelisted[user];\n\t\t  return true;\n\t  }\n\t  \n\t  function isInvestorWhiteListed(address user) \n\t  public \n\t  view\n\t  returns (bool) {\n\t\t   return whitelisted[user]; \n\t  }\n\t  \n\n    modifier notRestricted (address from, address to, uint256 value) {\n        uint8 restrictionCode = detectTransferRestriction(from, to, value);\n        require(restrictionCode == SUCCESS_CODE, messageForTransferRestriction(restrictionCode));\n        _;\n    }\n\n\n    function detectTransferRestriction (address _from, address _to, uint256 value) \n\tpublic \n\toverride\n\tview \n\treturns (uint8)\n    {\n\t\t  require( value != 0, \"Value cannot be 0\");\n\t\t\t  \n\t\t  if (whitelisted[_to])\n\t\t  {\n\t\t\t if (whitelisted[_from]) \n\t\t\t\treturn SUCCESS_CODE;\n\t\t\t else\n\t\t\t\treturn FAILURE_CODE;\n\t\t  } else\n\t\t\t  return FAILURE_CODE;\n    }\n\n\n    function messageForTransferRestriction (uint8 restrictionCode)\n    public\n\toverride\t\n    view\n    returns (string memory message)\n    {\n        if (restrictionCode == SUCCESS_CODE) {\n            message = \"Address is Whitelisted\";\n        } else if (restrictionCode == FAILURE_CODE) {\n            message = \"Address is not Whitelisted\";\n        }\n    }\n\n\n\n    function transfer (address to, uint256 value)\n\t\toverride\n\t\tnotRestricted (msg.sender, to, value)\n        public        \n        returns (bool)\n    {\n\t\t super.transfer(to, value);\n\t\t return true;\n    }\n\n\n\n    function  transferFrom (address from, address to, uint256 value)\n\t\toverride\n\t\tnotRestricted (from, to, value)\n        public\n        returns (bool)\n    {\n\t\tsuper.transferFrom(from, to, value);\n\t\treturn true;\n    }\n\t\n\t\n\t\n    function mint (address from, uint256 amount)\t\t\n        public        \n\t\tonlyOwner\n        returns (bool)\n    {\n\t\t super._mint(from, amount);\n\t\t return true;\n    }\n\t\n\n    function burn (address from, uint256 amount)\n\t\tpublic     \n\t\tonlyOwner   \n        returns (bool)\n    {\n\t\t super._burn(from, amount);\n\t\t return true;\n    }\n\n\n    function approve( address owner, address spender, uint256 amount) \n\tpublic\n\treturns (bool) \n\t{\n\t\t super._approve(owner, spender, amount);\n\t\t return true;\n    }\n\n\n}\n ",
  "sourcePath": "/home/shahzad/Shahzad/projects/git/ERC1404/contracts/ERC1404Token.sol",
  "compiler": {
    "name": "solc",
    "version": "0.8.0+commit.c7dfd78e.Emscripten.clang"
  },
  "schemaVersion": "3.4.9",
  "updatedAt": "2022-12-20T12:46:57.657Z",
  "devdoc": {
    "kind": "dev",
    "methods": {
      "allowance(address,address)": {
        "details": "See {IERC20-allowance}."
      },
      "approve(address,uint256)": {
        "details": "See {IERC20-approve}. NOTE: If `amount` is the maximum `uint256`, the allowance is not updated on `transferFrom`. This is semantically equivalent to an infinite approval. Requirements: - `spender` cannot be the zero address."
      },
      "balanceOf(address)": {
        "details": "See {IERC20-balanceOf}."
      },
      "decimals()": {
        "details": "Returns the number of decimals used to get its user representation. For example, if `decimals` equals `2`, a balance of `505` tokens should be displayed to a user as `5.05` (`505 / 10 ** 2`). Tokens usually opt for a value of 18, imitating the relationship between Ether and Wei. This is the value {ERC20} uses, unless this function is overridden; NOTE: This information is only used for _display_ purposes: it in no way affects any of the arithmetic of the contract, including {IERC20-balanceOf} and {IERC20-transfer}."
      },
      "decreaseAllowance(address,uint256)": {
        "details": "Atomically decreases the allowance granted to `spender` by the caller. This is an alternative to {approve} that can be used as a mitigation for problems described in {IERC20-approve}. Emits an {Approval} event indicating the updated allowance. Requirements: - `spender` cannot be the zero address. - `spender` must have allowance for the caller of at least `subtractedValue`."
      },
      "increaseAllowance(address,uint256)": {
        "details": "Atomically increases the allowance granted to `spender` by the caller. This is an alternative to {approve} that can be used as a mitigation for problems described in {IERC20-approve}. Emits an {Approval} event indicating the updated allowance. Requirements: - `spender` cannot be the zero address."
      },
      "messageForTransferRestriction(uint8)": {
        "details": "Overwrite with your custom message and restrictionCode handling",
        "params": {
          "restrictionCode": "Identifier for looking up a message"
        },
        "returns": {
          "message": "Text showing the restriction's reasoning"
        }
      },
      "name()": {
        "details": "Returns the name of the token."
      },
      "owner()": {
        "details": "Returns the address of the current owner."
      },
      "renounceOwnership()": {
        "details": "Leaves the contract without owner. It will not be possible to call `onlyOwner` functions anymore. Can only be called by the current owner. NOTE: Renouncing ownership will leave the contract without an owner, thereby removing any functionality that is only available to the owner."
      },
      "symbol()": {
        "details": "Returns the symbol of the token, usually a shorter version of the name."
      },
      "totalSupply()": {
        "details": "See {IERC20-totalSupply}."
      },
      "transferOwnership(address)": {
        "details": "Transfers ownership of the contract to a new account (`newOwner`). Can only be called by the current owner."
      }
    },
    "version": 1
  },
  "userdoc": {
    "kind": "user",
    "methods": {
      "messageForTransferRestriction(uint8)": {
        "notice": "Returns a human-readable message for a given restriction code"
      }
    },
    "version": 1
  }
}