{
  "contractName": "ERC1404TokenMinKYCv12",
  "abi": [
    {
      "inputs": [
        {
          "internalType": "uint256",
          "name": "_initialSupply",
          "type": "uint256"
        },
        {
          "internalType": "string",
          "name": "_name",
          "type": "string"
        },
        {
          "internalType": "string",
          "name": "_symbol",
          "type": "string"
        },
        {
          "internalType": "uint256",
          "name": "_allowedInvestors",
          "type": "uint256"
        },
        {
          "internalType": "uint256",
          "name": "_decimals",
          "type": "uint256"
        },
        {
          "internalType": "string",
          "name": "_ShareCertificate",
          "type": "string"
        },
        {
          "internalType": "string",
          "name": "_CompanyHomepage",
          "type": "string"
        },
        {
          "internalType": "string",
          "name": "_CompanyLegalDocs",
          "type": "string"
        },
        {
          "internalType": "address",
          "name": "_atomicSwapContractAddress",
          "type": "address"
        }
      ],
      "stateMutability": "nonpayable",
      "type": "constructor"
    },
    {
      "anonymous": false,
      "inputs": [
        {
          "indexed": false,
          "internalType": "uint256",
          "name": "_allowedInvestors",
          "type": "uint256"
        }
      ],
      "name": "AllowedInvestorsReset",
      "type": "event"
    },
    {
      "anonymous": false,
      "inputs": [
        {
          "indexed": true,
          "internalType": "address",
          "name": "owner",
          "type": "address"
        },
        {
          "indexed": true,
          "internalType": "address",
          "name": "spender",
          "type": "address"
        },
        {
          "indexed": false,
          "internalType": "uint256",
          "name": "value",
          "type": "uint256"
        }
      ],
      "name": "Approval",
      "type": "event"
    },
    {
      "anonymous": false,
      "inputs": [
        {
          "indexed": true,
          "internalType": "address",
          "name": "account",
          "type": "address"
        },
        {
          "indexed": false,
          "internalType": "uint256",
          "name": "amount",
          "type": "uint256"
        }
      ],
      "name": "BurnTokens",
      "type": "event"
    },
    {
      "anonymous": false,
      "inputs": [
        {
          "indexed": false,
          "internalType": "string",
          "name": "_CompanyHomepage",
          "type": "string"
        }
      ],
      "name": "CompanyHomepageReset",
      "type": "event"
    },
    {
      "anonymous": false,
      "inputs": [
        {
          "indexed": false,
          "internalType": "string",
          "name": "_CompanyLegalDocs",
          "type": "string"
        }
      ],
      "name": "CompanyLegalDocsReset",
      "type": "event"
    },
    {
      "anonymous": false,
      "inputs": [
        {
          "indexed": false,
          "internalType": "uint256",
          "name": "_tradingHoldingPeriod",
          "type": "uint256"
        }
      ],
      "name": "HoldingPeriodReset",
      "type": "event"
    },
    {
      "anonymous": false,
      "inputs": [
        {
          "indexed": true,
          "internalType": "address",
          "name": "account",
          "type": "address"
        },
        {
          "indexed": false,
          "internalType": "uint256",
          "name": "receiveRestriction",
          "type": "uint256"
        },
        {
          "indexed": false,
          "internalType": "uint256",
          "name": "sendRestriction",
          "type": "uint256"
        }
      ],
      "name": "KYCDataForUserModified",
      "type": "event"
    },
    {
      "anonymous": false,
      "inputs": [
        {
          "indexed": true,
          "internalType": "address",
          "name": "account",
          "type": "address"
        },
        {
          "indexed": false,
          "internalType": "uint256",
          "name": "receiveRestriction",
          "type": "uint256"
        },
        {
          "indexed": false,
          "internalType": "uint256",
          "name": "sendRestriction",
          "type": "uint256"
        }
      ],
      "name": "KYCDataForUserSet",
      "type": "event"
    },
    {
      "anonymous": false,
      "inputs": [
        {
          "indexed": true,
          "internalType": "address",
          "name": "account",
          "type": "address"
        },
        {
          "indexed": false,
          "internalType": "uint256",
          "name": "amount",
          "type": "uint256"
        }
      ],
      "name": "MintTokens",
      "type": "event"
    },
    {
      "anonymous": false,
      "inputs": [
        {
          "indexed": false,
          "internalType": "string",
          "name": "_ShareCertificate",
          "type": "string"
        }
      ],
      "name": "ShareCertificateReset",
      "type": "event"
    },
    {
      "anonymous": false,
      "inputs": [
        {
          "indexed": true,
          "internalType": "address",
          "name": "from",
          "type": "address"
        },
        {
          "indexed": true,
          "internalType": "address",
          "name": "to",
          "type": "address"
        },
        {
          "indexed": false,
          "internalType": "uint256",
          "name": "value",
          "type": "uint256"
        }
      ],
      "name": "Transfer",
      "type": "event"
    },
    {
      "anonymous": false,
      "inputs": [
        {
          "indexed": true,
          "internalType": "address",
          "name": "spender",
          "type": "address"
        },
        {
          "indexed": true,
          "internalType": "address",
          "name": "sender",
          "type": "address"
        },
        {
          "indexed": true,
          "internalType": "address",
          "name": "recipient",
          "type": "address"
        },
        {
          "indexed": false,
          "internalType": "uint256",
          "name": "amount",
          "type": "uint256"
        }
      ],
      "name": "TransferFrom",
      "type": "event"
    },
    {
      "anonymous": false,
      "inputs": [
        {
          "indexed": true,
          "internalType": "address",
          "name": "from",
          "type": "address"
        },
        {
          "indexed": true,
          "internalType": "address",
          "name": "to",
          "type": "address"
        },
        {
          "indexed": false,
          "internalType": "string",
          "name": "message",
          "type": "string"
        },
        {
          "indexed": false,
          "internalType": "uint8",
          "name": "errorCode",
          "type": "uint8"
        }
      ],
      "name": "TransferRestrictionDetected",
      "type": "event"
    },
    {
      "anonymous": false,
      "inputs": [
        {
          "indexed": false,
          "internalType": "address",
          "name": "user",
          "type": "address"
        }
      ],
      "name": "WhitelistAuthorityStatusRemoved",
      "type": "event"
    },
    {
      "anonymous": false,
      "inputs": [
        {
          "indexed": false,
          "internalType": "address",
          "name": "user",
          "type": "address"
        }
      ],
      "name": "WhitelistAuthorityStatusSet",
      "type": "event"
    },
    {
      "inputs": [],
      "name": "CompanyHomepage",
      "outputs": [
        {
          "internalType": "string",
          "name": "",
          "type": "string"
        }
      ],
      "stateMutability": "view",
      "type": "function"
    },
    {
      "inputs": [],
      "name": "CompanyLegalDocs",
      "outputs": [
        {
          "internalType": "string",
          "name": "",
          "type": "string"
        }
      ],
      "stateMutability": "view",
      "type": "function"
    },
    {
      "inputs": [],
      "name": "IssuancePlatform",
      "outputs": [
        {
          "internalType": "string",
          "name": "",
          "type": "string"
        }
      ],
      "stateMutability": "view",
      "type": "function"
    },
    {
      "inputs": [],
      "name": "ShareCertificate",
      "outputs": [
        {
          "internalType": "string",
          "name": "",
          "type": "string"
        }
      ],
      "stateMutability": "view",
      "type": "function"
    },
    {
      "inputs": [],
      "name": "allowedInvestors",
      "outputs": [
        {
          "internalType": "uint256",
          "name": "",
          "type": "uint256"
        }
      ],
      "stateMutability": "view",
      "type": "function"
    },
    {
      "inputs": [],
      "name": "currentTotalInvestors",
      "outputs": [
        {
          "internalType": "uint256",
          "name": "",
          "type": "uint256"
        }
      ],
      "stateMutability": "view",
      "type": "function"
    },
    {
      "inputs": [],
      "name": "decimals",
      "outputs": [
        {
          "internalType": "uint256",
          "name": "",
          "type": "uint256"
        }
      ],
      "stateMutability": "view",
      "type": "function"
    },
    {
      "inputs": [],
      "name": "issuanceProtocol",
      "outputs": [
        {
          "internalType": "string",
          "name": "",
          "type": "string"
        }
      ],
      "stateMutability": "view",
      "type": "function"
    },
    {
      "inputs": [],
      "name": "name",
      "outputs": [
        {
          "internalType": "string",
          "name": "",
          "type": "string"
        }
      ],
      "stateMutability": "view",
      "type": "function"
    },
    {
      "inputs": [],
      "name": "symbol",
      "outputs": [
        {
          "internalType": "string",
          "name": "",
          "type": "string"
        }
      ],
      "stateMutability": "view",
      "type": "function"
    },
    {
      "inputs": [],
      "name": "tradingHoldingPeriod",
      "outputs": [
        {
          "internalType": "uint256",
          "name": "",
          "type": "uint256"
        }
      ],
      "stateMutability": "view",
      "type": "function"
    },
    {
      "inputs": [],
      "name": "version",
      "outputs": [
        {
          "internalType": "string",
          "name": "",
          "type": "string"
        }
      ],
      "stateMutability": "view",
      "type": "function"
    },
    {
      "inputs": [
        {
          "internalType": "string",
          "name": "_ShareCertificate",
          "type": "string"
        }
      ],
      "name": "resetShareCertificate",
      "outputs": [],
      "stateMutability": "nonpayable",
      "type": "function"
    },
    {
      "inputs": [
        {
          "internalType": "string",
          "name": "_CompanyHomepage",
          "type": "string"
        }
      ],
      "name": "resetCompanyHomepage",
      "outputs": [],
      "stateMutability": "nonpayable",
      "type": "function"
    },
    {
      "inputs": [
        {
          "internalType": "string",
          "name": "_CompanyLegalDocs",
          "type": "string"
        }
      ],
      "name": "resetCompanyLegalDocs",
      "outputs": [],
      "stateMutability": "nonpayable",
      "type": "function"
    },
    {
      "inputs": [
        {
          "internalType": "uint256",
          "name": "_allowedInvestors",
          "type": "uint256"
        }
      ],
      "name": "resetAllowedInvestors",
      "outputs": [],
      "stateMutability": "nonpayable",
      "type": "function"
    },
    {
      "inputs": [
        {
          "internalType": "uint256",
          "name": "_tradingHoldingPeriod",
          "type": "uint256"
        }
      ],
      "name": "setTradingHoldingPeriod",
      "outputs": [],
      "stateMutability": "nonpayable",
      "type": "function"
    },
    {
      "inputs": [],
      "name": "owner",
      "outputs": [
        {
          "internalType": "address",
          "name": "",
          "type": "address"
        }
      ],
      "stateMutability": "view",
      "type": "function"
    },
    {
      "inputs": [
        {
          "internalType": "address",
          "name": "newOwner",
          "type": "address"
        }
      ],
      "name": "transferOwnership",
      "outputs": [],
      "stateMutability": "nonpayable",
      "type": "function"
    },
    {
      "inputs": [
        {
          "internalType": "address",
          "name": "user",
          "type": "address"
        }
      ],
      "name": "setWhitelistAuthorityStatus",
      "outputs": [],
      "stateMutability": "nonpayable",
      "type": "function"
    },
    {
      "inputs": [
        {
          "internalType": "address",
          "name": "user",
          "type": "address"
        }
      ],
      "name": "removeWhitelistAuthorityStatus",
      "outputs": [],
      "stateMutability": "nonpayable",
      "type": "function"
    },
    {
      "inputs": [
        {
          "internalType": "address",
          "name": "user",
          "type": "address"
        }
      ],
      "name": "getWhitelistAuthorityStatus",
      "outputs": [
        {
          "internalType": "bool",
          "name": "",
          "type": "bool"
        }
      ],
      "stateMutability": "view",
      "type": "function"
    },
    {
      "inputs": [
        {
          "internalType": "address",
          "name": "account",
          "type": "address"
        },
        {
          "internalType": "uint256",
          "name": "receiveRestriction",
          "type": "uint256"
        },
        {
          "internalType": "uint256",
          "name": "sendRestriction",
          "type": "uint256"
        }
      ],
      "name": "modifyKYCData",
      "outputs": [],
      "stateMutability": "nonpayable",
      "type": "function"
    },
    {
      "inputs": [
        {
          "internalType": "address[]",
          "name": "account",
          "type": "address[]"
        },
        {
          "internalType": "uint256",
          "name": "receiveRestriction",
          "type": "uint256"
        },
        {
          "internalType": "uint256",
          "name": "sendRestriction",
          "type": "uint256"
        }
      ],
      "name": "bulkWhitelistWallets",
      "outputs": [],
      "stateMutability": "nonpayable",
      "type": "function"
    },
    {
      "inputs": [
        {
          "internalType": "address",
          "name": "user",
          "type": "address"
        }
      ],
      "name": "getKYCData",
      "outputs": [
        {
          "internalType": "uint256",
          "name": "",
          "type": "uint256"
        },
        {
          "internalType": "uint256",
          "name": "",
          "type": "uint256"
        }
      ],
      "stateMutability": "view",
      "type": "function"
    },
    {
      "inputs": [
        {
          "internalType": "address",
          "name": "_from",
          "type": "address"
        },
        {
          "internalType": "address",
          "name": "_to",
          "type": "address"
        },
        {
          "internalType": "uint256",
          "name": "value",
          "type": "uint256"
        }
      ],
      "name": "detectTransferRestriction",
      "outputs": [
        {
          "internalType": "uint8",
          "name": "status",
          "type": "uint8"
        }
      ],
      "stateMutability": "view",
      "type": "function"
    },
    {
      "inputs": [
        {
          "internalType": "uint8",
          "name": "restrictionCode",
          "type": "uint8"
        }
      ],
      "name": "messageForTransferRestriction",
      "outputs": [
        {
          "internalType": "string",
          "name": "message",
          "type": "string"
        }
      ],
      "stateMutability": "view",
      "type": "function"
    },
    {
      "inputs": [],
      "name": "totalSupply",
      "outputs": [
        {
          "internalType": "uint256",
          "name": "",
          "type": "uint256"
        }
      ],
      "stateMutability": "view",
      "type": "function"
    },
    {
      "inputs": [
        {
          "internalType": "address",
          "name": "account",
          "type": "address"
        }
      ],
      "name": "balanceOf",
      "outputs": [
        {
          "internalType": "uint256",
          "name": "",
          "type": "uint256"
        }
      ],
      "stateMutability": "view",
      "type": "function"
    },
    {
      "inputs": [
        {
          "internalType": "address",
          "name": "spender",
          "type": "address"
        },
        {
          "internalType": "uint256",
          "name": "amount",
          "type": "uint256"
        }
      ],
      "name": "approve",
      "outputs": [
        {
          "internalType": "bool",
          "name": "",
          "type": "bool"
        }
      ],
      "stateMutability": "nonpayable",
      "type": "function"
    },
    {
      "inputs": [
        {
          "internalType": "address",
          "name": "ownby",
          "type": "address"
        },
        {
          "internalType": "address",
          "name": "spender",
          "type": "address"
        }
      ],
      "name": "allowance",
      "outputs": [
        {
          "internalType": "uint256",
          "name": "",
          "type": "uint256"
        }
      ],
      "stateMutability": "view",
      "type": "function"
    },
    {
      "inputs": [
        {
          "internalType": "address",
          "name": "recipient",
          "type": "address"
        },
        {
          "internalType": "uint256",
          "name": "amount",
          "type": "uint256"
        }
      ],
      "name": "transfer",
      "outputs": [
        {
          "internalType": "bool",
          "name": "",
          "type": "bool"
        }
      ],
      "stateMutability": "nonpayable",
      "type": "function"
    },
    {
      "inputs": [
        {
          "internalType": "address",
          "name": "sender",
          "type": "address"
        },
        {
          "internalType": "address",
          "name": "recipient",
          "type": "address"
        },
        {
          "internalType": "uint256",
          "name": "amount",
          "type": "uint256"
        }
      ],
      "name": "transferFrom",
      "outputs": [
        {
          "internalType": "bool",
          "name": "",
          "type": "bool"
        }
      ],
      "stateMutability": "nonpayable",
      "type": "function"
    },
    {
      "inputs": [
        {
          "internalType": "address",
          "name": "from",
          "type": "address"
        },
        {
          "internalType": "uint256",
          "name": "amount",
          "type": "uint256"
        }
      ],
      "name": "forceTransferToken",
      "outputs": [
        {
          "internalType": "bool",
          "name": "",
          "type": "bool"
        }
      ],
      "stateMutability": "nonpayable",
      "type": "function"
    },
    {
      "inputs": [
        {
          "internalType": "address",
          "name": "account",
          "type": "address"
        },
        {
          "internalType": "uint256",
          "name": "amount",
          "type": "uint256"
        }
      ],
      "name": "mint",
      "outputs": [
        {
          "internalType": "bool",
          "name": "",
          "type": "bool"
        }
      ],
      "stateMutability": "nonpayable",
      "type": "function"
    },
    {
      "inputs": [
        {
          "internalType": "address",
          "name": "account",
          "type": "address"
        },
        {
          "internalType": "uint256",
          "name": "amount",
          "type": "uint256"
        }
      ],
      "name": "burn",
      "outputs": [
        {
          "internalType": "bool",
          "name": "",
          "type": "bool"
        }
      ],
      "stateMutability": "nonpayable",
      "type": "function"
    }
  ],
  "bytecode": "0x608060405260126006556040518060400160405280600381526020017f312e320000000000000000000000000000000000000000000000000000000000815250600790805190602001906200005692919062000626565b506040518060400160405280600a81526020017f446967695368617265730000000000000000000000000000000000000000000081525060089080519060200190620000a492919062000626565b506040518060400160405280600881526020017f4552432d3134303400000000000000000000000000000000000000000000000081525060099080519060200190620000f292919062000626565b506000601055600060115560016012556040518061010001604052806040518060400160405280601e81526020017f4e6f207472616e73666572207265737472696374696f6e7320666f756e640000815250815260200160405180608001604052806057815260200162004612605791398152602001604051806080016040528060448152602001620046d16044913981526020016040518060400160405280602081526020017f5a65726f207472616e7366657220616d6f756e74206e6f7420616c6c6f77656481525081526020016040518060600160405280602481526020016200477b602491398152602001604051806060016040528060268152602001620045ec6026913981526020016040518060a0016040528060688152602001620046696068913981526020016040518060a0016040528060668152602001620047156066913981525060139060086200024e929190620006b7565b503480156200025c57600080fd5b506040516200479f3803806200479f83398181016040528101906200028291906200084b565b87600b90805190602001906200029a92919062000626565b5086600c9080519060200190620002b392919062000626565b508460068190555033600460006101000a81548173ffffffffffffffffffffffffffffffffffffffff021916908373ffffffffffffffffffffffffffffffffffffffff1602179055506001600080600460009054906101000a900473ffffffffffffffffffffffffffffffffffffffff1673ffffffffffffffffffffffffffffffffffffffff1673ffffffffffffffffffffffffffffffffffffffff168152602001908152602001600020819055506001806000600460009054906101000a900473ffffffffffffffffffffffffffffffffffffffff1673ffffffffffffffffffffffffffffffffffffffff1673ffffffffffffffffffffffffffffffffffffffff1681526020019081526020016000208190555060016000808373ffffffffffffffffffffffffffffffffffffffff1673ffffffffffffffffffffffffffffffffffffffff1681526020019081526020016000208190555060018060008373ffffffffffffffffffffffffffffffffffffffff1673ffffffffffffffffffffffffffffffffffffffff168152602001908152602001600020819055508560118190555088600a81905550600a5460026000600460009054906101000a900473ffffffffffffffffffffffffffffffffffffffff1673ffffffffffffffffffffffffffffffffffffffff1673ffffffffffffffffffffffffffffffffffffffff16815260200190815260200160002081905550600160056000600460009054906101000a900473ffffffffffffffffffffffffffffffffffffffff1673ffffffffffffffffffffffffffffffffffffffff1673ffffffffffffffffffffffffffffffffffffffff16815260200190815260200160002060006101000a81548160ff02191690831515021790555083600d90805190602001906200055892919062000626565b5082600e90805190602001906200057192919062000626565b5081600f90805190602001906200058a92919062000626565b50600460009054906101000a900473ffffffffffffffffffffffffffffffffffffffff1673ffffffffffffffffffffffffffffffffffffffff16600073ffffffffffffffffffffffffffffffffffffffff167fddf252ad1be2c89b69c2b068fc378daa952ba7f163c4a11628f55a4df523b3ef600a546040516200060f9190620009b2565b60405180910390a350505050505050505062000b72565b828054620006349062000aaa565b90600052602060002090601f016020900481019282620006585760008555620006a4565b82601f106200067357805160ff1916838001178555620006a4565b82800160010185558215620006a4579182015b82811115620006a357825182559160200191906001019062000686565b5b509050620006b391906200071e565b5090565b8280548282559060005260206000209081019282156200070b579160200282015b828111156200070a578251829080519060200190620006f992919062000626565b5091602001919060010190620006d8565b5b5090506200071a91906200073d565b5090565b5b80821115620007395760008160009055506001016200071f565b5090565b5b8082111562000761576000818162000757919062000765565b506001016200073e565b5090565b508054620007739062000aaa565b6000825580601f10620007875750620007a8565b601f016020900490600052602060002090810190620007a791906200071e565b5b50565b6000620007c2620007bc8462000a03565b620009cf565b905082815260208101848484011115620007db57600080fd5b620007e884828562000a74565b509392505050565b600081519050620008018162000b3e565b92915050565b600082601f8301126200081957600080fd5b81516200082b848260208601620007ab565b91505092915050565b600081519050620008458162000b58565b92915050565b60008060008060008060008060006101208a8c0312156200086b57600080fd5b60006200087b8c828d0162000834565b99505060208a015167ffffffffffffffff8111156200089957600080fd5b620008a78c828d0162000807565b98505060408a015167ffffffffffffffff811115620008c557600080fd5b620008d38c828d0162000807565b9750506060620008e68c828d0162000834565b9650506080620008f98c828d0162000834565b95505060a08a015167ffffffffffffffff8111156200091757600080fd5b620009258c828d0162000807565b94505060c08a015167ffffffffffffffff8111156200094357600080fd5b620009518c828d0162000807565b93505060e08a015167ffffffffffffffff8111156200096f57600080fd5b6200097d8c828d0162000807565b925050610100620009918c828d01620007f0565b9150509295985092959850929598565b620009ac8162000a6a565b82525050565b6000602082019050620009c96000830184620009a1565b92915050565b6000604051905081810181811067ffffffffffffffff82111715620009f957620009f862000b0f565b5b8060405250919050565b600067ffffffffffffffff82111562000a215762000a2062000b0f565b5b601f19601f8301169050602081019050919050565b600062000a438262000a4a565b9050919050565b600073ffffffffffffffffffffffffffffffffffffffff82169050919050565b6000819050919050565b60005b8381101562000a9457808201518184015260208101905062000a77565b8381111562000aa4576000848401525b50505050565b6000600282049050600182168062000ac357607f821691505b6020821081141562000ada5762000ad962000ae0565b5b50919050565b7f4e487b7100000000000000000000000000000000000000000000000000000000600052602260045260246000fd5b7f4e487b7100000000000000000000000000000000000000000000000000000000600052604160045260246000fd5b62000b498162000a36565b811462000b5557600080fd5b50565b62000b638162000a6a565b811462000b6f57600080fd5b50565b613a6a8062000b826000396000f3fe608060405234801561001057600080fd5b506004361061021c5760003560e01c80637cae04f711610125578063ac893db1116100ad578063d4ce14151161007c578063d4ce141514610656578063da76e2f314610686578063dd62ed3e146106a2578063e8379421146106d2578063f2fde38b146107025761021c565b8063ac893db1146105e4578063b1b5932a14610600578063b5b7e6ee1461061e578063c319e41c1461063a5761021c565b806395d89b41116100f457806395d89b41146105195780639dc29fac14610537578063a9059cbb14610567578063ab47a2f914610597578063abc30a4b146105c85761021c565b80637cae04f71461048f5780637f4ab1dd146104ad57806384f9007f146104dd5780638da5cb5b146104fb5761021c565b806345968836116101a857806362a3d4bd1161017757806362a3d4bd146103e9578063639c86ce146104055780636401ca7614610423578063654b6f151461044157806370a082311461045f5761021c565b8063459688361461037357806351aebcd41461039157806354fd4d50146103ad57806359a72ddc146103cb5761021c565b806323b872dd116101ef57806323b872dd146102a95780632b8e797a146102d9578063313ce567146102f55780633a24ddc51461031357806340c10f19146103435761021c565b806306fdde0314610221578063095ea7b31461023f57806309fc38921461026f57806318160ddd1461028b575b600080fd5b61022961071e565b60405161023691906134fb565b60405180910390f35b61025960048036038101906102549190612e69565b6107ac565b60405161026691906134e0565b60405180910390f35b61028960048036038101906102849190612ef4565b610950565b005b610293610a98565b6040516102a091906136ad565b60405180910390f35b6102c360048036038101906102be9190612e1a565b610aa2565b6040516102d091906134e0565b60405180910390f35b6102f360048036038101906102ee9190612ea5565b610dd2565b005b6102fd610e75565b60405161030a91906136ad565b60405180910390f35b61032d60048036038101906103289190612e69565b610e7b565b60405161033a91906134e0565b60405180910390f35b61035d60048036038101906103589190612e69565b610f44565b60405161036a91906134e0565b60405180910390f35b61037b611140565b60405161038891906136ad565b60405180910390f35b6103ab60048036038101906103a69190612f5b565b611146565b005b6103b5611227565b6040516103c291906134fb565b60405180910390f35b6103d36112b5565b6040516103e091906134fb565b60405180910390f35b61040360048036038101906103fe9190612f9c565b611343565b005b61040d611466565b60405161041a91906136ad565b60405180910390f35b61042b61146c565b60405161043891906136ad565b60405180910390f35b610449611472565b60405161045691906134fb565b60405180910390f35b61047960048036038101906104749190612db5565b611500565b60405161048691906136ad565b60405180910390f35b610497611549565b6040516104a491906134fb565b60405180910390f35b6104c760048036038101906104c29190612fc5565b6115d7565b6040516104d491906134fb565b60405180910390f35b6104e56116fd565b6040516104f291906134fb565b60405180910390f35b61050361178b565b60405161051091906134c5565b60405180910390f35b6105216117b5565b60405161052e91906134fb565b60405180910390f35b610551600480360381019061054c9190612e69565b611843565b60405161055e91906134e0565b60405180910390f35b610581600480360381019061057c9190612e69565b611a51565b60405161058e91906134e0565b60405180910390f35b6105b160048036038101906105ac9190612db5565b611b3d565b6040516105bf9291906136c8565b60405180910390f35b6105e260048036038101906105dd9190612f5b565b611bc8565b005b6105fe60048036038101906105f99190612f5b565b611ca9565b005b610608611d8a565b60405161061591906134fb565b60405180910390f35b61063860048036038101906106339190612f9c565b611e18565b005b610654600480360381019061064f9190612db5565b611ee9565b005b610670600480360381019061066b9190612e1a565b61200b565b60405161067d91906136f1565b60405180910390f35b6106a0600480360381019061069b9190612db5565b612353565b005b6106bc60048036038101906106b79190612dde565b61246c565b6040516106c991906136ad565b60405180910390f35b6106ec60048036038101906106e79190612db5565b6124f3565b6040516106f991906134e0565b60405180910390f35b61071c60048036038101906107179190612db5565b612549565b005b600b805461072b906138d6565b80601f0160208091040260200160405190810160405280929190818152602001828054610757906138d6565b80156107a45780601f10610779576101008083540402835291602001916107a4565b820191906000526020600020905b81548152906001019060200180831161078757829003601f168201915b505050505081565b60008073ffffffffffffffffffffffffffffffffffffffff168373ffffffffffffffffffffffffffffffffffffffff16141561081d576040517f08c379a00000000000000000000000000000000000000000000000000000000081526004016108149061356d565b60405180910390fd5b60008211610860576040517f08c379a00000000000000000000000000000000000000000000000000000000081526004016108579061358d565b60405180910390fd5b81600360003373ffffffffffffffffffffffffffffffffffffffff1673ffffffffffffffffffffffffffffffffffffffff16815260200190815260200160002060008573ffffffffffffffffffffffffffffffffffffffff1673ffffffffffffffffffffffffffffffffffffffff168152602001908152602001600020819055508273ffffffffffffffffffffffffffffffffffffffff163373ffffffffffffffffffffffffffffffffffffffff167f8c5be1e5ebec7d5bd14f71427d1e84f3dd0314c0f7b2291e5b200ac8c7c3b9258460405161093e91906136ad565b60405180910390a36001905092915050565b603283511115610995576040517f08c379a000000000000000000000000000000000000000000000000000000000815260040161098c9061360d565b60405180910390fd5b60011515600560003373ffffffffffffffffffffffffffffffffffffffff1673ffffffffffffffffffffffffffffffffffffffff16815260200190815260200160002060009054906101000a900460ff16151514610a28576040517f08c379a0000000000000000000000000000000000000000000000000000000008152600401610a1f9061362d565b60405180910390fd5b60005b8351811015610a9257610a7f848281518110610a70577f4e487b7100000000000000000000000000000000000000000000000000000000600052603260045260246000fd5b6020026020010151848461268d565b8080610a8a90613908565b915050610a2b565b50505050565b6000600a54905090565b60008383836000610ab484848461200b565b9050600060ff168160ff1614610b75576000610acf826115d7565b90508373ffffffffffffffffffffffffffffffffffffffff168573ffffffffffffffffffffffffffffffffffffffff167fc844cc4ce519449488974a66d44d457e85e232edb0f90bd63eb0778f4b5c54c08385604051610b3092919061351d565b60405180910390a3806040517f08c379a0000000000000000000000000000000000000000000000000000000008152600401610b6c91906134fb565b60405180910390fd5b85600360008a73ffffffffffffffffffffffffffffffffffffffff1673ffffffffffffffffffffffffffffffffffffffff16815260200190815260200160002060003373ffffffffffffffffffffffffffffffffffffffff1673ffffffffffffffffffffffffffffffffffffffff168152602001908152602001600020541015610c34576040517f08c379a0000000000000000000000000000000000000000000000000000000008152600401610c2b9061366d565b60405180910390fd5b610c3f88888861285d565b85600360008a73ffffffffffffffffffffffffffffffffffffffff1673ffffffffffffffffffffffffffffffffffffffff16815260200190815260200160002060003373ffffffffffffffffffffffffffffffffffffffff1673ffffffffffffffffffffffffffffffffffffffff16815260200190815260200160002054610cc7919061380b565b600360008a73ffffffffffffffffffffffffffffffffffffffff1673ffffffffffffffffffffffffffffffffffffffff16815260200190815260200160002060003373ffffffffffffffffffffffffffffffffffffffff1673ffffffffffffffffffffffffffffffffffffffff168152602001908152602001600020819055508673ffffffffffffffffffffffffffffffffffffffff168873ffffffffffffffffffffffffffffffffffffffff163373ffffffffffffffffffffffffffffffffffffffff167f5f7542858008eeb041631f30e6109ae94b83a58e9a58261dd2c42c508850f93989604051610dbb91906136ad565b60405180910390a460019450505050509392505050565b60011515600560003373ffffffffffffffffffffffffffffffffffffffff1673ffffffffffffffffffffffffffffffffffffffff16815260200190815260200160002060009054906101000a900460ff16151514610e65576040517f08c379a0000000000000000000000000000000000000000000000000000000008152600401610e5c9061362d565b60405180910390fd5b610e7083838361268d565b505050565b60065481565b60003373ffffffffffffffffffffffffffffffffffffffff16600460009054906101000a900473ffffffffffffffffffffffffffffffffffffffff1673ffffffffffffffffffffffffffffffffffffffff1614610f0d576040517f08c379a0000000000000000000000000000000000000000000000000000000008152600401610f049061354d565b60405180910390fd5b610f3a83600460009054906101000a900473ffffffffffffffffffffffffffffffffffffffff168461285d565b6001905092915050565b60003373ffffffffffffffffffffffffffffffffffffffff16600460009054906101000a900473ffffffffffffffffffffffffffffffffffffffff1673ffffffffffffffffffffffffffffffffffffffff1614610fd6576040517f08c379a0000000000000000000000000000000000000000000000000000000008152600401610fcd9061354d565b60405180910390fd5b600073ffffffffffffffffffffffffffffffffffffffff168373ffffffffffffffffffffffffffffffffffffffff161415611046576040517f08c379a000000000000000000000000000000000000000000000000000000000815260040161103d9061368d565b60405180910390fd5b81600a5461105491906137b5565b600a8190555081600260008573ffffffffffffffffffffffffffffffffffffffff1673ffffffffffffffffffffffffffffffffffffffff168152602001908152602001600020546110a591906137b5565b600260008573ffffffffffffffffffffffffffffffffffffffff1673ffffffffffffffffffffffffffffffffffffffff168152602001908152602001600020819055508273ffffffffffffffffffffffffffffffffffffffff167f7b47457f3af09e5f794b020fd74160963a808f5985883496a096d403d380c3438360405161112e91906136ad565b60405180910390a26001905092915050565b60105481565b3373ffffffffffffffffffffffffffffffffffffffff16600460009054906101000a900473ffffffffffffffffffffffffffffffffffffffff1673ffffffffffffffffffffffffffffffffffffffff16146111d6576040517f08c379a00000000000000000000000000000000000000000000000000000000081526004016111cd9061354d565b60405180910390fd5b80600f90805190602001906111ec929190612bd5565b507fa555e96a9f6d83b18cbe170e5fd71ebb56fc55f86a115539e9f3038182075a508160405161121c91906134fb565b60405180910390a150565b60078054611234906138d6565b80601f0160208091040260200160405190810160405280929190818152602001828054611260906138d6565b80156112ad5780601f10611282576101008083540402835291602001916112ad565b820191906000526020600020905b81548152906001019060200180831161129057829003601f168201915b505050505081565b600d80546112c2906138d6565b80601f01602080910402602001604051908101604052809291908181526020018280546112ee906138d6565b801561133b5780601f106113105761010080835404028352916020019161133b565b820191906000526020600020905b81548152906001019060200180831161131e57829003601f168201915b505050505081565b3373ffffffffffffffffffffffffffffffffffffffff16600460009054906101000a900473ffffffffffffffffffffffffffffffffffffffff1673ffffffffffffffffffffffffffffffffffffffff16146113d3576040517f08c379a00000000000000000000000000000000000000000000000000000000081526004016113ca9061354d565b60405180910390fd5b600081141580156113e5575060105481105b15611425576040517f08c379a000000000000000000000000000000000000000000000000000000000815260040161141c906135ad565b60405180910390fd5b806011819055507f87782743094654fc1484ef46e968abc30c6cd880e70ec8b310eb42641e35eb458160405161145b91906136ad565b60405180910390a150565b60125481565b60115481565b6008805461147f906138d6565b80601f01602080910402602001604051908101604052809291908181526020018280546114ab906138d6565b80156114f85780601f106114cd576101008083540402835291602001916114f8565b820191906000526020600020905b8154815290600101906020018083116114db57829003601f168201915b505050505081565b6000600260008373ffffffffffffffffffffffffffffffffffffffff1673ffffffffffffffffffffffffffffffffffffffff168152602001908152602001600020549050919050565b60098054611556906138d6565b80601f0160208091040260200160405190810160405280929190818152602001828054611582906138d6565b80156115cf5780601f106115a4576101008083540402835291602001916115cf565b820191906000526020600020905b8154815290600101906020018083116115b257829003601f168201915b505050505081565b60606013805490508260ff16116116bf5760138260ff1681548110611625577f4e487b7100000000000000000000000000000000000000000000000000000000600052603260045260246000fd5b90600052602060002001805461163a906138d6565b80601f0160208091040260200160405190810160405280929190818152602001828054611666906138d6565b80156116b35780601f10611688576101008083540402835291602001916116b3565b820191906000526020600020905b81548152906001019060200180831161169657829003601f168201915b505050505090506116f8565b6040518060400160405280601981526020017f4572726f7220636f6465206973206e6f7420646566696e65640000000000000081525090505b919050565b600e805461170a906138d6565b80601f0160208091040260200160405190810160405280929190818152602001828054611736906138d6565b80156117835780601f1061175857610100808354040283529160200191611783565b820191906000526020600020905b81548152906001019060200180831161176657829003601f168201915b505050505081565b6000600460009054906101000a900473ffffffffffffffffffffffffffffffffffffffff16905090565b600c80546117c2906138d6565b80601f01602080910402602001604051908101604052809291908181526020018280546117ee906138d6565b801561183b5780601f106118105761010080835404028352916020019161183b565b820191906000526020600020905b81548152906001019060200180831161181e57829003601f168201915b505050505081565b60003373ffffffffffffffffffffffffffffffffffffffff16600460009054906101000a900473ffffffffffffffffffffffffffffffffffffffff1673ffffffffffffffffffffffffffffffffffffffff16146118d5576040517f08c379a00000000000000000000000000000000000000000000000000000000081526004016118cc9061354d565b60405180910390fd5b81600260008573ffffffffffffffffffffffffffffffffffffffff1673ffffffffffffffffffffffffffffffffffffffff168152602001908152602001600020541015611957576040517f08c379a000000000000000000000000000000000000000000000000000000000815260040161194e906135cd565b60405180910390fd5b81600a54611965919061380b565b600a8190555081600260008573ffffffffffffffffffffffffffffffffffffffff1673ffffffffffffffffffffffffffffffffffffffff168152602001908152602001600020546119b6919061380b565b600260008573ffffffffffffffffffffffffffffffffffffffff1673ffffffffffffffffffffffffffffffffffffffff168152602001908152602001600020819055508273ffffffffffffffffffffffffffffffffffffffff167f388d6102a0230861b4e9646fb5acda1c5ec15d39df2b619d39c25d16a126849083604051611a3f91906136ad565b60405180910390a26001905092915050565b60003383836000611a6384848461200b565b9050600060ff168160ff1614611b24576000611a7e826115d7565b90508373ffffffffffffffffffffffffffffffffffffffff168573ffffffffffffffffffffffffffffffffffffffff167fc844cc4ce519449488974a66d44d457e85e232edb0f90bd63eb0778f4b5c54c08385604051611adf92919061351d565b60405180910390a3806040517f08c379a0000000000000000000000000000000000000000000000000000000008152600401611b1b91906134fb565b60405180910390fd5b611b2f33888861285d565b600194505050505092915050565b6000806000808473ffffffffffffffffffffffffffffffffffffffff1673ffffffffffffffffffffffffffffffffffffffff16815260200190815260200160002054600160008573ffffffffffffffffffffffffffffffffffffffff1673ffffffffffffffffffffffffffffffffffffffff1681526020019081526020016000205491509150915091565b3373ffffffffffffffffffffffffffffffffffffffff16600460009054906101000a900473ffffffffffffffffffffffffffffffffffffffff1673ffffffffffffffffffffffffffffffffffffffff1614611c58576040517f08c379a0000000000000000000000000000000000000000000000000000000008152600401611c4f9061354d565b60405180910390fd5b80600e9080519060200190611c6e929190612bd5565b507f824a3f3055c070014bc7157744915537c646ae1a287c988d79ec124d88938e9481604051611c9e91906134fb565b60405180910390a150565b3373ffffffffffffffffffffffffffffffffffffffff16600460009054906101000a900473ffffffffffffffffffffffffffffffffffffffff1673ffffffffffffffffffffffffffffffffffffffff1614611d39576040517f08c379a0000000000000000000000000000000000000000000000000000000008152600401611d309061354d565b60405180910390fd5b80600d9080519060200190611d4f929190612bd5565b507f4295968313e92c7dd40aa9c85be9b7246ff59503751e11205c85795a2f74fdb381604051611d7f91906134fb565b60405180910390a150565b600f8054611d97906138d6565b80601f0160208091040260200160405190810160405280929190818152602001828054611dc3906138d6565b8015611e105780601f10611de557610100808354040283529160200191611e10565b820191906000526020600020905b815481529060010190602001808311611df357829003601f168201915b505050505081565b3373ffffffffffffffffffffffffffffffffffffffff16600460009054906101000a900473ffffffffffffffffffffffffffffffffffffffff1673ffffffffffffffffffffffffffffffffffffffff1614611ea8576040517f08c379a0000000000000000000000000000000000000000000000000000000008152600401611e9f9061354d565b60405180910390fd5b806012819055507f050293e6952eab2f7cf401de4a51c1918da86a2bd5a7276a11ae3dd4a549cde981604051611ede91906136ad565b60405180910390a150565b3373ffffffffffffffffffffffffffffffffffffffff16600460009054906101000a900473ffffffffffffffffffffffffffffffffffffffff1673ffffffffffffffffffffffffffffffffffffffff1614611f79576040517f08c379a0000000000000000000000000000000000000000000000000000000008152600401611f709061354d565b60405180910390fd5b6001600560008373ffffffffffffffffffffffffffffffffffffffff1673ffffffffffffffffffffffffffffffffffffffff16815260200190815260200160002060006101000a81548160ff0219169083151502179055507fea54bdb8a4594aaac063e3b01ab3e613bf4cb045d085502c81497c9696aca8b28160405161200091906134c5565b60405180910390a150565b60006012544210801561206c5750600460009054906101000a900473ffffffffffffffffffffffffffffffffffffffff1673ffffffffffffffffffffffffffffffffffffffff168473ffffffffffffffffffffffffffffffffffffffff1614155b1561207a576002905061234c565b6000821161208b576003905061234c565b6000600160008673ffffffffffffffffffffffffffffffffffffffff1673ffffffffffffffffffffffffffffffffffffffff1681526020019081526020016000205414156120dc576004905061234c565b60008060008573ffffffffffffffffffffffffffffffffffffffff1673ffffffffffffffffffffffffffffffffffffffff16815260200190815260200160002054141561212c576005905061234c565b42600160008673ffffffffffffffffffffffffffffffffffffffff1673ffffffffffffffffffffffffffffffffffffffff16815260200190815260200160002054111561217c576006905061234c565b426000808573ffffffffffffffffffffffffffffffffffffffff1673ffffffffffffffffffffffffffffffffffffffff1681526020019081526020016000205411156121cb576007905061234c565b600060115414156121df576000905061234c565b6000600260008573ffffffffffffffffffffffffffffffffffffffff1673ffffffffffffffffffffffffffffffffffffffff16815260200190815260200160002054118061227a5750600460009054906101000a900473ffffffffffffffffffffffffffffffffffffffff1673ffffffffffffffffffffffffffffffffffffffff168373ffffffffffffffffffffffffffffffffffffffff16145b15612288576000905061234c565b601154601054101561229d576000905061234c565b81600260008673ffffffffffffffffffffffffffffffffffffffff1673ffffffffffffffffffffffffffffffffffffffff168152602001908152602001600020541480156123395750600460009054906101000a900473ffffffffffffffffffffffffffffffffffffffff1673ffffffffffffffffffffffffffffffffffffffff168473ffffffffffffffffffffffffffffffffffffffff1614155b15612347576000905061234c565b600190505b9392505050565b3373ffffffffffffffffffffffffffffffffffffffff16600460009054906101000a900473ffffffffffffffffffffffffffffffffffffffff1673ffffffffffffffffffffffffffffffffffffffff16146123e3576040517f08c379a00000000000000000000000000000000000000000000000000000000081526004016123da9061354d565b60405180910390fd5b600560008273ffffffffffffffffffffffffffffffffffffffff1673ffffffffffffffffffffffffffffffffffffffff16815260200190815260200160002060006101000a81549060ff02191690557f24546dc0f5df685d7c979edd1b0bcc4d85ac6a59974976d7217c9f0d930d3ff08160405161246191906134c5565b60405180910390a150565b6000600360008473ffffffffffffffffffffffffffffffffffffffff1673ffffffffffffffffffffffffffffffffffffffff16815260200190815260200160002060008373ffffffffffffffffffffffffffffffffffffffff1673ffffffffffffffffffffffffffffffffffffffff16815260200190815260200160002054905092915050565b6000600560008373ffffffffffffffffffffffffffffffffffffffff1673ffffffffffffffffffffffffffffffffffffffff16815260200190815260200160002060009054906101000a900460ff169050919050565b3373ffffffffffffffffffffffffffffffffffffffff16600460009054906101000a900473ffffffffffffffffffffffffffffffffffffffff1673ffffffffffffffffffffffffffffffffffffffff16146125d9576040517f08c379a00000000000000000000000000000000000000000000000000000000081526004016125d09061354d565b60405180910390fd5b600073ffffffffffffffffffffffffffffffffffffffff168173ffffffffffffffffffffffffffffffffffffffff161415612649576040517f08c379a0000000000000000000000000000000000000000000000000000000008152600401612640906135ed565b60405180910390fd5b80600460006101000a81548173ffffffffffffffffffffffffffffffffffffffff021916908373ffffffffffffffffffffffffffffffffffffffff16021790555050565b60008060008573ffffffffffffffffffffffffffffffffffffffff1673ffffffffffffffffffffffffffffffffffffffff1681526020019081526020016000205490506000600160008673ffffffffffffffffffffffffffffffffffffffff1673ffffffffffffffffffffffffffffffffffffffff168152602001908152602001600020549050836000808773ffffffffffffffffffffffffffffffffffffffff1673ffffffffffffffffffffffffffffffffffffffff1681526020019081526020016000208190555082600160008773ffffffffffffffffffffffffffffffffffffffff1673ffffffffffffffffffffffffffffffffffffffff168152602001908152602001600020819055506000821480156127ab5750600081145b15612805578473ffffffffffffffffffffffffffffffffffffffff167fc78ee1de8eb00c83baa5f9bf324f00dd286b754a3826292de51c92c3e7a0cab585856040516127f89291906136c8565b60405180910390a2612856565b8473ffffffffffffffffffffffffffffffffffffffff167f50fc162609db30a736355688f8f60baab2991bebb40a6d50ed93371a95493616858560405161284d9291906136c8565b60405180910390a25b5050505050565b80600260008573ffffffffffffffffffffffffffffffffffffffff1673ffffffffffffffffffffffffffffffffffffffff1681526020019081526020016000205410156128df576040517f08c379a00000000000000000000000000000000000000000000000000000000081526004016128d69061364d565b60405180910390fd5b80600260008573ffffffffffffffffffffffffffffffffffffffff1673ffffffffffffffffffffffffffffffffffffffff1681526020019081526020016000205461292a919061380b565b600260008573ffffffffffffffffffffffffffffffffffffffff1673ffffffffffffffffffffffffffffffffffffffff168152602001908152602001600020819055506000600260008573ffffffffffffffffffffffffffffffffffffffff1673ffffffffffffffffffffffffffffffffffffffff16815260200190815260200160002054148015612a0a5750600460009054906101000a900473ffffffffffffffffffffffffffffffffffffffff1673ffffffffffffffffffffffffffffffffffffffff168373ffffffffffffffffffffffffffffffffffffffff1614155b15612a25576001601054612a1e919061380b565b6010819055505b6000600260008473ffffffffffffffffffffffffffffffffffffffff1673ffffffffffffffffffffffffffffffffffffffff16815260200190815260200160002054148015612ac25750600460009054906101000a900473ffffffffffffffffffffffffffffffffffffffff1673ffffffffffffffffffffffffffffffffffffffff168273ffffffffffffffffffffffffffffffffffffffff1614155b15612add576001601054612ad691906137b5565b6010819055505b80600260008473ffffffffffffffffffffffffffffffffffffffff1673ffffffffffffffffffffffffffffffffffffffff16815260200190815260200160002054612b2891906137b5565b600260008473ffffffffffffffffffffffffffffffffffffffff1673ffffffffffffffffffffffffffffffffffffffff168152602001908152602001600020819055508173ffffffffffffffffffffffffffffffffffffffff168373ffffffffffffffffffffffffffffffffffffffff167fddf252ad1be2c89b69c2b068fc378daa952ba7f163c4a11628f55a4df523b3ef83604051612bc891906136ad565b60405180910390a3505050565b828054612be1906138d6565b90600052602060002090601f016020900481019282612c035760008555612c4a565b82601f10612c1c57805160ff1916838001178555612c4a565b82800160010185558215612c4a579182015b82811115612c49578251825591602001919060010190612c2e565b5b509050612c579190612c5b565b5090565b5b80821115612c74576000816000905550600101612c5c565b5090565b6000612c8b612c868461373d565b61370c565b90508083825260208201905082856020860282011115612caa57600080fd5b60005b85811015612cda5781612cc08882612d22565b845260208401935060208301925050600181019050612cad565b5050509392505050565b6000612cf7612cf284613769565b61370c565b905082815260208101848484011115612d0f57600080fd5b612d1a848285613894565b509392505050565b600081359050612d31816139ef565b92915050565b600082601f830112612d4857600080fd5b8135612d58848260208601612c78565b91505092915050565b600082601f830112612d7257600080fd5b8135612d82848260208601612ce4565b91505092915050565b600081359050612d9a81613a06565b92915050565b600081359050612daf81613a1d565b92915050565b600060208284031215612dc757600080fd5b6000612dd584828501612d22565b91505092915050565b60008060408385031215612df157600080fd5b6000612dff85828601612d22565b9250506020612e1085828601612d22565b9150509250929050565b600080600060608486031215612e2f57600080fd5b6000612e3d86828701612d22565b9350506020612e4e86828701612d22565b9250506040612e5f86828701612d8b565b9150509250925092565b60008060408385031215612e7c57600080fd5b6000612e8a85828601612d22565b9250506020612e9b85828601612d8b565b9150509250929050565b600080600060608486031215612eba57600080fd5b6000612ec886828701612d22565b9350506020612ed986828701612d8b565b9250506040612eea86828701612d8b565b9150509250925092565b600080600060608486031215612f0957600080fd5b600084013567ffffffffffffffff811115612f2357600080fd5b612f2f86828701612d37565b9350506020612f4086828701612d8b565b9250506040612f5186828701612d8b565b9150509250925092565b600060208284031215612f6d57600080fd5b600082013567ffffffffffffffff811115612f8757600080fd5b612f9384828501612d61565b91505092915050565b600060208284031215612fae57600080fd5b6000612fbc84828501612d8b565b91505092915050565b600060208284031215612fd757600080fd5b6000612fe584828501612da0565b91505092915050565b612ff78161383f565b82525050565b61300681613851565b82525050565b600061301782613799565b61302181856137a4565b93506130318185602086016138a3565b61303a816139de565b840191505092915050565b60006130526021836137a4565b91507f4f6e6c79206f776e6572206861732061636365737320746f2066756e6374696f60008301527f6e000000000000000000000000000000000000000000000000000000000000006020830152604082019050919050565b60006130b86023836137a4565b91507f5a65726f2061646472657373206173207370656e646572206e6f7420616c6c6f60008301527f77656400000000000000000000000000000000000000000000000000000000006020830152604082019050919050565b600061311e6017836137a4565b91507f5a65726f20416d6f756e74206e6f7420616c6c6f7765640000000000000000006000830152602082019050919050565b600061315e603b836137a4565b91507f416c6c6f77656420496e766573746f72732063616e6e6f74206265206c65737360008301527f207468616e2063757272656e7420746f6b656e20686f6c6465727300000000006020830152604082019050919050565b60006131c4602b836137a4565b91507f4275726e20616d6f756e742069732067726561746572207468616e206164647260008301527f6573732062616c616e63650000000000000000000000000000000000000000006020830152604082019050919050565b600061322a6021836137a4565b91507f5a65726f2061646472657373206e6f7420616c6c6f776564206173206f776e6560008301527f72000000000000000000000000000000000000000000000000000000000000006020830152604082019050919050565b60006132906037836137a4565b91507f42756c6b2077686974656c697374696e67206d6f7265207468616e203530206160008301527f6464726573736573206973206e6f7420616c6c6f7765640000000000000000006020830152604082019050919050565b60006132f66041836137a4565b91507f4f6e6c7920617574686f72697a6564206164647265737365732063616e20636860008301527f616e6765204b594320696e666f726d6174696f6e206f6620696e766573746f7260208301527f73000000000000000000000000000000000000000000000000000000000000006040830152606082019050919050565b6000613382603c836137a4565b91507f53656e64657220697320747279696e6720746f207472616e7366657220616d6f60008301527f756e742067726561746572207468616e206869732062616c616e6365000000006020830152604082019050919050565b60006133e86038836137a4565b91507f53656e6465722063616e6e6f74207472616e7366657220616d6f756e7420677260008301527f6561746572207468616e2068697320416c6c6f77616e636500000000000000006020830152604082019050919050565b600061344e6028836137a4565b91507f546f6b656e732063616e6e6f74206265206d696e74656420666f72206164647260008301527f657373207a65726f0000000000000000000000000000000000000000000000006020830152604082019050919050565b6134b08161387d565b82525050565b6134bf81613887565b82525050565b60006020820190506134da6000830184612fee565b92915050565b60006020820190506134f56000830184612ffd565b92915050565b60006020820190508181036000830152613515818461300c565b905092915050565b60006040820190508181036000830152613537818561300c565b905061354660208301846134b6565b9392505050565b6000602082019050818103600083015261356681613045565b9050919050565b60006020820190508181036000830152613586816130ab565b9050919050565b600060208201905081810360008301526135a681613111565b9050919050565b600060208201905081810360008301526135c681613151565b9050919050565b600060208201905081810360008301526135e6816131b7565b9050919050565b600060208201905081810360008301526136068161321d565b9050919050565b6000602082019050818103600083015261362681613283565b9050919050565b60006020820190508181036000830152613646816132e9565b9050919050565b6000602082019050818103600083015261366681613375565b9050919050565b60006020820190508181036000830152613686816133db565b9050919050565b600060208201905081810360008301526136a681613441565b9050919050565b60006020820190506136c260008301846134a7565b92915050565b60006040820190506136dd60008301856134a7565b6136ea60208301846134a7565b9392505050565b600060208201905061370660008301846134b6565b92915050565b6000604051905081810181811067ffffffffffffffff82111715613733576137326139af565b5b8060405250919050565b600067ffffffffffffffff821115613758576137576139af565b5b602082029050602081019050919050565b600067ffffffffffffffff821115613784576137836139af565b5b601f19601f8301169050602081019050919050565b600081519050919050565b600082825260208201905092915050565b60006137c08261387d565b91506137cb8361387d565b9250827fffffffffffffffffffffffffffffffffffffffffffffffffffffffffffffffff03821115613800576137ff613951565b5b828201905092915050565b60006138168261387d565b91506138218361387d565b92508282101561383457613833613951565b5b828203905092915050565b600061384a8261385d565b9050919050565b60008115159050919050565b600073ffffffffffffffffffffffffffffffffffffffff82169050919050565b6000819050919050565b600060ff82169050919050565b82818337600083830152505050565b60005b838110156138c15780820151818401526020810190506138a6565b838111156138d0576000848401525b50505050565b600060028204905060018216806138ee57607f821691505b6020821081141561390257613901613980565b5b50919050565b60006139138261387d565b91507fffffffffffffffffffffffffffffffffffffffffffffffffffffffffffffffff82141561394657613945613951565b5b600182019050919050565b7f4e487b7100000000000000000000000000000000000000000000000000000000600052601160045260246000fd5b7f4e487b7100000000000000000000000000000000000000000000000000000000600052602260045260246000fd5b7f4e487b7100000000000000000000000000000000000000000000000000000000600052604160045260246000fd5b6000601f19601f8301169050919050565b6139f88161383f565b8114613a0357600080fd5b50565b613a0f8161387d565b8114613a1a57600080fd5b50565b613a2681613887565b8114613a3157600080fd5b5056fea2646970667358221220ad835b0318d27ce044b272cb3e3c3c6ee344a4f9be7a3ca38c29a8d7f3362ef564736f6c634300080000335265636569766572206973206e6f742077686974656c6973746564206f7220626c6f636b65644d617820616c6c6f77656420696e766573746f72207265737472696374696f6e20697320696e20706c6163652c2074686973207472616e736665722077696c6c206578636565642074686973206c696d69746174696f6e53656e6465722069732077686974656c697374656420627574206973206e6f7420656c696769626c6520746f2073656e6420746f6b656e7320616e6420756e64657220686f6c64696e6720706572696f6420284b59432074696d65207265737472696374696f6e29416c6c207472616e7366657273206172652064697361626c6564206265636175736520486f6c64696e6720506572696f64206973206e6f7420796574206578706972656452656365697665722069732077686974656c697374656420627574206973206e6f742079657420656c696769626c6520746f207265636569766520746f6b656e7320696e206869732077616c6c657420284b59432074696d65207265737472696374696f6e2953656e646572206973206e6f742077686974656c6973746564206f7220626c6f636b6564",
  "immutableReferences": {},
  "source": "// SPDX-License-Identifier: MIT\n\npragma solidity ^0.8.0;\n\n// This contract is minimum implementation of ERC1404 protocol without any libraries \n\nimport \"./IERC20Token.sol\";\nimport \"./IERC1404.sol\";\n\ncontract ERC1404TokenMinKYCv12 is IERC20Token, IERC1404 {\n\t\n\t// Set buy and sell restrictions on investors.  \n\t// date is Linux Epoch datetime\n\t// Both datetimes must be less than current datetime to allow the respective operation. Like to get tokens from others, receiver's buy restriction\n\t// must be less than current date time. \n\t// 0 means investor is not allowed to buy or sell his token.  0 indicates buyer or seller is not whitelisted. \n    mapping (address => uint256) private _receiveRestriction;  \n\tmapping (address => uint256) private _sendRestriction;\t\n\t\n\tmapping (address => uint256) private _balances;\n    mapping(address => mapping(address => uint256)) private _allowances;\n\taddress private _owner;\n\n\t// These addresses act as whitelist authority and can call modifyKYCData\n    mapping (address => bool) private _whitelistControlAuthority;  \t\n\n\n\t// These events are already defined in IERC20Token.sol\n    // event Approval(address indexed tokenOwner, address indexed spender, uint256 tokens);\n    // event Transfer(address indexed from, address indexed to, uint256 tokens);\n\tevent TransferRestrictionDetected( address indexed from, address indexed to, string message, uint8 errorCode );\n\tevent BurnTokens(address indexed account, uint256 amount);\n\tevent MintTokens(address indexed account, uint256 amount);\n\tevent KYCDataForUserSet (address indexed account, uint256 receiveRestriction, uint256 sendRestriction);\n\tevent KYCDataForUserModified (address indexed account, uint256 receiveRestriction, uint256 sendRestriction);\n    event ShareCertificateReset (string _ShareCertificate);\n    event CompanyHomepageReset (string _CompanyHomepage);\n    event CompanyLegalDocsReset (string _CompanyLegalDocs);\n\tevent AllowedInvestorsReset(uint256 _allowedInvestors);\n\tevent HoldingPeriodReset(uint256 _tradingHoldingPeriod);\n\tevent WhitelistAuthorityStatusSet(address user);\n\tevent WhitelistAuthorityStatusRemoved(address user);\n\tevent TransferFrom( address indexed spender, address indexed sender, address indexed recipient, uint256 amount );\n\n\n\t// ERC20 related functions\n\tuint256 public decimals = 18;\n\tstring public version = \"1.2\";\n\tstring public IssuancePlatform = \"DigiShares\";\n\tstring public issuanceProtocol = \"ERC-1404\";\n    uint256 private _totalSupply;\n    string public name;\n    string public symbol;\n\n\tstring public ShareCertificate;\n\tstring public CompanyHomepage;\n\tstring public CompanyLegalDocs;\n\n\n\t// These variables control how many investors can have non-zero token balance\n\t// if allowedInvestors = 0 then there is no limit of number of investors who can hold non-zero balance\n\tuint256 public currentTotalInvestors = 0;\t\t\n\tuint256 public allowedInvestors = 0;\n\n\n\tuint256 public tradingHoldingPeriod = 1;\n\n\n\t// Transfer Restriction Codes and corresponding error message in _messageForTransferRestriction\n\tuint8 private constant NO_TRANSFER_RESTRICTION_FOUND = 0;\n\tuint8 private constant MAX_ALLOWED_INVESTORS_EXCEED = 1;\n\tuint8 private constant TRANSFERS_DISABLED = 2;\n\tuint8 private constant TRANSFER_VALUE_CANNOT_ZERO = 3;\n\tuint8 private constant SENDER_NOT_WHITELISTED_OR_BLOCKED = 4;\n\tuint8 private constant RECEIVER_NOT_WHITELISTED_OR_BLOCKED = 5;\n\tuint8 private constant SENDER_UNDER_HOLDING_PERIOD = 6;\n\tuint8 private constant RECEIVER_UNDER_HOLDING_PERIOD = 7;\n\tstring[] private _messageForTransferRestriction = [\n\t\t\"No transfer restrictions found\", \n\t\t\"Max allowed investor restriction is in place, this transfer will exceed this limitation\", \n\t\t\"All transfers are disabled because Holding Period is not yet expired\", \n\t\t\"Zero transfer amount not allowed\",\n\t\t\"Sender is not whitelisted or blocked\",\n\t\t\"Receiver is not whitelisted or blocked\",\n\t\t\"Sender is whitelisted but is not eligible to send tokens and under holding period (KYC time restriction)\",\n\t\t\"Receiver is whitelisted but is not yet eligible to receive tokens in his wallet (KYC time restriction)\"\n\t];\t\n\n\n\n\tconstructor(\n\t\tuint256 _initialSupply, \n\t\tstring memory _name,  \n\t\tstring memory _symbol, \n\t\tuint256 _allowedInvestors, \n\t\tuint256 _decimals, \n\t\tstring memory _ShareCertificate, \n\t\tstring memory _CompanyHomepage, \n\t\tstring memory _CompanyLegalDocs, \n\t\taddress _atomicSwapContractAddress \n\t) {\n\n\t\t\tname = _name;\n\t\t\tsymbol = _symbol;\n\n\t\t\tdecimals = _decimals;\n\n\t\t\t_owner = msg.sender;\n\t\t\t_receiveRestriction[_owner] = 1;\n\t\t\t_sendRestriction[_owner] = 1;\n\t\t\t_receiveRestriction[_atomicSwapContractAddress] = 1;\n\t\t\t_sendRestriction[_atomicSwapContractAddress] = 1;\n\n\n\t\t\tallowedInvestors = _allowedInvestors;\n\n\t\t\t// Minting tokens for initial supply\n\t\t\t_totalSupply = _initialSupply;\n\t\t\t_balances[_owner] = _totalSupply;\n\n\t\t\t// add message sender to whitelist authority list\n\t\t\t_whitelistControlAuthority[_owner] = true;\n\n\t\t\tShareCertificate = _ShareCertificate;\n\t\t\tCompanyHomepage = _CompanyHomepage;\n\t\t\tCompanyLegalDocs = _CompanyLegalDocs;\n\n\t\t\temit Transfer(address(0), _owner, _totalSupply);\n\n\t}\n\n\n    function resetShareCertificate(\n\t\tstring memory _ShareCertificate\n\t) \n\texternal \n\tonlyOwner {\n\n\t\t ShareCertificate = _ShareCertificate;\n\t\t emit ShareCertificateReset (_ShareCertificate);\n\n    }\n\n    function resetCompanyHomepage(\n\t\tstring memory _CompanyHomepage\n\t) \n\texternal \n\tonlyOwner {\n\n\t\t CompanyHomepage = _CompanyHomepage;\n\t\t emit CompanyHomepageReset (_CompanyHomepage);\n\n    }\n\t\n    function resetCompanyLegalDocs(\n\t\tstring memory _CompanyLegalDocs\n\t) \n\texternal \n\tonlyOwner {\n\n\t\tCompanyLegalDocs = _CompanyLegalDocs;\n\t\temit CompanyLegalDocsReset (_CompanyLegalDocs);\n\n    }\n\n    \n\n\n\n\n\n\t// _allowedInvestors = 0    No limit on number of investors        \n\t// _allowedInvestors > 0 only X number of investors can have non zero balance \n    function resetAllowedInvestors(\n\t\tuint256 _allowedInvestors\n\t) \n\texternal \n\tonlyOwner {\n\n\t\tif( _allowedInvestors != 0 && _allowedInvestors < currentTotalInvestors ) {\n\t\t\trevert( \"Allowed Investors cannot be less than current token holders\");\n\t\t}\n\n\t\tallowedInvestors = _allowedInvestors;\n\t\temit AllowedInvestorsReset(_allowedInvestors);\n\t\t\n    }\n\n\n    function setTradingHoldingPeriod(\n\t\tuint256 _tradingHoldingPeriod\n\t) \n\texternal \n\tonlyOwner {\n\n\t\t tradingHoldingPeriod = _tradingHoldingPeriod;\n\t\t emit HoldingPeriodReset(_tradingHoldingPeriod);\n\n    }\n\n\n\t//-----------------------------------------------------------------------\n\t// Get or set current owner of this smart contract\n    function owner() \n\texternal \n\tview \n\treturns (address) {\n\n        return _owner;\n    \n\t}\n    \n\tmodifier onlyOwner() {\n\n        require(_owner == msg.sender, \"Only owner has access to function\");\n        _;\n\n    }\n\n    function transferOwnership (\n\t\taddress newOwner\n\t) \n\texternal \n\tonlyOwner {\n\n        require(newOwner != address(0), \"Zero address not allowed as owner\");\n\t\t_owner = newOwner;\n\n    }\n\t//-----------------------------------------------------------------------\n\t\n  \n  \n\n\n \n\t//-----------------------------------------------------------------------\n    // Manage whitelist autority and KYC status\n\t\n\tfunction setWhitelistAuthorityStatus(\n\t\taddress user\n\t) \n\texternal \n\tonlyOwner {\n\n\t\t_whitelistControlAuthority[user] = true;\n\t\temit WhitelistAuthorityStatusSet(user);\n\n\t}\n\n\tfunction removeWhitelistAuthorityStatus(\n\t\taddress user\n\t) \n\texternal \n\tonlyOwner {\n\n\t\tdelete _whitelistControlAuthority[user];\n\t\temit WhitelistAuthorityStatusRemoved(user);\n\n\t}\t\n\n\tfunction getWhitelistAuthorityStatus(\n\t\taddress user\n\t) \n\texternal \n\tview\n\treturns (bool) {\n\n\t\t return _whitelistControlAuthority[user];\n\n\t}\t\n\t\n\n  \t// Set buy and sell restrictions on investors \n\tfunction modifyKYCData (\n\t\taddress account, \n\t\tuint256 receiveRestriction, \n\t\tuint256 sendRestriction \n\t) external { \n\n\t  \trequire(_whitelistControlAuthority[msg.sender] == true, \"Only authorized addresses can change KYC information of investors\");\n\t\tsetupKYCDataForUser( account, receiveRestriction, sendRestriction );\n\n\t}\n\n\n\tfunction bulkWhitelistWallets (\n\t\taddress[] memory account, \n\t\tuint256 receiveRestriction, \n\t\tuint256 sendRestriction \n\t) external { \n\n\t\tif(account.length > 50)\n\t\t\trevert (\"Bulk whitelisting more than 50 addresses is not allowed\");\n\n\t\trequire(_whitelistControlAuthority[msg.sender] == true, \"Only authorized addresses can change KYC information of investors\");\n\t\tfor (uint i=0; i<account.length; i++) {\n\t\t\tsetupKYCDataForUser( account[i], receiveRestriction, sendRestriction );\t\t\t\n\t\t}\t\t\n\n\t}\n\n\n\tfunction setupKYCDataForUser (\n\t\taddress account, \n\t\tuint256 receiveRestriction, \n\t\tuint256 sendRestriction\n\t) internal {\t\n\n\t\tuint256 tmpReceiveRestriction = _receiveRestriction[account];\n\t\tuint256 tmpSendRestriction = _sendRestriction[account];\n\n\t\t_receiveRestriction[account] = receiveRestriction;\n\t\t_sendRestriction[account] = sendRestriction;\t\t\n\n\t\t// If both buy restriction and sell restriction are 0 then this is kyc restrictions set \n\t\t// otherwise kyc restrictions are being modified\n\t\tif(tmpReceiveRestriction == 0 && tmpSendRestriction == 0) {\n\t\t\temit KYCDataForUserSet (account, receiveRestriction, sendRestriction);\n\t\t} else {\n\t\t\temit KYCDataForUserModified ( account, receiveRestriction, sendRestriction);\n\t\t}\n\n\t}\n\n\n\tfunction getKYCData ( \n\t\taddress user \n\t) \n\texternal \n\tview\n\treturns ( uint256, uint256 ) {\n\n\t\treturn (_receiveRestriction[user] , _sendRestriction[user] );\n\n\t}\n\t//-----------------------------------------------------------------------\n\n\n\n\t//-----------------------------------------------------------------------\n\t// These are ERC1404 interface implementations \n\n    modifier notRestricted (\n\t\taddress from, \n\t\taddress to, \n\t\tuint256 value \n\t) {\n\n        uint8 restrictionCode = detectTransferRestriction(from, to, value);\n\t\tif( restrictionCode != NO_TRANSFER_RESTRICTION_FOUND ) {\n\n\t\t\tstring memory errorMessage = messageForTransferRestriction(restrictionCode);\n\t\t\temit TransferRestrictionDetected( from, to, errorMessage, restrictionCode );\n        \trevert(errorMessage);\n\n\t\t} else \n        \t_;\n\n    }\n\n\n\n    function detectTransferRestriction (address _from, address _to, uint256 value) \n\toverride\n\tpublic \n\tview \n\treturns ( uint8 status )  {\t\n\n\t      \t// check if holding period is in effect on overall transfers and sender is not owner. \n\t\t\t// only owner is allwed to transfer under holding period\n\t\t  \tif(block.timestamp < tradingHoldingPeriod && _from != _owner)\n\t\t\t \treturn TRANSFERS_DISABLED;   \n\n\t\t  \tif( value <= 0) {\n\t\t  \t  \treturn TRANSFER_VALUE_CANNOT_ZERO;   \n\t\t\t}\n\n\t\t  \tif( _sendRestriction[_from] == 0 ) {\n\t\t\t\treturn SENDER_NOT_WHITELISTED_OR_BLOCKED;   // Sender is not whitelisted or blocked\n\t\t\t}\n\n\t\t  \tif( _receiveRestriction[_to] == 0 ) {\n\t\t\t\treturn RECEIVER_NOT_WHITELISTED_OR_BLOCKED;\t// Receiver is not whitelisted or blocked\n\t\t\t}\n\n\t\t\tif( _sendRestriction[_from] > block.timestamp ) {\n\t\t\t\treturn SENDER_UNDER_HOLDING_PERIOD;\t// Receiver is whitelisted but is not eligible to send tokens and still under holding period (KYC time restriction)\n\t\t\t}\n\n\t\t\tif( _receiveRestriction[_to] > block.timestamp ) {\n\t\t\t\treturn RECEIVER_UNDER_HOLDING_PERIOD;\t// Receiver is whitelisted but is not yet eligible to receive tokens in his wallet (KYC time restriction)\n\t\t\t}\n\n\t\t\t// Following conditions make sure if number of token holders are within limit if enabled\n\t\t\t// allowedInvestors = 0 means no restriction on number of token holders and is the default setting\n\t\t\tif(allowedInvestors == 0) {\n\t\t\t\treturn NO_TRANSFER_RESTRICTION_FOUND;\n\t\t\t} else {\n\t\t\t\tif( _balances[_to] > 0 || _to == _owner) {\n\t\t\t\t\t// token can be transferred if the receiver alreay holding tokens and already counted in currentTotalInvestors\n\t\t\t\t\t// or receiver is issuer account. issuer account do not count in currentTotalInvestors\n\t\t\t\t\treturn NO_TRANSFER_RESTRICTION_FOUND;\n\t\t\t\t} else {\n\t\t\t\t\tif(  currentTotalInvestors < allowedInvestors  ) {\n\t\t\t\t\t\t// currentTotalInvestors is within limits of allowedInvestors\n\t\t\t\t\t\treturn NO_TRANSFER_RESTRICTION_FOUND;\n\t\t\t\t\t} else {\n\t\t\t\t\t\t// In this section currentTotalInvestors = allowedInvestors and no more transfers to new investors are allowed\n\t\t\t\t\t\t// except following conditions \n\t\t\t\t\t\t// 1. sender is sending his whole balance to anohter whitelisted investor regardless he has any balance or not\n\t\t\t\t\t\t// 2. sender must not be owner/isser\n\t\t\t\t\t\t//    owner sending his whole balance to investor will exceed allowedInvestors restriction if currentTotalInvestors = allowedInvestors\n\t\t\t\t\t\tif( _balances[_from] == value && _from != _owner)    \n\t\t\t\t\t\t\treturn NO_TRANSFER_RESTRICTION_FOUND;\n\t\t\t\t\t\telse\n\t\t\t\t\t\t\treturn MAX_ALLOWED_INVESTORS_EXCEED;\n\t\t\t\t\t}\n\t\t\t\t}\n\t\t\t}\n\n    }\n\n\n    function messageForTransferRestriction (uint8 restrictionCode)\n\toverride\n    public\t\n    view \n\treturns ( string memory message )\n    {\n\n\t\tif(restrictionCode <= _messageForTransferRestriction.length) {\n\t\t\tmessage = _messageForTransferRestriction[restrictionCode];\n\t\t} else {\n\t\t\tmessage = \"Error code is not defined\";\n\t\t}\n\n    }\n\t//-----------------------------------------------------------------------\n\n\n\n\n \tfunction totalSupply() \n\toverride\n\texternal \n\tview \n\treturns ( uint256 ) {\n\n\t\treturn _totalSupply;\n\n\t}\n\n\n    function balanceOf(\n\t\taddress account\n\t) \n\toverride\n    external \n    view \n    returns (uint256) {\n\n        return _balances[account];\n\n    }\n\t\n\n\n    function approve(\n        address spender,\n        uint256 amount\n    )\n\toverride\n\texternal \n\treturns (bool) {\n\n        require(spender != address(0), \"Zero address as spender not allowed\");\n\t\trequire(amount > 0, \"Zero Amount not allowed\");\n\n        _allowances[msg.sender][spender] = amount;\n        emit Approval(msg.sender, spender, amount);\n\t\treturn true;\n\n    }\n\n\n\n    function allowance(address ownby, address spender) \n\toverride\n\texternal \n\tview \n\treturns (uint256) {\n\n        return _allowances[ownby][spender];\n\n    }\n\n\n\n    function transfer(\n        address recipient,\n        uint256 amount\n    ) \t\n\toverride\n\texternal \n\tnotRestricted (msg.sender, recipient, amount)\n\treturns (bool) {\n\n\t\ttransferSharesBetweenInvestors ( msg.sender, recipient, amount );\n\t\treturn true;\n\n    }\n\n\n    function transferFrom (\n        address sender,\n        address recipient,\n        uint256 amount\n    ) \n\toverride\n\texternal \n\tnotRestricted (sender, recipient, amount)\n\treturns (bool)\t{\t\n\n        require(_allowances[sender][msg.sender] >= amount, \"Sender cannot transfer amount greater than his Allowance\" );\n\t\ttransferSharesBetweenInvestors ( sender, recipient, amount );\n        _allowances[sender][msg.sender] = _allowances[sender][msg.sender] - amount;\n\n\t\temit TransferFrom( msg.sender, sender, recipient, amount );\n\t\treturn true;\n\n    }\n\n\n\t// Force transfer of  back to issuer\n\tfunction forceTransferToken (\n        address from,\n        uint256 amount\n\t) \n\tonlyOwner\n\texternal \n\treturns (bool)  {\n\n\t\ttransferSharesBetweenInvestors(from, _owner, amount);\n\t\treturn true;\n\n\t}\n\n\n\n\t// Transfer tokens from one account to other\n\t// Also manage current number of account holders\n\tfunction transferSharesBetweenInvestors (\n        address sender,\n        address recipient,\n        uint256 amount\t\n\t) \n\tinternal {\n        \trequire(_balances[sender] >= amount, \"Sender is trying to transfer amount greater than his balance\");\n\t\t\t\n\t\t\t// owner account is not counted in currentTotalInvestors in below conditions\n\t\t\t_balances[sender] = _balances[sender] - amount;\n\t\t\tif( _balances[sender] == 0 && sender != _owner ) {\n\t\t\t\tcurrentTotalInvestors = currentTotalInvestors - 1;\t\t\n\t\t\t}\n\n\t\t\tif( _balances[recipient] == 0 && recipient != _owner ) {\n\t\t\t\tcurrentTotalInvestors = currentTotalInvestors + 1;\n\t\t\t}\n\t\t\t_balances[recipient] = _balances[recipient] + amount;\n\n\t\t\temit Transfer(sender, recipient, amount);\n\t}\n\n\n\n    function mint(\n\t\taddress account, \n\t\tuint256 amount\n\t) \n\tonlyOwner \n\texternal \n\treturns (bool)\t{\n\n        require(account != address(0), \"Tokens cannot be minted for address zero\");\n\n        _totalSupply = _totalSupply + amount;\n        _balances[account] = _balances[account] + amount;\n        emit MintTokens(account, amount);\n\t\treturn true;\n\n    }\n\n\n    function burn(\n\t\taddress account, \n\t\tuint256 amount\n\t) \n\tonlyOwner\n\texternal \n\treturns (bool)\t{\n\n        require(_balances[account] >= amount, \"Burn amount is greater than address balance\");\n\n        _totalSupply = _totalSupply - amount;\n        _balances[account] = _balances[account] - amount;\n        emit BurnTokens(account, amount);\n\t\treturn true;\n\n    }\n\n}\n\n\n\n\n\n/*\n\tversion 1.0\n\tBasic ERC20 + ERC1404 functionalities \n\n\n\tVersion 1.1\n\n\t1. Forceful take over of token   ( forceTransferToken )\n\n\t2. Bulk whitelisting  ( bulkWhitelistWallets )\n\n\n\tVersion 1.2\n\n\t1. Dedicated transfer restriction codes defined in detectTransferRestriction and their descriptions in messageForTransferRestriction\n\n\t2. Events for multiple activities being performed  \n\n\t3. tradingHoldingPeriod - Holding period has been implemented. Admin can setup a future date and all investor transfers will be disabled \n\ttill that date. Previous it was a boolean variable with true and false\n\n*/\n",
  "sourcePath": "/home/shahzad/Shahzad/projects/git/ERC1404/contracts/ERC1404TokenMinKYCv12.sol",
  "compiler": {
    "name": "solc",
    "version": "0.8.0+commit.c7dfd78e.Emscripten.clang"
  },
  "schemaVersion": "3.4.9",
  "updatedAt": "2022-12-01T05:32:45.958Z",
  "devdoc": {
    "kind": "dev",
    "methods": {
      "approve(address,uint256)": {
        "details": "Sets `amount` as the allowance of `spender` over the caller's tokens. Returns a boolean value indicating whether the operation succeeded. IMPORTANT: Beware that changing an allowance with this method brings the risk that someone may use both the old and the new allowance by unfortunate transaction ordering. One possible solution to mitigate this race condition is to first reduce the spender's allowance to 0 and set the desired value afterwards: https://github.com/ethereum/EIPs/issues/20#issuecomment-263524729 Emits an {Approval} event."
      },
      "balanceOf(address)": {
        "details": "Returns the amount of tokens owned by `account`."
      },
      "messageForTransferRestriction(uint8)": {
        "details": "Overwrite with your custom message and restrictionCode handling",
        "params": {
          "restrictionCode": "Identifier for looking up a message"
        },
        "returns": {
          "message": "Text showing the restriction's reasoning"
        }
      },
      "totalSupply()": {
        "details": "Returns the amount of tokens in existence."
      },
      "transfer(address,uint256)": {
        "details": "Moves `amount` tokens from the caller's account to `recipient`. Returns a boolean value indicating whether the operation succeeded. Emits a {Transfer} event."
      },
      "transferFrom(address,address,uint256)": {
        "details": "Moves `amount` tokens from `sender` to `recipient` using the allowance mechanism. `amount` is then deducted from the caller's allowance. Returns a boolean value indicating whether the operation succeeded. Emits a {Transfer} event."
      }
    },
    "version": 1
  },
  "userdoc": {
    "kind": "user",
    "methods": {
      "messageForTransferRestriction(uint8)": {
        "notice": "Returns a human-readable message for a given restriction code"
      }
    },
    "version": 1
  }
}