{
  "contractName": "ERC1404",
  "abi": [
    {
      "inputs": [
        {
          "internalType": "address",
          "name": "_tokenToMintAddress",
          "type": "address"
        },
        {
          "internalType": "uint256",
          "name": "_initialSupply",
          "type": "uint256"
        },
        {
          "internalType": "string",
          "name": "_name",
          "type": "string"
        }
      ],
      "stateMutability": "nonpayable",
      "type": "constructor"
    },
    {
      "anonymous": false,
      "inputs": [
        {
          "indexed": true,
          "internalType": "address",
          "name": "owner",
          "type": "address"
        },
        {
          "indexed": true,
          "internalType": "address",
          "name": "spender",
          "type": "address"
        },
        {
          "indexed": false,
          "internalType": "uint256",
          "name": "value",
          "type": "uint256"
        }
      ],
      "name": "Approval",
      "type": "event"
    },
    {
      "anonymous": false,
      "inputs": [
        {
          "indexed": true,
          "internalType": "address",
          "name": "previousOwner",
          "type": "address"
        },
        {
          "indexed": true,
          "internalType": "address",
          "name": "newOwner",
          "type": "address"
        }
      ],
      "name": "OwnershipTransferred",
      "type": "event"
    },
    {
      "anonymous": false,
      "inputs": [
        {
          "indexed": true,
          "internalType": "address",
          "name": "from",
          "type": "address"
        },
        {
          "indexed": true,
          "internalType": "address",
          "name": "to",
          "type": "address"
        },
        {
          "indexed": false,
          "internalType": "uint256",
          "name": "value",
          "type": "uint256"
        }
      ],
      "name": "Transfer",
      "type": "event"
    },
    {
      "inputs": [
        {
          "internalType": "address",
          "name": "owner",
          "type": "address"
        },
        {
          "internalType": "address",
          "name": "spender",
          "type": "address"
        }
      ],
      "name": "allowance",
      "outputs": [
        {
          "internalType": "uint256",
          "name": "",
          "type": "uint256"
        }
      ],
      "stateMutability": "view",
      "type": "function"
    },
    {
      "inputs": [
        {
          "internalType": "address",
          "name": "spender",
          "type": "address"
        },
        {
          "internalType": "uint256",
          "name": "amount",
          "type": "uint256"
        }
      ],
      "name": "approve",
      "outputs": [
        {
          "internalType": "bool",
          "name": "",
          "type": "bool"
        }
      ],
      "stateMutability": "nonpayable",
      "type": "function"
    },
    {
      "inputs": [
        {
          "internalType": "address",
          "name": "account",
          "type": "address"
        }
      ],
      "name": "balanceOf",
      "outputs": [
        {
          "internalType": "uint256",
          "name": "",
          "type": "uint256"
        }
      ],
      "stateMutability": "view",
      "type": "function"
    },
    {
      "inputs": [],
      "name": "decimals",
      "outputs": [
        {
          "internalType": "uint8",
          "name": "",
          "type": "uint8"
        }
      ],
      "stateMutability": "view",
      "type": "function"
    },
    {
      "inputs": [
        {
          "internalType": "address",
          "name": "spender",
          "type": "address"
        },
        {
          "internalType": "uint256",
          "name": "subtractedValue",
          "type": "uint256"
        }
      ],
      "name": "decreaseAllowance",
      "outputs": [
        {
          "internalType": "bool",
          "name": "",
          "type": "bool"
        }
      ],
      "stateMutability": "nonpayable",
      "type": "function"
    },
    {
      "inputs": [
        {
          "internalType": "address",
          "name": "spender",
          "type": "address"
        },
        {
          "internalType": "uint256",
          "name": "addedValue",
          "type": "uint256"
        }
      ],
      "name": "increaseAllowance",
      "outputs": [
        {
          "internalType": "bool",
          "name": "",
          "type": "bool"
        }
      ],
      "stateMutability": "nonpayable",
      "type": "function"
    },
    {
      "inputs": [],
      "name": "name",
      "outputs": [
        {
          "internalType": "string",
          "name": "",
          "type": "string"
        }
      ],
      "stateMutability": "view",
      "type": "function"
    },
    {
      "inputs": [],
      "name": "owner",
      "outputs": [
        {
          "internalType": "address",
          "name": "",
          "type": "address"
        }
      ],
      "stateMutability": "view",
      "type": "function"
    },
    {
      "inputs": [],
      "name": "renounceOwnership",
      "outputs": [],
      "stateMutability": "nonpayable",
      "type": "function"
    },
    {
      "inputs": [],
      "name": "symbol",
      "outputs": [
        {
          "internalType": "string",
          "name": "",
          "type": "string"
        }
      ],
      "stateMutability": "view",
      "type": "function"
    },
    {
      "inputs": [],
      "name": "totalSupply",
      "outputs": [
        {
          "internalType": "uint256",
          "name": "",
          "type": "uint256"
        }
      ],
      "stateMutability": "view",
      "type": "function"
    },
    {
      "inputs": [
        {
          "internalType": "address",
          "name": "newOwner",
          "type": "address"
        }
      ],
      "name": "transferOwnership",
      "outputs": [],
      "stateMutability": "nonpayable",
      "type": "function"
    },
    {
      "inputs": [
        {
          "internalType": "address",
          "name": "user",
          "type": "address"
        }
      ],
      "name": "addWhitelistAddress",
      "outputs": [
        {
          "internalType": "bool",
          "name": "",
          "type": "bool"
        }
      ],
      "stateMutability": "nonpayable",
      "type": "function"
    },
    {
      "inputs": [
        {
          "internalType": "address",
          "name": "user",
          "type": "address"
        }
      ],
      "name": "removeWhitelistAddress",
      "outputs": [
        {
          "internalType": "bool",
          "name": "",
          "type": "bool"
        }
      ],
      "stateMutability": "nonpayable",
      "type": "function"
    },
    {
      "inputs": [
        {
          "internalType": "address",
          "name": "user",
          "type": "address"
        }
      ],
      "name": "isInvestorWhiteListed",
      "outputs": [
        {
          "internalType": "bool",
          "name": "",
          "type": "bool"
        }
      ],
      "stateMutability": "view",
      "type": "function"
    },
    {
      "inputs": [
        {
          "internalType": "address",
          "name": "_from",
          "type": "address"
        },
        {
          "internalType": "address",
          "name": "_to",
          "type": "address"
        },
        {
          "internalType": "uint256",
          "name": "value",
          "type": "uint256"
        }
      ],
      "name": "detectTransferRestriction",
      "outputs": [
        {
          "internalType": "uint8",
          "name": "",
          "type": "uint8"
        }
      ],
      "stateMutability": "view",
      "type": "function"
    },
    {
      "inputs": [
        {
          "internalType": "uint8",
          "name": "restrictionCode",
          "type": "uint8"
        }
      ],
      "name": "messageForTransferRestriction",
      "outputs": [
        {
          "internalType": "string",
          "name": "message",
          "type": "string"
        }
      ],
      "stateMutability": "view",
      "type": "function"
    },
    {
      "inputs": [
        {
          "internalType": "address",
          "name": "to",
          "type": "address"
        },
        {
          "internalType": "uint256",
          "name": "value",
          "type": "uint256"
        }
      ],
      "name": "transfer",
      "outputs": [
        {
          "internalType": "bool",
          "name": "",
          "type": "bool"
        }
      ],
      "stateMutability": "nonpayable",
      "type": "function"
    },
    {
      "inputs": [
        {
          "internalType": "address",
          "name": "from",
          "type": "address"
        },
        {
          "internalType": "address",
          "name": "to",
          "type": "address"
        },
        {
          "internalType": "uint256",
          "name": "value",
          "type": "uint256"
        }
      ],
      "name": "transferFrom",
      "outputs": [
        {
          "internalType": "bool",
          "name": "",
          "type": "bool"
        }
      ],
      "stateMutability": "nonpayable",
      "type": "function"
    }
  ],
  "bytecode": "0x60806040526001600760006101000a81548160ff021916908360ff1602179055506000600760016101000a81548160ff021916908360ff1602179055503480156200004957600080fd5b50604051620025bf380380620025bf83398181016040528101906200006f9190620004d9565b808181600390805190602001906200008992919062000389565b508060049080519060200190620000a292919062000389565b505050620000c5620000b96200013860201b60201c565b6200014060201b60201c565b620000d783836200020660201b60201c565b6001600660003373ffffffffffffffffffffffffffffffffffffffff1673ffffffffffffffffffffffffffffffffffffffff16815260200190815260200160002060006101000a81548160ff0219169083151502179055505050506200081a565b600033905090565b6000600560009054906101000a900473ffffffffffffffffffffffffffffffffffffffff16905081600560006101000a81548173ffffffffffffffffffffffffffffffffffffffff021916908373ffffffffffffffffffffffffffffffffffffffff1602179055508173ffffffffffffffffffffffffffffffffffffffff168173ffffffffffffffffffffffffffffffffffffffff167f8be0079c531659141344cd1fd0a4f28419497f9722a3daafe3b4186f6b6457e060405160405180910390a35050565b600073ffffffffffffffffffffffffffffffffffffffff168273ffffffffffffffffffffffffffffffffffffffff16141562000279576040517f08c379a000000000000000000000000000000000000000000000000000000000815260040162000270906200059b565b60405180910390fd5b6200028d600083836200037f60201b60201c565b8060026000828254620002a1919062000652565b92505081905550806000808473ffffffffffffffffffffffffffffffffffffffff1673ffffffffffffffffffffffffffffffffffffffff1681526020019081526020016000206000828254620002f8919062000652565b925050819055508173ffffffffffffffffffffffffffffffffffffffff16600073ffffffffffffffffffffffffffffffffffffffff167fddf252ad1be2c89b69c2b068fc378daa952ba7f163c4a11628f55a4df523b3ef836040516200035f9190620005bd565b60405180910390a36200037b600083836200038460201b60201c565b5050565b505050565b505050565b828054620003979062000723565b90600052602060002090601f016020900481019282620003bb576000855562000407565b82601f10620003d657805160ff191683800117855562000407565b8280016001018555821562000407579182015b8281111562000406578251825591602001919060010190620003e9565b5b5090506200041691906200041a565b5090565b5b80821115620004355760008160009055506001016200041b565b5090565b6000620004506200044a846200060e565b620005da565b9050828152602081018484840111156200046957600080fd5b62000476848285620006ed565b509392505050565b6000815190506200048f81620007e6565b92915050565b600082601f830112620004a757600080fd5b8151620004b984826020860162000439565b91505092915050565b600081519050620004d38162000800565b92915050565b600080600060608486031215620004ef57600080fd5b6000620004ff868287016200047e565b93505060206200051286828701620004c2565b925050604084015167ffffffffffffffff8111156200053057600080fd5b6200053e8682870162000495565b9150509250925092565b600062000557601f8362000641565b91507f45524332303a206d696e7420746f20746865207a65726f2061646472657373006000830152602082019050919050565b6200059581620006e3565b82525050565b60006020820190508181036000830152620005b68162000548565b9050919050565b6000602082019050620005d460008301846200058a565b92915050565b6000604051905081810181811067ffffffffffffffff82111715620006045762000603620007b7565b5b8060405250919050565b600067ffffffffffffffff8211156200062c576200062b620007b7565b5b601f19601f8301169050602081019050919050565b600082825260208201905092915050565b60006200065f82620006e3565b91506200066c83620006e3565b9250827fffffffffffffffffffffffffffffffffffffffffffffffffffffffffffffffff03821115620006a457620006a362000759565b5b828201905092915050565b6000620006bc82620006c3565b9050919050565b600073ffffffffffffffffffffffffffffffffffffffff82169050919050565b6000819050919050565b60005b838110156200070d578082015181840152602081019050620006f0565b838111156200071d576000848401525b50505050565b600060028204905060018216806200073c57607f821691505b6020821081141562000753576200075262000788565b5b50919050565b7f4e487b7100000000000000000000000000000000000000000000000000000000600052601160045260246000fd5b7f4e487b7100000000000000000000000000000000000000000000000000000000600052602260045260246000fd5b7f4e487b7100000000000000000000000000000000000000000000000000000000600052604160045260246000fd5b620007f181620006af565b8114620007fd57600080fd5b50565b6200080b81620006e3565b81146200081757600080fd5b50565b611d95806200082a6000396000f3fe608060405234801561001057600080fd5b50600436106101215760003560e01c80638da5cb5b116100ad578063b7ecbaae11610071578063b7ecbaae14610346578063d4ce141514610376578063dd62ed3e146103a6578063f2fde38b146103d6578063f3c6e993146103f257610121565b80638da5cb5b1461027a57806394a7ef151461029857806395d89b41146102c8578063a457c2d7146102e6578063a9059cbb1461031657610121565b8063313ce567116100f4578063313ce567146101c257806339509351146101e057806370a0823114610210578063715018a6146102405780637f4ab1dd1461024a57610121565b806306fdde0314610126578063095ea7b31461014457806318160ddd1461017457806323b872dd14610192575b600080fd5b61012e610422565b60405161013b9190611a07565b60405180910390f35b61015e60048036038101906101599190611587565b6104b4565b60405161016b91906119ec565b60405180910390f35b61017c6104d2565b6040516101899190611b49565b60405180910390f35b6101ac60048036038101906101a79190611538565b6104dc565b6040516101b991906119ec565b60405180910390f35b6101ca61056e565b6040516101d79190611b64565b60405180910390f35b6101fa60048036038101906101f59190611587565b610577565b60405161020791906119ec565b60405180910390f35b61022a600480360381019061022591906114d3565b610623565b6040516102379190611b49565b60405180910390f35b61024861066b565b005b610264600480360381019061025f91906115c3565b6106f3565b6040516102719190611a07565b60405180910390f35b6102826107ab565b60405161028f91906119d1565b60405180910390f35b6102b260048036038101906102ad91906114d3565b6107d5565b6040516102bf91906119ec565b60405180910390f35b6102d06108b4565b6040516102dd9190611a07565b60405180910390f35b61030060048036038101906102fb9190611587565b610946565b60405161030d91906119ec565b60405180910390f35b610330600480360381019061032b9190611587565b610a31565b60405161033d91906119ec565b60405180910390f35b610360600480360381019061035b91906114d3565b610ac1565b60405161036d91906119ec565b60405180910390f35b610390600480360381019061038b9190611538565b610b97565b60405161039d9190611b64565b60405180910390f35b6103c060048036038101906103bb91906114fc565b610c85565b6040516103cd9190611b49565b60405180910390f35b6103f060048036038101906103eb91906114d3565b610d0c565b005b61040c600480360381019061040791906114d3565b610e04565b60405161041991906119ec565b60405180910390f35b60606003805461043190611c79565b80601f016020809104026020016040519081016040528092919081815260200182805461045d90611c79565b80156104aa5780601f1061047f576101008083540402835291602001916104aa565b820191906000526020600020905b81548152906001019060200180831161048d57829003601f168201915b5050505050905090565b60006104c86104c1610e5a565b8484610e62565b6001905092915050565b6000600254905090565b600083838360006104ee848484610b97565b9050600760009054906101000a900460ff1660ff168160ff1614610511826106f3565b90610552576040517f08c379a00000000000000000000000000000000000000000000000000000000081526004016105499190611a07565b60405180910390fd5b5061055e88888861102d565b5060019450505050509392505050565b60006012905090565b6000610619610584610e5a565b848460016000610592610e5a565b73ffffffffffffffffffffffffffffffffffffffff1673ffffffffffffffffffffffffffffffffffffffff16815260200190815260200160002060008873ffffffffffffffffffffffffffffffffffffffff1673ffffffffffffffffffffffffffffffffffffffff168152602001908152602001600020546106149190611b9b565b610e62565b6001905092915050565b60008060008373ffffffffffffffffffffffffffffffffffffffff1673ffffffffffffffffffffffffffffffffffffffff168152602001908152602001600020549050919050565b610673610e5a565b73ffffffffffffffffffffffffffffffffffffffff166106916107ab565b73ffffffffffffffffffffffffffffffffffffffff16146106e7576040517f08c379a00000000000000000000000000000000000000000000000000000000081526004016106de90611ac9565b60405180910390fd5b6106f16000611125565b565b6060600760009054906101000a900460ff1660ff168260ff16141561074f576040518060400160405280601681526020017f416464726573732069732057686974656c69737465640000000000000000000081525090506107a6565b600760019054906101000a900460ff1660ff168260ff1614156107a5576040518060400160405280601a81526020017f41646472657373206973206e6f742057686974656c697374656400000000000081525090505b5b919050565b6000600560009054906101000a900473ffffffffffffffffffffffffffffffffffffffff16905090565b60006107df610e5a565b73ffffffffffffffffffffffffffffffffffffffff166107fd6107ab565b73ffffffffffffffffffffffffffffffffffffffff1614610853576040517f08c379a000000000000000000000000000000000000000000000000000000000815260040161084a90611ac9565b60405180910390fd5b6001600660008473ffffffffffffffffffffffffffffffffffffffff1673ffffffffffffffffffffffffffffffffffffffff16815260200190815260200160002060006101000a81548160ff02191690831515021790555060019050919050565b6060600480546108c390611c79565b80601f01602080910402602001604051908101604052809291908181526020018280546108ef90611c79565b801561093c5780601f106109115761010080835404028352916020019161093c565b820191906000526020600020905b81548152906001019060200180831161091f57829003601f168201915b5050505050905090565b60008060016000610955610e5a565b73ffffffffffffffffffffffffffffffffffffffff1673ffffffffffffffffffffffffffffffffffffffff16815260200190815260200160002060008573ffffffffffffffffffffffffffffffffffffffff1673ffffffffffffffffffffffffffffffffffffffff16815260200190815260200160002054905082811015610a12576040517f08c379a0000000000000000000000000000000000000000000000000000000008152600401610a0990611b29565b60405180910390fd5b610a26610a1d610e5a565b85858403610e62565b600191505092915050565b60003383836000610a43848484610b97565b9050600760009054906101000a900460ff1660ff168160ff1614610a66826106f3565b90610aa7576040517f08c379a0000000000000000000000000000000000000000000000000000000008152600401610a9e9190611a07565b60405180910390fd5b50610ab287876111eb565b50600194505050505092915050565b6000610acb610e5a565b73ffffffffffffffffffffffffffffffffffffffff16610ae96107ab565b73ffffffffffffffffffffffffffffffffffffffff1614610b3f576040517f08c379a0000000000000000000000000000000000000000000000000000000008152600401610b3690611ac9565b60405180910390fd5b600660008373ffffffffffffffffffffffffffffffffffffffff1673ffffffffffffffffffffffffffffffffffffffff16815260200190815260200160002060006101000a81549060ff021916905560019050919050565b6000600660008473ffffffffffffffffffffffffffffffffffffffff1673ffffffffffffffffffffffffffffffffffffffff16815260200190815260200160002060009054906101000a900460ff1615610c6b57600660008573ffffffffffffffffffffffffffffffffffffffff1673ffffffffffffffffffffffffffffffffffffffff16815260200190815260200160002060009054906101000a900460ff1615610c5457600760009054906101000a900460ff169050610c7e565b600760019054906101000a900460ff169050610c7e565b600760019054906101000a900460ff1690505b9392505050565b6000600160008473ffffffffffffffffffffffffffffffffffffffff1673ffffffffffffffffffffffffffffffffffffffff16815260200190815260200160002060008373ffffffffffffffffffffffffffffffffffffffff1673ffffffffffffffffffffffffffffffffffffffff16815260200190815260200160002054905092915050565b610d14610e5a565b73ffffffffffffffffffffffffffffffffffffffff16610d326107ab565b73ffffffffffffffffffffffffffffffffffffffff1614610d88576040517f08c379a0000000000000000000000000000000000000000000000000000000008152600401610d7f90611ac9565b60405180910390fd5b600073ffffffffffffffffffffffffffffffffffffffff168173ffffffffffffffffffffffffffffffffffffffff161415610df8576040517f08c379a0000000000000000000000000000000000000000000000000000000008152600401610def90611a49565b60405180910390fd5b610e0181611125565b50565b6000600660008373ffffffffffffffffffffffffffffffffffffffff1673ffffffffffffffffffffffffffffffffffffffff16815260200190815260200160002060009054906101000a900460ff169050919050565b600033905090565b600073ffffffffffffffffffffffffffffffffffffffff168373ffffffffffffffffffffffffffffffffffffffff161415610ed2576040517f08c379a0000000000000000000000000000000000000000000000000000000008152600401610ec990611b09565b60405180910390fd5b600073ffffffffffffffffffffffffffffffffffffffff168273ffffffffffffffffffffffffffffffffffffffff161415610f42576040517f08c379a0000000000000000000000000000000000000000000000000000000008152600401610f3990611a69565b60405180910390fd5b80600160008573ffffffffffffffffffffffffffffffffffffffff1673ffffffffffffffffffffffffffffffffffffffff16815260200190815260200160002060008473ffffffffffffffffffffffffffffffffffffffff1673ffffffffffffffffffffffffffffffffffffffff168152602001908152602001600020819055508173ffffffffffffffffffffffffffffffffffffffff168373ffffffffffffffffffffffffffffffffffffffff167f8c5be1e5ebec7d5bd14f71427d1e84f3dd0314c0f7b2291e5b200ac8c7c3b925836040516110209190611b49565b60405180910390a3505050565b600061103a848484611209565b6000600160008673ffffffffffffffffffffffffffffffffffffffff1673ffffffffffffffffffffffffffffffffffffffff1681526020019081526020016000206000611085610e5a565b73ffffffffffffffffffffffffffffffffffffffff1673ffffffffffffffffffffffffffffffffffffffff16815260200190815260200160002054905082811015611105576040517f08c379a00000000000000000000000000000000000000000000000000000000081526004016110fc90611aa9565b60405180910390fd5b61111985611111610e5a565b858403610e62565b60019150509392505050565b6000600560009054906101000a900473ffffffffffffffffffffffffffffffffffffffff16905081600560006101000a81548173ffffffffffffffffffffffffffffffffffffffff021916908373ffffffffffffffffffffffffffffffffffffffff1602179055508173ffffffffffffffffffffffffffffffffffffffff168173ffffffffffffffffffffffffffffffffffffffff167f8be0079c531659141344cd1fd0a4f28419497f9722a3daafe3b4186f6b6457e060405160405180910390a35050565b60006111ff6111f8610e5a565b8484611209565b6001905092915050565b600073ffffffffffffffffffffffffffffffffffffffff168373ffffffffffffffffffffffffffffffffffffffff161415611279576040517f08c379a000000000000000000000000000000000000000000000000000000000815260040161127090611ae9565b60405180910390fd5b600073ffffffffffffffffffffffffffffffffffffffff168273ffffffffffffffffffffffffffffffffffffffff1614156112e9576040517f08c379a00000000000000000000000000000000000000000000000000000000081526004016112e090611a29565b60405180910390fd5b6112f483838361148a565b60008060008573ffffffffffffffffffffffffffffffffffffffff1673ffffffffffffffffffffffffffffffffffffffff1681526020019081526020016000205490508181101561137a576040517f08c379a000000000000000000000000000000000000000000000000000000000815260040161137190611a89565b60405180910390fd5b8181036000808673ffffffffffffffffffffffffffffffffffffffff1673ffffffffffffffffffffffffffffffffffffffff16815260200190815260200160002081905550816000808573ffffffffffffffffffffffffffffffffffffffff1673ffffffffffffffffffffffffffffffffffffffff168152602001908152602001600020600082825461140d9190611b9b565b925050819055508273ffffffffffffffffffffffffffffffffffffffff168473ffffffffffffffffffffffffffffffffffffffff167fddf252ad1be2c89b69c2b068fc378daa952ba7f163c4a11628f55a4df523b3ef846040516114719190611b49565b60405180910390a361148484848461148f565b50505050565b505050565b505050565b6000813590506114a381611d1a565b92915050565b6000813590506114b881611d31565b92915050565b6000813590506114cd81611d48565b92915050565b6000602082840312156114e557600080fd5b60006114f384828501611494565b91505092915050565b6000806040838503121561150f57600080fd5b600061151d85828601611494565b925050602061152e85828601611494565b9150509250929050565b60008060006060848603121561154d57600080fd5b600061155b86828701611494565b935050602061156c86828701611494565b925050604061157d868287016114a9565b9150509250925092565b6000806040838503121561159a57600080fd5b60006115a885828601611494565b92505060206115b9858286016114a9565b9150509250929050565b6000602082840312156115d557600080fd5b60006115e3848285016114be565b91505092915050565b6115f581611bf1565b82525050565b61160481611c03565b82525050565b600061161582611b7f565b61161f8185611b8a565b935061162f818560208601611c46565b61163881611d09565b840191505092915050565b6000611650602383611b8a565b91507f45524332303a207472616e7366657220746f20746865207a65726f206164647260008301527f65737300000000000000000000000000000000000000000000000000000000006020830152604082019050919050565b60006116b6602683611b8a565b91507f4f776e61626c653a206e6577206f776e657220697320746865207a65726f206160008301527f64647265737300000000000000000000000000000000000000000000000000006020830152604082019050919050565b600061171c602283611b8a565b91507f45524332303a20617070726f766520746f20746865207a65726f20616464726560008301527f73730000000000000000000000000000000000000000000000000000000000006020830152604082019050919050565b6000611782602683611b8a565b91507f45524332303a207472616e7366657220616d6f756e742065786365656473206260008301527f616c616e636500000000000000000000000000000000000000000000000000006020830152604082019050919050565b60006117e8602883611b8a565b91507f45524332303a207472616e7366657220616d6f756e742065786365656473206160008301527f6c6c6f77616e63650000000000000000000000000000000000000000000000006020830152604082019050919050565b600061184e602083611b8a565b91507f4f776e61626c653a2063616c6c6572206973206e6f7420746865206f776e65726000830152602082019050919050565b600061188e602583611b8a565b91507f45524332303a207472616e736665722066726f6d20746865207a65726f20616460008301527f64726573730000000000000000000000000000000000000000000000000000006020830152604082019050919050565b60006118f4602483611b8a565b91507f45524332303a20617070726f76652066726f6d20746865207a65726f2061646460008301527f72657373000000000000000000000000000000000000000000000000000000006020830152604082019050919050565b600061195a602583611b8a565b91507f45524332303a2064656372656173656420616c6c6f77616e63652062656c6f7760008301527f207a65726f0000000000000000000000000000000000000000000000000000006020830152604082019050919050565b6119bc81611c2f565b82525050565b6119cb81611c39565b82525050565b60006020820190506119e660008301846115ec565b92915050565b6000602082019050611a0160008301846115fb565b92915050565b60006020820190508181036000830152611a21818461160a565b905092915050565b60006020820190508181036000830152611a4281611643565b9050919050565b60006020820190508181036000830152611a62816116a9565b9050919050565b60006020820190508181036000830152611a828161170f565b9050919050565b60006020820190508181036000830152611aa281611775565b9050919050565b60006020820190508181036000830152611ac2816117db565b9050919050565b60006020820190508181036000830152611ae281611841565b9050919050565b60006020820190508181036000830152611b0281611881565b9050919050565b60006020820190508181036000830152611b22816118e7565b9050919050565b60006020820190508181036000830152611b428161194d565b9050919050565b6000602082019050611b5e60008301846119b3565b92915050565b6000602082019050611b7960008301846119c2565b92915050565b600081519050919050565b600082825260208201905092915050565b6000611ba682611c2f565b9150611bb183611c2f565b9250827fffffffffffffffffffffffffffffffffffffffffffffffffffffffffffffffff03821115611be657611be5611cab565b5b828201905092915050565b6000611bfc82611c0f565b9050919050565b60008115159050919050565b600073ffffffffffffffffffffffffffffffffffffffff82169050919050565b6000819050919050565b600060ff82169050919050565b60005b83811015611c64578082015181840152602081019050611c49565b83811115611c73576000848401525b50505050565b60006002820490506001821680611c9157607f821691505b60208210811415611ca557611ca4611cda565b5b50919050565b7f4e487b7100000000000000000000000000000000000000000000000000000000600052601160045260246000fd5b7f4e487b7100000000000000000000000000000000000000000000000000000000600052602260045260246000fd5b6000601f19601f8301169050919050565b611d2381611bf1565b8114611d2e57600080fd5b50565b611d3a81611c2f565b8114611d4557600080fd5b50565b611d5181611c39565b8114611d5c57600080fd5b5056fea26469706673582212203c2c92d3511f33e770d17b952815029e4edd4e5074b89c7aeb7071cdbe82193564736f6c63430008000033",
  "immutableReferences": {},
  "source": "// SPDX-License-Identifier: MIT\npragma solidity ^0.8.0;\n\nimport \"@openzeppelin/contracts/token/ERC20/ERC20.sol\";\nimport \"@openzeppelin/contracts/access/Ownable.sol\";\nimport \"./IERC1404.sol\";\n\n\ncontract ERC1404 is IERC1404, ERC20, Ownable {\n\n    mapping (address => bool) internal whitelisted;  \n\t\n\tuint8 SUCCESS_CODE = 1;\n\tuint8 FAILURE_CODE = 0;\t\n\n\tconstructor(address _tokenToMintAddress, uint256 _initialSupply, string memory _name ) ERC20(_name, _name) {\n\t\t\t_mint(_tokenToMintAddress , _initialSupply);\n\t\t\twhitelisted[msg.sender] = true;\n\t}\n\n\t  function addWhitelistAddress (address user) \n\t  public \n\t  onlyOwner \n\t   returns (bool){ \n\t\t  whitelisted[user] = true; \n\t\t  return true;\n\t  }\n\t  \n\t  function removeWhitelistAddress (address user) \n\t  public \n\t  onlyOwner\n\t  returns (bool){ \n\t\t  delete whitelisted[user];\n\t\t  return true;\n\t  }\n\t  \n\t  function isInvestorWhiteListed(address user) \n\t  public \n\t  view\n\t  returns (bool) {\n\t\t   return whitelisted[user]; \n\t  }\n\t  \n\n    modifier notRestricted (address from, address to, uint256 value) {\n        uint8 restrictionCode = detectTransferRestriction(from, to, value);\n        require(restrictionCode == SUCCESS_CODE, messageForTransferRestriction(restrictionCode));\n        _;\n    }\n\n\n    function detectTransferRestriction (address _from, address _to, uint256 value) \n\tpublic \n\toverride\n\tview \n\treturns (uint8)\n    {\n\t\t  if (whitelisted[_to])\n\t\t  {\n\t\t\t if (whitelisted[_from]) \n\t\t\t\treturn SUCCESS_CODE;\n\t\t\t else\n\t\t\t\treturn FAILURE_CODE;\n\t\t  } else\n\t\t\t  return FAILURE_CODE;\n    }\n\n\n    function messageForTransferRestriction (uint8 restrictionCode)\n    public\n\toverride\t\n    view\n    returns (string memory message)\n    {\n        if (restrictionCode == SUCCESS_CODE) {\n            message = \"Address is Whitelisted\";\n        } else if (restrictionCode == FAILURE_CODE) {\n            message = \"Address is not Whitelisted\";\n        }\n    }\n\n\n\n    function transfer (address to, uint256 value)\n\t\toverride\n\t\tnotRestricted (msg.sender, to, value)\n        public        \n        returns (bool)\n    {\n\t\t super.transfer(to, value);\n\t\t return true;\n    }\n\n\n\n    function  transferFrom (address from, address to, uint256 value)\n\t\toverride\n\t\tnotRestricted (from, to, value)\n        public\n        returns (bool)\n    {\n\t\tsuper.transferFrom(from, to, value);\n\t\treturn true;\n    }\n\t\n\n}\n ",
  "sourcePath": "/home/shahzad/Temp/ERC140420/contracts/ERC1404.sol",
  "compiler": {
    "name": "solc",
    "version": "0.8.0+commit.c7dfd78e.Emscripten.clang"
  },
  "schemaVersion": "3.3.4",
  "updatedAt": "2021-11-23T10:34:27.392Z",
  "devdoc": {
    "kind": "dev",
    "methods": {
      "allowance(address,address)": {
        "details": "See {IERC20-allowance}."
      },
      "approve(address,uint256)": {
        "details": "See {IERC20-approve}. Requirements: - `spender` cannot be the zero address."
      },
      "balanceOf(address)": {
        "details": "See {IERC20-balanceOf}."
      },
      "decimals()": {
        "details": "Returns the number of decimals used to get its user representation. For example, if `decimals` equals `2`, a balance of `505` tokens should be displayed to a user as `5.05` (`505 / 10 ** 2`). Tokens usually opt for a value of 18, imitating the relationship between Ether and Wei. This is the value {ERC20} uses, unless this function is overridden; NOTE: This information is only used for _display_ purposes: it in no way affects any of the arithmetic of the contract, including {IERC20-balanceOf} and {IERC20-transfer}."
      },
      "decreaseAllowance(address,uint256)": {
        "details": "Atomically decreases the allowance granted to `spender` by the caller. This is an alternative to {approve} that can be used as a mitigation for problems described in {IERC20-approve}. Emits an {Approval} event indicating the updated allowance. Requirements: - `spender` cannot be the zero address. - `spender` must have allowance for the caller of at least `subtractedValue`."
      },
      "increaseAllowance(address,uint256)": {
        "details": "Atomically increases the allowance granted to `spender` by the caller. This is an alternative to {approve} that can be used as a mitigation for problems described in {IERC20-approve}. Emits an {Approval} event indicating the updated allowance. Requirements: - `spender` cannot be the zero address."
      },
      "messageForTransferRestriction(uint8)": {
        "details": "Overwrite with your custom message and restrictionCode handling",
        "params": {
          "restrictionCode": "Identifier for looking up a message"
        },
        "returns": {
          "message": "Text showing the restriction's reasoning"
        }
      },
      "name()": {
        "details": "Returns the name of the token."
      },
      "owner()": {
        "details": "Returns the address of the current owner."
      },
      "renounceOwnership()": {
        "details": "Leaves the contract without owner. It will not be possible to call `onlyOwner` functions anymore. Can only be called by the current owner. NOTE: Renouncing ownership will leave the contract without an owner, thereby removing any functionality that is only available to the owner."
      },
      "symbol()": {
        "details": "Returns the symbol of the token, usually a shorter version of the name."
      },
      "totalSupply()": {
        "details": "See {IERC20-totalSupply}."
      },
      "transferOwnership(address)": {
        "details": "Transfers ownership of the contract to a new account (`newOwner`). Can only be called by the current owner."
      }
    },
    "version": 1
  },
  "userdoc": {
    "kind": "user",
    "methods": {
      "messageForTransferRestriction(uint8)": {
        "notice": "Returns a human-readable message for a given restriction code"
      }
    },
    "version": 1
  }
}