{
  "contractName": "ERC1404TokenMin",
  "abi": [
    {
      "inputs": [
        {
          "internalType": "uint256",
          "name": "_initialSupply",
          "type": "uint256"
        },
        {
          "internalType": "string",
          "name": "_name",
          "type": "string"
        },
        {
          "internalType": "string",
          "name": "_symbol",
          "type": "string"
        }
      ],
      "stateMutability": "nonpayable",
      "type": "constructor"
    },
    {
      "anonymous": false,
      "inputs": [
        {
          "indexed": true,
          "internalType": "address",
          "name": "tokenOwner",
          "type": "address"
        },
        {
          "indexed": true,
          "internalType": "address",
          "name": "spender",
          "type": "address"
        },
        {
          "indexed": false,
          "internalType": "uint256",
          "name": "tokens",
          "type": "uint256"
        }
      ],
      "name": "Approval",
      "type": "event"
    },
    {
      "anonymous": false,
      "inputs": [
        {
          "indexed": true,
          "internalType": "address",
          "name": "from",
          "type": "address"
        },
        {
          "indexed": true,
          "internalType": "address",
          "name": "to",
          "type": "address"
        },
        {
          "indexed": false,
          "internalType": "uint256",
          "name": "tokens",
          "type": "uint256"
        }
      ],
      "name": "Transfer",
      "type": "event"
    },
    {
      "inputs": [],
      "name": "decimals",
      "outputs": [
        {
          "internalType": "uint8",
          "name": "",
          "type": "uint8"
        }
      ],
      "stateMutability": "view",
      "type": "function",
      "constant": true
    },
    {
      "inputs": [],
      "name": "name",
      "outputs": [
        {
          "internalType": "string",
          "name": "",
          "type": "string"
        }
      ],
      "stateMutability": "view",
      "type": "function",
      "constant": true
    },
    {
      "inputs": [],
      "name": "symbol",
      "outputs": [
        {
          "internalType": "string",
          "name": "",
          "type": "string"
        }
      ],
      "stateMutability": "view",
      "type": "function",
      "constant": true
    },
    {
      "inputs": [],
      "name": "totalSupply",
      "outputs": [
        {
          "internalType": "uint256",
          "name": "",
          "type": "uint256"
        }
      ],
      "stateMutability": "view",
      "type": "function",
      "constant": true
    },
    {
      "inputs": [],
      "name": "getOwner",
      "outputs": [
        {
          "internalType": "address",
          "name": "",
          "type": "address"
        }
      ],
      "stateMutability": "view",
      "type": "function",
      "constant": true
    },
    {
      "inputs": [
        {
          "internalType": "address",
          "name": "newOwner",
          "type": "address"
        }
      ],
      "name": "transferOwnership",
      "outputs": [],
      "stateMutability": "nonpayable",
      "type": "function"
    },
    {
      "inputs": [
        {
          "internalType": "address",
          "name": "user",
          "type": "address"
        }
      ],
      "name": "addWhitelistAddress",
      "outputs": [
        {
          "internalType": "bool",
          "name": "",
          "type": "bool"
        }
      ],
      "stateMutability": "nonpayable",
      "type": "function"
    },
    {
      "inputs": [
        {
          "internalType": "address",
          "name": "user",
          "type": "address"
        }
      ],
      "name": "removeWhitelistAddress",
      "outputs": [
        {
          "internalType": "bool",
          "name": "",
          "type": "bool"
        }
      ],
      "stateMutability": "nonpayable",
      "type": "function"
    },
    {
      "inputs": [
        {
          "internalType": "address",
          "name": "user",
          "type": "address"
        }
      ],
      "name": "isInvestorWhiteListed",
      "outputs": [
        {
          "internalType": "bool",
          "name": "",
          "type": "bool"
        }
      ],
      "stateMutability": "view",
      "type": "function",
      "constant": true
    },
    {
      "inputs": [
        {
          "internalType": "address",
          "name": "_from",
          "type": "address"
        },
        {
          "internalType": "address",
          "name": "_to",
          "type": "address"
        },
        {
          "internalType": "uint256",
          "name": "value",
          "type": "uint256"
        }
      ],
      "name": "detectTransferRestriction",
      "outputs": [
        {
          "internalType": "uint8",
          "name": "",
          "type": "uint8"
        }
      ],
      "stateMutability": "view",
      "type": "function",
      "constant": true
    },
    {
      "inputs": [
        {
          "internalType": "uint8",
          "name": "restrictionCode",
          "type": "uint8"
        }
      ],
      "name": "messageForTransferRestriction",
      "outputs": [
        {
          "internalType": "string",
          "name": "message",
          "type": "string"
        }
      ],
      "stateMutability": "pure",
      "type": "function",
      "constant": true
    },
    {
      "inputs": [
        {
          "internalType": "address",
          "name": "account",
          "type": "address"
        }
      ],
      "name": "balanceOf",
      "outputs": [
        {
          "internalType": "uint256",
          "name": "",
          "type": "uint256"
        }
      ],
      "stateMutability": "view",
      "type": "function",
      "constant": true
    },
    {
      "inputs": [
        {
          "internalType": "address",
          "name": "owner",
          "type": "address"
        },
        {
          "internalType": "address",
          "name": "spender",
          "type": "address"
        }
      ],
      "name": "allowance",
      "outputs": [
        {
          "internalType": "uint256",
          "name": "",
          "type": "uint256"
        }
      ],
      "stateMutability": "view",
      "type": "function",
      "constant": true
    },
    {
      "inputs": [
        {
          "internalType": "address",
          "name": "recipient",
          "type": "address"
        },
        {
          "internalType": "uint256",
          "name": "amount",
          "type": "uint256"
        }
      ],
      "name": "transfer",
      "outputs": [],
      "stateMutability": "nonpayable",
      "type": "function"
    },
    {
      "inputs": [
        {
          "internalType": "address",
          "name": "owner",
          "type": "address"
        },
        {
          "internalType": "address",
          "name": "buyer",
          "type": "address"
        },
        {
          "internalType": "uint256",
          "name": "amount",
          "type": "uint256"
        }
      ],
      "name": "transferFrom",
      "outputs": [],
      "stateMutability": "nonpayable",
      "type": "function"
    },
    {
      "inputs": [
        {
          "internalType": "address",
          "name": "account",
          "type": "address"
        },
        {
          "internalType": "uint256",
          "name": "amount",
          "type": "uint256"
        }
      ],
      "name": "mint",
      "outputs": [],
      "stateMutability": "nonpayable",
      "type": "function"
    },
    {
      "inputs": [
        {
          "internalType": "address",
          "name": "account",
          "type": "address"
        },
        {
          "internalType": "uint256",
          "name": "amount",
          "type": "uint256"
        }
      ],
      "name": "_burn",
      "outputs": [],
      "stateMutability": "nonpayable",
      "type": "function"
    }
  ],
  "bytecode": "0x60806040526012600360146101000a81548160ff021916908360ff1602179055503480156200002d57600080fd5b506040516200234a3803806200234a833981810160405281019062000053919062000316565b81600590805190602001906200006b929190620001dd565b50806006908051906020019062000084929190620001dd565b5060016000803373ffffffffffffffffffffffffffffffffffffffff1673ffffffffffffffffffffffffffffffffffffffff16815260200190815260200160002060006101000a81548160ff02191690831515021790555033600360006101000a81548173ffffffffffffffffffffffffffffffffffffffff021916908373ffffffffffffffffffffffffffffffffffffffff16021790555082600481905550600454600160003373ffffffffffffffffffffffffffffffffffffffff1673ffffffffffffffffffffffffffffffffffffffff168152602001908152602001600020819055503373ffffffffffffffffffffffffffffffffffffffff16600073ffffffffffffffffffffffffffffffffffffffff167fddf252ad1be2c89b69c2b068fc378daa952ba7f163c4a11628f55a4df523b3ef600454604051620001cc9190620003af565b60405180910390a350505062000521565b828054620001eb9062000473565b90600052602060002090601f0160209004810192826200020f57600085556200025b565b82601f106200022a57805160ff19168380011785556200025b565b828001600101855582156200025b579182015b828111156200025a5782518255916020019190600101906200023d565b5b5090506200026a91906200026e565b5090565b5b80821115620002895760008160009055506001016200026f565b5090565b6000620002a46200029e8462000400565b620003cc565b905082815260208101848484011115620002bd57600080fd5b620002ca8482856200043d565b509392505050565b600082601f830112620002e457600080fd5b8151620002f68482602086016200028d565b91505092915050565b600081519050620003108162000507565b92915050565b6000806000606084860312156200032c57600080fd5b60006200033c86828701620002ff565b935050602084015167ffffffffffffffff8111156200035a57600080fd5b6200036886828701620002d2565b925050604084015167ffffffffffffffff8111156200038657600080fd5b6200039486828701620002d2565b9150509250925092565b620003a98162000433565b82525050565b6000602082019050620003c660008301846200039e565b92915050565b6000604051905081810181811067ffffffffffffffff82111715620003f657620003f5620004d8565b5b8060405250919050565b600067ffffffffffffffff8211156200041e576200041d620004d8565b5b601f19601f8301169050602081019050919050565b6000819050919050565b60005b838110156200045d57808201518184015260208101905062000440565b838111156200046d576000848401525b50505050565b600060028204905060018216806200048c57607f821691505b60208210811415620004a357620004a2620004a9565b5b50919050565b7f4e487b7100000000000000000000000000000000000000000000000000000000600052602260045260246000fd5b7f4e487b7100000000000000000000000000000000000000000000000000000000600052604160045260246000fd5b620005128162000433565b81146200051e57600080fd5b50565b611e1980620005316000396000f3fe608060405234801561001057600080fd5b506004361061010b5760003560e01c8063893d20e8116100a2578063b7ecbaae11610071578063b7ecbaae146102a6578063d4ce1415146102d6578063dd62ed3e14610306578063f2fde38b14610336578063f3c6e993146103525761010b565b8063893d20e81461021e57806394a7ef151461023c57806395d89b411461026c578063a9059cbb1461028a5761010b565b806340c10f19116100de57806340c10f19146101865780636161eb18146101a257806370a08231146101be5780637f4ab1dd146101ee5761010b565b806306fdde031461011057806318160ddd1461012e57806323b872dd1461014c578063313ce56714610168575b600080fd5b610118610382565b6040516101259190611ad7565b60405180910390f35b610136610410565b6040516101439190611b99565b60405180910390f35b61016660048036038101906101619190611838565b610416565b005b610170610946565b60405161017d9190611bb4565b60405180910390f35b6101a0600480360381019061019b9190611887565b610959565b005b6101bc60048036038101906101b79190611887565b610b2c565b005b6101d860048036038101906101d391906117d3565b610d8a565b6040516101e59190611b99565b60405180910390f35b610208600480360381019061020391906118c3565b610dd3565b6040516102159190611ad7565b60405180910390f35b610226610e5c565b6040516102339190611aa1565b60405180910390f35b610256600480360381019061025191906117d3565b610e86565b6040516102639190611abc565b60405180910390f35b610274610f78565b6040516102819190611ad7565b60405180910390f35b6102a4600480360381019061029f9190611887565b611006565b005b6102c060048036038101906102bb91906117d3565b61132a565b6040516102cd9190611abc565b60405180910390f35b6102f060048036038101906102eb9190611838565b611413565b6040516102fd9190611bb4565b60405180910390f35b610320600480360381019061031b91906117fc565b6114d5565b60405161032d9190611b99565b60405180910390f35b610350600480360381019061034b91906117d3565b61155c565b005b61036c600480360381019061036791906117d3565b6116a0565b6040516103799190611abc565b60405180910390f35b6005805461038f90611cfd565b80601f01602080910402602001604051908101604052809291908181526020018280546103bb90611cfd565b80156104085780601f106103dd57610100808354040283529160200191610408565b820191906000526020600020905b8154815290600101906020018083116103eb57829003601f168201915b505050505081565b60045481565b8282826000610426848484611413565b905060018160ff161461043882610dd3565b90610479576040517f08c379a00000000000000000000000000000000000000000000000000000000081526004016104709190611ad7565b60405180910390fd5b50600073ffffffffffffffffffffffffffffffffffffffff168773ffffffffffffffffffffffffffffffffffffffff1614156104ea576040517f08c379a00000000000000000000000000000000000000000000000000000000081526004016104e190611b79565b60405180910390fd5b600073ffffffffffffffffffffffffffffffffffffffff168673ffffffffffffffffffffffffffffffffffffffff16141561055a576040517f08c379a000000000000000000000000000000000000000000000000000000000815260040161055190611b79565b60405180910390fd5b600073ffffffffffffffffffffffffffffffffffffffff163373ffffffffffffffffffffffffffffffffffffffff1614156105ca576040517f08c379a00000000000000000000000000000000000000000000000000000000081526004016105c190611b79565b60405180910390fd5b600160008873ffffffffffffffffffffffffffffffffffffffff1673ffffffffffffffffffffffffffffffffffffffff1681526020019081526020016000205485111561061657600080fd5b600260008873ffffffffffffffffffffffffffffffffffffffff1673ffffffffffffffffffffffffffffffffffffffff16815260200190815260200160002060003373ffffffffffffffffffffffffffffffffffffffff1673ffffffffffffffffffffffffffffffffffffffff1681526020019081526020016000205485111561069f57600080fd5b6106f185600160008a73ffffffffffffffffffffffffffffffffffffffff1673ffffffffffffffffffffffffffffffffffffffff168152602001908152602001600020546116f590919063ffffffff16565b600160008973ffffffffffffffffffffffffffffffffffffffff1673ffffffffffffffffffffffffffffffffffffffff168152602001908152602001600020819055506107c385600260008a73ffffffffffffffffffffffffffffffffffffffff1673ffffffffffffffffffffffffffffffffffffffff16815260200190815260200160002060003373ffffffffffffffffffffffffffffffffffffffff1673ffffffffffffffffffffffffffffffffffffffff168152602001908152602001600020546116f590919063ffffffff16565b600260008973ffffffffffffffffffffffffffffffffffffffff1673ffffffffffffffffffffffffffffffffffffffff16815260200190815260200160002060003373ffffffffffffffffffffffffffffffffffffffff1673ffffffffffffffffffffffffffffffffffffffff1681526020019081526020016000208190555061089585600160008973ffffffffffffffffffffffffffffffffffffffff1673ffffffffffffffffffffffffffffffffffffffff1681526020019081526020016000205461174290919063ffffffff16565b600160008873ffffffffffffffffffffffffffffffffffffffff1673ffffffffffffffffffffffffffffffffffffffff168152602001908152602001600020819055508573ffffffffffffffffffffffffffffffffffffffff168773ffffffffffffffffffffffffffffffffffffffff167fddf252ad1be2c89b69c2b068fc378daa952ba7f163c4a11628f55a4df523b3ef876040516109359190611b99565b60405180910390a350505050505050565b600360149054906101000a900460ff1681565b3373ffffffffffffffffffffffffffffffffffffffff16600360009054906101000a900473ffffffffffffffffffffffffffffffffffffffff1673ffffffffffffffffffffffffffffffffffffffff16146109e9576040517f08c379a00000000000000000000000000000000000000000000000000000000081526004016109e090611b59565b60405180910390fd5b600073ffffffffffffffffffffffffffffffffffffffff168273ffffffffffffffffffffffffffffffffffffffff161415610a59576040517f08c379a0000000000000000000000000000000000000000000000000000000008152600401610a5090611b79565b60405180910390fd5b610a6e8160045461174290919063ffffffff16565b50610ac181600160008573ffffffffffffffffffffffffffffffffffffffff1673ffffffffffffffffffffffffffffffffffffffff1681526020019081526020016000205461174290919063ffffffff16565b508173ffffffffffffffffffffffffffffffffffffffff16600073ffffffffffffffffffffffffffffffffffffffff167fddf252ad1be2c89b69c2b068fc378daa952ba7f163c4a11628f55a4df523b3ef83604051610b209190611b99565b60405180910390a35050565b3373ffffffffffffffffffffffffffffffffffffffff16600360009054906101000a900473ffffffffffffffffffffffffffffffffffffffff1673ffffffffffffffffffffffffffffffffffffffff1614610bbc576040517f08c379a0000000000000000000000000000000000000000000000000000000008152600401610bb390611b59565b60405180910390fd5b600073ffffffffffffffffffffffffffffffffffffffff168273ffffffffffffffffffffffffffffffffffffffff161415610c2c576040517f08c379a0000000000000000000000000000000000000000000000000000000008152600401610c2390611b79565b60405180910390fd5b6000600160008473ffffffffffffffffffffffffffffffffffffffff1673ffffffffffffffffffffffffffffffffffffffff16815260200190815260200160002054905081811015610cb3576040517f08c379a0000000000000000000000000000000000000000000000000000000008152600401610caa90611af9565b60405180910390fd5b610cc682826116f590919063ffffffff16565b600160008573ffffffffffffffffffffffffffffffffffffffff1673ffffffffffffffffffffffffffffffffffffffff16815260200190815260200160002081905550610d1e826004546116f590919063ffffffff16565b50600073ffffffffffffffffffffffffffffffffffffffff168373ffffffffffffffffffffffffffffffffffffffff167fddf252ad1be2c89b69c2b068fc378daa952ba7f163c4a11628f55a4df523b3ef84604051610d7d9190611b99565b60405180910390a3505050565b6000600160008373ffffffffffffffffffffffffffffffffffffffff1673ffffffffffffffffffffffffffffffffffffffff168152602001908152602001600020549050919050565b606060018260ff161415610e1e576040518060400160405280600b81526020017f57686974656c69737465640000000000000000000000000000000000000000008152509050610e57565b6040518060400160405280600f81526020017f4e6f742057686974656c6973746564000000000000000000000000000000000081525090505b919050565b6000600360009054906101000a900473ffffffffffffffffffffffffffffffffffffffff16905090565b60003373ffffffffffffffffffffffffffffffffffffffff16600360009054906101000a900473ffffffffffffffffffffffffffffffffffffffff1673ffffffffffffffffffffffffffffffffffffffff1614610f18576040517f08c379a0000000000000000000000000000000000000000000000000000000008152600401610f0f90611b59565b60405180910390fd5b60016000808473ffffffffffffffffffffffffffffffffffffffff1673ffffffffffffffffffffffffffffffffffffffff16815260200190815260200160002060006101000a81548160ff02191690831515021790555060019050919050565b60068054610f8590611cfd565b80601f0160208091040260200160405190810160405280929190818152602001828054610fb190611cfd565b8015610ffe5780601f10610fd357610100808354040283529160200191610ffe565b820191906000526020600020905b815481529060010190602001808311610fe157829003601f168201915b505050505081565b3382826000611016848484611413565b905060018160ff161461102882610dd3565b90611069576040517f08c379a00000000000000000000000000000000000000000000000000000000081526004016110609190611ad7565b60405180910390fd5b50600073ffffffffffffffffffffffffffffffffffffffff163373ffffffffffffffffffffffffffffffffffffffff1614156110da576040517f08c379a00000000000000000000000000000000000000000000000000000000081526004016110d190611b79565b60405180910390fd5b600073ffffffffffffffffffffffffffffffffffffffff168673ffffffffffffffffffffffffffffffffffffffff16141561114a576040517f08c379a000000000000000000000000000000000000000000000000000000000815260040161114190611b79565b60405180910390fd5b6000600160003373ffffffffffffffffffffffffffffffffffffffff1673ffffffffffffffffffffffffffffffffffffffff168152602001908152602001600020549050858110156111d1576040517f08c379a00000000000000000000000000000000000000000000000000000000081526004016111c890611b19565b60405180910390fd5b6111e486826116f590919063ffffffff16565b600160003373ffffffffffffffffffffffffffffffffffffffff1673ffffffffffffffffffffffffffffffffffffffff1681526020019081526020016000208190555061127986600160008a73ffffffffffffffffffffffffffffffffffffffff1673ffffffffffffffffffffffffffffffffffffffff1681526020019081526020016000205461174290919063ffffffff16565b600160008973ffffffffffffffffffffffffffffffffffffffff1673ffffffffffffffffffffffffffffffffffffffff168152602001908152602001600020819055508673ffffffffffffffffffffffffffffffffffffffff163373ffffffffffffffffffffffffffffffffffffffff167fddf252ad1be2c89b69c2b068fc378daa952ba7f163c4a11628f55a4df523b3ef886040516113199190611b99565b60405180910390a350505050505050565b60003373ffffffffffffffffffffffffffffffffffffffff16600360009054906101000a900473ffffffffffffffffffffffffffffffffffffffff1673ffffffffffffffffffffffffffffffffffffffff16146113bc576040517f08c379a00000000000000000000000000000000000000000000000000000000081526004016113b390611b59565b60405180910390fd5b6000808373ffffffffffffffffffffffffffffffffffffffff1673ffffffffffffffffffffffffffffffffffffffff16815260200190815260200160002060006101000a81549060ff021916905560019050919050565b60008060008473ffffffffffffffffffffffffffffffffffffffff1673ffffffffffffffffffffffffffffffffffffffff16815260200190815260200160002060009054906101000a900460ff16156114c9576000808573ffffffffffffffffffffffffffffffffffffffff1673ffffffffffffffffffffffffffffffffffffffff16815260200190815260200160002060009054906101000a900460ff16156114c057600190506114ce565b600090506114ce565b600090505b9392505050565b6000600260008473ffffffffffffffffffffffffffffffffffffffff1673ffffffffffffffffffffffffffffffffffffffff16815260200190815260200160002060008373ffffffffffffffffffffffffffffffffffffffff1673ffffffffffffffffffffffffffffffffffffffff16815260200190815260200160002054905092915050565b3373ffffffffffffffffffffffffffffffffffffffff16600360009054906101000a900473ffffffffffffffffffffffffffffffffffffffff1673ffffffffffffffffffffffffffffffffffffffff16146115ec576040517f08c379a00000000000000000000000000000000000000000000000000000000081526004016115e390611b59565b60405180910390fd5b600073ffffffffffffffffffffffffffffffffffffffff168173ffffffffffffffffffffffffffffffffffffffff16141561165c576040517f08c379a000000000000000000000000000000000000000000000000000000000815260040161165390611b39565b60405180910390fd5b80600360006101000a81548173ffffffffffffffffffffffffffffffffffffffff021916908373ffffffffffffffffffffffffffffffffffffffff16021790555050565b60008060008373ffffffffffffffffffffffffffffffffffffffff1673ffffffffffffffffffffffffffffffffffffffff16815260200190815260200160002060009054906101000a900460ff169050919050565b60008282111561172e577f4e487b7100000000000000000000000000000000000000000000000000000000600052600160045260246000fd5b818361173a9190611c41565b905092915050565b60008082846117519190611beb565b90508381101561178a577f4e487b7100000000000000000000000000000000000000000000000000000000600052600160045260246000fd5b8091505092915050565b6000813590506117a381611d9e565b92915050565b6000813590506117b881611db5565b92915050565b6000813590506117cd81611dcc565b92915050565b6000602082840312156117e557600080fd5b60006117f384828501611794565b91505092915050565b6000806040838503121561180f57600080fd5b600061181d85828601611794565b925050602061182e85828601611794565b9150509250929050565b60008060006060848603121561184d57600080fd5b600061185b86828701611794565b935050602061186c86828701611794565b925050604061187d868287016117a9565b9150509250925092565b6000806040838503121561189a57600080fd5b60006118a885828601611794565b92505060206118b9858286016117a9565b9150509250929050565b6000602082840312156118d557600080fd5b60006118e3848285016117be565b91505092915050565b6118f581611c75565b82525050565b61190481611c87565b82525050565b600061191582611bcf565b61191f8185611bda565b935061192f818560208601611cca565b61193881611d8d565b840191505092915050565b6000611950601683611bda565b91507f416d6f756e7420657863656564732062616c616e6365000000000000000000006000830152602082019050919050565b6000611990601783611bda565b91507f5472616e7366657220616d6f756e7420657863656564730000000000000000006000830152602082019050919050565b60006119d0600983611bda565b91507f41646472657373203000000000000000000000000000000000000000000000006000830152602082019050919050565b6000611a10601783611bda565b91507f63616c6c6572206973206e6f7420746865206f776e65720000000000000000006000830152602082019050919050565b6000611a50600c83611bda565b91507f5a65726f204164647265737300000000000000000000000000000000000000006000830152602082019050919050565b611a8c81611cb3565b82525050565b611a9b81611cbd565b82525050565b6000602082019050611ab660008301846118ec565b92915050565b6000602082019050611ad160008301846118fb565b92915050565b60006020820190508181036000830152611af1818461190a565b905092915050565b60006020820190508181036000830152611b1281611943565b9050919050565b60006020820190508181036000830152611b3281611983565b9050919050565b60006020820190508181036000830152611b52816119c3565b9050919050565b60006020820190508181036000830152611b7281611a03565b9050919050565b60006020820190508181036000830152611b9281611a43565b9050919050565b6000602082019050611bae6000830184611a83565b92915050565b6000602082019050611bc96000830184611a92565b92915050565b600081519050919050565b600082825260208201905092915050565b6000611bf682611cb3565b9150611c0183611cb3565b9250827fffffffffffffffffffffffffffffffffffffffffffffffffffffffffffffffff03821115611c3657611c35611d2f565b5b828201905092915050565b6000611c4c82611cb3565b9150611c5783611cb3565b925082821015611c6a57611c69611d2f565b5b828203905092915050565b6000611c8082611c93565b9050919050565b60008115159050919050565b600073ffffffffffffffffffffffffffffffffffffffff82169050919050565b6000819050919050565b600060ff82169050919050565b60005b83811015611ce8578082015181840152602081019050611ccd565b83811115611cf7576000848401525b50505050565b60006002820490506001821680611d1557607f821691505b60208210811415611d2957611d28611d5e565b5b50919050565b7f4e487b7100000000000000000000000000000000000000000000000000000000600052601160045260246000fd5b7f4e487b7100000000000000000000000000000000000000000000000000000000600052602260045260246000fd5b6000601f19601f8301169050919050565b611da781611c75565b8114611db257600080fd5b50565b611dbe81611cb3565b8114611dc957600080fd5b50565b611dd581611cbd565b8114611de057600080fd5b5056fea26469706673582212201d027af0f55e8332c5a6bb60285ae127a08a077ddf3e1c8813f0f03db2f5d13964736f6c63430008000033",
  "immutableReferences": {},
  "source": "// SPDX-License-Identifier: MIT\npragma solidity ^0.8.0;\n\n\ncontract ERC1404TokenMin {\n\n    using SafeMathInternal for uint256;\n\n    mapping (address => bool) internal whitelisted;  \n\n\tmapping(address => uint256) private _balances;\n\n    mapping(address => mapping(address => uint256)) private _allowances;\n\t\n\taddress private _owner;\n\n    event Approval(address indexed tokenOwner, address indexed spender, uint tokens);\n    event Transfer(address indexed from, address indexed to, uint tokens);\n\n\t\n\tuint8 public decimals = 18;\n    uint256 public totalSupply;\n    string public name;\n    string public symbol;\n\t\n\tconstructor(uint256 _initialSupply, string memory _name,  string memory _symbol ) {\n\t\tname = _name;\n        symbol = _symbol;\n\n\t\twhitelisted[msg.sender] = true;\n\t\t_owner = msg.sender;\n\n\t\t// Minting tokens for initial supply\n         totalSupply = _initialSupply;\n        _balances[msg.sender] = totalSupply;\n\t\t\n\t\temit Transfer(address(0), msg.sender, totalSupply);\n\t}\n\n\n    function getOwner() public view virtual returns (address) {\n        return _owner;\n    }\n    modifier onlyOwner() {\n        require(_owner == msg.sender, \"caller is not the owner\");\n        _;\n    }\n    function transferOwnership(address newOwner) \n\tpublic \n\tonlyOwner {\n        require(newOwner != address(0), \"Address 0\");\n\t\t_owner = newOwner;\n    }\n\n\n\n\t  function addWhitelistAddress (address user) \n\t  public \n\t  onlyOwner \n\t   returns (bool){ \n\t\t  whitelisted[user] = true; \n\t\t  return true;\n\t  }\n\t  \n\t  function removeWhitelistAddress (address user) \n\t  public \n\t  onlyOwner\n\t  returns (bool){ \n\t\t  delete whitelisted[user];\n\t\t  return true;\n\t  }\n\t  \n\t  function isInvestorWhiteListed(address user) \n\t  public \n\t  view\n\t  returns (bool) {\n\t\t   return whitelisted[user]; \n\t  }\n\t  \n\n    modifier notRestricted (address from, address to, uint256 value) {\n        uint8 restrictionCode = detectTransferRestriction(from, to, value);\n        require(restrictionCode == 1, messageForTransferRestriction(restrictionCode));\n        _;\n    }\n\n\n    function detectTransferRestriction (address _from, address _to, uint256 value) \n\tpublic \n\tview \n\treturns (uint8)\n    {\n\t\t  if (whitelisted[_to])\n\t\t  {\n\t\t\t if (whitelisted[_from]) \n\t\t\t\treturn 1;\n\t\t\t else\n\t\t\t\treturn 0;\n\t\t  } else\n\t\t\t  return 0;\n    }\n\n\n    function messageForTransferRestriction (uint8 restrictionCode)\n    public\t\n    pure returns (string memory message)\n    {\n        if (restrictionCode == 1) \n            message = \"Whitelisted\";\n         else \n            message = \"Not Whitelisted\";\n    }\n\n\n\n\n\n\n\n\n    function balanceOf(address account) public view returns (uint256) {\n        return _balances[account];\n    }\n\t\n\t\n    function allowance(address owner, address spender) \n\tpublic \n\tview \n\treturns (uint256) {\n        return _allowances[owner][spender];\n    }\t\n\n\t\n\t\n\t\n\n    function transfer(\n        address recipient,\n        uint256 amount\n    ) \t\n\tpublic \n\tnotRestricted (msg.sender, recipient, amount)\n\t{\n        require(msg.sender != address(0), \"Zero Address\");\n        require(recipient != address(0), \"Zero Address\");\n\n        uint256 senderBalance = _balances[msg.sender];\n        require(senderBalance >= amount, \"Transfer amount exceeds\");\n        _balances[msg.sender] = senderBalance.sub(amount);\n        _balances[recipient] = _balances[recipient].add(amount);\n\n        emit Transfer(msg.sender, recipient, amount);\n    }\n\n\n\n    function approve(\n        address owner,\n        address spender,\n        uint256 amount\n    ) internal virtual {\n        require(owner != address(0), \"Zero Address\");\n        require(spender != address(0), \"Zero Address\");\n\n        _allowances[owner][spender] = amount;\n        emit Approval(owner, spender, amount);\n    }\n\t\n\n    function transferFrom(\n        address owner,\n        address buyer,\n        uint256 amount\n    ) \n\tpublic \n\tnotRestricted (owner, buyer, amount)\n\t{\n        require(owner != address(0), \"Zero Address\");\n        require(buyer != address(0), \"Zero Address\");\n        require(msg.sender != address(0), \"Zero Address\");\n\t\t\n        require(amount <= _balances[owner]);\n        require(amount <= _allowances[owner][msg.sender]);\n\n        _balances[owner] = _balances[owner].sub(amount);\n        _allowances[owner][msg.sender] = _allowances[owner][msg.sender].sub(amount);\n        _balances[buyer] = _balances[buyer].add(amount);\n\t\t\n        emit Transfer(owner, buyer, amount);\t\n    }\n \n\n\n\n\n\n    function mint(address account, uint256 amount) \n\tonlyOwner \n\tpublic {\n        require(account != address(0), \"Zero Address\");\n\n        totalSupply.add(amount);\n        _balances[account].add(amount);\n        emit Transfer(address(0), account, amount);\n    }\n\n\n    function _burn(address account, uint256 amount) \n\tonlyOwner \n\tpublic {\n        require(account != address(0), \"Zero Address\");\n\n        uint256 accountBalance = _balances[account];\n        require(accountBalance >= amount, \"Amount exceeds balance\");\n        _balances[account] = accountBalance.sub(amount);\n        totalSupply.sub(amount);\n\n        emit Transfer(account, address(0), amount);\n    }\n\n\n}\n \n \nlibrary SafeMathInternal {\n    function sub(uint256 a, uint256 b) internal pure returns (uint256) {\n      assert(b <= a);\n      return a - b;\n    }\n\n    function add(uint256 a, uint256 b) internal pure returns (uint256) {\n      uint256 c = a + b;\n      assert(c >= a);\n      return c;\n    }\n} ",
  "sourcePath": "/home/shahzad/Shahzad/projects/git/ERC1404/contracts/ERC1404TokenMin.sol",
  "compiler": {
    "name": "solc",
    "version": "0.8.0+commit.c7dfd78e.Emscripten.clang"
  },
  "schemaVersion": "3.3.4",
  "updatedAt": "2021-11-02T09:39:40.451Z",
  "networkType": "ethereum",
  "devdoc": {
    "kind": "dev",
    "methods": {},
    "version": 1
  },
  "userdoc": {
    "kind": "user",
    "methods": {},
    "version": 1
  }
}