{
  "contractName": "ERC1404TokenMin",
  "abi": [
    {
      "inputs": [
        {
          "internalType": "uint256",
          "name": "_initialSupply",
          "type": "uint256"
        },
        {
          "internalType": "string",
          "name": "_name",
          "type": "string"
        },
        {
          "internalType": "string",
          "name": "_symbol",
          "type": "string"
        },
        {
          "internalType": "uint256",
          "name": "_allowedInvestors",
          "type": "uint256"
        }
      ],
      "stateMutability": "nonpayable",
      "type": "constructor"
    },
    {
      "anonymous": false,
      "inputs": [
        {
          "indexed": true,
          "internalType": "address",
          "name": "tokenOwner",
          "type": "address"
        },
        {
          "indexed": true,
          "internalType": "address",
          "name": "spender",
          "type": "address"
        },
        {
          "indexed": false,
          "internalType": "uint256",
          "name": "tokens",
          "type": "uint256"
        }
      ],
      "name": "Approval",
      "type": "event"
    },
    {
      "anonymous": false,
      "inputs": [
        {
          "indexed": true,
          "internalType": "address",
          "name": "from",
          "type": "address"
        },
        {
          "indexed": true,
          "internalType": "address",
          "name": "to",
          "type": "address"
        },
        {
          "indexed": false,
          "internalType": "uint256",
          "name": "tokens",
          "type": "uint256"
        }
      ],
      "name": "Transfer",
      "type": "event"
    },
    {
      "inputs": [],
      "name": "allowedInvestors",
      "outputs": [
        {
          "internalType": "uint256",
          "name": "",
          "type": "uint256"
        }
      ],
      "stateMutability": "view",
      "type": "function"
    },
    {
      "inputs": [],
      "name": "currentTotalInvestors",
      "outputs": [
        {
          "internalType": "uint256",
          "name": "",
          "type": "uint256"
        }
      ],
      "stateMutability": "view",
      "type": "function"
    },
    {
      "inputs": [],
      "name": "decimals",
      "outputs": [
        {
          "internalType": "uint256",
          "name": "",
          "type": "uint256"
        }
      ],
      "stateMutability": "view",
      "type": "function"
    },
    {
      "inputs": [],
      "name": "name",
      "outputs": [
        {
          "internalType": "string",
          "name": "",
          "type": "string"
        }
      ],
      "stateMutability": "view",
      "type": "function"
    },
    {
      "inputs": [],
      "name": "symbol",
      "outputs": [
        {
          "internalType": "string",
          "name": "",
          "type": "string"
        }
      ],
      "stateMutability": "view",
      "type": "function"
    },
    {
      "inputs": [],
      "name": "totalSupply",
      "outputs": [
        {
          "internalType": "uint256",
          "name": "",
          "type": "uint256"
        }
      ],
      "stateMutability": "view",
      "type": "function"
    },
    {
      "inputs": [
        {
          "internalType": "uint256",
          "name": "_allowedInvestors",
          "type": "uint256"
        }
      ],
      "name": "resetAllowedInvestors",
      "outputs": [],
      "stateMutability": "nonpayable",
      "type": "function"
    },
    {
      "inputs": [],
      "name": "getOwner",
      "outputs": [
        {
          "internalType": "address",
          "name": "",
          "type": "address"
        }
      ],
      "stateMutability": "view",
      "type": "function"
    },
    {
      "inputs": [
        {
          "internalType": "address",
          "name": "newOwner",
          "type": "address"
        }
      ],
      "name": "transferOwnership",
      "outputs": [],
      "stateMutability": "nonpayable",
      "type": "function"
    },
    {
      "inputs": [
        {
          "internalType": "address",
          "name": "user",
          "type": "address"
        }
      ],
      "name": "addWhitelistAddress",
      "outputs": [],
      "stateMutability": "nonpayable",
      "type": "function"
    },
    {
      "inputs": [
        {
          "internalType": "address",
          "name": "user",
          "type": "address"
        }
      ],
      "name": "removeWhitelistAddress",
      "outputs": [],
      "stateMutability": "nonpayable",
      "type": "function"
    },
    {
      "inputs": [
        {
          "internalType": "address",
          "name": "user",
          "type": "address"
        }
      ],
      "name": "isInvestorWhiteListed",
      "outputs": [
        {
          "internalType": "bool",
          "name": "",
          "type": "bool"
        }
      ],
      "stateMutability": "view",
      "type": "function"
    },
    {
      "inputs": [
        {
          "internalType": "address",
          "name": "_from",
          "type": "address"
        },
        {
          "internalType": "address",
          "name": "_to",
          "type": "address"
        },
        {
          "internalType": "uint256",
          "name": "value",
          "type": "uint256"
        }
      ],
      "name": "detectTransferRestriction",
      "outputs": [
        {
          "internalType": "uint8",
          "name": "",
          "type": "uint8"
        }
      ],
      "stateMutability": "view",
      "type": "function"
    },
    {
      "inputs": [
        {
          "internalType": "uint8",
          "name": "restrictionCode",
          "type": "uint8"
        }
      ],
      "name": "messageForTransferRestriction",
      "outputs": [
        {
          "internalType": "string",
          "name": "message",
          "type": "string"
        }
      ],
      "stateMutability": "pure",
      "type": "function"
    },
    {
      "inputs": [
        {
          "internalType": "address",
          "name": "account",
          "type": "address"
        }
      ],
      "name": "balanceOf",
      "outputs": [
        {
          "internalType": "uint256",
          "name": "",
          "type": "uint256"
        }
      ],
      "stateMutability": "view",
      "type": "function"
    },
    {
      "inputs": [
        {
          "internalType": "address",
          "name": "recipient",
          "type": "address"
        },
        {
          "internalType": "uint256",
          "name": "amount",
          "type": "uint256"
        }
      ],
      "name": "transfer",
      "outputs": [],
      "stateMutability": "nonpayable",
      "type": "function"
    },
    {
      "inputs": [
        {
          "internalType": "address",
          "name": "spender",
          "type": "address"
        },
        {
          "internalType": "uint256",
          "name": "amount",
          "type": "uint256"
        }
      ],
      "name": "approve",
      "outputs": [],
      "stateMutability": "nonpayable",
      "type": "function"
    },
    {
      "inputs": [
        {
          "internalType": "address",
          "name": "owner",
          "type": "address"
        },
        {
          "internalType": "address",
          "name": "spender",
          "type": "address"
        }
      ],
      "name": "allowance",
      "outputs": [
        {
          "internalType": "uint256",
          "name": "",
          "type": "uint256"
        }
      ],
      "stateMutability": "view",
      "type": "function"
    },
    {
      "inputs": [
        {
          "internalType": "address",
          "name": "owner",
          "type": "address"
        },
        {
          "internalType": "address",
          "name": "recipient",
          "type": "address"
        },
        {
          "internalType": "uint256",
          "name": "amount",
          "type": "uint256"
        }
      ],
      "name": "transferFrom",
      "outputs": [],
      "stateMutability": "nonpayable",
      "type": "function"
    },
    {
      "inputs": [
        {
          "internalType": "address",
          "name": "account",
          "type": "address"
        },
        {
          "internalType": "uint256",
          "name": "amount",
          "type": "uint256"
        }
      ],
      "name": "mint",
      "outputs": [],
      "stateMutability": "nonpayable",
      "type": "function"
    },
    {
      "inputs": [
        {
          "internalType": "address",
          "name": "account",
          "type": "address"
        },
        {
          "internalType": "uint256",
          "name": "amount",
          "type": "uint256"
        }
      ],
      "name": "burn",
      "outputs": [],
      "stateMutability": "nonpayable",
      "type": "function"
    }
  ],
  "bytecode": "0x6080604052600060075560006008553480156200001b57600080fd5b50604051620026223803806200262283398181016040528101906200004191906200030c565b826005908051906020019062000059929190620001d3565b50816006908051906020019062000072929190620001d3565b5060016000803373ffffffffffffffffffffffffffffffffffffffff1673ffffffffffffffffffffffffffffffffffffffff16815260200190815260200160002060006101000a81548160ff02191690831515021790555033600360006101000a81548173ffffffffffffffffffffffffffffffffffffffff021916908373ffffffffffffffffffffffffffffffffffffffff1602179055508060088190555083600481905550600454600160003373ffffffffffffffffffffffffffffffffffffffff1673ffffffffffffffffffffffffffffffffffffffff168152602001908152602001600020819055503373ffffffffffffffffffffffffffffffffffffffff16600073ffffffffffffffffffffffffffffffffffffffff167fddf252ad1be2c89b69c2b068fc378daa952ba7f163c4a11628f55a4df523b3ef600454604051620001c19190620003bb565b60405180910390a3505050506200052d565b828054620001e1906200047f565b90600052602060002090601f01602090048101928262000205576000855562000251565b82601f106200022057805160ff191683800117855562000251565b8280016001018555821562000251579182015b828111156200025057825182559160200191906001019062000233565b5b50905062000260919062000264565b5090565b5b808211156200027f57600081600090555060010162000265565b5090565b60006200029a62000294846200040c565b620003d8565b905082815260208101848484011115620002b357600080fd5b620002c084828562000449565b509392505050565b600082601f830112620002da57600080fd5b8151620002ec84826020860162000283565b91505092915050565b600081519050620003068162000513565b92915050565b600080600080608085870312156200032357600080fd5b60006200033387828801620002f5565b945050602085015167ffffffffffffffff8111156200035157600080fd5b6200035f87828801620002c8565b935050604085015167ffffffffffffffff8111156200037d57600080fd5b6200038b87828801620002c8565b92505060606200039e87828801620002f5565b91505092959194509250565b620003b5816200043f565b82525050565b6000602082019050620003d26000830184620003aa565b92915050565b6000604051905081810181811067ffffffffffffffff82111715620004025762000401620004e4565b5b8060405250919050565b600067ffffffffffffffff8211156200042a5762000429620004e4565b5b601f19601f8301169050602081019050919050565b6000819050919050565b60005b83811015620004695780820151818401526020810190506200044c565b8381111562000479576000848401525b50505050565b600060028204905060018216806200049857607f821691505b60208210811415620004af57620004ae620004b5565b5b50919050565b7f4e487b7100000000000000000000000000000000000000000000000000000000600052602260045260246000fd5b7f4e487b7100000000000000000000000000000000000000000000000000000000600052604160045260246000fd5b6200051e816200043f565b81146200052a57600080fd5b50565b6120e5806200053d6000396000f3fe608060405234801561001057600080fd5b50600436106101375760003560e01c80637f4ab1dd116100b8578063a9059cbb1161007c578063a9059cbb14610316578063b7ecbaae14610332578063d4ce14151461034e578063dd62ed3e1461037e578063f2fde38b146103ae578063f3c6e993146103ca57610137565b80637f4ab1dd14610272578063893d20e8146102a257806394a7ef15146102c057806395d89b41146102dc5780639dc29fac146102fa57610137565b806340c10f19116100ff57806340c10f19146101ce57806345968836146101ea57806362a3d4bd146102085780636401ca761461022457806370a082311461024257610137565b806306fdde031461013c578063095ea7b31461015a57806318160ddd1461017657806323b872dd14610194578063313ce567146101b0575b600080fd5b6101446103fa565b6040516101519190611e23565b60405180910390f35b610174600480360381019061016f9190611caa565b610488565b005b61017e610652565b60405161018b9190611e65565b60405180910390f35b6101ae60048036038101906101a99190611c5b565b610658565b005b6101b86109f7565b6040516101c59190611e65565b60405180910390f35b6101e860048036038101906101e39190611caa565b6109fc565b005b6101f2610c4f565b6040516101ff9190611e65565b60405180910390f35b610222600480360381019061021d9190611ce6565b610c55565b005b61022c610cef565b6040516102399190611e65565b60405180910390f35b61025c60048036038101906102579190611bf6565b610cf5565b6040516102699190611e65565b60405180910390f35b61028c60048036038101906102879190611d0f565b610d3e565b6040516102999190611e23565b60405180910390f35b6102aa610dc7565b6040516102b79190611ded565b60405180910390f35b6102da60048036038101906102d59190611bf6565b610df1565b005b6102e4610edb565b6040516102f19190611e23565b60405180910390f35b610314600480360381019061030f9190611caa565b610f69565b005b610330600480360381019061032b9190611caa565b611277565b005b61034c60048036038101906103479190611bf6565b6114b7565b005b61036860048036038101906103639190611c5b565b611598565b6040516103759190611e80565b60405180910390f35b61039860048036038101906103939190611c1f565b6116d4565b6040516103a59190611e65565b60405180910390f35b6103c860048036038101906103c39190611bf6565b61175b565b005b6103e460048036038101906103df9190611bf6565b6118d8565b6040516103f19190611e08565b60405180910390f35b6005805461040790611fc9565b80601f016020809104026020016040519081016040528092919081815260200182805461043390611fc9565b80156104805780601f1061045557610100808354040283529160200191610480565b820191906000526020600020905b81548152906001019060200180831161046357829003601f168201915b505050505081565b600073ffffffffffffffffffffffffffffffffffffffff168273ffffffffffffffffffffffffffffffffffffffff1614156040518060400160405280601281526020017f41646472657373205a65726f204572726f72000000000000000000000000000081525090610530576040517f08c379a00000000000000000000000000000000000000000000000000000000081526004016105279190611e23565b60405180910390fd5b5060008111610568577f4e487b7100000000000000000000000000000000000000000000000000000000600052600160045260246000fd5b80600260003373ffffffffffffffffffffffffffffffffffffffff1673ffffffffffffffffffffffffffffffffffffffff16815260200190815260200160002060008473ffffffffffffffffffffffffffffffffffffffff1673ffffffffffffffffffffffffffffffffffffffff168152602001908152602001600020819055508173ffffffffffffffffffffffffffffffffffffffff163373ffffffffffffffffffffffffffffffffffffffff167f8c5be1e5ebec7d5bd14f71427d1e84f3dd0314c0f7b2291e5b200ac8c7c3b925836040516106469190611e65565b60405180910390a35050565b60045481565b8282826000610668848484611598565b905060018160ff161461067a82610d3e565b906106bb576040517f08c379a00000000000000000000000000000000000000000000000000000000081526004016106b29190611e23565b60405180910390fd5b5084600160008973ffffffffffffffffffffffffffffffffffffffff1673ffffffffffffffffffffffffffffffffffffffff1681526020019081526020016000205410156040518060400160405280601581526020017f416d6f756e74204578636565642042616c616e6365000000000000000000000081525090610776576040517f08c379a000000000000000000000000000000000000000000000000000000000815260040161076d9190611e23565b60405180910390fd5b5084600260008973ffffffffffffffffffffffffffffffffffffffff1673ffffffffffffffffffffffffffffffffffffffff16815260200190815260200160002060003373ffffffffffffffffffffffffffffffffffffffff1673ffffffffffffffffffffffffffffffffffffffff1681526020019081526020016000205410156040518060400160405280601581526020017f416d6f756e74204578636565642042616c616e636500000000000000000000008152509061086e576040517f08c379a00000000000000000000000000000000000000000000000000000000081526004016108659190611e23565b60405180910390fd5b5061087a87878761192d565b61090985600260008a73ffffffffffffffffffffffffffffffffffffffff1673ffffffffffffffffffffffffffffffffffffffff16815260200190815260200160002060003373ffffffffffffffffffffffffffffffffffffffff1673ffffffffffffffffffffffffffffffffffffffff16815260200190815260200160002054611b1890919063ffffffff16565b600260008973ffffffffffffffffffffffffffffffffffffffff1673ffffffffffffffffffffffffffffffffffffffff16815260200190815260200160002060003373ffffffffffffffffffffffffffffffffffffffff1673ffffffffffffffffffffffffffffffffffffffff168152602001908152602001600020819055508573ffffffffffffffffffffffffffffffffffffffff168773ffffffffffffffffffffffffffffffffffffffff167fddf252ad1be2c89b69c2b068fc378daa952ba7f163c4a11628f55a4df523b3ef876040516109e69190611e65565b60405180910390a350505050505050565b601281565b3373ffffffffffffffffffffffffffffffffffffffff16600360009054906101000a900473ffffffffffffffffffffffffffffffffffffffff1673ffffffffffffffffffffffffffffffffffffffff1614610a8c576040517f08c379a0000000000000000000000000000000000000000000000000000000008152600401610a8390611e45565b60405180910390fd5b600073ffffffffffffffffffffffffffffffffffffffff168273ffffffffffffffffffffffffffffffffffffffff1614156040518060400160405280601281526020017f41646472657373205a65726f204572726f72000000000000000000000000000081525090610b34576040517f08c379a0000000000000000000000000000000000000000000000000000000008152600401610b2b9190611e23565b60405180910390fd5b50610b4a81600454611b6590919063ffffffff16565b600481905550610ba281600160008573ffffffffffffffffffffffffffffffffffffffff1673ffffffffffffffffffffffffffffffffffffffff16815260200190815260200160002054611b6590919063ffffffff16565b600160008473ffffffffffffffffffffffffffffffffffffffff1673ffffffffffffffffffffffffffffffffffffffff168152602001908152602001600020819055508173ffffffffffffffffffffffffffffffffffffffff16600073ffffffffffffffffffffffffffffffffffffffff167fddf252ad1be2c89b69c2b068fc378daa952ba7f163c4a11628f55a4df523b3ef83604051610c439190611e65565b60405180910390a35050565b60075481565b3373ffffffffffffffffffffffffffffffffffffffff16600360009054906101000a900473ffffffffffffffffffffffffffffffffffffffff1673ffffffffffffffffffffffffffffffffffffffff1614610ce5576040517f08c379a0000000000000000000000000000000000000000000000000000000008152600401610cdc90611e45565b60405180910390fd5b8060088190555050565b60085481565b6000600160008373ffffffffffffffffffffffffffffffffffffffff1673ffffffffffffffffffffffffffffffffffffffff168152602001908152602001600020549050919050565b606060018260ff161415610d89576040518060400160405280600b81526020017f57686974656c69737465640000000000000000000000000000000000000000008152509050610dc2565b6040518060400160405280600f81526020017f4e6f742057686974656c6973746564000000000000000000000000000000000081525090505b919050565b6000600360009054906101000a900473ffffffffffffffffffffffffffffffffffffffff16905090565b3373ffffffffffffffffffffffffffffffffffffffff16600360009054906101000a900473ffffffffffffffffffffffffffffffffffffffff1673ffffffffffffffffffffffffffffffffffffffff1614610e81576040517f08c379a0000000000000000000000000000000000000000000000000000000008152600401610e7890611e45565b60405180910390fd5b60016000808373ffffffffffffffffffffffffffffffffffffffff1673ffffffffffffffffffffffffffffffffffffffff16815260200190815260200160002060006101000a81548160ff02191690831515021790555050565b60068054610ee890611fc9565b80601f0160208091040260200160405190810160405280929190818152602001828054610f1490611fc9565b8015610f615780601f10610f3657610100808354040283529160200191610f61565b820191906000526020600020905b815481529060010190602001808311610f4457829003601f168201915b505050505081565b3373ffffffffffffffffffffffffffffffffffffffff16600360009054906101000a900473ffffffffffffffffffffffffffffffffffffffff1673ffffffffffffffffffffffffffffffffffffffff1614610ff9576040517f08c379a0000000000000000000000000000000000000000000000000000000008152600401610ff090611e45565b60405180910390fd5b600073ffffffffffffffffffffffffffffffffffffffff168273ffffffffffffffffffffffffffffffffffffffff1614156040518060400160405280601281526020017f41646472657373205a65726f204572726f720000000000000000000000000000815250906110a1576040517f08c379a00000000000000000000000000000000000000000000000000000000081526004016110989190611e23565b60405180910390fd5b5080600160008473ffffffffffffffffffffffffffffffffffffffff1673ffffffffffffffffffffffffffffffffffffffff1681526020019081526020016000205410156040518060400160405280601581526020017f416d6f756e74204578636565642042616c616e636500000000000000000000008152509061115c576040517f08c379a00000000000000000000000000000000000000000000000000000000081526004016111539190611e23565b60405180910390fd5b5061117281600454611b1890919063ffffffff16565b6004819055506111ca81600160008573ffffffffffffffffffffffffffffffffffffffff1673ffffffffffffffffffffffffffffffffffffffff16815260200190815260200160002054611b1890919063ffffffff16565b600160008473ffffffffffffffffffffffffffffffffffffffff1673ffffffffffffffffffffffffffffffffffffffff16815260200190815260200160002081905550600073ffffffffffffffffffffffffffffffffffffffff168273ffffffffffffffffffffffffffffffffffffffff167fddf252ad1be2c89b69c2b068fc378daa952ba7f163c4a11628f55a4df523b3ef8360405161126b9190611e65565b60405180910390a35050565b3382826000611287848484611598565b905060018160ff161461129982610d3e565b906112da576040517f08c379a00000000000000000000000000000000000000000000000000000000081526004016112d19190611e23565b60405180910390fd5b50600073ffffffffffffffffffffffffffffffffffffffff168673ffffffffffffffffffffffffffffffffffffffff1614156040518060400160405280601281526020017f41646472657373205a65726f204572726f72000000000000000000000000000081525090611383576040517f08c379a000000000000000000000000000000000000000000000000000000000815260040161137a9190611e23565b60405180910390fd5b5084600160003373ffffffffffffffffffffffffffffffffffffffff1673ffffffffffffffffffffffffffffffffffffffff1681526020019081526020016000205410156040518060400160405280601581526020017f416d6f756e74204578636565642042616c616e636500000000000000000000008152509061143e576040517f08c379a00000000000000000000000000000000000000000000000000000000081526004016114359190611e23565b60405180910390fd5b5061144a33878761192d565b8573ffffffffffffffffffffffffffffffffffffffff163373ffffffffffffffffffffffffffffffffffffffff167fddf252ad1be2c89b69c2b068fc378daa952ba7f163c4a11628f55a4df523b3ef876040516114a79190611e65565b60405180910390a3505050505050565b3373ffffffffffffffffffffffffffffffffffffffff16600360009054906101000a900473ffffffffffffffffffffffffffffffffffffffff1673ffffffffffffffffffffffffffffffffffffffff1614611547576040517f08c379a000000000000000000000000000000000000000000000000000000000815260040161153e90611e45565b60405180910390fd5b6000808273ffffffffffffffffffffffffffffffffffffffff1673ffffffffffffffffffffffffffffffffffffffff16815260200190815260200160002060006101000a81549060ff021916905550565b60008060008473ffffffffffffffffffffffffffffffffffffffff1673ffffffffffffffffffffffffffffffffffffffff16815260200190815260200160002060009054906101000a900460ff16156116c8576000808573ffffffffffffffffffffffffffffffffffffffff1673ffffffffffffffffffffffffffffffffffffffff16815260200190815260200160002060009054906101000a900460ff16156116bf576000600854141561165057600190506116cd565b6000600160008573ffffffffffffffffffffffffffffffffffffffff1673ffffffffffffffffffffffffffffffffffffffff1681526020019081526020016000205411156116a157600190506116cd565b60085460075410156116b657600190506116cd565b600090506116cd565b600090506116cd565b600090505b9392505050565b6000600260008473ffffffffffffffffffffffffffffffffffffffff1673ffffffffffffffffffffffffffffffffffffffff16815260200190815260200160002060008373ffffffffffffffffffffffffffffffffffffffff1673ffffffffffffffffffffffffffffffffffffffff16815260200190815260200160002054905092915050565b3373ffffffffffffffffffffffffffffffffffffffff16600360009054906101000a900473ffffffffffffffffffffffffffffffffffffffff1673ffffffffffffffffffffffffffffffffffffffff16146117eb576040517f08c379a00000000000000000000000000000000000000000000000000000000081526004016117e290611e45565b60405180910390fd5b600073ffffffffffffffffffffffffffffffffffffffff168173ffffffffffffffffffffffffffffffffffffffff1614156040518060400160405280601281526020017f41646472657373205a65726f204572726f72000000000000000000000000000081525090611893576040517f08c379a000000000000000000000000000000000000000000000000000000000815260040161188a9190611e23565b60405180910390fd5b5080600360006101000a81548173ffffffffffffffffffffffffffffffffffffffff021916908373ffffffffffffffffffffffffffffffffffffffff16021790555050565b60008060008373ffffffffffffffffffffffffffffffffffffffff1673ffffffffffffffffffffffffffffffffffffffff16815260200190815260200160002060009054906101000a900460ff169050919050565b61197f81600160008673ffffffffffffffffffffffffffffffffffffffff1673ffffffffffffffffffffffffffffffffffffffff16815260200190815260200160002054611b1890919063ffffffff16565b600160008573ffffffffffffffffffffffffffffffffffffffff1673ffffffffffffffffffffffffffffffffffffffff168152602001908152602001600020819055506000600160008573ffffffffffffffffffffffffffffffffffffffff1673ffffffffffffffffffffffffffffffffffffffff168152602001908152602001600020541415611a20576001600754611a199190611f0d565b6007819055505b6000600160008473ffffffffffffffffffffffffffffffffffffffff1673ffffffffffffffffffffffffffffffffffffffff168152602001908152602001600020541415611a7e576001600754611a779190611eb7565b6007819055505b611ad081600160008573ffffffffffffffffffffffffffffffffffffffff1673ffffffffffffffffffffffffffffffffffffffff16815260200190815260200160002054611b6590919063ffffffff16565b600160008473ffffffffffffffffffffffffffffffffffffffff1673ffffffffffffffffffffffffffffffffffffffff16815260200190815260200160002081905550505050565b600082821115611b51577f4e487b7100000000000000000000000000000000000000000000000000000000600052600160045260246000fd5b8183611b5d9190611f0d565b905092915050565b6000808284611b749190611eb7565b905083811015611bad577f4e487b7100000000000000000000000000000000000000000000000000000000600052600160045260246000fd5b8091505092915050565b600081359050611bc68161206a565b92915050565b600081359050611bdb81612081565b92915050565b600081359050611bf081612098565b92915050565b600060208284031215611c0857600080fd5b6000611c1684828501611bb7565b91505092915050565b60008060408385031215611c3257600080fd5b6000611c4085828601611bb7565b9250506020611c5185828601611bb7565b9150509250929050565b600080600060608486031215611c7057600080fd5b6000611c7e86828701611bb7565b9350506020611c8f86828701611bb7565b9250506040611ca086828701611bcc565b9150509250925092565b60008060408385031215611cbd57600080fd5b6000611ccb85828601611bb7565b9250506020611cdc85828601611bcc565b9150509250929050565b600060208284031215611cf857600080fd5b6000611d0684828501611bcc565b91505092915050565b600060208284031215611d2157600080fd5b6000611d2f84828501611be1565b91505092915050565b611d4181611f41565b82525050565b611d5081611f53565b82525050565b6000611d6182611e9b565b611d6b8185611ea6565b9350611d7b818560208601611f96565b611d8481612059565b840191505092915050565b6000611d9c600983611ea6565b91507f4e6f74204f776e657200000000000000000000000000000000000000000000006000830152602082019050919050565b611dd881611f7f565b82525050565b611de781611f89565b82525050565b6000602082019050611e026000830184611d38565b92915050565b6000602082019050611e1d6000830184611d47565b92915050565b60006020820190508181036000830152611e3d8184611d56565b905092915050565b60006020820190508181036000830152611e5e81611d8f565b9050919050565b6000602082019050611e7a6000830184611dcf565b92915050565b6000602082019050611e956000830184611dde565b92915050565b600081519050919050565b600082825260208201905092915050565b6000611ec282611f7f565b9150611ecd83611f7f565b9250827fffffffffffffffffffffffffffffffffffffffffffffffffffffffffffffffff03821115611f0257611f01611ffb565b5b828201905092915050565b6000611f1882611f7f565b9150611f2383611f7f565b925082821015611f3657611f35611ffb565b5b828203905092915050565b6000611f4c82611f5f565b9050919050565b60008115159050919050565b600073ffffffffffffffffffffffffffffffffffffffff82169050919050565b6000819050919050565b600060ff82169050919050565b60005b83811015611fb4578082015181840152602081019050611f99565b83811115611fc3576000848401525b50505050565b60006002820490506001821680611fe157607f821691505b60208210811415611ff557611ff461202a565b5b50919050565b7f4e487b7100000000000000000000000000000000000000000000000000000000600052601160045260246000fd5b7f4e487b7100000000000000000000000000000000000000000000000000000000600052602260045260246000fd5b6000601f19601f8301169050919050565b61207381611f41565b811461207e57600080fd5b50565b61208a81611f7f565b811461209557600080fd5b50565b6120a181611f89565b81146120ac57600080fd5b5056fea26469706673582212209c0a01a01f3a0fc62927f4027115c2b1527034464045bb050e9f6a5985edc27464736f6c63430008000033",
  "immutableReferences": {},
  "source": "// SPDX-License-Identifier: MIT\n// This contract is minimum implementation of ERC1404 protocol without any libraries \npragma solidity ^0.8.0;\n\nimport \"./IERC1404.sol\";\nimport \"./SafeMathMin.sol\";\n\n\ncontract ERC1404TokenMin is IERC1404 {\n\n    using SafeMathMin for uint256;\n\n    mapping (address => bool) private _whitelisted;  \n\tmapping(address => uint256) private _balances;\n    mapping(address => mapping(address => uint256)) private _allowances;\n\taddress private _owner;\n\n    event Approval(address indexed tokenOwner, address indexed spender, uint tokens);\n    event Transfer(address indexed from, address indexed to, uint tokens);\n\n\tuint256 public constant decimals = 18;\n    uint256 public totalSupply;\n    string public name;\n    string public symbol;\n\tuint256 public currentTotalInvestors = 0;\n\tuint256 public allowedInvestors = 0;\n\t\n\tstring private constant AddressZeroMessage = \"Address Zero Error\";\n\tstring private constant AmountExceedBalance = \"Amount Exceed Balance\";\t\n\n\tconstructor(uint256 _initialSupply, string memory _name,  string memory _symbol, uint256 _allowedInvestors ) {\n\t\tname = _name;\n        symbol = _symbol;\n\n\t\t_whitelisted[msg.sender] = true;\n\t\t_owner = msg.sender;\n\n\t\tallowedInvestors = _allowedInvestors;\n\n\t\t// Minting tokens for initial supply\n        totalSupply = _initialSupply;\n        _balances[msg.sender] = totalSupply;\n\t\t\t\t\n\t\temit Transfer(address(0), msg.sender, totalSupply);\n\t}\n\n\n\n    function resetAllowedInvestors(uint256 _allowedInvestors) \n\tpublic \n\tonlyOwner {\n\t\t allowedInvestors = _allowedInvestors;\n    }\n\n\n    function getOwner() \n\tpublic \n\tview \n\treturns (address) {\n        return _owner;\n    }\n    modifier onlyOwner() {\n        require(_owner == msg.sender, \"Not Owner\");\n        _;\n    }\n    function transferOwnership(address newOwner) \n\tpublic \n\tonlyOwner {\n        require(newOwner != address(0), AddressZeroMessage);\n\t\t_owner = newOwner;\n    }\n\n\n\n\t  function addWhitelistAddress (address user) \n\t  public \n\t  onlyOwner \n\t  { \n\t\t  _whitelisted[user] = true; \n\t  }\n\t  \n\t  function removeWhitelistAddress (address user) \n\t  public \n\t  onlyOwner\n\t  { \n\t\t  delete _whitelisted[user];\n\t  }\n\t  \n\t  function isInvestorWhiteListed(address user) \n\t  public \n\t  view\n\t  returns (bool) {\n\t\t   return _whitelisted[user]; \n\t  }\n\t  \n\t  \n\t  \n\t  \n\t  \n\n    modifier notRestricted (address from, address to, uint256 value) {\n        uint8 restrictionCode = detectTransferRestriction(from, to, value);\n        require(restrictionCode == 1, messageForTransferRestriction(restrictionCode));\n        _;\n    }\n\n    function detectTransferRestriction (address _from, address _to, uint256 value) \n\toverride\n\tpublic \n\tview \n\treturns (uint8)\n    {\n\t\t  if (_whitelisted[_to])\n\t\t  {\n\t\t\t if (_whitelisted[_from]) {\n\n\t\t\t\t\t\tif(allowedInvestors == 0)\n\t\t\t\t\t\t\treturn 1;\n\t\t\t\t\t\telse {\n\t\t\t\t\t\t\tif( _balances[_to] > 0 ) \n\t\t\t\t\t\t\t\treturn 1;\n\t\t\t\t\t\t\telse {\n\t\t\t\t\t\t\t\tif(  currentTotalInvestors < allowedInvestors  )\n\t\t\t\t\t\t\t\t\treturn 1;\n\t\t\t\t\t\t\t\telse\n\t\t\t\t\t\t\t\t\treturn 0;\n\t\t\t\t\t\t\t}\n\t\t\t\t\t\t}\n\n\t\t\t} else\n\t\t\t\treturn 0;\n\t\t  } else\n\t\t\t  return 0;\n    }\n\n    function messageForTransferRestriction (uint8 restrictionCode)\n\toverride\n    public\t\n    pure returns (string memory message)\n    {\n        if (restrictionCode == 1) \n            message = \"Whitelisted\";\n         else \n            message = \"Not Whitelisted\";\n    }\n\n\n\n\n\n\n\n\n    function balanceOf(address account) \n    public \n    view \n    returns (uint256) {\n        return _balances[account];\n    }\n\t\n\n    function transfer(\n        address recipient,\n        uint256 amount\n    ) \t\n\tpublic \n\tnotRestricted (msg.sender, recipient, amount)\n\t{\n        require(recipient != address(0), AddressZeroMessage);\n        require(_balances[msg.sender] >= amount, AmountExceedBalance);\n\t\t\t\t\n\t\ttransferSharesBetweenInvestors ( msg.sender, recipient, amount );\n\t\t\n        emit Transfer(msg.sender, recipient, amount);\n    }\n\n\n\n    function approve(\n        address spender,\n        uint256 amount\n    ) public {\n        require(spender != address(0), AddressZeroMessage);\n\t\tassert(amount > 0);\n\n        _allowances[msg.sender][spender] = amount;\n        emit Approval(msg.sender, spender, amount);\n    }\n\n\n    function allowance(address owner, address spender) \n\tpublic \n\tview \n\treturns (uint256) {\n        return _allowances[owner][spender];\n    }\t\n\n\n    function transferFrom(\n        address owner,\n        address recipient,\n        uint256 amount\n    ) \n\tpublic \n\tnotRestricted (owner, recipient, amount)\n\t{\t\n        require(_balances[owner] >= amount, AmountExceedBalance);\n        require(_allowances[owner][msg.sender] >= amount, AmountExceedBalance );\n\n\t\ttransferSharesBetweenInvestors ( owner, recipient, amount );\n        _allowances[owner][msg.sender] = _allowances[owner][msg.sender].sub(amount);\n\t\t\n        emit Transfer(owner, recipient, amount);\t\n    }\n\n\n\n\tfunction transferSharesBetweenInvestors(\n        address sender,\n        address recipient,\n        uint256 amount\t\n\t)\n\tinternal\n\t{\n\t\t\t_balances[sender] = _balances[sender].sub(amount);\n\t\t\tif( _balances[sender] == 0 )\n\t\t\t\tcurrentTotalInvestors = currentTotalInvestors - 1;\t\t\n\n\t\t\tif( _balances[recipient] == 0 )\n\t\t\t\tcurrentTotalInvestors = currentTotalInvestors + 1;\n\t\t\t_balances[recipient] = _balances[recipient].add(amount);\n\t}\n\n\n\n    function mint(address account, uint256 amount) \n\tonlyOwner \n\tpublic {\n        require(account != address(0), AddressZeroMessage);\n\n        totalSupply = totalSupply.add(amount);\n        _balances[account] = _balances[account].add(amount);\n        emit Transfer(address(0), account, amount);\n    }\n\n\n    function burn(address account, uint256 amount) \n\tonlyOwner\n\tpublic {\n        require(account != address(0), AddressZeroMessage);\n        require(_balances[account] >= amount, AmountExceedBalance);\n\n        totalSupply = totalSupply.sub(amount);\n        _balances[account] = _balances[account].sub(amount);\n\n        emit Transfer(account, address(0), amount);\n    }\n\n}\n \n\n\n\n",
  "sourcePath": "/home/shahzad/Shahzad/projects/git/ERC1404/contracts/ERC1404TokenMin.sol",
  "compiler": {
    "name": "solc",
    "version": "0.8.0+commit.c7dfd78e.Emscripten.clang"
  },
  "schemaVersion": "3.3.4",
  "updatedAt": "2021-11-05T10:48:03.283Z",
  "devdoc": {
    "kind": "dev",
    "methods": {
      "messageForTransferRestriction(uint8)": {
        "details": "Overwrite with your custom message and restrictionCode handling",
        "params": {
          "restrictionCode": "Identifier for looking up a message"
        },
        "returns": {
          "message": "Text showing the restriction's reasoning"
        }
      }
    },
    "version": 1
  },
  "userdoc": {
    "kind": "user",
    "methods": {
      "messageForTransferRestriction(uint8)": {
        "notice": "Returns a human-readable message for a given restriction code"
      }
    },
    "version": 1
  }
}