{
  "contractName": "ERC1404TokenMinKYC",
  "abi": [
    {
      "inputs": [
        {
          "internalType": "uint256",
          "name": "_initialSupply",
          "type": "uint256"
        },
        {
          "internalType": "string",
          "name": "_name",
          "type": "string"
        },
        {
          "internalType": "string",
          "name": "_symbol",
          "type": "string"
        },
        {
          "internalType": "uint256",
          "name": "_allowedInvestors",
          "type": "uint256"
        },
        {
          "internalType": "uint256",
          "name": "_decimals",
          "type": "uint256"
        }
      ],
      "stateMutability": "nonpayable",
      "type": "constructor"
    },
    {
      "anonymous": false,
      "inputs": [
        {
          "indexed": true,
          "internalType": "address",
          "name": "tokenOwner",
          "type": "address"
        },
        {
          "indexed": true,
          "internalType": "address",
          "name": "spender",
          "type": "address"
        },
        {
          "indexed": false,
          "internalType": "uint256",
          "name": "tokens",
          "type": "uint256"
        }
      ],
      "name": "Approval",
      "type": "event"
    },
    {
      "anonymous": false,
      "inputs": [
        {
          "indexed": true,
          "internalType": "address",
          "name": "from",
          "type": "address"
        },
        {
          "indexed": true,
          "internalType": "address",
          "name": "to",
          "type": "address"
        },
        {
          "indexed": false,
          "internalType": "uint256",
          "name": "tokens",
          "type": "uint256"
        }
      ],
      "name": "Transfer",
      "type": "event"
    },
    {
      "inputs": [],
      "name": "allowedInvestors",
      "outputs": [
        {
          "internalType": "uint256",
          "name": "",
          "type": "uint256"
        }
      ],
      "stateMutability": "view",
      "type": "function"
    },
    {
      "inputs": [],
      "name": "currentTotalInvestors",
      "outputs": [
        {
          "internalType": "uint256",
          "name": "",
          "type": "uint256"
        }
      ],
      "stateMutability": "view",
      "type": "function"
    },
    {
      "inputs": [],
      "name": "decimals",
      "outputs": [
        {
          "internalType": "uint256",
          "name": "",
          "type": "uint256"
        }
      ],
      "stateMutability": "view",
      "type": "function"
    },
    {
      "inputs": [],
      "name": "isTradingAllowed",
      "outputs": [
        {
          "internalType": "uint256",
          "name": "",
          "type": "uint256"
        }
      ],
      "stateMutability": "view",
      "type": "function"
    },
    {
      "inputs": [],
      "name": "name",
      "outputs": [
        {
          "internalType": "string",
          "name": "",
          "type": "string"
        }
      ],
      "stateMutability": "view",
      "type": "function"
    },
    {
      "inputs": [],
      "name": "symbol",
      "outputs": [
        {
          "internalType": "string",
          "name": "",
          "type": "string"
        }
      ],
      "stateMutability": "view",
      "type": "function"
    },
    {
      "inputs": [],
      "name": "totalSupply",
      "outputs": [
        {
          "internalType": "uint256",
          "name": "",
          "type": "uint256"
        }
      ],
      "stateMutability": "view",
      "type": "function"
    },
    {
      "inputs": [
        {
          "internalType": "uint256",
          "name": "_allowedInvestors",
          "type": "uint256"
        }
      ],
      "name": "resetAllowedInvestors",
      "outputs": [],
      "stateMutability": "nonpayable",
      "type": "function"
    },
    {
      "inputs": [
        {
          "internalType": "uint256",
          "name": "_isTradingAllowed",
          "type": "uint256"
        }
      ],
      "name": "setTradingEnabled",
      "outputs": [],
      "stateMutability": "nonpayable",
      "type": "function"
    },
    {
      "inputs": [],
      "name": "owner",
      "outputs": [
        {
          "internalType": "address",
          "name": "",
          "type": "address"
        }
      ],
      "stateMutability": "view",
      "type": "function"
    },
    {
      "inputs": [
        {
          "internalType": "address",
          "name": "newOwner",
          "type": "address"
        }
      ],
      "name": "transferOwnership",
      "outputs": [],
      "stateMutability": "nonpayable",
      "type": "function"
    },
    {
      "inputs": [
        {
          "internalType": "address",
          "name": "user",
          "type": "address"
        }
      ],
      "name": "setWhitelistAuthorityStatus",
      "outputs": [],
      "stateMutability": "nonpayable",
      "type": "function"
    },
    {
      "inputs": [
        {
          "internalType": "address",
          "name": "user",
          "type": "address"
        }
      ],
      "name": "removeWhitelistAuthorityStatus",
      "outputs": [],
      "stateMutability": "nonpayable",
      "type": "function"
    },
    {
      "inputs": [
        {
          "internalType": "address",
          "name": "user",
          "type": "address"
        }
      ],
      "name": "getWhitelistAuthorityStatus",
      "outputs": [
        {
          "internalType": "bool",
          "name": "",
          "type": "bool"
        }
      ],
      "stateMutability": "view",
      "type": "function"
    },
    {
      "inputs": [
        {
          "internalType": "address",
          "name": "user",
          "type": "address"
        },
        {
          "internalType": "uint256",
          "name": "buyRestriction",
          "type": "uint256"
        },
        {
          "internalType": "uint256",
          "name": "sellRestriction",
          "type": "uint256"
        }
      ],
      "name": "modifyKYCData",
      "outputs": [],
      "stateMutability": "nonpayable",
      "type": "function"
    },
    {
      "inputs": [
        {
          "internalType": "address",
          "name": "user",
          "type": "address"
        }
      ],
      "name": "getKYCData",
      "outputs": [
        {
          "internalType": "uint256",
          "name": "",
          "type": "uint256"
        },
        {
          "internalType": "uint256",
          "name": "",
          "type": "uint256"
        }
      ],
      "stateMutability": "view",
      "type": "function"
    },
    {
      "inputs": [
        {
          "internalType": "address",
          "name": "_from",
          "type": "address"
        },
        {
          "internalType": "address",
          "name": "_to",
          "type": "address"
        },
        {
          "internalType": "uint256",
          "name": "value",
          "type": "uint256"
        }
      ],
      "name": "detectTransferRestriction",
      "outputs": [
        {
          "internalType": "uint8",
          "name": "",
          "type": "uint8"
        }
      ],
      "stateMutability": "view",
      "type": "function"
    },
    {
      "inputs": [
        {
          "internalType": "uint8",
          "name": "restrictionCode",
          "type": "uint8"
        }
      ],
      "name": "messageForTransferRestriction",
      "outputs": [
        {
          "internalType": "string",
          "name": "message",
          "type": "string"
        }
      ],
      "stateMutability": "pure",
      "type": "function"
    },
    {
      "inputs": [
        {
          "internalType": "address",
          "name": "account",
          "type": "address"
        }
      ],
      "name": "balanceOf",
      "outputs": [
        {
          "internalType": "uint256",
          "name": "",
          "type": "uint256"
        }
      ],
      "stateMutability": "view",
      "type": "function"
    },
    {
      "inputs": [
        {
          "internalType": "address",
          "name": "recipient",
          "type": "address"
        },
        {
          "internalType": "uint256",
          "name": "amount",
          "type": "uint256"
        }
      ],
      "name": "transfer",
      "outputs": [],
      "stateMutability": "nonpayable",
      "type": "function"
    },
    {
      "inputs": [
        {
          "internalType": "address",
          "name": "spender",
          "type": "address"
        },
        {
          "internalType": "uint256",
          "name": "amount",
          "type": "uint256"
        }
      ],
      "name": "approve",
      "outputs": [],
      "stateMutability": "nonpayable",
      "type": "function"
    },
    {
      "inputs": [
        {
          "internalType": "address",
          "name": "owner",
          "type": "address"
        },
        {
          "internalType": "address",
          "name": "spender",
          "type": "address"
        }
      ],
      "name": "allowance",
      "outputs": [
        {
          "internalType": "uint256",
          "name": "",
          "type": "uint256"
        }
      ],
      "stateMutability": "view",
      "type": "function"
    },
    {
      "inputs": [
        {
          "internalType": "address",
          "name": "owner",
          "type": "address"
        },
        {
          "internalType": "address",
          "name": "recipient",
          "type": "address"
        },
        {
          "internalType": "uint256",
          "name": "amount",
          "type": "uint256"
        }
      ],
      "name": "transferFrom",
      "outputs": [],
      "stateMutability": "nonpayable",
      "type": "function"
    },
    {
      "inputs": [
        {
          "internalType": "address",
          "name": "account",
          "type": "address"
        },
        {
          "internalType": "uint256",
          "name": "amount",
          "type": "uint256"
        }
      ],
      "name": "mint",
      "outputs": [],
      "stateMutability": "nonpayable",
      "type": "function"
    },
    {
      "inputs": [
        {
          "internalType": "address",
          "name": "account",
          "type": "address"
        },
        {
          "internalType": "uint256",
          "name": "amount",
          "type": "uint256"
        }
      ],
      "name": "burn",
      "outputs": [],
      "stateMutability": "nonpayable",
      "type": "function"
    }
  ],
  "bytecode": "0x608060405260126006556000600a556000600b556001600c553480156200002557600080fd5b5060405162002d2338038062002d2383398181016040528101906200004b9190620003a7565b8360089080519060200190620000639291906200026e565b5082600990805190602001906200007c9291906200026e565b508060068190555060016000803373ffffffffffffffffffffffffffffffffffffffff1673ffffffffffffffffffffffffffffffffffffffff1681526020019081526020016000208190555060018060003373ffffffffffffffffffffffffffffffffffffffff1673ffffffffffffffffffffffffffffffffffffffff1681526020019081526020016000208190555033600460006101000a81548173ffffffffffffffffffffffffffffffffffffffff021916908373ffffffffffffffffffffffffffffffffffffffff16021790555081600b8190555084600781905550600754600260003373ffffffffffffffffffffffffffffffffffffffff1673ffffffffffffffffffffffffffffffffffffffff168152602001908152602001600020819055506001600560003373ffffffffffffffffffffffffffffffffffffffff1673ffffffffffffffffffffffffffffffffffffffff16815260200190815260200160002060006101000a81548160ff0219169083151502179055503373ffffffffffffffffffffffffffffffffffffffff16600073ffffffffffffffffffffffffffffffffffffffff167fddf252ad1be2c89b69c2b068fc378daa952ba7f163c4a11628f55a4df523b3ef6007546040516200025b91906200046c565b60405180910390a35050505050620005de565b8280546200027c9062000530565b90600052602060002090601f016020900481019282620002a05760008555620002ec565b82601f10620002bb57805160ff1916838001178555620002ec565b82800160010185558215620002ec579182015b82811115620002eb578251825591602001919060010190620002ce565b5b509050620002fb9190620002ff565b5090565b5b808211156200031a57600081600090555060010162000300565b5090565b6000620003356200032f84620004bd565b62000489565b9050828152602081018484840111156200034e57600080fd5b6200035b848285620004fa565b509392505050565b600082601f8301126200037557600080fd5b8151620003878482602086016200031e565b91505092915050565b600081519050620003a181620005c4565b92915050565b600080600080600060a08688031215620003c057600080fd5b6000620003d08882890162000390565b955050602086015167ffffffffffffffff811115620003ee57600080fd5b620003fc8882890162000363565b945050604086015167ffffffffffffffff8111156200041a57600080fd5b620004288882890162000363565b93505060606200043b8882890162000390565b92505060806200044e8882890162000390565b9150509295509295909350565b6200046681620004f0565b82525050565b60006020820190506200048360008301846200045b565b92915050565b6000604051905081810181811067ffffffffffffffff82111715620004b357620004b262000595565b5b8060405250919050565b600067ffffffffffffffff821115620004db57620004da62000595565b5b601f19601f8301169050602081019050919050565b6000819050919050565b60005b838110156200051a578082015181840152602081019050620004fd565b838111156200052a576000848401525b50505050565b600060028204905060018216806200054957607f821691505b6020821081141562000560576200055f62000566565b5b50919050565b7f4e487b7100000000000000000000000000000000000000000000000000000000600052602260045260246000fd5b7f4e487b7100000000000000000000000000000000000000000000000000000000600052604160045260246000fd5b620005cf81620004f0565b8114620005db57600080fd5b50565b61273580620005ee6000396000f3fe608060405234801561001057600080fd5b50600436106101735760003560e01c80637f4ab1dd116100de578063ab47a2f911610097578063da76e2f311610071578063da76e2f314610425578063dd62ed3e14610441578063e837942114610471578063f2fde38b146104a157610173565b8063ab47a2f9146103a8578063c319e41c146103d9578063d4ce1415146103f557610173565b80637f4ab1dd146102e65780638da5cb5b1461031657806395d89b41146103345780639dc29fac14610352578063a48179ff1461036e578063a9059cbb1461038c57610173565b806340c10f191161013057806340c10f1914610226578063459688361461024257806357e637ad1461026057806362a3d4bd1461027c5780636401ca761461029857806370a08231146102b657610173565b806306fdde0314610178578063095ea7b31461019657806318160ddd146101b257806323b872dd146101d05780632b8e797a146101ec578063313ce56714610208575b600080fd5b6101806104bd565b60405161018d91906123ea565b60405180910390f35b6101b060048036038101906101ab9190612162565b61054b565b005b6101ba610721565b6040516101c7919061248c565b60405180910390f35b6101ea60048036038101906101e59190612113565b610727565b005b6102066004803603810190610201919061219e565b610ac6565b005b610210610be5565b60405161021d919061248c565b60405180910390f35b610240600480360381019061023b9190612162565b610beb565b005b61024a610e3e565b604051610257919061248c565b60405180910390f35b61027a600480360381019061027591906121ed565b610e44565b005b610296600480360381019061029191906121ed565b610ede565b005b6102a0610f78565b6040516102ad919061248c565b60405180910390f35b6102d060048036038101906102cb91906120ae565b610f7e565b6040516102dd919061248c565b60405180910390f35b61030060048036038101906102fb9190612216565b610fc7565b60405161030d91906123ea565b60405180910390f35b61031e611050565b60405161032b91906123b4565b60405180910390f35b61033c61107a565b60405161034991906123ea565b60405180910390f35b61036c60048036038101906103679190612162565b611108565b005b610376611416565b604051610383919061248c565b60405180910390f35b6103a660048036038101906103a19190612162565b61141c565b005b6103c260048036038101906103bd91906120ae565b61165c565b6040516103d09291906124a7565b60405180910390f35b6103f360048036038101906103ee91906120ae565b6116e7565b005b61040f600480360381019061040a9190612113565b6117d2565b60405161041c91906124d0565b60405180910390f35b61043f600480360381019061043a91906120ae565b611aa9565b005b61045b600480360381019061045691906120d7565b611b8b565b604051610468919061248c565b60405180910390f35b61048b600480360381019061048691906120ae565b611c12565b60405161049891906123cf565b60405180910390f35b6104bb60048036038101906104b691906120ae565b611c68565b005b600880546104ca90612619565b80601f01602080910402602001604051908101604052809291908181526020018280546104f690612619565b80156105435780601f1061051857610100808354040283529160200191610543565b820191906000526020600020905b81548152906001019060200180831161052657829003601f168201915b505050505081565b600073ffffffffffffffffffffffffffffffffffffffff168273ffffffffffffffffffffffffffffffffffffffff1614156040518060400160405280600c81526020017f5a65726f20416464726573730000000000000000000000000000000000000000815250906105f3576040517f08c379a00000000000000000000000000000000000000000000000000000000081526004016105ea91906123ea565b60405180910390fd5b5060008111610637576040517f08c379a000000000000000000000000000000000000000000000000000000000815260040161062e9061244c565b60405180910390fd5b80600360003373ffffffffffffffffffffffffffffffffffffffff1673ffffffffffffffffffffffffffffffffffffffff16815260200190815260200160002060008473ffffffffffffffffffffffffffffffffffffffff1673ffffffffffffffffffffffffffffffffffffffff168152602001908152602001600020819055508173ffffffffffffffffffffffffffffffffffffffff163373ffffffffffffffffffffffffffffffffffffffff167f8c5be1e5ebec7d5bd14f71427d1e84f3dd0314c0f7b2291e5b200ac8c7c3b92583604051610715919061248c565b60405180910390a35050565b60075481565b82828260006107378484846117d2565b905060018160ff161461074982610fc7565b9061078a576040517f08c379a000000000000000000000000000000000000000000000000000000000815260040161078191906123ea565b60405180910390fd5b5084600260008973ffffffffffffffffffffffffffffffffffffffff1673ffffffffffffffffffffffffffffffffffffffff1681526020019081526020016000205410156040518060400160405280601081526020017f416d6f756e74203e2042616c616e63650000000000000000000000000000000081525090610845576040517f08c379a000000000000000000000000000000000000000000000000000000000815260040161083c91906123ea565b60405180910390fd5b5084600360008973ffffffffffffffffffffffffffffffffffffffff1673ffffffffffffffffffffffffffffffffffffffff16815260200190815260200160002060003373ffffffffffffffffffffffffffffffffffffffff1673ffffffffffffffffffffffffffffffffffffffff1681526020019081526020016000205410156040518060400160405280601081526020017f416d6f756e74203e2042616c616e6365000000000000000000000000000000008152509061093d576040517f08c379a000000000000000000000000000000000000000000000000000000000815260040161093491906123ea565b60405180910390fd5b50610949878787611de5565b6109d885600360008a73ffffffffffffffffffffffffffffffffffffffff1673ffffffffffffffffffffffffffffffffffffffff16815260200190815260200160002060003373ffffffffffffffffffffffffffffffffffffffff1673ffffffffffffffffffffffffffffffffffffffff16815260200190815260200160002054611fd090919063ffffffff16565b600360008973ffffffffffffffffffffffffffffffffffffffff1673ffffffffffffffffffffffffffffffffffffffff16815260200190815260200160002060003373ffffffffffffffffffffffffffffffffffffffff1673ffffffffffffffffffffffffffffffffffffffff168152602001908152602001600020819055508573ffffffffffffffffffffffffffffffffffffffff168773ffffffffffffffffffffffffffffffffffffffff167fddf252ad1be2c89b69c2b068fc378daa952ba7f163c4a11628f55a4df523b3ef87604051610ab5919061248c565b60405180910390a350505050505050565b60011515600560003373ffffffffffffffffffffffffffffffffffffffff1673ffffffffffffffffffffffffffffffffffffffff16815260200190815260200160002060009054906101000a900460ff16151514610b59576040517f08c379a0000000000000000000000000000000000000000000000000000000008152600401610b509061246c565b60405180910390fd5b816000808573ffffffffffffffffffffffffffffffffffffffff1673ffffffffffffffffffffffffffffffffffffffff1681526020019081526020016000208190555080600160008573ffffffffffffffffffffffffffffffffffffffff1673ffffffffffffffffffffffffffffffffffffffff16815260200190815260200160002081905550505050565b60065481565b3373ffffffffffffffffffffffffffffffffffffffff16600460009054906101000a900473ffffffffffffffffffffffffffffffffffffffff1673ffffffffffffffffffffffffffffffffffffffff1614610c7b576040517f08c379a0000000000000000000000000000000000000000000000000000000008152600401610c729061240c565b60405180910390fd5b600073ffffffffffffffffffffffffffffffffffffffff168273ffffffffffffffffffffffffffffffffffffffff1614156040518060400160405280600c81526020017f5a65726f2041646472657373000000000000000000000000000000000000000081525090610d23576040517f08c379a0000000000000000000000000000000000000000000000000000000008152600401610d1a91906123ea565b60405180910390fd5b50610d398160075461201d90919063ffffffff16565b600781905550610d9181600260008573ffffffffffffffffffffffffffffffffffffffff1673ffffffffffffffffffffffffffffffffffffffff1681526020019081526020016000205461201d90919063ffffffff16565b600260008473ffffffffffffffffffffffffffffffffffffffff1673ffffffffffffffffffffffffffffffffffffffff168152602001908152602001600020819055508173ffffffffffffffffffffffffffffffffffffffff16600073ffffffffffffffffffffffffffffffffffffffff167fddf252ad1be2c89b69c2b068fc378daa952ba7f163c4a11628f55a4df523b3ef83604051610e32919061248c565b60405180910390a35050565b600a5481565b3373ffffffffffffffffffffffffffffffffffffffff16600460009054906101000a900473ffffffffffffffffffffffffffffffffffffffff1673ffffffffffffffffffffffffffffffffffffffff1614610ed4576040517f08c379a0000000000000000000000000000000000000000000000000000000008152600401610ecb9061240c565b60405180910390fd5b80600c8190555050565b3373ffffffffffffffffffffffffffffffffffffffff16600460009054906101000a900473ffffffffffffffffffffffffffffffffffffffff1673ffffffffffffffffffffffffffffffffffffffff1614610f6e576040517f08c379a0000000000000000000000000000000000000000000000000000000008152600401610f659061240c565b60405180910390fd5b80600b8190555050565b600b5481565b6000600260008373ffffffffffffffffffffffffffffffffffffffff1673ffffffffffffffffffffffffffffffffffffffff168152602001908152602001600020549050919050565b606060018260ff161415611012576040518060400160405280600b81526020017f57686974656c6973746564000000000000000000000000000000000000000000815250905061104b565b6040518060400160405280600f81526020017f4e6f742057686974656c6973746564000000000000000000000000000000000081525090505b919050565b6000600460009054906101000a900473ffffffffffffffffffffffffffffffffffffffff16905090565b6009805461108790612619565b80601f01602080910402602001604051908101604052809291908181526020018280546110b390612619565b80156111005780601f106110d557610100808354040283529160200191611100565b820191906000526020600020905b8154815290600101906020018083116110e357829003601f168201915b505050505081565b3373ffffffffffffffffffffffffffffffffffffffff16600460009054906101000a900473ffffffffffffffffffffffffffffffffffffffff1673ffffffffffffffffffffffffffffffffffffffff1614611198576040517f08c379a000000000000000000000000000000000000000000000000000000000815260040161118f9061240c565b60405180910390fd5b600073ffffffffffffffffffffffffffffffffffffffff168273ffffffffffffffffffffffffffffffffffffffff1614156040518060400160405280600c81526020017f5a65726f2041646472657373000000000000000000000000000000000000000081525090611240576040517f08c379a000000000000000000000000000000000000000000000000000000000815260040161123791906123ea565b60405180910390fd5b5080600260008473ffffffffffffffffffffffffffffffffffffffff1673ffffffffffffffffffffffffffffffffffffffff1681526020019081526020016000205410156040518060400160405280601081526020017f416d6f756e74203e2042616c616e636500000000000000000000000000000000815250906112fb576040517f08c379a00000000000000000000000000000000000000000000000000000000081526004016112f291906123ea565b60405180910390fd5b5061131181600754611fd090919063ffffffff16565b60078190555061136981600260008573ffffffffffffffffffffffffffffffffffffffff1673ffffffffffffffffffffffffffffffffffffffff16815260200190815260200160002054611fd090919063ffffffff16565b600260008473ffffffffffffffffffffffffffffffffffffffff1673ffffffffffffffffffffffffffffffffffffffff16815260200190815260200160002081905550600073ffffffffffffffffffffffffffffffffffffffff168273ffffffffffffffffffffffffffffffffffffffff167fddf252ad1be2c89b69c2b068fc378daa952ba7f163c4a11628f55a4df523b3ef8360405161140a919061248c565b60405180910390a35050565b600c5481565b338282600061142c8484846117d2565b905060018160ff161461143e82610fc7565b9061147f576040517f08c379a000000000000000000000000000000000000000000000000000000000815260040161147691906123ea565b60405180910390fd5b50600073ffffffffffffffffffffffffffffffffffffffff168673ffffffffffffffffffffffffffffffffffffffff1614156040518060400160405280600c81526020017f5a65726f2041646472657373000000000000000000000000000000000000000081525090611528576040517f08c379a000000000000000000000000000000000000000000000000000000000815260040161151f91906123ea565b60405180910390fd5b5084600260003373ffffffffffffffffffffffffffffffffffffffff1673ffffffffffffffffffffffffffffffffffffffff1681526020019081526020016000205410156040518060400160405280601081526020017f416d6f756e74203e2042616c616e636500000000000000000000000000000000815250906115e3576040517f08c379a00000000000000000000000000000000000000000000000000000000081526004016115da91906123ea565b60405180910390fd5b506115ef338787611de5565b8573ffffffffffffffffffffffffffffffffffffffff163373ffffffffffffffffffffffffffffffffffffffff167fddf252ad1be2c89b69c2b068fc378daa952ba7f163c4a11628f55a4df523b3ef8760405161164c919061248c565b60405180910390a3505050505050565b6000806000808473ffffffffffffffffffffffffffffffffffffffff1673ffffffffffffffffffffffffffffffffffffffff16815260200190815260200160002054600160008573ffffffffffffffffffffffffffffffffffffffff1673ffffffffffffffffffffffffffffffffffffffff1681526020019081526020016000205491509150915091565b3373ffffffffffffffffffffffffffffffffffffffff16600460009054906101000a900473ffffffffffffffffffffffffffffffffffffffff1673ffffffffffffffffffffffffffffffffffffffff1614611777576040517f08c379a000000000000000000000000000000000000000000000000000000000815260040161176e9061240c565b60405180910390fd5b6001600560008373ffffffffffffffffffffffffffffffffffffffff1673ffffffffffffffffffffffffffffffffffffffff16815260200190815260200160002060006101000a81548160ff02191690831515021790555050565b60006001600c5414611819576040517f08c379a00000000000000000000000000000000000000000000000000000000081526004016118109061242c565b60405180910390fd5b6000600160008673ffffffffffffffffffffffffffffffffffffffff1673ffffffffffffffffffffffffffffffffffffffff16815260200190815260200160002054141580156118a7575042600160008673ffffffffffffffffffffffffffffffffffffffff1673ffffffffffffffffffffffffffffffffffffffff16815260200190815260200160002054105b6040518060400160405280600f81526020017f4e6f742057686974656c697374656400000000000000000000000000000000008152509061191e576040517f08c379a000000000000000000000000000000000000000000000000000000000815260040161191591906123ea565b60405180910390fd5b5060008060008573ffffffffffffffffffffffffffffffffffffffff1673ffffffffffffffffffffffffffffffffffffffff16815260200190815260200160002054141580156119ab5750426000808573ffffffffffffffffffffffffffffffffffffffff1673ffffffffffffffffffffffffffffffffffffffff16815260200190815260200160002054105b6040518060400160405280600f81526020017f4e6f742057686974656c6973746564000000000000000000000000000000000081525090611a22576040517f08c379a0000000000000000000000000000000000000000000000000000000008152600401611a1991906123ea565b60405180910390fd5b506000600b541415611a375760019050611aa2565b6000600260008573ffffffffffffffffffffffffffffffffffffffff1673ffffffffffffffffffffffffffffffffffffffff168152602001908152602001600020541115611a885760019050611aa2565b600b54600a541015611a9d5760019050611aa2565b600090505b9392505050565b3373ffffffffffffffffffffffffffffffffffffffff16600460009054906101000a900473ffffffffffffffffffffffffffffffffffffffff1673ffffffffffffffffffffffffffffffffffffffff1614611b39576040517f08c379a0000000000000000000000000000000000000000000000000000000008152600401611b309061240c565b60405180910390fd5b600560008273ffffffffffffffffffffffffffffffffffffffff1673ffffffffffffffffffffffffffffffffffffffff16815260200190815260200160002060006101000a81549060ff021916905550565b6000600360008473ffffffffffffffffffffffffffffffffffffffff1673ffffffffffffffffffffffffffffffffffffffff16815260200190815260200160002060008373ffffffffffffffffffffffffffffffffffffffff1673ffffffffffffffffffffffffffffffffffffffff16815260200190815260200160002054905092915050565b6000600560008373ffffffffffffffffffffffffffffffffffffffff1673ffffffffffffffffffffffffffffffffffffffff16815260200190815260200160002060009054906101000a900460ff169050919050565b3373ffffffffffffffffffffffffffffffffffffffff16600460009054906101000a900473ffffffffffffffffffffffffffffffffffffffff1673ffffffffffffffffffffffffffffffffffffffff1614611cf8576040517f08c379a0000000000000000000000000000000000000000000000000000000008152600401611cef9061240c565b60405180910390fd5b600073ffffffffffffffffffffffffffffffffffffffff168173ffffffffffffffffffffffffffffffffffffffff1614156040518060400160405280600c81526020017f5a65726f2041646472657373000000000000000000000000000000000000000081525090611da0576040517f08c379a0000000000000000000000000000000000000000000000000000000008152600401611d9791906123ea565b60405180910390fd5b5080600460006101000a81548173ffffffffffffffffffffffffffffffffffffffff021916908373ffffffffffffffffffffffffffffffffffffffff16021790555050565b611e3781600260008673ffffffffffffffffffffffffffffffffffffffff1673ffffffffffffffffffffffffffffffffffffffff16815260200190815260200160002054611fd090919063ffffffff16565b600260008573ffffffffffffffffffffffffffffffffffffffff1673ffffffffffffffffffffffffffffffffffffffff168152602001908152602001600020819055506000600260008573ffffffffffffffffffffffffffffffffffffffff1673ffffffffffffffffffffffffffffffffffffffff168152602001908152602001600020541415611ed8576001600a54611ed1919061255d565b600a819055505b6000600260008473ffffffffffffffffffffffffffffffffffffffff1673ffffffffffffffffffffffffffffffffffffffff168152602001908152602001600020541415611f36576001600a54611f2f9190612507565b600a819055505b611f8881600260008573ffffffffffffffffffffffffffffffffffffffff1673ffffffffffffffffffffffffffffffffffffffff1681526020019081526020016000205461201d90919063ffffffff16565b600260008473ffffffffffffffffffffffffffffffffffffffff1673ffffffffffffffffffffffffffffffffffffffff16815260200190815260200160002081905550505050565b600082821115612009577f4e487b7100000000000000000000000000000000000000000000000000000000600052600160045260246000fd5b8183612015919061255d565b905092915050565b600080828461202c9190612507565b905083811015612065577f4e487b7100000000000000000000000000000000000000000000000000000000600052600160045260246000fd5b8091505092915050565b60008135905061207e816126ba565b92915050565b600081359050612093816126d1565b92915050565b6000813590506120a8816126e8565b92915050565b6000602082840312156120c057600080fd5b60006120ce8482850161206f565b91505092915050565b600080604083850312156120ea57600080fd5b60006120f88582860161206f565b92505060206121098582860161206f565b9150509250929050565b60008060006060848603121561212857600080fd5b60006121368682870161206f565b93505060206121478682870161206f565b925050604061215886828701612084565b9150509250925092565b6000806040838503121561217557600080fd5b60006121838582860161206f565b925050602061219485828601612084565b9150509250929050565b6000806000606084860312156121b357600080fd5b60006121c18682870161206f565b93505060206121d286828701612084565b92505060406121e386828701612084565b9150509250925092565b6000602082840312156121ff57600080fd5b600061220d84828501612084565b91505092915050565b60006020828403121561222857600080fd5b600061223684828501612099565b91505092915050565b61224881612591565b82525050565b612257816125a3565b82525050565b6000612268826124eb565b61227281856124f6565b93506122828185602086016125e6565b61228b816126a9565b840191505092915050565b60006122a36009836124f6565b91507f4e6f74204f776e657200000000000000000000000000000000000000000000006000830152602082019050919050565b60006122e36014836124f6565b91507f5472616e73666572206e6f7420616c6c6f7765640000000000000000000000006000830152602082019050919050565b60006123236008836124f6565b91507f416d6f756e7420300000000000000000000000000000000000000000000000006000830152602082019050919050565b60006123636017836124f6565b91507f4e6f742057686974656c69737420417574686f726974790000000000000000006000830152602082019050919050565b61239f816125cf565b82525050565b6123ae816125d9565b82525050565b60006020820190506123c9600083018461223f565b92915050565b60006020820190506123e4600083018461224e565b92915050565b60006020820190508181036000830152612404818461225d565b905092915050565b6000602082019050818103600083015261242581612296565b9050919050565b60006020820190508181036000830152612445816122d6565b9050919050565b6000602082019050818103600083015261246581612316565b9050919050565b6000602082019050818103600083015261248581612356565b9050919050565b60006020820190506124a16000830184612396565b92915050565b60006040820190506124bc6000830185612396565b6124c96020830184612396565b9392505050565b60006020820190506124e560008301846123a5565b92915050565b600081519050919050565b600082825260208201905092915050565b6000612512826125cf565b915061251d836125cf565b9250827fffffffffffffffffffffffffffffffffffffffffffffffffffffffffffffffff038211156125525761255161264b565b5b828201905092915050565b6000612568826125cf565b9150612573836125cf565b9250828210156125865761258561264b565b5b828203905092915050565b600061259c826125af565b9050919050565b60008115159050919050565b600073ffffffffffffffffffffffffffffffffffffffff82169050919050565b6000819050919050565b600060ff82169050919050565b60005b838110156126045780820151818401526020810190506125e9565b83811115612613576000848401525b50505050565b6000600282049050600182168061263157607f821691505b602082108114156126455761264461267a565b5b50919050565b7f4e487b7100000000000000000000000000000000000000000000000000000000600052601160045260246000fd5b7f4e487b7100000000000000000000000000000000000000000000000000000000600052602260045260246000fd5b6000601f19601f8301169050919050565b6126c381612591565b81146126ce57600080fd5b50565b6126da816125cf565b81146126e557600080fd5b50565b6126f1816125d9565b81146126fc57600080fd5b5056fea2646970667358221220cc7b5a21a6ad85e5e646633fc9b97ab085408e49349e04601ce04cc0b9edcc8464736f6c63430008000033",
  "immutableReferences": {},
  "source": "// SPDX-License-Identifier: MIT\n// This contract is minimum implementation of ERC1404 protocol without any libraries \npragma solidity ^0.8.0;\n\nimport \"./IERC1404.sol\";\nimport \"./SafeMathMin.sol\";\n\ncontract ERC1404TokenMinKYC is IERC1404 {\n\n    using SafeMathMin for uint256;\n\t\n\t// Set buy and sell restrictions on investors.  \n\t// date is Linux Epoch datetime\n\t// Both date must be less than current date time to allow the respective operation. Like to get tokens from others, receiver's buy restriction\n\t// must be less than current date time. \n\t// 0 means investor is not allowed to buy or sell his token.  0 indicates buyer or seller is not whitelisted. \n\t// this condition is checked in detectTransferRestriction\n    mapping (address => uint256) private _buyRestriction;  \n\tmapping (address => uint256) private _sellRestriction;\t\n\t\n\tmapping (address => uint256) private _balances;\n    mapping(address => mapping(address => uint256)) private _allowances;\n\taddress private _owner;\n\t\n    mapping (address => bool) private _whitelistControlAuthority;  \t\n\t\n\n    event Approval(address indexed tokenOwner, address indexed spender, uint tokens);\n    event Transfer(address indexed from, address indexed to, uint tokens);\n\n\tuint256 public decimals = 18;\n    uint256 public totalSupply;\n    string public name;\n    string public symbol;\n\t\n\t// These variables control how many investors can have tokens\n\t// if allowedInvestors = 0 then there is no limit of investors \n\tuint256 public currentTotalInvestors = 0;\t\t\n\tuint256 public allowedInvestors = 0;\n\n\t// If overall Trnasfers allowed or not     1=Normal Transfers     2=Stop all Transfers \n\tuint256 public isTradingAllowed = 1;\n\t\n\tstring private constant AddressZeroMessage = \"Zero Address\";\n\tstring private constant AmountExceedBalance = \"Amount > Balance\";\t\n\tstring private constant NotWhitelisted = \"Not Whitelisted\";\n\n\n\tconstructor(uint256 _initialSupply, string memory _name,  string memory _symbol, uint256 _allowedInvestors, uint256 _decimals ) {\n\t\tname = _name;\n        symbol = _symbol;\n\t\t\n\t\tdecimals = _decimals;\n\n\t\t_buyRestriction[msg.sender] = 1;\n\t\t_sellRestriction[msg.sender] = 1;\n\t\t_owner = msg.sender;\n\n\t\tallowedInvestors = _allowedInvestors;\n\n\t\t// Minting tokens for initial supply\n        totalSupply = _initialSupply;\n        _balances[msg.sender] = totalSupply;\n\t\t\n\t\t// add message sender to whitelist authority. \n\t\t_whitelistControlAuthority[msg.sender] = true;\n\t\t\t\t\n\t\temit Transfer(address(0), msg.sender, totalSupply);\n\t}\n\n\n\t// _allowedInvestors = 0    No limit on number of investors        \n\t// _allowedInvestors > 0 only X number of investors can have positive balance \n    function resetAllowedInvestors(uint256 _allowedInvestors) \n\tpublic \n\tonlyOwner {\n\t\t allowedInvestors = _allowedInvestors;\n    }\n\n\n\t// 1 = Tading Allowed\n\t// 2 = Stop all Transfers \n    function setTradingEnabled(uint256 _isTradingAllowed) \n\tpublic \n\tonlyOwner {\n\t\t isTradingAllowed = _isTradingAllowed;\n    }\n \n \n\t//-----------------------------------------------------------------------\n\t// Get or set current owner of this smart contract\n    function owner() \n\tpublic \n\tview \n\treturns (address) {\n        return _owner;\n    }\n    modifier onlyOwner() {\n        require(_owner == msg.sender, \"Not Owner\");\n        _;\n    }\n    function transferOwnership(address newOwner) \n\tpublic \n\tonlyOwner {\n        require(newOwner != address(0), AddressZeroMessage);\n\t\t_owner = newOwner;\n    }\n\t//-----------------------------------------------------------------------\n\t\n  \n  \n\n\t  \n\n\n\t  \n \n\t//-----------------------------------------------------------------------\n    // Manage whitelist autority and KYC status\n\t\n\tfunction setWhitelistAuthorityStatus(address user)\n\tpublic \n\tonlyOwner {\n\t\t_whitelistControlAuthority[user] = true;\n\t}\n\tfunction removeWhitelistAuthorityStatus(address user)\n\tpublic \n\tonlyOwner {\n\t\tdelete _whitelistControlAuthority[user];\n\t}\t\n\tfunction getWhitelistAuthorityStatus(address user)\n\tpublic \n\tview\n\treturns (bool) {\n\t\t return _whitelistControlAuthority[user];\n\t}\t\n\t\n\t\n  \t  // Set buy and sell restrictions on investors \n\t  function modifyKYCData (address user, uint256 buyRestriction, uint256 sellRestriction) \n\t  public \n\t  { \n\t  \t    require(_whitelistControlAuthority[msg.sender] == true, \"Not Whitelist Authority\");\n\t\t\t\n\t\t   _buyRestriction[user] = buyRestriction;\n\t\t   _sellRestriction[user] = sellRestriction;\n\t  }\n\t  \t  \n\t  function getKYCData(address user) \n\t  public \n\t  view\n\t  returns (uint256, uint256 ) {\n\t\t   return (_buyRestriction[user] , _sellRestriction[user] );\n\t  }\n\t//-----------------------------------------------------------------------\n\n\n\n\n\n\t//-----------------------------------------------------------------------\n\t// These are ERC1404 interface implementations \n\t\n    modifier notRestricted (address from, address to, uint256 value) {\n        uint8 restrictionCode = detectTransferRestriction(from, to, value);\n        require(restrictionCode == 1, messageForTransferRestriction(restrictionCode));\n        _;\n    }\n\t\n    function detectTransferRestriction (address _from, address _to, uint256 value) \n\toverride\n\tpublic \n\tview \n\treturns (uint8)\n    {\n\t      // check if trading is allowed \n\t\t  require(isTradingAllowed == 1, \"Transfer not allowed\"); \t\t  \t\t\t  \n\t\t  require(  _sellRestriction[_from] != 0 && _sellRestriction[_from] < block.timestamp, NotWhitelisted  );\n\t\t  require(  _buyRestriction[_to] != 0 && _buyRestriction[_to] < block.timestamp, NotWhitelisted  );\n\n\t\t\t// Following conditions make sure if number of token holders are within limit if enabled \n\t\t\t// 0 means no restriction\n\t\t\tif(allowedInvestors == 0)\n\t\t\t\treturn 1;\n\t\t\telse {\n\t\t\t\tif( _balances[_to] > 0 ) \n\t\t\t\t\treturn 1;\n\t\t\t\telse {\n\t\t\t\t\tif(  currentTotalInvestors < allowedInvestors  )\n\t\t\t\t\t\treturn 1;\n\t\t\t\t\telse\n\t\t\t\t\t\treturn 0;\n\t\t\t\t}\n\t\t\t}\n    }\n\n    function messageForTransferRestriction (uint8 restrictionCode)\n\toverride\n    public\t\n    pure returns (string memory message)\n    {\n        if (restrictionCode == 1) \n            message = \"Whitelisted\";\n         else \n            message = NotWhitelisted;\n    }\n\t//-----------------------------------------------------------------------\n\n\n\n\n\n\n    function balanceOf(address account) \n    public \n    view \n    returns (uint256) {\n        return _balances[account];\n    }\n\t\n\n    function transfer(\n        address recipient,\n        uint256 amount\n    ) \t\n\tpublic \n\tnotRestricted (msg.sender, recipient, amount)\n\t{\n        require(recipient != address(0), AddressZeroMessage);\n        require(_balances[msg.sender] >= amount, AmountExceedBalance);\n\n\t\ttransferSharesBetweenInvestors ( msg.sender, recipient, amount );\n\t\t\n        emit Transfer(msg.sender, recipient, amount);\n    }\n\n\n\n    function approve(\n        address spender,\n        uint256 amount\n    ) public {\n        require(spender != address(0), AddressZeroMessage);\n\t\trequire(amount > 0, \"Amount 0\");\n\n        _allowances[msg.sender][spender] = amount;\n        emit Approval(msg.sender, spender, amount);\n    }\n\n\n    function allowance(address owner, address spender) \n\tpublic \n\tview \n\treturns (uint256) {\n        return _allowances[owner][spender];\n    }\t\n\n\n    function transferFrom(\n        address owner,\n        address recipient,\n        uint256 amount\n    ) \n\tpublic \n\tnotRestricted (owner, recipient, amount)\n\t{\t\n        require(_balances[owner] >= amount, AmountExceedBalance);\n        require(_allowances[owner][msg.sender] >= amount, AmountExceedBalance );\n\n\t\ttransferSharesBetweenInvestors ( owner, recipient, amount );\n        _allowances[owner][msg.sender] = _allowances[owner][msg.sender].sub(amount);\n\n        emit Transfer(owner, recipient, amount);\t\n    }\n\n\n\t// Transfer tokens from one account to other\n\t// Also manage current number of account holders\n\tfunction transferSharesBetweenInvestors(\n        address sender,\n        address recipient,\n        uint256 amount\t\n\t)\n\tinternal\n\t{\n\t\t\t_balances[sender] = _balances[sender].sub(amount);\n\t\t\tif( _balances[sender] == 0 )\n\t\t\t\tcurrentTotalInvestors = currentTotalInvestors - 1;\t\t\n\n\t\t\tif( _balances[recipient] == 0 )\n\t\t\t\tcurrentTotalInvestors = currentTotalInvestors + 1;\n\t\t\t_balances[recipient] = _balances[recipient].add(amount);\n\t}\n\n\n\n    function mint(address account, uint256 amount) \n\tonlyOwner \n\tpublic {\n        require(account != address(0), AddressZeroMessage);\n\n        totalSupply = totalSupply.add(amount);\n        _balances[account] = _balances[account].add(amount);\n        emit Transfer(address(0), account, amount);\n    }\n\n\n    function burn(address account, uint256 amount) \n\tonlyOwner\n\tpublic {\n        require(account != address(0), AddressZeroMessage);\n        require(_balances[account] >= amount, AmountExceedBalance);\n\n        totalSupply = totalSupply.sub(amount);\n        _balances[account] = _balances[account].sub(amount);\n\n        emit Transfer(account, address(0), amount);\n    }\n\n}\n \n\n\n\n",
  "sourcePath": "/home/shahzad/Shahzad/projects/git/ERC1404/contracts/ERC1404TokenMinKYC.sol",
  "compiler": {
    "name": "solc",
    "version": "0.8.0+commit.c7dfd78e.Emscripten.clang"
  },
  "schemaVersion": "3.3.4",
  "updatedAt": "2021-11-12T12:36:59.974Z",
  "devdoc": {
    "kind": "dev",
    "methods": {
      "messageForTransferRestriction(uint8)": {
        "details": "Overwrite with your custom message and restrictionCode handling",
        "params": {
          "restrictionCode": "Identifier for looking up a message"
        },
        "returns": {
          "message": "Text showing the restriction's reasoning"
        }
      }
    },
    "version": 1
  },
  "userdoc": {
    "kind": "user",
    "methods": {
      "messageForTransferRestriction(uint8)": {
        "notice": "Returns a human-readable message for a given restriction code"
      }
    },
    "version": 1
  }
}