{
  "contractName": "ERC1404TokenMin",
  "abi": [
    {
      "inputs": [
        {
          "internalType": "uint256",
          "name": "_initialSupply",
          "type": "uint256"
        },
        {
          "internalType": "string",
          "name": "_name",
          "type": "string"
        },
        {
          "internalType": "string",
          "name": "_symbol",
          "type": "string"
        }
      ],
      "stateMutability": "nonpayable",
      "type": "constructor"
    },
    {
      "anonymous": false,
      "inputs": [
        {
          "indexed": true,
          "internalType": "address",
          "name": "tokenOwner",
          "type": "address"
        },
        {
          "indexed": true,
          "internalType": "address",
          "name": "spender",
          "type": "address"
        },
        {
          "indexed": false,
          "internalType": "uint256",
          "name": "tokens",
          "type": "uint256"
        }
      ],
      "name": "Approval",
      "type": "event"
    },
    {
      "anonymous": false,
      "inputs": [
        {
          "indexed": true,
          "internalType": "address",
          "name": "from",
          "type": "address"
        },
        {
          "indexed": true,
          "internalType": "address",
          "name": "to",
          "type": "address"
        },
        {
          "indexed": false,
          "internalType": "uint256",
          "name": "tokens",
          "type": "uint256"
        }
      ],
      "name": "Transfer",
      "type": "event"
    },
    {
      "inputs": [],
      "name": "decimals",
      "outputs": [
        {
          "internalType": "uint8",
          "name": "",
          "type": "uint8"
        }
      ],
      "stateMutability": "view",
      "type": "function"
    },
    {
      "inputs": [],
      "name": "name",
      "outputs": [
        {
          "internalType": "string",
          "name": "",
          "type": "string"
        }
      ],
      "stateMutability": "view",
      "type": "function"
    },
    {
      "inputs": [],
      "name": "symbol",
      "outputs": [
        {
          "internalType": "string",
          "name": "",
          "type": "string"
        }
      ],
      "stateMutability": "view",
      "type": "function"
    },
    {
      "inputs": [],
      "name": "totalSupply",
      "outputs": [
        {
          "internalType": "uint256",
          "name": "",
          "type": "uint256"
        }
      ],
      "stateMutability": "view",
      "type": "function"
    },
    {
      "inputs": [],
      "name": "getOwner",
      "outputs": [
        {
          "internalType": "address",
          "name": "",
          "type": "address"
        }
      ],
      "stateMutability": "view",
      "type": "function"
    },
    {
      "inputs": [
        {
          "internalType": "address",
          "name": "newOwner",
          "type": "address"
        }
      ],
      "name": "transferOwnership",
      "outputs": [],
      "stateMutability": "nonpayable",
      "type": "function"
    },
    {
      "inputs": [
        {
          "internalType": "address",
          "name": "user",
          "type": "address"
        }
      ],
      "name": "addWhitelistAddress",
      "outputs": [],
      "stateMutability": "nonpayable",
      "type": "function"
    },
    {
      "inputs": [
        {
          "internalType": "address",
          "name": "user",
          "type": "address"
        }
      ],
      "name": "removeWhitelistAddress",
      "outputs": [],
      "stateMutability": "nonpayable",
      "type": "function"
    },
    {
      "inputs": [
        {
          "internalType": "address",
          "name": "user",
          "type": "address"
        }
      ],
      "name": "isInvestorWhiteListed",
      "outputs": [
        {
          "internalType": "bool",
          "name": "",
          "type": "bool"
        }
      ],
      "stateMutability": "view",
      "type": "function"
    },
    {
      "inputs": [
        {
          "internalType": "address",
          "name": "_from",
          "type": "address"
        },
        {
          "internalType": "address",
          "name": "_to",
          "type": "address"
        },
        {
          "internalType": "uint256",
          "name": "value",
          "type": "uint256"
        }
      ],
      "name": "detectTransferRestriction",
      "outputs": [
        {
          "internalType": "uint8",
          "name": "",
          "type": "uint8"
        }
      ],
      "stateMutability": "view",
      "type": "function"
    },
    {
      "inputs": [
        {
          "internalType": "uint8",
          "name": "restrictionCode",
          "type": "uint8"
        }
      ],
      "name": "messageForTransferRestriction",
      "outputs": [
        {
          "internalType": "string",
          "name": "message",
          "type": "string"
        }
      ],
      "stateMutability": "pure",
      "type": "function"
    },
    {
      "inputs": [
        {
          "internalType": "address",
          "name": "account",
          "type": "address"
        }
      ],
      "name": "balanceOf",
      "outputs": [
        {
          "internalType": "uint256",
          "name": "",
          "type": "uint256"
        }
      ],
      "stateMutability": "view",
      "type": "function"
    },
    {
      "inputs": [
        {
          "internalType": "address",
          "name": "recipient",
          "type": "address"
        },
        {
          "internalType": "uint256",
          "name": "amount",
          "type": "uint256"
        }
      ],
      "name": "transfer",
      "outputs": [],
      "stateMutability": "nonpayable",
      "type": "function"
    },
    {
      "inputs": [
        {
          "internalType": "address",
          "name": "spender",
          "type": "address"
        },
        {
          "internalType": "uint256",
          "name": "amount",
          "type": "uint256"
        }
      ],
      "name": "approve",
      "outputs": [],
      "stateMutability": "nonpayable",
      "type": "function"
    },
    {
      "inputs": [
        {
          "internalType": "address",
          "name": "owner",
          "type": "address"
        },
        {
          "internalType": "address",
          "name": "spender",
          "type": "address"
        }
      ],
      "name": "allowance",
      "outputs": [
        {
          "internalType": "uint256",
          "name": "",
          "type": "uint256"
        }
      ],
      "stateMutability": "view",
      "type": "function"
    },
    {
      "inputs": [
        {
          "internalType": "address",
          "name": "owner",
          "type": "address"
        },
        {
          "internalType": "address",
          "name": "recipient",
          "type": "address"
        },
        {
          "internalType": "uint256",
          "name": "amount",
          "type": "uint256"
        }
      ],
      "name": "transferFrom",
      "outputs": [],
      "stateMutability": "nonpayable",
      "type": "function"
    },
    {
      "inputs": [
        {
          "internalType": "address",
          "name": "account",
          "type": "address"
        },
        {
          "internalType": "uint256",
          "name": "amount",
          "type": "uint256"
        }
      ],
      "name": "mint",
      "outputs": [],
      "stateMutability": "nonpayable",
      "type": "function"
    },
    {
      "inputs": [
        {
          "internalType": "address",
          "name": "account",
          "type": "address"
        },
        {
          "internalType": "uint256",
          "name": "amount",
          "type": "uint256"
        }
      ],
      "name": "burn",
      "outputs": [],
      "stateMutability": "nonpayable",
      "type": "function"
    }
  ],
  "bytecode": "0x60806040526012600360146101000a81548160ff021916908360ff1602179055506040518060400160405280601881526020017f41646472657373205a65726f206e6f7420616c6c6f7765640000000000000000815250600790805190602001906200006d92919062000279565b506040518060400160405280601581526020017f416d6f756e74204578636565642042616c616e6365000000000000000000000081525060089080519060200190620000bb92919062000279565b50348015620000c957600080fd5b50604051620023b1380380620023b18339818101604052810190620000ef9190620003b2565b81600590805190602001906200010792919062000279565b5080600690805190602001906200012092919062000279565b5060016000803373ffffffffffffffffffffffffffffffffffffffff1673ffffffffffffffffffffffffffffffffffffffff16815260200190815260200160002060006101000a81548160ff02191690831515021790555033600360006101000a81548173ffffffffffffffffffffffffffffffffffffffff021916908373ffffffffffffffffffffffffffffffffffffffff16021790555082600481905550600454600160003373ffffffffffffffffffffffffffffffffffffffff1673ffffffffffffffffffffffffffffffffffffffff168152602001908152602001600020819055503373ffffffffffffffffffffffffffffffffffffffff16600073ffffffffffffffffffffffffffffffffffffffff167fddf252ad1be2c89b69c2b068fc378daa952ba7f163c4a11628f55a4df523b3ef6004546040516200026891906200044b565b60405180910390a3505050620005bd565b82805462000287906200050f565b90600052602060002090601f016020900481019282620002ab5760008555620002f7565b82601f10620002c657805160ff1916838001178555620002f7565b82800160010185558215620002f7579182015b82811115620002f6578251825591602001919060010190620002d9565b5b5090506200030691906200030a565b5090565b5b80821115620003255760008160009055506001016200030b565b5090565b6000620003406200033a846200049c565b62000468565b9050828152602081018484840111156200035957600080fd5b62000366848285620004d9565b509392505050565b600082601f8301126200038057600080fd5b81516200039284826020860162000329565b91505092915050565b600081519050620003ac81620005a3565b92915050565b600080600060608486031215620003c857600080fd5b6000620003d8868287016200039b565b935050602084015167ffffffffffffffff811115620003f657600080fd5b62000404868287016200036e565b925050604084015167ffffffffffffffff8111156200042257600080fd5b62000430868287016200036e565b9150509250925092565b6200044581620004cf565b82525050565b60006020820190506200046260008301846200043a565b92915050565b6000604051905081810181811067ffffffffffffffff8211171562000492576200049162000574565b5b8060405250919050565b600067ffffffffffffffff821115620004ba57620004b962000574565b5b601f19601f8301169050602081019050919050565b6000819050919050565b60005b83811015620004f9578082015181840152602081019050620004dc565b8381111562000509576000848401525b50505050565b600060028204905060018216806200052857607f821691505b602082108114156200053f576200053e62000545565b5b50919050565b7f4e487b7100000000000000000000000000000000000000000000000000000000600052602260045260246000fd5b7f4e487b7100000000000000000000000000000000000000000000000000000000600052604160045260246000fd5b620005ae81620004cf565b8114620005ba57600080fd5b50565b611de480620005cd6000396000f3fe608060405234801561001057600080fd5b50600436106101165760003560e01c806394a7ef15116100a2578063b7ecbaae11610071578063b7ecbaae146102b9578063d4ce1415146102d5578063dd62ed3e14610305578063f2fde38b14610335578063f3c6e9931461035157610116565b806394a7ef151461024757806395d89b41146102635780639dc29fac14610281578063a9059cbb1461029d57610116565b8063313ce567116100e9578063313ce5671461018f57806340c10f19146101ad57806370a08231146101c95780637f4ab1dd146101f9578063893d20e81461022957610116565b806306fdde031461011b578063095ea7b31461013957806318160ddd1461015557806323b872dd14610173575b600080fd5b610123610381565b6040516101309190611aeb565b60405180910390f35b610153600480360381019061014e919061191b565b61040f565b005b61015d61056e565b60405161016a9190611b4f565b60405180910390f35b61018d600480360381019061018891906118cc565b610574565b005b6101976109ca565b6040516101a49190611b6a565b60405180910390f35b6101c760048036038101906101c2919061191b565b6109dd565b005b6101e360048036038101906101de9190611867565b610bb5565b6040516101f09190611b4f565b60405180910390f35b610213600480360381019061020e9190611957565b610bfe565b6040516102209190611aeb565b60405180910390f35b610231610c87565b60405161023e9190611ab5565b60405180910390f35b610261600480360381019061025c9190611867565b610cb1565b005b61026b610d9b565b6040516102789190611aeb565b60405180910390f35b61029b6004803603810190610296919061191b565b610e29565b005b6102b760048036038101906102b2919061191b565b6110ca565b005b6102d360048036038101906102ce9190611867565b6113c1565b005b6102ef60048036038101906102ea91906118cc565b6114a2565b6040516102fc9190611b6a565b60405180910390f35b61031f600480360381019061031a9190611890565b611564565b60405161032c9190611b4f565b60405180910390f35b61034f600480360381019061034a9190611867565b6115eb565b005b61036b60048036038101906103669190611867565b611734565b6040516103789190611ad0565b60405180910390f35b6005805461038e90611cc8565b80601f01602080910402602001604051908101604052809291908181526020018280546103ba90611cc8565b80156104075780601f106103dc57610100808354040283529160200191610407565b820191906000526020600020905b8154815290600101906020018083116103ea57829003601f168201915b505050505081565b600073ffffffffffffffffffffffffffffffffffffffff168273ffffffffffffffffffffffffffffffffffffffff161415600790610483576040517f08c379a000000000000000000000000000000000000000000000000000000000815260040161047a9190611b0d565b60405180910390fd5b5080600260003373ffffffffffffffffffffffffffffffffffffffff1673ffffffffffffffffffffffffffffffffffffffff16815260200190815260200160002060008473ffffffffffffffffffffffffffffffffffffffff1673ffffffffffffffffffffffffffffffffffffffff168152602001908152602001600020819055508173ffffffffffffffffffffffffffffffffffffffff163373ffffffffffffffffffffffffffffffffffffffff167f8c5be1e5ebec7d5bd14f71427d1e84f3dd0314c0f7b2291e5b200ac8c7c3b925836040516105629190611b4f565b60405180910390a35050565b60045481565b82828260006105848484846114a2565b905060018160ff161461059682610bfe565b906105d7576040517f08c379a00000000000000000000000000000000000000000000000000000000081526004016105ce9190611aeb565b60405180910390fd5b5084600160008973ffffffffffffffffffffffffffffffffffffffff1673ffffffffffffffffffffffffffffffffffffffff16815260200190815260200160002054101560089061065e576040517f08c379a00000000000000000000000000000000000000000000000000000000081526004016106559190611b0d565b60405180910390fd5b5084600260008973ffffffffffffffffffffffffffffffffffffffff1673ffffffffffffffffffffffffffffffffffffffff16815260200190815260200160002060003373ffffffffffffffffffffffffffffffffffffffff1673ffffffffffffffffffffffffffffffffffffffff168152602001908152602001600020541015600890610722576040517f08c379a00000000000000000000000000000000000000000000000000000000081526004016107199190611b0d565b60405180910390fd5b5061077585600160008a73ffffffffffffffffffffffffffffffffffffffff1673ffffffffffffffffffffffffffffffffffffffff1681526020019081526020016000205461178990919063ffffffff16565b600160008973ffffffffffffffffffffffffffffffffffffffff1673ffffffffffffffffffffffffffffffffffffffff1681526020019081526020016000208190555061084785600260008a73ffffffffffffffffffffffffffffffffffffffff1673ffffffffffffffffffffffffffffffffffffffff16815260200190815260200160002060003373ffffffffffffffffffffffffffffffffffffffff1673ffffffffffffffffffffffffffffffffffffffff1681526020019081526020016000205461178990919063ffffffff16565b600260008973ffffffffffffffffffffffffffffffffffffffff1673ffffffffffffffffffffffffffffffffffffffff16815260200190815260200160002060003373ffffffffffffffffffffffffffffffffffffffff1673ffffffffffffffffffffffffffffffffffffffff1681526020019081526020016000208190555061091985600160008973ffffffffffffffffffffffffffffffffffffffff1673ffffffffffffffffffffffffffffffffffffffff168152602001908152602001600020546117d690919063ffffffff16565b600160008873ffffffffffffffffffffffffffffffffffffffff1673ffffffffffffffffffffffffffffffffffffffff168152602001908152602001600020819055508573ffffffffffffffffffffffffffffffffffffffff168773ffffffffffffffffffffffffffffffffffffffff167fddf252ad1be2c89b69c2b068fc378daa952ba7f163c4a11628f55a4df523b3ef876040516109b99190611b4f565b60405180910390a350505050505050565b600360149054906101000a900460ff1681565b3373ffffffffffffffffffffffffffffffffffffffff16600360009054906101000a900473ffffffffffffffffffffffffffffffffffffffff1673ffffffffffffffffffffffffffffffffffffffff1614610a6d576040517f08c379a0000000000000000000000000000000000000000000000000000000008152600401610a6490611b2f565b60405180910390fd5b600073ffffffffffffffffffffffffffffffffffffffff168273ffffffffffffffffffffffffffffffffffffffff161415600790610ae1576040517f08c379a0000000000000000000000000000000000000000000000000000000008152600401610ad89190611b0d565b60405180910390fd5b50610af7816004546117d690919063ffffffff16565b50610b4a81600160008573ffffffffffffffffffffffffffffffffffffffff1673ffffffffffffffffffffffffffffffffffffffff168152602001908152602001600020546117d690919063ffffffff16565b508173ffffffffffffffffffffffffffffffffffffffff16600073ffffffffffffffffffffffffffffffffffffffff167fddf252ad1be2c89b69c2b068fc378daa952ba7f163c4a11628f55a4df523b3ef83604051610ba99190611b4f565b60405180910390a35050565b6000600160008373ffffffffffffffffffffffffffffffffffffffff1673ffffffffffffffffffffffffffffffffffffffff168152602001908152602001600020549050919050565b606060018260ff161415610c49576040518060400160405280600b81526020017f57686974656c69737465640000000000000000000000000000000000000000008152509050610c82565b6040518060400160405280600f81526020017f4e6f742057686974656c6973746564000000000000000000000000000000000081525090505b919050565b6000600360009054906101000a900473ffffffffffffffffffffffffffffffffffffffff16905090565b3373ffffffffffffffffffffffffffffffffffffffff16600360009054906101000a900473ffffffffffffffffffffffffffffffffffffffff1673ffffffffffffffffffffffffffffffffffffffff1614610d41576040517f08c379a0000000000000000000000000000000000000000000000000000000008152600401610d3890611b2f565b60405180910390fd5b60016000808373ffffffffffffffffffffffffffffffffffffffff1673ffffffffffffffffffffffffffffffffffffffff16815260200190815260200160002060006101000a81548160ff02191690831515021790555050565b60068054610da890611cc8565b80601f0160208091040260200160405190810160405280929190818152602001828054610dd490611cc8565b8015610e215780601f10610df657610100808354040283529160200191610e21565b820191906000526020600020905b815481529060010190602001808311610e0457829003601f168201915b505050505081565b3373ffffffffffffffffffffffffffffffffffffffff16600360009054906101000a900473ffffffffffffffffffffffffffffffffffffffff1673ffffffffffffffffffffffffffffffffffffffff1614610eb9576040517f08c379a0000000000000000000000000000000000000000000000000000000008152600401610eb090611b2f565b60405180910390fd5b600073ffffffffffffffffffffffffffffffffffffffff168273ffffffffffffffffffffffffffffffffffffffff161415600790610f2d576040517f08c379a0000000000000000000000000000000000000000000000000000000008152600401610f249190611b0d565b60405180910390fd5b5080600160008473ffffffffffffffffffffffffffffffffffffffff1673ffffffffffffffffffffffffffffffffffffffff168152602001908152602001600020541015600890610fb4576040517f08c379a0000000000000000000000000000000000000000000000000000000008152600401610fab9190611b0d565b60405180910390fd5b5061100781600160008573ffffffffffffffffffffffffffffffffffffffff1673ffffffffffffffffffffffffffffffffffffffff1681526020019081526020016000205461178990919063ffffffff16565b600160008473ffffffffffffffffffffffffffffffffffffffff1673ffffffffffffffffffffffffffffffffffffffff1681526020019081526020016000208190555061105f8160045461178990919063ffffffff16565b50600073ffffffffffffffffffffffffffffffffffffffff168273ffffffffffffffffffffffffffffffffffffffff167fddf252ad1be2c89b69c2b068fc378daa952ba7f163c4a11628f55a4df523b3ef836040516110be9190611b4f565b60405180910390a35050565b33828260006110da8484846114a2565b905060018160ff16146110ec82610bfe565b9061112d576040517f08c379a00000000000000000000000000000000000000000000000000000000081526004016111249190611aeb565b60405180910390fd5b50600073ffffffffffffffffffffffffffffffffffffffff168673ffffffffffffffffffffffffffffffffffffffff1614156007906111a2576040517f08c379a00000000000000000000000000000000000000000000000000000000081526004016111999190611b0d565b60405180910390fd5b5084600160003373ffffffffffffffffffffffffffffffffffffffff1673ffffffffffffffffffffffffffffffffffffffff168152602001908152602001600020541015600890611229576040517f08c379a00000000000000000000000000000000000000000000000000000000081526004016112209190611b0d565b60405180910390fd5b5061127c85600160003373ffffffffffffffffffffffffffffffffffffffff1673ffffffffffffffffffffffffffffffffffffffff1681526020019081526020016000205461178990919063ffffffff16565b600160003373ffffffffffffffffffffffffffffffffffffffff1673ffffffffffffffffffffffffffffffffffffffff1681526020019081526020016000208190555061131185600160008973ffffffffffffffffffffffffffffffffffffffff1673ffffffffffffffffffffffffffffffffffffffff168152602001908152602001600020546117d690919063ffffffff16565b600160008873ffffffffffffffffffffffffffffffffffffffff1673ffffffffffffffffffffffffffffffffffffffff168152602001908152602001600020819055508573ffffffffffffffffffffffffffffffffffffffff163373ffffffffffffffffffffffffffffffffffffffff167fddf252ad1be2c89b69c2b068fc378daa952ba7f163c4a11628f55a4df523b3ef876040516113b19190611b4f565b60405180910390a3505050505050565b3373ffffffffffffffffffffffffffffffffffffffff16600360009054906101000a900473ffffffffffffffffffffffffffffffffffffffff1673ffffffffffffffffffffffffffffffffffffffff1614611451576040517f08c379a000000000000000000000000000000000000000000000000000000000815260040161144890611b2f565b60405180910390fd5b6000808273ffffffffffffffffffffffffffffffffffffffff1673ffffffffffffffffffffffffffffffffffffffff16815260200190815260200160002060006101000a81549060ff021916905550565b60008060008473ffffffffffffffffffffffffffffffffffffffff1673ffffffffffffffffffffffffffffffffffffffff16815260200190815260200160002060009054906101000a900460ff1615611558576000808573ffffffffffffffffffffffffffffffffffffffff1673ffffffffffffffffffffffffffffffffffffffff16815260200190815260200160002060009054906101000a900460ff161561154f576001905061155d565b6000905061155d565b600090505b9392505050565b6000600260008473ffffffffffffffffffffffffffffffffffffffff1673ffffffffffffffffffffffffffffffffffffffff16815260200190815260200160002060008373ffffffffffffffffffffffffffffffffffffffff1673ffffffffffffffffffffffffffffffffffffffff16815260200190815260200160002054905092915050565b3373ffffffffffffffffffffffffffffffffffffffff16600360009054906101000a900473ffffffffffffffffffffffffffffffffffffffff1673ffffffffffffffffffffffffffffffffffffffff161461167b576040517f08c379a000000000000000000000000000000000000000000000000000000000815260040161167290611b2f565b60405180910390fd5b600073ffffffffffffffffffffffffffffffffffffffff168173ffffffffffffffffffffffffffffffffffffffff1614156007906116ef576040517f08c379a00000000000000000000000000000000000000000000000000000000081526004016116e69190611b0d565b60405180910390fd5b5080600360006101000a81548173ffffffffffffffffffffffffffffffffffffffff021916908373ffffffffffffffffffffffffffffffffffffffff16021790555050565b60008060008373ffffffffffffffffffffffffffffffffffffffff1673ffffffffffffffffffffffffffffffffffffffff16815260200190815260200160002060009054906101000a900460ff169050919050565b6000828211156117c2577f4e487b7100000000000000000000000000000000000000000000000000000000600052600160045260246000fd5b81836117ce9190611c0c565b905092915050565b60008082846117e59190611bb6565b90508381101561181e577f4e487b7100000000000000000000000000000000000000000000000000000000600052600160045260246000fd5b8091505092915050565b60008135905061183781611d69565b92915050565b60008135905061184c81611d80565b92915050565b60008135905061186181611d97565b92915050565b60006020828403121561187957600080fd5b600061188784828501611828565b91505092915050565b600080604083850312156118a357600080fd5b60006118b185828601611828565b92505060206118c285828601611828565b9150509250929050565b6000806000606084860312156118e157600080fd5b60006118ef86828701611828565b935050602061190086828701611828565b92505060406119118682870161183d565b9150509250925092565b6000806040838503121561192e57600080fd5b600061193c85828601611828565b925050602061194d8582860161183d565b9150509250929050565b60006020828403121561196957600080fd5b600061197784828501611852565b91505092915050565b61198981611c40565b82525050565b61199881611c52565b82525050565b60006119a982611b9a565b6119b38185611ba5565b93506119c3818560208601611c95565b6119cc81611d58565b840191505092915050565b600081546119e481611cc8565b6119ee8186611ba5565b94506001821660008114611a095760018114611a1b57611a4e565b60ff1983168652602086019350611a4e565b611a2485611b85565b60005b83811015611a4657815481890152600182019150602081019050611a27565b808801955050505b50505092915050565b6000611a64600983611ba5565b91507f4e6f74204f776e657200000000000000000000000000000000000000000000006000830152602082019050919050565b611aa081611c7e565b82525050565b611aaf81611c88565b82525050565b6000602082019050611aca6000830184611980565b92915050565b6000602082019050611ae5600083018461198f565b92915050565b60006020820190508181036000830152611b05818461199e565b905092915050565b60006020820190508181036000830152611b2781846119d7565b905092915050565b60006020820190508181036000830152611b4881611a57565b9050919050565b6000602082019050611b646000830184611a97565b92915050565b6000602082019050611b7f6000830184611aa6565b92915050565b60008190508160005260206000209050919050565b600081519050919050565b600082825260208201905092915050565b6000611bc182611c7e565b9150611bcc83611c7e565b9250827fffffffffffffffffffffffffffffffffffffffffffffffffffffffffffffffff03821115611c0157611c00611cfa565b5b828201905092915050565b6000611c1782611c7e565b9150611c2283611c7e565b925082821015611c3557611c34611cfa565b5b828203905092915050565b6000611c4b82611c5e565b9050919050565b60008115159050919050565b600073ffffffffffffffffffffffffffffffffffffffff82169050919050565b6000819050919050565b600060ff82169050919050565b60005b83811015611cb3578082015181840152602081019050611c98565b83811115611cc2576000848401525b50505050565b60006002820490506001821680611ce057607f821691505b60208210811415611cf457611cf3611d29565b5b50919050565b7f4e487b7100000000000000000000000000000000000000000000000000000000600052601160045260246000fd5b7f4e487b7100000000000000000000000000000000000000000000000000000000600052602260045260246000fd5b6000601f19601f8301169050919050565b611d7281611c40565b8114611d7d57600080fd5b50565b611d8981611c7e565b8114611d9457600080fd5b50565b611da081611c88565b8114611dab57600080fd5b5056fea2646970667358221220e28db4bf5ebd28609128e47e9c8579e6a23372ba676808b5c7f13fa45f891f2a64736f6c63430008000033",
  "immutableReferences": {},
  "source": "// SPDX-License-Identifier: MIT\n// This contract is minimum implementation of ERC1404 protocol without any libraries \npragma solidity ^0.8.0;\n\n\ncontract ERC1404TokenMin {\n\n    using SafeMathInternal for uint256;\n\n    mapping (address => bool) private _whitelisted;  \n\tmapping(address => uint256) private _balances;\n    mapping(address => mapping(address => uint256)) private _allowances;\n\taddress private _owner;\n\n    event Approval(address indexed tokenOwner, address indexed spender, uint tokens);\n    event Transfer(address indexed from, address indexed to, uint tokens);\n\n\tuint8 public decimals = 18;\n    uint256 public totalSupply;\n    string public name;\n    string public symbol;\n\t\n\tstring private AddressZeroMessage = \"Address Zero not allowed\";\n\tstring private AmountExceedBalance = \"Amount Exceed Balance\";\t\n\n\tconstructor(uint256 _initialSupply, string memory _name,  string memory _symbol ) {\n\t\tname = _name;\n        symbol = _symbol;\n\n\t\t_whitelisted[msg.sender] = true;\n\t\t_owner = msg.sender;\n\n\t\t// Minting tokens for initial supply\n        totalSupply = _initialSupply;\n        _balances[msg.sender] = totalSupply;\n\t\t\n\t\temit Transfer(address(0), msg.sender, totalSupply);\n\t}\n\n\n\n    function getOwner() \n\tpublic \n\tview \n\treturns (address) {\n        return _owner;\n    }\n    modifier onlyOwner() {\n        require(_owner == msg.sender, \"Not Owner\");\n        _;\n    }\n    function transferOwnership(address newOwner) \n\tpublic \n\tonlyOwner {\n        require(newOwner != address(0), AddressZeroMessage);\n\t\t_owner = newOwner;\n    }\n\n\n\n\t  function addWhitelistAddress (address user) \n\t  public \n\t  onlyOwner \n\t  { \n\t\t  _whitelisted[user] = true; \n\t  }\n\t  \n\t  function removeWhitelistAddress (address user) \n\t  public \n\t  onlyOwner\n\t  { \n\t\t  delete _whitelisted[user];\n\t  }\n\t  \n\t  function isInvestorWhiteListed(address user) \n\t  public \n\t  view\n\t  returns (bool) {\n\t\t   return _whitelisted[user]; \n\t  }\n\t  \n\t  \n\t  \n\t  \n\t  \n\n    modifier notRestricted (address from, address to, uint256 value) {\n        uint8 restrictionCode = detectTransferRestriction(from, to, value);\n        require(restrictionCode == 1, messageForTransferRestriction(restrictionCode));\n        _;\n    }\n\n    function detectTransferRestriction (address _from, address _to, uint256 value) \n\tpublic \n\tview \n\treturns (uint8)\n    {\n\t\t  if (_whitelisted[_to])\n\t\t  {\n\t\t\t if (_whitelisted[_from]) \n\t\t\t\treturn 1;\n\t\t\t else\n\t\t\t\treturn 0;\n\t\t  } else\n\t\t\t  return 0;\n    }\n\n    function messageForTransferRestriction (uint8 restrictionCode)\n    public\t\n    pure returns (string memory message)\n    {\n        if (restrictionCode == 1) \n            message = \"Whitelisted\";\n         else \n            message = \"Not Whitelisted\";\n    }\n\n\n\n\n\n\n\n\n    function balanceOf(address account) \n    public \n    view \n    returns (uint256) {\n        return _balances[account];\n    }\n\t\n\n    function transfer(\n        address recipient,\n        uint256 amount\n    ) \t\n\tpublic \n\tnotRestricted (msg.sender, recipient, amount)\n\t{\n        require(recipient != address(0), AddressZeroMessage);\n        require(_balances[msg.sender] >= amount, AmountExceedBalance);\n\t\t\n        _balances[msg.sender] = _balances[msg.sender].sub(amount);\n        _balances[recipient] = _balances[recipient].add(amount);\n\n        emit Transfer(msg.sender, recipient, amount);\n    }\n\n\n\n    function approve(\n        address spender,\n        uint256 amount\n    ) public {\n        require(spender != address(0), AddressZeroMessage);\n\n        _allowances[msg.sender][spender] = amount;\n        emit Approval(msg.sender, spender, amount);\n    }\n\n\n    function allowance(address owner, address spender) \n\tpublic \n\tview \n\treturns (uint256) {\n        return _allowances[owner][spender];\n    }\t\n\n\n    function transferFrom(\n        address owner,\n        address recipient,\n        uint256 amount\n    ) \n\tpublic \n\tnotRestricted (owner, recipient, amount)\n\t{\t\n        require(_balances[owner] >= amount, AmountExceedBalance);\n        require(_allowances[owner][msg.sender] >= amount, AmountExceedBalance );\n\n        _balances[owner] = _balances[owner].sub(amount);\n        _allowances[owner][msg.sender] = _allowances[owner][msg.sender].sub(amount);\n        _balances[recipient] = _balances[recipient].add(amount);\n\t\t\n        emit Transfer(owner, recipient, amount);\t\n    }\n\n\n\n\n\n\n    function mint(address account, uint256 amount) \n\tonlyOwner \n\tpublic {\n        require(account != address(0), AddressZeroMessage);\n\n        totalSupply.add(amount);\n        _balances[account].add(amount);\n        emit Transfer(address(0), account, amount);\n    }\n\n\n    function burn(address account, uint256 amount) \n\tonlyOwner\n\tpublic {\n        require(account != address(0), AddressZeroMessage);\n        require(_balances[account] >= amount, AmountExceedBalance);\n\t\t\n        _balances[account] = _balances[account].sub(amount);\n        totalSupply.sub(amount);\n\n        emit Transfer(account, address(0), amount);\n    }\n\n}\n \n\n\nlibrary SafeMathInternal {\n    function sub(uint256 a, uint256 b) internal pure returns (uint256) {\n      assert(b <= a);\n      return a - b;\n    }\n\n    function add(uint256 a, uint256 b) internal pure returns (uint256) {\n      uint256 c = a + b;\n      assert(c >= a);\n      return c;\n    }\n} \n\n",
  "sourcePath": "/home/shahzad/Shahzad/projects/git/ERC1404/contracts/ERC1404TokenMinStandard.sol",
  "compiler": {
    "name": "solc",
    "version": "0.8.0+commit.c7dfd78e.Emscripten.clang"
  },
  "schemaVersion": "3.3.4",
  "updatedAt": "2021-11-08T07:59:37.721Z",
  "devdoc": {
    "kind": "dev",
    "methods": {},
    "version": 1
  },
  "userdoc": {
    "kind": "user",
    "methods": {},
    "version": 1
  }
}