{
  "contractName": "ERC1404TokenMinKYCv13",
  "abi": [
    {
      "inputs": [
        {
          "internalType": "uint256",
          "name": "_initialSupply",
          "type": "uint256"
        },
        {
          "internalType": "string",
          "name": "_name",
          "type": "string"
        },
        {
          "internalType": "string",
          "name": "_symbol",
          "type": "string"
        },
        {
          "internalType": "uint64",
          "name": "_allowedInvestors",
          "type": "uint64"
        },
        {
          "internalType": "uint8",
          "name": "_decimalsPlaces",
          "type": "uint8"
        },
        {
          "internalType": "string",
          "name": "_ShareCertificate",
          "type": "string"
        },
        {
          "internalType": "string",
          "name": "_CompanyHomepage",
          "type": "string"
        },
        {
          "internalType": "string",
          "name": "_CompanyLegalDocs",
          "type": "string"
        },
        {
          "internalType": "address",
          "name": "_atomicSwapContractAddress",
          "type": "address"
        }
      ],
      "stateMutability": "nonpayable",
      "type": "constructor"
    },
    {
      "anonymous": false,
      "inputs": [
        {
          "indexed": false,
          "internalType": "uint256",
          "name": "_allowedInvestors",
          "type": "uint256"
        }
      ],
      "name": "AllowedInvestorsReset",
      "type": "event"
    },
    {
      "anonymous": false,
      "inputs": [
        {
          "indexed": true,
          "internalType": "address",
          "name": "owner",
          "type": "address"
        },
        {
          "indexed": true,
          "internalType": "address",
          "name": "spender",
          "type": "address"
        },
        {
          "indexed": false,
          "internalType": "uint256",
          "name": "value",
          "type": "uint256"
        }
      ],
      "name": "Approval",
      "type": "event"
    },
    {
      "anonymous": false,
      "inputs": [
        {
          "indexed": true,
          "internalType": "address",
          "name": "account",
          "type": "address"
        },
        {
          "indexed": false,
          "internalType": "uint256",
          "name": "amount",
          "type": "uint256"
        }
      ],
      "name": "BurnTokens",
      "type": "event"
    },
    {
      "anonymous": false,
      "inputs": [
        {
          "indexed": false,
          "internalType": "string",
          "name": "_CompanyHomepage",
          "type": "string"
        }
      ],
      "name": "CompanyHomepageReset",
      "type": "event"
    },
    {
      "anonymous": false,
      "inputs": [
        {
          "indexed": false,
          "internalType": "string",
          "name": "_CompanyLegalDocs",
          "type": "string"
        }
      ],
      "name": "CompanyLegalDocsReset",
      "type": "event"
    },
    {
      "anonymous": false,
      "inputs": [
        {
          "indexed": false,
          "internalType": "uint256",
          "name": "_tradingHoldingPeriod",
          "type": "uint256"
        }
      ],
      "name": "HoldingPeriodReset",
      "type": "event"
    },
    {
      "anonymous": false,
      "inputs": [
        {
          "indexed": true,
          "internalType": "address",
          "name": "from",
          "type": "address"
        },
        {
          "indexed": true,
          "internalType": "address",
          "name": "to",
          "type": "address"
        },
        {
          "indexed": false,
          "internalType": "uint256",
          "name": "amount",
          "type": "uint256"
        }
      ],
      "name": "IssuerForceTransfer",
      "type": "event"
    },
    {
      "anonymous": false,
      "inputs": [
        {
          "indexed": true,
          "internalType": "address",
          "name": "account",
          "type": "address"
        },
        {
          "indexed": false,
          "internalType": "uint256",
          "name": "receiveRestriction",
          "type": "uint256"
        },
        {
          "indexed": false,
          "internalType": "uint256",
          "name": "sendRestriction",
          "type": "uint256"
        }
      ],
      "name": "KYCDataForUserSet",
      "type": "event"
    },
    {
      "anonymous": false,
      "inputs": [
        {
          "indexed": true,
          "internalType": "address",
          "name": "account",
          "type": "address"
        },
        {
          "indexed": false,
          "internalType": "uint256",
          "name": "amount",
          "type": "uint256"
        }
      ],
      "name": "MintTokens",
      "type": "event"
    },
    {
      "anonymous": false,
      "inputs": [
        {
          "indexed": true,
          "internalType": "address",
          "name": "previousOwner",
          "type": "address"
        },
        {
          "indexed": true,
          "internalType": "address",
          "name": "newOwner",
          "type": "address"
        }
      ],
      "name": "OwnershipTransferred",
      "type": "event"
    },
    {
      "anonymous": false,
      "inputs": [
        {
          "indexed": false,
          "internalType": "string",
          "name": "_ShareCertificate",
          "type": "string"
        }
      ],
      "name": "ShareCertificateReset",
      "type": "event"
    },
    {
      "anonymous": false,
      "inputs": [
        {
          "indexed": true,
          "internalType": "address",
          "name": "from",
          "type": "address"
        },
        {
          "indexed": true,
          "internalType": "address",
          "name": "to",
          "type": "address"
        },
        {
          "indexed": false,
          "internalType": "uint256",
          "name": "value",
          "type": "uint256"
        }
      ],
      "name": "Transfer",
      "type": "event"
    },
    {
      "anonymous": false,
      "inputs": [
        {
          "indexed": true,
          "internalType": "address",
          "name": "spender",
          "type": "address"
        },
        {
          "indexed": true,
          "internalType": "address",
          "name": "sender",
          "type": "address"
        },
        {
          "indexed": true,
          "internalType": "address",
          "name": "recipient",
          "type": "address"
        },
        {
          "indexed": false,
          "internalType": "uint256",
          "name": "amount",
          "type": "uint256"
        }
      ],
      "name": "TransferFrom",
      "type": "event"
    },
    {
      "anonymous": false,
      "inputs": [
        {
          "indexed": true,
          "internalType": "address",
          "name": "from",
          "type": "address"
        },
        {
          "indexed": true,
          "internalType": "address",
          "name": "to",
          "type": "address"
        },
        {
          "indexed": false,
          "internalType": "string",
          "name": "message",
          "type": "string"
        },
        {
          "indexed": false,
          "internalType": "uint8",
          "name": "errorCode",
          "type": "uint8"
        }
      ],
      "name": "TransferRestrictionDetected",
      "type": "event"
    },
    {
      "anonymous": false,
      "inputs": [
        {
          "indexed": false,
          "internalType": "address",
          "name": "user",
          "type": "address"
        }
      ],
      "name": "WhitelistAuthorityStatusRemoved",
      "type": "event"
    },
    {
      "anonymous": false,
      "inputs": [
        {
          "indexed": false,
          "internalType": "address",
          "name": "user",
          "type": "address"
        }
      ],
      "name": "WhitelistAuthorityStatusSet",
      "type": "event"
    },
    {
      "inputs": [],
      "name": "CompanyHomepage",
      "outputs": [
        {
          "internalType": "string",
          "name": "",
          "type": "string"
        }
      ],
      "stateMutability": "view",
      "type": "function"
    },
    {
      "inputs": [],
      "name": "CompanyLegalDocs",
      "outputs": [
        {
          "internalType": "string",
          "name": "",
          "type": "string"
        }
      ],
      "stateMutability": "view",
      "type": "function"
    },
    {
      "inputs": [],
      "name": "IssuancePlatform",
      "outputs": [
        {
          "internalType": "string",
          "name": "",
          "type": "string"
        }
      ],
      "stateMutability": "view",
      "type": "function"
    },
    {
      "inputs": [],
      "name": "ShareCertificate",
      "outputs": [
        {
          "internalType": "string",
          "name": "",
          "type": "string"
        }
      ],
      "stateMutability": "view",
      "type": "function"
    },
    {
      "inputs": [
        {
          "internalType": "address",
          "name": "owner",
          "type": "address"
        },
        {
          "internalType": "address",
          "name": "spender",
          "type": "address"
        }
      ],
      "name": "allowance",
      "outputs": [
        {
          "internalType": "uint256",
          "name": "",
          "type": "uint256"
        }
      ],
      "stateMutability": "view",
      "type": "function"
    },
    {
      "inputs": [],
      "name": "allowedInvestors",
      "outputs": [
        {
          "internalType": "uint64",
          "name": "",
          "type": "uint64"
        }
      ],
      "stateMutability": "view",
      "type": "function"
    },
    {
      "inputs": [
        {
          "internalType": "address",
          "name": "spender",
          "type": "address"
        },
        {
          "internalType": "uint256",
          "name": "amount",
          "type": "uint256"
        }
      ],
      "name": "approve",
      "outputs": [
        {
          "internalType": "bool",
          "name": "",
          "type": "bool"
        }
      ],
      "stateMutability": "nonpayable",
      "type": "function"
    },
    {
      "inputs": [
        {
          "internalType": "address",
          "name": "account",
          "type": "address"
        }
      ],
      "name": "balanceOf",
      "outputs": [
        {
          "internalType": "uint256",
          "name": "",
          "type": "uint256"
        }
      ],
      "stateMutability": "view",
      "type": "function"
    },
    {
      "inputs": [],
      "name": "currentTotalInvestors",
      "outputs": [
        {
          "internalType": "uint64",
          "name": "",
          "type": "uint64"
        }
      ],
      "stateMutability": "view",
      "type": "function"
    },
    {
      "inputs": [
        {
          "internalType": "address",
          "name": "spender",
          "type": "address"
        },
        {
          "internalType": "uint256",
          "name": "subtractedValue",
          "type": "uint256"
        }
      ],
      "name": "decreaseAllowance",
      "outputs": [
        {
          "internalType": "bool",
          "name": "",
          "type": "bool"
        }
      ],
      "stateMutability": "nonpayable",
      "type": "function"
    },
    {
      "inputs": [
        {
          "internalType": "address",
          "name": "spender",
          "type": "address"
        },
        {
          "internalType": "uint256",
          "name": "addedValue",
          "type": "uint256"
        }
      ],
      "name": "increaseAllowance",
      "outputs": [
        {
          "internalType": "bool",
          "name": "",
          "type": "bool"
        }
      ],
      "stateMutability": "nonpayable",
      "type": "function"
    },
    {
      "inputs": [],
      "name": "issuanceProtocol",
      "outputs": [
        {
          "internalType": "string",
          "name": "",
          "type": "string"
        }
      ],
      "stateMutability": "view",
      "type": "function"
    },
    {
      "inputs": [],
      "name": "name",
      "outputs": [
        {
          "internalType": "string",
          "name": "",
          "type": "string"
        }
      ],
      "stateMutability": "view",
      "type": "function"
    },
    {
      "inputs": [],
      "name": "owner",
      "outputs": [
        {
          "internalType": "address",
          "name": "",
          "type": "address"
        }
      ],
      "stateMutability": "view",
      "type": "function"
    },
    {
      "inputs": [],
      "name": "renounceOwnership",
      "outputs": [],
      "stateMutability": "nonpayable",
      "type": "function"
    },
    {
      "inputs": [],
      "name": "symbol",
      "outputs": [
        {
          "internalType": "string",
          "name": "",
          "type": "string"
        }
      ],
      "stateMutability": "view",
      "type": "function"
    },
    {
      "inputs": [],
      "name": "totalSupply",
      "outputs": [
        {
          "internalType": "uint256",
          "name": "",
          "type": "uint256"
        }
      ],
      "stateMutability": "view",
      "type": "function"
    },
    {
      "inputs": [],
      "name": "tradingHoldingPeriod",
      "outputs": [
        {
          "internalType": "uint64",
          "name": "",
          "type": "uint64"
        }
      ],
      "stateMutability": "view",
      "type": "function"
    },
    {
      "inputs": [
        {
          "internalType": "address",
          "name": "newOwner",
          "type": "address"
        }
      ],
      "name": "transferOwnership",
      "outputs": [],
      "stateMutability": "nonpayable",
      "type": "function"
    },
    {
      "inputs": [],
      "name": "version",
      "outputs": [
        {
          "internalType": "string",
          "name": "",
          "type": "string"
        }
      ],
      "stateMutability": "view",
      "type": "function"
    },
    {
      "inputs": [],
      "name": "decimals",
      "outputs": [
        {
          "internalType": "uint8",
          "name": "",
          "type": "uint8"
        }
      ],
      "stateMutability": "view",
      "type": "function"
    },
    {
      "inputs": [
        {
          "internalType": "address",
          "name": "account",
          "type": "address"
        },
        {
          "internalType": "uint256",
          "name": "amount",
          "type": "uint256"
        }
      ],
      "name": "mint",
      "outputs": [
        {
          "internalType": "bool",
          "name": "",
          "type": "bool"
        }
      ],
      "stateMutability": "nonpayable",
      "type": "function"
    },
    {
      "inputs": [
        {
          "internalType": "address",
          "name": "account",
          "type": "address"
        },
        {
          "internalType": "uint256",
          "name": "amount",
          "type": "uint256"
        }
      ],
      "name": "burn",
      "outputs": [
        {
          "internalType": "bool",
          "name": "",
          "type": "bool"
        }
      ],
      "stateMutability": "nonpayable",
      "type": "function"
    },
    {
      "inputs": [
        {
          "internalType": "string",
          "name": "_ShareCertificate",
          "type": "string"
        }
      ],
      "name": "resetShareCertificate",
      "outputs": [],
      "stateMutability": "nonpayable",
      "type": "function"
    },
    {
      "inputs": [
        {
          "internalType": "string",
          "name": "_CompanyHomepage",
          "type": "string"
        }
      ],
      "name": "resetCompanyHomepage",
      "outputs": [],
      "stateMutability": "nonpayable",
      "type": "function"
    },
    {
      "inputs": [
        {
          "internalType": "string",
          "name": "_CompanyLegalDocs",
          "type": "string"
        }
      ],
      "name": "resetCompanyLegalDocs",
      "outputs": [],
      "stateMutability": "nonpayable",
      "type": "function"
    },
    {
      "inputs": [
        {
          "internalType": "uint64",
          "name": "_allowedInvestors",
          "type": "uint64"
        }
      ],
      "name": "resetAllowedInvestors",
      "outputs": [],
      "stateMutability": "nonpayable",
      "type": "function"
    },
    {
      "inputs": [
        {
          "internalType": "uint64",
          "name": "_tradingHoldingPeriod",
          "type": "uint64"
        }
      ],
      "name": "setTradingHoldingPeriod",
      "outputs": [],
      "stateMutability": "nonpayable",
      "type": "function"
    },
    {
      "inputs": [
        {
          "internalType": "address",
          "name": "user",
          "type": "address"
        }
      ],
      "name": "setWhitelistAuthorityStatus",
      "outputs": [],
      "stateMutability": "nonpayable",
      "type": "function"
    },
    {
      "inputs": [
        {
          "internalType": "address",
          "name": "user",
          "type": "address"
        }
      ],
      "name": "removeWhitelistAuthorityStatus",
      "outputs": [],
      "stateMutability": "nonpayable",
      "type": "function"
    },
    {
      "inputs": [
        {
          "internalType": "address",
          "name": "user",
          "type": "address"
        }
      ],
      "name": "getWhitelistAuthorityStatus",
      "outputs": [
        {
          "internalType": "bool",
          "name": "",
          "type": "bool"
        }
      ],
      "stateMutability": "view",
      "type": "function"
    },
    {
      "inputs": [
        {
          "internalType": "address",
          "name": "account",
          "type": "address"
        },
        {
          "internalType": "uint64",
          "name": "receiveRestriction",
          "type": "uint64"
        },
        {
          "internalType": "uint64",
          "name": "sendRestriction",
          "type": "uint64"
        }
      ],
      "name": "modifyKYCData",
      "outputs": [],
      "stateMutability": "nonpayable",
      "type": "function"
    },
    {
      "inputs": [
        {
          "internalType": "address[]",
          "name": "account",
          "type": "address[]"
        },
        {
          "internalType": "uint64",
          "name": "receiveRestriction",
          "type": "uint64"
        },
        {
          "internalType": "uint64",
          "name": "sendRestriction",
          "type": "uint64"
        }
      ],
      "name": "bulkWhitelistWallets",
      "outputs": [],
      "stateMutability": "nonpayable",
      "type": "function"
    },
    {
      "inputs": [
        {
          "internalType": "address",
          "name": "user",
          "type": "address"
        }
      ],
      "name": "getKYCData",
      "outputs": [
        {
          "internalType": "uint256",
          "name": "",
          "type": "uint256"
        },
        {
          "internalType": "uint256",
          "name": "",
          "type": "uint256"
        }
      ],
      "stateMutability": "view",
      "type": "function"
    },
    {
      "inputs": [
        {
          "internalType": "address",
          "name": "_from",
          "type": "address"
        },
        {
          "internalType": "address",
          "name": "_to",
          "type": "address"
        },
        {
          "internalType": "uint256",
          "name": "value",
          "type": "uint256"
        }
      ],
      "name": "detectTransferRestriction",
      "outputs": [
        {
          "internalType": "uint8",
          "name": "status",
          "type": "uint8"
        }
      ],
      "stateMutability": "view",
      "type": "function"
    },
    {
      "inputs": [
        {
          "internalType": "uint8",
          "name": "restrictionCode",
          "type": "uint8"
        }
      ],
      "name": "messageForTransferRestriction",
      "outputs": [
        {
          "internalType": "string",
          "name": "message",
          "type": "string"
        }
      ],
      "stateMutability": "view",
      "type": "function"
    },
    {
      "inputs": [
        {
          "internalType": "address",
          "name": "recipient",
          "type": "address"
        },
        {
          "internalType": "uint256",
          "name": "amount",
          "type": "uint256"
        }
      ],
      "name": "transfer",
      "outputs": [
        {
          "internalType": "bool",
          "name": "",
          "type": "bool"
        }
      ],
      "stateMutability": "nonpayable",
      "type": "function"
    },
    {
      "inputs": [
        {
          "internalType": "address",
          "name": "sender",
          "type": "address"
        },
        {
          "internalType": "address",
          "name": "recipient",
          "type": "address"
        },
        {
          "internalType": "uint256",
          "name": "amount",
          "type": "uint256"
        }
      ],
      "name": "transferFrom",
      "outputs": [
        {
          "internalType": "bool",
          "name": "",
          "type": "bool"
        }
      ],
      "stateMutability": "nonpayable",
      "type": "function"
    },
    {
      "inputs": [
        {
          "internalType": "address",
          "name": "from",
          "type": "address"
        },
        {
          "internalType": "uint256",
          "name": "amount",
          "type": "uint256"
        }
      ],
      "name": "forceTransferToken",
      "outputs": [
        {
          "internalType": "bool",
          "name": "",
          "type": "bool"
        }
      ],
      "stateMutability": "nonpayable",
      "type": "function"
    }
  ],
  "bytecode": "0x60806040526040518060400160405280600381526020017f312e3300000000000000000000000000000000000000000000000000000000008152506009908051906020019062000051929190620008fc565b506040518060400160405280600a81526020017f4469676953686172657300000000000000000000000000000000000000000000815250600a90805190602001906200009f929190620008fc565b506040518060400160405280600881526020017f4552432d31343034000000000000000000000000000000000000000000000000815250600b9080519060200190620000ed929190620008fc565b506000600f60006101000a81548167ffffffffffffffff021916908367ffffffffffffffff1602179055506001600f60106101000a81548167ffffffffffffffff021916908367ffffffffffffffff1602179055506012600f60186101000a81548160ff021916908360ff1602179055506040518061010001604052806040518060400160405280601e81526020017f4e6f207472616e73666572207265737472696374696f6e7320666f756e64000081525081526020016040518060a001604052806066815260200162005183606691398152602001604051806080016040528060448152602001620052516044913981526020016040518060400160405280602081526020017f5a65726f207472616e7366657220616d6f756e74206e6f7420616c6c6f7765648152508152602001604051806060016040528060248152602001620052fb6024913981526020016040518060600160405280602681526020016200515d6026913981526020016040518060a0016040528060688152602001620051e96068913981526020016040518060a001604052806066815260200162005295606691398152506010906008620002aa9291906200098d565b50348015620002b857600080fd5b506040516200531f3803806200531f8339818101604052810190620002de919062000b4f565b87878160039080519060200190620002f8929190620008fc565b50806004908051906020019062000311929190620008fc565b50505062000334620003286200068c60201b60201c565b6200069460201b60201c565b84600f60186101000a81548160ff021916908360ff1602179055506001600660006200036a6200075a60201b620014f71760201c565b73ffffffffffffffffffffffffffffffffffffffff1673ffffffffffffffffffffffffffffffffffffffff16815260200190815260200160002060006101000a81548167ffffffffffffffff021916908367ffffffffffffffff160217905550600160076000620003e56200075a60201b620014f71760201c565b73ffffffffffffffffffffffffffffffffffffffff1673ffffffffffffffffffffffffffffffffffffffff16815260200190815260200160002060006101000a81548167ffffffffffffffff021916908367ffffffffffffffff1602179055506001600660008373ffffffffffffffffffffffffffffffffffffffff1673ffffffffffffffffffffffffffffffffffffffff16815260200190815260200160002060006101000a81548167ffffffffffffffff021916908367ffffffffffffffff1602179055506001600760008373ffffffffffffffffffffffffffffffffffffffff1673ffffffffffffffffffffffffffffffffffffffff16815260200190815260200160002060006101000a81548167ffffffffffffffff021916908367ffffffffffffffff16021790555085600f60086101000a81548167ffffffffffffffff021916908367ffffffffffffffff160217905550600160086000620005576200075a60201b620014f71760201c565b73ffffffffffffffffffffffffffffffffffffffff1673ffffffffffffffffffffffffffffffffffffffff16815260200190815260200160002060006101000a81548160ff02191690831515021790555083600c9080519060200190620005c0929190620008fc565b5082600d9080519060200190620005d9929190620008fc565b5081600e9080519060200190620005f2929190620008fc565b50620006196200060c6200075a60201b620014f71760201c565b8a6200078460201b60201c565b6200062e6200075a60201b620014f71760201c565b73ffffffffffffffffffffffffffffffffffffffff167f7b47457f3af09e5f794b020fd74160963a808f5985883496a096d403d380c3438a60405162000675919062000d1a565b60405180910390a250505050505050505062000fcc565b600033905090565b6000600560009054906101000a900473ffffffffffffffffffffffffffffffffffffffff16905081600560006101000a81548173ffffffffffffffffffffffffffffffffffffffff021916908373ffffffffffffffffffffffffffffffffffffffff1602179055508173ffffffffffffffffffffffffffffffffffffffff168173ffffffffffffffffffffffffffffffffffffffff167f8be0079c531659141344cd1fd0a4f28419497f9722a3daafe3b4186f6b6457e060405160405180910390a35050565b6000600560009054906101000a900473ffffffffffffffffffffffffffffffffffffffff16905090565b600073ffffffffffffffffffffffffffffffffffffffff168273ffffffffffffffffffffffffffffffffffffffff161415620007f7576040517f08c379a0000000000000000000000000000000000000000000000000000000008152600401620007ee9062000cf8565b60405180910390fd5b6200080b60008383620008f260201b60201c565b80600260008282546200081f919062000daf565b92505081905550806000808473ffffffffffffffffffffffffffffffffffffffff1673ffffffffffffffffffffffffffffffffffffffff168152602001908152602001600020600082825401925050819055508173ffffffffffffffffffffffffffffffffffffffff16600073ffffffffffffffffffffffffffffffffffffffff167fddf252ad1be2c89b69c2b068fc378daa952ba7f163c4a11628f55a4df523b3ef83604051620008d2919062000d1a565b60405180910390a3620008ee60008383620008f760201b60201c565b5050565b505050565b505050565b8280546200090a9062000ea1565b90600052602060002090601f0160209004810192826200092e57600085556200097a565b82601f106200094957805160ff19168380011785556200097a565b828001600101855582156200097a579182015b82811115620009795782518255916020019190600101906200095c565b5b509050620009899190620009f4565b5090565b828054828255906000526020600020908101928215620009e1579160200282015b82811115620009e0578251829080519060200190620009cf929190620008fc565b5091602001919060010190620009ae565b5b509050620009f0919062000a13565b5090565b5b8082111562000a0f576000816000905550600101620009f5565b5090565b5b8082111562000a37576000818162000a2d919062000a3b565b5060010162000a14565b5090565b50805462000a499062000ea1565b6000825580601f1062000a5d575062000a7e565b601f01602090049060005260206000209081019062000a7d9190620009f4565b5b50565b600062000a9862000a928462000d6b565b62000d37565b90508281526020810184848401111562000ab157600080fd5b62000abe84828562000e6b565b509392505050565b60008151905062000ad78162000f64565b92915050565b600082601f83011262000aef57600080fd5b815162000b0184826020860162000a81565b91505092915050565b60008151905062000b1b8162000f7e565b92915050565b60008151905062000b328162000f98565b92915050565b60008151905062000b498162000fb2565b92915050565b60008060008060008060008060006101208a8c03121562000b6f57600080fd5b600062000b7f8c828d0162000b0a565b99505060208a015167ffffffffffffffff81111562000b9d57600080fd5b62000bab8c828d0162000add565b98505060408a015167ffffffffffffffff81111562000bc957600080fd5b62000bd78c828d0162000add565b975050606062000bea8c828d0162000b21565b965050608062000bfd8c828d0162000b38565b95505060a08a015167ffffffffffffffff81111562000c1b57600080fd5b62000c298c828d0162000add565b94505060c08a015167ffffffffffffffff81111562000c4757600080fd5b62000c558c828d0162000add565b93505060e08a015167ffffffffffffffff81111562000c7357600080fd5b62000c818c828d0162000add565b92505061010062000c958c828d0162000ac6565b9150509295985092959850929598565b600062000cb4601f8362000d9e565b91507f45524332303a206d696e7420746f20746865207a65726f2061646472657373006000830152602082019050919050565b62000cf28162000e40565b82525050565b6000602082019050818103600083015262000d138162000ca5565b9050919050565b600060208201905062000d31600083018462000ce7565b92915050565b6000604051905081810181811067ffffffffffffffff8211171562000d615762000d6062000f35565b5b8060405250919050565b600067ffffffffffffffff82111562000d895762000d8862000f35565b5b601f19601f8301169050602081019050919050565b600082825260208201905092915050565b600062000dbc8262000e40565b915062000dc98362000e40565b9250827fffffffffffffffffffffffffffffffffffffffffffffffffffffffffffffffff0382111562000e015762000e0062000ed7565b5b828201905092915050565b600062000e198262000e20565b9050919050565b600073ffffffffffffffffffffffffffffffffffffffff82169050919050565b6000819050919050565b600067ffffffffffffffff82169050919050565b600060ff82169050919050565b60005b8381101562000e8b57808201518184015260208101905062000e6e565b8381111562000e9b576000848401525b50505050565b6000600282049050600182168062000eba57607f821691505b6020821081141562000ed15762000ed062000f06565b5b50919050565b7f4e487b7100000000000000000000000000000000000000000000000000000000600052601160045260246000fd5b7f4e487b7100000000000000000000000000000000000000000000000000000000600052602260045260246000fd5b7f4e487b7100000000000000000000000000000000000000000000000000000000600052604160045260246000fd5b62000f6f8162000e0c565b811462000f7b57600080fd5b50565b62000f898162000e40565b811462000f9557600080fd5b50565b62000fa38162000e4a565b811462000faf57600080fd5b50565b62000fbd8162000e5e565b811462000fc957600080fd5b50565b6141818062000fdc6000396000f3fe608060405234801561001057600080fd5b506004361061023d5760003560e01c80637cae04f71161013b578063ac893db1116100b8578063d4ce14151161007c578063d4ce1415146106e1578063da76e2f314610711578063dd62ed3e1461072d578063e83794211461075d578063f2fde38b1461078d5761023d565b8063ac893db114610653578063b1b5932a1461066f578063ba19c2681461068d578063c319e41c146106a9578063c97c59d2146106c55761023d565b80639dc29fac116100ff5780639dc29fac14610576578063a457c2d7146105a6578063a9059cbb146105d6578063ab47a2f914610606578063abc30a4b146106375761023d565b80637cae04f7146104ce5780637f4ab1dd146104ec57806384f9007f1461051c5780638da5cb5b1461053a57806395d89b41146105585761023d565b806345968836116101c9578063639c86ce1161018d578063639c86ce1461043a5780636401ca7614610458578063654b6f151461047657806370a0823114610494578063715018a6146104c45761023d565b806345968836146103a857806351aebcd4146103c657806354fd4d50146103e257806359a72ddc14610400578063603aa5ea1461041e5761023d565b806323b872dd1161021057806323b872dd146102ca578063313ce567146102fa57806339509351146103185780633a24ddc51461034857806340c10f19146103785761023d565b806306fdde0314610242578063095ea7b31461026057806318160ddd146102905780631efcaeaf146102ae575b600080fd5b61024a6107a9565b6040516102579190613a04565b60405180910390f35b61027a6004803603810190610275919061304a565b61083b565b60405161028791906139e9565b60405180910390f35b61029861085e565b6040516102a59190613cb6565b60405180910390f35b6102c860048036038101906102c3919061317d565b610868565b005b6102e460048036038101906102df9190612ffb565b61095a565b6040516102f191906139e9565b60405180910390f35b610302610acc565b60405161030f9190613d59565b60405180910390f35b610332600480360381019061032d919061304a565b610ae3565b60405161033f91906139e9565b60405180910390f35b610362600480360381019061035d919061304a565b610b1a565b60405161036f91906139e9565b60405180910390f35b610392600480360381019061038d919061304a565b610bae565b60405161039f91906139e9565b60405180910390f35b6103b0610ead565b6040516103bd9190613d15565b60405180910390f35b6103e060048036038101906103db919061313c565b610ec7565b005b6103ea610f20565b6040516103f79190613a04565b60405180910390f35b610408610fae565b6040516104159190613a04565b60405180910390f35b610438600480360381019061043391906130d5565b61103c565b005b61044261118b565b60405161044f9190613d15565b60405180910390f35b6104606111a5565b60405161046d9190613d15565b60405180910390f35b61047e6111bf565b60405161048b9190613a04565b60405180910390f35b6104ae60048036038101906104a99190612f96565b61124d565b6040516104bb9190613cb6565b60405180910390f35b6104cc611295565b005b6104d66112a9565b6040516104e39190613a04565b60405180910390f35b610506600480360381019061050191906131a6565b611337565b6040516105139190613a04565b60405180910390f35b610524611469565b6040516105319190613a04565b60405180910390f35b6105426114f7565b60405161054f91906139ce565b60405180910390f35b610560611521565b60405161056d9190613a04565b60405180910390f35b610590600480360381019061058b919061304a565b6115b3565b60405161059d91906139e9565b60405180910390f35b6105c060048036038101906105bb919061304a565b6116ff565b6040516105cd91906139e9565b60405180910390f35b6105f060048036038101906105eb919061304a565b611776565b6040516105fd91906139e9565b60405180910390f35b610620600480360381019061061b9190612f96565b611872565b60405161062e929190613cd1565b60405180910390f35b610651600480360381019061064c919061313c565b611940565b005b61066d6004803603810190610668919061313c565b611999565b005b6106776119f2565b6040516106849190613a04565b60405180910390f35b6106a760048036038101906106a29190613086565b611a80565b005b6106c360048036038101906106be9190612f96565b611b2a565b005b6106df60048036038101906106da919061317d565b611bc4565b005b6106fb60048036038101906106f69190612ffb565b611c2f565b6040516107089190613d59565b60405180910390f35b61072b60048036038101906107269190612f96565b611fad565b005b61074760048036038101906107429190612fbf565b61203e565b6040516107549190613cb6565b60405180910390f35b61077760048036038101906107729190612f96565b6120c5565b60405161078491906139e9565b60405180910390f35b6107a760048036038101906107a29190612f96565b61211b565b005b6060600380546107b890613fd6565b80601f01602080910402602001604051908101604052809291908181526020018280546107e490613fd6565b80156108315780601f1061080657610100808354040283529160200191610831565b820191906000526020600020905b81548152906001019060200180831161081457829003601f168201915b5050505050905090565b60008061084661219f565b90506108538185856121a7565b600191505092915050565b6000600254905090565b610870612372565b600060ff168167ffffffffffffffff16141580156108b75750600f60009054906101000a900467ffffffffffffffff1667ffffffffffffffff168167ffffffffffffffff16105b156108f7576040517f08c379a00000000000000000000000000000000000000000000000000000000081526004016108ee90613b16565b60405180910390fd5b80600f60086101000a81548167ffffffffffffffff021916908367ffffffffffffffff1602179055507f87782743094654fc1484ef46e968abc30c6cd880e70ec8b310eb42641e35eb458160405161094f9190613cfa565b60405180910390a150565b6000838383600061096c848484611c2f565b9050600060ff168160ff1614610a2d57600061098782611337565b90508373ffffffffffffffffffffffffffffffffffffffff168573ffffffffffffffffffffffffffffffffffffffff167fc844cc4ce519449488974a66d44d457e85e232edb0f90bd63eb0778f4b5c54c083856040516109e8929190613a26565b60405180910390a3806040517f08c379a0000000000000000000000000000000000000000000000000000000008152600401610a249190613a04565b60405180910390fd5b610a3a88888860006123f0565b8673ffffffffffffffffffffffffffffffffffffffff168873ffffffffffffffffffffffffffffffffffffffff16610a7061219f565b73ffffffffffffffffffffffffffffffffffffffff167f5f7542858008eeb041631f30e6109ae94b83a58e9a58261dd2c42c508850f93989604051610ab59190613cb6565b60405180910390a460019450505050509392505050565b6000600f60189054906101000a900460ff16905090565b600080610aee61219f565b9050610b0f818585610b00858961203e565b610b0a9190613e1d565b6121a7565b600191505092915050565b6000610b24612372565b610b3883610b306114f7565b8460016123f0565b610b406114f7565b73ffffffffffffffffffffffffffffffffffffffff168373ffffffffffffffffffffffffffffffffffffffff167f625f1e576665168ff9b3fd5510766eca672f1c97ca53cf82b4e8d96e02271b7d84604051610b9c9190613cb6565b60405180910390a36001905092915050565b6000610bb8612372565b6000600660008573ffffffffffffffffffffffffffffffffffffffff1673ffffffffffffffffffffffffffffffffffffffff16815260200190815260200160002060009054906101000a900467ffffffffffffffff1667ffffffffffffffff161415610c59576040517f08c379a0000000000000000000000000000000000000000000000000000000008152600401610c5090613c56565b60405180910390fd5b6000821415610c9d576040517f08c379a0000000000000000000000000000000000000000000000000000000008152600401610c9490613af6565b60405180910390fd5b610ca56114f7565b73ffffffffffffffffffffffffffffffffffffffff168373ffffffffffffffffffffffffffffffffffffffff1614158015610ce857506000610ce68461124d565b145b8015610d185750600060ff16600f60089054906101000a900467ffffffffffffffff1667ffffffffffffffff1614155b8015610d6f5750600f60089054906101000a900467ffffffffffffffff1667ffffffffffffffff166001600f60009054906101000a900467ffffffffffffffff16610d639190613e73565b67ffffffffffffffff16115b15610daf576040517f08c379a0000000000000000000000000000000000000000000000000000000008152600401610da690613bb6565b60405180910390fd5b6000610dba8461124d565b148015610dfa5750610dca6114f7565b73ffffffffffffffffffffffffffffffffffffffff168373ffffffffffffffffffffffffffffffffffffffff1614155b15610e4b576001600f60009054906101000a900467ffffffffffffffff16610e229190613e73565b600f60006101000a81548167ffffffffffffffff021916908367ffffffffffffffff1602179055505b610e558383612558565b8273ffffffffffffffffffffffffffffffffffffffff167f7b47457f3af09e5f794b020fd74160963a808f5985883496a096d403d380c34383604051610e9b9190613cb6565b60405180910390a26001905092915050565b600f60009054906101000a900467ffffffffffffffff1681565b610ecf612372565b80600e9080519060200190610ee5929190612da1565b507fa555e96a9f6d83b18cbe170e5fd71ebb56fc55f86a115539e9f3038182075a5081604051610f159190613a04565b60405180910390a150565b60098054610f2d90613fd6565b80601f0160208091040260200160405190810160405280929190818152602001828054610f5990613fd6565b8015610fa65780601f10610f7b57610100808354040283529160200191610fa6565b820191906000526020600020905b815481529060010190602001808311610f8957829003601f168201915b505050505081565b600c8054610fbb90613fd6565b80601f0160208091040260200160405190810160405280929190818152602001828054610fe790613fd6565b80156110345780601f1061100957610100808354040283529160200191611034565b820191906000526020600020905b81548152906001019060200180831161101757829003601f168201915b505050505081565b600115156008600061104c61219f565b73ffffffffffffffffffffffffffffffffffffffff1673ffffffffffffffffffffffffffffffffffffffff16815260200190815260200160002060009054906101000a900460ff161515146110d6576040517f08c379a00000000000000000000000000000000000000000000000000000000081526004016110cd90613a76565b60405180910390fd5b60328351111561111b576040517f08c379a000000000000000000000000000000000000000000000000000000000815260040161111290613bf6565b60405180910390fd5b60005b835181101561118557611172848281518110611163577f4e487b7100000000000000000000000000000000000000000000000000000000600052603260045260246000fd5b602002602001015184846126af565b808061117d90614008565b91505061111e565b50505050565b600f60109054906101000a900467ffffffffffffffff1681565b600f60089054906101000a900467ffffffffffffffff1681565b600a80546111cc90613fd6565b80601f01602080910402602001604051908101604052809291908181526020018280546111f890613fd6565b80156112455780601f1061121a57610100808354040283529160200191611245565b820191906000526020600020905b81548152906001019060200180831161122857829003601f168201915b505050505081565b60008060008373ffffffffffffffffffffffffffffffffffffffff1673ffffffffffffffffffffffffffffffffffffffff168152602001908152602001600020549050919050565b61129d612372565b6112a760006127d0565b565b600b80546112b690613fd6565b80601f01602080910402602001604051908101604052809291908181526020018280546112e290613fd6565b801561132f5780601f106113045761010080835404028352916020019161132f565b820191906000526020600020905b81548152906001019060200180831161131257829003601f168201915b505050505081565b6060600160108054905061134b9190613eb1565b8260ff161161142b5760108260ff1681548110611391577f4e487b7100000000000000000000000000000000000000000000000000000000600052603260045260246000fd5b9060005260206000200180546113a690613fd6565b80601f01602080910402602001604051908101604052809291908181526020018280546113d290613fd6565b801561141f5780601f106113f45761010080835404028352916020019161141f565b820191906000526020600020905b81548152906001019060200180831161140257829003601f168201915b50505050509050611464565b6040518060400160405280601981526020017f4572726f7220636f6465206973206e6f7420646566696e65640000000000000081525090505b919050565b600d805461147690613fd6565b80601f01602080910402602001604051908101604052809291908181526020018280546114a290613fd6565b80156114ef5780601f106114c4576101008083540402835291602001916114ef565b820191906000526020600020905b8154815290600101906020018083116114d257829003601f168201915b505050505081565b6000600560009054906101000a900473ffffffffffffffffffffffffffffffffffffffff16905090565b60606004805461153090613fd6565b80601f016020809104026020016040519081016040528092919081815260200182805461155c90613fd6565b80156115a95780601f1061157e576101008083540402835291602001916115a9565b820191906000526020600020905b81548152906001019060200180831161158c57829003601f168201915b5050505050905090565b60006115bd612372565b6000821415611601576040517f08c379a00000000000000000000000000000000000000000000000000000000081526004016115f890613b96565b60405180910390fd5b61160b8383612896565b60006116168461124d565b14801561165657506116266114f7565b73ffffffffffffffffffffffffffffffffffffffff168373ffffffffffffffffffffffffffffffffffffffff1614155b156116a7576001600f60009054906101000a900467ffffffffffffffff1661167e9190613ee5565b600f60006101000a81548167ffffffffffffffff021916908367ffffffffffffffff1602179055505b8273ffffffffffffffffffffffffffffffffffffffff167f388d6102a0230861b4e9646fb5acda1c5ec15d39df2b619d39c25d16a1268490836040516116ed9190613cb6565b60405180910390a26001905092915050565b60008061170a61219f565b90506000611718828661203e565b90508381101561175d576040517f08c379a000000000000000000000000000000000000000000000000000000000815260040161175490613c76565b60405180910390fd5b61176a82868684036121a7565b60019250505092915050565b600061178061219f565b8383600061178f848484611c2f565b9050600060ff168160ff16146118505760006117aa82611337565b90508373ffffffffffffffffffffffffffffffffffffffff168573ffffffffffffffffffffffffffffffffffffffff167fc844cc4ce519449488974a66d44d457e85e232edb0f90bd63eb0778f4b5c54c0838560405161180b929190613a26565b60405180910390a3806040517f08c379a00000000000000000000000000000000000000000000000000000000081526004016118479190613a04565b60405180910390fd5b61186461185b61219f565b888860016123f0565b600194505050505092915050565b600080600660008473ffffffffffffffffffffffffffffffffffffffff1673ffffffffffffffffffffffffffffffffffffffff16815260200190815260200160002060009054906101000a900467ffffffffffffffff16600760008573ffffffffffffffffffffffffffffffffffffffff1673ffffffffffffffffffffffffffffffffffffffff16815260200190815260200160002060009054906101000a900467ffffffffffffffff168167ffffffffffffffff1691508067ffffffffffffffff16905091509150915091565b611948612372565b80600d908051906020019061195e929190612da1565b507f824a3f3055c070014bc7157744915537c646ae1a287c988d79ec124d88938e948160405161198e9190613a04565b60405180910390a150565b6119a1612372565b80600c90805190602001906119b7929190612da1565b507f4295968313e92c7dd40aa9c85be9b7246ff59503751e11205c85795a2f74fdb3816040516119e79190613a04565b60405180910390a150565b600e80546119ff90613fd6565b80601f0160208091040260200160405190810160405280929190818152602001828054611a2b90613fd6565b8015611a785780601f10611a4d57610100808354040283529160200191611a78565b820191906000526020600020905b815481529060010190602001808311611a5b57829003601f168201915b505050505081565b6001151560086000611a9061219f565b73ffffffffffffffffffffffffffffffffffffffff1673ffffffffffffffffffffffffffffffffffffffff16815260200190815260200160002060009054906101000a900460ff16151514611b1a576040517f08c379a0000000000000000000000000000000000000000000000000000000008152600401611b1190613a76565b60405180910390fd5b611b258383836126af565b505050565b611b32612372565b6001600860008373ffffffffffffffffffffffffffffffffffffffff1673ffffffffffffffffffffffffffffffffffffffff16815260200190815260200160002060006101000a81548160ff0219169083151502179055507fea54bdb8a4594aaac063e3b01ab3e613bf4cb045d085502c81497c9696aca8b281604051611bb991906139ce565b60405180910390a150565b611bcc612372565b80600f60106101000a81548167ffffffffffffffff021916908367ffffffffffffffff1602179055507f050293e6952eab2f7cf401de4a51c1918da86a2bd5a7276a11ae3dd4a549cde981604051611c249190613cfa565b60405180910390a150565b6000600f60109054906101000a900467ffffffffffffffff1667ffffffffffffffff1642108015611c935750611c636114f7565b73ffffffffffffffffffffffffffffffffffffffff168473ffffffffffffffffffffffffffffffffffffffff1614155b15611ca15760029050611fa6565b60008211611cb25760039050611fa6565b6000600760008673ffffffffffffffffffffffffffffffffffffffff1673ffffffffffffffffffffffffffffffffffffffff16815260200190815260200160002060009054906101000a900467ffffffffffffffff1667ffffffffffffffff161415611d215760049050611fa6565b6000600660008573ffffffffffffffffffffffffffffffffffffffff1673ffffffffffffffffffffffffffffffffffffffff16815260200190815260200160002060009054906101000a900467ffffffffffffffff1667ffffffffffffffff161415611d905760059050611fa6565b42600760008673ffffffffffffffffffffffffffffffffffffffff1673ffffffffffffffffffffffffffffffffffffffff16815260200190815260200160002060009054906101000a900467ffffffffffffffff1667ffffffffffffffff161115611dfe5760069050611fa6565b42600660008573ffffffffffffffffffffffffffffffffffffffff1673ffffffffffffffffffffffffffffffffffffffff16815260200190815260200160002060009054906101000a900467ffffffffffffffff1667ffffffffffffffff161115611e6c5760079050611fa6565b600060ff16600f60089054906101000a900467ffffffffffffffff1667ffffffffffffffff161415611ea15760009050611fa6565b6000611eac8461124d565b1180611eea5750611ebb6114f7565b73ffffffffffffffffffffffffffffffffffffffff168373ffffffffffffffffffffffffffffffffffffffff16145b15611ef85760009050611fa6565b600f60089054906101000a900467ffffffffffffffff1667ffffffffffffffff16600f60009054906101000a900467ffffffffffffffff1667ffffffffffffffff161015611f495760009050611fa6565b81611f538561124d565b148015611f935750611f636114f7565b73ffffffffffffffffffffffffffffffffffffffff168473ffffffffffffffffffffffffffffffffffffffff1614155b15611fa15760009050611fa6565b600190505b9392505050565b611fb5612372565b600860008273ffffffffffffffffffffffffffffffffffffffff1673ffffffffffffffffffffffffffffffffffffffff16815260200190815260200160002060006101000a81549060ff02191690557f24546dc0f5df685d7c979edd1b0bcc4d85ac6a59974976d7217c9f0d930d3ff08160405161203391906139ce565b60405180910390a150565b6000600160008473ffffffffffffffffffffffffffffffffffffffff1673ffffffffffffffffffffffffffffffffffffffff16815260200190815260200160002060008373ffffffffffffffffffffffffffffffffffffffff1673ffffffffffffffffffffffffffffffffffffffff16815260200190815260200160002054905092915050565b6000600860008373ffffffffffffffffffffffffffffffffffffffff1673ffffffffffffffffffffffffffffffffffffffff16815260200190815260200160002060009054906101000a900460ff169050919050565b612123612372565b600073ffffffffffffffffffffffffffffffffffffffff168173ffffffffffffffffffffffffffffffffffffffff161415612193576040517f08c379a000000000000000000000000000000000000000000000000000000000815260040161218a90613ab6565b60405180910390fd5b61219c816127d0565b50565b600033905090565b600073ffffffffffffffffffffffffffffffffffffffff168373ffffffffffffffffffffffffffffffffffffffff161415612217576040517f08c379a000000000000000000000000000000000000000000000000000000000815260040161220e90613c36565b60405180910390fd5b600073ffffffffffffffffffffffffffffffffffffffff168273ffffffffffffffffffffffffffffffffffffffff161415612287576040517f08c379a000000000000000000000000000000000000000000000000000000000815260040161227e90613ad6565b60405180910390fd5b80600160008573ffffffffffffffffffffffffffffffffffffffff1673ffffffffffffffffffffffffffffffffffffffff16815260200190815260200160002060008473ffffffffffffffffffffffffffffffffffffffff1673ffffffffffffffffffffffffffffffffffffffff168152602001908152602001600020819055508173ffffffffffffffffffffffffffffffffffffffff168373ffffffffffffffffffffffffffffffffffffffff167f8c5be1e5ebec7d5bd14f71427d1e84f3dd0314c0f7b2291e5b200ac8c7c3b925836040516123659190613cb6565b60405180910390a3505050565b61237a61219f565b73ffffffffffffffffffffffffffffffffffffffff166123986114f7565b73ffffffffffffffffffffffffffffffffffffffff16146123ee576040517f08c379a00000000000000000000000000000000000000000000000000000000081526004016123e590613b76565b60405180910390fd5b565b60006123fb8461124d565b14801561243b575061240b6114f7565b73ffffffffffffffffffffffffffffffffffffffff168373ffffffffffffffffffffffffffffffffffffffff1614155b1561248c576001600f60009054906101000a900467ffffffffffffffff166124639190613e73565b600f60006101000a81548167ffffffffffffffff021916908367ffffffffffffffff1602179055505b6001151581151514156124a9576124a4848484612a64565b6124b6565b6124b4848484612cdc565b505b60006124c18561124d565b14801561250157506124d16114f7565b73ffffffffffffffffffffffffffffffffffffffff168473ffffffffffffffffffffffffffffffffffffffff1614155b15612552576001600f60009054906101000a900467ffffffffffffffff166125299190613ee5565b600f60006101000a81548167ffffffffffffffff021916908367ffffffffffffffff1602179055505b50505050565b600073ffffffffffffffffffffffffffffffffffffffff168273ffffffffffffffffffffffffffffffffffffffff1614156125c8576040517f08c379a00000000000000000000000000000000000000000000000000000000081526004016125bf90613c96565b60405180910390fd5b6125d460008383612d0b565b80600260008282546125e69190613e1d565b92505081905550806000808473ffffffffffffffffffffffffffffffffffffffff1673ffffffffffffffffffffffffffffffffffffffff168152602001908152602001600020600082825401925050819055508173ffffffffffffffffffffffffffffffffffffffff16600073ffffffffffffffffffffffffffffffffffffffff167fddf252ad1be2c89b69c2b068fc378daa952ba7f163c4a11628f55a4df523b3ef836040516126979190613cb6565b60405180910390a36126ab60008383612d10565b5050565b81600660008573ffffffffffffffffffffffffffffffffffffffff1673ffffffffffffffffffffffffffffffffffffffff16815260200190815260200160002060006101000a81548167ffffffffffffffff021916908367ffffffffffffffff16021790555080600760008573ffffffffffffffffffffffffffffffffffffffff1673ffffffffffffffffffffffffffffffffffffffff16815260200190815260200160002060006101000a81548167ffffffffffffffff021916908367ffffffffffffffff1602179055508273ffffffffffffffffffffffffffffffffffffffff167fc78ee1de8eb00c83baa5f9bf324f00dd286b754a3826292de51c92c3e7a0cab583836040516127c3929190613d30565b60405180910390a2505050565b6000600560009054906101000a900473ffffffffffffffffffffffffffffffffffffffff16905081600560006101000a81548173ffffffffffffffffffffffffffffffffffffffff021916908373ffffffffffffffffffffffffffffffffffffffff1602179055508173ffffffffffffffffffffffffffffffffffffffff168173ffffffffffffffffffffffffffffffffffffffff167f8be0079c531659141344cd1fd0a4f28419497f9722a3daafe3b4186f6b6457e060405160405180910390a35050565b600073ffffffffffffffffffffffffffffffffffffffff168273ffffffffffffffffffffffffffffffffffffffff161415612906576040517f08c379a00000000000000000000000000000000000000000000000000000000081526004016128fd90613bd6565b60405180910390fd5b61291282600083612d0b565b60008060008473ffffffffffffffffffffffffffffffffffffffff1673ffffffffffffffffffffffffffffffffffffffff16815260200190815260200160002054905081811015612998576040517f08c379a000000000000000000000000000000000000000000000000000000000815260040161298f90613a96565b60405180910390fd5b8181036000808573ffffffffffffffffffffffffffffffffffffffff1673ffffffffffffffffffffffffffffffffffffffff1681526020019081526020016000208190555081600260008282540392505081905550600073ffffffffffffffffffffffffffffffffffffffff168373ffffffffffffffffffffffffffffffffffffffff167fddf252ad1be2c89b69c2b068fc378daa952ba7f163c4a11628f55a4df523b3ef84604051612a4b9190613cb6565b60405180910390a3612a5f83600084612d10565b505050565b600073ffffffffffffffffffffffffffffffffffffffff168373ffffffffffffffffffffffffffffffffffffffff161415612ad4576040517f08c379a0000000000000000000000000000000000000000000000000000000008152600401612acb90613c16565b60405180910390fd5b600073ffffffffffffffffffffffffffffffffffffffff168273ffffffffffffffffffffffffffffffffffffffff161415612b44576040517f08c379a0000000000000000000000000000000000000000000000000000000008152600401612b3b90613a56565b60405180910390fd5b612b4f838383612d0b565b60008060008573ffffffffffffffffffffffffffffffffffffffff1673ffffffffffffffffffffffffffffffffffffffff16815260200190815260200160002054905081811015612bd5576040517f08c379a0000000000000000000000000000000000000000000000000000000008152600401612bcc90613b56565b60405180910390fd5b8181036000808673ffffffffffffffffffffffffffffffffffffffff1673ffffffffffffffffffffffffffffffffffffffff16815260200190815260200160002081905550816000808573ffffffffffffffffffffffffffffffffffffffff1673ffffffffffffffffffffffffffffffffffffffff168152602001908152602001600020600082825401925050819055508273ffffffffffffffffffffffffffffffffffffffff168473ffffffffffffffffffffffffffffffffffffffff167fddf252ad1be2c89b69c2b068fc378daa952ba7f163c4a11628f55a4df523b3ef84604051612cc39190613cb6565b60405180910390a3612cd6848484612d10565b50505050565b600080612ce761219f565b9050612cf4858285612d15565b612cff858585612a64565b60019150509392505050565b505050565b505050565b6000612d21848461203e565b90507fffffffffffffffffffffffffffffffffffffffffffffffffffffffffffffffff8114612d9b5781811015612d8d576040517f08c379a0000000000000000000000000000000000000000000000000000000008152600401612d8490613b36565b60405180910390fd5b612d9a84848484036121a7565b5b50505050565b828054612dad90613fd6565b90600052602060002090601f016020900481019282612dcf5760008555612e16565b82601f10612de857805160ff1916838001178555612e16565b82800160010185558215612e16579182015b82811115612e15578251825591602001919060010190612dfa565b5b509050612e239190612e27565b5090565b5b80821115612e40576000816000905550600101612e28565b5090565b6000612e57612e5284613da5565b613d74565b90508083825260208201905082856020860282011115612e7657600080fd5b60005b85811015612ea65781612e8c8882612eee565b845260208401935060208301925050600181019050612e79565b5050509392505050565b6000612ec3612ebe84613dd1565b613d74565b905082815260208101848484011115612edb57600080fd5b612ee6848285613f94565b509392505050565b600081359050612efd816140ef565b92915050565b600082601f830112612f1457600080fd5b8135612f24848260208601612e44565b91505092915050565b600082601f830112612f3e57600080fd5b8135612f4e848260208601612eb0565b91505092915050565b600081359050612f6681614106565b92915050565b600081359050612f7b8161411d565b92915050565b600081359050612f9081614134565b92915050565b600060208284031215612fa857600080fd5b6000612fb684828501612eee565b91505092915050565b60008060408385031215612fd257600080fd5b6000612fe085828601612eee565b9250506020612ff185828601612eee565b9150509250929050565b60008060006060848603121561301057600080fd5b600061301e86828701612eee565b935050602061302f86828701612eee565b925050604061304086828701612f57565b9150509250925092565b6000806040838503121561305d57600080fd5b600061306b85828601612eee565b925050602061307c85828601612f57565b9150509250929050565b60008060006060848603121561309b57600080fd5b60006130a986828701612eee565b93505060206130ba86828701612f6c565b92505060406130cb86828701612f6c565b9150509250925092565b6000806000606084860312156130ea57600080fd5b600084013567ffffffffffffffff81111561310457600080fd5b61311086828701612f03565b935050602061312186828701612f6c565b925050604061313286828701612f6c565b9150509250925092565b60006020828403121561314e57600080fd5b600082013567ffffffffffffffff81111561316857600080fd5b61317484828501612f2d565b91505092915050565b60006020828403121561318f57600080fd5b600061319d84828501612f6c565b91505092915050565b6000602082840312156131b857600080fd5b60006131c684828501612f81565b91505092915050565b6131d881613f19565b82525050565b6131e781613f2b565b82525050565b60006131f882613e01565b6132028185613e0c565b9350613212818560208601613fa3565b61321b816140de565b840191505092915050565b6000613233602383613e0c565b91507f45524332303a207472616e7366657220746f20746865207a65726f206164647260008301527f65737300000000000000000000000000000000000000000000000000000000006020830152604082019050919050565b6000613299604683613e0c565b91507f4f6e6c7920617574686f72697a6564206164647265737365732063616e20636f60008301527f6e74726f6c2077686974656c697374696e67206f6620686f6c6465722061646460208301527f72657373657300000000000000000000000000000000000000000000000000006040830152606082019050919050565b6000613325602283613e0c565b91507f45524332303a206275726e20616d6f756e7420657863656564732062616c616e60008301527f63650000000000000000000000000000000000000000000000000000000000006020830152604082019050919050565b600061338b602683613e0c565b91507f4f776e61626c653a206e6577206f776e657220697320746865207a65726f206160008301527f64647265737300000000000000000000000000000000000000000000000000006020830152604082019050919050565b60006133f1602283613e0c565b91507f45524332303a20617070726f766520746f20746865207a65726f20616464726560008301527f73730000000000000000000000000000000000000000000000000000000000006020830152604082019050919050565b6000613457601c83613e0c565b91507f5a65726f20616d6f756e742063616e6e6f74206265206d696e746564000000006000830152602082019050919050565b6000613497605583613e0c565b91507f416c6c6f77656420546f6b656e20686f6c646572732063616e6e6f742062652060008301527f6c657373207468616e2063757272656e7420746f6b656e20686f6c646572732060208301527f77697468206e6f6e2d7a65726f2062616c616e636500000000000000000000006040830152606082019050919050565b6000613523601d83613e0c565b91507f45524332303a20696e73756666696369656e7420616c6c6f77616e63650000006000830152602082019050919050565b6000613563602683613e0c565b91507f45524332303a207472616e7366657220616d6f756e742065786365656473206260008301527f616c616e636500000000000000000000000000000000000000000000000000006020830152604082019050919050565b60006135c9602083613e0c565b91507f4f776e61626c653a2063616c6c6572206973206e6f7420746865206f776e65726000830152602082019050919050565b6000613609601c83613e0c565b91507f5a65726f20616d6f756e742063616e6e6f74206265206275726e6564000000006000830152602082019050919050565b6000613649607f83613e0c565b91507f4d696e74696e67206e6f7420616c6c6f77656420746f2074686973206164647260008301527f65737320617320616c6c6f77656420746f6b656e20686f6c646572207265737460208301527f72696374696f6e20697320696e20706c61636520616e64206d696e74696e672060408301527f77696c6c20696e6372656173652074686520616c6c6f776564206c696d6974006060830152608082019050919050565b60006136fb602183613e0c565b91507f45524332303a206275726e2066726f6d20746865207a65726f2061646472657360008301527f73000000000000000000000000000000000000000000000000000000000000006020830152604082019050919050565b6000613761603783613e0c565b91507f42756c6b2077686974656c697374696e67206d6f7265207468616e203530206160008301527f6464726573736573206973206e6f7420616c6c6f7765640000000000000000006020830152604082019050919050565b60006137c7602583613e0c565b91507f45524332303a207472616e736665722066726f6d20746865207a65726f20616460008301527f64726573730000000000000000000000000000000000000000000000000000006020830152604082019050919050565b600061382d602483613e0c565b91507f45524332303a20617070726f76652066726f6d20746865207a65726f2061646460008301527f72657373000000000000000000000000000000000000000000000000000000006020830152604082019050919050565b6000613893602883613e0c565b91507f41646472657373206973206e6f74207965742077686974656c6973746564206260008301527f79206973737565720000000000000000000000000000000000000000000000006020830152604082019050919050565b60006138f9602583613e0c565b91507f45524332303a2064656372656173656420616c6c6f77616e63652062656c6f7760008301527f207a65726f0000000000000000000000000000000000000000000000000000006020830152604082019050919050565b600061395f601f83613e0c565b91507f45524332303a206d696e7420746f20746865207a65726f2061646472657373006000830152602082019050919050565b61399b81613f57565b82525050565b6139aa81613f82565b82525050565b6139b981613f61565b82525050565b6139c881613f75565b82525050565b60006020820190506139e360008301846131cf565b92915050565b60006020820190506139fe60008301846131de565b92915050565b60006020820190508181036000830152613a1e81846131ed565b905092915050565b60006040820190508181036000830152613a4081856131ed565b9050613a4f60208301846139bf565b9392505050565b60006020820190508181036000830152613a6f81613226565b9050919050565b60006020820190508181036000830152613a8f8161328c565b9050919050565b60006020820190508181036000830152613aaf81613318565b9050919050565b60006020820190508181036000830152613acf8161337e565b9050919050565b60006020820190508181036000830152613aef816133e4565b9050919050565b60006020820190508181036000830152613b0f8161344a565b9050919050565b60006020820190508181036000830152613b2f8161348a565b9050919050565b60006020820190508181036000830152613b4f81613516565b9050919050565b60006020820190508181036000830152613b6f81613556565b9050919050565b60006020820190508181036000830152613b8f816135bc565b9050919050565b60006020820190508181036000830152613baf816135fc565b9050919050565b60006020820190508181036000830152613bcf8161363c565b9050919050565b60006020820190508181036000830152613bef816136ee565b9050919050565b60006020820190508181036000830152613c0f81613754565b9050919050565b60006020820190508181036000830152613c2f816137ba565b9050919050565b60006020820190508181036000830152613c4f81613820565b9050919050565b60006020820190508181036000830152613c6f81613886565b9050919050565b60006020820190508181036000830152613c8f816138ec565b9050919050565b60006020820190508181036000830152613caf81613952565b9050919050565b6000602082019050613ccb6000830184613992565b92915050565b6000604082019050613ce66000830185613992565b613cf36020830184613992565b9392505050565b6000602082019050613d0f60008301846139a1565b92915050565b6000602082019050613d2a60008301846139b0565b92915050565b6000604082019050613d4560008301856139a1565b613d5260208301846139a1565b9392505050565b6000602082019050613d6e60008301846139bf565b92915050565b6000604051905081810181811067ffffffffffffffff82111715613d9b57613d9a6140af565b5b8060405250919050565b600067ffffffffffffffff821115613dc057613dbf6140af565b5b602082029050602081019050919050565b600067ffffffffffffffff821115613dec57613deb6140af565b5b601f19601f8301169050602081019050919050565b600081519050919050565b600082825260208201905092915050565b6000613e2882613f57565b9150613e3383613f57565b9250827fffffffffffffffffffffffffffffffffffffffffffffffffffffffffffffffff03821115613e6857613e67614051565b5b828201905092915050565b6000613e7e82613f61565b9150613e8983613f61565b92508267ffffffffffffffff03821115613ea657613ea5614051565b5b828201905092915050565b6000613ebc82613f57565b9150613ec783613f57565b925082821015613eda57613ed9614051565b5b828203905092915050565b6000613ef082613f61565b9150613efb83613f61565b925082821015613f0e57613f0d614051565b5b828203905092915050565b6000613f2482613f37565b9050919050565b60008115159050919050565b600073ffffffffffffffffffffffffffffffffffffffff82169050919050565b6000819050919050565b600067ffffffffffffffff82169050919050565b600060ff82169050919050565b6000613f8d82613f61565b9050919050565b82818337600083830152505050565b60005b83811015613fc1578082015181840152602081019050613fa6565b83811115613fd0576000848401525b50505050565b60006002820490506001821680613fee57607f821691505b6020821081141561400257614001614080565b5b50919050565b600061401382613f57565b91507fffffffffffffffffffffffffffffffffffffffffffffffffffffffffffffffff82141561404657614045614051565b5b600182019050919050565b7f4e487b7100000000000000000000000000000000000000000000000000000000600052601160045260246000fd5b7f4e487b7100000000000000000000000000000000000000000000000000000000600052602260045260246000fd5b7f4e487b7100000000000000000000000000000000000000000000000000000000600052604160045260246000fd5b6000601f19601f8301169050919050565b6140f881613f19565b811461410357600080fd5b50565b61410f81613f57565b811461411a57600080fd5b50565b61412681613f61565b811461413157600080fd5b50565b61413d81613f75565b811461414857600080fd5b5056fea26469706673582212202704b7a24fe185f6d3db3abf3c2bd2adf155dccfd3ce4c38e39c1f54f0cb4ae764736f6c634300080000335265636569766572206973206e6f742077686974656c6973746564206f7220626c6f636b65644d617820616c6c6f776564206164647265737365732077697468206e6f6e2d7a65726f207265737472696374696f6e20697320696e20706c6163652c2074686973207472616e736665722077696c6c206578636565642074686973206c696d69746174696f6e53656e6465722069732077686974656c697374656420627574206973206e6f7420656c696769626c6520746f2073656e6420746f6b656e7320616e6420756e64657220686f6c64696e6720706572696f6420284b59432074696d65207265737472696374696f6e29416c6c207472616e7366657273206172652064697361626c6564206265636175736520486f6c64696e6720506572696f64206973206e6f7420796574206578706972656452656365697665722069732077686974656c697374656420627574206973206e6f742079657420656c696769626c6520746f207265636569766520746f6b656e7320696e206869732077616c6c657420284b59432074696d65207265737472696374696f6e2953656e646572206973206e6f742077686974656c6973746564206f7220626c6f636b6564",
  "immutableReferences": {},
  "source": "// SPDX-License-Identifier: MIT\n\npragma solidity ^0.8.0;\n\nimport \"@openzeppelin/contracts/token/ERC20/ERC20.sol\";\nimport \"@openzeppelin/contracts/access/Ownable.sol\";\nimport \"./IERC1404.sol\";\n\n\ncontract ERC1404TokenMinKYCv13 is ERC20, Ownable, IERC1404 {\n\n\t// Set receive and send restrictions on investors\n\t// date is Linux Epoch datetime\n\t// Default values is 0 which means investor is not whitelisted\n    mapping (address => uint64) private _receiveRestriction;  \n\tmapping (address => uint64) private _sendRestriction;\n\n\t// These addresses act as whitelist authority and can call modifyKYCData\n\t// There is possibility that issuer may let third party like Exchange to control \n\t// whitelisting addresses \n    mapping (address => bool) private _whitelistControlAuthority;\n\n\tevent TransferRestrictionDetected( address indexed from, address indexed to, string message, uint8 errorCode );\n\tevent BurnTokens(address indexed account, uint256 amount);\n\tevent MintTokens(address indexed account, uint256 amount);\n\tevent KYCDataForUserSet (address indexed account, uint256 receiveRestriction, uint256 sendRestriction);\n    event ShareCertificateReset (string _ShareCertificate);\n    event CompanyHomepageReset (string _CompanyHomepage);\n    event CompanyLegalDocsReset (string _CompanyLegalDocs);\n\tevent AllowedInvestorsReset(uint256 _allowedInvestors);\n\tevent HoldingPeriodReset(uint256 _tradingHoldingPeriod);\n\tevent WhitelistAuthorityStatusSet(address user);\n\tevent WhitelistAuthorityStatusRemoved(address user);\n\tevent TransferFrom( address indexed spender, address indexed sender, address indexed recipient, uint256 amount );\n\tevent IssuerForceTransfer (address indexed from, address indexed to, uint256 amount);\n\n\n\tstring public version = \"1.3\";\n\tstring public IssuancePlatform = \"DigiShares\";\n\tstring public issuanceProtocol = \"ERC-1404\";\n\tstring public ShareCertificate;\n\tstring public CompanyHomepage;\n\tstring public CompanyLegalDocs;\n\n\n\t// These variables control how many investors can have non-zero token balance\n\t// if allowedInvestors = 0 then there is no limit of number of investors who can \n\t// hold non-zero balance\n\tuint8 private constant ANY_NUMBER_OF_TOKEN_HOLDERS_ALLOWED = 0; \n\tuint64 public currentTotalInvestors = 0;\t\t\n\tuint64 public allowedInvestors;\n\n\t// Holding period in EpochTime, if set in future then it will stop \n\t// all transfers between investors\n\tuint64 public tradingHoldingPeriod = 1;\n\n\tuint8 private _decimals = 18;\t\n\n\n\t// Transfer Restriction Codes and corresponding error message in _messageForTransferRestriction\n\tuint8 private constant NO_TRANSFER_RESTRICTION_FOUND = 0;\n\tuint8 private constant MAX_ALLOWED_INVESTORS_EXCEED = 1;\n\tuint8 private constant TRANSFERS_DISABLED = 2;\n\tuint8 private constant TRANSFER_VALUE_CANNOT_ZERO = 3;\n\tuint8 private constant SENDER_NOT_WHITELISTED_OR_BLOCKED = 4;\n\tuint8 private constant RECEIVER_NOT_WHITELISTED_OR_BLOCKED = 5;\n\tuint8 private constant SENDER_UNDER_HOLDING_PERIOD = 6;\n\tuint8 private constant RECEIVER_UNDER_HOLDING_PERIOD = 7;\n\tstring[] private _messageForTransferRestriction = [\n\t\t\"No transfer restrictions found\", \n\t\t\"Max allowed addresses with non-zero restriction is in place, this transfer will exceed this limitation\", \n\t\t\"All transfers are disabled because Holding Period is not yet expired\", \n\t\t\"Zero transfer amount not allowed\",\n\t\t\"Sender is not whitelisted or blocked\",\n\t\t\"Receiver is not whitelisted or blocked\",\n\t\t\"Sender is whitelisted but is not eligible to send tokens and under holding period (KYC time restriction)\",\n\t\t\"Receiver is whitelisted but is not yet eligible to receive tokens in his wallet (KYC time restriction)\"\n\t];\t\n\n\n\n\tconstructor(\n\t\tuint256 _initialSupply, \n\t\tstring memory _name,  \n\t\tstring memory _symbol, \n\t\tuint64 _allowedInvestors, \n\t\tuint8 _decimalsPlaces, \n\t\tstring memory _ShareCertificate, \n\t\tstring memory _CompanyHomepage, \n\t\tstring memory _CompanyLegalDocs, \n\t\taddress _atomicSwapContractAddress \n\t) ERC20(_name, _symbol)  {\n\t\t\n\t\t\t_decimals = _decimalsPlaces;\n\n\t\t\t// These variables set EPOCH time    1 = 1 January 1970\n\t\t\t_receiveRestriction[Ownable.owner()] = 1;\n\t\t\t_sendRestriction[Ownable.owner()] = 1;\n\t\t\t_receiveRestriction[_atomicSwapContractAddress] = 1;\n\t\t\t_sendRestriction[_atomicSwapContractAddress] = 1;\n\n\t\t\tallowedInvestors = _allowedInvestors;\n\n\t\t\t// add message sender to whitelist authority list\n\t\t\t_whitelistControlAuthority[Ownable.owner()] = true;\n\n\t\t\tShareCertificate = _ShareCertificate;\n\t\t\tCompanyHomepage = _CompanyHomepage;\n\t\t\tCompanyLegalDocs = _CompanyLegalDocs;\n\n\t\t\t_mint(Ownable.owner() , _initialSupply);\n\t\t\temit MintTokens(Ownable.owner(), _initialSupply);\n\t}\n\t\n\n\n\n\t// ------------------------------------------------------------------------\n\t// Modifiers for this contract \n\t// ------------------------------------------------------------------------\n    modifier onlyWhitelistControlAuthority () {\n\n\t  \trequire(_whitelistControlAuthority[_msgSender()] == true, \"Only authorized addresses can control whitelisting of holder addresses\");\n        _;\n\n    }\n\n    modifier notRestricted (\n\t\taddress from, \n\t\taddress to, \n\t\tuint256 value \n\t) {\n\n        uint8 restrictionCode = detectTransferRestriction(from, to, value);\n\t\tif( restrictionCode != NO_TRANSFER_RESTRICTION_FOUND ) {\n\n\t\t\tstring memory errorMessage = messageForTransferRestriction(restrictionCode);\n\t\t\temit TransferRestrictionDetected( from, to, errorMessage, restrictionCode );\n        \trevert(errorMessage);\n\n\t\t} else \n        \t_;\n\n    }\n\n\n\n\n\t// ERC20 interface\n    function decimals() public view override returns (uint8) {\n        return _decimals;\n    }\n\t\n\n\n    function mint (address account, uint256 amount)\t\t\n    external        \n\tOwnable.onlyOwner\n    returns (bool)\n    {\n\t\trequire ( _receiveRestriction[account] != 0, \"Address is not yet whitelisted by issuer\" );\n\t\trequire ( amount != 0, \"Zero amount cannot be minted\" );\n\t\t\n\t\t// This is special case while minting tokens. if issuer is trying to mint to a address while max token holder restriction\n\t\t// is in place and token already has max holders then this condition will revert this transaction as this will result in\n\t\t// currentTotalInvestors getting larger than allowedInvestors. The issuer account is exempted from this condition as\n\t\t// issuer account is not counted in currentTotalInvestors\n\t\tif( \n\t\t\t( account != Ownable.owner() ) &&       // issuer account is exempted from this condition\n\t\t\t( ERC20.balanceOf(account) == 0 ) &&    // account has zero balance so it will increase currentTotalInvestors\n\t\t\t( allowedInvestors != ANY_NUMBER_OF_TOKEN_HOLDERS_ALLOWED ) &&    // max number of token holder restriction is in place \n\t\t\t( currentTotalInvestors + 1 ) > allowedInvestors ) // make sure minting to account with 0 balance do not exceed allowedInvestors\n\t\t{\n\t\t\trevert (\"Minting not allowed to this address as allowed token holder restriction is in place and minting will increase the allowed limit\");\n\t\t}\n\n\t\t// minting will sure increase currentTotalInvestors if address balance is 0\n\t\tif( ERC20.balanceOf(account) == 0 && account != Ownable.owner() ) {\n\t\t\tcurrentTotalInvestors = currentTotalInvestors + 1;\n\t\t}\n\n\t\tERC20._mint(account, amount);\t\t \n\t\temit MintTokens(account, amount);\n\t\treturn true;\n    }\n\n\n    function burn (address account, uint256 amount)\n\texternal     \n\tOwnable.onlyOwner\n    returns (bool)\n    {\n\t\t require ( amount != 0, \"Zero amount cannot be burned\" );\t\t\n\n\t\t ERC20._burn(account, amount);\n\n\t\t// burning will decrease currentTotalInvestors if address balance becomes 0\n\t\tif( ERC20.balanceOf(account) == 0 && account != Ownable.owner() ) {\n\t\t\tcurrentTotalInvestors = currentTotalInvestors - 1;\n\t\t}\n\n\t\t emit BurnTokens(account, amount);\t\t \n\t\t return true;\n    }\n\n\n\n\n\n\t// ------------------------------------------------------------------------\n\t// Token Links and Document information management \n\t// ------------------------------------------------------------------------\n    function resetShareCertificate(\n\t\tstring memory _ShareCertificate\n\t) \n\texternal \n\tOwnable.onlyOwner {\n\n\t\t ShareCertificate = _ShareCertificate;\n\t\t emit ShareCertificateReset (_ShareCertificate);\n\n    }\n\n    function resetCompanyHomepage(\n\t\tstring memory _CompanyHomepage\n\t) \n\texternal \n\tOwnable.onlyOwner {\n\n\t\t CompanyHomepage = _CompanyHomepage;\n\t\t emit CompanyHomepageReset (_CompanyHomepage);\n\n    }\n\t\n    function resetCompanyLegalDocs(\n\t\tstring memory _CompanyLegalDocs\n\t) \n\texternal \n\tOwnable.onlyOwner {\n\n\t\tCompanyLegalDocs = _CompanyLegalDocs;\n\t\temit CompanyLegalDocsReset (_CompanyLegalDocs);\n\n    }\n\n\n\t// --------------------------------------------------------------------------------------\n\t// Manage number of addresses who can hold non-zero balance and holding period management\n\t// --------------------------------------------------------------------------------------\n\t// _allowedInvestors = 0    No limit on number of investors (or number of addresses with non-zero balance)         \n\t// _allowedInvestors > 0    only X number of addresses can have non zero balance \n    function resetAllowedInvestors(\n\t\tuint64 _allowedInvestors\n\t) \n\texternal \n\tOwnable.onlyOwner {\n\n\t\tif( _allowedInvestors != ANY_NUMBER_OF_TOKEN_HOLDERS_ALLOWED && _allowedInvestors < currentTotalInvestors ) {\n\t\t\trevert( \"Allowed Token holders cannot be less than current token holders with non-zero balance\");\n\t\t}\n\n\t\tallowedInvestors = _allowedInvestors;\n\t\temit AllowedInvestorsReset(_allowedInvestors);\n\t\t\n    }\n\n\n    function setTradingHoldingPeriod (\n\t\tuint64 _tradingHoldingPeriod\n\t) \n\texternal \n\tOwnable.onlyOwner {\n\n\t\t tradingHoldingPeriod = _tradingHoldingPeriod;\n\t\t emit HoldingPeriodReset(_tradingHoldingPeriod);\n\n    }\n\n\n\n\n\t//-----------------------------------------------------------------------\n    // Manage whitelist authority and KYC status\n\t//-----------------------------------------------------------------------\n\t\n\tfunction setWhitelistAuthorityStatus(\n\t\taddress user\n\t) \n\texternal \n\tOwnable.onlyOwner {\n\n\t\t_whitelistControlAuthority[user] = true;\n\t\temit WhitelistAuthorityStatusSet(user);\n\n\t}\n\n\tfunction removeWhitelistAuthorityStatus(\n\t\taddress user\n\t) \n\texternal \n\tOwnable.onlyOwner {\n\n\t\tdelete _whitelistControlAuthority[user];\n\t\temit WhitelistAuthorityStatusRemoved(user);\n\n\t}\t\n\n\tfunction getWhitelistAuthorityStatus(\n\t\taddress user\n\t) \n\texternal \n\tview\n\treturns (bool) {\n\n\t\t return _whitelistControlAuthority[user];\n\n\t}\t\n\t\n\n\n  \t// Set Receive and Send restrictions on addresses. Both values are EPOCH time\n\tfunction modifyKYCData (\n\t\taddress account, \n\t\tuint64 receiveRestriction, \n\t\tuint64 sendRestriction \n\t) \n\texternal \n\tonlyWhitelistControlAuthority { \n\t\tsetupKYCDataForUser( account, receiveRestriction, sendRestriction );\n\t}\n\n\n\tfunction bulkWhitelistWallets (\n\t\taddress[] memory account, \n\t\tuint64 receiveRestriction, \n\t\tuint64 sendRestriction \n\t) \n\texternal \n\tonlyWhitelistControlAuthority { \n\n\t\tif(account.length > 50) {\n\t\t\trevert (\"Bulk whitelisting more than 50 addresses is not allowed\");\n\t\t}\n\n\t\tfor (uint i=0; i<account.length; i++) {\n\t\t\tsetupKYCDataForUser( account[i], receiveRestriction, sendRestriction );\t\t\t\n\t\t}\t\t\n\n\t}\n\n\n\tfunction setupKYCDataForUser (\n\t\taddress account, \n\t\tuint64 receiveRestriction, \n\t\tuint64 sendRestriction\n\t) internal {\t\n\n\t\t_receiveRestriction[account] = receiveRestriction;\n\t\t_sendRestriction[account] = sendRestriction;\t\t\n\t\temit KYCDataForUserSet (account, receiveRestriction, sendRestriction);\n\n\t}\n\n\n\tfunction getKYCData ( \n\t\taddress user \n\t) \n\texternal \n\tview\n\treturns ( uint256, uint256 ) {\n\n\t\treturn (_receiveRestriction[user] , _sendRestriction[user] );\n\n\t}\n\t//-----------------------------------------------------------------------\n\n\n\n\n\t//-----------------------------------------------------------------------\n\t// These are ERC1404 interface implementations \n\t//-----------------------------------------------------------------------\n\n    function detectTransferRestriction (address _from, address _to, uint256 value) \n\toverride\n\tpublic \n\tview \n\treturns ( uint8 status )  {\t\n\n\t      \t// check if holding period is in effect on overall transfers and sender is not owner. \n\t\t\t// only owner is allowed to transfer under holding period\n\t\t  \tif(block.timestamp < tradingHoldingPeriod && _from != Ownable.owner()) {\n\t\t\t \treturn TRANSFERS_DISABLED;   \n\t\t\t}\n\n\t\t  \tif( value <= 0) {\n\t\t  \t  \treturn TRANSFER_VALUE_CANNOT_ZERO;   \n\t\t\t}\n\n\t\t  \tif( _sendRestriction[_from] == 0 ) {\n\t\t\t\treturn SENDER_NOT_WHITELISTED_OR_BLOCKED;   // Sender is not whitelisted or blocked\n\t\t\t}\n\n\t\t  \tif( _receiveRestriction[_to] == 0 ) {\n\t\t\t\treturn RECEIVER_NOT_WHITELISTED_OR_BLOCKED;\t// Receiver is not whitelisted or blocked\n\t\t\t}\n\n\t\t\tif( _sendRestriction[_from] > block.timestamp ) {\n\t\t\t\treturn SENDER_UNDER_HOLDING_PERIOD;\t// Receiver is whitelisted but is not eligible to send tokens and still under holding period (KYC time restriction)\n\t\t\t}\n\n\t\t\tif( _receiveRestriction[_to] > block.timestamp ) {\n\t\t\t\treturn RECEIVER_UNDER_HOLDING_PERIOD;\t// Receiver is whitelisted but is not yet eligible to receive tokens in his wallet (KYC time restriction)\n\t\t\t}\n\n\t\t\t// Following conditions make sure if number of token holders are within limit if enabled\n\t\t\t// allowedInvestors = 0 means no restriction on number of token holders and is the default setting\n\t\t\tif(allowedInvestors == ANY_NUMBER_OF_TOKEN_HOLDERS_ALLOWED) {\n\t\t\t\treturn NO_TRANSFER_RESTRICTION_FOUND;\n\t\t\t} else {\n\t\t\t\tif( ERC20.balanceOf(_to) > 0 || _to == Ownable.owner()) {\n\t\t\t\t\t// token can be transferred if the receiver already holding tokens and already counted in currentTotalInvestors\n\t\t\t\t\t// or receiver is issuer account. issuer/owner account do not count in currentTotalInvestors\n\t\t\t\t\treturn NO_TRANSFER_RESTRICTION_FOUND;\n\t\t\t\t} else {\n\t\t\t\t\t// if To address has zero balance then check this transfer do not exceed allowedInvestors as \n\t\t\t\t\t// this transfer will surely increase currentTotalInvestors\n\t\t\t\t\tif(  currentTotalInvestors < allowedInvestors  ) {\n\t\t\t\t\t\t// currentTotalInvestors is within limits of allowedInvestors\n\t\t\t\t\t\treturn NO_TRANSFER_RESTRICTION_FOUND;\n\t\t\t\t\t} else {\n\t\t\t\t\t\t// In this section currentTotalInvestors = allowedInvestors and no more transfers to new investors are allowed\n\t\t\t\t\t\t// except following conditions \n\t\t\t\t\t\t// 1. sender is sending his whole balance to another whitelisted investor regardless he has any balance or not\n\t\t\t\t\t\t// 2. sender must not be owner/issuer\n\t\t\t\t\t\t//    owner sending his whole balance to investor will exceed allowedInvestors restriction if currentTotalInvestors = allowedInvestors\n\t\t\t\t\t\tif( ERC20.balanceOf(_from) == value && _from != Ownable.owner()) {    \n\t\t\t\t\t\t\treturn NO_TRANSFER_RESTRICTION_FOUND;\n\t\t\t\t\t\t} else {\n\t\t\t\t\t\t\treturn MAX_ALLOWED_INVESTORS_EXCEED;\n\t\t\t\t\t\t}\n\t\t\t\t\t}\n\t\t\t\t}\n\t\t\t}\n\n    }\n\n\n    function messageForTransferRestriction (uint8 restrictionCode)\n\toverride\n    public\t\n    view \n\treturns ( string memory message )\n    {\n\n\t\tif(restrictionCode <= (_messageForTransferRestriction.length - 1) ) {\n\t\t\tmessage = _messageForTransferRestriction[restrictionCode];\n\t\t} else {\n\t\t\tmessage = \"Error code is not defined\";\n\t\t}\n\n    }\n\t//-----------------------------------------------------------------------\n\n\n\n\n\n\t//-----------------------------------------------------------------------\n\t// Transfers\n\t//-----------------------------------------------------------------------\n\n    function transfer(\n        address recipient,\n        uint256 amount\n    ) \t\n\toverride\n\tpublic \n\tnotRestricted (_msgSender(), recipient, amount)\n\treturns (bool) {\n\n\t\ttransferSharesBetweenInvestors ( _msgSender(), recipient, amount, true );\n\t\treturn true;\n\n    }\n\n\n\n    function transferFrom (\n        address sender,\n        address recipient,\n        uint256 amount\n    ) \n\tpublic\n\toverride\n\tnotRestricted (sender, recipient, amount)\n\treturns (bool)\t{\t\n\n\t\ttransferSharesBetweenInvestors ( sender, recipient, amount, false );\n\t\temit TransferFrom( _msgSender(), sender, recipient, amount );\n\t\treturn true;\n\n    }\n\n\n\n\t// Force transfer of token back to issuer\n\tfunction forceTransferToken (\n        address from,\n        uint256 amount\n\t) \n\tOwnable.onlyOwner\n\texternal \n\treturns (bool)  {\n\t\t\n\t\ttransferSharesBetweenInvestors ( from, Ownable.owner(), amount, true );\n\t\temit IssuerForceTransfer (from, Ownable.owner(), amount);\n\t\treturn true;\n\n\t}\n\n\n\n\t// Transfer tokens from one account to other\n\t// Also manage current number of account holders\n\tfunction transferSharesBetweenInvestors (\n        address sender,\n        address recipient,\n        uint256 amount,\n\t\tbool simpleTransfer\t   // true = transfer,   false = transferFrom\n\t) \n\tinternal {\n\n\t\t// Transfer will surely increase currentTotalInvestors if recipient current balance is 0\n\t\tif( ERC20.balanceOf(recipient) == 0 && recipient != Ownable.owner() ) {\n\t\t\tcurrentTotalInvestors = currentTotalInvestors + 1;\n\t\t}\n\n\t\tif( simpleTransfer == true ) {\n\t\t\tERC20._transfer(sender, recipient, amount);\n\t\t} else {\n\t\t\tERC20.transferFrom(sender, recipient, amount);\n\t\t}\n\n\t\tif( ERC20.balanceOf(sender) == 0 && sender != Ownable.owner() ) {\n\t\t\tcurrentTotalInvestors = currentTotalInvestors - 1;\t\t\n\t\t}\n\n\t}\n\n\n\n}\n",
  "sourcePath": "/home/shahzad/Shahzad/projects/git/ERC1404/contracts/ERC1404TokenMinKYCv13.sol",
  "compiler": {
    "name": "solc",
    "version": "0.8.0+commit.c7dfd78e.Emscripten.clang"
  },
  "schemaVersion": "3.4.9",
  "updatedAt": "2022-12-20T12:48:33.710Z",
  "devdoc": {
    "kind": "dev",
    "methods": {
      "allowance(address,address)": {
        "details": "See {IERC20-allowance}."
      },
      "approve(address,uint256)": {
        "details": "See {IERC20-approve}. NOTE: If `amount` is the maximum `uint256`, the allowance is not updated on `transferFrom`. This is semantically equivalent to an infinite approval. Requirements: - `spender` cannot be the zero address."
      },
      "balanceOf(address)": {
        "details": "See {IERC20-balanceOf}."
      },
      "decimals()": {
        "details": "Returns the number of decimals used to get its user representation. For example, if `decimals` equals `2`, a balance of `505` tokens should be displayed to a user as `5.05` (`505 / 10 ** 2`). Tokens usually opt for a value of 18, imitating the relationship between Ether and Wei. This is the value {ERC20} uses, unless this function is overridden; NOTE: This information is only used for _display_ purposes: it in no way affects any of the arithmetic of the contract, including {IERC20-balanceOf} and {IERC20-transfer}."
      },
      "decreaseAllowance(address,uint256)": {
        "details": "Atomically decreases the allowance granted to `spender` by the caller. This is an alternative to {approve} that can be used as a mitigation for problems described in {IERC20-approve}. Emits an {Approval} event indicating the updated allowance. Requirements: - `spender` cannot be the zero address. - `spender` must have allowance for the caller of at least `subtractedValue`."
      },
      "increaseAllowance(address,uint256)": {
        "details": "Atomically increases the allowance granted to `spender` by the caller. This is an alternative to {approve} that can be used as a mitigation for problems described in {IERC20-approve}. Emits an {Approval} event indicating the updated allowance. Requirements: - `spender` cannot be the zero address."
      },
      "messageForTransferRestriction(uint8)": {
        "details": "Overwrite with your custom message and restrictionCode handling",
        "params": {
          "restrictionCode": "Identifier for looking up a message"
        },
        "returns": {
          "message": "Text showing the restriction's reasoning"
        }
      },
      "name()": {
        "details": "Returns the name of the token."
      },
      "owner()": {
        "details": "Returns the address of the current owner."
      },
      "renounceOwnership()": {
        "details": "Leaves the contract without owner. It will not be possible to call `onlyOwner` functions anymore. Can only be called by the current owner. NOTE: Renouncing ownership will leave the contract without an owner, thereby removing any functionality that is only available to the owner."
      },
      "symbol()": {
        "details": "Returns the symbol of the token, usually a shorter version of the name."
      },
      "totalSupply()": {
        "details": "See {IERC20-totalSupply}."
      },
      "transferOwnership(address)": {
        "details": "Transfers ownership of the contract to a new account (`newOwner`). Can only be called by the current owner."
      }
    },
    "version": 1
  },
  "userdoc": {
    "kind": "user",
    "methods": {
      "messageForTransferRestriction(uint8)": {
        "notice": "Returns a human-readable message for a given restriction code"
      }
    },
    "version": 1
  }
}