{
  "contractName": "ERC20Token",
  "abi": [
    {
      "inputs": [
        {
          "internalType": "uint256",
          "name": "_initialSupply",
          "type": "uint256"
        },
        {
          "internalType": "string",
          "name": "_name",
          "type": "string"
        }
      ],
      "stateMutability": "nonpayable",
      "type": "constructor"
    },
    {
      "anonymous": false,
      "inputs": [
        {
          "indexed": true,
          "internalType": "address",
          "name": "owner",
          "type": "address"
        },
        {
          "indexed": true,
          "internalType": "address",
          "name": "spender",
          "type": "address"
        },
        {
          "indexed": false,
          "internalType": "uint256",
          "name": "value",
          "type": "uint256"
        }
      ],
      "name": "Approval",
      "type": "event"
    },
    {
      "anonymous": false,
      "inputs": [
        {
          "indexed": true,
          "internalType": "address",
          "name": "previousOwner",
          "type": "address"
        },
        {
          "indexed": true,
          "internalType": "address",
          "name": "newOwner",
          "type": "address"
        }
      ],
      "name": "OwnershipTransferred",
      "type": "event"
    },
    {
      "anonymous": false,
      "inputs": [
        {
          "indexed": true,
          "internalType": "address",
          "name": "from",
          "type": "address"
        },
        {
          "indexed": true,
          "internalType": "address",
          "name": "to",
          "type": "address"
        },
        {
          "indexed": false,
          "internalType": "uint256",
          "name": "value",
          "type": "uint256"
        }
      ],
      "name": "Transfer",
      "type": "event"
    },
    {
      "inputs": [
        {
          "internalType": "address",
          "name": "owner",
          "type": "address"
        },
        {
          "internalType": "address",
          "name": "spender",
          "type": "address"
        }
      ],
      "name": "allowance",
      "outputs": [
        {
          "internalType": "uint256",
          "name": "",
          "type": "uint256"
        }
      ],
      "stateMutability": "view",
      "type": "function"
    },
    {
      "inputs": [
        {
          "internalType": "address",
          "name": "spender",
          "type": "address"
        },
        {
          "internalType": "uint256",
          "name": "amount",
          "type": "uint256"
        }
      ],
      "name": "approve",
      "outputs": [
        {
          "internalType": "bool",
          "name": "",
          "type": "bool"
        }
      ],
      "stateMutability": "nonpayable",
      "type": "function"
    },
    {
      "inputs": [
        {
          "internalType": "address",
          "name": "account",
          "type": "address"
        }
      ],
      "name": "balanceOf",
      "outputs": [
        {
          "internalType": "uint256",
          "name": "",
          "type": "uint256"
        }
      ],
      "stateMutability": "view",
      "type": "function"
    },
    {
      "inputs": [],
      "name": "decimals",
      "outputs": [
        {
          "internalType": "uint8",
          "name": "",
          "type": "uint8"
        }
      ],
      "stateMutability": "view",
      "type": "function"
    },
    {
      "inputs": [
        {
          "internalType": "address",
          "name": "spender",
          "type": "address"
        },
        {
          "internalType": "uint256",
          "name": "subtractedValue",
          "type": "uint256"
        }
      ],
      "name": "decreaseAllowance",
      "outputs": [
        {
          "internalType": "bool",
          "name": "",
          "type": "bool"
        }
      ],
      "stateMutability": "nonpayable",
      "type": "function"
    },
    {
      "inputs": [
        {
          "internalType": "address",
          "name": "spender",
          "type": "address"
        },
        {
          "internalType": "uint256",
          "name": "addedValue",
          "type": "uint256"
        }
      ],
      "name": "increaseAllowance",
      "outputs": [
        {
          "internalType": "bool",
          "name": "",
          "type": "bool"
        }
      ],
      "stateMutability": "nonpayable",
      "type": "function"
    },
    {
      "inputs": [],
      "name": "name",
      "outputs": [
        {
          "internalType": "string",
          "name": "",
          "type": "string"
        }
      ],
      "stateMutability": "view",
      "type": "function"
    },
    {
      "inputs": [],
      "name": "owner",
      "outputs": [
        {
          "internalType": "address",
          "name": "",
          "type": "address"
        }
      ],
      "stateMutability": "view",
      "type": "function"
    },
    {
      "inputs": [],
      "name": "renounceOwnership",
      "outputs": [],
      "stateMutability": "nonpayable",
      "type": "function"
    },
    {
      "inputs": [],
      "name": "symbol",
      "outputs": [
        {
          "internalType": "string",
          "name": "",
          "type": "string"
        }
      ],
      "stateMutability": "view",
      "type": "function"
    },
    {
      "inputs": [],
      "name": "totalSupply",
      "outputs": [
        {
          "internalType": "uint256",
          "name": "",
          "type": "uint256"
        }
      ],
      "stateMutability": "view",
      "type": "function"
    },
    {
      "inputs": [
        {
          "internalType": "address",
          "name": "to",
          "type": "address"
        },
        {
          "internalType": "uint256",
          "name": "amount",
          "type": "uint256"
        }
      ],
      "name": "transfer",
      "outputs": [
        {
          "internalType": "bool",
          "name": "",
          "type": "bool"
        }
      ],
      "stateMutability": "nonpayable",
      "type": "function"
    },
    {
      "inputs": [
        {
          "internalType": "address",
          "name": "from",
          "type": "address"
        },
        {
          "internalType": "address",
          "name": "to",
          "type": "address"
        },
        {
          "internalType": "uint256",
          "name": "amount",
          "type": "uint256"
        }
      ],
      "name": "transferFrom",
      "outputs": [
        {
          "internalType": "bool",
          "name": "",
          "type": "bool"
        }
      ],
      "stateMutability": "nonpayable",
      "type": "function"
    },
    {
      "inputs": [
        {
          "internalType": "address",
          "name": "newOwner",
          "type": "address"
        }
      ],
      "name": "transferOwnership",
      "outputs": [],
      "stateMutability": "nonpayable",
      "type": "function"
    },
    {
      "inputs": [
        {
          "internalType": "address",
          "name": "to",
          "type": "address"
        },
        {
          "internalType": "uint256",
          "name": "amount",
          "type": "uint256"
        }
      ],
      "name": "mint",
      "outputs": [
        {
          "internalType": "bool",
          "name": "",
          "type": "bool"
        }
      ],
      "stateMutability": "nonpayable",
      "type": "function"
    },
    {
      "inputs": [
        {
          "internalType": "address",
          "name": "to",
          "type": "address"
        },
        {
          "internalType": "uint256",
          "name": "amount",
          "type": "uint256"
        }
      ],
      "name": "burn",
      "outputs": [
        {
          "internalType": "bool",
          "name": "",
          "type": "bool"
        }
      ],
      "stateMutability": "nonpayable",
      "type": "function"
    }
  ],
  "bytecode": "0x60806040523480156200001157600080fd5b50604051620021e8380380620021e8833981810160405281019062000037919062000426565b8081816003908051906020019062000051929190620002ed565b5080600490805190602001906200006a929190620002ed565b5050506200008d62000081620000a760201b60201c565b620000af60201b60201c565b6200009f33836200017560201b60201c565b505062000704565b600033905090565b6000600560009054906101000a900473ffffffffffffffffffffffffffffffffffffffff16905081600560006101000a81548173ffffffffffffffffffffffffffffffffffffffff021916908373ffffffffffffffffffffffffffffffffffffffff1602179055508173ffffffffffffffffffffffffffffffffffffffff168173ffffffffffffffffffffffffffffffffffffffff167f8be0079c531659141344cd1fd0a4f28419497f9722a3daafe3b4186f6b6457e060405160405180910390a35050565b600073ffffffffffffffffffffffffffffffffffffffff168273ffffffffffffffffffffffffffffffffffffffff161415620001e8576040517f08c379a0000000000000000000000000000000000000000000000000000000008152600401620001df90620004d3565b60405180910390fd5b620001fc60008383620002e360201b60201c565b80600260008282546200021091906200058a565b92505081905550806000808473ffffffffffffffffffffffffffffffffffffffff1673ffffffffffffffffffffffffffffffffffffffff168152602001908152602001600020600082825401925050819055508173ffffffffffffffffffffffffffffffffffffffff16600073ffffffffffffffffffffffffffffffffffffffff167fddf252ad1be2c89b69c2b068fc378daa952ba7f163c4a11628f55a4df523b3ef83604051620002c39190620004f5565b60405180910390a3620002df60008383620002e860201b60201c565b5050565b505050565b505050565b828054620002fb9062000627565b90600052602060002090601f0160209004810192826200031f57600085556200036b565b82601f106200033a57805160ff19168380011785556200036b565b828001600101855582156200036b579182015b828111156200036a5782518255916020019190600101906200034d565b5b5090506200037a91906200037e565b5090565b5b80821115620003995760008160009055506001016200037f565b5090565b6000620003b4620003ae8462000546565b62000512565b905082815260208101848484011115620003cd57600080fd5b620003da848285620005f1565b509392505050565b600082601f830112620003f457600080fd5b8151620004068482602086016200039d565b91505092915050565b6000815190506200042081620006ea565b92915050565b600080604083850312156200043a57600080fd5b60006200044a858286016200040f565b925050602083015167ffffffffffffffff8111156200046857600080fd5b6200047685828601620003e2565b9150509250929050565b60006200048f601f8362000579565b91507f45524332303a206d696e7420746f20746865207a65726f2061646472657373006000830152602082019050919050565b620004cd81620005e7565b82525050565b60006020820190508181036000830152620004ee8162000480565b9050919050565b60006020820190506200050c6000830184620004c2565b92915050565b6000604051905081810181811067ffffffffffffffff821117156200053c576200053b620006bb565b5b8060405250919050565b600067ffffffffffffffff821115620005645762000563620006bb565b5b601f19601f8301169050602081019050919050565b600082825260208201905092915050565b60006200059782620005e7565b9150620005a483620005e7565b9250827fffffffffffffffffffffffffffffffffffffffffffffffffffffffffffffffff03821115620005dc57620005db6200065d565b5b828201905092915050565b6000819050919050565b60005b8381101562000611578082015181840152602081019050620005f4565b8381111562000621576000848401525b50505050565b600060028204905060018216806200064057607f821691505b602082108114156200065757620006566200068c565b5b50919050565b7f4e487b7100000000000000000000000000000000000000000000000000000000600052601160045260246000fd5b7f4e487b7100000000000000000000000000000000000000000000000000000000600052602260045260246000fd5b7f4e487b7100000000000000000000000000000000000000000000000000000000600052604160045260246000fd5b620006f581620005e7565b81146200070157600080fd5b50565b611ad480620007146000396000f3fe608060405234801561001057600080fd5b50600436106101005760003560e01c8063715018a611610097578063a457c2d711610066578063a457c2d7146102c5578063a9059cbb146102f5578063dd62ed3e14610325578063f2fde38b1461035557610100565b8063715018a61461024f5780638da5cb5b1461025957806395d89b41146102775780639dc29fac1461029557610100565b8063313ce567116100d3578063313ce567146101a157806339509351146101bf57806340c10f19146101ef57806370a082311461021f57610100565b806306fdde0314610105578063095ea7b31461012357806318160ddd1461015357806323b872dd14610171575b600080fd5b61010d610371565b60405161011a91906116fd565b60405180910390f35b61013d600480360381019061013891906111c0565b610403565b60405161014a91906116e2565b60405180910390f35b61015b610426565b604051610168919061189f565b60405180910390f35b61018b60048036038101906101869190611171565b610430565b60405161019891906116e2565b60405180910390f35b6101a961045f565b6040516101b691906118ba565b60405180910390f35b6101d960048036038101906101d491906111c0565b610468565b6040516101e691906116e2565b60405180910390f35b610209600480360381019061020491906111c0565b61049f565b60405161021691906116e2565b60405180910390f35b6102396004803603810190610234919061110c565b6104bd565b604051610246919061189f565b60405180910390f35b610257610505565b005b610261610519565b60405161026e91906116c7565b60405180910390f35b61027f610543565b60405161028c91906116fd565b60405180910390f35b6102af60048036038101906102aa91906111c0565b6105d5565b6040516102bc91906116e2565b60405180910390f35b6102df60048036038101906102da91906111c0565b6105f3565b6040516102ec91906116e2565b60405180910390f35b61030f600480360381019061030a91906111c0565b61066a565b60405161031c91906116e2565b60405180910390f35b61033f600480360381019061033a9190611135565b61068d565b60405161034c919061189f565b60405180910390f35b61036f600480360381019061036a919061110c565b610714565b005b606060038054610380906119cf565b80601f01602080910402602001604051908101604052809291908181526020018280546103ac906119cf565b80156103f95780601f106103ce576101008083540402835291602001916103f9565b820191906000526020600020905b8154815290600101906020018083116103dc57829003601f168201915b5050505050905090565b60008061040e610798565b905061041b8185856107a0565b600191505092915050565b6000600254905090565b60008061043b610798565b905061044885828561096b565b6104538585856109f7565b60019150509392505050565b60006012905090565b600080610473610798565b9050610494818585610485858961068d565b61048f91906118f1565b6107a0565b600191505092915050565b60006104a9610c6f565b6104b38383610ced565b6001905092915050565b60008060008373ffffffffffffffffffffffffffffffffffffffff1673ffffffffffffffffffffffffffffffffffffffff168152602001908152602001600020549050919050565b61050d610c6f565b6105176000610e44565b565b6000600560009054906101000a900473ffffffffffffffffffffffffffffffffffffffff16905090565b606060048054610552906119cf565b80601f016020809104026020016040519081016040528092919081815260200182805461057e906119cf565b80156105cb5780601f106105a0576101008083540402835291602001916105cb565b820191906000526020600020905b8154815290600101906020018083116105ae57829003601f168201915b5050505050905090565b60006105df610c6f565b6105e98383610f0a565b6001905092915050565b6000806105fe610798565b9050600061060c828661068d565b905083811015610651576040517f08c379a00000000000000000000000000000000000000000000000000000000081526004016106489061185f565b60405180910390fd5b61065e82868684036107a0565b60019250505092915050565b600080610675610798565b90506106828185856109f7565b600191505092915050565b6000600160008473ffffffffffffffffffffffffffffffffffffffff1673ffffffffffffffffffffffffffffffffffffffff16815260200190815260200160002060008373ffffffffffffffffffffffffffffffffffffffff1673ffffffffffffffffffffffffffffffffffffffff16815260200190815260200160002054905092915050565b61071c610c6f565b600073ffffffffffffffffffffffffffffffffffffffff168173ffffffffffffffffffffffffffffffffffffffff16141561078c576040517f08c379a00000000000000000000000000000000000000000000000000000000081526004016107839061175f565b60405180910390fd5b61079581610e44565b50565b600033905090565b600073ffffffffffffffffffffffffffffffffffffffff168373ffffffffffffffffffffffffffffffffffffffff161415610810576040517f08c379a00000000000000000000000000000000000000000000000000000000081526004016108079061183f565b60405180910390fd5b600073ffffffffffffffffffffffffffffffffffffffff168273ffffffffffffffffffffffffffffffffffffffff161415610880576040517f08c379a00000000000000000000000000000000000000000000000000000000081526004016108779061177f565b60405180910390fd5b80600160008573ffffffffffffffffffffffffffffffffffffffff1673ffffffffffffffffffffffffffffffffffffffff16815260200190815260200160002060008473ffffffffffffffffffffffffffffffffffffffff1673ffffffffffffffffffffffffffffffffffffffff168152602001908152602001600020819055508173ffffffffffffffffffffffffffffffffffffffff168373ffffffffffffffffffffffffffffffffffffffff167f8c5be1e5ebec7d5bd14f71427d1e84f3dd0314c0f7b2291e5b200ac8c7c3b9258360405161095e919061189f565b60405180910390a3505050565b6000610977848461068d565b90507fffffffffffffffffffffffffffffffffffffffffffffffffffffffffffffffff81146109f157818110156109e3576040517f08c379a00000000000000000000000000000000000000000000000000000000081526004016109da9061179f565b60405180910390fd5b6109f084848484036107a0565b5b50505050565b600073ffffffffffffffffffffffffffffffffffffffff168373ffffffffffffffffffffffffffffffffffffffff161415610a67576040517f08c379a0000000000000000000000000000000000000000000000000000000008152600401610a5e9061181f565b60405180910390fd5b600073ffffffffffffffffffffffffffffffffffffffff168273ffffffffffffffffffffffffffffffffffffffff161415610ad7576040517f08c379a0000000000000000000000000000000000000000000000000000000008152600401610ace9061171f565b60405180910390fd5b610ae28383836110d8565b60008060008573ffffffffffffffffffffffffffffffffffffffff1673ffffffffffffffffffffffffffffffffffffffff16815260200190815260200160002054905081811015610b68576040517f08c379a0000000000000000000000000000000000000000000000000000000008152600401610b5f906117bf565b60405180910390fd5b8181036000808673ffffffffffffffffffffffffffffffffffffffff1673ffffffffffffffffffffffffffffffffffffffff16815260200190815260200160002081905550816000808573ffffffffffffffffffffffffffffffffffffffff1673ffffffffffffffffffffffffffffffffffffffff168152602001908152602001600020600082825401925050819055508273ffffffffffffffffffffffffffffffffffffffff168473ffffffffffffffffffffffffffffffffffffffff167fddf252ad1be2c89b69c2b068fc378daa952ba7f163c4a11628f55a4df523b3ef84604051610c56919061189f565b60405180910390a3610c698484846110dd565b50505050565b610c77610798565b73ffffffffffffffffffffffffffffffffffffffff16610c95610519565b73ffffffffffffffffffffffffffffffffffffffff1614610ceb576040517f08c379a0000000000000000000000000000000000000000000000000000000008152600401610ce2906117df565b60405180910390fd5b565b600073ffffffffffffffffffffffffffffffffffffffff168273ffffffffffffffffffffffffffffffffffffffff161415610d5d576040517f08c379a0000000000000000000000000000000000000000000000000000000008152600401610d549061187f565b60405180910390fd5b610d69600083836110d8565b8060026000828254610d7b91906118f1565b92505081905550806000808473ffffffffffffffffffffffffffffffffffffffff1673ffffffffffffffffffffffffffffffffffffffff168152602001908152602001600020600082825401925050819055508173ffffffffffffffffffffffffffffffffffffffff16600073ffffffffffffffffffffffffffffffffffffffff167fddf252ad1be2c89b69c2b068fc378daa952ba7f163c4a11628f55a4df523b3ef83604051610e2c919061189f565b60405180910390a3610e40600083836110dd565b5050565b6000600560009054906101000a900473ffffffffffffffffffffffffffffffffffffffff16905081600560006101000a81548173ffffffffffffffffffffffffffffffffffffffff021916908373ffffffffffffffffffffffffffffffffffffffff1602179055508173ffffffffffffffffffffffffffffffffffffffff168173ffffffffffffffffffffffffffffffffffffffff167f8be0079c531659141344cd1fd0a4f28419497f9722a3daafe3b4186f6b6457e060405160405180910390a35050565b600073ffffffffffffffffffffffffffffffffffffffff168273ffffffffffffffffffffffffffffffffffffffff161415610f7a576040517f08c379a0000000000000000000000000000000000000000000000000000000008152600401610f71906117ff565b60405180910390fd5b610f86826000836110d8565b60008060008473ffffffffffffffffffffffffffffffffffffffff1673ffffffffffffffffffffffffffffffffffffffff1681526020019081526020016000205490508181101561100c576040517f08c379a00000000000000000000000000000000000000000000000000000000081526004016110039061173f565b60405180910390fd5b8181036000808573ffffffffffffffffffffffffffffffffffffffff1673ffffffffffffffffffffffffffffffffffffffff1681526020019081526020016000208190555081600260008282540392505081905550600073ffffffffffffffffffffffffffffffffffffffff168373ffffffffffffffffffffffffffffffffffffffff167fddf252ad1be2c89b69c2b068fc378daa952ba7f163c4a11628f55a4df523b3ef846040516110bf919061189f565b60405180910390a36110d3836000846110dd565b505050565b505050565b505050565b6000813590506110f181611a70565b92915050565b60008135905061110681611a87565b92915050565b60006020828403121561111e57600080fd5b600061112c848285016110e2565b91505092915050565b6000806040838503121561114857600080fd5b6000611156858286016110e2565b9250506020611167858286016110e2565b9150509250929050565b60008060006060848603121561118657600080fd5b6000611194868287016110e2565b93505060206111a5868287016110e2565b92505060406111b6868287016110f7565b9150509250925092565b600080604083850312156111d357600080fd5b60006111e1858286016110e2565b92505060206111f2858286016110f7565b9150509250929050565b61120581611947565b82525050565b61121481611959565b82525050565b6000611225826118d5565b61122f81856118e0565b935061123f81856020860161199c565b61124881611a5f565b840191505092915050565b60006112606023836118e0565b91507f45524332303a207472616e7366657220746f20746865207a65726f206164647260008301527f65737300000000000000000000000000000000000000000000000000000000006020830152604082019050919050565b60006112c66022836118e0565b91507f45524332303a206275726e20616d6f756e7420657863656564732062616c616e60008301527f63650000000000000000000000000000000000000000000000000000000000006020830152604082019050919050565b600061132c6026836118e0565b91507f4f776e61626c653a206e6577206f776e657220697320746865207a65726f206160008301527f64647265737300000000000000000000000000000000000000000000000000006020830152604082019050919050565b60006113926022836118e0565b91507f45524332303a20617070726f766520746f20746865207a65726f20616464726560008301527f73730000000000000000000000000000000000000000000000000000000000006020830152604082019050919050565b60006113f8601d836118e0565b91507f45524332303a20696e73756666696369656e7420616c6c6f77616e63650000006000830152602082019050919050565b60006114386026836118e0565b91507f45524332303a207472616e7366657220616d6f756e742065786365656473206260008301527f616c616e636500000000000000000000000000000000000000000000000000006020830152604082019050919050565b600061149e6020836118e0565b91507f4f776e61626c653a2063616c6c6572206973206e6f7420746865206f776e65726000830152602082019050919050565b60006114de6021836118e0565b91507f45524332303a206275726e2066726f6d20746865207a65726f2061646472657360008301527f73000000000000000000000000000000000000000000000000000000000000006020830152604082019050919050565b60006115446025836118e0565b91507f45524332303a207472616e736665722066726f6d20746865207a65726f20616460008301527f64726573730000000000000000000000000000000000000000000000000000006020830152604082019050919050565b60006115aa6024836118e0565b91507f45524332303a20617070726f76652066726f6d20746865207a65726f2061646460008301527f72657373000000000000000000000000000000000000000000000000000000006020830152604082019050919050565b60006116106025836118e0565b91507f45524332303a2064656372656173656420616c6c6f77616e63652062656c6f7760008301527f207a65726f0000000000000000000000000000000000000000000000000000006020830152604082019050919050565b6000611676601f836118e0565b91507f45524332303a206d696e7420746f20746865207a65726f2061646472657373006000830152602082019050919050565b6116b281611985565b82525050565b6116c18161198f565b82525050565b60006020820190506116dc60008301846111fc565b92915050565b60006020820190506116f7600083018461120b565b92915050565b60006020820190508181036000830152611717818461121a565b905092915050565b6000602082019050818103600083015261173881611253565b9050919050565b60006020820190508181036000830152611758816112b9565b9050919050565b600060208201905081810360008301526117788161131f565b9050919050565b6000602082019050818103600083015261179881611385565b9050919050565b600060208201905081810360008301526117b8816113eb565b9050919050565b600060208201905081810360008301526117d88161142b565b9050919050565b600060208201905081810360008301526117f881611491565b9050919050565b60006020820190508181036000830152611818816114d1565b9050919050565b6000602082019050818103600083015261183881611537565b9050919050565b600060208201905081810360008301526118588161159d565b9050919050565b6000602082019050818103600083015261187881611603565b9050919050565b6000602082019050818103600083015261189881611669565b9050919050565b60006020820190506118b460008301846116a9565b92915050565b60006020820190506118cf60008301846116b8565b92915050565b600081519050919050565b600082825260208201905092915050565b60006118fc82611985565b915061190783611985565b9250827fffffffffffffffffffffffffffffffffffffffffffffffffffffffffffffffff0382111561193c5761193b611a01565b5b828201905092915050565b600061195282611965565b9050919050565b60008115159050919050565b600073ffffffffffffffffffffffffffffffffffffffff82169050919050565b6000819050919050565b600060ff82169050919050565b60005b838110156119ba57808201518184015260208101905061199f565b838111156119c9576000848401525b50505050565b600060028204905060018216806119e757607f821691505b602082108114156119fb576119fa611a30565b5b50919050565b7f4e487b7100000000000000000000000000000000000000000000000000000000600052601160045260246000fd5b7f4e487b7100000000000000000000000000000000000000000000000000000000600052602260045260246000fd5b6000601f19601f8301169050919050565b611a7981611947565b8114611a8457600080fd5b50565b611a9081611985565b8114611a9b57600080fd5b5056fea2646970667358221220cb769acdc9b5005462b50f55da7fc6bae36dd6892fe9b2aebf0c44278cdec41f64736f6c63430008000033",
  "immutableReferences": {},
  "source": "// SPDX-License-Identifier: MIT\n\npragma solidity ^0.8.0;\n\nimport \"@openzeppelin/contracts/token/ERC20/ERC20.sol\";\nimport \"@openzeppelin/contracts/access/Ownable.sol\";\nimport \"./IERC1404.sol\";\n\ncontract ERC20Token is ERC20, Ownable {\n\n\tconstructor(uint256 _initialSupply, string memory _name ) ERC20(_name, _name) {\n\n\t\t\t_mint(msg.sender , _initialSupply);\n\n\t}\n\n\n    function mint (address to, uint256 amount)\t\t\n        external        \n\t\tonlyOwner\n        returns (bool)\n    {\n\t\t super._mint(to, amount);\n\t\t return true;\n    }\n\n\n    function burn (address to, uint256 amount)\n\t\texternal     \n\t\tonlyOwner   \n        returns (bool)\n    {\n\t\t super._burn(to, amount);\n\t\t return true;\n    }\n\n\n}\n",
  "sourcePath": "/home/shahzad/Shahzad/projects/git/ERC1404/contracts/ERC20Token.sol",
  "compiler": {
    "name": "solc",
    "version": "0.8.0+commit.c7dfd78e.Emscripten.clang"
  },
  "schemaVersion": "3.4.9",
  "updatedAt": "2023-01-31T14:57:52.487Z",
  "devdoc": {
    "kind": "dev",
    "methods": {
      "allowance(address,address)": {
        "details": "See {IERC20-allowance}."
      },
      "approve(address,uint256)": {
        "details": "See {IERC20-approve}. NOTE: If `amount` is the maximum `uint256`, the allowance is not updated on `transferFrom`. This is semantically equivalent to an infinite approval. Requirements: - `spender` cannot be the zero address."
      },
      "balanceOf(address)": {
        "details": "See {IERC20-balanceOf}."
      },
      "decimals()": {
        "details": "Returns the number of decimals used to get its user representation. For example, if `decimals` equals `2`, a balance of `505` tokens should be displayed to a user as `5.05` (`505 / 10 ** 2`). Tokens usually opt for a value of 18, imitating the relationship between Ether and Wei. This is the value {ERC20} uses, unless this function is overridden; NOTE: This information is only used for _display_ purposes: it in no way affects any of the arithmetic of the contract, including {IERC20-balanceOf} and {IERC20-transfer}."
      },
      "decreaseAllowance(address,uint256)": {
        "details": "Atomically decreases the allowance granted to `spender` by the caller. This is an alternative to {approve} that can be used as a mitigation for problems described in {IERC20-approve}. Emits an {Approval} event indicating the updated allowance. Requirements: - `spender` cannot be the zero address. - `spender` must have allowance for the caller of at least `subtractedValue`."
      },
      "increaseAllowance(address,uint256)": {
        "details": "Atomically increases the allowance granted to `spender` by the caller. This is an alternative to {approve} that can be used as a mitigation for problems described in {IERC20-approve}. Emits an {Approval} event indicating the updated allowance. Requirements: - `spender` cannot be the zero address."
      },
      "name()": {
        "details": "Returns the name of the token."
      },
      "owner()": {
        "details": "Returns the address of the current owner."
      },
      "renounceOwnership()": {
        "details": "Leaves the contract without owner. It will not be possible to call `onlyOwner` functions anymore. Can only be called by the current owner. NOTE: Renouncing ownership will leave the contract without an owner, thereby removing any functionality that is only available to the owner."
      },
      "symbol()": {
        "details": "Returns the symbol of the token, usually a shorter version of the name."
      },
      "totalSupply()": {
        "details": "See {IERC20-totalSupply}."
      },
      "transfer(address,uint256)": {
        "details": "See {IERC20-transfer}. Requirements: - `to` cannot be the zero address. - the caller must have a balance of at least `amount`."
      },
      "transferFrom(address,address,uint256)": {
        "details": "See {IERC20-transferFrom}. Emits an {Approval} event indicating the updated allowance. This is not required by the EIP. See the note at the beginning of {ERC20}. NOTE: Does not update the allowance if the current allowance is the maximum `uint256`. Requirements: - `from` and `to` cannot be the zero address. - `from` must have a balance of at least `amount`. - the caller must have allowance for ``from``'s tokens of at least `amount`."
      },
      "transferOwnership(address)": {
        "details": "Transfers ownership of the contract to a new account (`newOwner`). Can only be called by the current owner."
      }
    },
    "version": 1
  },
  "userdoc": {
    "kind": "user",
    "methods": {},
    "version": 1
  }
}