{
  "contractName": "TokenSwapper",
  "abi": [
    {
      "anonymous": false,
      "inputs": [
        {
          "indexed": false,
          "internalType": "address",
          "name": "originator",
          "type": "address"
        },
        {
          "indexed": false,
          "internalType": "uint256",
          "name": "swapNumber",
          "type": "uint256"
        }
      ],
      "name": "Closed",
      "type": "event"
    },
    {
      "anonymous": false,
      "inputs": [
        {
          "indexed": false,
          "internalType": "address",
          "name": "originator",
          "type": "address"
        },
        {
          "indexed": false,
          "internalType": "uint256",
          "name": "swapNumber",
          "type": "uint256"
        }
      ],
      "name": "Expired",
      "type": "event"
    },
    {
      "anonymous": false,
      "inputs": [
        {
          "indexed": false,
          "internalType": "address",
          "name": "originator",
          "type": "address"
        },
        {
          "indexed": false,
          "internalType": "uint256",
          "name": "swapNumber",
          "type": "uint256"
        }
      ],
      "name": "Opened",
      "type": "event"
    },
    {
      "inputs": [
        {
          "internalType": "uint256",
          "name": "swapNumber",
          "type": "uint256"
        },
        {
          "internalType": "address",
          "name": "_executor",
          "type": "address"
        },
        {
          "internalType": "address",
          "name": "_openingToken",
          "type": "address"
        },
        {
          "internalType": "uint256",
          "name": "_tokensToOpen",
          "type": "uint256"
        },
        {
          "internalType": "address",
          "name": "_closingToken",
          "type": "address"
        },
        {
          "internalType": "uint256",
          "name": "_tokensToClose",
          "type": "uint256"
        },
        {
          "internalType": "uint256",
          "name": "_expiry",
          "type": "uint256"
        }
      ],
      "name": "open",
      "outputs": [
        {
          "internalType": "bool",
          "name": "",
          "type": "bool"
        }
      ],
      "stateMutability": "nonpayable",
      "type": "function"
    },
    {
      "inputs": [
        {
          "internalType": "address",
          "name": "originator",
          "type": "address"
        },
        {
          "internalType": "uint256",
          "name": "swapNumber",
          "type": "uint256"
        }
      ],
      "name": "close",
      "outputs": [
        {
          "internalType": "bool",
          "name": "",
          "type": "bool"
        }
      ],
      "stateMutability": "nonpayable",
      "type": "function"
    },
    {
      "inputs": [
        {
          "internalType": "address",
          "name": "originator",
          "type": "address"
        },
        {
          "internalType": "uint256",
          "name": "swapNumber",
          "type": "uint256"
        }
      ],
      "name": "expire",
      "outputs": [
        {
          "internalType": "bool",
          "name": "",
          "type": "bool"
        }
      ],
      "stateMutability": "nonpayable",
      "type": "function"
    },
    {
      "inputs": [
        {
          "internalType": "address",
          "name": "originator",
          "type": "address"
        },
        {
          "internalType": "uint256",
          "name": "swapNumber",
          "type": "uint256"
        }
      ],
      "name": "getSwapData",
      "outputs": [
        {
          "components": [
            {
              "internalType": "address",
              "name": "executor",
              "type": "address"
            },
            {
              "internalType": "address",
              "name": "openingToken",
              "type": "address"
            },
            {
              "internalType": "uint256",
              "name": "tokensToOpen",
              "type": "uint256"
            },
            {
              "internalType": "address",
              "name": "closingToken",
              "type": "address"
            },
            {
              "internalType": "uint256",
              "name": "tokensToClose",
              "type": "uint256"
            },
            {
              "internalType": "uint256",
              "name": "expiry",
              "type": "uint256"
            }
          ],
          "internalType": "struct TokenSwapper.Swap",
          "name": "",
          "type": "tuple"
        },
        {
          "internalType": "uint256",
          "name": "swapState",
          "type": "uint256"
        }
      ],
      "stateMutability": "view",
      "type": "function"
    }
  ],
  "bytecode": "0x608060405234801561001057600080fd5b50611e98806100206000396000f3fe608060405234801561001057600080fd5b506004361061004c5760003560e01c80630ab88e5a146100515780636a710fd014610082578063746b31c0146100b2578063e49280cb146100e2575b600080fd5b61006b6004803603810190610066919061153a565b610112565b604051610079929190611cb1565b60405180910390f35b61009c6004803603810190610097919061159f565b61033c565b6040516100a99190611b54565b60405180910390f35b6100cc60048036038101906100c7919061153a565b6108d8565b6040516100d99190611b54565b60405180910390f35b6100fc60048036038101906100f7919061153a565b610ca9565b6040516101099190611b54565b60405180910390f35b61011a611483565b6000806000808673ffffffffffffffffffffffffffffffffffffffff1673ffffffffffffffffffffffffffffffffffffffff16815260200190815260200160002060008581526020019081526020016000206040518060c00160405290816000820160009054906101000a900473ffffffffffffffffffffffffffffffffffffffff1673ffffffffffffffffffffffffffffffffffffffff1673ffffffffffffffffffffffffffffffffffffffff1681526020016001820160009054906101000a900473ffffffffffffffffffffffffffffffffffffffff1673ffffffffffffffffffffffffffffffffffffffff1673ffffffffffffffffffffffffffffffffffffffff168152602001600282015481526020016003820160009054906101000a900473ffffffffffffffffffffffffffffffffffffffff1673ffffffffffffffffffffffffffffffffffffffff1673ffffffffffffffffffffffffffffffffffffffff16815260200160048201548152602001600582015481525050905080600160008773ffffffffffffffffffffffffffffffffffffffff1673ffffffffffffffffffffffffffffffffffffffff168152602001908152602001600020600086815260200190815260200160002060009054906101000a900460ff166003811115610330577f4e487b7100000000000000000000000000000000000000000000000000000000600052602160045260246000fd5b92509250509250929050565b6000428211801561035b57506301da9c00426103589190611d0c565b82105b61039a576040517f08c379a000000000000000000000000000000000000000000000000000000000815260040161039190611c31565b60405180910390fd5b60008060003373ffffffffffffffffffffffffffffffffffffffff1673ffffffffffffffffffffffffffffffffffffffff16815260200190815260200160002060008a81526020019081526020016000206040518060c00160405290816000820160009054906101000a900473ffffffffffffffffffffffffffffffffffffffff1673ffffffffffffffffffffffffffffffffffffffff1673ffffffffffffffffffffffffffffffffffffffff1681526020016001820160009054906101000a900473ffffffffffffffffffffffffffffffffffffffff1673ffffffffffffffffffffffffffffffffffffffff1673ffffffffffffffffffffffffffffffffffffffff168152602001600282015481526020016003820160009054906101000a900473ffffffffffffffffffffffffffffffffffffffff1673ffffffffffffffffffffffffffffffffffffffff1673ffffffffffffffffffffffffffffffffffffffff16815260200160048201548152602001600582015481525050905060006003811115610552577f4e487b7100000000000000000000000000000000000000000000000000000000600052602160045260246000fd5b600160003373ffffffffffffffffffffffffffffffffffffffff1673ffffffffffffffffffffffffffffffffffffffff16815260200190815260200160002060008b815260200190815260200160002060009054906101000a900460ff1660038111156105e8577f4e487b7100000000000000000000000000000000000000000000000000000000600052602160045260246000fd5b14610628576040517f08c379a000000000000000000000000000000000000000000000000000000000815260040161061f90611c11565b60405180910390fd5b6040518060c001604052808973ffffffffffffffffffffffffffffffffffffffff1681526020018873ffffffffffffffffffffffffffffffffffffffff1681526020018781526020018673ffffffffffffffffffffffffffffffffffffffff16815260200185815260200184815250905060008790506106aa8133308a611107565b60018060003373ffffffffffffffffffffffffffffffffffffffff1673ffffffffffffffffffffffffffffffffffffffff16815260200190815260200160002060008c815260200190815260200160002060006101000a81548160ff02191690836003811115610743577f4e487b7100000000000000000000000000000000000000000000000000000000600052602160045260246000fd5b0217905550816000803373ffffffffffffffffffffffffffffffffffffffff1673ffffffffffffffffffffffffffffffffffffffff16815260200190815260200160002060008c815260200190815260200160002060008201518160000160006101000a81548173ffffffffffffffffffffffffffffffffffffffff021916908373ffffffffffffffffffffffffffffffffffffffff16021790555060208201518160010160006101000a81548173ffffffffffffffffffffffffffffffffffffffff021916908373ffffffffffffffffffffffffffffffffffffffff1602179055506040820151816002015560608201518160030160006101000a81548173ffffffffffffffffffffffffffffffffffffffff021916908373ffffffffffffffffffffffffffffffffffffffff1602179055506080820151816004015560a082015181600501559050507fc4b27f09c64550fd678a5b3c3a00f454814732e346e0f1c79d0add8f980346de338b6040516108bf929190611b2b565b60405180910390a1600192505050979650505050505050565b6000806000808573ffffffffffffffffffffffffffffffffffffffff1673ffffffffffffffffffffffffffffffffffffffff16815260200190815260200160002060008481526020019081526020016000206040518060c00160405290816000820160009054906101000a900473ffffffffffffffffffffffffffffffffffffffff1673ffffffffffffffffffffffffffffffffffffffff1673ffffffffffffffffffffffffffffffffffffffff1681526020016001820160009054906101000a900473ffffffffffffffffffffffffffffffffffffffff1673ffffffffffffffffffffffffffffffffffffffff1673ffffffffffffffffffffffffffffffffffffffff168152602001600282015481526020016003820160009054906101000a900473ffffffffffffffffffffffffffffffffffffffff1673ffffffffffffffffffffffffffffffffffffffff1673ffffffffffffffffffffffffffffffffffffffff16815260200160048201548152602001600582015481525050905060016003811115610a91577f4e487b7100000000000000000000000000000000000000000000000000000000600052602160045260246000fd5b600160008673ffffffffffffffffffffffffffffffffffffffff1673ffffffffffffffffffffffffffffffffffffffff168152602001908152602001600020600085815260200190815260200160002060009054906101000a900460ff166003811115610b27577f4e487b7100000000000000000000000000000000000000000000000000000000600052602160045260246000fd5b14610b67576040517f08c379a0000000000000000000000000000000000000000000000000000000008152600401610b5e90611bd1565b60405180910390fd5b8060a001514211610bad576040517f08c379a0000000000000000000000000000000000000000000000000000000008152600401610ba490611bb1565b60405180910390fd5b6003600160008673ffffffffffffffffffffffffffffffffffffffff1673ffffffffffffffffffffffffffffffffffffffff168152602001908152602001600020600085815260200190815260200160002060006101000a81548160ff02191690836003811115610c47577f4e487b7100000000000000000000000000000000000000000000000000000000600052602160045260246000fd5b0217905550600081602001519050610c6481868460400151611190565b7f751a0eb66c3cc9aa48957d09bd3cc81db888f5bcac6689def5fb9e18ec3cf2018585604051610c95929190611b2b565b60405180910390a160019250505092915050565b6000806000808573ffffffffffffffffffffffffffffffffffffffff1673ffffffffffffffffffffffffffffffffffffffff16815260200190815260200160002060008481526020019081526020016000206040518060c00160405290816000820160009054906101000a900473ffffffffffffffffffffffffffffffffffffffff1673ffffffffffffffffffffffffffffffffffffffff1673ffffffffffffffffffffffffffffffffffffffff1681526020016001820160009054906101000a900473ffffffffffffffffffffffffffffffffffffffff1673ffffffffffffffffffffffffffffffffffffffff1673ffffffffffffffffffffffffffffffffffffffff168152602001600282015481526020016003820160009054906101000a900473ffffffffffffffffffffffffffffffffffffffff1673ffffffffffffffffffffffffffffffffffffffff1673ffffffffffffffffffffffffffffffffffffffff16815260200160048201548152602001600582015481525050905060016003811115610e62577f4e487b7100000000000000000000000000000000000000000000000000000000600052602160045260246000fd5b600160008673ffffffffffffffffffffffffffffffffffffffff1673ffffffffffffffffffffffffffffffffffffffff168152602001908152602001600020600085815260200190815260200160002060009054906101000a900460ff166003811115610ef8577f4e487b7100000000000000000000000000000000000000000000000000000000600052602160045260246000fd5b14610f38576040517f08c379a0000000000000000000000000000000000000000000000000000000008152600401610f2f90611bd1565b60405180910390fd5b806000015173ffffffffffffffffffffffffffffffffffffffff163373ffffffffffffffffffffffffffffffffffffffff1614610faa576040517f08c379a0000000000000000000000000000000000000000000000000000000008152600401610fa190611c51565b60405180910390fd5b8060a00151421115610ff1576040517f08c379a0000000000000000000000000000000000000000000000000000000008152600401610fe890611b91565b60405180910390fd5b60008160600151905061100a8133878560800151611107565b6002600160008773ffffffffffffffffffffffffffffffffffffffff1673ffffffffffffffffffffffffffffffffffffffff168152602001908152602001600020600086815260200190815260200160002060006101000a81548160ff021916908360038111156110a4577f4e487b7100000000000000000000000000000000000000000000000000000000600052602160045260246000fd5b02179055506000826020015190506110c181338560400151611190565b7f62e59356f995b616eafcc3bd0402c7c6f7c820e205c92ea61436902e30b4dc2e86866040516110f2929190611b2b565b60405180910390a16001935050505092915050565b61118a846323b872dd60e01b85858560405160240161112893929190611af4565b604051602081830303815290604052907bffffffffffffffffffffffffffffffffffffffffffffffffffffffff19166020820180517bffffffffffffffffffffffffffffffffffffffffffffffffffffffff8381831617835250505050611216565b50505050565b6112118363a9059cbb60e01b84846040516024016111af929190611b2b565b604051602081830303815290604052907bffffffffffffffffffffffffffffffffffffffffffffffffffffffff19166020820180517bffffffffffffffffffffffffffffffffffffffffffffffffffffffff8381831617835250505050611216565b505050565b6000611278826040518060400160405280602081526020017f5361666545524332303a206c6f772d6c6576656c2063616c6c206661696c65648152508573ffffffffffffffffffffffffffffffffffffffff166112dd9092919063ffffffff16565b90506000815111156112d857808060200190518101906112989190611576565b6112d7576040517f08c379a00000000000000000000000000000000000000000000000000000000081526004016112ce90611c91565b60405180910390fd5b5b505050565b60606112ec84846000856112f5565b90509392505050565b60608247101561133a576040517f08c379a000000000000000000000000000000000000000000000000000000000815260040161133190611bf1565b60405180910390fd5b61134385611409565b611382576040517f08c379a000000000000000000000000000000000000000000000000000000000815260040161137990611c71565b60405180910390fd5b6000808673ffffffffffffffffffffffffffffffffffffffff1685876040516113ab9190611add565b60006040518083038185875af1925050503d80600081146113e8576040519150601f19603f3d011682016040523d82523d6000602084013e6113ed565b606091505b50915091506113fd82828661141c565b92505050949350505050565b600080823b905060008111915050919050565b6060831561142c5782905061147c565b60008351111561143f5782518084602001fd5b816040517f08c379a00000000000000000000000000000000000000000000000000000000081526004016114739190611b6f565b60405180910390fd5b9392505050565b6040518060c00160405280600073ffffffffffffffffffffffffffffffffffffffff168152602001600073ffffffffffffffffffffffffffffffffffffffff16815260200160008152602001600073ffffffffffffffffffffffffffffffffffffffff16815260200160008152602001600081525090565b60008135905061150a81611e1d565b92915050565b60008151905061151f81611e34565b92915050565b60008135905061153481611e4b565b92915050565b6000806040838503121561154d57600080fd5b600061155b858286016114fb565b925050602061156c85828601611525565b9150509250929050565b60006020828403121561158857600080fd5b600061159684828501611510565b91505092915050565b600080600080600080600060e0888a0312156115ba57600080fd5b60006115c88a828b01611525565b97505060206115d98a828b016114fb565b96505060406115ea8a828b016114fb565b95505060606115fb8a828b01611525565b945050608061160c8a828b016114fb565b93505060a061161d8a828b01611525565b92505060c061162e8a828b01611525565b91505092959891949750929550565b61164681611d62565b82525050565b61165581611d62565b82525050565b61166481611d74565b82525050565b600061167582611cda565b61167f8185611cf0565b935061168f818560208601611daa565b80840191505092915050565b60006116a682611ce5565b6116b08185611cfb565b93506116c0818560208601611daa565b6116c981611e0c565b840191505092915050565b60006116e1602483611cfb565b91507f546f6b656e537761707065723a20737761702065787069726174696f6e20706160008301527f73736564000000000000000000000000000000000000000000000000000000006020830152604082019050919050565b6000611747602283611cfb565b91507f546f6b656e537761707065723a2073776170206e6f742079657420657870697260008301527f65640000000000000000000000000000000000000000000000000000000000006020830152604082019050919050565b60006117ad601b83611cfb565b91507f546f6b656e537761707065723a2073776170206e6f74206f70656e00000000006000830152602082019050919050565b60006117ed602683611cfb565b91507f416464726573733a20696e73756666696369656e742062616c616e636520666f60008301527f722063616c6c00000000000000000000000000000000000000000000000000006020830152604082019050919050565b6000611853602583611cfb565b91507f546f6b656e537761707065723a20737761704e756d62657220616c726561647960008301527f20757365640000000000000000000000000000000000000000000000000000006020830152604082019050919050565b60006118b9604383611cfb565b91507f546f6b656e537761707065723a206578706972792073686f756c64206265206960008301527f6e206675747572652c20627574206c657373207468616e20612079656172206160208301527f77617900000000000000000000000000000000000000000000000000000000006040830152606082019050919050565b6000611945602583611cfb565b91507f546f6b656e537761707065723a20696e636f727265637420737761702065786560008301527f6375746f720000000000000000000000000000000000000000000000000000006020830152604082019050919050565b60006119ab601d83611cfb565b91507f416464726573733a2063616c6c20746f206e6f6e2d636f6e74726163740000006000830152602082019050919050565b60006119eb602a83611cfb565b91507f5361666545524332303a204552433230206f7065726174696f6e20646964206e60008301527f6f742073756363656564000000000000000000000000000000000000000000006020830152604082019050919050565b60c082016000820151611a5a600085018261163d565b506020820151611a6d602085018261163d565b506040820151611a806040850182611abf565b506060820151611a93606085018261163d565b506080820151611aa66080850182611abf565b5060a0820151611ab960a0850182611abf565b50505050565b611ac881611da0565b82525050565b611ad781611da0565b82525050565b6000611ae9828461166a565b915081905092915050565b6000606082019050611b09600083018661164c565b611b16602083018561164c565b611b236040830184611ace565b949350505050565b6000604082019050611b40600083018561164c565b611b4d6020830184611ace565b9392505050565b6000602082019050611b69600083018461165b565b92915050565b60006020820190508181036000830152611b89818461169b565b905092915050565b60006020820190508181036000830152611baa816116d4565b9050919050565b60006020820190508181036000830152611bca8161173a565b9050919050565b60006020820190508181036000830152611bea816117a0565b9050919050565b60006020820190508181036000830152611c0a816117e0565b9050919050565b60006020820190508181036000830152611c2a81611846565b9050919050565b60006020820190508181036000830152611c4a816118ac565b9050919050565b60006020820190508181036000830152611c6a81611938565b9050919050565b60006020820190508181036000830152611c8a8161199e565b9050919050565b60006020820190508181036000830152611caa816119de565b9050919050565b600060e082019050611cc66000830185611a44565b611cd360c0830184611ace565b9392505050565b600081519050919050565b600081519050919050565b600081905092915050565b600082825260208201905092915050565b6000611d1782611da0565b9150611d2283611da0565b9250827fffffffffffffffffffffffffffffffffffffffffffffffffffffffffffffffff03821115611d5757611d56611ddd565b5b828201905092915050565b6000611d6d82611d80565b9050919050565b60008115159050919050565b600073ffffffffffffffffffffffffffffffffffffffff82169050919050565b6000819050919050565b60005b83811015611dc8578082015181840152602081019050611dad565b83811115611dd7576000848401525b50505050565b7f4e487b7100000000000000000000000000000000000000000000000000000000600052601160045260246000fd5b6000601f19601f8301169050919050565b611e2681611d62565b8114611e3157600080fd5b50565b611e3d81611d74565b8114611e4857600080fd5b50565b611e5481611da0565b8114611e5f57600080fd5b5056fea26469706673582212204c3a1346c9d081baf00f519f8cb24268f898e9b29799afe206341839a2c736e164736f6c63430008000033",
  "immutableReferences": {},
  "source": "// SPDX-License-Identifier: AGPL-3.0-or-later\npragma solidity ^0.8.0;\npragma abicoder v2;\n\n/**\n * @dev Wrappers over Solidity's arithmetic operations with added overflow\n * checks.\n *\n * Arithmetic operations in Solidity wrap on overflow. This can easily result\n * in bugs, because programmers usually assume that an overflow raises an\n * error, which is the standard behavior in high level programming languages.\n * `SafeMath` restores this intuition by reverting the transaction when an\n * operation overflows.\n *\n * Using this library instead of the unchecked operations eliminates an entire\n * class of bugs, so it's recommended to use it always.\n */\nlibrary SafeMath {\n    /**\n     * @dev Returns the addition of two unsigned integers, with an overflow flag.\n     */\n    function tryAdd(uint256 a, uint256 b) internal pure returns (bool, uint256) {\n        uint256 c = a + b;\n        if (c < a) return (false, 0);\n        return (true, c);\n    }\n\n    /**\n     * @dev Returns the substraction of two unsigned integers, with an overflow flag.\n     */\n    function trySub(uint256 a, uint256 b) internal pure returns (bool, uint256) {\n        if (b > a) return (false, 0);\n        return (true, a - b);\n    }\n\n    /**\n     * @dev Returns the multiplication of two unsigned integers, with an overflow flag.\n     */\n    function tryMul(uint256 a, uint256 b) internal pure returns (bool, uint256) {\n        // Gas optimization: this is cheaper than requiring 'a' not being zero, but the\n        // benefit is lost if 'b' is also tested.\n        // See: https://github.com/OpenZeppelin/openzeppelin-contracts/pull/522\n        if (a == 0) return (true, 0);\n        uint256 c = a * b;\n        if (c / a != b) return (false, 0);\n        return (true, c);\n    }\n\n    /**\n     * @dev Returns the division of two unsigned integers, with a division by zero flag.\n     */\n    function tryDiv(uint256 a, uint256 b) internal pure returns (bool, uint256) {\n        if (b == 0) return (false, 0);\n        return (true, a / b);\n    }\n\n    /**\n     * @dev Returns the remainder of dividing two unsigned integers, with a division by zero flag.\n     */\n    function tryMod(uint256 a, uint256 b) internal pure returns (bool, uint256) {\n        if (b == 0) return (false, 0);\n        return (true, a % b);\n    }\n\n    /**\n     * @dev Returns the addition of two unsigned integers, reverting on\n     * overflow.\n     *\n     * Counterpart to Solidity's `+` operator.\n     *\n     * Requirements:\n     *\n     * - Addition cannot overflow.\n     */\n    function add(uint256 a, uint256 b) internal pure returns (uint256) {\n        uint256 c = a + b;\n        require(c >= a, \"SafeMath: addition overflow\");\n        return c;\n    }\n\n    /**\n     * @dev Returns the subtraction of two unsigned integers, reverting on\n     * overflow (when the result is negative).\n     *\n     * Counterpart to Solidity's `-` operator.\n     *\n     * Requirements:\n     *\n     * - Subtraction cannot overflow.\n     */\n    function sub(uint256 a, uint256 b) internal pure returns (uint256) {\n        require(b <= a, \"SafeMath: subtraction overflow\");\n        return a - b;\n    }\n\n    /**\n     * @dev Returns the multiplication of two unsigned integers, reverting on\n     * overflow.\n     *\n     * Counterpart to Solidity's `*` operator.\n     *\n     * Requirements:\n     *\n     * - Multiplication cannot overflow.\n     */\n    function mul(uint256 a, uint256 b) internal pure returns (uint256) {\n        if (a == 0) return 0;\n        uint256 c = a * b;\n        require(c / a == b, \"SafeMath: multiplication overflow\");\n        return c;\n    }\n\n    /**\n     * @dev Returns the integer division of two unsigned integers, reverting on\n     * division by zero. The result is rounded towards zero.\n     *\n     * Counterpart to Solidity's `/` operator. Note: this function uses a\n     * `revert` opcode (which leaves remaining gas untouched) while Solidity\n     * uses an invalid opcode to revert (consuming all remaining gas).\n     *\n     * Requirements:\n     *\n     * - The divisor cannot be zero.\n     */\n    function div(uint256 a, uint256 b) internal pure returns (uint256) {\n        require(b > 0, \"SafeMath: division by zero\");\n        return a / b;\n    }\n\n    /**\n     * @dev Returns the remainder of dividing two unsigned integers. (unsigned integer modulo),\n     * reverting when dividing by zero.\n     *\n     * Counterpart to Solidity's `%` operator. This function uses a `revert`\n     * opcode (which leaves remaining gas untouched) while Solidity uses an\n     * invalid opcode to revert (consuming all remaining gas).\n     *\n     * Requirements:\n     *\n     * - The divisor cannot be zero.\n     */\n    function mod(uint256 a, uint256 b) internal pure returns (uint256) {\n        require(b > 0, \"SafeMath: modulo by zero\");\n        return a % b;\n    }\n\n    /**\n     * @dev Returns the subtraction of two unsigned integers, reverting with custom message on\n     * overflow (when the result is negative).\n     *\n     * CAUTION: This function is deprecated because it requires allocating memory for the error\n     * message unnecessarily. For custom revert reasons use {trySub}.\n     *\n     * Counterpart to Solidity's `-` operator.\n     *\n     * Requirements:\n     *\n     * - Subtraction cannot overflow.\n     */\n    function sub(uint256 a, uint256 b, string memory errorMessage) internal pure returns (uint256) {\n        require(b <= a, errorMessage);\n        return a - b;\n    }\n\n    /**\n     * @dev Returns the integer division of two unsigned integers, reverting with custom message on\n     * division by zero. The result is rounded towards zero.\n     *\n     * CAUTION: This function is deprecated because it requires allocating memory for the error\n     * message unnecessarily. For custom revert reasons use {tryDiv}.\n     *\n     * Counterpart to Solidity's `/` operator. Note: this function uses a\n     * `revert` opcode (which leaves remaining gas untouched) while Solidity\n     * uses an invalid opcode to revert (consuming all remaining gas).\n     *\n     * Requirements:\n     *\n     * - The divisor cannot be zero.\n     */\n    function div(uint256 a, uint256 b, string memory errorMessage) internal pure returns (uint256) {\n        require(b > 0, errorMessage);\n        return a / b;\n    }\n\n    /**\n     * @dev Returns the remainder of dividing two unsigned integers. (unsigned integer modulo),\n     * reverting with custom message when dividing by zero.\n     *\n     * CAUTION: This function is deprecated because it requires allocating memory for the error\n     * message unnecessarily. For custom revert reasons use {tryMod}.\n     *\n     * Counterpart to Solidity's `%` operator. This function uses a `revert`\n     * opcode (which leaves remaining gas untouched) while Solidity uses an\n     * invalid opcode to revert (consuming all remaining gas).\n     *\n     * Requirements:\n     *\n     * - The divisor cannot be zero.\n     */\n    function mod(uint256 a, uint256 b, string memory errorMessage) internal pure returns (uint256) {\n        require(b > 0, errorMessage);\n        return a % b;\n    }\n}\n\n/**\n * @dev Interface of the ERC20 standard as defined in the EIP.\n */\ninterface IERC20 {\n    /**\n     * @dev Returns the amount of tokens in existence.\n     */\n    function totalSupply() external view returns (uint256);\n\n    /**\n     * @dev Returns the amount of tokens owned by `account`.\n     */\n    function balanceOf(address account) external view returns (uint256);\n\n    /**\n     * @dev Moves `amount` tokens from the caller's account to `recipient`.\n     *\n     * Returns a boolean value indicating whether the operation succeeded.\n     *\n     * Emits a {Transfer} event.\n     */\n    function transfer(address recipient, uint256 amount) external returns (bool);\n\n    /**\n     * @dev Returns the remaining number of tokens that `spender` will be\n     * allowed to spend on behalf of `owner` through {transferFrom}. This is\n     * zero by default.\n     *\n     * This value changes when {approve} or {transferFrom} are called.\n     */\n    function allowance(address owner, address spender) external view returns (uint256);\n\n    /**\n     * @dev Sets `amount` as the allowance of `spender` over the caller's tokens.\n     *\n     * Returns a boolean value indicating whether the operation succeeded.\n     *\n     * IMPORTANT: Beware that changing an allowance with this method brings the risk\n     * that someone may use both the old and the new allowance by unfortunate\n     * transaction ordering. One possible solution to mitigate this race\n     * condition is to first reduce the spender's allowance to 0 and set the\n     * desired value afterwards:\n     * https://github.com/ethereum/EIPs/issues/20#issuecomment-263524729\n     *\n     * Emits an {Approval} event.\n     */\n    function approve(address spender, uint256 amount) external returns (bool);\n\n    /**\n     * @dev Moves `amount` tokens from `sender` to `recipient` using the\n     * allowance mechanism. `amount` is then deducted from the caller's\n     * allowance.\n     *\n     * Returns a boolean value indicating whether the operation succeeded.\n     *\n     * Emits a {Transfer} event.\n     */\n    function transferFrom(address sender, address recipient, uint256 amount) external returns (bool);\n\n    /**\n     * @dev Emitted when `value` tokens are moved from one account (`from`) to\n     * another (`to`).\n     *\n     * Note that `value` may be zero.\n     */\n    event Transfer(address indexed from, address indexed to, uint256 value);\n\n    /**\n     * @dev Emitted when the allowance of a `spender` for an `owner` is set by\n     * a call to {approve}. `value` is the new allowance.\n     */\n    event Approval(address indexed owner, address indexed spender, uint256 value);\n}\n\n\n\n\n/*\n * @dev Provides information about the current execution context, including the\n * sender of the transaction and its data. While these are generally available\n * via msg.sender and msg.data, they should not be accessed in such a direct\n * manner, since when dealing with GSN meta-transactions the account sending and\n * paying for execution may not be the actual sender (as far as an application\n * is concerned).\n *\n * This contract is only required for intermediate, library-like contracts.\n */\nabstract contract Context {\n    function _msgSender() internal view virtual returns (address payable) {\n\t\t// Since Solidity 0.8, msg.sender is not payable anymore. You need to cast it to payable first.\t\n        // Old code was       return msg.sender;\n\t\t\n\t\treturn payable(msg.sender);\t\t\n    }\n\n    function _msgData() internal view virtual returns (bytes memory) {\n        this; // silence state mutability warning without generating bytecode - see https://github.com/ethereum/solidity/issues/2691\n        return msg.data;\n    }\n}\n\n/**\n * @dev Collection of functions related to the address type\n */\nlibrary Address {\n    /**\n     * @dev Returns true if `account` is a contract.\n     *\n     * [IMPORTANT]\n     * ====\n     * It is unsafe to assume that an address for which this function returns\n     * false is an externally-owned account (EOA) and not a contract.\n     *\n     * Among others, `isContract` will return false for the following\n     * types of addresses:\n     *\n     *  - an externally-owned account\n     *  - a contract in construction\n     *  - an address where a contract will be created\n     *  - an address where a contract lived, but was destroyed\n     * ====\n     */\n    function isContract(address account) internal view returns (bool) {\n        // This method relies on extcodesize, which returns 0 for contracts in\n        // construction, since the code is only stored at the end of the\n        // constructor execution.\n\n        uint256 size;\n        // solhint-disable-next-line no-inline-assembly\n        assembly { size := extcodesize(account) }\n        return size > 0;\n    }\n\n    /**\n     * @dev Replacement for Solidity's `transfer`: sends `amount` wei to\n     * `recipient`, forwarding all available gas and reverting on errors.\n     *\n     * https://eips.ethereum.org/EIPS/eip-1884[EIP1884] increases the gas cost\n     * of certain opcodes, possibly making contracts go over the 2300 gas limit\n     * imposed by `transfer`, making them unable to receive funds via\n     * `transfer`. {sendValue} removes this limitation.\n     *\n     * https://diligence.consensys.net/posts/2019/09/stop-using-soliditys-transfer-now/[Learn more].\n     *\n     * IMPORTANT: because control is transferred to `recipient`, care must be\n     * taken to not create reentrancy vulnerabilities. Consider using\n     * {ReentrancyGuard} or the\n     * https://solidity.readthedocs.io/en/v0.5.11/security-considerations.html#use-the-checks-effects-interactions-pattern[checks-effects-interactions pattern].\n     */\n    function sendValue(address payable recipient, uint256 amount) internal {\n        require(address(this).balance >= amount, \"Address: insufficient balance\");\n\n        // solhint-disable-next-line avoid-low-level-calls, avoid-call-value\n        (bool success, ) = recipient.call{ value: amount }(\"\");\n        require(success, \"Address: unable to send value, recipient may have reverted\");\n    }\n\n    /**\n     * @dev Performs a Solidity function call using a low level `call`. A\n     * plain`call` is an unsafe replacement for a function call: use this\n     * function instead.\n     *\n     * If `target` reverts with a revert reason, it is bubbled up by this\n     * function (like regular Solidity function calls).\n     *\n     * Returns the raw returned data. To convert to the expected return value,\n     * use https://solidity.readthedocs.io/en/latest/units-and-global-variables.html?highlight=abi.decode#abi-encoding-and-decoding-functions[`abi.decode`].\n     *\n     * Requirements:\n     *\n     * - `target` must be a contract.\n     * - calling `target` with `data` must not revert.\n     *\n     * _Available since v3.1._\n     */\n    function functionCall(address target, bytes memory data) internal returns (bytes memory) {\n      return functionCall(target, data, \"Address: low-level call failed\");\n    }\n\n    /**\n     * @dev Same as {xref-Address-functionCall-address-bytes-}[`functionCall`], but with\n     * `errorMessage` as a fallback revert reason when `target` reverts.\n     *\n     * _Available since v3.1._\n     */\n    function functionCall(address target, bytes memory data, string memory errorMessage) internal returns (bytes memory) {\n        return functionCallWithValue(target, data, 0, errorMessage);\n    }\n\n    /**\n     * @dev Same as {xref-Address-functionCall-address-bytes-}[`functionCall`],\n     * but also transferring `value` wei to `target`.\n     *\n     * Requirements:\n     *\n     * - the calling contract must have an ETH balance of at least `value`.\n     * - the called Solidity function must be `payable`.\n     *\n     * _Available since v3.1._\n     */\n    function functionCallWithValue(address target, bytes memory data, uint256 value) internal returns (bytes memory) {\n        return functionCallWithValue(target, data, value, \"Address: low-level call with value failed\");\n    }\n\n    /**\n     * @dev Same as {xref-Address-functionCallWithValue-address-bytes-uint256-}[`functionCallWithValue`], but\n     * with `errorMessage` as a fallback revert reason when `target` reverts.\n     *\n     * _Available since v3.1._\n     */\n    function functionCallWithValue(address target, bytes memory data, uint256 value, string memory errorMessage) internal returns (bytes memory) {\n        require(address(this).balance >= value, \"Address: insufficient balance for call\");\n        require(isContract(target), \"Address: call to non-contract\");\n\n        // solhint-disable-next-line avoid-low-level-calls\n        (bool success, bytes memory returndata) = target.call{ value: value }(data);\n        return _verifyCallResult(success, returndata, errorMessage);\n    }\n\n    /**\n     * @dev Same as {xref-Address-functionCall-address-bytes-}[`functionCall`],\n     * but performing a static call.\n     *\n     * _Available since v3.3._\n     */\n    function functionStaticCall(address target, bytes memory data) internal view returns (bytes memory) {\n        return functionStaticCall(target, data, \"Address: low-level static call failed\");\n    }\n\n    /**\n     * @dev Same as {xref-Address-functionCall-address-bytes-string-}[`functionCall`],\n     * but performing a static call.\n     *\n     * _Available since v3.3._\n     */\n    function functionStaticCall(address target, bytes memory data, string memory errorMessage) internal view returns (bytes memory) {\n        require(isContract(target), \"Address: static call to non-contract\");\n\n        // solhint-disable-next-line avoid-low-level-calls\n        (bool success, bytes memory returndata) = target.staticcall(data);\n        return _verifyCallResult(success, returndata, errorMessage);\n    }\n\n    /**\n     * @dev Same as {xref-Address-functionCall-address-bytes-}[`functionCall`],\n     * but performing a delegate call.\n     *\n     * _Available since v3.3._\n     */\n    function functionDelegateCall(address target, bytes memory data) internal returns (bytes memory) {\n        return functionDelegateCall(target, data, \"Address: low-level delegate call failed\");\n    }\n\n    /**\n     * @dev Same as {xref-Address-functionCall-address-bytes-string-}[`functionCall`],\n     * but performing a delegate call.\n     *\n     * _Available since v3.3._\n     */\n    function functionDelegateCall(address target, bytes memory data, string memory errorMessage) internal returns (bytes memory) {\n        require(isContract(target), \"Address: delegate call to non-contract\");\n\n        // solhint-disable-next-line avoid-low-level-calls\n        (bool success, bytes memory returndata) = target.delegatecall(data);\n        return _verifyCallResult(success, returndata, errorMessage);\n    }\n\n    function _verifyCallResult(bool success, bytes memory returndata, string memory errorMessage) private pure returns(bytes memory) {\n        if (success) {\n            return returndata;\n        } else {\n            // Look for revert reason and bubble it up if present\n            if (returndata.length > 0) {\n                // The easiest way to bubble the revert reason is using memory via assembly\n\n                // solhint-disable-next-line no-inline-assembly\n                assembly {\n                    let returndata_size := mload(returndata)\n                    revert(add(32, returndata), returndata_size)\n                }\n            } else {\n                revert(errorMessage);\n            }\n        }\n    }\n}\n\n/**\n * @title SafeERC20\n * @dev Wrappers around ERC20 operations that throw on failure (when the token\n * contract returns false). Tokens that return no value (and instead revert or\n * throw on failure) are also supported, non-reverting calls are assumed to be\n * successful.\n * To use this library you can add a `using SafeERC20 for IERC20;` statement to your contract,\n * which allows you to call the safe operations as `token.safeTransfer(...)`, etc.\n */\nlibrary SafeERC20 {\n    using SafeMath for uint256;\n    using Address for address;\n\n    function safeTransfer(IERC20 token, address to, uint256 value) internal {\n        _callOptionalReturn(token, abi.encodeWithSelector(token.transfer.selector, to, value));\n    }\n\n    function safeTransferFrom(IERC20 token, address from, address to, uint256 value) internal {\n        _callOptionalReturn(token, abi.encodeWithSelector(token.transferFrom.selector, from, to, value));\n    }\n\n    /**\n     * @dev Deprecated. This function has issues similar to the ones found in\n     * {IERC20-approve}, and its usage is discouraged.\n     *\n     * Whenever possible, use {safeIncreaseAllowance} and\n     * {safeDecreaseAllowance} instead.\n     */\n    function safeApprove(IERC20 token, address spender, uint256 value) internal {\n        // safeApprove should only be called when setting an initial allowance,\n        // or when resetting it to zero. To increase and decrease it, use\n        // 'safeIncreaseAllowance' and 'safeDecreaseAllowance'\n        // solhint-disable-next-line max-line-length\n        require((value == 0) || (token.allowance(address(this), spender) == 0),\n            \"SafeERC20: approve from non-zero to non-zero allowance\"\n        );\n        _callOptionalReturn(token, abi.encodeWithSelector(token.approve.selector, spender, value));\n    }\n\n    function safeIncreaseAllowance(IERC20 token, address spender, uint256 value) internal {\n        uint256 newAllowance = token.allowance(address(this), spender).add(value);\n        _callOptionalReturn(token, abi.encodeWithSelector(token.approve.selector, spender, newAllowance));\n    }\n\n    function safeDecreaseAllowance(IERC20 token, address spender, uint256 value) internal {\n        uint256 newAllowance = token.allowance(address(this), spender).sub(value, \"SafeERC20: decreased allowance below zero\");\n        _callOptionalReturn(token, abi.encodeWithSelector(token.approve.selector, spender, newAllowance));\n    }\n\n    /**\n     * @dev Imitates a Solidity high-level call (i.e. a regular function call to a contract), relaxing the requirement\n     * on the return value: the return value is optional (but if data is returned, it must not be false).\n     * @param token The token targeted by the call.\n     * @param data The call data (encoded using abi.encode or one of its variants).\n     */\n    function _callOptionalReturn(IERC20 token, bytes memory data) private {\n        // We need to perform a low level call here, to bypass Solidity's return data size checking mechanism, since\n        // we're implementing it ourselves. We use {Address.functionCall} to perform this call, which verifies that\n        // the target address contains contract code and also asserts for success in the low-level call.\n\n        bytes memory returndata = address(token).functionCall(data, \"SafeERC20: low-level call failed\");\n        if (returndata.length > 0) { // Return data is optional\n            // solhint-disable-next-line max-line-length\n            require(abi.decode(returndata, (bool)), \"SafeERC20: ERC20 operation did not succeed\");\n        }\n    }\n}\n\n\n\n\ncontract TokenSwapper {\n    struct Swap {\n        address executor;\n        address openingToken;\n        uint256 tokensToOpen;\n        address closingToken;\n        uint256 tokensToClose;\n        uint256 expiry;\n    }\n\n    enum States {\n        INVALID,\n        OPEN,\n        CLOSED,\n        EXPIRED\n    }\n\n    //swaps stored as allSwaps[swapOriginator][swapNumber]\n    mapping(address => mapping(uint256 => Swap)) allSwaps;\n    //separately tracks corresponding swap states\n    mapping(address => mapping(uint256 => States)) swapStates;\n\n    event Opened(address originator, uint256 swapNumber);\n    event Closed(address originator, uint256 swapNumber);\n    event Expired(address originator, uint256 swapNumber);\n\n    function open(uint256 swapNumber, address _executor, address _openingToken, uint256 _tokensToOpen, address _closingToken, uint256 _tokensToClose, uint256 _expiry) external returns(bool) {\n        //sanity checks\n        require(_expiry > block.timestamp && _expiry < block.timestamp + 360 days, \"TokenSwapper: expiry should be in future, but less than a year away\");\n\n        //fetch details of swap\n        Swap memory swap = allSwaps[msg.sender][swapNumber];\n        //check if swap number already used\n        require(swapStates[msg.sender][swapNumber] == States.INVALID, \"TokenSwapper: swapNumber already used\");\n        //fill in new swap details\n        swap = Swap({\n            executor: _executor,\n            openingToken: _openingToken,\n            tokensToOpen: _tokensToOpen,\n            closingToken: _closingToken,\n            tokensToClose: _tokensToClose,\n            expiry: _expiry\n        });\n\n        //transfer tokensToOpen from swap creator\n        IERC20 token = IERC20(_openingToken);\n        SafeERC20.safeTransferFrom(token, msg.sender, address(this), _tokensToOpen);\n\n        //set swap to open\n        swapStates[msg.sender][swapNumber] = States.OPEN;\n\n        //store swap details in storage\n        allSwaps[msg.sender][swapNumber] = swap;\n\n        //emit event\n        emit Opened(msg.sender, swapNumber);\n\n        return true;\n    }\n\n    function close(address originator, uint256 swapNumber) external returns(bool) {\n        //fetch swap data\n        Swap memory swap = allSwaps[originator][swapNumber];\n\n        require(swapStates[originator][swapNumber] == States.OPEN, \"TokenSwapper: swap not open\");\n        require(msg.sender == swap.executor, \"TokenSwapper: incorrect swap executor\");\n        require(block.timestamp <= swap.expiry, \"TokenSwapper: swap expiration passed\");\n\n        //transfer tokensToClose from msg.sender to originator\n        IERC20 tokenB = IERC20(swap.closingToken);\n        SafeERC20.safeTransferFrom(tokenB, msg.sender, originator, swap.tokensToClose);\n\n        //set swap to closed\n        swapStates[originator][swapNumber] = States.CLOSED;\n\n        //transfer tokensToOpen from originator to msg.sender\n        IERC20 tokenA = IERC20(swap.openingToken);\n        SafeERC20.safeTransfer(tokenA, msg.sender, swap.tokensToOpen);\n\n        //emit event\n        emit Closed(originator, swapNumber);\n\n        return true;\n    }\n\n    function expire(address originator, uint256 swapNumber) external returns(bool) {\n        //fetch swap data\n        Swap memory swap = allSwaps[originator][swapNumber];\n\n        require(swapStates[originator][swapNumber] == States.OPEN, \"TokenSwapper: swap not open\");\n        require(block.timestamp > swap.expiry, \"TokenSwapper: swap not yet expired\");\n\n        //set swap to expired\n        swapStates[originator][swapNumber] = States.EXPIRED;\n\n        //transfer tokensToOpen back to originator\n        IERC20 token = IERC20(swap.openingToken);\n        SafeERC20.safeTransfer(token, originator, swap.tokensToOpen);\n\n        //emit event\n        emit Expired(originator, swapNumber);\n\n        return true;\n    }\n\n    function getSwapData(address originator, uint256 swapNumber) external view\n    returns(Swap memory, uint256 swapState){\n        Swap memory swap = allSwaps[originator][swapNumber];\n        return(swap, uint256(swapStates[originator][swapNumber]));\n    }\n}\n\n\n\n\n",
  "sourcePath": "/home/shahzad/Shahzad/projects/git/ERC1404/contracts/ERC20_swapper_V3.sol",
  "compiler": {
    "name": "solc",
    "version": "0.8.0+commit.c7dfd78e.Emscripten.clang"
  },
  "schemaVersion": "3.3.4",
  "updatedAt": "2021-12-22T11:53:44.057Z",
  "devdoc": {
    "kind": "dev",
    "methods": {},
    "version": 1
  },
  "userdoc": {
    "kind": "user",
    "methods": {},
    "version": 1
  }
}