{
  "contractName": "Whitelist",
  "abi": [
    {
      "anonymous": false,
      "inputs": [
        {
          "indexed": true,
          "internalType": "address",
          "name": "previousOwner",
          "type": "address"
        },
        {
          "indexed": true,
          "internalType": "address",
          "name": "newOwner",
          "type": "address"
        }
      ],
      "name": "OwnershipTransferred",
      "type": "event"
    },
    {
      "anonymous": false,
      "inputs": [
        {
          "indexed": true,
          "internalType": "address",
          "name": "operator",
          "type": "address"
        },
        {
          "indexed": false,
          "internalType": "string",
          "name": "role",
          "type": "string"
        }
      ],
      "name": "RoleAdded",
      "type": "event"
    },
    {
      "anonymous": false,
      "inputs": [
        {
          "indexed": true,
          "internalType": "address",
          "name": "operator",
          "type": "address"
        },
        {
          "indexed": false,
          "internalType": "string",
          "name": "role",
          "type": "string"
        }
      ],
      "name": "RoleRemoved",
      "type": "event"
    },
    {
      "inputs": [],
      "name": "ROLE_WHITELISTED",
      "outputs": [
        {
          "internalType": "string",
          "name": "",
          "type": "string"
        }
      ],
      "stateMutability": "view",
      "type": "function",
      "constant": true
    },
    {
      "inputs": [
        {
          "internalType": "address",
          "name": "_operator",
          "type": "address"
        },
        {
          "internalType": "string",
          "name": "_role",
          "type": "string"
        }
      ],
      "name": "checkRole",
      "outputs": [],
      "stateMutability": "view",
      "type": "function",
      "constant": true
    },
    {
      "inputs": [
        {
          "internalType": "address",
          "name": "_operator",
          "type": "address"
        },
        {
          "internalType": "string",
          "name": "_role",
          "type": "string"
        }
      ],
      "name": "hasRole",
      "outputs": [
        {
          "internalType": "bool",
          "name": "",
          "type": "bool"
        }
      ],
      "stateMutability": "view",
      "type": "function",
      "constant": true
    },
    {
      "inputs": [],
      "name": "owner",
      "outputs": [
        {
          "internalType": "address",
          "name": "",
          "type": "address"
        }
      ],
      "stateMutability": "view",
      "type": "function",
      "constant": true
    },
    {
      "inputs": [],
      "name": "renounceOwnership",
      "outputs": [],
      "stateMutability": "nonpayable",
      "type": "function"
    },
    {
      "inputs": [
        {
          "internalType": "address",
          "name": "newOwner",
          "type": "address"
        }
      ],
      "name": "transferOwnership",
      "outputs": [],
      "stateMutability": "nonpayable",
      "type": "function"
    },
    {
      "inputs": [
        {
          "internalType": "address",
          "name": "_operator",
          "type": "address"
        }
      ],
      "name": "addAddressToWhitelist",
      "outputs": [],
      "stateMutability": "nonpayable",
      "type": "function"
    },
    {
      "inputs": [
        {
          "internalType": "address",
          "name": "_operator",
          "type": "address"
        }
      ],
      "name": "whitelist",
      "outputs": [
        {
          "internalType": "bool",
          "name": "",
          "type": "bool"
        }
      ],
      "stateMutability": "view",
      "type": "function",
      "constant": true
    },
    {
      "inputs": [
        {
          "internalType": "address[]",
          "name": "_operators",
          "type": "address[]"
        }
      ],
      "name": "addAddressesToWhitelist",
      "outputs": [],
      "stateMutability": "nonpayable",
      "type": "function"
    },
    {
      "inputs": [
        {
          "internalType": "address",
          "name": "_operator",
          "type": "address"
        }
      ],
      "name": "removeAddressFromWhitelist",
      "outputs": [],
      "stateMutability": "nonpayable",
      "type": "function"
    },
    {
      "inputs": [
        {
          "internalType": "address[]",
          "name": "_operators",
          "type": "address[]"
        }
      ],
      "name": "removeAddressesFromWhitelist",
      "outputs": [],
      "stateMutability": "nonpayable",
      "type": "function"
    }
  ],
  "bytecode": "0x608060405234801561001057600080fd5b5061002d61002261003260201b60201c565b61003a60201b60201c565b6100fe565b600033905090565b60008060009054906101000a900473ffffffffffffffffffffffffffffffffffffffff169050816000806101000a81548173ffffffffffffffffffffffffffffffffffffffff021916908373ffffffffffffffffffffffffffffffffffffffff1602179055508173ffffffffffffffffffffffffffffffffffffffff168173ffffffffffffffffffffffffffffffffffffffff167f8be0079c531659141344cd1fd0a4f28419497f9722a3daafe3b4186f6b6457e060405160405180910390a35050565b6110cd8061010d6000396000f3fe608060405234801561001057600080fd5b50600436106100a95760003560e01c8063715018a611610071578063715018a6146101505780637b9417c81461015a5780638da5cb5b146101765780639b19251a14610194578063e2ec6ec3146101c4578063f2fde38b146101e0576100a9565b80630988ca8c146100ae57806318b919e9146100ca578063217fe6c6146100e857806324953eaa14610118578063286dd3f514610134575b600080fd5b6100c860048036038101906100c39190610c18565b6101fc565b005b6100d2610230565b6040516100df9190610e28565b60405180910390f35b61010260048036038101906100fd9190610c18565b610269565b60405161010f9190610e0d565b60405180910390f35b610132600480360381019061012d9190610c6c565b6102a3565b005b61014e60048036038101906101499190610bef565b61038b565b005b610158610449565b005b610174600480360381019061016f9190610bef565b6104d1565b005b61017e61058f565b60405161018b9190610df2565b60405180910390f35b6101ae60048036038101906101a99190610bef565b6105b8565b6040516101bb9190610e0d565b60405180910390f35b6101de60048036038101906101d99190610c6c565b610600565b005b6101fa60048036038101906101f59190610bef565b6106e8565b005b61022c826001836040516102109190610ddb565b90815260200160405180910390206107e090919063ffffffff16565b5050565b6040518060400160405280600981526020017f77686974656c697374000000000000000000000000000000000000000000000081525081565b600061029b8360018460405161027f9190610ddb565b90815260200160405180910390206107f790919063ffffffff16565b905092915050565b6102ab610850565b73ffffffffffffffffffffffffffffffffffffffff166102c961058f565b73ffffffffffffffffffffffffffffffffffffffff161461031f576040517f08c379a000000000000000000000000000000000000000000000000000000000815260040161031690610e6a565b60405180910390fd5b60005b815181101561038757610374828281518110610367577f4e487b7100000000000000000000000000000000000000000000000000000000600052603260045260246000fd5b602002602001015161038b565b808061037f90610fc8565b915050610322565b5050565b610393610850565b73ffffffffffffffffffffffffffffffffffffffff166103b161058f565b73ffffffffffffffffffffffffffffffffffffffff1614610407576040517f08c379a00000000000000000000000000000000000000000000000000000000081526004016103fe90610e6a565b60405180910390fd5b610446816040518060400160405280600981526020017f77686974656c6973740000000000000000000000000000000000000000000000815250610858565b50565b610451610850565b73ffffffffffffffffffffffffffffffffffffffff1661046f61058f565b73ffffffffffffffffffffffffffffffffffffffff16146104c5576040517f08c379a00000000000000000000000000000000000000000000000000000000081526004016104bc90610e6a565b60405180910390fd5b6104cf60006108da565b565b6104d9610850565b73ffffffffffffffffffffffffffffffffffffffff166104f761058f565b73ffffffffffffffffffffffffffffffffffffffff161461054d576040517f08c379a000000000000000000000000000000000000000000000000000000000815260040161054490610e6a565b60405180910390fd5b61058c816040518060400160405280600981526020017f77686974656c697374000000000000000000000000000000000000000000000081525061099e565b50565b60008060009054906101000a900473ffffffffffffffffffffffffffffffffffffffff16905090565b60006105f9826040518060400160405280600981526020017f77686974656c6973740000000000000000000000000000000000000000000000815250610269565b9050919050565b610608610850565b73ffffffffffffffffffffffffffffffffffffffff1661062661058f565b73ffffffffffffffffffffffffffffffffffffffff161461067c576040517f08c379a000000000000000000000000000000000000000000000000000000000815260040161067390610e6a565b60405180910390fd5b60005b81518110156106e4576106d18282815181106106c4577f4e487b7100000000000000000000000000000000000000000000000000000000600052603260045260246000fd5b60200260200101516104d1565b80806106dc90610fc8565b91505061067f565b5050565b6106f0610850565b73ffffffffffffffffffffffffffffffffffffffff1661070e61058f565b73ffffffffffffffffffffffffffffffffffffffff1614610764576040517f08c379a000000000000000000000000000000000000000000000000000000000815260040161075b90610e6a565b60405180910390fd5b600073ffffffffffffffffffffffffffffffffffffffff168173ffffffffffffffffffffffffffffffffffffffff1614156107d4576040517f08c379a00000000000000000000000000000000000000000000000000000000081526004016107cb90610e4a565b60405180910390fd5b6107dd816108da565b50565b6107ea82826107f7565b6107f357600080fd5b5050565b60008260000160008373ffffffffffffffffffffffffffffffffffffffff1673ffffffffffffffffffffffffffffffffffffffff16815260200190815260200160002060009054906101000a900460ff16905092915050565b600033905090565b6108888260018360405161086c9190610ddb565b9081526020016040518091039020610a2090919063ffffffff16565b8173ffffffffffffffffffffffffffffffffffffffff167fd211483f91fc6eff862467f8de606587a30c8fc9981056f051b897a418df803a826040516108ce9190610e28565b60405180910390a25050565b60008060009054906101000a900473ffffffffffffffffffffffffffffffffffffffff169050816000806101000a81548173ffffffffffffffffffffffffffffffffffffffff021916908373ffffffffffffffffffffffffffffffffffffffff1602179055508173ffffffffffffffffffffffffffffffffffffffff168173ffffffffffffffffffffffffffffffffffffffff167f8be0079c531659141344cd1fd0a4f28419497f9722a3daafe3b4186f6b6457e060405160405180910390a35050565b6109ce826001836040516109b29190610ddb565b9081526020016040518091039020610a7e90919063ffffffff16565b8173ffffffffffffffffffffffffffffffffffffffff167fbfec83d64eaa953f2708271a023ab9ee82057f8f3578d548c1a4ba0b5b70048982604051610a149190610e28565b60405180910390a25050565b60008260000160008373ffffffffffffffffffffffffffffffffffffffff1673ffffffffffffffffffffffffffffffffffffffff16815260200190815260200160002060006101000a81548160ff0219169083151502179055505050565b60018260000160008373ffffffffffffffffffffffffffffffffffffffff1673ffffffffffffffffffffffffffffffffffffffff16815260200190815260200160002060006101000a81548160ff0219169083151502179055505050565b6000610aef610aea84610ebb565b610e8a565b90508083825260208201905082856020860282011115610b0e57600080fd5b60005b85811015610b3e5781610b248882610b86565b845260208401935060208301925050600181019050610b11565b5050509392505050565b6000610b5b610b5684610ee7565b610e8a565b905082815260208101848484011115610b7357600080fd5b610b7e848285610f86565b509392505050565b600081359050610b9581611080565b92915050565b600082601f830112610bac57600080fd5b8135610bbc848260208601610adc565b91505092915050565b600082601f830112610bd657600080fd5b8135610be6848260208601610b48565b91505092915050565b600060208284031215610c0157600080fd5b6000610c0f84828501610b86565b91505092915050565b60008060408385031215610c2b57600080fd5b6000610c3985828601610b86565b925050602083013567ffffffffffffffff811115610c5657600080fd5b610c6285828601610bc5565b9150509250929050565b600060208284031215610c7e57600080fd5b600082013567ffffffffffffffff811115610c9857600080fd5b610ca484828501610b9b565b91505092915050565b610cb681610f3e565b82525050565b610cc581610f50565b82525050565b6000610cd682610f17565b610ce08185610f22565b9350610cf0818560208601610f95565b610cf98161106f565b840191505092915050565b6000610d0f82610f17565b610d198185610f33565b9350610d29818560208601610f95565b80840191505092915050565b6000610d42602683610f22565b91507f4f776e61626c653a206e6577206f776e657220697320746865207a65726f206160008301527f64647265737300000000000000000000000000000000000000000000000000006020830152604082019050919050565b6000610da8602083610f22565b91507f4f776e61626c653a2063616c6c6572206973206e6f7420746865206f776e65726000830152602082019050919050565b6000610de78284610d04565b915081905092915050565b6000602082019050610e076000830184610cad565b92915050565b6000602082019050610e226000830184610cbc565b92915050565b60006020820190508181036000830152610e428184610ccb565b905092915050565b60006020820190508181036000830152610e6381610d35565b9050919050565b60006020820190508181036000830152610e8381610d9b565b9050919050565b6000604051905081810181811067ffffffffffffffff82111715610eb157610eb0611040565b5b8060405250919050565b600067ffffffffffffffff821115610ed657610ed5611040565b5b602082029050602081019050919050565b600067ffffffffffffffff821115610f0257610f01611040565b5b601f19601f8301169050602081019050919050565b600081519050919050565b600082825260208201905092915050565b600081905092915050565b6000610f4982610f5c565b9050919050565b60008115159050919050565b600073ffffffffffffffffffffffffffffffffffffffff82169050919050565b6000819050919050565b82818337600083830152505050565b60005b83811015610fb3578082015181840152602081019050610f98565b83811115610fc2576000848401525b50505050565b6000610fd382610f7c565b91507fffffffffffffffffffffffffffffffffffffffffffffffffffffffffffffffff82141561100657611005611011565b5b600182019050919050565b7f4e487b7100000000000000000000000000000000000000000000000000000000600052601160045260246000fd5b7f4e487b7100000000000000000000000000000000000000000000000000000000600052604160045260246000fd5b6000601f19601f8301169050919050565b61108981610f3e565b811461109457600080fd5b5056fea26469706673582212204b91f18c9851b9b63a10fe27d3d93050152982d8c012c43d80356d29c1b7ee7864736f6c63430008000033",
  "immutableReferences": {},
  "source": "// SPDX-License-Identifier: MIT\npragma solidity ^0.8.0;\n\n\nimport \"@openzeppelin/contracts/access/Ownable.sol\";\nimport \"./rbac/RBAC.sol\";\n\n\n/**\n * @title Whitelist\n * @dev The Whitelist contract has a whitelist of addresses, and provides basic authorization control functions.\n * This simplifies the implementation of \"user permissions\".\n */\ncontract Whitelist is Ownable, RBAC {\n  string public constant ROLE_WHITELISTED = \"whitelist\";\n\n  /**\n   * @dev Throws if operator is not whitelisted.\n   * @param _operator address\n   */\n  modifier onlyIfWhitelisted(address _operator) {\n    checkRole(_operator, ROLE_WHITELISTED);\n    _;\n  }\n\n  /**\n   * @dev add an address to the whitelist\n   * @param _operator address\n   */\n  function addAddressToWhitelist(address _operator)\n    public\n    onlyOwner\n  {\n    addRole(_operator, ROLE_WHITELISTED);\n  }\n\n  /**\n   * @dev getter to determine if address is in whitelist\n   */\n  function whitelist(address _operator)\n    public\n    view\n    returns (bool)\n  {\n    return hasRole(_operator, ROLE_WHITELISTED);\n  }\n\n  /**\n   * @dev add addresses to the whitelist\n   * @param _operators addresses\n   */\n  function addAddressesToWhitelist(address[] memory _operators)\n    public\n    onlyOwner\n  {\n    for (uint256 i = 0; i < _operators.length; i++) {\n      addAddressToWhitelist(_operators[i]);\n    }\n  }\n\n  /**\n   * @dev remove an address from the whitelist\n   * @param _operator address\n   */\n  function removeAddressFromWhitelist(address _operator)\n    public\n    onlyOwner\n  {\n    removeRole(_operator, ROLE_WHITELISTED);\n  }\n\n  /**\n   * @dev remove addresses from the whitelist\n   * @param _operators addresses\n   */\n  function removeAddressesFromWhitelist(address[] memory _operators)\n    public\n    onlyOwner\n  {\n    for (uint256 i = 0; i < _operators.length; i++) {\n      removeAddressFromWhitelist(_operators[i]);\n    }\n  }\n\n}\n",
  "sourcePath": "/home/shahzad/Temp/ERC140420/contracts/Whitelist.sol",
  "compiler": {
    "name": "solc",
    "version": "0.8.0+commit.c7dfd78e.Emscripten.clang"
  },
  "schemaVersion": "3.3.4",
  "updatedAt": "2021-10-28T09:05:15.032Z",
  "networkType": "ethereum",
  "devdoc": {
    "details": "The Whitelist contract has a whitelist of addresses, and provides basic authorization control functions. This simplifies the implementation of \"user permissions\".",
    "kind": "dev",
    "methods": {
      "addAddressToWhitelist(address)": {
        "details": "add an address to the whitelist",
        "params": {
          "_operator": "address"
        }
      },
      "addAddressesToWhitelist(address[])": {
        "details": "add addresses to the whitelist",
        "params": {
          "_operators": "addresses"
        }
      },
      "checkRole(address,string)": {
        "details": "reverts if addr does not have role",
        "params": {
          "_operator": "address",
          "_role": "the name of the role // reverts"
        }
      },
      "hasRole(address,string)": {
        "details": "determine if addr has role",
        "params": {
          "_operator": "address",
          "_role": "the name of the role"
        },
        "returns": {
          "_0": "bool"
        }
      },
      "owner()": {
        "details": "Returns the address of the current owner."
      },
      "removeAddressFromWhitelist(address)": {
        "details": "remove an address from the whitelist",
        "params": {
          "_operator": "address"
        }
      },
      "removeAddressesFromWhitelist(address[])": {
        "details": "remove addresses from the whitelist",
        "params": {
          "_operators": "addresses"
        }
      },
      "renounceOwnership()": {
        "details": "Leaves the contract without owner. It will not be possible to call `onlyOwner` functions anymore. Can only be called by the current owner. NOTE: Renouncing ownership will leave the contract without an owner, thereby removing any functionality that is only available to the owner."
      },
      "transferOwnership(address)": {
        "details": "Transfers ownership of the contract to a new account (`newOwner`). Can only be called by the current owner."
      },
      "whitelist(address)": {
        "details": "getter to determine if address is in whitelist"
      }
    },
    "title": "Whitelist",
    "version": 1
  },
  "userdoc": {
    "kind": "user",
    "methods": {},
    "version": 1
  }
}